{
  "_format": "hh-sol-artifact-1",
  "contractName": "DARC",
  "sourceName": "contracts/DARC.sol",
  "abi": [
    {
      "inputs": [
        {
          "internalType": "uint256",
          "name": "idx",
          "type": "uint256"
        }
      ],
      "name": "checkVotingResult",
      "outputs": [
        {
          "internalType": "enum VotingStatus",
          "name": "",
          "type": "uint8"
        }
      ],
      "stateMutability": "view",
      "type": "function"
    },
    {
      "inputs": [],
      "name": "checkVotingResults",
      "outputs": [
        {
          "internalType": "enum VotingStatus[]",
          "name": "",
          "type": "uint8[]"
        }
      ],
      "stateMutability": "view",
      "type": "function"
    },
    {
      "inputs": [],
      "name": "currentVotingEndTime",
      "outputs": [
        {
          "internalType": "uint256",
          "name": "",
          "type": "uint256"
        }
      ],
      "stateMutability": "view",
      "type": "function"
    },
    {
      "inputs": [
        {
          "components": [
            {
              "internalType": "address",
              "name": "programOperatorAddress",
              "type": "address"
            },
            {
              "components": [
                {
                  "internalType": "address",
                  "name": "operatorAddress",
                  "type": "address"
                },
                {
                  "internalType": "enum EnumOpcode",
                  "name": "opcode",
                  "type": "uint8"
                },
                {
                  "components": [
                    {
                      "internalType": "uint256[]",
                      "name": "UINT256_ARRAY",
                      "type": "uint256[]"
                    },
                    {
                      "internalType": "address[]",
                      "name": "ADDRESS_ARRAY",
                      "type": "address[]"
                    },
                    {
                      "internalType": "string[]",
                      "name": "STRING_ARRAY",
                      "type": "string[]"
                    },
                    {
                      "internalType": "bool[]",
                      "name": "BOOL_ARRAY",
                      "type": "bool[]"
                    },
                    {
                      "components": [
                        {
                          "internalType": "uint256[]",
                          "name": "votingTokenClassList",
                          "type": "uint256[]"
                        },
                        {
                          "internalType": "uint256",
                          "name": "approvalThresholdPercentage",
                          "type": "uint256"
                        },
                        {
                          "internalType": "uint256",
                          "name": "votingDurationInSeconds",
                          "type": "uint256"
                        },
                        {
                          "internalType": "uint256",
                          "name": "executionPendingDurationInSeconds",
                          "type": "uint256"
                        },
                        {
                          "internalType": "bool",
                          "name": "isForcedStopAllowed",
                          "type": "bool"
                        },
                        {
                          "internalType": "bool",
                          "name": "isEnabled",
                          "type": "bool"
                        },
                        {
                          "internalType": "string",
                          "name": "note",
                          "type": "string"
                        },
                        {
                          "internalType": "bool",
                          "name": "bIsAbsoluteMajority",
                          "type": "bool"
                        }
                      ],
                      "internalType": "struct VotingRule[]",
                      "name": "VOTING_RULE_ARRAY",
                      "type": "tuple[]"
                    },
                    {
                      "components": [
                        {
                          "internalType": "enum EnumReturnType",
                          "name": "returnType",
                          "type": "uint8"
                        },
                        {
                          "internalType": "uint256",
                          "name": "level",
                          "type": "uint256"
                        },
                        {
                          "components": [
                            {
                              "internalType": "uint256",
                              "name": "id",
                              "type": "uint256"
                            },
                            {
                              "internalType": "enum EnumConditionNodeType",
                              "name": "nodeType",
                              "type": "uint8"
                            },
                            {
                              "internalType": "enum EnumLogicalOperatorType",
                              "name": "logicalOperator",
                              "type": "uint8"
                            },
                            {
                              "internalType": "enum EnumConditionExpression",
                              "name": "conditionExpression",
                              "type": "uint8"
                            },
                            {
                              "internalType": "uint256[]",
                              "name": "childList",
                              "type": "uint256[]"
                            },
                            {
                              "components": [
                                {
                                  "internalType": "uint256[]",
                                  "name": "UINT256_ARRAY",
                                  "type": "uint256[]"
                                },
                                {
                                  "internalType": "address[]",
                                  "name": "ADDRESS_ARRAY",
                                  "type": "address[]"
                                },
                                {
                                  "internalType": "string[]",
                                  "name": "STRING_ARRAY",
                                  "type": "string[]"
                                },
                                {
                                  "internalType": "uint256[][]",
                                  "name": "UINT256_2DARRAY",
                                  "type": "uint256[][]"
                                },
                                {
                                  "internalType": "address[][]",
                                  "name": "ADDRESS_2DARRAY",
                                  "type": "address[][]"
                                },
                                {
                                  "internalType": "string[][]",
                                  "name": "STRING_2DARRAY",
                                  "type": "string[][]"
                                }
                              ],
                              "internalType": "struct NodeParam",
                              "name": "param",
                              "type": "tuple"
                            }
                          ],
                          "internalType": "struct ConditionNode[]",
                          "name": "conditionNodes",
                          "type": "tuple[]"
                        },
                        {
                          "internalType": "uint256",
                          "name": "votingRuleIndex",
                          "type": "uint256"
                        },
                        {
                          "internalType": "string",
                          "name": "note",
                          "type": "string"
                        },
                        {
                          "internalType": "bool",
                          "name": "bIsEnabled",
                          "type": "bool"
                        },
                        {
                          "internalType": "bool",
                          "name": "bIsInitialized",
                          "type": "bool"
                        },
                        {
                          "internalType": "bool",
                          "name": "bIsBeforeOperation",
                          "type": "bool"
                        }
                      ],
                      "internalType": "struct Plugin[]",
                      "name": "PLUGIN_ARRAY",
                      "type": "tuple[]"
                    },
                    {
                      "internalType": "enum MachineParameter[]",
                      "name": "PARAMETER_ARRAY",
                      "type": "uint8[]"
                    },
                    {
                      "internalType": "uint256[][]",
                      "name": "UINT256_2DARRAY",
                      "type": "uint256[][]"
                    },
                    {
                      "internalType": "address[][]",
                      "name": "ADDRESS_2DARRAY",
                      "type": "address[][]"
                    }
                  ],
                  "internalType": "struct Param",
                  "name": "param",
                  "type": "tuple"
                }
              ],
              "internalType": "struct Operation[]",
              "name": "operations",
              "type": "tuple[]"
            }
          ],
          "internalType": "struct Program",
          "name": "program",
          "type": "tuple"
        }
      ],
      "name": "entrance",
      "outputs": [
        {
          "internalType": "string",
          "name": "",
          "type": "string"
        }
      ],
      "stateMutability": "payable",
      "type": "function"
    },
    {
      "inputs": [],
      "name": "executingPendingDeadline",
      "outputs": [
        {
          "internalType": "uint256",
          "name": "",
          "type": "uint256"
        }
      ],
      "stateMutability": "view",
      "type": "function"
    },
    {
      "inputs": [],
      "name": "finiteState",
      "outputs": [
        {
          "internalType": "enum FiniteState",
          "name": "",
          "type": "uint8"
        }
      ],
      "stateMutability": "view",
      "type": "function"
    },
    {
      "inputs": [
        {
          "internalType": "address",
          "name": "member",
          "type": "address"
        }
      ],
      "name": "getMemberInfo",
      "outputs": [
        {
          "components": [
            {
              "internalType": "bool",
              "name": "bIsInitialized",
              "type": "bool"
            },
            {
              "internalType": "bool",
              "name": "bIsSuspended",
              "type": "bool"
            },
            {
              "internalType": "string",
              "name": "name",
              "type": "string"
            },
            {
              "internalType": "uint256",
              "name": "role",
              "type": "uint256"
            }
          ],
          "internalType": "struct MemberInfo",
          "name": "",
          "type": "tuple"
        }
      ],
      "stateMutability": "view",
      "type": "function"
    },
    {
      "inputs": [],
      "name": "getMemberList",
      "outputs": [
        {
          "internalType": "address[]",
          "name": "",
          "type": "address[]"
        }
      ],
      "stateMutability": "view",
      "type": "function"
    },
    {
      "inputs": [],
      "name": "getMyInfo",
      "outputs": [
        {
          "internalType": "address",
          "name": "",
          "type": "address"
        }
      ],
      "stateMutability": "view",
      "type": "function"
    },
    {
      "inputs": [],
      "name": "getNumberOfTokenClasses",
      "outputs": [
        {
          "internalType": "uint256",
          "name": "",
          "type": "uint256"
        }
      ],
      "stateMutability": "view",
      "type": "function"
    },
    {
      "inputs": [],
      "name": "getPluginInfo",
      "outputs": [
        {
          "components": [
            {
              "internalType": "enum EnumReturnType",
              "name": "returnType",
              "type": "uint8"
            },
            {
              "internalType": "uint256",
              "name": "level",
              "type": "uint256"
            },
            {
              "components": [
                {
                  "internalType": "uint256",
                  "name": "id",
                  "type": "uint256"
                },
                {
                  "internalType": "enum EnumConditionNodeType",
                  "name": "nodeType",
                  "type": "uint8"
                },
                {
                  "internalType": "enum EnumLogicalOperatorType",
                  "name": "logicalOperator",
                  "type": "uint8"
                },
                {
                  "internalType": "enum EnumConditionExpression",
                  "name": "conditionExpression",
                  "type": "uint8"
                },
                {
                  "internalType": "uint256[]",
                  "name": "childList",
                  "type": "uint256[]"
                },
                {
                  "components": [
                    {
                      "internalType": "uint256[]",
                      "name": "UINT256_ARRAY",
                      "type": "uint256[]"
                    },
                    {
                      "internalType": "address[]",
                      "name": "ADDRESS_ARRAY",
                      "type": "address[]"
                    },
                    {
                      "internalType": "string[]",
                      "name": "STRING_ARRAY",
                      "type": "string[]"
                    },
                    {
                      "internalType": "uint256[][]",
                      "name": "UINT256_2DARRAY",
                      "type": "uint256[][]"
                    },
                    {
                      "internalType": "address[][]",
                      "name": "ADDRESS_2DARRAY",
                      "type": "address[][]"
                    },
                    {
                      "internalType": "string[][]",
                      "name": "STRING_2DARRAY",
                      "type": "string[][]"
                    }
                  ],
                  "internalType": "struct NodeParam",
                  "name": "param",
                  "type": "tuple"
                }
              ],
              "internalType": "struct ConditionNode[]",
              "name": "conditionNodes",
              "type": "tuple[]"
            },
            {
              "internalType": "uint256",
              "name": "votingRuleIndex",
              "type": "uint256"
            },
            {
              "internalType": "string",
              "name": "note",
              "type": "string"
            },
            {
              "internalType": "bool",
              "name": "bIsEnabled",
              "type": "bool"
            },
            {
              "internalType": "bool",
              "name": "bIsInitialized",
              "type": "bool"
            },
            {
              "internalType": "bool",
              "name": "bIsBeforeOperation",
              "type": "bool"
            }
          ],
          "internalType": "struct Plugin[]",
          "name": "",
          "type": "tuple[]"
        },
        {
          "components": [
            {
              "internalType": "enum EnumReturnType",
              "name": "returnType",
              "type": "uint8"
            },
            {
              "internalType": "uint256",
              "name": "level",
              "type": "uint256"
            },
            {
              "components": [
                {
                  "internalType": "uint256",
                  "name": "id",
                  "type": "uint256"
                },
                {
                  "internalType": "enum EnumConditionNodeType",
                  "name": "nodeType",
                  "type": "uint8"
                },
                {
                  "internalType": "enum EnumLogicalOperatorType",
                  "name": "logicalOperator",
                  "type": "uint8"
                },
                {
                  "internalType": "enum EnumConditionExpression",
                  "name": "conditionExpression",
                  "type": "uint8"
                },
                {
                  "internalType": "uint256[]",
                  "name": "childList",
                  "type": "uint256[]"
                },
                {
                  "components": [
                    {
                      "internalType": "uint256[]",
                      "name": "UINT256_ARRAY",
                      "type": "uint256[]"
                    },
                    {
                      "internalType": "address[]",
                      "name": "ADDRESS_ARRAY",
                      "type": "address[]"
                    },
                    {
                      "internalType": "string[]",
                      "name": "STRING_ARRAY",
                      "type": "string[]"
                    },
                    {
                      "internalType": "uint256[][]",
                      "name": "UINT256_2DARRAY",
                      "type": "uint256[][]"
                    },
                    {
                      "internalType": "address[][]",
                      "name": "ADDRESS_2DARRAY",
                      "type": "address[][]"
                    },
                    {
                      "internalType": "string[][]",
                      "name": "STRING_2DARRAY",
                      "type": "string[][]"
                    }
                  ],
                  "internalType": "struct NodeParam",
                  "name": "param",
                  "type": "tuple"
                }
              ],
              "internalType": "struct ConditionNode[]",
              "name": "conditionNodes",
              "type": "tuple[]"
            },
            {
              "internalType": "uint256",
              "name": "votingRuleIndex",
              "type": "uint256"
            },
            {
              "internalType": "string",
              "name": "note",
              "type": "string"
            },
            {
              "internalType": "bool",
              "name": "bIsEnabled",
              "type": "bool"
            },
            {
              "internalType": "bool",
              "name": "bIsInitialized",
              "type": "bool"
            },
            {
              "internalType": "bool",
              "name": "bIsBeforeOperation",
              "type": "bool"
            }
          ],
          "internalType": "struct Plugin[]",
          "name": "",
          "type": "tuple[]"
        }
      ],
      "stateMutability": "view",
      "type": "function"
    },
    {
      "inputs": [
        {
          "internalType": "uint256",
          "name": "tokenClassIndex",
          "type": "uint256"
        }
      ],
      "name": "getTokenInfo",
      "outputs": [
        {
          "internalType": "uint256",
          "name": "votingWeight",
          "type": "uint256"
        },
        {
          "internalType": "uint256",
          "name": "dividendWeight",
          "type": "uint256"
        },
        {
          "internalType": "string",
          "name": "tokenInfo",
          "type": "string"
        },
        {
          "internalType": "uint256",
          "name": "totalSupply",
          "type": "uint256"
        }
      ],
      "stateMutability": "view",
      "type": "function"
    },
    {
      "inputs": [
        {
          "internalType": "uint256",
          "name": "tokenClassIndex",
          "type": "uint256"
        },
        {
          "internalType": "address",
          "name": "tokenOwnerAddress",
          "type": "address"
        }
      ],
      "name": "getTokenOwnerBalance",
      "outputs": [
        {
          "internalType": "uint256",
          "name": "",
          "type": "uint256"
        }
      ],
      "stateMutability": "view",
      "type": "function"
    },
    {
      "inputs": [
        {
          "internalType": "uint256",
          "name": "tokenClassIndex",
          "type": "uint256"
        }
      ],
      "name": "getTokenOwners",
      "outputs": [
        {
          "internalType": "address[]",
          "name": "",
          "type": "address[]"
        }
      ],
      "stateMutability": "view",
      "type": "function"
    },
    {
      "inputs": [
        {
          "internalType": "address",
          "name": "member",
          "type": "address"
        }
      ],
      "name": "getWithdrawableCashBalance",
      "outputs": [
        {
          "internalType": "uint256",
          "name": "",
          "type": "uint256"
        }
      ],
      "stateMutability": "view",
      "type": "function"
    },
    {
      "inputs": [
        {
          "internalType": "address",
          "name": "member",
          "type": "address"
        }
      ],
      "name": "getWithdrawableDividendBalance",
      "outputs": [
        {
          "internalType": "uint256",
          "name": "",
          "type": "uint256"
        }
      ],
      "stateMutability": "view",
      "type": "function"
    },
    {
      "inputs": [],
      "name": "initialOwnerAddress",
      "outputs": [
        {
          "internalType": "address",
          "name": "",
          "type": "address"
        }
      ],
      "stateMutability": "view",
      "type": "function"
    },
    {
      "inputs": [],
      "name": "initialize",
      "outputs": [],
      "stateMutability": "nonpayable",
      "type": "function"
    },
    {
      "inputs": [
        {
          "internalType": "uint256[]",
          "name": "votingRuleIndices",
          "type": "uint256[]"
        },
        {
          "components": [
            {
              "internalType": "address",
              "name": "programOperatorAddress",
              "type": "address"
            },
            {
              "components": [
                {
                  "internalType": "address",
                  "name": "operatorAddress",
                  "type": "address"
                },
                {
                  "internalType": "enum EnumOpcode",
                  "name": "opcode",
                  "type": "uint8"
                },
                {
                  "components": [
                    {
                      "internalType": "uint256[]",
                      "name": "UINT256_ARRAY",
                      "type": "uint256[]"
                    },
                    {
                      "internalType": "address[]",
                      "name": "ADDRESS_ARRAY",
                      "type": "address[]"
                    },
                    {
                      "internalType": "string[]",
                      "name": "STRING_ARRAY",
                      "type": "string[]"
                    },
                    {
                      "internalType": "bool[]",
                      "name": "BOOL_ARRAY",
                      "type": "bool[]"
                    },
                    {
                      "components": [
                        {
                          "internalType": "uint256[]",
                          "name": "votingTokenClassList",
                          "type": "uint256[]"
                        },
                        {
                          "internalType": "uint256",
                          "name": "approvalThresholdPercentage",
                          "type": "uint256"
                        },
                        {
                          "internalType": "uint256",
                          "name": "votingDurationInSeconds",
                          "type": "uint256"
                        },
                        {
                          "internalType": "uint256",
                          "name": "executionPendingDurationInSeconds",
                          "type": "uint256"
                        },
                        {
                          "internalType": "bool",
                          "name": "isForcedStopAllowed",
                          "type": "bool"
                        },
                        {
                          "internalType": "bool",
                          "name": "isEnabled",
                          "type": "bool"
                        },
                        {
                          "internalType": "string",
                          "name": "note",
                          "type": "string"
                        },
                        {
                          "internalType": "bool",
                          "name": "bIsAbsoluteMajority",
                          "type": "bool"
                        }
                      ],
                      "internalType": "struct VotingRule[]",
                      "name": "VOTING_RULE_ARRAY",
                      "type": "tuple[]"
                    },
                    {
                      "components": [
                        {
                          "internalType": "enum EnumReturnType",
                          "name": "returnType",
                          "type": "uint8"
                        },
                        {
                          "internalType": "uint256",
                          "name": "level",
                          "type": "uint256"
                        },
                        {
                          "components": [
                            {
                              "internalType": "uint256",
                              "name": "id",
                              "type": "uint256"
                            },
                            {
                              "internalType": "enum EnumConditionNodeType",
                              "name": "nodeType",
                              "type": "uint8"
                            },
                            {
                              "internalType": "enum EnumLogicalOperatorType",
                              "name": "logicalOperator",
                              "type": "uint8"
                            },
                            {
                              "internalType": "enum EnumConditionExpression",
                              "name": "conditionExpression",
                              "type": "uint8"
                            },
                            {
                              "internalType": "uint256[]",
                              "name": "childList",
                              "type": "uint256[]"
                            },
                            {
                              "components": [
                                {
                                  "internalType": "uint256[]",
                                  "name": "UINT256_ARRAY",
                                  "type": "uint256[]"
                                },
                                {
                                  "internalType": "address[]",
                                  "name": "ADDRESS_ARRAY",
                                  "type": "address[]"
                                },
                                {
                                  "internalType": "string[]",
                                  "name": "STRING_ARRAY",
                                  "type": "string[]"
                                },
                                {
                                  "internalType": "uint256[][]",
                                  "name": "UINT256_2DARRAY",
                                  "type": "uint256[][]"
                                },
                                {
                                  "internalType": "address[][]",
                                  "name": "ADDRESS_2DARRAY",
                                  "type": "address[][]"
                                },
                                {
                                  "internalType": "string[][]",
                                  "name": "STRING_2DARRAY",
                                  "type": "string[][]"
                                }
                              ],
                              "internalType": "struct NodeParam",
                              "name": "param",
                              "type": "tuple"
                            }
                          ],
                          "internalType": "struct ConditionNode[]",
                          "name": "conditionNodes",
                          "type": "tuple[]"
                        },
                        {
                          "internalType": "uint256",
                          "name": "votingRuleIndex",
                          "type": "uint256"
                        },
                        {
                          "internalType": "string",
                          "name": "note",
                          "type": "string"
                        },
                        {
                          "internalType": "bool",
                          "name": "bIsEnabled",
                          "type": "bool"
                        },
                        {
                          "internalType": "bool",
                          "name": "bIsInitialized",
                          "type": "bool"
                        },
                        {
                          "internalType": "bool",
                          "name": "bIsBeforeOperation",
                          "type": "bool"
                        }
                      ],
                      "internalType": "struct Plugin[]",
                      "name": "PLUGIN_ARRAY",
                      "type": "tuple[]"
                    },
                    {
                      "internalType": "enum MachineParameter[]",
                      "name": "PARAMETER_ARRAY",
                      "type": "uint8[]"
                    },
                    {
                      "internalType": "uint256[][]",
                      "name": "UINT256_2DARRAY",
                      "type": "uint256[][]"
                    },
                    {
                      "internalType": "address[][]",
                      "name": "ADDRESS_2DARRAY",
                      "type": "address[][]"
                    }
                  ],
                  "internalType": "struct Param",
                  "name": "param",
                  "type": "tuple"
                }
              ],
              "internalType": "struct Operation[]",
              "name": "operations",
              "type": "tuple[]"
            }
          ],
          "internalType": "struct Program",
          "name": "currentProgram",
          "type": "tuple"
        }
      ],
      "name": "initializeVoting",
      "outputs": [],
      "stateMutability": "nonpayable",
      "type": "function"
    },
    {
      "inputs": [],
      "name": "latestVotingItemIndex",
      "outputs": [
        {
          "internalType": "uint256",
          "name": "",
          "type": "uint256"
        }
      ],
      "stateMutability": "view",
      "type": "function"
    },
    {
      "inputs": [
        {
          "internalType": "address",
          "name": "voter",
          "type": "address"
        },
        {
          "internalType": "bool[]",
          "name": "votes",
          "type": "bool[]"
        }
      ],
      "name": "vote",
      "outputs": [],
      "stateMutability": "nonpayable",
      "type": "function"
    },
    {
      "inputs": [],
      "name": "votingDeadline",
      "outputs": [
        {
          "internalType": "uint256",
          "name": "",
          "type": "uint256"
        }
      ],
      "stateMutability": "view",
      "type": "function"
    },
    {
      "inputs": [
        {
          "internalType": "uint256",
          "name": "",
          "type": "uint256"
        }
      ],
      "name": "votingItems",
      "outputs": [
        {
          "components": [
            {
              "internalType": "address",
              "name": "programOperatorAddress",
              "type": "address"
            },
            {
              "components": [
                {
                  "internalType": "address",
                  "name": "operatorAddress",
                  "type": "address"
                },
                {
                  "internalType": "enum EnumOpcode",
                  "name": "opcode",
                  "type": "uint8"
                },
                {
                  "components": [
                    {
                      "internalType": "uint256[]",
                      "name": "UINT256_ARRAY",
                      "type": "uint256[]"
                    },
                    {
                      "internalType": "address[]",
                      "name": "ADDRESS_ARRAY",
                      "type": "address[]"
                    },
                    {
                      "internalType": "string[]",
                      "name": "STRING_ARRAY",
                      "type": "string[]"
                    },
                    {
                      "internalType": "bool[]",
                      "name": "BOOL_ARRAY",
                      "type": "bool[]"
                    },
                    {
                      "components": [
                        {
                          "internalType": "uint256[]",
                          "name": "votingTokenClassList",
                          "type": "uint256[]"
                        },
                        {
                          "internalType": "uint256",
                          "name": "approvalThresholdPercentage",
                          "type": "uint256"
                        },
                        {
                          "internalType": "uint256",
                          "name": "votingDurationInSeconds",
                          "type": "uint256"
                        },
                        {
                          "internalType": "uint256",
                          "name": "executionPendingDurationInSeconds",
                          "type": "uint256"
                        },
                        {
                          "internalType": "bool",
                          "name": "isForcedStopAllowed",
                          "type": "bool"
                        },
                        {
                          "internalType": "bool",
                          "name": "isEnabled",
                          "type": "bool"
                        },
                        {
                          "internalType": "string",
                          "name": "note",
                          "type": "string"
                        },
                        {
                          "internalType": "bool",
                          "name": "bIsAbsoluteMajority",
                          "type": "bool"
                        }
                      ],
                      "internalType": "struct VotingRule[]",
                      "name": "VOTING_RULE_ARRAY",
                      "type": "tuple[]"
                    },
                    {
                      "components": [
                        {
                          "internalType": "enum EnumReturnType",
                          "name": "returnType",
                          "type": "uint8"
                        },
                        {
                          "internalType": "uint256",
                          "name": "level",
                          "type": "uint256"
                        },
                        {
                          "components": [
                            {
                              "internalType": "uint256",
                              "name": "id",
                              "type": "uint256"
                            },
                            {
                              "internalType": "enum EnumConditionNodeType",
                              "name": "nodeType",
                              "type": "uint8"
                            },
                            {
                              "internalType": "enum EnumLogicalOperatorType",
                              "name": "logicalOperator",
                              "type": "uint8"
                            },
                            {
                              "internalType": "enum EnumConditionExpression",
                              "name": "conditionExpression",
                              "type": "uint8"
                            },
                            {
                              "internalType": "uint256[]",
                              "name": "childList",
                              "type": "uint256[]"
                            },
                            {
                              "components": [
                                {
                                  "internalType": "uint256[]",
                                  "name": "UINT256_ARRAY",
                                  "type": "uint256[]"
                                },
                                {
                                  "internalType": "address[]",
                                  "name": "ADDRESS_ARRAY",
                                  "type": "address[]"
                                },
                                {
                                  "internalType": "string[]",
                                  "name": "STRING_ARRAY",
                                  "type": "string[]"
                                },
                                {
                                  "internalType": "uint256[][]",
                                  "name": "UINT256_2DARRAY",
                                  "type": "uint256[][]"
                                },
                                {
                                  "internalType": "address[][]",
                                  "name": "ADDRESS_2DARRAY",
                                  "type": "address[][]"
                                },
                                {
                                  "internalType": "string[][]",
                                  "name": "STRING_2DARRAY",
                                  "type": "string[][]"
                                }
                              ],
                              "internalType": "struct NodeParam",
                              "name": "param",
                              "type": "tuple"
                            }
                          ],
                          "internalType": "struct ConditionNode[]",
                          "name": "conditionNodes",
                          "type": "tuple[]"
                        },
                        {
                          "internalType": "uint256",
                          "name": "votingRuleIndex",
                          "type": "uint256"
                        },
                        {
                          "internalType": "string",
                          "name": "note",
                          "type": "string"
                        },
                        {
                          "internalType": "bool",
                          "name": "bIsEnabled",
                          "type": "bool"
                        },
                        {
                          "internalType": "bool",
                          "name": "bIsInitialized",
                          "type": "bool"
                        },
                        {
                          "internalType": "bool",
                          "name": "bIsBeforeOperation",
                          "type": "bool"
                        }
                      ],
                      "internalType": "struct Plugin[]",
                      "name": "PLUGIN_ARRAY",
                      "type": "tuple[]"
                    },
                    {
                      "internalType": "enum MachineParameter[]",
                      "name": "PARAMETER_ARRAY",
                      "type": "uint8[]"
                    },
                    {
                      "internalType": "uint256[][]",
                      "name": "UINT256_2DARRAY",
                      "type": "uint256[][]"
                    },
                    {
                      "internalType": "address[][]",
                      "name": "ADDRESS_2DARRAY",
                      "type": "address[][]"
                    }
                  ],
                  "internalType": "struct Param",
                  "name": "param",
                  "type": "tuple"
                }
              ],
              "internalType": "struct Operation[]",
              "name": "operations",
              "type": "tuple[]"
            }
          ],
          "internalType": "struct Program",
          "name": "program",
          "type": "tuple"
        },
        {
          "internalType": "uint256",
          "name": "votingEndTime",
          "type": "uint256"
        },
        {
          "internalType": "uint256",
          "name": "executingEndTime",
          "type": "uint256"
        },
        {
          "internalType": "enum VotingStatus",
          "name": "votingStatus",
          "type": "uint8"
        },
        {
          "internalType": "bool",
          "name": "bIsProgramExecuted",
          "type": "bool"
        }
      ],
      "stateMutability": "view",
      "type": "function"
    }
  ],
  "bytecode": "0x60808060405234620000185761c70e90816200001e8239f35b600080fdfe61028080604052600436101561001457600080fd5b60003560e01c908163036ee850146134785750806307de338e146133875780630e5a3b291461305157806310ade3ea146130255780631c75255a14612fd5578063222ee3da14611ede57806341d1a43814611eb15780635d0b184914611e915780635f1231ea14611dc35780635f5d5f0014611d48578063681ece9d14611d0457806379532bfe14611ce45780637daa10ce14611cc95780638129fc1c146118cd578063864f9f7a1461189157806386ad77e2146115a65780638c7a63ae146115285780639f36145f14610368578063acf80bc41461032c578063aefca42a1461030c578063bba5103014610199578063d5a172f21461016e5763d6a93c511461011d57600080fd5b346101695760003660031901126101695760005b6127108110610146575b602090604051908152f35b60ff60078260031b015416156101645761015f90615209565b610131565b61013b565b600080fd5b34610169576000366003190112610169576202711c546040516001600160a01b039091168152602090f35b346101695760003660031901126101695762027123548060005262027120906020918083526002908160406000200154916101ec6101d684613585565b936101e46040519586613538565b808552613585565b8386019290601f190136843760005b8560005281875282604060002001548110156102ba5760405163083a348760e31b815260048101829052602488828281305afa9182156102ae57600092610276575b506102488388615245565b90600383101561026257505261025d90615209565b6101fb565b634e487b7160e01b60009081526021600452fd5b9091508881813d83116102a7575b61028e8183613538565b810103126101695751600381101561016957908961023d565b503d610284565b6040513d6000823e3d90fd5b868585604051928392818401908285525180915260408401929160005b8281106102e657505050500390f35b91938395509080826102fc6001948397516144e1565b01950191019185949391926102d7565b346101695760003660031901126101695760206202711e54604051908152f35b34610169576020366003190112610169576001600160a01b0361034d61355b565b16600052620138856020526020604060002054604051908152f35b34610169576020366003190112610169576004356000526202712060205260406000206040516040810181811060018060401b038211176114fc5760405281546001600160a01b031681526001820180549092906103c581613585565b906103d36040519283613538565b80825260208201946000526020600020946000905b82821061044a57610421868686602083015260ff600682015491600860078201549101549060405195869560a0875260a0870190614c6e565b936020860152604085015261043b606085018383166144e1565b60081c16151560808301520390f35b6040516001600160401b0360608201908111908211176114fc576060810160405287546001600160a01b0381168252602260a082901c60ff1610156115125760a01c60ff1660208201526040516001600160401b036101208201908111908211176114fc5761012081016040526104c360018a016148a0565b81526104d160028a016148f1565b60208201526104e260038a01614a27565b604082015260048901604051808260208294549384815201906000526020600020926000905b80601f8301106113295761061e945491818110611313575b8181106112fa575b8181106112e1575b8181106112c8575b8181106112b0575b818110611297575b81811061127e575b818110611265575b81811061124c575b818110611233575b81811061121a575b818110611201575b8181106111e8575b8181106111cf575b8181106111b6575b81811061119d575b818110611184575b81811061116b575b818110611152575b818110611139575b818110611120575b818110611107575b8181106110ee575b8181106110d5575b8181106110bc575b8181106110a3575b81811061108a575b818110611071575b818110611058575b81811061103f575b818110611026575b10611016575b500382613538565b606082015260058901805461063281613585565b916106406040519384613538565b81835260208301906000526020600020906000905b838210610ff85750505050608082015260068901805461067481613585565b916106826040519384613538565b81835260208301906000526020600020906000905b838210610ea3575050505060a08201526040518060078b0190602082549182815201916000526020600020906000915b81601f840110610bdb5784600a97946020979460019a97946107ea945491818110610bc0575b818110610ba2575b818110610b84575b818110610b66575b818110610b49575b818110610b2b575b818110610b0d575b818110610aef575b818110610ad1575b818110610ab3575b818110610a95575b818110610a77575b818110610a59575b818110610a3b575b818110610a1d575b8181106109ff575b8181106109e1575b8181106109c3575b8181106109a5575b818110610987575b818110610969575b81811061094b575b81811061092d575b81811061090f575b8181106108f1575b8181106108d3575b8181106108b5575b818110610897575b818110610879575b81811061085b575b81811061083d575b1061082557500382613538565b60c08201526107fb60088d01614b08565b60e082015261080c60098d01614b5d565b61010082015260408201528152019701910190956103e8565b90889160f81c6108348161452b565b81520138610616565b928a8d9160ff8560f01c166108518161452b565b81520193016107dd565b928a8d9160ff8560e81c1661086f8161452b565b81520193016107d5565b928a8d9160ff8560e01c1661088d8161452b565b81520193016107cd565b928a8d9160ff8560d81c166108ab8161452b565b81520193016107c5565b928a8d9160ff8560d01c166108c98161452b565b81520193016107bd565b928a8d9160ff8560c81c166108e78161452b565b81520193016107b5565b928a8d9160ff8560c01c166109058161452b565b81520193016107ad565b928a8d9160ff8560b81c166109238161452b565b81520193016107a5565b928a8d9160ff8560b01c166109418161452b565b815201930161079d565b928a8d9160ff8560a81c1661095f8161452b565b8152019301610795565b928a8d9160ff8560a01c1661097d8161452b565b815201930161078d565b928a8d9160ff8560981c1661099b8161452b565b8152019301610785565b928a8d9160ff8560901c166109b98161452b565b815201930161077d565b928a8d9160ff8560881c166109d78161452b565b8152019301610775565b928a8d9160ff8560801c166109f58161452b565b815201930161076d565b928a8d9160ff8560781c16610a138161452b565b8152019301610765565b928a8d9160ff8560701c16610a318161452b565b815201930161075d565b928a8d9160ff8560681c16610a4f8161452b565b8152019301610755565b928a8d9160ff8560601c16610a6d8161452b565b815201930161074d565b928a8d9160ff8560581c16610a8b8161452b565b8152019301610745565b928a8d9160ff8560501c16610aa98161452b565b815201930161073d565b928a8d9160ff8560481c16610ac78161452b565b8152019301610735565b928a8d9160ff8560401c16610ae58161452b565b815201930161072d565b928a8d9160ff8560381c16610b038161452b565b8152019301610725565b928a8d9160ff8560301c16610b218161452b565b815201930161071d565b928a8d9160ff8560281c16610b3f8161452b565b8152019301610715565b928a8d9160ff85831c16610b5c8161452b565b815201930161070d565b928a8d9160ff8560181c16610b7a8161452b565b8152019301610705565b928a8d9160ff8560101c16610b988161452b565b81520193016106fd565b928a8d9160ff8560081c16610bb68161452b565b81520193016106f5565b928a8d9160ff8516610bd18161452b565b81520193016106ed565b926001610400602092865460ff8116610bf38161452b565b825260ff8160081c16610c058161452b565b8583015260ff8160101c16610c198161452b565b604083015260ff8160181c16610c2e8161452b565b606083015260ff81861c16610c428161452b565b608083015260ff8160281c16610c578161452b565b60a0830152610c6b60ff8260301c1661452b565b60ff8160301c1660c083015260ff8160381c16610c878161452b565b60e083015260ff8160401c16610c9c8161452b565b61010083015260ff8160481c16610cb28161452b565b61012083015260ff8160501c16610cc88161452b565b61014083015260ff8160581c16610cde8161452b565b61016083015260ff8160601c16610cf48161452b565b61018083015260ff8160681c16610d0a8161452b565b6101a083015260ff8160701c16610d208161452b565b6101c083015260ff8160781c16610d368161452b565b6101e083015260ff8160801c16610d4c8161452b565b61020083015260ff8160881c16610d628161452b565b61022083015260ff8160901c16610d788161452b565b61024083015260ff8160981c16610d8e8161452b565b61026083015260ff8160a01c16610da48161452b565b61028083015260ff8160a81c16610dba8161452b565b6102a083015260ff8160b01c16610dd08161452b565b6102c083015260ff8160b81c16610de68161452b565b6102e083015260ff8160c01c16610dfc8161452b565b61030083015260ff8160c81c16610e128161452b565b61032083015260ff8160d01c16610e288161452b565b61034083015260ff8160d81c16610e3e8161452b565b61036083015260ff8160e01c16610e548161452b565b61038083015260ff8160e81c16610e6a8161452b565b6103a083015260ff8160f01c16610e808161452b565b6103c083015260f81c610e928161452b565b6103e08201520194019201916106c7565b60409d9c9b9a999897969d51610eb8816134cb565b610ec660ff85541682614af0565b600184015460208201526002840154610ede81613585565b90610eec6040519283613538565b808252602082016002870160005260206000206000915b838310610f7757505050509d9e9798999a9b9c9d600192826020926040600695015260038701546060820152610f3b60048801614983565b608082015260ff6005880154818116151560a0840152818160081c16151560c084015260101c16151560e0820152815201930191019091610697565b60096020600192604051610f8a816134b0565b85548152610fc860ff86880154818116610fa38161452b565b86850152818160081c16610fb6816144d7565b604085015260101c1660608301614afc565b610fd4600287016148a0565b6080820152610fe560038701614bb2565b60a0820152815201920192019190610f03565b6007602060019261100886614a7c565b815201930191019091610655565b60f81c151581526020018d610616565b92602060019160ff8560f01c1615158152019301610610565b92602060019160ff8560e81c1615158152019301610608565b92602060019160ff8560e01c1615158152019301610600565b92602060019160ff8560d81c16151581520193016105f8565b92602060019160ff8560d01c16151581520193016105f0565b92602060019160ff8560c81c16151581520193016105e8565b92602060019160ff8560c01c16151581520193016105e0565b92602060019160ff8560b81c16151581520193016105d8565b92602060019160ff8560b01c16151581520193016105d0565b92602060019160ff8560a81c16151581520193016105c8565b92602060019160ff8560a01c16151581520193016105c0565b92602060019160ff8560981c16151581520193016105b8565b92602060019160ff8560901c16151581520193016105b0565b92602060019160ff8560881c16151581520193016105a8565b92602060019160ff8560801c16151581520193016105a0565b92602060019160ff8560781c1615158152019301610598565b92602060019160ff8560701c1615158152019301610590565b92602060019160ff8560681c1615158152019301610588565b92602060019160ff8560601c1615158152019301610580565b92602060019160ff8560581c1615158152019301610578565b92602060019160ff8560501c1615158152019301610570565b92602060019160ff8560481c1615158152019301610568565b92602060019160ff8560401c1615158152019301610560565b92602060019160ff8560381c1615158152019301610558565b92602060019160ff8560301c1615158152019301610550565b92602060019160ff8560281c1615158152019301610548565b92602060019160ff85831c1615158152019301610540565b92602060019160ff8560181c1615158152019301610538565b92602060019160ff8560101c1615158152019301610530565b92602060019160ff8560081c1615158152019301610528565b92602060019160ff851615158152019301610520565b916020919350610400600191865460ff81161515825260ff8160081c1615158583015260ff8160101c161515604083015260ff8160181c161515606083015260ff8160808282891c16151581860152828260281c16151560a0860152828260c092828260301c16151584890152828260381c16151560e0890152828260401c161515610100890152828260481c161515610120890152828260501c161515610140890152828260581c161515610160890152828260601c161515610180890152828260681c1615156101a0890152828260701c1615156101c0890152828260781c1615156101e08901521c161515610200860152828260881c161515610220860152828260901c161515610240860152828260981c161515610260860152828260a01c161515610280860152828260a81c1615156102a0860152828260b01c1615156102c0860152828260b81c1615156102e08601521c16151561030083015260ff8160c81c16151561032083015260ff8160d01c16151561034083015260ff8160d81c16151561036083015260ff8160e01c16151561038083015260ff8160e81c1615156103a083015260ff8160f01c1615156103c083015260f81c15156103e0820152019401920184929391610508565b634e487b7160e01b600052604160045260246000fd5b634e487b7160e01b600052602160045260246000fd5b34610169576020366003190112610169576004356127108110156115905760031b6001810154600282015491611586611568600560068401549301614983565b604051948594855260208501526080604085015260808401906144b2565b9060608301520390f35b634e487b7160e01b600052603260045260246000fd5b34610169576000366003190112610169576201388280546115c681613585565b916115d46040519384613538565b818352602083019060005260206000206000915b83831061177457846201388390815461160081613585565b9261160e6040519485613538565b818452602084019060005260206000206000915b838310611657576116458561165388604051938493604085526040850190614668565b908382036020850152614668565b0390f35b604051611663816134cb565b61167160ff84541682614af0565b6001830154602082015260028301805461168a81613585565b916116986040519384613538565b81835260208301906000526020600020906000905b83821061171857505050506001928260209260406006950152600386015460608201526116dc60048701614983565b608082015260ff6005870154818116151560a0840152818160081c16151560c084015260101c16151560e0820152815201920192019190611622565b6009602060019260405161172b816134b0565b8654815261174460ff86890154818116610fa38161452b565b611750600288016148a0565b608082015261176160038801614bb2565b60a08201528152019301910190916116ad565b604051611780816134cb565b61178e60ff84541682614af0565b600183015460208201526002830180546117a781613585565b916117b56040519384613538565b81835260208301906000526020600020906000905b83821061183557505050506001928260209260406006950152600386015460608201526117f960048701614983565b608082015260ff6005870154818116151560a0840152818160081c16151560c084015260101c16151560e08201528152019201920191906115e8565b60096020600192604051611848816134b0565b8654815261186160ff86890154818116610fa38161452b565b61186d600288016148a0565b608082015261187e60038801614bb2565b60a08201528152019301910190916117ca565b34610169576020366003190112610169576001600160a01b036118b261355b565b16600052620138866020526020604060002054604051908152f35b34610169576000366003190112610169576202711c80546001600160a01b031916331790556202711f805460ff1916600190811790915561190c615259565b908151600160401b908181116114fc57620138828054828255808310611c59575b5060208095019060005284600020846000925b87858510611c3d578287611952615259565b80519182116114fc578362013883918254848455808510611ba8575b50019060005283600020836000925b86858510611b8c5782604051611992816134e7565b81815260005b838110611b2357611b218484846040516119b181613502565b600081526040516119c181613502565b600081526040516119d181613502565b600081526040516119e181613502565b600081526040516119f181613502565b6000815260405191611a0283613502565b6000835260405193611a1385613502565b6000855260405195611a24876134b0565b86528986015260408501526060840152608083015260a082015260405191611a4b836134b0565b600083526003868401526000604084015260006060840152608083015260a0820152611a7682615218565b52611a8081615218565b50611ad3604051611a90816134cb565b6004815260078582015282604082015260006060820152604051611ab381613502565b6000815260808201528360a08201528360c08201528360e0820152615e26565b600760405193611ae2856134cb565b60028552840152604083015260006060830152604051611b0181613502565b6000815260808301528060a083015260c0820152600060e0820152615e6d565b005b8390604051611b31816134b0565b6000815260008382015260006040820152606060008183015260809080828401528060405192611b60846134b0565b8184528187850152816040850152818085015283015260a0908183015282015282828501015201611998565b81611b9a600693518661555e565b01920192019190849061197d565b9091506006908082029082820403611c27578482028281048603611c2757600085815288902088949392810191015b818110611be557505061196e565b8293945060008193929355600088820155611c0260028201615477565b60006003820155611c15600482016152eb565b60006005820155019087939291611bd7565b634e487b7160e01b600052601160045260246000fd5b81611c4b600693518661555e565b019201920191908590611940565b6006908082029082820403611c27578382028281048503611c275783600052602060002091820191015b818110611c9157505061192d565b806000849255600088820155611ca960028201615477565b60006003820155611cbc600482016152eb565b6000600582015501611c83565b34610169576000366003190112610169576020604051338152f35b346101695760003660031901126101695760206202712254604051908152f35b346101695760203660031901126101695760043561271081101561159057611d3460046116539260031b016148f1565b6040519182916020835260208301906144ee565b3461016957600036600319011261016957604051806201388182815491828452602080940190600052836000209260005b85828210611da457505050611d9092500383613538565b6116536040519282849384528301906144ee565b85546001600160a01b0316845260019586019588955093019201611d79565b346101695760208060031936011261016957611ddd61355b565b60006060604051611ded81613495565b8281528285820152816040820152015260018060a01b0316600052620138808152604060002060405190611e2082613495565b611e8681549160ff83161515845260ff8585019360081c16151583526002611e4a60018301614983565b916040860192835201549260608501938452604051958695818752511515908601525115156040850152516080606085015260a08401906144b2565b905160808301520390f35b346101695760003660031901126101695760206202712354604051908152f35b34610169576020366003190112610169576020611ecf60043561c0a9565b611edc60405180926144e1565bf35b34610169576040366003190112610169576004356001600160401b03811161016957611f0e90369060040161359c565b6024356001600160401b03811161016957611f2d9036906004016138a9565b6202711f8054600260ff8216611f42816144d7565b14612f905760ff191660021790556202712354600181018111611c275760018101620271235560009060005b8451811015611fc357826002611f8d611f878489615245565b5161bf45565b50015410611fa4575b611f9f90615209565b611f6e565b9150611f9f6002611fb8611f878588615245565b500154929050611f96565b50919060009160005b855181101561201b57836003611fe5611f87848a615245565b50015410611ffc575b611ff790615209565b611fcc565b9250611ff76003612010611f878689615245565b500154939050611fee565b5060019390930160009081526202712060209081526040909120845181546001600160a01b0319166001600160a01b03919091161781559301518051859491600160401b82116114fc576001830154826001850155808310612de8575b50602060019101920160005260206000206000925b82841061256257505050506120a28351615d74565b620271235460005262027120602052600460406000200181519160018060401b0383116114fc576020906120d684846152b7565b0190600052602060002060005b83811061254e57505050506120f88351615d74565b620271235460005262027120602052600360406000200181519160018060401b0383116114fc5760209061212c84846152b7565b0190600052602060002060005b83811061253a575050505061214e8351615d74565b620271235460005262027120602052600560406000200181519160018060401b0383116114fc5760209061218284846152b7565b0190600052602060002060005b8381106125265786866121a28742616564565b620271235460005262027120602052600660406000200155156124e6576121e090620271235460005262027120602052600660406000200154616564565b600760406000200155156124a3576202712354600052620271206020526008604060002001600260ff1982541617905561221a8151615d74565b620271235460005262027120602052600260406000200181519160018060401b0383116114fc5760209061224e84846152b7565b0190600052602060002060005b83811061248f578460005b81518110156122c657806122bc6122806122c19385615245565b516202712354600052620271206020526122a183600260406000200161b1a1565b90919082549060031b600019811b9283911b16911916179055565b615209565b612266565b506000905b8051821015611b215762027123549182600052620271206020526123056122f982600260406000200161b1a1565b90549060031b1c61bf45565b50549061231182615d74565b9160005b8181106124465750506000805b8351821015612418576123358285615245565b516127108110156115905760031b600101546123518386615245565b519061271082101561159057600661236e9260031b0154906166c4565b90156123d45761237d91616564565b9190156123935761238d90615209565b90612322565b60405162461bcd60e51b8152602060048201526019602482015278746f74616c566f74696e67506f776572206f766572666c6f7760381b6044820152606490fd5b606460405162461bcd60e51b815260206004820152602060248201527f63757272656e74436c617373566f74696e67506f776572206f766572666c6f776044820152fd5b90506122bc9192506124409394600052620271206020526122a183600560406000200161b1a1565b906122cb565b61248a9086600052620271206020526124738161246d6122f987600260406000200161b1a1565b5061b1a1565b90549060031b1c6124848287615245565b52615209565b612315565b60019060208451940193818401550161225b565b60405162461bcd60e51b815260206004820152601b60248201527a657865637574696e6720656e642074696d65206f766572666c6f7760281b6044820152606490fd5b60405162461bcd60e51b8152602060048201526018602482015277766f74696e6720656e642074696d65206f766572666c6f7760401b6044820152606490fd5b60019060208451940193818401550161218f565b600190602084519401938184015501612139565b6001906020845194019381840155016120e3565b805180518354602083015192916001600160a01b03166022841015611512576001600160a81b03199091161760a09290921b60ff60a01b169190911783556040015180518051906001600160401b0382116114fc57602060018601916125c884846152b7565b0190600052602060002060005b838110612dd4575050505060208101518051906001600160401b0382116114fc576020600286019161260784846152b7565b0190600052602060002060005b838110612db7575050505060038301604082015160208151916126378385615371565b019160005260206000206000925b828410612c9b5750505050606081015180516001600160401b0381116114fc5760206004860192612676838561becd565b019160005260206000209060005b8160051c8110612c645750601f1981168103612c24575b5050506080810151805190600160401b82116114fc576005850154826005870155808310612ba5575b5060200190600585016000526020600020916000905b8282106129ca575050505060a0810151805190600160401b82116114fc576006850154826006870155808310612952575b50602001600685016000526020600020906000905b838210612934575050505060c081015180516001600160401b0381116114fc5760206007860192612751838561becd565b019160005260206000209060005b8160051c81106128fb5750601f19811681036128b4575b5050506008830160e0820151602081519161279183856153f4565b019160005260206000206000925b82841061285657505050506101006009840191015160208151916127c383856153f4565b019160005260206000206000925b8284106127ef5750505050600a60206001920192019301929061208d565b80518051906001600160401b0382116114fc5760209061280f83866152b7565b0183600052602060002060005b8381106128395750505050600160208192019201930192906127d1565b82516001600160a01b03168183015560209092019160010161281c565b80518051906001600160401b0382116114fc5760209061287683866152b7565b0183600052602060002060005b8381106128a057505050506001602081920192019301929061279f565b600190602084519401938184015501612883565b60009260005b601f198316830381106128d657505060051c0155888080612776565b909360206128f2600192848851916128ed8361452b565b61bf31565b950191016128ba565b6000805b6020811061291457508382015560010161275f565b9490602061292b600192888551916128ed8361452b565b920195016128ff565b6006602082612946600194518761555e565b01930191019091612720565b6006818102048103611c27576006838102048303611c27576006860160005260206000208360060281015b826006028201811061299057505061270b565b80600060069255600060018201556129aa60028201615477565b600060038201556129bd600482016152eb565b600060058201550161297d565b805180518051906001600160401b0382116114fc576020906129ec83896152b7565b0186600052602060002060005b838110612b915750505050602081015160018601556040810151600286015560608101516003860155612a4660048601612a396080840151151582615535565b60a0830151151590615546565b60c08101518051906001600160401b0382116114fc57612a696005880154614949565b601f8111612b51575b50602090601f8311600114612ad55760e06007948460209560019895612abe95600092612aca575b5050600019600383901b1c191690881b1760058b01555b0151151560068901615535565b019401910190926126da565b015190503880612a9a565b906005880160005260206000209160005b601f1985168110612b395750600794600185819895612abe9560e095602099601f19811610612b20575b505050811b0160058b0155612ab1565b015160001960f88460031b161c19169055388080612b10565b91926020600181928685015181550194019201612ae6565b612b8190600589016000526020600020601f850160051c81019160208610612b87575b601f0160051c019061527c565b8f612a72565b9091508190612b74565b6001906020845194019381840155016129f9565b6007818102048103611c27576007838102048303611c27576005860160005260206000208360070281015b8260070282018110612be35750506126c4565b80612bef600792615293565b60006001820155600060028201556000600382015560006004820155612c17600582016152eb565b6000600682015501612bd0565b60009260005b601f19831683038110612c4657505060051c015588808061269b565b90936020612c5b60019284885115159161bf31565b95019101612c2a565b6000805b60208110612c7d575083820155600101612684565b94906020612c9260019288855115159161bf31565b92019501612c68565b80518051906001600160401b0382116114fc57612cb88454614949565b90601f91828111612d7d575b506020918311600114612d0f579282600194936020938695600092612d04575b5050600019600383901b1c191690841b1785555b01920193019290612645565b015190503880612ce4565b90601f198316918560005260206000209260005b818110612d655750936020936001969387969383889510612d4c575b505050811b018555612cf8565b015160001960f88460031b161c19169055388080612d3f565b92936020600181928786015181550195019301612d23565b612da890866000526020600020600585808801821c83019360208910612dae575b01901c019061527c565b8f612cc4565b93508293612d9e565b82516001600160a01b031681830155602090920191600101612614565b6001906020845194019381840155016125d5565b600a818102048103611c2757600a838102048303611c275760018401600052602060002083600a0281015b82600a0282018110612e26575050612078565b60008155612e3660018201615293565b612e4260028201615293565b612e4e60038201615337565b612e61600482018054906000815561bea8565b60058101546000600583015580612f22575b5060068101546000600683015580612ebb575b5080612e9d6007600a93018054906000815561bea8565b612ea9600882016153ba565b612eb5600982016153ba565b01612e13565b6006818102048103611c2757600682016000526020600020906006028101905b818110612ee85750612e86565b8060006006925560006001820155612f0260028201615477565b60006003820155612f15600482016152eb565b6000600582015501612edb565b6007818102048103611c2757600582016000526020600020906007028101905b818110612f4f5750612e73565b80612f5b600792615293565b60006001820155600060028201556000600382015560006004820155612f83600582016152eb565b6000600682015501612f42565b60405162461bcd60e51b815260206004820152601d60248201527f766f74696e6720697320616c726561647920696e2070726f67726573730000006044820152606490fd5b34610169576040366003190112610169576024356001600160a01b03811690600435908290036101695761271081101561159057600391600052811b016020526020604060002054604051908152f35b3461016957600036600319011261016957602060ff6202711f54166040519061304d816144d7565b8152f35b346101695760403660031901126101695761306a61355b565b602480356001600160401b0381116101695761308a903690600401613743565b90600260ff6202711f541661309e816144d7565b036133475762027122544210156133095760018060a01b03831692836000526202712192602093808552604060002091620271239182549384600052875260ff604060002054166132cb578151936000526202712093848852600260406000200154036132655760005b82518110156132435761311b8184615245565b51156131c757835480600052858952613171896122a18460038a61315f8d6131598561314d818760406000200161b1a1565b905490871b1c9261bf65565b90616564565b9590976000525260406000200161b1a1565b156131845761317f90615209565b613108565b60405162461bcd60e51b815260048101899052601c818901527b766f74696e6720666f7220706f776572596573206f766572666c6f7760201b6044820152606490fd5b8354806000528589526131f3896122a18460038a61315f8d6131598561314d818760406000200161b1a1565b156132015761317f90615209565b60405162461bcd60e51b815260048101899052601b818901527a766f74696e6720666f7220706f7765724e6f206f766572666c6f7760281b6044820152606490fd5b60008981528289526040808220865483528a529020805460ff19166001179055005b60405162461bcd60e51b8152600481018890526039818801527f746865206e756d626572206f6620766f74657320646f6573206e6f74206d6174604482015278636820746865206e756d626572206f6620706f6c696369657360381b6064820152608490fd5b60405162461bcd60e51b815260048101889052601781880152761d9bdd195c881a185cc8185b1c9958591e481d9bdd1959604a1b6044820152606490fd5b60649060176040519162461bcd60e51b835260206004840152820152761d9bdd1a5b99c81c195c9a5bd9081a185cc8195b991959604a1b6044820152fd5b60649060196040519162461bcd60e51b83526020600484015282015278766f74696e67206973206e6f7420696e2070726f677265737360381b6044820152fd5b6020366003190112610169576004356001600160401b038111610169576133b29036906004016138a9565b80516001600160a01b03906133f99082166133f16133d76133d23361c50a565b6150e3565b6133eb6133e68688511661c50a565b615145565b90615198565b9033146151d9565b602082019060005b8251805182101561345857906122bc6134539284613420843393615245565b5151161461344d6134336133d23361c50a565b6133eb6133e688613445888c51615245565b51511661c50a565b906151d9565b613401565b61165361346486615f04565b6040519182916020835260208301906144b2565b34610169576000366003190112610169576020906202711d548152f35b608081019081106001600160401b038211176114fc57604052565b60c081019081106001600160401b038211176114fc57604052565b61010081019081106001600160401b038211176114fc57604052565b604081019081106001600160401b038211176114fc57604052565b602081019081106001600160401b038211176114fc57604052565b606081019081106001600160401b038211176114fc57604052565b601f909101601f19168101906001600160401b038211908210176114fc57604052565b600435906001600160a01b038216820361016957565b35906001600160a01b038216820361016957565b6001600160401b0381116114fc5760051b60200190565b81601f82011215610169578035916135b383613585565b926135c16040519485613538565b808452602092838086019260051b820101928311610169578301905b8282106135eb575050505090565b813581529083019083016135dd565b81601f820112156101695780359161361183613585565b9261361f6040519485613538565b808452602092838086019260051b820101928311610169578301905b828210613649575050505090565b83809161365584613571565b81520191019061363b565b81601f82011215610169578035906001600160401b0382116114fc5760405192613694601f8401601f191660200185613538565b8284526020838301011161016957816000926020809301838601378301015290565b9080601f83011215610169578135906136ce82613585565b926136dc6040519485613538565b828452602092838086019160051b8301019280841161016957848301915b84831061370a5750505050505090565b82356001600160401b03811161016957869161372b84848094890101613660565b8152019201916136fa565b3590811515820361016957565b81601f820112156101695780359161375a83613585565b926137686040519485613538565b808452602092838086019260051b820101928311610169578301905b828210613792575050505090565b83809161379e84613736565b815201910190613784565b9080601f83011215610169578135906137c182613585565b926137cf6040519485613538565b828452602092838086019160051b8301019280841161016957848301915b8483106137fd5750505050505090565b82356001600160401b03811161016957869161381e8484809489010161359c565b8152019201916137ed565b9080601f830112156101695781359061384182613585565b9261384f6040519485613538565b828452602092838086019160051b8301019280841161016957848301915b84831061387d5750505050505090565b82356001600160401b03811161016957869161389e848480948901016135fa565b81520192019161386d565b9190826040918160a052806101605203126101695760408051929083016001600160401b038111848210176114fc576040526138e58391613571565b835260a05160208101356101e08190526001600160401b0381116101695761016051910190601f8201121561016957359161391f83613585565b61392c6040519182613538565b8381526020810161024052610160516101e05160a051019060208660051b83010111610169576020909593919594929401905b6101e05160a0510160208460051b820101831015614482578235906001600160401b03821161016957818101610200526060601f1983830161016051030112610169576040516101c08190529160608301906001600160401b0382118483101761446d576139d4926020926040520101613571565b905260406102005101356022811015610169576101c051602001526102005160608101356101808190526001600160401b03106101695761016051610120606083013583018203601f1901126101695760405160c081905261012081019081106001600160401b0382111761446d576040526060820135820160200135916001600160401b03831161016957613a7492816060602093013501010161359c565b60c051526101805161020051016040810135906001600160401b038211610169576020613aa792610160519201016135fa565b60c051602001526101805161020051016060810135906001600160401b038211610169576020613add92610160519201016136b6565b60c051604001526101805161020051016080810135906001600160401b038211610169576020613b139261016051920101613743565b60c05160600152610180516102005101956001600160401b0360a0880135116101695761016051603f60a0890135890101121561016957602060a08801358801013594613b5f86613585565b96613b6d6040519889613538565b86885260208801926101605160a08b0135610180516102005101019060408a60051b8301011161016957604001935b60a08b01356101805161020051010160408a60051b820101861015613d22578535916001600160401b03831161016957610100809284603f19910161016051030112610169576040518360a08f613bf2846134cb565b0135610180516102005101010160408101359060018060401b038211610169578f60a08791613c2f60c0946040613c8e976101605192010161359c565b865260608383830135610180516102005101010101356020870152608083838301356101805161020051010101013560408701528183818301356101805161020051010101013560608701520135610180516102005101010101613736565b60808201528d8460a060e092613cb4848484840135610180516102005101010101613736565b85830152610180516102005101910135010193840135946001600160401b038611610169578f613d139160a061012092613cfb60209a9960408c9b61016051920101613660565b60c08801520135610180516102005101010101613736565b90820152815201940193613b9c565b5050959498509550959050608060c051015261018051610200510160c081013560e05260018060401b0360c0820135116101695761016051603f60c083013583010112156101695760c08101350160200135610260819052613d9390613d8790613585565b60405180608052613538565b60805161026051905260206080510161014052610160516102605160051b90604060e05161018051610200510101928301011161016957604001610120529091905b6102605160051b60e0516101805161020051010190604061012051918301018110156142f45780356101008190526001600160401b03106101695761010091603f199135016101605103011261016957613e35604051806101a0526134cb565b60406101005160e051610180516102005101010101356006811015610169576101a0515260606101005160e0516101805161020051010101013560206101a05101526101005160e05161018051610200510101019460018060401b036080870135116101695761016051946080870135870195605f8701121561016957613ecf613ec26040880135613585565b6040518061022052613538565b610220516040870135905260206102205101936101605160808901356101005160e05161018051610200510101010190606060408a013560051b8301011161016957606001945b60808901356101005160e051610180516102005101010101606060408a013560051b8201018710156141eb5786356001600160401b0381116101695760c0605f19828401610160510301126101695760405191613f72836134b0565b8082016060810135845260800135600581101561016957602084015260a082820101356004811015610169576040840152603360c0838301013510156101695780820160c0810135606085015260e001356001600160401b0381116101695761016051613fe5918385010160600161359c565b60808401528082016101000135916001600160401b0383116101695760c0605f198483850101610160510301126101695760405192614023846134b0565b6001600160401b03838301820160600135116101695761016051614053906060848601840181810135010161359c565b84526001600160401b038383018201608001351161016957610160516140869084840183016080810135016060016135fa565b60208501526001600160401b03838301820160a001351161016957610160516140bc90848401830160a0810135016060016136b6565b6040850152828201810160c001356001600160401b03811161016957610160516140ee918585018401016060016137a9565b60608501526001600160401b03838301820160e0013511610169576101605161412490848401830160e081013501606001613829565b608085015282820181016101000135916001600160401b03831161016957610160519301010190607f820112156101695760608101359061416482613585565b916141726040519384613538565b80835260208301916080610160519260051b8201019182116101695760808101925b8284106141b9575050505060a080830191909152820152815260209586019501613f16565b83356001600160401b038111610169576020916141e08392608061016051918701016136b6565b815201930192614194565b5050949350945094506102205160406101a051015260a06101005160e0516101805161020051010101013560606101a05101526101005160e051610180516102005101010160018060401b0360c08201351161016957610160516142579160c081013501604001613660565b60806101a051015261427b60e0610100518151610180516102005101010101613736565b60a06101a051015261429f610100805160e051610180516102005101010101613736565b60c06101a05101526142c56101206101005160e051610180516102005101010101613736565b60e06101a05101526101a051610140515260206101405101610140526020610120510161012052919091613dd5565b505091939492909460805160a060c05101526101805161020051019060018060401b0360e08301351161016957610160519560e0830135830196603f88011215610169576143456020880135613585565b946143536040519687613538565b602088810135808852610160516101805161020051938a0198930160e0880135019160051b82016040011161016957604001955b604060208b013560051b60e08801356101805161020051010101018710156143c2578635600581101561016957815260209687019601614387565b509592989450959250955060c0805101526101805161020051019061010091828101359060018060401b03821161016957602061440592610160519201016137a9565b60c05160e00152610180516102005101916101208301356001600160401b038111610169576101605160209461443d92018501613829565b9060c051015260c05160406101c05101526101c0516102405152816102405101610240520190949293919361395f565b60246000634e487b7160e01b81526041600452fd5b5094929050602091500152565b60005b8381106144a25750506000910152565b8181015183820152602001614492565b906020916144cb8151809281855285808601910161448f565b601f01601f1916010190565b6004111561151257565b9060038210156115125752565b90815180825260208080930193019160005b82811061450e575050505090565b83516001600160a01b031685529381019392810192600101614500565b6005111561151257565b90815180825260208080930193019160005b828110614555575050505090565b835185529381019392810192600101614547565b90815180825260208092019182818360051b85019501936000915b8483106145945750505050505090565b90919293949584806145ae83856001950387528a516144b2565b9801930193019194939290614584565b90815180825260208092019182818360051b82019501936000915b8483106145e95750505050505090565b909192939495848061460383856001950387528a51614535565b98019301930191949392906145d9565b90815180825260208092019182818360051b82019501936000915b84831061463e5750505050505090565b909192939495848061465883856001950387528a516144ee565b980193019301919493929061462e565b9060208251918281520190819060208160051b84019401926000905b82821061469357505050505090565b909192939481810385528551906101008082018351600681101561151257835260208401516020840152604084015191604084015281518091526101206020818501918360051b86010193019160005b818110614749575050505060019260209261471684936060808501519084015260808085015190848303908501526144b2565b9160a08082015115159083015260c08082015115159083015260e080910151151591015297019501920190929192614684565b9091929361011f9c9b9c1986820301845284519081518152602082015161476f8161452b565b60208201526040820151614782816144d7565b60408201526060820151603381101561151257606082015260a06147b5608084015160c0608085015260c0840190614535565b9201519060a081840391015260a061482a6148186148066147f46147e2865160c0895260c0890190614535565b602087015188820360208a01526144ee565b60408601518782036040890152614569565b606085015186820360608801526145be565b60808401518582036080870152614613565b9101519160a081830391015281519081815260208101906020808460051b8301019401926000915b8183106148755750505050506020806001929e9d9e9601940191019190916146e3565b9091929394602080614893600193601f198682030189528951614569565b9701950193019190614852565b9060405191828154918282526020928383019160005283600020936000905b8282106148d7575050506148d592500383613538565b565b8554845260019586019588955093810193909101906148bf565b9060405191828154918282526020928383019160005283600020936000905b828210614926575050506148d592500383613538565b85546001600160a01b031684526001958601958895509381019390910190614910565b90600182811c92168015614979575b602083101461496357565b634e487b7160e01b600052602260045260246000fd5b91607f1691614958565b906040519182600082549261499784614949565b908184526001948581169081600014614a0457506001146149c1575b50506148d592500383613538565b9093915060005260209081600020936000915b8183106149ec5750506148d5935082010138806149b3565b855488840185015294850194879450918301916149d4565b9150506148d594506020925060ff191682840152151560051b82010138806149b3565b908154614a3381613585565b92614a416040519485613538565b818452600090815260208082208186015b848410614a60575050505050565b6001838192614a6e85614983565b815201920193019290614a52565b90604051614a89816134cb565b60e060ff60068395614a9a816148a0565b85526001810154602086015260028101546040860152600381015460608601528260048201548181161515608088015260081c16151560a0860152614ae160058201614983565b60c08601520154161515910152565b60068210156115125752565b60338210156115125752565b908154614b1481613585565b92614b226040519485613538565b818452600090815260208082208186015b848410614b41575050505050565b6001838192614b4f856148a0565b815201920193019290614b33565b908154614b6981613585565b92614b776040519485613538565b818452600090815260208082208186015b848410614b96575050505050565b6001838192614ba4856148f1565b815201920193019290614b88565b9060405191614bc0836134b0565b82614bca826148a0565b815260016005614bdb8285016148f1565b9360209485850152614bef60028201614a27565b6040850152614c0060038201614b08565b6060850152614c1160048201614b5d565b608085015201805490614c2382613585565b94614c316040519687613538565b82865260009182528082208187015b848410614c535750505050505060a00152565b85838192614c6085614a27565b815201920193019290614c40565b906020604082019260018060a01b0381511683520151916040602083015282518091526060820190602060608260051b8501019401926000905b828210614cb757505050505090565b9091929394605f19828203018552855160018060a01b038151168252602081015190602282101561151257604091602084015201519060606040820152614d3e614d28614d1284516101206060860152610180850190614535565b6020850151848203605f190160808601526144ee565b6040840151838203605f190160a0850152614569565b606083015190605f198382030160c0840152602080835192838152019201906000905b8082106150c957505050608083015190605f198382030160e0840152815180825260208201906020808260051b85010194019260005b82811061503e57505050505060a083015190605f1983820301610100840152815190818152602081016020808460051b8401019401926000925b818410614e7757505050505060c083015190605f1983820301610120840152602080835192838152019201906000905b808210614e5657505050614e4983602093610100614e33869560e06001990151605f19858303016101408601526145be565b92015190610160605f1982850301910152614613565b9701950193920190614ca8565b9091926020806001928651614e6a8161452b565b8152019401920190614e01565b9091929394601f9d9c9d1982820301845285519081516006811015611512578152602082015160208201526040820151610100604083015261010082018151809152610120830160206101208360051b8601019301916000905b808210614f3857505050509d9e9d8260209260e080614f098695606060019901516060860152608086015185820360808701526144b2565b9360a0810151151560a085015260c0810151151560c08501520151151591015297019401940192939190614dd1565b9091929361011f19868203018452845190815181526020820151614f5b8161452b565b60208201526040820151614f6e816144d7565b60408201526060820151603381101561151257606082015260a0614fa1608084015160c0608085015260c0840190614535565b9201519060a081840391015260a0614fce6148186148066147f46147e2865160c0895260c0890190614535565b9101519160a0818303910152815180825260208201906020808260051b8501019401926000915b80831061501357505050505060208060019296019401920190614ed1565b9091929394602080615031600193601f198782030189528951614569565b9701950193019190614ff5565b9091929394602080600192601f1986820301885288519060e0806150b461506e8551610100808752860190614535565b8686015187860152604086015160408601526060860151606086015260808601511515608086015260a0860151151560a086015260c086015185820360c08701526144b2565b93015115159101529701950193929101614d97565b909192602080600192865115158152019401920190614d61565b906148d5604560405180947f496e76616c69642070726f6772616d20616464726573732e204d73672e73656e60208301526403232b91d160dd1b6040830152615135815180926020868601910161448f565b8101036025810185520183613538565b906148d56040805180947f2c20616e642070726f6772616d206f70657261746f7220616464726573733a206020830152615188815180926020868601910161448f565b8101036020810185520183613538565b60206148d59193929360405194816151b9879351809286808701910161448f565b82016151cd8251809386808501910161448f565b01038085520183613538565b156151e15750565b60405162461bcd60e51b8152602060048201529081906152059060248301906144b2565b0390fd5b6000198114611c275760010190565b8051156115905760200190565b8051600110156115905760400190565b8051600210156115905760600190565b80518210156115905760209160051b010190565b604051602081016001600160401b038111828210176114fc576040526000815290565b818110615287575050565b6000815560010161527c565b805460008255806152a2575050565b6148d59160005260206000209081019061527c565b90600160401b81116114fc578154908083558181106152d557505050565b6148d5926000526020600020918201910161527c565b6152f58154614949565b90816152ff575050565b81601f60009311600114615311575055565b8183526020832061532d91601f0160051c81019060010161527c565b8160208120915555565b8054906000815581615347575050565b6000526020600020908101905b81811061535f575050565b8061536b6001926152eb565b01615354565b90600160401b81116114fc5781549181815582821061538f57505050565b600052602060002091820191015b8181106153a8575050565b806153b46001926152eb565b0161539d565b80549060008155816153ca575050565b6000526020600020908101905b8181106153e2575050565b806153ee600192615293565b016153d7565b90600160401b81116114fc5781549181815582821061541257505050565b600052602060002091820191015b81811061542b575050565b80615437600192615293565b01615420565b805490600081558161544d575050565b6000526020600020908101905b818110615465575050565b80615471600192615337565b0161545a565b805460008083558161548857505050565b600992828402928484040361551457815260208120918201915b8281106154af5750505050565b80828592558260018201556154c660028201615293565b6154d260038201615293565b6154de60048201615293565b6154ea60058201615337565b6154f6600682016153ba565b615502600782016153ba565b61550e6008820161543d565b016154a2565b634e487b7160e01b82526011600452602482fd5b5160068110156115125790565b9060ff801983541691151516179055565b9061ff00825491151560081b169061ff001916179055565b815160068110156115125760ff8019835416911617815560208201516001820155600281016040830151805190600160401b82116114fc578254828455808310615cd5575b506020019160005260206000206000925b8284106157135750505050606082015160038201556080820151805160048301916001600160401b0382116114fc576155ed8354614949565b601f81116156e1575b50602090601f83116001146156735791806005949260e09694600092615668575b50508160011b916000199060031b1c19161790555b019161563e60a0820151151584615535565b61564e60c0820151151584615546565b0151815462ff0000191690151560101b62ff000016179055565b015190503880615617565b90601f198316918460005260206000209260005b8181106156c9575092600192859260e0989660059896106156b0575b505050811b01905561562c565b015160001960f88460031b161c191690553880806156a3565b92936020600181928786015181550195019301615687565b61570d90846000526020600020601f850160051c81019160208610612b8757601f0160051c019061527c565b386155f6565b80518051835560208101516157278161452b565b6157308161452b565b60018401908154604084015190615746826144d7565b61574f826144d7565b60608501519060338210156115125760ff62ff000061ff009360101b1694169062ffffff1916179160081b1617179055608081015180519060018060401b0382116114fc57602060028601916157a584846152b7565b0190600052602060002060005b838110615cc1575050505060a0015180518051906001600160401b0382116114fc57602060038601916157e584846152b7565b0190600052602060002060005b838110615cad575050505060208101518051906001600160401b0382116114fc576020600486019161582484846152b7565b0190600052602060002060005b838110615c90575050505060058301604082015160208151916158548385615371565b019160005260206000206000925b828410615b7c5750505050600683016060820151602081519161588583856153f4565b019160005260206000206000925b828410615b1e575050505060078301608082015160208151916158b683856153f4565b019160005260206000206000925b828410615ab7575050505060a00151805190600160401b82116114fc576008840154826008860155808310615a84575b5060200190600884016000526020600020916000905b828210615928575050505060096020600192019201930192906155b4565b805160208151916159398388615371565b0190856000526020600020916000905b82821061596657505050506001602081920194019101909261590a565b80518051906001600160401b0382116114fc576159838654614949565b90601f91828111615a4a575b5060209183116001146159da5792826001949360209386956000926159cf575b5050600019600383901b1c191690841b1787555b01940191019092615949565b0151905038806159af565b908660005260206000209160005b601f1985168110615a32575083602093600196938796938794601f19811610615a19575b505050811b0187556159c3565b015160001960f88460031b161c19169055388080615a0c565b919260206001819286850151815501940192016159e8565b615a75908860005260206000208480870160051c82019260208810615a7b575b0160051c019061527c565b3861598f565b92508192615a6a565b600885016000526020600020908382015b8183018110615aa55750506158f4565b80615ab1600192615337565b01615a95565b80518051906001600160401b0382116114fc57602090615ad783866152b7565b0183600052602060002060005b838110615b015750505050600160208192019201930192906158c4565b82516001600160a01b031681830155602090920191600101615ae4565b80518051906001600160401b0382116114fc57602090615b3e83866152b7565b0183600052602060002060005b838110615b68575050505060016020819201920193019290615893565b600190602084519401938184015501615b4b565b80518051906001600160401b0382116114fc57615b998454614949565b90601f91828111615c60575b506020918311600114615bf0579282600194936020938695600092615be5575b5050600019600383901b1c191690841b1785555b01920193019290615862565b015190503880615bc5565b908460005260206000209160005b601f1985168110615c48575083602093600196938796938794601f19811610615c2f575b505050811b018555615bd9565b015160001960f88460031b161c19169055388080615c22565b91926020600181928685015181550194019201615bfe565b615c8a908660005260206000208480870160051c82019260208810615a7b570160051c019061527c565b38615ba5565b82516001600160a01b031681830155602090920191600101615831565b6001906020845194019381840155016157f2565b6001906020845194019381840155016157b2565b6009908082029082820403611c27578382028281048503611c27576000908682526020822092830192015b828110615d0f575050506155a3565b8082859255826001820155615d2660028201615293565b615d3260038201615293565b615d3e60048201615293565b615d4a60058201615337565b615d56600682016153ba565b615d62600782016153ba565b615d6e6008820161543d565b01615d00565b90615d7e82613585565b615d8b6040519182613538565b8281528092615d9c601f1991613585565b0190602036910137565b620138838054821015611590576000526006602060002091020190600090565b620138828054821015611590576000526006602060002091020190600090565b620271118054821015611590576000526006602060002091020190600090565b620271108054821015611590576000526006602060002091020190600090565b620138828054600160401b8110156114fc57615e4791600182019055615dc6565b919091615e57576148d59161555e565b634e487b7160e01b600052600060045260246000fd5b620138838054600160401b8110156114fc57615e4791600182019055615da6565b620271118054600160401b8110156114fc57615e4791600182019055615de6565b620271108054600160401b8110156114fc57615e4791600182019055615e06565b60405190615edd826134e7565b60188252772a343290383937b3b930b69034b99032bc32b1baba32b21760411b6020830152565b600091825b6020808401908151805187101561606b5781615f2888615f2f93615245565b510161658e565b6022928382101561151257601a918203615fdd5787615f4e9151615245565b519282840151908110156115125703615f9b575093615f8e615f9592615f87615f8160e060406122bc9a01510151615218565b51615218565b5190616564565b959061659b565b92615f09565b6064906040519062461bcd60e51b82526004820152601b60248201527a2a34329037b831b7b2329034b9903737ba102820acafa1a0a9a41760291b6044820152fd5b92919050615ff381615f2889869a979a51615245565b828110156115125760140361602357505090615f8e6122bc9561315961601d84615f959651615245565b516165e7565b61603290615f28858551615245565b908110156115125760151461604c575b50615f9590615209565b90615f8e6160659561315961601d84615f959651615245565b90616042565b5050509092508034106000146160e05760405162461bcd60e51b815260206004820152603760248201527f546865207061796d656e74206973206e6f7420656e6f7567682e205468652074604482015276037ba30b6103830bcb6b2b73a1039b437bab6321031329604d1b6064820152608490fd5b803411616473575b506202711f805460ff81166160fc816144d7565b6001810361612c575050508061611c616117616121936166e3565b6166f7565b616780565b616129615ed0565b90565b616135816144d7565b600281148080616466575b1561621a5750505050616152816166e3565b156161db57616160816166e3565b1561619f5761616e90616780565b60405161617a816134e7565b60158152742a3432903b37ba329034b99032bc32b1baba32b21760591b602082015290565b60405162461bcd60e51b8152602060048201526014602482015273496e76616c696420766f74652070726f6772616d60601b6044820152606490fd5b60405162461bcd60e51b815260206004820152601760248201527624b73b30b634b2103b37ba34b73390383937b3b930b69760491b6044820152606490fd5b616223826144d7565b60038214918280616459575b15616303575050505050616242816166e3565b156162b3578061611c616117616257936166e3565b6040516162638161351d565b603a81527f5468652070656e64696e672070726f6772616d2069732065786563757465642060208201527930b33a32b9103b37ba34b7339030b7321030b8383937bb30b61760311b604082015290565b60405162461bcd60e51b815260206004820152602260248201527f496e76616c696420657865637574696e672070656e64696e672070726f677261604482015261369760f11b6064820152608490fd5b61630c816144d7565b818061644b575b8061643e575b1561633e57505050509061612191600360ff1982541617905561611c616117826166e3565b616347816144d7565b821561642c575b50508061641e575b61638c57505050604051616369816134e7565b6013815272283937b3b930b6903a32b936b4b730ba32b21760691b602082015290565b60ff1916600117905561639e816166e3565b156163b3578061611c616117616121936166e3565b60405162461bcd60e51b815260206004820152603e60248201527f5b4572726f72203030335d5468652070726f6772616d206973206e6f7420612060448201527f76616c696420657865637574652070656e64696e672070726f6772616d2e00006064820152608490fd5b506202711e54421015616356565b6164379192506144d7565b388061634e565b506202711e544210616319565b506202711d54421015616313565b506202711e54421061622f565b506202711d544210616140565b61647d9034616575565b90156165065760018060a01b0390818351166000526164a9620138869182602052604060002054616564565b9290156164c557835116600052602052604060002055386160e8565b60405162461bcd60e51b81526020600482015260196024820152782a3432903732bb903130b630b731b29037bb32b9333637bb9760391b6044820152606490fd5b60405162461bcd60e51b815260206004820152601c60248201527b2a3432903830bcb6b2b73a103932ba3ab9371037bb32b9333637bb9760211b6044820152606490fd5b906001820191821061655c5760019190565b600091508190565b9190820191821061655c5760019190565b9190828111616585576001920390565b50600091508190565b5160228110156115125790565b156165a257565b60405162461bcd60e51b815260206004820152601f60248201527f54686520746f74616c207061796d656e7420697320746f6f206c617267652e006044820152606490fd5b6000805b604083019060e06165ff8184510151615225565b51518410156166725761661f846166198386510151615225565b51615245565b5192510151928351600210156115905761666361665e61666a936166576040966166508660606122bc9b0151615245565b51906166c4565b929061659b565b616564565b949061659b565b9190506165eb565b509250505090565b8115616684570490565b634e487b7160e01b600052601260045260246000fd5b9081156166bb5760646166b0818402938461667a565b0361655c5760019190565b60019150600090565b919082156166d9576166b0818402938461667a565b5060019150600090565b6020015151156166f257600190565b600090565b156166fe57565b60405162461bcd60e51b815260206004820152600f60248201526e496e76616c69642070726f6772616d60881b6044820152606490fd5b60809060208152602a60208201527f5468652070726f6772616d2069732064656e6965642062792074686520706c7560408201526967696e2073797374656d60b01b60608201520190565b9061678a8261a8c8565b9290925161a85f576006831015611512576003831461a80757826167e65760405162461bcd60e51b8152602060048201526016602482015275151a19481c1c9bd9dc985b481a5cc81a5b9d985b1a5960521b6044820152606490fd5b600492808403617fa357506000905b60208101518051831015617f9c578261680d91615245565b519060208201805160229081811015617f065715617f5a57815181811015617f0657600103616a0857505060408092019361684d61010086510151615218565b519061686b60e06168618189510151615218565b5197510151615225565b519261687a835188511461b91f565b616887835185511461b984565b60005b83518110156169eb5761689d8189615245565b5161271090818110156169d657600160ff60076168c29360031b01541615151461b9e5565b6168cc8287615245565b516168d7838b615245565b51828110156169c15760031b600601546168f091616564565b6168fa848c615245565b51838110156169ac5760031b600601556169139061ba3c565b61691d8287615245565b5190616929838b615245565b5191818310156169c1576001600160a01b039261696591906003908561694f888c615245565b5116600052811b01602052896000205490616564565b919092616972858d615245565b51918210156169ac579160038594926122bc946169926169a7988c615245565b5116600052811b01602052896000205561ba9a565b61688a565b60328d634e487b7160e01b6000525260246000fd5b60328c634e487b7160e01b6000525260246000fd5b60328b634e487b7160e01b6000525260246000fd5b509550939050602092506169ff9150615209565b919290506167f5565b819594955181811015617f0657600203616dba5750506040809201908151938385015191616a56616a3d60e080980151615218565b5196616a4c8187510151615225565b5195510151615235565b51948351875103616d69578351855103616d17578351865103616cc2575060005b8651811015616cae57616a8a8188615245565b51612710811015616bc757616aaa60ff6007809360031b0154161561baf2565b616ab48289615245565b516127108110156169d65760031b01805460ff19166001179055616ad88185615245565b51616ae38289615245565b51906127108210156169d65780516001600160401b038111616c995780600592616b12848660031b0154614949565b90601f91828111616c5c575b506020918311600114616be757600092616bdc575b50508160011b916000199060031b1c1916179160031b01555b616b568186615245565b51616b618289615245565b516127108110156169d65760031b60010155616b7d8187615245565b51616b888289615245565b516127108110156169d65760031b60020155616ba48188615245565b51612710811015616bc7579060006006616bc29360031b0155615209565b616a77565b60328a634e487b7160e01b6000525260246000fd5b015190503880616b33565b9250838560031b016000526020600020906000935b601f1984168510616c41576001945083601f19811610616c28575b505050811b019160031b0155616b4c565b015160001960f88460031b161c19169055388080616c17565b81810151835560209485019460019093019290910190616bfc565b616c8a90868860031b01600052602060002084808701891c82019260208810616c90575b01881c019061527c565b38616b1e565b92508192616c80565b60418c634e487b7160e01b6000525260246000fd5b509591509350602092506169ff9150615209565b5162461bcd60e51b81526020818a0152603c602482015260008051602061c67983398151915260448201527b1b911a5d9a59195b9915d95a59da1d081a5cc81b9bdd08195c5d585b60221b6064820152608490fd5b5162461bcd60e51b81526020818a01526039602482015260008051602061c6798339815191526044820152781b959bdd1a5b99d41bddd95c881a5cc81b9bdd08195c5d585b603a1b6064820152608490fd5b5162461bcd60e51b81526020818a01526038602482015260008051602061c6798339815191526044820152771b925b99195e105c9c985e481a5cc81b9bdd08195c5d585b60421b6064820152608490fd5b81959392955181811015617f0657600303616de05750506020916122bc6169ff9261bcfe565b8196939294965181811015617f45578403617068575050604080930161010091616e1b616e108484510151615218565b519383510151615225565b5195616e3960e0616e2f8186510151615218565b5194510151615225565b5197616e4b855189511461344d61c1ce565b616e5b855185511461344d61c1ce565b616e6b85518a511461344d61c1ce565b60005b8551811015616ee957616e818186615245565b51612710811015616ed457616ecf91906003906001600160a01b03616ea6848b615245565b5116600052811b016020526122bc8b616ec4838c6000205492615245565b51111561344d61c295565b616e6e565b603288634e487b7160e01b6000525260246000fd5b509097939796929594919660005b895181101561705257616f0a8189615245565b51612710908181101561703d5790600383928d616f2f60018060a01b03958692615245565b5116600052811b01602052616f538960002054616f4c858b615245565b5190616575565b616f5d858d615245565b5183811015617028579060038f9286616f7a89616f929796615245565b5116600052811b016020528b6000205561344d61c295565b616f9c838b615245565b51818110156170135760039083616fb3868b615245565b5116600052811b01602052616fd08960002054615f87858b615245565b929050616fdd848c615245565b519182101561701357839291600391616ff961700e968b615245565b5116600052811b016020528860002055615209565b616ef7565b603287634e487b7160e01b6000525260246000fd5b603289634e487b7160e01b6000525260246000fd5b603286634e487b7160e01b6000525260246000fd5b5096925094509550602092506169ff9150615209565b81959492955181811015617f45576005036171e3575050604092838201906170a260e06170988185510151615218565b5193510151615225565b519682518851036171945760005b83518110156170ff576170c38185615245565b51612710811015617013579060036170fa9260018060a01b03885116600052811b016020526122bc8860002054616ec4838d615245565b6170b0565b50909692919594939660005b87518110156169eb5761711e8189615245565b51612710808210156169d657600360018060a01b039283885116600052811b016020526171538860002054616f4c858a615245565b919092617160858d615245565b51918210156169ac5791600361718f9594926122bc948a5116600052811b01602052896000205561344d61c295565b61710b565b855162461bcd60e51b81526020818701526035602482015260008051602061c659833981519152604482015274195b905b5bdd5b9d081a5cc81b9bdd08195c5d585b605a1b6064820152608490fd5b819492945181811015617f45576006036173d4575050604080930161720d61010082510151615218565b519161722160e06170988185510151615218565b5196835183510361738557835188510361733b5760005b84518110156172925761724b8185615245565b516127108110156170135761728d91906003906001600160a01b03617270848a615245565b5116600052811b016020526122bc8860002054616ec4838d615245565b617238565b50909692919594939660005b83518110156169eb576172b18189615245565b51612710808210156169d6576001600160a01b0391600390836172d4868a615245565b5116600052811b016020526172f18860002054616f4c858a615245565b9190926172fe858d615245565b51918210156169ac579160038594926122bc9461731e617336988c615245565b5116600052811b01602052896000205561344d61c295565b61729e565b855162461bcd60e51b81526020818701526030602482015260008051602061c6b983398151915260448201526f1b9d1cc81a5cc81b9bdd08195c5d585b60821b6064820152608490fd5b855162461bcd60e51b81526020818701526035602482015260008051602061c6398339815191526044820152741b90db185cdcd95cc81a5cc81b9bdd08195c5d585b605a1b6064820152608490fd5b81949293945181811015617ef157600703617656575050604090949194019161740261010084510151615218565b5194604061741460e086510151615218565b51945101519261742a875186511461344d61c1ce565b6000915b8751831015617642576001600160a01b03617449848a615245565b511660005262013880928360205261746c60ff604060002054161561344d61c264565b6174768187615245565b516174818289615245565b51906040519561749087613495565b600187526000602088019081526040880192835260608801939093526001600160a01b036174be858e615245565b51166000526020526174e56040600020926174dc8851151585615535565b51151583615546565b5180519095906001600160401b03811161762d576175066001840154614949565b96601f978881116175fa575b50602097821160011461758057918160609261756e979899600295600092617575575b50508160011b916000199060031b1c19161760018501555b01519101556122bc6001600160a01b03617567838c615245565b511661b596565b919061742e565b015190503880617535565b966001840160005260206000209760005b601f19841681106175e257508261756e97989960029593600193606096601f198116106175c9575b505050811b01600185015561754d565b015160001960f88460031b161c191690553880806175b9565b818301518a5560019099019860209283019201617591565b617627906001860160005260206000208a80860160051c82019260208710615a7b570160051c019061527c565b38617512565b604188634e487b7160e01b6000525260246000fd5b95915093506169ff91955060209250615209565b819293959691519281841015617ef157600893840361773b57505061010093617686856040809601510151615218565b519560005b87518110156177265761772190886001600160a01b03806176ac8484615245565b51166000526176fb89826176e1866201388096876020526176dc600160ff8097600020541615151461344d61c1fc565b615245565b5116600052836020528a600020548a1c161561344d61c22d565b617705838c615245565b5116600052602052866000208861ff0019825416179055615209565b61768b565b50955095909350602092506169ff9150615209565b809796949293975182811015617f3057600f0361789f57505060409192939495500160a09182825101519360005b855181101561788b5760e0617782828787510151615245565b5101511561782b576177a161779b828787510151615245565b51615e26565b6201388280546000199190828101908111617816576177c1600591615dc6565b5001805461ff00191661010017905554908101908111617801579060056177ea6177fc93615dc6565b5001805460ff19166001179055615209565b617769565b601188634e487b7160e01b6000525260246000fd5b60118a634e487b7160e01b6000525260246000fd5b61784261783c828787510151615245565b51615e6d565b620138828054600019919082810190811161781657617862600591615da6565b5001805461ff00191661010017905554908101908111617801579060056177ea6177fc93615da6565b509495909350602092506169ff9150615209565b805182811015617f3057600c036179b057505060409192939495500160a09182825101519360005b855181101561788b5760e06178e0828787510151615245565b51015115617956576178f961779b828787510151615245565b620138828054600019919082810190811161781657617919600591615dc6565b5001805461ff001916610100179055549081019081116178015790600561794261795193615dc6565b5001805460ff19169055615209565b6178c7565b61796761783c828787510151615245565b620138828054600019919082810190811161781657617987600591615da6565b5001805461ff001916610100179055549081019081116178015790600561794261795193615da6565b809795975182811015617f1b57600d03617ae05750506040019460606179da60e088510151615218565b5196510151926179ed875185511461b665565b60005b8751811015617acc5780808988617a0a617a79958a615245565b5115617a7e57617a60617a4984846176dc60059695617a3c617a30617a6a9a8a99615245565b5162013882541161b6ed565b617a4f617a498585615245565b51615dc6565b509060ff9889920154901c1661b744565b500154161561b7a4565b60056177ea617a49838c615245565b6179f0565b617a60617ab784846176dc60059695617aaa617a9e617abd9a8a99615245565b5162013883541161b6ed565b617a4f617ab78585615245565b51615da6565b60056177ea617ab7838c615245565b50949095506169ff91935060209250615209565b805182811015617f1b57600e03617bbd575050604001946060617b0760e088510151615218565b519651015192617b1a875185511461b665565b60005b8751811015617acc5780888782617b37617b45958a615245565b51617b4a575b505050615209565b617b1d565b617b93617a4982856176dc600596617b75617b698998617b9c9b615245565b5162013882541161b804565b617b82617a498585615245565b509060ff9889920154901c1661b85c565b5001541661b8bd565b6005617bab617a49838c615245565b5001805460ff19169055888782617b3d565b80919293949795505182811015617ef157601003617c4f5750506040015191617bee60e060c0850151940151615218565b5194617c00845187511461344d61c1ce565b60005b8451811015617c3d57806122bc617c1d617c389388615245565b51617c278161452b565b617c31838b615245565b519061b5e0565b617c03565b50936169ff9195506020929350615209565b8096959394965182811015617f0657601a03617d6a575050617c7960e06040809301510151615218565b516003815103617d2857617c8c81615218565b5191617ca1617c9a83615225565b5192615235565b5191617cef5750916169ff91600160209414600014617ce957617cd890617ccd6201388a918254616564565b90915561344d61c1a5565b6122bc6201388b617ccd815461654a565b50615209565b5162461bcd60e51b81526020818801526014602482015273496e76616c6964207061796d656e74207479706560601b6044820152606490fd5b815162461bcd60e51b8152602081880152601c60248201527b496e76616c6964206e756d626572206f6620706172616d657465727360201b6044820152606490fd5b805182811015617f0657601403617e95575050909192604080920193617d9561010086510151615218565b5190617da960e06168618189510151615218565b5192617db8835188511461b91f565b617dc5835185511461b984565b60005b83518110156169eb57617ddb8186615245565b51617de6828a615245565b519061271091828110156169c15760031b60060154617e0491616564565b617e0e848c615245565b51838110156169ac5760031b60060155617e279061ba3c565b617e318287615245565b5190617e3d838b615245565b5191818310156169c1576001600160a01b0392617e6391906003908561694f888c615245565b919092617e70858d615245565b51918210156169ac579160038594926122bc94616992617e90988c615245565b617dc8565b5190811015617ef157601503617eb4576020916122bc6169ff9261bcfe565b60405162461bcd60e51b81526020818701526016602482015275496e76616c6964206f7065726174696f6e207479706560501b6044820152606490fd5b602186634e487b7160e01b6000525260246000fd5b602188634e487b7160e01b6000525260246000fd5b602189634e487b7160e01b6000525260246000fd5b602187634e487b7160e01b6000525260246000fd5b602185634e487b7160e01b6000525260246000fd5b60405162461bcd60e51b8152602081890152601b60248201527a13dc195c985d1a5bdb881d1e5c19481a5cc81d5b9919599a5b9959602a1b6044820152606490fd5b5050509050565b60028103617fc35760405162461bcd60e51b815280615205818701616735565b600114617fcf57509050565b6201388e5b6202710e811061a7cb575060005b612710811061a7bd57506000905b602081015180518310156195d2578261800891615245565b516020810180519060229182811015617f065715617f5a57805182811015617f06576001036181c75750506040019261804661010085510151615218565b519161806460e061805a8188510151615218565b5196510151615225565b5191618073845187511461b91f565b618080845184511461b984565b60005b84518110156181b1576180968188615245565b516127109081811015616bc757600160ff620138956180bd9360031b01541615151461b9e5565b6180c78286615245565b516180d2838a615245565b5190828210156169d6576180f19062013894809360031b015490616564565b90916180fd858c615245565b51848110156169ac5760031b01556181149061ba3c565b61811e8286615245565b519061812a838a615245565b51818110156169d6576001600160a01b0392618169908461814b878c615245565b511660005262013891809360031b0160205260406000205490616564565b929093618176868d615245565b51918210156169ac57916122bc93918695936181956181ac988d615245565b511660005260031b0160205260406000205561ba9a565b618083565b5094509290506181c19150615209565b90617ff0565b8095929394955182811015617f065760020361844c57505060408092019081519383850151916181fe616a3d60e080980151615218565b51948351875103616d69578351855103616d17578351865103616cc2575060005b865181101561843b576182328188615245565b51612710811015616bc75761825460ff62013895809360031b0154161561baf2565b61825e8289615245565b516127108110156169d65760031b01805460ff191660011790556182828185615245565b5161828d8289615245565b51906127108210156169d6578051906001600160401b038211616c99576182bc620138938460031b0154614949565b90601f91828111618403575b506020918311600114618389576201389392916000918361837e575b50508160011b916000199060031b1c1916179160031b01555b6183078186615245565b516183128289615245565b516127108110156169d65760031b6201388f01556183308187615245565b5161833b8289615245565b516127108110156169d65760031b6201389001556183598188615245565b51612710811015616bc757906000620138946183799360031b0155615209565b61821f565b0151905038806182e4565b90620138938460031b0160005260206000209160005b601f19851681106183eb57509183916001936201389395601f198116106183d2575b505050811b019160031b01556182fd565b015160001960f88460031b161c191690553880806183c1565b9192602060018192868501518155019401920161839f565b61843590620138938660031b016000526020600020600585808801821c83019360208910612dae5701901c019061527c565b386182c8565b509592509350506181c19150615209565b80959392955182811015617f0657600303618470575050906122bc6181c19261bb3d565b8096939294965182811015617f4557840361869b5750506040809301610100916184a0616e108484510151615218565b51956184b460e0616e2f8186510151615218565b51976184c6855189511461344d61c1ce565b6184d6855185511461344d61c1ce565b6184e685518a511461344d61c1ce565b60005b8551811015618547576184fc8186615245565b51612710811015616ed457618542919062013891906001600160a01b03618523848b615245565b511660005260031b016020526122bc8b616ec4838c6000205492615245565b6184e9565b509097919693979594929560005b8951811015618688576185688189615245565b5161271090818110156170135762013891906001600160a01b0361858c858f615245565b511660005260031b016020526185aa8860002054616f4c8488615245565b6185b4848c615245565b51838110156170285790620138916185f293928f6185d98860018060a01b0392615245565b511660005260031b016020528a6000205561344d61c295565b6185fc828a615245565b51818110156170135762013891906001600160a01b0361861c858b615245565b511660005260031b0160205261863a8860002054615f878488615245565b919050618647838b615245565b51908110156170135761868392919062013891906001600160a01b0361866d858c615245565b511660005260031b016020528860002055615209565b618555565b5096935094505094506181c19150615209565b8095939492955182811015617ef15760050361881d5750509060408201906186cb60e06170988185510151615218565b519582518751036187cd5760005b835181101561872c576186ec8185615245565b516127108110156170135790620138916187279260018060a01b0388511660005260031b016020526122bc604060002054616ec4838c615245565b6186d9565b509095929194939560005b86518110156181b15761874a8188615245565b516127109081811015616bc757620138919060018060a01b0387511660005260031b01602052618783604060002054616f4c8489615245565b909161878f848b615245565b51908110156169d657916122bc91620138916187c8959460018060a01b038a511660005260031b0160205260406000205561344d61c295565b618737565b60405162461bcd60e51b81526020818701526035602482015260008051602061c659833981519152604482015274195b905b5bdd5b9d081a5cc81b9bdd08195c5d585b605a1b6064820152608490fd5b805182811015617ef157600603618a1d57505060400161884261010082510151615218565b519161885660e06170988185510151615218565b519583518351036189cd5783518751036189825760005b84518110156188cb576188808185615245565b51612710811015617013576188c6919062013891906001600160a01b036188a7848a615245565b511660005260031b016020526122bc604060002054616ec4838c615245565b61886d565b509095929194939560005b83518110156181b1576188e98188615245565b516127109081811015616bc75762013891906001600160a01b0361890d8589615245565b511660005260031b0160205261892c604060002054616f4c8489615245565b9091618938848b615245565b51908110156169d65761897d93926122bc92909162013891906001600160a01b03618963878c615245565b511660005260031b0160205260406000205561344d61c295565b6188d6565b60405162461bcd60e51b81526020818701526030602482015260008051602061c6b983398151915260448201526f1b9d1cc81a5cc81b9bdd08195c5d585b60821b6064820152608490fd5b60405162461bcd60e51b81526020818701526035602482015260008051602061c6398339815191526044820152741b90db185cdcd95cc81a5cc81b9bdd08195c5d585b605a1b6064820152608490fd5b809694965182811015617f0657600703618cc457505060400190618a4661010083510151615218565b51926040618a5860e085510151615218565b519351015191618a6e855185511461344d61c1ce565b60005b8551811015618cb4576001600160a01b03618a8c8288615245565b51166000526202710e80602052618aae60ff604060002054161561344d61c264565b618ab88286615245565b5190618ac48388615245565b519160405191618ad383613495565b600183526000602084019081526040840192835260608401949094526001600160a01b03618b01868c615245565b5116600052602052618b28604060002093618b1f8451151586615535565b51151584615546565b518051906001600160401b038211616c9957618b476001850154614949565b90601f91828111618c81575b506020918311600114618c0c57918060029492606094600092618c01575b50508160011b916000199060031b1c19161760018501555b01519101556001600160a01b03618ba08288615245565b51166202710f805490600160401b821015618bec57600182018082558210156169d6576000908152602090200180546001600160a01b0319169091179055618be790615209565b618a71565b60418b634e487b7160e01b6000525260246000fd5b015190503880618b71565b906001850160005260206000209160005b601f1985168110618c695750926002949260019260609583601f19811610618c50575b505050811b016001850155618b89565b015160001960f88460031b161c19169055388080618c40565b91926020600181928685015181550194019201618c1d565b618cae906001870160005260206000208480870160051c82019260208810615a7b570160051c019061527c565b38618b53565b5094915092506181c19150615209565b8096949192939596519280841015617ef1576008938403618d6357505061010093618cf6856040809601510151615218565b519560005b8751811015618d5157618d4c90886001600160a01b0380618d1c8484615245565b51166000526176fb89826176e1866202710e96876020526176dc600160ff8097600020541615151461344d61c1fc565b618cfb565b50955095915092506181c19150615209565b819796949293975181811015617f3057600f03618e8857505060409192939495500160a09182825101519360005b8551811015618e775760e0618daa828787510151615245565b51015115618e1757618dc9618dc3828787510151615245565b51615eaf565b620271108054600019919082810190811161781657618de9600591615e06565b5001805461ff00191661010017905554908101908111617801579060056177ea618e1293615e06565b618d91565b618e2e618e28828787510151615245565b51615e8e565b620271118054600019919082810190811161781657618e4e600591615de6565b5001805461ff00191661010017905554908101908111617801579060056177ea618e1293615de6565b509495915092506181c19150615209565b815181811015617f3057600c03618f8a57505060409192939495500160a09182825101519360005b8551811015618e775760e0618ec9828787510151615245565b51015115618f3057618ee2618dc3828787510151615245565b620271108054600019919082810190811161781657618f02600591615e06565b5001805461ff0019166101001790555490810190811161780157906005617942618f2b93615e06565b618eb0565b618f41618e28828787510151615245565b620271118054600019919082810190811161781657618f61600591615de6565b5001805461ff0019166101001790555490810190811161780157906005617942618f2b93615de6565b819795975181811015617f1b57600d0361909c575050604001946060618fb460e088510151615218565b519651015192618fc7875185511461b665565b60005b875181101561908b5780808988618fe4619038958a615245565b511561903d57617a6061902384846176dc6005969561901661900a6190299a8a99615245565b5162027110541161b6ed565b617a4f6190238585615245565b51615e06565b60056177ea619023838c615245565b618fca565b617a6061907684846176dc6005969561906961905d61907c9a8a99615245565b5162027111541161b6ed565b617a4f6190768585615245565b51615de6565b60056177ea619076838c615245565b509491935094506181c19150615209565b815181811015617f1b57600e0361918e5750506040019460606190c360e088510151615218565b5196510151926190d6875185511461b665565b60005b875181101561908b57808089886190f3619141958a615245565b511561914657617b9361902384846176dc600596956191256191196191329a8a99615245565b5162027110541161b804565b617b826190238585615245565b6005617942619023838c615245565b6190d9565b617b9361907684846176dc6005969561917261916661917f9a8a99615245565b5162027111541161b804565b617b826190768585615245565b6005617942619076838c615245565b90809293979495505181811015617f45576010036192bf57505060400151936191bf60e060c0870151960151615218565b51926191d1865185511461344d61c1ce565b60005b86518110156192af57806191eb6192519289615245565b516191f58161452b565b856192008389615245565b519161920b8161452b565b61921e61921661c2c2565b8215156151d9565b6192278161452b565b6001810361925657505061924761923c61c2c2565b6127108311156151d9565b6202711655615209565b6191d4565b61925f8161452b565b600281036192735750506202711755615209565b61927c8161452b565b600381036192905750506202711855615209565b6192998161452b565b146192a45750615209565b620271195538617ce9565b50939092506181c1919450615209565b819693959296519181831015617f3057601a92830361945e5750506192ec60e06040809801510151615218565b5190600382510361941c5761930082615218565b519161931561930e82615225565b5191615235565b51906193e2579660016181c19596979814600014617b3d5761939b6122bc9361934362027118918254616564565b9091558251906193528261351d565b603282527f6469766964656e6461626c652062616c616e6365206f766572666c6f772077686020830152710cadc40e0e4dec6cae6e6d2dcce40c6c2e6d60731b848301526151d9565b62027119906193aa825461654a565b90925551916193b8836134e7565b8252796469766964656e647320636f756e746572206f766572666c6f7760301b60208301526151d9565b875162461bcd60e51b81526020818901526014602482015273496e76616c6964207061796d656e74207479706560601b6044820152606490fd5b865162461bcd60e51b8152602081880152601c60248201527b496e76616c6964206e756d626572206f6620706172616d657465727360201b6044820152606490fd5b809192509692949395965182811015617f06576014036195b15750506040019261948d61010085510151615218565b51906194a160e061805a8188510151615218565b51926194b0835187511461b91f565b6194bd835185511461b984565b60005b83518110156181b1576194d38186615245565b516194de8289615245565b5161271091828210156169d6576195009062013894809360031b015490616564565b909161950c858c615245565b51848110156169ac5760031b01556195239061ba3c565b61952d8287615245565b51619538838a615245565b51828110156169d657619575919062013891906001600160a01b0361955d878b615245565b511660005260031b0160205260406000205490616564565b9091619581848b615245565b51908110156169d6576195ac93926122bc92909162013891906001600160a01b03618195878c615245565b6194c0565b949392945190811015617ef157601503617eb457906122bc6181c19261bb3d565b5090509190916195e18161ac60565b90600681101561a7a8576002810361960b5760405162461bcd60e51b815280615205818701616735565b919291600381036196c35750303b1561016957604051809363111771ed60e11b825260448201926040858401528051809452606483019360208092019160005b8281106196ac575050505061966f6000938392600319848303016024850152614c6e565b038183305af180156102ae57619683575050565b6001600160401b0382116196975750604052565b604190634e487b7160e01b6000525260246000fd5b83518752958101958895509281019260010161964b565b60059150929192146196d3575050565b6000929192905b60208101518051831015617f9c57826196f291615245565b519060208201805160229081811015617f065715617f5a57815181811015617f065760010361987957505060408092019361973261010086510151615218565b519061974660e06168618189510151615218565b5192619755835188511461b91f565b619762835185511461b984565b60005b835181101561985c576197788189615245565b5161271090818110156169d657600160ff600761979d9360031b01541615151461b9e5565b6197a78287615245565b516197b2838b615245565b51828110156169c15760031b600601546197cb91616564565b6197d5848c615245565b51838110156169ac5760031b600601556197ee9061ba3c565b6197f88287615245565b5190619804838b615245565b5191818310156169c1576001600160a01b039261982a91906003908561694f888c615245565b919092619837858d615245565b51918210156169ac579160038594926122bc94616992619857988c615245565b619765565b509550939050602092506198709150615209565b919290506196da565b819594955181811015617f0657600203619aed57505060408092019081519383850151916198ae616a3d60e080980151615218565b51948351875103616d69578351855103616d17578351865103616cc2575060005b8651811015619ad9576198e28188615245565b51612710811015616bc75761990260ff6007809360031b0154161561baf2565b61990c8289615245565b516127108110156169d65760031b01805460ff191660011790556199308185615245565b5161993b8289615245565b51906127108210156169d6578051906001600160401b038211616c995761996860058460031b0154614949565b90601f91828111619aa3575b506020918311600114619a2d576005929160009183619a22575b50508160011b916000199060031b1c1916179160031b01555b6199b18186615245565b516199bc8289615245565b516127108110156169d65760031b600101556199d88187615245565b516199e38289615245565b516127108110156169d65760031b600201556199ff8188615245565b51612710811015616bc7579060006006619a1d9360031b0155615209565b6198cf565b01519050388061998e565b9060058460031b0160005260206000209160005b601f1985168110619a8b5750918391600193600595601f19811610619a72575b505050811b019160031b01556199a7565b015160001960f88460031b161c19169055388080619a61565b91926020600181928685015181550194019201619a41565b619ad39060058660031b0160005260206000208480870160051c82019260208810615a7b570160051c019061527c565b38619974565b509591509350602092506198709150615209565b81959392955181811015617f0657600303619b135750506020916122bc6198709261bcfe565b819694965181811015617ef1578503619d3057505060400161010091619b3f616e108484510151615218565b5194619b5360e0616e2f8186510151615218565b5196619b65855188511461344d61c1ce565b619b75855185511461344d61c1ce565b619b85855189511461344d61c1ce565b60005b8551811015619be357619b9b8186615245565b51612710811015616ed457619bde91906003906001600160a01b03619bc0848b615245565b5116600052811b016020526122bc604060002054616ec4838d615245565b619b88565b5090969195939694929460005b8851811015619d1b57619c038188615245565b516127109081811015617013576003906001600160a01b03619c25858e615245565b5116600052811b01602052619c43604060002054616f4c8488615245565b619c4d848b615245565b518381101561702857906003619c8993928e619c708860018060a01b0392615245565b5116600052811b0160205260406000205561344d61c295565b619c938289615245565b5181811015617013576003906001600160a01b03619cb1858b615245565b5116600052811b01602052619ccf604060002054615f878488615245565b919050619cdc838a615245565b519081101561701357619d169291906003906001600160a01b03619d00858c615245565b5116600052811b01602052604060002055615209565b619bf0565b50959150935061987091955060209250615209565b819593955181811015617ef157600503619e69575050906040820190619d5e60e06170988185510151615218565b519582518751036187cd5760005b8351811015619dbc57619d7f8185615245565b5161271081101561701357906003619db79260018060a01b03885116600052811b016020526122bc604060002054616ec4838c615245565b619d6c565b509095929194939560005b8651811015619e5757619dda8188615245565b516127109081811015616bc75760039060018060a01b03875116600052811b01602052619e10604060002054616f4c8489615245565b9091619e1c848b615245565b51908110156169d657916122bc916003619e52959460018060a01b038a5116600052811b0160205260406000205561344d61c295565b619dc7565b50945092602092506198709150615209565b815181811015617ef157600603619fac575050604001619e8e61010082510151615218565b5191619ea260e06170988185510151615218565b519583518351036189cd5783518751036189825760005b8451811015619f1457619ecc8185615245565b5161271081101561701357619f0f91906003906001600160a01b03619ef1848a615245565b5116600052811b016020526122bc604060002054616ec4838c615245565b619eb9565b509095929194939560005b8351811015619e5757619f328188615245565b516127109081811015616bc7576003906001600160a01b03619f548589615245565b5116600052811b01602052619f72604060002054616f4c8489615245565b9091619f7e848b615245565b51908110156169d657619fa793926122bc9290916003906001600160a01b03619c70878c615245565b619f1f565b815181811015617ef15760070361a1df5750506040909491940191619fd661010084510151615218565b51946040619fe860e086510151615218565b519451015192619ffe875186511461344d61c1ce565b6000915b875183101561a1cb576001600160a01b0361a01d848a615245565b511660005262013880928360205261a04060ff604060002054161561344d61c264565b61a04a8187615245565b5161a0558289615245565b51906040519561a06487613495565b600187526000602088019081526040880192835260608801939093526001600160a01b0361a092858e615245565b511660005260205261a0b06040600020926174dc8851151585615535565b5180519095906001600160401b03811161762d5761a0d16001840154614949565b601f811161a196575b50602096601f821160011461a13657918160609261a12f9798996002956000926175755750508160011b916000199060031b1c191617600185015501519101556122bc6001600160a01b03617567838c615245565b919061a002565b966001840160005260206000209760005b601f198416811061a17e57508261a12f97989960029593600193606096601f198116106175c957505050811b01600185015561754d565b818301518a556001909901986020928301920161a147565b61a1c590600185016000526020600020601f840160051c81019160208510612b8757601f0160051c019061527c565b3861a0da565b959150935061987091955060209250615209565b819293959691519281841015617ef157600893840361a24f5750506101009361a20f856040809601510151615218565b519560005b875181101561a23a5761a23590886001600160a01b03806176ac8484615245565b61a214565b50955095909350602092506198709150615209565b809796949293975182811015617f3057600f0361a36b57505060409192939495500160a09182825101519360005b855181101561a3575760e061a296828787510151615245565b5101511561a2fd5761a2af61779b828787510151615245565b62013882805460001991908281019081116178165761a2cf600591615dc6565b5001805461ff00191661010017905554908101908111617801579060056177ea61a2f893615dc6565b61a27d565b61a30e61783c828787510151615245565b62013882805460001991908281019081116178165761a32e600591615da6565b5001805461ff00191661010017905554908101908111617801579060056177ea61a2f893615da6565b509495909350602092506198709150615209565b805182811015617f3057600c0361a46d57505060409192939495500160a09182825101519360005b855181101561a3575760e061a3ac828787510151615245565b5101511561a4135761a3c561779b828787510151615245565b62013882805460001991908281019081116178165761a3e5600591615dc6565b5001805461ff001916610100179055549081019081116178015790600561794261a40e93615dc6565b61a393565b61a42461783c828787510151615245565b62013882805460001991908281019081116178165761a444600591615da6565b5001805461ff001916610100179055549081019081116178015790600561794261a40e93615da6565b809795975182811015617f1b57600d0361a4e057505060400194606061a49760e088510151615218565b51965101519261a4aa875185511461b665565b60005b875181101561a4cc5780808988617a0a61a4c7958a615245565b61a4ad565b509490955061987091935060209250615209565b805182811015617f1b57600e0361a53c57505060400194606061a50760e088510151615218565b51965101519261a51a875185511461b665565b60005b875181101561a4cc5780888782617b3761a537958a615245565b61a51d565b80919293949795505182811015617ef15760100361a5b3575050604001519161a56d60e060c0850151940151615218565b519461a57f845187511461344d61c1ce565b60005b845181101561a5a157806122bc617c1d61a59c9388615245565b61a582565b50936198709195506020929350615209565b8096959394965182811015617f0657601a0361a62a57505061a5dd60e06040809301510151615218565b516003815103617d285761a5f081615218565b519161a5fe617c9a83615225565b5191617cef57509161987091600160209414600014617ce957617cd890617ccd6201388a918254616564565b80959394955182811015617f065760140361a7855750506040019261a65461010085510151615218565b519061a66860e061805a8188510151615218565b519261a677835187511461b91f565b61a684835185511461b984565b60005b8351811015619e575761a69a8186615245565b5161a6a58289615245565b519061271091828110156169d65760031b6006015461a6c391616564565b61a6cd848b615245565b51838110156169c15760031b6006015561a6e69061ba3c565b61a6f08287615245565b5161a6fb838a615245565b51828110156169d65761a73591906003906001600160a01b0361a71e878b615245565b5116600052811b0160205260406000205490616564565b909161a741848b615245565b51908110156169d65761a78093926122bc9290916003906001600160a01b0361a76a878c615245565b5116600052811b0160205260406000205561ba9a565b61a687565b949392945190811015617ef157601503617eb4576020916122bc6198709261bcfe565b602184634e487b7160e01b6000525260246000fd5b61a7c690615209565b617fe2565b600890600080825580600183015580600283015561a7ea868301615293565b61a7f6600583016152eb565b806006830155600782015501617fd4565b608460405162461bcd60e51b8152602060048201526040602482015260008051602061c69983398151915260448201527f656d2073686f756c64206e6f742072657475726e20766f7465206e65656465646064820152fd5b60405162461bcd60e51b8152602060048201526047602482015260008051602061c69983398151915260448201527f656d2073686f756c64206e6f742072657475726e206120766f74696e672072756064820152661b19481b1a5cdd60ca1b608482015260a490fd5b906201388254602060009301908151519061a8e282613585565b9161a8f06040519384613538565b80835261a8ff601f1991613585565b0136602084013761a912835151826166c4565b901561ac085761a92190615d74565b9085928451511561abff5761a93582615d74565b965b85515181101561aa8c5760008080805b86811061a9bf5750905061a9648161a95f8587615245565b614af0565b60068110156115125760031461a984575b5061a97f90615209565b61a937565b6000905b80821061a995575061a975565b909561a9b361a9b99161a9a8898d615245565b51612484828a615245565b96615209565b9061a988565b61a9d48161a9ce878d51615245565b5161afb9565b9390948083118061aa7a575b1561aa3957505091838561aa30575b60068110156115125760038e911461aa15575b505061aa0d90615209565b91909161a947565b9461aa28916124848261aa0d9598615245565b93908c61aa02565b6000955061a9ef565b809492959195148061aa68575b1561aa025760068110156115125760038e911461aa1557505061aa0d90615209565b5060068110156115125780151561aa46565b5060068610156115125785151561a9e0565b5093505090929350600093845b835186101561aba65761aab461aaaf8786615245565b615528565b9060068083101561151257600292830361aada57505061aad49095615209565b9461aa99565b61aae761aaaf8988615245565b92818410156115125760018094148061ab94575b1561ab0d5750505061aad49095615209565b61ab1f61aaaf8a899b9694959b615245565b9280841015611512576004809414928361ab7f575b508261ab56575b505061ab4c575b5061aad490615209565b955061aad461ab42565b90915088101561ab6a57871415388061ab3b565b602182634e487b7160e01b6000525260246000fd5b908093508a101561a7a857891415913861ab34565b5081831015611512578083141561aafb565b9250929093506006821015611512576003820361abf7575b61abc781615d74565b9360005b82811061abd9575050509190565b8061abe761abf29284615245565b516124848289615245565b61abcb565b50600061abbe565b50909392505050565b60405162461bcd60e51b815260206004820152602a60248201527f546865206c656e677468206f6620766f74696e672072756c65206c697374206960448201526973206f766572666c6f7760b01b6064820152608490fd5b906201388354602060009301908151519061ac7a82613585565b9161ac886040519384613538565b80835261ac97601f1991613585565b0136602084013761acaa835151826166c4565b901561ac085761acb990615d74565b9085928451511561abff5761accd82615d74565b965b85515181101561ae0e5760008080805b86811061ad415750905061acf78161a95f8587615245565b60068110156115125760031461ad17575b5061ad1290615209565b61accf565b6000905b80821061ad28575061ad08565b909561a9b361ad3b9161a9a8898d615245565b9061ad1b565b61ad568161ad50878d51615245565b5161b046565b9390948083118061adfc575b1561adbb57505091838561adb2575b60068110156115125760038e911461ad97575b505061ad8f90615209565b91909161acdf565b9461adaa916124848261ad8f9598615245565b93908c61ad84565b6000955061ad71565b809492959195148061adea575b1561ad845760068110156115125760038e911461ad9757505061ad8f90615209565b5060068110156115125780151561adc8565b5060068610156115125785151561ad62565b5093505090929350600093845b835186101561af0e5761ae3161aaaf8786615245565b9060068083101561151257600292830361ae5757505061ae519095615209565b9461ae1b565b61ae6461aaaf8988615245565b92818410156115125760038094148061aefc575b1561ae8a5750505061ae519095615209565b61ae9c61aaaf8a899b9694959b615245565b9280841015611512576005809414928361aee7575b508261aed3575b505061aec9575b5061ae5190615209565b955061ae5161aebf565b90915088101561151257871415388061aeb8565b908093508a101561151257891415913861aeb1565b5081831015611512578083141561ae78565b9250929093506006821015611512576003820361af54575b61af2f81615d74565b9360005b82811061af41575050509190565b8061abe761af4f9284615245565b61af33565b50600061af26565b1561af6357565b60405162461bcd60e51b815260206004820152602860248201527f506c7567696e466163746f72793a20706c7567696e20696e646578206f7574206044820152676f662072616e676560c01b6064820152608490fd5b909160008093819361afd06201388254831061af5c565b60ff600561afdd84615dc6565b50015460081c161561b03a57828261aff692600161b1b9565b61b001575b50929190565b809450600192935061b0139150615dc6565b50015490600361b03060ff61b02786615dc6565b50541694615dc6565b500154913861affb565b50509150915080918190565b909160008093819361b05d6201388354831061af5c565b60ff600561b06a84615da6565b50015460081c161561b03a57828261b082928261b1b9565b61b08c5750929190565b809450600192935061b09e9150615da6565b50015490600361b03060ff61b0b286615da6565b50541694615da6565b1561b0c257565b60405162461bcd60e51b815260206004820152603160248201527f436865636b696e6720636f6e646974696f6e206578703a20706c7567696e20696044820152706e646578206f7574206f662072616e676560781b6064820152608490fd5b1561b12857565b60405162461bcd60e51b815260206004820152602f60248201527f436865636b696e6720636f6e646974696f6e206578703a206e6f646520696e6460448201526e6578206f7574206f662072616e676560881b6064820152608490fd5b8054821015611590576000526009602060002091020190600090565b80548210156115905760005260206000200190600090565b90929190801561b4b65761b1d26201388254831061b0bb565b61b1ea600261b1e084615dc6565b500154841061b121565b801561b49d5761b214600161b20b85600261b20487615dc6565b500161b185565b50015460ff1690565b61b21d8161452b565b8061b22c575050505050600090565b61b2358161452b565b6003810361b247575050505050600190565b61b2508161452b565b6004810361b262575050505050600090565b61b26b8161452b565b60019080820361b281575050926161299361b4d8565b90929361b28d8261452b565b600280921461b2a2575b505050505050600090565b821561b4855761b2c68461b2ba838561b2048a615dc6565b50015460081c60ff1690565b925b60009586865b61b425575b5061b2dd87615d74565b9760005b88811061b3d557505050505061b2f6826144d7565b81830361b34a57505091906000915b81831061b3125750505090565b9091928061b32c575b61b3259093615209565b919061b305565b5061b32561b34361b33d8584615245565b51151590565b905061b31b565b90915061b356826144d7565b810361b3a457509060009182915b81831061b3715750505090565b909192801561b38c575b61b3859093615209565b919061b364565b5061b38561b39d61b33d8584615245565b905061b37b565b6003915061b3b1816144d7565b1461b3c2575038808080808061b297565b61b3d161b33d61612992615218565b1590565b808a61b40961b40161b3f7848b61b3f08c8261b2048d615da6565b500161b1a1565b90549060031b1c90565b86868961b1b9565b61b41961b420946122bc93615245565b9015159052565b61b2e1565b8461b434858261b20486615da6565b50015481101561b4805761b45461b3f7828761b3f0888261b20489615da6565b61b469575b61b4638791615209565b9061b2ce565b9661b46361b4778892615209565b9891505061b459565b61b2d3565b61b4978461b2ba838561b2048a615da6565b9261b2c8565b61b4b1600161b20b85600261b20487615da6565b61b214565b61b4c56201388354831061b0bb565b61b4d3600261b1e084615da6565b61b1ea565b9160039061b51f92948460001461b5765760ff600161b4fc83600261b20487615dc6565b50015460101c16945b1561b56857600261b20461b51893615dc6565b5001614bb2565b906033811015611512576001810361b558575061b53e60209151615218565b5191015160228110156115125761b5549061c327565b1490565b905060029150146166f257600090565b600261b20461b51893615da6565b60ff600161b58983600261b20487615da6565b50015460101c169461b505565b62013881805490600160401b8210156114fc5760018201808255821015611590576000908152602090200180546001600160a01b0319166001600160a01b03909216919091179055565b61b5e98161452b565b61b5f461921661c2c2565b61b5fd8161452b565b6001810361b618575061b61161923c61c2c2565b6201388855565b61b6218161452b565b6002810361b63157506201388955565b61b63a8161452b565b6003810361b64a57506201388a55565b8061b65660049261452b565b1461b65e5750565b6201388b55565b1561b66c57565b60405162461bcd60e51b815260206004820152604d60248201527f546865206c656e677468206f662074686520706c7567696e20696e646578657360448201527f20617272617920616e642074686520626f6f6c65616e206172726179206d757360648201526c74206265207468652073616d6560981b608482015260a490fd5b1561b6f457565b60405162461bcd60e51b815260206004820152602260248201527f496e76616c696420706c7567696e20696e64657820746f20626520656e61626c604482015261195960f21b6064820152608490fd5b1561b74b57565b60405162461bcd60e51b815260206004820152602b60248201527f54686520706c7567696e20746f20626520656e61626c6564206973206e6f742060448201526a1a5b9a5d1a585b1a5e995960aa1b6064820152608490fd5b1561b7ab57565b60405162461bcd60e51b815260206004820152602b60248201527f54686520706c7567696e20746f20626520656e61626c656420697320616c726560448201526a18591e48195b98589b195960aa1b6064820152608490fd5b1561b80b57565b60405162461bcd60e51b815260206004820152602360248201527f496e76616c696420706c7567696e20696e64657820746f2062652064697361626044820152621b195960ea1b6064820152608490fd5b1561b86357565b60405162461bcd60e51b815260206004820152602c60248201527f54686520706c7567696e20746f2062652064697361626c6564206973206e6f7460448201526b081a5b9a5d1a585b1a5e995960a21b6064820152608490fd5b1561b8c457565b60405162461bcd60e51b815260206004820152602d60248201527f54686520706c7567696e20746f2062652064697361626c656420697320616c7260448201526c1958591e48191a5cd8589b1959609a1b6064820152608490fd5b1561b92657565b60405162461bcd60e51b815260206004820152603060248201527f546865206c656e677468206f662074617267657420616e6420746f6b656e436c60448201526f185cdcc81a5cc81b9bdd08195c5d585b60821b6064820152608490fd5b1561b98b57565b60405162461bcd60e51b815260206004820152602c60248201527f546865206c656e677468206f662074617267657420616e6420616d6f756e742060448201526b1a5cc81b9bdd08195c5d585b60a21b6064820152608490fd5b1561b9ec57565b60405162461bcd60e51b815260206004820152602260248201527f54686520746f6b656e20636c617373206973206e6f7420696e697469616c697a604482015261195960f21b6064820152608490fd5b1561ba4357565b60405162461bcd60e51b815260206004820152602960248201527f54686520746f74616c20737570706c79206f662074686520746f6b656e206973604482015268206f766572666c6f7760b81b6064820152608490fd5b1561baa157565b60405162461bcd60e51b8152602060048201526024808201527f5468652062616c616e6365206f662074686520746f6b656e206973206f766572604482015263666c6f7760e01b6064820152608490fd5b1561baf957565b606460405162461bcd60e51b815260206004820152602060248201527f54686520746f6b656e20697320616c726561647920696e697469616c697a65646044820152fd5b9060408083019161bb5361010084510151615218565b519261bb7160e061bb678184510151615218565b5192510151615225565b519161bb83855183511461344d61c1ce565b61bb93855184511461344d61c1ce565b60005b855181101561bbe85761bba98184615245565b5190612710821015611590576201389161bbe39260018060a01b038a511660005260031b016020526122bc8660002054616ec48388615245565b61bb96565b50939291909160005b845181101561bcf55761bc048185615245565b5190612710808310156115905760018060a01b0390818a51166000526201389160039481602091871b01815261bc428760002054616f4c878b615245565b9061bc4d878c615245565b51918583101561159057848f938861bc769551166000528a1b018452896000205561344d61c295565b61bc80858a615245565b51838110156115905782908561bc96888e615245565b5116600052871b01815261bcb28760002054615f87878b615245565b92909361bcbf878c615245565b51908110156115905761bcf0976122bc9661bcda898f615245565b51166000521b019052856000205561344d61c2f6565b61bbf1565b50505050509050565b9060408083019161bd1461010084510151615218565b519261bd2860e061bb678184510151615218565b519161bd3a855183511461344d61c1ce565b61bd4a855184511461344d61c1ce565b60005b855181101561bd9d5761bd608184615245565b51906127108210156115905761bd989160018060a01b03895116600052600390811b016020526122bc8660002054616ec48388615245565b61bd4d565b50939291909160005b845181101561bcf55761bdb98185615245565b519061271091828110156115905760018060a01b0390818a511660005260039081602091811b01815261bdf48660002054616f4c868a615245565b9061bdff868b615245565b519187831015611590578461be28938f88905116600052811b018452886000205561344d61c295565b61be328489615245565b51858110156115905782908461be48878d615245565b5116600052811b01815261be648660002054615f87868a615245565b91909261be71868b615245565b51968710156115905761bea3966122bc9561be8c888e615245565b5116600052811b019052856000205561344d61c2f6565b61bda6565b908061beb2575050565b6148d591600052601f6020600020910160051c81019061527c565b90600160401b81116114fc57815481835580821061beea57505050565b6148d592600052601f6020600020918180850160051c840194168061bf16575b500160051c019061527c565b600019908186019182549160200360031b1c1690553861bf0a565b9060031b60ff811b9283911b169119161790565b620138848054821015611590576000526007602060002091020190600090565b60009261bf7b61bf75859461bf45565b50614a7c565b9380935b85515185101561c05e57506127108410156115905760039380851b9460018060a01b0385166000526020908601815261bfc460409660018860002054910154906166c4565b9384911561c029579061bfd691616564565b96901561bfef57505061bfe890615209565b939061bf7f565b60649250519062461bcd60e51b825260048201526014602482015273746f74616c20706f776572206f766572666c6f7760601b6044820152fd5b875162461bcd60e51b815260048101849052600e60248201526d706f776572206f766572666c6f7760901b6044820152606490fd5b93505092505090565b1561c06e57565b60405162461bcd60e51b815260206004820152601360248201527263757272656e74596573206f766572666c6f7760681b6044820152606490fd5b600161c0b48261bf45565b5001549062027123549060009282845262027120918260205261c0dd816003604088200161b1a1565b90549060031b1c928486528060205261c0fc826004604089200161b1a1565b90549060031b1c94865260205260ff600661c12d61c12084600560408b200161b1a1565b90549060031b1c9361bf45565b5001541661c18b575061c14a9261c1438361669a565b949061c067565b820180921161c1775761c168929161c161916166c4565b929061c067565b111561c1715790565b50600190565b634e487b7160e01b84526011600452602484fd5b61c168935061c1619161c14361c1a09461669a565b6166c4565b60405161c1b1816134e7565b600d81526c2ab735b737bbb71022b93937b960991b602082015290565b60405161c1da816134e7565b6012815271496e76616c696420506172616d657465727360701b602082015290565b60405161c208816134e7565b601581527413595b58995c88191bd95cc81b9bdd08195e1a5cdd605a1b602082015290565b60405161c239816134e7565b601b81527a13595b58995c881a5cc8185b1c9958591e481cdd5cdc195b991959602a1b602082015290565b60405161c270816134e7565b60158152744d656d62657220616c72656164792065786973747360581b602082015290565b60405161c2a1816134e7565b60118152704e6f20656e6f7567682062616c616e636560781b602082015290565b60405161c2ce816134e7565b6018815277125b9d985b1a59081c185c985b595d195c881d1bc81cd95d60421b602082015290565b60405161c302816134e7565b6015815274546f6b656e20616d6f756e74206f766572666c6f7760581b602082015290565b602281101561151257801561c4f3576001811461c171576002811461c4ed576003811461c4e7576004811461c4e1576005811461c4db576006811461c4d5576007811461c4cf576008811461c4c9576009811461c4c357600a811461c4bd57600b811461c4b757600c811461c4b157600d811461c4ab57600e811461c4a557600f811461c49f576010811461c499576011811461c493576012811461c48d576013811461c487576014811461c481576015811461c47b576018811461c475576017811461c46f576019811461c46957601a811461c46357601b811461c45d57601c811461c45757601d811461c45157601e811461c44b57601f811461c445576020811461c43f5760211461c43a57600090565b602190565b50602090565b50601f90565b50601e90565b50601d90565b50601c90565b50601b90565b50601a90565b50601990565b50601790565b50601690565b50601590565b50601490565b50601390565b50601290565b50601190565b50601090565b50600f90565b50600e90565b50600d90565b50600c90565b50600b90565b50600a90565b50600990565b50600890565b50600790565b50600690565b50600590565b50600490565b50600390565b50600290565b50600090565b908151811015611590570160200190565b6040519061c5178261351d565b60288252604036602084013760005b6014811061c53357505090565b601390808203918211611c2757600382901b916001600160fd1b03811603611c275760ff808311611c275760019261c5779084901b6001600160a01b03861661667a565b60f0811682821603918211611c275761c5989060f41b600f60f81b1661c5f6565b82841b916001600160ff1b0384168403611c275761c5d09160001a61c5bd848961c4f9565b5360f81b6001600160f81b03191661c5f6565b928101809111611c275761c5eb61c5f19360001a918661c4f9565b53615209565b61c526565b60f81c600a81101561c61d5760300160ff8111611c275760f81b6001600160f81b03191690565b60570160ff8111611c275760f81b6001600160f81b0319169056fe546865206c656e677468206f662061646472657373657320616e6420746f6b65546865206c656e677468206f6620746f6b656e436c61737320616e6420746f6b546865206c656e677468206f6620746f6b656e496e666f20616e6420746f6b65546865206265666f7265206f7065726174696f6e20706c7567696e2073797374546865206c656e677468206f662061646472657373657320616e6420616d6f75a26469706673582212202d8e7bcc060a98b964b9bf583e05b38d0c3203ed4499b93f329cd6045b0d62fc64736f6c63430008110033",
  "linkReferences": {},
  "deployedLinkReferences": {}
}