{
  "_format": "hh-sol-artifact-1",
  "contractName": "DARC",
  "sourceName": "contracts/protocol/DARC.sol",
  "abi": [
    {
      "inputs": [
        {
          "internalType": "string",
          "name": "haystack",
          "type": "string"
        },
        {
          "internalType": "string",
          "name": "needle",
          "type": "string"
        }
      ],
      "name": "contains",
      "outputs": [
        {
          "internalType": "bool",
          "name": "",
          "type": "bool"
        }
      ],
      "stateMutability": "pure",
      "type": "function"
    },
    {
      "inputs": [],
      "name": "currentMachineState",
      "outputs": [
        {
          "components": [
            {
              "internalType": "uint256[100]",
              "name": "latestOperationTimestamp",
              "type": "uint256[100]"
            }
          ],
          "internalType": "struct OperationLog",
          "name": "globalOperationLog",
          "type": "tuple"
        },
        {
          "components": [
            {
              "internalType": "uint256",
              "name": "dividendPermyriadPerTransaction",
              "type": "uint256"
            },
            {
              "internalType": "uint256",
              "name": "dividendCycleOfTransactions",
              "type": "uint256"
            },
            {
              "internalType": "uint256",
              "name": "currentCashBalanceForDividends",
              "type": "uint256"
            },
            {
              "internalType": "uint256",
              "name": "dividendCycleCounter",
              "type": "uint256"
            },
            {
              "internalType": "address[]",
              "name": "emergencyAgentsAddressList",
              "type": "address[]"
            },
            {
              "internalType": "string[]",
              "name": "strStorageList",
              "type": "string[]"
            },
            {
              "internalType": "address[]",
              "name": "activeEmergencyAgentsAddressList",
              "type": "address[]"
            },
            {
              "internalType": "bool",
              "name": "bIsEmergency",
              "type": "bool"
            }
          ],
          "internalType": "struct MachineStateParameters",
          "name": "machineStateParameters",
          "type": "tuple"
        },
        {
          "internalType": "uint256",
          "name": "currentBalance",
          "type": "uint256"
        }
      ],
      "stateMutability": "view",
      "type": "function"
    },
    {
      "inputs": [
        {
          "components": [
            {
              "internalType": "address",
              "name": "programOperatorAddress",
              "type": "address"
            },
            {
              "components": [
                {
                  "internalType": "address",
                  "name": "operatorAddress",
                  "type": "address"
                },
                {
                  "internalType": "enum EnumOpcode",
                  "name": "opcode",
                  "type": "uint8"
                },
                {
                  "components": [
                    {
                      "internalType": "string[]",
                      "name": "STRING_ARRAY",
                      "type": "string[]"
                    },
                    {
                      "internalType": "bool[]",
                      "name": "BOOL_ARRAY",
                      "type": "bool[]"
                    },
                    {
                      "components": [
                        {
                          "internalType": "uint256[]",
                          "name": "votingTokenClassList",
                          "type": "uint256[]"
                        },
                        {
                          "internalType": "uint256",
                          "name": "approvalThresholdPercentage",
                          "type": "uint256"
                        },
                        {
                          "internalType": "uint256",
                          "name": "votingDurationInSeconds",
                          "type": "uint256"
                        },
                        {
                          "internalType": "uint256",
                          "name": "executionPendingDurationInSeconds",
                          "type": "uint256"
                        },
                        {
                          "internalType": "bool",
                          "name": "bIsEnabled",
                          "type": "bool"
                        },
                        {
                          "internalType": "string",
                          "name": "notes",
                          "type": "string"
                        },
                        {
                          "internalType": "bool",
                          "name": "bIsAbsoluteMajority",
                          "type": "bool"
                        }
                      ],
                      "internalType": "struct VotingRule[]",
                      "name": "VOTING_RULE_ARRAY",
                      "type": "tuple[]"
                    },
                    {
                      "components": [
                        {
                          "internalType": "enum EnumReturnType",
                          "name": "returnType",
                          "type": "uint8"
                        },
                        {
                          "internalType": "uint256",
                          "name": "level",
                          "type": "uint256"
                        },
                        {
                          "components": [
                            {
                              "internalType": "uint256",
                              "name": "id",
                              "type": "uint256"
                            },
                            {
                              "internalType": "enum EnumConditionNodeType",
                              "name": "nodeType",
                              "type": "uint8"
                            },
                            {
                              "internalType": "enum EnumLogicalOperatorType",
                              "name": "logicalOperator",
                              "type": "uint8"
                            },
                            {
                              "internalType": "uint256",
                              "name": "conditionExpression",
                              "type": "uint256"
                            },
                            {
                              "internalType": "uint256[]",
                              "name": "childList",
                              "type": "uint256[]"
                            },
                            {
                              "components": [
                                {
                                  "internalType": "string[]",
                                  "name": "STRING_ARRAY",
                                  "type": "string[]"
                                },
                                {
                                  "internalType": "uint256[][]",
                                  "name": "UINT256_2DARRAY",
                                  "type": "uint256[][]"
                                },
                                {
                                  "internalType": "address[][]",
                                  "name": "ADDRESS_2DARRAY",
                                  "type": "address[][]"
                                },
                                {
                                  "internalType": "bytes",
                                  "name": "BYTES",
                                  "type": "bytes"
                                }
                              ],
                              "internalType": "struct NodeParam",
                              "name": "param",
                              "type": "tuple"
                            }
                          ],
                          "internalType": "struct ConditionNode[]",
                          "name": "conditionNodes",
                          "type": "tuple[]"
                        },
                        {
                          "internalType": "uint256",
                          "name": "votingRuleIndex",
                          "type": "uint256"
                        },
                        {
                          "internalType": "string",
                          "name": "notes",
                          "type": "string"
                        },
                        {
                          "internalType": "bool",
                          "name": "bIsEnabled",
                          "type": "bool"
                        },
                        {
                          "internalType": "bool",
                          "name": "bIsBeforeOperation",
                          "type": "bool"
                        }
                      ],
                      "internalType": "struct Plugin[]",
                      "name": "PLUGIN_ARRAY",
                      "type": "tuple[]"
                    },
                    {
                      "internalType": "enum MachineParameter[]",
                      "name": "PARAMETER_ARRAY",
                      "type": "uint8[]"
                    },
                    {
                      "internalType": "uint256[][]",
                      "name": "UINT256_2DARRAY",
                      "type": "uint256[][]"
                    },
                    {
                      "internalType": "address[][]",
                      "name": "ADDRESS_2DARRAY",
                      "type": "address[][]"
                    },
                    {
                      "internalType": "bytes",
                      "name": "BYTES",
                      "type": "bytes"
                    }
                  ],
                  "internalType": "struct Param",
                  "name": "param",
                  "type": "tuple"
                }
              ],
              "internalType": "struct Operation[]",
              "name": "operations",
              "type": "tuple[]"
            },
            {
              "internalType": "string",
              "name": "notes",
              "type": "string"
            }
          ],
          "internalType": "struct Program",
          "name": "program",
          "type": "tuple"
        }
      ],
      "name": "entrance",
      "outputs": [
        {
          "internalType": "string",
          "name": "",
          "type": "string"
        }
      ],
      "stateMutability": "payable",
      "type": "function"
    },
    {
      "inputs": [],
      "name": "executingPendingDeadline",
      "outputs": [
        {
          "internalType": "uint256",
          "name": "",
          "type": "uint256"
        }
      ],
      "stateMutability": "view",
      "type": "function"
    },
    {
      "inputs": [],
      "name": "finiteState",
      "outputs": [
        {
          "internalType": "enum FiniteState",
          "name": "",
          "type": "uint8"
        }
      ],
      "stateMutability": "view",
      "type": "function"
    },
    {
      "inputs": [],
      "name": "getCurrentDividendPerUnit",
      "outputs": [
        {
          "internalType": "uint256",
          "name": "",
          "type": "uint256"
        }
      ],
      "stateMutability": "view",
      "type": "function"
    },
    {
      "inputs": [],
      "name": "getDARClogs",
      "outputs": [
        {
          "internalType": "string[]",
          "name": "",
          "type": "string[]"
        }
      ],
      "stateMutability": "view",
      "type": "function"
    },
    {
      "inputs": [
        {
          "internalType": "uint256",
          "name": "timestamp",
          "type": "uint256"
        }
      ],
      "name": "getDateTime",
      "outputs": [
        {
          "internalType": "uint256",
          "name": "year",
          "type": "uint256"
        },
        {
          "internalType": "uint256",
          "name": "month",
          "type": "uint256"
        },
        {
          "internalType": "uint256",
          "name": "day",
          "type": "uint256"
        },
        {
          "internalType": "uint256",
          "name": "hour",
          "type": "uint256"
        },
        {
          "internalType": "uint256",
          "name": "minute",
          "type": "uint256"
        },
        {
          "internalType": "uint256",
          "name": "second",
          "type": "uint256"
        }
      ],
      "stateMutability": "pure",
      "type": "function"
    },
    {
      "inputs": [],
      "name": "getGlobalOperationLog",
      "outputs": [
        {
          "components": [
            {
              "internalType": "uint256[100]",
              "name": "latestOperationTimestamp",
              "type": "uint256[100]"
            }
          ],
          "internalType": "struct OperationLog",
          "name": "",
          "type": "tuple"
        }
      ],
      "stateMutability": "view",
      "type": "function"
    },
    {
      "inputs": [],
      "name": "getLatestVotingItemIndex",
      "outputs": [
        {
          "internalType": "uint256",
          "name": "",
          "type": "uint256"
        }
      ],
      "stateMutability": "view",
      "type": "function"
    },
    {
      "inputs": [
        {
          "internalType": "address",
          "name": "member",
          "type": "address"
        }
      ],
      "name": "getMemberInfo",
      "outputs": [
        {
          "components": [
            {
              "internalType": "bool",
              "name": "bIsInitialized",
              "type": "bool"
            },
            {
              "internalType": "bool",
              "name": "bIsSuspended",
              "type": "bool"
            },
            {
              "internalType": "string",
              "name": "name",
              "type": "string"
            },
            {
              "internalType": "uint256",
              "name": "role",
              "type": "uint256"
            }
          ],
          "internalType": "struct MemberInfo",
          "name": "",
          "type": "tuple"
        }
      ],
      "stateMutability": "view",
      "type": "function"
    },
    {
      "inputs": [],
      "name": "getMemberList",
      "outputs": [
        {
          "internalType": "address[]",
          "name": "",
          "type": "address[]"
        }
      ],
      "stateMutability": "view",
      "type": "function"
    },
    {
      "inputs": [],
      "name": "getMyInfo",
      "outputs": [
        {
          "internalType": "address",
          "name": "",
          "type": "address"
        }
      ],
      "stateMutability": "view",
      "type": "function"
    },
    {
      "inputs": [],
      "name": "getNumberOfTokenClasses",
      "outputs": [
        {
          "internalType": "uint256",
          "name": "",
          "type": "uint256"
        }
      ],
      "stateMutability": "view",
      "type": "function"
    },
    {
      "inputs": [
        {
          "internalType": "address",
          "name": "addr",
          "type": "address"
        }
      ],
      "name": "getOperationLogByAddress",
      "outputs": [
        {
          "components": [
            {
              "internalType": "uint256[100]",
              "name": "latestOperationTimestamp",
              "type": "uint256[100]"
            }
          ],
          "internalType": "struct OperationLog",
          "name": "",
          "type": "tuple"
        }
      ],
      "stateMutability": "view",
      "type": "function"
    },
    {
      "inputs": [],
      "name": "getPluginInfo",
      "outputs": [
        {
          "components": [
            {
              "internalType": "enum EnumReturnType",
              "name": "returnType",
              "type": "uint8"
            },
            {
              "internalType": "uint256",
              "name": "level",
              "type": "uint256"
            },
            {
              "components": [
                {
                  "internalType": "uint256",
                  "name": "id",
                  "type": "uint256"
                },
                {
                  "internalType": "enum EnumConditionNodeType",
                  "name": "nodeType",
                  "type": "uint8"
                },
                {
                  "internalType": "enum EnumLogicalOperatorType",
                  "name": "logicalOperator",
                  "type": "uint8"
                },
                {
                  "internalType": "uint256",
                  "name": "conditionExpression",
                  "type": "uint256"
                },
                {
                  "internalType": "uint256[]",
                  "name": "childList",
                  "type": "uint256[]"
                },
                {
                  "components": [
                    {
                      "internalType": "string[]",
                      "name": "STRING_ARRAY",
                      "type": "string[]"
                    },
                    {
                      "internalType": "uint256[][]",
                      "name": "UINT256_2DARRAY",
                      "type": "uint256[][]"
                    },
                    {
                      "internalType": "address[][]",
                      "name": "ADDRESS_2DARRAY",
                      "type": "address[][]"
                    },
                    {
                      "internalType": "bytes",
                      "name": "BYTES",
                      "type": "bytes"
                    }
                  ],
                  "internalType": "struct NodeParam",
                  "name": "param",
                  "type": "tuple"
                }
              ],
              "internalType": "struct ConditionNode[]",
              "name": "conditionNodes",
              "type": "tuple[]"
            },
            {
              "internalType": "uint256",
              "name": "votingRuleIndex",
              "type": "uint256"
            },
            {
              "internalType": "string",
              "name": "notes",
              "type": "string"
            },
            {
              "internalType": "bool",
              "name": "bIsEnabled",
              "type": "bool"
            },
            {
              "internalType": "bool",
              "name": "bIsBeforeOperation",
              "type": "bool"
            }
          ],
          "internalType": "struct Plugin[]",
          "name": "",
          "type": "tuple[]"
        },
        {
          "components": [
            {
              "internalType": "enum EnumReturnType",
              "name": "returnType",
              "type": "uint8"
            },
            {
              "internalType": "uint256",
              "name": "level",
              "type": "uint256"
            },
            {
              "components": [
                {
                  "internalType": "uint256",
                  "name": "id",
                  "type": "uint256"
                },
                {
                  "internalType": "enum EnumConditionNodeType",
                  "name": "nodeType",
                  "type": "uint8"
                },
                {
                  "internalType": "enum EnumLogicalOperatorType",
                  "name": "logicalOperator",
                  "type": "uint8"
                },
                {
                  "internalType": "uint256",
                  "name": "conditionExpression",
                  "type": "uint256"
                },
                {
                  "internalType": "uint256[]",
                  "name": "childList",
                  "type": "uint256[]"
                },
                {
                  "components": [
                    {
                      "internalType": "string[]",
                      "name": "STRING_ARRAY",
                      "type": "string[]"
                    },
                    {
                      "internalType": "uint256[][]",
                      "name": "UINT256_2DARRAY",
                      "type": "uint256[][]"
                    },
                    {
                      "internalType": "address[][]",
                      "name": "ADDRESS_2DARRAY",
                      "type": "address[][]"
                    },
                    {
                      "internalType": "bytes",
                      "name": "BYTES",
                      "type": "bytes"
                    }
                  ],
                  "internalType": "struct NodeParam",
                  "name": "param",
                  "type": "tuple"
                }
              ],
              "internalType": "struct ConditionNode[]",
              "name": "conditionNodes",
              "type": "tuple[]"
            },
            {
              "internalType": "uint256",
              "name": "votingRuleIndex",
              "type": "uint256"
            },
            {
              "internalType": "string",
              "name": "notes",
              "type": "string"
            },
            {
              "internalType": "bool",
              "name": "bIsEnabled",
              "type": "bool"
            },
            {
              "internalType": "bool",
              "name": "bIsBeforeOperation",
              "type": "bool"
            }
          ],
          "internalType": "struct Plugin[]",
          "name": "",
          "type": "tuple[]"
        }
      ],
      "stateMutability": "view",
      "type": "function"
    },
    {
      "inputs": [
        {
          "internalType": "uint256",
          "name": "tokenClassIndex",
          "type": "uint256"
        }
      ],
      "name": "getSumDividendWeightByTokenClass",
      "outputs": [
        {
          "internalType": "uint256",
          "name": "",
          "type": "uint256"
        }
      ],
      "stateMutability": "view",
      "type": "function"
    },
    {
      "inputs": [
        {
          "internalType": "uint256",
          "name": "tokenClassIndex",
          "type": "uint256"
        }
      ],
      "name": "getSumVotingWeightByTokenClass",
      "outputs": [
        {
          "internalType": "uint256",
          "name": "",
          "type": "uint256"
        }
      ],
      "stateMutability": "view",
      "type": "function"
    },
    {
      "inputs": [
        {
          "internalType": "uint256",
          "name": "tokenClassIndex",
          "type": "uint256"
        }
      ],
      "name": "getTokenInfo",
      "outputs": [
        {
          "internalType": "uint256",
          "name": "votingWeight",
          "type": "uint256"
        },
        {
          "internalType": "uint256",
          "name": "dividendWeight",
          "type": "uint256"
        },
        {
          "internalType": "string",
          "name": "tokenInfo",
          "type": "string"
        },
        {
          "internalType": "uint256",
          "name": "totalSupply",
          "type": "uint256"
        }
      ],
      "stateMutability": "view",
      "type": "function"
    },
    {
      "inputs": [
        {
          "internalType": "uint256",
          "name": "tokenClassIndex",
          "type": "uint256"
        },
        {
          "internalType": "address",
          "name": "tokenOwnerAddress",
          "type": "address"
        }
      ],
      "name": "getTokenOwnerBalance",
      "outputs": [
        {
          "internalType": "uint256",
          "name": "",
          "type": "uint256"
        }
      ],
      "stateMutability": "view",
      "type": "function"
    },
    {
      "inputs": [
        {
          "internalType": "uint256",
          "name": "tokenClassIndex",
          "type": "uint256"
        }
      ],
      "name": "getTokenOwners",
      "outputs": [
        {
          "internalType": "address[]",
          "name": "",
          "type": "address[]"
        }
      ],
      "stateMutability": "view",
      "type": "function"
    },
    {
      "inputs": [
        {
          "internalType": "uint256",
          "name": "idx",
          "type": "uint256"
        }
      ],
      "name": "getVotingItemsByIndex",
      "outputs": [
        {
          "components": [
            {
              "components": [
                {
                  "internalType": "address",
                  "name": "programOperatorAddress",
                  "type": "address"
                },
                {
                  "components": [
                    {
                      "internalType": "address",
                      "name": "operatorAddress",
                      "type": "address"
                    },
                    {
                      "internalType": "enum EnumOpcode",
                      "name": "opcode",
                      "type": "uint8"
                    },
                    {
                      "components": [
                        {
                          "internalType": "string[]",
                          "name": "STRING_ARRAY",
                          "type": "string[]"
                        },
                        {
                          "internalType": "bool[]",
                          "name": "BOOL_ARRAY",
                          "type": "bool[]"
                        },
                        {
                          "components": [
                            {
                              "internalType": "uint256[]",
                              "name": "votingTokenClassList",
                              "type": "uint256[]"
                            },
                            {
                              "internalType": "uint256",
                              "name": "approvalThresholdPercentage",
                              "type": "uint256"
                            },
                            {
                              "internalType": "uint256",
                              "name": "votingDurationInSeconds",
                              "type": "uint256"
                            },
                            {
                              "internalType": "uint256",
                              "name": "executionPendingDurationInSeconds",
                              "type": "uint256"
                            },
                            {
                              "internalType": "bool",
                              "name": "bIsEnabled",
                              "type": "bool"
                            },
                            {
                              "internalType": "string",
                              "name": "notes",
                              "type": "string"
                            },
                            {
                              "internalType": "bool",
                              "name": "bIsAbsoluteMajority",
                              "type": "bool"
                            }
                          ],
                          "internalType": "struct VotingRule[]",
                          "name": "VOTING_RULE_ARRAY",
                          "type": "tuple[]"
                        },
                        {
                          "components": [
                            {
                              "internalType": "enum EnumReturnType",
                              "name": "returnType",
                              "type": "uint8"
                            },
                            {
                              "internalType": "uint256",
                              "name": "level",
                              "type": "uint256"
                            },
                            {
                              "components": [
                                {
                                  "internalType": "uint256",
                                  "name": "id",
                                  "type": "uint256"
                                },
                                {
                                  "internalType": "enum EnumConditionNodeType",
                                  "name": "nodeType",
                                  "type": "uint8"
                                },
                                {
                                  "internalType": "enum EnumLogicalOperatorType",
                                  "name": "logicalOperator",
                                  "type": "uint8"
                                },
                                {
                                  "internalType": "uint256",
                                  "name": "conditionExpression",
                                  "type": "uint256"
                                },
                                {
                                  "internalType": "uint256[]",
                                  "name": "childList",
                                  "type": "uint256[]"
                                },
                                {
                                  "components": [
                                    {
                                      "internalType": "string[]",
                                      "name": "STRING_ARRAY",
                                      "type": "string[]"
                                    },
                                    {
                                      "internalType": "uint256[][]",
                                      "name": "UINT256_2DARRAY",
                                      "type": "uint256[][]"
                                    },
                                    {
                                      "internalType": "address[][]",
                                      "name": "ADDRESS_2DARRAY",
                                      "type": "address[][]"
                                    },
                                    {
                                      "internalType": "bytes",
                                      "name": "BYTES",
                                      "type": "bytes"
                                    }
                                  ],
                                  "internalType": "struct NodeParam",
                                  "name": "param",
                                  "type": "tuple"
                                }
                              ],
                              "internalType": "struct ConditionNode[]",
                              "name": "conditionNodes",
                              "type": "tuple[]"
                            },
                            {
                              "internalType": "uint256",
                              "name": "votingRuleIndex",
                              "type": "uint256"
                            },
                            {
                              "internalType": "string",
                              "name": "notes",
                              "type": "string"
                            },
                            {
                              "internalType": "bool",
                              "name": "bIsEnabled",
                              "type": "bool"
                            },
                            {
                              "internalType": "bool",
                              "name": "bIsBeforeOperation",
                              "type": "bool"
                            }
                          ],
                          "internalType": "struct Plugin[]",
                          "name": "PLUGIN_ARRAY",
                          "type": "tuple[]"
                        },
                        {
                          "internalType": "enum MachineParameter[]",
                          "name": "PARAMETER_ARRAY",
                          "type": "uint8[]"
                        },
                        {
                          "internalType": "uint256[][]",
                          "name": "UINT256_2DARRAY",
                          "type": "uint256[][]"
                        },
                        {
                          "internalType": "address[][]",
                          "name": "ADDRESS_2DARRAY",
                          "type": "address[][]"
                        },
                        {
                          "internalType": "bytes",
                          "name": "BYTES",
                          "type": "bytes"
                        }
                      ],
                      "internalType": "struct Param",
                      "name": "param",
                      "type": "tuple"
                    }
                  ],
                  "internalType": "struct Operation[]",
                  "name": "operations",
                  "type": "tuple[]"
                },
                {
                  "internalType": "string",
                  "name": "notes",
                  "type": "string"
                }
              ],
              "internalType": "struct Program",
              "name": "program",
              "type": "tuple"
            },
            {
              "internalType": "uint256[]",
              "name": "votingRuleIndices",
              "type": "uint256[]"
            },
            {
              "internalType": "uint256[]",
              "name": "powerYes",
              "type": "uint256[]"
            },
            {
              "internalType": "uint256[]",
              "name": "powerNo",
              "type": "uint256[]"
            },
            {
              "internalType": "uint256[]",
              "name": "totalPower",
              "type": "uint256[]"
            },
            {
              "internalType": "uint256",
              "name": "votingEndTime",
              "type": "uint256"
            },
            {
              "internalType": "uint256",
              "name": "executingEndTime",
              "type": "uint256"
            },
            {
              "internalType": "enum VotingStatus",
              "name": "votingStatus",
              "type": "uint8"
            },
            {
              "internalType": "bool",
              "name": "bIsProgramExecuted",
              "type": "bool"
            }
          ],
          "internalType": "struct VotingItem",
          "name": "",
          "type": "tuple"
        }
      ],
      "stateMutability": "view",
      "type": "function"
    },
    {
      "inputs": [
        {
          "internalType": "address",
          "name": "member",
          "type": "address"
        }
      ],
      "name": "getWithdrawableCashBalance",
      "outputs": [
        {
          "internalType": "uint256",
          "name": "",
          "type": "uint256"
        }
      ],
      "stateMutability": "view",
      "type": "function"
    },
    {
      "inputs": [],
      "name": "getWithdrawableCashOwnerList",
      "outputs": [
        {
          "internalType": "address[]",
          "name": "",
          "type": "address[]"
        }
      ],
      "stateMutability": "view",
      "type": "function"
    },
    {
      "inputs": [
        {
          "internalType": "address",
          "name": "member",
          "type": "address"
        }
      ],
      "name": "getWithdrawableDividendBalance",
      "outputs": [
        {
          "internalType": "uint256",
          "name": "",
          "type": "uint256"
        }
      ],
      "stateMutability": "view",
      "type": "function"
    },
    {
      "inputs": [],
      "name": "getWithdrawableDividendOwnerList",
      "outputs": [
        {
          "internalType": "address[]",
          "name": "",
          "type": "address[]"
        }
      ],
      "stateMutability": "view",
      "type": "function"
    },
    {
      "inputs": [],
      "name": "initialOwnerAddress",
      "outputs": [
        {
          "internalType": "address",
          "name": "",
          "type": "address"
        }
      ],
      "stateMutability": "view",
      "type": "function"
    },
    {
      "inputs": [],
      "name": "initialize",
      "outputs": [],
      "stateMutability": "nonpayable",
      "type": "function"
    },
    {
      "inputs": [],
      "name": "latestVotingItemIndex",
      "outputs": [
        {
          "internalType": "uint256",
          "name": "",
          "type": "uint256"
        }
      ],
      "stateMutability": "view",
      "type": "function"
    },
    {
      "inputs": [],
      "name": "sandboxMachineState",
      "outputs": [
        {
          "components": [
            {
              "internalType": "uint256[100]",
              "name": "latestOperationTimestamp",
              "type": "uint256[100]"
            }
          ],
          "internalType": "struct OperationLog",
          "name": "globalOperationLog",
          "type": "tuple"
        },
        {
          "components": [
            {
              "internalType": "uint256",
              "name": "dividendPermyriadPerTransaction",
              "type": "uint256"
            },
            {
              "internalType": "uint256",
              "name": "dividendCycleOfTransactions",
              "type": "uint256"
            },
            {
              "internalType": "uint256",
              "name": "currentCashBalanceForDividends",
              "type": "uint256"
            },
            {
              "internalType": "uint256",
              "name": "dividendCycleCounter",
              "type": "uint256"
            },
            {
              "internalType": "address[]",
              "name": "emergencyAgentsAddressList",
              "type": "address[]"
            },
            {
              "internalType": "string[]",
              "name": "strStorageList",
              "type": "string[]"
            },
            {
              "internalType": "address[]",
              "name": "activeEmergencyAgentsAddressList",
              "type": "address[]"
            },
            {
              "internalType": "bool",
              "name": "bIsEmergency",
              "type": "bool"
            }
          ],
          "internalType": "struct MachineStateParameters",
          "name": "machineStateParameters",
          "type": "tuple"
        },
        {
          "internalType": "uint256",
          "name": "currentBalance",
          "type": "uint256"
        }
      ],
      "stateMutability": "view",
      "type": "function"
    },
    {
      "inputs": [
        {
          "internalType": "address",
          "name": "",
          "type": "address"
        },
        {
          "internalType": "uint256",
          "name": "",
          "type": "uint256"
        }
      ],
      "name": "voted",
      "outputs": [
        {
          "internalType": "bool",
          "name": "",
          "type": "bool"
        }
      ],
      "stateMutability": "view",
      "type": "function"
    },
    {
      "inputs": [],
      "name": "votingDeadline",
      "outputs": [
        {
          "internalType": "uint256",
          "name": "",
          "type": "uint256"
        }
      ],
      "stateMutability": "view",
      "type": "function"
    },
    {
      "inputs": [
        {
          "internalType": "uint256",
          "name": "",
          "type": "uint256"
        }
      ],
      "name": "votingItems",
      "outputs": [
        {
          "components": [
            {
              "internalType": "address",
              "name": "programOperatorAddress",
              "type": "address"
            },
            {
              "components": [
                {
                  "internalType": "address",
                  "name": "operatorAddress",
                  "type": "address"
                },
                {
                  "internalType": "enum EnumOpcode",
                  "name": "opcode",
                  "type": "uint8"
                },
                {
                  "components": [
                    {
                      "internalType": "string[]",
                      "name": "STRING_ARRAY",
                      "type": "string[]"
                    },
                    {
                      "internalType": "bool[]",
                      "name": "BOOL_ARRAY",
                      "type": "bool[]"
                    },
                    {
                      "components": [
                        {
                          "internalType": "uint256[]",
                          "name": "votingTokenClassList",
                          "type": "uint256[]"
                        },
                        {
                          "internalType": "uint256",
                          "name": "approvalThresholdPercentage",
                          "type": "uint256"
                        },
                        {
                          "internalType": "uint256",
                          "name": "votingDurationInSeconds",
                          "type": "uint256"
                        },
                        {
                          "internalType": "uint256",
                          "name": "executionPendingDurationInSeconds",
                          "type": "uint256"
                        },
                        {
                          "internalType": "bool",
                          "name": "bIsEnabled",
                          "type": "bool"
                        },
                        {
                          "internalType": "string",
                          "name": "notes",
                          "type": "string"
                        },
                        {
                          "internalType": "bool",
                          "name": "bIsAbsoluteMajority",
                          "type": "bool"
                        }
                      ],
                      "internalType": "struct VotingRule[]",
                      "name": "VOTING_RULE_ARRAY",
                      "type": "tuple[]"
                    },
                    {
                      "components": [
                        {
                          "internalType": "enum EnumReturnType",
                          "name": "returnType",
                          "type": "uint8"
                        },
                        {
                          "internalType": "uint256",
                          "name": "level",
                          "type": "uint256"
                        },
                        {
                          "components": [
                            {
                              "internalType": "uint256",
                              "name": "id",
                              "type": "uint256"
                            },
                            {
                              "internalType": "enum EnumConditionNodeType",
                              "name": "nodeType",
                              "type": "uint8"
                            },
                            {
                              "internalType": "enum EnumLogicalOperatorType",
                              "name": "logicalOperator",
                              "type": "uint8"
                            },
                            {
                              "internalType": "uint256",
                              "name": "conditionExpression",
                              "type": "uint256"
                            },
                            {
                              "internalType": "uint256[]",
                              "name": "childList",
                              "type": "uint256[]"
                            },
                            {
                              "components": [
                                {
                                  "internalType": "string[]",
                                  "name": "STRING_ARRAY",
                                  "type": "string[]"
                                },
                                {
                                  "internalType": "uint256[][]",
                                  "name": "UINT256_2DARRAY",
                                  "type": "uint256[][]"
                                },
                                {
                                  "internalType": "address[][]",
                                  "name": "ADDRESS_2DARRAY",
                                  "type": "address[][]"
                                },
                                {
                                  "internalType": "bytes",
                                  "name": "BYTES",
                                  "type": "bytes"
                                }
                              ],
                              "internalType": "struct NodeParam",
                              "name": "param",
                              "type": "tuple"
                            }
                          ],
                          "internalType": "struct ConditionNode[]",
                          "name": "conditionNodes",
                          "type": "tuple[]"
                        },
                        {
                          "internalType": "uint256",
                          "name": "votingRuleIndex",
                          "type": "uint256"
                        },
                        {
                          "internalType": "string",
                          "name": "notes",
                          "type": "string"
                        },
                        {
                          "internalType": "bool",
                          "name": "bIsEnabled",
                          "type": "bool"
                        },
                        {
                          "internalType": "bool",
                          "name": "bIsBeforeOperation",
                          "type": "bool"
                        }
                      ],
                      "internalType": "struct Plugin[]",
                      "name": "PLUGIN_ARRAY",
                      "type": "tuple[]"
                    },
                    {
                      "internalType": "enum MachineParameter[]",
                      "name": "PARAMETER_ARRAY",
                      "type": "uint8[]"
                    },
                    {
                      "internalType": "uint256[][]",
                      "name": "UINT256_2DARRAY",
                      "type": "uint256[][]"
                    },
                    {
                      "internalType": "address[][]",
                      "name": "ADDRESS_2DARRAY",
                      "type": "address[][]"
                    },
                    {
                      "internalType": "bytes",
                      "name": "BYTES",
                      "type": "bytes"
                    }
                  ],
                  "internalType": "struct Param",
                  "name": "param",
                  "type": "tuple"
                }
              ],
              "internalType": "struct Operation[]",
              "name": "operations",
              "type": "tuple[]"
            },
            {
              "internalType": "string",
              "name": "notes",
              "type": "string"
            }
          ],
          "internalType": "struct Program",
          "name": "program",
          "type": "tuple"
        },
        {
          "internalType": "uint256",
          "name": "votingEndTime",
          "type": "uint256"
        },
        {
          "internalType": "uint256",
          "name": "executingEndTime",
          "type": "uint256"
        },
        {
          "internalType": "enum VotingStatus",
          "name": "votingStatus",
          "type": "uint8"
        },
        {
          "internalType": "bool",
          "name": "bIsProgramExecuted",
          "type": "bool"
        }
      ],
      "stateMutability": "view",
      "type": "function"
    },
    {
      "inputs": [
        {
          "internalType": "uint256",
          "name": "amount",
          "type": "uint256"
        }
      ],
      "name": "withdrawCash",
      "outputs": [],
      "stateMutability": "nonpayable",
      "type": "function"
    },
    {
      "inputs": [
        {
          "internalType": "uint256",
          "name": "amount",
          "type": "uint256"
        }
      ],
      "name": "withdrawDividends",
      "outputs": [],
      "stateMutability": "nonpayable",
      "type": "function"
    }
  ],
  "bytecode": "0x60808060405234620000195762033b4190816200001f8239f35b600080fdfe610bc08060405260043610156200001557600080fd5b600090813560e01c908163036ee850146200299d575080630fda3e1e146200290557806310ade3ea14620028d65780631797631d146200284f5780631c75255a14620027e957806323b65c7814620027625780632514a6b4146200253c5780632eeb063b146200236c5780633fb18aec146200230257806356424cf414620022235780635c00d98714620022005780635d0b184914620002055780635f1231ea14620021165780635f5d5f00146200208f578063681ece9d146200204a5780636c0d4fa41462001eb75780637daa10ce1462001e9a5780638129fc1c1462001ad757806383e4cccf146200186e578063864f9f7a146200183057806386ad77e214620014e25780638c7a63ae1462001451578063942d59fa146200126e5780639f36145f14620011e8578063a064c4f114620011bd578063acf80bc4146200117f578063aec266871462001095578063aefca42a1462001074578063c41f9482146200102c578063c591aa981462000fde578063cab847f714620002a4578063d5a172f21462000278578063d6a93c511462000226578063f179f23b14620002055763f8ce8bdc14620001c757600080fd5b346200020257806003193601126200020257620001e3620052e8565b50610c80620001f162002bb8565b620002006040518092620029ed565bf35b80fd5b503462000202578060031936011262000202576020613f7854604051908152f35b503462000202578060031936011262000202575b6103e8811062000250575b602090604051908152f35b60ff60078260031b0154161562000272576200026c9062004cdf565b6200023a565b62000245565b50346200020257806003193601126200020257613f70546040516001600160a01b039091168152602090f35b5060031960203682011262000ca5576001600160401b036004351162000ca557606090600435360301126200020257604051620002e18162002b06565b620002f1600435600401620029d8565b8152600435602401356101608190526001600160401b03811162000ca957600435013660238201121562000ca957600462000333910135806101805262002c61565b9062000343604051928362002b94565b610180518252602082016101c052610180516101605160043501906024369160051b8301011162000ca15760240160e052825b6101805160051b610160516004350190602460e0519183010181101562000ebd57356101e08190526001600160401b03811162000ca95760609101360360231901126200020257620003cf604051806101205262002b06565b620003e960246101e05161016051600435010101620029d8565b610120515260446101e0516101605160043501010135602681101562000ca55760206101205101526101e0516101605160043501016064810135806101005260018060401b03811162000ca957610100910136036023190112620002025762000459604051806101405262002b22565b610100516101e051610160516004350101016001600160401b0360248201351162000ca55762000493906024369181810135010162004925565b6101405152610100516101e05161016051600435010101916001600160401b0360448401351162000ca5573660436044850135850101121562000ca557620004e5602460448501358501013562002c61565b90620004f5604051928362002b94565b6024604485013585010135825260208201906044850135610100516101e05161016051600435010101013660446024818901358901013560051b8301011162000db457604401915b60446024818801358801013560051b81880135610100516101e051610160516004350101010101018310156200058857602080916200057c85620049b0565b8152019201916200053d565b50610140516020019290925250610100516101e051610160519395600435909401010192506001600160401b0360648401351162000ca1573660436064850135850101121562000ca157602460648401358401013590620005e98262002c61565b90620005f9604051928362002b94565b828252602082016064860135610100516101e05161016051600435010101013660448660051b8301011162000bb157604401905b6064870135610100516101e051610160516004350101010160448660051b8201018310156200074f576001600160401b038335116200074b5760e083358201360360431901126200074b5760405191620006878362002acd565b6001600160401b038435830160440135116200074757620006b436604486358501818101350101620049be565b835283358201606481013560208501526084810135604085015260a48101356060850152620006e69060c401620049b0565b60808401526001600160401b038435830160e40135116200074757602092839262000736906101049062000727368935830160e48101350160440162002f77565b60a085015287350101620049b0565b60c08201528152019101906200062d565b8980fd5b8880fd5b50505092935090506040610140510152610100516101e05161016051600435010101608481013560c05260018060401b0360848201351162000ca1573660436084830135830101121562000ca157608481013501602401356080819052620007ca90620007bc9062002c61565b604051806101a05262002b94565b6101a051608051905260206101a051019160805160051b60c051610100516101e051610160516004350101010190604436918301011162000db45760440160a052929091905b60805160051b60c051610100516101e0516101605160043501010101604460a0519282010182101562000cad576001600160401b0382351162000ca95760e082359091013603604319011262000ca557604051926200086f8462002acd565b6044823560c051610100516101e0516101605160043501010101010135600681101562000ca15784526064823560c051610100516101e05161016051600435010101010101356020850152813560c051610100516101e0516101605160043501010101019360018060401b0360848601351162000ca1573660636084870135870101121562000ca1576200090d604460848701358701013562002c61565b956200091d604051978862002b94565b6044608487013587010135875260208701906084870135853560c051610100516101e05161016051600435010101010101366064604460848b01358b01013560051b8301011162000c9d57606401915b60c051610100516101e051610160516004350101010186350160848901359081019089016044013560051b810160640184101562000bb5576001600160401b0384351162000bb15760c0843582013603606319011262000bb15760405190620009d68262002ab1565b8435810160648101358352600560849091013510156200074b578435810160848101356020840152600460a49091013510156200074b578435810160a4810135604084015260c481013560608401526001600160401b0360e490910135116200074b5762000a51368635830160e481013501606401620049be565b60808301526001600160401b03853582016101040135116200074b5760808535820161010481013501360360631901126200074b576040519062000a958262002a7f565b6001600160401b0386358201610104810135016064013511620007475762000ad136606461010489358501908101350181810135010162004925565b82526001600160401b0386358201610104810135016084013511620007475762000b0f36873583016101048101350160848101350160640162004a24565b60208301526001600160401b03863582016101048101350160a4013511620007475762000b5036873583016101048101350160a48101350160640162004aaf565b60408301526001600160401b03863582016101048101350160c4013511620007475760209384939092909162000b9b9036908935016101048101350160c48101350160640162002f77565b606082015260a08201528152019201916200096d565b8780fd5b50509550509091929594604082015260a4833560c051610100516101e05161016051600435010101010101356060820152823560c051610100516101e0516101605160043501010101019260018060401b0360c48501351162000c9d5761010462000c819162000c326020966044369160c4810135010162002f77565b608085015262000c5d60e4823560c051610100516101e05161016051600435010101010101620049b0565b60a08501523560c051610100516101e05161016051600435010101010101620049b0565b60c082015281520191602060a0510160a0529291909162000810565b8680fd5b8380fd5b5080fd5b8280fd5b50506101a0516101405160600152610100516101e0516101605194956004359095010101929091506001600160401b0360a48401351162000ca55736604360a4850135850101121562000ca55762000d0f602460a48501358501013562002c61565b9062000d1f604051928362002b94565b602460a4850135850101358252602082019060a4850135610100516101e0516101605160043501010101366044602460a48901358901013560051b8301011162000db457604401915b610100516101e0516101605160043501010160a48701359081019087016024013560051b0160440183101562000db85760058335101562000db457823581526020928301920162000d68565b8480fd5b509350509290926080610140510152610100516101e0516101605160043501010160018060401b0360c48201351162000ca15762000e01906024369160c4810135010162004a24565b6101405160a00152610100516101e051610160516004350101016001600160401b0360e48201351162000ca15762000e44906024369160e4810135010162004aaf565b60c0610140510152610100516101e051610160516004350101016101048101359060018060401b03821162000db457602462000e84923692010162002f77565b60e0610140510152610140516040610120510152610120516101c0515260206101c051016101c052602060e0510160e052909162000376565b60208401858152849084600435604401356001600160401b03811162000ca55762000ef090600436918135010162002f77565b604084015282516001600160a01b03919062000f4990831662000f4062000f2162000f1b33620335e4565b62004ba8565b62000f3962000f33878a5116620335e4565b62004c0e565b9062004c65565b90331462004cac565b8251805182101562000fb6579062000faa62000fb0928462000f6d84339362004d46565b5151161462000fa362000f8462000f1b33620335e4565b62000f3962000f338862000f9a888c5162004d46565b515116620335e4565b9062004cac565b62004cdf565b62000f49565b62000fda62000fc5866200677e565b60405191829160208352602083019062002e26565b0390f35b503462000202576040366003190112620002025760209060ff906040906001600160a01b036200100d620029bc565b168152613f778452818120602435825284522054166040519015158152f35b503462000202576020366003190112620002025760c06200104f6004356200621c565b93604093919351958652602086015260408501526060840152608083015260a0820152f35b503462000202578060031936011262000202576020613f7254604051908152f35b50346200020257806003193601126200020257613f7590815491620010ba8362002c61565b91620010ca604051938462002b94565b8383526020938484018093835285832083915b838310620011475750505050604051928484019085855251809152604084019460408260051b8601019392955b828710620011185785850386f35b90919293828062001136600193603f198a8203018652885162002e26565b96019201960195929190926200110a565b600188819260409a99979a516200116c8162001164818962002cb6565b038262002b94565b81520192019201919096939596620010dd565b50346200020257602036600319011262000202576020906040906001600160a01b03620011ab620029bc565b168152611f4783522054604051908152f35b50346200020257602036600319011262000202576020620011e06004356200610a565b604051908152f35b5034620002025760203660031901126200020257604062001243916004358152613f76602052206200121a816200370e565b9060ff600782015491600960088201549101549060405195869560a0875260a087019062003273565b93602086015260408501526200125f606085018383166200350e565b60081c16151560808301520390f35b5034620002025760208060031936011262000ca557604051620012918162002ae9565b60405192620012a08462002b06565b80845260609384848201528460408201528252838383015283604083015283808301528360808301528060a08301528060c08301528060e083015280610100809301526004358152613f768352604090209160405192620013018462002ae9565b6200130c816200370e565b84526200131c600382016200351c565b8483019081529262001331600483016200351c565b604086019081529562001347600584016200351c565b868201908152926200135c600682016200351c565b956080880196875260078201549660a0890197885260088301549260c08a01938452600901549560e08a019460ff8816620013989087620052db565b868b019760081c60ff16151588526040519b8c9b8a8d52518c6101209b8c9101526101408d01620013c99162003273565b9451601f198d8703810160408f015295620013e49162002fcf565b905191858d830301908d0152620013fb9162002fcf565b905190838b82030160808c0152620014139162002fcf565b9051918982030160a08a01526200142a9162002fcf565b955160c08801525160e08701525190850162001446916200350e565b511515908301520390f35b5034620002025760203660031901126200020257600435906103e8821015620014ce575060031b6001810154600282015491620014c46005620014a560068401549362001164604051809481930162002cb6565b6040519485948552602085015260806040850152608084019062002e26565b9060608301520390f35b634e487b7160e01b81526032600452602490fd5b50346200020257806003193601126200020257611f42805490620015068262002c61565b9162001516604051938462002b94565b808352602083019184526020842084925b828410620016e4578585611f43805490620015428262002c61565b9362001552604051958662002b94565b82855260208501918152602081209080925b8484106200159a576200158b8662000fda89604051938493604085526040850190620030b7565b908382036020850152620030b7565b604051620015a88162002acd565b620015b860ff85541682620035e5565b60018401546020820152600284018054620015d38162002c61565b91620015e3604051938462002b94565b81835285526020808620869184015b8383106200165d57505050506001928260209260406006950152600387015460608201526040516200162d81620011648160048c0162002cb6565b608082015260ff6005880154818116151560a084015260081c16151560c082015281520193019301929162001564565b600190602060405191620016718362002ab1565b84548352838501549260ff8416620016898162002fc4565b8382015260ff600894851c16620016a08162002a18565b604082015260028601546060820152620016bd600387016200351c565b6080820152620016d060048701620036ac565b60a0820152815201920192019190620015f2565b604051620016f28162002acd565b6200170260ff84541682620035e5565b6001808401546020830152600284019081546200171f8162002c61565b926200172f604051948562002b94565b8184528a526020808b208b9185015b838310620017aa5750505050506001928260209260406006950152600386015460608201526040516200177a81620011648160048b0162002cb6565b608082015260ff6005870154818116151560a084015260081c16151560c082015281520192019301929062001527565b8490602060405191620017bd8362002ab1565b84548352838501549260ff8416620017d58162002fc4565b8382015260ff600894851c16620017ec8162002a18565b60408201526002860154606082015262001809600387016200351c565b60808201526200181c60048701620036ac565b60a08201528152019201920191906200173e565b50346200020257602036600319011262000202576020906040906001600160a01b036200185c620029bc565b168152611f4583522054604051908152f35b5034620002025760208060031936011262000ca5578160043591620018b14784111562000fa36200189f86620050f5565b620018aa47620050f5565b9062004d8e565b3382526200191c611f45808352620018f5604085205486111562000fa3620018d988620050f5565b338852848752620018ee6040892054620050f5565b9062004dfa565b3384528083526200190b856040862054620050ba565b929062000fa3620018d988620050f5565b3384528252806040842055156200195e575b508080809381811562001954575b3390f115620019485780f35b604051903d90823e3d90fd5b506108fc6200193c565b9050611f46805491620019718362004e62565b918593865b81811062001a645750506200198b8462004e62565b805192906001600160401b03841162001a50579080849392620019b18a98979662004ff7565b0191865280862090865b84811062001a31575050505050825b828110620019da5750506200192e565b9192509062001a279062000faa6001600160a01b03620019fb838662004d46565b511662001a088362004eb6565b90919082549060031b9160018060a01b03809116831b921b1916179055565b90849291620019ca565b83516001600160a01b03168184015589975092810192600101620019bb565b634e487b7160e01b88526041600452602488fd5b62001a6f8162004eb6565b90546001600160a01b03916003913391831b1c83160362001a9e575b505062001a989062004cdf565b62001976565b9662001ace91839862001ab562001a989562004eb6565b9054911b1c1662001ac7828962004d46565b5262004cdf565b95903862001a8b565b50346200020257806003193601126200020257613f7080546001600160a01b03191633179055613f73805460ff19166001908117909155604051909190819062001b218162002b3f565b5290611f428054600082558062001e31575b508252818060405162001b468162002b3f565b5262001e1d57611f438054600082558062001d9e575b508252612710613f745562001d9062001b7462005bee565b836040519162001b848362002b3f565b81835262001c866040519162001b9a8362002b3f565b8383526040519462001bac8662002b3f565b8486526040519362001bbe8562002b3f565b8585526040519462001bd08662002b3f565b8686526040519162001be28362002a7f565b8252602097888301526040820152606094858201526040519162001c068362002ab1565b8683526003888401528660408401528686840152608083015260a082015262001c2f8262004cef565b5262001c3b8162004cef565b506040519062001c4b8262002acd565b6004825287868301526040820152838382015260405162001c6c8162002b3f565b84815260808201528660a08201528660c082015262005cfa565b62001c9062005bee565b60405162001c9e8162002b3f565b83815260405162001caf8162002b3f565b84815260405162001cc08162002b3f565b85815260405162001cd18162002b3f565b8681526040519162001ce38362002b3f565b8783526040519362001cf58562002a7f565b8452888401526040830152848201526040519162001d138362002ab1565b8583526003878401528560408401528585840152608083015260a082015262001d3c8262004cef565b5262001d488162004cef565b50856040519462001d598662002acd565b60058652850152604084015282015260405162001d768162002b3f565b84815260808201528260a08201528360c082015262005d46565b611388611faf55611fb05580f35b92506006838102938185040362001e075760009382855260208520908101905b81811062001dce57505062001b5c565b8086849255868682015562001de66002820162005504565b86600382015562001dfa6004820162005399565b8660058201550162001dbe565b634e487b7160e01b600052601160045260246000fd5b634e487b7160e01b82526041600452602482fd5b92506006838102938185040362001e075760009382855260208520908101905b81811062001e6157505062001b33565b8086849255868682015562001e796002820162005504565b86600382015562001e8d6004820162005399565b8660058201550162001e51565b503462000202578060031936011262000202576020604051338152f35b5034620002025780600319360112620002025762001ed462002bb8565b6040519162001ee38362002b22565b611faf548352611fb0549060209182850152611fb1546040850152611fb254606085015260405180611fb390848254918281520191845284842090845b8181106200202c575050508162001f3991038262002b94565b6080850152611fb4805462001f4e8162002c61565b9162001f5e604051938462002b94565b818352835283832083908584015b83831062001ffe575050505060a085015260405180928391611fb591808354928381520192855280852094905b82821062001fda5750505062001fb29250038262002b94565b60c083015260ff611fb65416151560e083015262000fda611fb7546040519384938462002ead565b85546001600160a01b03168452600195860195879550938101939091019062001f99565b60018781926040999899516200201a8162001164818962002cb6565b81520192019201919095949562001f6c565b82546001600160a01b03168452928601926001928301920162001f20565b5034620002025760203660031901126200020257600435906103e8821015620014ce5762000fda6200208260048460031b0162002c03565b6040519182918262002a39565b50346200020257806003193601126200020257604051611f4180548083529083526020808301937f68ffef30f3d6829c9938575e8bc340aa2a3398e927d767947dd5024d1581d59292915b828210620020f55762000fda85620020828189038262002b94565b83546001600160a01b031686529485019460019384019390910190620020da565b5034620002025760209081600319360112620002025760409062002139620029bc565b8160608451620021498162002a7f565b82815286810183905285810182905201526001600160a01b03168152611f40835220604051906200217a8262002a7f565b620021f581549160ff83161515845260ff8585019360081c1615158352600260405191620021b983620021b1816001850162002cb6565b038462002b94565b6040860192835201549260608501938452604051958695818752511515908601525115156040850152516080606085015260a084019062002e26565b905160808301520390f35b50346200020257602036600319011262000202576020620011e060043562005e1c565b50346200020257806003193601126200020257611faf546200227c6200224862033044565b916200225a6127109384831062004cac565b62002272611fb254611fb054111562000fa3620330b2565b611fb15462005eb0565b90506200228862033108565b50825b6103e88110620022b0575b6020620022a685858504620061de565b9050604051908152f35b909260ff60078360031b01541615620022fa5781620022e4620022f092620022dd62000faa969562005e1c565b906200608f565b949062000fa362033108565b929091926200228b565b929062002296565b50346200020257604036600319011262000202576001600160401b0360043581811162000ca9576200233990369060040162002f77565b916024359182116200020257602062002362846200235b366004870162002f77565b9062006518565b6040519015158152f35b503462000202578060031936011262000202576040516200238d8162002b3f565b604051613f0383825b606482106200252557505050620023ad8162002b5b565b815260405191620023be8362002b22565b613f67548352613f68549060209182850152613f69546040850152613f6a54606085015260405180613f6b90848254918281520191845284842090845b8181106200250757505050816200241491038262002b94565b6080850152613f6c8054620024298162002c61565b9162002439604051938462002b94565b818352835283832083908584015b838310620024d9575050505060a085015260405180928391613f6d91808354928381520192855280852094905b828210620024b5575050506200248d9250038262002b94565b60c083015260ff613f6e5416151560e083015262000fda613f6f546040519384938462002ead565b85546001600160a01b03168452600195860195879550938101939091019062002474565b6001878192604099989951620024f58162001164818962002cb6565b81520192019201919095949562002447565b82546001600160a01b031684529286019260019283019201620023fb565b600160208192855481520193019101909162002396565b5034620002025760208060031936011262000ca5576004356200256b4782111562000fa36200189f84620050f5565b33835282808080611f4794858752620025b0604083205482111562000fa36200259484620050f5565b338652898b52620025a96040872054620050f5565b906200526f565b338252858752620025f0620025ca826040852054620050ba565b919062000fa3620025db85620050f5565b3387528a8c52620025a96040882054620050f5565b338352868852604083205581811562002758575b3390f1156200274d57338352815260408220541562002621575080f35b611f48805491620026328362004e62565b918493855b818110620026f35750506200264c8462004e62565b805192906001600160401b038411620026df5781906200266c8562004fbc565b0191865280862090865b848110620026c3575050505050825b828110620026935750505080f35b620026bd9062000faa6001600160a01b03620026b0838662004d46565b511662001a088362004e9a565b62002685565b83516001600160a01b0316838201559281019260010162002676565b634e487b7160e01b87526041600452602487fd5b620026fe8162004e9a565b90546001600160a01b03916003913391831b1c8316036200272d575b5050620027279062004cdf565b62002637565b966200274491839862001ab5620027279562004e9a565b9590386200271a565b6040513d84823e3d90fd5b506108fc62002604565b50346200020257806003193601126200020257604051611f4680548083529083526020808301937f721f0813146d89d6f0f0dbb1451dd10acd9dadea7c30d73459c3079bc665b9a892915b828210620027c85762000fda85620020828189038262002b94565b83546001600160a01b031686529485019460019384019390910190620027ad565b50346200020257604036600319011262000202576004356024356001600160a01b0381169081900362000ca9576103e88210156200283b579160036040926020948352811b0183522054604051908152f35b634e487b7160e01b83526032600452602483fd5b50346200020257806003193601126200020257604051611f4880548083529083526020808301937f54b856f7ae688db523226c6d190d6c3f1578f46968ba7de0cc9e487420dbf24c92915b828210620028b55762000fda85620020828189038262002b94565b83546001600160a01b0316865294850194600193840193909101906200289a565b50346200020257806003193601126200020257602060ff613f73541660405190620029018162002a18565b8152f35b5034620002025760209081600319360112620002025762002925620029bc565b6200292f620052e8565b506001600160a01b03168152611f498252604080822090519190620029548362002b3f565b60405193849192915b606483106200298757610c808587620029768162002b5b565b8152620002006040518092620029ed565b600182819286548152019401920191926200295d565b90503462000ca5578160031936011262000ca557602090613f71548152f35b600435906001600160a01b0382168203620029d357565b600080fd5b35906001600160a01b0382168203620029d357565b516000915b6064831062002a0057505050565b600190825181526020809101920192019190620029f2565b6004111562002a2357565b634e487b7160e01b600052602160045260246000fd5b6020908160408183019282815285518094520193019160005b82811062002a61575050505090565b83516001600160a01b03168552938101939281019260010162002a52565b608081019081106001600160401b0382111762002a9b57604052565b634e487b7160e01b600052604160045260246000fd5b60c081019081106001600160401b0382111762002a9b57604052565b60e081019081106001600160401b0382111762002a9b57604052565b61012081019081106001600160401b0382111762002a9b57604052565b606081019081106001600160401b0382111762002a9b57604052565b61010081019081106001600160401b0382111762002a9b57604052565b602081019081106001600160401b0382111762002a9b57604052565b610c8081019081106001600160401b0382111762002a9b57604052565b604081019081106001600160401b0382111762002a9b57604052565b601f909101601f19168101906001600160401b0382119082101762002a9b57604052565b6040519062002bc78262002b3f565b60405182611f4b6000835b6064821062002bec5750505062002be98262002b5b565b52565b600160208192855481520193019101909162002bd2565b9060405191828154918282526020928383019160005283600020936000905b82821062002c3d5750505062002c3b9250038362002b94565b565b85546001600160a01b03168452600195860195889550938101939091019062002c22565b6001600160401b03811162002a9b5760051b60200190565b90600182811c9216801562002cab575b602083101462002c9557565b634e487b7160e01b600052602260045260246000fd5b91607f169162002c89565b906000929180549162002cc98362002c79565b91828252600193848116908160001462002d30575060011462002ced575b50505050565b90919394506000526020928360002092846000945b83861062002d1b57505050500101903880808062002ce7565b80548587018301529401938590820162002d02565b9294505050602093945060ff191683830152151560051b0101903880808062002ce7565b90815462002d628162002c61565b9260409362002d748551918262002b94565b828152809460208092019260005281600020906000935b85851062002d9b57505050505050565b6001848192845162002db38162001164818a62002cb6565b81520193019401939162002d8b565b90815180825260208080930193019160005b82811062002de3575050505090565b83516001600160a01b03168552938101939281019260010162002dd4565b60005b83811062002e155750506000910152565b818101518382015260200162002e04565b9060209162002e418151809281855285808601910162002e01565b601f01601f1916010190565b908082519081815260208091019281808460051b8301019501936000915b84831062002e7c5750505050505090565b909192939495848062002e9c600193601f198682030187528a5162002e26565b980193019301919493929062002e6b565b93929162002ebf85610ca093620029ed565b610cc080610c808701528151908601526020810151610ce08601526040810151610d008601526060810151610d2086015260e062002f4b62002f146080840151610100610d408a0152610dc089019062002dc2565b62002f3460a085015191610cbf1992838b830301610d608c015262002e4d565b9060c08501519089830301610d808a015262002dc2565b9101511515610da0860152930152565b6001600160401b03811162002a9b57601f01601f191660200190565b81601f82011215620029d35780359062002f918262002f5b565b9262002fa1604051948562002b94565b82845260208383010111620029d357816000926020809301838601378301015290565b6005111562002a2357565b90815180825260208080930193019160005b82811062002ff0575050505090565b83518552938101939281019260010162002fe1565b90815180825260208092019182818360051b82019501936000915b848310620030315750505050505090565b90919293949584806200304d83856001950387528a5162002fcf565b980193019301919493929062003020565b90815180825260208092019182818360051b82019501936000915b8483106200308a5750505050505090565b9091929394958480620030a683856001950387528a5162002dc2565b980193019301919493929062003079565b90815180825260208092019081926005928183851b82019601946000915b848310620030e7575050505050505090565b90919293949596818103835287519060e0808201835190600682101562002a235783929189945283850151848401528a60409182870151938386015283518091528561010082818801941b87010194019260005b8281106200319a5750505050509282916200317060019560608085015190840152608080850151908483039085015262002e26565b9160a08082015115159083015260c0809101511515910152990193019301919594939290620030d5565b91939596806200325f600193959760ff198b82030189528951908151815283820151620031c78162002fc4565b8482015287820151620031da8162002a18565b888201526060908183015182820152816200324f6200323e6200322d6080620032108189015160c080848a015288019062002fcf565b9560a0809901519881880391015287519080875286019062002e4d565b888701518582038a87015262003005565b8b8601518482038d8601526200305e565b9301519181840391015262002e26565b970195019101918b9695949391926200313b565b90606081019160018060a01b03815116825260208101519260606020840152835180915260808301602060808360051b86010195019160005b818110620032d55750505050906040620032d29392015190604081840391015262002e26565b90565b858703607f19018352835180516001600160a01b031688526020810151949793949293919290602682101562002a2357604091602084015201519060606040820152620033318251610100606084015261016083019062002e4d565b602083810151838303605f190160808501528051808452928201929101906000905b808210620034f3575050506040830151605f198383030160a0840152805180835260208301906020808260051b86010193019360005b8281106200346e57505050506060840151838203605f190160c0850152620033b29250620030b7565b608083015190605f198382030160e0840152602080835192838152019201906000905b8082106200344a575050506200343d8360209360e0620034266200340e879660a060019a0151605f198683030161010087015262003005565b60c0850151848203605f19016101208601526200305e565b92015190610140605f198285030191015262002e26565b98019401929101620032ac565b9091926020806001928651620034608162002fc4565b8152019401920190620033d5565b90919293602080600192601f19868203018852885190620034d76200349c835160e080855284019062002fcf565b8484015185840152604084015160408401526060840151606084015260808401511515608084015260a084015183820360a085015262002e26565b60c0928301511515919092015297019695019392910162003389565b90919260208060019286511515815201940192019062003353565b90600382101562002a235752565b9060405191828154918282526020928383019160005283600020936000905b828210620035545750505062002c3b9250038362002b94565b8554845260019586019588955093810193909101906200353b565b906040516200357e8162002acd565b60c060ff6006839562003591816200351c565b85526001810154602086015260028101546040860152600381015460608601528260048201541615156080860152604051620035d68162001164816005860162002cb6565b60a08601520154161515910152565b600682101562002a235752565b908154620036008162002c61565b9262003610604051948562002b94565b818452600090815260208082208186015b84841062003630575050505050565b600183819262003640856200351c565b81520192019301929062003621565b9081546200365d8162002c61565b926200366d604051948562002b94565b818452600090815260208082208186015b8484106200368d575050505050565b60018381926200369d8562002c03565b8152019201930192906200367e565b9060036060604051620036bf8162002a7f565b6200370a8195620036d08162002d54565b8352620036e060018201620035f2565b6020840152620036f3600282016200364f565b6040840152620021b1604051809681930162002cb6565b0152565b906040516200371d8162002b06565b82546001600160a01b03168152600183018054919384929091620037418262002c61565b9162003751604051938462002b94565b80835260208301916000526020600020916000905b828210620037935750505050916200370a6040926002946020840152620021b18451809681930162002cb6565b604051620037a18162002b06565b84546001600160a01b038116825260a01c60ff16602681101562002a23576020820152604051620037d28162002b22565b620037e06001870162002d54565b815260028601604051808260208294549384815201906000526020600020926000905b80601f83011062004753576200393c9454918181106200473c575b81811062004722575b81811062004708575b818110620046ee575b818110620046d5575b818110620046bb575b818110620046a1575b81811062004687575b8181106200466d575b81811062004653575b81811062004639575b8181106200461f575b81811062004605575b818110620045eb575b818110620045d1575b818110620045b7575b8181106200459d575b81811062004583575b81811062004569575b8181106200454f575b81811062004535575b8181106200451b575b81811062004501575b818110620044e7575b818110620044cd575b818110620044b3575b81811062004499575b8181106200447f575b81811062004465575b8181106200444b575b81811062004431575b1062004420575b50038262002b94565b6020820152600386018054620039528162002c61565b9162003962604051938462002b94565b81835260208301906000526020600020906000905b838210620043ff57505050506040820152600486018054620039998162002c61565b91620039a9604051938462002b94565b81835260208301906000526020600020906000905b838210620042af57505050506060820152600586016040519081602082549182815201916000526020600020906000915b81601f84011062003fa65784600997946020979460019a979462003b3594549181811062003f88575b81811062003f67575b81811062003f46575b81811062003f25575b81811062003f05575b81811062003ee4575b81811062003ec3575b81811062003ea2575b81811062003e81575b81811062003e60575b81811062003e3f575b81811062003e1e575b81811062003dfd575b81811062003ddc575b81811062003dbb575b81811062003d9a575b81811062003d79575b81811062003d58575b81811062003d37575b81811062003d16575b81811062003cf5575b81811062003cd4575b81811062003cb3575b81811062003c92575b81811062003c71575b81811062003c50575b81811062003c2f575b81811062003c0e575b81811062003bed575b81811062003bcc575b81811062003bab575b1062003b905750038262002b94565b608082015262003b4860068a01620035f2565b60a082015262003b5b60078a016200364f565b60c082015260405162003b7781620011648160088e0162002cb6565b60e0820152604082015281520194019101909262003766565b90889160f81c62003ba18162002fc4565b8152013862003933565b928a8d9160ff8560f01c1662003bc18162002fc4565b815201930162003b26565b928a8d9160ff8560e81c1662003be28162002fc4565b815201930162003b1d565b928a8d9160ff8560e01c1662003c038162002fc4565b815201930162003b14565b928a8d9160ff8560d81c1662003c248162002fc4565b815201930162003b0b565b928a8d9160ff8560d01c1662003c458162002fc4565b815201930162003b02565b928a8d9160ff8560c81c1662003c668162002fc4565b815201930162003af9565b928a8d9160ff8560c01c1662003c878162002fc4565b815201930162003af0565b928a8d9160ff8560b81c1662003ca88162002fc4565b815201930162003ae7565b928a8d9160ff8560b01c1662003cc98162002fc4565b815201930162003ade565b928a8d9160ff8560a81c1662003cea8162002fc4565b815201930162003ad5565b928a8d9160ff8560a01c1662003d0b8162002fc4565b815201930162003acc565b928a8d9160ff8560981c1662003d2c8162002fc4565b815201930162003ac3565b928a8d9160ff8560901c1662003d4d8162002fc4565b815201930162003aba565b928a8d9160ff8560881c1662003d6e8162002fc4565b815201930162003ab1565b928a8d9160ff8560801c1662003d8f8162002fc4565b815201930162003aa8565b928a8d9160ff8560781c1662003db08162002fc4565b815201930162003a9f565b928a8d9160ff8560701c1662003dd18162002fc4565b815201930162003a96565b928a8d9160ff8560681c1662003df28162002fc4565b815201930162003a8d565b928a8d9160ff8560601c1662003e138162002fc4565b815201930162003a84565b928a8d9160ff8560581c1662003e348162002fc4565b815201930162003a7b565b928a8d9160ff8560501c1662003e558162002fc4565b815201930162003a72565b928a8d9160ff8560481c1662003e768162002fc4565b815201930162003a69565b928a8d9160ff8560401c1662003e978162002fc4565b815201930162003a60565b928a8d9160ff8560381c1662003eb88162002fc4565b815201930162003a57565b928a8d9160ff8560301c1662003ed98162002fc4565b815201930162003a4e565b928a8d9160ff8560281c1662003efa8162002fc4565b815201930162003a45565b928a8d9160ff85831c1662003f1a8162002fc4565b815201930162003a3c565b928a8d9160ff8560181c1662003f3b8162002fc4565b815201930162003a33565b928a8d9160ff8560101c1662003f5c8162002fc4565b815201930162003a2a565b928a8d9160ff8560081c1662003f7d8162002fc4565b815201930162003a21565b928a8d9160ff851662003f9b8162002fc4565b815201930162003a18565b926001610400602092865460ff811662003fc08162002fc4565b825260ff8160081c1662003fd48162002fc4565b8583015260ff8160101c1662003fea8162002fc4565b604083015260ff8160181c16620040018162002fc4565b606083015260ff81861c16620040178162002fc4565b608083015260ff8160281c166200402e8162002fc4565b60a083015260ff8160301c16620040458162002fc4565b60c08301526200405b60ff8260381c1662002fc4565b60ff8160381c1660e083015260ff8160401c16620040798162002fc4565b61010083015260ff8160481c16620040918162002fc4565b61012083015260ff8160501c16620040a98162002fc4565b61014083015260ff8160581c16620040c18162002fc4565b61016083015260ff8160601c16620040d98162002fc4565b61018083015260ff8160681c16620040f18162002fc4565b6101a083015260ff8160701c16620041098162002fc4565b6101c083015260ff8160781c16620041218162002fc4565b6101e083015260ff8160801c16620041398162002fc4565b61020083015260ff8160881c16620041518162002fc4565b61022083015260ff8160901c16620041698162002fc4565b61024083015260ff8160981c16620041818162002fc4565b61026083015260ff8160a01c16620041998162002fc4565b61028083015260ff8160a81c16620041b18162002fc4565b6102a083015260ff8160b01c16620041c98162002fc4565b6102c083015260ff8160b81c16620041e18162002fc4565b6102e083015260ff8160c01c16620041f98162002fc4565b61030083015260ff8160c81c16620042118162002fc4565b61032083015260ff8160d01c16620042298162002fc4565b61034083015260ff8160d81c16620042418162002fc4565b61036083015260ff8160e01c16620042598162002fc4565b61038083015260ff8160e81c16620042718162002fc4565b6103a083015260ff8160f01c16620042898162002fc4565b6103c083015260f81c6200429d8162002fc4565b6103e0820152019401920191620039ef565b604051620042bd8162002acd565b620042cd60ff85541682620035e5565b60018401546020820152600284018054620042e88162002c61565b91620042f8604051938462002b94565b81835260208301906000526020600020906000905b8382106200437857505050506001928260209260406006950152600387015460608201526040516200434881620011648160048c0162002cb6565b608082015260ff6005880154818116151560a084015260081c16151560c0820152815201930191019091620039be565b6001906020604051916200438c8362002ab1565b85548352838601549260ff8416620043a48162002fc4565b8382015260ff600894851c16620043bb8162002a18565b604082015260028701546060820152620043d8600388016200351c565b6080820152620043eb60048801620036ac565b60a08201528152019301910190916200430d565b6007602060019262004411866200356f565b81520193019101909162003977565b60f81c151581526020013862003933565b92602060019160ff8560f01c16151581520193016200392c565b92602060019160ff8560e81c161515815201930162003923565b92602060019160ff8560e01c16151581520193016200391a565b92602060019160ff8560d81c161515815201930162003911565b92602060019160ff8560d01c161515815201930162003908565b92602060019160ff8560c81c1615158152019301620038ff565b92602060019160ff8560c01c1615158152019301620038f6565b92602060019160ff8560b81c1615158152019301620038ed565b92602060019160ff8560b01c1615158152019301620038e4565b92602060019160ff8560a81c1615158152019301620038db565b92602060019160ff8560a01c1615158152019301620038d2565b92602060019160ff8560981c1615158152019301620038c9565b92602060019160ff8560901c1615158152019301620038c0565b92602060019160ff8560881c1615158152019301620038b7565b92602060019160ff8560801c1615158152019301620038ae565b92602060019160ff8560781c1615158152019301620038a5565b92602060019160ff8560701c16151581520193016200389c565b92602060019160ff8560681c161515815201930162003893565b92602060019160ff8560601c16151581520193016200388a565b92602060019160ff8560581c161515815201930162003881565b92602060019160ff8560501c161515815201930162003878565b92602060019160ff8560481c16151581520193016200386f565b92602060019160ff8560401c161515815201930162003866565b92602060019160ff8560381c16151581520193016200385d565b92602060019160ff8560301c161515815201930162003854565b92602060019160ff8560281c16151581520193016200384b565b92602060019160ff85831c161515815201930162003842565b92602060019160ff8560181c161515815201930162003839565b92602060019160ff8560101c161515815201930162003830565b92602060019160ff8560081c161515815201930162003827565b92602060019160ff8516151581520193016200381e565b916020919350610400600191865460ff81161515825260ff8160081c1615158583015260ff8160101c161515604083015260ff816060828260181c161515818601528282608082828c1c16151581890152828260281c16151560a0890152828260c095828260301c161515878c0152828260381c16151560e08c0152828260401c1615156101008c0152828260481c1615156101208c0152828260501c1615156101408c0152828260581c1615156101608c01521c161515610180890152828260681c1615156101a0890152828260701c1615156101c0890152828260781c1615156101e08901521c161515610200860152828260881c161515610220860152828260901c161515610240860152828260981c161515610260860152828260a01c161515610280860152828260a81c1615156102a0860152828260b01c1615156102c0860152828260b81c1615156102e08601521c16151561030083015260ff8160c81c16151561032083015260ff8160d01c16151561034083015260ff8160d81c16151561036083015260ff8160e01c16151561038083015260ff8160e81c1615156103a083015260ff8160f01c1615156103c083015260f81c15156103e082015201940192018492939162003803565b9080601f83011215620029d357813590620049408262002c61565b9262004950604051948562002b94565b828452602092838086019160051b83010192808411620029d357848301915b848310620049805750505050505090565b82356001600160401b038111620029d3578691620049a48484809489010162002f77565b8152019201916200496f565b35908115158203620029d357565b81601f82011215620029d357803591620049d88362002c61565b92620049e8604051948562002b94565b808452602092838086019260051b820101928311620029d3578301905b82821062004a14575050505090565b8135815290830190830162004a05565b9080601f83011215620029d35781359062004a3f8262002c61565b9262004a4f604051948562002b94565b828452602092838086019160051b83010192808411620029d357848301915b84831062004a7f5750505050505090565b82356001600160401b038111620029d357869162004aa384848094890101620049be565b81520192019162004a6e565b9080601f83011215620029d35781359162004aca8362002c61565b9260409262004adc8451958662002b94565b8185526020938486019185600594851b86010194818611620029d357868101935b86851062004b1057505050505050505090565b84356001600160401b038111620029d357820183603f82011215620029d357888101359062004b3f8262002c61565b9162004b4e8751938462002b94565b808352868b8401918a1b83010191868311620029d35791878c94929593015b81811062004b8657505082935081520194019362004afd565b91938091939562004b9784620029d8565b8152019101918b9391949262004b6d565b9062002c3b604560405180947f496e76616c69642070726f6772616d20616464726573732e204d73672e73656e60208301526403232b91d160dd1b604083015262004bfd815180926020868601910162002e01565b810103602581018552018362002b94565b9062002c3b6040805180947f2c20616e642070726f6772616d206f70657261746f7220616464726573733a20602083015262004c54815180926020868601910162002e01565b810103602081018552018362002b94565b602062002c3b91939293604051948162004c89879351809286808701910162002e01565b820162004c9f8251809386808501910162002e01565b0103808552018362002b94565b1562004cb55750565b60405162461bcd60e51b81526020600482015290819062004cdb90602483019062002e26565b0390fd5b600019811462001e075760010190565b80511562004cfd5760200190565b634e487b7160e01b600052603260045260246000fd5b80516001101562004cfd5760400190565b80516002101562004cfd5760600190565b80516003101562004cfd5760800190565b805182101562004cfd5760209160051b010190565b7f496e76616c696420776974686472617720616d6f756e742e20416d6f756e743a8152600160fd1b602082015260210190565b600f62002c3b916020949360405195869262004dbe62004db083860162004d5b565b918281519485920162002e01565b016e0161030b732103130b630b731b29d1608d1b815262004de9825180936020878501910162002e01565b010360101981018552018362002b94565b601962002c3b916020949360405195869262004e1c62004db083860162004d5b565b01780161030b732103bb4ba34323930bbb0b136329031b0b9b41d1603d1b815262004e51825180936020878501910162002e01565b010360061981018552018362002b94565b9062004e6e8262002c61565b62004e7d604051918262002b94565b828152809262004e90601f199162002c61565b0190602036910137565b611f48805482101562004cfd5760005260206000200190600090565b611f46805482101562004cfd5760005260206000200190600090565b611f41805482101562004cfd5760005260206000200190600090565b613f02805482101562004cfd5760005260206000200190600090565b611f4a805482101562004cfd5760005260206000200190600090565b613efe805482101562004cfd5760005260206000200190600090565b613f00805482101562004cfd5760005260206000200190600090565b805482101562004cfd5760005260206000200190600090565b8181029291811591840414171562001e0757565b919082549060031b91821b91600019901b1916179055565b81811062004faf575050565b6000815560010162004fa3565b600160401b811162002a9b57611f489081549080835581811062004fdf57505050565b62002c3b926000526020600020918201910162004fa3565b600160401b811162002a9b57611f469081549080835581811062004fdf57505050565b805460008255806200502a575050565b62002c3b9160005260206000209081019062004fa3565b600160401b811162002a9b57613efe9081549080835581811062004fdf57505050565b600160401b811162002a9b57613f009081549080835581811062004fdf57505050565b611fb5805460008255806200502a575050565b90600160401b811162002a9b5781549080835581811062004fdf57505050565b9190828111620050cb576001920390565b50600091508190565b8115620050df570490565b634e487b7160e01b600052601260045260246000fd5b6000908072184f03e93ff9f4daa797ed6e38ed64bf6a1f0160401b8082101562005260575b506904ee2d6d415b85acef8160201b8083101562005250575b50662386f26fc100008083101562005240575b506305f5e1008083101562005230575b506127108083101562005220575b5060648210156200520f575b600a8092101562005204575b60019081602181860195620051918762002f5b565b96620051a1604051988962002b94565b808852620051b2601f199162002f5b565b01366020890137860101905b620051cb575b5050505090565b600019019083906f181899199a1a9b1b9c1cb0b131b232b360811b8282061a835304918215620051fe57919082620051be565b620051c4565b91600101916200517c565b919060646002910491019162005170565b6004919392049101913862005164565b6008919392049101913862005156565b6010919392049101913862005146565b6020919392049101913862005133565b6040935081049150386200511a565b601e62002c3b91602094936040519586926200529162004db083860162004d5b565b017f2c20616e6420776974686472617761626c65206469766964656e64733a2000008152620052ca825180936020878501910162002e01565b010360011981018552018362002b94565b600382101562002a235752565b60405190620052f78262002b3f565b60405182620053068262002b5b565b610c8036833752565b906200531b8262002c61565b6040906200532c8251918262002b94565b83815280936200533f601f199162002c61565b019160005b838110620053525750505050565b6020908251620053628162002acd565b6000815282600081830152606080868401526000818401526080830152600060a0830152600060c083015282860101520162005344565b620053a5815462002c79565b9081620053b0575050565b81601f60009311600114620053c3575055565b908083918252620053e4601f60208420940160051c84016001850162004fa3565b5555565b8054906000815581620053f9575050565b6000526020600020908101905b81811062005412575050565b806200542060019262005399565b0162005406565b90600160401b811162002a9b578154918181558282106200544757505050565b600052602060002091820191015b81811062005461575050565b806200546f60019262005399565b0162005455565b805490600081558162005487575050565b6000526020600020908101905b818110620054a0575050565b80620054ae6001926200501a565b0162005494565b90600160401b811162002a9b57815491818155828210620054d557505050565b600052602060002091820191015b818110620054ef575050565b80620054fd6001926200501a565b01620054e3565b8054600091828155816200551757505050565b6001600160fd1b0382168203620055a45782526020822091600391821b8301925b838110620055465750505050565b808260089255826001820155826002820155620055658482016200501a565b6200557360048201620053e8565b620055816005820162005476565b6200558f6006820162005476565b6200559d6007820162005399565b0162005538565b634e487b7160e01b83526011600452602483fd5b600160401b821162002a9b57805490828155818310620055d757505050565b6001600160fd1b03828116830362001e07578316830362001e0757600090815260208120600392831b810193831b015b838110620056155750505050565b808260089255826001820155826002820155620056348482016200501a565b6200564260048201620053e8565b620056506005820162005476565b6200565e6006820162005476565b6200566c6007820162005399565b0162005607565b51600681101562002a235790565b90600681101562002a235760ff80198354169116179055565b90620056a68162002fc4565b60ff80198354169116179055565b90620056c08162002a18565b61ff0082549160081b169061ff001916179055565b9190601f8111620056e557505050565b62002c3b926000526020600020906020601f840160051c8301931062005714575b601f0160051c019062004fa3565b909150819062005706565b81519192916001600160401b03811162002a9b576200574b8162005744845462002c79565b84620056d5565b602080601f83116001146200578a5750819293946000926200577e575b50508160011b916000199060031b1c1916179055565b01519050388062005768565b90601f198316958460005282600020926000905b888210620057d957505083600195969710620057bf575b505050811b019055565b015160001960f88460031b161c19169055388080620057b5565b806001859682949686015181550195019301906200579e565b9060ff801983541691151516179055565b9061ff00825491151560081b169061ff001916179055565b8151600681101562002a235762005833908262005681565b602082015160018201556002810160408301516020815191620058578385620055b8565b01916000526020600020916000905b828210620058b857505050509060c0600562002c3b9360608401516003820155620058996080850151600483016200571f565b0191620058ad60a0820151151584620057f2565b015115159062005803565b805180518555620058f860018601620058e16020840151620058da8162002fc4565b826200569a565b604083015190620058f28262002a18565b620056b4565b60608101516002860155608081015180519060038701906001600160401b03831162002a9b576020906200592d84846200509a565b0190600052602060002060005b83811062005bd9575050505060a001518051805190600487019060209062005963848462005427565b01906000526020600020906000905b83821062005bb957505050506005850160208201516020815191620059988385620054b5565b019160005260206000206000925b82841062005b5557505050506006850160408201516020815191620059cc8385620054b5565b019160005260206000206000925b82841062005ae85750505050606001518051906001600160401b03821162002a9b5762005a1a8262005a10600789015462002c79565b60078901620056d5565b602090601f831160011462005a6d57928260089360209360019660009262005a61575b5050600019600383901b1c191690851b1760078801555b0194019101909262005866565b01519050388062005a3d565b906007870160005260206000209160005b601f198516811062005acf575083602093600196938793600897601f1981161062005ab5575b505050811b01600788015562005a54565b015160001960f88460031b161c1916905538808062005aa4565b9192602060018192868501518155019401920162005a7e565b80518051906001600160401b03821162002a9b5760209062005b0b83866200509a565b0183600052602060002060005b83811062005b37575050505060016020819201920193019290620059da565b82516001600160a01b03168183015560209092019160010162005b18565b80518051906001600160401b03821162002a9b5760209062005b7883866200509a565b0183600052602060002060005b83811062005ba4575050505060016020819201920193019290620059a6565b60019060208451940193818401550162005b85565b600160208262005bcc839451876200571f565b0193019101909162005972565b6001906020845194019381840155016200593a565b60409081519162005bff8362002b78565b60018352829160005b60208082101562005c725783516020929162005c248262002ab1565b60008252600081830152600086830152606060008184015280608084015286519062005c508262002a7f565b808252808383015280888301528082015260a083015282880101520162005c08565b505091925050565b611f43805482101562004cfd576000526006602060002091020190600090565b613efb805482101562004cfd576000526006602060002091020190600090565b611f42805482101562004cfd576000526006602060002091020190600090565b613efa805482101562004cfd576000526006602060002091020190600090565b611f428054600160401b81101562002a9b5762005d1d9160018201905562005cba565b91909162005d305762002c3b916200581b565b634e487b7160e01b600052600060045260246000fd5b611f438054600160401b81101562002a9b5762005d1d9160018201905562005c7a565b613efb8054600160401b81101562002a9b5762005d1d9160018201905562005c9a565b613efa8054600160401b81101562002a9b5762005d1d9160018201905562005cda565b1562005db757565b60405162461bcd60e51b815260206004820152603760248201527f73756d4469766964656e64576569676874466f72546f6b656e436c6173733a206044820152766469766964656e64576569676874206f766572666c6f7760481b6064820152608490fd5b6103e881101562004cfd5762005e4a8162005e436002620032d29460031b01549162005f36565b9062005eb0565b919062005daf565b6103e881101562004cfd5762005e4a8162005e43611fba620032d29460031b01549162005fe5565b90811562005ea757606462005e938184029384620050d4565b0362005e9f5760019190565b600091508190565b60019150600090565b9190821562005ec85762005e938184029384620050d4565b5060019150600090565b1562005eda57565b60405162461bcd60e51b815260206004820152602e60248201527f746f74616c546f6b656e73506572546f6b656e436c6173733a20746f74616c5460448201526d6f6b656e73206f766572666c6f7760901b6064820152608490fd5b6103e8811015908162004cfd57600390811b906004928383019182549260009582879601935b85871062005f6e575050505050505090565b97969091929394959762005fd05762005fc48862005fbc62005f9662000faa9a9b8762004f5e565b905490881b1c6001600160a01b031660009081526020899052604081205490946200608f565b999062005ed2565b95949392919062005f5c565b603282634e487b7160e01b6000525260246000fd5b6103e8811015908162004cfd5790600391821b90611fbc820190815490600094611fbb869501915b8386106200601e5750505050505090565b9590919293949562004cfd576200607186620060696200604362000faa998962004f5e565b905490861b1c6001600160a01b031660009081526020879052604081205490946200608f565b989062005ed2565b94939291906200600d565b906001820191821062005e9f5760019190565b9190820191821062005e9f5760019190565b15620060a957565b60405162461bcd60e51b815260206004820152603360248201527f73756d566f74696e67576569676874466f72546f6b656e436c6173733a20766f60448201527274696e67576569676874206f766572666c6f7760681b6064820152608490fd5b6103e881101562004cfd57620061318162005e436001620032d29460031b01549162005f36565b9190620060a1565b6103e881101562004cfd57620061318162005e43611fb9620032d29460031b01549162005fe5565b611faf54620061736200224862033044565b9190506200618062033108565b5060009081925b6103e88410620061a4575b6200619f935004620061de565b905090565b9160ff60078560031b01541615620061d75783620022e4620061d092620022dd62000faa969762005e1c565b9262006187565b9162006192565b908015620061f657620061f191620050d4565b600191565b5050600090600090565b9190820180921162001e0757565b9190820391821162001e0757565b906107b2906301e1853e80840483810180821162001e07576001820181811162001e0757604583019082821162001e075760646200625f92049060021c6200620e565b9561017183019682881162001e075762006280906101908099049062006200565b9084840294848604148415171562001e075762015180948583029280840487149015171562001e0757620062c092620062b99162006200565b906200620e565b91600495869108159586620064df575b506040516101a081016001600160401b03811182821017620064ca57604052600c9687825261018080366020850137601f91826200630e8562004cef565b5215620064c05760ff601d5b16620063268462004d13565b5281620063338462004d24565b52601e620063418462004d35565b528251881015620064ab578160a0840152825160051015620064ab57601e60c0840152825160061015620064ab578160e0840152825160071015620064ab5781610100840152825160081015620064ab57601e610120840152825160091015620064ab57816101408401528251600a1015620064ab57601e6101608401528251600b1015620064ab57820152600096905b81881062006426575b50508282049460018601809611620064115760018701809711620064115750949392603c80610e10809585060494840604920690565b601190634e487b7160e01b6000525260246000fd5b90969262006435848362004d46565b51858102908082048714901517156200648e578110620064a3576200645b848362004d46565b5190858202918083048714901517156200648e5762006486916200647f916200620e565b9362004cdf565b9690620063d2565b601188634e487b7160e01b6000525260246000fd5b9296620063db565b603288634e487b7160e01b6000525260246000fd5b60ff601c6200631a565b604187634e487b7160e01b6000525260246000fd5b909550606486061590811591620064fa575b509438620062d0565b905085061538620064f1565b90815181101562004cfd570160200190565b908151815111620065cf576000905b6200653683518251906200620e565b8211620065c75760019260005b8251811015620065bc576001600160f81b0319806200656e62006567848862006200565b8562006506565b5116906200657d838662006506565b5116036200659657620065909062004cdf565b62006543565b5092509060005b620065b457620065ad9062004cdf565b9062006527565b505050600190565b50929190916200659d565b505050600090565b5050600090565b611f4680549190600160401b83101562002a9b578262001a0891600162002c3b9501905562004eb6565b611f4a80549190600160401b83101562002a9b578262001a0891600162002c3b9501905562004f0a565b611fb5805490600160401b82101562002a9b576001820180825582101562004cfd576000908152602090200180546001600160a01b0319166001600160a01b03909216919091179055565b611fb3805490600160401b82101562002a9b576001820180825582101562004cfd576000908152602090200180546001600160a01b0319166001600160a01b03909216919091179055565b611f4180549190600160401b83101562002a9b578262001a0891600162002c3b9501905562004ed2565b60405190620066f98262002b78565b60188252772a343290383937b3b930b69034b99032bc32b1baba32b21760411b6020830152565b604051906200672f8262002b06565b603a82527930b33a32b9103b37ba34b7339030b7321030b8383937bb30b61760311b6040837f5468652070656e64696e672070726f6772616d2069732065786563757465642060208201520152565b90600091825b60208083019081518051871015620069155781620067a788620067af9362004d46565b510162007387565b6026928382101562002a2357601a9182036200686d5787620067d2915162004d46565b5192828401519081101562002a2357036200682b5750936200681c6200682492620068146200680d60a0604062000faa9a0151015162004cef565b5162004cef565b51906200608f565b959062007395565b9262006784565b6064906040519062461bcd60e51b82526004820152601b60248201527a2a34329037b831b7b2329034b9903737ba102820acafa1a0a9a41760291b6044820152fd5b929190506200688681620067a789869a979a5162004d46565b8281101562002a2357601403620068bf575050906200681c62000faa95620022dd620068b88462006824965162004d46565b51620073e2565b620068d190620067a785855162004d46565b9081101562002a2357601514620068ef575b50620068249062004cdf565b906200681c6200690e95620022dd620068b88462006824965162004d46565b90620068e3565b5050509092508034106000146200698b5760405162461bcd60e51b815260206004820152603760248201527f546865207061796d656e74206973206e6f7420656e6f7567682e205468652074604482015276037ba30b6103830bcb6b2b73a1039b437bab6321031329604d1b6064820152608490fd5b8034116200720c575b50613f739182549260ff841693620069ac8562002a18565b600194808603620069e657505050620069dc919250620069d6620069d08262007479565b62007550565b620075da565b620032d2620066ea565b620069f18162002a18565b600281148080620071ff575b1562006e285750505062006a11826200748e565b1562006de95762006a22826200748e565b1562006dad5762006a5b90602080930190600260ff8560018060a01b0362006a4b865162004cef565b5151169460409687915162004cef565b510151015192541662006a6e8162002a18565b0362006d6d5781600052613f778085528360002092613f7880549485600052875260ff86600020541662006d2f5783519480600052613f7693848952600396878960002001540362006cc95783600052885286600020906000528752856000208960ff19825416179055886000905b62006b27575b505050505050742a3432903b37ba329034b99032bc32b1baba32b21760591b9192935062006b1062032533565b519162006b1d8362002b78565b6015835282015290565b845181101562006cc35786825480600052858a5262006b4c8389846000200162004f5e565b905490891b1c908a84888b62006b63838d62004d46565b511562006c2157505050505062006bc662006ba685549283600052888d52620022dd62006b9887600480986000200162004f5e565b9054908d1b1c91896203241d565b9092600052878c5262006bbf85858d6000200162004f5e565b9062004f8b565b1562006bdf575062006bd89062004cdf565b8962006add565b875162461bcd60e51b8152908101899052601c60248201527b766f74696e6720666f7220706f776572596573206f766572666c6f7760201b6044820152606490fd5b9062006c5e62006c7096620022dd87999462006bbf979860005284895262006c5187600580986000200162004f5e565b9054911b1c918d6203241d565b959097600052528c6000200162004f5e565b1562006c815762006bd89062004cdf565b865162461bcd60e51b815260048101899052601b60248201527a766f74696e6720666f7220706f7765724e6f206f766572666c6f7760281b6044820152606490fd5b62006ae3565b875162461bcd60e51b8152600481018a9052603960248201527f746865206e756d626572206f6620766f74657320646f6573206e6f74206d6174604482015278636820746865206e756d626572206f6620706f6c696369657360381b6064820152608490fd5b855162461bcd60e51b81526004810188905260176024820152761d9bdd195c881a185cc8185b1c9958591e481d9bdd1959604a1b6044820152606490fd5b825162461bcd60e51b8152600481018590526019602482015278766f74696e67206973206e6f7420696e2070726f677265737360381b6044820152606490fd5b60405162461bcd60e51b8152602060048201526014602482015273496e76616c696420766f74652070726f6772616d60601b6044820152606490fd5b60405162461bcd60e51b815260206004820152601760248201527624b73b30b634b2103b37ba34b73390383937b3b930b69760491b6044820152606490fd5b62006e3882979495969762002a18565b60038214918280620071f2575b1562006ec75750505050505062006e5c81620074f5565b1562006e775762006e6d906202f2b7565b620032d262006720565b60405162461bcd60e51b815260206004820152602260248201527f496e76616c696420657865637574696e672070656e64696e672070726f677261604482015261369760f11b6064820152608490fd5b62006ed28162002a18565b8180620071e4575b80620071d7575b156200710157505050509060ff9062006ef962032745565b54169062006f078262002a18565b810362006fc5575062006f1a8162007479565b1562006f345780620069d6620069d0620069dc9362007479565b60405162461bcd60e51b815260206004820152605f60248201527f54686520766f74696e672069732072656a656374656420616e64206e6f77204460448201527f41524320697320696e2069646c652073746174652e2054686520696e7075742060648201527f70726f6772616d206973206e6f7420612076616c69642070726f6772616d2e00608482015260a490fd5b8062006fd360039262002a18565b146200700c57505b60405162006fe98162002b78565b6013815272283937b3b930b6903a32b936b4b730ba32b21760691b602082015290565b6200701781620074f5565b15620070285762006e6d906202f2b7565b60405162461bcd60e51b815260206004820152609960248201527f54686520766f74696e672069732070617373656420616e64206e6f772044415260448201527f4320697320696e20657865637574696e672070656e64696e672073746174652e60648201527f2054686520696e7075742070726f6772616d206973206e6f7420612076616c6960848201527f6420455845435554455f50454e44494e475f50524f4752414d20746f2065786560a48201527831baba32903a3432903832b73234b73390383937b3b930b69760391b60c482015260e490fd5b6200710c8162002a18565b8215620071c2575b505080620071b4575b6200712c575050505062006fdb565b60ff19161790556200713e8162007479565b15620071585780620069d6620069d0620069dc9362007479565b60405162461bcd60e51b815260206004820152602e60248201527f5b4572726f72203030335d5468652070726f6772616d206973206e6f7420612060448201526d3b30b634b210383937b3b930b69760911b6064820152608490fd5b50613f72544210156200711d565b620071cf91925062002a18565b388062007114565b50613f7254421062006ee1565b50613f715442101562006eda565b50613f7254421062006e45565b50613f71544210620069fd565b60018060a01b039081845116600052611f4590816020526040600020541562007302575b6200723c9034620050ba565b9015620072be576200725f9083865116600052826020526040600020546200608f565b9290156200727d578451166000526020526040600020553862006994565b60405162461bcd60e51b81526020600482015260196024820152782a3432903732bb903130b630b731b29037bb32b9333637bb9760391b6044820152606490fd5b60405162461bcd60e51b815260206004820152601c60248201527b2a3432903830bcb6b2b73a103932ba3ab9371037bb32b9333637bb9760211b6044820152606490fd5b611f4654939291906000805b86811062007344575b506200723c92939495501562007330575b905062007230565b6200733e84875116620065d6565b62007328565b84620073508262004eb6565b919054818b51169260031b1c161462007374576200736e9062004cdf565b6200730e565b5093945084935060016200723c62007317565b51602681101562002a235790565b156200739d57565b60405162461bcd60e51b815260206004820152601f60248201527f54686520746f74616c207061796d656e7420697320746f6f206c617267652e006044820152606490fd5b906000805b6040840160a0620073fc818351015162004d13565b51518410156200747157926200681c62007461604094620074598562007451866200743f8b620074468362000faa9f9e6200743f90620074679e51015162004d13565b5162004d46565b519451015162004d24565b519062005eb0565b929062007395565b6200608f565b91929050620073e7565b509093505050565b6020015151156200748957600190565b600090565b602001516001815103620074b257620074ab620032d29162004cef565b51620074b8565b50600090565b6020810151602681101562002a2357602003620074b2576040015160a081015151620074b25760c081015151620074b25751516200748957600190565b602001516001815103620074b25762007512620032d29162004cef565b516020810151602681101562002a2357602103620074b2576040015160a081015151620074b25760c081015151620074b25751516200748957600190565b156200755857565b60405162461bcd60e51b815260206004820152600f60248201526e496e76616c69642070726f6772616d60881b6044820152606490fd5b60809060208152602a60208201527f5468652070726f6772616d2069732064656e6965642062792074686520706c7560408201526967696e2073797374656d60b01b60608201520190565b620075e58162015182565b5162014c9357600681101562002a23576003811462014c3a5780620076425760405162461bcd60e51b8152602060048201526016602482015275151a19481c1c9bd9dc985b481a5cc81a5b9d985b1a5960521b6044820152606490fd5b600481036200b0db5750600080611f4a54905b8181106200b094575b5050156200b078575b60005b60209081830151918251821015620076cf57620076c181611f49620076a7620076a162000faa95620067a788620076c99a62004d46565b62033353565b9160018060a01b03885116600052526040600020620242c3565b429162004f8b565b6200766a565b50505060005b60208083015180518310156200771d57620076fa91620067a784620076a19362004d46565b90606482101562004cfd5762007717914290611f4b015562004cdf565b620076d5565b505050906000905b602083015180518310156200b0725782620077409162004d46565b516020810180516026908181101562002a2357156200b02f5781518181101562002a23576001036200798e5750506040809101906200778460c08351015162004cef565b5192620077a660a06200779b818651015162004cef565b519451015162004d13565b5195620077b785518551146202df8a565b620077c685518851146202dff0565b60005b85518110156200790c57620077df818662004d46565b516103e8908181101562004cfd57600160ff6007620078079360031b0154161515146202e052565b62007813828a62004d46565b5162007820838862004d46565b51908282101562004cfd5760066200783e9260031b0154906200608f565b906200784b848962004d46565b51918383101562004cfd576006620078689360031b01556202e0aa565b62007874828a62004d46565b519062007882838862004d46565b518181101562004cfd576001600160a01b039392620078c29160039086620078ab878e62004d46565b5116600052811b016020528760002054906200608f565b620078ce848a62004d46565b519283101562004cfd57600362000faa936200790696620078f0878e62004d46565b5116600052811b0160205287600020556202e109565b620077c9565b5093926200792991929650620079229062032f53565b9262032e37565b945192620079378462002b3f565b60008452600036813760005b835181101562007971578062000faa620079626200796b938762004d46565b51878a62032a46565b62007943565b509450926020925062007985915062004cdf565b91905062007725565b81518181101562002a235760020362007c255750506040809101805192835195620079d3620079c260a08097015162004cef565b519562007446818651015162004d13565b5193875186510362007bd257875184510362007b7e57875185510362007b27575060005b855181101562007b115762007a0d818762004d46565b51906103e8918281101562004cfd5762007a3360ff6007809360031b015416156202e162565b62007a3f828962004d46565b518381101562004cfd5760031b01805460ff1916600117905562007a64818a62004d46565b5162007a71828962004d46565b51908382101562004cfd57600562007a8d9260031b016200571f565b62007a99818662004d46565b5162007aa6828962004d46565b518381101562004cfd5760031b6001015562007ac3818762004d46565b5162007ad0828962004d46565b518381101562004cfd5760031b6002015562007aed818862004d46565b519182101562004cfd576000600662007b0b9360031b015562004cdf565b620079f7565b5095509390506020925062007985915062004cdf565b5162461bcd60e51b815260206004820152603c6024820152600080516020620337ec83398151915260448201527b1b911a5d9a59195b9915d95a59da1d081a5cc81b9bdd08195c5d585b60221b6064820152608490fd5b5162461bcd60e51b81526020600482015260396024820152600080516020620337ec8339815191526044820152781b959bdd1a5b99d41bddd95c881a5cc81b9bdd08195c5d585b603a1b6064820152608490fd5b5162461bcd60e51b81526020600482015260386024820152600080516020620337ec8339815191526044820152771b925b99195e105c9c985e481a5cc81b9bdd08195c5d585b60421b6064820152608490fd5b819593949295518181101562002a235760030362008221575050604084019062007c5460c08351015162004cef565b519362007c6b60a06200779b818651015162004cef565b519362007c80865185511462000fa3620331b7565b62007c93865186511462000fa3620331b7565b60005b865181101562007cfc5762007cac818662004d46565b51906103e882101562004cfd57600362007cf69260018060a01b038b5116600052811b0160205262000faa60406000205462007ce9838a62004d46565b51111562000fa3620332bb565b62007c96565b50909493919460005b855181101562007e305762007d1b818662004d46565b51906103e88083101562004cfd57600360018060a01b0393848c5116600052811b0160205262007d5e60406000205462007d56848962004d46565b5190620050ba565b9062007d6b848a62004d46565b51918383101562004cfd57600362007d9a93878f5116600052811b0160205260406000205562000fa3620332bb565b62007da6828862004d46565b518181101562004cfd576003908462007dc0858c62004d46565b5116600052811b0160205262007de160406000205462006814848962004d46565b62007ded848a62004d46565b519283101562004cfd57600362000faa9362007e2a9662007e0f878e62004d46565b5116600052811b0160205260406000205562000fa362033320565b62007d05565b5091509162007e4762007e4e919695949662032f53565b9562032e37565b926040519462007e5e8662002b78565b6001865260203681880137516001600160a01b031662007e7e8662004cef565b526000905b86518210156200820c5762007e99828862004d46565b516104c05262007eaa855162004e62565b9660009462007eba885162004e62565b610ae0528594865b885181101562007f91578a8962007ef26001600160a01b0362007ee6858462004d46565b51166104c05162032d3b565b158062007f4b575b62007f13575b505062007f0d9062004cdf565b62007ec2565b9862007f409162001ac782859c62007f3762007f0d9760018060a01b039262004d46565b51169262004d46565b9790508a8962007f00565b5050506103e86104c051101562004cfd576001600160a01b0362007f70828b62004d46565b511660005260036104c051811b016020528a89604060002054151562007efa565b509098949897969291939760005b885181101562008033576103e86104c051101562004cfd576001600160a01b0362007fcb828b62004d46565b511660005260036104c051811b016020526040600020541562007ffa575b62007ff49062004cdf565b62007f9f565b9962007ff4906200802a906001600160a01b03620080198e8d62004d46565b511662001ac782610ae05162004d46565b9a905062007fe9565b5098509694939291956104c0516103e8811015806107405262004cfd5760031b60040154966200806e62008068878a62006200565b62004e62565b996000998a6104e0525b6107405162004cfd576104e0518a8110156200812d57620080ad620080ca9160006107405260046104c05160031b0162004f5e565b9054610ae05160039290921b1c6001600160a01b03169062032dea565b15620080e9575b620080df6104e05162004cdf565b6104e05262008078565b99808c62001ac762008126936200810d6104e05160046104c05160031b0162004f5e565b905460039190911b1c6001600160a01b03169262004d46565b99620080d1565b509a939794969299919850946000915b838310620081d257505050506107405162004cfd578051906001600160401b03821162002a9b576020906200817c8360046104c05160031b016200509a565b0160046104c05160031b01600052602060002060005b838110620081b45750505050620081a99062004cdf565b909295919562007e83565b82516001600160a01b03168183015560209092019160010162008192565b6200820590620081fe906001600160a01b03620081f0868662004d46565b511662001ac7828962004d46565b9262004cdf565b916200813d565b91945050620079859194506020925062004cdf565b819593949295518181101562002a2357600403620084a9575050604080920160c0946200826262008256878451015162004cef565b51968351015162004d13565b51946200827960a06200779b818651015162004cef565b51936200828e885188511462000fa3620331b7565b620082a1885185511462000fa3620331b7565b620082b4885186511462000fa3620331b7565b60005b88518110156200831c57620082cd818662004d46565b51906103e882101562004cfd5762008316916003906001600160a01b03620082f6848e62004d46565b5116600052811b0160205262000faa886000205462007ce9838a62004d46565b620082b7565b50909691959294939660005b83518110156200845d576200833e818862004d46565b51906103e8918281101562004cfd576001600160a01b03906003908262008366858a62004d46565b5116600052811b01602052620083878b62007d56848b600020549262004d46565b9062008394848c62004d46565b51918583101562004cfd576003620083cd9385620083b3888d62004d46565b5116600052811b016020528a6000205562000fa3620332bb565b620083d9828a62004d46565b518381101562004cfd5760039082620083f3858b62004d46565b5116600052811b01602052620084148b62006814848b600020549262004d46565b91905062008423838b62004d46565b519384101562004cfd57620084579360039162008441858b62004d46565b5116600052811b01602052876000205562004cdf565b62008328565b50946200848092975062007e4791939450620084799062032f53565b9362032e37565b9260005b835181101562007971578062000faa62007962620084a3938762004d46565b62008484565b8195949593929351908082101562002a23576005918203620084db575050506020919262000faa62007985926202ec1a565b82518181101562002a23576006036200874c575050509060408092016200850760c08251015162004cef565b51946200852960a06200851e818551015162004cef565b519351015162004d13565b51928651835103620086fb578651845103620086af5760005b8751811015620085a75762008558818562004d46565b51906103e882101562004cfd57620085a1916003906001600160a01b0362008581848d62004d46565b5116600052811b0160205262000faa876000205462007ce9838962004d46565b62008542565b509092919260005b87518110156200865b57620085c5818662004d46565b516103e88082101562004cfd576001600160a01b03929160039084620085ec858e62004d46565b5116600052811b016020526200860c886000205462007d56848962004d46565b62008618848a62004d46565b519283101562004cfd57600362000faa9362008655966200863b8f889062004d46565b5116600052811b01602052896000205562000fa3620332bb565b620085af565b50959262008670919250620079229062032f53565b9251946200867e8662002b3f565b60008652600036813760005b835181101562007971578062000faa62007962620086a9938762004d46565b6200868a565b845162461bcd60e51b8152602060048201526030602482015260008051602062033aec83398151915260448201526f1b9d1cc81a5cc81b9bdd08195c5d585b60821b6064820152608490fd5b845162461bcd60e51b815260206004820152603560248201526000805160206203372c8339815191526044820152741b90db185cdcd95cc81a5cc81b9bdd08195c5d585b605a1b6064820152608490fd5b82518181101562002a23576007036200889b575050506040809101936200877860c08651015162004cef565b51926200878a60a08751015162004cef565b5195515191620087a2855188511462000fa3620331b7565b60005b855181101562007b1157620088959062000faa6001600160a01b03826002886200887d8e620088728e620088688f89620087e08a8562004d46565b51166000526200881c896200881481611f409a8b6020526200880e60ff8760002054161562000fa362033288565b62004d46565b519662004d46565b51968a6200885283519b8c96620088338862002a7f565b600188526060602089019860008a528781019b8c52019b8c5262004d46565b51166000526020526000209751151588620057f2565b5115158662005803565b51600185016200571f565b519101556200888d838a62004d46565b5116620066c0565b620087a5565b82519596959394928185101562002a235760089485036200899257505050620088cd60c0604080950151015162004cef565b519360005b85518110156200897d5762008977906001600160a01b0380620088f6838a62004d46565b5116600052611f4090816020526200894c60ff620089236001828c600020541615151462000fa3620331e7565b8262008930868d62004d46565b5116600052836020528960002054891c161562000fa36203324f565b62008958838a62004d46565b51166000526020528560002061010061ff001982541617905562004cdf565b620088d2565b50949093506020925062007985915062004cdf565b80518281101562002a235760090362008a6657505050620089bc60c0604080950151015162004cef565b519360005b85518110156200897d5762008a6090866001600160a01b0380620089e6848462004d46565b511660005262008a396001898362008a1b87611f4097886020526200880e8660ff8097600020541615151462000fa3620331e7565b5116600052846020528a600020548a1c1615151462000fa36203321a565b62008a45838a62004d46565b51166000526020528560002061ff0019815416905562004cdf565b620089c1565b809192939597969450518281101562002a2357600a0362008b445750505060408094019162008aab60a062008aa060c08651015162004cef565b519451015162004cef565b519162008ac0845184511462000fa3620331b7565b60005b8451811015620079715762008b3e906001600160a01b038062008ae7838962004d46565b5116600052611f408060205262008b0e600160ff8c600020541615151462000fa3620331e7565b62008b1a838862004d46565b519162008b28848a62004d46565b5116600052602052600289600020015562004cdf565b62008ac3565b80969496518281101562002a2357600b0362008c125750505060408092019362008b7360c08651015162004cef565b519451519162008b8b865184511462000fa3620331b7565b60005b8651811015620079715762008c0c9062000faa6001600160a01b038062008bb6848c62004d46565b5116600052611f408060205262008bdd600160ff8b600020541615151462000fa3620331e7565b62008be9848962004d46565b519162008bf7858d62004d46565b5116600052602052600188600020016200571f565b62008b8e565b80969394929596518281101562002a2357600c0362008d1257505060400160609182825101519362008c44856202d698565b60005b855181101562008cfc5760c062008c6382878751015162004d46565b5101511562008cbf5762008c8762008c8082878751015162004d46565b5162005cfa565b611f425460001981019190821162001e07578762008ca962008cb99362005cba565b5001805460ff1916905562004cdf565b62008c47565b62008cda62008cd382878751015162004d46565b5162005d46565b611f425460001981019190821162001e07578762008ca962008cb99362005c7a565b5095915093506020925062007985915062004cdf565b809695949396518281101562002a2357600d0362008e3657505060400193602062008d4260a08751015162004cef565b51955101519162008d5786518451146202dd8c565b60005b865181101562007971578062008d7562008de5928662004d46565b511562008deb5762008d9862008d8c828a62004d46565b51611f4254116202de15565b62008dc160ff8762008db662008daf858d62004d46565b5162005cba565b50015416156202de6d565b8562008dd262008daf838b62004d46565b5001805460ff1916600117905562004cdf565b62008d5a565b62008e0762008dfb828a62004d46565b51611f4354116202de15565b62008e2560ff8762008db662008e1e858d62004d46565b5162005c7a565b8562008dd262008e1e838b62004d46565b80518281101562002a2357600e0362008ef457505060400193602062008e6160a08751015162004cef565b51955101519162008e7686518451146202dd8c565b60005b865181101562007971578062008e9462008ea0928662004d46565b5162008ea65762004cdf565b62008e79565b62008ec262008eb6828a62004d46565b51611f4254116202dece565b62008ee360ff8762008ed962008daf858d62004d46565b500154166202df27565b8562008ca962008daf838b62004d46565b809693949596518281101562002a2357600f0362008fbf57505060400160609182825101519362008f25856202d698565b60005b855181101562008cfc5760c062008f4482878751015162004d46565b5101511562008f895762008f6162008c8082878751015162004d46565b611f425460001981019190821162001e07578762008dd262008f839362005cba565b62008f28565b62008f9d62008cd382878751015162004d46565b611f425460001981019190821162001e07578762008dd262008f839362005c7a565b8091929394969550518281101562002a235760100362009064575050604001519062008ff460a0608084015193015162004cef565b519362009009835186511462000fa3620331b7565b60005b835181101562009051578062000faa6200902b6200904b938762004d46565b51620090378162002fc4565b62009043838a62004d46565b51906202d55c565b6200900c565b5093509160209150620079859062004cdf565b80959295518281101562002a2357601103620092ed575050906040809401916200909960a062008aa060c08651015162004cef565b5191620090aa84518451146202d510565b60005b845181101562009122576200911c9062000faa6001600160a01b0380620090d5848a62004d46565b5116600052611f4580602052620090f68b6000205462006814868b62004d46565b91909262009105868c62004d46565b51166000526020528a6000205562000fa36203316d565b620090ad565b509394509162009133915062032e37565b90611f46928354946200914c6200806885518862006200565b91600093845b888110620092ad575060005b865181101562009205576000805b8a8110620091b6575b50156200918e575b620091889062004cdf565b6200915e565b946200918890620091ad906001600160a01b03620081f0898b62004d46565b9590506200917d565b620091c18162004eb6565b90546001600160a01b0360039290921b1c811690620091e1858c62004d46565b511614620091fa57620091f49062004cdf565b6200916c565b505060013862009175565b50965094909350620092178362004e62565b805191906001600160401b03831162002a9b57602090620092388462004ff7565b0190600052602060002060005b8381106200928f575050505060005b8281106200926c575050506200798560209162004cdf565b620092899062000faa6001600160a01b03620019fb838662004d46565b62009254565b82516001600160a01b03168183015560209092019160010162009245565b94620092e0620092e791620092c28862004eb6565b905460039190911b1c6001600160a01b031662001ac7828962004d46565b9562004cdf565b62009152565b80518281101562002a23576012036200955c5750506040809401916200931e60a062008aa060c08651015162004cef565b51916200932f84518451146202d510565b60005b845181101562009381576200937b9062000faa6001600160a01b03806200935a848a62004d46565b5116600052611f4580602052620090f68b6000205462007d56868b62004d46565b62009332565b509491509291620093929062032e37565b90611f468054620093a38162004e62565b9260009485925b808410620094575750505050620093c18362004e62565b805191906001600160401b03831162002a9b57602090620093e28462004ff7565b0190600052602060002060005b83811062009439575050505060005b82811062009416575050506200798560209162004cdf565b620094339062000faa6001600160a01b03620019fb838662004d46565b620093fe565b82516001600160a01b031681830155602090920191600101620093ef565b9297600097929597949194998a5b86518110156200954a576200947a8b62004eb6565b90546001600160a01b0360039290921b1c8116906200949a838a62004d46565b511614620094b357620094ad9062004cdf565b62009465565b509950976001979592979491945b806200951a575b15620094e057620094d99062004cdf565b92620093aa565b9562009513620094d991620094f58962004eb6565b905460039190911b1c6001600160a01b031662001ac7828a62004d46565b9662004cdf565b50620095268162004eb6565b60018060a01b0391549060031b1c16600052611f45602052826000205415620094c8565b509998909897959297949194620094c1565b80959295518281101562002a2357601303620095bd57505060408091015101519260005b8451811015620095ac578062000faa6200959f620095a6938862004d46565b516202f24b565b62009580565b509250906200798560209162004cdf565b8051918083101562002a235760149283036200976057505050604080910190620095ec60c08351015162004cef565b51926200960360a06200779b818651015162004cef565b51956200961485518551146202df8a565b6200962385518851146202dff0565b60005b85518110156200970b576200963c818962004d46565b5162009649828762004d46565b516103e8918282101562004cfd5760066200966a9260031b0154906200608f565b9062009677848962004d46565b51918383101562004cfd576006620096949360031b01556202e0aa565b620096a0828a62004d46565b5190620096ae838862004d46565b518181101562004cfd576001600160a01b039392620096d79160039086620078ab878e62004d46565b620096e3848a62004d46565b519283101562004cfd57600362000faa936200970596620078f0878e62004d46565b62009626565b5093926200972191929650620079229062032f53565b9451926200972f8462002b3f565b60008452600036813760005b835181101562007971578062000faa620079626200975a938762004d46565b6200973b565b819694959396518181101562002a2357601590810362009cd7575050505060408401906200979360c08351015162004cef565b5193620097aa60a06200779b818651015162004cef565b5193620097bf865185511462000fa3620331b7565b620097d2865186511462000fa3620331b7565b60005b86518110156200982e57620097eb818662004d46565b51906103e882101562004cfd576003620098289260018060a01b038b5116600052811b0160205262000faa60406000205462007ce9838a62004d46565b620097d5565b50909493919460005b85518110156200993f576200984d818662004d46565b51906103e88083101562004cfd57600360018060a01b0393848c5116600052811b016020526200988860406000205462007d56848962004d46565b9062009895848a62004d46565b51918383101562004cfd576003620098c493878f5116600052811b0160205260406000205562000fa3620332bb565b620098d0828862004d46565b518181101562004cfd5760039084620098ea858c62004d46565b5116600052811b016020526200990b60406000205462006814848962004d46565b62009917848a62004d46565b519283101562004cfd57600362000faa93620099399662007e0f878e62004d46565b62009837565b5091509162007e4762009956919695949662032f53565b9260405194620099668662002b78565b6001865260203681880137516001600160a01b0316620099868662004cef565b526000905b86518210156200820c57620099a1828862004d46565b516103a052620099b2855162004e62565b96600094620099c2885162004e62565b610580528594865b885181101562009a90578a89620099fa6001600160a01b03620099ee858462004d46565b51166103a05162032d3b565b158062009a4a575b62009a1b575b505062009a159062004cdf565b620099ca565b9862009a3f9162001ac782859c62007f3762009a159760018060a01b039262004d46565b9790508a8962009a08565b5050506103e86103a051101562004cfd576001600160a01b0362009a6f828b62004d46565b511660005260036103a051811b016020528a89604060002054151562009a02565b509098949897969291939760005b885181101562009b32576103e86103a051101562004cfd576001600160a01b0362009aca828b62004d46565b511660005260036103a051811b016020526040600020541562009af9575b62009af39062004cdf565b62009a9e565b9962009af39062009b29906001600160a01b0362009b188e8d62004d46565b511662001ac7826105805162004d46565b9a905062009ae8565b5098509694939291956103a0516103e8811015806105c05262004cfd5760031b600401549662009b6762008068878a62006200565b996000998a610200525b6105c05162004cfd57610200518a81101562009c0d5762009ba662009bc39160006105c05260046103a05160031b0162004f5e565b90546105805160039290921b1c6001600160a01b03169062032dea565b1562009be2575b62009bd86102005162004cdf565b6102005262009b71565b99808c62001ac762009c06936200810d6102005160046103a05160031b0162004f5e565b9962009bca565b509a939794969299919850946000915b83831062009cb257505050506105c05162004cfd578051906001600160401b03821162002a9b5760209062009c5c8360046103a05160031b016200509a565b0160046103a05160031b01600052602060002060005b83811062009c94575050505062009c899062004cdf565b90929591956200998b565b82516001600160a01b03168183015560209092019160010162009c72565b62009cd090620081fe906001600160a01b03620081f0868662004d46565b9162009c1d565b82979496959751918083101562002a2357601692830362009d4457505050505060c0604062009d0a920151015162004cef565b519260005b8451811015620095ac5762009d3e9062000faa6001600160a01b0362009d36838962004d46565b511662006675565b62009d0f565b83518181101562002a235760170362009d9d5760405162461bcd60e51b81526020600482015260296024820152600080516020620339cc8339815191526044820152683632b6b2b73a32b21760b91b6064820152608490fd5b83518181101562002a235760180362009e1057505050505060c0604062009dc8920151015162004cef565b51611fb6805460ff191660011790559260005b8451811015620095ac5762009e0a9062000faa6001600160a01b0362009e02838962004d46565b51166200662a565b62009ddb565b83979697518181101562002a235760190362009f8457505050505060008080604080940160a08082510151805162009f4b575b5050519060e08201519162009e676200680d60c060018060a01b0393015162004cef565b511690602083519301915af1903d1562009f42573d9162009e888362002f5b565b9262009e978351948562002b94565b83523d6000602085013e5b1562009eb75750506200798560209162004cdf565b62004cdb925062009f23815192600080516020620338cc833981519152602085015278039bab1b1b2b9b9b33ab617102932ba3ab937103230ba309d1603d1b8385015283815162009f12816059946020868601910162002e01565b810103603981018552018362002b94565b5162461bcd60e51b815260206004820152918291602483019062002e26565b60609162009ea2565b62009f569062004cef565b515162009f65575b8062009e43565b8192506200680d9062009f7b9251015162004cef565b51903862009f5e565b83518181101562002a2357601a036200a084575050505062009faf60a0604080940151015162004cef565b519062009fc060038351146202d510565b62009fcb8262004cef565b519262009fe462009fdc8462004d13565b519362004d24565b51926200a04a5750509162007985916001602094146000146200a043576200a023906200a016611fb19182546200608f565b90915562000fa362033108565b62000faa611fb26200a03681546200607c565b90915562000fa362033142565b5062004cdf565b60649250519062461bcd60e51b825260206004830152602482015273496e76616c6964207061796d656e74207479706560601b6044820152fd5b909192809450518181101562002a2357601b036200a51957505050505091906200a0c4611faf546200225a6200a0b962033044565b612710831062004cac565b50506200a0d062033108565b506000805b6103e881106200a4a8575b50506200a0ec62006161565b6200a0fa613f745462004e62565b9060009485935b6103e88510156200a49b5760ff60078660031b015416156200a25a5760009560028660031b0154156200a24b57869796975b62004cfd5760048660031b01548810156200a232576200a15b886004600389901b0162004f5e565b600160a01b6001900391549060031b1c1696876000528660031b600301602052604097858960002054906200a1909162005eb0565b99906200a19c62033108565b6200a1a79162004cac565b6000998960031b600201546200a1bd9162005eb0565b91906200a1c962033108565b6200a1d49162004cac565b828b52611f476020528a20908154906200a1ee916200608f565b9091556200a1fb62033108565b6200a2069162004cac565b6200a212828862004d46565b526200a21e9062004cdf565b976200a22a9062004cdf565b97966200a133565b91946200a2429196975062004cdf565b9390946200a101565b91946200a24291965062004cdf565b949592915092505b6200a26d8262004e62565b91600091825b8281106200a40557505050611f48908154926200a29562008068858462006200565b9360009081905b8082106200a3ca57505060005b8381106200a3265750508351939150506001600160401b03831162002a9b576020906200a2d68462004fbc565b0190600052602060002060005b8381106200a3085750505050620079856020916000611fb1556000611fb25562004cdf565b82516001600160a01b0316818301556020909201916001016200a2e3565b6000805b8381106200a382575b50156200a34c575b6200a3469062004cdf565b6200a2a9565b906200a346906200a379906001600160a01b036200a36b858762004d46565b511662001ac7828a62004d46565b9190506200a33b565b6001600160a01b03806200a397858862004d46565b5116906200a3a6838b62004d46565b5116146200a3bf576200a3b99062004cdf565b6200a32a565b50506001386200a333565b9091620081fe6200a3fe916200a3e08562004e9a565b905460039190911b1c6001600160a01b031662001ac7828b62004d46565b906200a29c565b6000805b8581106200a453575b50156200a42b575b6200a4259062004cdf565b6200a273565b926200a425906200a44a906001600160a01b03620081f0878662004d46565b9390506200a41a565b6001600160a01b03806200a468858762004d46565b5116906200a477838a62004d46565b5116146200a490576200a48a9062004cdf565b6200a409565b50506001386200a412565b949592915092506200a262565b806003959394951b9060ff600783015416156200a50e576200a4f86200746162000faa946200a4ec6200a5049560026200a4e28762005e1c565b9101549062005eb0565b929062000fa362033108565b939062000fa362033108565b939291936200a0d5565b50939291936200a0e0565b83518181101562002a2357601c036200a5725760405162461bcd60e51b8152602060048201526029602482015260008051602062033acc8339815191526044820152683632b6b2b73a32b21760b91b6064820152608490fd5b83518181101562002a2357601d036200a598575b50505050506200798560209162004cdf565b839795969497518181101562002a2357601e036200ae665750505050604084019060a0906200a5cb828451015162004cef565b51516200a5dc838551015162004d13565b5151036200ade9576200a5f3828451015162004cef565b51516200a604838551015162004d24565b5151036200ad6d576200a61b828451015162004cef565b51946200a62c838551015162004d13565b51916200a65d6200a641858751015162004d24565b51946200a652818851015162004cef565b519651015162004d13565b519585518751036200ad0a5760005b86518110156200a6c5576200a682818862004d46565b51906103e882101562004cfd5760036200a6bf9260018060a01b038d5116600052811b0160205262000faa60406000205462007ce9838c62004d46565b6200a66c565b5090969192939660005b86518110156200a76e576200a6e5818862004d46565b516103e881101562004cfd5760039060018060a01b038c5116600052811b016020526200a71d60406000205462007d56838b62004d46565b91906200a72b828a62004d46565b51906103e882101562004cfd576200a76893600362000faa938f60018060a01b03905116600052811b0160205260406000205562000fa3620332bb565b6200a6cf565b5093979550936200a7829096929662032f53565b96604051966200a7928862002b78565b60018852602036818a013786516001600160a01b03166200a7b38962004cef565b52604051966200a7c38862002b3f565b600088526000610460525b895161046051908110156200ab8b576200a7e9908b62004d46565b51610520526200a7fa885162004e62565b996000976200a80a8b5162004e62565b610920528897895b8b518110156200a8d8578d8c6200a8426001600160a01b036200a836858462004d46565b51166105205162032d3b565b15806200a892575b6200a863575b50506200a85d9062004cdf565b6200a812565b9b6200a8879162001ac782859f62007f376200a85d9760018060a01b039262004d46565b9a90508d8c6200a850565b5050506103e861052051101562004cfd576001600160a01b036200a8b7828e62004d46565b5116600052600361052051811b016020528d8c60406000205415156200a84a565b50909b989a99949691929395979b60005b8b518110156200a97d576103e861052051101562004cfd576001600160a01b036200a915828e62004d46565b5116600052600361052051811b01602052604060002054156200a944575b6200a93e9062004cdf565b6200a8e9565b9c6200a9746200a93e918f6200a9638f9160018060a01b039262004d46565b511662001ac7826109205162004d46565b9d90506200a933565b509a9b509895969193969490929461052051996103e88b10159b8c62004cfd578d9b60031b600401549d6200a9b3908f62006200565b6200a9be9062004e62565b6103205260006108c0528c6000610640525b62004cfd57610640519c8e8e10156200aa8e57506200aa1c6200a9ff60009e60046105205160031b0162004f5e565b90546109205160039290921b1c6001600160a01b03169062032dea565b156200aa3c575b8c6200aa326106405162004cdf565b610640526200a9d0565b6200aa546106405160046105205160031b0162004f5e565b60018060a01b0391549060031b1c166200aa756108c0516103205162004d46565b526200aa846108c05162004cdf565b6108c0526200aa23565b939d509396999094979b50999094979960005b8281106200ab3f5750505062004cfd5761032051516001600160401b03811162002a9b576200aada8160046105205160031b016200509a565b602061032051019060046105205160031b0160005260206000209160005b8281106200ab2157505050506200ab126104605162004cdf565b6104605295989094986200a7ce565b81516001600160a01b0316818501556020909101906001016200aaf8565b6200ab85906001600160a01b036200ab58828562004d46565b51166200ab6c6108c0516103205162004d46565b526200ab7b6108c05162004cdf565b6108c05262004cdf565b6200aaa1565b5094929750929750939450600094855b87518110156200ac0b576200abce6200abc66200abb9838962004d46565b5162007451848d62004d46565b91906202f07a565b806200abe7575b506200abe19062004cdf565b6200ab9b565b906200abfc6200ac04986200abe1936200608f565b98906202f0c7565b906200abd5565b509650945092909150806200ac2f575b5050620079856020915b913880806200a586565b6200ac629060018060a01b038351166000526200ac5a611f459182602052604060002054906200608f565b92906202f120565b60018060a01b03835116600052602052604060002055600080611f4654905b8181106200acc0575b5050916200798591602093156200aca4575b50916200ac1b565b516200acb9906001600160a01b0316620065d6565b386200ac9c565b6200accb8162004eb6565b9054855160039290921b1c6001600160a01b039081169116146200acfa576200acf49062004cdf565b6200ac81565b506001915082905060206200ac8a565b60405162461bcd60e51b815260206004820152603560248201527f546865206c656e677468206f6620746f6b656e436c61737320616e6420746f6b604482015274195b905b5bdd5b9d081a5cc81b9bdd08195c5d585b605a1b6064820152608490fd5b60405162461bcd60e51b81526020600482015260596024820152600080516020620339ec83398151915260448201527f642070726963654172726179206973206e6f7420657175616c2061742042415460648201527810d217d095549397d513d2d15394d7d0539117d49151955391603a1b608482015260a490fd5b60405162461bcd60e51b815260206004820152605a6024820152600080516020620339ec83398151915260448201527f6420616d6f756e744172726179206973206e6f7420657175616c2061742042416064820152791510d217d095549397d513d2d15394d7d0539117d4915195539160321b608482015260a490fd5b839794969597518181101562002a2357601f036200aeaa57505050506020916200aea46200ae9d6040620079859401515162004cef565b516202f281565b6200ac25565b83518181101562002a23576020036200aed0575b5050505050620079856020916200ac25565b83518181101562002a235760218091036200aeed575b506200aebe565b8451828110156200b01a576022036200af2d5750505050505062007985602091611fb660ff1981541690556200af2262005087565b91388080806200aee6565b8451828110156200b01a576023036200af54575b505050505050620079856020916200af22565b845194828610156200b01a5760248096036200af72575b506200af41565b8051838110156200b006576025146200af6b5751918210156200aff25750036200afb65750506020916200afaa62007985926202e1ae565b9138808080806200af6b565b60405162461bcd60e51b8152602060048201529182015275496e76616c6964206f7065726174696f6e207479706560501b604482015260649150fd5b8490634e487b7160e01b6000526004526000fd5b8683634e487b7160e01b6000526004526000fd5b50634e487b7160e01b60005260045260246000fd5b60405162461bcd60e51b815260206004820152601b60248201527a13dc195c985d1a5bdb881d1e5c19481a5cc81d5b9919599a5b9959602a1b6044820152606490fd5b50915050565b80516200b08e906001600160a01b031662006600565b62007667565b6200b09f8162004f0a565b9054855160039290921b1c6001600160a01b039081169116146200b0ce576200b0c89062004cdf565b62007655565b505050600138806200765e565b600281036200b0ff5760405162461bcd60e51b81528062004cdb600482016200758f565b6001146200b10a5750565b6200b118611f43546200530f565b805190600160401b821162002a9b57613efb5482613efb5580831062014bbf575b50602001613efb60005260206000206000915b83831062014b9e575050505060005b611f43548110156200b194578062000faa6200b17b6200b18e9362005c7a565b506200b1878362005c9a565b90620150c9565b6200b15b565b506200b1a3611f42546200530f565b805190600160401b821162002a9b57613efa5482613efa5580831062014b02575b50602001613efa60005260206000206000915b83831062014ae1575050505060005b611f42548110156200b218578062000faa6200b2066200b2129362005cba565b506200b1878362005cda565b6200b1e6565b5060005b6103e8811015806200b3c957600160ff611fbf8460031b0154161515146200b251575b506200b24b9062004cdf565b6200b21c565b916000835b62004cfd57611fbc8360031b01548110156200b2c0576200b2b7929350600092816200b28b8593611fbc8860031b0162004f5e565b9054600391821b1c6001600160a01b031660009081529087901b611fbb01602052604081205562004cdf565b9093926200b256565b5091604051906200b2d18262002b3f565b6000825262004cfd578051906001600160401b03821162002a9b576020906200b30283611fbc8660031b016200509a565b01611fbc8360031b01600052602060002060005b8381106200b3ab57505050611fbf600383901b908101805460ff191690556000611fb88201819055611fb98201819055611fba8201819055611fbd90910180546200b24b9493506200b3689062002c79565b601f908181116200b389575b5050556000611fbe8260031b0155906200b23f565b6200b3a39183855260208520910160051c81019062004fa3565b38806200b374565b82516001600160a01b0316818301556020909201916001016200b316565b505060005b6103e8811062014a53575060005b611f41548110156200b43757806200b3f86200b4319262004ed2565b60018060a01b0391549060031b1c16600052613ef860205260006002604082208281556200b4296001820162005399565b015562004cdf565b6200b3dc565b506200b446611f415462004e62565b8051906001600160401b03821162002a9b57600160401b821162002a9b57602090613ef95483613ef95580841062014a31575b5001613ef9600052602060002060005b83811062014a13575050505060005b611f41548110156200b50a576200b4af8162004ed2565b9054613ef95460039290921b1c6001600160a01b0316919081101562004cfd57613ef96000526000805160206203398c833981519152810180546001600160a01b0319169092179091556200b5049062004cdf565b6200b498565b509060005b611f41548110156200b5c957806200b52b6200b57e9262004ed2565b9060018060a01b03918291549060031b1c16600052611f40602052604080600020916200b5588462004ed2565b90549060031b1c16600052613ef8602052600020908082036200b584575b505062004cdf565b6200b50f565b600280916200b5aa60ff6200b59d8184541687620057f2565b825460081c168562005803565b6200b5bc600182016001860162014d65565b015491015538806200b576565b5060005b613f02548110156200b61b57806200b5e96200b6159262004eee565b60018060a01b0391549060031b1c16600052613f0160205262000faa6040600020606481019062004fa3565b6200b5cd565b506200b62a611f4a5462004e62565b8051906001600160401b03821162002a9b57600160401b821162002a9b57602090613f025483613f0255808410620149f1575b5001613f02600052602060002060005b838110620149d3575050505060005b611f4a548110156200b6bf578062000faa6200b69c6200b6b99362004f0a565b905460039190911b1c6001600160a01b031662001a088362004eee565b6200b67c565b5060005b611f4a548110156200b74a57806200b6df6200b7319262004f0a565b9060018060a01b03918291549060031b1c16600052611f49602052604080600020916200b70c8462004f0a565b90549060031b1c16600052613f01602052600020908082036200b73757505062004cdf565b6200b6c3565b6200b742916201514b565b38806200b576565b50611f4b80546000905b60648210620149ba575050611faf54613f675550611fb054613f6855611fb154613f6955611fb254613f6a55611fb3546001600160401b03811162002a9b57600160401b811162002a9b57613f6b5481613f6b558082106201498c575b50613f6b60009081527f0c040229f6fc4874d4176ee508a0872dc89a48e51cc9b61a792006f29e06275480546000805160206203376c83398151915291905b8484106201496a575050505050611fb454600160401b811162002a9b57613f6c5481613f6c5580821062014928575b50613f6c6000908152600080516020620337ac8339815191527fcdf85548d0b3537a0f46212d2994f9493fe1dfa88d3af4ddb0cac3c506fd3f595b8383106201490a575050611fb5549150506001600160401b03811162002a9b57600160401b811162002a9b57613f6d5481613f6d55808210620148dc575b50613f6d60009081527f70c3d981fef3a436e3d026045c487f2278cccbfa7f9e11fbd3c1406b0017bd5d80546000805160206203396c83398151915291905b848410620148ba57505050505060ff611fb65416151560ff8019613f6e5416911617613f6e5560005b613efe548110156200b94a57806200b91c6200b9449262004f26565b905460039190911b1c6001600160a01b03166000908152613efd602052604081205562004cdf565b6200b900565b506200b959611f465462004e62565b8051906001600160401b03821162002a9b576020906200b9798362005041565b01613efe600052602060002060005b8381106201489c575050505060005b611f46548110156200b9da578062000faa6200b9b76200b9d49362004eb6565b905460039190911b1c6001600160a01b031662001a088362004f26565b6200b997565b5060005b611f46548110156200ba4957806200b9fa6200ba439262004eb6565b9060018060a01b03918291549060031b1c16600052611f4560205260408060002054916200ba288462004eb6565b90549060031b1c16600052613efd6020526000205562004cdf565b6200b9de565b5060005b613f00548110156200ba9757806200ba696200ba919262004f42565b905460039190911b1c6001600160a01b03166000908152613eff602052604081205562004cdf565b6200ba4d565b506200baa6611f485462004e62565b8051906001600160401b03821162002a9b576020906200bac68362005064565b01613f00600052602060002060005b8381106201487e575050505060005b611f48548110156200bb27578062000faa6200bb046200bb219362004e9a565b905460039190911b1c6001600160a01b031662001a088362004f42565b6200bae4565b5060005b611f48548110156200bb9657806200bb476200bb909262004e9a565b9060018060a01b03918291549060031b1c16600052611f4760205260408060002054916200bb758462004e9a565b90549060031b1c16600052613eff6020526000205562004cdf565b6200bb2b565b50613f02546000805b82811062014839575b501562014803575b5060005b60208301519081518110156200bc0c5762000faa620076c16200bbe6620076a16020620067a7866200bc069862004d46565b86516001600160a01b03166000908152613f0160205260409020620242c3565b6200bbb4565b505060005b602083015180518210156200bc5957620076a16020620067a7846200bc369462004d46565b90606482101562004cfd576200bc53914290613f03015562004cdf565b6200bc11565b5050906000905b6020810151805183101562010f2357826200bc7b9162004d46565b516020810151602681101562002a2357156200b02f576020810151602681101562002a23576001036200c24d57604001906200bcbc60c08351015162004cef565b51936200bcd360a06200779b818651015162004cef565b51916200bce486518551146202df8a565b6200bcf386518451146202dff0565b60005b86518110156200be51576200bd0c818662004d46565b516103e881101562004cfd57600160ff611fbf6200bd339360031b0154161515146202e052565b6200bd3f818562004d46565b516200bd4c828762004d46565b51906103e882101562004cfd57611fbe6200bd6d9260031b0154906200608f565b906200bd7a838862004d46565b51916103e883101562004cfd57611fbe6200bd9a9360031b01556202e0aa565b6200bda6818562004d46565b516200bdb3828762004d46565b51906103e882101562004cfd576200bdf691611fbb906001600160a01b036200bddd868d62004d46565b511660005260031b01602052604060002054906200608f565b91906200be04828862004d46565b51906103e882101562004cfd576200be4b9362000faa92611fbb906001600160a01b036200be33878f62004d46565b511660005260031b016020526040600020556202e109565b6200bcf6565b50926200be68919250620084799095949562032f53565b916040516200be778162002b3f565b6000815260003681376000945b80518610156200c233576200be9a868262004d46565b516102c0526200beab855162004e62565b966000946200bebb845162004e62565b6105a05260009460005b88518110156200bf8d578a896200bef56001600160a01b036200bee9858462004d46565b51166102c05162032d92565b15806200bf45575b6200bf16575b50506200bf109062004cdf565b6200bec5565b986200bf3a9162001ac782859c62007f376200bf109760018060a01b039262004d46565b9790508a896200bf03565b5050506103e86102c051101562004cfd576001600160a01b036200bf6a828b62004d46565b5116600052611fbb6102c05160031b016020528a8960406000205415156200befd565b50909895979498969291939660005b88518110156200c02b576103e86102c051101562004cfd576001600160a01b03806200bfc9838c62004d46565b5116600052611fbb6102c05160031b01602052604060002054156200bffb575b506200bff59062004cdf565b6200bf9c565b819b6200c023916200c0126200bff5948d62004d46565b511662001ac7826105a05162004d46565b9a906200bfe9565b509850969592919093966102c0516103e8811015806103e05262004cfd5760031b611fbc0154986200c06262008068898c62006200565b6108a0526000610a80526000610ac0525b6103e05162004cfd57610ac0518a8110156200c13c576200c0a96200c0c99160006103e052611fbc6102c05160031b0162004f5e565b90546105a0516001600160a01b03939260031b9190911c83169062032dea565b156200c0e9575b506200c0df610ac05162004cdf565b610ac0526200c073565b60006103e0526200c108610ac051611fbc6102c05160031b0162004f5e565b90549060031b1c166200c122610a80516108a05162004d46565b526200c131610a805162004cdf565b610a8052386200c0d0565b50979294959093985095909560005b8281106200c1e7575050506103e05162004cfd576108a051516001600160401b03811162002a9b576200c18981611fbc6102c05160031b016200509a565b60206108a05101611fbc6102c05160031b01600052602060002060005b8381106200c1c957505050506200c1bd9062004cdf565b9492959091956200be84565b82516001600160a01b0316818301556020909201916001016200c1a6565b6200c22d906001600160a01b036200c200828562004d46565b51166200c214610a80516108a05162004d46565b526200c223610a805162004cdf565b610a805262004cdf565b6200c14b565b5050939092506200c245915062004cdf565b90916200bc60565b906020829493940151602681101562002a23576002036200c404576040809201908151938451916200c2a46200c28860a08098015162004cef565b51966200c299818751015162004d13565b519551015162004d24565b5194835187510362007bd257835185510362007b7e57835186510362007b27575060005b86518110156200c3f1576200c2de818862004d46565b516103e881101562004cfd5760ff611fbf6200c3019260031b015416156202e162565b6200c30d818862004d46565b516103e881101562004cfd5760031b611fbf01805460ff191660011790556200c337818562004d46565b516200c344828962004d46565b51906103e882101562004cfd57611fbd6200c3639260031b016200571f565b6200c36f818662004d46565b516200c37c828962004d46565b516103e881101562004cfd5760031b611fb901556200c39c818762004d46565b516200c3a9828962004d46565b516103e881101562004cfd5760031b611fba01556200c3c9818862004d46565b51906103e882101562004cfd576000611fbe6200c3eb9360031b015562004cdf565b6200c2c8565b509592509350506200c245915062004cdf565b9092916020840151602681101562002a23576003036200ca2a5760408401906200c43360c08351015162004cef565b51906200c44a60a06200779b818651015162004cef565b51936200c45f835185511462000fa3620331b7565b6200c472835186511462000fa3620331b7565b60005b83518110156200c4d0576200c48b818662004d46565b51906103e882101562004cfd57611fbb6200c4ca9260018060a01b038b511660005260031b0160205262000faa60406000205462007ce9838a62004d46565b6200c475565b509095919560005b87518110156200c61e576200c4ee818662004d46565b516103e881101562004cfd57611fbb9060018060a01b0386511660005260031b016020526200c52860406000205462007d56838962004d46565b906200c535838862004d46565b51916103e883101562004cfd57611fbb6200c56e9360018060a01b0389511660005260031b0160205260406000205562000fa3620332bb565b6200c57a818662004d46565b516103e881101562004cfd57611fbb906001600160a01b036200c59e848c62004d46565b511660005260031b016020526200c5c060406000205462006814838962004d46565b91906200c5ce828862004d46565b51906103e882101562004cfd576200c61893611fbb62000faa938d6200c5fc8760018060a01b039262004d46565b511660005260031b0160205260406000205562000fa362033320565b6200c4d8565b50926200c63d919294506200c6369096959662032f53565b9462032e37565b92604051906200c64d8262002b78565b6001825260203681840137516001600160a01b03166200c66d8262004cef565b526000945b80518610156200c233576200c688868262004d46565b51610220526200c699855162004e62565b966000946200c6a9845162004e62565b6104005260009460005b88518110156200c77b578a896200c6e36001600160a01b036200c6d7858462004d46565b51166102205162032d92565b15806200c733575b6200c704575b50506200c6fe9062004cdf565b6200c6b3565b986200c7289162001ac782859c62007f376200c6fe9760018060a01b039262004d46565b9790508a896200c6f1565b5050506103e861022051101562004cfd576001600160a01b036200c758828b62004d46565b5116600052611fbb6102205160031b016020528a8960406000205415156200c6eb565b50909895979498969291939660005b88518110156200c820576103e861022051101562004cfd576001600160a01b036200c7b6828b62004d46565b5116600052611fbb6102205160031b01602052604060002054156200c7e7575b6200c7e19062004cdf565b6200c78a565b996200c7e1906200c817906001600160a01b036200c8068e8d62004d46565b511662001ac7826104005162004d46565b9a90506200c7d6565b50985096959291909396610220516103e8811015806104a05262004cfd5760031b611fbc0154986200c85762008068898c62006200565b6103c0526000610a40526000610540525b6104a05162004cfd57610540518a8110156200c933576200c89e6200c8bb9160006104a052611fbc6102205160031b0162004f5e565b90546104005160039290921b1c6001600160a01b03169062032dea565b156200c8da575b6200c8d06105405162004cdf565b610540526200c868565b60006104a0526200c8f961054051611fbc6102205160031b0162004f5e565b60018060a01b0391549060031b1c166200c91a610a40516103c05162004d46565b526200c929610a405162004cdf565b610a40526200c8c2565b50979294959093985095909560005b8281106200c9de575050506104a05162004cfd576103c051516001600160401b03811162002a9b576200c98081611fbc6102205160031b016200509a565b60206103c05101611fbc6102205160031b01600052602060002060005b8381106200c9c057505050506200c9b49062004cdf565b9492959091956200c672565b82516001600160a01b0316818301556020909201916001016200c99d565b6200ca24906001600160a01b036200c9f7828562004d46565b51166200ca0b610a40516103c05162004d46565b526200ca1a610a405162004cdf565b610a405262004cdf565b6200c942565b90926020810151602681101562002a23576004036200d0575760400160c0936200ca686200ca5c868451015162004cef565b51958351015162004d13565b51906200ca7f60a06200779b818651015162004cef565b51936200ca94875184511462000fa3620331b7565b6200caa7875185511462000fa3620331b7565b6200caba875186511462000fa3620331b7565b60005b87518110156200cb25576200cad3818662004d46565b51906103e882101562004cfd576200cb1f91611fbb906001600160a01b036200cafd848d62004d46565b511660005260031b0160205262000faa60406000205462007ce9838a62004d46565b6200cabd565b509095919593929360005b83518110156200cc88576200cb46818762004d46565b516103e881101562004cfd57611fbb906001600160a01b036200cb6a848862004d46565b511660005260031b016020526200cb8c60406000205462007d56838862004d46565b906200cb99838962004d46565b51916103e883101562004cfd576200cbdf92611fbb906001600160a01b036200cbc3878b62004d46565b511660005260031b0160205260406000205562000fa3620332bb565b6200cbeb818762004d46565b516103e881101562004cfd57611fbb906001600160a01b036200cc0f848c62004d46565b511660005260031b016020526200cc3160406000205462006814838862004d46565b9190506200cc40818862004d46565b51916103e883101562004cfd576200cc8292611fbb906001600160a01b036200cc6a858e62004d46565b511660005260031b0160205260406000205562004cdf565b6200cb30565b5091936200cca491935062007e47620084799197969762032f53565b6000945b80518610156200c233576200ccbe868262004d46565b51610280526200cccf855162004e62565b966000946200ccdf845162004e62565b6107005260009460005b88518110156200cdb1578a896200cd196001600160a01b036200cd0d858462004d46565b51166102805162032d92565b15806200cd69575b6200cd3a575b50506200cd349062004cdf565b6200cce9565b986200cd5e9162001ac782859c62007f376200cd349760018060a01b039262004d46565b9790508a896200cd27565b5050506103e861028051101562004cfd576001600160a01b036200cd8e828b62004d46565b5116600052611fbb6102805160031b016020528a8960406000205415156200cd21565b50909895979498969291939660005b88518110156200ce4f576103e861028051101562004cfd576001600160a01b03806200cded838c62004d46565b5116600052611fbb6102805160031b01602052604060002054156200ce1f575b506200ce199062004cdf565b6200cdc0565b819b6200ce47916200ce366200ce19948d62004d46565b511662001ac7826107005162004d46565b9a906200ce0d565b50985096959291909396610280516103e881101580610a005262004cfd5760031b611fbc0154986200ce8662008068898c62006200565b610260526000610780526000610620525b610a005162004cfd57610620518a8110156200cf60576200cecd6200ceed916000610a0052611fbc6102805160031b0162004f5e565b9054610700516001600160a01b03939260031b9190911c83169062032dea565b156200cf0d575b506200cf036106205162004cdf565b610620526200ce97565b6000610a00526200cf2c61062051611fbc6102805160031b0162004f5e565b90549060031b1c166200cf46610780516102605162004d46565b526200cf556107805162004cdf565b61078052386200cef4565b50979294959093985095909560005b8281106200d00b57505050610a005162004cfd5761026051516001600160401b03811162002a9b576200cfad81611fbc6102805160031b016200509a565b60206102605101611fbc6102805160031b01600052602060002060005b8381106200cfed57505050506200cfe19062004cdf565b9492959091956200cca8565b82516001600160a01b0316818301556020909201916001016200cfca565b6200d051906001600160a01b036200d024828562004d46565b51166200d038610780516102605162004d46565b526200d0476107805162004cdf565b6107805262004cdf565b6200cf6f565b92906020840151602681101562002a23576005036200d5b15760408401906200d08a60a06200851e818551015162004cef565b519282518451036200ad0a5760005b83518110156200d0f4576200d0af818562004d46565b51906103e882101562004cfd57611fbb6200d0ee9260018060a01b038a511660005260031b0160205262000faa60406000205462007ce9838962004d46565b6200d099565b509060005b83518110156200d19b576200d10f818562004d46565b516103e881101562004cfd57611fbb9060018060a01b0389511660005260031b016020526200d14960406000205462007d56838862004d46565b91906200d157828762004d46565b51906103e882101562004cfd576200d19593611fbb62000faa9360018060a01b038d511660005260031b0160205260406000205562000fa3620332bb565b6200d0f9565b50916200d1ac919495935062032f53565b92604051926200d1bc8462002b78565b6001845260203681860137516001600160a01b03166200d1dc8462004cef565b52604051926200d1ec8462002b3f565b6000845260003681376000945b80518610156200c233576200d20f868262004d46565b516107c0526200d220855162004e62565b966000946200d230845162004e62565b6102405260009460005b88518110156200d302578a896200d26a6001600160a01b036200d25e858462004d46565b51166107c05162032d92565b15806200d2ba575b6200d28b575b50506200d2859062004cdf565b6200d23a565b986200d2af9162001ac782859c62007f376200d2859760018060a01b039262004d46565b9790508a896200d278565b5050506103e86107c051101562004cfd576001600160a01b036200d2df828b62004d46565b5116600052611fbb6107c05160031b016020528a8960406000205415156200d272565b50909895979498969291939660005b88518110156200d3a7576103e86107c051101562004cfd576001600160a01b036200d33d828b62004d46565b5116600052611fbb6107c05160031b01602052604060002054156200d36e575b6200d3689062004cdf565b6200d311565b996200d368906200d39e906001600160a01b036200d38d8e8d62004d46565b511662001ac7826102405162004d46565b9a90506200d35d565b509850969592919093966107c0516103e8811015806109e05262004cfd5760031b611fbc0154986200d3de62008068898c62006200565b610560526000610420526000610480525b6109e05162004cfd57610480518a8110156200d4ba576200d4256200d4429160006109e052611fbc6107c05160031b0162004f5e565b90546102405160039290921b1c6001600160a01b03169062032dea565b156200d461575b6200d4576104805162004cdf565b610480526200d3ef565b60006109e0526200d48061048051611fbc6107c05160031b0162004f5e565b60018060a01b0391549060031b1c166200d4a1610420516105605162004d46565b526200d4b06104205162004cdf565b610420526200d449565b50979294959093985095909560005b8281106200d565575050506109e05162004cfd5761056051516001600160401b03811162002a9b576200d50781611fbc6107c05160031b016200509a565b60206105605101611fbc6107c05160031b01600052602060002060005b8381106200d54757505050506200d53b9062004cdf565b9492959091956200d1f9565b82516001600160a01b0316818301556020909201916001016200d524565b6200d5ab906001600160a01b036200d57e828562004d46565b51166200d592610420516105605162004d46565b526200d5a16104205162004cdf565b6104205262004cdf565b6200d4c9565b926020810151602681101562002a23576006036200db9a576040016200d5dc60c08251015162004cef565b51936200d5f360a06200851e818551015162004cef565b519285518351036200db485785518451036200dafb5760005b86518110156200d674576200d622818562004d46565b51906103e882101562004cfd576200d66e91611fbb906001600160a01b036200d64c848c62004d46565b511660005260031b0160205262000faa60406000205462007ce9838962004d46565b6200d60c565b509060005b86518110156200d718576200d68f818562004d46565b516103e881101562004cfd57611fbb906001600160a01b036200d6b3848b62004d46565b511660005260031b016020526200d6d560406000205462007d56838862004d46565b91906200d6e3828762004d46565b51906103e882101562004cfd576200d7129362000faa92611fbb906001600160a01b036200cbc3878f62004d46565b6200d679565b50916200d72f919350620084799095949562032f53565b91604051926200d73f8462002b3f565b6000845260003681376000945b80518610156200c233576200d762868262004d46565b51610aa0526200d773855162004e62565b966000946200d783845162004e62565b6109c05260009460005b88518110156200d855578a896200d7bd6001600160a01b036200d7b1858462004d46565b5116610aa05162032d92565b15806200d80d575b6200d7de575b50506200d7d89062004cdf565b6200d78d565b986200d8029162001ac782859c62007f376200d7d89760018060a01b039262004d46565b9790508a896200d7cb565b5050506103e8610aa051101562004cfd576001600160a01b036200d832828b62004d46565b5116600052611fbb610aa05160031b016020528a8960406000205415156200d7c5565b50909895979498969291939660005b88518110156200d8f3576103e8610aa051101562004cfd576001600160a01b03806200d891838c62004d46565b5116600052611fbb610aa05160031b01602052604060002054156200d8c3575b506200d8bd9062004cdf565b6200d864565b819b6200d8eb916200d8da6200d8bd948d62004d46565b511662001ac7826109c05162004d46565b9a906200d8b1565b50985096959291909396610aa0516103e8811015806102e05262004cfd5760031b611fbc0154986200d92a62008068898c62006200565b6109a05260006102a05260006107e0525b6102e05162004cfd576107e0518a8110156200da04576200d9716200d9919160006102e052611fbc610aa05160031b0162004f5e565b90546109c0516001600160a01b03939260031b9190911c83169062032dea565b156200d9b1575b506200d9a76107e05162004cdf565b6107e0526200d93b565b60006102e0526200d9d06107e051611fbc610aa05160031b0162004f5e565b90549060031b1c166200d9ea6102a0516109a05162004d46565b526200d9f96102a05162004cdf565b6102a052386200d998565b50979294959093985095909560005b8281106200daaf575050506102e05162004cfd576109a051516001600160401b03811162002a9b576200da5181611fbc610aa05160031b016200509a565b60206109a05101611fbc610aa05160031b01600052602060002060005b8381106200da9157505050506200da859062004cdf565b9492959091956200d74c565b82516001600160a01b0316818301556020909201916001016200da6e565b6200daf5906001600160a01b036200dac8828562004d46565b51166200dadc6102a0516109a05162004d46565b526200daeb6102a05162004cdf565b6102a05262004cdf565b6200da13565b60405162461bcd60e51b8152602060048201526030602482015260008051602062033aec83398151915260448201526f1b9d1cc81a5cc81b9bdd08195c5d585b60821b6064820152608490fd5b60405162461bcd60e51b815260206004820152603560248201526000805160206203372c8339815191526044820152741b90db185cdcd95cc81a5cc81b9bdd08195c5d585b605a1b6064820152608490fd5b602081949293940151602681101562002a23576007036200dd3557604001916200dbc960c08451015162004cef565b51916200dbdb60a08551015162004cef565b51935151916200dbf3845186511462000fa3620331b7565b60005b84518110156200dd23576001600160a01b03806200dc15838862004d46565b5116600052613ef8806020526200dc3960ff604060002054161562000fa362033288565b60026200dc47848862004d46565b516200dcb16200dc58868c62004d46565b5191620088728b604051966200dc6e8862002a7f565b60018852886200dc958b60208b01946000865260408c0197885260608c01998a5262004d46565b51166000526020526200886860406000209751151588620057f2565b519101556200dcc1828762004d46565b51613ef954929116600160401b83101562002a9b576001830180613ef95583101562004cfd57613ef96000526000805160206203398c83398151915290920180546001600160a01b0319169092179091556200dd1d9062004cdf565b6200dbf6565b5094915092506200c245915062004cdf565b6020810151602681101562002a23576008036200de235760c060406200dd5f920151015162004cef565b519160005b83518110156200de14576200de0e906001600160a01b03806200dd88838862004d46565b5116600052613ef890816020526200ddb1600160ff6040600020541615151462000fa3620331e7565b806200ddbe848962004d46565b5116600052816020526200dde260ff60406000205460081c161562000fa36203324f565b6200ddee838862004d46565b5116600052602052604060002061010061ff001982541617905562004cdf565b6200dd64565b50926200c24591925062004cdf565b6020810151602681101562002a23576009036200df025760c060406200de4d920151015162004cef565b519160005b83518110156200de14576200defc906001600160a01b03806200de76838862004d46565b5116600052613ef890816020526200de9f600160ff6040600020541615151462000fa3620331e7565b806200deac848962004d46565b5116600052816020526200ded4600160ff60406000205460081c1615151462000fa36203321a565b6200dee0838862004d46565b5116600052602052604060002061ff0019815416905562004cdf565b6200de52565b6020810151602681101562002a2357600a036200dfea57604001906200df3e60a06200df3360c08551015162004cef565b519351015162004cef565b51926200df53835185511462000fa3620331b7565b60005b83518110156200dfd9576200dfd3906001600160a01b03806200df7a838862004d46565b5116600052613ef8806020526200dfa2600160ff6040600020541615151462000fa3620331e7565b6200dfae838962004d46565b51916200dfbc848962004d46565b511660005260205260026040600020015562004cdf565b6200df56565b50939092506200c245915062004cdf565b602081949392940151602681101562002a2357600b036200e0ca57604001926200e01960c08551015162004cef565b51935151916200e031855184511462000fa3620331b7565b60005b85518110156200e0ba576200e0b49062000faa6001600160a01b03806200e05c848b62004d46565b5116600052613ef8806020526200e084600160ff6040600020541615151462000fa3620331e7565b6200e090848962004d46565b51916200e09e858c62004d46565b511660005260205260016040600020016200571f565b6200e034565b509350916200c245915062004cdf565b9091926020820151602681101562002a2357600c036200e1b557606060408301510151926200e0f9846202d698565b60005b84518110156200dfd95760c06200e11c8260606040880151015162004d46565b510151156200e170576200e1446200e13d8260606040880151015162004d46565b5162005d8c565b613efa54908160001981011162001e0757600562008ca96200e16a936000190162005cda565b6200e0fc565b6200e18f6200e1888260606040880151015162004d46565b5162005d69565b613efb54908160001981011162001e0757600562008ca96200e16a936000190162005c9a565b9291906020810151602681101562002a2357600d036200e2bf576040019260206200e1e560a08651015162004cef565b5194510151916200e1fa85518451146202dd8c565b60005b85518110156200e0ba57806200e2186200e26c928662004d46565b51156200e272576200e23b6200e22f828962004d46565b51613efa54116202de15565b6200e25a60ff600562008db66200e253858c62004d46565b5162005cda565b600562008dd26200e253838a62004d46565b6200e1fd565b6200e28e6200e282828962004d46565b51613efb54116202de15565b6200e2ad60ff600562008db66200e2a6858c62004d46565b5162005c9a565b600562008dd26200e2a6838a62004d46565b6020810151602681101562002a2357600e036200e3b8576040019260206200e2ec60a08651015162004cef565b5194510151916200e30185518451146202dd8c565b60005b85518110156200e0ba57806200e31f6200e36c928662004d46565b51156200e372576200e3426200e336828962004d46565b51613efa54116202dece565b6200e35a60ff600562008ed96200e253858c62004d46565b600562008ca96200e253838a62004d46565b6200e304565b6200e38e6200e382828962004d46565b51613efb54116202dece565b6200e3a660ff600562008ed96200e2a6858c62004d46565b600562008ca96200e2a6838a62004d46565b9091926020820151602681101562002a2357600f036200e49557606060408301510151926200e3e7846202d698565b60005b84518110156200dfd95760c06200e40a8260606040880151015162004d46565b510151156200e457576200e42b6200e13d8260606040880151015162004d46565b613efa54908160001981011162001e0757600562008dd26200e451936000190162005cda565b6200e3ea565b6200e46f6200e1888260606040880151015162004d46565b613efb54908160001981011162001e0757600562008dd26200e451936000190162005c9a565b9291906020810151602681101562002a23576010036200e5da5760400151926200e4c860a0608086015195015162004cef565b51916200e4dd855184511462000fa3620331b7565b60005b85518110156200e0ba57806200e4fb6200e570928862004d46565b516200e5078162002fc4565b6200e513828762004d46565b51906200e5208162002fc4565b6200e5376200e52e620332ea565b82151562004cac565b6200e5428162002fc4565b600181036200e57657506200e5666200e55a620332ea565b61271083111562004cac565b613f675562004cdf565b6200e4e0565b6200e5818162002fc4565b600281036200e5955750613f685562004cdf565b6200e5a08162002fc4565b600381036200e5b45750613f695562004cdf565b806200e5c260049262002fc4565b146200e5cf575062004cdf565b613f6a55386200a043565b6020810151602681101562002a23576011036200e87d57604001906200e60b60a06200df3360c08551015162004cef565b51936200e61c83518651146202d510565b60005b83518110156200e69c576200e696906200e6766001600160a01b03806200e647848962004d46565b5116600052613efd90816020526200e66a60406000205462006814868d62004d46565b939062000fa36203316d565b6200e682848962004d46565b511660005260205260406000205562004cdf565b6200e61f565b509350906200e6ab9062032e37565b90613efe54936200e6c26200806884518762006200565b9060009260005b8781106200e83d575060005b85518110156200e78a576000805b8981106200e73b575b50156200e705575b6200e6ff9062004cdf565b6200e6d5565b936200e6ff906200e732906001600160a01b036200e724888a62004d46565b511662001ac7828862004d46565b9490506200e6f4565b6200e7468162004f26565b90546001600160a01b0360039290921b1c8116906200e766858b62004d46565b5116146200e77f576200e7799062004cdf565b6200e6e3565b50506001386200e6ec565b5095509392506200e79b8262004e62565b8051906001600160401b03821162002a9b576020906200e7bb8362005041565b01613efe600052602060002060005b8381106200e81f575050505060005b8281106200e7ef575050506200c2459062004cdf565b6200e8199062000faa6001600160a01b036200e80c838662004d46565b511662001a088362004f26565b6200e7d9565b82516001600160a01b0316818301556020909201916001016200e7ca565b936200e8706200e877916200e8528762004f26565b905460039190911b1c6001600160a01b031662001ac7828862004d46565b9462004cdf565b6200e6c9565b6020819492940151602681101562002a23576012036200eac157604001906200e8b160a06200df3360c08551015162004cef565b51936200e8c283518651146202d510565b60005b83518110156200e916576200e910906200e6766001600160a01b03806200e8ed848962004d46565b5116600052613efd90816020526200e66a60406000205462007d56868d62004d46565b6200e8c5565b50935091906200e9269062032e37565b613efe546200e9358162004e62565b906000926000915b8083106200e9e8575050506200e9538262004e62565b8051906001600160401b03821162002a9b576020906200e9738362005041565b01613efe600052602060002060005b8381106200e9ca575050505060005b8281106200e9a7575050506200c2459062004cdf565b6200e9c49062000faa6001600160a01b036200e80c838662004d46565b6200e991565b82516001600160a01b0316818301556020909201916001016200e982565b91956000959193959760005b85518110156200eab2576200ea098962004f26565b90546001600160a01b0360039290921b1c8116906200ea29838962004d46565b5116146200ea42576200ea3c9062004cdf565b6200e9f4565b509750956001959391955b806200ea81575b156200ea6c576200ea659062004cdf565b916200e93d565b936200e8706200ea65916200e8528762004f26565b506200ea8d8162004f26565b60018060a01b0391549060031b1c16600052613efd602052604060002054156200ea54565b5097969096959391956200ea4d565b6020819493940151602681101562002a23576013036200eb625760408091015101519160005b83518110156200de14576200eafd818562004d46565b5190613efc54600160401b81101562002a9b576001810180613efc5581101562004cfd57613efc6000526200eb5c9262000faa916007027f6710e0bb821cd3dfcfba05f5136082a6d0bca8d604d6d14bfd93de2dd49659d2016202f19f565b6200eae7565b602081949392940151602681101562002a23576014036200f0a457604001906200eb9160c08351015162004cef565b51936200eba860a06200779b818651015162004cef565b51916200ebb986518551146202df8a565b6200ebc886518451146202dff0565b60005b86518110156200ecc2576200ebe1818562004d46565b516200ebee828762004d46565b51906103e882101562004cfd57611fbe6200ec0f9260031b0154906200608f565b906200ec1c838862004d46565b51916103e883101562004cfd57611fbe6200ec3c9360031b01556202e0aa565b6200ec48818562004d46565b516200ec55828762004d46565b51906103e882101562004cfd576200ec7f91611fbb906001600160a01b036200bddd868d62004d46565b91906200ec8d828862004d46565b51906103e882101562004cfd576200ecbc9362000faa92611fbb906001600160a01b036200be33878f62004d46565b6200ebcb565b50926200ecd9919250620084799095949562032f53565b916040516200ece88162002b3f565b6000815260003681376000945b80518610156200c233576200ed0b868262004d46565b516106e0526200ed1c855162004e62565b966000946200ed2c845162004e62565b6103005260009460005b88518110156200edfe578a896200ed666001600160a01b036200ed5a858462004d46565b51166106e05162032d92565b15806200edb6575b6200ed87575b50506200ed819062004cdf565b6200ed36565b986200edab9162001ac782859c62007f376200ed819760018060a01b039262004d46565b9790508a896200ed74565b5050506103e86106e051101562004cfd576001600160a01b036200eddb828b62004d46565b5116600052611fbb6106e05160031b016020528a8960406000205415156200ed6e565b50909895979498969291939660005b88518110156200ee9c576103e86106e051101562004cfd576001600160a01b03806200ee3a838c62004d46565b5116600052611fbb6106e05160031b01602052604060002054156200ee6c575b506200ee669062004cdf565b6200ee0d565b819b6200ee94916200ee836200ee66948d62004d46565b511662001ac7826103005162004d46565b9a906200ee5a565b509850969592919093966106e0516103e8811015806103405262004cfd5760031b611fbc0154986200eed362008068898c62006200565b610440526000610900526000610980525b6103405162004cfd57610980518a8110156200efad576200ef1a6200ef3a91600061034052611fbc6106e05160031b0162004f5e565b9054610300516001600160a01b03939260031b9190911c83169062032dea565b156200ef5a575b506200ef506109805162004cdf565b610980526200eee4565b6000610340526200ef7961098051611fbc6106e05160031b0162004f5e565b90549060031b1c166200ef93610900516104405162004d46565b526200efa26109005162004cdf565b61090052386200ef41565b50979294959093985095909560005b8281106200f058575050506103405162004cfd5761044051516001600160401b03811162002a9b576200effa81611fbc6106e05160031b016200509a565b60206104405101611fbc6106e05160031b01600052602060002060005b8381106200f03a57505050506200f02e9062004cdf565b9492959091956200ecf5565b82516001600160a01b0316818301556020909201916001016200f017565b6200f09e906001600160a01b036200f071828562004d46565b51166200f085610900516104405162004d46565b526200f0946109005162004cdf565b6109005262004cdf565b6200efbc565b926020840151602681101562002a23576015036200f6a55760408401906200f0d160c08351015162004cef565b51906200f0e860a06200779b818651015162004cef565b51936200f0fd835185511462000fa3620331b7565b6200f110835186511462000fa3620331b7565b60005b83518110156200f16e576200f129818662004d46565b51906103e882101562004cfd57611fbb6200f1689260018060a01b038b511660005260031b0160205262000faa60406000205462007ce9838a62004d46565b6200f113565b509095919560005b87518110156200f2a0576200f18c818662004d46565b516103e881101562004cfd57611fbb9060018060a01b0386511660005260031b016020526200f1c660406000205462007d56838962004d46565b906200f1d3838862004d46565b51916103e883101562004cfd57611fbb6200f20c9360018060a01b0389511660005260031b0160205260406000205562000fa3620332bb565b6200f218818662004d46565b516103e881101562004cfd57611fbb906001600160a01b036200f23c848c62004d46565b511660005260031b016020526200f25e60406000205462006814838962004d46565b91906200f26c828862004d46565b51906103e882101562004cfd576200f29a93611fbb62000faa938d6200c5fc8760018060a01b039262004d46565b6200f176565b50926200f2b8919294506200c6369096959662032f53565b92604051906200f2c88262002b78565b6001825260203681840137516001600160a01b03166200f2e88262004cef565b526000945b80518610156200c233576200f303868262004d46565b51610a60526200f314855162004e62565b966000946200f324845162004e62565b6108405260009460005b88518110156200f3f6578a896200f35e6001600160a01b036200f352858462004d46565b5116610a605162032d92565b15806200f3ae575b6200f37f575b50506200f3799062004cdf565b6200f32e565b986200f3a39162001ac782859c62007f376200f3799760018060a01b039262004d46565b9790508a896200f36c565b5050506103e8610a6051101562004cfd576001600160a01b036200f3d3828b62004d46565b5116600052611fbb610a605160031b016020528a8960406000205415156200f366565b50909895979498969291939660005b88518110156200f49b576103e8610a6051101562004cfd576001600160a01b036200f431828b62004d46565b5116600052611fbb610a605160031b01602052604060002054156200f462575b6200f45c9062004cdf565b6200f405565b996200f45c906200f492906001600160a01b036200f4818e8d62004d46565b511662001ac7826108405162004d46565b9a90506200f451565b50985096959291909396610a60516103e8811015806106805262004cfd5760031b611fbc0154986200f4d262008068898c62006200565b6108605260006106c0526000610880525b6106805162004cfd57610880518a8110156200f5ae576200f5196200f53691600061068052611fbc610a605160031b0162004f5e565b90546108405160039290921b1c6001600160a01b03169062032dea565b156200f555575b6200f54b6108805162004cdf565b610880526200f4e3565b6000610680526200f57461088051611fbc610a605160031b0162004f5e565b60018060a01b0391549060031b1c166200f5956106c0516108605162004d46565b526200f5a46106c05162004cdf565b6106c0526200f53d565b50979294959093985095909560005b8281106200f659575050506106805162004cfd5761086051516001600160401b03811162002a9b576200f5fb81611fbc610a605160031b016200509a565b60206108605101611fbc610a605160031b01600052602060002060005b8381106200f63b57505050506200f62f9062004cdf565b9492959091956200f2ed565b82516001600160a01b0316818301556020909201916001016200f618565b6200f69f906001600160a01b036200f672828562004d46565b51166200f6866106c0516108605162004d46565b526200f6956106c05162004cdf565b6106c05262004cdf565b6200f5bd565b9091926020810151602681101562002a23576016036200f7575760c060406200f6d2920151015162004cef565b519160005b83518110156200de14576001600160a01b036200f6f5828662004d46565b51613f6b54929116600160401b83101562002a9b576001830180613f6b5583101562004cfd57613f6b6000526000805160206203376c83398151915290920180546001600160a01b0319169092179091556200f7519062004cdf565b6200f6d7565b6020810151602681101562002a23576017036200f7b45760405162461bcd60e51b81526020600482015260296024820152600080516020620339cc8339815191526044820152683632b6b2b73a32b21760b91b6064820152608490fd5b6020810151602681101562002a23576018036200f8725760c060406200f7de920151015162004cef565b5191600160ff19613f6e541617613f6e5560005b83518110156200de14576001600160a01b036200f810828662004d46565b51613f6d54929116600160401b83101562002a9b576001830180613f6d5583101562004cfd57613f6d6000526000805160206203396c83398151915290920180546001600160a01b0319169092179091556200f86c9062004cdf565b6200f7f2565b602081949293940151602681101562002a23576019036200f89a575b506200c2459062004cdf565b6020810151602681101562002a2357601a036200fa115760a060406200f8c4920151015162004cef565b51906200f8d560038351146202d510565b6200f8e08262004cef565b516200f8f062009fdc8462004d13565b51926200f9d5576200c245926001036200f9ce576200f9176200f97591613f69546200608f565b613f6955604051906200f92a8262002b06565b603282527f6469766964656e6461626c652062616c616e6365206f766572666c6f772077686020830152710cadc40e0e4dec6cae6e6d2dcce40c6c2e6d60731b604083015262004cac565b6200f9c76200f987613f6a546200607c565b613f6a55604051906200f99a8262002b78565b601a8252796469766964656e647320636f756e746572206f766572666c6f7760301b602083015262004cac565b906200f88e565b506200f9c7565b60405162461bcd60e51b8152602060048201526014602482015273496e76616c6964207061796d656e74207479706560601b6044820152606490fd5b6020810151602681101562002a2357601b036200ffa157509190613f67546200fa3d6200a0b962033044565b613f6a54613f685411156200fa5c6200fa55620330b2565b8262004cac565b613f6954906200fa6d838362005eb0565b50506200fa7962033108565b506000805b6103e882106200ff52575b5050906200fab96200fabf93926200faaf6200faa462033044565b612710861062004cac565b62000fa3620330b2565b62005eb0565b90506200facb62033108565b5060009060005b6103e881106200fe7f575b50906127106200faee9204620061de565b90506200fafe613f745462004e62565b906000946000905b6103e88210156200fe72578160031b9460ff611fbf87015416156200fc5c57600096611fba870154156200fc4b57600098975b62004cfd57611fbc8701548910156200fc31576200fb5c89611fbc890162004f5e565b600160a01b6001900391549060031b1c169788600052611fbb8801602052604098868a60002054906200fb8f9162005eb0565b9a906200fb9b62033108565b6200fba69162004cac565b60009a611fba8b01546200fbba9162005eb0565b91906200fbc662033108565b6200fbd19162004cac565b82600052613eff602052600020908154906200fbed916200608f565b9091556200fbfa62033108565b6200fc059162004cac565b6200fc11828962004d46565b526200fc1d9062004cdf565b986200fc299062004cdf565b98976200fb39565b929095506200fc439196975062004cdf565b90946200fb06565b929095506200fc4391965062004cdf565b95969392509350505b6200fc708262004e62565b9160009160005b8281106200fddc57505050613f0054916200fc9762008068848462006200565b926000906000905b8082106200fdbf57505060005b8381106200fd295750508251929150506001600160401b03821162002a9b576020906200fcd98362005064565b01613f00600052602060002060005b8381106200fd0b57505050506200c245906000613f69556000613f6a556200f9c7565b82516001600160a01b0316818301556020909201916001016200fce8565b6000805b8381106200fd77575b50156200fd4f575b6200fd499062004cdf565b6200fcac565b906200fd49906200fd6e906001600160a01b03620081f0858762004d46565b9190506200fd3e565b6001600160a01b03806200fd8c858862004d46565b5116906200fd9b838a62004d46565b5116146200fdb4576200fdae9062004cdf565b6200fd2d565b50506001386200fd36565b9091620081fe6200fdd591620094f58562004f42565b906200fc9f565b6000805b8581106200fe2a575b50156200fe02575b6200fdfc9062004cdf565b6200fc77565b926200fdfc906200fe21906001600160a01b03620081f0878662004d46565b9390506200fdf1565b6001600160a01b03806200fe3f858762004d46565b5116906200fe4e838a62004d46565b5116146200fe67576200fe619062004cdf565b6200fde0565b50506001386200fde9565b939495929150506200fc65565b90918160039695961b60ff611fbf82015416156200ff4657611fba810154611fbc8201546000928391825b8184106200fee65750505050620074616200fedd936200fed562000faa979694620022e49462005eb0565b929062005daf565b9493946200fad2565b94929462004cfd576200ff3f856200ff376200ff0b62000faa98611fbc870162004f5e565b905460039190911b1c6001600160a01b03166000908152611fbb8601602052604081205490966200608f565b979062005ed2565b926200feaa565b5091909493946200fadd565b8160039897981b60ff611fbf82015416156200ff9757916200a4f8620074616200ff8d936200a4ec62000faa96611fba6200a4e28762005e52565b909695966200fa7e565b509695966200fa89565b6020810151602681101562002a2357601c036200fffe5760405162461bcd60e51b8152602060048201526029602482015260008051602062033acc8339815191526044820152683632b6b2b73a32b21760b91b6064820152608490fd5b6020810151602681101562002a2357601d0362010022575b506200c245906200f9c7565b9290916020840151602681101562002a2357601e036201075857604084019060a09062010053828451015162004cef565b515162010064838551015162004d13565b5151036200ade9576201007b828451015162004cef565b51516201008c838551015162004d24565b5151036200ad6d57620100a3828451015162004cef565b5194620100b4838551015162004d13565b5191620100c96200a641858751015162004d24565b519585518751036200ad0a5760005b86518110156201013357620100ee818862004d46565b51906103e882101562004cfd57611fbb6201012d9260018060a01b038d511660005260031b0160205262000faa60406000205462007ce9838c62004d46565b620100d8565b5090969192939660005b8651811015620101e05762010153818862004d46565b516103e881101562004cfd57611fbb9060018060a01b038c511660005260031b016020526201018d60406000205462007d56838b62004d46565b91906201019b828a62004d46565b51906103e882101562004cfd57620101da93611fbb62000faa938f60018060a01b0390511660005260031b0160205260406000205562000fa3620332bb565b6201013d565b5093969297955093620101f39062032f53565b9660405196620102038862002b78565b60018852602036818a013786516001600160a01b0316620102248962004cef565b5260405196620102348862002b3f565b600088526000610600525b89516106005190811015620105fa576201025a908b62004d46565b51610960526201026b885162004e62565b996000976201027b8b5162004e62565b6103605260009760005b8b518110156201034d578d8c620102b56001600160a01b03620102a9858462004d46565b51166109605162032d92565b158062010305575b620102d6575b5050620102d09062004cdf565b62010285565b9b620102fa9162001ac782859f62007f37620102d09760018060a01b039262004d46565b9a90508d8c620102c3565b5050506103e861096051101562004cfd576001600160a01b036201032a828e62004d46565b5116600052611fbb6109605160031b016020528d8c6040600020541515620102bd565b50909b989a99949691929395979b60005b8b51811015620103f4576103e861096051101562004cfd576001600160a01b036201038a828e62004d46565b5116600052611fbb6109605160031b0160205260406000205415620103bb575b620103b59062004cdf565b6201035e565b9c620103eb620103b5918f620103da8f9160018060a01b039262004d46565b511662001ac7826103605162004d46565b9d9050620103aa565b509b5098959092949691939661096051996103e88b10159c8d62004cfd576201042c62008068611fbc8f9e60031b01549e8f62006200565b6108005260006107a0528d60009e5b62004cfd578d8f1015620104fc575060009d620104846201046782611fbc6109605160031b0162004f5e565b90546103605160039290921b1c6001600160a01b03169062032dea565b156201049e575b620104978f9162004cdf565b9e6201043b565b620104979e5060009e8f91620104bf81611fbc6109605160031b0162004f5e565b60018060a01b0391549060031b1c16620104e06107a0516108005162004d46565b52620104ef6107a05162004cdf565b6107a0529150506201048b565b9396999b929d509396999094979b5060005b828110620105ae5750505062004cfd5761080051516001600160401b03811162002a9b576201054881611fbc6109605160031b016200509a565b6020610800510190611fbc6109605160031b0160005260206000209160005b828110620105905750505050620105816106005162004cdf565b6106005295989094986201023f565b81516001600160a01b03168185015560209091019060010162010567565b620105f4906001600160a01b03620105c7828562004d46565b5116620105db6107a0516108005162004d46565b52620105ea6107a05162004cdf565b6107a05262004cdf565b6201050e565b509492975094955091965060009460005b87518110156201065e57620106296200abc66200abb9838962004d46565b8062010642575b506201063c9062004cdf565b6201060b565b906200abfc62010657986201063c936200608f565b9062010630565b5096509450915091806201067c575b506200c24591505b9062010016565b620106a79060018060a01b038451166000526200ac5a613efd9182602052604060002054906200608f565b60018060a01b03845116600052602052604060002055600091600092613efe54935b84811062010713575b506201066d57516001600160a01b031691600160401b81101562002a9b576200c2459262001a088260016201070c9401613efe5562004f26565b386201066d565b6201071e8162004f26565b9054845160039290921b1c6001600160a01b039081169116146201074d57620107479062004cdf565b620106c9565b5050600138620106d2565b9190926020810151602681101562002a2357601f03620107d3576040620107829101515162004cef565b5190613f6c54600160401b81101562002a9b576001810180613f6c5581101562004cfd57613f6c6000526200c24592620107cd91600080516020620337ac833981519152016200571f565b62010675565b6020810151602681101562002a2357602003620107f7575b506200c2459062010675565b6020810151602681101562002a2357602114620107eb576020810151602681101562002a23576022036201087d57506200c2459060ff19613f6e5416613f6e55613f6d546000613f6d558062010851575b505b90620107eb565b613f6d60005262010876906000805160206203396c8339815191529081019062004fa3565b3862010848565b6020810151602681101562002a2357602303620108a1575b506200c245906201084a565b6020810151602681101562002a235760241462010895576020810151602681101562002a235760251462010895579290916020840151602681101562002a235760150362010ee5576040840190620108fe60c08351015162004cef565b51906201091560a06200779b818651015162004cef565b51936201092a835185511462000fa3620331b7565b6201093d835186511462000fa3620331b7565b60005b83518110156201099b5762010956818662004d46565b51906103e882101562004cfd57611fbb620109959260018060a01b038b511660005260031b0160205262000faa60406000205462007ce9838a62004d46565b62010940565b509095919560005b875181101562010acd57620109b9818662004d46565b516103e881101562004cfd57611fbb9060018060a01b0386511660005260031b01602052620109f360406000205462007d56838962004d46565b9062010a00838862004d46565b51916103e883101562004cfd57611fbb62010a399360018060a01b0389511660005260031b0160205260406000205562000fa3620332bb565b62010a45818662004d46565b516103e881101562004cfd57611fbb906001600160a01b0362010a69848c62004d46565b511660005260031b0160205262010a8b60406000205462006814838962004d46565b919062010a99828862004d46565b51906103e882101562004cfd5762010ac793611fbb62000faa938d6200c5fc8760018060a01b039262004d46565b620109a3565b509262010ae5919294506200c6369096959662032f53565b926040519062010af58262002b78565b6001825260203681840137516001600160a01b031662010b158262004cef565b526000945b805186101562010ed25762010b30868262004d46565b516106a05262010b41855162004e62565b9660009462010b51845162004e62565b6103805260009460005b885181101562010c23578a8962010b8b6001600160a01b0362010b7f858462004d46565b51166106a05162032d92565b158062010bdb575b62010bac575b505062010ba69062004cdf565b62010b5b565b9862010bd09162001ac782859c62007f3762010ba69760018060a01b039262004d46565b9790508a8962010b99565b5050506103e86106a051101562004cfd576001600160a01b0362010c00828b62004d46565b5116600052611fbb6106a05160031b016020528a89604060002054151562010b93565b50909895979498969291939660005b885181101562010cc8576103e86106a051101562004cfd576001600160a01b0362010c5e828b62004d46565b5116600052611fbb6106a05160031b016020526040600020541562010c8f575b62010c899062004cdf565b62010c32565b9962010c899062010cbf906001600160a01b0362010cae8e8d62004d46565b511662001ac7826103805162004d46565b9a905062010c7e565b509850969592919093966106a0516103e8811015806106605262004cfd5760031b611fbc01549862010cff62008068898c62006200565b6105e0526000610820526000610500525b6106605162004cfd57610500518a81101562010ddb5762010d4662010d6391600061066052611fbc6106a05160031b0162004f5e565b90546103805160039290921b1c6001600160a01b03169062032dea565b1562010d82575b62010d786105005162004cdf565b6105005262010d10565b60006106605262010da161050051611fbc6106a05160031b0162004f5e565b60018060a01b0391549060031b1c1662010dc2610820516105e05162004d46565b5262010dd16108205162004cdf565b6108205262010d6a565b50979294959093985095909560005b82811062010e86575050506106605162004cfd576105e051516001600160401b03811162002a9b5762010e2881611fbc6106a05160031b016200509a565b60206105e05101611fbc6106a05160031b01600052602060002060005b83811062010e68575050505062010e5c9062004cdf565b94929590919562010b1a565b82516001600160a01b03168183015560209092019160010162010e45565b62010ecc906001600160a01b0362010e9f828562004d46565b511662010eb3610820516105e05162004d46565b5262010ec26108205162004cdf565b6108205262004cdf565b62010dea565b5050939092506200c24591509062010895565b60405162461bcd60e51b8152602060048201526016602482015275496e76616c6964206f7065726174696f6e207479706560501b6044820152606490fd5b5091905062010f32826201561e565b9290600681101562002a23576002810362010f625760405162461bcd60e51b81528062004cdb600482016200758f565b6003810362011ef65750613f738054600260ff821662010f828162002a18565b1462011eb15760ff19166002179055613f78549060018201821162001e075760018201613f7855611f44549092600019929060005b8651811015620110335762010fda8462010fd2838a62004d46565b511062032899565b84600262010ff462010fed848b62004d46565b516202f17f565b500154106201100f575b620110099062004cdf565b62010fb7565b93506201100960026201102762010fed878a62004d46565b50015494905062010ffe565b5090936000199360005b8751811015620110aa57620110588562010fd2838b62004d46565b8560036201106b62010fed848c62004d46565b5001541062011086575b620110809062004cdf565b6201103d565b94506201108060036201109e62010fed888b62004d46565b50015495905062011075565b5091946001919350620110be875162004e62565b620110ca885162004e62565b620110d6895162004e62565b90620110e38a5162004e62565b9260405197620110f38962002ae9565b88526020880152604087015260608601526080850152600060a0850152600060c0850152600260e0850152600061010085015201600052613f766020526040600020825160018060a01b0381511660018060a01b03198354161782556020810151805190600160401b821162002a9b57600184015482600186015580831062011cf2575b5060200190600184016000526020600020916000905b8282106201168d57505050506040620111ac910151600283016200571f565b60208301518051906001600160401b03821162002a9b5760206003840191620111d684846200509a565b0190600052602060002060005b83811062011678575050505060408301518051906001600160401b03821162002a9b57602060048401916201121984846200509a565b0190600052602060002060005b83811062011663575050505060608301518051906001600160401b03821162002a9b57602060058401916201125c84846200509a565b0190600052602060002060005b8381106201164e575050505060808301518051906001600160401b03821162002a9b57602060068401916201129f84846200509a565b0190600052602060002060005b83811062011639575050505060a0830151600782015560c0830151600882015560e08301519290600901600384101562002a235761010062011304926201130b9560ff80198554169116178355015115159062005803565b426200608f565b9015620115f957613f7854600052613f7660205280600760406000200155613f715562011349613f785491826000526007604060002001546200608f565b919015620115b657600052613f7660205280600860406000200155613f7255613f78546000526009604060002001600260ff1982541617905560005b8251811015620113cb578062000faa620113a4620113c5938662004d46565b51613f7854600052613f7660205262006bbf83600360406000200162004f5e565b62011385565b506000915b8051831015620115b157613f78549283600052613f766020526201140d6201140082600360406000200162004f5e565b90549060031b1c6202f17f565b5054916201141b8362004e62565b9260005b818110620115665750506000906000915b8451831015620115355762011446838662004d46565b516103e8908181101562004cfd5760031b6001015462011467858862004d46565b519182101562004cfd576006620114849260031b01549062005eb0565b9015620114f15762011496916200608f565b929015620114b057620114a99062004cdf565b9162011430565b60405162461bcd60e51b8152602060048201526019602482015278746f74616c566f74696e67506f776572206f766572666c6f7760381b6044820152606490fd5b606460405162461bcd60e51b815260206004820152602060248201527f63757272656e74436c617373566f74696e67506f776572206f766572666c6f776044820152fd5b90956201155f945062000faa9250600052613f7660205262006bbf83600660406000200162004f5e565b91620113d0565b620115ab9087600052613f766020526201159881620115916201140088600360406000200162004f5e565b5062004f5e565b90549060031b1c62001ac7828862004d46565b6201141f565b509050565b60405162461bcd60e51b815260206004820152601b60248201527a657865637574696e6720656e642074696d65206f766572666c6f7760281b6044820152606490fd5b60405162461bcd60e51b8152602060048201526018602482015277766f74696e6720656e642074696d65206f766572666c6f7760401b6044820152606490fd5b600190602084519401938184015501620112ac565b60019060208451940193818401550162011269565b60019060208451940193818401550162011226565b600190602084519401938184015501620111e3565b805180518554602083015190916001600160a01b031690602681101562002a23576001600160a81b03199092161760a09190911b60ff60a01b161785556040015180518051906001870190602090620116e7848462005427565b01906000526020600020906000905b83821062011cd25750505050602081015180516001600160401b03811162002a9b57602060028801926201172b83856203239f565b019160005260206000209060005b8160051c811062011c965750601f198116810362011c51575b5050506040810151805190600160401b821162002a9b57600387015482600389015580831062011bc9575b50602001600387016000526020600020906000905b83821062011ba857505050506060810151805190600160401b821162002a9b57600487015482600489015580831062011b27575b50602001600487016000526020600020906000905b83821062011b065750505050608081015180516001600160401b03811162002a9b57602060058801926201181083856203239f565b019160005260206000209060005b8160051c811062011ac75750601f1981169283820362011a78575b505050506006850160a08201516020815191620118578385620054b5565b019160005260206000206000925b82841062011a1457505050506007850160c082015160208151916201188b8385620054b5565b019160005260206000206000925b828410620119a7575050505060e001518051906001600160401b03821162002a9b57620118d982620118cf600889015462002c79565b60088901620056d5565b602090601f83116001146201192c57928260099360209360019660009262011920575b5050600019600383901b1c191690851b1760088801555b019401910190926201118d565b015190503880620118fc565b906008870160005260206000209160005b601f19851681106201198e575083602093600196938793600997601f1981161062011974575b505050811b01600888015562011913565b015160001960f88460031b161c1916905538808062011963565b919260206001819286850151815501940192016201193d565b80518051906001600160401b03821162002a9b57602090620119ca83866200509a565b0183600052602060002060005b838110620119f657505050506001602081920192019301929062011899565b82516001600160a01b031681830155602090920191600101620119d7565b80518051906001600160401b03821162002a9b5760209062011a3783866200509a565b0183600052602060002060005b83811062011a6357505050506001602081920192019301929062011865565b60019060208451940193818401550162011a44565b6000936000905b808403821062011a9b5750505060051c01553880808062011839565b909194602062011abc6001928589519162011ab68362002fc4565b62032409565b960192019062011a7f565b6000805b6020811062011ae25750838201556001016201181e565b9490602062011afc6001928885519162011ab68362002fc4565b9201950162011acb565b600660208262011b1a60019451876200581b565b01930191019091620117db565b600681810204810362001e0757600683810204830362001e07576004880160005260206000208360060281015b826006028201811062011b69575050620117c6565b806000600692556000600182015562011b856002820162005504565b6000600382015562011b9a6004820162005399565b600060058201550162011b54565b600760208262011bbc60019451876202f19f565b0193019101909162011792565b600781810204810362001e0757600783810204830362001e07576003880160005260206000208360070281015b826007028201811062011c0b5750506201177d565b8062011c196007926200501a565b6000600182015560006002820155600060038201556000600482015562011c436005820162005399565b600060068201550162011bf6565b60009260005b601f1983168303811062011c7557505060051c015538808062011752565b9093602062011c8c60019284885115159162032409565b9501910162011c57565b6000805b6020811062011cb157508382015560010162011739565b9490602062011cc860019288855115159162032409565b9201950162011c9a565b600160208262011ce5839451876200571f565b01930191019091620116f6565b600981810204810362001e0757600983810204830362001e07576001850160005260206000208360090281015b826009028201811062011d3457505062011177565b6000815562011d4660018201620053e8565b62011d5b600282018054906000815562032377565b6003810154600060038301558062011e3b575b506004810154600060048301558062011dcc575b508062011d9b6005600993018054906000815562032377565b62011da96006820162005476565b62011db76007820162005476565b62011dc56008820162005399565b0162011d1f565b600681810204810362001e0757600482016000526020600020906006028101905b81811062011dfc575062011d82565b806000600692556000600182015562011e186002820162005504565b6000600382015562011e2d6004820162005399565b600060058201550162011ded565b600781810204810362001e0757600382016000526020600020906007028101905b81811062011e6b575062011d6e565b8062011e796007926200501a565b6000600182015560006002820155600060038201556000600482015562011ea36005820162005399565b600060068201550162011e5c565b60405162461bcd60e51b815260206004820152601d60248201527f766f74696e6720697320616c726561647920696e2070726f67726573730000006044820152606490fd5b6005919293501462011f055750565b90600080611f4a54905b818110620147bc575b505015620147a0575b60005b602083015190815181101562011f7c5762000faa620076c162011f56620076a16020620067a78662011f769862004d46565b86516001600160a01b03166000908152611f4960205260409020620242c3565b62011f24565b505060005b6020830151805182101562011fc957620076a16020620067a78462011fa69462004d46565b90606482101562004cfd5762011fc3914290611f4b015562004cdf565b62011f81565b50506000905b602083015180518310156200b072578262011fea9162004d46565b516020810151602681101562002a2357156200b02f576020810151602681101562002a23576001036201223257604001906201202b60c08351015162004cef565b51936201204260a06200779b818651015162004cef565b51916201205386518551146202df8a565b6201206286518451146202dff0565b60005b8651811015620121b9576201207b818662004d46565b516103e881101562004cfd57600160ff6007620120a19360031b0154161515146202e052565b620120ad818562004d46565b51620120ba828762004d46565b51906103e882101562004cfd576006620120da9260031b0154906200608f565b90620120e7838862004d46565b51916103e883101562004cfd576006620121069360031b01556202e0aa565b62012112818562004d46565b516201211f828762004d46565b51906103e882101562004cfd5762012160916003906001600160a01b0362012148868d62004d46565b5116600052811b01602052604060002054906200608f565b91906201216e828862004d46565b51906103e882101562004cfd57620121b39362000faa926003906001600160a01b036201219c878f62004d46565b5116600052811b016020526040600020556202e109565b62012065565b5094915091620121cd620121d49162032f53565b9162032e37565b9360405192620121e48462002b3f565b60008452600036813760005b835181101562012215578062000faa620079626201220f938762004d46565b620121f0565b509450926020925062012229915062004cdf565b91905062011fcf565b9091926020820151602681101562002a2357600203620123c9576040809201908151938451916201226c6200c28860a08098015162004cef565b5194835187510362007bd257835185510362007b7e57835186510362007b27575060005b8651811015620123b357620122a6818862004d46565b516103e881101562004cfd5760ff6007620122c89260031b015416156202e162565b620122d4818862004d46565b516103e881101562004cfd5760031b600701805460ff19166001179055620122fd818562004d46565b516201230a828962004d46565b51906103e882101562004cfd576005620123289260031b016200571f565b62012334818662004d46565b5162012341828962004d46565b516103e881101562004cfd5760031b6001015562012360818762004d46565b516201236d828962004d46565b516103e881101562004cfd5760031b600201556201238c818862004d46565b51906103e882101562004cfd5760006006620123ad9360031b015562004cdf565b62012290565b5095915093506020925062012229915062004cdf565b9291906020810151602681101562002a2357600303620123f6576020919262000faa62012229926202e1ae565b6020810151602681101562002a23576004036201269e576201242060c06040830151015162004cef565b51936201243560c06040840151015162004d13565b51906201245c60a06040620124508282880151015162004cef565b51950151015162004d13565b519362012471875184511462000fa3620331b7565b62012484875185511462000fa3620331b7565b62012497875186511462000fa3620331b7565b60005b87518110156201250057620124b0818662004d46565b51906103e882101562004cfd57620124fa916003906001600160a01b03620124d9848d62004d46565b5116600052811b0160205262000faa60406000205462007ce9838a62004d46565b6201249a565b509095919593929360005b83518110156201265b5762012521818762004d46565b516103e881101562004cfd576003906001600160a01b0362012544848862004d46565b5116600052811b016020526201256560406000205462007d56838862004d46565b9062012572838962004d46565b51916103e883101562004cfd57620125b6926003906001600160a01b036201259b878b62004d46565b5116600052811b0160205260406000205562000fa3620332bb565b620125c2818762004d46565b516103e881101562004cfd576003906001600160a01b03620125e5848c62004d46565b5116600052811b016020526201260660406000205462006814838862004d46565b91905062012615818862004d46565b51916103e883101562004cfd5762012655926003906001600160a01b036201263e858e62004d46565b5116600052811b0160205260406000205562004cdf565b6201250b565b50936201267591929693506200847962007e479162032f53565b9260005b835181101562012215578062000faa6200796262012698938762004d46565b62012679565b6020810151602681101562002a2357600503620126c8576020919262000faa62012229926202ec1a565b6020810151602681101562002a23576006036201288f57620126f260c06040830151015162004cef565b51936201271960a060406201270d8282870151015162004cef565b51940151015162004d13565b519285518351036200db485785518451036200dafb5760005b8651811015620127985762012748818562004d46565b51906103e882101562004cfd5762012792916003906001600160a01b0362012771848c62004d46565b5116600052811b0160205262000faa60406000205462007ce9838962004d46565b62012732565b509060005b86518110156201283957620127b3818562004d46565b516103e881101562004cfd576003906001600160a01b03620127d6848b62004d46565b5116600052811b01602052620127f760406000205462007d56838862004d46565b919062012805828762004d46565b51906103e882101562004cfd57620128339362000faa926003906001600160a01b036201259b878f62004d46565b6201279d565b5094916201284e919350620121cd9062032f53565b91604051946201285e8662002b3f565b60008652600036813760005b835181101562012215578062000faa6200796262012889938762004d46565b6201286a565b6020810151602681101562002a2357600703620129a15760400192620128ba60c08551015162004cef565b5191620128cc60a08651015162004cef565b5194515191620128e4845187511462000fa3620331b7565b60005b845181101562012215576201299b9062000faa6001600160a01b03806201290f848a62004d46565b51166000528660028b6201298b6201294e876201294681611f4097886020526200880e60ff604060002054161562000fa362033288565b519362004d46565b5191620088728d60405196620129648862002a7f565b60018852886200dc958c60208b01946000865260408c0197885260608c01998a5262004d46565b519101556200888d838962004d46565b620128e7565b6020819493940151602681101562002a235760080362012a385760c06040620129ce920151015162004cef565b519160005b835181101562012a265762012a20906001600160a01b0380620129f7838862004d46565b5116600052611f4090816020526200ddb1600160ff6040600020541615151462000fa3620331e7565b620129d3565b50926020919250620122299062004cdf565b6020810151602681101562002a235760090362012aba5760c0604062012a62920151015162004cef565b519160005b835181101562012a265762012ab4906001600160a01b038062012a8b838862004d46565b5116600052611f4090816020526200de9f600160ff6040600020541615151462000fa3620331e7565b62012a67565b6020810151602681101562002a2357600a0362012b68576040019062012aeb60a06200df3360c08551015162004cef565b519262012b00835185511462000fa3620331b7565b60005b835181101562012b555762012b4f906001600160a01b038062012b27838862004d46565b5116600052611f40806020526200dfa2600160ff6040600020541615151462000fa3620331e7565b62012b03565b5093620122299193506020925062004cdf565b602081949392940151602681101562002a2357600b0362012c1b576040019262012b9760c08551015162004cef565b519351519162012baf855184511462000fa3620331b7565b60005b855181101562012c085762012c029062000faa6001600160a01b038062012bda848b62004d46565b5116600052611f40806020526200e084600160ff6040600020541615151462000fa3620331e7565b62012bb2565b5093509160209150620122299062004cdf565b9091926020820151602681101562002a2357600c0362012cf8576060604083015101519262012c4a846202d698565b60005b845181101562012b555760c062012c6d8260606040880151015162004d46565b5101511562012cba5762012c8e62008c808260606040880151015162004d46565b611f4254908160001981011162001e0757600562008ca962012cb4936000190162005cba565b62012c4d565b62012cd262008cd38260606040880151015162004d46565b611f4254908160001981011162001e0757600562008ca962012cb4936000190162005c7a565b9291906020810151602681101562002a2357600d0362012ddc5760400192602062012d2860a08651015162004cef565b51945101519162012d3d85518451146202dd8c565b60005b855181101562012c08578062012d5b62012d9c928662004d46565b511562012da25762012d7262008d8c828962004d46565b62012d8a60ff600562008db662008daf858c62004d46565b600562008dd262008daf838a62004d46565b62012d40565b62012db262008dfb828962004d46565b62012dca60ff600562008db662008e1e858c62004d46565b600562008dd262008e1e838a62004d46565b6020819492940151602681101562002a2357600e0362012e8b5760400190602062012e0c60a08451015162004cef565b51925101519362012e2183518651146202dd8c565b60005b835181101562012c08578062012e3f62012e4b928862004d46565b5162012e515762004cdf565b62012e24565b62012e6162008eb6828762004d46565b62012e7960ff600562008ed962008daf858a62004d46565b600562008ca962008daf838862004d46565b906020829493940151602681101562002a2357600f0362012f69576060604083015101519262012ebb846202d698565b60005b845181101562012b555760c062012ede8260606040880151015162004d46565b5101511562012f2b5762012eff62008c808260606040880151015162004d46565b611f4254908160001981011162001e0757600562008dd262012f25936000190162005cba565b62012ebe565b62012f4362008cd38260606040880151015162004d46565b611f4254908160001981011162001e0757600562008dd262012f25936000190162005c7a565b906020819493940151602681101562002a235760100362012fda57604001519062012f9d60a0608084015193015162004cef565b519362012fb2835186511462000fa3620331b7565b60005b835181101562012c08578062000faa6200902b62012fd4938762004d46565b62012fb5565b6020819492940151602681101562002a23576011036201323c57604001906201300e60a06200df3360c08551015162004cef565b51936201301f83518651146202d510565b60005b83518110156201309957620130939062000faa6001600160a01b03806201304a848962004d46565b5116600052611f45806020526201306c60406000205462006814868d62004d46565b9190926201307b868b62004d46565b511660005260205260406000205562000fa36203316d565b62013022565b50935090620130a89062032e37565b90611f465493620130bf6200806884518762006200565b9060009260005b87811062013221575060005b855181101562013179576000805b8981106201312a575b501562013102575b620130fc9062004cdf565b620130d2565b93620130fc9062013121906001600160a01b036200e724888a62004d46565b949050620130f1565b620131358162004eb6565b90546001600160a01b0360039290921b1c81169062013155858b62004d46565b5116146201316e57620131689062004cdf565b620130e0565b5050600138620130e9565b5095509392506201318a8262004e62565b8051906001600160401b03821162002a9b57602090620131aa8362004ff7565b01611f46600052602060002060005b83811062013203575050505060005b828110620131e0575050506201222960209162004cdf565b620131fd9062000faa6001600160a01b03620019fb838662004d46565b620131c8565b82516001600160a01b031681830155602090920191600101620131b9565b936200e87062013236916200e8528762004eb6565b620130c6565b6020819492940151602681101562002a23576012036201348157604001906201327060a06200df3360c08551015162004cef565b51936201328183518651146202d510565b60005b8351811015620132d457620132ce9062000faa6001600160a01b0380620132ac848962004d46565b5116600052611f45806020526201306c60406000205462007d56868d62004d46565b62013284565b5093509190620132e49062032e37565b611f4654620132f38162004e62565b906000926000915b808310620133a857505050620133118262004e62565b8051906001600160401b03821162002a9b57602090620133318362004ff7565b01611f46600052602060002060005b8381106201338a575050505060005b82811062013367575050506201222960209162004cdf565b620133849062000faa6001600160a01b03620019fb838662004d46565b6201334f565b82516001600160a01b03168183015560209092019160010162013340565b91956000959193959760005b85518110156201347257620133c98962004eb6565b90546001600160a01b0360039290921b1c811690620133e9838962004d46565b5116146201340257620133fc9062004cdf565b620133b4565b509750956001959391955b8062013441575b156201342c57620134259062004cdf565b91620132fb565b936200e87062013425916200e8528762004eb6565b506201344d8162004eb6565b60018060a01b0391549060031b1c16600052611f456020526040600020541562013414565b5097969096959391956201340d565b6020810151602681101562002a2357601303620134da5760408091015101519260005b8451811015620134c9578062000faa6200959f620134c3938862004d46565b620134a4565b509250906201222960209162004cdf565b6020810151602681101562002a23576014036201368757604001906201350560c08351015162004cef565b51936201351c60a06200779b818651015162004cef565b51916201352d86518551146202df8a565b6201353c86518451146202dff0565b60005b8651811015620136325762013555818562004d46565b5162013562828762004d46565b51906103e882101562004cfd576006620135829260031b0154906200608f565b906201358f838862004d46565b51916103e883101562004cfd576006620135ae9360031b01556202e0aa565b620135ba818562004d46565b51620135c7828762004d46565b51906103e882101562004cfd57620135f0916003906001600160a01b0362012148868d62004d46565b9190620135fe828862004d46565b51906103e882101562004cfd576201362c9362000faa926003906001600160a01b036201219c878f62004d46565b6201353f565b5094915091620121cd620136469162032f53565b9360405192620136568462002b3f565b60008452600036813760005b835181101562012215578062000faa6200796262013681938762004d46565b62013662565b6020810151602681101562002a2357601503620136b1576020919262000faa62012229926202e1ae565b6020810151602681101562002a23576016036201370d5760c06040620136db920151015162004cef565b519260005b8451811015620134c957620137079062000faa6001600160a01b0362009d36838962004d46565b620136e0565b6020810151602681101562002a23576017036201376a5760405162461bcd60e51b81526020600482015260296024820152600080516020620339cc8339815191526044820152683632b6b2b73a32b21760b91b6064820152608490fd5b6020810151602681101562002a2357601803620137d55760c0604062013794920151015162004cef565b5192600160ff19611fb6541617611fb65560005b8451811015620134c957620137cf9062000faa6001600160a01b0362009e02838962004d46565b620137a8565b6020819392930151602681101562002a23576019036201394a5760008091604082910160a08082510151805162013911575b5050519060e0820151916201382b6200680d60c060018060a01b0393015162004cef565b511690602083519301915af13d1562013908573d906201384b8262002f5b565b916201385b604051938462002b94565b82523d6000602084013e5b156201387a57506201222960209162004cdf565b62004cdb90620138e760405191600080516020620338cc833981519152602084015278039bab1b1b2b9b9b33ab617102932ba3ab937103230ba309d1603d1b6040840152828151620138d6816059946020868601910162002e01565b810103603981018452018262002b94565b60405162461bcd60e51b815260206004820152918291602483019062002e26565b60609062013866565b6201391c9062004cef565b51516201392b575b8062013807565b8192506200680d90620139419251015162004cef565b51903862013924565b6020810151602681101562002a2357601a0362013a005760a0604062013974920151015162004cef565b516201398460038251146202d510565b6201398f8162004cef565b5191620139a8620139a08362004d13565b519262004d24565b51916200f9d55760209262012229926001036200a04357620139d2620139e091611fb1546200608f565b611fb15562000fa362033108565b62000faa620139f2611fb2546200607c565b611fb25562000fa362033142565b6020810151602681101562002a2357601b0362013e305750919062013a30611faf546200225a6200a0b962033044565b505062013a3c62033108565b506000805b6103e8811062013de4575b505062013a5862006161565b62013a66613f745462004e62565b906000946000905b6103e882101562013dd7578160031b9460ff6007870154161562013bbf5760009660028701541562013bae57600098975b62004cfd57600487015489101562013b945762013ac0896004890162004f5e565b9054600391821b1c6001600160a01b031660008181529189016020526040918290205491999162013af390889062005eb0565b9a9062013aff62033108565b62013b0a9162004cac565b60009a60028b015462013b1d9162005eb0565b919062013b2962033108565b62013b349162004cac565b82600052611f476020526000209081549062013b50916200608f565b90915562013b5d62033108565b62013b689162004cac565b62013b74828962004d46565b5262013b809062004cdf565b9862013b8c9062004cdf565b989762013a9f565b9290955062013ba69196975062004cdf565b909462013a6e565b9290955062013ba691965062004cdf565b95969392509350505b62013bd38262004e62565b9160009160005b82811062013d4157505050611f48549162013bfa62008068848462006200565b926000906000905b80821062013d2457505060005b83811062013c8e5750508251929150506001600160401b03821162002a9b5760209062013c3c8362004fbc565b01611f48600052602060002060005b83811062013c705750505050620122296020916000611fb1556000611fb25562004cdf565b82516001600160a01b03168183015560209092019160010162013c4b565b6000805b83811062013cdc575b501562013cb4575b62013cae9062004cdf565b62013c0f565b9062013cae9062013cd3906001600160a01b03620081f0858762004d46565b91905062013ca3565b6001600160a01b038062013cf1858862004d46565b51169062013d00838a62004d46565b51161462013d195762013d139062004cdf565b62013c92565b505060013862013c9b565b9091620081fe62013d3a91620094f58562004e9a565b9062013c02565b6000805b85811062013d8f575b501562013d67575b62013d619062004cdf565b62013bda565b9262013d619062013d86906001600160a01b03620081f0878662004d46565b93905062013d56565b6001600160a01b038062013da4858762004d46565b51169062013db3838a62004d46565b51161462013dcc5762013dc69062004cdf565b62013d45565b505060013862013d4e565b9394959291505062013bc8565b8060039594951b9060ff6007830154161562013e26576200a4f86200746162000faa946200a4ec62013e1d9560026200a4e28762005e1c565b93929362013a41565b5093929362013a4c565b6020810151602681101562002a2357601c0362013e8d5760405162461bcd60e51b8152602060048201526029602482015260008051602062033acc8339815191526044820152683632b6b2b73a32b21760b91b6064820152608490fd5b6020810151602681101562002a2357601d0362013eb3575b506201222960209162004cdf565b9290916020840151602681101562002a2357601e03620145d557604084019060a09062013ee4828451015162004cef565b515162013ef5838551015162004d13565b5151036200ade95762013f0c828451015162004cef565b515162013f1d838551015162004d24565b5151036200ad6d5762013f34828451015162004cef565b519462013f45838551015162004d13565b519162013f5a6200a641858751015162004d24565b519585518751036200ad0a5760005b865181101562013fc25762013f7f818862004d46565b51906103e882101562004cfd57600362013fbc9260018060a01b038d5116600052811b0160205262000faa60406000205462007ce9838c62004d46565b62013f69565b5090969192939660005b86518110156201406b5762013fe2818862004d46565b516103e881101562004cfd5760039060018060a01b038c5116600052811b016020526201401a60406000205462007d56838b62004d46565b919062014028828a62004d46565b51906103e882101562004cfd576201406593600362000faa938f60018060a01b03905116600052811b0160205260406000205562000fa3620332bb565b62013fcc565b50939692979550936201407e9062032f53565b96604051966201408e8862002b78565b60018852602036818a013786516001600160a01b0316620140af8962004cef565b5260405196620140bf8862002b3f565b600088526000610760525b895161076051908110156201447c57620140e5908b62004d46565b5161072052620140f6885162004e62565b99600097620141068b5162004e62565b6109405260009760005b8b51811015620141d6578d8c620141406001600160a01b0362014134858462004d46565b51166107205162032d3b565b158062014190575b62014161575b50506201415b9062004cdf565b62014110565b9b620141859162001ac782859f62007f376201415b9760018060a01b039262004d46565b9a90508d8c6201414e565b5050506103e861072051101562004cfd576001600160a01b03620141b5828e62004d46565b5116600052600361072051811b016020528d8c604060002054151562014148565b50909b989a99949691929395979b60005b8b518110156201427b576103e861072051101562004cfd576001600160a01b0362014213828e62004d46565b5116600052600361072051811b016020526040600020541562014242575b6201423c9062004cdf565b620141e7565b9c620142726201423c918f620142618f9160018060a01b039262004d46565b511662001ac7826109405162004d46565b9d905062014231565b509b5098959092949691939661072051996103e88b10159c8d62004cfd57620142b26200806860048f9e60031b01549e8f62006200565b6108e0526000610a20528d60009e5b62004cfd578d8f101562014380575060009d62014309620142ec8260046107205160031b0162004f5e565b90546109405160039290921b1c6001600160a01b03169062032dea565b1562014323575b6201431c8f9162004cdf565b9e620142c1565b6201431c9e5060009e8f91620143438160046107205160031b0162004f5e565b60018060a01b0391549060031b1c1662014364610a20516108e05162004d46565b5262014373610a205162004cdf565b610a205291505062014310565b9396999b929d509396999094979b5060005b828110620144305750505062004cfd576108e051516001600160401b03811162002a9b57620143cb8160046107205160031b016200509a565b60206108e051019060046107205160031b0160005260206000209160005b828110620144125750505050620144036107605162004cdf565b610760529598909498620140ca565b81516001600160a01b031681850155602090910190600101620143e9565b62014476906001600160a01b0362014449828562004d46565b51166201445d610a20516108e05162004d46565b526201446c610a205162004cdf565b610a205262004cdf565b62014392565b509492975094955091965060009460005b8751811015620144e057620144ab6200abc66200abb9838962004d46565b80620144c4575b50620144be9062004cdf565b6201448d565b906200abfc620144d998620144be936200608f565b90620144b2565b5096509450929091508062014502575b5050620122296020915b915062013ea5565b6201452d9060018060a01b038351166000526200ac5a611f459182602052604060002054906200608f565b60018060a01b03835116600052602052604060002055600080611f4654905b8181106201458b575b5050916201222991602093156201456f575b5091620144f0565b5162014584906001600160a01b0316620065d6565b3862014567565b620145968162004eb6565b9054855160039290921b1c6001600160a01b03908116911614620145c557620145bf9062004cdf565b6201454c565b5060019150829050602062014555565b9190926020810151602681101562002a2357601f0362014610576020916201460a6200ae9d6040620122299401515162004cef565b620144fa565b6020810151602681101562002a235760200362014636575b5062012229602091620144fa565b6020810151602681101562002a2357602180910362014657575b5062014628565b602082015160268110156200b01a57602203620146945750506201222960209160ff19611fb65416611fb6556201468d62005087565b9162014650565b602082015160268110156200b01a57602303620146bb575b5050620122296020916201468d565b60208201519060268210156201478c576024809203620146dd575b50620146ac565b602083015160268110156201477957602514620146d65760208301519060268210156201476557506015036201472857506020916201472062012229926202e1ae565b9138620146d6565b60649060166040519162461bcd60e51b83526020600484015282015275496e76616c6964206f7065726174696f6e207479706560501b6044820152fd5b9050634e487b7160e01b6000526004526000fd5b50634e487b7160e01b6000526004526000fd5b634e487b7160e01b60005260045260246000fd5b8151620147b6906001600160a01b031662006600565b62011f21565b620147c78162004f0a565b9054865160039290921b1c6001600160a01b03908116911614620147f657620147f09062004cdf565b62011f0f565b5050506001388062011f18565b82516001600160a01b0316600160401b82101562002a9b5762001a08826001620148329401613f025562004eee565b386200bbb0565b620148448162004eee565b9054865160039290921b1c6001600160a01b0390811691161462014873576201486d9062004cdf565b6200bb9f565b50506001386200bba8565b82516001600160a01b0316818301556020909201916001016200bad5565b82516001600160a01b0316818301556020909201916001016200b988565b600191820180546001600160a01b03909216848601559390910192906200b8d7565b613f6d60005262014903906000805160206203396c83398151915290810190830162004fa3565b386200b898565b600180826201491b82948662014d65565b019201920191906200b85a565b613f6c600052600080516020620337ac833981519152908282015b8183018110620149555750506200b81f565b806201496360019262005399565b0162014943565b600191820180546001600160a01b03909216848601559390910192906200b7f0565b613f6b600052620149b3906000805160206203376c83398151915290810190830162004fa3565b386200b7b1565b6001809193019182549381613f0301550190916200b754565b82516001600160a01b0316818301556020909201916001016200b66d565b62014a0c90613f026000528484600020918201910162004fa3565b386200b65d565b82516001600160a01b0316818301556020909201916001016200b489565b62014a4c90613ef96000528484600020918201910162004fa3565b386200b479565b8062014a759160031b600160ff60078301541615151462014a7b575062004cdf565b6200b3ce565b62014a8e60048201611fbc830162014efe565b611fbf8101600160ff19825416179055805481611fb801556001810154611fb98201556002810154611fba82015562014acf60058201611fbd830162014d65565b611fbe6006820154910155386200a043565b600660208262014af560019451866200581b565b019201920191906200b1d7565b600681810204810362001e0757600683810204830362001e0757613efa6000527f2dfc264c6ecd0c6ea7ea3726867a09cc7eed901a6e437c010038bab559d48ed86006840281015b826006028201811062014b5f5750506200b1c4565b806000600692556000600182015562014b7b6002820162005504565b6000600382015562014b906004820162005399565b600060058201550162014b4a565b600660208262014bb260019451866200581b565b019201920191906200b14c565b8060060290600682040362001e07578260060260068104840362001e0757600090613efb82526020822092830192015b82811062014bff5750506200b139565b80826006925582600182015562014c196002820162005504565b82600382015562014c2d6004820162005399565b8260058201550162014bef565b608460405162461bcd60e51b815260206004820152604060248201526000805160206203394c83398151915260448201527f656d2073686f756c64206e6f742072657475726e20766f7465206e65656465646064820152fd5b60405162461bcd60e51b815260206004820152604760248201526000805160206203394c83398151915260448201527f656d2073686f756c64206e6f742072657475726e206120766f74696e672072756064820152661b19481b1a5cdd60ca1b608482015260a490fd5b81811462014d61578154916001600160401b03831162002a9b5762014d2383836200509a565b60005260206000209060005260206000208154916000925b84841062014d4a575050505050565b600180919201938454928185015501929062014d3b565b5050565b9080821462014d615762014d7a815462002c79565b906001600160401b03821162002a9b57819062014da48262014d9d865462002c79565b86620056d5565b600090601f831160011462014ddd5760009262014dd15750508160011b916000199060031b1c1916179055565b01549050388062005768565b81526020808220858352818320935090601f1985169083905b82821062014e3257505090846001959493921062014e1857505050811b019055565b015460001960f88460031b161c19169055388080620057b5565b849581929585015481556001809101960194019062014df6565b81811462014d615781549162014e63838362005427565b6000526020600020906000526020600020906000905b83821062014e875750505050565b8062014e966001928562014d65565b92810192918101910162014e79565b81811462014d615781549162014ebc8383620054b5565b6000526020600020906000526020600020906000905b83821062014ee05750505050565b8062014eef6001928562014cfd565b92810192918101910162014ed2565b81811462014d61578154916001600160401b03831162002a9b5762014f2483836200509a565b60005260206000209060005260206000208154916000925b84841062014f4b575050505050565b600191820180546001600160a01b039092168486015593909101929062014f3c565b81811462014d615781549162014f848383620054b5565b6000526020600020906000526020600020906000905b83821062014fa85750505050565b8062014fb76001928562014efe565b92810192918101910162014f9a565b81811462014d615781549162014fdd8383620055b8565b6000526020600020906000526020600020906000905b838210620150015750505050565b8060019184036201501e575b600880910193019101909162014ff3565b805484556201504b8280860190830160ff906201503f82825416846200569a565b5460081c1690620056b4565b6002808201549085015562015067600380830190860162014cfd565b600480850190820180820362015080575b50506201500d565b6201508b9162014e4c565b6201509d600580830190860162014ea5565b620150af600680830190860162014f6d565b620150c1600780830190860162014d65565b388062015078565b919062005d3057808203620150dc575050565b60ff60058062002c3b94620150f5848654168262005681565b6001850154600182015562015111600286016002830162014fc6565b600385015460038201556201512d600486016004830162014d65565b0192016201513f8282541684620057f2565b5460081c169062005803565b9080821462014d6157908154906000915b606483106201516b5750505050565b60018091940192835494818401550191926201515c565b90611f42549060009060208401805151906201519e8262002c61565b91620151ae604051938462002b94565b808352620151bf601f199162002c61565b01366020840137620151d48151518662005eb0565b9015620155c657620151e69062004e62565b92849180515115620155bb57620152008793929362004e62565b95915b81515183101562015404576000958687805b8c8c83109182156201537d576201522e89895162004d46565b5194600092839662015241859662015a04565b620152528588846001948562015bb7565b6201533e575b508284118062015328575b15620152cd575050509183918b620152c3575b600685101562002a23578c8f95600314620152a3575b5050620152999062004cdf565b9190925062015215565b9b620152ba9162001ac78262015299959f62004d46565b9a908c6201528c565b60009b5062015276565b909391809593148062015312575b15620153045750600685101562002a23578c8f95600314620152a3575050620152999062004cdf565b945050620152999062004cdf565b5050600685101562002a23578e851515620152db565b5050600686101562002a23578f86151562015263565b92935093509450620153508462005cba565b5001549060ff620153618562005cba565b505416946003620153728662005cba565b500154933862015258565b50505050969096949391946201539f8162015399858a62004d46565b620035e5565b600681101562002a2357600314620153c6575b50620153be9062004cdf565b919262015203565b6000905b808210620153d95750620153b2565b9094620092e0620153fd91620153f0888c62004d46565b5162001ac7828c62004d46565b90620153ca565b9650505094509150600093845b83518610156201555657620154316201542b878662004d46565b62005673565b9060068083101562002a235760029283036201545c57505062015455909562004cdf565b9462015411565b6201546c6201542b898862004d46565b928184101562002a235760018094148062015542575b15620154975750505062015455909562004cdf565b620154ac6201542b8a899b9694959b62004d46565b928084101562002a23576004809414928362015516575b5082620154eb575b5050620154df575b50620154559062004cdf565b955062015455620154d3565b90915088101562015501578714153880620154cb565b602182634e487b7160e01b6000525260246000fd5b908093508a10156201552d578914159138620154c3565b602184634e487b7160e01b6000525260246000fd5b508183101562002a23578083141562015482565b925092909350600682101562002a235760038203620155b2575b6201557b8162004e62565b9360005b8281106201558e575050509190565b806201559f620155ac928462004d46565b5162001ac7828962004d46565b6201557f565b50600062015570565b509450505092509190565b60405162461bcd60e51b815260206004820152602a60248201527f546865206c656e677468206f6620766f74696e672072756c65206c697374206960448201526973206f766572666c6f7760b01b6064820152608490fd5b90611f43549060009060208401805151906201563a8262002c61565b916201564a604051938462002b94565b8083526201565b601f199162002c61565b01366020840137620156708151518662005eb0565b9015620155c657620156829062004e62565b92849180515115620155bb576201569c8793929362004e62565b95915b8151518310156201588a576000958680805b8c8c82109283156201581557620156ca89895162004d46565b5194600092620156eb848683829a620156e4849b62015a04565b8362015bb7565b620157d6575b81841180620157c0575b1562015764575050509083928b6201575a575b600685101562002a23578c8f956003146201573a575b5050620157319062004cdf565b909250620156b1565b9b620157519162001ac78262015731959f62004d46565b9a908c62015724565b60009b506201570e565b908094939592951480620157aa575b156201579c5750600685101562002a23578c8f956003146201573a575050620157319062004cdf565b945050620157319062004cdf565b5050600685101562002a23578e85151562015773565b5050600686101562002a23578f861515620156fb565b9450945090506001620157e98362005c7a565b5001549060ff620157fa8462005c7a565b5054169460036201580b8562005c7a565b50015494620156f1565b935050505096909694939194620158328162015399858a62004d46565b600681101562002a235760031462015859575b50620158519062004cdf565b91926201569f565b6000905b8082106201586c575062015845565b9094620092e06201588391620153f0888c62004d46565b906201585d565b9650505094509150600093845b8351861015620159ac57620158b16201542b878662004d46565b9060068083101562002a23576002928303620158dc575050620158d5909562004cdf565b9462015897565b620158ec6201542b898862004d46565b928184101562002a235760038094148062015998575b156201591757505050620158d5909562004cdf565b6201592c6201542b8a899b9694959b62004d46565b928084101562002a23576005809414928362015981575b50826201596b575b50506201595f575b50620158d59062004cdf565b9550620158d562015953565b90915088101562002a235787141538806201594b565b908093508a101562002a2357891415913862015943565b508183101562002a23578083141562015902565b925092909350600682101562002a235760038203620159fb575b620159d18162004e62565b9360005b828110620159e4575050509190565b806201559f620159f5928462004d46565b620159d5565b506000620159c6565b1562015a0c57565b60405162461bcd60e51b815260206004820152602860248201527f506c7567696e466163746f72793a20706c7567696e20696e646578206f7574206044820152676f662072616e676560c01b6064820152608490fd5b9062002c3b606160405180947f436865636b696e6720636f6e646974696f6e206578703a20706c7567696e206960208301527f6e646578206f7574206f662072616e67652c20706c7567696e20696e6465783a6040830152600160fd1b606083015262015ad9815180926020868601910162002e01565b810103604181018552018362002b94565b606d62002c3b919392936040519485917f436865636b696e6720636f6e646974696f6e206578703a206e6f646520696e6460208401527f6578206f7574206f662072616e67652c20706c7567696e20696e6465783a2000604084015262015b5c815180926020605f8701910162002e01565b82016d016103737b2329034b73232bc1d160951b605f82015262015b8a825180936020878501910162002e01565b0103604d81018552018362002b94565b805482101562004cfd5760005260206000209060031b0190600090565b93929190841562015f485762015be1611f4254841062000fa362015bdb86620050f5565b62015a62565b62015c18600262015bf28562005cba565b500154851062000fa362015c0686620050f5565b62015c1188620050f5565b9062015aea565b841562015f295762015c48600162015c3f86600262015c378862005cba565b500162015b9a565b50015460ff1690565b945b62015c558662002fc4565b8562015c6657505050505050600090565b62015c718662002fc4565b60039580870362015c885750505050505050600190565b62015c938162002fc4565b6004810362015ca85750505050505050600090565b62015cb38162002fc4565b6001810362015cc95750620032d2955062015f78565b91959392949062015cda8362002fc4565b600280931462015cf1575b50505050505050600090565b801562015f0b5762015d1b600162015d0f848662015c378962005cba565b50015460081c60ff1690565b935b811562015eef578562015d36848662015c378562005cba565b500154965b62015d468862004e62565b9860005b89811062015e645750505050505062015d638262002a18565b6001820362015dc657505050906001916000915b81831062015d855750505090565b9091928062015da3575b62015d9b909362004cdf565b919062015d77565b5062015d9b62015dbe62015db8858462004d46565b51151590565b905062015d8f565b62015dd18262002a18565b810362015e2b5750509060009182915b81831062015def5750505090565b909192801562015e0e575b62015e06909362004cdf565b919062015de1565b5062015e0662015e2362015db8858462004d46565b905062015dfa565b90915062015e398162002a18565b1462015e4d57503880808080808062015ce5565b62015e6062015db8620032d29262004cef565b1590565b808b62015ead828c8a8c8a8c1562015ece5762015ea3949262015e99949262015c3762015e919362005cba565b500162004f5e565b90549060031b1c90565b8787878b62015bb7565b62015ec162015ec89462000faa9362004d46565b9015159052565b62015d4a565b62015ee9949262015e99949262015c3762015e919362005c7a565b62015ea3565b8562015f01848662015c378562005c7a565b5001549662015d3b565b62015f22600162015d0f848662015c378962005c7a565b9362015d1d565b62015f41600162015c3f86600262015c378862005c7a565b9462015c4a565b62015f61611f4354841062000fa362015bdb86620050f5565b62015f72600262015bf28562005c7a565b62015c18565b9392600462015fc291866000146201619057600262015f9d878262015c378562005cba565b500154955b87156201617f57600262015c3762015fba9362005cba565b5001620036ac565b916032841115620161735760338410158062016167575b6201615a576097841015806201614e575b620161415760d38410158062016134575b620161285761012d841015806201611c575b6201610f576101918410158062016102575b620160f5576101af84101580620160e8575b620160db576101cd84101580620160ce575b620160c1576101f584101580620160b4575b620160a757610259841015806201609a575b6201608c57506102bd831015620160815750505050600090565b620032d293620241b4565b9050620032d293506202b4f1565b506102bc84111562016067565b50620032d293506201e3df565b5061025884111562016055565b50620032d293506202be55565b506101f484111562016043565b50620032d293506202c8b8565b506101cc84111562016031565b50620032d2935062023923565b506101ae8411156201601f565b50620032d2935062028765565b5061019084106201600d565b50620032d293620161ad565b5061012c84111562015ffb565b50620032d2935062023f9f565b5060b484111562015fea565b5050620032d2926201f03f565b50609584111562015fd9565b50620032d29362025742565b600262015c3762015fba9362005c7a565b6002620161a3878262015c378562005c7a565b5001549562015fa2565b9260d381146201677c5760d481146201676f5760d58114620167625760d68114620167555760d78114620167485760d881146201673b5760d981146201672f5760da8114620167225760db8114620167155760dc8114620167095760dd8114620166fa5760de8114620166eb5760df8114620166de5760e08114620166d15760e18114620166c55760e28114620166b85760e38114620166ab5760e481146201669f5760e58114620166905760e68114620166815760e78114620166745760e88114620166675760e981146201665a5760ea81146201664d5760eb8114620166405760ec8114620166335760ed8114620166265760ee8114620166195760ef81146201660c5760f08114620165ff5760f18114620165f25760f28114620165e55760f38114620165d85760f48114620165cb5760f58114620165be5760f68114620165b15760f78114620165a45760f88114620165975760f981146201658b5760fa81146201657f5760fb8114620165735760fc8114620165675760fd81146201655b5760fe81146201654f5760ff811462016543576101008114620165375761010181146201652b5761010281146201651f5761010381146201651357610104811462016507576101058114620164fb576101068114620164ef576101078114620164e3576101088114620164d7576101098114620164cb5761010a8114620164bf5761010b8114620164b35761010c8114620164a75761010d81146201649b5761010e81146201648f5761010f811462016483576101108114620164775761011181146201646b5761011281146201645f57610113811462016453576101148114620164475761011581146201643b57610116146201643057505050600090565b620032d2926201da96565b50620032d2926201d86d565b50620032d2926201d644565b50620032d2926201d341565b50620032d2926201d120565b50620032d2926201ceff565b50620032d2926201cccd565b50620032d2926201cb04565b50620032d2926201c93b565b50620032d2926201c703565b50620032d2926201c53c565b50620032d2926201c20d565b50620032d2926201bfdb565b50620032d2926201be12565b50620032d2926201bc49565b50620032d2926201ba84565b50620032d2926201b84c565b50620032d2926201b685565b50620032d2926201b34f565b50620032d2926201b0ef565b50620032d2926201af1e565b50620032d2926201ad3d565b50620032d2926201ab76565b50620032d2926201a920565b50620032d2926201a757565b50620032d2926201a58e565b50620032d2926201a2ad565b50620032d29262019fad565b50620032d29262019cc0565b50620032d292620199c0565b50620032d292506201983b565b50620032d29250620196f6565b50620032d2925062019584565b50620032d292506201943f565b50620032d29250620192fa565b50620032d29250620191b6565b50620032d2925062019041565b50620032d2925062018efd565b50620032d2925062018db9565b50620032d2925062018c78565b50620032d2925062018b35565b50620032d29250620189f4565b50620032d29250620188ab565b50620032d2925062018767565b50620032d2925062018623565b50620032d29250620184ae565b50620032d2925062018310565b50620032d29250620181cd565b509050620032d2915062018172565b509050620032d2915062018115565b50620032d29262017ed7565b50620032d2925062017d48565b50620032d2925062017bf9565b50620032d292620179e2565b50620032d292506201783a565b50620032d29250620176ed565b509050620032d2915062017692565b509050620032d2915062017625565b50620032d292620173d9565b50620032d292506201724a565b50620032d29250620170f5565b50620032d29262016ec7565b50620032d2925062016d0f565b50620032d2925062016bb3565b50620032d2925062016ab2565b50620032d2925062016985565b50620032d2925062016884565b50620032d2925090602001906001825151036201682b576001620167a1835162004cef565b515103620167d157620167b4906201dd9d565b919015620065cf576200680d620167cc915162004cef565b511090565b60405162461bcd60e51b815260206004820152602e60248201527f43452049445f3231313a205468652055494e545f324441525241595b305d206c6044820152600080516020620338ac8339815191526064820152608490fd5b60405162461bcd60e51b815260206004820152602b60248201527f43452049445f3231313a205468652055494e545f32444152524159206c656e6760448201526a7468206973206e6f74203160a81b6064820152608490fd5b90602001906001825151036201692c576001620168a2835162004cef565b515103620168d257620168b5906201dd9d565b919015620065cf576200680d620168cd915162004cef565b511190565b60405162461bcd60e51b815260206004820152602e60248201527f43452049445f3231323a205468652055494e545f324441525241595b305d206c6044820152600080516020620338ac8339815191526064820152608490fd5b60405162461bcd60e51b815260206004820152602b60248201527f43452049445f3231323a205468652055494e545f32444152524159206c656e6760448201526a7468206973206e6f74203160a81b6064820152608490fd5b906020019060018251510362016a59576002620169a3835162004cef565b515103620169fd57620169b6906201dd9d565b9015620065cf57620169cd6200680d835162004cef565b518110159182620169dd57505090565b620169f7919250620169f0905162004cef565b5162004d13565b51101590565b60405162461bcd60e51b815260206004820152602e60248201527f43452049445f3231333a205468652055494e545f324441525241595b305d206c60448201526d32b733ba341034b9903737ba101960911b6064820152608490fd5b60405162461bcd60e51b815260206004820152602b60248201527f43452049445f3231333a205468652055494e545f32444152524159206c656e6760448201526a7468206973206e6f74203160a81b6064820152608490fd5b906020019060018251510362016b5a57600162016ad0835162004cef565b51510362016b005762016ae3906201dd9d565b919015620065cf576200680d62016afb915162004cef565b511490565b60405162461bcd60e51b815260206004820152602e60248201527f43452049445f3231343a205468652055494e545f324441525241595b305d206c6044820152600080516020620338ac8339815191526064820152608490fd5b60405162461bcd60e51b815260206004820152602b60248201527f43452049445f3231343a205468652055494e545f32444152524159206c656e6760448201526a7468206973206e6f74203160a81b6064820152608490fd5b90604001600191828251510362016cb5578262016bd1835162004cef565b51510362016c5b5762016be4906201e110565b15620065c757829160009182945b62016c00575b505050905090565b805185101562016c55576001600160a01b038062016c1f878462004d46565b51169062016c326200680d855162004cef565b51160362016c4d5762016c46849562004cdf565b9462016bf2565b505091505090565b62016bf8565b60405162461bcd60e51b815260206004820152603160248201527f43452049445f3231353a2054686520414444524553535f324441525241595b3060448201526000805160206203384c8339815191526064820152608490fd5b60405162461bcd60e51b815260206004820152602e60248201527f43452049445f3231353a2054686520414444524553535f32444152524159206c6044820152600080516020620338ac8339815191526064820152608490fd5b90604001600191828251510362016e6d578262016d2d835162004cef565b51511062016e135762016d40906201e110565b15620065c757600091835b62016d57575b50505090565b815183101562016e0d57600080855b62016d8f575b501562016d865762016d7f849362004cdf565b9262016d4b565b50505050600090565b62016da08396949295965162004cef565b515181101562016e02576001600160a01b038062016dbf888562004d46565b51169062016dd3836200743f875162004cef565b51161462016df5579062016de984939262004cdf565b90939594919262016d66565b5091809493503862016d6c565b949390929462016d6c565b62016d51565b60405162461bcd60e51b815260206004820152603e60248201527f43452049445f3231363a2054686520414444524553535f324441525241595b30604482015260008051602062033a2c8339815191526064820152608490fd5b60405162461bcd60e51b815260206004820152602e60248201527f43452049445f3231363a2054686520414444524553535f32444152524159206c6044820152600080516020620338ac8339815191526064820152608490fd5b909160208091019060019384835151036201709b578462016ee9845162004cef565b515103620170415762016efc906201e110565b1562016f9a5784931562016fb1576000935b62016f1a575050505090565b8051841015620051fe576001600160a01b038062016f39868462004d46565b5116600052611f4080845260409060ff8260002054161562016fa45760029262016f64888662004d46565b51166000528452600020015462016f806200680d855162004cef565b510362016f9a5762016f93859462004cdf565b9362016f0e565b5050505050600090565b5050505050505050600090565b6000935b62016fc1575050505090565b8051841015620051fe576001600160a01b038062016fe0868462004d46565b5116600052613ef880845260409060ff8260002054161562016fa4576002926201700b888662004d46565b511660005284526000200154620170276200680d855162004cef565b510362016f9a576201703a859462004cdf565b9362016fb5565b60405162461bcd60e51b815260048101839052603160248201527f43452049445f3231373a205468652055494e543235365f324441525241595b3060448201526000805160206203384c8339815191526064820152608490fd5b60405162461bcd60e51b815260048101839052602e60248201527f43452049445f3231373a205468652055494e543235365f32444152524159206c6044820152600080516020620338ac8339815191526064820152608490fd5b906040016001918282515103620171f0578262017113835162004cef565b515103620171965762017126906201e110565b91909115620065c757600091835b620171425750505050600090565b8051831015620171905783926001600160a01b038062017163838562004d46565b511690620171766200680d865162004cef565b511614620051c457620171899062004cdf565b9262017134565b62016d86565b60405162461bcd60e51b815260206004820152603160248201527f43452049445f3231383a2054686520414444524553535f324441525241595b3060448201526000805160206203384c8339815191526064820152608490fd5b60405162461bcd60e51b815260206004820152602e60248201527f43452049445f3231383a2054686520414444524553535f32444152524159206c6044820152600080516020620338ac8339815191526064820152608490fd5b9060400160019182825151036201737f578262017268835162004cef565b51511062017325576201727b906201e110565b15620065c75782916000935b620172955750505050600090565b815184101562017190576000835b620172bd575b50620172b6839462004cdf565b9362017287565b939291620172cc825162004cef565b51518510156201731c576001600160a01b0380620172eb868462004d46565b511690620172ff876200743f865162004cef565b51161462016c4d576201731483949562004cdf565b9092620172a3565b919293620172a9565b60405162461bcd60e51b815260206004820152603e60248201527f43452049445f3231393a2054686520414444524553535f324441525241595b30604482015260008051602062033a2c8339815191526064820152608490fd5b60405162461bcd60e51b815260206004820152602e60248201527f43452049445f3231393a2054686520414444524553535f32444152524159206c6044820152600080516020620338ac8339815191526064820152608490fd5b90916020809101906001938483515103620175cb5784620173fb845162004cef565b51510362017571576201740e906201e110565b9190911562016f9a57849315620174cf576000935b62017432575050505050600090565b8151841015620174c95784936001600160a01b03908162017454828662004d46565b5116600052611f4080845260409060ff82600020541662017485575b50506201747e915062004cdf565b9362017423565b8293620174956002948862004d46565b511660005284526000200154620174b16200680d865162004cef565b5114620174c15780388062017470565b505050505090565b62016f9a565b6000935b620174e2575050505050600090565b8151841015620174c95784936001600160a01b03908162017504828662004d46565b5116600052613ef880845260409060ff82600020541662017535575b50506201752e915062004cdf565b93620174d3565b8293620175456002948862004d46565b511660005284526000200154620175616200680d865162004cef565b5114620174c15780388062017520565b60405162461bcd60e51b815260048101839052603160248201527f43452049445f3232303a205468652055494e543235365f324441525241595b3060448201526000805160206203384c8339815191526064820152608490fd5b60405162461bcd60e51b815260048101839052602e60248201527f43452049445f3232303a205468652055494e543235365f32444152524159206c6044820152600080516020620338ac8339815191526064820152608490fd5b62017630816201e110565b91909115620065cf57815115620065cf57600090815b835181101562017689576001600160a01b038062017665838762004d46565b5116908351160362017682576201767c9062004cdf565b62017646565b5050905090565b50505050600190565b6201769d816201e110565b91909115620065cf57815115620065cf5760005b8251811015620065c7576001600160a01b0380620176d0838662004d46565b51169083511614620065b457620176e79062004cdf565b620176b1565b906040016001918282515103620177e057826201770b835162004cef565b51510362017786576201771e906201e199565b15620065c757829160009182945b6201773957505050905090565b805185101562016c55576001600160a01b038062017758878462004d46565b5116906201776b6200680d855162004cef565b51160362016c4d576201777f849562004cdf565b946201772c565b60405162461bcd60e51b815260206004820152603160248201527f43452049445f3232333a2054686520414444524553535f324441525241595b3060448201526000805160206203384c8339815191526064820152608490fd5b60405162461bcd60e51b815260206004820152602e60248201527f43452049445f3232333a2054686520414444524553535f32444152524159206c6044820152600080516020620338ac8339815191526064820152608490fd5b90604001600191828251510362017988578262017858835162004cef565b5151106201792e576201786b906201e199565b15620065c757600091835b620178815750505090565b815183101562016e0d57600080855b620178b0575b501562016d8657620178a9849362004cdf565b9262017876565b620178c18396949295965162004cef565b515181101562017923576001600160a01b0380620178e0888562004d46565b511690620178f4836200743f875162004cef565b5116146201791657906201790a84939262004cdf565b90939594919262017890565b5091809493503862017896565b949390929462017896565b60405162461bcd60e51b815260206004820152603e60248201527f43452049445f3232343a2054686520414444524553535f324441525241595b30604482015260008051602062033a2c8339815191526064820152608490fd5b60405162461bcd60e51b815260206004820152602e60248201527f43452049445f3232343a2054686520414444524553535f32444152524159206c6044820152600080516020620338ac8339815191526064820152608490fd5b9091602080910190600193848351510362017b9f578462017a04845162004cef565b51510362017b455762017a17906201e199565b1562016f9a5784931562017ab5576000935b62017a35575050505090565b8051841015620051fe576001600160a01b038062017a54868462004d46565b5116600052611f4080845260409060ff8260002054161562016fa45760029262017a7f888662004d46565b51166000528452600020015462017a9b6200680d855162004cef565b510362016f9a5762017aae859462004cdf565b9362017a29565b6000935b62017ac5575050505090565b8051841015620051fe576001600160a01b038062017ae4868462004d46565b5116600052613ef880845260409060ff8260002054161562016fa45760029262017b0f888662004d46565b51166000528452600020015462017b2b6200680d855162004cef565b510362016f9a5762017b3e859462004cdf565b9362017ab9565b60405162461bcd60e51b815260048101839052603160248201527f43452049445f3232353a205468652055494e543235365f324441525241595b3060448201526000805160206203384c8339815191526064820152608490fd5b60405162461bcd60e51b815260048101839052602e60248201527f43452049445f3232353a205468652055494e543235365f32444152524159206c6044820152600080516020620338ac8339815191526064820152608490fd5b90604001600191828251510362017cee578262017c17835162004cef565b51510362017c945762017c2a906201e199565b91909115620065c757600091835b62017c465750505050600090565b8051831015620171905783926001600160a01b038062017c67838562004d46565b51169062017c7a6200680d865162004cef565b511614620051c45762017c8d9062004cdf565b9262017c38565b60405162461bcd60e51b815260206004820152603160248201527f43452049445f3232363a2054686520414444524553535f324441525241595b3060448201526000805160206203384c8339815191526064820152608490fd5b60405162461bcd60e51b815260206004820152602e60248201527f43452049445f3232363a2054686520414444524553535f32444152524159206c6044820152600080516020620338ac8339815191526064820152608490fd5b90604001600191828251510362017e7d578262017d66835162004cef565b51511062017e235762017d79906201e199565b15620065c75782916000935b62017d935750505050600090565b815184101562017190576000835b62017dbb575b5062017db4839462004cdf565b9362017d85565b93929162017dca825162004cef565b515185101562017e1a576001600160a01b038062017de9868462004d46565b51169062017dfd876200743f865162004cef565b51161462016c4d5762017e1283949562004cdf565b909262017da1565b91929362017da7565b60405162461bcd60e51b815260206004820152603e60248201527f43452049445f3232373a2054686520414444524553535f324441525241595b30604482015260008051602062033a2c8339815191526064820152608490fd5b60405162461bcd60e51b815260206004820152602e60248201527f43452049445f3232373a2054686520414444524553535f32444152524159206c6044820152600080516020620338ac8339815191526064820152608490fd5b90916020809101906001938483515103620180bb578462017ef9845162004cef565b515103620180615762017f0c906201e199565b9190911562016f9a5784931562017fbf576000935b62017f30575050505050600090565b8151841015620174c95784936001600160a01b03908162017f52828662004d46565b5116600052611f4080845260409060ff82600020541662017f83575b505062017f7c915062004cdf565b9362017f21565b829362017f936002948862004d46565b51166000528452600020015462017faf6200680d865162004cef565b5114620174c15780388062017f6e565b6000935b62017fd2575050505050600090565b8151841015620174c95784936001600160a01b03908162017ff4828662004d46565b5116600052613ef880845260409060ff82600020541662018025575b50506201801e915062004cdf565b9362017fc3565b8293620180356002948862004d46565b511660005284526000200154620180516200680d865162004cef565b5114620174c15780388062018010565b60405162461bcd60e51b815260048101839052603160248201527f43452049445f3232383a205468652055494e543235365f324441525241595b3060448201526000805160206203384c8339815191526064820152608490fd5b60405162461bcd60e51b815260048101839052602e60248201527f43452049445f3232383a205468652055494e543235365f32444152524159206c6044820152600080516020620338ac8339815191526064820152608490fd5b62018120816201e199565b91909115620065cf57815115620065cf57600090815b835181101562017689576001600160a01b038062018155838762004d46565b5116908351160362017682576201816c9062004cdf565b62018136565b6201817d816201e199565b91909115620065cf57815115620065cf5760005b8251811015620065c7576001600160a01b0380620181b0838662004d46565b51169083511614620065b457620181c79062004cdf565b62018191565b906020016001918282515103620182b65782620181eb835162004cef565b5151036201825c57620181fe906201e1d2565b905015620065c757829160009182945b6201821b57505050905090565b805185101562016c555762018231858262004d46565b51620182426200680d845162004cef565b510362016c4d5762018255849562004cdf565b946201820e565b60405162461bcd60e51b815260206004820152603160248201527f43452049445f3233313a205468652055494e543235365f324441525241595b3060448201526000805160206203384c8339815191526064820152608490fd5b60405162461bcd60e51b815260206004820152602e60248201527f43452049445f3233313a205468652055494e543235365f32444152524159206c6044820152600080516020620338ac8339815191526064820152608490fd5b9060200160019182825151036201845457826201832e835162004cef565b515110620183fa5762018341906201e1d2565b905015620065c757600091835b620183595750505090565b815183101562016e0d57600080855b62018388575b501562016d865762018381849362004cdf565b926201834e565b620183998396949295965162004cef565b5151811015620183ef57620183af868362004d46565b51620183c1826200743f865162004cef565b5114620183e25790620183d684939262004cdf565b90939594919262018368565b509180949350386201836e565b94939092946201836e565b60405162461bcd60e51b815260206004820152603e60248201527f43452049445f3233323a205468652055494e543235365f324441525241595b30604482015260008051602062033a2c8339815191526064820152608490fd5b60405162461bcd60e51b815260206004820152602e60248201527f43452049445f3233323a205468652055494e543235365f32444152524159206c6044820152600080516020620338ac8339815191526064820152608490fd5b906020016001918282515103620185c9576002620184cd835162004cef565b5151036201856f57620184e0906201e1d2565b905091909115620065c757829160009182945b6201850057505050905090565b815185101562016c555762018516858362004d46565b51620185276200680d835162004cef565b5111801562018549575b62016c4d5762018542849562004cdf565b94620184f3565b5062018556858362004d46565b5162018567620169f0835162004cef565b511062018531565b60405162461bcd60e51b815260206004820152603160248201527f43452049445f3233333a205468652055494e543235365f324441525241595b306044820152600080516020620339ac8339815191526064820152608490fd5b60405162461bcd60e51b815260206004820152602e60248201527f43452049445f3233333a205468652055494e543235365f32444152524159206c6044820152600080516020620338ac8339815191526064820152608490fd5b9060200160019182825151036201870d578262018641835162004cef565b515103620186b35762018654906201e1d2565b905015620065c757829160009182945b6201867157505050905090565b805185101562016c555762018687858262004d46565b51620186986200680d845162004cef565b51101562016c4d57620186ac849562004cdf565b9462018664565b60405162461bcd60e51b815260206004820152603160248201527f43452049445f3233343a205468652055494e543235365f324441525241595b3060448201526000805160206203384c8339815191526064820152608490fd5b60405162461bcd60e51b815260206004820152602e60248201527f43452049445f3233343a205468652055494e543235365f32444152524159206c6044820152600080516020620338ac8339815191526064820152608490fd5b90602001600191828251510362018851578262018785835162004cef565b515103620187f75762018798906201e1d2565b905015620065c757829160009182945b620187b557505050905090565b805185101562016c5557620187cb858262004d46565b51620187dc6200680d845162004cef565b51111562016c4d57620187f0849562004cdf565b94620187a8565b60405162461bcd60e51b815260206004820152603160248201527f43452049445f3233353a205468652055494e543235365f324441525241595b3060448201526000805160206203384c8339815191526064820152608490fd5b60405162461bcd60e51b815260206004820152602e60248201527f43452049445f3233353a205468652055494e543235365f32444152524159206c6044820152600080516020620338ac8339815191526064820152608490fd5b9060200160019182825151036201899a5782620188c9835162004cef565b5151036201894057620188dc906201e1d2565b9093915015620065c7578060009384925b62018906575b5050506200680d620167cc915162004cef565b909193815185101562018939576200e870620189309162018928878562004d46565b519062006200565b919081620188ed565b93620188f3565b60405162461bcd60e51b815260206004820152603160248201527f43452049445f3233363a205468652055494e543235365f324441525241595b3060448201526000805160206203384c8339815191526064820152608490fd5b60405162461bcd60e51b815260206004820152602e60248201527f43452049445f3233363a205468652055494e543235365f32444152524159206c6044820152600080516020620338ac8339815191526064820152608490fd5b90602001600191828251510362018adb578262018a12835162004cef565b51510362018a815762018a25906201e1d2565b9093915015620065c7578060009384925b62018a4f575b5050506200680d620168cd915162004cef565b909193815185101562018a7a576200e87062018a719162018928878562004d46565b91908162018a36565b9362018a3c565b60405162461bcd60e51b815260206004820152603160248201527f43452049445f3233373a205468652055494e543235365f324441525241595b3060448201526000805160206203384c8339815191526064820152608490fd5b60405162461bcd60e51b815260206004820152602e60248201527f43452049445f3233373a205468652055494e543235365f32444152524159206c6044820152600080516020620338ac8339815191526064820152608490fd5b9060200190600190818351510362018c1e57600262018b55845162004cef565b51510362018bc45762018b68906201e1d2565b90915015620065c757906000918183925b62018b92575b505050620169cd6200680d835162004cef565b909192825184101562018bbd576200647f62018bb49162018928868662004d46565b91908062018b79565b9262018b7f565b60405162461bcd60e51b815260206004820152603160248201527f43452049445f3233383a205468652055494e543235365f324441525241595b306044820152600080516020620339ac8339815191526064820152608490fd5b60405162461bcd60e51b815260206004820152602e60248201527f43452049445f3233383a205468652055494e543235365f32444152524159206c6044820152600080516020620338ac8339815191526064820152608490fd5b90602001600191828251510362018d5f578262018c96835162004cef565b51510362018d055762018ca9906201e1d2565b9093915015620065c7578060009384925b62018cd3575b5050506200680d62016afb915162004cef565b909193815185101562018cfe576200e87062018cf59162018928878562004d46565b91908162018cba565b9362018cc0565b60405162461bcd60e51b815260206004820152603160248201527f43452049445f3233393a205468652055494e543235365f324441525241595b3060448201526000805160206203384c8339815191526064820152608490fd5b60405162461bcd60e51b815260206004820152602e60248201527f43452049445f3233393a205468652055494e543235365f32444152524159206c6044820152600080516020620338ac8339815191526064820152608490fd5b90602001600191828251510362018ea3578262018dd7835162004cef565b51510362018e495762018dea906201e1d2565b9092915015620065c757600091835b62018e075750505050600090565b805183101562017190578262018e1f85948362004d46565b5162018e306200680d855162004cef565b5110620051c45762018e429062004cdf565b9262018df9565b60405162461bcd60e51b815260206004820152603160248201527f43452049445f3234303a205468652055494e543235365f324441525241595b3060448201526000805160206203384c8339815191526064820152608490fd5b60405162461bcd60e51b815260206004820152602e60248201527f43452049445f3234303a205468652055494e543235365f32444152524159206c6044820152600080516020620338ac8339815191526064820152608490fd5b90602001600191828251510362018fe7578262018f1b835162004cef565b51510362018f8d5762018f2e906201e1d2565b9291921562016d8657600092845b62018f4b575050505050600090565b8051841015620174c9578362018f6386958462004d46565b5162018f746200680d865162004cef565b5111620174c15762018f869062004cdf565b9362018f3c565b60405162461bcd60e51b815260206004820152603160248201527f43452049445f3234313a205468652055494e543235365f324441525241595b3060448201526000805160206203384c8339815191526064820152608490fd5b60405162461bcd60e51b815260206004820152602e60248201527f43452049445f3234313a205468652055494e543235365f32444152524159206c6044820152600080516020620338ac8339815191526064820152608490fd5b9060200160019182825151036201915c57600262019060835162004cef565b515103620191025762019073906201e1d2565b929091921562016d8657600092845b62019091575050505050600090565b8051841015620174c95783620190a986958562004d46565b51620190ba6200680d855162004cef565b51111580620190db575b620174c157620190d49062004cdf565b9362019082565b50620190e8818562004d46565b51620190f9620169f0855162004cef565b511015620190c4565b60405162461bcd60e51b815260206004820152603160248201527f43452049445f3234323a205468652055494e543235365f324441525241595b306044820152600080516020620339ac8339815191526064820152608490fd5b60405162461bcd60e51b815260206004820152602e60248201527f43452049445f3234323a205468652055494e543235365f32444152524159206c6044820152600080516020620338ac8339815191526064820152608490fd5b906020016001918282515103620192a05782620191d4835162004cef565b5151036201924657620191e7906201e1d2565b9291921562016d8657600092845b62019204575050505050600090565b8051841015620174c957836201921c86958462004d46565b516201922d6200680d865162004cef565b5114620174c1576201923f9062004cdf565b93620191f5565b60405162461bcd60e51b815260206004820152603160248201527f43452049445f3234333a205468652055494e543235365f324441525241595b3060448201526000805160206203384c8339815191526064820152608490fd5b60405162461bcd60e51b815260206004820152602e60248201527f43452049445f3234333a205468652055494e543235365f32444152524159206c6044820152600080516020620338ac8339815191526064820152608490fd5b906020016001918282515103620193e5578262019318835162004cef565b5151036201938b576201932b906201e1d2565b905091909115620065c757600091835b620193495750505050600090565b80518310156201719057826201936185948362004d46565b51620193726200680d855162004cef565b5110620051c457620193849062004cdf565b926201933b565b60405162461bcd60e51b815260206004820152603160248201527f43452049445f3234343a205468652055494e543235365f324441525241595b3060448201526000805160206203384c8339815191526064820152608490fd5b60405162461bcd60e51b815260206004820152602e60248201527f43452049445f3234343a205468652055494e543235365f32444152524159206c6044820152600080516020620338ac8339815191526064820152608490fd5b9060200160019182825151036201952a57826201945d835162004cef565b515103620194d05762019470906201e1d2565b905091909115620065c757600091835b6201948e5750505050600090565b8051831015620171905782620194a685948362004d46565b51620194b76200680d855162004cef565b5111620051c457620194c99062004cdf565b9262019480565b60405162461bcd60e51b815260206004820152603160248201527f43452049445f3234353a205468652055494e543235365f324441525241595b3060448201526000805160206203384c8339815191526064820152608490fd5b60405162461bcd60e51b815260206004820152602e60248201527f43452049445f3234353a205468652055494e543235365f32444152524159206c6044820152600080516020620338ac8339815191526064820152608490fd5b9060200160019182825151036201969c576002620195a3835162004cef565b5151036201964257620195b6906201e1d2565b905015620065c757600091835b620195d15750505050600090565b8151831015620171905782620195e985948462004d46565b51620195fa6200680d845162004cef565b511115806201961b575b620051c457620196149062004cdf565b92620195c3565b5062019628818462004d46565b5162019639620169f0845162004cef565b51101562019604565b60405162461bcd60e51b815260206004820152603160248201527f43452049445f3234363a205468652055494e543235365f324441525241595b306044820152600080516020620339ac8339815191526064820152608490fd5b60405162461bcd60e51b815260206004820152602e60248201527f43452049445f3234363a205468652055494e543235365f32444152524159206c6044820152600080516020620338ac8339815191526064820152608490fd5b906020016001918282515103620197e1578262019714835162004cef565b515103620197875762019727906201e1d2565b905091909115620065c757600091835b620197455750505050600090565b80518310156201719057826201975d85948362004d46565b516201976e6200680d855162004cef565b5114620051c457620197809062004cdf565b9262019737565b60405162461bcd60e51b815260206004820152603160248201527f43452049445f3234373a205468652055494e543235365f324441525241595b3060448201526000805160206203384c8339815191526064820152608490fd5b60405162461bcd60e51b815260206004820152602e60248201527f43452049445f3234373a205468652055494e543235365f32444152524159206c6044820152600080516020620338ac8339815191526064820152608490fd5b90602001600191828251510362019966578262019859835162004cef565b5151106201990c576201986c906201e1d2565b905015620065c75782916000935b620198885750505050600090565b815184101562017190576000835b620198b0575b50620198a9839462004cdf565b936201987a565b939291620198bf825162004cef565b51518510156201990357620198d5848262004d46565b51620198e7866200743f855162004cef565b511462016c4d57620198fb83949562004cdf565b909262019896565b9192936201989c565b60405162461bcd60e51b815260206004820152603e60248201527f43452049445f3234383a205468652055494e543235365f324441525241595b30604482015260008051602062033a2c8339815191526064820152608490fd5b60405162461bcd60e51b815260206004820152602e60248201527f43452049445f3234383a205468652055494e543235365f32444152524159206c6044820152600080516020620338ac8339815191526064820152608490fd5b9091602080910190600193848351510362019c665784620199e2845162004cef565b51511062019c0c57620199f5906201e199565b9290921562016f9a5784931562019b09576000935b62019a16575050505090565b8251841015620051fe576001600160a01b038062019a35868662004d46565b5116600052611f40808452604060ff8160002054161562016fa457879160009384935b62019a7b575b505050501562016f9a5762019a74859462004cdf565b9362019a0a565b9092989591939662019a8e865162004cef565b51518a101562019afd578162019aa58a8362004d46565b5116600052838352600285600020015462019ac68b6200743f895162004cef565b511462019aea5762019adb8798999a62004cdf565b93919097999894929662019a58565b9650509396505050843880808062019a5e565b96938296995062019a5e565b6000935b62019b19575050505090565b8251841015620051fe576001600160a01b038062019b38868662004d46565b5116600052613ef8808452604060ff8160002054161562016fa457879160009384935b62019b7e575b505050501562016f9a5762019b77859462004cdf565b9362019b0d565b9092989591939662019b91865162004cef565b51518a101562019c00578162019ba88a8362004d46565b5116600052838352600285600020015462019bc98b6200743f895162004cef565b511462019bed5762019bde8798999a62004cdf565b93919097999894929662019b5b565b9650509396505050843880808062019b61565b96938296995062019b61565b60405162461bcd60e51b815260048101839052603e60248201527f43452049445f3234393a205468652055494e543235365f324441525241595b30604482015260008051602062033a2c8339815191526064820152608490fd5b60405162461bcd60e51b815260048101839052602e60248201527f43452049445f3234393a205468652055494e543235365f32444152524159206c6044820152600080516020620338ac8339815191526064820152608490fd5b6020809301600192838251510362019f53578362019cdf835162004cef565b51511062019ef95762019cf2906201e199565b9490941562016f9a5783921562019e045793926000905b62019d18575050505050600090565b8351811015620174c9576001600160a01b038062019d37838762004d46565b5116600052611f4080875260409160ff83600020541662019d6d575b5050509362019d6483949562004cdf565b90949362019d09565b6000929190865b62019d81575b5062019d53565b90929791939662019d93865162004cef565b515189101562019df9578162019daa898362004d46565b5116600052838352600285600020015462019dcb8a6200743f895162004cef565b511462019ded5762019ddf87989962004cdf565b939190979894929862019d74565b50505050505091505090565b969382985062019d7a565b93926000905b62019e19575050505050600090565b8351811015620174c9576001600160a01b038062019e38838762004d46565b5116600052613ef880875260409160ff83600020541662019e6e575b5050509362019e6583949562004cdf565b90949362019e0a565b6000929190865b62019e82575b5062019e54565b90929791939662019e94865162004cef565b515189101562019eee578162019eab898362004d46565b5116600052838352600285600020015462019ecc8a6200743f895162004cef565b511462019ded5762019ee087989962004cdf565b939190979894929862019e75565b969382985062019e7b565b60405162461bcd60e51b815260048101869052603e60248201527f43452049445f3235303a205468652055494e543235365f324441525241595b30604482015260008051602062033a2c8339815191526064820152608490fd5b60405162461bcd60e51b815260048101869052602e60248201527f43452049445f3235303a205468652055494e543235365f32444152524159206c6044820152600080516020620338ac8339815191526064820152608490fd5b909160208091019060019384835151036201a253578462019fcf845162004cef565b5151106201a1f95762019fe2906201e110565b9290921562016f9a578493156201a0f6576000935b6201a003575050505090565b8251841015620051fe576001600160a01b03806201a022868662004d46565b5116600052611f40808452604060ff8160002054161562016fa457879160009384935b6201a068575b505050501562016f9a576201a061859462004cdf565b9362019ff7565b909298959193966201a07b865162004cef565b51518a10156201a0ea57816201a0928a8362004d46565b511660005283835260028560002001546201a0b38b6200743f895162004cef565b51146201a0d7576201a0c88798999a62004cdf565b9391909799989492966201a045565b965050939650505084388080806201a04b565b9693829699506201a04b565b6000935b6201a106575050505090565b8251841015620051fe576001600160a01b03806201a125868662004d46565b5116600052613ef8808452604060ff8160002054161562016fa457879160009384935b6201a16b575b505050501562016f9a576201a164859462004cdf565b936201a0fa565b909298959193966201a17e865162004cef565b51518a10156201a1ed57816201a1958a8362004d46565b511660005283835260028560002001546201a1b68b6200743f895162004cef565b51146201a1da576201a1cb8798999a62004cdf565b9391909799989492966201a148565b965050939650505084388080806201a14e565b9693829699506201a14e565b60405162461bcd60e51b815260048101839052603e60248201527f43452049445f3235313a205468652055494e543235365f324441525241595b30604482015260008051602062033a2c8339815191526064820152608490fd5b60405162461bcd60e51b815260048101839052602e60248201527f43452049445f3235313a205468652055494e543235365f32444152524159206c6044820152600080516020620338ac8339815191526064820152608490fd5b602080930160019283825151036201a53457836201a2cc835162004cef565b5151106201a4da576201a2df906201e110565b9490941562016f9a578392156201a3e55793926000905b6201a305575050505050600090565b8351811015620174c9576001600160a01b03806201a324838762004d46565b5116600052611f4080875260409160ff8360002054166201a35a575b505050936201a35183949562004cdf565b9094936201a2f6565b6000929190865b6201a36e575b506201a340565b9092979193966201a380865162004cef565b51518910156201a3da57816201a397898362004d46565b511660005283835260028560002001546201a3b88a6200743f895162004cef565b511462019ded576201a3cc87989962004cdf565b93919097989492986201a361565b96938298506201a367565b93926000905b6201a3fa575050505050600090565b8351811015620174c9576001600160a01b03806201a419838762004d46565b5116600052613ef880875260409160ff8360002054166201a44f575b505050936201a44683949562004cdf565b9094936201a3eb565b6000929190865b6201a463575b506201a435565b9092979193966201a475865162004cef565b51518910156201a4cf57816201a48c898362004d46565b511660005283835260028560002001546201a4ad8a6200743f895162004cef565b511462019ded576201a4c187989962004cdf565b93919097989492986201a456565b96938298506201a45c565b60405162461bcd60e51b815260048101869052603e60248201527f43452049445f3235323a205468652055494e543235365f324441525241595b30604482015260008051602062033a2c8339815191526064820152608490fd5b60405162461bcd60e51b815260048101869052602e60248201527f43452049445f3235323a205468652055494e543235365f32444152524159206c6044820152600080516020620338ac8339815191526064820152608490fd5b909160208091019060019384835151036201a6fd57846201a5b0845162004cef565b5151036201a6a3576201a5c3906201e110565b1562016f9a578493156201a63a576000935b6201a5e1575050505090565b8051841015620051fe576001600160a01b036201a5ff858362004d46565b5116600052611f4582526040600020546201a61f6200680d855162004cef565b51101562016f9a576201a633859462004cdf565b936201a5d5565b6000935b6201a64a575050505090565b8051841015620051fe576001600160a01b036201a668858362004d46565b5116600052613efd82526040600020546201a6886200680d855162004cef565b51101562016f9a576201a69c859462004cdf565b936201a63e565b60405162461bcd60e51b815260048101839052603160248201527f43452049445f3235333a205468652055494e543235365f324441525241595b3060448201526000805160206203384c8339815191526064820152608490fd5b60405162461bcd60e51b815260048101839052602e60248201527f43452049445f3235333a205468652055494e543235365f32444152524159206c6044820152600080516020620338ac8339815191526064820152608490fd5b909160208091019060019384835151036201a8c657846201a779845162004cef565b5151036201a86c576201a78c906201e110565b1562016f9a578493156201a803576000935b6201a7aa575050505090565b8051841015620051fe576001600160a01b036201a7c8858362004d46565b5116600052611f4582526040600020546201a7e86200680d855162004cef565b51111562016f9a576201a7fc859462004cdf565b936201a79e565b6000935b6201a813575050505090565b8051841015620051fe576001600160a01b036201a831858362004d46565b5116600052613efd82526040600020546201a8516200680d855162004cef565b51111562016f9a576201a865859462004cdf565b936201a807565b60405162461bcd60e51b815260048101839052603160248201527f43452049445f3235343a205468652055494e543235365f324441525241595b3060448201526000805160206203384c8339815191526064820152608490fd5b60405162461bcd60e51b815260048101839052602e60248201527f43452049445f3235343a205468652055494e543235365f32444152524159206c6044820152600080516020620338ac8339815191526064820152608490fd5b9091602080910160019384825151036201ab1c5760026201a942835162004cef565b5151036201aac2576201a955906201e110565b9290921562016f9a578493156201aa14576000935b6201a976575050505090565b8251841015620051fe576001600160a01b03806201a995868662004d46565b5116600052611f4580835260409081600020546201a9b86200680d875162004cef565b51119283156201a9de575b50505062016f9a576201a9d7859462004cdf565b936201a96a565b909192506201a9ee878762004d46565b51166000528252600020546201aa09620169f0845162004cef565b51103880806201a9c3565b6000935b6201aa24575050505090565b8251841015620051fe576001600160a01b03806201aa43868662004d46565b5116600052613efd80835260409081600020546201aa666200680d875162004cef565b51119283156201aa8c575b50505062016f9a576201aa85859462004cdf565b936201aa18565b909192506201aa9c878762004d46565b51166000528252600020546201aab7620169f0845162004cef565b51103880806201aa71565b60405162461bcd60e51b815260048101849052603160248201527f43452049445f3235353a205468652055494e543235365f324441525241595b306044820152600080516020620339ac8339815191526064820152608490fd5b60405162461bcd60e51b815260048101849052602e60248201527f43452049445f3235353a205468652055494e543235365f32444152524159206c6044820152600080516020620338ac8339815191526064820152608490fd5b909160208091019060019384835151036201ace357846201ab98845162004cef565b5151036201ac89576201abab906201e110565b1562016f9a578493156201ac21576000935b6201abc9575050505090565b8051841015620051fe576001600160a01b036201abe7858362004d46565b5116600052611f4582526040600020546201ac076200680d855162004cef565b510362016f9a576201ac1a859462004cdf565b936201abbd565b6000935b6201ac31575050505090565b8051841015620051fe576001600160a01b036201ac4f858362004d46565b5116600052613efd82526040600020546201ac6f6200680d855162004cef565b510362016f9a576201ac82859462004cdf565b936201ac25565b60405162461bcd60e51b815260048101839052603160248201527f43452049445f3235363a205468652055494e543235365f324441525241595b3060448201526000805160206203384c8339815191526064820152608490fd5b60405162461bcd60e51b815260048101839052602e60248201527f43452049445f3235363a205468652055494e543235365f32444152524159206c6044820152600080516020620338ac8339815191526064820152608490fd5b909160208091019060019384835151036201aec457846201ad5f845162004cef565b5151036201ae6a576201ad72906201e110565b1562016f9a578493156201adfd5760009182945b6201ad97575b505050505050600090565b81518510156201adf75785946001600160a01b036201adb7828562004d46565b51168452611f45825260408420546201add56200680d875162004cef565b51106201adee576201ade79062004cdf565b946201ad86565b50505050505090565b6201ad8c565b60009182945b6201ae1357505050505050600090565b81518510156201adf75785946001600160a01b036201ae33828562004d46565b51168452613efd825260408420546201ae516200680d875162004cef565b51106201adee576201ae639062004cdf565b946201ae03565b60405162461bcd60e51b815260048101839052603160248201527f43452049445f3235373a205468652055494e543235365f324441525241595b3060448201526000805160206203384c8339815191526064820152608490fd5b60405162461bcd60e51b815260048101839052602e60248201527f43452049445f3235373a205468652055494e543235365f32444152524159206c6044820152600080516020620338ac8339815191526064820152608490fd5b909160208091019060019384835151036201b09557846201af40845162004cef565b5151036201b03b576201af53906201e110565b1562016f9a578493156201afce5760009182945b6201af7757505050505050600090565b81518510156201adf75785946001600160a01b036201af97828562004d46565b51168452611f45825260408420546201afb56200680d875162004cef565b51116201adee576201afc79062004cdf565b946201af67565b60009182945b6201afe457505050505050600090565b81518510156201adf75785946001600160a01b036201b004828562004d46565b51168452613efd825260408420546201b0226200680d875162004cef565b51116201adee576201b0349062004cdf565b946201afd4565b60405162461bcd60e51b815260048101839052603160248201527f43452049445f3235383a205468652055494e543235365f324441525241595b3060448201526000805160206203384c8339815191526064820152608490fd5b60405162461bcd60e51b815260048101839052602e60248201527f43452049445f3235383a205468652055494e543235365f32444152524159206c6044820152600080516020620338ac8339815191526064820152608490fd5b9091602080910160019384825151036201b2f55760026201b111835162004cef565b5151036201b29b576201b124906201e110565b9190911562016f9a578493156201b1e8576000935b6201b148575050505050600090565b8151841015620174c95784936001600160a01b03806201b169838662004d46565b5116600052611f4580865260409081600020546201b18c6200680d875162004cef565b51111592836201b1b1575b505050620174c1576201b1aa9062004cdf565b936201b139565b909192506201b1c1848762004d46565b51166000528552600020546201b1dc620169f0845162004cef565b5110153880806201b197565b6000935b6201b1fb575050505050600090565b8151841015620174c95784936001600160a01b03806201b21c838662004d46565b5116600052613efd80865260409081600020546201b23f6200680d875162004cef565b51111592836201b264575b505050620174c1576201b25d9062004cdf565b936201b1ec565b909192506201b274848762004d46565b51166000528552600020546201b28f620169f0845162004cef565b5110153880806201b24a565b60405162461bcd60e51b815260048101849052603160248201527f43452049445f3235393a205468652055494e543235365f324441525241595b306044820152600080516020620339ac8339815191526064820152608490fd5b60405162461bcd60e51b815260048101849052602e60248201527f43452049445f3235393a205468652055494e543235365f32444152524159206c6044820152600080516020620338ac8339815191526064820152608490fd5b916020019060019283835151036201b4cc57836201b36e845162004cef565b5151036201b47257156201b3f7576201b387906201e110565b15620065c757829160009182945b6201b3a257505050905090565b805185101562016c55576201b3cc6001600160a01b036201b3c4878462004d46565b51166201b583565b6201b3dc6200680d845162004cef565b51101562016c4d576201b3f0849562004cdf565b946201b395565b6201b402906201e110565b15620065c757829160009182945b6201b41d57505050905090565b805185101562016c55576201b4476001600160a01b036201b43f878462004d46565b51166201b526565b6201b4576200680d845162004cef565b51101562016c4d576201b46b849562004cdf565b946201b410565b60405162461bcd60e51b815260206004820152603160248201527f43452049445f3236303a205468652055494e543235365f324441525241595b3060448201526000805160206203384c8339815191526064820152608490fd5b60405162461bcd60e51b815260206004820152602e60248201527f43452049445f3236303a205468652055494e543235365f32444152524159206c6044820152600080516020620338ac8339815191526064820152608490fd5b60009081905b6103e882106201b53b57505090565b9091620081fe6201b57c916201b5758560031b60018060a01b038616600052611fbb8101602052611fb96040600020549101549062004f77565b9062006200565b906201b52c565b60009081905b6103e882106201b59857505090565b9091620081fe6201b5d0916201b575600386811b9060018060a01b038716600052810160205260016040600020549101549062004f77565b906201b589565b600091906201b632576000905b6103e882106201b5f357505090565b9091620081fe6201b62b916201b575600386811b9060018060a01b038716600052810160205260016040600020549101549062004f77565b906201b5e4565b81905b6103e882106201b64457505090565b9091620081fe6201b67e916201b5758560031b60018060a01b038616600052611fbb8101602052611fb96040600020549101549062004f77565b906201b635565b916020019060019283835151036201b7f257836201b6a4845162004cef565b5151036201b79857156201b725576201b6bd906201e110565b15620065c757829160009182945b6201b6d857505050905090565b805185101562016c55576201b6fa6001600160a01b036201b3c4878462004d46565b6201b70a6200680d845162004cef565b51111562016c4d576201b71e849562004cdf565b946201b6cb565b6201b730906201e110565b15620065c757829160009182945b6201b74b57505050905090565b805185101562016c55576201b76d6001600160a01b036201b43f878462004d46565b6201b77d6200680d845162004cef565b51111562016c4d576201b791849562004cdf565b946201b73e565b60405162461bcd60e51b815260206004820152603160248201527f43452049445f3236313a205468652055494e543235365f324441525241595b3060448201526000805160206203384c8339815191526064820152608490fd5b60405162461bcd60e51b815260206004820152602e60248201527f43452049445f3236313a205468652055494e543235365f32444152524159206c6044820152600080516020620338ac8339815191526064820152608490fd5b916020019060019283835151036201ba2a5760026201b86c845162004cef565b5151036201b9d057156201b925576201b885906201e110565b91909115620065c757829160009182945b6201b8a357505050905090565b815185101562016c55576001600160a01b036201b8c6816201b3c4888662004d46565b6201b8d66200680d845162004cef565b51119081156201b8fa575b5062016c4d576201b8f3849562004cdf565b946201b896565b6201b90c91506201b3c4878562004d46565b6201b91c620169f0835162004cef565b5110386201b8e1565b6201b930906201e110565b91909115620065c757829160009182945b6201b94e57505050905090565b815185101562016c55576001600160a01b036201b971816201b43f888662004d46565b6201b9816200680d845162004cef565b51119081156201b9a5575b5062016c4d576201b99e849562004cdf565b946201b941565b6201b9b791506201b43f878562004d46565b6201b9c7620169f0835162004cef565b5110386201b98c565b60405162461bcd60e51b815260206004820152603160248201527f43452049445f3236323a205468652055494e543235365f324441525241595b306044820152600080516020620339ac8339815191526064820152608490fd5b60405162461bcd60e51b815260206004820152602e60248201527f43452049445f3236323a205468652055494e543235365f32444152524159206c6044820152600080516020620338ac8339815191526064820152608490fd5b916020019060019283835151036201bbef57836201baa3845162004cef565b5151036201bb9557156201bb23576201babc906201e110565b15620065c757829160009182945b6201bad757505050905090565b805185101562016c55576201baf96001600160a01b036201b3c4878462004d46565b6201bb096200680d845162004cef565b510362016c4d576201bb1c849562004cdf565b946201baca565b6201bb2e906201e110565b15620065c757829160009182945b6201bb4957505050905090565b805185101562016c55576201bb6b6001600160a01b036201b43f878462004d46565b6201bb7b6200680d845162004cef565b510362016c4d576201bb8e849562004cdf565b946201bb3c565b60405162461bcd60e51b815260206004820152603160248201527f43452049445f3236333a205468652055494e543235365f324441525241595b3060448201526000805160206203384c8339815191526064820152608490fd5b60405162461bcd60e51b815260206004820152602e60248201527f43452049445f3236333a205468652055494e543235365f32444152524159206c6044820152600080516020620338ac8339815191526064820152608490fd5b916020019060019283835151036201bdb857836201bc68845162004cef565b5151036201bd5e57156201bcea576201bc81906201e110565b91909115620065c757600091835b6201bc9d5750505050600090565b8051831015620171905783926201bcc16001600160a01b036201b3c4838562004d46565b6201bcd16200680d855162004cef565b5110620051c4576201bce39062004cdf565b926201bc8f565b6201bcf5906201e110565b91909115620065c757600091835b6201bd115750505050600090565b8051831015620171905783926201bd356001600160a01b036201b43f838562004d46565b6201bd456200680d855162004cef565b5110620051c4576201bd579062004cdf565b926201bd03565b60405162461bcd60e51b815260206004820152603160248201527f43452049445f3236343a205468652055494e543235365f324441525241595b3060448201526000805160206203384c8339815191526064820152608490fd5b60405162461bcd60e51b815260206004820152602e60248201527f43452049445f3236343a205468652055494e543235365f32444152524159206c6044820152600080516020620338ac8339815191526064820152608490fd5b916020019060019283835151036201bf8157836201be31845162004cef565b5151036201bf2757156201beb3576201be4a906201e110565b91909115620065c757600091835b6201be665750505050600090565b8051831015620171905783926201be8a6001600160a01b036201b3c4838562004d46565b6201be9a6200680d855162004cef565b5111620051c4576201beac9062004cdf565b926201be58565b6201bebe906201e110565b91909115620065c757600091835b6201beda5750505050600090565b8051831015620171905783926201befe6001600160a01b036201b43f838562004d46565b6201bf0e6200680d855162004cef565b5111620051c4576201bf209062004cdf565b926201becc565b60405162461bcd60e51b815260206004820152603160248201527f43452049445f3236353a205468652055494e543235365f324441525241595b3060448201526000805160206203384c8339815191526064820152608490fd5b60405162461bcd60e51b815260206004820152602e60248201527f43452049445f3236353a205468652055494e543235365f32444152524159206c6044820152600080516020620338ac8339815191526064820152608490fd5b916020019060019283835151036201c1b35760026201bffb845162004cef565b5151036201c15957156201c0b1576201c014906201e110565b15620065c757600091835b6201c02d5750505050600090565b8151831015620171905783926001600160a01b036201c052816201b3c4848762004d46565b6201c0626200680d855162004cef565b51111590816201c085575b50620051c4576201c07e9062004cdf565b926201c01f565b6201c09791506201b3c4838662004d46565b6201c0a7620169f0845162004cef565b511015386201c06d565b6201c0bc906201e110565b15620065c757600091835b6201c0d55750505050600090565b8151831015620171905783926001600160a01b036201c0fa816201b43f848762004d46565b6201c10a6200680d855162004cef565b51111590816201c12d575b50620051c4576201c1269062004cdf565b926201c0c7565b6201c13f91506201b43f838662004d46565b6201c14f620169f0845162004cef565b511015386201c115565b60405162461bcd60e51b815260206004820152603160248201527f43452049445f3236363a205468652055494e543235365f324441525241595b306044820152600080516020620339ac8339815191526064820152608490fd5b60405162461bcd60e51b815260206004820152602e60248201527f43452049445f3236363a205468652055494e543235365f32444152524159206c6044820152600080516020620338ac8339815191526064820152608490fd5b916020019060019283835151036201c38a57836201c22c845162004cef565b5151036201c33057156201c2b5576201c245906201e110565b15620065c757829160009182945b6201c26057505050905090565b805185101562016c55576201c28a6001600160a01b036201c282878462004d46565b51166201c43a565b6201c29a6200680d845162004cef565b51101562016c4d576201c2ae849562004cdf565b946201c253565b6201c2c0906201e110565b15620065c757829160009182945b6201c2db57505050905090565b805185101562016c55576201c3056001600160a01b036201c2fd878462004d46565b51166201c3e4565b6201c3156200680d845162004cef565b51101562016c4d576201c329849562004cdf565b946201c2ce565b60405162461bcd60e51b815260206004820152603160248201527f43452049445f3236373a205468652055494e543235365f324441525241595b3060448201526000805160206203384c8339815191526064820152608490fd5b60405162461bcd60e51b815260206004820152602e60248201527f43452049445f3236373a205468652055494e543235365f32444152524159206c6044820152600080516020620338ac8339815191526064820152608490fd5b60009081905b6103e882106201c3f957505090565b9091620081fe6201c433916201b5758560031b60018060a01b038616600052611fbb8101602052611fba6040600020549101549062004f77565b906201c3ea565b60009081905b6103e882106201c44f57505090565b9091620081fe6201c487916201b575600386811b9060018060a01b038716600052810160205260026040600020549101549062004f77565b906201c440565b600091906201c4e9576000905b6103e882106201c4aa57505090565b9091620081fe6201c4e2916201b575600386811b9060018060a01b038716600052810160205260026040600020549101549062004f77565b906201c49b565b81905b6103e882106201c4fb57505090565b9091620081fe6201c535916201b5758560031b60018060a01b038616600052611fbb8101602052611fba6040600020549101549062004f77565b906201c4ec565b916020019060019283835151036201c6a957836201c55b845162004cef565b5151036201c64f57156201c5dc576201c574906201e110565b15620065c757829160009182945b6201c58f57505050905090565b805185101562016c55576201c5b16001600160a01b036201c282878462004d46565b6201c5c16200680d845162004cef565b51111562016c4d576201c5d5849562004cdf565b946201c582565b6201c5e7906201e110565b15620065c757829160009182945b6201c60257505050905090565b805185101562016c55576201c6246001600160a01b036201c2fd878462004d46565b6201c6346200680d845162004cef565b51111562016c4d576201c648849562004cdf565b946201c5f5565b60405162461bcd60e51b815260206004820152603160248201527f43452049445f3236383a205468652055494e543235365f324441525241595b3060448201526000805160206203384c8339815191526064820152608490fd5b60405162461bcd60e51b815260206004820152602e60248201527f43452049445f3236383a205468652055494e543235365f32444152524159206c6044820152600080516020620338ac8339815191526064820152608490fd5b916020019060019283835151036201c8e15760026201c723845162004cef565b5151036201c88757156201c7dc576201c73c906201e110565b91909115620065c757829160009182945b6201c75a57505050905090565b815185101562016c55576001600160a01b036201c77d816201c282888662004d46565b6201c78d6200680d845162004cef565b51119081156201c7b1575b5062016c4d576201c7aa849562004cdf565b946201c74d565b6201c7c391506201c282878562004d46565b6201c7d3620169f0835162004cef565b5110386201c798565b6201c7e7906201e110565b91909115620065c757829160009182945b6201c80557505050905090565b815185101562016c55576001600160a01b036201c828816201c2fd888662004d46565b6201c8386200680d845162004cef565b51119081156201c85c575b5062016c4d576201c855849562004cdf565b946201c7f8565b6201c86e91506201c2fd878562004d46565b6201c87e620169f0835162004cef565b5110386201c843565b60405162461bcd60e51b815260206004820152603160248201527f43452049445f3236393a205468652055494e543235365f324441525241595b306044820152600080516020620339ac8339815191526064820152608490fd5b60405162461bcd60e51b815260206004820152602e60248201527f43452049445f3236393a205468652055494e543235365f32444152524159206c6044820152600080516020620338ac8339815191526064820152608490fd5b916020019060019283835151036201caaa57836201c95a845162004cef565b5151036201ca5057156201c9dc576201c973906201e110565b91909115620065c757600091835b6201c98f5750505050600090565b8051831015620171905783926201c9b36001600160a01b036201c282838562004d46565b6201c9c36200680d855162004cef565b5110620051c4576201c9d59062004cdf565b926201c981565b6201c9e7906201e110565b91909115620065c757600091835b6201ca035750505050600090565b8051831015620171905783926201ca276001600160a01b036201c2fd838562004d46565b6201ca376200680d855162004cef565b5110620051c4576201ca499062004cdf565b926201c9f5565b60405162461bcd60e51b815260206004820152603160248201527f43452049445f3237303a205468652055494e543235365f324441525241595b3060448201526000805160206203384c8339815191526064820152608490fd5b60405162461bcd60e51b815260206004820152602e60248201527f43452049445f3237303a205468652055494e543235365f32444152524159206c6044820152600080516020620338ac8339815191526064820152608490fd5b9160200190600192836201cb19845162004cef565b5151036201cc735783835151036201cc1957156201cba5576201cb3c906201e110565b91909115620065c757600091835b6201cb585750505050600090565b8051831015620171905783926201cb7c6001600160a01b036201c282838562004d46565b6201cb8c6200680d855162004cef565b5111620051c4576201cb9e9062004cdf565b926201cb4a565b6201cbb0906201e110565b91909115620065c757600091835b6201cbcc5750505050600090565b8051831015620171905783926201cbf06001600160a01b036201c2fd838562004d46565b6201cc006200680d855162004cef565b5111620051c4576201cc129062004cdf565b926201cbbe565b60405162461bcd60e51b815260206004820152602e60248201527f43452049445f3237313a205468652055494e543235365f32444152524159206c6044820152600080516020620338ac8339815191526064820152608490fd5b60405162461bcd60e51b815260206004820152603160248201527f43452049445f3237313a205468652055494e543235365f324441525241595b3060448201526000805160206203384c8339815191526064820152608490fd5b916020019060026201cce0835162004cef565b5151036201cea55760019283835151036201ce4b57156201cda3576201cd06906201e110565b15620065c757600091835b6201cd1f5750505050600090565b8151831015620171905783926001600160a01b036201cd44816201c282848762004d46565b6201cd546200680d855162004cef565b51111590816201cd77575b50620051c4576201cd709062004cdf565b926201cd11565b6201cd8991506201c282838662004d46565b6201cd99620169f0845162004cef565b511015386201cd5f565b6201cdae906201e110565b15620065c757600091835b6201cdc75750505050600090565b8151831015620171905783926001600160a01b036201cdec816201c2fd848762004d46565b6201cdfc6200680d855162004cef565b51111590816201ce1f575b50620051c4576201ce189062004cdf565b926201cdb9565b6201ce3191506201c2fd838662004d46565b6201ce41620169f0845162004cef565b511015386201ce07565b60405162461bcd60e51b815260206004820152602e60248201527f43452049445f3237323a205468652055494e543235365f32444152524159206c6044820152600080516020620338ac8339815191526064820152608490fd5b60405162461bcd60e51b815260206004820152603160248201527f43452049445f3237323a205468652055494e543235365f324441525241595b306044820152600080516020620339ac8339815191526064820152608490fd5b919060208092019060019384835151036201d0c65760026201cf22845162004cef565b5151036201d06c57156201cfcd576201cf3b906201e110565b9290921562016d8657600092845b6201cf55575050505090565b8051841015620051fe576201cf6f6200680d845162004cef565b516103e881101562004cfd576001600160a01b036201cf8f868462004d46565b5116600052600390811b0182526040600020546201cfb2620169f0855162004cef565b51101562016f9a576201cfc6859462004cdf565b936201cf49565b6201cfd8906201e110565b9290921562016d8657600092845b6201cff2575050505090565b8051841015620051fe576201d00c6200680d845162004cef565b516103e881101562004cfd57611fbb906001600160a01b036201d030878562004d46565b511660005260031b0182526040600020546201d051620169f0855162004cef565b51101562016f9a576201d065859462004cdf565b936201cfe6565b60405162461bcd60e51b815260048101859052603160248201527f43452049445f3237333a205468652055494e543235365f324441525241595b3060448201526000805160206203384c8339815191526064820152608490fd5b60405162461bcd60e51b815260048101859052602e60248201527f43452049445f3237333a205468652055494e543235365f32444152524159206c6044820152600080516020620338ac8339815191526064820152608490fd5b919060208092019060019384835151036201d2e75760026201d143845162004cef565b5151036201d28d57156201d1ee576201d15c906201e110565b9290921562016d8657600092845b6201d176575050505090565b8051841015620051fe576201d1906200680d845162004cef565b516103e881101562004cfd576001600160a01b036201d1b0868462004d46565b5116600052600390811b0182526040600020546201d1d3620169f0855162004cef565b51111562016f9a576201d1e7859462004cdf565b936201d16a565b6201d1f9906201e110565b9290921562016d8657600092845b6201d213575050505090565b8051841015620051fe576201d22d6200680d845162004cef565b516103e881101562004cfd57611fbb906001600160a01b036201d251878562004d46565b511660005260031b0182526040600020546201d272620169f0855162004cef565b51111562016f9a576201d286859462004cdf565b936201d207565b60405162461bcd60e51b815260048101859052603160248201527f43452049445f3237343a205468652055494e543235365f324441525241595b3060448201526000805160206203384c8339815191526064820152608490fd5b60405162461bcd60e51b815260048101859052602e60248201527f43452049445f3237343a205468652055494e543235365f32444152524159206c6044820152600080516020620338ac8339815191526064820152608490fd5b916020809101600392836201d357835162004cef565b5151036201d5e55760019485835151036201d58b57156201d482576201d37d906201e110565b9390931562016f9a57600093855b6201d39857505050505090565b80518510156201d47c576201d3b26200680d845162004cef565b516103e8908181101562004cfd576001600160a01b03908490826201d3d88a8762004d46565b5116600052811b01865260409081600020546201d3fa620169f0885162004cef565b51119283156201d420575b5050506201ad8c576201d419869562004cdf565b946201d38b565b909192506201d4346200680d875162004cef565b519081101562004cfd5784916201d44c898662004d46565b5116600052811b018552600020546201d4716201d46a855162004cef565b5162004d24565b51103880806201d405565b620174c1565b6201d490909392936201e110565b9390931562016f9a57600093855b6201d4ab57505050505090565b80518510156201d47c576201d4c56200680d845162004cef565b516103e88082101562004cfd576001600160a01b0391826201d4e8898662004d46565b5116600052611fbb8091881b01855260409182600020546201d50f620169f0895162004cef565b51119384156201d536575b505050506201ad8c576201d52f869562004cdf565b946201d49e565b90919293506201d54b6200680d885162004cef565b519182101562004cfd576201d561898662004d46565b5116600052861b018352600020546201d57f6201d46a855162004cef565b5110388080806201d51a565b60405162461bcd60e51b815260048101859052602e60248201527f43452049445f3237353a205468652055494e543235365f32444152524159206c6044820152600080516020620338ac8339815191526064820152608490fd5b60405162461bcd60e51b815260048101849052603160248201527f43452049445f3237353a205468652055494e543235365f324441525241595b306044820152705d206c656e677468206973206e6f74203360781b6064820152608490fd5b919060208092019060026201d65a835162004cef565b5151036201d8135760019384835151036201d7b957156201d716576201d680906201e110565b9290921562016d8657600092845b6201d69d575050505050600090565b8051841015620174c9576201d6b76200680d845162004cef565b51936103e885101562004cfd5785946001600160a01b036201d6da838562004d46565b5116600052600390811b0183526040600020546201d6fd620169f0865162004cef565b5110620174c1576201d70f9062004cdf565b936201d68e565b6201d721906201e110565b9290921562016d8657600092845b6201d73e575050505050600090565b8051841015620174c9576201d7586200680d845162004cef565b51936103e885101562004cfd578594611fbb906001600160a01b036201d77f848662004d46565b511660005260031b0183526040600020546201d7a0620169f0865162004cef565b5110620174c1576201d7b29062004cdf565b936201d72f565b60405162461bcd60e51b815260048101859052602e60248201527f43452049445f3237363a205468652055494e543235365f32444152524159206c6044820152600080516020620338ac8339815191526064820152608490fd5b60405162461bcd60e51b815260048101849052603160248201527f43452049445f3237363a205468652055494e543235365f324441525241595b306044820152600080516020620339ac8339815191526064820152608490fd5b919060208092019060026201d883835162004cef565b5151036201da3c5760019384835151036201d9e257156201d93f576201d8a9906201e110565b9290921562016d8657600092845b6201d8c6575050505050600090565b8051841015620174c9576201d8e06200680d845162004cef565b51936103e885101562004cfd5785946001600160a01b036201d903838562004d46565b5116600052600390811b0183526040600020546201d926620169f0865162004cef565b5111620174c1576201d9389062004cdf565b936201d8b7565b6201d94a906201e110565b9290921562016d8657600092845b6201d967575050505050600090565b8051841015620174c9576201d9816200680d845162004cef565b51936103e885101562004cfd578594611fbb906001600160a01b036201d9a8848662004d46565b511660005260031b0183526040600020546201d9c9620169f0865162004cef565b5111620174c1576201d9db9062004cdf565b936201d958565b60405162461bcd60e51b815260048101859052602e60248201527f43452049445f3237373a205468652055494e543235365f32444152524159206c6044820152600080516020620338ac8339815191526064820152608490fd5b60405162461bcd60e51b815260048101849052603160248201527f43452049445f3237373a205468652055494e543235365f324441525241595b306044820152600080516020620339ac8339815191526064820152608490fd5b916020809101600392836201daac835162004cef565b5151036201dd3e5760019485835151036201dce457156201dbd2576201dad2906201e110565b9390931562016f9a57600093855b6201daf057505050505050600090565b80518510156201adf7576201db0a6200680d845162004cef565b51946103e8958681101562004cfd5787966001600160a01b03918590836201db33868862004d46565b5116600052811b018752604080600020546201db54620169f0895162004cef565b51111592836201db79575b5050506201adee576201db729062004cdf565b946201dae0565b91985091506201db8e6200680d875162004cef565b519788101562004cfd57889785916201dba8858762004d46565b5116600052811b018652600020546201dbc66201d46a865162004cef565b5110153880806201db5f565b6201dbe0909392936201e110565b9390931562016f9a57600093855b6201dbfe57505050505050600090565b80518510156201adf7576201dc186200680d845162004cef565b51946103e88087101562004cfd5787966001600160a01b0390816201dc3e858762004d46565b5116600052611fbb8091891b01865260409081600020546201dc65620169f08a5162004cef565b51111593846201dc8b575b505050506201adee576201dc849062004cdf565b946201dbee565b9193509198506201dca16200680d885162004cef565b519081101562004cfd5789986201dcb9858762004d46565b5116600052871b018452600020546201dcd76201d46a865162004cef565b511015388080806201dc70565b60405162461bcd60e51b815260048101859052602e60248201527f43452049445f3237383a205468652055494e543235365f32444152524159206c6044820152600080516020620338ac8339815191526064820152608490fd5b60405162461bcd60e51b815260048101849052603160248201527f43452049445f3237383a205468652055494e543235365f324441525241595b306044820152705d206c656e677468206973206e6f74203360781b6064820152608490fd5b6201dda8816201df2d565b156201df24576040810190606082510151511515806201dee9575b156201ddd55750516060015151600191565b604082510151511515806201ded0575b156201ddf75750516040015151600191565b60808251015151151590816201deb6575b50156201de1a57516080015151600191565b805160c081015151156201de6157506201de3960c08251015162004cef565b51516201de4a57505b600090600090565b60c06201de5a9151015162004cef565b5151600191565b602081015151156201de795750516020015151600191565b60a0015180516201de8d575b50506201de42565b6201de989062004cef565b51516201dea657806201de85565b60a06201de5a9151015162004cef565b602091500151602681101562002a2357601014386201de08565b506020810151602681101562002a23576013146201dde5565b50602081018051602681101562002a2357600c149081156201df0d575b506201ddc3565b905051602681101562002a2357600f14386201df06565b50600090600090565b6020018051906026908183101562002a235760018093146201e10b5780518281101562002a23576002146201e10b5780518281101562002a23576003146201e10b578051908282101562002a2357600480921462016d51578051838110156201e0f65760051462016d51578051838110156201e0f65760061462016d51578051838110156201e0f65760071462016d51578051838110156201e0f65760081462016d51578051838110156201e0f65760091462016d51578051838110156201e0f657600a1462016d51578051838110156201e0f657600b1462016d51578051838110156201e0f657600c1462016d51578051838110156201e0f657600d1462016d51578051838110156201e0f657600e1462016d51578051838110156201e0f657600f1462016d51578051838110156201e0f65760101462016d51578051838110156201e0f65760111462016d51578051838110156201e0f65760121462016d51578051838110156201e0f65760131462016d51578051838110156201e0f65760141462016d51578051838110156201e0f65760151462016d515751918210156201e0e15750601e14620032d25750600090565b602190634e487b7160e01b6000525260246000fd5b602183634e487b7160e01b6000525260246000fd5b505090565b6201e11b816201df2d565b156201e18a576020810151602681101562002a23576004146201e177576040015160c0015180516201e16557506040516201e1568162002b3f565b60008152600036813790600090565b6201e1709062004cef565b5190600190565b60c060406201e170920151015162004d13565b506040516201e1568162002b3f565b6020810151602681101562002a23576004146201e1bf57506040516201e1568162002b3f565b60c060406201e170920151015162004cef565b6201e1dd816201e322565b156201e3125760208101908151916026908184101562002a235760018094146201e2f75780518281101562002a23576003146201e2f7578051908282101562002a235760048092146201e2db578051838110156201e0f6576005146201e2db578051838110156201e0f6576006146201e2db578051838110156201e0f6576014146201e2db578051838110156201e0f6576015146201e2db5751918210156201e0e15750601e146201e2bd575050604051906201e29a8262002b3f565b60008252604051916201e2ad8362002b3f565b6000835260003681379190600090565b604001916201e2d660a06200779b818651015162004cef565b519190565b505050604001916201e2d660a06200779b818651015162004cef565b5050604001916201e2d660a06200779b818651015162004cef565b50604051906201e29a8262002b3f565b6020018051906026908183101562002a235760018093146201e10b5780518281101562002a2357600214620065c75780518281101562002a23576003146201e10b578051908282101562002a2357600480921462016d51578051838110156201e0f65760141462016d51578051838110156201e0f65760151462016d51578051838110156201e0f657601e1462016d51578051838110156201e0f65760051462016d515751918210156201e0e15750600614620032d25750600090565b916101f581146201e489576101f681146201e47d576101f781146201e471576101f881146201e465576101f981146201e459576101fa81146201e44d576101fb81146201e441576101fc146201e436575050600090565b620032d2916201eeda565b50620032d2916201ed35565b50620032d2916201ebd0565b50620032d2916201ea6b565b50620032d2916201e906565b50620032d2916201e761565b50620032d2916201e5fc565b50620032d291906020019060019182815151036201e5a257826201e4ae825162004cef565b5151036201e548576020820151602681101562002a2357600203620065c757600091835b6201e4e05750505050600090565b604081019260a0936201e4f7858251015162004d24565b51518210156201e54057816200743f87966201e5169351015162004d24565b516201e5276200680d855162004cef565b5110620051c4576201e5399062004cdf565b926201e4d2565b505062016d86565b60405162461bcd60e51b815260206004820152603160248201527f43452049445f3530313a205468652055494e543235365f324441525241595b3060448201526000805160206203384c8339815191526064820152608490fd5b60405162461bcd60e51b815260206004820152602e60248201527f43452049445f3530313a205468652055494e543235365f32444152524159206c6044820152600080516020620338ac8339815191526064820152608490fd5b906020019060019182815151036201e70757826201e61b825162004cef565b5151036201e6ad576020820151602681101562002a2357600203620065c757600091835b6201e64d5750505050600090565b604081019260a0936201e664858251015162004d24565b51518210156201e54057816200743f87966201e6839351015162004d24565b516201e6946200680d855162004cef565b5111620051c4576201e6a69062004cdf565b926201e63f565b60405162461bcd60e51b815260206004820152603160248201527f43452049445f3530323a205468652055494e543235365f324441525241595b3060448201526000805160206203384c8339815191526064820152608490fd5b60405162461bcd60e51b815260206004820152602e60248201527f43452049445f3530323a205468652055494e543235365f32444152524159206c6044820152600080516020620338ac8339815191526064820152608490fd5b906020019060019182815151036201e8ac5760026201e781825162004cef565b5151036201e852576020820151602681101562002a2357600203620065c757600091835b6201e7b35750505050600090565b604081019260a0936201e7ca858251015162004d24565b51518210156201e5405781856201e7eb826200743f8a998651015162004d24565b516201e7fc6200680d885162004cef565b51111592836201e821575b505050620051c4576201e81a9062004cdf565b926201e7a5565b5101516201e83592506200743f9062004d24565b516201e846620169f0855162004cef565b5110158138806201e807565b60405162461bcd60e51b815260206004820152603160248201527f43452049445f3530333a205468652055494e543235365f324441525241595b306044820152600080516020620339ac8339815191526064820152608490fd5b60405162461bcd60e51b815260206004820152602e60248201527f43452049445f3530333a205468652055494e543235365f32444152524159206c6044820152600080516020620338ac8339815191526064820152608490fd5b906020019060019182815151036201ea1157826201e925825162004cef565b5151036201e9b7576020820151602681101562002a2357600203620065c757600091835b6201e9575750505050600090565b604081019260a0936201e96e858251015162004d24565b51518210156201e54057816200743f87966201e98d9351015162004d24565b516201e99e6200680d855162004cef565b5114620051c4576201e9b09062004cdf565b926201e949565b60405162461bcd60e51b815260206004820152603160248201527f43452049445f3530343a205468652055494e543235365f324441525241595b3060448201526000805160206203384c8339815191526064820152608490fd5b60405162461bcd60e51b815260206004820152602e60248201527f43452049445f3530343a205468652055494e543235365f32444152524159206c6044820152600080516020620338ac8339815191526064820152608490fd5b906020019060019182815151036201eb7657826201ea8a825162004cef565b5151036201eb1c576020820151602681101562002a2357600203620065c757600091835b6201eabc5750505050600090565b604081019260a0936201ead3858251015162004d35565b51518210156201e54057816200743f87966201eaf29351015162004d13565b516201eb036200680d855162004cef565b5110620051c4576201eb159062004cdf565b926201eaae565b60405162461bcd60e51b815260206004820152603160248201527f43452049445f3530353a205468652055494e543235365f324441525241595b3060448201526000805160206203384c8339815191526064820152608490fd5b60405162461bcd60e51b815260206004820152602e60248201527f43452049445f3530353a205468652055494e543235365f32444152524159206c6044820152600080516020620338ac8339815191526064820152608490fd5b906020019060019182815151036201ecdb57826201ebef825162004cef565b5151036201ec81576020820151602681101562002a2357600203620065c757600091835b6201ec215750505050600090565b604081019260a0936201ec38858251015162004d35565b51518210156201e54057816200743f87966201ec579351015162004d13565b516201ec686200680d855162004cef565b5111620051c4576201ec7a9062004cdf565b926201ec13565b60405162461bcd60e51b815260206004820152603160248201527f43452049445f3530363a205468652055494e543235365f324441525241595b3060448201526000805160206203384c8339815191526064820152608490fd5b60405162461bcd60e51b815260206004820152602e60248201527f43452049445f3530363a205468652055494e543235365f32444152524159206c6044820152600080516020620338ac8339815191526064820152608490fd5b906020019060019182815151036201ee805760026201ed55825162004cef565b5151036201ee26576020820151602681101562002a2357600203620065c757600091835b6201ed875750505050600090565b604081019260a0936201ed9e858251015162004d35565b51518210156201e5405781856201edbf826200743f8a998651015162004d13565b516201edd06200680d885162004cef565b51111592836201edf5575b505050620051c4576201edee9062004cdf565b926201ed79565b5101516201ee0992506200743f9062004d13565b516201ee1a620169f0855162004cef565b5110158138806201eddb565b60405162461bcd60e51b815260206004820152603160248201527f43452049445f3530373a205468652055494e543235365f324441525241595b306044820152600080516020620339ac8339815191526064820152608490fd5b60405162461bcd60e51b815260206004820152602e60248201527f43452049445f3530373a205468652055494e543235365f32444152524159206c6044820152600080516020620338ac8339815191526064820152608490fd5b906020019060019182815151036201efe557826201eef9825162004cef565b5151036201ef8b576020820151602681101562002a2357600203620065c757600091835b6201ef2b5750505050600090565b604081019260a0936201ef42858251015162004d35565b51518210156201e54057816200743f87966201ef619351015162004d13565b516201ef726200680d855162004cef565b5114620051c4576201ef849062004cdf565b926201ef1d565b60405162461bcd60e51b815260206004820152603160248201527f43452049445f3530383a205468652055494e543235365f324441525241595b3060448201526000805160206203384c8339815191526064820152608490fd5b60405162461bcd60e51b815260206004820152602e60248201527f43452049445f3530383a205468652055494e543235365f32444152524159206c6044820152600080516020620338ac8339815191526064820152608490fd5b91603381036201f129575060209150016001815151036201f0d95760016201f068825162004cef565b5151036201f086576200680d6201f080915162004cef565b51421190565b60405162461bcd60e51b815260206004820152602560248201527f43452049445f35313a2055494e543235365f324441525241595b305d20697320604482015264656d70747960d81b6064820152608490fd5b60405162461bcd60e51b815260206004820152602260248201527f43452049445f35313a2055494e543235365f3244415252415920697320656d70604482015261747960f01b6064820152608490fd5b603481036201f212575060209150016001815151036201f1c25760016201f151825162004cef565b5151036201f16f576200680d6201f169915162004cef565b51421090565b60405162461bcd60e51b815260206004820152602560248201527f43452049445f35323a2055494e543235365f324441525241595b305d20697320604482015264656d70747960d81b6064820152608490fd5b60405162461bcd60e51b815260206004820152602260248201527f43452049445f35323a2055494e543235365f3244415252415920697320656d70604482015261747960f01b6064820152608490fd5b603581036201f324575060209150016001815151036201f2d45760026201f23a825162004cef565b5151036201f27a576201f2526200680d825162004cef565b5142101590816201f261575090565b6201f2739150620169f0905162004cef565b5142111590565b60405162461bcd60e51b815260206004820152603160248201527f43452049445f35333a2055494e543235365f324441525241595b305d206d757360448201526000805160206203392c8339815191526064820152608490fd5b60405162461bcd60e51b815260206004820152602260248201527f43452049445f35333a2055494e543235365f3244415252415920697320656d70604482015261747960f01b6064820152608490fd5b603681036201f428575060209150016001815151036201f3ce5760016201f34c825162004cef565b5151036201f37457620167cc6200680d6201f367426200621c565b5050505050925162004cef565b60405162461bcd60e51b815260206004820152603060248201527f43452049445f35343a2055494e543235365f324441525241595b305d206d7573604482015260008051602062033a6c8339815191526064820152608490fd5b60405162461bcd60e51b815260206004820152602d60248201527f43452049445f35343a2055494e543235365f32444152524159206d757374206860448201526000805160206203378c8339815191526064820152608490fd5b603781036201f51f575060209150016001815151036201f4c55760016201f450825162004cef565b5151036201f46b57620168cd6200680d6201f367426200621c565b60405162461bcd60e51b815260206004820152603060248201527f43452049445f35353a2055494e543235365f324441525241595b305d206d7573604482015260008051602062033a6c8339815191526064820152608490fd5b60405162461bcd60e51b815260206004820152602d60248201527f43452049445f35353a2055494e543235365f32444152524159206d757374206860448201526000805160206203378c8339815191526064820152608490fd5b603881036201f623575060209150016001815151036201f5c95760026201f547825162004cef565b5151036201f56f576201f55a426200621c565b5050505050620169cd6200680d835162004cef565b60405162461bcd60e51b815260206004820152603160248201527f43452049445f35363a2055494e543235365f324441525241595b305d206d757360448201526000805160206203392c8339815191526064820152608490fd5b60405162461bcd60e51b815260206004820152602d60248201527f43452049445f35363a2055494e543235365f32444152524159206d757374206860448201526000805160206203378c8339815191526064820152608490fd5b603981036201f728575060209150016001815151036201f6ce5760016201f64b825162004cef565b5151036201f67457620167cc6200680d6201f666426200621c565b505050509390505162004cef565b60405162461bcd60e51b815260206004820152603060248201527f43452049445f35373a2055494e543235365f324441525241595b305d206d7573604482015260008051602062033a6c8339815191526064820152608490fd5b60405162461bcd60e51b815260206004820152602d60248201527f43452049445f35373a2055494e543235365f32444152524159206d757374206860448201526000805160206203378c8339815191526064820152608490fd5b603a81036201f81f575060209150016001815151036201f7c55760016201f750825162004cef565b5151036201f76b57620168cd6200680d6201f666426200621c565b60405162461bcd60e51b815260206004820152603060248201527f43452049445f35383a2055494e543235365f324441525241595b305d206d7573604482015260008051602062033a6c8339815191526064820152608490fd5b60405162461bcd60e51b815260206004820152602d60248201527f43452049445f35383a2055494e543235365f32444152524159206d757374206860448201526000805160206203378c8339815191526064820152608490fd5b603b81036201f924575060209150016001815151036201f8ca5760026201f847825162004cef565b5151036201f870576201f85a426200621c565b505050509050620169cd6200680d835162004cef565b60405162461bcd60e51b815260206004820152603160248201527f43452049445f35393a2055494e543235365f324441525241595b305d206d757360448201526000805160206203392c8339815191526064820152608490fd5b60405162461bcd60e51b815260206004820152602d60248201527f43452049445f35393a2055494e543235365f32444152524159206d757374206860448201526000805160206203378c8339815191526064820152608490fd5b603c81036201fa29575060209150016001815151036201f9cf5760016201f94c825162004cef565b5151036201f97557620167cc6200680d6201f967426200621c565b505050949150505162004cef565b60405162461bcd60e51b815260206004820152603060248201527f43452049445f36303a2055494e543235365f324441525241595b305d206d7573604482015260008051602062033a6c8339815191526064820152608490fd5b60405162461bcd60e51b815260206004820152602d60248201527f43452049445f36303a2055494e543235365f32444152524159206d757374206860448201526000805160206203378c8339815191526064820152608490fd5b603d81036201fb20575060209150016001815151036201fac65760016201fa51825162004cef565b5151036201fa6c57620168cd6200680d6201f967426200621c565b60405162461bcd60e51b815260206004820152603060248201527f43452049445f36313a2055494e543235365f324441525241595b305d206d7573604482015260008051602062033a6c8339815191526064820152608490fd5b60405162461bcd60e51b815260206004820152602d60248201527f43452049445f36313a2055494e543235365f32444152524159206d757374206860448201526000805160206203378c8339815191526064820152608490fd5b603e81036201fc25575060209150016001815151036201fbcb5760026201fb48825162004cef565b5151036201fb71576201fb5b426200621c565b505050915050620169cd6200680d835162004cef565b60405162461bcd60e51b815260206004820152603160248201527f43452049445f36323a2055494e543235365f324441525241595b305d206d757360448201526000805160206203392c8339815191526064820152608490fd5b60405162461bcd60e51b815260206004820152602d60248201527f43452049445f36323a2055494e543235365f32444152524159206d757374206860448201526000805160206203378c8339815191526064820152608490fd5b603f81036201fd2a575060209150016001815151036201fcd05760016201fc4d825162004cef565b5151036201fc7657620167cc6200680d6201fc68426200621c565b505095925050505162004cef565b60405162461bcd60e51b815260206004820152603060248201527f43452049445f36333a2055494e543235365f324441525241595b305d206d7573604482015260008051602062033a6c8339815191526064820152608490fd5b60405162461bcd60e51b815260206004820152602d60248201527f43452049445f36333a2055494e543235365f32444152524159206d757374206860448201526000805160206203378c8339815191526064820152608490fd5b6040928184036201fe20575050602001906001825151036201fdc85760016201fd54835162004cef565b5151036201fd705750620168cd6200680d6201fc68426200621c565b5162461bcd60e51b815260206004820152603060248201527f43452049445f36343a2055494e543235365f324441525241595b305d206d7573604482015260008051602062033a6c8339815191526064820152608490fd5b5162461bcd60e51b815260206004820152602d60248201527f43452049445f36343a2055494e543235365f32444152524159206d757374206860448201526000805160206203378c8339815191526064820152608490fd5b604182036201ff22575050602001906001825151036201feca5760026201fe48835162004cef565b5151036201fe7257506201fe5c426200621c565b505092505050620169cd6200680d835162004cef565b5162461bcd60e51b815260206004820152603160248201527f43452049445f36353a2055494e543235365f324441525241595b305d206d757360448201526000805160206203392c8339815191526064820152608490fd5b5162461bcd60e51b815260206004820152602d60248201527f43452049445f36353a2055494e543235365f32444152524159206d757374206860448201526000805160206203378c8339815191526064820152608490fd5b9092604284036201ff3a5750620032d29250620215a8565b604384036201ff505750620032d29250620217b2565b60448481036201ff68575050620032d29250620219b4565b604585036201ff7f575050620032d2925062021c31565b604685036201ff96575050620032d2925062021e33565b604785036201ffad575050620032d2925062022035565b604885036201ffc4575050620032d2925062022318565b604985036201ffdb575050620032d2925062022625565b604a85036201fff2575050620032d2925062022903565b604b850362020009575050620032d2925062022ccb565b604c850362020020575050620032d2925062022e76565b604d850362020037575050620032d2925062022f7a565b604e85036202004e575050620032d29250620230d2565b604f850362020065575050620032d2925062023253565b605085036202007c575050620032d2925062023357565b91909293605181146000146202017857505090916020019160018351510362020120576001620200ad845162004cef565b515103620200c8575050620167cc6200680d47925162004cef565b907f43452049445f38313a2055494e543235365f324441525241595b305d206d7573608492519162461bcd60e51b8352602060048401526030602484015282015260008051602062033a6c8339815191526064820152fd5b907f43452049445f38313a2055494e543235365f32444152524159206d7573742068608492519162461bcd60e51b835260206004840152602d60248401528201526000805160206203378c8339815191526064820152fd5b605281036202026d57505090916020019160018351510362020215576001620201a2845162004cef565b515103620201bd575050620168cd6200680d47925162004cef565b907f43452049445f38323a2055494e543235365f324441525241595b305d206d7573608492519162461bcd60e51b8352602060048401526030602484015282015260008051602062033a6c8339815191526064820152fd5b907f43452049445f38323a2055494e543235365f32444152524159206d7573742068608492519162461bcd60e51b835260206004840152602d60248401528201526000805160206203378c8339815191526064820152fd5b60538103620203835750509091602001916001835151036202032b57600262020297845162004cef565b515103620202d357505047620202b26200680d835162004cef565b5111159081620202c0575090565b9050620169f7620169f047925162004cef565b907f43452049445f38333a2055494e543235365f324441525241595b305d206d7573608492519162461bcd60e51b835260206004840152603160248401528201526000805160206203392c8339815191526064820152fd5b907f43452049445f38333a2055494e543235365f32444152524159206d7573742068608492519162461bcd60e51b835260206004840152602d60248401528201526000805160206203378c8339815191526064820152fd5b605481036202047857505090916020019160018351510362020420576001620203ad845162004cef565b515103620203c857505062016afb6200680d47925162004cef565b907f43452049445f38343a2055494e543235365f324441525241595b305d206d7573608492519162461bcd60e51b8352602060048401526030602484015282015260008051602062033a6c8339815191526064820152fd5b907f43452049445f38343a2055494e543235365f32444152524159206d7573742068608492519162461bcd60e51b835260206004840152602d60248401528201526000805160206203378c8339815191526064820152fd5b605581036202063357506020840192600284515103620205db5760019283620204a2865162004d13565b51510362020584575090829160009586945b620204cf575b50505050506200680d620167cc915162004d13565b9091929395620204e28383015162004cef565b51518710156202057d5762020539908415620205445762009513906202051d6103e8620205158b6200743f8c5162004cef565b5110620234af565b6201b575620205328a6200743f8b5162004cef565b516200610a565b9392919083620204b4565b6200951390620205616103e8620205158b6200743f8c5162004cef565b6201b575620205768a6200743f8b5162004cef565b5162006139565b95620204ba565b7f43452049445f38353a20414444524553535f324441525241595b305d206d7573608492519162461bcd60e51b8352602060048401526030602484015282015260008051602062033a6c8339815191526064820152fd5b5162461bcd60e51b815260206004820152602d60248201527f43452049445f38353a20414444524553535f32444152524159206d7573742068818401526c185d99480c88195b195b595b9d609a1b6064820152608490fd5b60568103620207b6575060208401926002845151036202075e57600192836202065d865162004d13565b51510362020707575090829160009586945b6202068a575b50505050506200680d620168cd915162004d13565b90919293956202069d8383015162004cef565b51518710156202070057620206d8908415620206e35762009513906202051d6103e8620206d08b6200743f8c5162004cef565b511062023521565b93929190836202066f565b6200951390620205616103e8620206d08b6200743f8c5162004cef565b9562020675565b7f43452049445f38363a20414444524553535f324441525241595b305d206d7573608492519162461bcd60e51b8352602060048401526030602484015282015260008051602062033a6c8339815191526064820152fd5b5162461bcd60e51b815260206004820152602d60248201527f43452049445f38363a20414444524553535f32444152524159206d7573742068818401526c185d99480c88195b195b595b9d609a1b6064820152608490fd5b91949091605781036202097c5750602084019460028651510362020923576002620207e2875162004d13565b515103620208cb5750600092835b620207fe8287015162004cef565b51518510156202089157906202085685620207fe93898760001462020860576103e862020839620092e0946200743f62020841945162004cef565b511062023593565b6201b57562020532896200743f8d5162004cef565b94909150620207f0565b6103e862020839620092e0946200743f6202087c945162004cef565b6201b57562020576896200743f8d5162004cef565b93505093925050620208a86200680d835162004d13565b518110159182620208b857505090565b620169f7919250620169f0905162004d13565b6084907f43452049445f38373a20414444524553535f324441525241595b305d206d757385519162461bcd60e51b835260206004840152603160248401528201526000805160206203392c8339815191526064820152fd5b6084907f43452049445f38373a20414444524553535f32444152524159206d757374206885519162461bcd60e51b835260206004840152602d60248401528201526c185d99480c88195b195b595b9d609a1b6064820152fd5b909491906058810362020b335750602084019260028451510362020adb5760019283620209aa865162004d13565b51510362020a84575090829160009586945b620209d65750505050506200680d620167cc915162004d13565b9091929395620209e98383015162004cef565b51518710156202057d5762020a4090841562020a4b57620095139062020a246103e862020a1c8b6200743f8c5162004cef565b511062023605565b6201b57562020a398a6200743f8b5162004cef565b5162005e1c565b9392919083620209bc565b620095139062020a686103e862020a1c8b6200743f8c5162004cef565b6201b57562020a7d8a6200743f8b5162004cef565b5162005e52565b7f43452049445f38383a20414444524553535f324441525241595b305d206d7573608492519162461bcd60e51b8352602060048401526030602484015282015260008051602062033a6c8339815191526064820152fd5b5162461bcd60e51b815260206004820152602d60248201527f43452049445f38383a20414444524553535f32444152524159206d7573742068818401526c185d99480c88195b195b595b9d609a1b6064820152608490fd5b6059810362020cae5750602084019260028451510362020c56576001928362020b5d865162004d13565b51510362020bff575090829160009586945b62020b895750505050506200680d620168cd915162004d13565b909192939562020b9c8383015162004cef565b5151871015620207005762020bd790841562020be257620095139062020a246103e862020bcf8b6200743f8c5162004cef565b511062023677565b939291908362020b6f565b620095139062020a686103e862020bcf8b6200743f8c5162004cef565b7f43452049445f38393a20414444524553535f324441525241595b305d206d7573608492519162461bcd60e51b8352602060048401526030602484015282015260008051602062033a6c8339815191526064820152fd5b5162461bcd60e51b815260206004820152602d60248201527f43452049445f38393a20414444524553535f32444152524159206d7573742068818401526c185d99480c88195b195b595b9d609a1b6064820152608490fd5b91949091605a810362020e3a5750602084019460028651510362020de157600262020cda875162004d13565b51510362020d895750600092835b62020cf68287015162004cef565b515185101562020891579062020d4e8562020cf693898760001462020d58576103e862020d31620092e0946200743f62020d39945162004cef565b5110620236e9565b6201b57562020a39896200743f8d5162004cef565b9490915062020ce8565b6103e862020d31620092e0946200743f62020d74945162004cef565b6201b57562020a7d896200743f8d5162004cef565b6084907f43452049445f39303a20414444524553535f324441525241595b305d206d757385519162461bcd60e51b835260206004840152603160248401528201526000805160206203392c8339815191526064820152fd5b6084907f43452049445f39303a20414444524553535f32444152524159206d757374206885519162461bcd60e51b835260206004840152602d60248401528201526c185d99480c88195b195b595b9d609a1b6064820152fd5b90949190605b8103620210135750602084019260028451510362020fbb576001928362020e68865162004d13565b51510362020f64575090829160009586945b62020e945750505050506200680d620167cc915162004d13565b909192939562020ea78383015162004cef565b51518710156202057d57831562020f17576103e862020ed98162020ed18a6200743f8b5162004cef565b51106202375b565b62020eea886200743f895162004cef565b519081101562004cfd5762020f0c916006620095139260031b01549062006200565b939291908362020e7a565b6103e862020f308162020ed18a6200743f8b5162004cef565b62020f41886200743f895162004cef565b519081101562004cfd5762020f0c91611fbe620095139260031b01549062006200565b7f43452049445f39313a20414444524553535f324441525241595b305d206d7573608492519162461bcd60e51b8352602060048401526030602484015282015260008051602062033a6c8339815191526064820152fd5b5162461bcd60e51b815260206004820152602d60248201527f43452049445f39313a20414444524553535f32444152524159206d7573742068818401526c185d99480c88195b195b595b9d609a1b6064820152608490fd5b605c8103620211e8575060208401926002845151036202119057600192836202103d865162004d13565b51510362021139575090829160009586945b620210695750505050506200680d620168cd915162004d13565b90919293956202107c8383015162004cef565b515187101562020700578315620210ec576103e8620210ae81620210a68a6200743f8b5162004cef565b5110620237cd565b620210bf886200743f895162004cef565b519081101562004cfd57620210e1916006620095139260031b01549062006200565b93929190836202104f565b6103e86202110581620210a68a6200743f8b5162004cef565b62021116886200743f895162004cef565b519081101562004cfd57620210e191611fbe620095139260031b01549062006200565b7f43452049445f39323a20414444524553535f324441525241595b305d206d7573608492519162461bcd60e51b8352602060048401526030602484015282015260008051602062033a6c8339815191526064820152fd5b5162461bcd60e51b815260206004820152602d60248201527f43452049445f39323a20414444524553535f32444152524159206d7573742068818401526c185d99480c88195b195b595b9d609a1b6064820152608490fd5b605d81969293949614600014620213c8575060208401926002845151036202136f57600262021218855162004d13565b515103620213175750600080955b620212348187015162004cef565b515187101562021300578315620212ae576103e89162021267836202125f8a6200743f8a5162004cef565b51106202383f565b62021278886200743f885162004cef565b519283101562004cfd576202129e620212a5916006620212349560031b01549062006200565b9762004cdf565b96915062021226565b6103e891620212c8836202125f8a6200743f8a5162004cef565b620212d9886200743f885162004cef565b519283101562004cfd576202129e620212a591611fbe620212349560031b01549062006200565b50929350935050620208a86200680d835162004d13565b6084907f43452049445f39333a20414444524553535f324441525241595b305d206d757387519162461bcd60e51b835260206004840152603160248401528201526000805160206203392c8339815191526064820152fd5b6084907f43452049445f39333a20414444524553535f32444152524159206d757374206887519162461bcd60e51b835260206004840152602d60248401528201526c185d99480c88195b195b595b9d609a1b6064820152fd5b9094929190605e0362016d86576020840192600284515103620215505760019283620213f5865162004d13565b515103620214f9575090829160009586945b62021422575b50505050506200680d62016afb915162004d13565b9091929395620214358383015162004cef565b5151871015620214f2578315620214a5576103e862021467816202145f8a6200743f8b5162004cef565b5110620238b1565b62021478886200743f895162004cef565b519081101562004cfd576202149a916006620095139260031b01549062006200565b939291908362021407565b6103e8620214be816202145f8a6200743f8b5162004cef565b620214cf886200743f895162004cef565b519081101562004cfd576202149a91611fbe620095139260031b01549062006200565b956202140d565b7f43452049445f39343a20414444524553535f324441525241595b305d206d7573608492519162461bcd60e51b8352602060048401526030602484015282015260008051602062033a6c8339815191526064820152fd5b5162461bcd60e51b815260206004820152602d60248201527f43452049445f39343a20414444524553535f32444152524159206d7573742068818401526c185d99480c88195b195b595b9d609a1b6064820152608490fd5b90604081019060018251510362021758576001620215c7835162004cef565b515103620216fe5760200191600183515103620216a4576001620215ec845162004cef565b5151036202164a571562021626576200680d6202161e620167cc926201b3c46200680d60018060a01b03925162004cef565b925162004cef565b6200680d6202161e620167cc926201b43f6200680d60018060a01b03925162004cef565b60405162461bcd60e51b815260206004820152603060248201527f43452049445f36363a2055494e543235365f324441525241595b305d206d7573604482015260008051602062033a6c8339815191526064820152608490fd5b60405162461bcd60e51b815260206004820152602d60248201527f43452049445f36363a2055494e543235365f32444152524159206d757374206860448201526000805160206203378c8339815191526064820152608490fd5b60405162461bcd60e51b815260206004820152603060248201527f43452049445f36363a20414444524553535f324441525241595b305d206d7573604482015260008051602062033a6c8339815191526064820152608490fd5b60405162461bcd60e51b815260206004820152602d60248201527f43452049445f36363a20414444524553535f32444152524159206d757374206860448201526000805160206203378c8339815191526064820152608490fd5b9060408101906001825151036202195a576001620217d1835162004cef565b515103620219005760200191600183515103620218a6576001620217f6845162004cef565b5151036202184c571562021828576200680d6202161e620168cd926201b3c46200680d60018060a01b03925162004cef565b6200680d6202161e620168cd926201b43f6200680d60018060a01b03925162004cef565b60405162461bcd60e51b815260206004820152603060248201527f43452049445f36373a2055494e543235365f324441525241595b305d206d7573604482015260008051602062033a6c8339815191526064820152608490fd5b60405162461bcd60e51b815260206004820152602d60248201527f43452049445f36373a2055494e543235365f32444152524159206d757374206860448201526000805160206203378c8339815191526064820152608490fd5b60405162461bcd60e51b815260206004820152603060248201527f43452049445f36373a20414444524553535f324441525241595b305d206d7573604482015260008051602062033a6c8339815191526064820152608490fd5b60405162461bcd60e51b815260206004820152602d60248201527f43452049445f36373a20414444524553535f32444152524159206d757374206860448201526000805160206203378c8339815191526064820152608490fd5b604082019160018351510362021bd7576001620219d2845162004cef565b51510362021b7d576020019060018251510362021b23576002620219f7835162004cef565b51510362021ac9571562021a6d5760018060a01b0362021a21816201b3c46200680d865162004cef565b62021a316200680d845162004cef565b511115928362021a415750505090565b62021a61929350620169f0916201b3c46200680d6202161e935162004cef565b51101538808062016d51565b60018060a01b0362021a89816201b43f6200680d865162004cef565b62021a996200680d845162004cef565b511115928362021aa95750505090565b62021a61929350620169f0916201b43f6200680d6202161e935162004cef565b60405162461bcd60e51b815260206004820152603160248201527f43452049445f36383a2055494e543235365f324441525241595b305d206d757360448201526000805160206203392c8339815191526064820152608490fd5b60405162461bcd60e51b815260206004820152602d60248201527f43452049445f36383a2055494e543235365f32444152524159206d757374206860448201526000805160206203378c8339815191526064820152608490fd5b60405162461bcd60e51b815260206004820152603060248201527f43452049445f36383a20414444524553535f324441525241595b305d206d7573604482015260008051602062033a6c8339815191526064820152608490fd5b60405162461bcd60e51b815260206004820152602d60248201527f43452049445f36383a20414444524553535f32444152524159206d757374206860448201526000805160206203378c8339815191526064820152608490fd5b90604081019060018251510362021dd957600162021c50835162004cef565b51510362021d7f576020019160018351510362021d2557600162021c75845162004cef565b51510362021ccb571562021ca7576200680d6202161e620167cc926201c2826200680d60018060a01b03925162004cef565b6200680d6202161e620167cc926201c2fd6200680d60018060a01b03925162004cef565b60405162461bcd60e51b815260206004820152603060248201527f43452049445f36393a2055494e543235365f324441525241595b305d206d7573604482015260008051602062033a6c8339815191526064820152608490fd5b60405162461bcd60e51b815260206004820152602d60248201527f43452049445f36393a2055494e543235365f32444152524159206d757374206860448201526000805160206203378c8339815191526064820152608490fd5b60405162461bcd60e51b815260206004820152603060248201527f43452049445f36393a20414444524553535f324441525241595b305d206d7573604482015260008051602062033a6c8339815191526064820152608490fd5b60405162461bcd60e51b815260206004820152602d60248201527f43452049445f36393a20414444524553535f32444152524159206d757374206860448201526000805160206203378c8339815191526064820152608490fd5b90604081019060018251510362021fdb57600162021e52835162004cef565b51510362021f81576020019160018351510362021f2757600162021e77845162004cef565b51510362021ecd571562021ea9576200680d6202161e620168cd926201c2826200680d60018060a01b03925162004cef565b6200680d6202161e620168cd926201c2fd6200680d60018060a01b03925162004cef565b60405162461bcd60e51b815260206004820152603060248201527f43452049445f37303a2055494e543235365f324441525241595b305d206d7573604482015260008051602062033a6c8339815191526064820152608490fd5b60405162461bcd60e51b815260206004820152602d60248201527f43452049445f37303a2055494e543235365f32444152524159206d757374206860448201526000805160206203378c8339815191526064820152608490fd5b60405162461bcd60e51b815260206004820152603060248201527f43452049445f37303a20414444524553535f324441525241595b305d206d7573604482015260008051602062033a6c8339815191526064820152608490fd5b60405162461bcd60e51b815260206004820152602d60248201527f43452049445f37303a20414444524553535f32444152524159206d757374206860448201526000805160206203378c8339815191526064820152608490fd5b60408201916001835151036202224c57600162022053845162004cef565b515103620221f257602001906001825151036202219857600262022078835162004cef565b5151036202213e5715620220e25760018060a01b03620220a2816201c2826200680d865162004cef565b620220b26200680d845162004cef565b5111159283620220c25750505090565b62021a61929350620169f0916201c2826200680d6202161e935162004cef565b60018060a01b03620220fe816201c2fd6200680d865162004cef565b6202210e6200680d845162004cef565b51111592836202211e5750505090565b62021a61929350620169f0916201c2fd6200680d6202161e935162004cef565b60405162461bcd60e51b815260206004820152603160248201527f43452049445f37313a2055494e543235365f324441525241595b305d206d757360448201526000805160206203392c8339815191526064820152608490fd5b60405162461bcd60e51b815260206004820152602d60248201527f43452049445f37313a2055494e543235365f32444152524159206d757374206860448201526000805160206203378c8339815191526064820152608490fd5b60405162461bcd60e51b815260206004820152603060248201527f43452049445f37313a20414444524553535f324441525241595b305d206d7573604482015260008051602062033a6c8339815191526064820152608490fd5b60405162461bcd60e51b815260206004820152602d60248201527f43452049445f37313a20414444524553535f32444152524159206d757374206860448201526000805160206203378c8339815191526064820152608490fd5b15620222ae57565b60405162461bcd60e51b815260206004820152604760248201527f43452049445f37323a20746f6b656e436c617373496e6465782028706172616d6044820152600080516020620338ec833981519152606482015266662072616e676560c81b608482015260a490fd5b906040808201916001835151036202255a57600162022338845162004cef565b515103620225015760200192600184515103620224a85760026202235d855162004cef565b5151036202244f5715620223e0576103e8906202238c82620223846200680d875162004cef565b5110620222a6565b6202239c6200680d855162004cef565b519182101562004cfd576003620169f092620167cc94620223c96200680d60018060a01b03925162004cef565b5116600052811b0160205260002054925162004cef565b6103e890620223f982620223846200680d875162004cef565b620224096200680d855162004cef565b519182101562004cfd57611fbb620169f092620167cc94620224376200680d60018060a01b03925162004cef565b511660005260031b0160205260002054925162004cef565b815162461bcd60e51b815260206004820152603160248201527f43452049445f37323a2055494e543235365f324441525241595b305d206d757360448201526000805160206203392c8339815191526064820152608490fd5b815162461bcd60e51b815260206004820152602d60248201527f43452049445f37323a2055494e543235365f32444152524159206d757374206860448201526000805160206203378c8339815191526064820152608490fd5b815162461bcd60e51b815260206004820152603060248201527f43452049445f37323a20414444524553535f324441525241595b305d206d7573604482015260008051602062033a6c8339815191526064820152608490fd5b815162461bcd60e51b815260206004820152602d60248201527f43452049445f37323a20414444524553535f32444152524159206d757374206860448201526000805160206203378c8339815191526064820152608490fd5b15620225bb57565b60405162461bcd60e51b815260206004820152604760248201527f43452049445f37333a20746f6b656e436c617373496e6465782028706172616d6044820152600080516020620338ec833981519152606482015266662072616e676560c81b608482015260a490fd5b906040808201916001835151036202283857600162022645845162004cef565b515103620227df5760200192600184515103620227865760026202266a855162004cef565b5151036202272d5715620226d6576103e8906202269982620226916200680d875162004cef565b5110620225b3565b620226a96200680d855162004cef565b519182101562004cfd576003620169f092620168cd94620223c96200680d60018060a01b03925162004cef565b6103e890620226ef82620226916200680d875162004cef565b620226ff6200680d855162004cef565b519182101562004cfd57611fbb620169f092620168cd94620224376200680d60018060a01b03925162004cef565b815162461bcd60e51b815260206004820152603160248201527f43452049445f37333a2055494e543235365f324441525241595b305d206d757360448201526000805160206203392c8339815191526064820152608490fd5b815162461bcd60e51b815260206004820152602d60248201527f43452049445f37333a2055494e543235365f32444152524159206d757374206860448201526000805160206203378c8339815191526064820152608490fd5b815162461bcd60e51b815260206004820152603060248201527f43452049445f37333a20414444524553535f324441525241595b305d206d7573604482015260008051602062033a6c8339815191526064820152608490fd5b815162461bcd60e51b815260206004820152602d60248201527f43452049445f37333a20414444524553535f32444152524159206d757374206860448201526000805160206203378c8339815191526064820152608490fd5b156202289957565b60405162461bcd60e51b815260206004820152604760248201527f43452049445f37343a20746f6b656e436c617373496e6465782028706172616d6044820152600080516020620338ec833981519152606482015266662072616e676560c81b608482015260a490fd5b9060408082019260018451510362022c7257600162022923855162004cef565b51510362022c195760208093019260018451510362022bc157600391826202294c865162004cef565b51510362022b63571562022a5f576103e8916202297b83620229736200680d885162004cef565b511062022891565b6202298b6200680d865162004cef565b51928084101562004cfd5760018060a01b038281620229af6200680d8b5162004cef565b5116956000968752811b01845285852054620229d0620169f0895162004cef565b5111159788620229e6575b505050505050505090565b909192939495969750620229ff6200680d895162004cef565b519283101562022a4b57916201d46a95939162022a276200680d62022a3a9997955162004cef565b51168452811b0190522054925162004cef565b5110153880808080808080620229db565b634e487b7160e01b86526032600452602486fd5b6103e862022a7781620229736200680d885162004cef565b62022a876200680d865162004cef565b51908082101562004cfd5760018060a01b03938462022aab6200680d8a5162004cef565b5116946000958652611fbb8094831b0185528686205462022ad1620169f08a5162004cef565b511115988962022ae8575b50505050505050505090565b9091929394959697985062022b026200680d8a5162004cef565b519384101562022b4f579162022b3d9795939162022b2b6200680d6201d46a9997955162004cef565b511685521b0190522054925162004cef565b51101538808080808080808062022adc565b634e487b7160e01b87526032600452602487fd5b835162461bcd60e51b815260048101839052603160248201527f43452049445f37343a2055494e543235365f324441525241595b305d206d7573604482015270742068617665203320656c656d656e747360781b6064820152608490fd5b60849083519062461bcd60e51b82526004820152602d60248201527f43452049445f37343a2055494e543235365f32444152524159206d757374206860448201526000805160206203378c8339815191526064820152fd5b815162461bcd60e51b815260206004820152603060248201527f43452049445f37343a20414444524553535f324441525241595b305d206d7573604482015260008051602062033a6c8339815191526064820152608490fd5b815162461bcd60e51b815260206004820152602d60248201527f43452049445f37343a20414444524553535f32444152524159206d757374206860448201526000805160206203378c8339815191526064820152608490fd5b906020019060018251510362022d7557600162022ce9835162004cef565b51510362022d1b571562022d0957620167cc6200680d6202161e62022e38565b620167cc6200680d6202161e62022dcf565b60405162461bcd60e51b815260206004820152603060248201527f43452049445f37353a2055494e543235365f324441525241595b305d206d7573604482015260008051602062033a6c8339815191526064820152608490fd5b60405162461bcd60e51b815260206004820152602d60248201527f43452049445f37353a2055494e543235365f32444152524159206d757374206860448201526000805160206203378c8339815191526064820152608490fd5b6000805b6103e8811062022de1575090565b908160031b60ff611fbf820154161562022e325762022e1f62022e2c9262022e17611fb962022e2594015462005e438762005fe5565b9290620060a1565b62006200565b9162004cdf565b62022dd3565b50905090565b6000805b6103e8811062022e4a575090565b9060ff60078360031b015416156200619f5762022e2562022e70916201b575846200610a565b62022e3c565b906020019060018251510362022f2057600162022e94835162004cef565b51510362022ec6571562022eb457620168cd6200680d6202161e62022e38565b620168cd6200680d6202161e62022dcf565b60405162461bcd60e51b815260206004820152603060248201527f43452049445f37363a2055494e543235365f324441525241595b305d206d7573604482015260008051602062033a6c8339815191526064820152608490fd5b60405162461bcd60e51b815260206004820152602d60248201527f43452049445f37363a2055494e543235365f32444152524159206d757374206860448201526000805160206203378c8339815191526064820152608490fd5b90602001906001825151036202307857600262022f98835162004cef565b5151036202301e571562022fe25762022fb062022e38565b62022fc06200680d835162004cef565b511115908162022fce575090565b9050620169f7620169f06202161e62022e38565b62022fec62022dcf565b62022ffc6200680d835162004cef565b51111590816202300a575090565b9050620169f7620169f06202161e62022dcf565b60405162461bcd60e51b815260206004820152603160248201527f43452049445f37373a2055494e543235365f324441525241595b305d206d757360448201526000805160206203392c8339815191526064820152608490fd5b60405162461bcd60e51b815260206004820152602d60248201527f43452049445f37373a2055494e543235365f32444152524159206d757374206860448201526000805160206203378c8339815191526064820152608490fd5b90602001906001825151036202317c576001620230f0835162004cef565b5151036202312257156202311057620167cc6200680d6202161e62023215565b620167cc6200680d6202161e620231d6565b60405162461bcd60e51b815260206004820152603060248201527f43452049445f37383a2055494e543235365f324441525241595b305d206d7573604482015260008051602062033a6c8339815191526064820152608490fd5b60405162461bcd60e51b815260206004820152602d60248201527f43452049445f37383a2055494e543235365f32444152524159206d757374206860448201526000805160206203378c8339815191526064820152608490fd5b6000805b6103e88110620231e8575090565b9060ff611fbf8360031b015416156200619f5762022e256202320f916201b5758462005e52565b620231da565b6000805b6103e8811062023227575090565b9060ff60078360031b015416156200619f5762022e256202324d916201b5758462005e1c565b62023219565b9060200190600182515103620232fd57600162023271835162004cef565b515103620232a357156202329157620168cd6200680d6202161e62023215565b620168cd6200680d6202161e620231d6565b60405162461bcd60e51b815260206004820152603060248201527f43452049445f37393a2055494e543235365f324441525241595b305d206d7573604482015260008051602062033a6c8339815191526064820152608490fd5b60405162461bcd60e51b815260206004820152602d60248201527f43452049445f37393a2055494e543235365f32444152524159206d757374206860448201526000805160206203378c8339815191526064820152608490fd5b90602001906001825151036202345557600262023375835162004cef565b515103620233fb5715620233bf576202338d62023215565b6202339d6200680d835162004cef565b5111159081620233ab575090565b9050620169f7620169f06202161e62023215565b620233c9620231d6565b620233d96200680d835162004cef565b5111159081620233e7575090565b9050620169f7620169f06202161e620231d6565b60405162461bcd60e51b815260206004820152603160248201527f43452049445f38303a2055494e543235365f324441525241595b305d206d757360448201526000805160206203392c8339815191526064820152608490fd5b60405162461bcd60e51b815260206004820152602d60248201527f43452049445f38303a2055494e543235365f32444152524159206d757374206860448201526000805160206203378c8339815191526064820152608490fd5b15620234b757565b60405162461bcd60e51b815260206004820152604760248201527f43452049445f38353a20746f6b656e436c617373496e6465782028706172616d60448201526000805160206203390c833981519152606482015266662072616e676560c81b608482015260a490fd5b156202352957565b60405162461bcd60e51b815260206004820152604760248201527f43452049445f38363a20746f6b656e436c617373496e6465782028706172616d60448201526000805160206203390c833981519152606482015266662072616e676560c81b608482015260a490fd5b156202359b57565b60405162461bcd60e51b815260206004820152604760248201527f43452049445f38373a20746f6b656e436c617373496e6465782028706172616d60448201526000805160206203390c833981519152606482015266662072616e676560c81b608482015260a490fd5b156202360d57565b60405162461bcd60e51b815260206004820152604760248201527f43452049445f38383a20746f6b656e436c617373496e6465782028706172616d60448201526000805160206203390c833981519152606482015266662072616e676560c81b608482015260a490fd5b156202367f57565b60405162461bcd60e51b815260206004820152604760248201527f43452049445f38393a20746f6b656e436c617373496e6465782028706172616d60448201526000805160206203390c833981519152606482015266662072616e676560c81b608482015260a490fd5b15620236f157565b60405162461bcd60e51b815260206004820152604760248201527f43452049445f39303a20746f6b656e436c617373496e6465782028706172616d60448201526000805160206203390c833981519152606482015266662072616e676560c81b608482015260a490fd5b156202376357565b60405162461bcd60e51b815260206004820152604760248201527f43452049445f39313a20746f6b656e436c617373496e6465782028706172616d60448201526000805160206203390c833981519152606482015266662072616e676560c81b608482015260a490fd5b15620237d557565b60405162461bcd60e51b815260206004820152604760248201527f43452049445f39323a20746f6b656e436c617373496e6465782028706172616d60448201526000805160206203390c833981519152606482015266662072616e676560c81b608482015260a490fd5b156202384757565b60405162461bcd60e51b815260206004820152604760248201527f43452049445f39333a20746f6b656e436c617373496e6465782028706172616d60448201526000805160206203390c833981519152606482015266662072616e676560c81b608482015260a490fd5b15620238b957565b60405162461bcd60e51b815260206004820152604760248201527f43452049445f39343a20746f6b656e436c617373496e6465782028706172616d60448201526000805160206203390c833981519152606482015266662072616e676560c81b608482015260a490fd5b9161019181146202398b5761019281146202397f576101938114620239735761019681146202396757610197146202395c575050600090565b620032d29162023ec1565b50620032d29162023ddc565b50620032d29162023c37565b50620032d29162023af6565b50620032d2919060200190600191828151510362023a9c5782620239b0825162004cef565b51510362023a42576020820151602681101562002a2357600a03620065c757600091835b620239e25750505050600090565b604081019260a093620239f9858251015162004cef565b51518210156201e54057816200743f879662023a189351015162004cef565b5162023a296200680d855162004cef565b5114620051c45762023a3b9062004cdf565b92620239d4565b60405162461bcd60e51b815260206004820152603160248201527f43452049445f3430313a205468652055494e543235365f324441525241595b3060448201526000805160206203384c8339815191526064820152608490fd5b60405162461bcd60e51b815260206004820152602e60248201527f43452049445f3430313a205468652055494e543235365f32444152524159206c6044820152600080516020620338ac8339815191526064820152608490fd5b9060200190600191828151510362023bdd576020820151602681101562002a2357600a03620065c75782916000935b62023b335750505050600090565b6040810160a062023b48818351015162004cef565b51518610156201e54057906000855b62023b73575b50505062023b6c839462004cdf565b9362023b25565b62023b7f855162004cef565b515181101562023bd75762023b9d876200743f858551015162004cef565b5162023baf826200743f885162004cef565b511462023bcd579062023bc486939262004cdf565b90919262023b57565b5050505050905090565b62023b5d565b60405162461bcd60e51b815260206004820152602e60248201527f43452049445f3430323a2054686520414444524553535f32444152524159206c6044820152600080516020620338ac8339815191526064820152608490fd5b9060200190600191828151510362023d8257600262023c57825162004cef565b51510362023d28576020820151602681101562002a2357600a03620065c757600091835b62023c895750505050600090565b604081019260a09362023ca0858251015162004cef565b51518210156201e54057818562023cc1826200743f8a998651015162004cef565b5162023cd26200680d885162004cef565b511115928362023cf7575b505050620051c45762023cf09062004cdf565b9262023c7b565b51015162023d0b92506200743f9062004cef565b5162023d1c620169f0855162004cef565b51101581388062023cdd565b60405162461bcd60e51b815260206004820152603160248201527f43452049445f3430333a205468652055494e543235365f324441525241595b306044820152600080516020620339ac8339815191526064820152608490fd5b60405162461bcd60e51b815260206004820152602e60248201527f43452049445f3430333a205468652055494e543235365f32444152524159206c6044820152600080516020620338ac8339815191526064820152608490fd5b600191828151510362023e68576020820151602681101562002a2357600b03620065c757600091835b62023e135750505050600090565b60408101515192835181101562023e615762023e4a62023e3582879662004d46565b5162023e42855162004cef565b51906203358c565b620051c45762023e5a9062004cdf565b9262023e05565b5062016d86565b60405162461bcd60e51b815260206004820152602b60248201527f43452049445f3430363a2054686520535452494e475f4152524159206c656e6760448201526a7468206973206e6f74203160a81b6064820152608490fd5b600191828151510362023f46576020820151602681101562002a2357600b03620065c757600091835b62023ef85750505050600090565b60408101515192835181101562023e615762023f2f62023f1a82879662004d46565b5162023f27855162004cef565b519062006518565b620051c45762023f3f9062004cdf565b9262023eea565b60405162461bcd60e51b815260206004820152602b60248201527f43452049445f3430373a2054686520535452494e475f4152524159206c656e6760448201526a7468206973206e6f74203160a81b6064820152608490fd5b916097811462023fc35760981462023fb8575050600090565b620032d291620240d4565b50602001805151620032d29290600019016202407b57600162023fe7835162004cef565b515103620240215760200151602681101562002a23576200680d6202161e620240109262033353565b51146202401c57600090565b600190565b60405162461bcd60e51b815260206004820152602e60248201527f43452049445f3135313a205468652055494e545f324441525241595b305d206c6044820152600080516020620338ac8339815191526064820152608490fd5b60405162461bcd60e51b815260206004820152602b60248201527f43452049445f3135313a205468652055494e545f32444152524159206c656e6760448201526a7468206973206e6f74203160a81b6064820152608490fd5b919091602080930160019182825151036202415b57938293946000935b62024100575050505050600090565b6202410c835162004cef565b5151841015620174c9578181015193602685101562002a235762024131869562033353565b62024142826200743f875162004cef565b5114620174c157620241549062004cdf565b93620240f1565b60405162461bcd60e51b815260048101869052602b60248201527f43452049445f3135323a205468652055494e545f32444152524159206c656e6760448201526a7468206973206e6f74203160a81b6064820152608490fd5b926102bd8114620242b7576102be8114620242ab576102bf81146202429f576102c0811462024293576102c1811462024287576102c281146202427b576102c381146202426f576102c4811462024263576102c5811462024257576102c681146202424b576102c781146202423f576102c8146202423457505050600090565b620032d292620254dc565b50620032d292620252e1565b50620032d292620250dc565b50620032d29262024e6c565b50620032d29262024c67565b50620032d29262024a58565b50620032d29262024939565b50620032d29262024812565b50620032d292620246eb565b50620032d29262024591565b50620032d2926202443d565b50620032d292620242d4565b606482101562004cfd570190600090565b91602080910192600184515103620243e3576001620242f4855162004cef565b51510362024389571562024350576202161e62024342620167cc936202433b620076a16200680d9560018060a01b03845116600052611f4981526040600020930162007387565b90620242c3565b90549060031b1c426200620e565b6202161e62024342620167cc936202433b620076a16200680d9560018060a01b03845116600052613f0181526040600020930162007387565b60405162461bcd60e51b815260048101839052603160248201527f43452049445f3730313a205468652055494e543235365f324441525241595b3060448201526000805160206203384c8339815191526064820152608490fd5b60405162461bcd60e51b815260048101839052602e60248201527f43452049445f3730313a205468652055494e543235365f32444152524159206c6044820152600080516020620338ac8339815191526064820152608490fd5b91602080910192600184515103620245375760016202445d855162004cef565b515103620244dd5715620244a4576202161e62024342620168cd936202433b620076a16200680d9560018060a01b03845116600052611f4981526040600020930162007387565b6202161e62024342620168cd936202433b620076a16200680d9560018060a01b03845116600052611f4981526040600020930162007387565b60405162461bcd60e51b815260048101839052603160248201527f43452049445f3730323a205468652055494e543235365f324441525241595b3060448201526000805160206203384c8339815191526064820152608490fd5b60405162461bcd60e51b815260048101839052602e60248201527f43452049445f3730323a205468652055494e543235365f32444152524159206c6044820152600080516020620338ac8339815191526064820152608490fd5b9160208091019260018451510362024691576002620245b1855162004cef565b515103620246375715620246035781516001600160a01b03166000908152611f49825260409020620245f39262024342926202433b91620076a1910162007387565b620169cd6200680d835162004cef565b81516001600160a01b03166000908152611f49825260409020620245f39262024342926202433b91620076a1910162007387565b60405162461bcd60e51b815260048101839052603160248201527f43452049445f3730333a205468652055494e543235365f324441525241595b306044820152600080516020620339ac8339815191526064820152608490fd5b60405162461bcd60e51b815260048101839052602e60248201527f43452049445f3730333a205468652055494e543235365f32444152524159206c6044820152600080516020620338ac8339815191526064820152608490fd5b9160200191600183515103620247b857600162024709845162004cef565b5151036202475e57156202474c57620076a1602062024729920162007387565b606481101562004cfd576200680d6202161e620167cc92611f4b0154426200620e565b620076a1602062024729920162007387565b60405162461bcd60e51b815260206004820152603160248201527f43452049445f3730343a205468652055494e543235365f324441525241595b3060448201526000805160206203384c8339815191526064820152608490fd5b60405162461bcd60e51b815260206004820152602e60248201527f43452049445f3730343a205468652055494e543235365f32444152524159206c6044820152600080516020620338ac8339815191526064820152608490fd5b9160200191600183515103620248df57600162024830845162004cef565b5151036202488557156202487357620076a1602062024850920162007387565b606481101562004cfd576200680d6202161e620168cd92611f4b0154426200620e565b620076a1602062024850920162007387565b60405162461bcd60e51b815260206004820152603160248201527f43452049445f3730353a205468652055494e543235365f324441525241595b3060448201526000805160206203384c8339815191526064820152608490fd5b60405162461bcd60e51b815260206004820152602e60248201527f43452049445f3730353a205468652055494e543235365f32444152524159206c6044820152600080516020620338ac8339815191526064820152608490fd5b9160200191600183515103620249fe57600262024957845162004cef565b515103620249a457156202499257620076a1602062024977920162007387565b606481101562004cfd57620245f390611f4b0154426200620e565b620076a1602062024977920162007387565b60405162461bcd60e51b815260206004820152603160248201527f43452049445f3730363a205468652055494e543235365f324441525241595b306044820152600080516020620339ac8339815191526064820152608490fd5b60405162461bcd60e51b815260206004820152602e60248201527f43452049445f3730363a205468652055494e543235365f32444152524159206c6044820152600080516020620338ac8339815191526064820152608490fd5b909291604093848201600193848251510362024c0e578462024a7b835162004cef565b51510362024bb5579584959660001462024b27576000945b62024aa357505050505050600090565b62024aaf825162004cef565b51518510156201adf757859460018060a01b0362024ad3826200743f865162004cef565b51166000526020611f49815262024b0e6200680d62024b0462024342866000206202433b620076a1878c0162007387565b9288015162004cef565b51106201adee5762024b209062004cdf565b9462024a93565b6000945b62024b3b57505050505050600090565b62024b47825162004cef565b51518510156201adf757859460018060a01b0362024b6b826200743f865162004cef565b51166000526020611f49815262024b9c6200680d62024b0462024342866000206202433b620076a1878c0162007387565b51106201adee5762024bae9062004cdf565b9462024b2b565b865162461bcd60e51b815260206004820152603160248201527f43452049445f3730373a2054686520414444524553535f324441525241595b3060448201526000805160206203384c8339815191526064820152608490fd5b865162461bcd60e51b815260206004820152602e60248201527f43452049445f3730373a2054686520414444524553535f32444152524159206c6044820152600080516020620338ac8339815191526064820152608490fd5b909291604093848201600193848251510362024e13578462024c8a835162004cef565b51510362024dba579584959660001462024d2c576000945b62024cb257505050505050600090565b62024cbe825162004cef565b51518510156201adf757859460018060a01b0362024ce2826200743f865162004cef565b51166000526020611f49815262024d136200680d62024b0462024342866000206202433b620076a1878c0162007387565b51116201adee5762024d259062004cdf565b9462024ca2565b6000945b62024d4057505050505050600090565b62024d4c825162004cef565b51518510156201adf757859460018060a01b0362024d70826200743f865162004cef565b51166000526020611f49815262024da16200680d62024b0462024342866000206202433b620076a1878c0162007387565b51116201adee5762024db39062004cdf565b9462024d30565b865162461bcd60e51b815260206004820152603160248201527f43452049445f3730383a2054686520414444524553535f324441525241595b3060448201526000805160206203384c8339815191526064820152608490fd5b865162461bcd60e51b815260206004820152602e60248201527f43452049445f3730383a2054686520414444524553535f32444152524159206c6044820152600080516020620338ac8339815191526064820152608490fd5b929160408082019260019384815151036202508357600262024e8f825162004cef565b5151036202502a5784959660001462024f66576000945b62024eb657505050505050600090565b62024ec2815162004cef565b51518510156201adf757859460018060a01b0362024ee6826200743f855162004cef565b51166000526020611f49815262024f0f62024342866000206202433b620076a185890162007387565b9086019062024f236200680d835162004cef565b51811015918262024f48575b50506201adee5762024f419062004cdf565b9462024ea6565b62024f5b919250620169f0905162004cef565b511015388062024f2f565b6000945b62024f7a57505050505050600090565b62024f86815162004cef565b51518510156201adf757859460018060a01b0362024faa826200743f855162004cef565b51166000526020611f49815262024fd362024342866000206202433b620076a185890162007387565b9086019062024fe76200680d835162004cef565b5181101591826202500c575b50506201adee57620250059062004cdf565b9462024f6a565b6202501f919250620169f0905162004cef565b511015388062024ff3565b825162461bcd60e51b815260206004820152603160248201527f43452049445f3730393a2054686520414444524553535f324441525241595b306044820152600080516020620339ac8339815191526064820152608490fd5b825162461bcd60e51b815260206004820152602e60248201527f43452049445f3730393a2054686520414444524553535f32444152524159206c6044820152600080516020620338ac8339815191526064820152608490fd5b92916040808201926001938481515103620252885784620250fe825162004cef565b5151036202522f57849596600014620251a5576000945b6202512257505050505090565b6202512e815162004cef565b51518510156201d47c5760018060a01b0362025150866200743f845162004cef565b51166000526020611f4981526202518b6200680d6202518162024342876000206202433b620076a1878a0162007387565b9287015162004cef565b51116201ad8c576202519e869562004cdf565b9462025115565b6000945b620251b657505050505090565b620251c2815162004cef565b51518510156201d47c5760018060a01b03620251e4866200743f845162004cef565b51166000526020611f498152620252156200680d6202518162024342876000206202433b620076a1878a0162007387565b51116201ad8c5762025228869562004cdf565b94620251a9565b825162461bcd60e51b815260206004820152603160248201527f43452049445f3731303a2054686520414444524553535f324441525241595b3060448201526000805160206203384c8339815191526064820152608490fd5b825162461bcd60e51b815260206004820152602e60248201527f43452049445f3731303a2054686520414444524553535f32444152524159206c6044820152600080516020620338ac8339815191526064820152608490fd5b9291604080820192600193848151510362025483578462025303825162004cef565b5151036202542a57849596600014620253a0576000945b6202532757505050505090565b62025333815162004cef565b51518510156201d47c5760018060a01b0362025355866200743f845162004cef565b51166000526020611f498152620253866200680d6202518162024342876000206202433b620076a1878a0162007387565b51106201ad8c5762025399869562004cdf565b946202531a565b6000945b620253b157505050505090565b620253bd815162004cef565b51518510156201d47c5760018060a01b03620253df866200743f845162004cef565b51166000526020611f498152620254106200680d6202518162024342876000206202433b620076a1878a0162007387565b51106201ad8c5762025423869562004cdf565b94620253a4565b825162461bcd60e51b815260206004820152603160248201527f43452049445f3731313a2054686520414444524553535f324441525241595b3060448201526000805160206203384c8339815191526064820152608490fd5b825162461bcd60e51b815260206004820152602e60248201527f43452049445f3731313a2054686520414444524553535f32444152524159206c6044820152600080516020620338ac8339815191526064820152608490fd5b92916040808201926001938481515103620256e9576002620254ff825162004cef565b5151036202569057849596600014620255d1576000945b6202552357505050505090565b6202552f815162004cef565b51518510156201d47c5760018060a01b0362025551866200743f845162004cef565b51166000526020611f4981526202557a62024342856000206202433b620076a185880162007387565b908501906202558e6200680d835162004cef565b518110918215620255b4575b50506201ad8c57620255ad869562004cdf565b9462025516565b620255c7919250620169f0905162004cef565b511038806202559a565b6000945b620255e257505050505090565b620255ee815162004cef565b51518510156201d47c5760018060a01b0362025610866200743f845162004cef565b51166000526020613f0181526202563962024342856000206202433b620076a185880162007387565b908501906202564d6200680d835162004cef565b51811091821562025673575b50506201ad8c576202566c869562004cdf565b94620255d5565b62025686919250620169f0905162004cef565b5110388062025659565b825162461bcd60e51b815260206004820152603160248201527f43452049445f3731323a2054686520414444524553535f324441525241595b306044820152600080516020620339ac8339815191526064820152608490fd5b825162461bcd60e51b815260206004820152602e60248201527f43452049445f3731323a2054686520414444524553535f32444152524159206c6044820152600080516020620338ac8339815191526064820152608490fd5b6001938085036202575a5750620032d2935062025e2a565b60028103620257705750620032d2935062025f14565b600381036202587a575050906040019180835151036202581e5762025796835162004cef565b515103620257bf57620257b96200680d60018060a01b0380935116935162004cef565b51161490565b60405162461bcd60e51b815260206004820152603160248201527f43452049445f333a20414444524553535f324441525241595b305d206d757374604482015270081a185d99481bdb9948195b195b595b9d607a1b6064820152608490fd5b60405162461bcd60e51b815260206004820152602e60248201527f43452049445f333a20414444524553535f32444152524159206d75737420686160448201526d1d99481bdb9948195b195b595b9d60921b6064820152608490fd5b60049080820362025893575050620032d2935062026059565b60058103620258aa575050620032d293506202619e565b60068103620258c1575050620032d29350620262e3565b60078103620258d8575050620032d293506202651f565b60088103620258ef575050620032d293506202677d565b6009810362025906575050620032d29350620269bd565b600a81036202591d575050620032d2935062026bf1565b600b810362025934575050620032d2935062026ef3565b600c81036202594b575050620032d293506202711f565b600d810362025962575050620032d293506202736f565b600e810362025979575050620032d2935062027568565b600f810362025990575050620032d29350620278b8565b60108103620259a7575050620032d2935062027ab1565b60118103620259be575050620032d2935062027bd1565b60128103620259d5575050620032d2935062027cf1565b60138103620259ec575050620032d2935062027e87565b6014810362025a03575050620032d2935062027fa7565b6015810362025a1a575050620032d29350620280c7565b6019810362025a31575050620032d2935062028250565b601a810362025a48575050620032d2935062028388565b601b810362025a5f575050620032d29350620284c0565b601c8195929394951460001462025ba2575060200193808551510362025b495762025a8b855162004cef565b51510362025af057506000901562025aca5750516001600160a01b03166000908152611f47602052604090205490620167cc906200680d905162004cef565b90516001600160a01b03168152613eff602052604090205490620167cc906200680d9081565b60849060206040519162461bcd60e51b8352820152603260248201527f43452049445f32383a2055494e543235365f324441525241595b305d206d757360448201526000805160206203386c8339815191526064820152fd5b60405162461bcd60e51b8152602081840152602f60248201527f43452049445f32383a2055494e543235365f32444152524159206d7573742068604482015260008051602062033a4c8339815191526064820152608490fd5b601d810362025cdd575060200193808551510362025c845762025bc6855162004cef565b51510362025c2b57506000901562025c055750516001600160a01b03166000908152611f47602052604090205490620168cd906200680d905162004cef565b90516001600160a01b03168152613eff602052604090205490620168cd906200680d9081565b60849060206040519162461bcd60e51b8352820152603260248201527f43452049445f32393a2055494e543235365f324441525241595b305d206d757360448201526000805160206203386c8339815191526064820152fd5b60405162461bcd60e51b8152602081840152602f60248201527f43452049445f32393a2055494e543235365f32444152524159206d7573742068604482015260008051602062033a4c8339815191526064820152608490fd5b601e810362025e0f5750602001938451510362025db657600262025d02855162004cef565b51510362025d5d57506000901562025d3f5750516001600160a01b03166000908152611f476020526040902054620169cd6200680d835162004cef565b90516001600160a01b03168152613eff6020526040902054620245f3565b60849060206040519162461bcd60e51b8352820152603360248201527f43452049445f33303a2055494e543235365f324441525241595b305d206d75736044820152600080516020620337cc8339815191526064820152fd5b60849060206040519162461bcd60e51b8352820152602f60248201527f43452049445f33303a2055494e543235365f32444152524159206d7573742068604482015260008051602062033a4c8339815191526064820152fd5b9294509291601f14159050620065c757620032d2926202862f565b91909160018251510362025ebb571562025e8757620032d29160018060a01b03905116600052611f406020526200116462025e8162025e726001604060002001935162004cef565b51926040519283809262002cb6565b6203358c565b620032d29160018060a01b03905116600052613ef86020526200116462025e8162025e726001604060002001935162004cef565b60405162461bcd60e51b815260206004820152602b60248201527f43452049445f313a20535452494e475f4152524159206d75737420686176652060448201526a1bdb9948195b195b595b9d60aa1b6064820152608490fd5b916020019160018351510362025ffd57600162025f32845162004cef565b51510362025f9e571562025f6f57516001600160a01b03166000908152611f406020526040902060020154905162016afb906200680d9062004cef565b516001600160a01b03166000908152613ef86020526040902060020154905162016afb906200680d9062004cef565b60405162461bcd60e51b815260206004820152603160248201527f43452049445f323a2055494e543235365f324441525241595b305d206d757374604482015270081a185d99481bdb9948195b195b595b9d607a1b6064820152608490fd5b60405162461bcd60e51b815260206004820152602e60248201527f43452049445f323a2055494e543235365f32444152524159206d75737420686160448201526d1d99481bdb9948195b195b595b9d60921b6064820152608490fd5b91602001916001835151036202614257600162026077845162004cef565b515103620260e35715620260b457516001600160a01b03166000908152611f4060205260409020600201549051620167cc906200680d9062004cef565b516001600160a01b03166000908152613ef860205260409020600201549051620167cc906200680d9062004cef565b60405162461bcd60e51b815260206004820152603160248201527f43452049445f343a2055494e543235365f324441525241595b305d206d757374604482015270081a185d99481bdb9948195b195b595b9d607a1b6064820152608490fd5b60405162461bcd60e51b815260206004820152602e60248201527f43452049445f343a2055494e543235365f32444152524159206d75737420686160448201526d1d99481bdb9948195b195b595b9d60921b6064820152608490fd5b916020019160018351510362026287576001620261bc845162004cef565b515103620262285715620261f957516001600160a01b03166000908152611f4060205260409020600201549051620168cd906200680d9062004cef565b516001600160a01b03166000908152613ef860205260409020600201549051620168cd906200680d9062004cef565b60405162461bcd60e51b815260206004820152603160248201527f43452049445f353a2055494e543235365f324441525241595b305d206d757374604482015270081a185d99481bdb9948195b195b595b9d607a1b6064820152608490fd5b60405162461bcd60e51b815260206004820152602e60248201527f43452049445f353a2055494e543235365f32444152524159206d75737420686160448201526d1d99481bdb9948195b195b595b9d60921b6064820152608490fd5b9091602080910191600183515103620264c357600262026304845162004cef565b51510362026463576202631c6200680d845162004cef565b516202632d620169f0855162004cef565b5110620263dd5715620263ae5760018060a01b039081845116600052611f4091828252600260406000200154620263696200680d865162004cef565b51111594856202637b57505050505090565b909192939450511660005252620263a0620169f0600260406000200154925162004cef565b5110153880808080620174c1565b60018060a01b039081845116600052613ef891828252600260406000200154620263696200680d865162004cef565b60405162461bcd60e51b815260048101839052605260248201527f43452049445f363a2055494e543235365f324441525241595b305d5b305d206d60448201527f757374206265206c657373207468616e206f7220657175616c20746f2055494e606482015271543235365f324441525241595b305d5b315d60701b608482015260a490fd5b60405162461bcd60e51b815260048101839052603260248201527f43452049445f363a2055494e543235365f324441525241595b305d206d75737460448201527120686176652074776f20656c656d656e747360701b6064820152608490fd5b60405162461bcd60e51b815260048101839052602e60248201527f43452049445f363a2055494e543235365f32444152524159206d75737420686160448201526d1d99481bdb9948195b195b595b9d60921b6064820152608490fd5b9092919260208094019060019283835151036202669e5762026542835162004cef565b515115620266365794839495600014620265c6576000935b62026569575050505050600090565b62026575835162004cef565b5151841015620174c957849360018060a01b03835116600052611f408252600260406000200154620265ad826200743f875162004cef565b5114620174c157620265bf9062004cdf565b936202655a565b6000935b620265d9575050505050600090565b620265e5835162004cef565b5151841015620174c957849360018060a01b03835116600052613ef882526002604060002001546202661d826200743f875162004cef565b5114620174c1576202662f9062004cdf565b93620265ca565b60405162461bcd60e51b815260048101879052603a60248201527f43452049445f373a2055494e543235365f324441525241595b305d206d757374604482015279081a185d9948185d081b19585cdd081bdb9948195b195b595b9d60321b6064820152608490fd5b60405162461bcd60e51b815260048101879052602e60248201527f43452049445f373a2055494e543235365f32444152524159206d75737420686160448201526d1d99481bdb9948195b195b595b9d60921b6064820152608490fd5b156202670257565b60405162461bcd60e51b815260206004820152605860248201527f43452049445f383a2055494e543235365f324441525241595b305d5b305d2028604482015260008051602062033a8c833981519152606482015277081d1a19481b195b99dd1a081bd9881d1bdad95b931a5cdd60421b608482015260a490fd5b9160200191600183515103620268de5760026202679b845162004cef565b5151036202687e5780156202686157620267c96103e8620267c16200680d865162004cef565b5110620266fa565b156202681757620267df6200680d835162004cef565b516103e881101562004cfd5760039160018060a01b03905116600052811b01602052620167cc620169f0604060002054925162004cef565b620268276200680d835162004cef565b516103e881101562004cfd57611fbb9160018060a01b0390511660005260031b01602052620167cc620169f0604060002054925162004cef565b620268786103e8620267c16200680d865162004cef565b620267c9565b60405162461bcd60e51b815260206004820152603260248201527f43452049445f383a2055494e543235365f324441525241595b305d206d75737460448201527120686176652074776f20656c656d656e747360701b6064820152608490fd5b60405162461bcd60e51b815260206004820152602e60248201527f43452049445f383a2055494e543235365f32444152524159206d75737420686160448201526d1d99481bdb9948195b195b595b9d60921b6064820152608490fd5b156202694257565b60405162461bcd60e51b815260206004820152605860248201527f43452049445f393a2055494e543235365f324441525241595b305d5b305d2028604482015260008051602062033a8c833981519152606482015277081d1a19481b195b99dd1a081bd9881d1bdad95b931a5cdd60421b608482015260a490fd5b916020019160018351510362026b1e576002620269db845162004cef565b51510362026abe57801562026aa15762026a096103e862026a016200680d865162004cef565b51106202693a565b1562026a575762026a1f6200680d835162004cef565b516103e881101562004cfd5760039160018060a01b03905116600052811b01602052620168cd620169f0604060002054925162004cef565b62026a676200680d835162004cef565b516103e881101562004cfd57611fbb9160018060a01b0390511660005260031b01602052620168cd620169f0604060002054925162004cef565b62026ab86103e862026a016200680d865162004cef565b62026a09565b60405162461bcd60e51b815260206004820152603260248201527f43452049445f393a2055494e543235365f324441525241595b305d206d75737460448201527120686176652074776f20656c656d656e747360701b6064820152608490fd5b60405162461bcd60e51b815260206004820152602e60248201527f43452049445f393a2055494e543235365f32444152524159206d75737420686160448201526d1d99481bdb9948195b195b595b9d60921b6064820152608490fd5b1562026b8257565b60405162461bcd60e51b815260206004820152605960248201527f43452049445f31303a2055494e543235365f324441525241595b305d5b305d20604482015260008051602062033aac83398151915260648201526000805160206203380c833981519152608482015260a490fd5b91909160208092019160018351510362026e23576003918262026c15855162004cef565b51510362026dc057801562026da35762026c436103e862026c3b6200680d875162004cef565b511062026b7a565b1562026cfe5762026c596200680d845162004cef565b51916103e88084101562004cfd5785516001600160a01b03908116600090815294831b830184526040852054865162026c9790620169f09062004cef565b511115968762026cac575b5050505050505090565b909192939495965062026cc46200680d885162004cef565b519283101562022a4b5751168452811b0190526040902054905162026cee906201d46a9062004cef565b5110153880808080808062026ca2565b62026d0e6200680d845162004cef565b516103e88082101562004cfd5760018060a01b039384875116946000958652611fbb8094831b018552604086205462026d4c620169f0895162004cef565b511115978862026d6157505050505050505090565b90919293949596975062026d7a6200680d895162004cef565b519384101562022b4f57511685521b0190526040902054905162022a3a906201d46a9062004cef565b62026dba6103e862026c3b6200680d875162004cef565b62026c43565b60405162461bcd60e51b815260048101839052603560248201527f43452049445f31303a2055494e543235365f324441525241595b305d206d757360448201527474206861766520746872656520656c656d656e747360581b6064820152608490fd5b6084906040519062461bcd60e51b82526004820152602f60248201527f43452049445f31303a2055494e543235365f32444152524159206d7573742068604482015260008051602062033a4c8339815191526064820152fd5b1562026e8457565b60405162461bcd60e51b815260206004820152605960248201527f43452049445f31313a2055494e543235365f324441525241595b305d5b305d20604482015260008051602062033aac83398151915260648201526000805160206203380c833981519152608482015260a490fd5b91602001916001835151036202704e57600262026f11845162004cef565b51510362026ff457801562026fd75762026f3f6103e862026f376200680d865162004cef565b511062026e7c565b1562026f8d5762026f556200680d835162004cef565b516103e881101562004cfd5760039160018060a01b03905116600052811b0160205262016afb620169f0604060002054925162004cef565b62026f9d6200680d835162004cef565b516103e881101562004cfd57611fbb9160018060a01b0390511660005260031b0160205262016afb620169f0604060002054925162004cef565b62026fee6103e862026f376200680d865162004cef565b62026f3f565b60405162461bcd60e51b815260206004820152603360248201527f43452049445f31313a2055494e543235365f324441525241595b305d206d75736044820152600080516020620337cc8339815191526064820152608490fd5b60405162461bcd60e51b815260206004820152602f60248201527f43452049445f31313a2055494e543235365f32444152524159206d7573742068604482015260008051602062033a4c8339815191526064820152608490fd5b15620270b057565b60405162461bcd60e51b815260206004820152605960248201527f43452049445f31323a2055494e543235365f324441525241595b305d5b305d20604482015260008051602062033aac83398151915260648201526000805160206203380c833981519152608482015260a490fd5b9160200191600183515103620273155760026202713d845162004cef565b515103620272bb5780156202729e576202716b6103e8620271636200680d865162004cef565b5110620270a8565b156202721057620271816200680d835162004cef565b51906103e8908183101562004cfd57516001600160a01b03166000908152600392831b90920160205260408220546064808202939180159085049091141715620271fc57620271d56200680d855162004cef565b5191821015620014ce57506202161e620167cc926006620169f09360031b015490620050d4565b634e487b7160e01b81526011600452602490fd5b620272206200680d835162004cef565b51906103e8908183101562004cfd57516001600160a01b0316600090815260039290921b611fbb0160205260408220546064808202939180159085049091141715620271fc57620272766200680d855162004cef565b5191821015620014ce57506202161e620167cc92611fbe620169f09360031b015490620050d4565b620272b56103e8620271636200680d865162004cef565b6202716b565b60405162461bcd60e51b815260206004820152603360248201527f43452049445f31323a2055494e543235365f324441525241595b305d206d75736044820152600080516020620337cc8339815191526064820152608490fd5b60405162461bcd60e51b815260206004820152602f60248201527f43452049445f31323a2055494e543235365f32444152524159206d7573742068604482015260008051602062033a4c8339815191526064820152608490fd5b91602001916001835151036202750e5760026202738d845162004cef565b515103620274b457156202742657620273ab6200680d835162004cef565b51906103e8908183101562004cfd57516001600160a01b03166000908152600392831b90920160205260408220546064808202939180159085049091141715620271fc57620273ff6200680d855162004cef565b5191821015620014ce57506202161e620168cd926006620169f09360031b015490620050d4565b620274366200680d835162004cef565b51906103e8908183101562004cfd57516001600160a01b0316600090815260039290921b611fbb0160205260408220546064808202939180159085049091141715620271fc576202748c6200680d855162004cef565b5191821015620014ce57506202161e620168cd92611fbe620169f09360031b015490620050d4565b60405162461bcd60e51b815260206004820152603360248201527f43452049445f31333a2055494e543235365f324441525241595b305d206d75736044820152600080516020620337cc8339815191526064820152608490fd5b60405162461bcd60e51b815260206004820152602f60248201527f43452049445f31333a2055494e543235365f32444152524159206d7573742068604482015260008051602062033a4c8339815191526064820152608490fd5b906020809301916001835151036202785e57600262027588845162004cef565b515103620278045715620276c857620275a66200680d835162004cef565b516103e8908181101562004cfd5760018060a01b03948584511693600094855260038093811b0182526040852054606481029080820460641490151715620276b457620275f86200680d885162004cef565b518581101562022b4f57841b600601546202761391620050d4565b62027623620169f0885162004cef565b511115968762027637575050505050505090565b90919293949596506202764f6200680d885162004cef565b51918583101562022b4f5751168552821b8201905260408320546064808202949180159086049091141715620271fc576202768f6200680d865162004cef565b5192831015620014ce57501b6006015462026cee916201d46a916202161e91620050d4565b634e487b7160e01b86526011600452602486fd5b620276d86200680d835162004cef565b51906103e88083101562004cfd5760018060a01b039485835116936000948552611fbb809160031b018252604085205493606485029480860460641490151715620276b4576202772d6200680d885162004cef565b51948486101562022b4f576202774e90611fbe809760031b015490620050d4565b6202775e620169f0895162004cef565b51111597886202777357505050505050505090565b9091929394959697506202778c6200680d895162004cef565b519185831015620277f0575116865260031b019052604083205492606484029380850460641490151715620271fc57620277cb6200680d865162004cef565b5191821015620014ce575060031b015462022a3a916201d46a916202161e91620050d4565b634e487b7160e01b88526032600452602488fd5b60405162461bcd60e51b815260048101859052603360248201527f43452049445f31343a2055494e543235365f324441525241595b305d206d75736044820152600080516020620337cc8339815191526064820152608490fd5b60405162461bcd60e51b815260048101859052602f60248201527f43452049445f31343a2055494e543235365f32444152524159206d7573742068604482015260008051602062033a4c8339815191526064820152608490fd5b916020019160018351510362027a57576002620278d6845162004cef565b515103620279fd57156202796f57620278f46200680d835162004cef565b51906103e8908183101562004cfd57516001600160a01b03166000908152600392831b90920160205260408220546064808202939180159085049091141715620271fc57620279486200680d855162004cef565b5191821015620014ce57506202161e62016afb926006620169f09360031b015490620050d4565b6202797f6200680d835162004cef565b51906103e8908183101562004cfd57516001600160a01b0316600090815260039290921b611fbb0160205260408220546064808202939180159085049091141715620271fc57620279d56200680d855162004cef565b5191821015620014ce57506202161e62016afb92611fbe620169f09360031b015490620050d4565b60405162461bcd60e51b815260206004820152603360248201527f43452049445f31353a2055494e543235365f324441525241595b305d206d75736044820152600080516020620337cc8339815191526064820152608490fd5b60405162461bcd60e51b815260206004820152602f60248201527f43452049445f31353a2055494e543235365f32444152524159206d7573742068604482015260008051602062033a4c8339815191526064820152608490fd5b916020019160018351510362027b7757600162027acf845162004cef565b51510362027b1d57801562027afd576202161e6200680d91620167cc9360018060a01b03905116906201b5d7565b5051620167cc906200680d906202161e906001600160a01b03166201b583565b60405162461bcd60e51b815260206004820152603260248201527f43452049445f31363a2055494e543235365f324441525241595b305d206d757360448201526000805160206203386c8339815191526064820152608490fd5b60405162461bcd60e51b815260206004820152602f60248201527f43452049445f31363a2055494e543235365f32444152524159206d7573742068604482015260008051602062033a4c8339815191526064820152608490fd5b916020019160018351510362027c9757600162027bef845162004cef565b51510362027c3d57801562027c1d576202161e6200680d91620168cd9360018060a01b03905116906201b5d7565b5051620168cd906200680d906202161e906001600160a01b03166201b583565b60405162461bcd60e51b815260206004820152603260248201527f43452049445f31373a2055494e543235365f324441525241595b305d206d757360448201526000805160206203386c8339815191526064820152608490fd5b60405162461bcd60e51b815260206004820152602f60248201527f43452049445f31373a2055494e543235365f32444152524159206d7573742068604482015260008051602062033a4c8339815191526064820152608490fd5b90916020019060018251510362027e2d57600262027d10835162004cef565b51510362027dd357801562027d815782516001600160a01b039062027d38908216836201b5d7565b62027d486200680d855162004cef565b511115938462027d59575050505090565b62027d74939450916202161e91620169f0935116906201b5d7565b51101538808080620051c4565b5081516001600160a01b039062027d9a9082166201b583565b62027daa6200680d845162004cef565b511115928362027dba5750505090565b62021a61929350620169f0916202161e9151166201b583565b60405162461bcd60e51b815260206004820152603360248201527f43452049445f31383a2055494e543235365f324441525241595b305d206d75736044820152600080516020620337cc8339815191526064820152608490fd5b60405162461bcd60e51b815260206004820152602f60248201527f43452049445f31383a2055494e543235365f32444152524159206d7573742068604482015260008051602062033a4c8339815191526064820152608490fd5b916020019160018351510362027f4d57600162027ea5845162004cef565b51510362027ef357801562027ed3576202161e6200680d91620167cc9360018060a01b03905116906201c48e565b5051620167cc906200680d906202161e906001600160a01b03166201c43a565b60405162461bcd60e51b815260206004820152603260248201527f43452049445f31393a2055494e543235365f324441525241595b305d206d757360448201526000805160206203386c8339815191526064820152608490fd5b60405162461bcd60e51b815260206004820152602f60248201527f43452049445f31393a2055494e543235365f32444152524159206d7573742068604482015260008051602062033a4c8339815191526064820152608490fd5b91602001916001835151036202806d57600162027fc5845162004cef565b5151036202801357801562027ff3576202161e6200680d91620168cd9360018060a01b03905116906201c48e565b5051620168cd906200680d906202161e906001600160a01b03166201c43a565b60405162461bcd60e51b815260206004820152603260248201527f43452049445f32303a2055494e543235365f324441525241595b305d206d757360448201526000805160206203386c8339815191526064820152608490fd5b60405162461bcd60e51b815260206004820152602f60248201527f43452049445f32303a2055494e543235365f32444152524159206d7573742068604482015260008051602062033a4c8339815191526064820152608490fd5b909160200190600182515103620281f6576002620280e6835162004cef565b5151036202819c5780156202814a5782516001600160a01b03906202810e908216836201c48e565b6202811e6200680d855162004cef565b51111593846202812f575050505090565b62027d74939450916202161e91620169f0935116906201c48e565b5081516001600160a01b0390620281639082166201c43a565b620281736200680d845162004cef565b5111159283620281835750505090565b62021a61929350620169f0916202161e9151166201c43a565b60405162461bcd60e51b815260206004820152603360248201527f43452049445f32313a2055494e543235365f324441525241595b305d206d75736044820152600080516020620337cc8339815191526064820152608490fd5b60405162461bcd60e51b815260206004820152602f60248201527f43452049445f32313a2055494e543235365f32444152524159206d7573742068604482015260008051602062033a4c8339815191526064820152608490fd5b91602001916001835151036202832e5760016202826e845162004cef565b515103620282d45715620282a857516001600160a01b03166000908152611f4560205260409020549051620167cc906200680d9062004cef565b516001600160a01b03166000908152613efd60205260409020549051620167cc906200680d9062004cef565b60405162461bcd60e51b815260206004820152603260248201527f43452049445f32353a2055494e543235365f324441525241595b305d206d757360448201526000805160206203386c8339815191526064820152608490fd5b60405162461bcd60e51b815260206004820152602f60248201527f43452049445f32353a2055494e543235365f32444152524159206d7573742068604482015260008051602062033a4c8339815191526064820152608490fd5b916020019160018351510362028466576001620283a6845162004cef565b5151036202840c5715620283e057516001600160a01b03166000908152611f4560205260409020549051620168cd906200680d9062004cef565b516001600160a01b03166000908152613efd60205260409020549051620168cd906200680d9062004cef565b60405162461bcd60e51b815260206004820152603260248201527f43452049445f32363a2055494e543235365f324441525241595b305d206d757360448201526000805160206203386c8339815191526064820152608490fd5b60405162461bcd60e51b815260206004820152602f60248201527f43452049445f32363a2055494e543235365f32444152524159206d7573742068604482015260008051602062033a4c8339815191526064820152608490fd5b9091602080910191600183515103620285d5576002620284e1845162004cef565b5151036202857b57156202854f5760018060a01b039081845116600052611f45918282526040600020546202851b6200680d865162004cef565b51111594856202852d57505050505090565b909192939450511660005252620263a0620169f0604060002054925162004cef565b60018060a01b039081845116600052613efd918282526040600020546202851b6200680d865162004cef565b60405162461bcd60e51b815260048101839052603360248201527f43452049445f32373a2055494e543235365f324441525241595b305d206d75736044820152600080516020620337cc8339815191526064820152608490fd5b60405162461bcd60e51b815260048101839052602f60248201527f43452049445f32373a2055494e543235365f32444152524159206d7573742068604482015260008051602062033a4c8339815191526064820152608490fd5b909160400160019283825151036202870b57839215620286aa576000925b6202865b5750505050600090565b62028667825162004cef565b51518310156201719057839260018060a01b03808351169062028690836200743f875162004cef565b511614620051c457620286a39062004cdf565b926202864d565b6000925b620286bc5750505050600090565b620286c8825162004cef565b51518310156201719057839260018060a01b038083511690620286f1836200743f875162004cef565b511614620051c457620287049062004cdf565b92620286ae565b60405162461bcd60e51b815260206004820152602f60248201527f43452049445f33313a20414444524553535f32444152524159206d7573742068604482015260008051602062033a4c8339815191526064820152608490fd5b9161012d8114620289f85761012e8114620289ec5761012f8114620289e0576101308114620289d4576101318114620289c8576101328114620289bc576101338114620289b0576101348114620289a4576101358114620289985761013681146202898c5761013781146202898057610138811462028974576101398114620289685761013a81146202895c5761013b8114620289505761013c8114620289445761013d8114620289375761013e81146202892a5761013f81146202891d5761014081146202891057610141811462028904576101428114620288f8576101438114620288ec576101448114620288e0576101458114620288d4576101468114620288c8576101478114620288bc576101738114620288af576101748114620288a3576101751462028898575050600090565b620032d2916202b213565b50620032d2916202b050565b5050620032d2906202aff4565b50620032d2916202aea6565b50620032d2916202ab5c565b50620032d2916202a9e2565b50620032d2916202a861565b50620032d2916202a69c565b50620032d2916202a53a565b50620032d2916202a3bf565b5050620032d2906202a2b8565b5050620032d2906202a1a3565b5050620032d2906202a0a1565b5050620032d29062029f99565b50620032d29162029e18565b50620032d29162029c97565b50620032d29162029b14565b50620032d29162029991565b50620032d29162029810565b50620032d2916202968f565b50620032d2916202950c565b50620032d29162029389565b50620032d2916202924a565b50620032d2916202910b565b50620032d29162028fe6565b50620032d29162028ec2565b50620032d29162028d84565b50620032d29162028c46565b50620032d29162028b22565b50620032d2919060200190600191828151510362028ac9576020820151602681101562002a2357600d03620065c75762028a3383926202b3bf565b6000935b62028a455750505050600090565b62028a51825162004cef565b515184101562017190576000835b62028a79575b5062028a72839462004cdf565b9362028a37565b939291815185101562028ac05762028a97846200743f835162004cef565b5162028aa4868462004d46565b511462016c4d5762028ab883949562004cdf565b909262028a5f565b91929362028a65565b60405162461bcd60e51b815260206004820152602b60248201527f43452049445f3330313a205468652055494e545f32444152524159206c656e6760448201526a7468206973206e6f74203160a81b6064820152608490fd5b9060200190600191828151510362028bed576020820151602681101562002a2357600d03620065c75762028b5783926202b3bf565b6000935b62028b695750505050600090565b62028b75825162004cef565b515184101562017190576000835b62028b9d575b5062028b96839462004cdf565b9362028b5b565b939291815185101562028be45762028bbb846200743f835162004cef565b5162028bc8868462004d46565b511462016c4d5762028bdc83949562004cdf565b909262028b83565b91929362028b89565b60405162461bcd60e51b815260206004820152602b60248201527f43452049445f3330323a205468652055494e545f32444152524159206c656e6760448201526a7468206973206e6f74203160a81b6064820152608490fd5b9060200190600191828151510362028d2b576020820151602681101562002a2357600d03620065c75762028c7b83926202b3bf565b6000925b62028c8a5750505090565b62028c96825162004cef565b515183101562016e0d57600080855b62028cc5575b501562016d865762028cbe849362004cdf565b9262028c7f565b8295939194955181101562028d205762028ce5866200743f845162004cef565b5162028cf2828562004d46565b511462028d13579062028d0784939262004cdf565b90939594919262028ca5565b5091809493503862028cab565b949390929462028cab565b60405162461bcd60e51b815260206004820152602b60248201527f43452049445f3330333a205468652055494e545f32444152524159206c656e6760448201526a7468206973206e6f74203160a81b6064820152608490fd5b9060200190600191828151510362028e69576020820151602681101562002a2357600d03620065c75762028db983926202b3bf565b6000925b62028dc85750505090565b62028dd4825162004cef565b515183101562016e0d57600080855b62028e03575b501562016d865762028dfc849362004cdf565b9262028dbd565b8295939194955181101562028e5e5762028e23866200743f845162004cef565b5162028e30828562004d46565b511462028e51579062028e4584939262004cdf565b90939594919262028de3565b5091809493503862028de9565b949390929462028de9565b60405162461bcd60e51b815260206004820152602b60248201527f43452049445f3330343a205468652055494e545f32444152524159206c656e6760448201526a7468206973206e6f74203160a81b6064820152608490fd5b9060200190600191828151510362028f8d576020820151602681101562002a2357600e03620065c75762028ef783926202b3bf565b6000935b62028f095750505050600090565b62028f15825162004cef565b515184101562017190576000835b62028f3d575b5062028f36839462004cdf565b9362028efb565b939291815185101562028f845762028f5b846200743f835162004cef565b5162028f68868462004d46565b511462016c4d5762028f7c83949562004cdf565b909262028f23565b91929362028f29565b60405162461bcd60e51b815260206004820152602b60248201527f43452049445f3330353a205468652055494e545f32444152524159206c656e6760448201526a7468206973206e6f74203160a81b6064820152608490fd5b90602001906001918281515103620290b1576020820151602681101562002a2357600e03620065c7576202901b83926202b3bf565b6000935b6202902d5750505050600090565b62029039825162004cef565b515184101562017190576000835b62029061575b506202905a839462004cdf565b936202901f565b9392918151851015620290a8576202907f846200743f835162004cef565b516202908c868462004d46565b511462016c4d57620290a083949562004cdf565b909262029047565b9192936202904d565b60405162461bcd60e51b815260206004820152602f60248201527f43452049445f3330363a205468652055494e545f3235365f3244415252415920604482015260008051602062033a0c8339815191526064820152608490fd5b90602001906001918281515103620291f0576020820151602681101562002a2357600e03620065c7576202914083926202b3bf565b6000925b6202914f5750505090565b6202915b825162004cef565b515183101562016e0d57600080855b6202918a575b501562016d865762029183849362004cdf565b9262029144565b82959391949551811015620291e557620291aa866200743f845162004cef565b51620291b7828562004d46565b5114620291d85790620291cc84939262004cdf565b9093959491926202916a565b5091809493503862029170565b949390929462029170565b60405162461bcd60e51b815260206004820152602f60248201527f43452049445f3330373a205468652055494e545f3235365f3244415252415920604482015260008051602062033a0c8339815191526064820152608490fd5b906020019060019182815151036202932f576020820151602681101562002a2357600e03620065c7576202927f83926202b3bf565b6000925b6202928e5750505090565b6202929a825162004cef565b515183101562016e0d57600080855b620292c9575b501562016d8657620292c2849362004cdf565b9262029283565b829593919495518110156202932457620292e9866200743f845162004cef565b51620292f6828562004d46565b51146202931757906202930b84939262004cdf565b909395949192620292a9565b50918094935038620292af565b9493909294620292af565b60405162461bcd60e51b815260206004820152602f60248201527f43452049445f3330383a205468652055494e545f3235365f3244415252415920604482015260008051602062033a0c8339815191526064820152608490fd5b90602001906001918281515103620294b2576002620293a9825162004cef565b51510362029458576020820151602681101562002a2357600d03620065c757620293d483926202b3bf565b906000925b620293e75750505050600090565b8151831015620171905782620293ff85948462004d46565b51620294106200680d845162004cef565b5111158062029431575b620051c4576202942a9062004cdf565b92620293d9565b506202943e818462004d46565b516202944f620169f0845162004cef565b5110156202941a565b60405162461bcd60e51b815260206004820152603260248201527f43452049445f3330393a205468652055494e545f3235365f324441525241595b60448201526000805160206203374c8339815191526064820152608490fd5b60405162461bcd60e51b815260206004820152602f60248201527f43452049445f3330393a205468652055494e545f3235365f3244415252415920604482015260008051602062033a0c8339815191526064820152608490fd5b90602001906001918281515103620296355760026202952c825162004cef565b515103620295db576020820151602681101562002a2357600d03620065c7576202955783926202b3bf565b906000925b6202956a5750505050600090565b81518310156201719057826202958285948462004d46565b51620295936200680d845162004cef565b51111580620295b4575b620051c457620295ad9062004cdf565b926202955c565b50620295c1818462004d46565b51620295d2620169f0845162004cef565b5110156202959d565b60405162461bcd60e51b815260206004820152603260248201527f43452049445f3331303a205468652055494e545f3235365f324441525241595b60448201526000805160206203374c8339815191526064820152608490fd5b60405162461bcd60e51b815260206004820152602f60248201527f43452049445f3331303a205468652055494e545f3235365f3244415252415920604482015260008051602062033a0c8339815191526064820152608490fd5b90602001906001918281515103620297b6576002620296af825162004cef565b5151036202975c576020820151602681101562002a2357600d03620065c757620296da83926202b3bf565b60009182945b620296ed57505050905090565b815185101562016c555762029703858362004d46565b51620297146200680d835162004cef565b5111801562029736575b62016c4d576202972f849562004cdf565b94620296e0565b5062029743858362004d46565b5162029754620169f0835162004cef565b51106202971e565b60405162461bcd60e51b815260206004820152603260248201527f43452049445f3331313a205468652055494e545f3235365f324441525241595b60448201526000805160206203374c8339815191526064820152608490fd5b60405162461bcd60e51b815260206004820152602f60248201527f43452049445f3331313a205468652055494e545f3235365f3244415252415920604482015260008051602062033a0c8339815191526064820152608490fd5b906020019060019182815151036202993757600262029830825162004cef565b515103620298dd576020820151602681101562002a2357600d03620065c7576202985b83926202b3bf565b60009182945b6202986e57505050905090565b815185101562016c555762029884858362004d46565b51620298956200680d835162004cef565b51118015620298b7575b62016c4d57620298b0849562004cdf565b9462029861565b50620298c4858362004d46565b51620298d5620169f0835162004cef565b51106202989f565b60405162461bcd60e51b815260206004820152603260248201527f43452049445f3331323a205468652055494e545f3235365f324441525241595b60448201526000805160206203374c8339815191526064820152608490fd5b60405162461bcd60e51b815260206004820152602f60248201527f43452049445f3331323a205468652055494e545f3235365f3244415252415920604482015260008051602062033a0c8339815191526064820152608490fd5b9060200190600191828151510362029aba576002620299b1825162004cef565b51510362029a60576020820151602681101562002a2357600e03620065c757620299dc83926202b3bf565b906000925b620299ef5750505050600090565b815183101562017190578262029a0785948462004d46565b5162029a186200680d845162004cef565b5111158062029a39575b620051c45762029a329062004cdf565b92620299e1565b5062029a46818462004d46565b5162029a57620169f0845162004cef565b51101562029a22565b60405162461bcd60e51b815260206004820152603260248201527f43452049445f3331333a205468652055494e545f3235365f324441525241595b60448201526000805160206203374c8339815191526064820152608490fd5b60405162461bcd60e51b815260206004820152602f60248201527f43452049445f3331333a205468652055494e545f3235365f3244415252415920604482015260008051602062033a0c8339815191526064820152608490fd5b9060200190600191828151510362029c3d57600262029b34825162004cef565b51510362029be3576020820151602681101562002a2357600e03620065c75762029b5f83926202b3bf565b906000925b62029b725750505050600090565b815183101562017190578262029b8a85948462004d46565b5162029b9b6200680d845162004cef565b5111158062029bbc575b620051c45762029bb59062004cdf565b9262029b64565b5062029bc9818462004d46565b5162029bda620169f0845162004cef565b51101562029ba5565b60405162461bcd60e51b815260206004820152603260248201527f43452049445f3331343a205468652055494e545f3235365f324441525241595b60448201526000805160206203374c8339815191526064820152608490fd5b60405162461bcd60e51b815260206004820152602f60248201527f43452049445f3331343a205468652055494e545f3235365f3244415252415920604482015260008051602062033a0c8339815191526064820152608490fd5b9060200190600191828151510362029dbe57600262029cb7825162004cef565b51510362029d64576020820151602681101562002a2357600e03620065c75762029ce283926202b3bf565b60009182945b62029cf557505050905090565b815185101562016c555762029d0b858362004d46565b5162029d1c6200680d835162004cef565b5111801562029d3e575b62016c4d5762029d37849562004cdf565b9462029ce8565b5062029d4b858362004d46565b5162029d5c620169f0835162004cef565b511062029d26565b60405162461bcd60e51b815260206004820152603260248201527f43452049445f3331353a205468652055494e545f3235365f324441525241595b60448201526000805160206203374c8339815191526064820152608490fd5b60405162461bcd60e51b815260206004820152602f60248201527f43452049445f3331353a205468652055494e545f3235365f3244415252415920604482015260008051602062033a0c8339815191526064820152608490fd5b9060200190600191828151510362029f3f57600262029e38825162004cef565b51510362029ee5576020820151602681101562002a2357600e03620065c75762029e6383926202b3bf565b60009182945b62029e7657505050905090565b815185101562016c555762029e8c858362004d46565b5162029e9d6200680d835162004cef565b5111801562029ebf575b62016c4d5762029eb8849562004cdf565b9462029e69565b5062029ecc858362004d46565b5162029edd620169f0835162004cef565b511062029ea7565b60405162461bcd60e51b815260206004820152603260248201527f43452049445f3331363a205468652055494e545f3235365f324441525241595b60448201526000805160206203374c8339815191526064820152608490fd5b60405162461bcd60e51b815260206004820152602f60248201527f43452049445f3331363a205468652055494e545f3235365f3244415252415920604482015260008051602062033a0c8339815191526064820152608490fd5b6020808201908151602681101562002a2357600d1480156202a08b575b6202a03d57508051602681101562002a2357600f149081156202a026575b5062029fe05750600090565b6000805b606060408401510151805182101562017689576202a0058260c09262004d46565b5101511562022e325760406202a01d60609262004cdf565b91505062029fe4565b905051602681101562002a2357600c143862029fd4565b60009150815b816040850151015180518210156202a081576202a0638260019262004d46565b5115150362017682576202a07960409162004cdf565b90506202a043565b5050505050600190565b508151602681101562002a2357600e1462029fb6565b6020808201908151602681101562002a2357600d1480156202a18d575b6202a14957508051602681101562002a2357600f149081156202a132575b506202a0e85750600090565b6000805b6060604084015101518051821015620176895760c06202a10f8360019362004d46565b51015115151462022e325760406202a12960609262004cdf565b9150506202a0ec565b905051602681101562002a2357600c14386202a0dc565b60009150815b816040850151015180518210156202a081576202a16f8260019262004d46565b5115151462017682576202a18560409162004cdf565b90506202a14f565b508151602681101562002a2357600e146202a0be565b6020808201908151602681101562002a2357600d1480156202a2a2575b6202a25457508051602681101562002a2357600f149081156202a23d575b506202a1ea5750600090565b60005b6060604083015101518051821015620065c757819060c06202a213600193849362004d46565b5101511515146202a237575060406202a22e60609262004cdf565b9150506202a1ed565b91505090565b905051602681101562002a2357600c14386202a1de565b905060005b8160408401510151805182101562016d865781906202a27c600192839262004d46565b511515146202a29b57506202a29360409162004cdf565b90506202a259565b9250505090565b508151602681101562002a2357600e146202a1c0565b6020808201908151602681101562002a2357600d1480156202a3a9575b6202a36257508051602681101562002a2357600f149081156202a34b575b506202a2ff5750600090565b60005b6060604083015101518051821015620065c7576202a3238260c09262004d46565b510151156202a3445760406202a33b60609262004cdf565b9150506202a302565b5050600190565b905051602681101562002a2357600c14386202a2f3565b905060005b8160408401510151805182101562016d865781906202a38a600192839262004d46565b511515036202a29b57506202a3a160409162004cdf565b90506202a367565b508151602681101562002a2357600e146202a2d5565b60208092019160019283815151036202a4e0576202a3df84915162004cef565b5151036202a487578082018051602681101562002a2357600f141590816202a46f575b50620065c757600091835b6202a41b5750505050600090565b60408101926060845101519384518210156201e540576202a4566200680d60a0866202a449868b9a62004d46565b5101519351015162004cef565b5114620051c4576202a4689062004cdf565b926202a40d565b905051602681101562002a2357600c1415386202a402565b6084906040519062461bcd60e51b82526004820152603260248201527f43452049445f3332313a205468652055494e545f3235365f324441525241595b60448201526000805160206203374c8339815191526064820152fd5b60405162461bcd60e51b815260048101839052602f60248201527f43452049445f3332313a205468652055494e545f3235365f3244415252415920604482015260008051602062033a0c8339815191526064820152608490fd5b60208092019160019283815151036202a642578183018051602681101562002a2357600f141590816202a62a575b5062016d865783926000945b6202a583575050505050600090565b6040810160608082510151518710156202a62257906000865b6202a5b8575b5050506202a5b1849562004cdf565b946202a574565b6202a5c4855162004cef565b51518110156202a61c57856202a5df89858551015162004d46565b5101516202a5f3826200743f885162004cef565b51146202a61157906202a60887939262004cdf565b9091926202a59c565b505050505050905090565b6202a5a2565b505062016f9a565b905051602681101562002a2357600c1415386202a568565b60405162461bcd60e51b815260048101839052602f60248201527f43452049445f3332323a205468652055494e545f3235365f3244415252415920604482015260008051602062033a0c8339815191526064820152608490fd5b60208092019160019283815151036202a8075760026202a6bd825162004cef565b5151036202a7ad578183018051602681101562002a2357600f141590816202a795575b5062016d8657600092845b6202a6fa575050505050600090565b604081019360609485815101519586518310156202a78c57828691826202a723838c9b62004d46565b5101516202a7366200680d895162004cef565b51111593846202a75c575b50505050620174c1576202a7559062004cdf565b936202a6eb565b6202a76c93945051015162004d46565b5101516202a77f620169f0855162004cef565b511015848238806202a741565b50505062016f9a565b905051602681101562002a2357600c1415386202a6e0565b60405162461bcd60e51b815260048101839052603260248201527f43452049445f3332333a205468652055494e545f3235365f324441525241595b60448201526000805160206203374c8339815191526064820152608490fd5b60405162461bcd60e51b815260048101839052602f60248201527f43452049445f3332333a205468652055494e545f3235365f3244415252415920604482015260008051602062033a0c8339815191526064820152608490fd5b602080920160019283825151036202a98957836202a880835162004cef565b5151036202a92a578083018051602681101562002a2357600f141590816202a912575b5062016d8657600092845b6202a8bd575050505050600090565b6060604082015101519384518110156202a90b57826202a8df82889762004d46565b5101516202a8f26200680d865162004cef565b5110620174c1576202a9049062004cdf565b936202a8ae565b5062016f9a565b905051602681101562002a2357600c1415386202a8a3565b6084906040519062461bcd60e51b82526004820152603260248201527f43452049445f3332343a205468652055494e545f3235365f324441525241595b604482015271305d206c656e677468206973206e6f74203160701b6064820152fd5b6084906040519062461bcd60e51b82526004820152602f60248201527f43452049445f3332343a205468652055494e545f3235365f3244415252415920604482015260008051602062033a0c8339815191526064820152fd5b602080920160019283825151036202ab0357836202aa01835162004cef565b5151036202aaa4578083018051602681101562002a2357600f141590816202aa8c575b5062016d8657600092845b6202aa3e575050505050600090565b6060604082015101519384518110156202a90b57826202aa6082889762004d46565b5101516202aa736200680d865162004cef565b5111620174c1576202aa859062004cdf565b936202aa2f565b905051602681101562002a2357600c1415386202aa24565b6084906040519062461bcd60e51b82526004820152603260248201527f43452049445f3332353a205468652055494e545f3235365f324441525241595b604482015271305d206c656e677468206973206e6f74203160701b6064820152fd5b6084906040519062461bcd60e51b82526004820152602f60248201527f43452049445f3332353a205468652055494e545f3235365f3244415252415920604482015260008051602062033a0c8339815191526064820152fd5b906020019060019182815151036202ae4c57826202ab7b825162004cef565b5151036202adec57602082018051602681101562002a2357600f141590816202add4575b50620065c7576000939291825b6202abbb575b50600093505050565b60408101946060808751015180518310156202adcb576202abe1836202abe89262004d46565b5162005673565b906006918281101562002a235715806202adb2575b6202ad58576202ac166202abe184838b51015162004d46565b8281101562002a23578614806202ad98575b6202ad58576202ac416202abe184838b51015162004d46565b8281101562002a2357600280911490816202ad7d575b506202ad58576202ac716202abe184838b51015162004d46565b8281101562002a2357600380911490816202ad62575b506202ad58576202aca16202abe184838b51015162004d46565b978289101562002a23576004809914806202ad3e575b6202ad3357836202acd0926202abe19251015162004d46565b908110156202ad1e5784959650600580911490816202ad03575b50620051c4576202acfb9062004cdf565b94936202abac565b90506202ad156200680d855162004cef565b5114386202acea565b602187634e487b7160e01b6000525260246000fd5b509496505050505050565b50886202ad506200680d885162004cef565b51146202acb7565b5093955050505050565b90506202ad746200680d875162004cef565b5114386202ac87565b90506202ad8f6200680d875162004cef565b5114386202ac57565b50856202adaa6200680d875162004cef565b51146202ac28565b506202adc36200680d865162004cef565b51156202abfd565b5050506202abb2565b905051602681101562002a2357600c1415386202ab9f565b60405162461bcd60e51b815260206004820152603260248201527f43452049445f3332363a205468652055494e545f3235365f324441525241595b604482015271305d206c656e677468206973206e6f74203160701b6064820152608490fd5b60405162461bcd60e51b815260206004820152602f60248201527f43452049445f3332363a205468652055494e545f3235365f3244415252415920604482015260008051602062033a0c8339815191526064820152608490fd5b906020019060019182815151036202af9a57602082018051602681101562002a2357600f141590816202af82575b50620065c75782916000935b6202aeee5750505050600090565b6040810160608082510151518610156201e54057906000855b6202af23575b5050506202af1c839462004cdf565b936202aee0565b6202af2f855162004cef565b51518110156202af7c57826202af4a88828551015162004d46565b5101516202af5e826200743f885162004cef565b511462023bcd57906202af7386939262004cdf565b9091926202af07565b6202af0d565b905051602681101562002a2357600c1415386202aed4565b60405162461bcd60e51b815260206004820152602f60248201527f43452049445f3332373a205468652055494e545f3235365f3244415252415920604482015260008051602062033a0c8339815191526064820152608490fd5b6020810151602681101562002a2357601303620074b25760005b60408083015101518051821015620065c757819060c06202b033600193849362004d46565b5101511515146202a23757506202b04a9062004cdf565b6202b00e565b6020918201805151600094936001939091600019016202b1b95760026202b078845162004cef565b5151036202b15f5781810151602681101562002a23576013036202b155576000959493929190835b6202b0af575b50505050909150565b604080820190808251015180518a10156202b14c578491826202b0d48c809462004d46565b5101516202b0e76200680d895162004cef565b51111593846202b11c575b505050506202b112576202b1098495969762004cdf565b9695946202b0a0565b5050509150915090565b6202b12c93945051015162004d46565b5101516202b13f620169f0855162004cef565b511015828838806202b0f2565b5050506202b0a6565b5060009450505050565b60405162461bcd60e51b815260048101839052603260248201527f43452049445f3337323a205468652055494e545f3235365f324441525241595b60448201526000805160206203374c8339815191526064820152608490fd5b60405162461bcd60e51b815260048101839052602f60248201527f43452049445f3337323a205468652055494e545f3235365f3244415252415920604482015260008051602062033a0c8339815191526064820152608490fd5b9060200160019182825151036202b36457826202b231835162004cef565b5151036202b306576020810151602681101562002a2357601303620065c75782916000935b6202b2645750505050600090565b6040808301908082510151518610156201e54057906000855b6202b299575b5050506202b292839462004cdf565b936202b256565b6202b2a987848451015162004d46565b5151518110156202b300576202b2d1816202b2c989868651015162004d46565b515162004d46565b516202b2e26200680d865162004cef565b511462023bcd57906202b2f786939262004cdf565b9091926202b27d565b6202b283565b60405162461bcd60e51b815260206004820152603060248201527f43452049445f3337333a2054686520535452494e475f324441525241595b305d60448201526f206c656e677468206973206e6f74203160801b6064820152608490fd5b60405162461bcd60e51b815260206004820152602d60248201527f43452049445f3337333a2054686520535452494e475f32444152524159206c6560448201526c6e677468206973206e6f74203160981b6064820152608490fd5b6020908181018051602681101562002a2357600d149081156202b4da575b506202b3ff5750506040516202b3f38162002b3f565b60008152600036813790565b6040019160a0916202b4216202b419848651015162004cef565b515162004e62565b93600092835b6202b436868451015162004cef565b51518110156202b493576202b45081858551015162004d46565b516202b46e575b6202b4666202b4369162004cdf565b90506202b427565b936202b4666202b489828762001ac76202b436958c62004d46565b959150506202b457565b50935050506202b4a38162004e62565b9060005b8181106202b4b6575090925050565b806202b4c76202b4d4928762004d46565b5162001ac7828662004d46565b6202b4a7565b905051602681101562002a2357600e14386202b3dd565b9161025981146202b86d5761025a81146202b77d5761025b81146202b68d5761025c81146202b5775761025d81146202b56b5761025e81146202b55f5761025f81146202b55357610260146202b548575050600090565b620032d2916202bd2b565b50620032d2916202bbb1565b50620032d2916202baa0565b50620032d2916202b95d565b50602001906001825151036202b6335760026202b595835162004cef565b5151036202b5d957602001908151516202b5b46200680d835162004cef565b51111591826202b5c357505090565b620169f7919250620169f0905151925162004cef565b60405162461bcd60e51b815260206004820152603160248201527f43452049445f3630343a205468652055494e543235365f324441525241595b306044820152600080516020620339ac8339815191526064820152608490fd5b60405162461bcd60e51b815260206004820152602e60248201527f43452049445f3630343a205468652055494e543235365f32444152524159206c6044820152600080516020620338ac8339815191526064820152608490fd5b50602001906001825151036202b7235760016202b6ab835162004cef565b5151036202b6c9576200680d602062016afb92015151925162004cef565b60405162461bcd60e51b815260206004820152603160248201527f43452049445f3630333a205468652055494e543235365f324441525241595b3060448201526000805160206203384c8339815191526064820152608490fd5b60405162461bcd60e51b815260206004820152602e60248201527f43452049445f3630333a205468652055494e543235365f32444152524159206c6044820152600080516020620338ac8339815191526064820152608490fd5b50602001906001825151036202b8135760016202b79b835162004cef565b5151036202b7b9576200680d6020620168cd92015151925162004cef565b60405162461bcd60e51b815260206004820152603160248201527f43452049445f3630323a205468652055494e543235365f324441525241595b3060448201526000805160206203384c8339815191526064820152608490fd5b60405162461bcd60e51b815260206004820152602e60248201527f43452049445f3630323a205468652055494e543235365f32444152524159206c6044820152600080516020620338ac8339815191526064820152608490fd5b50602001906001825151036202b9035760016202b88b835162004cef565b5151036202b8a9576200680d6020620167cc92015151925162004cef565b60405162461bcd60e51b815260206004820152603160248201527f43452049445f3630313a205468652055494e543235365f324441525241595b3060448201526000805160206203384c8339815191526064820152608490fd5b60405162461bcd60e51b815260206004820152602e60248201527f43452049445f3630313a205468652055494e543235365f32444152524159206c6044820152600080516020620338ac8339815191526064820152608490fd5b919091602080930160019182825151036202ba4657826202b97f835162004cef565b5151036202b9ec57938293946000935b6202b99e575050505050600090565b818101519384518110156202a90b576202b9c3620076a184620067a7848a9962004d46565b6202b9d36200680d865162004cef565b5114620174c1576202b9e59062004cdf565b936202b98f565b60405162461bcd60e51b815260048101869052603160248201527f43452049445f3630353a205468652055494e543235365f324441525241595b3060448201526000805160206203384c8339815191526064820152608490fd5b60405162461bcd60e51b815260048101869052602e60248201527f43452049445f3630353a205468652055494e543235365f32444152524159206c6044820152600080516020620338ac8339815191526064820152608490fd5b919060208091019060019182815151036202bb57578293946000945b6202bacb575050505050600090565b8281018051518610156202a90b576000855b6202baf8575b50506202baf1849562004cdf565b946202babc565b6202bb04845162004cef565b51518110156202bb51576202bb24620076a186620067a78a865162004d46565b6202bb35826200743f875162004cef565b511462023bcd57906202bb49869262004cdf565b90916202badd565b6202bae3565b60405162461bcd60e51b815260048101839052602e60248201527f43452049445f3630363a205468652055494e543235365f32444152524159206c6044820152600080516020620338ac8339815191526064820152608490fd5b91909160208093019060019182815151036202bcd157846202bbd4825162004cef565b5151920191825151036202bc565782939460009283955b6202bbfa575b50505050905090565b805180518710156202bc4f57620076a183620067a7896202bc1b9462004d46565b6202bc2c876200743f865162004cef565b51036202bc46576202bc3f859662004cdf565b956202bbeb565b50505091505090565b506202bbf1565b60405162461bcd60e51b815260048101869052604760248201527f43452049445f3630373a205468652055494e543235365f324441525241595b3060448201527f5d206c656e677468206973206e6f7420657175616c20746f2070726f6772616d606482015266040d8cadccee8d60cb1b608482015260a490fd5b60405162461bcd60e51b815260048101869052602e60248201527f43452049445f3630373a205468652055494e543235365f32444152524159206c6044820152600080516020620338ac8339815191526064820152608490fd5b919060208091019060019182815151036202bdfb578293946000935b6202bd53575050505090565b8281018051518510156202bdf457856000918183905b6202bd8b575b5050501562016f9a576202bd84859462004cdf565b936202bd47565b6202bd97865162004cef565b51518110156202bdee576202bdb7620076a188620067a78b865162004d46565b6202bdc8826200743f895162004cef565b51146202bde1576202bdda9062004cdf565b826202bd69565b505090508538806202bd6f565b6202bd6f565b50620051c4565b60405162461bcd60e51b815260048101839052602e60248201527f43452049445f3630383a205468652055494e543235365f32444152524159206c6044820152600080516020620338ac8339815191526064820152608490fd5b916101cd81146202bea7576101ce81146202be9b576101cf81146202be8f576101d0146202be84575050600090565b620032d2916202c4b5565b50620032d2916202c293565b50620032d2916202c0a0565b50620032d2919060200160019182825151036202c0465760026202becc835162004cef565b5151036202bfec576202bedf816202c6a8565b15620065c7576202bef0906202c705565b9180939150518251036202bf8157600092845b6202bf12575050505050600090565b8051841015620174c957836202bf2a86958362004d46565b516202bf3b6200680d855162004cef565b5114806202bf5b575b620174c1576202bf549062004cdf565b936202bf03565b506202bf68818562004d46565b516202bf79620169f0855162004cef565b51106202bf44565b60405162461bcd60e51b815260206004820152604860248201527f43452049445f3436313a2054686520746f6b656e20636c617373206c6973742060448201526000805160206203382c8339815191526064820152670e840d8cadccee8d60c31b608482015260a490fd5b60405162461bcd60e51b815260206004820152603160248201527f43452049445f3436313a205468652055494e543235365f324441525241595b3060448201526000805160206203384c8339815191526064820152608490fd5b60405162461bcd60e51b815260206004820152602e60248201527f43452049445f3436313a205468652055494e543235365f32444152524159206c6044820152600080516020620338ac8339815191526064820152608490fd5b9060200160019182825151036202c2395760026202c0bf835162004cef565b5151036202c1df576202c0d2816202c6a8565b15620065c7576202c0e3906202c705565b9180939150518251036202c17457600092845b6202c105575050505050600090565b8051841015620174c957836202c11d86958362004d46565b516202c12e6200680d855162004cef565b5114806202c14e575b620174c1576202c1479062004cdf565b936202c0f6565b506202c15b818562004d46565b516202c16c620169f0855162004cef565b51116202c137565b60405162461bcd60e51b815260206004820152604860248201527f43452049445f3436323a2054686520746f6b656e20636c617373206c6973742060448201526000805160206203382c8339815191526064820152670e840d8cadccee8d60c31b608482015260a490fd5b60405162461bcd60e51b815260206004820152603160248201527f43452049445f3436323a205468652055494e543235365f324441525241595b3060448201526000805160206203384c8339815191526064820152608490fd5b60405162461bcd60e51b815260206004820152602e60248201527f43452049445f3436323a205468652055494e543235365f32444152524159206c6044820152600080516020620338ac8339815191526064820152608490fd5b9060200160019182825151036202c45b5760036202c2b2835162004cef565b5151036202c401576202c2c5816202c6a8565b15620065c7576202c2d6906202c705565b9180939150518251036202c39657600092845b6202c2f8575050505050600090565b8051841015620174c957836202c31086958362004d46565b516202c3216200680d855162004cef565b5114806202c36f575b806202c348575b620174c1576202c3419062004cdf565b936202c2e9565b506202c355818562004d46565b516202c3666201d46a855162004cef565b5110156202c331565b506202c37c818562004d46565b516202c38d620169f0855162004cef565b5111156202c32a565b60405162461bcd60e51b815260206004820152604860248201527f43452049445f3436333a2054686520746f6b656e20636c617373206c6973742060448201526000805160206203382c8339815191526064820152670e840d8cadccee8d60c31b608482015260a490fd5b60405162461bcd60e51b815260206004820152603160248201527f43452049445f3436333a205468652055494e543235365f324441525241595b3060448201526000805160206203384c8339815191526064820152608490fd5b60405162461bcd60e51b815260206004820152602e60248201527f43452049445f3436333a205468652055494e543235365f32444152524159206c6044820152600080516020620338ac8339815191526064820152608490fd5b9060200160019182825151036202c64e5760026202c4d4835162004cef565b5151036202c5f4576202c4e7816202c6a8565b15620065c7576202c4f8906202c705565b9180939150518251036202c58957600092845b6202c51a575050505050600090565b8051841015620174c957836202c53286958362004d46565b516202c5436200680d855162004cef565b5114806202c563575b620174c1576202c55c9062004cdf565b936202c50b565b506202c570818562004d46565b516202c581620169f0855162004cef565b51146202c54c565b60405162461bcd60e51b815260206004820152604860248201527f43452049445f3436343a2054686520746f6b656e20636c617373206c6973742060448201526000805160206203382c8339815191526064820152670e840d8cadccee8d60c31b608482015260a490fd5b60405162461bcd60e51b815260206004820152603160248201527f43452049445f3436343a205468652055494e543235365f324441525241595b3060448201526000805160206203384c8339815191526064820152608490fd5b60405162461bcd60e51b815260206004820152602e60248201527f43452049445f3436343a205468652055494e543235365f32444152524159206c6044820152600080516020620338ac8339815191526064820152608490fd5b6020018051602681101562002a23576014149081156202c6ed575b81156202c6d6575b506202401c57600090565b905051602681101562002a2357601e14386202c6cb565b80915051602681101562002a2357601514906202c6c3565b6202c710816202c6a8565b156202c81657602081018051602681101562002a23576014146202c801578051602681101562002a23576015146202c7ca5751602681101562002a2357601e146202c79857506040516202c7648162002b3f565b60008152604051916202c7778362002b3f565b60008352604051916202c78a8362002b3f565b600083526000368137929190565b604001906202c7ac60a08351015162004cef565b51906202c7c360a062007446818651015162004d13565b5191929190565b50604001906202c7df60a08351015162004cef565b51906202c7c360a06202c7f6818651015162004d24565b519451015162004d35565b50604001906202c7ac60a08351015162004cef565b60405162461bcd60e51b815260206004820152606860248201527f43452049445f3436313a20546865206f7065726174696f6e206973206e6f742060448201527f746f6b656e206f7065726174696f6e20776974682063617368287061792d746f60648201527f2d6d696e742c207061792d746f2d7472616e736665722c206275726e2d616e646084820152672d726566756e642960c01b60a482015260c490fd5b916101af81146202c962576101b081146202c956576101b181146202c94a576101b281146202c93e576101b381146202c932576101b481146202c926576101b581146202c91a576101b6146202c90f575050600090565b620032d2916202d3ab565b50620032d2916202d206565b50620032d2916202d0a1565b50620032d2916202cf3c565b50620032d2916202cdd7565b50620032d2916202cc32565b50620032d2916202cacd565b50620032d291906020019060019182815151036202ca7357826202c987825162004cef565b5151036202ca19576020820151602681101562002a2357601103620065c757600091835b6202c9b95750505050600090565b604081019260a0936202c9d0858251015162004cef565b51518210156201e54057816200743f87966202c9ef9351015162004cef565b516202ca006200680d855162004cef565b5110620051c4576202ca129062004cdf565b926202c9ab565b60405162461bcd60e51b815260206004820152603160248201527f43452049445f3433313a205468652055494e543235365f324441525241595b3060448201526000805160206203384c8339815191526064820152608490fd5b60405162461bcd60e51b815260206004820152602e60248201527f43452049445f3433313a205468652055494e543235365f32444152524159206c6044820152600080516020620338ac8339815191526064820152608490fd5b906020019060019182815151036202cbd857826202caec825162004cef565b5151036202cb7e576020820151602681101562002a2357601103620065c757600091835b6202cb1e5750505050600090565b604081019260a0936202cb35858251015162004cef565b51518210156201e54057816200743f87966202cb549351015162004cef565b516202cb656200680d855162004cef565b5111620051c4576202cb779062004cdf565b926202cb10565b60405162461bcd60e51b815260206004820152603160248201527f43452049445f3433323a205468652055494e543235365f324441525241595b3060448201526000805160206203384c8339815191526064820152608490fd5b60405162461bcd60e51b815260206004820152602e60248201527f43452049445f3433323a205468652055494e543235365f32444152524159206c6044820152600080516020620338ac8339815191526064820152608490fd5b906020019060019182815151036202cd7d5760026202cc52825162004cef565b5151036202cd23576020820151602681101562002a2357601103620065c757600091835b6202cc845750505050600090565b604081019260a0936202cc9b858251015162004cef565b51518210156201e5405781856202ccbc826200743f8a998651015162004cef565b516202cccd6200680d885162004cef565b51111592836202ccf2575b505050620051c4576202cceb9062004cdf565b926202cc76565b5101516202cd0692506200743f9062004cef565b516202cd17620169f0855162004cef565b5110158138806202ccd8565b60405162461bcd60e51b815260206004820152603160248201527f43452049445f3433333a205468652055494e543235365f324441525241595b306044820152600080516020620339ac8339815191526064820152608490fd5b60405162461bcd60e51b815260206004820152602e60248201527f43452049445f3433333a205468652055494e543235365f32444152524159206c6044820152600080516020620338ac8339815191526064820152608490fd5b906020019060019182815151036202cee257826202cdf6825162004cef565b5151036202ce88576020820151602681101562002a2357601103620065c757600091835b6202ce285750505050600090565b604081019260a0936202ce3f858251015162004cef565b51518210156201e54057816200743f87966202ce5e9351015162004cef565b516202ce6f6200680d855162004cef565b5114620051c4576202ce819062004cdf565b926202ce1a565b60405162461bcd60e51b815260206004820152603160248201527f43452049445f3433343a205468652055494e543235365f324441525241595b3060448201526000805160206203384c8339815191526064820152608490fd5b60405162461bcd60e51b815260206004820152602e60248201527f43452049445f3433343a205468652055494e543235365f32444152524159206c6044820152600080516020620338ac8339815191526064820152608490fd5b906020019060019182815151036202d04757826202cf5b825162004cef565b5151036202cfed576020820151602681101562002a2357601203620065c757600091835b6202cf8d5750505050600090565b604081019260a0936202cfa4858251015162004cef565b51518210156201e54057816200743f87966202cfc39351015162004cef565b516202cfd46200680d855162004cef565b5110620051c4576202cfe69062004cdf565b926202cf7f565b60405162461bcd60e51b815260206004820152603160248201527f43452049445f3433353a205468652055494e543235365f324441525241595b3060448201526000805160206203384c8339815191526064820152608490fd5b60405162461bcd60e51b815260206004820152602e60248201527f43452049445f3433353a205468652055494e543235365f32444152524159206c6044820152600080516020620338ac8339815191526064820152608490fd5b906020019060019182815151036202d1ac57826202d0c0825162004cef565b5151036202d152576020820151602681101562002a2357601203620065c757600091835b6202d0f25750505050600090565b604081019260a0936202d109858251015162004cef565b51518210156201e54057816200743f87966202d1289351015162004cef565b516202d1396200680d855162004cef565b5111620051c4576202d14b9062004cdf565b926202d0e4565b60405162461bcd60e51b815260206004820152603160248201527f43452049445f3433363a205468652055494e543235365f324441525241595b3060448201526000805160206203384c8339815191526064820152608490fd5b60405162461bcd60e51b815260206004820152602e60248201527f43452049445f3433363a205468652055494e543235365f32444152524159206c6044820152600080516020620338ac8339815191526064820152608490fd5b906020019060019182815151036202d3515760026202d226825162004cef565b5151036202d2f7576020820151602681101562002a2357601203620065c757600091835b6202d2585750505050600090565b604081019260a0936202d26f858251015162004cef565b51518210156201e5405781856202d290826200743f8a998651015162004cef565b516202d2a16200680d885162004cef565b51111592836202d2c6575b505050620051c4576202d2bf9062004cdf565b926202d24a565b5101516202d2da92506200743f9062004cef565b516202d2eb620169f0855162004cef565b5110158138806202d2ac565b60405162461bcd60e51b815260206004820152603160248201527f43452049445f3433373a205468652055494e543235365f324441525241595b306044820152600080516020620339ac8339815191526064820152608490fd5b60405162461bcd60e51b815260206004820152602e60248201527f43452049445f3433373a205468652055494e543235365f32444152524159206c6044820152600080516020620338ac8339815191526064820152608490fd5b906020019060019182815151036202d4b657826202d3ca825162004cef565b5151036202d45c576020820151602681101562002a2357601203620065c757600091835b6202d3fc5750505050600090565b604081019260a0936202d413858251015162004cef565b51518210156201e54057816200743f87966202d4329351015162004cef565b516202d4436200680d855162004cef565b5114620051c4576202d4559062004cdf565b926202d3ee565b60405162461bcd60e51b815260206004820152603160248201527f43452049445f3433383a205468652055494e543235365f324441525241595b3060448201526000805160206203384c8339815191526064820152608490fd5b60405162461bcd60e51b815260206004820152602e60248201527f43452049445f3433383a205468652055494e543235365f32444152524159206c6044820152600080516020620338ac8339815191526064820152608490fd5b156202d51857565b60405162461bcd60e51b815260206004820152601c60248201527b496e76616c6964206e756d626572206f6620706172616d657465727360201b6044820152606490fd5b6202d5678162002fc4565b6202d5756200e52e620332ea565b6202d5808162002fc4565b600181036202d59e57506202d5986200e55a620332ea565b611faf55565b6202d5a98162002fc4565b600281036202d5b95750611fb055565b6202d5c48162002fc4565b600381036202d5d45750611fb155565b806202d5e260049262002fc4565b146202d5eb5750565b611fb255565b60609060208152601e60208201527f496e76616c69642072657475726e20747970653a20554e444546494e4544000060408201520190565b7f496e76616c69642061667465722d6f7020706c7567696e206c6576656c2e204c815264032bb32b6160dd1b602082015260250190565b7f496e76616c6964206265666f72652d6f7020706c7567696e206c6576656c2e2081526502632bb32b6160d51b602082015260260190565b9060005b8251811015620115b15760c06202d6b4828562004d46565b510151156202da6b576202d6cd6202abe1828562004d46565b60068082101562002a235760049182036202d818575060209060016003836202d6f7868962004d46565b51015106036202d7145750506202d70e9062004cdf565b6202d69c565b62004cdb82846202d7fd60636202d7456202d73e856202d735868e62004d46565b510151620050f5565b93620050f5565b92847f20697320776974682072657475726e2074797065205945535f414e445f534b4960409586519788946202d78162004db08388016202d660565b016000805160206203388c83398151915281526202d7aa82518093601396878501910162002e01565b01918201527f505f53414e44424f582c2073686f756c64206265206f6e206c6576656c205b3160338201526f2c20342c20372c2031302c202e2e2e5d60801b605382015203604381018552018362002b94565b5193849362461bcd60e51b8552840152602483019062002e26565b6202d8286202abe1848762004d46565b818110156201e0f6576001036202d938575060209060026003836202d84e868962004d46565b51015106036202d8655750506202d70e9062004cdf565b62004cdb82846202d7fd605d6202d8866202d73e856202d735868e62004d46565b92847f20697320776974682072657475726e20747970652053414e44424f585f4e454560409586519788946202d8c262004db08388016202d660565b016000805160206203388c83398151915281526202d8eb82518093601396878501910162002e01565b01918201527f4445442c2073686f756c64206265206f6e206c6576656c205b322c20352c20386033820152692c2031312c202e2e2e5d60b01b605382015203603d81018552018362002b94565b6202d9486202abe1848762004d46565b9081101562015501576002036202da4f576020906003826202d96b858862004d46565b510151066202d9815750506202d70e9062004cdf565b62004cdb82846202d7fd6202d9a76202d9a0846202d735858d62004d46565b92620050f5565b916202da4060409384519586936202d9c562004db08387016202d660565b016000805160206203388c83398151915281528151906202d9ef826013948d868501910162002e01565b01017f20697320776974682072657475726e2074797065204e4f2c2073686f756c642081527f6265206f6e206c6576656c205b332c20362c20392c2031322c202e2e2e5d00006020820152603e0190565b03601f19810184528362002b94565b60405162461bcd60e51b815290819062004cdb9082016202d5f1565b6202da7b6202abe1828562004d46565b6006908181101562002a23576005036202db965750602060016003826202daa3858862004d46565b51015106036202dab957506202d70e9062004cdf565b62004cdb826202db7960526202dada6202d73e866202d73581998c62004d46565b926040937f20697320776974682072657475726e2074797065205945532c2073686f756c6485519889936202db1562004db08387016202d629565b016000805160206203388c83398151915281528251906202db3f826013958c878501910162002e01565b01918201527f206265206f6e206c6576656c205b312c20342c20372c2031302c202e2e2e5d00603382015203603281018752018562002b94565b5192839262461bcd60e51b84526004840152602483019062002e26565b6202dba66202abe1838662004d46565b908082101562002a235760039182036202dcb557506002602091826202dbcd858862004d46565b51015106036202dbe357506202d70e9062004cdf565b62004cdb826202db79605c6202dc046202d73e866202d73581998c62004d46565b926040937f20697320776974682072657475726e207479706520564f54494e475f4e45454485519889936202dc3f62004db08387016202d629565b016000805160206203388c83398151915281528251906202dc69826013958c878501910162002e01565b01918201527f45442c2073686f756c64206265206f6e206c6576656c205b322c20352c20382c6033820152682031312c202e2e2e5d60b81b605382015203603c81018752018562002b94565b6202dcc56202abe1848762004d46565b9081101562002a23576002036202dd7157602090816202dce6848762004d46565b510151066202dcfb57506202d70e9062004cdf565b62004cdb826202db796202dd1a6202d9a0856202d73581988b62004d46565b916202dd6260409384519788936202dd3862004db08387016202d629565b016000805160206203388c83398151915281528151906202d9ef826013948b868501910162002e01565b03601f19810186528562002b94565b60405162461bcd60e51b81528062004cdb600482016202d5f1565b156202dd9457565b60405162461bcd60e51b815260206004820152604d60248201527f546865206c656e677468206f662074686520706c7567696e20696e646578657360448201527f20617272617920616e642074686520626f6f6c65616e206172726179206d757360648201526c74206265207468652073616d6560981b608482015260a490fd5b156202de1d57565b60405162461bcd60e51b815260206004820152602260248201527f496e76616c696420706c7567696e20696e64657820746f20626520656e61626c604482015261195960f21b6064820152608490fd5b156202de7557565b60405162461bcd60e51b815260206004820152602b60248201527f54686520706c7567696e20746f20626520656e61626c656420697320616c726560448201526a18591e48195b98589b195960aa1b6064820152608490fd5b156202ded657565b60405162461bcd60e51b815260206004820152602360248201527f496e76616c696420706c7567696e20696e64657820746f2062652064697361626044820152621b195960ea1b6064820152608490fd5b156202df2f57565b60405162461bcd60e51b815260206004820152602d60248201527f54686520706c7567696e20746f2062652064697361626c656420697320616c7260448201526c1958591e48191a5cd8589b1959609a1b6064820152608490fd5b156202df9257565b60405162461bcd60e51b815260206004820152603060248201527f546865206c656e677468206f662074617267657420616e6420746f6b656e436c60448201526f185cdcc81a5cc81b9bdd08195c5d585b60821b6064820152608490fd5b156202dff857565b60405162461bcd60e51b815260206004820152602c60248201527f546865206c656e677468206f662074617267657420616e6420616d6f756e742060448201526b1a5cc81b9bdd08195c5d585b60a21b6064820152608490fd5b156202e05a57565b60405162461bcd60e51b815260206004820152602260248201527f54686520746f6b656e20636c617373206973206e6f7420696e697469616c697a604482015261195960f21b6064820152608490fd5b156202e0b257565b60405162461bcd60e51b815260206004820152602960248201527f54686520746f74616c20737570706c79206f662074686520746f6b656e206973604482015268206f766572666c6f7760b81b6064820152608490fd5b156202e11157565b60405162461bcd60e51b8152602060048201526024808201527f5468652062616c616e6365206f662074686520746f6b656e206973206f766572604482015263666c6f7760e01b6064820152608490fd5b156202e16a57565b606460405162461bcd60e51b815260206004820152602060248201527f54686520746f6b656e20697320616c726561647920696e697469616c697a65646044820152fd5b60408101906202e1c360c08351015162004cef565b51916202e1e560a06202e1da818451015162004cef565b519251015162004d13565b51936202e1fa845183511462000fa3620331b7565b6202e20d845186511462000fa3620331b7565b60005b84518110156202e26a576202e226818462004d46565b51906103e882101562004cfd576202e2649160018060a01b03865116600052600390811b0160205262000faa60406000205462007ce9838a62004d46565b6202e210565b5092919360005b83518110156202e395576202e287818462004d46565b51906103e8918281101562004cfd5760018060a01b03908189511660005260039081602091811b0181526202e2c760406000205462007d56868962004d46565b906202e2d4868a62004d46565b51918783101562004cfd57846202e30193878f5116600052811b01845260406000205562000fa3620332bb565b6202e30d848862004d46565b518581101562004cfd578290846202e326878c62004d46565b5116600052811b0181526202e34660406000205462006814868962004d46565b9190926202e355868a62004d46565b519687101562004cfd576202e38f9662000faa956202e375888d62004d46565b5116600052811b01905260406000205562000fa362033320565b6202e271565b5050620121cd6202e3a69162032f53565b90604051936202e3b68562002b78565b60018552602036818701376001600160a01b03610ba08190529051166202e3dd8562004cef565b526000935b81518510156202e700576202e3f8858362004d46565b51946202e406845162004e62565b916000936202e416825162004e62565b610b80528496855b87518110156202e4bf576202e445610ba0516202e43c838b62004d46565b51168b62032d3b565b15806202e487575b6202e464575b6202e45e9062004cdf565b6202e41e565b956202e47e6202e45e91610ba0516200a36b8a8c62004d46565b9690506202e453565b506103e88a101562004cfd57610ba0516202e4a3828a62004d46565b511660005260038a811b0160205260406000205415156202e44d565b509793929096949195976000986103e88610159560031b9860038a019a5b89518110156202e559578762004cfd57610ba0516202e4fd828c62004d46565b51166000528b602052604060002054156202e524575b6202e51e9062004cdf565b6202e4dd565b976202e5506202e51e918b6202e53f8c610ba0519262004d46565b511662001ac782610b805162004d46565b9890506202e513565b5094959193965098509690959680610b405262004cfd5760040180610b005254956202e58a62008068868962006200565b610b605260009788610b20525b610b405162004cfd57610b2051888110156202e635576202e5c66202e5dc916000610b4052610b005162004f5e565b610ba05191549060031b1c16610b805162032dea565b156202e5fb575b6202e5f1610b205162004cdf565b610b20526202e597565b976202e62e906202e613610b2051610b005162004f5e565b610ba05191549060031b1c1662001ac782610b605162004d46565b976202e5e3565b5095939096509690969391936000915b8383106202e6cf5750505050610b405162004cfd57610b6051516001600160401b03811162002a9b576202e67d81610b00516200509a565b6020610b605101610b005160005260206000206000610ba051905b8481106202e6b85750505050506202e6b09062004cdf565b93926202e3e2565b60019060208386511695019481850155016202e698565b620081fe6202e6f991610ba0516202e6e8868662004d46565b511662001ac782610b605162004d46565b916202e645565b5050509050565b60408101906202e71c60c08351015162004cef565b51916202e73360a06202e1da818451015162004cef565b51936202e748845183511462000fa3620331b7565b6202e75b845186511462000fa3620331b7565b60005b84518110156202e7b8576202e774818462004d46565b51906103e882101562004cfd576202e7b29160018060a01b03865116600052600390811b0160205262000faa60406000205462007ce9838a62004d46565b6202e75e565b5092919360005b83518110156202e8c9576202e7d5818462004d46565b51906103e8918281101562004cfd5760018060a01b03908189511660005260039081602091811b0181526202e81560406000205462007d56868962004d46565b906202e822868a62004d46565b51918783101562004cfd57846202e84f93878f5116600052811b01845260406000205562000fa3620332bb565b6202e85b848862004d46565b518581101562004cfd578290846202e874878c62004d46565b5116600052811b0181526202e89460406000205462006814868962004d46565b9190926202e8a3868a62004d46565b519687101562004cfd576202e8c39662000faa956202e375888d62004d46565b6202e7bf565b5050620121cd6202e8da9162032f53565b90604051936202e8ea8562002b78565b60018552602036818701376001600160a01b03610b008190529051166202e9118562004cef565b526000935b81518510156202e700576202e92c858362004d46565b51946202e93a845162004e62565b916000936202e94a825162004e62565b610b60528496855b87518110156202e9ea576202e970610b00516202e43c838b62004d46565b15806202e9b2575b6202e98f575b6202e9899062004cdf565b6202e952565b956202e9a96202e98991610b00516200a36b8a8c62004d46565b9690506202e97e565b506103e88a101562004cfd57610b00516202e9ce828a62004d46565b511660005260038a811b0160205260406000205415156202e978565b509793929096949195976000986103e88610159560031b9860038a019a5b89518110156202ea73578762004cfd57610b00516202ea28828c62004d46565b51166000528b602052604060002054156202ea4f575b6202ea499062004cdf565b6202ea08565b976202ea6a6202ea49918b6202e6e88c610b00519262004d46565b9890506202ea3e565b5094959193965098509690959680610ba05262004cfd5760040180610b405254956202eaa462008068868962006200565b610b205260009788610b80525b610ba05162004cfd57610b8051888110156202eb4f576202eae06202eaf6916000610ba052610b405162004f5e565b610b005191549060031b1c16610b605162032dea565b156202eb15575b6202eb0b610b805162004cdf565b610b80526202eab1565b976202eb48906202eb2d610b8051610b405162004f5e565b610b005191549060031b1c1662001ac782610b205162004d46565b976202eafd565b5095939096509690969391936000915b8383106202ebe95750505050610ba05162004cfd57610b2051516001600160401b03811162002a9b576202eb9781610b40516200509a565b6020610b205101610b405160005260206000206000610b0051905b8481106202ebd25750505050506202ebca9062004cdf565b93926202e916565b60019060208386511695019481850155016202ebb2565b620081fe6202ec1391610b00516202ec02868662004d46565b511662001ac782610b205162004d46565b916202eb5f565b9060408201916202ec3560a06200779b818651015162004cef565b519280518451036200ad0a5760005b81518110156202ec9e576202ec5a818362004d46565b51906103e882101562004cfd576202ec989160018060a01b03855116600052600390811b0160205262000faa60406000205462007ce9838962004d46565b6202ec44565b5060005b81518110156202ed3c576202ecb8818362004d46565b51906103e8918281101562004cfd5760018060a01b03908186511660005260039081602091811b0181526202ecf860406000205462007d56868c62004d46565b9190926202ed07868962004d46565b519687101562004cfd576202ed369662000faa958a5116600052811b01905260406000205562000fa3620332bb565b6202eca2565b506202ed4a91935062032f53565b604051926202ed598462002b78565b60018452602036818601376001600160a01b03610b008190529051166202ed808462004cef565b52604051906202ed908262002b3f565b6000825260003681376000935b81518510156202e700576202edb3858362004d46565b51946202edc1845162004e62565b916000936202edd1825162004e62565b610b60528496855b87518110156202ee71576202edf7610b00516202e43c838b62004d46565b15806202ee39575b6202ee16575b6202ee109062004cdf565b6202edd9565b956202ee306202ee1091610b00516200a36b8a8c62004d46565b9690506202ee05565b506103e88a101562004cfd57610b00516202ee55828a62004d46565b511660005260038a811b0160205260406000205415156202edff565b509793929096949195976000986103e88610159560031b9860038a019a5b89518110156202eefa578762004cfd57610b00516202eeaf828c62004d46565b51166000528b602052604060002054156202eed6575b6202eed09062004cdf565b6202ee8f565b976202eef16202eed0918b6202e6e88c610b00519262004d46565b9890506202eec5565b5094959193965098509690959680610ba05262004cfd5760040180610b205254956202ef2b62008068868962006200565b610b805260009788610b40525b610ba05162004cfd57610b4051888110156202efc0576202eae06202ef67916000610ba052610b205162004f5e565b156202ef86575b6202ef7c610b405162004cdf565b610b40526202ef38565b976202efb9906202ef9e610b4051610b205162004f5e565b610b005191549060031b1c1662001ac782610b805162004d46565b976202ef6e565b5095939096509690969391936000915b8383106202f05a5750505050610ba05162004cfd57610b8051516001600160401b03811162002a9b576202f00881610b20516200509a565b6020610b805101610b205160005260206000206000610b0051905b8481106202f0435750505050506202f03b9062004cdf565b93926202ed9d565b60019060208386511695019481850155016202f023565b620081fe6202f07391610b00516202e53f868662004d46565b916202efd0565b156202f08257565b60405162461bcd60e51b815260206004820152601d60248201527f54686520726566756e6420616d6f756e74206973206f766572666c6f770000006044820152606490fd5b156202f0cf57565b60405162461bcd60e51b815260206004820152602360248201527f54686520746f74616c20726566756e6420616d6f756e74206973206f766572666044820152626c6f7760e81b6064820152608490fd5b156202f12857565b60405162461bcd60e51b815260206004820152602960248201527f54686520746f74616c20776974686472617761626c6520616d6f756e74206973604482015268206f766572666c6f7760b81b6064820152608490fd5b611f44805482101562004cfd576000526007602060002091020190600090565b815180519192916001600160401b03811162002a9b576202f1c181856200509a565b6020809201846000528260002060005b8381106202f238575050505060c08260069262002c3b95940151600185015560408101516002850155606081015160038501556202f2196080820151151560048601620057f2565b6202f22c60a0820151600586016200571f565b015115159101620057f2565b825182820155918401916001016202f1d1565b611f448054600160401b81101562002a9b576202f26e916001820190556202f17f565b91909162005d305762002c3b916202f19f565b611fb4908154600160401b81101562002a9b576001810180845581101562004cfd5762002c3b926000526020600020016200571f565b620069d06202f2c691620074f5565b613f78805480600052613f76908160205260ff60096040600020015460081c16620322fb57613f73600160ff19825416179055600052602052600960406000200161010061ff0019825416179055546000526202f32760406000206200370e565b90600080611f4a54905b818110620322b4575b50501562032298575b60005b60208301519081518110156202f37e5762000faa620076c162011f56620076a16020620067a7866202f3789862004d46565b6202f346565b505060005b602083015180518210156202f3cb57620076a16020620067a7846202f3a89462004d46565b90606482101562004cfd576202f3c5914290611f4b015562004cdf565b6202f383565b50506000905b602083015180518310156200b07257826202f3ec9162004d46565b516020810151602681101562002a2357156200b02f576020810151602681101562002a23576001036202f5fd57604001906202f42d60c08351015162004cef565b51936202f44460a06200779b818651015162004cef565b51916202f45586518551146202df8a565b6202f46486518451146202dff0565b60005b86518110156202f58b576202f47d818662004d46565b516103e881101562004cfd57600160ff60076202f4a39360031b0154161515146202e052565b6202f4af818562004d46565b516202f4bc828762004d46565b51906103e882101562004cfd576202f4de906006809360031b0154906200608f565b6202f4ea848962004d46565b51926103e884101562004cfd576202f5079360031b01556202e0aa565b6202f513818562004d46565b516202f520828762004d46565b51906103e882101562004cfd576202f549916003906001600160a01b0362012148868d62004d46565b91906202f557828862004d46565b51906103e882101562004cfd576202f5859362000faa926003906001600160a01b036201219c878f62004d46565b6202f467565b5094915091620121cd6202f59f9162032f53565b93604051926202f5af8462002b3f565b60008452600036813760005b83518110156202f5e0578062000faa620079626202f5da938762004d46565b6202f5bb565b50945092602092506202f5f4915062004cdf565b9190506202f3d1565b602081949293940151602681101562002a23576002036202f895576040018051928351906202f635620079c260a08097015162004cef565b519382518651036202f8405782518451036202f7ea5782518551036202f7915760005b86518110156202f77b576202f66e818862004d46565b516103e881101562004cfd5760ff60076202f6909260031b015416156202e162565b6202f69c818862004d46565b516103e881101562004cfd5760031b600701805460ff191660011790556202f6c5818562004d46565b516202f6d2828962004d46565b51906103e882101562004cfd5760056202f6f09260031b016200571f565b6202f6fc818662004d46565b516202f709828962004d46565b516103e881101562004cfd5760031b600101556202f728818762004d46565b516202f735828962004d46565b516103e881101562004cfd5760031b600201556202f754818862004d46565b51906103e882101562004cfd57600060066202f7759360031b015562004cdf565b6202f658565b509591509350602092506202f5f4915062004cdf565b60405162461bcd60e51b815260206004820152603c6024820152600080516020620337ec83398151915260448201527b1b911a5d9a59195b9915d95a59da1d081a5cc81b9bdd08195c5d585b60221b6064820152608490fd5b60405162461bcd60e51b81526020600482015260396024820152600080516020620337ec8339815191526044820152781b959bdd1a5b99d41bddd95c881a5cc81b9bdd08195c5d585b603a1b6064820152608490fd5b60405162461bcd60e51b81526020600482015260386024820152600080516020620337ec8339815191526044820152771b925b99195e105c9c985e481a5cc81b9bdd08195c5d585b60421b6064820152608490fd5b602081949392940151602681101562002a23576003036202f8c3576020919262000faa6202f5f4926202e707565b6020810151602681101562002a23576004036202faf95760400160c0936202f8f36200ca5c868451015162004cef565b51906202f90a60a06200779b818651015162004cef565b51936202f91f875184511462000fa3620331b7565b6202f932875185511462000fa3620331b7565b6202f945875186511462000fa3620331b7565b60005b87518110156202f98d576202f95e818662004d46565b51906103e882101562004cfd576202f987916003906001600160a01b03620124d9848d62004d46565b6202f948565b509095919593929360005b83518110156202fab6576202f9ae818762004d46565b516103e881101562004cfd576003906001600160a01b036202f9d1848862004d46565b5116600052811b016020526202f9f260406000205462007d56838862004d46565b906202f9ff838962004d46565b51916103e883101562004cfd576202fa28926003906001600160a01b036201259b878b62004d46565b6202fa34818762004d46565b516103e881101562004cfd576003906001600160a01b036202fa57848c62004d46565b5116600052811b016020526202fa7860406000205462006814838862004d46565b9190506202fa87818862004d46565b51916103e883101562004cfd576202fab0926003906001600160a01b036201263e858e62004d46565b6202f998565b50936202fad091929693506200847962007e479162032f53565b9260005b83518110156202f5e0578062000faa620079626202faf3938762004d46565b6202fad4565b92906020840151602681101562002a2357600503620300585760408401906202fb2c60a06200851e818551015162004cef565b519282518451036200ad0a5760005b83518110156202fb94576202fb51818562004d46565b51906103e882101562004cfd5760036202fb8e9260018060a01b038a5116600052811b0160205262000faa60406000205462007ce9838962004d46565b6202fb3b565b509060005b83518110156202fc37576202fbaf818562004d46565b516103e881101562004cfd5760039060018060a01b03895116600052811b016020526202fbe760406000205462007d56838862004d46565b91906202fbf5828762004d46565b51906103e882101562004cfd576202fc3193600362000faa9360018060a01b038d5116600052811b0160205260406000205562000fa3620332bb565b6202fb99565b50916202fc48919495935062032f53565b92604051926202fc588462002b78565b6001845260203681860137516001600160a01b03166202fc788462004cef565b52604051926202fc888462002b3f565b6000845260003681376000945b805186101562030044576202fcab868262004d46565b516109e0526202fcbc855162004e62565b966000946202fccc845162004e62565b6109005260009460005b88518110156202fd9c578a896202fd066001600160a01b036202fcfa858462004d46565b51166109e05162032d3b565b15806202fd56575b6202fd27575b50506202fd219062004cdf565b6202fcd6565b986202fd4b9162001ac782859c62007f376202fd219760018060a01b039262004d46565b9790508a896202fd14565b5050506103e86109e051101562004cfd576001600160a01b036202fd7b828b62004d46565b511660005260036109e051811b016020528a8960406000205415156202fd0e565b50909895979498969291939660005b88518110156202fe3f576103e86109e051101562004cfd576001600160a01b036202fdd7828b62004d46565b511660005260036109e051811b01602052604060002054156202fe06575b6202fe009062004cdf565b6202fdab565b996202fe00906202fe36906001600160a01b036202fe258e8d62004d46565b511662001ac7826109005162004d46565b9a90506202fdf5565b509850969592919093966109e0516103e881101580610ac05262004cfd5760031b60040154986202fe7562008068898c62006200565b610940526000610ae05260006108e0525b610ac05162004cfd576108e0518a8110156202ff4f576202febb6202fed8916000610ac05260046109e05160031b0162004f5e565b90546109005160039290921b1c6001600160a01b03169062032dea565b156202fef7575b6202feed6108e05162004cdf565b6108e0526202fe86565b6000610ac0526202ff156108e05160046109e05160031b0162004f5e565b60018060a01b0391549060031b1c166202ff36610ae0516109405162004d46565b526202ff45610ae05162004cdf565b610ae0526202fedf565b50979294959093985095909560005b8281106202fff857505050610ac05162004cfd5761094051516001600160401b03811162002a9b576202ff9b8160046109e05160031b016200509a565b6020610940510160046109e05160031b01600052602060002060005b8381106202ffda57505050506202ffce9062004cdf565b9492959091956202fc95565b82516001600160a01b0316818301556020909201916001016202ffb7565b6203003e906001600160a01b0362030011828562004d46565b511662030025610ae0516109405162004d46565b5262030034610ae05162004cdf565b610ae05262004cdf565b6202ff5e565b5050936202f5f49193506020925062004cdf565b90926020810151602681101562002a2357600603620301f0576040016203008460c08251015162004cef565b51936203009b60a06200851e818551015162004cef565b519285518351036200db485785518451036200dafb5760005b8651811015620300f957620300ca818562004d46565b51906103e882101562004cfd57620300f3916003906001600160a01b0362012771848c62004d46565b620300b4565b509060005b86518110156203019a5762030114818562004d46565b516103e881101562004cfd576003906001600160a01b0362030137848b62004d46565b5116600052811b016020526203015860406000205462007d56838862004d46565b919062030166828762004d46565b51906103e882101562004cfd57620301949362000faa926003906001600160a01b036201259b878f62004d46565b620300fe565b509491620301af919350620121cd9062032f53565b9160405194620301bf8662002b3f565b60008652600036813760005b83518110156202f5e0578062000faa62007962620301ea938762004d46565b620301cb565b6020810151602681101562002a23576007036203027657604001926203021b60c08551015162004cef565b51916203022d60a08651015162004cef565b519451519162030245845187511462000fa3620331b7565b60005b84518110156202f5e057620302709062000faa6001600160a01b03806201290f848a62004d46565b62030248565b6020819493940151602681101562002a2357600803620302e45760c06040620302a3920151015162004cef565b519160005b8351811015620302d257620302cc906001600160a01b0380620129f7838862004d46565b620302a8565b509260209192506202f5f49062004cdf565b6020810151602681101562002a23576009036203033d5760c060406203030e920151015162004cef565b519160005b8351811015620302d25762030337906001600160a01b038062012a8b838862004d46565b62030313565b6020810151602681101562002a2357600a03620303c357604001906203036e60a06200df3360c08551015162004cef565b519262030383835185511462000fa3620331b7565b60005b8351811015620303b057620303aa906001600160a01b038062012b27838862004d46565b62030386565b50936202f5f49193506020925062004cdf565b602081949392940151602681101562002a2357600b036203044e5760400192620303f260c08551015162004cef565b51935151916203040a855184511462000fa3620331b7565b60005b85518110156203043b57620304359062000faa6001600160a01b038062012bda848b62004d46565b6203040d565b50935091602091506202f5f49062004cdf565b9091926020820151602681101562002a2357600c036203052b57606060408301510151926203047d846202d698565b60005b8451811015620303b05760c0620304a08260606040880151015162004d46565b51015115620304ed57620304c162008c808260606040880151015162004d46565b611f4254908160001981011162001e0757600562008ca9620304e7936000190162005cba565b62030480565b6203050562008cd38260606040880151015162004d46565b611f4254908160001981011162001e0757600562008ca9620304e7936000190162005c7a565b9291906020810151602681101562002a2357600d0362030594576040019260206203055b60a08651015162004cef565b5194510151916203057085518451146202dd8c565b60005b85518110156203043b578062012d5b6203058e928662004d46565b62030573565b6020819492940151602681101562002a2357600e03620305fd57604001906020620305c460a08451015162004cef565b519251015193620305d983518651146202dd8c565b60005b83518110156203043b578062012e3f620305f7928862004d46565b620305dc565b906020829493940151602681101562002a2357600f03620306db57606060408301510151926203062d846202d698565b60005b8451811015620303b05760c0620306508260606040880151015162004d46565b510151156203069d576203067162008c808260606040880151015162004d46565b611f4254908160001981011162001e0757600562008dd262030697936000190162005cba565b62030630565b620306b562008cd38260606040880151015162004d46565b611f4254908160001981011162001e0757600562008dd262030697936000190162005c7a565b906020819493940151602681101562002a23576010036203074c5760400151906203070f60a0608084015193015162004cef565b519362030724835186511462000fa3620331b7565b60005b83518110156203043b578062000faa6200902b62030746938762004d46565b62030727565b6020819492940151602681101562002a23576011036203096557604001906203078060a06200df3360c08551015162004cef565b51936203079183518651146202d510565b60005b8351811015620307c257620307bc9062000faa6001600160a01b03806201304a848962004d46565b62030794565b50935090620307d19062032e37565b90611f465493620307e86200806884518762006200565b9060009260005b8781106203094a575060005b8551811015620308a2576000805b89811062030853575b50156203082b575b620308259062004cdf565b620307fb565b9362030825906203084a906001600160a01b036200e724888a62004d46565b9490506203081a565b6203085e8162004eb6565b90546001600160a01b0360039290921b1c8116906203087e858b62004d46565b5116146203089757620308919062004cdf565b62030809565b505060013862030812565b509550939250620308b38262004e62565b8051906001600160401b03821162002a9b57602090620308d38362004ff7565b01611f46600052602060002060005b8381106203092c575050505060005b82811062030909575050506202f5f460209162004cdf565b620309269062000faa6001600160a01b03620019fb838662004d46565b620308f1565b82516001600160a01b031681830155602090920191600101620308e2565b936200e8706203095f916200e8528762004eb6565b620307ef565b6020819492940151602681101562002a235760120362030b8857604001906203099960a06200df3360c08551015162004cef565b5193620309aa83518651146202d510565b60005b8351811015620309db57620309d59062000faa6001600160a01b0380620132ac848962004d46565b620309ad565b5093509190620309eb9062032e37565b611f4654620309fa8162004e62565b906000926000915b80831062030aaf5750505062030a188262004e62565b8051906001600160401b03821162002a9b5760209062030a388362004ff7565b01611f46600052602060002060005b83811062030a91575050505060005b82811062030a6e575050506202f5f460209162004cdf565b62030a8b9062000faa6001600160a01b03620019fb838662004d46565b62030a56565b82516001600160a01b03168183015560209092019160010162030a47565b91956000959193959760005b855181101562030b795762030ad08962004eb6565b90546001600160a01b0360039290921b1c81169062030af0838962004d46565b51161462030b095762030b039062004cdf565b62030abb565b509750956001959391955b8062030b48575b1562030b335762030b2c9062004cdf565b9162030a02565b936200e87062030b2c916200e8528762004eb6565b5062030b548162004eb6565b60018060a01b0391549060031b1c16600052611f456020526040600020541562030b1b565b50979690969593919562030b14565b6020810151602681101562002a235760130362030be15760408091015101519260005b845181101562030bd0578062000faa6200959f62030bca938862004d46565b62030bab565b509250906202f5f460209162004cdf565b6020810151602681101562002a235760140362030d8e576040019062030c0c60c08351015162004cef565b519362030c2360a06200779b818651015162004cef565b519162030c3486518551146202df8a565b62030c4386518451146202dff0565b60005b865181101562030d395762030c5c818562004d46565b5162030c69828762004d46565b51906103e882101562004cfd57600662030c899260031b0154906200608f565b9062030c96838862004d46565b51916103e883101562004cfd57600662030cb59360031b01556202e0aa565b62030cc1818562004d46565b5162030cce828762004d46565b51906103e882101562004cfd5762030cf7916003906001600160a01b0362012148868d62004d46565b919062030d05828862004d46565b51906103e882101562004cfd5762030d339362000faa926003906001600160a01b036201219c878f62004d46565b62030c46565b5094915091620121cd62030d4d9162032f53565b936040519262030d5d8462002b3f565b60008452600036813760005b83518110156202f5e0578062000faa6200796262030d88938762004d46565b62030d69565b6020810151602681101562002a235760150362030db8576020919262000faa6202f5f4926202e707565b6020810151602681101562002a235760160362030e145760c0604062030de2920151015162004cef565b519260005b845181101562030bd05762030e0e9062000faa6001600160a01b0362009d36838962004d46565b62030de7565b6020810151602681101562002a235760170362030e715760405162461bcd60e51b81526020600482015260296024820152600080516020620339cc8339815191526044820152683632b6b2b73a32b21760b91b6064820152608490fd5b6020810151602681101562002a235760180362030edb5760c0604062030e9b920151015162004cef565b51611fb6805460ff191660011790559260005b845181101562030bd05762030ed59062000faa6001600160a01b0362009e02838962004d46565b62030eae565b6020819392930151602681101562002a235760190362030fc25760008091604082910160a08082510151805162030f89575b5050519060e08201519162030f316200680d60c060018060a01b0393015162004cef565b511690602083519301915af13d1562030f80573d9062030f518262002f5b565b9162030f61604051938462002b94565b82523d6000602084013e5b156201387a57506202f5f460209162004cdf565b60609062030f6c565b62030f949062004cef565b515162030fa3575b8062030f0d565b8192506200680d9062030fb99251015162004cef565b51903862030f9c565b6020810151602681101562002a2357601a03620310445760a0604062030fec920151015162004cef565b5162030ffc60038251146202d510565b620310078162004cef565b519162031018620139a08362004d13565b51916200f9d5576020926202f5f4926001036200a043576200a023906200a016611fb19182546200608f565b6020810151602681101562002a2357601b036203142f5750919062031074611faf546200225a6200a0b962033044565b50506203108062033108565b506000805b6103e88110620313e3575b50506203109c62006161565b90620310ab613f745462004e62565b906000946000905b6103e8821015620313d7578160031b9260ff60078501541615620311bf57600096600285015415620311a6576000975b62004cfd576004850154881015620311a6576203119f62031198899a62031112620311499b60048a0162004f5e565b60018060a01b0391549060031b1c1680600052600389016020526203113d8b60406000205462005eb0565b9c9062000fa362033108565b6203118c620311706203116460009e60028d01549062005eb0565b919062000fa362033108565b82600052611f476020526200a01660406000209182546200608f565b62001ac7828b62004d46565b9962004cdf565b97620310e3565b92909350620311b791965062004cdf565b9094620310b3565b95969392509350505b620311d38262004e62565b9160009160005b8281106203134157505050611f485491620311fa62008068848462006200565b926000906000905b8082106203132457505060005b8381106203128e5750508251929150506001600160401b03821162002a9b576020906203123c8362004fbc565b01611f48600052602060002060005b8381106203127057505050506202f5f46020916000611fb1556000611fb25562004cdf565b82516001600160a01b0316818301556020909201916001016203124b565b6000805b838110620312dc575b5015620312b4575b620312ae9062004cdf565b6203120f565b90620312ae90620312d3906001600160a01b03620081f0858762004d46565b919050620312a3565b6001600160a01b0380620312f1858862004d46565b51169062031300838a62004d46565b5116146203131957620313139062004cdf565b62031292565b50506001386203129b565b9091620081fe6203133a91620094f58562004e9a565b9062031202565b6000805b8581106203138f575b501562031367575b620313619062004cdf565b620311da565b92620313619062031386906001600160a01b03620081f0878662004d46565b93905062031356565b6001600160a01b0380620313a4858762004d46565b511690620313b3838a62004d46565b511614620313cc57620313c69062004cdf565b62031345565b50506001386203134e565b935050929390620311c8565b8060039594951b9060ff6007830154161562031425576200a4f86200746162000faa946200a4ec6203141c9560026200a4e28762005e1c565b93929362031085565b5093929362031090565b6020810151602681101562002a2357601c036203148c5760405162461bcd60e51b8152602060048201526029602482015260008051602062033acc8339815191526044820152683632b6b2b73a32b21760b91b6064820152608490fd5b6020810151602681101562002a2357601d03620314b2575b506202f5f460209162004cdf565b9290916020840151602681101562002a2357601e0362031bc357604084019060a090620314e3828451015162004cef565b5151620314f4838551015162004d13565b5151036200ade9576203150b828451015162004cef565b51516203151c838551015162004d24565b5151036200ad6d5762031533828451015162004cef565b519462031544838551015162004d13565b5191620315596200a641858751015162004d24565b519585518751036200ad0a5760005b8651811015620315c1576203157e818862004d46565b51906103e882101562004cfd576003620315bb9260018060a01b038d5116600052811b0160205262000faa60406000205462007ce9838c62004d46565b62031568565b5090969192939660005b86518110156203166a57620315e1818862004d46565b516103e881101562004cfd5760039060018060a01b038c5116600052811b016020526203161960406000205462007d56838b62004d46565b919062031627828a62004d46565b51906103e882101562004cfd576203166493600362000faa938f60018060a01b03905116600052811b0160205260406000205562000fa3620332bb565b620315cb565b50939692979550936203167d9062032f53565b96604051966203168d8862002b78565b60018852602036818a013786516001600160a01b0316620316ae8962004cef565b5260405196620316be8862002b3f565b600088526000610a60525b8951610a60519081101562031a6a57620316e4908b62004d46565b51610a4052620316f5885162004e62565b99600097620317058b5162004e62565b6109c05260009760005b8b51811015620317d5578d8c6203173f6001600160a01b0362031733858462004d46565b5116610a405162032d3b565b15806203178f575b62031760575b50506203175a9062004cdf565b6203170f565b9b620317849162001ac782859f62007f376203175a9760018060a01b039262004d46565b9a90508d8c6203174d565b5050506103e8610a4051101562004cfd576001600160a01b03620317b4828e62004d46565b51166000526003610a4051811b016020528d8c604060002054151562031747565b50909b989a99949691929395979b60005b8b5181101562031869576103e8610a4051101562004cfd576001600160a01b0362031812828e62004d46565b51166000526003610a4051811b016020526040600020541562031841575b6203183b9062004cdf565b620317e6565b9c620318606203183b918f6200d8da8f9160018060a01b039262004d46565b9d905062031830565b509b50989590929496919396610a4051996103e88b10159c8d62004cfd57620318a06200806860048f9e60031b01549e8f62006200565b610960526000610980528d60009e5b62004cfd578d8f10156203196e575060009d620318f7620318da826004610a405160031b0162004f5e565b90546109c05160039290921b1c6001600160a01b03169062032dea565b1562031911575b6203190a8f9162004cdf565b9e620318af565b6203190a9e5060009e8f9162031931816004610a405160031b0162004f5e565b60018060a01b0391549060031b1c1662031952610980516109605162004d46565b52620319616109805162004cdf565b61098052915050620318fe565b9396999b929d509396999094979b5060005b82811062031a1e5750505062004cfd5761096051516001600160401b03811162002a9b57620319b9816004610a405160031b016200509a565b60206109605101906004610a405160031b0160005260206000209160005b82811062031a005750505050620319f1610a605162004cdf565b610a60529598909498620316c9565b81516001600160a01b031681850155602090910190600101620319d7565b62031a64906001600160a01b0362031a37828562004d46565b511662031a4b610980516109605162004d46565b5262031a5a6109805162004cdf565b6109805262004cdf565b62031980565b509492975094955091965060009460005b875181101562031ace5762031a996200abc66200abb9838962004d46565b8062031ab2575b5062031aac9062004cdf565b62031a7b565b906200abfc62031ac79862031aac936200608f565b9062031aa0565b5096509450929091508062031af0575b50506202f5f46020915b9150620314a4565b62031b1b9060018060a01b038351166000526200ac5a611f459182602052604060002054906200608f565b60018060a01b03835116600052602052604060002055600080611f4654905b81811062031b79575b5050916202f5f4916020931562031b5d575b509162031ade565b5162031b72906001600160a01b0316620065d6565b3862031b55565b62031b848162004eb6565b9054855160039290921b1c6001600160a01b0390811691161462031bb35762031bad9062004cdf565b62031b3a565b5060019150829050602062031b43565b9190926020810151602681101562002a2357601f0362031bfe5760209162031bf86200ae9d60406202f5f49401515162004cef565b62031ae8565b6020810151602681101562002a235760200362031c24575b506202f5f460209162031ae8565b6020810151602681101562002a2357602180910362031c45575b5062031c16565b602082015160268110156200b01a5760220362031c815750506202f5f4602091611fb660ff19815416905562031c7a62005087565b9162031c3e565b602082015160268110156200b01a5760230362031ca8575b50506202f5f460209162031c7a565b602082015160268110156200b01a5760241462031c9957602082015160268110156200b01a5760251462031c99576020829593949201519060268210156201478c575060150362010ee557604084019062031d0860c08351015162004cef565b519062031d1f60a06200779b818651015162004cef565b519362031d34835185511462000fa3620331b7565b62031d47835186511462000fa3620331b7565b60005b835181101562031da35762031d60818662004d46565b51906103e882101562004cfd57600362031d9d9260018060a01b038b5116600052811b0160205262000faa60406000205462007ce9838a62004d46565b62031d4a565b509095919560005b875181101562031ece5762031dc1818662004d46565b516103e881101562004cfd5760039060018060a01b03865116600052811b0160205262031df960406000205462007d56838962004d46565b9062031e06838862004d46565b51916103e883101562004cfd57600362031e3d9360018060a01b03895116600052811b0160205260406000205562000fa3620332bb565b62031e49818662004d46565b516103e881101562004cfd576003906001600160a01b0362031e6c848c62004d46565b5116600052811b0160205262031e8d60406000205462006814838962004d46565b919062031e9b828862004d46565b51906103e882101562004cfd5762031ec893600362000faa938d62007e0f8760018060a01b039262004d46565b62031dab565b509262031ee6919294506200c6369096959662032f53565b926040519062031ef68262002b78565b6001825260203681840137516001600160a01b031662031f168262004cef565b526000945b8051861015620322835762031f31868262004d46565b51610aa05262031f42855162004e62565b9660009462031f52845162004e62565b6109205260009460005b885181101562032022578a8962031f8c6001600160a01b0362031f80858462004d46565b5116610aa05162032d3b565b158062031fdc575b62031fad575b505062031fa79062004cdf565b62031f5c565b9862031fd19162001ac782859c62007f3762031fa79760018060a01b039262004d46565b9790508a8962031f9a565b5050506103e8610aa051101562004cfd576001600160a01b0362032001828b62004d46565b51166000526003610aa051811b016020528a89604060002054151562031f94565b50909895979498969291939660005b8851811015620320b4576103e8610aa051101562004cfd576001600160a01b036203205d828b62004d46565b51166000526003610aa051811b01602052604060002054156203208c575b620320869062004cdf565b62032031565b996203208690620320ab906001600160a01b036200a9638e8d62004d46565b9a90506203207b565b50985096959291909396610aa0516103e881101580610a205262004cfd5760031b6004015498620320ea62008068898c62006200565b610a00526000610a805260006109a0525b610a205162004cfd576109a0518a811015620321a7576200a9ff62032130916000610a20526004610aa05160031b0162004f5e565b156203214f575b620321456109a05162004cdf565b6109a052620320fb565b6000610a20526203216d6109a0516004610aa05160031b0162004f5e565b60018060a01b0391549060031b1c166203218e610a8051610a005162004d46565b526203219d610a805162004cdf565b610a805262032137565b50979294959093985095909560005b8281106203225057505050610a205162004cfd57610a0051516001600160401b03811162002a9b57620321f3816004610aa05160031b016200509a565b6020610a0051016004610aa05160031b01600052602060002060005b838110620322325750505050620322269062004cdf565b94929590919562031f1b565b82516001600160a01b0316818301556020909201916001016203220f565b6203227d906001600160a01b0362032269828562004d46565b51166200c214610a8051610a005162004d46565b620321b6565b5050936202f5f4919350602092509162031c99565b8151620322ae906001600160a01b031662006600565b6202f343565b620322bf8162004f0a565b9054865160039290921b1c6001600160a01b03908116911614620322ee57620322e89062004cdf565b6202f331565b505050600138806202f33a565b60405162461bcd60e51b815260206004820152604860248201527f5468652070656e64696e672070726f6772616d20686173206265656e2065786560448201527f63757465642c20616e642073686f756c64206e6f742062652065786563757465606482015267321030b3b0b4b71760c11b608482015260a490fd5b908062032382575050565b62002c3b91600052601f6020600020910160051c81019062004fa3565b90600160401b811162002a9b578154818355808210620323be57505050565b62002c3b92600052601f6020600020918180850160051c8401941680620323ed575b500160051c019062004fa3565b600019908186019182549160200360031b1c16905538620323e0565b9060ff809160031b9316831b921b19161790565b620324356203242e6000936202f17f565b506200356f565b92825b845180518210156203252b5781620324509162004d46565b516103e881101562004cfd57600390811b9460018060a01b038516600052602091860182526203248d604096600188600020549101549062005eb0565b919015620324f65790620324a1916200608f565b959015620324bc575050620324b69062004cdf565b62032438565b60649250519062461bcd60e51b825260048201526014602482015273746f74616c20706f776572206f766572666c6f7760601b6044820152fd5b865162461bcd60e51b815260048101849052600e60248201526d706f776572206f766572666c6f7760901b6044820152606490fd5b505092505090565b60005b613f78549081600052613f7691602092808452600393604092858460002001805486101562032694576203256f866203257b9262004f5e565b905490881b1c6202f17f565b509560ff60068098015416620325a3575b50505050506203259d915062004cdf565b62032536565b81600052838352620325cb620325bf8783886000200162004f5e565b905490831b1c6202f17f565b5096620325eb876001809a01549285600052878752886000200162004f5e565b905490831b1c91836000528585526203260b886005896000200162004f5e565b9054911b1c90600092606492838102938185041490151715620326805790620326349162004f77565b1062032678575b6203264757806203258c565b6009945060005252600020019060ff19918183825416179055613f73918254161790556000613f71556000613f7255565b50856203263b565b634e487b7160e01b84526011600452602484fd5b505050505050506000613f7854905b81600052613f76602052600380604060002001805483101562032719576006620326e0620326d48560ff9462004f5e565b905490851b1c6202f17f565b50015416156203271457620326f58262032929565b9081101562002a235762014d61576203270e9062004cdf565b620326a3565b505050565b50505060ff1990613f73600383825416179055600052613f766020526009604060002001908154169055565b613f785490600090828252613f769160209280845260039060409082828520015495620327728762002c61565b96620327818451988962002b94565b80885262032792601f199162002c61565b013682890137845b888652828252848487200154811015620327e35790620327d88262000faa620327c68897969562032929565b620327d2838d62004d46565b620052db565b90919293506203279a565b5050505090919350815b83518110156203285a5762032803818562004d46565b518281101562032846576001809114620328295750620328239062004cdf565b620327ed565b613f73805460ff191690911790555050613f71819055613f725550565b634e487b7160e01b84526021600452602484fd5b50909150613f7280544210600014620328815750613f739060ff19825416179055613f7155565b9050613f73600160ff1982541617905581613f715555565b15620328a157565b60405162461bcd60e51b815260206004820152601e60248201527f766f74696e672072756c6520696e646578206f7574206f662072616e676500006044820152606490fd5b15620328ee57565b60405162461bcd60e51b815260206004820152601360248201527263757272656e74596573206f766572666c6f7760681b6044820152606490fd5b613f785490600091808352613f76806020528260408520600301906203294f9162004f5e565b90549060031b1c62032961816202f17f565b50600101549383865282602052806040872060040190620329829162004f5e565b90549060031b1c9284875280602052816040882060050190620329a59162004f5e565b90549060031b1c9487526020526040862060060190620329c59162004f5e565b90549060031b1c90620329d8906202f17f565b506006015460ff1662032a24575062032a149262005e4362022e1f938362032a0462032a0c9562005e7a565b9690620328e6565b9290620328e6565b111562032a1e5790565b50600190565b6200fab9925062032a149362032a3e62032a0c9362005e7a565b9490620328e6565b9092919262032a56825162004e62565b60009162032a65815162004e62565b8390845b865181101562032b00576001600160a01b0362032a8c816202e43c848b62004d46565b158062032acb575b62032aac575b5062032aa69062004cdf565b62032a69565b819662032ac391620081f062032aa6948b62004d46565b959062032a9a565b506103e88a101562004cfd578062032ae4838a62004d46565b511660005260038a811b01602052604060002054151562032a94565b509295919694509260005b875181101562032b81576103e886101562004cfd576001600160a01b038062032b35838b62004d46565b5116600052600387811b016020526040600020541562032b62575b5062032b5c9062004cdf565b62032b0b565b819562032b79916200e72462032b5c948c62004d46565b949062032b50565b5092509450926103e8831015938462004cfd5760049586600395861b019687549462032bb262008068828862006200565b9460009689889a5b62032d2657818b101562032c5b57506000998b62032bf562032bdd838362004f5e565b90546001600160a01b0392918e1b1c82168a62032dea565b1562032c18575b50509062032c0d8b94939262004cdf565b9a9091929362032bba565b91998c95949392909162032c2e908c9062004f5e565b9054908d1b1c1662032c41828b62004d46565b5262032c4d9062004cdf565b9890919293508b3862032bfc565b9697949a98505091975092506000915b83831062032d01575050505062032cec578051926001600160401b03841162032cd7575062032c9b83836200509a565b602080910191600052806000209060005b84811062032cbb575050505050565b83516001600160a01b0316838201559281019260010162032cac565b604190634e487b7160e01b6000525260246000fd5b603283634e487b7160e01b6000525260246000fd5b62032d1f90620081fe906001600160a01b036200a36b868662004d46565b9162032c6b565b603285634e487b7160e01b6000525260246000fd5b9060005b6103e883101562004cfd576003600484821b01805483101562016f9a578262032d689162004f5e565b9054911b1c6001600160a01b0390811690831614620065b45762032d8c9062004cdf565b62032d3f565b9060005b6103e883101562004cfd576003611fbc84821b01805483101562016f9a578262032dc09162004f5e565b9054911b1c6001600160a01b0390811690831614620065b45762032de49062004cdf565b62032d96565b9060005b8251811015620065c7576001600160a01b038062032e0d838662004d46565b511690831614620065b45762032e239062004cdf565b62032dee565b801562001e07576000190190565b9081519060005b60001983810184811162001e075782101562032f05576001820180831162001e07575b84811062032e7c57505062032e769062004cdf565b62032e3e565b6001600160a01b038062032e91858962004d46565b51168162032ea0848a62004d46565b51161462032ebb575b5062032eb59062004cdf565b62032e61565b828692960182811162001e075762032eb59262032efe9262032ee262032ef7938b62004d46565b511662032ef0898b62004d46565b5262032e29565b9562032e29565b9062032ea9565b50509062032f138162004e62565b9060005b81811062032f26575090925050565b62032f4d906001600160a01b0362032f3f828862004d46565b511662001ac7828662004d46565b62032f17565b80519160005b60001984810185811162001e07578210156203300b576001820180831162001e07575b85811062032f9757505062032f919062004cdf565b62032f59565b62032fa3838662004d46565b5162032fb0828762004d46565b511462032fc9575b62032fc39062004cdf565b62032f7c565b948181019080821162001e075762032ffc620330039162032fef62032fc3948962004d46565b5162032ef08a8a62004d46565b9662032e29565b905062032fb8565b505090916203301a8162004e62565b9060005b8181106203302d575090925050565b806202b4c76203303e928762004d46565b6203301e565b604051620330528162002a7f565b604481527f496e76616c6964206469766964656e64207065726d797269616420706572207460208201527f72616e73616374696f6e2e2053686f756c64206265206c657373207468616e206040820152630313030360e41b606082015290565b604051620330c08162002b06565b603281527f4e6f20656e6f756768206e756d626572206f66207472616e73616374696f6e7360208201527108199bdc88191a5d9a59195b991cc81e595d60721b604082015290565b604051620331168162002b78565b601c81527b6469766964656e6473206f7065726174696f6e206f766572666c6f7760201b602082015290565b604051620331508162002b78565b600d81526c2ab735b737bbb71022b93937b960991b602082015290565b6040516203317b8162002b06565b602681527f4572726f7220696e20776974686472617761626c6520636173682063616c63756020820152653630ba34b7b760d11b604082015290565b604051620331c58162002b78565b6012815271496e76616c696420506172616d657465727360701b602082015290565b604051620331f58162002b78565b601581527413595b58995c88191bd95cc81b9bdd08195e1a5cdd605a1b602082015290565b604051620332288162002b78565b601781527613595b58995c881a5cc81b9bdd081cdd5cdc195b991959604a1b602082015290565b6040516203325d8162002b78565b601b81527a13595b58995c881a5cc8185b1c9958591e481cdd5cdc195b991959602a1b602082015290565b604051620332968162002b78565b60158152744d656d62657220616c72656164792065786973747360581b602082015290565b604051620332c98162002b78565b60118152704e6f20656e6f7567682062616c616e636560781b602082015290565b604051620332f88162002b78565b6018815277125b9d985b1a59081c185c985b595d195c881d1bc81cd95d60421b602082015290565b6040516203332e8162002b78565b6015815274546f6b656e20616d6f756e74206f766572666c6f7760581b602082015290565b602681101562002a23578015620074b2576001811462032a1e57600281146203358657600381146203358057600481146203357a57600581146203357457600681146203356e57600781146203356857600881146203356257600981146203355c57600a81146203355657600b81146203355057600c81146203354a57600d81146203354457600e81146203353e57600f81146203353857601081146203353257601181146203352c57601281146203352657601381146203352057601481146203351a57601581146203351457601681146203350e5760178114620335085760188114620335025760198114620334fc57601a8114620334f657601b8114620334f057601c8114620334ea57601d8114620334e457601e8114620334de57601f8114620334d85760208114620334d25760218114620334cc5760228114620334c65760238114620334c05760248114620334ba57602514620334b557600090565b602590565b50602490565b50602390565b50602290565b50602190565b50602090565b50601f90565b50601e90565b50601d90565b50601c90565b50601b90565b50601a90565b50601990565b50601890565b50601790565b50601690565b50601590565b50601490565b50601390565b50601290565b50601190565b50601090565b50600f90565b50600e90565b50600d90565b50600c90565b50600b90565b50600a90565b50600990565b50600890565b50600790565b50600690565b50600590565b50600490565b50600390565b50600290565b908151815103620065cf57600090815b835181101562017689576001600160f81b031980620335bc838762006506565b511690620335cb838562006506565b5116036201768257620335de9062004cdf565b6203359c565b60405190620335f38262002b06565b60288252604036602084013760005b601481106203361057505090565b60139080820391821162001e0757600382901b916001600160fd1b0381160362001e075760ff80831162001e0757600192620336599084901b6001600160a01b038616620050d4565b60f081168282160391821162001e07576203367d9060f41b600f60f81b16620336e6565b82841b916001600160ff1b038416840362001e0757620336ba9160001a620336a6848962006506565b5360f81b6001600160f81b031916620336e6565b92810180911162001e0757620336d9620336e09360001a918662006506565b5362004cdf565b62033602565b60f81c600a8110156203370f5760300160ff811162001e075760f81b6001600160f81b03191690565b60570160ff811162001e075760f81b6001600160f81b0319169056fe546865206c656e677468206f662061646472657373657320616e6420746f6b65305d206c656e677468206973206e6f742032000000000000000000000000000034dd862f2dd4c33543972cb453e26b9cc23a6eb518176c0de5db12d08007dc6d617665203120656c656d656e7400000000000000000000000000000000000000dd388e0eb473c306304080e96aea031c0fb4686a37f7b1a3c8a2301cd0627f0b7420686176652074776f20656c656d656e747300000000000000000000000000546865206c656e677468206f6620746f6b656e496e666f20616e6420746f6b656e20746865206c656e677468206f6620746f6b656e4c697374000000000000006c656e677468206973206e6f7420657175616c20746f207072696365206c69735d206c656e677468206973206e6f742031000000000000000000000000000000742068617665206f6e6520656c656d656e74000000000000000000000000000020706c7567696e207769746820696e6465782000000000000000000000000000656e677468206973206e6f7420310000000000000000000000000000000000005468652063616c6c20746f2074686520636f6e7472616374206973206e6f74202e55494e543235365f324441525241595b305d5b305d29206973206f7574206f2e55494e543235365f324441525241595b305d5b695d29206973206f7574206f742068617665203220656c656d656e7473000000000000000000000000000000546865206265666f7265206f7065726174696f6e20706c7567696e20737973748b3bb33683ac4daad017d30a0e9972b15e6854cd1f296e14295598f57ce03d506470626d4cb7d88e800a628455fe3f45216f254e8294f25d17ea4ac7e2f4f0a35d206c656e677468206973206e6f7420320000000000000000000000000000005265736572766564206f70636f6465206964203233206973206e6f7420696d70546865206c656e677468206f6620746f6b656e436c617373417272617920616e6c656e677468206973206e6f74203100000000000000000000000000000000005d206c656e677468206973206e6f742067726561746572207468616e20310000617665206f6e6520656c656d656e740000000000000000000000000000000000742068617665203120656c656d656e7400000000000000000000000000000000746f6b656e206c6576656c205829206d757374206265206c657373207468616e28746f6b656e206c6576656c205829206d757374206265206c657373207468615265736572766564206f70636f6465206964203238206973206e6f7420696d70546865206c656e677468206f662061646472657373657320616e6420616d6f75a26469706673582212200b7dff630712f4e35e13cd6b52bb4915fdb7f860f9ed94b9e17edff45824d9ad64736f6c63430008130033",
  "linkReferences": {},
  "deployedLinkReferences": {}
}