{
  "_format": "hh-sol-artifact-1",
  "contractName": "DARC",
  "sourceName": "contracts/DARC.sol",
  "abi": [
    {
      "inputs": [
        {
          "internalType": "uint256",
          "name": "idx",
          "type": "uint256"
        }
      ],
      "name": "checkVotingResult",
      "outputs": [
        {
          "internalType": "enum VotingStatus",
          "name": "",
          "type": "uint8"
        }
      ],
      "stateMutability": "view",
      "type": "function"
    },
    {
      "inputs": [],
      "name": "checkVotingResults",
      "outputs": [
        {
          "internalType": "enum VotingStatus[]",
          "name": "",
          "type": "uint8[]"
        }
      ],
      "stateMutability": "view",
      "type": "function"
    },
    {
      "inputs": [],
      "name": "currentVotingEndTime",
      "outputs": [
        {
          "internalType": "uint256",
          "name": "",
          "type": "uint256"
        }
      ],
      "stateMutability": "view",
      "type": "function"
    },
    {
      "inputs": [
        {
          "components": [
            {
              "internalType": "address",
              "name": "programOperatorAddress",
              "type": "address"
            },
            {
              "components": [
                {
                  "internalType": "address",
                  "name": "operatorAddress",
                  "type": "address"
                },
                {
                  "internalType": "enum EnumOpcode",
                  "name": "opcode",
                  "type": "uint8"
                },
                {
                  "components": [
                    {
                      "internalType": "uint256[]",
                      "name": "UINT256_ARRAY",
                      "type": "uint256[]"
                    },
                    {
                      "internalType": "address[]",
                      "name": "ADDRESS_ARRAY",
                      "type": "address[]"
                    },
                    {
                      "internalType": "string[]",
                      "name": "STRING_ARRAY",
                      "type": "string[]"
                    },
                    {
                      "internalType": "bool[]",
                      "name": "BOOL_ARRAY",
                      "type": "bool[]"
                    },
                    {
                      "components": [
                        {
                          "internalType": "uint256[]",
                          "name": "votingTokenClassList",
                          "type": "uint256[]"
                        },
                        {
                          "internalType": "uint256",
                          "name": "approvalThresholdPercentage",
                          "type": "uint256"
                        },
                        {
                          "internalType": "uint256",
                          "name": "votingDurationInSeconds",
                          "type": "uint256"
                        },
                        {
                          "internalType": "uint256",
                          "name": "executionPendingDurationInSeconds",
                          "type": "uint256"
                        },
                        {
                          "internalType": "bool",
                          "name": "isForcedStopAllowed",
                          "type": "bool"
                        },
                        {
                          "internalType": "bool",
                          "name": "isEnabled",
                          "type": "bool"
                        },
                        {
                          "internalType": "string",
                          "name": "note",
                          "type": "string"
                        },
                        {
                          "internalType": "bool",
                          "name": "bIsAbsoluteMajority",
                          "type": "bool"
                        }
                      ],
                      "internalType": "struct VotingRule[]",
                      "name": "VOTING_RULE_ARRAY",
                      "type": "tuple[]"
                    },
                    {
                      "components": [
                        {
                          "internalType": "enum EnumReturnType",
                          "name": "returnType",
                          "type": "uint8"
                        },
                        {
                          "internalType": "uint256",
                          "name": "level",
                          "type": "uint256"
                        },
                        {
                          "components": [
                            {
                              "internalType": "uint256",
                              "name": "id",
                              "type": "uint256"
                            },
                            {
                              "internalType": "enum EnumConditionNodeType",
                              "name": "nodeType",
                              "type": "uint8"
                            },
                            {
                              "internalType": "enum EnumLogicalOperatorType",
                              "name": "logicalOperator",
                              "type": "uint8"
                            },
                            {
                              "internalType": "enum EnumConditionExpression",
                              "name": "conditionExpression",
                              "type": "uint8"
                            },
                            {
                              "internalType": "uint256[]",
                              "name": "childList",
                              "type": "uint256[]"
                            },
                            {
                              "components": [
                                {
                                  "internalType": "uint256[]",
                                  "name": "UINT256_ARRAY",
                                  "type": "uint256[]"
                                },
                                {
                                  "internalType": "address[]",
                                  "name": "ADDRESS_ARRAY",
                                  "type": "address[]"
                                },
                                {
                                  "internalType": "string[]",
                                  "name": "STRING_ARRAY",
                                  "type": "string[]"
                                },
                                {
                                  "internalType": "uint256[][]",
                                  "name": "UINT256_2DARRAY",
                                  "type": "uint256[][]"
                                },
                                {
                                  "internalType": "address[][]",
                                  "name": "ADDRESS_2DARRAY",
                                  "type": "address[][]"
                                },
                                {
                                  "internalType": "string[][]",
                                  "name": "STRING_2DARRAY",
                                  "type": "string[][]"
                                }
                              ],
                              "internalType": "struct NodeParam",
                              "name": "param",
                              "type": "tuple"
                            }
                          ],
                          "internalType": "struct ConditionNode[]",
                          "name": "conditionNodes",
                          "type": "tuple[]"
                        },
                        {
                          "internalType": "uint256",
                          "name": "votingRuleIndex",
                          "type": "uint256"
                        },
                        {
                          "internalType": "string",
                          "name": "note",
                          "type": "string"
                        },
                        {
                          "internalType": "bool",
                          "name": "bIsEnabled",
                          "type": "bool"
                        },
                        {
                          "internalType": "bool",
                          "name": "bIsInitialized",
                          "type": "bool"
                        },
                        {
                          "internalType": "bool",
                          "name": "bIsBeforeOperation",
                          "type": "bool"
                        }
                      ],
                      "internalType": "struct Plugin[]",
                      "name": "PLUGIN_ARRAY",
                      "type": "tuple[]"
                    },
                    {
                      "internalType": "enum MachineParameter[]",
                      "name": "PARAMETER_ARRAY",
                      "type": "uint8[]"
                    },
                    {
                      "internalType": "uint256[][]",
                      "name": "UINT256_2DARRAY",
                      "type": "uint256[][]"
                    },
                    {
                      "internalType": "address[][]",
                      "name": "ADDRESS_2DARRAY",
                      "type": "address[][]"
                    }
                  ],
                  "internalType": "struct Param",
                  "name": "param",
                  "type": "tuple"
                }
              ],
              "internalType": "struct Operation[]",
              "name": "operations",
              "type": "tuple[]"
            }
          ],
          "internalType": "struct Program",
          "name": "program",
          "type": "tuple"
        }
      ],
      "name": "entrance",
      "outputs": [
        {
          "internalType": "string",
          "name": "",
          "type": "string"
        }
      ],
      "stateMutability": "payable",
      "type": "function"
    },
    {
      "inputs": [],
      "name": "executingPendingDeadline",
      "outputs": [
        {
          "internalType": "uint256",
          "name": "",
          "type": "uint256"
        }
      ],
      "stateMutability": "view",
      "type": "function"
    },
    {
      "inputs": [],
      "name": "finiteState",
      "outputs": [
        {
          "internalType": "enum FiniteState",
          "name": "",
          "type": "uint8"
        }
      ],
      "stateMutability": "view",
      "type": "function"
    },
    {
      "inputs": [
        {
          "internalType": "address",
          "name": "member",
          "type": "address"
        }
      ],
      "name": "getMemberInfo",
      "outputs": [
        {
          "components": [
            {
              "internalType": "bool",
              "name": "bIsInitialized",
              "type": "bool"
            },
            {
              "internalType": "bool",
              "name": "bIsSuspended",
              "type": "bool"
            },
            {
              "internalType": "string",
              "name": "name",
              "type": "string"
            },
            {
              "internalType": "uint256",
              "name": "role",
              "type": "uint256"
            }
          ],
          "internalType": "struct MemberInfo",
          "name": "",
          "type": "tuple"
        }
      ],
      "stateMutability": "view",
      "type": "function"
    },
    {
      "inputs": [],
      "name": "getMemberList",
      "outputs": [
        {
          "internalType": "address[]",
          "name": "",
          "type": "address[]"
        }
      ],
      "stateMutability": "view",
      "type": "function"
    },
    {
      "inputs": [],
      "name": "getMyInfo",
      "outputs": [
        {
          "internalType": "address",
          "name": "",
          "type": "address"
        }
      ],
      "stateMutability": "view",
      "type": "function"
    },
    {
      "inputs": [],
      "name": "getNumberOfTokenClasses",
      "outputs": [
        {
          "internalType": "uint256",
          "name": "",
          "type": "uint256"
        }
      ],
      "stateMutability": "view",
      "type": "function"
    },
    {
      "inputs": [],
      "name": "getPluginInfo",
      "outputs": [
        {
          "components": [
            {
              "internalType": "enum EnumReturnType",
              "name": "returnType",
              "type": "uint8"
            },
            {
              "internalType": "uint256",
              "name": "level",
              "type": "uint256"
            },
            {
              "components": [
                {
                  "internalType": "uint256",
                  "name": "id",
                  "type": "uint256"
                },
                {
                  "internalType": "enum EnumConditionNodeType",
                  "name": "nodeType",
                  "type": "uint8"
                },
                {
                  "internalType": "enum EnumLogicalOperatorType",
                  "name": "logicalOperator",
                  "type": "uint8"
                },
                {
                  "internalType": "enum EnumConditionExpression",
                  "name": "conditionExpression",
                  "type": "uint8"
                },
                {
                  "internalType": "uint256[]",
                  "name": "childList",
                  "type": "uint256[]"
                },
                {
                  "components": [
                    {
                      "internalType": "uint256[]",
                      "name": "UINT256_ARRAY",
                      "type": "uint256[]"
                    },
                    {
                      "internalType": "address[]",
                      "name": "ADDRESS_ARRAY",
                      "type": "address[]"
                    },
                    {
                      "internalType": "string[]",
                      "name": "STRING_ARRAY",
                      "type": "string[]"
                    },
                    {
                      "internalType": "uint256[][]",
                      "name": "UINT256_2DARRAY",
                      "type": "uint256[][]"
                    },
                    {
                      "internalType": "address[][]",
                      "name": "ADDRESS_2DARRAY",
                      "type": "address[][]"
                    },
                    {
                      "internalType": "string[][]",
                      "name": "STRING_2DARRAY",
                      "type": "string[][]"
                    }
                  ],
                  "internalType": "struct NodeParam",
                  "name": "param",
                  "type": "tuple"
                }
              ],
              "internalType": "struct ConditionNode[]",
              "name": "conditionNodes",
              "type": "tuple[]"
            },
            {
              "internalType": "uint256",
              "name": "votingRuleIndex",
              "type": "uint256"
            },
            {
              "internalType": "string",
              "name": "note",
              "type": "string"
            },
            {
              "internalType": "bool",
              "name": "bIsEnabled",
              "type": "bool"
            },
            {
              "internalType": "bool",
              "name": "bIsInitialized",
              "type": "bool"
            },
            {
              "internalType": "bool",
              "name": "bIsBeforeOperation",
              "type": "bool"
            }
          ],
          "internalType": "struct Plugin[]",
          "name": "",
          "type": "tuple[]"
        },
        {
          "components": [
            {
              "internalType": "enum EnumReturnType",
              "name": "returnType",
              "type": "uint8"
            },
            {
              "internalType": "uint256",
              "name": "level",
              "type": "uint256"
            },
            {
              "components": [
                {
                  "internalType": "uint256",
                  "name": "id",
                  "type": "uint256"
                },
                {
                  "internalType": "enum EnumConditionNodeType",
                  "name": "nodeType",
                  "type": "uint8"
                },
                {
                  "internalType": "enum EnumLogicalOperatorType",
                  "name": "logicalOperator",
                  "type": "uint8"
                },
                {
                  "internalType": "enum EnumConditionExpression",
                  "name": "conditionExpression",
                  "type": "uint8"
                },
                {
                  "internalType": "uint256[]",
                  "name": "childList",
                  "type": "uint256[]"
                },
                {
                  "components": [
                    {
                      "internalType": "uint256[]",
                      "name": "UINT256_ARRAY",
                      "type": "uint256[]"
                    },
                    {
                      "internalType": "address[]",
                      "name": "ADDRESS_ARRAY",
                      "type": "address[]"
                    },
                    {
                      "internalType": "string[]",
                      "name": "STRING_ARRAY",
                      "type": "string[]"
                    },
                    {
                      "internalType": "uint256[][]",
                      "name": "UINT256_2DARRAY",
                      "type": "uint256[][]"
                    },
                    {
                      "internalType": "address[][]",
                      "name": "ADDRESS_2DARRAY",
                      "type": "address[][]"
                    },
                    {
                      "internalType": "string[][]",
                      "name": "STRING_2DARRAY",
                      "type": "string[][]"
                    }
                  ],
                  "internalType": "struct NodeParam",
                  "name": "param",
                  "type": "tuple"
                }
              ],
              "internalType": "struct ConditionNode[]",
              "name": "conditionNodes",
              "type": "tuple[]"
            },
            {
              "internalType": "uint256",
              "name": "votingRuleIndex",
              "type": "uint256"
            },
            {
              "internalType": "string",
              "name": "note",
              "type": "string"
            },
            {
              "internalType": "bool",
              "name": "bIsEnabled",
              "type": "bool"
            },
            {
              "internalType": "bool",
              "name": "bIsInitialized",
              "type": "bool"
            },
            {
              "internalType": "bool",
              "name": "bIsBeforeOperation",
              "type": "bool"
            }
          ],
          "internalType": "struct Plugin[]",
          "name": "",
          "type": "tuple[]"
        }
      ],
      "stateMutability": "view",
      "type": "function"
    },
    {
      "inputs": [
        {
          "internalType": "uint256",
          "name": "tokenClassIndex",
          "type": "uint256"
        }
      ],
      "name": "getTokenInfo",
      "outputs": [
        {
          "internalType": "uint256",
          "name": "votingWeight",
          "type": "uint256"
        },
        {
          "internalType": "uint256",
          "name": "dividendWeight",
          "type": "uint256"
        },
        {
          "internalType": "string",
          "name": "tokenInfo",
          "type": "string"
        },
        {
          "internalType": "uint256",
          "name": "totalSupply",
          "type": "uint256"
        }
      ],
      "stateMutability": "view",
      "type": "function"
    },
    {
      "inputs": [
        {
          "internalType": "uint256",
          "name": "tokenClassIndex",
          "type": "uint256"
        },
        {
          "internalType": "address",
          "name": "tokenOwnerAddress",
          "type": "address"
        }
      ],
      "name": "getTokenOwnerBalance",
      "outputs": [
        {
          "internalType": "uint256",
          "name": "",
          "type": "uint256"
        }
      ],
      "stateMutability": "view",
      "type": "function"
    },
    {
      "inputs": [
        {
          "internalType": "uint256",
          "name": "tokenClassIndex",
          "type": "uint256"
        }
      ],
      "name": "getTokenOwners",
      "outputs": [
        {
          "internalType": "address[]",
          "name": "",
          "type": "address[]"
        }
      ],
      "stateMutability": "view",
      "type": "function"
    },
    {
      "inputs": [
        {
          "internalType": "address",
          "name": "member",
          "type": "address"
        }
      ],
      "name": "getWithdrawableCashBalance",
      "outputs": [
        {
          "internalType": "uint256",
          "name": "",
          "type": "uint256"
        }
      ],
      "stateMutability": "view",
      "type": "function"
    },
    {
      "inputs": [
        {
          "internalType": "address",
          "name": "member",
          "type": "address"
        }
      ],
      "name": "getWithdrawableDividendBalance",
      "outputs": [
        {
          "internalType": "uint256",
          "name": "",
          "type": "uint256"
        }
      ],
      "stateMutability": "view",
      "type": "function"
    },
    {
      "inputs": [],
      "name": "initialOwnerAddress",
      "outputs": [
        {
          "internalType": "address",
          "name": "",
          "type": "address"
        }
      ],
      "stateMutability": "view",
      "type": "function"
    },
    {
      "inputs": [],
      "name": "initialize",
      "outputs": [],
      "stateMutability": "nonpayable",
      "type": "function"
    },
    {
      "inputs": [
        {
          "internalType": "uint256[]",
          "name": "votingRuleIndices",
          "type": "uint256[]"
        },
        {
          "components": [
            {
              "internalType": "address",
              "name": "programOperatorAddress",
              "type": "address"
            },
            {
              "components": [
                {
                  "internalType": "address",
                  "name": "operatorAddress",
                  "type": "address"
                },
                {
                  "internalType": "enum EnumOpcode",
                  "name": "opcode",
                  "type": "uint8"
                },
                {
                  "components": [
                    {
                      "internalType": "uint256[]",
                      "name": "UINT256_ARRAY",
                      "type": "uint256[]"
                    },
                    {
                      "internalType": "address[]",
                      "name": "ADDRESS_ARRAY",
                      "type": "address[]"
                    },
                    {
                      "internalType": "string[]",
                      "name": "STRING_ARRAY",
                      "type": "string[]"
                    },
                    {
                      "internalType": "bool[]",
                      "name": "BOOL_ARRAY",
                      "type": "bool[]"
                    },
                    {
                      "components": [
                        {
                          "internalType": "uint256[]",
                          "name": "votingTokenClassList",
                          "type": "uint256[]"
                        },
                        {
                          "internalType": "uint256",
                          "name": "approvalThresholdPercentage",
                          "type": "uint256"
                        },
                        {
                          "internalType": "uint256",
                          "name": "votingDurationInSeconds",
                          "type": "uint256"
                        },
                        {
                          "internalType": "uint256",
                          "name": "executionPendingDurationInSeconds",
                          "type": "uint256"
                        },
                        {
                          "internalType": "bool",
                          "name": "isForcedStopAllowed",
                          "type": "bool"
                        },
                        {
                          "internalType": "bool",
                          "name": "isEnabled",
                          "type": "bool"
                        },
                        {
                          "internalType": "string",
                          "name": "note",
                          "type": "string"
                        },
                        {
                          "internalType": "bool",
                          "name": "bIsAbsoluteMajority",
                          "type": "bool"
                        }
                      ],
                      "internalType": "struct VotingRule[]",
                      "name": "VOTING_RULE_ARRAY",
                      "type": "tuple[]"
                    },
                    {
                      "components": [
                        {
                          "internalType": "enum EnumReturnType",
                          "name": "returnType",
                          "type": "uint8"
                        },
                        {
                          "internalType": "uint256",
                          "name": "level",
                          "type": "uint256"
                        },
                        {
                          "components": [
                            {
                              "internalType": "uint256",
                              "name": "id",
                              "type": "uint256"
                            },
                            {
                              "internalType": "enum EnumConditionNodeType",
                              "name": "nodeType",
                              "type": "uint8"
                            },
                            {
                              "internalType": "enum EnumLogicalOperatorType",
                              "name": "logicalOperator",
                              "type": "uint8"
                            },
                            {
                              "internalType": "enum EnumConditionExpression",
                              "name": "conditionExpression",
                              "type": "uint8"
                            },
                            {
                              "internalType": "uint256[]",
                              "name": "childList",
                              "type": "uint256[]"
                            },
                            {
                              "components": [
                                {
                                  "internalType": "uint256[]",
                                  "name": "UINT256_ARRAY",
                                  "type": "uint256[]"
                                },
                                {
                                  "internalType": "address[]",
                                  "name": "ADDRESS_ARRAY",
                                  "type": "address[]"
                                },
                                {
                                  "internalType": "string[]",
                                  "name": "STRING_ARRAY",
                                  "type": "string[]"
                                },
                                {
                                  "internalType": "uint256[][]",
                                  "name": "UINT256_2DARRAY",
                                  "type": "uint256[][]"
                                },
                                {
                                  "internalType": "address[][]",
                                  "name": "ADDRESS_2DARRAY",
                                  "type": "address[][]"
                                },
                                {
                                  "internalType": "string[][]",
                                  "name": "STRING_2DARRAY",
                                  "type": "string[][]"
                                }
                              ],
                              "internalType": "struct NodeParam",
                              "name": "param",
                              "type": "tuple"
                            }
                          ],
                          "internalType": "struct ConditionNode[]",
                          "name": "conditionNodes",
                          "type": "tuple[]"
                        },
                        {
                          "internalType": "uint256",
                          "name": "votingRuleIndex",
                          "type": "uint256"
                        },
                        {
                          "internalType": "string",
                          "name": "note",
                          "type": "string"
                        },
                        {
                          "internalType": "bool",
                          "name": "bIsEnabled",
                          "type": "bool"
                        },
                        {
                          "internalType": "bool",
                          "name": "bIsInitialized",
                          "type": "bool"
                        },
                        {
                          "internalType": "bool",
                          "name": "bIsBeforeOperation",
                          "type": "bool"
                        }
                      ],
                      "internalType": "struct Plugin[]",
                      "name": "PLUGIN_ARRAY",
                      "type": "tuple[]"
                    },
                    {
                      "internalType": "enum MachineParameter[]",
                      "name": "PARAMETER_ARRAY",
                      "type": "uint8[]"
                    },
                    {
                      "internalType": "uint256[][]",
                      "name": "UINT256_2DARRAY",
                      "type": "uint256[][]"
                    },
                    {
                      "internalType": "address[][]",
                      "name": "ADDRESS_2DARRAY",
                      "type": "address[][]"
                    }
                  ],
                  "internalType": "struct Param",
                  "name": "param",
                  "type": "tuple"
                }
              ],
              "internalType": "struct Operation[]",
              "name": "operations",
              "type": "tuple[]"
            }
          ],
          "internalType": "struct Program",
          "name": "currentProgram",
          "type": "tuple"
        }
      ],
      "name": "initializeVoting",
      "outputs": [],
      "stateMutability": "nonpayable",
      "type": "function"
    },
    {
      "inputs": [],
      "name": "latestVotingItemIndex",
      "outputs": [
        {
          "internalType": "uint256",
          "name": "",
          "type": "uint256"
        }
      ],
      "stateMutability": "view",
      "type": "function"
    },
    {
      "inputs": [
        {
          "internalType": "address",
          "name": "voter",
          "type": "address"
        },
        {
          "internalType": "bool[]",
          "name": "votes",
          "type": "bool[]"
        }
      ],
      "name": "vote",
      "outputs": [],
      "stateMutability": "nonpayable",
      "type": "function"
    },
    {
      "inputs": [],
      "name": "votingDeadline",
      "outputs": [
        {
          "internalType": "uint256",
          "name": "",
          "type": "uint256"
        }
      ],
      "stateMutability": "view",
      "type": "function"
    },
    {
      "inputs": [
        {
          "internalType": "uint256",
          "name": "",
          "type": "uint256"
        }
      ],
      "name": "votingItems",
      "outputs": [
        {
          "components": [
            {
              "internalType": "address",
              "name": "programOperatorAddress",
              "type": "address"
            },
            {
              "components": [
                {
                  "internalType": "address",
                  "name": "operatorAddress",
                  "type": "address"
                },
                {
                  "internalType": "enum EnumOpcode",
                  "name": "opcode",
                  "type": "uint8"
                },
                {
                  "components": [
                    {
                      "internalType": "uint256[]",
                      "name": "UINT256_ARRAY",
                      "type": "uint256[]"
                    },
                    {
                      "internalType": "address[]",
                      "name": "ADDRESS_ARRAY",
                      "type": "address[]"
                    },
                    {
                      "internalType": "string[]",
                      "name": "STRING_ARRAY",
                      "type": "string[]"
                    },
                    {
                      "internalType": "bool[]",
                      "name": "BOOL_ARRAY",
                      "type": "bool[]"
                    },
                    {
                      "components": [
                        {
                          "internalType": "uint256[]",
                          "name": "votingTokenClassList",
                          "type": "uint256[]"
                        },
                        {
                          "internalType": "uint256",
                          "name": "approvalThresholdPercentage",
                          "type": "uint256"
                        },
                        {
                          "internalType": "uint256",
                          "name": "votingDurationInSeconds",
                          "type": "uint256"
                        },
                        {
                          "internalType": "uint256",
                          "name": "executionPendingDurationInSeconds",
                          "type": "uint256"
                        },
                        {
                          "internalType": "bool",
                          "name": "isForcedStopAllowed",
                          "type": "bool"
                        },
                        {
                          "internalType": "bool",
                          "name": "isEnabled",
                          "type": "bool"
                        },
                        {
                          "internalType": "string",
                          "name": "note",
                          "type": "string"
                        },
                        {
                          "internalType": "bool",
                          "name": "bIsAbsoluteMajority",
                          "type": "bool"
                        }
                      ],
                      "internalType": "struct VotingRule[]",
                      "name": "VOTING_RULE_ARRAY",
                      "type": "tuple[]"
                    },
                    {
                      "components": [
                        {
                          "internalType": "enum EnumReturnType",
                          "name": "returnType",
                          "type": "uint8"
                        },
                        {
                          "internalType": "uint256",
                          "name": "level",
                          "type": "uint256"
                        },
                        {
                          "components": [
                            {
                              "internalType": "uint256",
                              "name": "id",
                              "type": "uint256"
                            },
                            {
                              "internalType": "enum EnumConditionNodeType",
                              "name": "nodeType",
                              "type": "uint8"
                            },
                            {
                              "internalType": "enum EnumLogicalOperatorType",
                              "name": "logicalOperator",
                              "type": "uint8"
                            },
                            {
                              "internalType": "enum EnumConditionExpression",
                              "name": "conditionExpression",
                              "type": "uint8"
                            },
                            {
                              "internalType": "uint256[]",
                              "name": "childList",
                              "type": "uint256[]"
                            },
                            {
                              "components": [
                                {
                                  "internalType": "uint256[]",
                                  "name": "UINT256_ARRAY",
                                  "type": "uint256[]"
                                },
                                {
                                  "internalType": "address[]",
                                  "name": "ADDRESS_ARRAY",
                                  "type": "address[]"
                                },
                                {
                                  "internalType": "string[]",
                                  "name": "STRING_ARRAY",
                                  "type": "string[]"
                                },
                                {
                                  "internalType": "uint256[][]",
                                  "name": "UINT256_2DARRAY",
                                  "type": "uint256[][]"
                                },
                                {
                                  "internalType": "address[][]",
                                  "name": "ADDRESS_2DARRAY",
                                  "type": "address[][]"
                                },
                                {
                                  "internalType": "string[][]",
                                  "name": "STRING_2DARRAY",
                                  "type": "string[][]"
                                }
                              ],
                              "internalType": "struct NodeParam",
                              "name": "param",
                              "type": "tuple"
                            }
                          ],
                          "internalType": "struct ConditionNode[]",
                          "name": "conditionNodes",
                          "type": "tuple[]"
                        },
                        {
                          "internalType": "uint256",
                          "name": "votingRuleIndex",
                          "type": "uint256"
                        },
                        {
                          "internalType": "string",
                          "name": "note",
                          "type": "string"
                        },
                        {
                          "internalType": "bool",
                          "name": "bIsEnabled",
                          "type": "bool"
                        },
                        {
                          "internalType": "bool",
                          "name": "bIsInitialized",
                          "type": "bool"
                        },
                        {
                          "internalType": "bool",
                          "name": "bIsBeforeOperation",
                          "type": "bool"
                        }
                      ],
                      "internalType": "struct Plugin[]",
                      "name": "PLUGIN_ARRAY",
                      "type": "tuple[]"
                    },
                    {
                      "internalType": "enum MachineParameter[]",
                      "name": "PARAMETER_ARRAY",
                      "type": "uint8[]"
                    },
                    {
                      "internalType": "uint256[][]",
                      "name": "UINT256_2DARRAY",
                      "type": "uint256[][]"
                    },
                    {
                      "internalType": "address[][]",
                      "name": "ADDRESS_2DARRAY",
                      "type": "address[][]"
                    }
                  ],
                  "internalType": "struct Param",
                  "name": "param",
                  "type": "tuple"
                }
              ],
              "internalType": "struct Operation[]",
              "name": "operations",
              "type": "tuple[]"
            }
          ],
          "internalType": "struct Program",
          "name": "program",
          "type": "tuple"
        },
        {
          "internalType": "uint256",
          "name": "votingEndTime",
          "type": "uint256"
        },
        {
          "internalType": "uint256",
          "name": "executingEndTime",
          "type": "uint256"
        },
        {
          "internalType": "enum VotingStatus",
          "name": "votingStatus",
          "type": "uint8"
        },
        {
          "internalType": "bool",
          "name": "bIsProgramExecuted",
          "type": "bool"
        }
      ],
      "stateMutability": "view",
      "type": "function"
    }
  ],
  "bytecode": "0x60808060405234620000185761e9b590816200001e8239f35b600080fdfe6103c080604052600436101561001457600080fd5b600090813560e01c908163036ee850146134b55750806307de338e146133c25780630e5a3b291461308d57806310ade3ea146130615780631c75255a14612fff578063222ee3da14611e6c57806341d1a43814611e3e5780635d0b184914611e1e5780635f1231ea14611d505780635f5d5f0014611cd9578063681ece9d14611c9357806379532bfe14611c735780637daa10ce14611c585780638129fc1c146118ec578063864f9f7a146118b157806386ad77e2146115d65780638c7a63ae146115575780639f36145f1461035f578063acf80bc414610324578063aefca42a14610304578063bba5103014610196578063d5a172f21461016b5763d6a93c511461011f57600080fd5b346101685780600319360112610168575b6127108110610145575b602090604051908152f35b60ff60078260031b015416156101635761015e906152a2565b610130565b61013a565b80fd5b50346101685780600319360112610168576202711c546040516001600160a01b039091168152602090f35b50346101685780600319360112610168576202712354808252620271209160209083825260029384604083200154946101e76101d1876135de565b966101df604051988961358c565b8088526135de565b8685019290601f1901368437835b868552818652826040862001548110156102b25760405163083a348760e31b815260048101829052602487828281305afa9182156102a757879261026b575b5061023f838b6152f4565b906003831015610259575052610254906152a2565b6101f5565b634e487b7160e01b8852602160045287fd5b9091508781813d83116102a0575b610283818361358c565b8101031261029c5751600381101561029c579038610234565b8680fd5b503d610279565b6040513d89823e3d90fd5b505060408051858152875181870181905290948594928501935086905b8281106102de57505050500390f35b91938395509080826102f460019483975161456e565b01950191019185949391926102cf565b503461016857806003193601126101685760206202711e54604051908152f35b5034610168576020366003190112610168576020906040906001600160a01b0361034c6135af565b1681526201388583522054604051908152f35b503461016857602036600319011261016857600435815262027120602052604080822081519182016001600160401b038111838210176115435760405280546001600160a01b031682526001810180546103b8816135de565b916103c6604051938461358c565b81835285526020808620869184015b8383106104375761040e878787602083015260ff600682015491600860078201549101549060405195869560a0875260a0870190614d07565b93602086015260408501526104286060850183831661456e565b60081c16151560808301520390f35b6040516001600160401b03606082019081119082111761152f576060810160405282546001600160a01b0381168252602260a082901c60ff16101561151b5760a01c60ff1660208201526040516001600160401b036101208201908111908211176115075761012081016040526104b060018501614939565b81526104be6002850161498a565b60208201526104cf60038501614ac0565b6040820152600484018a604051809283916020825491828152019184526020842093905b80601f8301106113345761061394549181811061131e575b818110611305575b8181106112ec575b8181106112d3575b8181106112bb575b8181106112a2575b818110611289575b818110611270575b818110611257575b81811061123e575b818110611225575b81811061120c575b8181106111f3575b8181106111da575b8181106111c1575b8181106111a8575b81811061118f575b818110611176575b81811061115d575b818110611144575b81811061112b575b818110611112575b8181106110f9575b8181106110e0575b8181106110c7575b8181106110ae575b818110611095575b81811061107c575b818110611063575b81811061104a575b818110611031575b10611021575b509b9a999897969594939b038261358c565b60608a0152600583018054610627816135de565b91610635604051938461358c565b8183528c526020808d20908d9084015b838210610fef575050505060808a015260068301988954610665816135de565b9a6106736040519c8d61358c565b818c5260208c01908d528c6020812091815b848310610e9957505050505090919293949596979860a0820152604051806007860190602082549182815201918d5260208d20908d915b81601f840110610bd15784600a97946020979460019a97946107e0945491818110610bb6575b818110610b98575b818110610b7a575b818110610b5c575b818110610b3f575b818110610b21575b818110610b03575b818110610ae5575b818110610ac7575b818110610aa9575b818110610a8b575b818110610a6d575b818110610a4f575b818110610a31575b818110610a13575b8181106109f5575b8181106109d7575b8181106109b9575b81811061099b575b81811061097d575b81811061095f575b818110610941575b818110610923575b818110610905575b8181106108e7575b8181106108c9575b8181106108ab575b81811061088d575b81811061086f575b818110610851575b818110610833575b1061081b575b50038261358c565b60c08201526107f160088801614ba1565b60e082015261080260098801614bf6565b61010082015260408201528152019201920191906103d5565b90889160f81c61082a816145b8565b815201386107d8565b928a8d9160ff8560f01c16610847816145b8565b81520193016107d2565b928a8d9160ff8560e81c16610865816145b8565b81520193016107ca565b928a8d9160ff8560e01c16610883816145b8565b81520193016107c2565b928a8d9160ff8560d81c166108a1816145b8565b81520193016107ba565b928a8d9160ff8560d01c166108bf816145b8565b81520193016107b2565b928a8d9160ff8560c81c166108dd816145b8565b81520193016107aa565b928a8d9160ff8560c01c166108fb816145b8565b81520193016107a2565b928a8d9160ff8560b81c16610919816145b8565b815201930161079a565b928a8d9160ff8560b01c16610937816145b8565b8152019301610792565b928a8d9160ff8560a81c16610955816145b8565b815201930161078a565b928a8d9160ff8560a01c16610973816145b8565b8152019301610782565b928a8d9160ff8560981c16610991816145b8565b815201930161077a565b928a8d9160ff8560901c166109af816145b8565b8152019301610772565b928a8d9160ff8560881c166109cd816145b8565b815201930161076a565b928a8d9160ff8560801c166109eb816145b8565b8152019301610762565b928a8d9160ff8560781c16610a09816145b8565b815201930161075a565b928a8d9160ff8560701c16610a27816145b8565b8152019301610752565b928a8d9160ff8560681c16610a45816145b8565b815201930161074a565b928a8d9160ff8560601c16610a63816145b8565b8152019301610742565b928a8d9160ff8560581c16610a81816145b8565b815201930161073a565b928a8d9160ff8560501c16610a9f816145b8565b8152019301610732565b928a8d9160ff8560481c16610abd816145b8565b815201930161072a565b928a8d9160ff8560401c16610adb816145b8565b8152019301610722565b928a8d9160ff8560381c16610af9816145b8565b815201930161071a565b928a8d9160ff8560301c16610b17816145b8565b8152019301610712565b928a8d9160ff8560281c16610b35816145b8565b815201930161070a565b928a8d9160ff85831c16610b52816145b8565b8152019301610702565b928a8d9160ff8560181c16610b70816145b8565b81520193016106fa565b928a8d9160ff8560101c16610b8e816145b8565b81520193016106f2565b928a8d9160ff8560081c16610bac816145b8565b81520193016106ea565b928a8d9160ff8516610bc7816145b8565b81520193016106e2565b926001610400602092865460ff8116610be9816145b8565b825260ff8160081c16610bfb816145b8565b8583015260ff8160101c16610c0f816145b8565b604083015260ff8160181c16610c24816145b8565b606083015260ff81861c16610c38816145b8565b608083015260ff8160281c16610c4d816145b8565b60a0830152610c6160ff8260301c166145b8565b60ff8160301c1660c083015260ff8160381c16610c7d816145b8565b60e083015260ff8160401c16610c92816145b8565b61010083015260ff8160481c16610ca8816145b8565b61012083015260ff8160501c16610cbe816145b8565b61014083015260ff8160581c16610cd4816145b8565b61016083015260ff8160601c16610cea816145b8565b61018083015260ff8160681c16610d00816145b8565b6101a083015260ff8160701c16610d16816145b8565b6101c083015260ff8160781c16610d2c816145b8565b6101e083015260ff8160801c16610d42816145b8565b61020083015260ff8160881c16610d58816145b8565b61022083015260ff8160901c16610d6e816145b8565b61024083015260ff8160981c16610d84816145b8565b61026083015260ff8160a01c16610d9a816145b8565b61028083015260ff8160a81c16610db0816145b8565b6102a083015260ff8160b01c16610dc6816145b8565b6102c083015260ff8160b81c16610ddc816145b8565b6102e083015260ff8160c01c16610df2816145b8565b61030083015260ff8160c81c16610e08816145b8565b61032083015260ff8160d01c16610e1e816145b8565b61034083015260ff8160d81c16610e34816145b8565b61036083015260ff8160e01c16610e4a816145b8565b61038083015260ff8160e81c16610e60816145b8565b6103a083015260ff8160f01c16610e76816145b8565b6103c083015260f81c610e88816145b8565b6103e08201520194019201916106bc565b60405190610ea68261351f565b610eb460ff86541683614b89565b600185015460208301526002850154610ecc816135de565b91610eda604051938461358c565b81835260028701815260208082209084015b838310610f6e57505050509d9e95969798999a9b9c9d600192826020926040600695015260038701546060820152610f2660048801614a1c565b608082015260ff6005880154818116151560a0840152818160081c16151560c084015260101c16151560e08201528152019301910190918e9d9c9b9a9998979695949d610685565b60096020600192604051610f8181613504565b85548152610fbf60ff86880154818116610f9a816145b8565b86850152818160081c16610fad8161454e565b604085015260101c1660608301614b95565b610fcb60028701614939565b6080820152610fdc60038701614c4b565b60a0820152815201920192019190610eec565b600760209d9e969798999a9b9c9d60019261100986614b15565b8152019301910190919c9b9a9998979695949c610645565b60f81c1515815260200138610601565b92602060019160ff8560f01c16151581520193016105fb565b92602060019160ff8560e81c16151581520193016105f3565b92602060019160ff8560e01c16151581520193016105eb565b92602060019160ff8560d81c16151581520193016105e3565b92602060019160ff8560d01c16151581520193016105db565b92602060019160ff8560c81c16151581520193016105d3565b92602060019160ff8560c01c16151581520193016105cb565b92602060019160ff8560b81c16151581520193016105c3565b92602060019160ff8560b01c16151581520193016105bb565b92602060019160ff8560a81c16151581520193016105b3565b92602060019160ff8560a01c16151581520193016105ab565b92602060019160ff8560981c16151581520193016105a3565b92602060019160ff8560901c161515815201930161059b565b92602060019160ff8560881c1615158152019301610593565b92602060019160ff8560801c161515815201930161058b565b92602060019160ff8560781c1615158152019301610583565b92602060019160ff8560701c161515815201930161057b565b92602060019160ff8560681c1615158152019301610573565b92602060019160ff8560601c161515815201930161056b565b92602060019160ff8560581c1615158152019301610563565b92602060019160ff8560501c161515815201930161055b565b92602060019160ff8560481c1615158152019301610553565b92602060019160ff8560401c161515815201930161054b565b92602060019160ff8560381c1615158152019301610543565b92602060019160ff8560301c161515815201930161053b565b92602060019160ff8560281c1615158152019301610533565b92602060019160ff85831c161515815201930161052b565b92602060019160ff8560181c1615158152019301610523565b92602060019160ff8560101c161515815201930161051b565b92602060019160ff8560081c1615158152019301610513565b92602060019160ff85161515815201930161050b565b916020919350610400600191865460ff81161515825260ff8160081c1615158583015260ff8160101c161515604083015260ff8160181c161515606083015260ff8160808282891c16151581860152828260281c16151560a0860152828260c092828260301c16151584890152828260381c16151560e0890152828260401c161515610100890152828260481c161515610120890152828260501c161515610140890152828260581c161515610160890152828260601c161515610180890152828260681c1615156101a0890152828260701c1615156101c0890152828260781c1615156101e08901521c161515610200860152828260881c161515610220860152828260901c161515610240860152828260981c161515610260860152828260a01c161515610280860152828260a81c1615156102a0860152828260b01c1615156102c0860152828260b81c1615156102e08601521c16151561030083015260ff8160c81c16151561032083015260ff8160d01c16151561034083015260ff8160d81c16151561036083015260ff8160e01c16151561038083015260ff8160e81c1615156103a083015260ff8160f01c1615156103c083015260f81c15156103e08201520194019201849293916104f3565b634e487b7160e01b8a52604160045260248afd5b634e487b7160e01b8a52602160045260248afd5b634e487b7160e01b89526041600452602489fd5b634e487b7160e01b84526041600452602484fd5b503461016857602036600319011261016857600435906127108210156115c2575060031b60018101546002820154916115b861159a600560068401549301614a1c565b60405194859485526020850152608060408501526080840190614529565b9060608301520390f35b634e487b7160e01b81526032600452602490fd5b50346101685780600319360112610168576201388280546115f6816135de565b91611604604051938461358c565b81835283526020808420849184015b8383106117995785856201388380549061162c826135de565b9361163a604051958661358c565b82855260208501918152602081209080925b8484106116815761166f8661167d896040519384936040855260408501906146fc565b9083820360208501526146fc565b0390f35b60405161168d8161351f565b61169b60ff85541682614b89565b600184015460208201526002840180546116b4816135de565b916116c2604051938461358c565b8183528552602080862090869084015b83821061173d575050505060019282602092604060069501526003870154606082015261170160048801614a1c565b608082015260ff6005880154818116151560a0840152818160081c16151560c084015260101c16151560e082015281520193019301929161164c565b6009602060019260405161175081613504565b8654815261176960ff86890154818116610f9a816145b8565b61177560028801614939565b608082015261178660038801614c4b565b60a08201528152019301910190916116d2565b6040516117a58161351f565b6117b360ff84541682614b89565b600183015460208201526002830180546117cc816135de565b916117da604051938461358c565b81835289526020808a20908a9084015b838210611855575050505060019282602092604060069501526003860154606082015261181960048701614a1c565b608082015260ff6005870154818116151560a0840152818160081c16151560c084015260101c16151560e0820152815201920192019190611613565b6009602060019260405161186881613504565b8654815261188160ff86890154818116610f9a816145b8565b61188d60028801614939565b608082015261189e60038801614c4b565b60a08201528152019301910190916117ea565b5034610168576020366003190112610168576020906040906001600160a01b036118d96135af565b1681526201388683522054604051908152f35b50346101685780600319360112610168576202711c80546001600160a01b031916331790556202711f805460ff19166001908117909155604051909190819061193481613556565b52906201388280546000825580611bf7575b508252818060405161195781613556565b52611be3576201388380546000825580611b6c575b5082526040519061197c8261353b565b808252825b6020808210156119f1576040516020929161199b82613504565b868252868183015286604083015260608781840152608090808285015280604051926119c684613504565b8184528185850152816040850152818085015283015260a09081830152830152828601015201611981565b84611b698585604051611a0381613556565b848152604051611a1281613556565b858152604051611a2181613556565b868152604051611a3081613556565b878152604051611a3f81613556565b88815260405191611a4f83613556565b89835260405193611a5f85613556565b8a855260405195611a6f87613504565b8652602086015260408501526060840152608083015260a082015260405191611a9783613504565b86835260036020840152866040840152866060840152608083015260a0820152611ac0836152b1565b52611aca826152b1565b50611b1c604051611ada8161351f565b6004815260076020820152836040820152856060820152604051611afd81613556565b86815260808201528260a08201528260c08201528260e0820152615eb2565b60405191611b298361351f565b60028352600760208401526040830152836060830152604051611b4b81613556565b84815260808301528060a083015260c08201528260e0820152615ef9565b80f35b925060068381029381850403611bcd5760009382855260208520908101905b818110611b9957505061196c565b80868492558686820155611baf60028201615503565b866003820155611bc160048201615377565b86600582015501611b8b565b634e487b7160e01b600052601160045260246000fd5b634e487b7160e01b82526041600452602482fd5b925060068381029381850403611bcd5760009382855260208520908101905b818110611c24575050611946565b80868492558686820155611c3a60028201615503565b866003820155611c4c60048201615377565b86600582015501611c16565b50346101685780600319360112610168576020604051338152f35b503461016857806003193601126101685760206202712254604051908152f35b503461016857602036600319011261016857600435906127108210156115c25761167d611cc560048460031b0161498a565b60405191829160208352602083019061457b565b50346101685780600319360112610168576040518091826201388180548085526020809501918452848420935b85828210611d3157505050611d1d9250038361358c565b61167d60405192828493845283019061457b565b85546001600160a01b0316845260019586019588955093019201611d06565b5034610168576020908160031936011261016857604090611d6f6135af565b8160608451611d7d816134d3565b82815286810183905285810182905201526001600160a01b031681526201388083522060405190611dad826134d3565b611e1381549160ff83161515845260ff8585019360081c16151583526002611dd760018301614a1c565b916040860192835201549260608501938452604051958695818752511515908601525115156040850152516080606085015260a0840190614529565b905160808301520390f35b503461016857806003193601126101685760206202712354604051908152f35b5034610168576020366003190112610168576020611e5d60043561db4d565b611e6a604051809261456e565bf35b5034610168576040366003190112610168576004356001600160401b038111612ffb57611e9d9036906004016135f5565b6024356001600160401b038111612ff757611ebc903690600401613902565b6202711f8054600260ff8216611ed18161454e565b14612fb25760ff191660021790556202712354600181018111612f9e576001810162027123558391845b8451811015611f5057836002611f1a611f1484896152f4565b5161d9e9565b50015410611f31575b611f2c906152a2565b611efb565b9250611f2c6002611f45611f1486886152f4565b500154939050611f23565b509093918291825b8551811015611fa757846003611f71611f14848a6152f4565b50015410611f88575b611f83906152a2565b611f58565b9350611f836003611f9c611f1487896152f4565b500154949050611f7a565b506001909501825262027120602090815260408320865181546001600160a01b0319166001600160a01b039190911617815595015180519295919290600160401b82116124d9576001830154826001850155808310612de2575b50602060019101920186526020862086925b82841061251557505050506120288351615e00565b62027123548552620271206020526004604086200181519160018060401b0383116124d95760209061205a8484615343565b0190865260208620865b83811061250157505050506120798351615e00565b62027123548552620271206020526003604086200181519160018060401b0383116124d9576020906120ab8484615343565b0190865260208620865b8381106124ed57505050506120ca8351615e00565b62027123548552620271206020526005604086200181519160018060401b0383116124d9576020906120fc8484615343565b0190865260208620865b8381106124c5575050505061211b90426165f0565b62027123548552620271206020526006604086200155156124855761215590620271235484526202712060205260066040852001546165f0565b60076040852001551561244257620271235482526202712060205260086040832001600260ff1982541617905561218c8151615e00565b62027123548352620271206020526002604084200181519160018060401b03831161242e576020906121be8484615343565b0190845260208420845b83811061241a578585815b815181101561223157806122276121ed61222c93856152f4565b51620271235486526202712060205261220c836002604089200161c5f4565b90919082549060031b600019811b9283911b16911916179055565b6152a2565b6121d3565b50815b8151811015612416576202712354928381526202712060205261226c612260836002604085200161c5f4565b90549060031b1c61d9e9565b50549161227883615e00565b92825b8181106123cf5750508182905b84518210156123a45761229b82866152f4565b516127108110156123905760031b600101546122b783876152f4565b5161271081101561237c5760031b600601546122d291616750565b9015612338576122e1916165f0565b9190156122f7576122f1906152a2565b90612288565b60405162461bcd60e51b8152602060048201526019602482015278746f74616c566f74696e67506f776572206f766572666c6f7760381b6044820152606490fd5b606460405162461bcd60e51b815260206004820152602060248201527f63757272656e74436c617373566f74696e67506f776572206f766572666c6f776044820152fd5b634e487b7160e01b86526032600452602486fd5b634e487b7160e01b85526032600452602485fd5b90506123ca935061222791929586526202712060205261220c836005604089200161c5f4565b612234565b61241190878552620271206020526123fa816123f461226087600260408b200161c5f4565b5061c5f4565b90549060031b1c61240b82886152f4565b526152a2565b61227b565b8280f35b6001906020845194019381840155016121c8565b634e487b7160e01b85526041600452602485fd5b60405162461bcd60e51b815260206004820152601b60248201527a657865637574696e6720656e642074696d65206f766572666c6f7760281b6044820152606490fd5b60405162461bcd60e51b8152602060048201526018602482015277766f74696e6720656e642074696d65206f766572666c6f7760401b6044820152606490fd5b600190602084519401938184015501612106565b634e487b7160e01b87526041600452602487fd5b6001906020845194019381840155016120b5565b600190602084519401938184015501612064565b805180518354602083015190916001600160a01b0316906022811015612dce576001600160a81b03199092161760a09190911b60ff60a01b161783556040015180518051906001600160401b0382116128f357602060018601916125798484615343565b01908b5260208b208b5b838110612dba575050505060208101518051906001600160401b0382116128f357602060028601916125b58484615343565b01908b5260208b208b5b838110612d9d57505050506003830160408201519060208251926125e384846153fd565b01908b5260208b20908b905b838210612c875750505050606081015180516001600160401b0381116128f35760206004860192612620838561d971565b01918b5260208b20908b5b8160051c8110612c515750601f1981168103612c13575b5050506080810151805190600160401b82116128f3576005850154826005870155808310612b99575b5060200190600585018b5260208b20918b905b8282106129ad575050505060a0810151805190600160401b82116128f3576006850154826006870155808310612925575b50602001600685018b5260208b20908b905b838210612907575050505060c081015180516001600160401b0381116128f357602060078601926126f2838561d971565b01918b5260208b20908b5b8160051c81106128bb5750601f1981168103612876575b5050506008830160e08201519060208251926127308484615480565b01908b5260208b20908b905b8382106128055750505050610100600984019101519060208251926127618484615480565b01908a5260208a20908a905b83821061278b5750505050600a602060019201920193019290612013565b80518051906001600160401b0382116127f1578460208f926127ad8584615343565b0191528d60208120905b8381106127d457505050506001602081920193019101909161276d565b82516001600160a01b0316818301556020909201916001016127b7565b634e487b7160e01b8e52604160045260248efd5b80518051906001600160401b0382116128625760208f916128268488615343565b019085815260208120905b83811061284e57505050506001602081920193019101909161273c565b600190602084519401938184015501612831565b634e487b7160e01b8f52604160045260248ffd5b8b928c5b601f1983168303811061289657505060051c0155388080612714565b909360206128b2600192848851916128ad836145b8565b61d9d5565b9501910161287a565b8c8d5b602081106128d35750838201556001016126fd565b949060206128ea600192888551916128ad836145b8565b920195016128be565b634e487b7160e01b8b52604160045260248bfd5b600660208261291960019451876155ea565b019301910190916126c1565b600681810204810361299957600683810204830361299957600686018c5260208c208360060281015b8d8360060283018210612963575050506126af565b9081600692825580600183015561297c60028301615503565b80600383015561298e60048301615377565b60058201550161294e565b634e487b7160e01b8c52601160045260248cfd5b805180518051906001600160401b038211612b70578f906020906129d1848a615343565b019087815260208120905b838110612b855750505050602081015160018601556040810151600286015560608101516003860155612a2960048601612a1c60808401511515826155c1565b60a08301511515906155d2565b60c08101518051906001600160401b038211612b70578f90612a4e60058901546149e2565b601f8111612b32575b50602091601f8411600114612ab9576007948460209560019895612aa29560e09592612aae575b5050600019600383901b1c191690881b1760058b01555b01511515600689016155c1565b0194019101909261267e565b015190503880612a7e565b919060058901835260208320925b601f1985168110612b1a5750600794600185819895612aa29560e095602099601f19811610612b01575b505050811b0160058b0155612a95565b015160001960f88460031b161c19169055388080612af1565b91926020600181928685015181550194019201612ac7565b612b609060058a01845260208420601f860160051c81019160208710612b66575b601f0160051c0190615308565b38612a57565b9091508190612b53565b50634e487b7160e01b8f52604160045260248ffd5b6001906020845194019381840155016129dc565b600781810204810361299957600783810204830361299957600586018c5260208c208360070281015b8d8360070283018210612bd75750505061266b565b90600791612be48261531f565b806001830155806002830155806003830155806004830155612c0860058301615377565b600682015501612bc2565b8b928c5b601f19831683038110612c3357505060051c0155388080612642565b90936020612c4860019284885115159161d9d5565b95019101612c17565b8c8d5b60208110612c6957508382015560010161262b565b94906020612c7e60019288855115159161d9d5565b92019501612c54565b80518051906001600160401b038211612862578e90612ca686546149e2565b91601f92838111612d65575b506020928411600114612cfb57928060209360019693879692612cf0575b5050600019600383901b1c191690841b1786555b019301910190916125ef565b015190503880612cd0565b9190601f19841687845260208420935b818110612d4d5750936020936001969387969383889510612d34575b505050811b018655612ce4565b015160001960f88460031b161c19169055388080612d27565b92936020600181928786015181550195019301612d0b565b612d8e9088835260208320600586808901821c83019360208a10612d94575b01901c0190615308565b38612cb2565b93508293612d84565b82516001600160a01b0316818301556020909201916001016125bf565b600190602084519401938184015501612583565b634e487b7160e01b8c52602160045260248cfd5b600a818102048103612f8a57600a838102048303612f8a576001840188526020882083600a0281015b82600a0282018110612e1e575050612001565b898155612e2d6001820161531f565b612e396002820161531f565b612e45600382016153c3565b612e57600482018054908c815561d94c565b60058101548a600583015580612f23575b5060068101548a600683015580612eae575b5080612e906007600a93018054908d815561d94c565b612e9c60088201615446565b612ea860098201615446565b01612e0b565b6006818102048103612f0f57600682018b5260208b20906006028101905b818110612ed95750612e7a565b808c600692558c6001820155612ef160028201615503565b8c6003820155612f0360048201615377565b8c600582015501612ecc565b634e487b7160e01b8b52601160045260248bfd5b6007818102048103612f0f57600582018b5260208b20906007028101905b818110612f4e5750612e68565b80612f5a60079261531f565b8c60018201558c60028201558c60038201558c6004820155612f7e60058201615377565b8c600682015501612f41565b634e487b7160e01b88526011600452602488fd5b634e487b7160e01b84526011600452602484fd5b60405162461bcd60e51b815260206004820152601d60248201527f766f74696e6720697320616c726561647920696e2070726f67726573730000006044820152606490fd5b8280fd5b5080fd5b5034610168576040366003190112610168576004356024356001600160a01b03811690819003612ff75761271082101561304d579160036040926020948352811b0183522054604051908152f35b634e487b7160e01b83526032600452602483fd5b5034610168578060031936011261016857602060ff6202711f5416604051906130898161454e565b8152f35b5034610168576040366003190112610168576130a76135af565b602480356001600160401b0381116133be576130c790369060040161379c565b92600260ff6202711f54166130db8161454e565b0361337e5762027122544210156133405760018060a01b03831693848252620271219360209480865260408420926202712391825494858752885260ff604087205416613302578151948652620271209485895260026040882001540361329c57855b825181101561327a5761315181846152f4565b51156131fc57866131a68a61220c8460408b8a54948588528181526131978d61319186613185818d6003998a91200161c5f4565b905490881b1c9261da09565b906165f0565b969098525260408d200161c5f4565b156131b9576131b4906152a2565b61313e565b60405162461bcd60e51b8152600481018a9052601c818a01527b766f74696e6720666f7220706f776572596573206f766572666c6f7760201b6044820152606490fd5b8661322a8a61220c8460408b8a54948588528181526131978d61319186613185818d6003998a91200161c5f4565b15613238576131b4906152a2565b60405162461bcd60e51b8152600481018a9052601b818a01527a766f74696e6720666f7220706f7765724e6f206f766572666c6f7760281b6044820152606490fd5b8987528189526040808820855489528a528720805460ff191660011790558680f35b60405162461bcd60e51b8152600481018990526039818901527f746865206e756d626572206f6620766f74657320646f6573206e6f74206d6174604482015278636820746865206e756d626572206f6620706f6c696369657360381b6064820152608490fd5b60405162461bcd60e51b815260048101899052601781890152761d9bdd195c881a185cc8185b1c9958591e481d9bdd1959604a1b6044820152606490fd5b60405162461bcd60e51b815260206004820152601781840152761d9bdd1a5b99c81c195c9a5bd9081a185cc8195b991959604a1b6044820152606490fd5b60405162461bcd60e51b81526020600482015260198184015278766f74696e67206973206e6f7420696e2070726f677265737360381b6044820152606490fd5b8380fd5b506020366003190112610168576004356001600160401b038111612ffb576133ee903690600401613902565b805190916001600160a01b039161343790831661342f6134156134103361e7b1565b61517c565b6134296134248789511661e7b1565b6151de565b90615231565b903314615272565b9060208301915b825180518210156134955790612227613490928461345d8433936152f4565b5151161461348a6134706134103361e7b1565b61342961342488613482888c516152f4565b51511661e7b1565b90615272565b61343e565b61167d6134a186615f90565b604051918291602083526020830190614529565b905034612ffb5781600319360112612ffb576020906202711d548152f35b608081019081106001600160401b038211176134ee57604052565b634e487b7160e01b600052604160045260246000fd5b60c081019081106001600160401b038211176134ee57604052565b61010081019081106001600160401b038211176134ee57604052565b604081019081106001600160401b038211176134ee57604052565b602081019081106001600160401b038211176134ee57604052565b606081019081106001600160401b038211176134ee57604052565b601f909101601f19168101906001600160401b038211908210176134ee57604052565b600435906001600160a01b03821682036135c557565b600080fd5b35906001600160a01b03821682036135c557565b6001600160401b0381116134ee5760051b60200190565b81601f820112156135c55780359161360c836135de565b9261361a604051948561358c565b808452602092838086019260051b8201019283116135c5578301905b828210613644575050505090565b81358152908301908301613636565b81601f820112156135c55780359161366a836135de565b92613678604051948561358c565b808452602092838086019260051b8201019283116135c5578301905b8282106136a2575050505090565b8380916136ae846135ca565b815201910190613694565b81601f820112156135c5578035906001600160401b0382116134ee57604051926136ed601f8401601f19166020018561358c565b828452602083830101116135c557816000926020809301838601378301015290565b9080601f830112156135c557813590613727826135de565b92613735604051948561358c565b828452602092838086019160051b830101928084116135c557848301915b8483106137635750505050505090565b82356001600160401b0381116135c5578691613784848480948901016136b9565b815201920191613753565b359081151582036135c557565b81601f820112156135c5578035916137b3836135de565b926137c1604051948561358c565b808452602092838086019260051b8201019283116135c5578301905b8282106137eb575050505090565b8380916137f78461378f565b8152019101906137dd565b9080601f830112156135c55781359061381a826135de565b92613828604051948561358c565b828452602092838086019160051b830101928084116135c557848301915b8483106138565750505050505090565b82356001600160401b0381116135c5578691613877848480948901016135f5565b815201920191613846565b9080601f830112156135c55781359061389a826135de565b926138a8604051948561358c565b828452602092838086019160051b830101928084116135c557848301915b8483106138d65750505050505090565b82356001600160401b0381116135c55786916138f784848094890101613653565b8152019201916138c6565b9190826040918161020052806102c05203126135c55760408051929083016001600160401b038111848210176134ee5760405261393f83916135ca565b83526102005160208101356103408190526001600160401b0381116135c5576102c051910190601f820112156135c557359161397a836135de565b613987604051918261358c565b83815260208101610380526102c0516103405161020051019060208660051b830101116135c55760200193925b61034051610200510160208560051b8201018610156144fa578535906001600160401b0382116135c5578181016101c0526060601f198383016102c0510301126135c5576040516102208190529160608301906001600160401b038211848310176144e557613a2a9260209260405201016135ca565b905260406101c051013560228110156135c55761022051602001526101c05160608101356103608190526001600160401b03106135c5576102c051610120606083013583018203601f1901126135c5576040516103a08190526001600160401b036101208201908111908211176144e557610120016040526001600160401b036060830135830160200135116135c557613ad391606081013501602081810135909101016135f5565b6103a05152610360516101c051016040810135906001600160401b0382116135c5576020613b07926102c051920101613653565b6103a05160200152610360516101c051016001600160401b036060820135116135c5576102c051613b409160608101350160200161370f565b6103a05160400152610360516101c051016080810135906001600160401b0382116135c5576020613b77926102c05192010161379c565b6103a05160600152610360516101c05101956001600160401b0360a0880135116135c5576102c051603f60a089013589010112156135c557613bc2602060a0890135890101356135de565b93613bd0604051958661358c565b60a08801358089016020908101358088526102c051610360516101c051938a01989493019092019160059190911b8201604001116135c557604001945b610360516101c0510160a08b0135908101908b016020013560051b8101604001871015613daf576001600160401b038735116135c55761010090603f19908835016102c0510301126135c557604051613c658161351f565b610360516101c0510160a08c013501873501916001600160401b036040840135116135c557613ca18c9360406102c051918181013501016135f5565b82526060883560a0850135610360516101c051010101013560208301526080883560a0850135610360516101c0510101010135604083015260a0883581850135610360516101c0510101010135606083015260c091613d12838a3560a0870135610360516101c0510101010161378f565b6080820152613d3660e0809560a08c35910135610360516101c0510101010161378f565b60a082810191909152610360516101c05101908e013501893501936101008501356001600160401b0381116135c5576101208f60209796613d8489986040613da0966102c0519201016136b9565b9086015260a08d35910135610360516101c0510101010161378f565b90820152815201950194613c0d565b5050949196975094925060806103a0510152610360516101c0510160c08101356102605260018060401b0360c0820135116135c5576102c0519060c08101350190603f820112156135c557613e0f6020613e1c920135806102a0526135de565b604051806102405261358c565b610240516102a051905260206102405101610300526102c0516102a05160051b90604061026051610360516101c051010192830101116135c5576040016102805292939092905b6102a05160051b61026051610360516101c051010190604061028051918301018110156143675780356101e08190526001600160401b03106135c55761010091603f199135016102c0510301126135c557613ec4604051806102e05261351f565b60406101e05161026051610360516101c051010101013560068110156135c5576102e0515260606101e05161026051610360516101c051010101013560206102e05101526101e05161026051610360516101c0510101019460018060401b036080870135116135c5576102c051605f608088013588010112156135c557613f64613f5760406080890135890101356135de565b604051806103205261358c565b61032080516080880135808901604001359182905291516102c0516101e05161026051610360516101c0516020959095019a96940101019091019160051b8201606001116135c557606001945b6101e05161026051610360516101c05101010160808901359081019089016040013560051b8101606001871015614256578635906001600160401b0382116135c55701605f1960c081836102c0510301126135c5576040519161401383613504565b60608101358352608081013560058110156135c557602084015260a081013560048110156135c557604084015260c081013560338110156135c557606084015260e08101356001600160401b0381116135c5576102c0516140789183016060016135f5565b6080840152610100810135916001600160401b0383116135c55760c0908383016102c0510301126135c557604051916140b083613504565b818101606001356001600160401b0381116135c5576102c0516140d991848401016060016135f5565b8352818101608001356001600160401b0381116135c5576102c0516141049184840101606001613653565b602084015281810160a001356001600160401b0381116135c5576102c051614132918484010160600161370f565b604084015281810160c001356001600160401b0381116135c5576102c0516141609184840101606001613802565b60608401526001600160401b0382820160e00135116135c5576102c0516141929083830160e081013501606001613882565b60808401528181016101000135906001600160401b0382116135c5576102c05192010190607f820112156135c5576060810135906141cf826135de565b916141dd604051938461358c565b808352602083019160806102c0519260051b8201019182116135c55760808101925b828410614224575050505060a080830191909152820152815260209586019501613fb1565b83356001600160401b0381116135c55760209161424b839260806102c0519187010161370f565b8152019301926141ff565b5050935093919094506103205160406102e051015260a06101e05161026051610360516101c051010101013560606102e05101526101e05161026051610360516101c05101010160018060401b0360c0820135116135c5576102c0516142c49160c0810135016040016136b9565b60806102e051015260e06142eb816101e05161026051610360516101c0510101010161378f565b60a06102e05101526143126101006101e05161026051610360516101c0510101010161378f565b60c06102e05101526143396101206101e05161026051610360516101c0510101010161378f565b906102e05101526102e051610300515260206103005101610300526020610280510161028052909293613e63565b5050610240516103a05160a00152610360516101c05193969495929301906001600160401b0360e0830135116135c5576102c0519560e0830135830196603f880112156135c5576143bb60208801356135de565b946143c9604051968761358c565b6020888101358088526102c051610360516101c051938a0198930160e0880135019160051b8201604001116135c557604001955b604060208b013560051b60e0880135610360516101c05101010101871015614439576005873510156135c55786358152602096870196016143fd565b509592989450959250955060c06103a0510152610360516101c051019061010091828101359060018060401b0382116135c557602061447e926102c051920101613802565b6103a05160e00152610360516101c05101916101208301356001600160401b0381116135c5576102c0516020946144b792018501613882565b906103a05101526103a0516040610220510152610220516103805152816103805101610380520193926139b4565b60246000634e487b7160e01b81526041600452fd5b50602090950152915050565b60005b8381106145195750506000910152565b8181015183820152602001614509565b9060209161454281518092818552858086019101614506565b601f01601f1916010190565b6004111561455857565b634e487b7160e01b600052602160045260246000fd5b9060038210156145585752565b90815180825260208080930193019160005b82811061459b575050505090565b83516001600160a01b03168552938101939281019260010161458d565b6005111561455857565b90815180825260208080930193019160005b8281106145e2575050505090565b8351855293810193928101926001016145d4565b908082519081815260208091019281808460051b8301019501936000915b8483106146245750505050505090565b9091929394958480614642600193601f198682030187528a51614529565b9801930193019194939290614614565b90815180825260208092019182818360051b82019501936000915b84831061467d5750505050505090565b909192939495848061469783856001950387528a516145c2565b980193019301919493929061466d565b90815180825260208092019182818360051b82019501936000915b8483106146d25750505050505090565b90919293949584806146ec83856001950387528a5161457b565b98019301930191949392906146c2565b9080602083519182815201906020808260051b8501019401926000905b82821061472857505050505090565b9091929394601f198282030185528551906101008082018351600681101561455857835260208401516020840152604084015191604084015281518091526101206020818501918360051b86010193019160005b8181106147e257505050506001926020926147af8493606080850151908401526080808501519084830390850152614529565b9160a08082015115159083015260c08082015115159083015260e080910151151591015297019501920190929192614719565b9091929361011f9c9b9c19868203018452845190815181526020820151614808816145b8565b6020820152604082015161481b8161454e565b60408201526060820151603381101561455857606082015260a061484e608084015160c0608085015260c08401906145c2565b9201519060a081840391015260a06148c36148b161489f61488d61487b865160c0895260c08901906145c2565b602087015188820360208a015261457b565b604086015187820360408901526145f6565b60608501518682036060880152614652565b608084015185820360808701526146a7565b9101519160a081830391015281519081815260208101906020808460051b8301019401926000915b81831061490e5750505050506020806001929e9d9e96019401910191909161477c565b909192939460208061492c600193601f1986820301895289516145f6565b97019501930191906148eb565b9060405191828154918282526020928383019160005283600020936000905b8282106149705750505061496e9250038361358c565b565b855484526001958601958895509381019390910190614958565b9060405191828154918282526020928383019160005283600020936000905b8282106149bf5750505061496e9250038361358c565b85546001600160a01b0316845260019586019588955093810193909101906149a9565b90600182811c92168015614a12575b60208310146149fc57565b634e487b7160e01b600052602260045260246000fd5b91607f16916149f1565b9060405191826000825492614a30846149e2565b908184526001948581169081600014614a9d5750600114614a5a575b505061496e9250038361358c565b9093915060005260209081600020936000915b818310614a8557505061496e93508201013880614a4c565b85548884018501529485019487945091830191614a6d565b91505061496e94506020925060ff191682840152151560051b8201013880614a4c565b908154614acc816135de565b92614ada604051948561358c565b818452600090815260208082208186015b848410614af9575050505050565b6001838192614b0785614a1c565b815201920193019290614aeb565b90604051614b228161351f565b60e060ff60068395614b3381614939565b85526001810154602086015260028101546040860152600381015460608601528260048201548181161515608088015260081c16151560a0860152614b7a60058201614a1c565b60c08601520154161515910152565b60068210156145585752565b60338210156145585752565b908154614bad816135de565b92614bbb604051948561358c565b818452600090815260208082208186015b848410614bda575050505050565b6001838192614be885614939565b815201920193019290614bcc565b908154614c02816135de565b92614c10604051948561358c565b818452600090815260208082208186015b848410614c2f575050505050565b6001838192614c3d8561498a565b815201920193019290614c21565b9060405191614c5983613504565b82614c6382614939565b815260016005614c7482850161498a565b9360209485850152614c8860028201614ac0565b6040850152614c9960038201614ba1565b6060850152614caa60048201614bf6565b608085015201805490614cbc826135de565b94614cca604051968761358c565b82865260009182528082208187015b848410614cec5750505050505060a00152565b85838192614cf985614ac0565b815201920193019290614cd9565b906020604082019260018060a01b0381511683520151916040602083015282518091526060820190602060608260051b8501019401926000905b828210614d5057505050505090565b9091929394605f19828203018552855160018060a01b038151168252602081015190602282101561455857604091602084015201519060606040820152614dd7614dc1614dab845161012060608601526101808501906145c2565b6020850151848203605f1901608086015261457b565b6040840151838203605f190160a08501526145f6565b606083015190605f198382030160c0840152602080835192838152019201906000905b80821061516257505050608083015190605f198382030160e0840152815180825260208201906020808260051b85010194019260005b8281106150d757505050505060a083015190605f1983820301610100840152815190818152602081016020808460051b8401019401926000925b818410614f1057505050505060c083015190605f1983820301610120840152602080835192838152019201906000905b808210614eef57505050614ee283602093610100614ecc869560e06001990151605f1985830301610140860152614652565b92015190610160605f19828503019101526146a7565b9701950193920190614d41565b9091926020806001928651614f03816145b8565b8152019401920190614e9a565b9091929394601f9d9c9d1982820301845285519081516006811015614558578152602082015160208201526040820151610100604083015261010082018151809152610120830160206101208360051b8601019301916000905b808210614fd157505050509d9e9d8260209260e080614fa2869560606001990151606086015260808601518582036080870152614529565b9360a0810151151560a085015260c0810151151560c08501520151151591015297019401940192939190614e6a565b9091929361011f19868203018452845190815181526020820151614ff4816145b8565b602082015260408201516150078161454e565b60408201526060820151603381101561455857606082015260a061503a608084015160c0608085015260c08401906145c2565b9201519060a081840391015260a06150676148b161489f61488d61487b865160c0895260c08901906145c2565b9101519160a0818303910152815180825260208201906020808260051b8501019401926000915b8083106150ac57505050505060208060019296019401920190614f6a565b90919293946020806150ca600193601f1987820301895289516145f6565b970195019301919061508e565b9091929394602080600192601f1986820301885288519060e08061514d61510785516101008087528601906145c2565b8686015187860152604086015160408601526060860151606086015260808601511515608086015260a0860151151560a086015260c086015185820360c0870152614529565b93015115159101529701950193929101614e30565b909192602080600192865115158152019401920190614dfa565b9061496e604560405180947f496e76616c69642070726f6772616d20616464726573732e204d73672e73656e60208301526403232b91d160dd1b60408301526151ce8151809260208686019101614506565b810103602581018552018361358c565b9061496e6040805180947f2c20616e642070726f6772616d206f70657261746f7220616464726573733a2060208301526152218151809260208686019101614506565b810103602081018552018361358c565b602061496e9193929360405194816152528793518092868087019101614506565b820161526682518093868085019101614506565b0103808552018361358c565b1561527a5750565b60405162461bcd60e51b81526020600482015290819061529e906024830190614529565b0390fd5b6000198114611bcd5760010190565b8051156152be5760200190565b634e487b7160e01b600052603260045260246000fd5b8051600110156152be5760400190565b8051600210156152be5760600190565b80518210156152be5760209160051b010190565b818110615313575050565b60008155600101615308565b8054600082558061532e575050565b61496e91600052602060002090810190615308565b90600160401b81116134ee5781549080835581811061536157505050565b61496e9260005260206000209182019101615308565b61538181546149e2565b908161538b575050565b81601f6000931160011461539d575055565b818352602083206153b991601f0160051c810190600101615308565b8160208120915555565b80549060008155816153d3575050565b6000526020600020908101905b8181106153eb575050565b806153f7600192615377565b016153e0565b90600160401b81116134ee5781549181815582821061541b57505050565b600052602060002091820191015b818110615434575050565b80615440600192615377565b01615429565b8054906000815581615456575050565b6000526020600020908101905b81811061546e575050565b8061547a60019261531f565b01615463565b90600160401b81116134ee5781549181815582821061549e57505050565b600052602060002091820191015b8181106154b7575050565b806154c360019261531f565b016154ac565b80549060008155816154d9575050565b6000526020600020908101905b8181106154f1575050565b806154fd6001926153c3565b016154e6565b805460008083558161551457505050565b60099282840292848404036155a057815260208120918201915b82811061553b5750505050565b80828592558260018201556155526002820161531f565b61555e6003820161531f565b61556a6004820161531f565b615576600582016153c3565b61558260068201615446565b61558e60078201615446565b61559a600882016154c9565b0161552e565b634e487b7160e01b82526011600452602482fd5b5160068110156145585790565b9060ff801983541691151516179055565b9061ff00825491151560081b169061ff001916179055565b815160068110156145585760ff8019835416911617815560208201516001820155600281016040830151805190600160401b82116134ee578254828455808310615d61575b506020019160005260206000206000925b82841061579f5750505050606082015160038201556080820151805160048301916001600160401b0382116134ee5761567983546149e2565b601f811161576d575b50602090601f83116001146156ff5791806005949260e096946000926156f4575b50508160011b916000199060031b1c19161790555b01916156ca60a08201511515846155c1565b6156da60c08201511515846155d2565b0151815462ff0000191690151560101b62ff000016179055565b0151905038806156a3565b90601f198316918460005260206000209260005b818110615755575092600192859260e09896600598961061573c575b505050811b0190556156b8565b015160001960f88460031b161c1916905538808061572f565b92936020600181928786015181550195019301615713565b61579990846000526020600020601f850160051c81019160208610612b6657601f0160051c0190615308565b38615682565b80518051835560208101516157b3816145b8565b6157bc816145b8565b600184019081546040840151906157d28261454e565b6157db8261454e565b60608501519060338210156145585760ff62ff000061ff009360101b1694169062ffffff1916179160081b1617179055608081015180519060018060401b0382116134ee57602060028601916158318484615343565b0190600052602060002060005b838110615d4d575050505060a0015180518051906001600160401b0382116134ee57602060038601916158718484615343565b0190600052602060002060005b838110615d39575050505060208101518051906001600160401b0382116134ee57602060048601916158b08484615343565b0190600052602060002060005b838110615d1c575050505060058301604082015160208151916158e083856153fd565b019160005260206000206000925b828410615c08575050505060068301606082015160208151916159118385615480565b019160005260206000206000925b828410615baa575050505060078301608082015160208151916159428385615480565b019160005260206000206000925b828410615b43575050505060a00151805190600160401b82116134ee576008840154826008860155808310615b10575b5060200190600884016000526020600020916000905b8282106159b457505050506009602060019201920193019290615640565b805160208151916159c583886153fd565b0190856000526020600020916000905b8282106159f2575050505060016020819201940191019092615996565b80518051906001600160401b0382116134ee57615a0f86546149e2565b90601f91828111615ad6575b506020918311600114615a66579282600194936020938695600092615a5b575b5050600019600383901b1c191690841b1787555b019401910190926159d5565b015190503880615a3b565b908660005260206000209160005b601f1985168110615abe575083602093600196938796938794601f19811610615aa5575b505050811b018755615a4f565b015160001960f88460031b161c19169055388080615a98565b91926020600181928685015181550194019201615a74565b615b01908860005260206000208480870160051c82019260208810615b07575b0160051c0190615308565b38615a1b565b92508192615af6565b600885016000526020600020908382015b8183018110615b31575050615980565b80615b3d6001926153c3565b01615b21565b80518051906001600160401b0382116134ee57602090615b638386615343565b0183600052602060002060005b838110615b8d575050505060016020819201920193019290615950565b82516001600160a01b031681830155602090920191600101615b70565b80518051906001600160401b0382116134ee57602090615bca8386615343565b0183600052602060002060005b838110615bf457505050506001602081920192019301929061591f565b600190602084519401938184015501615bd7565b80518051906001600160401b0382116134ee57615c2584546149e2565b90601f91828111615cec575b506020918311600114615c7c579282600194936020938695600092615c71575b5050600019600383901b1c191690841b1785555b019201930192906158ee565b015190503880615c51565b908460005260206000209160005b601f1985168110615cd4575083602093600196938796938794601f19811610615cbb575b505050811b018555615c65565b015160001960f88460031b161c19169055388080615cae565b91926020600181928685015181550194019201615c8a565b615d16908660005260206000208480870160051c82019260208810615b07570160051c0190615308565b38615c31565b82516001600160a01b0316818301556020909201916001016158bd565b60019060208451940193818401550161587e565b60019060208451940193818401550161583e565b6009908082029082820403611bcd578382028281048503611bcd576000908682526020822092830192015b828110615d9b5750505061562f565b8082859255826001820155615db26002820161531f565b615dbe6003820161531f565b615dca6004820161531f565b615dd6600582016153c3565b615de260068201615446565b615dee60078201615446565b615dfa600882016154c9565b01615d8c565b90615e0a826135de565b615e17604051918261358c565b8281528092615e28601f19916135de565b0190602036910137565b6201388380548210156152be576000526006602060002091020190600090565b6201388280548210156152be576000526006602060002091020190600090565b6202711180548210156152be576000526006602060002091020190600090565b6202711080548210156152be576000526006602060002091020190600090565b620138828054600160401b8110156134ee57615ed391600182019055615e52565b919091615ee35761496e916155ea565b634e487b7160e01b600052600060045260246000fd5b620138838054600160401b8110156134ee57615ed391600182019055615e32565b620271118054600160401b8110156134ee57615ed391600182019055615e72565b620271108054600160401b8110156134ee57615ed391600182019055615e92565b60405190615f698261353b565b60188252772a343290383937b3b930b69034b99032bc32b1baba32b21760411b6020830152565b600091825b602080840190815180518710156160f75781615fb488615fbb936152f4565b510161661a565b6022928382101561455857601a9182036160695787615fda91516152f4565b51928284015190811015614558570361602757509361601a6160219261601361600d60e060406122279a015101516152b1565b516152b1565b51906165f0565b9590616627565b92615f95565b6064906040519062461bcd60e51b82526004820152601b60248201527a2a34329037b831b7b2329034b9903737ba102820acafa1a0a9a41760291b6044820152fd5b9291905061607f81615fb489869a979a516152f4565b82811015614558576014036160af5750509061601a612227956131916160a98461602196516152f4565b51616673565b6160be90615fb48585516152f4565b90811015614558576015146160d8575b50616021906152a2565b9061601a6160f1956131916160a98461602196516152f4565b906160ce565b50505090925080341060001461616c5760405162461bcd60e51b815260206004820152603760248201527f546865207061796d656e74206973206e6f7420656e6f7567682e205468652074604482015276037ba30b6103830bcb6b2b73a1039b437bab6321031329604d1b6064820152608490fd5b8034116164ff575b506202711f805460ff81166161888161454e565b600181036161b857505050806161a86161a36161ad9361676f565b616783565b61680c565b6161b5615f5c565b90565b6161c18161454e565b6002811480806164f2575b156162a657505050506161de8161676f565b15616267576161ec8161676f565b1561622b576161fa9061680c565b6040516162068161353b565b60158152742a3432903b37ba329034b99032bc32b1baba32b21760591b602082015290565b60405162461bcd60e51b8152602060048201526014602482015273496e76616c696420766f74652070726f6772616d60601b6044820152606490fd5b60405162461bcd60e51b815260206004820152601760248201527624b73b30b634b2103b37ba34b73390383937b3b930b69760491b6044820152606490fd5b6162af8261454e565b600382149182806164e5575b1561638f5750505050506162ce8161676f565b1561633f57806161a86161a36162e39361676f565b6040516162ef81613571565b603a81527f5468652070656e64696e672070726f6772616d2069732065786563757465642060208201527930b33a32b9103b37ba34b7339030b7321030b8383937bb30b61760311b604082015290565b60405162461bcd60e51b815260206004820152602260248201527f496e76616c696420657865637574696e672070656e64696e672070726f677261604482015261369760f11b6064820152608490fd5b6163988161454e565b81806164d7575b806164ca575b156163ca5750505050906161ad91600360ff198254161790556161a86161a38261676f565b6163d38161454e565b82156164b8575b5050806164aa575b616418575050506040516163f58161353b565b6013815272283937b3b930b6903a32b936b4b730ba32b21760691b602082015290565b60ff1916600117905561642a8161676f565b1561643f57806161a86161a36161ad9361676f565b60405162461bcd60e51b815260206004820152603e60248201527f5b4572726f72203030335d5468652070726f6772616d206973206e6f7420612060448201527f76616c696420657865637574652070656e64696e672070726f6772616d2e00006064820152608490fd5b506202711e544210156163e2565b6164c391925061454e565b38806163da565b506202711e5442106163a5565b506202711d5442101561639f565b506202711e5442106162bb565b506202711d5442106161cc565b6165099034616601565b90156165925760018060a01b0390818351166000526165356201388691826020526040600020546165f0565b9290156165515783511660005260205260406000205538616174565b60405162461bcd60e51b81526020600482015260196024820152782a3432903732bb903130b630b731b29037bb32b9333637bb9760391b6044820152606490fd5b60405162461bcd60e51b815260206004820152601c60248201527b2a3432903830bcb6b2b73a103932ba3ab9371037bb32b9333637bb9760211b6044820152606490fd5b90600182019182106165e85760019190565b600091508190565b919082019182106165e85760019190565b9190828111616611576001920390565b50600091508190565b5160228110156145585790565b1561662e57565b60405162461bcd60e51b815260206004820152601f60248201527f54686520746f74616c207061796d656e7420697320746f6f206c617267652e006044820152606490fd5b6000805b604083019060e061668b81845101516152d4565b51518410156166fe576166ab846166a583865101516152d4565b516152f4565b5192510151928351600210156152be576166ef6166ea6166f6936166e36040966166dc8660606122279b01516152f4565b5190616750565b9290616627565b6165f0565b9490616627565b919050616677565b509250505090565b8115616710570490565b634e487b7160e01b600052601260045260246000fd5b90811561674757606461673c8184029384616706565b036165e85760019190565b60019150600090565b919082156167655761673c8184029384616706565b5060019150600090565b60200151511561677e57600190565b600090565b1561678a57565b60405162461bcd60e51b815260206004820152600f60248201526e496e76616c69642070726f6772616d60881b6044820152606490fd5b60809060208152602a60208201527f5468652070726f6772616d2069732064656e6965642062792074686520706c7560408201526967696e2073797374656d60b01b60608201520190565b6168158161bd06565b5161bc9d576006811015614558576003811461bc45578061686e5760405162461bcd60e51b8152602060048201526016602482015275151a19481c1c9bd9dc985b481a5cc81a5b9d985b1a5960521b6044820152606490fd5b600481036189d85750906000905b602083015180518310156189d25782616894916152f4565b5160208101805160229081811015614558571561898f5781518181101561455857600103616aa15750506040809101906168d3610100835101516152b1565b51926168f160e06168e781865101516152b1565b51945101516152d4565b5195616900855185511461cd72565b61690d855188511461cdd7565b60005b8551811015616a2f5761692381866152f4565b5161271090818110156152be57600160ff60076169489360031b01541615151461ce38565b616952828a6152f4565b5161695d83886152f4565b5190828210156152be5760066169789260031b0154906165f0565b9061698384896152f4565b5191838310156152be57600661699d9360031b015561ce8f565b6169a7828a6152f4565b51906169b383886152f4565b51818110156152be576001600160a01b0393926169ee91600390866169d8878e6152f4565b5116600052811b016020528760002054906165f0565b6169f8848a6152f4565b51928310156152be57600361222793616a2a96616a15878e6152f4565b5116600052811b01602052876000205561ceed565b616910565b509392616a4891929650616a429061e370565b9261e277565b945192616a5484613556565b60008452600036813760005b8351811015616a875780612227616a7a616a8293876152f4565b51878a61dc39565b616a60565b5094509260209250616a9991506152a2565b91905061687c565b819592939495518181101561455857600203616e2e5750506040809201908151938385015191616af1616ad860e0809801516152b1565b5196616ae781875101516152d4565b51955101516152e4565b51948351875103616ddc578351855103616d89578351865103616d33575060005b8651811015616d1f57616b2581886152f4565b516127108110156152be57616b4560ff6007809360031b0154161561cf45565b616b4f82896152f4565b516127108110156152be5760031b01805460ff19166001179055616b7381856152f4565b51616b7e82896152f4565b51906127108210156152be5780516001600160401b0381116134ee5780600592616bad848660031b01546149e2565b90601f91828111616ce2575b506020918311600114616c6d57600092616c62575b50508160011b916000199060031b1c1916179160031b01555b616bf181866152f4565b51616bfc82896152f4565b516127108110156152be5760031b60010155616c1881876152f4565b51616c2382896152f4565b516127108110156152be5760031b60020155616c3f81886152f4565b51906127108210156152be5760006006616c5d9360031b01556152a2565b616b12565b015190503880616bce565b9250838560031b016000526020600020906000935b601f1984168510616cc7576001945083601f19811610616cae575b505050811b019160031b0155616be7565b015160001960f88460031b161c19169055388080616c9d565b81810151835560209485019460019093019290910190616c82565b616d1090868860031b01600052602060002084808701891c82019260208810616d16575b01881c0190615308565b38616bb9565b92508192616d06565b50959150935060209250616a9991506152a2565b5162461bcd60e51b815260206004820152603c602482015260008051602061e92083398151915260448201527b1b911a5d9a59195b9915d95a59da1d081a5cc81b9bdd08195c5d585b60221b6064820152608490fd5b5162461bcd60e51b8152602060048201526039602482015260008051602061e9208339815191526044820152781b959bdd1a5b99d41bddd95c881a5cc81b9bdd08195c5d585b603a1b6064820152608490fd5b5162461bcd60e51b8152602060048201526038602482015260008051602061e9208339815191526044820152771b925b99195e105c9c985e481a5cc81b9bdd08195c5d585b60421b6064820152608490fd5b81959293955181811015614558576003036173965750506040840190616e59610100835101516152b1565b5193616e6d60e06168e781865101516152b1565b5193616e7f865185511461348a61e475565b616e8f865186511461348a61e475565b60005b8651811015616eed57616ea581866152f4565b51906127108210156152be576003616ee89260018060a01b038b5116600052811b01602052612227604060002054616edd838a6152f4565b51111561348a61e53c565b616e92565b50909493919460005b855181101561700157616f0981866152f4565b5190612710808310156152be57600360018060a01b0393848c5116600052811b01602052616f47604060002054616f4084896152f4565b5190616601565b90616f52848a6152f4565b5191838310156152be576003616f7d93878f5116600052811b0160205260406000205561348a61e53c565b616f8782886152f4565b51818110156152be5760039084616f9e858c6152f4565b5116600052811b01602052616fbc60406000205461601384896152f4565b616fc6848a6152f4565b51928310156152be57600361222793616ffc96616fe3878e6152f4565b5116600052811b0160205260406000205561348a61e59d565b616ef6565b5091509161701561701b919695949661e370565b9561e277565b92604051946170298661353b565b6001865260203681880137516001600160a01b0316617047866152b1565b526000905b86518210156173835761705f82886152f4565b516102e05261706e8551615e00565b9660009461707c8851615e00565b610120528594865b885181101561713e578a896170af6001600160a01b036170a485846152f4565b51166102e05161e178565b15806170fc575b6170cb575b50506170c6906152a2565b617084565b986170f29161240b82859c6170ea6170c69760018060a01b03926152f4565b5116926152f4565b9790508a896170bb565b5050506127106102e05110156152be576001600160a01b0361711e828b6152f4565b511660005260036102e051811b016020528a8960406000205415156170b6565b509098949897969291939760005b88518110156171d1576127106102e05110156152be576001600160a01b03617174828b6152f4565b511660005260036102e051811b016020526040600020541561719f575b61719a906152a2565b61714c565b9961719a906171c9906001600160a01b036171ba8e8d6152f4565b511661240b82610120516152f4565b9a9050617191565b5098509694939291956102e05161271081101580610180526152be5760031b6004015496617207617202878a61d93f565b615e00565b996000998a6102a0525b610180516152be576102a0518a8110156172b65761724161725d9160006101805260046102e05160031b0161c5f4565b90546101205160039290921b1c6001600160a01b03169061e22a565b15617278575b61726f6102a0516152a2565b6102a052617211565b99808c61240b6172b0936172986102a05160046102e05160031b0161c5f4565b905460039190911b1c6001600160a01b0316926152f4565b99617263565b509a939794969299919850946000915b8383106173515750505050610180516152be578051906001600160401b0382116134ee576020906173008360046102e05160031b01615343565b0160046102e05160031b01600052602060002060005b838110617334575050505061732a906152a2565b909295919561704c565b82516001600160a01b031681830155602090920191600101617316565b61737d90617377906001600160a01b0361736b86866152f4565b511661240b82896152f4565b926152a2565b916172c6565b91945050616a99919450602092506152a2565b8195939492955181811015614558576004036175d65750506040809201610100946173d26173c787845101516152b1565b5196835101516152d4565b51946173e660e06168e781865101516152b1565b51936173f8885188511461348a61e475565b617408885185511461348a61e475565b617418885186511461348a61e475565b60005b88518110156174755761742e81866152f4565b51906127108210156152be57617470916003906001600160a01b03617453848e6152f4565b5116600052811b016020526122278860002054616edd838a6152f4565b61741b565b50909691959294939660005b83518110156175955761749481886152f4565b519061271091828110156152be576001600160a01b0390600390826174b9858a6152f4565b5116600052811b016020526174d78b616f40848b60002054926152f4565b906174e2848c6152f4565b5191858310156152be57600361751593856174fd888d6152f4565b5116600052811b016020528a6000205561348a61e53c565b61751f828a6152f4565b51838110156152be5760039082617536858b6152f4565b5116600052811b016020526175548b616013848b60002054926152f4565b919050617561838b6152f4565b51938410156152be576175909360039161757b858b6152f4565b5116600052811b0160205287600020556152a2565b617481565b50946175b3929750617015919394506175ad9061e370565b9361e277565b9260005b8351811015616a875780612227616a7a6175d193876152f4565b6175b7565b81959493955181811015614558576005036177ba5750506040918285019061761060e061760681855101516152b1565b51935101516152d4565b5192825184510361776a5760005b835181101561766d5761763181856152f4565b51906127108210156152be5760036176689260018060a01b038b5116600052811b016020526122278760002054616edd83896152f4565b61761e565b509092919260005b84518110156176f95761768881866152f4565b5190612710808310156152be57600360018060a01b0393848c5116600052811b016020526176be8860002054616f4084896152f4565b6176c8848a6152f4565b51928310156152be576003612227936176f4968e5116600052811b01602052896000205561348a61e53c565b617675565b5095939261770891925061e370565b918051936177158561353b565b6001855260203681870137516001600160a01b0316617733856152b1565b52519461773f86613556565b60008652600036813760005b8351811015616a875780612227616a7a61776593876152f4565b61774b565b845162461bcd60e51b8152602060048201526035602482015260008051602061e900833981519152604482015274195b905b5bdd5b9d081a5cc81b9bdd08195c5d585b605a1b6064820152608490fd5b819593955181811015614558576006036179ee57505060408092016177e4610100825101516152b1565b51946177f860e061760681855101516152b1565b5192865183510361799e5786518451036179535760005b87518110156178695761782281856152f4565b51906127108210156152be57617864916003906001600160a01b03617847848d6152f4565b5116600052811b016020526122278760002054616edd83896152f4565b61780f565b509092919260005b875181101561790a5761788481866152f4565b51612710808210156152be576001600160a01b039291600390846178a8858e6152f4565b5116600052811b016020526178c58860002054616f4084896152f4565b6178cf848a6152f4565b51928310156152be57600361222793617905966178ed8f88906152f4565b5116600052811b01602052896000205561348a61e53c565b617871565b50959261791c919250616a429061e370565b92519461792886613556565b60008652600036813760005b8351811015616a875780612227616a7a61794e93876152f4565b617934565b845162461bcd60e51b8152602060048201526030602482015260008051602061e96083398151915260448201526f1b9d1cc81a5cc81b9bdd08195c5d585b60821b6064820152608490fd5b845162461bcd60e51b8152602060048201526035602482015260008051602061e8e08339815191526044820152741b90db185cdcd95cc81a5cc81b9bdd08195c5d585b605a1b6064820152608490fd5b8195939295518181101561455857600703617c5a5750506040909391930190617a1c610100835101516152b1565b51936040617a2e60e0855101516152b1565b519351015191617a44865185511461348a61e475565b6000915b8651831015617c47576001600160a01b03617a6384896152f4565b5116600052620138809283602052617a8660ff604060002054161561348a61e50b565b617a9081866152f4565b51617a9b82886152f4565b519060405195617aaa876134d3565b600187526000602088019081526040880192835260608801939093526001600160a01b03617ad8858d6152f4565b5116600052602052617aff604060002092617af688511515856155c1565b511515836155d2565b5180519095906001600160401b0381116134ee57617b2060018401546149e2565b96601f97888111617c14575b506020978211600114617b9a579181606092617b88979899600295600092617b8f575b50508160011b916000199060031b1c19161760018501555b01519101556122276001600160a01b03617b81838b6152f4565b511661c9e9565b9190617a48565b015190503880617b4f565b966001840160005260206000209760005b601f1984168110617bfc575082617b8897989960029593600193606096601f19811610617be3575b505050811b016001850155617b67565b015160001960f88460031b161c19169055388080617bd3565b818301518a5560019099019860209283019201617bab565b617c41906001860160005260206000208a80860160051c82019260208710615b07570160051c0190615308565b38617b2c565b955093905060209250616a9991506152a2565b8195939495519181831015614558576008928303617d2957505061010092617c898460408095015101516152b1565b519460005b8651811015616d1f57617d2490876001600160a01b0380617caf84846152f4565b5116600052617cfe8882617ce486620138809687602052617cdf600160ff8097600020541615151461348a61e4a3565b6152f4565b5116600052836020528960002054891c161561348a61e4d4565b617d08838b6152f4565b5116600052602052856000208761ff00198254161790556152a2565b617c8e565b80518281101561455857600f03617e575750505060400160a09182825101519360005b8551811015617e445760e0617d658287875101516152f4565b51015115617de457617d84617d7e8287875101516152f4565b51615eb2565b620138828054600019929190838101908111611bcd57617da5600591615e52565b5001805461ff00191661010017905554918201918211611bcd576005617dcd617ddf93615e52565b5001805460ff191660011790556152a2565b617d4c565b617dfb617df58287875101516152f4565b51615ef9565b620138828054600019929190838101908111611bcd57617e1c600591615e32565b5001805461ff00191661010017905554918201918211611bcd576005617dcd617ddf93615e32565b509490935060209250616a9991506152a2565b80518281101561455857600c03617f635750505060400160a09182825101519360005b8551811015617e445760e0617e938287875101516152f4565b51015115617f0957617eac617d7e8287875101516152f4565b620138828054600019929190838101908111611bcd57617ecd600591615e52565b5001805461ff00191661010017905554918201918211611bcd576005617ef5617f0493615e52565b5001805460ff191690556152a2565b617e7a565b617f1a617df58287875101516152f4565b620138828054600019929190838101908111611bcd57617f3b600591615e32565b5001805461ff00191661010017905554918201918211611bcd576005617ef5617f0493615e32565b80969593929496518281101561455857600d03618086575050604001936060617f9060e0875101516152b1565b519551015191617fa3865184511461cab8565b60005b8651811015616a875780617fbd61802f92866152f4565b511561803457617fdc617fd0828a6152f4565b5162013882541161cb40565b6180206005618007617ff7617ff1858d6152f4565b51615e52565b5060ff92839101548a1c1661cb97565b6005618016617ff1858d6152f4565b500154161561cbf7565b6005617dcd617ff1838b6152f4565b617fa6565b61804d618041828a6152f4565b5162013883541161cb40565b6180776005618068617ff7618062858d6152f4565b51615e32565b6005618016618062858d6152f4565b6005617dcd618062838b6152f4565b80518281101561455857600e0361814e5750506040019360606180ad60e0875101516152b1565b5195510151916180c0865184511461cab8565b60005b8651811015616a8757806180da6180e492866152f4565b516180e9576152a2565b6180c3565b6181026180f6828a6152f4565b5162013882541161cc57565b61813f6005618127618117617ff1858d6152f4565b5060ff92839101548a1c1661ccaf565b6005618136617ff1858d6152f4565b5001541661cd10565b6005617ef5617ff1838b6152f4565b809192939694505182811015614558576010036181de575050604001519061817e60e060c08401519301516152b1565b5193618190835186511461348a61e475565b60005b83518110156181cd57806122276181ad6181c893876152f4565b516181b7816145b8565b6181c1838a6152f4565b519061ca33565b618193565b5093509160209150616a99906152a2565b80949394518281101561455857601a036182f957505061820660e060408093015101516152b1565b5160038151036182b657618219816152b1565b519161822e618227836152d4565b51926152e4565b519161827c575091616a9991600160209414600014618276576182659061825a6201388a9182546165f0565b90915561348a61e44c565b6122276201388b61825a81546165d6565b506152a2565b5162461bcd60e51b8152602060048201526014602482015273496e76616c6964207061796d656e74207479706560601b6044820152606490fd5b815162461bcd60e51b815260206004820152601c60248201527b496e76616c6964206e756d626572206f6620706172616d657465727360201b6044820152606490fd5b80949394518281101561455857601403618469575050604080910190618324610100835101516152b1565b519261833860e06168e781865101516152b1565b5195618347855185511461cd72565b618354855188511461cdd7565b60005b855181101561841f5761836a81896152f4565b5161837582876152f4565b5161271091828210156152be5760066183939260031b0154906165f0565b9061839e84896152f4565b5191838310156152be5760066183b89360031b015561ce8f565b6183c2828a6152f4565b51906183ce83886152f4565b51818110156152be576001600160a01b0393926183f391600390866169d8878e6152f4565b6183fd848a6152f4565b51928310156152be5760036122279361841a96616a15878e6152f4565b618357565b50939261843291929650616a429061e370565b94519261843e84613556565b60008452600036813760005b8351811015616a875780612227616a7a61846493876152f4565b61844a565b9492939194519081101561455857601503618951576040840190618492610100835101516152b1565b51936184a660e06168e781865101516152b1565b51936184b8865185511461348a61e475565b6184c8865186511461348a61e475565b60005b865181101561851b576184de81866152f4565b51906127108210156152be5760036185169260018060a01b038b5116600052811b01602052612227604060002054616edd838a6152f4565b6184cb565b50909493919460005b855181101561860f5761853781866152f4565b5190612710808310156152be57600360018060a01b0393848c5116600052811b0160205261856e604060002054616f4084896152f4565b90618579848a6152f4565b5191838310156152be5760036185a493878f5116600052811b0160205260406000205561348a61e53c565b6185ae82886152f4565b51818110156152be57600390846185c5858c6152f4565b5116600052811b016020526185e360406000205461601384896152f4565b6185ed848a6152f4565b51928310156152be5760036122279361860a96616fe3878e6152f4565b618524565b50915091617015618623919695949661e370565b92604051946186318661353b565b6001865260203681880137516001600160a01b031661864f866152b1565b526000905b86518210156173835761866782886152f4565b516101c0526186768551615e00565b966000946186848851615e00565b60c0528594865b885181101561873d578a896186b66001600160a01b036186ab85846152f4565b51166101c05161e178565b15806186fb575b6186d2575b50506186cd906152a2565b61868b565b986186f19161240b82859c6170ea6186cd9760018060a01b03926152f4565b9790508a896186c2565b5050506127106101c05110156152be576001600160a01b0361871d828b6152f4565b511660005260036101c051811b016020528a8960406000205415156186bd565b509098949897969291939760005b88518110156187cf576127106101c05110156152be576001600160a01b03618773828b6152f4565b511660005260036101c051811b016020526040600020541561879e575b618799906152a2565b61874b565b99618799906187c7906001600160a01b036187b98e8d6152f4565b511661240b8260c0516152f4565b9a9050618790565b5098509694939291956101c051612710811015806102c0526152be5760031b6004015496618800617202878a61d93f565b996000998a610200525b6102c0516152be57610200518a8110156188965761883a6188559160006102c05260046101c05160031b0161c5f4565b905460c05160039290921b1c6001600160a01b03169061e22a565b15618870575b618867610200516152a2565b6102005261880a565b99808c61240b618890936172986102005160046101c05160031b0161c5f4565b9961885b565b509a939794969299919850946000915b83831061893157505050506102c0516152be578051906001600160401b0382116134ee576020906188e08360046101c05160031b01615343565b0160046101c05160031b01600052602060002060005b838110618914575050505061890a906152a2565b9092959195618654565b82516001600160a01b0316818301556020909201916001016188f6565b61894b90617377906001600160a01b0361736b86866152f4565b916188a6565b60405162461bcd60e51b8152602060048201526016602482015275496e76616c6964206f7065726174696f6e207479706560501b6044820152606490fd5b60405162461bcd60e51b815260206004820152601b60248201527a13dc195c985d1a5bdb881d1e5c19481a5cc81d5b9919599a5b9959602a1b6044820152606490fd5b50915050565b600281036189f95760405162461bcd60e51b81528061529e600482016167c1565b600114618a035750565b6201388e5b6202710e811061bc08575060005b612710811061bbfa57506000905b6020810151805183101561a9e55782618a3c916152f4565b516020810180519060229182811015614558571561898f5780518281101561455857600103618f3e575050604001618a79610100825101516152b1565b5191618a8d60e061760681855101516152b1565b5194618a9c845184511461cd72565b618aa9845187511461cdd7565b60005b8451811015618bda57618abf81856152f4565b519061271091828110156152be57600160ff62013895618ae79360031b01541615151461ce38565b618af181896152f4565b51618afc82876152f4565b5190838210156152be57618b1b9062013894809360031b0154906165f0565b618b2584896152f4565b5192858410156152be57618b3d9360031b015561ce8f565b618b4781896152f4565b5191618b5382876152f4565b5192818410156152be57618b91906001600160a01b03618b73858b6152f4565b511660005262013891809560031b01602052604060002054906165f0565b618b9b84896152f4565b51928310156152be57618bd594612227936001600160a01b03618bbe878d6152f4565b511660005260031b0160205260406000205561ceed565b618aac565b5092945090618beb618bf19161e370565b9461e277565b91604051618bfe81613556565b6000815260003681376000945b8651861015618f2857618c1e86886152f4565b5161016052618c2d8551615e00565b96600094618c3b8451615e00565b6080528594865b8851811015618cf7578a89618c6d6001600160a01b03618c6285846152f4565b51166101605161e1d9565b1580618cb2575b618c89575b5050618c84906152a2565b618c42565b98618ca89161240b82859c6170ea618c849760018060a01b03926152f4565b9790508a89618c79565b5050506127106101605110156152be576001600160a01b03618cd4828b6152f4565b5116600052620138916101605160031b016020528a896040600020541515618c74565b5090989498979597969291939660005b8851811015618d87576127106101605110156152be576001600160a01b0380618d30838c6152f4565b5116600052620138916101605160031b0160205260406000205415618d5f575b50618d5a906152a2565b618d07565b819b618d8091618d72618d5a948d6152f4565b511661240b826080516152f4565b9a90618d50565b5097949392985095906101605161271081101580610140526152be5760031b62013892015498618dba617202878c61d93f565b976000998a610240525b610140516152be57610240518c811015618e6757618df6618e1491600061014052620138926101605160031b0161c5f4565b90546080516001600160a01b03939260031b9190911c83169061e22a565b15618e30575b50618e27610240516152a2565b61024052618dc4565b9a618e60919b618e4e61024051620138926101605160031b0161c5f4565b90549060031b1c1661240b828d6152f4565b9938618e1a565b50999198939a509496939591966000915b838310618f085750505050610140516152be578051906001600160401b0382116134ee57602090618eb483620138926101605160031b01615343565b01620138926101605160031b01600052602060002060005b838110618eeb5750505050618ee0906152a2565b949295909195618c0b565b82516001600160a01b031681830155602090920191600101618ecc565b618f2290617377906001600160a01b0361736b86866152f4565b91618e78565b929450509350618f3891506152a2565b90618a24565b809594955182811015614558576002036191c357505090916040809201908151938385015191618f75616ad860e0809801516152b1565b51948351875103616ddc578351855103616d89578351865103616d33575060005b86518110156191b257618fa981886152f4565b516127108110156152be57618fcb60ff62013895809360031b0154161561cf45565b618fd582896152f4565b516127108110156152be5760031b01805460ff19166001179055618ff981856152f4565b5161900482896152f4565b51906127108210156152be578051906001600160401b0382116134ee57619033620138938460031b01546149e2565b90601f9182811161917a575b50602091831160011461910057620138939291600091836190f5575b50508160011b916000199060031b1c1916179160031b01555b61907e81866152f4565b5161908982896152f4565b516127108110156152be5760031b6201388f01556190a781876152f4565b516190b282896152f4565b516127108110156152be5760031b6201389001556190d081886152f4565b51906127108210156152be576000620138946190f09360031b01556152a2565b618f96565b01519050388061905b565b90620138938460031b0160005260206000209160005b601f198516811061916257509183916001936201389395601f19811610619149575b505050811b019160031b0155619074565b015160001960f88460031b161c19169055388080619138565b91926020600181928685015181550194019201619116565b6191ac90620138938660031b016000526020600020600585808801821c83019360208910612d945701901c0190615308565b3861903f565b50959250935050618f3891506152a2565b805182811015614558576003036191e557505092612227618f3892939461cf90565b8051828110156145585760040361944f5750506040016101009361921a61920f86845101516152b1565b5195835101516152d4565b519361922e60e06168e781865101516152b1565b5193619240875187511461348a61e475565b619250875185511461348a61e475565b619260875186511461348a61e475565b60005b87518110156192c15761927681866152f4565b51906127108210156152be576192bc9162013891906001600160a01b0361929d848d6152f4565b511660005260031b01602052612227604060002054616edd838a6152f4565b619263565b5090949293919460005b8751811015619400576192de81876152f4565b519061271091828110156152be5762013891906001600160a01b03619303848d6152f4565b511660005260031b01602052619322604060002054616f4083886152f4565b9061932d838a6152f4565b5191848310156152be576201389161936b938d6193518760018060a01b03926152f4565b511660005260031b0160205260406000205561348a61e53c565b61937581886152f4565b51828110156152be5762013891906001600160a01b03619395848a6152f4565b511660005260031b016020526193b460406000205461601383886152f4565b90506193c082896152f4565b51928310156152be576193fb9262013891906001600160a01b036193e4858b6152f4565b511660005260031b016020526040600020556152a2565b6192cb565b50936194149192506175ad6170159161e370565b9260005b835181101561943f578061222761943261943a93876152f4565b51878a61def6565b619418565b509450929050618f3891506152a2565b809594929551828110156145585760050361963c575050604084019061947d60e061760681855101516152b1565b519282518451036195eb5760005b83518110156194de5761949e81856152f4565b51906127108210156152be57620138916194d99260018060a01b038a511660005260031b01602052612227604060002054616edd83896152f4565b61948b565b509060005b8351811015619578576194f681856152f4565b519061271091828110156152be57620138919060018060a01b038a511660005260031b01602052619530604060002054616f4083896152f4565b929061953c83886152f4565b51918210156152be5761957393620138916122279360018060a01b038d511660005260031b0160205260406000205561348a61e53c565b6194e3565b50949250906195869061e370565b90604051926195948461353b565b6001845260203681860137516001600160a01b03166195b2846152b1565b52604051946195c086613556565b60008652600036813760005b835181101561943f57806122276194326195e693876152f4565b6195cc565b60405162461bcd60e51b8152602060048201526035602482015260008051602061e900833981519152604482015274195b905b5bdd5b9d081a5cc81b9bdd08195c5d585b605a1b6064820152608490fd5b8095929395518281101561455857600603619b4f575050604001619665610100825101516152b1565b519361967960e061760681855101516152b1565b51928551835103619afe578551845103619ab25760005b86518110156196ee576196a381856152f4565b51906127108210156152be576196e99162013891906001600160a01b036196ca848c6152f4565b511660005260031b01602052612227604060002054616edd83896152f4565b619690565b509060005b86518110156197835761970681856152f4565b519061271091828110156152be5762013891906001600160a01b0361972b848c6152f4565b511660005260031b0160205261974a604060002054616f4083896152f4565b929061975683886152f4565b51918210156152be5761977e936122279262013891906001600160a01b03619351878f6152f4565b6196f3565b5091619794919350618beb9061e370565b91604051926197a284613556565b6000845260003681376000945b8651861015618f28576197c286886152f4565b5160e0526197d08551615e00565b966000946197de8451615e00565b610220528594865b8851811015619898578a896198106001600160a01b0361980685846152f4565b511660e05161e1d9565b1580619855575b61982c575b5050619827906152a2565b6197e6565b9861984b9161240b82859c6170ea6198279760018060a01b03926152f4565b9790508a8961981c565b50505061271060e05110156152be576001600160a01b03619876828b6152f4565b51166000526201389160e05160031b016020528a896040600020541515619817565b5090989498979597969291939660005b88518110156199275761271060e05110156152be576001600160a01b03806198d0838c6152f4565b51166000526201389160e05160031b01602052604060002054156198fe575b506198f9906152a2565b6198a8565b819b619920916199116198f9948d6152f4565b511661240b82610220516152f4565b9a906198ef565b50979493929850959060e051612710811015806101a0526152be5760031b62013892015498619959617202878c61d93f565b976000998a610100525b6101a0516152be57610100518c8110156199f3576199946199b39160006101a0526201389260e05160031b0161c5f4565b9054610220516001600160a01b03939260031b9190911c83169061e22a565b156199cf575b506199c6610100516152a2565b61010052619963565b9a6199ec919b618e4e610100516201389260e05160031b0161c5f4565b99386199b9565b50999198939a509496939591966000915b838310619a9257505050506101a0516152be578051906001600160401b0382116134ee57602090619a3f836201389260e05160031b01615343565b016201389260e05160031b01600052602060002060005b838110619a755750505050619a6a906152a2565b9492959091956197af565b82516001600160a01b031681830155602090920191600101619a56565b619aac90617377906001600160a01b0361736b86866152f4565b91619a04565b60405162461bcd60e51b8152602060048201526030602482015260008051602061e96083398151915260448201526f1b9d1cc81a5cc81b9bdd08195c5d585b60821b6064820152608490fd5b60405162461bcd60e51b8152602060048201526035602482015260008051602061e8e08339815191526044820152741b90db185cdcd95cc81a5cc81b9bdd08195c5d585b605a1b6064820152608490fd5b80959495518281101561455857600703619ddf57505060400190619b78610100835101516152b1565b51926040619b8a60e0855101516152b1565b519351015191619ba0855185511461348a61e475565b60005b8551811015619dcf576001600160a01b03619bbe82886152f4565b51166000526202710e80602052619be060ff604060002054161561348a61e50b565b619bea82866152f4565b5190619bf683886152f4565b519160405191619c05836134d3565b600183526000602084019081526040840192835260608401949094526001600160a01b03619c33868c6152f4565b5116600052602052619c5a604060002093619c5184511515866155c1565b511515846155d2565b518051906001600160401b0382116134ee57619c7960018501546149e2565b90601f91828111619d9c575b506020918311600114619d2757918060029492606094600092619d1c575b50508160011b916000199060031b1c19161760018501555b01519101556001600160a01b03619cd282886152f4565b5116906202710f918254600160401b8110156134ee57600181018085558110156152be57619d17936000526020600020019060018060a01b03198254161790556152a2565b619ba3565b015190503880619ca3565b906001850160005260206000209160005b601f1985168110619d845750926002949260019260609583601f19811610619d6b575b505050811b016001850155619cbb565b015160001960f88460031b161c19169055388080619d5b565b91926020600181928685015181550194019201619d38565b619dc9906001870160005260206000208480870160051c82019260208810615b07570160051c0190615308565b38619c85565b509491509250618f3891506152a2565b80949394519180831015614558576008928303619e6857505061010092619e0d8460408095015101516152b1565b519460005b86518110156191b257619e6390876001600160a01b0380619e3384846152f4565b5116600052617cfe8882617ce4866202710e9687602052617cdf600160ff8097600020541615151461348a61e4a3565b619e12565b81518181101561455857600f03619f715750505060400160a09182825101519360005b8551811015619dcf5760e0619ea48287875101516152f4565b51015115619f1157619ec3619ebd8287875101516152f4565b51615f3b565b620271108054600019929190838101908111611bcd57619ee4600591615e92565b5001805461ff00191661010017905554918201918211611bcd576005617dcd619f0c93615e92565b619e8b565b619f28619f228287875101516152f4565b51615f1a565b620271118054600019929190838101908111611bcd57619f49600591615e72565b5001805461ff00191661010017905554918201918211611bcd576005617dcd619f0c93615e72565b81518181101561455857600c0361a06e5750505060400160a09182825101519360005b8551811015619dcf5760e0619fad8287875101516152f4565b5101511561a01457619fc6619ebd8287875101516152f4565b620271108054600019929190838101908111611bcd57619fe7600591615e92565b5001805461ff00191661010017905554918201918211611bcd576005617ef561a00f93615e92565b619f94565b61a025619f228287875101516152f4565b620271118054600019929190838101908111611bcd5761a046600591615e72565b5001805461ff00191661010017905554918201918211611bcd576005617ef561a00f93615e72565b81969593929496518181101561455857600d0361a17757505060400193606061a09b60e0875101516152b1565b51955101519161a0ae865184511461cab8565b60005b865181101561943f578061a0c861a12092866152f4565b511561a1255761a0e761a0db828a6152f4565b5162027110541161cb40565b61a111600561a102617ff761a0fc858d6152f4565b51615e92565b600561801661a0fc858d6152f4565b6005617dcd61a0fc838b6152f4565b61a0b1565b61a13e61a132828a6152f4565b5162027111541161cb40565b61a168600561a159617ff761a153858d6152f4565b51615e72565b600561801661a153858d6152f4565b6005617dcd61a153838b6152f4565b81518181101561455857600e0361a26e57505060400193606061a19e60e0875101516152b1565b51955101519161a1b1865184511461cab8565b60005b865181101561943f578061a1cb61a21d92866152f4565b511561a2225761a1ea61a1de828a6152f4565b5162027110541161cc57565b61a20e600561a1ff61811761a0fc858d6152f4565b600561813661a0fc858d6152f4565b6005617ef561a0fc838b6152f4565b61a1b4565b61a23b61a22f828a6152f4565b5162027111541161cc57565b61a25f600561a25061811761a153858d6152f4565b600561813661a153858d6152f4565b6005617ef561a153838b6152f4565b90809293945051818110156145585760100361a39a575050604001519261a29d60e060c08601519501516152b1565b519161a2af855184511461348a61e475565b60005b855181101561a38c578061a2c961a32d92886152f4565b5161a2d3816145b8565b61a2dd82876152f4565b519061a2e8816145b8565b61a2fb61a2f361e569565b821515615272565b61a304816145b8565b6001810361a332575061a32361a31861e569565b612710831115615272565b62027116556152a2565b61a2b2565b61a33b816145b8565b6002810361a34e575062027117556152a2565b61a357816145b8565b6003810361a36a575062027118556152a2565b8061a3766004926145b8565b1461a38157506152a2565b620271195538618276565b50935091618f3891506152a2565b81959394929551918183101561455857601a92830361a54257505061a3c760e060408097015101516152b1565b5190600382510361a4ff5761a3db826152b1565b519161a3f061a3e9826152d4565b51916152e4565b519061a4c457956001618f389596971460001461a4bc5761a4756122279361a41d620271189182546165f0565b90915582519061a42c82613571565b603282527f6469766964656e6461626c652062616c616e6365206f766572666c6f772077686020830152710cadc40e0e4dec6cae6e6d2dcce40c6c2e6d60731b84830152615272565b620271199061a48482546165d6565b909255519161a4928361353b565b8252796469766964656e647320636f756e746572206f766572666c6f7760301b6020830152615272565b5050506152a2565b865162461bcd60e51b8152602060048201526014602482015273496e76616c6964207061796d656e74207479706560601b6044820152606490fd5b855162461bcd60e51b815260206004820152601c60248201527b496e76616c6964206e756d626572206f6620706172616d657465727360201b6044820152606490fd5b80919250959294939551828110156145585760140361a9c457505060400161a56f610100825101516152b1565b519361a58360e061760681855101516152b1565b519261a592865184511461cd72565b61a59f865185511461cdd7565b60005b865181101561a6905761a5b581866152f4565b519061a5c181866152f4565b5161271092838210156152be5761a5e39062013894809360031b0154906165f0565b61a5ed84896152f4565b5192858410156152be5761a6059360031b015561ce8f565b61a60f81876152f4565b5161a61a82876152f4565b5190838210156152be5761a6579162013891906001600160a01b0361a63f868e6152f4565b511660005260031b01602052604060002054906165f0565b929061a66383886152f4565b51918210156152be5761a68b936122279262013891906001600160a01b03618bbe878f6152f4565b61a5a2565b50925090618beb61a6a09161e370565b9160405161a6ad81613556565b6000815260003681376000945b8651861015618f285761a6cd86886152f4565b516101e05261a6dc8551615e00565b9660009461a6ea8451615e00565b610280528594865b885181101561a7a7578a8961a71d6001600160a01b0361a71285846152f4565b51166101e05161e1d9565b158061a762575b61a739575b505061a734906152a2565b61a6f2565b9861a7589161240b82859c6170ea61a7349760018060a01b03926152f4565b9790508a8961a729565b5050506127106101e05110156152be576001600160a01b0361a784828b6152f4565b5116600052620138916101e05160031b016020528a89604060002054151561a724565b5090989498979597969291939660005b885181101561a838576127106101e05110156152be576001600160a01b038061a7e0838c6152f4565b5116600052620138916101e05160031b016020526040600020541561a80f575b5061a80a906152a2565b61a7b7565b819b61a8319161a82261a80a948d6152f4565b511661240b82610280516152f4565b9a9061a800565b5097949392985095906101e0516127108110158060a0526152be5760031b6201389201549861a86a617202878c61d93f565b976000998a610260525b60a0516152be57610260518c81101561a9045761a8a461a8c391600060a052620138926101e05160031b0161c5f4565b9054610280516001600160a01b03939260031b9190911c83169061e22a565b1561a8df575b5061a8d6610260516152a2565b6102605261a874565b9a61a8fd919b618e4e61026051620138926101e05160031b0161c5f4565b993861a8c9565b50999198939a509496939591966000915b83831061a9a4575050505060a0516152be578051906001600160401b0382116134ee5760209061a95083620138926101e05160031b01615343565b01620138926101e05160031b01600052602060002060005b83811061a987575050505061a97c906152a2565b94929590919561a6ba565b82516001600160a01b03168183015560209092019160010161a968565b61a9be90617377906001600160a01b0361736b86866152f4565b9161a915565b949391929451908110156145585760150361895157612227618f389261cf90565b50905061a9f18161c0b3565b906006811015614558576002810361aa1c5760405162461bcd60e51b81528061529e600482016167c1565b6003810361aac75750303b156135c557604051809263111771ed60e11b82526044820192604060048401528051809452606483019360208092019160005b82811061aab0575050505061aa7e6000938392600319848303016024850152614d07565b038183305af1801561aaa45761aa915750565b6001600160401b0381116134ee57604052565b6040513d6000823e3d90fd5b83518752958101958795509281019260010161aa5a565b600591501461aad35750565b906000905b602083015180518310156189d2578261aaf0916152f4565b5160208101805160229081811015614558571561898f578151818110156145585760010361acba57505060408091019061ab2f610100835101516152b1565b519261ab4360e06168e781865101516152b1565b519561ab52855185511461cd72565b61ab5f855188511461cdd7565b60005b855181101561ac565761ab7581866152f4565b5161271090818110156152be57600160ff600761ab9a9360031b01541615151461ce38565b61aba4828a6152f4565b5161abaf83886152f4565b5190828210156152be57600661abca9260031b0154906165f0565b9061abd584896152f4565b5191838310156152be57600661abef9360031b015561ce8f565b61abf9828a6152f4565b519061ac0583886152f4565b51818110156152be576001600160a01b03939261ac2a91600390866169d8878e6152f4565b61ac34848a6152f4565b51928310156152be5760036122279361ac5196616a15878e6152f4565b61ab62565b50939261ac6991929650616a429061e370565b94519261ac7584613556565b60008452600036813760005b835181101561aca05780612227616a7a61ac9b93876152f4565b61ac81565b509450926020925061acb291506152a2565b91905061aad8565b81959293949551818110156145585760020361af30575050604080920190815193838501519161acf1616ad860e0809801516152b1565b51948351875103616ddc578351855103616d89578351865103616d33575060005b865181101561af1c5761ad2581886152f4565b516127108110156152be5761ad4560ff6007809360031b0154161561cf45565b61ad4f82896152f4565b516127108110156152be5760031b01805460ff1916600117905561ad7381856152f4565b5161ad7e82896152f4565b51906127108210156152be578051906001600160401b0382116134ee5761adab60058460031b01546149e2565b90601f9182811161aee6575b50602091831160011461ae7057600592916000918361ae65575b50508160011b916000199060031b1c1916179160031b01555b61adf481866152f4565b5161adff82896152f4565b516127108110156152be5760031b6001015561ae1b81876152f4565b5161ae2682896152f4565b516127108110156152be5760031b6002015561ae4281886152f4565b51906127108210156152be576000600661ae609360031b01556152a2565b61ad12565b01519050388061add1565b9060058460031b0160005260206000209160005b601f198516811061aece5750918391600193600595601f1981161061aeb5575b505050811b019160031b015561adea565b015160001960f88460031b161c1916905538808061aea4565b9192602060018192868501518155019401920161ae84565b61af169060058660031b0160005260206000208480870160051c82019260208810615b07570160051c0190615308565b3861adb7565b5095915093506020925061acb291506152a2565b819593929551818110156145585760030361af5657505060209161222761acb29261d47f565b81959492939551818110156145585760040361b13b57505060408092016101009461af876173c787845101516152b1565b519461af9b60e06168e781865101516152b1565b519361afad885188511461348a61e475565b61afbd885185511461348a61e475565b61afcd885186511461348a61e475565b60005b885181101561b00d5761afe381866152f4565b51906127108210156152be5761b008916003906001600160a01b03617453848e6152f4565b61afd0565b50909691959294939660005b835181101561b1005761b02c81886152f4565b519061271091828110156152be576001600160a01b03906003908261b051858a6152f4565b5116600052811b0160205261b06f8b616f40848b60002054926152f4565b9061b07a848c6152f4565b5191858310156152be57600361b09593856174fd888d6152f4565b61b09f828a6152f4565b51838110156152be576003908261b0b6858b6152f4565b5116600052811b0160205261b0d48b616013848b60002054926152f4565b91905061b0e1838b6152f4565b51938410156152be5761b0fb9360039161757b858b6152f4565b61b019565b509461b118929750617015919394506175ad9061e370565b9260005b835181101561aca05780612227616a7a61b13693876152f4565b61b11c565b819594939551818110156145585760050361b2c55750506040918285019061b16b60e061760681855101516152b1565b5192825184510361776a5760005b835181101561b1c85761b18c81856152f4565b51906127108210156152be57600361b1c39260018060a01b038b5116600052811b016020526122278760002054616edd83896152f4565b61b179565b509092919260005b845181101561b2545761b1e381866152f4565b5190612710808310156152be57600360018060a01b0393848c5116600052811b0160205261b2198860002054616f4084896152f4565b61b223848a6152f4565b51928310156152be5760036122279361b24f968e5116600052811b01602052896000205561348a61e53c565b61b1d0565b5095939261b26391925061e370565b9180519361b2708561353b565b6001855260203681870137516001600160a01b031661b28e856152b1565b52519461b29a86613556565b60008652600036813760005b835181101561aca05780612227616a7a61b2c093876152f4565b61b2a6565b8195939551818110156145585760060361b429575050604080920161b2ef610100825101516152b1565b519461b30360e061760681855101516152b1565b5192865183510361799e5786518451036179535760005b875181101561b3575761b32d81856152f4565b51906127108210156152be5761b352916003906001600160a01b03617847848d6152f4565b61b31a565b509092919260005b875181101561b3e05761b37281866152f4565b51612710808210156152be576001600160a01b0392916003908461b396858e6152f4565b5116600052811b0160205261b3b38860002054616f4084896152f4565b61b3bd848a6152f4565b51928310156152be5760036122279361b3db966178ed8f88906152f4565b61b35f565b50959261b3f2919250616a429061e370565b92519461b3fe86613556565b60008652600036813760005b835181101561aca05780612227616a7a61b42493876152f4565b61b40a565b819593929551818110156145585760070361b65f575050604090939193019061b457610100835101516152b1565b5193604061b46960e0855101516152b1565b51935101519161b47f865185511461348a61e475565b6000915b865183101561b64c576001600160a01b0361b49e84896152f4565b511660005262013880928360205261b4c160ff604060002054161561348a61e50b565b61b4cb81866152f4565b5161b4d682886152f4565b51906040519561b4e5876134d3565b600187526000602088019081526040880192835260608801939093526001600160a01b0361b513858d6152f4565b511660005260205261b531604060002092617af688511515856155c1565b5180519095906001600160401b0381116134ee5761b55260018401546149e2565b601f811161b617575b50602096601f821160011461b5b757918160609261b5b0979899600295600092617b8f5750508160011b916000199060031b1c191617600185015501519101556122276001600160a01b03617b81838b6152f4565b919061b483565b966001840160005260206000209760005b601f198416811061b5ff57508261b5b097989960029593600193606096601f19811610617be357505050811b016001850155617b67565b818301518a556001909901986020928301920161b5c8565b61b64690600185016000526020600020601f840160051c81019160208510612b6657601f0160051c0190615308565b3861b55b565b95509390506020925061acb291506152a2565b819593949551918183101561455857600892830361b6b95750506101009261b68e8460408095015101516152b1565b519460005b865181101561af1c5761b6b490876001600160a01b0380617caf84846152f4565b61b693565b80518281101561455857600f0361b7c95750505060400160a09182825101519360005b855181101561b7b65760e061b6f58287875101516152f4565b5101511561b75c5761b70e617d7e8287875101516152f4565b620138828054600019929190838101908111611bcd5761b72f600591615e52565b5001805461ff00191661010017905554918201918211611bcd576005617dcd61b75793615e52565b61b6dc565b61b76d617df58287875101516152f4565b620138828054600019929190838101908111611bcd5761b78e600591615e32565b5001805461ff00191661010017905554918201918211611bcd576005617dcd61b75793615e32565b50949093506020925061acb291506152a2565b80518281101561455857600c0361b8c65750505060400160a09182825101519360005b855181101561b7b65760e061b8058287875101516152f4565b5101511561b86c5761b81e617d7e8287875101516152f4565b620138828054600019929190838101908111611bcd5761b83f600591615e52565b5001805461ff00191661010017905554918201918211611bcd576005617ef561b86793615e52565b61b7ec565b61b87d617df58287875101516152f4565b620138828054600019929190838101908111611bcd5761b89e600591615e32565b5001805461ff00191661010017905554918201918211611bcd576005617ef561b86793615e32565b80969593929496518281101561455857600d0361b92557505060400193606061b8f360e0875101516152b1565b51955101519161b906865184511461cab8565b60005b865181101561aca05780617fbd61b92092866152f4565b61b909565b80518281101561455857600e0361b97e57505060400193606061b94c60e0875101516152b1565b51955101519161b95f865184511461cab8565b60005b865181101561aca057806180da61b97992866152f4565b61b962565b8091929396945051828110156145585760100361b9f3575050604001519061b9ae60e060c08401519301516152b1565b519361b9c0835186511461348a61e475565b60005b835181101561b9e257806122276181ad61b9dd93876152f4565b61b9c3565b509350916020915061acb2906152a2565b80949394518281101561455857601a0361ba6857505061ba1b60e060408093015101516152b1565b5160038151036182b65761ba2e816152b1565b519161ba3c618227836152d4565b519161827c57509161acb291600160209414600014618276576182659061825a6201388a9182546165f0565b8094939451828110156145585760140361bbd857505060408091019061ba93610100835101516152b1565b519261baa760e06168e781865101516152b1565b519561bab6855185511461cd72565b61bac3855188511461cdd7565b60005b855181101561bb8e5761bad981896152f4565b5161bae482876152f4565b5161271091828210156152be57600661bb029260031b0154906165f0565b9061bb0d84896152f4565b5191838310156152be57600661bb279360031b015561ce8f565b61bb31828a6152f4565b519061bb3d83886152f4565b51818110156152be576001600160a01b03939261bb6291600390866169d8878e6152f4565b61bb6c848a6152f4565b51928310156152be5760036122279361bb8996616a15878e6152f4565b61bac6565b50939261bba191929650616a429061e370565b94519261bbad84613556565b60008452600036813760005b835181101561aca05780612227616a7a61bbd393876152f4565b61bbb9565b9392935190811015614558576015036189515760209161222761acb29261d47f565b61bc03906152a2565b618a16565b600890600080825580600183015580600283015561bc286004830161531f565b61bc3460058301615377565b806006830155600782015501618a08565b608460405162461bcd60e51b8152602060048201526040602482015260008051602061e94083398151915260448201527f656d2073686f756c64206e6f742072657475726e20766f7465206e65656465646064820152fd5b60405162461bcd60e51b8152602060048201526047602482015260008051602061e94083398151915260448201527f656d2073686f756c64206e6f742072657475726e206120766f74696e672072756064820152661b19481b1a5cdd60ca1b608482015260a490fd5b906201388254602060009301908151519061bd20826135de565b9161bd2e604051938461358c565b80835261bd3d601f19916135de565b0136602084013761bd5083515182616750565b901561c05b5761bd5f90615e00565b9085928451511561c0525761bd7382615e00565b965b85515181101561beca5760008080805b86811061bdfd5750905061bda28161bd9d85876152f4565b614b89565b60068110156145585760031461bdc2575b5061bdbd906152a2565b61bd75565b6000905b80821061bdd3575061bdb3565b909561bdf161bdf79161bde6898d6152f4565b5161240b828a6152f4565b966152a2565b9061bdc6565b61be128161be0c878d516152f4565b5161c40c565b9390948083118061beb8575b1561be7757505091838561be6e575b60068110156145585760038e911461be53575b505061be4b906152a2565b91909161bd85565b9461be669161240b8261be4b95986152f4565b93908c61be40565b6000955061be2d565b809492959195148061bea6575b1561be405760068110156145585760038e911461be5357505061be4b906152a2565b5060068110156145585780151561be84565b5060068610156145585785151561be1e565b5093505090929350600093845b835186101561bff95761bef261beed87866152f4565b6155b4565b9060068083101561455857600292830361bf1857505061bf1290956152a2565b9461bed7565b61bf2561beed89886152f4565b92818410156145585760018094148061bfe7575b1561bf4b5750505061bf1290956152a2565b61bf5d61beed8a899b9694959b6152f4565b9280841015614558576004809414928361bfbd575b508261bf94575b505061bf8a575b5061bf12906152a2565b955061bf1261bf80565b90915088101561bfa857871415388061bf79565b602182634e487b7160e01b6000525260246000fd5b908093508a101561bfd257891415913861bf72565b602184634e487b7160e01b6000525260246000fd5b5081831015614558578083141561bf39565b9250929093506006821015614558576003820361c04a575b61c01a81615e00565b9360005b82811061c02c575050509190565b8061c03a61c04592846152f4565b5161240b82896152f4565b61c01e565b50600061c011565b50909392505050565b60405162461bcd60e51b815260206004820152602a60248201527f546865206c656e677468206f6620766f74696e672072756c65206c697374206960448201526973206f766572666c6f7760b01b6064820152608490fd5b906201388354602060009301908151519061c0cd826135de565b9161c0db604051938461358c565b80835261c0ea601f19916135de565b0136602084013761c0fd83515182616750565b901561c05b5761c10c90615e00565b9085928451511561c0525761c12082615e00565b965b85515181101561c2615760008080805b86811061c1945750905061c14a8161bd9d85876152f4565b60068110156145585760031461c16a575b5061c165906152a2565b61c122565b6000905b80821061c17b575061c15b565b909561bdf161c18e9161bde6898d6152f4565b9061c16e565b61c1a98161c1a3878d516152f4565b5161c499565b9390948083118061c24f575b1561c20e57505091838561c205575b60068110156145585760038e911461c1ea575b505061c1e2906152a2565b91909161c132565b9461c1fd9161240b8261c1e295986152f4565b93908c61c1d7565b6000955061c1c4565b809492959195148061c23d575b1561c1d75760068110156145585760038e911461c1ea57505061c1e2906152a2565b5060068110156145585780151561c21b565b5060068610156145585785151561c1b5565b5093505090929350600093845b835186101561c3615761c28461beed87866152f4565b9060068083101561455857600292830361c2aa57505061c2a490956152a2565b9461c26e565b61c2b761beed89886152f4565b92818410156145585760038094148061c34f575b1561c2dd5750505061c2a490956152a2565b61c2ef61beed8a899b9694959b6152f4565b9280841015614558576005809414928361c33a575b508261c326575b505061c31c575b5061c2a4906152a2565b955061c2a461c312565b90915088101561455857871415388061c30b565b908093508a101561455857891415913861c304565b5081831015614558578083141561c2cb565b9250929093506006821015614558576003820361c3a7575b61c38281615e00565b9360005b82811061c394575050509190565b8061c03a61c3a292846152f4565b61c386565b50600061c379565b1561c3b657565b60405162461bcd60e51b815260206004820152602860248201527f506c7567696e466163746f72793a20706c7567696e20696e646578206f7574206044820152676f662072616e676560c01b6064820152608490fd5b909160008093819361c4236201388254831061c3af565b60ff600561c43084615e52565b50015460081c161561c48d57828261c44992600161c60c565b61c454575b50929190565b809450600192935061c4669150615e52565b50015490600361c48360ff61c47a86615e52565b50541694615e52565b500154913861c44e565b50509150915080918190565b909160008093819361c4b06201388354831061c3af565b60ff600561c4bd84615e32565b50015460081c161561c48d57828261c4d5928261c60c565b61c4df5750929190565b809450600192935061c4f19150615e32565b50015490600361c48360ff61c50586615e32565b50541694615e32565b1561c51557565b60405162461bcd60e51b815260206004820152603160248201527f436865636b696e6720636f6e646974696f6e206578703a20706c7567696e20696044820152706e646578206f7574206f662072616e676560781b6064820152608490fd5b1561c57b57565b60405162461bcd60e51b815260206004820152602f60248201527f436865636b696e6720636f6e646974696f6e206578703a206e6f646520696e6460448201526e6578206f7574206f662072616e676560881b6064820152608490fd5b80548210156152be576000526009602060002091020190600090565b80548210156152be5760005260206000200190600090565b90929190801561c9095761c6256201388254831061c50e565b61c63d600261c63384615e52565b500154841061c574565b801561c8f05761c667600161c65e85600261c65787615e52565b500161c5d8565b50015460ff1690565b61c670816145b8565b8061c67f575050505050600090565b61c688816145b8565b6003810361c69a575050505050600190565b61c6a3816145b8565b6004810361c6b5575050505050600090565b61c6be816145b8565b60019080820361c6d4575050926161b59361c92b565b90929361c6e0826145b8565b600280921461c6f5575b505050505050600090565b821561c8d85761c7198461c70d838561c6578a615e52565b50015460081c60ff1690565b925b60009586865b61c878575b5061c73087615e00565b9760005b88811061c82857505050505061c7498261454e565b81830361c79d57505091906000915b81831061c7655750505090565b9091928061c77f575b61c77890936152a2565b919061c758565b5061c77861c79661c79085846152f4565b51151590565b905061c76e565b90915061c7a98261454e565b810361c7f757509060009182915b81831061c7c45750505090565b909192801561c7df575b61c7d890936152a2565b919061c7b7565b5061c7d861c7f061c79085846152f4565b905061c7ce565b6003915061c8048161454e565b1461c815575038808080808061c6ea565b61c82461c7906161b5926152b1565b1590565b808a61c85c61c85461c84a848b61c8438c8261c6578d615e32565b500161c5f4565b90549060031b1c90565b86868961c60c565b61c86c61c87394612227936152f4565b9015159052565b61c734565b8461c887858261c65786615e32565b50015481101561c8d35761c8a761c84a828761c843888261c65789615e32565b61c8bc575b61c8b687916152a2565b9061c721565b9661c8b661c8ca88926152a2565b9891505061c8ac565b61c726565b61c8ea8461c70d838561c6578a615e32565b9261c71b565b61c904600161c65e85600261c65787615e32565b61c667565b61c9186201388354831061c50e565b61c926600261c63384615e32565b61c63d565b9160039061c97292948460001461c9c95760ff600161c94f83600261c65787615e52565b50015460101c16945b1561c9bb57600261c65761c96b93615e52565b5001614c4b565b906033811015614558576001810361c9ab575061c991602091516152b1565b5191015160228110156145585761c9a79061e5ce565b1490565b9050600291501461677e57600090565b600261c65761c96b93615e32565b60ff600161c9dc83600261c65787615e32565b50015460101c169461c958565b62013881805490600160401b8210156134ee57600182018082558210156152be576000908152602090200180546001600160a01b0319166001600160a01b03909216919091179055565b61ca3c816145b8565b61ca4761a2f361e569565b61ca50816145b8565b6001810361ca6b575061ca6461a31861e569565b6201388855565b61ca74816145b8565b6002810361ca8457506201388955565b61ca8d816145b8565b6003810361ca9d57506201388a55565b8061caa96004926145b8565b1461cab15750565b6201388b55565b1561cabf57565b60405162461bcd60e51b815260206004820152604d60248201527f546865206c656e677468206f662074686520706c7567696e20696e646578657360448201527f20617272617920616e642074686520626f6f6c65616e206172726179206d757360648201526c74206265207468652073616d6560981b608482015260a490fd5b1561cb4757565b60405162461bcd60e51b815260206004820152602260248201527f496e76616c696420706c7567696e20696e64657820746f20626520656e61626c604482015261195960f21b6064820152608490fd5b1561cb9e57565b60405162461bcd60e51b815260206004820152602b60248201527f54686520706c7567696e20746f20626520656e61626c6564206973206e6f742060448201526a1a5b9a5d1a585b1a5e995960aa1b6064820152608490fd5b1561cbfe57565b60405162461bcd60e51b815260206004820152602b60248201527f54686520706c7567696e20746f20626520656e61626c656420697320616c726560448201526a18591e48195b98589b195960aa1b6064820152608490fd5b1561cc5e57565b60405162461bcd60e51b815260206004820152602360248201527f496e76616c696420706c7567696e20696e64657820746f2062652064697361626044820152621b195960ea1b6064820152608490fd5b1561ccb657565b60405162461bcd60e51b815260206004820152602c60248201527f54686520706c7567696e20746f2062652064697361626c6564206973206e6f7460448201526b081a5b9a5d1a585b1a5e995960a21b6064820152608490fd5b1561cd1757565b60405162461bcd60e51b815260206004820152602d60248201527f54686520706c7567696e20746f2062652064697361626c656420697320616c7260448201526c1958591e48191a5cd8589b1959609a1b6064820152608490fd5b1561cd7957565b60405162461bcd60e51b815260206004820152603060248201527f546865206c656e677468206f662074617267657420616e6420746f6b656e436c60448201526f185cdcc81a5cc81b9bdd08195c5d585b60821b6064820152608490fd5b1561cdde57565b60405162461bcd60e51b815260206004820152602c60248201527f546865206c656e677468206f662074617267657420616e6420616d6f756e742060448201526b1a5cc81b9bdd08195c5d585b60a21b6064820152608490fd5b1561ce3f57565b60405162461bcd60e51b815260206004820152602260248201527f54686520746f6b656e20636c617373206973206e6f7420696e697469616c697a604482015261195960f21b6064820152608490fd5b1561ce9657565b60405162461bcd60e51b815260206004820152602960248201527f54686520746f74616c20737570706c79206f662074686520746f6b656e206973604482015268206f766572666c6f7760b81b6064820152608490fd5b1561cef457565b60405162461bcd60e51b8152602060048201526024808201527f5468652062616c616e6365206f662074686520746f6b656e206973206f766572604482015263666c6f7760e01b6064820152608490fd5b1561cf4c57565b606460405162461bcd60e51b815260206004820152602060248201527f54686520746f6b656e20697320616c726561647920696e697469616c697a65646044820152fd5b90604082019061cfa5610100835101516152b1565b519161cfc360e061cfb981845101516152b1565b51925101516152d4565b519161cfd5845183511461348a61e475565b61cfe5845184511461348a61e475565b60005b845181101561d03b5761cffb81846152f4565b51906127108210156152be576201389161d0369260018060a01b0389511660005260031b01602052612227604060002054616edd83886152f4565b61cfe8565b50929160005b835181101561d1495761d05481846152f4565b5190612710808310156152be5760018060a01b0390818951166000526201389160039481602091871b01815261d093604060002054616f40878a6152f4565b9061d09e878b6152f4565b5191858310156152be578461d0c8938f899051166000528a1b01845260406000205561348a61e53c565b61d0d285896152f4565b51838110156152be5782908561d0e8888d6152f4565b5116600052871b01815261d105604060002054616013878a6152f4565b92909361d112878b6152f4565b51908110156152be5761d144976122279661d12d898e6152f4565b51166000521b01905260406000205561348a61e59d565b61d041565b505061d15761d15d9161e370565b9161e277565b906040519361d16b8561353b565b60018552602036818701376001600160a01b0361034081905290511661d190856152b1565b526000935b815185101561d4785761d1a885836152f4565b519461d1b48451615e00565b9160009361d1c28251615e00565b6103a0528496855b875181101561d2675761d1ec6103405161d1e4838b6152f4565b51168b61e1d9565b158061d230575b61d206575b61d201906152a2565b61d1ca565b9561d22861d201916103405161d21c8a8c6152f4565b511661240b828a6152f4565b96905061d1f8565b506127108a10156152be576103405161d249828a6152f4565b5116600052620138918a60031b01602052604060002054151561d1f3565b509793929096949195976000986127108610159560031b98620138918a019a5b895181101561d2f457876152be576103405161d2a3828c6152f4565b51166000528b6020526040600020541561d2c6575b61d2c1906152a2565b61d287565b9761d2ec61d2c1918b61d2dd8c61034051926152f4565b511661240b826103a0516152f4565b98905061d2b8565b5094959193965098509690959680610300526152be5762013892018061036052549561d323617202868961d93f565b6103205260009788610380525b610300516152be57610380518881101561d3be5761d35a61d36f916000610300526103605161c5f4565b6103405191549060031b1c166103a05161e22a565b1561d38a575b61d381610380516152a2565b6103805261d330565b9761d3b89061d39f610380516103605161c5f4565b6103405191549060031b1c1661240b82610320516152f4565b9761d375565b5095939096509690969391936000915b83831061d44e5750505050610300516152be5761032051516001600160401b0381116134ee5761d4018161036051615343565b60206103205101610360516000526020600020600061034051905b84811061d43857505050505061d431906152a2565b939261d195565b600190602083865116950194818501550161d41c565b61737761d472916103405161d46386866152f4565b511661240b82610320516152f4565b9161d3ce565b5050509050565b604081019061d493610100835101516152b1565b519161d4a760e061cfb981845101516152b1565b519361d4b9845183511461348a61e475565b61d4c9845186511461348a61e475565b60005b845181101561d51d5761d4df81846152f4565b51906127108210156152be5761d5189160018060a01b03865116600052600390811b01602052612227604060002054616edd838a6152f4565b61d4cc565b5092919360005b835181101561d6295761d53781846152f4565b519061271091828110156152be5760018060a01b03908189511660005260039081602091811b01815261d573604060002054616f4086896152f4565b9061d57e868a6152f4565b5191878310156152be578461d5a793878f5116600052811b01845260406000205561348a61e53c565b61d5b184886152f4565b51858110156152be5782908461d5c7878c6152f4565b5116600052811b01815261d5e460406000205461601386896152f4565b91909261d5f1868a6152f4565b51968710156152be5761d624966122279561d60c888d6152f4565b5116600052811b01905260406000205561348a61e59d565b61d524565b505061d15761d6379161e370565b906040519361d6458561353b565b60018552602036818701376001600160a01b036103a081905290511661d66a856152b1565b526000935b815185101561d4785761d68285836152f4565b519461d68e8451615e00565b9160009361d69c8251615e00565b610340528496855b875181101561d7325761d6c66103a05161d6be838b6152f4565b51168b61e178565b158061d6fe575b61d6e0575b61d6db906152a2565b61d6a4565b9561d6f661d6db916103a05161d21c8a8c6152f4565b96905061d6d2565b506127108a10156152be576103a05161d717828a6152f4565b511660005260038a811b01602052604060002054151561d6cd565b509793929096949195976000986127108610159560031b9860038a019a5b895181101561d7bd57876152be576103a05161d76c828c6152f4565b51166000528b6020526040600020541561d78f575b61d78a906152a2565b61d750565b9761d7b561d78a918b61d7a68c6103a051926152f4565b511661240b82610340516152f4565b98905061d781565b5094959193965098509690959680610300526152be576004018061032052549561d7ea617202868961d93f565b6103805260009788610360525b610300516152be57610360518881101561d8855761d82161d836916000610300526103205161c5f4565b6103a05191549060031b1c166103405161e22a565b1561d851575b61d848610360516152a2565b6103605261d7f7565b9761d87f9061d866610360516103205161c5f4565b6103a05191549060031b1c1661240b82610380516152f4565b9761d83c565b5095939096509690969391936000915b83831061d9155750505050610300516152be5761038051516001600160401b0381116134ee5761d8c88161032051615343565b6020610380510161032051600052602060002060006103a051905b84811061d8ff57505050505061d8f8906152a2565b939261d66f565b600190602083865116950194818501550161d8e3565b61737761d939916103a05161d92a86866152f4565b511661240b82610380516152f4565b9161d895565b91908201809211611bcd57565b908061d956575050565b61496e91600052601f6020600020910160051c810190615308565b90600160401b81116134ee57815481835580821061d98e57505050565b61496e92600052601f6020600020918180850160051c840194168061d9ba575b500160051c0190615308565b600019908186019182549160200360031b1c1690553861d9ae565b9060031b60ff811b9283911b169119161790565b6201388480548210156152be576000526007602060002091020190600090565b60009261da1f61da19859461d9e9565b50614b15565b9380935b85515185101561db0257506127108410156152be5760039380851b9460018060a01b0385166000526020908601815261da686040966001886000205491015490616750565b9384911561dacd579061da7a916165f0565b96901561da9357505061da8c906152a2565b939061da23565b60649250519062461bcd60e51b825260048201526014602482015273746f74616c20706f776572206f766572666c6f7760601b6044820152fd5b875162461bcd60e51b815260048101849052600e60248201526d706f776572206f766572666c6f7760901b6044820152606490fd5b93505092505090565b1561db1257565b60405162461bcd60e51b815260206004820152601360248201527263757272656e74596573206f766572666c6f7760681b6044820152606490fd5b600161db588261d9e9565b500154620271235460009281845262027120908160205261db7f816003604088200161c5f4565b90549060031b1c918386528060205261db9e826004604089200161c5f4565b90549060031b1c93865260205260ff600661dbcf61dbc284600560408b200161c5f4565b90549060031b1c9361d9e9565b5001541661dc18575061dc099261dbfc61dbf7938361dbf061dc0295616726565b969061db0b565b61d93f565b90616750565b929061db0b565b111561dc125790565b50600190565b61dc34925061dc099361dc2d61dc0293616726565b949061db0b565b616750565b9092919261dc478251615e00565b60009161dc548151615e00565b8390845b865181101561dcdd576001600160a01b0361dc778161d6be848b6152f4565b158061dcac575b61dc92575b5061dc8d906152a2565b61dc58565b819661dca59161736b61dc8d948b6152f4565b959061dc83565b506127108a10156152be578061dcc2838a6152f4565b511660005260038a811b01602052604060002054151561dc7e565b509295919694509260005b875181101561dd5d576127108610156152be576001600160a01b038061dd0e838b6152f4565b5116600052600387811b016020526040600020541561dd37575b5061dd32906152a2565b61dce8565b819561dd569161dd4a61dd32948c6152f4565b511661240b82886152f4565b949061dd28565b50925094509261271083101593846152be5760049586600395861b019687549461dd8a617202828861d93f565b9460009689889a5b61dee157818b101561de2257506000998b61ddc761ddb0838361c5f4565b90546001600160a01b0392918e1b1c82168a61e22a565b1561dde6575b50509061dddc8b9493926152a2565b9a9091929361dd92565b91998c95949392909161ddfa908c9061c5f4565b9054908d1b1c1661de0b828b6152f4565b5261de15906152a2565b9890919293508b3861ddcd565b9697949a98505091975092506000915b83831061dec1575050505061deac578051926001600160401b03841161de97575061de5d8383615343565b602080910191600052806000209060005b84811061de7c575050505050565b83516001600160a01b0316838201559281019260010161de6e565b604190634e487b7160e01b6000525260246000fd5b603283634e487b7160e01b6000525260246000fd5b61dedb90617377906001600160a01b0361d21c86866152f4565b9161de32565b603285634e487b7160e01b6000525260246000fd5b9092919261df048251615e00565b60009161df118151615e00565b8390845b865181101561df9d576001600160a01b0361df348161d1e4848b6152f4565b158061df69575b61df4f575b5061df4a906152a2565b61df15565b819661df629161736b61df4a948b6152f4565b959061df40565b506127108a10156152be578061df7f838a6152f4565b5116600052620138918a60031b01602052604060002054151561df3b565b509295919694509260005b875181101561e014576127108610156152be576001600160a01b038061dfce838b6152f4565b5116600052620138918760031b016020526040600020541561dffa575b5061dff5906152a2565b61dfa8565b819561e00d9161dd4a61dff5948c6152f4565b949061dfeb565b50925094509261271083101593846152be5762013892600394851b019586549361e041617202828761d93f565b936000958887995b6152be57818a101561e0d957506000988a61e07e61e067838361c5f4565b90546001600160a01b0392918d1b1c82168961e22a565b1561e09d575b50509061e0938a9493926152a2565b999091929361e049565b91988b95949392909161e0b1908b9061c5f4565b9054908c1b1c1661e0c2828a6152f4565b5261e0cc906152a2565b9790919293508a3861e084565b96945050919795509295506000915b83831061e14c57505050506152be578151916001600160401b0383116134ee5761e1128383615343565b602080910191600052806000209060005b84811061e131575050505050565b83516001600160a01b0316838201559281019260010161e123565b61e17290617377906001600160a01b0361e16686866152f4565b511661240b828b6152f4565b9161e0e8565b9060005b6127108310156152be576003600484821b01805483101561e1cf578261e1a19161c5f4565b9054911b1c6001600160a01b039081169083161461e1c75761e1c2906152a2565b61e17c565b505050600190565b5050505050600090565b9060005b6127108310156152be5760036201389284821b01805483101561e1cf578261e2049161c5f4565b9054911b1c6001600160a01b039081169083161461e1c75761e225906152a2565b61e1dd565b9060005b825181101561e262576001600160a01b038061e24a83866152f4565b51169083161461e1c75761e25d906152a2565b61e22e565b505050600090565b8015611bcd576000190190565b9081519060005b600019838101848111611bcd5782101561e32b5760018201808311611bcd575b84811061e2b557505061e2b0906152a2565b61e27e565b6001600160a01b038061e2c885896152f4565b51168161e2d5848a6152f4565b51161461e2ec575b5061e2e7906152a2565b61e29e565b8286929601828111611bcd5761e2e79261e3259261e30d61e31f938b6152f4565b511661e319898b6152f4565b5261e26a565b9561e26a565b9061e2dd565b50509061e33781615e00565b9060005b81811061e349575090925050565b61e36b906001600160a01b0361e35f82886152f4565b511661240b82866152f4565b61e33b565b80519160005b600019848101858111611bcd5782101561e40f5760018201808311611bcd575b85811061e3ad57505061e3a8906152a2565b61e376565b61e3b783866152f4565b5161e3c282876152f4565b511461e3d7575b61e3d2906152a2565b61e396565b9481810190808211611bcd5761e40261e4089161e3f761e3d294896152f4565b5161e3198a8a6152f4565b9661e26a565b905061e3c9565b5050909161e41c81615e00565b9060005b81811061e42e575090925050565b8061e43c61e44792876152f4565b5161240b82866152f4565b61e420565b60405161e4588161353b565b600d81526c2ab735b737bbb71022b93937b960991b602082015290565b60405161e4818161353b565b6012815271496e76616c696420506172616d657465727360701b602082015290565b60405161e4af8161353b565b601581527413595b58995c88191bd95cc81b9bdd08195e1a5cdd605a1b602082015290565b60405161e4e08161353b565b601b81527a13595b58995c881a5cc8185b1c9958591e481cdd5cdc195b991959602a1b602082015290565b60405161e5178161353b565b60158152744d656d62657220616c72656164792065786973747360581b602082015290565b60405161e5488161353b565b60118152704e6f20656e6f7567682062616c616e636560781b602082015290565b60405161e5758161353b565b6018815277125b9d985b1a59081c185c985b595d195c881d1bc81cd95d60421b602082015290565b60405161e5a98161353b565b6015815274546f6b656e20616d6f756e74206f766572666c6f7760581b602082015290565b602281101561455857801561e79a576001811461dc12576002811461e794576003811461e78e576004811461e788576005811461e782576006811461e77c576007811461e776576008811461e770576009811461e76a57600a811461e76457600b811461e75e57600c811461e75857600d811461e75257600e811461e74c57600f811461e746576010811461e740576011811461e73a576012811461e734576013811461e72e576014811461e728576015811461e722576018811461e71c576017811461e716576019811461e71057601a811461e70a57601b811461e70457601c811461e6fe57601d811461e6f857601e811461e6f257601f811461e6ec576020811461e6e65760211461e6e157600090565b602190565b50602090565b50601f90565b50601e90565b50601d90565b50601c90565b50601b90565b50601a90565b50601990565b50601790565b50601690565b50601590565b50601490565b50601390565b50601290565b50601190565b50601090565b50600f90565b50600e90565b50600d90565b50600c90565b50600b90565b50600a90565b50600990565b50600890565b50600790565b50600690565b50600590565b50600490565b50600390565b50600290565b50600090565b9081518110156152be570160200190565b6040519061e7be82613571565b60288252604036602084013760005b6014811061e7da57505090565b601390808203918211611bcd57600382901b916001600160fd1b03811603611bcd5760ff808311611bcd5760019261e81e9084901b6001600160a01b038616616706565b60f0811682821603918211611bcd5761e83f9060f41b600f60f81b1661e89d565b82841b916001600160ff1b0384168403611bcd5761e8779160001a61e864848961e7a0565b5360f81b6001600160f81b03191661e89d565b928101809111611bcd5761e89261e8989360001a918661e7a0565b536152a2565b61e7cd565b60f81c600a81101561e8c45760300160ff8111611bcd5760f81b6001600160f81b03191690565b60570160ff8111611bcd5760f81b6001600160f81b0319169056fe546865206c656e677468206f662061646472657373657320616e6420746f6b65546865206c656e677468206f6620746f6b656e436c61737320616e6420746f6b546865206c656e677468206f6620746f6b656e496e666f20616e6420746f6b65546865206265666f7265206f7065726174696f6e20706c7567696e2073797374546865206c656e677468206f662061646472657373657320616e6420616d6f75a264697066735822122047933461152cae4ca48cb216a5462c8faf292dd321c6d7f53dad334393b389f964736f6c63430008110033",
  "linkReferences": {},
  "deployedLinkReferences": {}
}