{
  "_format": "hh-sol-artifact-1",
  "contractName": "DARC",
  "sourceName": "contracts/protocol/DARC.sol",
  "abi": [
    {
      "inputs": [
        {
          "internalType": "uint256",
          "name": "idx",
          "type": "uint256"
        }
      ],
      "name": "checkVotingResult",
      "outputs": [
        {
          "internalType": "enum VotingStatus",
          "name": "",
          "type": "uint8"
        }
      ],
      "stateMutability": "view",
      "type": "function"
    },
    {
      "inputs": [],
      "name": "checkVotingResults",
      "outputs": [
        {
          "internalType": "enum VotingStatus[]",
          "name": "",
          "type": "uint8[]"
        }
      ],
      "stateMutability": "view",
      "type": "function"
    },
    {
      "inputs": [],
      "name": "currentVotingEndTime",
      "outputs": [
        {
          "internalType": "uint256",
          "name": "",
          "type": "uint256"
        }
      ],
      "stateMutability": "view",
      "type": "function"
    },
    {
      "inputs": [
        {
          "components": [
            {
              "internalType": "address",
              "name": "programOperatorAddress",
              "type": "address"
            },
            {
              "components": [
                {
                  "internalType": "address",
                  "name": "operatorAddress",
                  "type": "address"
                },
                {
                  "internalType": "enum EnumOpcode",
                  "name": "opcode",
                  "type": "uint8"
                },
                {
                  "components": [
                    {
                      "internalType": "string[]",
                      "name": "STRING_ARRAY",
                      "type": "string[]"
                    },
                    {
                      "internalType": "bool[]",
                      "name": "BOOL_ARRAY",
                      "type": "bool[]"
                    },
                    {
                      "components": [
                        {
                          "internalType": "uint256[]",
                          "name": "votingTokenClassList",
                          "type": "uint256[]"
                        },
                        {
                          "internalType": "uint256",
                          "name": "approvalThresholdPercentage",
                          "type": "uint256"
                        },
                        {
                          "internalType": "uint256",
                          "name": "votingDurationInSeconds",
                          "type": "uint256"
                        },
                        {
                          "internalType": "uint256",
                          "name": "executionPendingDurationInSeconds",
                          "type": "uint256"
                        },
                        {
                          "internalType": "bool",
                          "name": "isEnabled",
                          "type": "bool"
                        },
                        {
                          "internalType": "string",
                          "name": "notes",
                          "type": "string"
                        },
                        {
                          "internalType": "bool",
                          "name": "bIsAbsoluteMajority",
                          "type": "bool"
                        }
                      ],
                      "internalType": "struct VotingRule[]",
                      "name": "VOTING_RULE_ARRAY",
                      "type": "tuple[]"
                    },
                    {
                      "components": [
                        {
                          "internalType": "enum EnumReturnType",
                          "name": "returnType",
                          "type": "uint8"
                        },
                        {
                          "internalType": "uint256",
                          "name": "level",
                          "type": "uint256"
                        },
                        {
                          "components": [
                            {
                              "internalType": "uint256",
                              "name": "id",
                              "type": "uint256"
                            },
                            {
                              "internalType": "enum EnumConditionNodeType",
                              "name": "nodeType",
                              "type": "uint8"
                            },
                            {
                              "internalType": "enum EnumLogicalOperatorType",
                              "name": "logicalOperator",
                              "type": "uint8"
                            },
                            {
                              "internalType": "enum EnumConditionExpression",
                              "name": "conditionExpression",
                              "type": "uint8"
                            },
                            {
                              "internalType": "uint256[]",
                              "name": "childList",
                              "type": "uint256[]"
                            },
                            {
                              "components": [
                                {
                                  "internalType": "string[]",
                                  "name": "STRING_ARRAY",
                                  "type": "string[]"
                                },
                                {
                                  "internalType": "uint256[][]",
                                  "name": "UINT256_2DARRAY",
                                  "type": "uint256[][]"
                                },
                                {
                                  "internalType": "address[][]",
                                  "name": "ADDRESS_2DARRAY",
                                  "type": "address[][]"
                                },
                                {
                                  "internalType": "bytes",
                                  "name": "BYTES",
                                  "type": "bytes"
                                }
                              ],
                              "internalType": "struct NodeParam",
                              "name": "param",
                              "type": "tuple"
                            }
                          ],
                          "internalType": "struct ConditionNode[]",
                          "name": "conditionNodes",
                          "type": "tuple[]"
                        },
                        {
                          "internalType": "uint256",
                          "name": "votingRuleIndex",
                          "type": "uint256"
                        },
                        {
                          "internalType": "string",
                          "name": "note",
                          "type": "string"
                        },
                        {
                          "internalType": "bool",
                          "name": "bIsEnabled",
                          "type": "bool"
                        },
                        {
                          "internalType": "bool",
                          "name": "bIsInitialized",
                          "type": "bool"
                        },
                        {
                          "internalType": "bool",
                          "name": "bIsBeforeOperation",
                          "type": "bool"
                        }
                      ],
                      "internalType": "struct Plugin[]",
                      "name": "PLUGIN_ARRAY",
                      "type": "tuple[]"
                    },
                    {
                      "internalType": "enum MachineParameter[]",
                      "name": "PARAMETER_ARRAY",
                      "type": "uint8[]"
                    },
                    {
                      "internalType": "uint256[][]",
                      "name": "UINT256_2DARRAY",
                      "type": "uint256[][]"
                    },
                    {
                      "internalType": "address[][]",
                      "name": "ADDRESS_2DARRAY",
                      "type": "address[][]"
                    },
                    {
                      "internalType": "bytes",
                      "name": "BYTES",
                      "type": "bytes"
                    }
                  ],
                  "internalType": "struct Param",
                  "name": "param",
                  "type": "tuple"
                }
              ],
              "internalType": "struct Operation[]",
              "name": "operations",
              "type": "tuple[]"
            },
            {
              "internalType": "string",
              "name": "notes",
              "type": "string"
            }
          ],
          "internalType": "struct Program",
          "name": "program",
          "type": "tuple"
        }
      ],
      "name": "entrance",
      "outputs": [
        {
          "internalType": "string",
          "name": "",
          "type": "string"
        }
      ],
      "stateMutability": "payable",
      "type": "function"
    },
    {
      "inputs": [],
      "name": "executingPendingDeadline",
      "outputs": [
        {
          "internalType": "uint256",
          "name": "",
          "type": "uint256"
        }
      ],
      "stateMutability": "view",
      "type": "function"
    },
    {
      "inputs": [],
      "name": "finiteState",
      "outputs": [
        {
          "internalType": "enum FiniteState",
          "name": "",
          "type": "uint8"
        }
      ],
      "stateMutability": "view",
      "type": "function"
    },
    {
      "inputs": [],
      "name": "getCurrentDividendPerUnit",
      "outputs": [
        {
          "internalType": "uint256",
          "name": "",
          "type": "uint256"
        }
      ],
      "stateMutability": "view",
      "type": "function"
    },
    {
      "inputs": [
        {
          "internalType": "address",
          "name": "member",
          "type": "address"
        }
      ],
      "name": "getMemberInfo",
      "outputs": [
        {
          "components": [
            {
              "internalType": "bool",
              "name": "bIsInitialized",
              "type": "bool"
            },
            {
              "internalType": "bool",
              "name": "bIsSuspended",
              "type": "bool"
            },
            {
              "internalType": "string",
              "name": "name",
              "type": "string"
            },
            {
              "internalType": "uint256",
              "name": "role",
              "type": "uint256"
            }
          ],
          "internalType": "struct MemberInfo",
          "name": "",
          "type": "tuple"
        }
      ],
      "stateMutability": "view",
      "type": "function"
    },
    {
      "inputs": [],
      "name": "getMemberList",
      "outputs": [
        {
          "internalType": "address[]",
          "name": "",
          "type": "address[]"
        }
      ],
      "stateMutability": "view",
      "type": "function"
    },
    {
      "inputs": [],
      "name": "getMyInfo",
      "outputs": [
        {
          "internalType": "address",
          "name": "",
          "type": "address"
        }
      ],
      "stateMutability": "view",
      "type": "function"
    },
    {
      "inputs": [],
      "name": "getNumberOfTokenClasses",
      "outputs": [
        {
          "internalType": "uint256",
          "name": "",
          "type": "uint256"
        }
      ],
      "stateMutability": "view",
      "type": "function"
    },
    {
      "inputs": [],
      "name": "getPluginInfo",
      "outputs": [
        {
          "components": [
            {
              "internalType": "enum EnumReturnType",
              "name": "returnType",
              "type": "uint8"
            },
            {
              "internalType": "uint256",
              "name": "level",
              "type": "uint256"
            },
            {
              "components": [
                {
                  "internalType": "uint256",
                  "name": "id",
                  "type": "uint256"
                },
                {
                  "internalType": "enum EnumConditionNodeType",
                  "name": "nodeType",
                  "type": "uint8"
                },
                {
                  "internalType": "enum EnumLogicalOperatorType",
                  "name": "logicalOperator",
                  "type": "uint8"
                },
                {
                  "internalType": "enum EnumConditionExpression",
                  "name": "conditionExpression",
                  "type": "uint8"
                },
                {
                  "internalType": "uint256[]",
                  "name": "childList",
                  "type": "uint256[]"
                },
                {
                  "components": [
                    {
                      "internalType": "string[]",
                      "name": "STRING_ARRAY",
                      "type": "string[]"
                    },
                    {
                      "internalType": "uint256[][]",
                      "name": "UINT256_2DARRAY",
                      "type": "uint256[][]"
                    },
                    {
                      "internalType": "address[][]",
                      "name": "ADDRESS_2DARRAY",
                      "type": "address[][]"
                    },
                    {
                      "internalType": "bytes",
                      "name": "BYTES",
                      "type": "bytes"
                    }
                  ],
                  "internalType": "struct NodeParam",
                  "name": "param",
                  "type": "tuple"
                }
              ],
              "internalType": "struct ConditionNode[]",
              "name": "conditionNodes",
              "type": "tuple[]"
            },
            {
              "internalType": "uint256",
              "name": "votingRuleIndex",
              "type": "uint256"
            },
            {
              "internalType": "string",
              "name": "note",
              "type": "string"
            },
            {
              "internalType": "bool",
              "name": "bIsEnabled",
              "type": "bool"
            },
            {
              "internalType": "bool",
              "name": "bIsInitialized",
              "type": "bool"
            },
            {
              "internalType": "bool",
              "name": "bIsBeforeOperation",
              "type": "bool"
            }
          ],
          "internalType": "struct Plugin[]",
          "name": "",
          "type": "tuple[]"
        },
        {
          "components": [
            {
              "internalType": "enum EnumReturnType",
              "name": "returnType",
              "type": "uint8"
            },
            {
              "internalType": "uint256",
              "name": "level",
              "type": "uint256"
            },
            {
              "components": [
                {
                  "internalType": "uint256",
                  "name": "id",
                  "type": "uint256"
                },
                {
                  "internalType": "enum EnumConditionNodeType",
                  "name": "nodeType",
                  "type": "uint8"
                },
                {
                  "internalType": "enum EnumLogicalOperatorType",
                  "name": "logicalOperator",
                  "type": "uint8"
                },
                {
                  "internalType": "enum EnumConditionExpression",
                  "name": "conditionExpression",
                  "type": "uint8"
                },
                {
                  "internalType": "uint256[]",
                  "name": "childList",
                  "type": "uint256[]"
                },
                {
                  "components": [
                    {
                      "internalType": "string[]",
                      "name": "STRING_ARRAY",
                      "type": "string[]"
                    },
                    {
                      "internalType": "uint256[][]",
                      "name": "UINT256_2DARRAY",
                      "type": "uint256[][]"
                    },
                    {
                      "internalType": "address[][]",
                      "name": "ADDRESS_2DARRAY",
                      "type": "address[][]"
                    },
                    {
                      "internalType": "bytes",
                      "name": "BYTES",
                      "type": "bytes"
                    }
                  ],
                  "internalType": "struct NodeParam",
                  "name": "param",
                  "type": "tuple"
                }
              ],
              "internalType": "struct ConditionNode[]",
              "name": "conditionNodes",
              "type": "tuple[]"
            },
            {
              "internalType": "uint256",
              "name": "votingRuleIndex",
              "type": "uint256"
            },
            {
              "internalType": "string",
              "name": "note",
              "type": "string"
            },
            {
              "internalType": "bool",
              "name": "bIsEnabled",
              "type": "bool"
            },
            {
              "internalType": "bool",
              "name": "bIsInitialized",
              "type": "bool"
            },
            {
              "internalType": "bool",
              "name": "bIsBeforeOperation",
              "type": "bool"
            }
          ],
          "internalType": "struct Plugin[]",
          "name": "",
          "type": "tuple[]"
        }
      ],
      "stateMutability": "view",
      "type": "function"
    },
    {
      "inputs": [
        {
          "internalType": "uint256",
          "name": "tokenClassIndex",
          "type": "uint256"
        }
      ],
      "name": "getSumDividendWeightByTokenClass",
      "outputs": [
        {
          "internalType": "uint256",
          "name": "",
          "type": "uint256"
        }
      ],
      "stateMutability": "view",
      "type": "function"
    },
    {
      "inputs": [
        {
          "internalType": "uint256",
          "name": "tokenClassIndex",
          "type": "uint256"
        }
      ],
      "name": "getSumVotingWeightByTokenClass",
      "outputs": [
        {
          "internalType": "uint256",
          "name": "",
          "type": "uint256"
        }
      ],
      "stateMutability": "view",
      "type": "function"
    },
    {
      "inputs": [
        {
          "internalType": "uint256",
          "name": "tokenClassIndex",
          "type": "uint256"
        }
      ],
      "name": "getTokenInfo",
      "outputs": [
        {
          "internalType": "uint256",
          "name": "votingWeight",
          "type": "uint256"
        },
        {
          "internalType": "uint256",
          "name": "dividendWeight",
          "type": "uint256"
        },
        {
          "internalType": "string",
          "name": "tokenInfo",
          "type": "string"
        },
        {
          "internalType": "uint256",
          "name": "totalSupply",
          "type": "uint256"
        }
      ],
      "stateMutability": "view",
      "type": "function"
    },
    {
      "inputs": [
        {
          "internalType": "uint256",
          "name": "tokenClassIndex",
          "type": "uint256"
        },
        {
          "internalType": "address",
          "name": "tokenOwnerAddress",
          "type": "address"
        }
      ],
      "name": "getTokenOwnerBalance",
      "outputs": [
        {
          "internalType": "uint256",
          "name": "",
          "type": "uint256"
        }
      ],
      "stateMutability": "view",
      "type": "function"
    },
    {
      "inputs": [
        {
          "internalType": "uint256",
          "name": "tokenClassIndex",
          "type": "uint256"
        }
      ],
      "name": "getTokenOwners",
      "outputs": [
        {
          "internalType": "address[]",
          "name": "",
          "type": "address[]"
        }
      ],
      "stateMutability": "view",
      "type": "function"
    },
    {
      "inputs": [
        {
          "internalType": "address",
          "name": "member",
          "type": "address"
        }
      ],
      "name": "getWithdrawableCashBalance",
      "outputs": [
        {
          "internalType": "uint256",
          "name": "",
          "type": "uint256"
        }
      ],
      "stateMutability": "view",
      "type": "function"
    },
    {
      "inputs": [],
      "name": "getWithdrawableCashOwnerList",
      "outputs": [
        {
          "internalType": "address[]",
          "name": "",
          "type": "address[]"
        }
      ],
      "stateMutability": "view",
      "type": "function"
    },
    {
      "inputs": [
        {
          "internalType": "address",
          "name": "member",
          "type": "address"
        }
      ],
      "name": "getWithdrawableDividendBalance",
      "outputs": [
        {
          "internalType": "uint256",
          "name": "",
          "type": "uint256"
        }
      ],
      "stateMutability": "view",
      "type": "function"
    },
    {
      "inputs": [],
      "name": "getWithdrawableDividendOwnerList",
      "outputs": [
        {
          "internalType": "address[]",
          "name": "",
          "type": "address[]"
        }
      ],
      "stateMutability": "view",
      "type": "function"
    },
    {
      "inputs": [],
      "name": "initialOwnerAddress",
      "outputs": [
        {
          "internalType": "address",
          "name": "",
          "type": "address"
        }
      ],
      "stateMutability": "view",
      "type": "function"
    },
    {
      "inputs": [],
      "name": "initialize",
      "outputs": [],
      "stateMutability": "nonpayable",
      "type": "function"
    },
    {
      "inputs": [
        {
          "internalType": "uint256[]",
          "name": "votingRuleIndices",
          "type": "uint256[]"
        },
        {
          "components": [
            {
              "internalType": "address",
              "name": "programOperatorAddress",
              "type": "address"
            },
            {
              "components": [
                {
                  "internalType": "address",
                  "name": "operatorAddress",
                  "type": "address"
                },
                {
                  "internalType": "enum EnumOpcode",
                  "name": "opcode",
                  "type": "uint8"
                },
                {
                  "components": [
                    {
                      "internalType": "string[]",
                      "name": "STRING_ARRAY",
                      "type": "string[]"
                    },
                    {
                      "internalType": "bool[]",
                      "name": "BOOL_ARRAY",
                      "type": "bool[]"
                    },
                    {
                      "components": [
                        {
                          "internalType": "uint256[]",
                          "name": "votingTokenClassList",
                          "type": "uint256[]"
                        },
                        {
                          "internalType": "uint256",
                          "name": "approvalThresholdPercentage",
                          "type": "uint256"
                        },
                        {
                          "internalType": "uint256",
                          "name": "votingDurationInSeconds",
                          "type": "uint256"
                        },
                        {
                          "internalType": "uint256",
                          "name": "executionPendingDurationInSeconds",
                          "type": "uint256"
                        },
                        {
                          "internalType": "bool",
                          "name": "isEnabled",
                          "type": "bool"
                        },
                        {
                          "internalType": "string",
                          "name": "notes",
                          "type": "string"
                        },
                        {
                          "internalType": "bool",
                          "name": "bIsAbsoluteMajority",
                          "type": "bool"
                        }
                      ],
                      "internalType": "struct VotingRule[]",
                      "name": "VOTING_RULE_ARRAY",
                      "type": "tuple[]"
                    },
                    {
                      "components": [
                        {
                          "internalType": "enum EnumReturnType",
                          "name": "returnType",
                          "type": "uint8"
                        },
                        {
                          "internalType": "uint256",
                          "name": "level",
                          "type": "uint256"
                        },
                        {
                          "components": [
                            {
                              "internalType": "uint256",
                              "name": "id",
                              "type": "uint256"
                            },
                            {
                              "internalType": "enum EnumConditionNodeType",
                              "name": "nodeType",
                              "type": "uint8"
                            },
                            {
                              "internalType": "enum EnumLogicalOperatorType",
                              "name": "logicalOperator",
                              "type": "uint8"
                            },
                            {
                              "internalType": "enum EnumConditionExpression",
                              "name": "conditionExpression",
                              "type": "uint8"
                            },
                            {
                              "internalType": "uint256[]",
                              "name": "childList",
                              "type": "uint256[]"
                            },
                            {
                              "components": [
                                {
                                  "internalType": "string[]",
                                  "name": "STRING_ARRAY",
                                  "type": "string[]"
                                },
                                {
                                  "internalType": "uint256[][]",
                                  "name": "UINT256_2DARRAY",
                                  "type": "uint256[][]"
                                },
                                {
                                  "internalType": "address[][]",
                                  "name": "ADDRESS_2DARRAY",
                                  "type": "address[][]"
                                },
                                {
                                  "internalType": "bytes",
                                  "name": "BYTES",
                                  "type": "bytes"
                                }
                              ],
                              "internalType": "struct NodeParam",
                              "name": "param",
                              "type": "tuple"
                            }
                          ],
                          "internalType": "struct ConditionNode[]",
                          "name": "conditionNodes",
                          "type": "tuple[]"
                        },
                        {
                          "internalType": "uint256",
                          "name": "votingRuleIndex",
                          "type": "uint256"
                        },
                        {
                          "internalType": "string",
                          "name": "note",
                          "type": "string"
                        },
                        {
                          "internalType": "bool",
                          "name": "bIsEnabled",
                          "type": "bool"
                        },
                        {
                          "internalType": "bool",
                          "name": "bIsInitialized",
                          "type": "bool"
                        },
                        {
                          "internalType": "bool",
                          "name": "bIsBeforeOperation",
                          "type": "bool"
                        }
                      ],
                      "internalType": "struct Plugin[]",
                      "name": "PLUGIN_ARRAY",
                      "type": "tuple[]"
                    },
                    {
                      "internalType": "enum MachineParameter[]",
                      "name": "PARAMETER_ARRAY",
                      "type": "uint8[]"
                    },
                    {
                      "internalType": "uint256[][]",
                      "name": "UINT256_2DARRAY",
                      "type": "uint256[][]"
                    },
                    {
                      "internalType": "address[][]",
                      "name": "ADDRESS_2DARRAY",
                      "type": "address[][]"
                    },
                    {
                      "internalType": "bytes",
                      "name": "BYTES",
                      "type": "bytes"
                    }
                  ],
                  "internalType": "struct Param",
                  "name": "param",
                  "type": "tuple"
                }
              ],
              "internalType": "struct Operation[]",
              "name": "operations",
              "type": "tuple[]"
            },
            {
              "internalType": "string",
              "name": "notes",
              "type": "string"
            }
          ],
          "internalType": "struct Program",
          "name": "currentProgram",
          "type": "tuple"
        }
      ],
      "name": "initializeVoting",
      "outputs": [],
      "stateMutability": "nonpayable",
      "type": "function"
    },
    {
      "inputs": [],
      "name": "latestVotingItemIndex",
      "outputs": [
        {
          "internalType": "uint256",
          "name": "",
          "type": "uint256"
        }
      ],
      "stateMutability": "view",
      "type": "function"
    },
    {
      "inputs": [
        {
          "internalType": "address",
          "name": "voter",
          "type": "address"
        },
        {
          "internalType": "bool[]",
          "name": "votes",
          "type": "bool[]"
        }
      ],
      "name": "vote",
      "outputs": [],
      "stateMutability": "nonpayable",
      "type": "function"
    },
    {
      "inputs": [],
      "name": "votingDeadline",
      "outputs": [
        {
          "internalType": "uint256",
          "name": "",
          "type": "uint256"
        }
      ],
      "stateMutability": "view",
      "type": "function"
    },
    {
      "inputs": [
        {
          "internalType": "uint256",
          "name": "",
          "type": "uint256"
        }
      ],
      "name": "votingItems",
      "outputs": [
        {
          "components": [
            {
              "internalType": "address",
              "name": "programOperatorAddress",
              "type": "address"
            },
            {
              "components": [
                {
                  "internalType": "address",
                  "name": "operatorAddress",
                  "type": "address"
                },
                {
                  "internalType": "enum EnumOpcode",
                  "name": "opcode",
                  "type": "uint8"
                },
                {
                  "components": [
                    {
                      "internalType": "string[]",
                      "name": "STRING_ARRAY",
                      "type": "string[]"
                    },
                    {
                      "internalType": "bool[]",
                      "name": "BOOL_ARRAY",
                      "type": "bool[]"
                    },
                    {
                      "components": [
                        {
                          "internalType": "uint256[]",
                          "name": "votingTokenClassList",
                          "type": "uint256[]"
                        },
                        {
                          "internalType": "uint256",
                          "name": "approvalThresholdPercentage",
                          "type": "uint256"
                        },
                        {
                          "internalType": "uint256",
                          "name": "votingDurationInSeconds",
                          "type": "uint256"
                        },
                        {
                          "internalType": "uint256",
                          "name": "executionPendingDurationInSeconds",
                          "type": "uint256"
                        },
                        {
                          "internalType": "bool",
                          "name": "isEnabled",
                          "type": "bool"
                        },
                        {
                          "internalType": "string",
                          "name": "notes",
                          "type": "string"
                        },
                        {
                          "internalType": "bool",
                          "name": "bIsAbsoluteMajority",
                          "type": "bool"
                        }
                      ],
                      "internalType": "struct VotingRule[]",
                      "name": "VOTING_RULE_ARRAY",
                      "type": "tuple[]"
                    },
                    {
                      "components": [
                        {
                          "internalType": "enum EnumReturnType",
                          "name": "returnType",
                          "type": "uint8"
                        },
                        {
                          "internalType": "uint256",
                          "name": "level",
                          "type": "uint256"
                        },
                        {
                          "components": [
                            {
                              "internalType": "uint256",
                              "name": "id",
                              "type": "uint256"
                            },
                            {
                              "internalType": "enum EnumConditionNodeType",
                              "name": "nodeType",
                              "type": "uint8"
                            },
                            {
                              "internalType": "enum EnumLogicalOperatorType",
                              "name": "logicalOperator",
                              "type": "uint8"
                            },
                            {
                              "internalType": "enum EnumConditionExpression",
                              "name": "conditionExpression",
                              "type": "uint8"
                            },
                            {
                              "internalType": "uint256[]",
                              "name": "childList",
                              "type": "uint256[]"
                            },
                            {
                              "components": [
                                {
                                  "internalType": "string[]",
                                  "name": "STRING_ARRAY",
                                  "type": "string[]"
                                },
                                {
                                  "internalType": "uint256[][]",
                                  "name": "UINT256_2DARRAY",
                                  "type": "uint256[][]"
                                },
                                {
                                  "internalType": "address[][]",
                                  "name": "ADDRESS_2DARRAY",
                                  "type": "address[][]"
                                },
                                {
                                  "internalType": "bytes",
                                  "name": "BYTES",
                                  "type": "bytes"
                                }
                              ],
                              "internalType": "struct NodeParam",
                              "name": "param",
                              "type": "tuple"
                            }
                          ],
                          "internalType": "struct ConditionNode[]",
                          "name": "conditionNodes",
                          "type": "tuple[]"
                        },
                        {
                          "internalType": "uint256",
                          "name": "votingRuleIndex",
                          "type": "uint256"
                        },
                        {
                          "internalType": "string",
                          "name": "note",
                          "type": "string"
                        },
                        {
                          "internalType": "bool",
                          "name": "bIsEnabled",
                          "type": "bool"
                        },
                        {
                          "internalType": "bool",
                          "name": "bIsInitialized",
                          "type": "bool"
                        },
                        {
                          "internalType": "bool",
                          "name": "bIsBeforeOperation",
                          "type": "bool"
                        }
                      ],
                      "internalType": "struct Plugin[]",
                      "name": "PLUGIN_ARRAY",
                      "type": "tuple[]"
                    },
                    {
                      "internalType": "enum MachineParameter[]",
                      "name": "PARAMETER_ARRAY",
                      "type": "uint8[]"
                    },
                    {
                      "internalType": "uint256[][]",
                      "name": "UINT256_2DARRAY",
                      "type": "uint256[][]"
                    },
                    {
                      "internalType": "address[][]",
                      "name": "ADDRESS_2DARRAY",
                      "type": "address[][]"
                    },
                    {
                      "internalType": "bytes",
                      "name": "BYTES",
                      "type": "bytes"
                    }
                  ],
                  "internalType": "struct Param",
                  "name": "param",
                  "type": "tuple"
                }
              ],
              "internalType": "struct Operation[]",
              "name": "operations",
              "type": "tuple[]"
            },
            {
              "internalType": "string",
              "name": "notes",
              "type": "string"
            }
          ],
          "internalType": "struct Program",
          "name": "program",
          "type": "tuple"
        },
        {
          "internalType": "uint256",
          "name": "votingEndTime",
          "type": "uint256"
        },
        {
          "internalType": "uint256",
          "name": "executingEndTime",
          "type": "uint256"
        },
        {
          "internalType": "enum VotingStatus",
          "name": "votingStatus",
          "type": "uint8"
        },
        {
          "internalType": "bool",
          "name": "bIsProgramExecuted",
          "type": "bool"
        }
      ],
      "stateMutability": "view",
      "type": "function"
    },
    {
      "inputs": [
        {
          "internalType": "uint256",
          "name": "amount",
          "type": "uint256"
        }
      ],
      "name": "withdrawCash",
      "outputs": [],
      "stateMutability": "nonpayable",
      "type": "function"
    },
    {
      "inputs": [
        {
          "internalType": "uint256",
          "name": "amount",
          "type": "uint256"
        }
      ],
      "name": "withdrawDividends",
      "outputs": [],
      "stateMutability": "nonpayable",
      "type": "function"
    }
  ],
  "bytecode": "0x608080604052346200001957620169fe90816200001f8239f35b600080fdfe6109a08060405260043610156200001557600080fd5b600080608052803560e01c918263036ee8501462003da5575081630e5a3b291462003a3757816310ade3ea1462003a055781631797631d14620039925781631c75255a146200393c57816323b65c7814620038c95781632514a6b4146200368957816341d1a438146200365657816356424cf4146200356e5781635c00d987146200351f5781635d0b184914620034fb5781635f1231ea14620034075781635f5d5f001462003394578163681ece9d146200335157816374579b18146200236757816379532bfe14620023435781637daa10ce14620023245781638129fc1c1462001f455750806383e4cccf1462001cce578063864f9f7a1462001c8c57806386ad77e2146200194d5780638c7a63ae14620018d35780639df9914514620017b25780639f36145f14620004e1578063a064c4f11462000416578063acf80bc414620003d4578063aefca42a14620003b0578063bba51030146200021b578063d5a172f214620001ec5763d6a93c51146200018f57600080fd5b34620001e65760805180600319360112620001e3575b6127108110620001bb575b602090604051908152f35b60ff60078260031b01541615620001dd57620001d79062005a85565b620001a5565b620001b0565b80fd5b60805180fd5b34620001e65760805180600319360112620001e35762027126546040516001600160a01b039091168152602090f35b34620001e65760805180600319360112620001e3576202712e548091526202712b906020828152600380604060805120015493620002766200025d8662003edb565b956200026d604051978862003eb7565b80875262003edb565b8584019190601f19013683376080515b8560805152818552836040608051200154811015620003595760405163083a348760e31b815260048101829052602486828281305afa9182156200034c57608051926200030e575b50620002db838a62005af1565b9086831015620002f8575052620002f29062005a85565b62000286565b60808051634e487b7160e01b9052602160045251fd5b9091508681813d831162000344575b62000329818362003eb7565b81010312620001e6575185811015620001e6579089620002ce565b503d6200031d565b6040513d608051823e3d90fd5b84878460405192839281840190828552518091526040840192916080515b8281106200038757505050500390f35b91938395509080826200039f60019483975162003fd8565b019501910191859493919262000377565b34620001e65760805180600319360112620001e35760206202712854604051908152f35b34620001e6576020366003190112620001e6576001600160a01b03620003f962003dc7565b166080515262013887602052602060406080512054604051908152f35b34620001e6576020366003190112620001e657600435612710811015620004c957806200044f6001620004569360031b01549162006c21565b9062006b9b565b90156200046857602090604051908152f35b60405162461bcd60e51b815260206004820152603360248201527f73756d566f74696e67576569676874466f72546f6b656e436c6173733a20766f60448201527274696e67576569676874206f766572666c6f7760681b6064820152608490fd5b634e487b7160e01b6080515260326004526024608051fd5b34620001e6576020366003190112620001e657600435608051526202712b602052604060805120604051620005168162003e63565b81546001600160a01b03168152600182018054909290620005378162003edb565b9062000547604051928362003eb7565b808252602082019460805152608051946020862095905b828210620005e957620005be8686866020830152604051620005918162000589816002860162005166565b038262003eb7565b604083015260ff600782015491600960088201549101549060405195869560a0875260a0870190620054e0565b9360208601526040850152620005da6060850183831662003fd8565b60081c16151560808301520390f35b604051620005f78162003e63565b87546001600160a01b0381168252602660a082901c60ff1610156200179a5760a01c60ff1660208201526040516200062f8162003e46565b6200063d60018a0162005204565b8152600289016040518082602082945493848152019060805152608051926020842093905b80601f830110620015c7576200079b945491818110620015b0575b81811062001596575b8181106200157c575b81811062001562575b81811062001549575b8181106200152f575b81811062001515575b818110620014fb575b818110620014e1575b818110620014c7575b818110620014ad575b81811062001493575b81811062001479575b8181106200145f575b81811062001445575b8181106200142b575b81811062001411575b818110620013f7575b818110620013dd575b818110620013c3575b818110620013a9575b8181106200138f575b81811062001375575b8181106200135b575b81811062001341575b81811062001327575b8181106200130d575b818110620012f3575b818110620012d9575b818110620012bf575b818110620012a5575b1062001294575b50038262003eb7565b6020820152600389018054620007b18162003edb565b91620007c1604051938462003eb7565b818352602083019060805152608051906020822091905b8382106200127357505050506040820152600489018054620007fa8162003edb565b916200080a604051938462003eb7565b818352602083019060805152608051906020822091905b838210620010fc57505050506060820152600589016040519081602082549182815201916080515260805190602082205b81601f84011062000e0b5784600997946020979460019a97946200099894549181811062000ded575b81811062000dcc575b81811062000dab575b81811062000d8a575b81811062000d6a575b81811062000d49575b81811062000d28575b81811062000d07575b81811062000ce6575b81811062000cc5575b81811062000ca4575b81811062000c83575b81811062000c62575b81811062000c41575b81811062000c20575b81811062000bff575b81811062000bde575b81811062000bbd575b81811062000b9c575b81811062000b7b575b81811062000b5a575b81811062000b39575b81811062000b18575b81811062000af7575b81811062000ad6575b81811062000ab5575b81811062000a94575b81811062000a73575b81811062000a52575b81811062000a31575b81811062000a10575b10620009f55750038262003eb7565b6080820152620009ab60068d0162005368565b60a0820152620009be60078d0162005421565b60c08201526008620009dc8d62000589604051809481930162005166565b60e082015260408201528152019701910190956200055e565b90889160f81c62000a068162004dc4565b8152013862000792565b928a8d9160ff8560f01c1662000a268162004dc4565b815201930162000989565b928a8d9160ff8560e81c1662000a478162004dc4565b815201930162000980565b928a8d9160ff8560e01c1662000a688162004dc4565b815201930162000977565b928a8d9160ff8560d81c1662000a898162004dc4565b81520193016200096e565b928a8d9160ff8560d01c1662000aaa8162004dc4565b815201930162000965565b928a8d9160ff8560c81c1662000acb8162004dc4565b81520193016200095c565b928a8d9160ff8560c01c1662000aec8162004dc4565b815201930162000953565b928a8d9160ff8560b81c1662000b0d8162004dc4565b81520193016200094a565b928a8d9160ff8560b01c1662000b2e8162004dc4565b815201930162000941565b928a8d9160ff8560a81c1662000b4f8162004dc4565b815201930162000938565b928a8d9160ff8560a01c1662000b708162004dc4565b81520193016200092f565b928a8d9160ff8560981c1662000b918162004dc4565b815201930162000926565b928a8d9160ff8560901c1662000bb28162004dc4565b81520193016200091d565b928a8d9160ff8560881c1662000bd38162004dc4565b815201930162000914565b928a8d9160ff8560801c1662000bf48162004dc4565b81520193016200090b565b928a8d9160ff8560781c1662000c158162004dc4565b815201930162000902565b928a8d9160ff8560701c1662000c368162004dc4565b8152019301620008f9565b928a8d9160ff8560681c1662000c578162004dc4565b8152019301620008f0565b928a8d9160ff8560601c1662000c788162004dc4565b8152019301620008e7565b928a8d9160ff8560581c1662000c998162004dc4565b8152019301620008de565b928a8d9160ff8560501c1662000cba8162004dc4565b8152019301620008d5565b928a8d9160ff8560481c1662000cdb8162004dc4565b8152019301620008cc565b928a8d9160ff8560401c1662000cfc8162004dc4565b8152019301620008c3565b928a8d9160ff8560381c1662000d1d8162004dc4565b8152019301620008ba565b928a8d9160ff8560301c1662000d3e8162004dc4565b8152019301620008b1565b928a8d9160ff8560281c1662000d5f8162004dc4565b8152019301620008a8565b928a8d9160ff85831c1662000d7f8162004dc4565b81520193016200089f565b928a8d9160ff8560181c1662000da08162004dc4565b815201930162000896565b928a8d9160ff8560101c1662000dc18162004dc4565b81520193016200088d565b928a8d9160ff8560081c1662000de28162004dc4565b815201930162000884565b928a8d9160ff851662000e008162004dc4565b81520193016200087b565b926001610400602092865460ff811662000e258162004dc4565b825260ff8160081c1662000e398162004dc4565b8583015260ff8160101c1662000e4f8162004dc4565b604083015260ff8160181c1662000e668162004dc4565b606083015260ff81861c1662000e7c8162004dc4565b608083015260ff8160281c1662000e938162004dc4565b60a083015260ff81818160301c1662000eac8162004dc4565b60c09081860152828260381c1662000ec48162004dc4565b60e0860152828260401c1662000eda8162004dc4565b610100860152828260481c1662000ef18162004dc4565b610120860152828260501c1662000f088162004dc4565b610140860152828260581c1662000f1f8162004dc4565b610160860152828260601c1662000f368162004dc4565b610180860152828260681c1662000f4d8162004dc4565b6101a0860152828260701c1662000f648162004dc4565b6101c0860152828260781c1662000f7b8162004dc4565b6101e0860152828260801c1662000f928162004dc4565b610200860152828260881c1662000fa98162004dc4565b610220860152828260901c1662000fc08162004dc4565b610240860152828260981c1662000fd78162004dc4565b610260860152828260a01c1662000fee8162004dc4565b610280860152828260a81c16620010058162004dc4565b6102a0860152828260b01c166200101c8162004dc4565b6102c0860152828260b81c16620010338162004dc4565b6102e08601521c16620010468162004dc4565b61030083015260ff8160c81c166200105e8162004dc4565b61032083015260ff8160d01c16620010768162004dc4565b61034083015260ff8160d81c166200108e8162004dc4565b61036083015260ff8160e01c16620010a68162004dc4565b61038083015260ff8160e81c16620010be8162004dc4565b6103a083015260ff8160f01c16620010d68162004dc4565b6103c083015260f81c620010ea8162004dc4565b6103e082015201940192019162000852565b60409d9c9b9a999897969d51620011138162003e46565b6200112360ff855416826200534e565b600184015460208201526002840180546200113e8162003edb565b916200114e604051938462003eb7565b8183526020830190608051526080516020812090915b838310620011e557505050509d9e9798999a9b9c9d600192826020926040600695015260038701546060820152604051620011a881620005898160048c0162005166565b608082015260ff6005880154818116151560a0840152818160081c16151560c084015260101c16151560e082015281520193019101909162000821565b60076020600192604051620011fa8162003e2a565b855481526200123e60ff86880154818116620012168162004dc4565b86850152818160081c166200122b8162003f71565b604085015260101c16606083016200535b565b6200124c6002870162005272565b60808201526200125f600387016200547e565b60a082015281520192019201919062001164565b600760206001926200128586620052c7565b815201930191019091620007d8565b60f81c151581526020018d62000792565b92602060019160ff8560f01c16151581520193016200078b565b92602060019160ff8560e81c161515815201930162000782565b92602060019160ff8560e01c161515815201930162000779565b92602060019160ff8560d81c161515815201930162000770565b92602060019160ff8560d01c161515815201930162000767565b92602060019160ff8560c81c16151581520193016200075e565b92602060019160ff8560c01c161515815201930162000755565b92602060019160ff8560b81c16151581520193016200074c565b92602060019160ff8560b01c161515815201930162000743565b92602060019160ff8560a81c16151581520193016200073a565b92602060019160ff8560a01c161515815201930162000731565b92602060019160ff8560981c161515815201930162000728565b92602060019160ff8560901c16151581520193016200071f565b92602060019160ff8560881c161515815201930162000716565b92602060019160ff8560801c16151581520193016200070d565b92602060019160ff8560781c161515815201930162000704565b92602060019160ff8560701c1615158152019301620006fb565b92602060019160ff8560681c1615158152019301620006f2565b92602060019160ff8560601c1615158152019301620006e9565b92602060019160ff8560581c1615158152019301620006e0565b92602060019160ff8560501c1615158152019301620006d7565b92602060019160ff8560481c1615158152019301620006ce565b92602060019160ff8560401c1615158152019301620006c5565b92602060019160ff8560381c1615158152019301620006bc565b92602060019160ff8560301c1615158152019301620006b3565b92602060019160ff8560281c1615158152019301620006aa565b92602060019160ff85831c1615158152019301620006a1565b92602060019160ff8560181c161515815201930162000698565b92602060019160ff8560101c16151581520193016200068f565b92602060019160ff8560081c161515815201930162000686565b92602060019160ff8516151581520193016200067d565b916020919350610400600191865460ff81161515825260ff8160081c1615158583015260ff8160101c161515604083015260ff816060828260181c161515818601528282891c1615156080860152828260281c16151560a0860152828260c092828260301c16151584890152828260381c16151560e0890152828260401c161515610100890152828260481c161515610120890152828260501c161515610140890152828260581c1615156101608901521c161515610180860152828260681c1615156101a0860152828260701c1615156101c0860152828260781c1615156101e0860152828260801c161515610200860152828260881c161515610220860152828260901c161515610240860152828260981c161515610260860152828260a01c161515610280860152828260a81c1615156102a0860152828260b01c1615156102c0860152828260b81c1615156102e08601521c16151561030083015260ff8160c81c16151561032083015260ff8160d01c16151561034083015260ff8160d81c16151561036083015260ff8160e01c16151561038083015260ff8160e81c1615156103a083015260ff8160f01c1615156103c083015260f81c15156103e082015201940192018492939162000662565b634e487b7160e01b6080515260216004526024608051fd5b6020366003190112620001e6576004356001600160401b038111620001e657620017e190369060040162004310565b80516001600160a01b0390620018349082166200182b6200180c620018063362016721565b6200594e565b620018246200181e8688511662016721565b620059b4565b9062005a0b565b90331462005a52565b6080519060208301915b82518051821015620018ab57906200189f620018a592846200186284339362005af1565b515116146200189862001879620018063362016721565b620018246200181e886200188f888c5162005af1565b51511662016721565b9062005a52565b62005a85565b6200183e565b620018cf620018ba8662006e8c565b6040519182916020835260208301906200400b565b0390f35b34620001e6576020366003190112620001e657600435612710811015620004c95760031b60018101546002820154916200194360056200192460068401549362000589604051809481930162005166565b604051948594855260208501526080604085015260808401906200400b565b9060608301520390f35b34620001e65760805180600319360112620001e357620138828054620019738162003edb565b9162001983604051938462003eb7565b8183526020830190608051526080516020812090915b83831062001b4e578462013883908154620019b48162003edb565b92620019c4604051948562003eb7565b8184526020840190608051526080516020812090915b83831062001a105762001a0185620018cf8860405193849360408552604085019062004f51565b90838203602085015262004f51565b60405162001a1e8162003e46565b62001a2e60ff845416826200534e565b6001830154602082015260028301805462001a498162003edb565b9162001a59604051938462003eb7565b818352602083019060805152608051906020822091905b83821062001ae8575050505060019282602092604060069501526003860154606082015260405162001aab81620005898160048b0162005166565b608082015260ff6005870154818116151560a0840152818160081c16151560c084015260101c16151560e0820152815201920192019190620019da565b6007602060019260405162001afd8162003e2a565b8654815262001b1960ff86890154818116620012168162004dc4565b62001b276002880162005272565b608082015262001b3a600388016200547e565b60a082015281520193019101909162001a70565b60405162001b5c8162003e46565b62001b6c60ff845416826200534e565b6001830154602082015260028301805462001b878162003edb565b9162001b97604051938462003eb7565b818352602083019060805152608051906020822091905b83821062001c26575050505060019282602092604060069501526003860154606082015260405162001be981620005898160048b0162005166565b608082015260ff6005870154818116151560a0840152818160081c16151560c084015260101c16151560e082015281520192019201919062001999565b6007602060019260405162001c3b8162003e2a565b8654815262001c5760ff86890154818116620012168162004dc4565b62001c656002880162005272565b608082015262001c78600388016200547e565b60a082015281520193019101909162001bae565b34620001e6576020366003190112620001e6576001600160a01b0362001cb162003dc7565b166080515262013885602052602060406080512054604051908152f35b34620001e657602080600319360112620001e6576004359062001d0f478311156200189862001cfd8562005e80565b62001d084762005e80565b9062005b39565b3360805152604062001d866201388580845262001d5c8360805120548611156200189862001d3d8862005e80565b336080515284885262001d5587608051205462005e80565b9062005ba5565b336080515280845262001d758584608051205462005e45565b92906200189862001d3d8862005e80565b33608051528352608051908282205520541562001dca575b5060805180808381949382941562001dc0575b3390f1156200034c5760805180f35b506108fc62001db1565b6201388680549162001ddc8362005c0d565b9160805193845b81811062001ed257505062001df88462005c0d565b805191906001600160401b03831162001eba57839062001e188462005d7e565b0190608051526080519280842090845b84811062001e9e5750505050505b82811062001e4657505062001d9e565b62001e98906200189f6001600160a01b0362001e63838662005af1565b511662001e708362005c62565b9080546001600160a01b0360039390931b83811b80199092169390941690931b909216179055565b62001e36565b83516001600160a01b0316838201559281019260010162001e28565b634e487b7160e01b6080515260416004526024608051fd5b62001edd8162005c62565b90546001600160a01b03916003913391831b1c83160362001f0c575b505062001f069062005a85565b62001de3565b9662001f3c91839862001f2362001f069562005c62565b9054911b1c1662001f35828962005af1565b5262005a85565b95908862001ef9565b34620001e65760805180600319360112620001e357506202712680546001600160a01b0319163317905562027129805460ff1916600190811790915560405190919062001f928162003e9b565b608051905262013882805482825580620022a1575b506080515260405162001fba8162003e9b565b6080519052608051806200228a5750620138839081548183558062002208575b5050608051526127106202712a5560405162001ff68162003e7f565b8181526080515b6020808210156200207057604051602092916200201a8262003e2a565b608051825260805181830152608051604083015260805160609081840152806080840152604051906200204d8262003df8565b80825280838301528060408301528082015260a083015282850101520162001ffd565b83620021f584604051620020848162003e9b565b6080518152604051620020978162003e9b565b6080518152604051620020aa8162003e9b565b6080518152604051620020bd8162003e9b565b608051815260405191620020d18362003e9b565b608051835260405193620020e58562003df8565b845260208401526040830152606082015260405191620021058362003e2a565b60805183526003602084015260805160408401526080516060840152608083015260a0820152620021368262005aab565b52620021428162005aab565b506200219d604051620021558162003e46565b6004815284602082015282604082015260805160608201526040516200217b8162003e9b565b608051815260808201528460a08201528460c08201528460e082015262006a18565b60405190620021ac8262003e46565b6002825283602083015260408201526080516060820152604051620021d18162003e9b565b608051815260808201528260a08201528260c082015260805160e082015262006a65565b6113886201388b556201388c5560805180f35b600691818302918383040362002276578060209160805284815220908101905b81811062002237575062001fda565b829060805180825586820155620022516002820162006265565b60805160038201556200226760048201620060f7565b60805160058201550162002228565b634e487b7160e01b81526011600452602490fd5b634e487b7160e01b90526041600452608051602490fd5b600690808202908282040362002310578360805282845260208420908101905b818110620022d157505062001fa7565b829060805180825587820155620022eb6002820162006265565b60805160038201556200230160048201620060f7565b608051600582015501620022c1565b634e487b7160e01b84526011600452602484fd5b34620001e65760805180600319360112620001e3576020604051338152f35b34620001e65760805180600319360112620001e35760206202712d54604051908152f35b34620001e6576040366003190112620001e6576004356001600160401b038111620001e6576200239c90369060040162004032565b6024356001600160401b038111620001e657620023be90369060040162004310565b620271298054600260ff8216620023d58162003f71565b146200330c5760ff191660021790556202712e546001810190811062002fd057806202712e5560805190815b84518110156200246457826002620024256200241e848962005af1565b5162014725565b5001541062002440575b6200243a9062005a85565b62002401565b91506200243a6002620024586200241e858862005af1565b5001549290506200242f565b50919060805191825b8551811015620024ca57620024876200241e828862005af1565b508460038092015410620024a8575b50620024a29062005a85565b6200246d565b819450620024bf6200241e620024a2938962005af1565b500154939062002496565b508493608051526202712b60205260805190604082209160018060a01b0382511660018060a01b03198454161783556020820151805191600160401b83116200228a5750600184015482600186015580831062003130575b50608080516001860190525160208082209392015b82821062002a9f575050505090600260406200255793015191016200648b565b62002563835162005c0d565b6202712e54608051526202712b60205260805190600560408320019080519260018060401b0384116200228a5750602090620025a0848462005e25565b01906080515260805160208120905b83811062002a8a5750505050620025c7835162005c0d565b6202712e54608051526202712b60205260805190600460408320019080519260018060401b0384116200228a575060209062002604848462005e25565b01906080515260805160208120905b83811062002a7557505050506200262b835162005c0d565b906202712e54608051526202712b602052608051600660408220019280519160018060401b0383116200228a575060209062002668838662005e25565b0192608051526080519260208420845b83811062002a60575050505062002690904262006ce3565b90916202712e5490526202712b602052600760406080512001551562002a20576202712e54608051526202712b60205260406008620026d9608051936007848620015462006ce3565b92909320015515620029dd576202712e54608051526202712b602052600960406080512001600260ff1982541617905562002715815162005c0d565b6202712e54608051526202712b602052608051600360408220019180519160018060401b0383116200228a575060209062002751838562005e25565b0191608051526080519160208320835b838110620029c85785855b8151811015620027d157806200189f6200278b620027cb938562005af1565b516202712e54608051526202712b602052620027b08360036040608051200162005d10565b90919082549060031b600019811b9283911b16911916179055565b6200276c565b50608051905b8051821015620029c2576202712e549182608051526202712b602052620028186200280b8260036040608051200162005d10565b90549060031b1c62014725565b505490620028268262005c0d565b916080515b81811062002974575050608051805b83518210156200293f5762002850828562005af1565b516127109081811015620004c95760031b6001015462002871848762005af1565b5191821015620004c95760066200288e9260031b01549062006b9b565b9015620028fb57620028a09162006ce3565b919015620028ba57620028b39062005a85565b906200283a565b60405162461bcd60e51b8152602060048201526019602482015278746f74616c566f74696e67506f776572206f766572666c6f7760381b6044820152606490fd5b606460405162461bcd60e51b815260206004820152602060248201527f63757272656e74436c617373566f74696e67506f776572206f766572666c6f776044820152fd5b90506200189f9192506200296d9394608051526202712b602052620027b08360066040608051200162005d10565b90620027d7565b620029bc9086608051526202712b602052620029a981620029a26200280b8760036040608051200162005d10565b5062005d10565b90549060031b1c62001f35828762005af1565b6200282b565b60805180f35b60019060208451940193818401550162002761565b60405162461bcd60e51b815260206004820152601b60248201527a657865637574696e6720656e642074696d65206f766572666c6f7760281b6044820152606490fd5b60405162461bcd60e51b8152602060048201526018602482015277766f74696e6720656e642074696d65206f766572666c6f7760401b6044820152606490fd5b60019060208451940193818401550162002678565b60019060208451940193818401550162002613565b600190602084519401938184015501620025af565b805180518554602083015190916001600160a01b03169060268110156200179a576001600160a81b03199092161760a09190911b60ff60a01b16178555604001518051805190600187019060209062002af9848462006188565b019060805152608051906020822091905b83821062003110575050505060208101518051906001600160401b03821162001eba576020600288019162002b40848462015919565b019060805152608051916020832090835b8160051c8110620030d55750601f198116810362003092575b5050506040820151805191600160401b83116200228a5750600387015482600389015580831062003009575b506080805160038901905251602080822092015b83821062002fe857505050506060810151805190600160401b821162001eba57600487015482600489015580831062002f4b575b506080805160048901905251602080822092015b83821062002f2a5750505050608081015180516001600160401b03811162001eba576020600588019262002c27838562015919565b0191608051526080519060208220915b8160051c811062002eea5750601f198116810362002e9c575b5050506006850160a0820151602081519162002c6d838562006216565b0191608051526080516020812090925b82841062002e3657505050506007850160c0820151602081519162002ca3838562006216565b0191608051526080516020812090925b82841062002dc7575050505060e001518051906001600160401b03821162001eba5762002cf38262002ce9600889015462005129565b6008890162006441565b60805190602091601f841160011462002d4c575092826009936020936001966080519262002d40575b5050600019600383901b1c191690851b1760088801555b0194019101909262002537565b015190508e8062002d1c565b600888019052608051602081209291905b601f198516811062002dae575083602093600196938793600997601f1981161062002d94575b505050811b01600888015562002d33565b015160001960f88460031b161c191690558e808062002d83565b9192602060018192868501518155019401920162002d5d565b80518051906001600160401b03821162001eba5760209062002dea838662005e25565b01836080515260805160208120905b83811062002e1857505050506001602081920192019301929062002cb3565b82516001600160a01b03168183015560209092019160010162002df9565b80518051906001600160401b03821162001eba5760209062002e59838662005e25565b01836080515260805160208120905b83811062002e8757505050506001602081920192019301929062002c7d565b60019060208451940193818401550162002e68565b60805192835b601f1983168303811062002ec057505060051c01558a808062002c50565b9093602062002ee06001928488519162002eda8362004dc4565b62015983565b9501910162002ea2565b608051805b6020811062002f0657508382015560010162002c37565b9490602062002f206001928885519162002eda8362004dc4565b9201950162002eef565b600660208262002f3e6001945187620065a1565b0193019101909162002bf2565b600681810204810362002fd057600683810204830362002fd05760048801608051526020608051208360060281015b826006028201811062002f8f57505062002bde565b600690608051808255600182015562002fab6002820162006265565b608051600382015562002fc160048201620060f7565b60805160058201550162002f7a565b634e487b7160e01b6080515260116004526024608051fd5b600760208262002ffc6001945187620157d7565b0193019101909162002baa565b600781810204810362002fd057600783810204830362002fd05760038801608051526020608051208360070281015b82600702820181106200304d57505062002b96565b806200305b60079262005da2565b60805180600183015580600283015580600383015560048201556200308360058201620060f7565b60805160068201550162003038565b8392845b601f19831683038110620030b457505060051c01558b808062002b6a565b90936020620030cb60019284885115159162015983565b9501910162003096565b84855b60208110620030ef57508382015560010162002b51565b949060206200310660019288855115159162015983565b92019501620030d8565b600160208262003123839451876200648b565b0193019101909162002b0a565b600981810204810362002fd057600983810204830362002fd05760018501608051526020608051208360090281015b82600902820181106200317457505062002522565b6080518155620031876001820162006149565b6200319d600282018054906080518155620158f1565b6003810154608051806003840155816200329a575b505060048101546080518060048401558162003215575b505080620031e46005600993018054906080518155620158f1565b620031f260068201620061d7565b6200320060078201620061d7565b6200320e60088201620060f7565b016200315f565b60068281020482036200328357506004820160805152602060805120906006028101905b81811015620031c95760069060805180825560018201556200325e6002820162006265565b60805160038201556200327460048201620060f7565b60805160058201550162003239565b634e487b7160e01b90526011600452608051602490fd5b60078281020482036200328357506003820160805152602060805120906007028101905b81811015620031b25780620032d560079262005da2565b6080518060018301558060028301558060038301556004820155620032fd60058201620060f7565b608051600682015501620032be565b60405162461bcd60e51b815260206004820152601d60248201527f766f74696e6720697320616c726561647920696e2070726f67726573730000006044820152606490fd5b34620001e6576020366003190112620001e657600435612710811015620004c957620033876004620018cf9260031b01620053c5565b6040519182918262003f92565b34620001e65760805180600319360112620001e3576040518062013881918254808252602080920193608051526080519180832092905b828210620033e657620018cf85620033878189038262003eb7565b83546001600160a01b031686529485019460019384019390910190620033cb565b34620001e657602080600319360112620001e6576200342562003dc7565b604051620034338162003df8565b60805181526080518382015260606040820152606060805191015260018060a01b03166080515262013880815260406080512060405190620034758262003df8565b620034f081549160ff83161515845260ff8585019360081c1615158352600260405191620034b483620034ac816001850162005166565b038462003eb7565b6040860192835201549260608501938452604051958695818752511515908601525115156040850152516080606085015260a08401906200400b565b905160808301520390f35b34620001e65760805180600319360112620001e35760206202712e54604051908152f35b34620001e6576020366003190112620001e657600435612710811015620004c957620035666200355e826200044f600260209560031b01549162006c21565b919062006ad1565b604051908152f35b34620001e65760805180600319360112620001e3576201388b54620035cd620035966201620c565b91620035a86127109384831062005a52565b620035c26201388e546201388c541115620018986201627a565b6201388d5462006b9b565b919050620035da620162d0565b5060805191825b82811062003604575b6020620035fa8585850462006d71565b9050604051908152f35b909260ff60078360031b015416156200364e5781620036386200364492620036316200189f969562006b3e565b9062006ce3565b949062001898620162d0565b92909192620035e1565b9290620035ea565b34620001e6576020366003190112620001e65760206200367860043562015aeb565b62003687604051809262003fd8565bf35b34620001e657602080600319360112620001e657600435620036b7478211156200189862001cfd8462005e80565b33608051526201388790818352620037016040608051205482111562001898620036e18462005e80565b3360805152858752620036fa6040608051205462005e80565b9062005ffa565b3360805152818352620037496200371f826040608051205462005e45565b919062001898620037308562005e80565b3360805152868852620036fa6040608051205462005e80565b336080515282845260805180809381936040832055818115620038bf575b3390f1156200034c573360805152815260406080512054156200378a5760805180f35b62013888908154906200379d8262005c0d565b9260805192835b81811062003853575050620037b98362005c0d565b805191906001600160401b03831162001eba578390620037d98462005d42565b0190608051526080519280842090845b848110620038375750505050505b81811062003807575050620029c2565b62003831906200189f6001600160a01b0362003824838762005af1565b511662001e708362005c45565b620037f7565b83516001600160a01b03168382015592810192600101620037e9565b6200385e8162005c45565b90546001600160a01b03916003913391831b1c8316036200388d575b5050620038879062005a85565b620037a4565b95620038b6918397620038a4620038879562005c45565b9054911b1c1662001f35828a62005af1565b9490876200387a565b506108fc62003767565b34620001e65760805180600319360112620001e3576040518062013886918254808252602080920193608051526080519180832092905b8282106200391b57620018cf85620033878189038262003eb7565b83546001600160a01b03168652948501946001938401939091019062003900565b34620001e6576040366003190112620001e6576024356001600160a01b0381169060043590829003620001e657612710811015620004c95760039160805152811b01602052602060406080512054604051908152f35b34620001e65760805180600319360112620001e3576040518062013888918254808252602080920193608051526080519180832092905b828210620039e457620018cf85620033878189038262003eb7565b83546001600160a01b031686529485019460019384019390910190620039c9565b34620001e65760805180600319360112620001e357602060ff6202712954166040519062003a338162003f71565b8152f35b34620001e6576040366003190112620001e65762003a5462003dc7565b60249081356001600160401b038111620001e65762003a7890369060040162003f01565b91600260ff62027129541662003a8e8162003f71565b0362003d65576202712d5442101562003d275760018060a01b0382169182608051526202712c906020938285526080519560408720966202712e978854809252875260ff604060805120541662003ce95781519481608051526202712b938489526003968760406080512001540362003c8357608051528752608051906040822091528652608051966040882060019889918260ff19825416179055905b62003b375760805180f35b825181101562003c7d5762003b4d818462005af1565b511562003c04578154806080515284895262003ba962003b8c62003b7a8460046040608051200162005d10565b9054908a1b1c62003631858a62015997565b909260805152868b52620027b08460046040608051200162005d10565b1562003bc15762003bba9062005a85565b8862003b2c565b60405162461bcd60e51b815260048101899052601c818901527b766f74696e6720666f7220706f776572596573206f766572666c6f7760201b6044820152606490fd5b8154806080515284895262003c2a62003b8c62003b7a8460046040608051200162005d10565b1562003c3b5762003bba9062005a85565b60405162461bcd60e51b815260048101899052601b818901527a766f74696e6720666f7220706f7765724e6f206f766572666c6f7760281b6044820152606490fd5b620029c2565b60405162461bcd60e51b8152600481018a90526039818a01527f746865206e756d626572206f6620766f74657320646f6573206e6f74206d6174604482015278636820746865206e756d626572206f6620706f6c696369657360381b6064820152608490fd5b60405162461bcd60e51b815260048101889052601781880152761d9bdd195c881a185cc8185b1c9958591e481d9bdd1959604a1b6044820152606490fd5b60649060176040519162461bcd60e51b835260206004840152820152761d9bdd1a5b99c81c195c9a5bd9081a185cc8195b991959604a1b6044820152fd5b60649060196040519162461bcd60e51b83526020600484015282015278766f74696e67206973206e6f7420696e2070726f677265737360381b6044820152fd5b3462003dc3578160031936011262003dc35760209062027127548152f35b5080fd5b600435906001600160a01b038216820362003dde57565b600080fd5b35906001600160a01b038216820362003dde57565b608081019081106001600160401b0382111762003e1457604052565b634e487b7160e01b600052604160045260246000fd5b60c081019081106001600160401b0382111762003e1457604052565b61010081019081106001600160401b0382111762003e1457604052565b606081019081106001600160401b0382111762003e1457604052565b604081019081106001600160401b0382111762003e1457604052565b602081019081106001600160401b0382111762003e1457604052565b601f909101601f19168101906001600160401b0382119082101762003e1457604052565b6001600160401b03811162003e145760051b60200190565b3590811515820362003dde57565b81601f8201121562003dde5780359162003f1b8362003edb565b9262003f2b604051948562003eb7565b808452602092838086019260051b82010192831162003dde578301905b82821062003f57575050505090565b83809162003f658462003ef3565b81520191019062003f48565b6004111562003f7c57565b634e487b7160e01b600052602160045260246000fd5b6020908160408183019282815285518094520193019160005b82811062003fba575050505090565b83516001600160a01b03168552938101939281019260010162003fab565b90600382101562003f7c5752565b60005b83811062003ffa5750506000910152565b818101518382015260200162003fe9565b90602091620040268151809281855285808601910162003fe6565b601f01601f1916010190565b81601f8201121562003dde578035916200404c8362003edb565b926200405c604051948562003eb7565b808452602092838086019260051b82010192831162003dde578301905b82821062004088575050505090565b8135815290830190830162004079565b6001600160401b03811162003e1457601f01601f191660200190565b81601f8201121562003dde57803590620040ce8262004098565b92620040de604051948562003eb7565b8284526020838301011162003dde57816000926020809301838601378301015290565b9080601f8301121562003dde578135906200411c8262003edb565b926200412c604051948562003eb7565b828452602092838086019160051b8301019280841162003dde57848301915b8483106200415c5750505050505090565b82356001600160401b03811162003dde5786916200418084848094890101620040b4565b8152019201916200414b565b9080601f8301121562003dde57813590620041a78262003edb565b92620041b7604051948562003eb7565b828452602092838086019160051b8301019280841162003dde57848301915b848310620041e75750505050505090565b82356001600160401b03811162003dde5786916200420b8484809489010162004032565b815201920191620041d6565b9080601f8301121562003dde57813591620042328362003edb565b92604092620042448451958662003eb7565b8185526020938486019185600594851b8601019481861162003dde57868101935b8685106200427857505050505050505090565b84356001600160401b03811162003dde57820183603f8201121562003dde578881013590620042a78262003edb565b91620042b68751938462003eb7565b808352868b8401918a1b8301019186831162003dde5791878c94929593015b818110620042ee57505082935081520194019362004265565b919380919395620042ff8462003de3565b8152019101918b93919492620042d5565b6060918161086052806108e052031262003dde57604051620043328162003e63565b8091620043426108605162003de3565b82526108605160208101356109208190526001600160401b03811162003dde576108e051910190601f8201121562003dde5762004389620043979135806109605262003edb565b604051806108a05262003eb7565b6108a05161096051905260206108a05101926108e051610960519060206109205161086051019260051b8301011162003dde576020016108c05290925b6109605160051b6109205161086051019060206108c0519183010181101562004d8457356001600160401b03811162003dde57606091018061088052601f19906108e05103011262003dde576040516200442e8162003e63565b6200443f6020610880510162003de3565b81526040610880510135602681101562003dde5760208201526108805160608101356109408190526001600160401b031062003dde5761010090601f19906060810135016108e05103011262003dde57620044a1604051806109805262003e46565b6109405161088051016020810135906001600160401b03821162003dde576020620044d3926108e05192010162004101565b61098051526109405161088051016040810135906001600160401b03821162003dde5760206200450a926108e05192010162003f01565b6109805160200152610940516108805101926001600160401b0360608501351162003dde576108e051603f6060860135860101121562003dde5762004559602060608601358601013562003edb565b9462004569604051968762003eb7565b60608501358086016020908101358089526108e0516109405161088051938b01969493019092019160059190911b82016040011162003dde57604001925b61094051610880510160608801359081019088016020013560051b8101604001851015620046d6578435906001600160401b03821162003dde57016108e0519160e09283603f19848303011262003dde57604051908482016001600160401b03811183821017620046c1576040908152840135906001600160401b03821162003dde5760406200463a9286010162004032565b815260608301356020820152608080840135604083015260a09485850135606084015260c0916200466d83870162003ef3565b90840152840135946001600160401b03861162003dde5761010060209695620046b192620046a6899860406108e05191850101620040b4565b908601520162003ef3565b90820152815201930192620045a7565b60246000634e487b7160e01b81526041600452fd5b505095915091935094919460406109805101526109405161088051019460808601356109005260018060401b0360808701351162003dde576108e0519560808101350195603f8701121562003dde5762004734602087013562003edb565b9462004744604051968762003eb7565b6020878101358088526108e051610900516109405161088051948b01989401019160051b82016040011162003dde576040909893929897949701935b61090051610940516108805101016040602086013560051b82010186101562004bc45785356108408190526001600160401b031062003dde5761010090603f19908735016108e05103011262003dde5760405193620047df8562003e46565b6040610840516109005161094051610880510101010135600681101562003dde57855260606108405161090051610940516108805101010101356020860152610840516109005161094051610880510101019960018060401b0360808c01351162003dde576108e051605f60808d01358d0101121562003dde578a9062004870604060808401358401013562003edb565b9a620048806040519c8d62003eb7565b608083013592830160400135808d526108e051610840516109005161094051610880510101019094019360208e01939160051b85016060011162003dde579192606001915b6108405161090051610940516108805101010160808f0135908101908f016040013560051b810160600184101562004acb578335906001600160401b03821162003dde5760c0605f198383016108e05103011262003dde57604051916001600160401b0360c0840190811190841117620046c15760c083016040528181016060810135845260800135600581101562003dde57602084015260a08183010135600481101562003dde576040840152603d60c08284010135101562003dde5781810160c081013560608501526001600160401b0360e0909101351162003dde576108e051620049bf9083830160e08101350160600162004032565b60808401528181016101000135916001600160401b03831162003dde5701016080605f19826108e05103011262003dde578f956040519262004a018462003df8565b60608301356001600160401b03811162003dde576108e05162004a2991850160600162004101565b845260808301356001600160401b03811162003dde576108e05162004a539185016060016200418c565b602085015260a08301356001600160401b03811162003dde576108e05162004a8091850160600162004217565b604085015260c0830135936001600160401b03851162003dde5762004ab360209594606087966108e051920101620040b4565b606082015260a08201528152019301929350620048c5565b509697939c509798939a915050604082015260a091826108405161090051610940516108805101010101356060830152610840516109005161094051610880510101019160c093848401359460018060401b03861162003dde5762004b3e60209695604088976108e051920101620040b4565b608084015260e09162004b6583610840516109005161094051610880510101010162003ef3565b9084015262004b8a610100610840516109005161094051610880510101010162003ef3565b9083015262004baf610120610840516109005161094051610880510101010162003ef3565b90820152815201950193969792919762004780565b50610980516060015261094051610880519198910196919450925090506001600160401b0360a08601351162003dde576108e0519460a0810135810195603f8701121562003dde5762004c1b602087013562003edb565b9262004c2b604051948562003eb7565b6020878101358086526108e051610940516108805193880196930160a0860135019160051b82016040011162003dde57604001935b604060208a013560051b60a086013561094051610880510101010185101562004c9e578435600581101562003dde5781526020948501940162004c60565b5096509694939291505060806109805101526109405161088051019160c092838101359060018060401b03821162003dde57602062004ce4926108e0519201016200418c565b6109805160a00152610940516108805160e094910184810135906001600160401b03821162003dde57602062004d21926108e05192010162004217565b6109805190910152610940516108805101926101008401356001600160401b03811162003dde576108e05160209562004d5d92018601620040b4565b906109805101526109805160408201528152019260206108c051016108c0529092620043d4565b50506108a051602084015250610860519092919060408101356001600160401b03811162003dde576108e05160409262004dbf9201620040b4565b910152565b6005111562003f7c57565b90815180825260208080930193019160005b82811062004df0575050505090565b83518552938101939281019260010162004de1565b908082519081815260208091019281808460051b8301019501936000915b84831062004e345750505050505090565b909192939495848062004e54600193601f198682030187528a516200400b565b980193019301919493929062004e23565b90815180825260208092019182818360051b82019501936000915b84831062004e915750505050505090565b909192939495848062004ead83856001950387528a5162004dcf565b980193019301919493929062004e80565b90815180825260208092019182818360051b8201950193600080925b85841062004eec575050505050505090565b9091929387828297989903855288519082808351928381520192019085905b80821062004f2d57505050908060019299019401940192959493919062004eda565b82516001600160a01b03168452899493840193909201916001919091019062004f0b565b90815180825260208092019081926005928183851b82019601946000915b84831062004f81575050505050505090565b9091929394959681810383528751906101008082018351600681101562003f7c579083929189945283850151848401528a60409182870151938386015283518091528561012082818801941b8701019401926000905b828210620050425750505050509282916200500c6001956060808501519084015260808085015190848303908501526200400b565b9160a08082015115159083015260c08082015115159083015260e080910151151591015299019301930191959493929062004f6f565b9193959650919361011f19878203018552855190815181528c820151620050698162004dc4565b8d820152828201516200507c8162003f71565b8382015260609081830151603d81101562003f7c576001938f9383620051179382879601528162005107620050f6620050e56080620050c88189015160c080848a015288019062004dcf565b9560a0809901519881880391015287519080875286019062004e05565b888701518582038a87015262004e65565b8a8601518482038c86015262004ebe565b930151918184039101526200400b565b9701950192018b969594939162004fd7565b90600182811c921680156200515b575b60208310146200514557565b634e487b7160e01b600052602260045260246000fd5b91607f169162005139565b9060009291805491620051798362005129565b918282526001938481169081600014620051e057506001146200519d575b50505050565b90919394506000526020928360002092846000945b838610620051cb57505050500101903880808062005197565b805485870183015294019385908201620051b2565b9294505050602093945060ff191683830152151560051b0101903880808062005197565b908154620052128162003edb565b92604093620052248551918262003eb7565b828152809460208092019260005281600020906000935b8585106200524b57505050505050565b60018481928451620052638162000589818a62005166565b8152019301940193916200523b565b9060405191828154918282526020928383019160005283600020936000905b828210620052ac57505050620052aa9250038362003eb7565b565b85548452600195860195889550938101939091019062005291565b60405190919060e081016001600160401b0381118282101762003e145760405260c060ff60068395620052fa8162005272565b855260018101546020860152600281015460408601526003810154606086015282600482015416151560808601526040516200533f8162000589816005860162005166565b60a08601520154161515910152565b600682101562003f7c5752565b603d82101562003f7c5752565b908154620053768162003edb565b9262005386604051948562003eb7565b818452600090815260208082208186015b848410620053a6575050505050565b6001838192620053b68562005272565b81520192019301929062005397565b9060405191828154918282526020928383019160005283600020936000905b828210620053fd57505050620052aa9250038362003eb7565b85546001600160a01b031684526001958601958895509381019390910190620053e4565b9081546200542f8162003edb565b926200543f604051948562003eb7565b818452600090815260208082208186015b8484106200545f575050505050565b60018381926200546f85620053c5565b81520192019301929062005450565b9060036060604051620054918162003df8565b620054dc8195620054a28162005204565b8352620054b26001820162005368565b6020840152620054c56002820162005421565b6040840152620034ac604051809681930162005166565b0152565b9190606081019060018060a01b03845116815260208401519160606020830152825180915260808201602060808360051b85010194019160005b81811062005542575050505060406200553f939401519060408184039101526200400b565b90565b848603607f19018352835180516001600160a01b031687526020810151949693949293919290602682101562003f7c576040916020840152015190606060408201526200559e8251610100606084015261016083019062004e05565b602083810151838303605f190160808501528051808452928201929101906000905b8082106200593357505050604083015190605f198382030160a0840152815180825260208201906020808260051b85010194019260005b828110620058ae575050505050606083015190605f198382030160c0840152815190818152602081016020808460051b8401019401926000925b818410620056fa575050505050608083015190605f198382030160e0840152602080835192838152019201906000905b808210620056d657505050620056c98360209360e0620056b26200569a879660a060019a0151605f198683030161010087015262004e65565b60c0850151848203605f190161012086015262004ebe565b92015190610140605f19828503019101526200400b565b970194019291016200551a565b9091926020806001928651620056ec8162004dc4565b815201940192019062005661565b9091929394601f9e9d9c9e198282030184528551908151600681101562003f7c5781526020820151602082015260408201516101006040830152610100820181518091526101206020818501918360051b8601019301916000905b808210620057c257505050509e9f9d9e826020926200578e8493606060019701516060840152608084015183820360808501526200400b565b9160a0810151151560a083015260c0810151151560c083015260e08091015115159101529701940194019293919062005631565b9091929361011f19868203018452845190815181526020820151620057e78162004dc4565b60208201526040820151620057fc8162003f71565b6040820152606082015191603d83101562003f7c57620058a1826020939260019560608695015260a062005840608083015160c0608086015260c085019062004dcf565b9101519160a081830391015260606200588f6200587c6200586b855160808652608086019062004e05565b878601518582038987015262004e65565b6040850151848203604086015262004ebe565b9201519060608184039101526200400b565b9601940192019062005755565b9091929394602080600192601f1986820301885288519062005918620058dd835160e080855284019062004dcf565b8484015185840152604084015160408401526060840151606084015260808401511515608084015260a084015183820360a08501526200400b565b60c092830151151591909201529701950193929101620055f7565b909192602080600192865115158152019401920190620055c0565b90620052aa604560405180947f496e76616c69642070726f6772616d20616464726573732e204d73672e73656e60208301526403232b91d160dd1b6040830152620059a3815180926020868601910162003fe6565b810103602581018552018362003eb7565b90620052aa6040805180947f2c20616e642070726f6772616d206f70657261746f7220616464726573733a206020830152620059fa815180926020868601910162003fe6565b810103602081018552018362003eb7565b6020620052aa91939293604051948162005a2f879351809286808701910162003fe6565b820162005a458251809386808501910162003fe6565b0103808552018362003eb7565b1562005a5b5750565b60405162461bcd60e51b81526020600482015290819062005a819060248301906200400b565b0390fd5b600019811462005a955760010190565b634e487b7160e01b600052601160045260246000fd5b80511562005ab95760200190565b634e487b7160e01b600052603260045260246000fd5b80516001101562005ab95760400190565b80516002101562005ab95760600190565b805182101562005ab95760209160051b010190565b7f496e76616c696420776974686472617720616d6f756e742e20416d6f756e743a8152600160fd1b602082015260210190565b600f620052aa916020949360405195869262005b6962005b5b83860162005b06565b918281519485920162003fe6565b016e0161030b732103130b630b731b29d1608d1b815262005b94825180936020878501910162003fe6565b010360101981018552018362003eb7565b6019620052aa916020949360405195869262005bc762005b5b83860162005b06565b01780161030b732103bb4ba34323930bbb0b136329031b0b9b41d1603d1b815262005bfc825180936020878501910162003fe6565b010360061981018552018362003eb7565b9062005c198262003edb565b62005c28604051918262003eb7565b828152809262005c3b601f199162003edb565b0190602036910137565b62013888805482101562005ab95760005260206000200190600090565b62013886805482101562005ab95760005260206000200190600090565b62013881805482101562005ab95760005260206000200190600090565b6202711d805482101562005ab95760005260206000200190600090565b6201388a805482101562005ab95760005260206000200190600090565b62027119805482101562005ab95760005260206000200190600090565b6202711b805482101562005ab95760005260206000200190600090565b805482101562005ab95760005260206000200190600090565b81811062005d35575050565b6000815560010162005d29565b600160401b811162003e1457620138889081549080835581811062005d6657505050565b620052aa926000526020600020918201910162005d29565b600160401b811162003e1457620138869081549080835581811062005d6657505050565b8054600082558062005db2575050565b620052aa9160005260206000209081019062005d29565b600160401b811162003e1457620271199081549080835581811062005d6657505050565b600160401b811162003e14576202711b9081549080835581811062005d6657505050565b620138918054600082558062005db2575050565b90600160401b811162003e145781549080835581811062005d6657505050565b919082811162005e56576001920390565b50600091508190565b811562005e6a570490565b634e487b7160e01b600052601260045260246000fd5b6000908072184f03e93ff9f4daa797ed6e38ed64bf6a1f0160401b8082101562005feb575b506904ee2d6d415b85acef8160201b8083101562005fdb575b50662386f26fc100008083101562005fcb575b506305f5e1008083101562005fbb575b506127108083101562005fab575b50606482101562005f9a575b600a8092101562005f8f575b6001908160218186019562005f1c8762004098565b9662005f2c604051988962003eb7565b80885262005f3d601f199162004098565b01366020890137860101905b62005f56575b5050505090565b600019019083906f181899199a1a9b1b9c1cb0b131b232b360811b8282061a83530491821562005f895791908262005f49565b62005f4f565b916001019162005f07565b919060646002910491019162005efb565b6004919392049101913862005eef565b6008919392049101913862005ee1565b6010919392049101913862005ed1565b6020919392049101913862005ebe565b60409350810491503862005ea5565b601e620052aa91602094936040519586926200601c62005b5b83860162005b06565b017f2c20616e6420776974686472617761626c65206469766964656e64733a200000815262006055825180936020878501910162003fe6565b010360011981018552018362003eb7565b90620060728262003edb565b604090620060838251918262003eb7565b838152809362006096601f199162003edb565b019160005b838110620060a95750505050565b6020908251620060b98162003e46565b6000815282600081830152606080868401526000818401526080830152600060a0830152600060c0830152600060e08301528286010152016200609b565b62006103815462005129565b90816200610e575050565b81601f6000931160011462006121575055565b818352602083206200613f91601f0160051c81019060010162005d29565b8160208120915555565b80549060008155816200615a575050565b6000526020600020908101905b81811062006173575050565b8062006181600192620060f7565b0162006167565b90600160401b811162003e1457815491818155828210620061a857505050565b600052602060002091820191015b818110620061c2575050565b80620061d0600192620060f7565b01620061b6565b8054906000815581620061e8575050565b6000526020600020908101905b81811062006201575050565b806200620f60019262005da2565b01620061f5565b90600160401b811162003e14578154918181558282106200623657505050565b600052602060002091820191015b81811062006250575050565b806200625e60019262005da2565b0162006244565b80546000808355816200627757505050565b6007928284029284840403620062f857815260208120918201915b828110620062a05750505050565b8082859255826001820155620062b96002820162005da2565b620062c76003820162006149565b620062d560048201620061d7565b620062e360058201620061d7565b620062f160068201620060f7565b0162006292565b634e487b7160e01b82526011600452602482fd5b600160401b821162003e14578054908281558183106200632b57505050565b600792828402928484040362005a9557808402908482040362005a955760009182526020822092830192015b828110620063655750505050565b80828592558260018201556200637e6002820162005da2565b6200638c6003820162006149565b6200639a60048201620061d7565b620063a860058201620061d7565b620063b660068201620060f7565b0162006357565b51600681101562003f7c5790565b90600681101562003f7c5760ff80198354169116179055565b90620063f08162004dc4565b60ff80198354169116179055565b906200640a8162003f71565b61ff0082549160081b169061ff001916179055565b90603d81101562003f7c5762ff000082549160101b169062ff00001916179055565b9190601f81116200645157505050565b620052aa926000526020600020906020601f840160051c8301931062006480575b601f0160051c019062005d29565b909150819062006472565b81519192916001600160401b03811162003e1457620064b781620064b0845462005129565b8462006441565b602080601f8311600114620064f6575081929394600092620064ea575b50508160011b916000199060031b1c1916179055565b015190503880620064d4565b90601f198316958460005282600020926000905b88821062006545575050836001959697106200652b575b505050811b019055565b015160001960f88460031b161c1916905538808062006521565b806001859682949686015181550195019301906200650a565b9060ff801983541691151516179055565b9061ff00825491151560081b169061ff001916179055565b9062ff0000825491151560101b169062ff00001916179055565b8151600681101562003f7c57620065b99082620063cb565b602082015160018201556002810160408301516020815191620065dd83856200630c565b01916000526020600020916000905b8282106200665057505050509060e06005620052aa93606084015160038201556200661f6080850151600483016200648b565b01916200663360a08201511515846200655e565b6200664560c08201511515846200656f565b015115159062006587565b805180518555600185016200667560208301516200666e8162004dc4565b82620063e4565b620066906040830151620066898162003f71565b82620063fe565b6060820151603d81101562003f7c57620066aa916200641f565b60808101518051906001600160401b03821162003e145760206002880191620066d4848462005e25565b0190600052602060002060005b8381106200697f575050505060a0015180518051906020600388019162006709848462006188565b01906000526020600020906000905b8382106200695f575050505060048501602082015160208151916200673e838562006216565b019160005260206000206000925b828410620068fb5750505050600585016040820151602081519162006772838562006216565b019160005260206000206000925b8284106200688e5750505050606001518051906001600160401b03821162003e1457620067c082620067b6600689015462005129565b6006890162006441565b602090601f83116001146200681357928260079360209360019660009262006807575b5050600019600383901b1c191690851b1760068801555b01940191019092620065ec565b015190503880620067e3565b906006870160005260206000209160005b601f198516811062006875575083602093600196938793600797601f198116106200685b575b505050811b016006880155620067fa565b015160001960f88460031b161c191690553880806200684a565b9192602060018192868501518155019401920162006824565b80518051906001600160401b03821162003e1457602090620068b1838662005e25565b0183600052602060002060005b838110620068dd57505050506001602081920192019301929062006780565b82516001600160a01b031681830155602090920191600101620068be565b80518051906001600160401b03821162003e14576020906200691e838662005e25565b0183600052602060002060005b8381106200694a5750505050600160208192019201930192906200674c565b6001906020845194019381840155016200692b565b600160208262006972839451876200648b565b0193019101909162006718565b600190602084519401938184015501620066e1565b62013883805482101562005ab9576000526006602060002091020190600090565b62027116805482101562005ab9576000526006602060002091020190600090565b62013882805482101562005ab9576000526006602060002091020190600090565b62027115805482101562005ab9576000526006602060002091020190600090565b620138828054600160401b81101562003e145762006a3c91600182019055620069d6565b91909162006a4f57620052aa91620065a1565b634e487b7160e01b600052600060045260246000fd5b620138838054600160401b81101562003e145762006a3c9160018201905562006994565b620271168054600160401b81101562003e145762006a3c91600182019055620069b5565b620271158054600160401b81101562003e145762006a3c91600182019055620069f7565b1562006ad957565b60405162461bcd60e51b815260206004820152603760248201527f73756d4469766964656e64576569676874466f72546f6b656e436c6173733a206044820152766469766964656e64576569676874206f766572666c6f7760481b6064820152608490fd5b61271081101562005ab9576200355e816200044f60026200553f9460031b01549162006c21565b90811562006b9257606462006b7e818402938462005e5f565b0362006b8a5760019190565b600091508190565b60019150600090565b9190821562006bb35762006b7e818402938462005e5f565b5060019150600090565b1562006bc557565b60405162461bcd60e51b815260206004820152602e60248201527f746f74616c546f6b656e73506572546f6b656e436c6173733a20746f74616c5460448201526d6f6b656e73206f766572666c6f7760901b6064820152608490fd5b612710811015908162005ab957600390811b906004928383019182549260009582879601935b85871062006c59575050505050505090565b97969091929394959762006cbb5762006caf8862006ca762006c816200189f9a9b8762005d10565b905490881b1c6001600160a01b0316600090815260208990526040812054909462006ce3565b999062006bbd565b95949392919062006c47565b603282634e487b7160e01b6000525260246000fd5b906001820191821062006b8a5760019190565b9190820191821062006b8a5760019190565b6201388b5462006d08620035966201620c565b91905062006d15620162d0565b5060009081925b81841062006d37575b62006d3293500462006d71565b905090565b9160ff60078560031b0154161562006d6a57836200363862006d6392620036316200189f969762006b3e565b9262006d1c565b9162006d25565b90801562006d895762006d849162005e5f565b600191565b5050600090600090565b62013891805490600160401b82101562003e14576001820180825582101562005ab9576000908152602090200180546001600160a01b0319166001600160a01b03909216919091179055565b6201388f805490600160401b82101562003e14576001820180825582101562005ab9576000908152602090200180546001600160a01b0319166001600160a01b03909216919091179055565b6201388180549190600160401b83101562003e14578262001e70916001620052aa9501905562005c7f565b6040519062006e658262003e7f565b60188252772a343290383937b3b930b69034b99032bc32b1baba32b21760411b6020830152565b600091825b6020808401908151805187101562007022578162006eb48862006ebc9362005af1565b5101620075f9565b6026928382101562003f7c57601a91820362006f7a578762006edf915162005af1565b5192828401519081101562003f7c570362006f3857509362006f2962006f319262006f2162006f1a60a060406200189f9a0151015162005aab565b5162005aab565b519062006ce3565b959062007607565b9262006e91565b6064906040519062461bcd60e51b82526004820152601b60248201527a2a34329037b831b7b2329034b9903737ba102820acafa1a0a9a41760291b6044820152fd5b9291905062006f938162006eb489869a979a5162005af1565b8281101562003f7c5760140362006fcc5750509062006f296200189f956200363162006fc58462006f31965162005af1565b5162007654565b62006fde9062006eb485855162005af1565b9081101562003f7c5760151462006ffc575b5062006f319062005a85565b9062006f296200701b956200363162006fc58462006f31965162005af1565b9062006ff0565b505050909250803410600014620070985760405162461bcd60e51b815260206004820152603760248201527f546865207061796d656e74206973206e6f7420656e6f7567682e205468652074604482015276037ba30b6103830bcb6b2b73a1039b437bab6321031329604d1b6064820152608490fd5b8034116200746e575b5062027129805460ff8116620070b78162003f71565b60018103620070ed5750505080620070dd620070d7620070e393620076fb565b62007710565b6200779a565b6200553f62006e56565b620070f88162003f71565b60028114808062007460575b15620071e957505050506200711981620076fb565b15620071aa576200712a81620076fb565b156200716e576200713b906200779a565b604051620071498162003e7f565b60158152742a3432903b37ba329034b99032bc32b1baba32b21760591b602082015290565b60405162461bcd60e51b8152602060048201526014602482015273496e76616c696420766f74652070726f6772616d60601b6044820152606490fd5b60405162461bcd60e51b815260206004820152601760248201527624b73b30b634b2103b37ba34b73390383937b3b930b69760491b6044820152606490fd5b620071f48262003f71565b6003821491828062007452575b15620072df5750505050506200721781620076fb565b156200728f5780620070dd620070d76200723193620076fb565b6040516200723f8162003e63565b603a81527f5468652070656e64696e672070726f6772616d2069732065786563757465642060208201527930b33a32b9103b37ba34b7339030b7321030b8383937bb30b61760311b604082015290565b60405162461bcd60e51b815260206004820152602260248201527f496e76616c696420657865637574696e672070656e64696e672070726f677261604482015261369760f11b6064820152608490fd5b620072ea8162003f71565b818062007443575b8062007435575b1562007323575050505090620070e391600360ff19825416179055620070dd620070d782620076fb565b6200732e8162003f71565b821562007420575b50508062007411575b6200737857505050604051620073558162003e7f565b6013815272283937b3b930b6903a32b936b4b730ba32b21760691b602082015290565b60ff191660011790556200738c81620076fb565b15620073a65780620070dd620070d7620070e393620076fb565b60405162461bcd60e51b815260206004820152603e60248201527f5b4572726f72203030335d5468652070726f6772616d206973206e6f7420612060448201527f76616c696420657865637574652070656e64696e672070726f6772616d2e00006064820152608490fd5b5062027128544210156200733f565b6200742d91925062003f71565b388062007336565b5062027128544210620072f9565b506202712754421015620072f2565b506202712854421062007201565b506202712754421062007104565b60018060a01b0390818351166000526201388590816020526040600020541562007565575b6200749f903462005e45565b90156200752157620074c290838551166000528260205260406000205462006ce3565b929015620074e05783511660005260205260406000205538620070a1565b60405162461bcd60e51b81526020600482015260196024820152782a3432903732bb903130b630b731b29037bb32b9333637bb9760391b6044820152606490fd5b60405162461bcd60e51b815260206004820152601c60248201527b2a3432903830bcb6b2b73a103932ba3ab9371037bb32b9333637bb9760211b6044820152606490fd5b6000908162013886928354915b828110620075be575b50156200758c575b50905062007493565b85518516600160401b82101562003e145762001e70826200749f956001620075b79501905562005c62565b3862007583565b86620075ca8262005c62565b919054818b51169260031b1c1614620075ee57620075e89062005a85565b62007572565b50506001386200757b565b51602681101562003f7c5790565b156200760f57565b60405162461bcd60e51b815260206004820152601f60248201527f54686520746f74616c207061796d656e7420697320746f6f206c617267652e006044820152606490fd5b6000805b604083019060a06200766e818451015162005acf565b5151841015620076f35762007693846200768c838651015162005acf565b5162005af1565b51925101519283516002101562005ab957620076e2620076dc620076ea93620076d4604096620076cc8660606200189f9b015162005af1565b519062006b9b565b929062007607565b62006ce3565b949062007607565b91905062007658565b509250505090565b6020015151156200770b57600190565b600090565b156200771857565b60405162461bcd60e51b815260206004820152600f60248201526e496e76616c69642070726f6772616d60881b6044820152606490fd5b60809060208152602a60208201527f5468652070726f6772616d2069732064656e6965642062792074686520706c7560408201526967696e2073797374656d60b01b60608201520190565b620077a58162013d65565b516201385c57600681101562003f7c5760038114620138035780620078025760405162461bcd60e51b8152602060048201526016602482015275151a19481c1c9bd9dc985b481a5cc81a5b9d985b1a5960521b6044820152606490fd5b600481036200b0d55750906000905b602083015180518310156200b0cf57826200782c9162005af1565b516020810180516026908181101562003f7c57156200b08c5781518181101562003f7c5760010362007a7a5750506040809101906200787060c08351015162005aab565b51926200789260a062007887818651015162005aab565b519451015162005acf565b5195620078a385518551146201505a565b620078b28551885114620150c0565b60005b8551811015620079f857620078cb818662005af1565b51612710908181101562005ab957600160ff6007620078f39360031b01541615151462015122565b620078ff828a62005af1565b516200790c838862005af1565b51908282101562005ab95760066200792a9260031b01549062006ce3565b9062007937848962005af1565b51918383101562005ab9576006620079549360031b01556201517a565b62007960828a62005af1565b51906200796e838862005af1565b518181101562005ab9576001600160a01b039392620079ae916003908662007997878e62005af1565b5116600052811b0160205287600020549062006ce3565b620079ba848a62005af1565b519283101562005ab95760036200189f93620079f296620079dc878e62005af1565b5116600052811b016020528760002055620151d9565b620078b5565b50939262007a159192965062007a0e906201610e565b9262015ff2565b94519262007a238462003e9b565b60008452600036813760005b835181101562007a5d57806200189f62007a4e62007a57938762005af1565b51878a62015be6565b62007a2f565b509450926020925062007a71915062005a85565b91905062007811565b81518181101562003f7c5760020362007d1c575050604080910180519283519562007aca62007aae60a08097015162005aab565b519562007abf818651015162005acf565b519451015162005ae0565b5193875186510362007cc957875184510362007c7557875185510362007c1e575060005b855181101562007c085762007b04818762005af1565b5190612710918281101562005ab95762007b2a60ff6007809360031b0154161562015232565b62007b36828962005af1565b518381101562005ab95760031b01805460ff1916600117905562007b5b818a62005af1565b5162007b68828962005af1565b51908382101562005ab957600562007b849260031b016200648b565b62007b90818662005af1565b5162007b9d828962005af1565b518381101562005ab95760031b6001015562007bba818762005af1565b5162007bc7828962005af1565b518381101562005ab95760031b6002015562007be4818862005af1565b519182101562005ab9576000600662007c029360031b015562005a85565b62007aee565b5095509390506020925062007a71915062005a85565b5162461bcd60e51b815260206004820152603c6024820152600080516020620168e983398151915260448201527b1b911a5d9a59195b9915d95a59da1d081a5cc81b9bdd08195c5d585b60221b6064820152608490fd5b5162461bcd60e51b81526020600482015260396024820152600080516020620168e98339815191526044820152781b959bdd1a5b99d41bddd95c881a5cc81b9bdd08195c5d585b603a1b6064820152608490fd5b5162461bcd60e51b81526020600482015260386024820152600080516020620168e98339815191526044820152771b925b99195e105c9c985e481a5cc81b9bdd08195c5d585b60421b6064820152608490fd5b819593949295518181101562003f7c5760030362008318575050604084019062007d4b60c08351015162005aab565b519362007d6260a062007887818651015162005aab565b519362007d778651855114620018986201637f565b62007d8a8651865114620018986201637f565b60005b865181101562007df35762007da3818662005af1565b519061271082101562005ab957600362007ded9260018060a01b038b5116600052811b016020526200189f60406000205462007de0838a62005af1565b5111156200189862016483565b62007d8d565b50909493919460005b855181101562007f275762007e12818662005af1565b51906127108083101562005ab957600360018060a01b0393848c5116600052811b0160205262007e5560406000205462007e4d848962005af1565b519062005e45565b9062007e62848a62005af1565b51918383101562005ab957600362007e9193878f5116600052811b016020526040600020556200189862016483565b62007e9d828862005af1565b518181101562005ab9576003908462007eb7858c62005af1565b5116600052811b0160205262007ed860406000205462006f21848962005af1565b62007ee4848a62005af1565b519283101562005ab95760036200189f9362007f219662007f06878e62005af1565b5116600052811b0160205260406000205562001898620164e8565b62007dfc565b5091509162007f3e62007f4591969594966201610e565b9562015ff2565b926040519462007f558662003e7f565b6001865260203681880137516001600160a01b031662007f758662005aab565b526000905b8651821015620083035762007f90828862005af1565b516104405262007fa1855162005c0d565b9660009462007fb1885162005c0d565b610560528594865b885181101562008088578a8962007fe96001600160a01b0362007fdd858462005af1565b51166104405162015edb565b158062008042575b6200800a575b5050620080049062005a85565b62007fb9565b98620080379162001f3582859c6200802e620080049760018060a01b039262005af1565b51169262005af1565b9790508a8962007ff7565b50505061271061044051101562005ab9576001600160a01b0362008067828b62005af1565b5116600052600361044051811b016020528a89604060002054151562007ff1565b509098949897969291939760005b88518110156200812a5761271061044051101562005ab9576001600160a01b03620080c2828b62005af1565b5116600052600361044051811b0160205260406000205415620080f1575b620080eb9062005a85565b62008096565b99620080eb9062008121906001600160a01b03620081108e8d62005af1565b511662001f35826105605162005af1565b9a9050620080e0565b50985096949392919561044051612710811015806103a05262005ab95760031b6004015496620081656200815f878a62014cf2565b62005c0d565b996000998a6106c0525b6103a05162005ab9576106c0518a8110156200822457620081a4620081c19160006103a05260046104405160031b0162005d10565b90546105605160039290921b1c6001600160a01b03169062015f9d565b15620081e0575b620081d66106c05162005a85565b6106c0526200816f565b99808c62001f356200821d93620082046106c05160046104405160031b0162005d10565b905460039190911b1c6001600160a01b03169262005af1565b99620081c8565b509a939794969299919850946000915b838310620082c957505050506103a05162005ab9578051906001600160401b03821162003e1457602090620082738360046104405160031b0162005e25565b0160046104405160031b01600052602060002060005b838110620082ab5750505050620082a09062005a85565b909295919562007f7a565b82516001600160a01b03168183015560209092019160010162008289565b620082fc90620082f5906001600160a01b03620082e7868662005af1565b511662001f35828962005af1565b9262005a85565b9162008234565b9194505062007a719194506020925062005a85565b819593949295518181101562003f7c57600403620085a0575050604080920160c094620083596200834d878451015162005aab565b51968351015162005acf565b51946200837060a062007887818651015162005aab565b5193620083858851885114620018986201637f565b620083988851855114620018986201637f565b620083ab8851865114620018986201637f565b60005b88518110156200841357620083c4818662005af1565b519061271082101562005ab9576200840d916003906001600160a01b03620083ed848e62005af1565b5116600052811b016020526200189f886000205462007de0838a62005af1565b620083ae565b50909691959294939660005b8351811015620085545762008435818862005af1565b5190612710918281101562005ab9576001600160a01b0390600390826200845d858a62005af1565b5116600052811b016020526200847e8b62007e4d848b600020549262005af1565b906200848b848c62005af1565b51918583101562005ab9576003620084c49385620084aa888d62005af1565b5116600052811b016020528a600020556200189862016483565b620084d0828a62005af1565b518381101562005ab95760039082620084ea858b62005af1565b5116600052811b016020526200850b8b62006f21848b600020549262005af1565b9190506200851a838b62005af1565b519384101562005ab9576200854e9360039162008538858b62005af1565b5116600052811b01602052876000205562005a85565b6200841f565b50946200857792975062007f3e9193945062008570906201610e565b9362015ff2565b9260005b835181101562007a5d57806200189f62007a4e6200859a938762005af1565b6200857b565b819594939551908082101562003f7c576005918203620087b65750505060409182850190620085e460a0620085d9818551015162005aab565b519351015162005acf565b51928251845103620087655760005b83518110156200864b5762008609818562005af1565b519061271082101562005ab9576003620086459260018060a01b038b5116600052811b016020526200189f876000205462007de0838962005af1565b620085f3565b509092919260005b8451811015620086e65762008669818662005af1565b51906127108083101562005ab957600360018060a01b0393848c5116600052811b01602052620086a3886000205462007e4d848962005af1565b620086af848a62005af1565b519283101562005ab95760036200189f93620086e0968e5116600052811b0160205289600020556200189862016483565b62008653565b50959392620086f79192506201610e565b91805193620087068562003e7f565b6001855260203681870137516001600160a01b0316620087268562005aab565b525194620087348662003e9b565b60008652600036813760005b835181101562007a5d57806200189f62007a4e6200875f938762005af1565b62008740565b845162461bcd60e51b81526020600482015260356024820152600080516020620168c9833981519152604482015274195b905b5bdd5b9d081a5cc81b9bdd08195c5d585b605a1b6064820152608490fd5b8296939496518181101562003f7c5760060362008a2057505050906040809201620087e660c08251015162005aab565b5194620087fd60a0620085d9818551015162005aab565b51928651835103620089cf578651845103620089835760005b87518110156200887b576200882c818562005af1565b519061271082101562005ab95762008875916003906001600160a01b0362008855848d62005af1565b5116600052811b016020526200189f876000205462007de0838962005af1565b62008816565b509092919260005b87518110156200892f5762008899818662005af1565b516127108082101562005ab9576001600160a01b03929160039084620088c0858e62005af1565b5116600052811b01602052620088e0886000205462007e4d848962005af1565b620088ec848a62005af1565b519283101562005ab95760036200189f9362008929966200890f8f889062005af1565b5116600052811b0160205289600020556200189862016483565b62008883565b5095926200894491925062007a0e906201610e565b925194620089528662003e9b565b60008652600036813760005b835181101562007a5d57806200189f62007a4e6200897d938762005af1565b6200895e565b845162461bcd60e51b81526020600482015260306024820152600080516020620169a983398151915260448201526f1b9d1cc81a5cc81b9bdd08195c5d585b60821b6064820152608490fd5b845162461bcd60e51b81526020600482015260356024820152600080516020620168698339815191526044820152741b90db185cdcd95cc81a5cc81b9bdd08195c5d585b605a1b6064820152608490fd5b82518181101562003f7c5760070362008b705750505060408091019362008a4c60c08651015162005aab565b519262008a5e60a08751015162005aab565b519551519162008a768551885114620018986201637f565b60005b855181101562007c085762008b6a906200189f6001600160a01b038260028862008b528e62008b478e62008b3d8f8962008ab48a8562005af1565b511660005262008af18962008ae981620138809a8b60205262008ae360ff876000205416156200189862016450565b62005af1565b519662005af1565b51968a62008b2783519b8c9662008b088862003df8565b600188526060602089019860008a528781019b8c52019b8c5262005af1565b511660005260205260002097511515886200655e565b511515866200656f565b51600185016200648b565b5191015562008b62838a62005af1565b511662006e2b565b62008a79565b82519596959394928185101562003f7c57600894850362008c685750505062008ba260c0604080950151015162005aab565b519360005b855181101562008c535762008c4d906001600160a01b038062008bcb838a62005af1565b511660005262013880908160205262008c2260ff62008bf96001828c600020541615151462001898620163af565b8262008c06868d62005af1565b5116600052836020528960002054891c16156200189862016417565b62008c2e838a62005af1565b51166000526020528560002061010061ff001982541617905562005a85565b62008ba7565b50949093506020925062007a71915062005a85565b80518281101562003f7c5760090362008d3d5750505062008c9260c0604080950151015162005aab565b519360005b855181101562008c535762008d3790866001600160a01b038062008cbc848462005af1565b511660005262008d106001898362008cf28762013880978860205262008ae38660ff8097600020541615151462001898620163af565b5116600052846020528a600020548a1c1615151462001898620163e2565b62008d1c838a62005af1565b51166000526020528560002061ff0019815416905562005a85565b62008c97565b8097969492939597518281101562003f7c57600a0362008e1c575050505060408094019162008d8260a062008d7760c08651015162005aab565b519451015162005aab565b519162008d978451845114620018986201637f565b60005b845181101562007a5d5762008e16906001600160a01b038062008dbe838962005af1565b5116600052620138808060205262008de6600160ff8c600020541615151462001898620163af565b62008df2838862005af1565b519162008e00848a62005af1565b5116600052602052600289600020015562005a85565b62008d9a565b80979597518281101562003f7c57600b0362008eec575050505060408092019362008e4c60c08651015162005aab565b519451519162008e648651845114620018986201637f565b60005b865181101562007a5d5762008ee6906200189f6001600160a01b038062008e8f848c62005af1565b5116600052620138808060205262008eb7600160ff8b600020541615151462001898620163af565b62008ec3848962005af1565b519162008ed1858d62005af1565b5116600052602052600188600020016200648b565b62008e67565b80979495939697518281101562003f7c57600c036200903a5750505060400160609182825101519360005b8551811015620090245760e062008f3382878751015162005af1565b5101511562008fbb5762008f5762008f5082878751015162005af1565b5162006a18565b62013882805460001992919083810190811162005a955762008f7a8a91620069d6565b5001805461ff0019166101001790555491820191821162005a95578762008fa562008fb593620069d6565b5001805460ff1916905562005a85565b62008f17565b62008fd662008fcf82878751015162005af1565b5162006a65565b62013882805460001992919083810190811162005a955762008ff98a9162006994565b5001805461ff0019166101001790555491820191821162005a95578762008fa562008fb59362006994565b5095915093506020925062007a71915062005a85565b8097969593929497518281101562003f7c57600d03620091915750506040019460206200906c60a08851015162005aab565b51965101519162009081875184511462014d99565b60005b875181101562007c08578080878a620090a262009132958962005af1565b5115620091385762009103620090ea8483620090d5620090c86200910e98889762005af1565b5162013882541162014e22565b62008ae38d620090f1620090ea858562005af1565b51620069d6565b509060ff9889920154901c1662014e7a565b500154161562014edb565b866200911f620090ea838c62005af1565b5001805460ff1916600117905562005a85565b62009084565b6200910362009179848362009164620091576200918098889762005af1565b5162013883541162014e22565b62008ae38d620090f162009179858562005af1565b5162006994565b866200911f62009179838c62005af1565b8097949397518281101562003f7c57600e0362009278575050604001916020620091c060a08551015162005aab565b519351015195620091d5845188511462014d99565b60005b845181101562007c085780620091f3620091ff928a62005af1565b51620092055762005a85565b620091d8565b6200922262009215828862005af1565b5162013882541162014f3c565b62009267876200924c6200923b620090ea858b62005af1565b5060ff9283910154891c1662014f95565b886200925d620090ea858b62005af1565b5001541662014ff7565b8662008fa5620090ea838962005af1565b809192935096949596518281101562003f7c57600f036200939357505060400160609182825101519360005b8551811015620090245760e0620092c082878751015162005af1565b510151156200933157620092dd62008f5082878751015162005af1565b62013882805460001992919083810190811162005a9557620093008a91620069d6565b5001805461ff0019166101001790555491820191821162005a9557876200911f6200932b93620069d6565b620092a4565b6200934562008fcf82878751015162005af1565b62013882805460001992919083810190811162005a9557620093688a9162006994565b5001805461ff0019166101001790555491820191821162005a9557876200911f6200932b9362006994565b8091929394969550518281101562003f7c57601003620094385750506040015190620093c860a0608084015193015162005aab565b5193620093dd8351865114620018986201637f565b60005b83518110156200942557806200189f620093ff6200941f938762005af1565b516200940b8162004dc4565b62009417838a62005af1565b519062014d00565b620093e0565b509350916020915062007a719062005a85565b80959295518281101562003f7c57601103620096c3575050906040809401916200946d60a062008d7760c08651015162005aab565b51916200947e845184511462014ca6565b60005b8451811015620094f757620094f1906200189f6001600160a01b0380620094a9848a62005af1565b51166000526201388580602052620094cb8b6000205462006f21868b62005af1565b919092620094da868c62005af1565b51166000526020528a600020556200189862016335565b62009481565b509394509162009508915062015ff2565b906201388692835494620095226200815f85518862014cf2565b91600093845b88811062009683575060005b8651811015620095db576000805b8a81106200958c575b501562009564575b6200955e9062005a85565b62009534565b946200955e9062009583906001600160a01b03620082e7898b62005af1565b95905062009553565b620095978162005c62565b90546001600160a01b0360039290921b1c811690620095b7858c62005af1565b511614620095d057620095ca9062005a85565b62009542565b50506001386200954b565b50965094909350620095ed8362005c0d565b805191906001600160401b03831162003e14576020906200960e8462005d7e565b0190600052602060002060005b83811062009665575050505060005b828110620096425750505062007a7160209162005a85565b6200965f906200189f6001600160a01b0362001e63838662005af1565b6200962a565b82516001600160a01b0316818301556020909201916001016200961b565b94620096b6620096bd91620096988862005c62565b905460039190911b1c6001600160a01b031662001f35828962005af1565b9562005a85565b62009528565b80518281101562003f7c5760120362009935575050604080940191620096f460a062008d7760c08651015162005aab565b519162009705845184511462014ca6565b60005b8451811015620097585762009752906200189f6001600160a01b038062009730848a62005af1565b51166000526201388580602052620094cb8b6000205462007e4d868b62005af1565b62009708565b509491509291620097699062015ff2565b906201388680546200977b8162005c0d565b9260009485925b8084106200982f5750505050620097998362005c0d565b805191906001600160401b03831162003e1457602090620097ba8462005d7e565b0190600052602060002060005b83811062009811575050505060005b828110620097ee5750505062007a7160209162005a85565b6200980b906200189f6001600160a01b0362001e63838662005af1565b620097d6565b82516001600160a01b031681830155602090920191600101620097c7565b9297600097929597949194998a5b86518110156200992357620098528b62005c62565b90546001600160a01b0360039290921b1c81169062009872838a62005af1565b5116146200988b57620098859062005a85565b6200983d565b509950976001979592979491945b80620098f2575b15620098b857620098b19062005a85565b9262009782565b95620098eb620098b191620098cd8962005c62565b905460039190911b1c6001600160a01b031662001f35828a62005af1565b9662005a85565b50620098fe8162005c62565b60018060a01b0391549060031b1c1660005262013885602052826000205415620098a0565b50999890989795929794919462009899565b80959295518281101562003f7c576013036200999657505060408091015101519260005b84518110156200998557806200189f620099786200997f938862005af1565b5162015883565b62009959565b5092509062007a7160209162005a85565b8051918083101562003f7c57601492830362009b3957505050604080910190620099c560c08351015162005aab565b5192620099dc60a062007887818651015162005aab565b5195620099ed85518551146201505a565b620099fc8551885114620150c0565b60005b855181101562009ae45762009a15818962005af1565b5162009a22828762005af1565b51612710918282101562005ab957600662009a439260031b01549062006ce3565b9062009a50848962005af1565b51918383101562005ab957600662009a6d9360031b01556201517a565b62009a79828a62005af1565b519062009a87838862005af1565b518181101562005ab9576001600160a01b03939262009ab0916003908662007997878e62005af1565b62009abc848a62005af1565b519283101562005ab95760036200189f9362009ade96620079dc878e62005af1565b620099ff565b50939262009afa9192965062007a0e906201610e565b94519262009b088462003e9b565b60008452600036813760005b835181101562007a5d57806200189f62007a4e62009b33938762005af1565b62009b14565b81969495939651908082101562003f7c5760159182036200a0b15750505050604084019062009b6d60c08351015162005aab565b519362009b8460a062007887818651015162005aab565b519362009b998651855114620018986201637f565b62009bac8651865114620018986201637f565b60005b865181101562009c085762009bc5818662005af1565b519061271082101562005ab957600362009c029260018060a01b038b5116600052811b016020526200189f60406000205462007de0838a62005af1565b62009baf565b50909493919460005b855181101562009d195762009c27818662005af1565b51906127108083101562005ab957600360018060a01b0393848c5116600052811b0160205262009c6260406000205462007e4d848962005af1565b9062009c6f848a62005af1565b51918383101562005ab957600362009c9e93878f5116600052811b016020526040600020556200189862016483565b62009caa828862005af1565b518181101562005ab9576003908462009cc4858c62005af1565b5116600052811b0160205262009ce560406000205462006f21848962005af1565b62009cf1848a62005af1565b519283101562005ab95760036200189f9362009d139662007f06878e62005af1565b62009c11565b5091509162007f3e62009d3091969594966201610e565b926040519462009d408662003e7f565b6001865260203681880137516001600160a01b031662009d608662005aab565b526000905b8651821015620083035762009d7b828862005af1565b516104e05262009d8c855162005c0d565b9660009462009d9c885162005c0d565b6102c0528594865b885181101562009e6a578a8962009dd46001600160a01b0362009dc8858462005af1565b51166104e05162015edb565b158062009e24575b62009df5575b505062009def9062005a85565b62009da4565b9862009e199162001f3582859c6200802e62009def9760018060a01b039262005af1565b9790508a8962009de2565b5050506127106104e051101562005ab9576001600160a01b0362009e49828b62005af1565b511660005260036104e051811b016020528a89604060002054151562009ddc565b509098949897969291939760005b885181101562009f0c576127106104e051101562005ab9576001600160a01b0362009ea4828b62005af1565b511660005260036104e051811b016020526040600020541562009ed3575b62009ecd9062005a85565b62009e78565b9962009ecd9062009f03906001600160a01b0362009ef28e8d62005af1565b511662001f35826102c05162005af1565b9a905062009ec2565b5098509694939291956104e051612710811015806108a05262005ab95760031b600401549662009f416200815f878a62014cf2565b996000998a610660525b6108a05162005ab957610660518a81101562009fe75762009f8062009f9d9160006108a05260046104e05160031b0162005d10565b90546102c05160039290921b1c6001600160a01b03169062015f9d565b1562009fbc575b62009fb26106605162005a85565b6106605262009f4b565b99808c62001f3562009fe093620082046106605160046104e05160031b0162005d10565b9962009fa4565b509a939794969299919850946000915b8383106200a08c57505050506108a05162005ab9578051906001600160401b03821162003e14576020906200a0368360046104e05160031b0162005e25565b0160046104e05160031b01600052602060002060005b8381106200a06e57505050506200a0639062005a85565b909295919562009d65565b82516001600160a01b0316818301556020909201916001016200a04c565b6200a0aa90620082f5906001600160a01b03620082e7868662005af1565b9162009ff7565b82979496959751928184101562003f7c5760169384036200a11e57505050505060c060406200a0e4920151015162005aab565b519260005b845181101562009985576200a118906200189f6001600160a01b036200a110838962005af1565b511662006ddf565b6200a0e9565b80518281101562003f7c576017036200a1775760405162461bcd60e51b81526020600482015260296024820152600080516020620169698339815191526044820152683632b6b2b73a32b21760b91b6064820152608490fd5b80518281101562003f7c576018036200a1eb57505050505060c060406200a1a2920151015162005aab565b5162013892805460ff191660011790559260005b845181101562009985576200a1e5906200189f6001600160a01b036200a1dd838962005af1565b511662006d93565b6200a1b6565b80979697518281101562003f7c576019036200a37057505050505060008080604080940160a0808251015180516200a337575b5050519060e0820151916200a24262006f1a60c060018060a01b0393015162005aab565b511690602083519301915af1903d156200a32e573d916200a2638362004098565b926200a2728351948562003eb7565b83523d6000602085013e5b156200a29257505062007a7160209162005a85565b62005a8192506200a30f8151927f5468652063616c6c20746f2074686520636f6e7472616374206973206e6f7420602085015278039bab1b1b2b9b9b33ab617102932ba3ab937103230ba309d1603d1b838501528381516200a2fe816059946020868601910162003fe6565b810103603981018552018362003eb7565b5162461bcd60e51b81526020600482015291829160248301906200400b565b6060916200a27d565b6200a3429062005aab565b51516200a351575b806200a21e565b81925062006f1a906200a3679251015162005aab565b5190386200a34a565b80518281101562003f7c57601a036200a47257505050506200a39b60a0604080940151015162005aab565b51906200a3ac600383511462014ca6565b6200a3b78262005aab565b51926200a3d06200a3c88462005acf565b519362005ae0565b51926200a4385750509162007a71916001602094146000146200a431576200a410906200a4036201388d91825462006ce3565b90915562001898620162d0565b6200189f6201388e6200a424815462006cd0565b909155620018986201630a565b5062005a85565b60649250519062461bcd60e51b825260206004830152602482015273496e76616c6964207061796d656e74207479706560601b6044820152fd5b809192939450518281101562003f7c57601b036200a8f6575050505050906200a4b26201388b54620035a86200a4a76201620c565b612710831062005a52565b50506200a4be620162d0565b506000805b61271081106200a891575b50506200a4da62006cf5565b906200a4ea6202712a5462005c0d565b9060009384905b6127108210156200a886578160031b9260ff600785015416156200a642576000976002850154156200a63057889798975b62005ab95760048501548810156200a616576200a543886004870162005d10565b9054600391821b1c6001600160a01b0316600081815291870160205260409182902054919a916200a576908a9062006b9b565b9b906200a582620162d0565b6200a58d9162005a52565b60009b60028901546200a5a09162006b9b565b906200a5ab620162d0565b6200a5b69162005a52565b828d5262013887602052818d2054906200a5d09162006ce3565b90918d20556200a5df620162d0565b6200a5ea9162005a52565b6200a5f6828962005af1565b526200a6029062005a85565b976200a60e9062005a85565b97986200a522565b929093506200a62791965062005a85565b9095946200a4f1565b929093506200a6279196975062005a85565b959392509350505b6200a6558262005c0d565b91600091825b8281106200a7f05750505062013888908154926200a67e6200815f858462014cf2565b9360009081905b8082106200a7b557505060005b8381106200a7115750508351939150506001600160401b03831162003e14576020906200a6bf8462005d42565b0190600052602060002060005b8381106200a6f3575050505062007a7160209160006201388d5560006201388e5562005a85565b82516001600160a01b0316818301556020909201916001016200a6cc565b6000805b8381106200a76d575b50156200a737575b6200a7319062005a85565b6200a692565b906200a731906200a764906001600160a01b036200a756858762005af1565b511662001f35828a62005af1565b9190506200a726565b6001600160a01b03806200a782858862005af1565b5116906200a791838b62005af1565b5116146200a7aa576200a7a49062005a85565b6200a715565b50506001386200a71e565b9091620082f56200a7e9916200a7cb8562005c45565b905460039190911b1c6001600160a01b031662001f35828b62005af1565b906200a685565b6000805b8581106200a83e575b50156200a816575b6200a8109062005a85565b6200a65b565b926200a810906200a835906001600160a01b03620082e7878662005af1565b9390506200a805565b6001600160a01b03806200a853858762005af1565b5116906200a862838a62005af1565b5116146200a87b576200a8759062005a85565b6200a7f4565b50506001386200a7fd565b93505092906200a64a565b8060031b9060ff600783015416156200a8ef576200a8dd620076dc6200189f946200a8d16200a8e99560026200a8c78762006b3e565b9101549062006b9b565b929062001898620162d0565b939062001898620162d0565b6200a4c3565b506200a4ce565b80518281101562003f7c57601c036200a94f5760405162461bcd60e51b81526020600482015260296024820152600080516020620169898339815191526044820152683632b6b2b73a32b21760b91b6064820152608490fd5b80518281101562003f7c57601d036200a975575b505050505062007a7160209162005a85565b80518281101562003f7c57601e146200a9635780518281101562003f7c57601f036200a9cb57505050506020916200a9c16200a9ba604062007a719401515162005aab565b51620158ba565b913880806200a963565b80518281101562003f7c576020036200a9f1575b505050505062007a716020916200a9c1565b8051908282101562003f7c5760218092036200aa0f575b506200a9df565b8051838110156200b077576022036200aa505750505050505062007a716020916201389260ff1981541690556200aa4562005e11565b91388080806200aa08565b8051838110156200b077576023036200aa77575b50505050505062007a716020916200aa45565b8051838110156200b077576024146200aa64578051838110156200b077576025146200aa64579795949751918210156200b0635750036200b026575060408401906200aac860c08351015162005aab565b51936200aadf60a062007887818651015162005aab565b51936200aaf48651855114620018986201637f565b6200ab078651865114620018986201637f565b60005b86518110156200ab63576200ab20818662005af1565b519061271082101562005ab95760036200ab5d9260018060a01b038b5116600052811b016020526200189f60406000205462007de0838a62005af1565b6200ab0a565b50909493919460005b85518110156200ac74576200ab82818662005af1565b51906127108083101562005ab957600360018060a01b0393848c5116600052811b016020526200abbd60406000205462007e4d848962005af1565b906200abca848a62005af1565b51918383101562005ab95760036200abf993878f5116600052811b016020526040600020556200189862016483565b6200ac05828862005af1565b518181101562005ab957600390846200ac1f858c62005af1565b5116600052811b016020526200ac4060406000205462006f21848962005af1565b6200ac4c848a62005af1565b519283101562005ab95760036200189f936200ac6e9662007f06878e62005af1565b6200ab6c565b5091509162007f3e6200ac8b91969594966201610e565b92604051946200ac9b8662003e7f565b6001865260203681880137516001600160a01b03166200acbb8662005aab565b526000905b86518210156200b00c576200acd6828862005af1565b516107e0526200ace7855162005c0d565b966000946200acf7885162005c0d565b610300528594865b88518110156200adc5578a896200ad2f6001600160a01b036200ad23858462005af1565b51166107e05162015edb565b15806200ad7f575b6200ad50575b50506200ad4a9062005a85565b6200acff565b986200ad749162001f3582859c6200802e6200ad4a9760018060a01b039262005af1565b9790508a896200ad3d565b5050506127106107e051101562005ab9576001600160a01b036200ada4828b62005af1565b511660005260036107e051811b016020528a8960406000205415156200ad37565b509098949897969291939760005b88518110156200ae67576127106107e051101562005ab9576001600160a01b036200adff828b62005af1565b511660005260036107e051811b01602052604060002054156200ae2e575b6200ae289062005a85565b6200add3565b996200ae28906200ae5e906001600160a01b036200ae4d8e8d62005af1565b511662001f35826103005162005af1565b9a90506200ae1d565b5098509694939291956107e051612710811015806108805262005ab95760031b60040154966200ae9c6200815f878a62014cf2565b996000998a610800525b6108805162005ab957610800518a8110156200af42576200aedb6200aef89160006108805260046107e05160031b0162005d10565b90546103005160039290921b1c6001600160a01b03169062015f9d565b156200af17575b6200af0d6108005162005a85565b610800526200aea6565b99808c62001f356200af3b93620082046108005160046107e05160031b0162005d10565b996200aeff565b509a939794969299919850946000915b8383106200afe757505050506108805162005ab9578051906001600160401b03821162003e14576020906200af918360046107e05160031b0162005e25565b0160046107e05160031b01600052602060002060005b8381106200afc957505050506200afbe9062005a85565b90929591956200acc0565b82516001600160a01b0316818301556020909201916001016200afa7565b6200b00590620082f5906001600160a01b03620082e7868662005af1565b916200af52565b9194505062007a719194506020925091388080806200aa64565b6064906040519062461bcd60e51b825260206004830152602482015275496e76616c6964206f7065726174696f6e207479706560501b6044820152fd5b634e487b7160e01b60005260045260246000fd5b82634e487b7160e01b60005260045260246000fd5b60405162461bcd60e51b815260206004820152601b60248201527a13dc195c985d1a5bdb881d1e5c19481a5cc81d5b9919599a5b9959602a1b6044820152606490fd5b50915050565b600281036200b0f95760405162461bcd60e51b81528062005a81600482016200774f565b6001146200b1045750565b906200b114620138835462006066565b805190600160401b821162003e1457620271165482620271165580831062013787575b506020016202711660005260206000206000915b83831062013766575050505060005b62013883548110156200b19457806200189f6200b17b6200b18e9362006994565b506200b18783620069b5565b9062013c9a565b6200b15a565b506200b1a4620138825462006066565b805190600160401b821162003e14576202711554826202711555808310620136c9575b506020016202711560005260206000206000915b838310620136a8575050505060005b62013882548110156200b21d57806200189f6200b20b6200b21793620069d6565b506200b18783620069f7565b6200b1ea565b5060005b612710811015806200b3e957600160ff6201389a8460031b0154161515146200b257575b506200b2519062005a85565b6200b221565b916000835b62005ab957620138978360031b01548110156200b2c9576200b2c0929350600092816200b2938593620138978860031b0162005d10565b9054600391821b1c6001600160a01b031660009081529087901b6201389601602052604081205562005a85565b9093926200b25c565b5091604051906200b2da8262003e9b565b6000825262005ab9578051906001600160401b03821162003e14576020906200b30c83620138978660031b0162005e25565b01620138978360031b01600052602060002060005b8381106200b3cb5750505050600381901b6201389a8101805460ff191690556000620138938201819055620138948201819055620138958201556201389801546200b25191906200b3729062005129565b601f908181116200b39f575b50506000620138988260031b01556000620138998260031b0155906200b245565b6200b3c391620138988460031b016000526020600020910160051c81019062005d29565b38806200b37e565b82516001600160a01b0316818301556020909201916001016200b321565b505060005b612710811062013613575060005b62013881548110156200b45957806200b4196200b4539262005c7f565b60018060a01b0391549060031b1c166000526202711360205260006002604082208281556200b44b60018201620060f7565b015562005a85565b6200b3fc565b506200b469620138815462005c0d565b8051906001600160401b03821162003e1457600160401b821162003e14576020906202711454836202711455808410620135f0575b500162027114600052602060002060005b838110620135d2575050505060005b62013881548110156200b533576200b4d68162005c7f565b9054620271145460039290921b1c6001600160a01b0316919081101562005ab9576202711460005260008051602062016909833981519152810180546001600160a01b0319169092179091556200b52d9062005a85565b6200b4be565b509060005b62013881548110156200b5f557806200b5556200b5aa9262005c7f565b9060018060a01b03918291549060031b1c1660005262013880602052604080600020916200b5838462005c7f565b90549060031b1c1660005262027113602052600020908082036200b5b0575b505062005a85565b6200b538565b600280916200b5d660ff6200b5c981845416876200655e565b825460081c16856200656f565b6200b5e860018201600186016201392e565b015491015538806200b5a2565b5060005b6202711d548110156200b64957806200b6166200b6439262005c9c565b60018060a01b0391549060031b1c166000526202711c6020526200189f6040600020606481019062005d29565b6200b5f9565b506200b6596201388a5462005c0d565b8051906001600160401b03821162003e1457600160401b821162003e14576020906202711d54836202711d55808410620135af575b50016202711d600052602060002060005b83811062013591575050505060005b6201388a548110156200b6f257806200189f6200b6cf6200b6ec9362005cb9565b905460039190911b1c6001600160a01b031662001e708362005c9c565b6200b6ae565b5060005b6201388a548110156200b78057806200b7136200b7679262005cb9565b9060018060a01b03918291549060031b1c1660005262013889602052604080600020916200b7418462005cb9565b90549060031b1c166000526202711c602052600020908082036200b76d57505062005a85565b6200b6f6565b6200b7789162013d2e565b38806200b5a2565b506201388b546202711e556201388c546202711f556201388d5462027120556201388e5462027121556201388f546001600160401b03811162003e1457600160401b811162003e1457620271225481620271225580821062013562575b506202712260009081527f846ab89c81ea9339188216a1864da1a19ebe28d411cbec99efa70ca6d389710d80546000805160206201688983398151915291905b848410620135405750505050506201389054600160401b811162003e14576202712354816202712355808210620134fd575b50620271236000908152600080516020620168a98339815191527f7f73709277f72a9bc7b284375e83603a53394744e9fa86da811e86c2aa78e05e5b838310620134df57505062013891549150506001600160401b03811162003e1457600160401b811162003e14576202712454816202712455808210620134b0575b506202712460009081527f8f332db73d3937798ea82422156d059730b0b3058606439b57b7ae623e94536680546000805160206201692983398151915291905b8484106201348e57505050505060ff620138925416151560ff8019620271255416911617620271255560005b62027119548110156200b98457806200b9556200b97e9262005cd6565b905460039190911b1c6001600160a01b0316600090815262027118602052604081205562005a85565b6200b938565b506200b994620138865462005c0d565b8051906001600160401b03821162003e14576020906200b9b48362005dc9565b0162027119600052602060002060005b83811062013470575050505060005b62013886548110156200ba1757806200189f6200b9f46200ba119362005c62565b905460039190911b1c6001600160a01b031662001e708362005cd6565b6200b9d3565b5060005b62013886548110156200ba8957806200ba386200ba839262005c62565b9060018060a01b03918291549060031b1c166000526201388560205260408060002054916200ba678462005c62565b90549060031b1c16600052620271186020526000205562005a85565b6200ba1b565b5060005b6202711b548110156200bad957806200baaa6200bad39262005cf3565b905460039190911b1c6001600160a01b031660009081526202711a602052604081205562005a85565b6200ba8d565b506200bae9620138885462005c0d565b8051906001600160401b03821162003e14576020906200bb098362005ded565b016202711b600052602060002060005b83811062013452575050505060005b62013888548110156200bb6c57806200189f6200bb496200bb669362005c45565b905460039190911b1c6001600160a01b031662001e708362005cf3565b6200bb28565b5060005b62013888548110156200bbde57806200bb8d6200bbd89262005c45565b9060018060a01b03918291549060031b1c166000526201388760205260408060002054916200bbbc8462005c45565b90549060031b1c166000526202711a6020526000205562005a85565b6200bb70565b50906000905b60208301518051831015620109f357826200bbff9162005af1565b516020810151602681101562003f7c57156200b08c576020810151602681101562003f7c576001036200c1cf57604001906200bc4060c08351015162005aab565b51936200bc5760a062007887818651015162005aab565b51916200bc6886518551146201505a565b6200bc778651845114620150c0565b60005b86518110156200bdda576200bc90818662005af1565b5161271081101562005ab957600160ff6201389a6200bcb89360031b01541615151462015122565b6200bcc4818562005af1565b516200bcd1828762005af1565b519061271082101562005ab957620138996200bcf39260031b01549062006ce3565b906200bd00838862005af1565b519161271083101562005ab957620138996200bd219360031b01556201517a565b6200bd2d818562005af1565b516200bd3a828762005af1565b519061271082101562005ab9576200bd7e9162013896906001600160a01b036200bd65868d62005af1565b511660005260031b016020526040600020549062006ce3565b91906200bd8c828862005af1565b519061271082101562005ab9576200bdd4936200189f9262013896906001600160a01b036200bdbc878f62005af1565b511660005260031b01602052604060002055620151d9565b6200bc7a565b50926200bdf191925062008570909594956201610e565b916040516200be008162003e9b565b6000815260003681376000945b80518610156200c1b5576200be23868262005af1565b5160e0526200be33855162005c0d565b966000946200be43845162005c0d565b60c05260009460005b88518110156200bf12578a896200be7b6001600160a01b036200be70858462005af1565b511660e05162015f44565b15806200becb575b6200be9c575b50506200be969062005a85565b6200be4c565b986200bec09162001f3582859c6200802e6200be969760018060a01b039262005af1565b9790508a896200be89565b50505061271060e051101562005ab9576001600160a01b036200beef828b62005af1565b51166000526201389660e05160031b016020528a8960406000205415156200be83565b50909895979498969291939660005b88518110156200bfae5761271060e051101562005ab9576001600160a01b03806200bf4d838c62005af1565b51166000526201389660e05160031b01602052604060002054156200bf7f575b506200bf799062005a85565b6200bf21565b819b6200bfa6916200bf966200bf79948d62005af1565b511662001f358260c05162005af1565b9a906200bf6d565b5098509695929190939660e051612710811015806102805262005ab95760031b620138970154986200bfe56200815f898c62014cf2565b610380526000610540526000610600525b6102805162005ab957610600518a8110156200c0be576200c02c6200c04b916000610280526201389760e05160031b0162005d10565b905460c0516001600160a01b03939260031b9190911c83169062015f9d565b156200c06b575b506200c0616106005162005a85565b610600526200bff6565b6000610280526200c08a610600516201389760e05160031b0162005d10565b90549060031b1c166200c0a4610540516103805162005af1565b526200c0b36105405162005a85565b61054052386200c052565b50979294959093985095909560005b8281106200c169575050506102805162005ab95761038051516001600160401b03811162003e14576200c10b816201389760e05160031b0162005e25565b602061038051016201389760e05160031b01600052602060002060005b8381106200c14b57505050506200c13f9062005a85565b9492959091956200be0d565b82516001600160a01b0316818301556020909201916001016200c128565b6200c1af906001600160a01b036200c182828562005af1565b51166200c196610540516103805162005af1565b526200c1a56105405162005a85565b6105405262005a85565b6200c0cd565b5050939092506200c1c7915062005a85565b90916200bbe4565b906020829493940151602681101562003f7c576002036200c38c576040809201908151938451916200c2266200c20a60a08098015162005aab565b51966200c21b818751015162005acf565b519551015162005ae0565b5194835187510362007cc957835185510362007c7557835186510362007c1e575060005b86518110156200c379576200c260818862005af1565b5161271081101562005ab95760ff6201389a6200c2849260031b0154161562015232565b6200c290818862005af1565b5161271081101562005ab95760031b6201389a01805460ff191660011790556200c2bb818562005af1565b516200c2c8828962005af1565b519061271082101562005ab957620138986200c2e89260031b016200648b565b6200c2f4818662005af1565b516200c301828962005af1565b5161271081101562005ab95760031b6201389401556200c322818762005af1565b516200c32f828962005af1565b5161271081101562005ab95760031b6201389501556200c350818862005af1565b519061271082101562005ab9576000620138996200c3739360031b015562005a85565b6200c24a565b509592509350506200c1c7915062005a85565b9092916020840151602681101562003f7c576003036200c9be5760408401906200c3bb60c08351015162005aab565b51906200c3d260a062007887818651015162005aab565b51936200c3e78351855114620018986201637f565b6200c3fa8351865114620018986201637f565b60005b83518110156200c459576200c413818662005af1565b519061271082101562005ab957620138966200c4539260018060a01b038b511660005260031b016020526200189f60406000205462007de0838a62005af1565b6200c3fd565b509095919560005b87518110156200c5ab576200c477818662005af1565b5161271081101562005ab957620138969060018060a01b0386511660005260031b016020526200c4b260406000205462007e4d838962005af1565b906200c4bf838862005af1565b519161271083101562005ab957620138966200c4f99360018060a01b0389511660005260031b016020526040600020556200189862016483565b6200c505818662005af1565b5161271081101562005ab95762013896906001600160a01b036200c52a848c62005af1565b511660005260031b016020526200c54c60406000205462006f21838962005af1565b91906200c55a828862005af1565b519061271082101562005ab9576200c5a593620138966200189f938d6200c5898760018060a01b039262005af1565b511660005260031b0160205260406000205562001898620164e8565b6200c461565b50926200c5ca919294506200c5c3909695966201610e565b9462015ff2565b92604051906200c5da8262003e7f565b6001825260203681840137516001600160a01b03166200c5fa8262005aab565b526000945b80518610156200c1b5576200c615868262005af1565b516103c0526200c626855162005c0d565b966000946200c636845162005c0d565b6108c05260009460005b88518110156200c709578a896200c6706001600160a01b036200c664858462005af1565b51166103c05162015f44565b15806200c6c0575b6200c691575b50506200c68b9062005a85565b6200c640565b986200c6b59162001f3582859c6200802e6200c68b9760018060a01b039262005af1565b9790508a896200c67e565b5050506127106103c051101562005ab9576001600160a01b036200c6e5828b62005af1565b5116600052620138966103c05160031b016020528a8960406000205415156200c678565b50909895979498969291939660005b88518110156200c7af576127106103c051101562005ab9576001600160a01b036200c744828b62005af1565b5116600052620138966103c05160031b01602052604060002054156200c776575b6200c7709062005a85565b6200c718565b996200c770906200c7a6906001600160a01b036200c7958e8d62005af1565b511662001f35826108c05162005af1565b9a90506200c765565b509850969592919093966103c051612710811015806101605262005ab95760031b620138970154986200c7e76200815f898c62014cf2565b610460526000610640526000610220525b6101605162005ab957610220518a8110156200c8c5576200c82f6200c84c91600061016052620138976103c05160031b0162005d10565b90546108c05160039290921b1c6001600160a01b03169062015f9d565b156200c86b575b6200c8616102205162005a85565b610220526200c7f8565b6000610160526200c88b61022051620138976103c05160031b0162005d10565b60018060a01b0391549060031b1c166200c8ac610640516104605162005af1565b526200c8bb6106405162005a85565b610640526200c853565b50979294959093985095909560005b8281106200c972575050506101605162005ab95761046051516001600160401b03811162003e14576200c91381620138976103c05160031b0162005e25565b60206104605101620138976103c05160031b01600052602060002060005b8381106200c95457505050506200c9489062005a85565b9492959091956200c5ff565b82516001600160a01b0316818301556020909201916001016200c931565b6200c9b8906001600160a01b036200c98b828562005af1565b51166200c99f610640516104605162005af1565b526200c9ae6106405162005a85565b6106405262005a85565b6200c8d4565b90926020810151602681101562003f7c576004036200cff75760400160c0936200c9fc6200c9f0868451015162005aab565b51958351015162005acf565b51906200ca1360a062007887818651015162005aab565b51936200ca288751845114620018986201637f565b6200ca3b8751855114620018986201637f565b6200ca4e8751865114620018986201637f565b60005b87518110156200caba576200ca67818662005af1565b519061271082101562005ab9576200cab49162013896906001600160a01b036200ca92848d62005af1565b511660005260031b016020526200189f60406000205462007de0838a62005af1565b6200ca51565b509095919593929360005b83518110156200cc21576200cadb818762005af1565b5161271081101562005ab95762013896906001600160a01b036200cb00848862005af1565b511660005260031b016020526200cb2260406000205462007e4d838862005af1565b906200cb2f838962005af1565b519161271083101562005ab9576200cb769262013896906001600160a01b036200cb5a878b62005af1565b511660005260031b016020526040600020556200189862016483565b6200cb82818762005af1565b5161271081101562005ab95762013896906001600160a01b036200cba7848c62005af1565b511660005260031b016020526200cbc960406000205462006f21838862005af1565b9190506200cbd8818862005af1565b519161271083101562005ab9576200cc1b9262013896906001600160a01b036200cc03858e62005af1565b511660005260031b0160205260406000205562005a85565b6200cac5565b5091936200cc3d91935062007f3e62008570919796976201610e565b6000945b80518610156200c1b5576200cc57868262005af1565b516107a0526200cc68855162005c0d565b966000946200cc78845162005c0d565b6107205260009460005b88518110156200cd4b578a896200ccb26001600160a01b036200cca6858462005af1565b51166107a05162015f44565b15806200cd02575b6200ccd3575b50506200cccd9062005a85565b6200cc82565b986200ccf79162001f3582859c6200802e6200cccd9760018060a01b039262005af1565b9790508a896200ccc0565b5050506127106107a051101562005ab9576001600160a01b036200cd27828b62005af1565b5116600052620138966107a05160031b016020528a8960406000205415156200ccba565b50909895979498969291939660005b88518110156200cdea576127106107a051101562005ab9576001600160a01b03806200cd87838c62005af1565b5116600052620138966107a05160031b01602052604060002054156200cdba575b506200cdb49062005a85565b6200cd5a565b819b6200cde2916200cdd16200cdb4948d62005af1565b511662001f35826107205162005af1565b9a906200cda8565b509850969592919093966107a051612710811015806101c05262005ab95760031b620138970154986200ce226200815f898c62014cf2565b6107c0526000610420526000610860525b6101c05162005ab957610860518a8110156200cefe576200ce6a6200ce8a9160006101c052620138976107a05160031b0162005d10565b9054610720516001600160a01b03939260031b9190911c83169062015f9d565b156200ceaa575b506200cea06108605162005a85565b610860526200ce33565b60006101c0526200ceca61086051620138976107a05160031b0162005d10565b90549060031b1c166200cee4610420516107c05162005af1565b526200cef36104205162005a85565b61042052386200ce91565b50979294959093985095909560005b8281106200cfab575050506101c05162005ab9576107c051516001600160401b03811162003e14576200cf4c81620138976107a05160031b0162005e25565b60206107c05101620138976107a05160031b01600052602060002060005b8381106200cf8d57505050506200cf819062005a85565b9492959091956200cc41565b82516001600160a01b0316818301556020909201916001016200cf6a565b6200cff1906001600160a01b036200cfc4828562005af1565b51166200cfd8610420516107c05162005af1565b526200cfe76104205162005a85565b6104205262005a85565b6200cf0d565b92906020840151602681101562003f7c576005036200d5a85760408401906200d02a60a0620085d9818551015162005aab565b519282518451036200d5565760005b83518110156200d095576200d04f818562005af1565b519061271082101562005ab957620138966200d08f9260018060a01b038a511660005260031b016020526200189f60406000205462007de0838962005af1565b6200d039565b509060005b83518110156200d13e576200d0b0818562005af1565b5161271081101562005ab957620138969060018060a01b0389511660005260031b016020526200d0eb60406000205462007e4d838862005af1565b91906200d0f9828762005af1565b519061271082101562005ab9576200d13893620138966200189f9360018060a01b038d511660005260031b016020526040600020556200189862016483565b6200d09a565b50916200d14f91949593506201610e565b92604051926200d15f8462003e7f565b6001845260203681860137516001600160a01b03166200d17f8462005aab565b52604051926200d18f8462003e9b565b6000845260003681376000945b80518610156200c1b5576200d1b2868262005af1565b51610240526200d1c3855162005c0d565b966000946200d1d3845162005c0d565b6108405260009460005b88518110156200d2a6578a896200d20d6001600160a01b036200d201858462005af1565b51166102405162015f44565b15806200d25d575b6200d22e575b50506200d2289062005a85565b6200d1dd565b986200d2529162001f3582859c6200802e6200d2289760018060a01b039262005af1565b9790508a896200d21b565b50505061271061024051101562005ab9576001600160a01b036200d282828b62005af1565b5116600052620138966102405160031b016020528a8960406000205415156200d215565b50909895979498969291939660005b88518110156200d34c5761271061024051101562005ab9576001600160a01b036200d2e1828b62005af1565b5116600052620138966102405160031b01602052604060002054156200d313575b6200d30d9062005a85565b6200d2b5565b996200d30d906200d343906001600160a01b036200d3328e8d62005af1565b511662001f35826108405162005af1565b9a90506200d302565b50985096959291909396610240516127108110158060a05262005ab95760031b620138970154986200d3836200815f898c62014cf2565b610780526000610320526000610340525b60a05162005ab957610340518a8110156200d45e576200d3c96200d3e691600060a052620138976102405160031b0162005d10565b90546108405160039290921b1c6001600160a01b03169062015f9d565b156200d405575b6200d3fb6103405162005a85565b610340526200d394565b600060a0526200d42461034051620138976102405160031b0162005d10565b60018060a01b0391549060031b1c166200d445610320516107805162005af1565b526200d4546103205162005a85565b610320526200d3ed565b50979294959093985095909560005b8281106200d50a5750505060a05162005ab95761078051516001600160401b03811162003e14576200d4ab81620138976102405160031b0162005e25565b60206107805101620138976102405160031b01600052602060002060005b8381106200d4ec57505050506200d4e09062005a85565b9492959091956200d19c565b82516001600160a01b0316818301556020909201916001016200d4c9565b6200d550906001600160a01b036200d523828562005af1565b51166200d537610320516107805162005af1565b526200d5466103205162005a85565b6103205262005a85565b6200d46d565b60405162461bcd60e51b81526020600482015260356024820152600080516020620168c9833981519152604482015274195b905b5bdd5b9d081a5cc81b9bdd08195c5d585b605a1b6064820152608490fd5b926020810151602681101562003f7c576006036200db9b576040016200d5d360c08251015162005aab565b51936200d5ea60a0620085d9818551015162005aab565b519285518351036200db495785518451036200dafc5760005b86518110156200d66c576200d619818562005af1565b519061271082101562005ab9576200d6669162013896906001600160a01b036200d644848c62005af1565b511660005260031b016020526200189f60406000205462007de0838962005af1565b6200d603565b509060005b86518110156200d712576200d687818562005af1565b5161271081101562005ab95762013896906001600160a01b036200d6ac848b62005af1565b511660005260031b016020526200d6ce60406000205462007e4d838862005af1565b91906200d6dc828762005af1565b519061271082101562005ab9576200d70c936200189f9262013896906001600160a01b036200cb5a878f62005af1565b6200d671565b50916200d72991935062008570909594956201610e565b91604051926200d7398462003e9b565b6000845260003681376000945b80518610156200c1b5576200d75c868262005af1565b51610400526200d76d855162005c0d565b966000946200d77d845162005c0d565b6101005260009460005b88518110156200d850578a896200d7b76001600160a01b036200d7ab858462005af1565b51166104005162015f44565b15806200d807575b6200d7d8575b50506200d7d29062005a85565b6200d787565b986200d7fc9162001f3582859c6200802e6200d7d29760018060a01b039262005af1565b9790508a896200d7c5565b50505061271061040051101562005ab9576001600160a01b036200d82c828b62005af1565b5116600052620138966104005160031b016020528a8960406000205415156200d7bf565b50909895979498969291939660005b88518110156200d8ef5761271061040051101562005ab9576001600160a01b03806200d88c838c62005af1565b5116600052620138966104005160031b01602052604060002054156200d8bf575b506200d8b99062005a85565b6200d85f565b819b6200d8e7916200d8d66200d8b9948d62005af1565b511662001f35826101005162005af1565b9a906200d8ad565b5098509695929190939661040051612710811015806104a05262005ab95760031b620138970154986200d9276200815f898c62014cf2565b6101405260006101e05260006104c0525b6104a05162005ab9576104c0518a8110156200da03576200d96f6200d98f9160006104a052620138976104005160031b0162005d10565b9054610100516001600160a01b03939260031b9190911c83169062015f9d565b156200d9af575b506200d9a56104c05162005a85565b6104c0526200d938565b60006104a0526200d9cf6104c051620138976104005160031b0162005d10565b90549060031b1c166200d9e96101e0516101405162005af1565b526200d9f86101e05162005a85565b6101e052386200d996565b50979294959093985095909560005b8281106200dab0575050506104a05162005ab95761014051516001600160401b03811162003e14576200da5181620138976104005160031b0162005e25565b60206101405101620138976104005160031b01600052602060002060005b8381106200da9257505050506200da869062005a85565b9492959091956200d746565b82516001600160a01b0316818301556020909201916001016200da6f565b6200daf6906001600160a01b036200dac9828562005af1565b51166200dadd6101e0516101405162005af1565b526200daec6101e05162005a85565b6101e05262005a85565b6200da12565b60405162461bcd60e51b81526020600482015260306024820152600080516020620169a983398151915260448201526f1b9d1cc81a5cc81b9bdd08195c5d585b60821b6064820152608490fd5b60405162461bcd60e51b81526020600482015260356024820152600080516020620168698339815191526044820152741b90db185cdcd95cc81a5cc81b9bdd08195c5d585b605a1b6064820152608490fd5b602081949293940151602681101562003f7c576007036200dd3a57604001916200dbca60c08451015162005aab565b51916200dbdc60a08551015162005aab565b51935151916200dbf48451865114620018986201637f565b60005b84518110156200dd28576001600160a01b03806200dc16838862005af1565b511660005262027113806020526200dc3b60ff60406000205416156200189862016450565b60026200dc49848862005af1565b516200dcb36200dc5a868c62005af1565b519162008b478b604051966200dc708862003df8565b60018852886200dc978b60208b01946000865260408c0197885260608c01998a5262005af1565b511660005260205262008b3d604060002097511515886200655e565b519101556200dcc3828762005af1565b516202711454929116600160401b83101562003e14576001830180620271145583101562005ab957620271146000526000805160206201690983398151915290920180546001600160a01b0319169092179091556200dd229062005a85565b6200dbf7565b5094915092506200c1c7915062005a85565b6020810151602681101562003f7c576008036200de295760c060406200dd64920151015162005aab565b519160005b83518110156200de1a576200de14906001600160a01b03806200dd8d838862005af1565b51166000526202711390816020526200ddb7600160ff6040600020541615151462001898620163af565b806200ddc4848962005af1565b5116600052816020526200dde860ff60406000205460081c16156200189862016417565b6200ddf4838862005af1565b5116600052602052604060002061010061ff001982541617905562005a85565b6200dd69565b50926200c1c791925062005a85565b6020810151602681101562003f7c576009036200df095760c060406200de53920151015162005aab565b519160005b83518110156200de1a576200df03906001600160a01b03806200de7c838862005af1565b51166000526202711390816020526200dea6600160ff6040600020541615151462001898620163af565b806200deb3848962005af1565b5116600052816020526200dedb600160ff60406000205460081c1615151462001898620163e2565b6200dee7838862005af1565b5116600052602052604060002061ff0019815416905562005a85565b6200de58565b6020810151602681101562003f7c57600a036200dff257604001906200df4560a06200df3a60c08551015162005aab565b519351015162005aab565b51926200df5a8351855114620018986201637f565b60005b83518110156200dfe1576200dfdb906001600160a01b03806200df81838862005af1565b511660005262027113806020526200dfaa600160ff6040600020541615151462001898620163af565b6200dfb6838962005af1565b51916200dfc4848962005af1565b511660005260205260026040600020015562005a85565b6200df5d565b50939092506200c1c7915062005a85565b602081949392940151602681101562003f7c57600b036200e0d357604001926200e02160c08551015162005aab565b51935151916200e0398551845114620018986201637f565b60005b85518110156200e0c3576200e0bd906200189f6001600160a01b03806200e064848b62005af1565b511660005262027113806020526200e08d600160ff6040600020541615151462001898620163af565b6200e099848962005af1565b51916200e0a7858c62005af1565b511660005260205260016040600020016200648b565b6200e03c565b509350916200c1c7915062005a85565b9091926020820151602681101562003f7c57600c036200e217576060604083015101519260005b84518110156200dfe15760e06200e11a8260606040880151015162005af1565b510151156200e1a0576200e1426200e13b8260606040880151015162005af1565b5162006aad565b62027115548060001981011162005a95576200e16460059160001901620069f7565b5001805461ff0019166101001790556202711554906000198201821062005a9557600562008fa56200e19a9360001901620069f7565b6200e0fa565b6200e1bf6200e1b88260606040880151015162005af1565b5162006a89565b62027116548060001981011162005a95576200e1e160059160001901620069b5565b5001805461ff0019166101001790556202711654906000198201821062005a9557600562008fa56200e19a9360001901620069b5565b9291906020810151602681101562003f7c57600d036200e360576040019260206200e24760a08651015162005aab565b5194510151916200e25c855184511462014d99565b60005b85518110156200e0c357806200e27a6200e2f4928662005af1565b51156200e2fa576200e29e6200e291828962005af1565b5162027115541162014e22565b6200e2ca60ff60056200e2bd6200e2b6858c62005af1565b51620069f7565b50015460081c1662014e7a565b6200e2e260ff6005620091036200e2b6858c62005af1565b60056200911f6200e2b6838a62005af1565b6200e25f565b6200e3176200e30a828962005af1565b5162027116541162014e22565b6200e33660ff60056200e2bd6200e32f858c62005af1565b51620069b5565b6200e34e60ff6005620091036200e32f858c62005af1565b60056200911f6200e32f838a62005af1565b6020810151602681101562003f7c57600e036200e498576040019260206200e38d60a08651015162005aab565b5194510151916200e3a2855184511462014d99565b60005b85518110156200e0c357806200e3c06200e433928662005af1565b51156200e439576200e3e46200e3d7828962005af1565b5162027115541162014f3c565b6200e40960ff60056200e3fc6200e2b6858c62005af1565b50015460081c1662014f95565b6200e42160ff60056200925d6200e2b6858c62005af1565b600562008fa56200e2b6838a62005af1565b6200e3a5565b6200e4566200e449828962005af1565b5162027116541162014f3c565b6200e46e60ff60056200e3fc6200e32f858c62005af1565b6200e48660ff60056200925d6200e32f858c62005af1565b600562008fa56200e32f838a62005af1565b9091926020820151602681101562003f7c57600f036200e5ce576060604083015101519260005b84518110156200dfe15760e06200e4df8260606040880151015162005af1565b510151156200e55e576200e5006200e13b8260606040880151015162005af1565b62027115548060001981011162005a95576200e52260059160001901620069f7565b5001805461ff0019166101001790556202711554906000198201821062005a955760056200911f6200e5589360001901620069f7565b6200e4bf565b6200e5766200e1b88260606040880151015162005af1565b62027116548060001981011162005a95576200e59860059160001901620069b5565b5001805461ff0019166101001790556202711654906000198201821062005a955760056200911f6200e5589360001901620069b5565b9291906020810151602681101562003f7c576010036200e7175760400151926200e60160a0608086015195015162005aab565b51916200e6168551845114620018986201637f565b60005b85518110156200e0c357806200e6346200e6aa928862005af1565b516200e6408162004dc4565b6200e64c828762005af1565b51906200e6598162004dc4565b6200e6706200e667620164b2565b82151562005a52565b6200e67b8162004dc4565b600181036200e6b057506200e69f6200e693620164b2565b61271083111562005a52565b6202711e5562005a85565b6200e619565b6200e6bb8162004dc4565b600281036200e6d057506202711f5562005a85565b6200e6db8162004dc4565b600381036200e6f05750620271205562005a85565b806200e6fe60049262004dc4565b146200e70b575062005a85565b6202712155386200a431565b6020810151602681101562003f7c576011036200e9bd57604001906200e74860a06200df3a60c08551015162005aab565b51936200e759835186511462014ca6565b60005b83518110156200e7da576200e7d4906200e7b46001600160a01b03806200e784848962005af1565b51166000526202711890816020526200e7a860406000205462006f21868d62005af1565b93906200189862016335565b6200e7c0848962005af1565b511660005260205260406000205562005a85565b6200e75c565b509350906200e7e99062015ff2565b906202711954936200e8016200815f84518762014cf2565b9060009260005b8781106200e97d575060005b85518110156200e8c9576000805b8981106200e87a575b50156200e844575b6200e83e9062005a85565b6200e814565b936200e83e906200e871906001600160a01b036200e863888a62005af1565b511662001f35828862005af1565b9490506200e833565b6200e8858162005cd6565b90546001600160a01b0360039290921b1c8116906200e8a5858b62005af1565b5116146200e8be576200e8b89062005a85565b6200e822565b50506001386200e82b565b5095509392506200e8da8262005c0d565b8051906001600160401b03821162003e14576020906200e8fa8362005dc9565b0162027119600052602060002060005b8381106200e95f575050505060005b8281106200e92f575050506200c1c79062005a85565b6200e959906200189f6001600160a01b036200e94c838662005af1565b511662001e708362005cd6565b6200e919565b82516001600160a01b0316818301556020909201916001016200e90a565b936200e9b06200e9b7916200e9928762005cd6565b905460039190911b1c6001600160a01b031662001f35828862005af1565b9462005a85565b6200e808565b6020819492940151602681101562003f7c576012036200ec0557604001906200e9f160a06200df3a60c08551015162005aab565b51936200ea02835186511462014ca6565b60005b83518110156200ea57576200ea51906200e7b46001600160a01b03806200ea2d848962005af1565b51166000526202711890816020526200e7a860406000205462007e4d868d62005af1565b6200ea05565b50935091906200ea679062015ff2565b62027119546200ea778162005c0d565b906000926000915b8083106200eb2b575050506200ea958262005c0d565b8051906001600160401b03821162003e14576020906200eab58362005dc9565b0162027119600052602060002060005b8381106200eb0d575050505060005b8281106200eaea575050506200c1c79062005a85565b6200eb07906200189f6001600160a01b036200e94c838662005af1565b6200ead4565b82516001600160a01b0316818301556020909201916001016200eac5565b91956000959193959760005b85518110156200ebf6576200eb4c8962005cd6565b90546001600160a01b0360039290921b1c8116906200eb6c838962005af1565b5116146200eb85576200eb7f9062005a85565b6200eb37565b509750956001959391955b806200ebc4575b156200ebaf576200eba89062005a85565b916200ea7f565b936200e9b06200eba8916200e9928762005cd6565b506200ebd08162005cd6565b60018060a01b0391549060031b1c1660005262027118602052604060002054156200eb97565b5097969096959391956200eb90565b6020819493940151602681101562003f7c576013036200eca95760408091015101519160005b83518110156200de1a576200ec41818562005af1565b51906202711754600160401b81101562003e14576001810180620271175581101562005ab957620271176000526200eca3926200189f916007027f08f37177f6a5732df494aeff73d589b534878a053b84dfe1e41c467868b7c9fd01620157d7565b6200ec2b565b602081949392940151602681101562003f7c576014036200f1f657604001906200ecd860c08351015162005aab565b51936200ecef60a062007887818651015162005aab565b51916200ed0086518551146201505a565b6200ed0f8651845114620150c0565b60005b86518110156200ee0d576200ed28818562005af1565b516200ed35828762005af1565b519061271082101562005ab957620138996200ed579260031b01549062006ce3565b906200ed64838862005af1565b519161271083101562005ab957620138996200ed859360031b01556201517a565b6200ed91818562005af1565b516200ed9e828762005af1565b519061271082101562005ab9576200edc99162013896906001600160a01b036200bd65868d62005af1565b91906200edd7828862005af1565b519061271082101562005ab9576200ee07936200189f9262013896906001600160a01b036200bdbc878f62005af1565b6200ed12565b50926200ee2491925062008570909594956201610e565b916040516200ee338162003e9b565b6000815260003681376000945b80518610156200c1b5576200ee56868262005af1565b51610740526200ee67855162005c0d565b966000946200ee77845162005c0d565b6105e05260009460005b88518110156200ef4a578a896200eeb16001600160a01b036200eea5858462005af1565b51166107405162015f44565b15806200ef01575b6200eed2575b50506200eecc9062005a85565b6200ee81565b986200eef69162001f3582859c6200802e6200eecc9760018060a01b039262005af1565b9790508a896200eebf565b50505061271061074051101562005ab9576001600160a01b036200ef26828b62005af1565b5116600052620138966107405160031b016020528a8960406000205415156200eeb9565b50909895979498969291939660005b88518110156200efe95761271061074051101562005ab9576001600160a01b03806200ef86838c62005af1565b5116600052620138966107405160031b01602052604060002054156200efb9575b506200efb39062005a85565b6200ef59565b819b6200efe1916200efd06200efb3948d62005af1565b511662001f35826105e05162005af1565b9a906200efa7565b5098509695929190939661074051612710811015806101805262005ab95760031b620138970154986200f0216200815f898c62014cf2565b6105005260006105c0526000610820525b6101805162005ab957610820518a8110156200f0fd576200f0696200f08991600061018052620138976107405160031b0162005d10565b90546105e0516001600160a01b03939260031b9190911c83169062015f9d565b156200f0a9575b506200f09f6108205162005a85565b610820526200f032565b6000610180526200f0c961082051620138976107405160031b0162005d10565b90549060031b1c166200f0e36105c0516105005162005af1565b526200f0f26105c05162005a85565b6105c052386200f090565b50979294959093985095909560005b8281106200f1aa575050506101805162005ab95761050051516001600160401b03811162003e14576200f14b81620138976107405160031b0162005e25565b60206105005101620138976107405160031b01600052602060002060005b8381106200f18c57505050506200f1809062005a85565b9492959091956200ee40565b82516001600160a01b0316818301556020909201916001016200f169565b6200f1f0906001600160a01b036200f1c3828562005af1565b51166200f1d76105c0516105005162005af1565b526200f1e66105c05162005a85565b6105c05262005a85565b6200f10c565b926020840151602681101562003f7c576015036200f8035760408401906200f22360c08351015162005aab565b51906200f23a60a062007887818651015162005aab565b51936200f24f8351855114620018986201637f565b6200f2628351865114620018986201637f565b60005b83518110156200f2c1576200f27b818662005af1565b519061271082101562005ab957620138966200f2bb9260018060a01b038b511660005260031b016020526200189f60406000205462007de0838a62005af1565b6200f265565b509095919560005b87518110156200f3f7576200f2df818662005af1565b5161271081101562005ab957620138969060018060a01b0386511660005260031b016020526200f31a60406000205462007e4d838962005af1565b906200f327838862005af1565b519161271083101562005ab957620138966200f3619360018060a01b0389511660005260031b016020526040600020556200189862016483565b6200f36d818662005af1565b5161271081101562005ab95762013896906001600160a01b036200f392848c62005af1565b511660005260031b016020526200f3b460406000205462006f21838962005af1565b91906200f3c2828862005af1565b519061271082101562005ab9576200f3f193620138966200189f938d6200c5898760018060a01b039262005af1565b6200f2c9565b50926200f40f919294506200c5c3909695966201610e565b92604051906200f41f8262003e7f565b6001825260203681840137516001600160a01b03166200f43f8262005aab565b526000945b80518610156200c1b5576200f45a868262005af1565b51610200526200f46b855162005c0d565b966000946200f47b845162005c0d565b6107605260009460005b88518110156200f54e578a896200f4b56001600160a01b036200f4a9858462005af1565b51166102005162015f44565b15806200f505575b6200f4d6575b50506200f4d09062005a85565b6200f485565b986200f4fa9162001f3582859c6200802e6200f4d09760018060a01b039262005af1565b9790508a896200f4c3565b50505061271061020051101562005ab9576001600160a01b036200f52a828b62005af1565b5116600052620138966102005160031b016020528a8960406000205415156200f4bd565b50909895979498969291939660005b88518110156200f5f45761271061020051101562005ab9576001600160a01b036200f589828b62005af1565b5116600052620138966102005160031b01602052604060002054156200f5bb575b6200f5b59062005a85565b6200f55d565b996200f5b5906200f5eb906001600160a01b036200f5da8e8d62005af1565b511662001f35826107605162005af1565b9a90506200f5aa565b5098509695929190939661020051612710811015806102605262005ab95760031b620138970154986200f62c6200815f898c62014cf2565b6104805260006105805260006102a0525b6102605162005ab9576102a0518a8110156200f70a576200f6746200f69191600061026052620138976102005160031b0162005d10565b90546107605160039290921b1c6001600160a01b03169062015f9d565b156200f6b0575b6200f6a66102a05162005a85565b6102a0526200f63d565b6000610260526200f6d06102a051620138976102005160031b0162005d10565b60018060a01b0391549060031b1c166200f6f1610580516104805162005af1565b526200f7006105805162005a85565b610580526200f698565b50979294959093985095909560005b8281106200f7b7575050506102605162005ab95761048051516001600160401b03811162003e14576200f75881620138976102005160031b0162005e25565b60206104805101620138976102005160031b01600052602060002060005b8381106200f79957505050506200f78d9062005a85565b9492959091956200f444565b82516001600160a01b0316818301556020909201916001016200f776565b6200f7fd906001600160a01b036200f7d0828562005af1565b51166200f7e4610580516104805162005af1565b526200f7f36105805162005a85565b6105805262005a85565b6200f719565b9091926020810151602681101562003f7c576016036200f8b85760c060406200f830920151015162005aab565b519160005b83518110156200de1a576001600160a01b036200f853828662005af1565b516202712254929116600160401b83101562003e14576001830180620271225583101562005ab957620271226000526000805160206201688983398151915290920180546001600160a01b0319169092179091556200f8b29062005a85565b6200f835565b6020810151602681101562003f7c576017036200f9155760405162461bcd60e51b81526020600482015260296024820152600080516020620169698339815191526044820152683632b6b2b73a32b21760b91b6064820152608490fd5b6020810151602681101562003f7c576018036200f9d85760c060406200f93f920151015162005aab565b5191600160ff1962027125541617620271255560005b83518110156200de1a576001600160a01b036200f973828662005af1565b516202712454929116600160401b83101562003e14576001830180620271245583101562005ab957620271246000526000805160206201692983398151915290920180546001600160a01b0319169092179091556200f9d29062005a85565b6200f955565b602081949293940151602681101562003f7c576019036200fa00575b506200c1c79062005a85565b6020810151602681101562003f7c57601a036200fb7b5760a060406200fa2a920151015162005aab565b51906200fa3b600383511462014ca6565b6200fa468262005aab565b516200fa566200a3c88462005acf565b51926200fb3f576200c1c7926001036200fb38576200fa7e6200fadd91620271205462006ce3565b6202712055604051906200fa928262003e63565b603282527f6469766964656e6461626c652062616c616e6365206f766572666c6f772077686020830152710cadc40e0e4dec6cae6e6d2dcce40c6c2e6d60731b604083015262005a52565b6200fb316200faf0620271215462006cd0565b6202712155604051906200fb048262003e7f565b601a8252796469766964656e647320636f756e746572206f766572666c6f7760301b602083015262005a52565b906200f9f4565b506200fb31565b60405162461bcd60e51b8152602060048201526014602482015273496e76616c6964207061796d656e74207479706560601b6044820152606490fd5b6020810151602681101562003f7c57601b036201017e575091906202711e546200fba86200a4a76201620c565b62027121546202711f5411156200fbc96200fbc26201627a565b8262005a52565b6202712054906200fbdb838362006b9b565b50506200fbe7620162d0565b506000805b6127108210620100d2575b5050906200fc276200fc2d93926200fc1d6200fc126201620c565b612710861062005a52565b620018986201627a565b62006b9b565b90506200fc39620162d0565b5060009060005b61271081106200fffa575b50906127106200fc5c920462006d71565b90506200fc6d6202712a5462005c0d565b906000946000905b6127108210156200ffed578160031b9460ff6201389a87015416156200fdd35760009662013895870154156200fdc257600098975b62005ab957620138978701548910156200fda8576200fccf8962013897890162005d10565b600160a01b6001900391549060031b1c169788600052620138968801602052604098868a60002054906200fd039162006b9b565b9a906200fd0f620162d0565b6200fd1a9162005a52565b60009a620138958b01546200fd2f9162006b9b565b906200fd3a620162d0565b6200fd459162005a52565b826000526202711a6020528160002054906200fd619162006ce3565b9091600020556200fd71620162d0565b6200fd7c9162005a52565b6200fd88828962005af1565b526200fd949062005a85565b986200fda09062005a85565b98976200fcaa565b929095506200fdba9196975062005a85565b90946200fc75565b929095506200fdba91965062005a85565b95969392509350505b6200fde78262005c0d565b9160009160005b8281106200ff57575050506202711b54916200fe0f6200815f848462014cf2565b926000906000905b8082106200ff3a57505060005b8381106200fea45750508251929150506001600160401b03821162003e14576020906200fe518362005ded565b016202711b600052602060002060005b8381106200fe8657505050506200c1c79060006202712055600062027121556200fb31565b82516001600160a01b0316818301556020909201916001016200fe61565b6000805b8381106200fef2575b50156200feca575b6200fec49062005a85565b6200fe24565b906200fec4906200fee9906001600160a01b03620082e7858762005af1565b9190506200feb9565b6001600160a01b03806200ff07858862005af1565b5116906200ff16838a62005af1565b5116146200ff2f576200ff299062005a85565b6200fea8565b50506001386200feb1565b9091620082f56200ff5091620098cd8562005cf3565b906200fe17565b6000805b8581106200ffa5575b50156200ff7d575b6200ff779062005a85565b6200fdee565b926200ff77906200ff9c906001600160a01b03620082e7878662005af1565b9390506200ff6c565b6001600160a01b03806200ffba858762005af1565b5116906200ffc9838a62005af1565b5116146200ffe2576200ffdc9062005a85565b6200ff5b565b50506001386200ff64565b939495929150506200fddc565b90918160039695961b60ff6201389a8201541615620100c65762013895810154620138978201546000928391825b818410620100645750505050620076dc6201005b93620100536200189f979694620036389462006b9b565b929062006ad1565b9493946200fc40565b94929462005ab957620100bf85620100b76201008a6200189f9862013897870162005d10565b905460039190911b1c6001600160a01b031660009081526201389686016020526040812054909662006ce3565b979062006bbd565b9262010028565b5091909493946200fc4b565b8160039897981b60ff6201389a820154161562010174576201389581015490600062013897820154916000926000925b8184106201013f5750505050620076dc62010135936200a8d1846200fc276200355e6200a8dd966200189f9a9862006b9b565b909695966200fbec565b93929362005ab9576201016d84620101656201008a6200189f9762013897870162005d10565b969062006bbd565b9262010102565b509695966200fbf7565b6020810151602681101562003f7c57601c03620101db5760405162461bcd60e51b81526020600482015260296024820152600080516020620169898339815191526044820152683632b6b2b73a32b21760b91b6064820152608490fd5b6020810151602681101562003f7c57601d03620101ff575b506200c1c7906200fb31565b6020810151602681101562003f7c57601e14620101f3576020810151602681101562003f7c57601f03620102925760406201023d9101515162005aab565b51906202712354600160401b81101562003e14576001810180620271235581101562005ab957620271236000526200c1c7926201028b91600080516020620168a9833981519152016200648b565b90620101f3565b6020810151602681101562003f7c57602003620102b6575b506200c1c7906201028b565b6020810151602681101562003f7c57602114620102aa576020810151602681101562003f7c576022036201034157506200c1c79060ff1962027125541662027125556202712454600062027124558062010314575b505b90620102aa565b620271246000526201033a90600080516020620169298339815191529081019062005d29565b386201030b565b6020810151602681101562003f7c5760230362010365575b506200c1c7906201030d565b6020810151602681101562003f7c5760241462010359576020810151602681101562003f7c5760251462010359579290916020840151602681101562003f7c57601503620109b5576040840190620103c260c08351015162005aab565b5190620103d960a062007887818651015162005aab565b5193620103ee8351855114620018986201637f565b620104018351865114620018986201637f565b60005b835181101562010460576201041a818662005af1565b519061271082101562005ab957620138966201045a9260018060a01b038b511660005260031b016020526200189f60406000205462007de0838a62005af1565b62010404565b509095919560005b875181101562010596576201047e818662005af1565b5161271081101562005ab957620138969060018060a01b0386511660005260031b01602052620104b960406000205462007e4d838962005af1565b90620104c6838862005af1565b519161271083101562005ab95762013896620105009360018060a01b0389511660005260031b016020526040600020556200189862016483565b6201050c818662005af1565b5161271081101562005ab95762013896906001600160a01b0362010531848c62005af1565b511660005260031b016020526201055360406000205462006f21838962005af1565b919062010561828862005af1565b519061271082101562005ab9576201059093620138966200189f938d6200c5898760018060a01b039262005af1565b62010468565b5092620105ae919294506200c5c3909695966201610e565b9260405190620105be8262003e7f565b6001825260203681840137516001600160a01b0316620105de8262005aab565b526000945b8051861015620109a257620105f9868262005af1565b516101a0526201060a855162005c0d565b966000946201061a845162005c0d565b6103e05260009460005b8851811015620106ed578a89620106546001600160a01b0362010648858462005af1565b51166101a05162015f44565b1580620106a4575b62010675575b50506201066f9062005a85565b62010624565b98620106999162001f3582859c6200802e6201066f9760018060a01b039262005af1565b9790508a8962010662565b5050506127106101a051101562005ab9576001600160a01b03620106c9828b62005af1565b5116600052620138966101a05160031b016020528a8960406000205415156201065c565b50909895979498969291939660005b885181101562010793576127106101a051101562005ab9576001600160a01b0362010728828b62005af1565b5116600052620138966101a05160031b01602052604060002054156201075a575b620107549062005a85565b620106fc565b9962010754906201078a906001600160a01b03620107798e8d62005af1565b511662001f35826103e05162005af1565b9a905062010749565b509850969592919093966101a051612710811015806106a05262005ab95760031b62013897015498620107cb6200815f898c62014cf2565b6101205260006106e05260006102e0525b6106a05162005ab9576102e0518a811015620108a95762010813620108309160006106a052620138976101a05160031b0162005d10565b90546103e05160039290921b1c6001600160a01b03169062015f9d565b156201084f575b620108456102e05162005a85565b6102e052620107dc565b60006106a0526201086f6102e051620138976101a05160031b0162005d10565b60018060a01b0391549060031b1c16620108906106e0516101205162005af1565b526201089f6106e05162005a85565b6106e05262010837565b50979294959093985095909560005b82811062010956575050506106a05162005ab95761012051516001600160401b03811162003e1457620108f781620138976101a05160031b0162005e25565b60206101205101620138976101a05160031b01600052602060002060005b8381106201093857505050506201092c9062005a85565b949295909195620105e3565b82516001600160a01b03168183015560209092019160010162010915565b6201099c906001600160a01b036201096f828562005af1565b5116620109836106e0516101205162005af1565b52620109926106e05162005a85565b6106e05262005a85565b620108b8565b5050939092506200c1c791509062010359565b60405162461bcd60e51b8152602060048201526016602482015275496e76616c6964206f7065726174696f6e207479706560501b6044820152606490fd5b5091905062010a028162014179565b90600681101562003f7c576002810362010a315760405162461bcd60e51b81528062005a81600482016200774f565b6003810362010ae45750303b1562003dde57906040518092630e8af36360e31b82526044820160406004840152815180915260206064840192019060005b81811062010aca5750505062010a958291600094600319848303016024850152620054e0565b038183305af1801562010abe5762010aaa5750565b6001600160401b03811162003e1457604052565b6040513d6000823e3d90fd5b825184528694506020938401939092019160010162010a6f565b600591501462010af15750565b906000905b602083015180518310156200b0cf578262010b119162005af1565b516020810151602681101562003f7c57156200b08c576020810151602681101562003f7c5760010362010d59576040019062010b5260c08351015162005aab565b519362010b6960a062007887818651015162005aab565b519162010b7a86518551146201505a565b62010b898651845114620150c0565b60005b865181101562010ce05762010ba2818662005af1565b5161271081101562005ab957600160ff600762010bc89360031b01541615151462015122565b62010bd4818562005af1565b5162010be1828762005af1565b519061271082101562005ab957600662010c019260031b01549062006ce3565b9062010c0e838862005af1565b519161271083101562005ab957600662010c2d9360031b01556201517a565b62010c39818562005af1565b5162010c46828762005af1565b519061271082101562005ab95762010c87916003906001600160a01b0362010c6f868d62005af1565b5116600052811b016020526040600020549062006ce3565b919062010c95828862005af1565b519061271082101562005ab95762010cda936200189f926003906001600160a01b0362010cc3878f62005af1565b5116600052811b01602052604060002055620151d9565b62010b8c565b509491509162010cf462010cfb916201610e565b9162015ff2565b936040519262010d0b8462003e9b565b60008452600036813760005b835181101562010d3c57806200189f62007a4e62010d36938762005af1565b62010d17565b509450926020925062010d50915062005a85565b91905062010af6565b602081949293940151602681101562003f7c5760020362010ff15760400180519283519062010d9162007aae60a08097015162005aab565b5193825186510362010f9c57825184510362010f4657825185510362010eed5760005b865181101562010ed75762010dca818862005af1565b5161271081101562005ab95760ff600762010dec9260031b0154161562015232565b62010df8818862005af1565b5161271081101562005ab95760031b600701805460ff1916600117905562010e21818562005af1565b5162010e2e828962005af1565b519061271082101562005ab957600562010e4c9260031b016200648b565b62010e58818662005af1565b5162010e65828962005af1565b5161271081101562005ab95760031b6001015562010e84818762005af1565b5162010e91828962005af1565b5161271081101562005ab95760031b6002015562010eb0818862005af1565b519061271082101562005ab9576000600662010ed19360031b015562005a85565b62010db4565b5095915093506020925062010d50915062005a85565b60405162461bcd60e51b815260206004820152603c6024820152600080516020620168e983398151915260448201527b1b911a5d9a59195b9915d95a59da1d081a5cc81b9bdd08195c5d585b60221b6064820152608490fd5b60405162461bcd60e51b81526020600482015260396024820152600080516020620168e98339815191526044820152781b959bdd1a5b99d41bddd95c881a5cc81b9bdd08195c5d585b603a1b6064820152608490fd5b60405162461bcd60e51b81526020600482015260386024820152600080516020620168e98339815191526044820152771b925b99195e105c9c985e481a5cc81b9bdd08195c5d585b60421b6064820152608490fd5b92916020840151602681101562003f7c57600303620115f55760408401906201101f60c08351015162005aab565b51906201103660a062007887818651015162005aab565b51936201104b8351855114620018986201637f565b6201105e8351865114620018986201637f565b60005b8351811015620110ba5762011077818662005af1565b519061271082101562005ab9576003620110b49260018060a01b038b5116600052811b016020526200189f60406000205462007de0838a62005af1565b62011061565b509095919560005b8751811015620111e557620110d8818662005af1565b5161271081101562005ab95760039060018060a01b03865116600052811b016020526201111060406000205462007e4d838962005af1565b906201111d838862005af1565b519161271083101562005ab9576003620111549360018060a01b03895116600052811b016020526040600020556200189862016483565b62011160818662005af1565b5161271081101562005ab9576003906001600160a01b0362011183848c62005af1565b5116600052811b01602052620111a460406000205462006f21838962005af1565b9190620111b2828862005af1565b519061271082101562005ab957620111df9360036200189f938d62007f068760018060a01b039262005af1565b620110c2565b5092620111fd919294506200c5c3909695966201610e565b92604051906201120d8262003e7f565b6001825260203681840137516001600160a01b03166201122d8262005aab565b526000945b8051861015620115e15762011248868262005af1565b516103605262011259855162005c0d565b9660009462011269845162005c0d565b6106205260009460005b885181101562011339578a89620112a36001600160a01b0362011297858462005af1565b51166103605162015edb565b1580620112f3575b620112c4575b5050620112be9062005a85565b62011273565b98620112e89162001f3582859c6200802e620112be9760018060a01b039262005af1565b9790508a89620112b1565b50505061271061036051101562005ab9576001600160a01b0362011318828b62005af1565b5116600052600361036051811b016020528a896040600020541515620112ab565b50909895979498969291939660005b8851811015620113dc5761271061036051101562005ab9576001600160a01b0362011374828b62005af1565b5116600052600361036051811b0160205260406000205415620113a3575b6201139d9062005a85565b62011348565b996201139d90620113d3906001600160a01b03620113c28e8d62005af1565b511662001f35826106205162005af1565b9a905062011392565b5098509695929190939661036051612710811015806105a05262005ab95760031b6004015498620114126200815f898c62014cf2565b610700526000610520526000610680525b6105a05162005ab957610680518a811015620114ec5762011458620114759160006105a05260046103605160031b0162005d10565b90546106205160039290921b1c6001600160a01b03169062015f9d565b1562011494575b6201148a6106805162005a85565b6106805262011423565b60006105a052620114b26106805160046103605160031b0162005d10565b60018060a01b0391549060031b1c16620114d3610520516107005162005af1565b52620114e26105205162005a85565b610520526201147c565b50979294959093985095909560005b82811062011595575050506105a05162005ab95761070051516001600160401b03811162003e1457620115388160046103605160031b0162005e25565b6020610700510160046103605160031b01600052602060002060005b8381106201157757505050506201156b9062005a85565b94929590919562011232565b82516001600160a01b03168183015560209092019160010162011554565b620115db906001600160a01b03620115ae828562005af1565b5116620115c2610520516107005162005af1565b52620115d16105205162005a85565b6105205262005a85565b620114fb565b50509362010d509193506020925062005a85565b90926020810151602681101562003f7c576004036201189f576201162160c06040830151015162005aab565b51936201163660c06040840151015162005acf565b51906201165d60a06040620116518282880151015162005aab565b51950151015162005acf565b5193620116728751845114620018986201637f565b620116858751855114620018986201637f565b620116988751865114620018986201637f565b60005b87518110156201170157620116b1818662005af1565b519061271082101562005ab957620116fb916003906001600160a01b03620116da848d62005af1565b5116600052811b016020526200189f60406000205462007de0838a62005af1565b6201169b565b509095919593929360005b83518110156201185c5762011722818762005af1565b5161271081101562005ab9576003906001600160a01b0362011745848862005af1565b5116600052811b016020526201176660406000205462007e4d838862005af1565b9062011773838962005af1565b519161271083101562005ab957620117b7926003906001600160a01b036201179c878b62005af1565b5116600052811b016020526040600020556200189862016483565b620117c3818762005af1565b5161271081101562005ab9576003906001600160a01b03620117e6848c62005af1565b5116600052811b016020526201180760406000205462006f21838862005af1565b91905062011816818862005af1565b519161271083101562005ab95762011856926003906001600160a01b036201183f858e62005af1565b5116600052811b0160205260406000205562005a85565b6201170c565b50936201187691929693506200857062007f3e916201610e565b9260005b835181101562010d3c57806200189f62007a4e62011899938762005af1565b6201187a565b926020840151602681101562003f7c5760050362011a5d576040840190620118d160a0620085d9818551015162005aab565b519282518451036200d5565760005b83518110156201193957620118f6818562005af1565b519061271082101562005ab9576003620119339260018060a01b038a5116600052811b016020526200189f60406000205462007de0838962005af1565b620118e0565b509060005b8351811015620119dc5762011954818562005af1565b5161271081101562005ab95760039060018060a01b03895116600052811b016020526201198c60406000205462007e4d838862005af1565b91906201199a828762005af1565b519061271082101562005ab957620119d69360036200189f9360018060a01b038d5116600052811b016020526040600020556200189862016483565b6201193e565b5094925090620119ec906201610e565b9060405192620119fc8462003e7f565b6001845260203681860137516001600160a01b031662011a1c8462005aab565b526040519462011a2c8662003e9b565b60008652600036813760005b835181101562010d3c57806200189f62007a4e62011a57938762005af1565b62011a38565b926020810151602681101562003f7c5760060362011c155760400162011a8860c08251015162005aab565b519362011a9f60a0620085d9818551015162005aab565b519285518351036200db495785518451036200dafc5760005b865181101562011b1e5762011ace818562005af1565b519061271082101562005ab95762011b18916003906001600160a01b0362011af7848c62005af1565b5116600052811b016020526200189f60406000205462007de0838962005af1565b62011ab8565b509060005b865181101562011bbf5762011b39818562005af1565b5161271081101562005ab9576003906001600160a01b0362011b5c848b62005af1565b5116600052811b0160205262011b7d60406000205462007e4d838862005af1565b919062011b8b828762005af1565b519061271082101562005ab95762011bb9936200189f926003906001600160a01b036201179c878f62005af1565b62011b23565b50949162011bd491935062010cf4906201610e565b916040519462011be48662003e9b565b60008652600036813760005b835181101562010d3c57806200189f62007a4e62011c0f938762005af1565b62011bf0565b6020810151602681101562003f7c5760070362011d28576040019262011c4060c08551015162005aab565b519162011c5260a08651015162005aab565b519451519162011c6a8451875114620018986201637f565b60005b845181101562010d3c5762011d22906200189f6001600160a01b038062011c95848a62005af1565b51166000528660028b62011d1262011cd58762011ccd8162013880978860205262008ae360ff60406000205416156200189862016450565b519362005af1565b519162008b478d6040519662011ceb8862003df8565b60018852886200dc978c60208b01946000865260408c0197885260608c01998a5262005af1565b5191015562008b62838962005af1565b62011c6d565b6020819493940151602681101562003f7c5760080362011dc05760c0604062011d55920151015162005aab565b519160005b835181101562011dae5762011da8906001600160a01b038062011d7e838862005af1565b51166000526201388090816020526200ddb7600160ff6040600020541615151462001898620163af565b62011d5a565b5092602091925062010d509062005a85565b6020810151602681101562003f7c5760090362011e435760c0604062011dea920151015162005aab565b519160005b835181101562011dae5762011e3d906001600160a01b038062011e13838862005af1565b51166000526201388090816020526200dea6600160ff6040600020541615151462001898620163af565b62011def565b6020810151602681101562003f7c57600a0362011ef2576040019062011e7460a06200df3a60c08551015162005aab565b519262011e898351855114620018986201637f565b60005b835181101562011edf5762011ed9906001600160a01b038062011eb0838862005af1565b511660005262013880806020526200dfaa600160ff6040600020541615151462001898620163af565b62011e8c565b509362010d509193506020925062005a85565b602081949392940151602681101562003f7c57600b0362011fa6576040019262011f2160c08551015162005aab565b519351519162011f398551845114620018986201637f565b60005b855181101562011f935762011f8d906200189f6001600160a01b038062011f64848b62005af1565b511660005262013880806020526200e08d600160ff6040600020541615151462001898620163af565b62011f3c565b509350916020915062010d509062005a85565b9091926020820151602681101562003f7c57600c03620120dc576060604083015101519260005b845181101562011edf5760e062011fed8260606040880151015162005af1565b510151156201206c576201200e62008f508260606040880151015162005af1565b62013882548060001981011162005a95576201203060059160001901620069d6565b5001805461ff0019166101001790556201388254906000198201821062005a9557600562008fa5620120669360001901620069d6565b62011fcd565b6201208462008fcf8260606040880151015162005af1565b62013882548060001981011162005a9557620120a66005916000190162006994565b5001805461ff0019166101001790556201388254906000198201821062005a9557600562008fa562012066936000190162006994565b9291906020810151602681101562003f7c57600d03620121f0576040019260206201210c60a08651015162005aab565b51945101519162012121855184511462014d99565b60005b855181101562011f9357806201213f62012198928662005af1565b51156201219e5762012156620090c8828962005af1565b6201216e60ff60056200e2bd620090ea858c62005af1565b6201218660ff600562009103620090ea858c62005af1565b60056200911f620090ea838a62005af1565b62012124565b620121ae62009157828962005af1565b620121c660ff60056200e2bd62009179858c62005af1565b620121de60ff60056200910362009179858c62005af1565b60056200911f62009179838a62005af1565b6020819492940151602681101562003f7c57600e03620122b7576040019060206201222060a08451015162005aab565b51925101519362012235835186511462014d99565b60005b835181101562011f935780620122536201225f928862005af1565b51620122655762005a85565b62012238565b6201227562009215828762005af1565b6201228d60ff60056200e3fc620090ea858a62005af1565b620122a560ff60056200925d620090ea858a62005af1565b600562008fa5620090ea838862005af1565b906020829493940151602681101562003f7c57600f03620123ee576060604083015101519260005b845181101562011edf5760e0620122ff8260606040880151015162005af1565b510151156201237e576201232062008f508260606040880151015162005af1565b62013882548060001981011162005a95576201234260059160001901620069d6565b5001805461ff0019166101001790556201388254906000198201821062005a955760056200911f620123789360001901620069d6565b620122df565b6201239662008fcf8260606040880151015162005af1565b62013882548060001981011162005a9557620123b86005916000190162006994565b5001805461ff0019166101001790556201388254906000198201821062005a955760056200911f62012378936000190162006994565b906020819493940151602681101562003f7c576010036201245f5760400151906201242260a0608084015193015162005aab565b5193620124378351865114620018986201637f565b60005b835181101562011f9357806200189f620093ff62012459938762005af1565b6201243a565b6020819492940151602681101562003f7c57601103620126c457604001906201249360a06200df3a60c08551015162005aab565b5193620124a4835186511462014ca6565b60005b83518110156201251f5762012519906200189f6001600160a01b0380620124cf848962005af1565b51166000526201388580602052620124f260406000205462006f21868d62005af1565b91909262012501868b62005af1565b51166000526020526040600020556200189862016335565b620124a7565b509350906201252e9062015ff2565b90620138865493620125466200815f84518762014cf2565b9060009260005b878110620126a9575060005b855181101562012600576000805b898110620125b1575b501562012589575b620125839062005a85565b62012559565b936201258390620125a8906001600160a01b036200e863888a62005af1565b94905062012578565b620125bc8162005c62565b90546001600160a01b0360039290921b1c811690620125dc858b62005af1565b511614620125f557620125ef9062005a85565b62012567565b505060013862012570565b509550939250620126118262005c0d565b8051906001600160401b03821162003e1457602090620126318362005d7e565b0162013886600052602060002060005b8381106201268b575050505060005b828110620126685750505062010d5060209162005a85565b62012685906200189f6001600160a01b0362001e63838662005af1565b62012650565b82516001600160a01b03168183015560209092019160010162012641565b936200e9b0620126be916200e9928762005c62565b6201254d565b6020819492940151602681101562003f7c576012036201290d5760400190620126f860a06200df3a60c08551015162005aab565b519362012709835186511462014ca6565b60005b83518110156201275d5762012757906200189f6001600160a01b038062012734848962005af1565b51166000526201388580602052620124f260406000205462007e4d868d62005af1565b6201270c565b50935091906201276d9062015ff2565b62013886546201277d8162005c0d565b906000926000915b80831062012833575050506201279b8262005c0d565b8051906001600160401b03821162003e1457602090620127bb8362005d7e565b0162013886600052602060002060005b83811062012815575050505060005b828110620127f25750505062010d5060209162005a85565b6201280f906200189f6001600160a01b0362001e63838662005af1565b620127da565b82516001600160a01b031681830155602090920191600101620127cb565b91956000959193959760005b8551811015620128fe57620128548962005c62565b90546001600160a01b0360039290921b1c81169062012874838962005af1565b5116146201288d57620128879062005a85565b6201283f565b509750956001959391955b80620128cc575b15620128b757620128b09062005a85565b9162012785565b936200e9b0620128b0916200e9928762005c62565b50620128d88162005c62565b60018060a01b0391549060031b1c1660005262013885602052604060002054156201289f565b50979690969593919562012898565b6020810151602681101562003f7c57601303620129665760408091015101519260005b84518110156201295557806200189f620099786201294f938862005af1565b62012930565b5092509062010d5060209162005a85565b6020810151602681101562003f7c5760140362012b1357604001906201299160c08351015162005aab565b5193620129a860a062007887818651015162005aab565b5191620129b986518551146201505a565b620129c88651845114620150c0565b60005b865181101562012abe57620129e1818562005af1565b51620129ee828762005af1565b519061271082101562005ab957600662012a0e9260031b01549062006ce3565b9062012a1b838862005af1565b519161271083101562005ab957600662012a3a9360031b01556201517a565b62012a46818562005af1565b5162012a53828762005af1565b519061271082101562005ab95762012a7c916003906001600160a01b0362010c6f868d62005af1565b919062012a8a828862005af1565b519061271082101562005ab95762012ab8936200189f926003906001600160a01b0362010cc3878f62005af1565b620129cb565b509491509162010cf462012ad2916201610e565b936040519262012ae28462003e9b565b60008452600036813760005b835181101562010d3c57806200189f62007a4e62012b0d938762005af1565b62012aee565b6020810151602681101562003f7c5760150362012b3d57602091926200189f62010d50926201527e565b6020810151602681101562003f7c5760160362012b995760c0604062012b67920151015162005aab565b519260005b8451811015620129555762012b93906200189f6001600160a01b036200a110838962005af1565b62012b6c565b6020810151602681101562003f7c5760170362012bf65760405162461bcd60e51b81526020600482015260296024820152600080516020620169698339815191526044820152683632b6b2b73a32b21760b91b6064820152608490fd5b6020810151602681101562003f7c5760180362012c635760c0604062012c20920151015162005aab565b5192600160ff1962013892541617620138925560005b8451811015620129555762012c5d906200189f6001600160a01b036200a1dd838962005af1565b62012c36565b6020819392930151602681101562003f7c5760190362012d4b5760008080604080940160a08082510151805162012d12575b5050519060e08201519162012cb962006f1a60c060018060a01b0393015162005aab565b511690602083519301915af1903d1562012d09573d9162012cda8362004098565b9262012ce98351948562003eb7565b83523d6000602085013e5b156200a29257505062010d5060209162005a85565b60609162012cf4565b62012d1d9062005aab565b515162012d2c575b8062012c95565b81925062006f1a9062012d429251015162005aab565b51903862012d25565b6020810151602681101562003f7c57601a0362012e455762012d7660a0604080930151015162005aab565b5162012d86600382511462014ca6565b62012d918162005aab565b519162012daa62012da28362005acf565b519262005ae0565b519162012e0b57509162010d50916001602094146000146200a4315762012dda62012de9916201388d5462006ce3565b6201388d5562001898620162d0565b6200189f62012dfc6201388e5462006cd0565b6201388e55620018986201630a565b5162461bcd60e51b8152602060048201526014602482015273496e76616c6964207061796d656e74207479706560601b6044820152606490fd5b6020810151602681101562003f7c57601b036201327d5750919062012e766201388b54620035a86200a4a76201620c565b505062012e82620162d0565b506000805b612710811062013231575b505062012e9e62006cf5565b62012ead6202712a5462005c0d565b906000946000905b61271082101562013224578160031b9460ff60078701541615620130085760009660028701541562012ff757600098975b62005ab957600487015489101562012fdd5762012f07896004890162005d10565b9054600391821b1c6001600160a01b031660008181529189016020526040918290205491999162012f3a90889062006b9b565b9a9062012f46620162d0565b62012f519162005a52565b60009a60028b015462012f649162006b9b565b9062012f6f620162d0565b62012f7a9162005a52565b826000526201388760205281600020549062012f969162006ce3565b90916000205562012fa6620162d0565b62012fb19162005a52565b62012fbd828962005af1565b5262012fc99062005a85565b9862012fd59062005a85565b989762012ee6565b9290955062012fef9196975062005a85565b909462012eb5565b9290955062012fef91965062005a85565b95969392509350505b6201301c8262005c0d565b9160009160005b8281106201318e57505050620138885491620130446200815f848462014cf2565b926000906000905b8082106201317157505060005b838110620130db5750508251929150506001600160401b03821162003e1457602090620130868362005d42565b0162013888600052602060002060005b838110620130bd575050505062010d5060209160006201388d5560006201388e5562005a85565b82516001600160a01b03168183015560209092019160010162013096565b6000805b83811062013129575b501562013101575b620130fb9062005a85565b62013059565b90620130fb9062013120906001600160a01b03620082e7858762005af1565b919050620130f0565b6001600160a01b03806201313e858862005af1565b5116906201314d838a62005af1565b5116146201316657620131609062005a85565b620130df565b5050600138620130e8565b9091620082f56201318791620098cd8562005c45565b906201304c565b6000805b858110620131dc575b5015620131b4575b620131ae9062005a85565b62013023565b92620131ae90620131d3906001600160a01b03620082e7878662005af1565b939050620131a3565b6001600160a01b0380620131f1858762005af1565b51169062013200838a62005af1565b5116146201321957620132139062005a85565b62013192565b50506001386201319b565b9394959291505062013011565b8060039594951b9060ff6007830154161562013273576200a8dd620076dc6200189f946200a8d16201326a9560026200a8c78762006b3e565b93929362012e87565b5093929362012e92565b6020810151602681101562003f7c57601c03620132da5760405162461bcd60e51b81526020600482015260296024820152600080516020620169898339815191526044820152683632b6b2b73a32b21760b91b6064820152608490fd5b6020810151602681101562003f7c57601d0362013300575b5062010d5060209162005a85565b6020810151602681101562003f7c57601e14620132f2576020810151602681101562003f7c57601f036201335157602091620133496200a9ba604062010d509401515162005aab565b9150620132f2565b6020810151602681101562003f7c5760200362013377575b5062010d5060209162013349565b6020810151602681101562003f7c5760211462013369576020810151602681101562003f7c57602203620133cd575062010d5060209160ff196201389254166201389255620133c562005e11565b915062013369565b6020810151602681101562003f7c57602303620133f3575b5062010d50602091620133c5565b6020810151602681101562003f7c57602414620133e5576020810151602681101562003f7c57602514620133e5576020810151602681101562003f7c57601503620109b5576020916201344a62010d50926201527e565b9150620133e5565b82516001600160a01b0316818301556020909201916001016200bb19565b82516001600160a01b0316818301556020909201916001016200b9c4565b600191820180546001600160a01b03909216848601559390910192906200b90c565b62027124600052620134d8906000805160206201692983398151915290810190830162005d29565b386200b8cc565b60018082620134f08294866201392e565b019201920191906200b88b565b62027123600052600080516020620168a9833981519152908282015b81830181106201352b5750506200b84f565b8062013539600192620060f7565b0162013519565b600191820180546001600160a01b03909216848601559390910192906200b81d565b620271226000526201358a906000805160206201688983398151915290810190830162005d29565b386200b7dd565b82516001600160a01b0316818301556020909201916001016200b69f565b620135cb906202711d6000528484600020918201910162005d29565b386200b68e565b82516001600160a01b0316818301556020909201916001016200b4af565b6201360c90620271146000528484600020918201910162005d29565b386200b49e565b80620136359160031b600160ff6007830154161515146201363b575062005a85565b6200b3ee565b6201364f6004820162013897830162013ac7565b6201389a8101600160ff1982541617905580548162013893015560018101546201389482015560028101546201389582015562013695600582016201389883016201392e565b620138996006820154910155386200a431565b6006602082620136bc6001945186620065a1565b019201920191906200b1db565b600681810204810362005a9557600683810204830362005a9557620271156000527f0f9b10e190177c3c56fc6ce7689c8130c567df57aa02c08e7a090a59992adf926006840281015b8260060282018110620137275750506200b1c7565b8060006006925560006001820155620137436002820162006265565b600060038201556201375860048201620060f7565b600060058201550162013712565b60066020826201377a6001945186620065a1565b019201920191906200b14b565b8060060290600682040362005a95578260060260068104840362005a95576000906202711682526020822092830192015b828110620137c85750506200b137565b808260069255826001820155620137e26002820162006265565b826003820155620137f660048201620060f7565b82600582015501620137b8565b608460405162461bcd60e51b815260206004820152604060248201526000805160206201694983398151915260448201527f656d2073686f756c64206e6f742072657475726e20766f7465206e65656465646064820152fd5b60405162461bcd60e51b815260206004820152604760248201526000805160206201694983398151915260448201527f656d2073686f756c64206e6f742072657475726e206120766f74696e672072756064820152661b19481b1a5cdd60ca1b608482015260a490fd5b8181146201392a578154916001600160401b03831162003e1457620138ec838362005e25565b60005260206000209060005260206000208154916000925b84841062013913575050505050565b600180919201938454928185015501929062013904565b5050565b908082146201392a5762013943815462005129565b906001600160401b03821162003e145781906201396d8262013966865462005129565b8662006441565b600090601f8311600114620139a6576000926201399a5750508160011b916000199060031b1c1916179055565b015490503880620064d4565b81526020808220858352818320935090601f1985169083905b828210620139fb575050908460019594939210620139e157505050811b019055565b015460001960f88460031b161c1916905538808062006521565b8495819295850154815560018091019601940190620139bf565b8181146201392a5781549162013a2c838362006188565b6000526020600020906000526020600020906000905b83821062013a505750505050565b8062013a5f600192856201392e565b92810192918101910162013a42565b8181146201392a5781549162013a85838362006216565b6000526020600020906000526020600020906000905b83821062013aa95750505050565b8062013ab860019285620138c6565b92810192918101910162013a9b565b8181146201392a578154916001600160401b03831162003e145762013aed838362005e25565b60005260206000209060005260206000208154916000925b84841062013b14575050505050565b600191820180546001600160a01b039092168486015593909101929062013b05565b8181146201392a5781549162013b4d838362006216565b6000526020600020906000526020600020906000905b83821062013b715750505050565b8062013b806001928562013ac7565b92810192918101910162013b63565b8181146201392a5781549162013ba683836200630c565b6000526020600020906000526020600020906000905b83821062013bca5750505050565b80600191840362013be7575b600780910193019101909162013bbc565b8054845562013c268280860190830160ff9062013c088282541684620063e4565b62013c1a82825460081c1684620063fe565b5460101c16906200641f565b62013c386002808301908601620138c6565b600380850190820180820362013c51575b505062013bd6565b62013c5c9162013a15565b62013c6e600480830190860162013a6e565b62013c80600580830190860162013b36565b62013c9260068083019086016201392e565b388062013c49565b919062006a4f5780820362013cad575050565b60ff600580620052aa9462013cc68486541682620063cb565b6001850154600182015562013ce2600286016002830162013b8f565b6003850154600382015562013cfe60048601600483016201392e565b01920162013d1082825416846200655e565b62013d2282825460081c16846200656f565b5460101c169062006587565b908082146201392a57908154906000915b6064831062013d4e5750505050565b600180919401928354948184015501919262013d3f565b906201388254602060009301908151519062013d818262003edb565b9162013d91604051938462003eb7565b80835262013da2601f199162003edb565b0136602084013762013db78351518262006b9b565b9015620141215762013dc99062005c0d565b90859284515115620141185762013de08262005c0d565b965b85515181101562013f615760008080805b86811062013e785750905062013e158162013e0f858762005af1565b6200534e565b600681101562003f7c5760031462013e3a575b5062013e349062005a85565b62013de2565b6000905b80821062013e4d575062013e28565b9095620098eb62013e719162013e64898d62005af1565b5162001f35828a62005af1565b9062013e3e565b62013e918162013e8a878d5162005af1565b516201453a565b9390948083118062013f4d575b1562013f0457505091838562013efa575b600681101562003f7c5760038e911462013eda575b505062013ed19062005a85565b91909162013df3565b9462013ef19162001f358262013ed1959862005af1565b93908c62013ec4565b6000955062013eaf565b809492959195148062013f39575b1562013ec457600681101562003f7c5760038e911462013eda57505062013ed19062005a85565b50600681101562003f7c5780151562013f12565b50600686101562003f7c5785151562013e9e565b5093505090929350600093845b8351861015620140b35762013f8e62013f88878662005af1565b620063bd565b9060068083101562003f7c57600292830362013fb957505062013fb2909562005a85565b9462013f6e565b62013fc962013f88898862005af1565b928184101562003f7c576001809414806201409f575b1562013ff45750505062013fb2909562005a85565b6201400962013f888a899b9694959b62005af1565b928084101562003f7c576004809414928362014073575b508262014048575b50506201403c575b5062013fb29062005a85565b955062013fb262014030565b9091508810156201405e57871415388062014028565b602182634e487b7160e01b6000525260246000fd5b908093508a10156201408a57891415913862014020565b602184634e487b7160e01b6000525260246000fd5b508183101562003f7c578083141562013fdf565b925092909350600682101562003f7c57600382036201410f575b620140d88162005c0d565b9360005b828110620140eb575050509190565b80620140fc62014109928462005af1565b5162001f35828962005af1565b620140dc565b506000620140cd565b50909392505050565b60405162461bcd60e51b815260206004820152602a60248201527f546865206c656e677468206f6620766f74696e672072756c65206c697374206960448201526973206f766572666c6f7760b01b6064820152608490fd5b9062013883546020600093019081515190620141958262003edb565b91620141a5604051938462003eb7565b808352620141b6601f199162003edb565b01366020840137620141cb8351518262006b9b565b90156201412157620141dd9062005c0d565b908592845151156201411857620141f48262005c0d565b965b855151811015620143625760008080805b8681106201427957509050620142238162013e0f858762005af1565b600681101562003f7c5760031462014248575b50620142429062005a85565b620141f6565b6000905b8082106201425b575062014236565b9095620098eb620142729162013e64898d62005af1565b906201424c565b62014292816201428b878d5162005af1565b51620145d6565b939094808311806201434e575b1562014305575050918385620142fb575b600681101562003f7c5760038e9114620142db575b5050620142d29062005a85565b91909162014207565b94620142f29162001f3582620142d2959862005af1565b93908c620142c5565b60009550620142b0565b80949295919514806201433a575b15620142c557600681101562003f7c5760038e9114620142db575050620142d29062005a85565b50600681101562003f7c5780151562014313565b50600686101562003f7c578515156201429f565b5093505090929350600093845b835186101562014484576201438962013f88878662005af1565b9060068083101562003f7c576002928303620143b4575050620143ad909562005a85565b946201436f565b620143c462013f88898862005af1565b928184101562003f7c5760038094148062014470575b15620143ef57505050620143ad909562005a85565b6201440462013f888a899b9694959b62005af1565b928084101562003f7c576005809414928362014459575b508262014443575b505062014437575b50620143ad9062005a85565b9550620143ad6201442b565b90915088101562003f7c57871415388062014423565b908093508a101562003f7c5789141591386201441b565b508183101562003f7c5780831415620143da565b925092909350600682101562003f7c5760038203620144d3575b620144a98162005c0d565b9360005b828110620144bc575050509190565b80620140fc620144cd928462005af1565b620144ad565b5060006201449e565b15620144e457565b60405162461bcd60e51b815260206004820152602860248201527f506c7567696e466163746f72793a20706c7567696e20696e646578206f7574206044820152676f662072616e676560c01b6064820152608490fd5b90916000809381936201455362013882548310620144dc565b60ff60056201456284620069d6565b50015460081c1615620145ca5782826201457e92600162014763565b6201458a575b50929190565b80945060019293506201459e9150620069d6565b500154906003620145bf60ff620145b586620069d6565b50541694620069d6565b500154913862014584565b50509150915080918190565b9091600080938193620145ef62013883548310620144dc565b60ff6005620145fe8462006994565b50015460081c1615620145ca57828262014619928262014763565b620146245750929190565b809450600192935062014638915062006994565b500154906003620145bf60ff6201464f8662006994565b5054169462006994565b156201466157565b60405162461bcd60e51b815260206004820152603160248201527f436865636b696e6720636f6e646974696f6e206578703a20706c7567696e20696044820152706e646578206f7574206f662072616e676560781b6064820152608490fd5b15620146c857565b60405162461bcd60e51b815260206004820152602f60248201527f436865636b696e6720636f6e646974696f6e206578703a206e6f646520696e6460448201526e6578206f7574206f662072616e676560881b6064820152608490fd5b62013884805482101562005ab9576000526007602060002091020190600090565b805482101562005ab9576000526007602060002091020190600090565b90929190801562014ad2576201477f6201388254831062014659565b6201479b60026201479084620069d6565b5001548410620146c0565b801562014ab457620147cb6001620147c2856002620147ba87620069d6565b500162014746565b50015460ff1690565b620147d68162004dc4565b80620147e6575050505050600090565b620147f18162004dc4565b6003810362014804575050505050600190565b6201480f8162004dc4565b6004810362014822575050505050600090565b6201482d8162004dc4565b60019080820362014846575050926200553f9362014afa565b909293620148548262004dc4565b60028092146201486a575b505050505050600090565b821562014a97576201489384620148878385620147ba8a620069d6565b50015460081c60ff1690565b925b60009586865b62014a25575b50620148ad8762005c0d565b9760005b888110620149c8575050505050620148c98262003f71565b8183036201492857505091906000915b818310620148e75750505090565b9091928062014905575b620148fd909362005a85565b9190620148d9565b50620148fd620149206201491a858462005af1565b51151590565b9050620148f1565b909150620149368262003f71565b81036201498f57509060009182915b818310620149535750505090565b909192801562014972575b6201496a909362005a85565b919062014945565b506201496a620149876201491a858462005af1565b90506201495e565b600391506201499e8162003f71565b14620149b157503880808080806201485f565b620149c46201491a6200553f9262005aab565b1590565b808a62014a04620149fb620149f1848b620149e98c82620147ba8d62006994565b500162005d10565b90549060031b1c90565b86868962014763565b62014a1862014a1f946200189f9362005af1565b9015159052565b620148b1565b8462014a378582620147ba8662006994565b50015481101562014a915762014a5d620149f18287620149e98882620147ba8962006994565b62014a76575b62014a6f879162005a85565b906201489b565b9662014a6f62014a87889262005a85565b9891505062014a63565b620148a1565b62014aad84620148878385620147ba8a62006994565b9262014895565b62014acc6001620147c2856002620147ba8762006994565b620147cb565b62014ae36201388354831062014659565b62014af46002620147908462006994565b6201479b565b909291600362014b4c918360001462014bd45760ff600162014b23876002620147ba86620069d6565b50015460101c16945b841562014bc3576002620147ba62014b4493620069d6565b50016200547e565b91603d81101562003f7c57602c810362014b9357505062014b7662006f1a60208093015162005aab565b51910151602681101562003f7c5762014b8f906201651b565b1490565b9092906001810362014ba85750505050600090565b60031462014bb857505050600090565b6200553f9262014c44565b6002620147ba62014b449362006994565b60ff600162014bea876002620147ba8662006994565b50015460101c169462014b2c565b1562014c0057565b606460405162461bcd60e51b815260206004820152602060248201527f4f70657261746f722061646472657373206973206e6f742070726f76696465646044820152fd5b9190604062006f1a920162014c5e60018251511462014bf8565b62014c79600162014c70835162005aab565b51511462014bf8565b516001600160a01b0392839162014c91919062005aab565b5116921562014ca05751161490565b51161490565b1562014cae57565b60405162461bcd60e51b815260206004820152601c60248201527b496e76616c6964206e756d626572206f6620706172616d657465727360201b6044820152606490fd5b9190820180921162005a9557565b62014d0b8162004dc4565b62014d196200e667620164b2565b62014d248162004dc4565b6001810362014d43575062014d3c6200e693620164b2565b6201388b55565b62014d4e8162004dc4565b6002810362014d5f57506201388c55565b62014d6a8162004dc4565b6003810362014d7b57506201388d55565b8062014d8960049262004dc4565b1462014d925750565b6201388e55565b1562014da157565b60405162461bcd60e51b815260206004820152604d60248201527f546865206c656e677468206f662074686520706c7567696e20696e646578657360448201527f20617272617920616e642074686520626f6f6c65616e206172726179206d757360648201526c74206265207468652073616d6560981b608482015260a490fd5b1562014e2a57565b60405162461bcd60e51b815260206004820152602260248201527f496e76616c696420706c7567696e20696e64657820746f20626520656e61626c604482015261195960f21b6064820152608490fd5b1562014e8257565b60405162461bcd60e51b815260206004820152602b60248201527f54686520706c7567696e20746f20626520656e61626c6564206973206e6f742060448201526a1a5b9a5d1a585b1a5e995960aa1b6064820152608490fd5b1562014ee357565b60405162461bcd60e51b815260206004820152602b60248201527f54686520706c7567696e20746f20626520656e61626c656420697320616c726560448201526a18591e48195b98589b195960aa1b6064820152608490fd5b1562014f4457565b60405162461bcd60e51b815260206004820152602360248201527f496e76616c696420706c7567696e20696e64657820746f2062652064697361626044820152621b195960ea1b6064820152608490fd5b1562014f9d57565b60405162461bcd60e51b815260206004820152602c60248201527f54686520706c7567696e20746f2062652064697361626c6564206973206e6f7460448201526b081a5b9a5d1a585b1a5e995960a21b6064820152608490fd5b1562014fff57565b60405162461bcd60e51b815260206004820152602d60248201527f54686520706c7567696e20746f2062652064697361626c656420697320616c7260448201526c1958591e48191a5cd8589b1959609a1b6064820152608490fd5b156201506257565b60405162461bcd60e51b815260206004820152603060248201527f546865206c656e677468206f662074617267657420616e6420746f6b656e436c60448201526f185cdcc81a5cc81b9bdd08195c5d585b60821b6064820152608490fd5b15620150c857565b60405162461bcd60e51b815260206004820152602c60248201527f546865206c656e677468206f662074617267657420616e6420616d6f756e742060448201526b1a5cc81b9bdd08195c5d585b60a21b6064820152608490fd5b156201512a57565b60405162461bcd60e51b815260206004820152602260248201527f54686520746f6b656e20636c617373206973206e6f7420696e697469616c697a604482015261195960f21b6064820152608490fd5b156201518257565b60405162461bcd60e51b815260206004820152602960248201527f54686520746f74616c20737570706c79206f662074686520746f6b656e206973604482015268206f766572666c6f7760b81b6064820152608490fd5b15620151e157565b60405162461bcd60e51b8152602060048201526024808201527f5468652062616c616e6365206f662074686520746f6b656e206973206f766572604482015263666c6f7760e01b6064820152608490fd5b156201523a57565b606460405162461bcd60e51b815260206004820152602060248201527f54686520746f6b656e20697320616c726561647920696e697469616c697a65646044820152fd5b60408101906201529360c08351015162005aab565b5191620152b560a0620152aa818451015162005aab565b519251015162005acf565b5193620152ca8451835114620018986201637f565b620152dd8451865114620018986201637f565b60005b84518110156201533a57620152f6818462005af1565b519061271082101562005ab957620153349160018060a01b03865116600052600390811b016020526200189f60406000205462007de0838a62005af1565b620152e0565b5092919360005b8351811015620154655762015357818462005af1565b5190612710918281101562005ab95760018060a01b03908189511660005260039081602091811b0181526201539760406000205462007e4d868962005af1565b90620153a4868a62005af1565b51918783101562005ab95784620153d193878f5116600052811b0184526040600020556200189862016483565b620153dd848862005af1565b518581101562005ab957829084620153f6878c62005af1565b5116600052811b0181526201541660406000205462006f21868962005af1565b91909262015425868a62005af1565b519687101562005ab9576201545f966200189f9562015445888d62005af1565b5116600052811b01905260406000205562001898620164e8565b62015341565b505062010cf462015476916201610e565b9060405193620154868562003e7f565b60018552602036818701376001600160a01b03610960819052905116620154ad8562005aab565b526000935b8151851015620157d057620154c8858362005af1565b5194620154d6845162005c0d565b91600093620154e6825162005c0d565b610920528496855b87518110156201558f5762015515610960516201550c838b62005af1565b51168b62015edb565b158062015557575b62015534575b6201552e9062005a85565b620154ee565b956201554e6201552e91610960516200a7568a8c62005af1565b96905062015523565b506127108a101562005ab9576109605162015573828a62005af1565b511660005260038a811b0160205260406000205415156201551d565b509793929096949195976000986127108610159560031b9860038a019a5b895181101562015629578762005ab95761096051620155cd828c62005af1565b51166000528b60205260406000205415620155f4575b620155ee9062005a85565b620155ad565b9762015620620155ee918b6201560f8c610960519262005af1565b511662001f35826109205162005af1565b989050620155e3565b50949591939650985096909596806109805262005ab957600401806109005254956201565a6200815f868962014cf2565b61094052600097886108e0525b6109805162005ab9576108e05188811015620157055762015696620156ac916000610980526109005162005d10565b6109605191549060031b1c166109205162015f9d565b15620156cb575b620156c16108e05162005a85565b6108e05262015667565b97620156fe90620156e36108e0516109005162005d10565b6109605191549060031b1c1662001f35826109405162005af1565b97620156b3565b5095939096509690969391936000915b8383106201579f57505050506109805162005ab95761094051516001600160401b03811162003e14576201574d816109005162005e25565b60206109405101610900516000526020600020600061096051905b84811062015788575050505050620157809062005a85565b9392620154b2565b600190602083865116950194818501550162015768565b620082f5620157c99161096051620157b8868662005af1565b511662001f35826109405162005af1565b9162015715565b5050509050565b815180519192916001600160401b03811162003e1457620157f9818562005e25565b6020809201846000528260002060005b83811062015870575050505060c082600692620052aa95940151600185015560408101516002850155606081015160038501556201585160808201511515600486016200655e565b6201586460a0820151600586016200648b565b0151151591016200655e565b8251828201559184019160010162015809565b620138848054600160401b81101562003e1457620158a79160018201905562014725565b91909162006a4f57620052aa91620157d7565b62013890908154600160401b81101562003e14576001810180845581101562005ab957620052aa926000526020600020016200648b565b9080620158fc575050565b620052aa91600052601f6020600020910160051c81019062005d29565b90600160401b811162003e145781548183558082106201593857505050565b620052aa92600052601f6020600020918180850160051c840194168062015967575b500160051c019062005d29565b600019908186019182549160200360031b1c169055386201595a565b9060031b60ff811b9283911b169119161790565b600092620159b1620159aa859462014725565b50620052c7565b9380935b85515185101562015a9f575061271084101562005ab95760039380851b9460018060a01b03851660005260209086018152620159fe604096600188600020549101549062006b9b565b9384911562015a6a579062015a139162006ce3565b96901562015a3057505062015a289062005a85565b9390620159b5565b60649250519062461bcd60e51b825260048201526014602482015273746f74616c20706f776572206f766572666c6f7760601b6044820152fd5b875162461bcd60e51b815260048101849052600e60248201526d706f776572206f766572666c6f7760901b6044820152606490fd5b93505092505090565b1562015ab057565b60405162461bcd60e51b815260206004820152601360248201527263757272656e74596573206f766572666c6f7760681b6044820152606490fd5b600162015af88262014725565b5001546202712e546000928184526202712b908160205262015b21816004604088200162005d10565b90549060031b1c918386528060205262015b42826005604089200162005d10565b90549060031b1c93865260205260ff600662015b7662015b68848360408b200162005d10565b90549060031b1c9362014725565b5001541662015bc4575062015bb4926200044f62015ba6938362015b9e62015bac9562006b65565b969062015aa8565b62014cf2565b929062015aa8565b111562015bbe5790565b50600190565b6200fc27925062015bb49362015bde62015bac9362006b65565b949062015aa8565b9092919262015bf6825162005c0d565b60009162015c05815162005c0d565b8390845b865181101562015ca0576001600160a01b0362015c2c816201550c848b62005af1565b158062015c6b575b62015c4c575b5062015c469062005a85565b62015c09565b819662015c6391620082e762015c46948b62005af1565b959062015c3a565b506127108a101562005ab9578062015c84838a62005af1565b511660005260038a811b01602052604060002054151562015c34565b509295919694509260005b875181101562015d215761271086101562005ab9576001600160a01b038062015cd5838b62005af1565b5116600052600387811b016020526040600020541562015d02575b5062015cfc9062005a85565b62015cab565b819562015d19916200e86362015cfc948c62005af1565b949062015cf0565b509250945092612710831015938462005ab95760049586600395861b019687549462015d526200815f828862014cf2565b9460009689889a5b62015ec657818b101562015dfb57506000998b62015d9562015d7d838362005d10565b90546001600160a01b0392918e1b1c82168a62015f9d565b1562015db8575b50509062015dad8b94939262005a85565b9a9091929362015d5a565b91998c95949392909162015dce908c9062005d10565b9054908d1b1c1662015de1828b62005af1565b5262015ded9062005a85565b9890919293508b3862015d9c565b9697949a98505091975092506000915b83831062015ea1575050505062015e8c578051926001600160401b03841162015e77575062015e3b838362005e25565b602080910191600052806000209060005b84811062015e5b575050505050565b83516001600160a01b0316838201559281019260010162015e4c565b604190634e487b7160e01b6000525260246000fd5b603283634e487b7160e01b6000525260246000fd5b62015ebf90620082f5906001600160a01b036200a756868662005af1565b9162015e0b565b603285634e487b7160e01b6000525260246000fd5b9060005b61271083101562005ab9576003600484821b01805483101562015f3a578262015f089162005d10565b9054911b1c6001600160a01b039081169083161462015f325762015f2c9062005a85565b62015edf565b505050600190565b5050505050600090565b9060005b61271083101562005ab95760036201389784821b01805483101562015f3a578262015f739162005d10565b9054911b1c6001600160a01b039081169083161462015f325762015f979062005a85565b62015f48565b9060005b825181101562015fdc576001600160a01b038062015fc0838662005af1565b51169083161462015f325762015fd69062005a85565b62015fa1565b505050600090565b801562005a95576000190190565b9081519060005b60001983810184811162005a9557821015620160c0576001820180831162005a95575b84811062016037575050620160319062005a85565b62015ff9565b6001600160a01b03806201604c858962005af1565b5116816201605b848a62005af1565b51161462016076575b50620160709062005a85565b6201601c565b828692960182811162005a95576201607092620160b9926201609d620160b2938b62005af1565b5116620160ab898b62005af1565b5262015fe4565b9562015fe4565b9062016064565b505090620160ce8162005c0d565b9060005b818110620160e1575090925050565b62016108906001600160a01b03620160fa828862005af1565b511662001f35828662005af1565b620160d2565b80519160005b60001984810185811162005a9557821015620161c6576001820180831162005a95575b858110620161525750506201614c9062005a85565b62016114565b6201615e838662005af1565b516201616b828762005af1565b511462016184575b6201617e9062005a85565b62016137565b948181019080821162005a9557620161b7620161be91620161aa6201617e948962005af1565b51620160ab8a8a62005af1565b9662015fe4565b905062016173565b50509091620161d58162005c0d565b9060005b818110620161e8575090925050565b80620161f962016206928762005af1565b5162001f35828662005af1565b620161d9565b6040516201621a8162003df8565b604481527f496e76616c6964206469766964656e64207065726d797269616420706572207460208201527f72616e73616374696f6e2e2053686f756c64206265206c657373207468616e206040820152630313030360e41b606082015290565b604051620162888162003e63565b603281527f4e6f20656e6f756768206e756d626572206f66207472616e73616374696f6e7360208201527108199bdc88191a5d9a59195b991cc81e595d60721b604082015290565b604051620162de8162003e7f565b601c81527b6469766964656e6473206f7065726174696f6e206f766572666c6f7760201b602082015290565b604051620163188162003e7f565b600d81526c2ab735b737bbb71022b93937b960991b602082015290565b604051620163438162003e63565b602681527f4572726f7220696e20776974686472617761626c6520636173682063616c63756020820152653630ba34b7b760d11b604082015290565b6040516201638d8162003e7f565b6012815271496e76616c696420506172616d657465727360701b602082015290565b604051620163bd8162003e7f565b601581527413595b58995c88191bd95cc81b9bdd08195e1a5cdd605a1b602082015290565b604051620163f08162003e7f565b601781527613595b58995c881a5cc81b9bdd081cdd5cdc195b991959604a1b602082015290565b604051620164258162003e7f565b601b81527a13595b58995c881a5cc8185b1c9958591e481cdd5cdc195b991959602a1b602082015290565b6040516201645e8162003e7f565b60158152744d656d62657220616c72656164792065786973747360581b602082015290565b604051620164918162003e7f565b60118152704e6f20656e6f7567682062616c616e636560781b602082015290565b604051620164c08162003e7f565b6018815277125b9d985b1a59081c185c985b595d195c881d1bc81cd95d60421b602082015290565b604051620164f68162003e7f565b6015815274546f6b656e20616d6f756e74206f766572666c6f7760581b602082015290565b602681101562003f7c57801562016709576001811462015bbe5760028114620167035760038114620166fd5760048114620166f75760058114620166f15760068114620166eb5760078114620166e55760088114620166df5760098114620166d957600a8114620166d357600b8114620166cd57600c8114620166c757600d8114620166c157600e8114620166bb57600f8114620166b55760108114620166af5760118114620166a95760128114620166a357601381146201669d57601481146201669757601581146201669157601881146201668b57601781146201668557601981146201667f57601a81146201667957601b81146201667357601c81146201666d57601d81146201666757601e81146201666157601f81146201665b576020811462016655576021146201665057600090565b602190565b50602090565b50601f90565b50601e90565b50601d90565b50601c90565b50601b90565b50601a90565b50601990565b50601790565b50601690565b50601590565b50601490565b50601390565b50601290565b50601190565b50601090565b50600f90565b50600e90565b50600d90565b50600c90565b50600b90565b50600a90565b50600990565b50600890565b50600790565b50600690565b50600590565b50600490565b50600390565b50600290565b50600090565b90815181101562005ab9570160200190565b60405190620167308262003e63565b60288252604036602084013760005b601481106201674d57505090565b60139080820391821162005a9557600382901b916001600160fd1b0381160362005a955760ff80831162005a9557600192620167969084901b6001600160a01b03861662005e5f565b60f081168282160391821162005a9557620167ba9060f41b600f60f81b1662016823565b82841b916001600160ff1b038416840362005a9557620167f79160001a620167e384896201670f565b5360f81b6001600160f81b03191662016823565b92810180911162005a9557620168166201681d9360001a91866201670f565b5362005a85565b6201673f565b60f81c600a8110156201684c5760300160ff811162005a955760f81b6001600160f81b03191690565b60570160ff811162005a955760f81b6001600160f81b0319169056fe546865206c656e677468206f662061646472657373657320616e6420746f6b651f4fe3ad533e3985b88710ce05a205152f02825e155777f3bcb8b3bbfcfb03a24ad859a97f543436e70c22b09d31fb4c7b9e987d7a008c98817c9b50a97b1224546865206c656e677468206f6620746f6b656e436c61737320616e6420746f6b546865206c656e677468206f6620746f6b656e496e666f20616e6420746f6b658e71c125ecfe4aeed61c8cf4b09183dd0bf2a3230d826486f04e5f6f0de58e2c18baa939e2e21be0e012ec26e9ec87e9e6faa065bd9f5835250457786300ece8546865206265666f7265206f7065726174696f6e20706c7567696e20737973745265736572766564206f70636f6465206964203233206973206e6f7420696d705265736572766564206f70636f6465206964203238206973206e6f7420696d70546865206c656e677468206f662061646472657373657320616e6420616d6f75a26469706673582212201f2bb79a682df659a5922dbdcdc08d51de62b1538a4c40a328e1be2b81a12e7f64736f6c63430008110033",
  "linkReferences": {},
  "deployedLinkReferences": {}
}