{
  "_format": "hh-sol-artifact-1",
  "contractName": "DARC",
  "sourceName": "contracts/protocol/DARC.sol",
  "abi": [
    {
      "inputs": [
        {
          "internalType": "uint256",
          "name": "idx",
          "type": "uint256"
        }
      ],
      "name": "checkVotingResult",
      "outputs": [
        {
          "internalType": "enum VotingStatus",
          "name": "",
          "type": "uint8"
        }
      ],
      "stateMutability": "view",
      "type": "function"
    },
    {
      "inputs": [],
      "name": "checkVotingResults",
      "outputs": [
        {
          "internalType": "enum VotingStatus[]",
          "name": "",
          "type": "uint8[]"
        }
      ],
      "stateMutability": "view",
      "type": "function"
    },
    {
      "inputs": [],
      "name": "currentVotingEndTime",
      "outputs": [
        {
          "internalType": "uint256",
          "name": "",
          "type": "uint256"
        }
      ],
      "stateMutability": "view",
      "type": "function"
    },
    {
      "inputs": [
        {
          "components": [
            {
              "internalType": "address",
              "name": "programOperatorAddress",
              "type": "address"
            },
            {
              "components": [
                {
                  "internalType": "address",
                  "name": "operatorAddress",
                  "type": "address"
                },
                {
                  "internalType": "enum EnumOpcode",
                  "name": "opcode",
                  "type": "uint8"
                },
                {
                  "components": [
                    {
                      "internalType": "uint256[]",
                      "name": "UINT256_ARRAY",
                      "type": "uint256[]"
                    },
                    {
                      "internalType": "address[]",
                      "name": "ADDRESS_ARRAY",
                      "type": "address[]"
                    },
                    {
                      "internalType": "string[]",
                      "name": "STRING_ARRAY",
                      "type": "string[]"
                    },
                    {
                      "internalType": "bool[]",
                      "name": "BOOL_ARRAY",
                      "type": "bool[]"
                    },
                    {
                      "components": [
                        {
                          "internalType": "uint256[]",
                          "name": "votingTokenClassList",
                          "type": "uint256[]"
                        },
                        {
                          "internalType": "uint256",
                          "name": "approvalThresholdPercentage",
                          "type": "uint256"
                        },
                        {
                          "internalType": "uint256",
                          "name": "votingDurationInSeconds",
                          "type": "uint256"
                        },
                        {
                          "internalType": "uint256",
                          "name": "executionPendingDurationInSeconds",
                          "type": "uint256"
                        },
                        {
                          "internalType": "bool",
                          "name": "isEnabled",
                          "type": "bool"
                        },
                        {
                          "internalType": "string",
                          "name": "note",
                          "type": "string"
                        },
                        {
                          "internalType": "bool",
                          "name": "bIsAbsoluteMajority",
                          "type": "bool"
                        }
                      ],
                      "internalType": "struct VotingRule[]",
                      "name": "VOTING_RULE_ARRAY",
                      "type": "tuple[]"
                    },
                    {
                      "components": [
                        {
                          "internalType": "enum EnumReturnType",
                          "name": "returnType",
                          "type": "uint8"
                        },
                        {
                          "internalType": "uint256",
                          "name": "level",
                          "type": "uint256"
                        },
                        {
                          "components": [
                            {
                              "internalType": "uint256",
                              "name": "id",
                              "type": "uint256"
                            },
                            {
                              "internalType": "enum EnumConditionNodeType",
                              "name": "nodeType",
                              "type": "uint8"
                            },
                            {
                              "internalType": "enum EnumLogicalOperatorType",
                              "name": "logicalOperator",
                              "type": "uint8"
                            },
                            {
                              "internalType": "enum EnumConditionExpression",
                              "name": "conditionExpression",
                              "type": "uint8"
                            },
                            {
                              "internalType": "uint256[]",
                              "name": "childList",
                              "type": "uint256[]"
                            },
                            {
                              "components": [
                                {
                                  "internalType": "uint256[]",
                                  "name": "UINT256_ARRAY",
                                  "type": "uint256[]"
                                },
                                {
                                  "internalType": "address[]",
                                  "name": "ADDRESS_ARRAY",
                                  "type": "address[]"
                                },
                                {
                                  "internalType": "string[]",
                                  "name": "STRING_ARRAY",
                                  "type": "string[]"
                                },
                                {
                                  "internalType": "uint256[][]",
                                  "name": "UINT256_2DARRAY",
                                  "type": "uint256[][]"
                                },
                                {
                                  "internalType": "address[][]",
                                  "name": "ADDRESS_2DARRAY",
                                  "type": "address[][]"
                                },
                                {
                                  "internalType": "string[][]",
                                  "name": "STRING_2DARRAY",
                                  "type": "string[][]"
                                }
                              ],
                              "internalType": "struct NodeParam",
                              "name": "param",
                              "type": "tuple"
                            }
                          ],
                          "internalType": "struct ConditionNode[]",
                          "name": "conditionNodes",
                          "type": "tuple[]"
                        },
                        {
                          "internalType": "uint256",
                          "name": "votingRuleIndex",
                          "type": "uint256"
                        },
                        {
                          "internalType": "string",
                          "name": "note",
                          "type": "string"
                        },
                        {
                          "internalType": "bool",
                          "name": "bIsEnabled",
                          "type": "bool"
                        },
                        {
                          "internalType": "bool",
                          "name": "bIsInitialized",
                          "type": "bool"
                        },
                        {
                          "internalType": "bool",
                          "name": "bIsBeforeOperation",
                          "type": "bool"
                        }
                      ],
                      "internalType": "struct Plugin[]",
                      "name": "PLUGIN_ARRAY",
                      "type": "tuple[]"
                    },
                    {
                      "internalType": "enum MachineParameter[]",
                      "name": "PARAMETER_ARRAY",
                      "type": "uint8[]"
                    },
                    {
                      "internalType": "uint256[][]",
                      "name": "UINT256_2DARRAY",
                      "type": "uint256[][]"
                    },
                    {
                      "internalType": "address[][]",
                      "name": "ADDRESS_2DARRAY",
                      "type": "address[][]"
                    }
                  ],
                  "internalType": "struct Param",
                  "name": "param",
                  "type": "tuple"
                }
              ],
              "internalType": "struct Operation[]",
              "name": "operations",
              "type": "tuple[]"
            }
          ],
          "internalType": "struct Program",
          "name": "program",
          "type": "tuple"
        }
      ],
      "name": "entrance",
      "outputs": [
        {
          "internalType": "string",
          "name": "",
          "type": "string"
        }
      ],
      "stateMutability": "payable",
      "type": "function"
    },
    {
      "inputs": [],
      "name": "executingPendingDeadline",
      "outputs": [
        {
          "internalType": "uint256",
          "name": "",
          "type": "uint256"
        }
      ],
      "stateMutability": "view",
      "type": "function"
    },
    {
      "inputs": [],
      "name": "finiteState",
      "outputs": [
        {
          "internalType": "enum FiniteState",
          "name": "",
          "type": "uint8"
        }
      ],
      "stateMutability": "view",
      "type": "function"
    },
    {
      "inputs": [],
      "name": "getCurrentDividendPerUnit",
      "outputs": [
        {
          "internalType": "uint256",
          "name": "",
          "type": "uint256"
        }
      ],
      "stateMutability": "view",
      "type": "function"
    },
    {
      "inputs": [
        {
          "internalType": "address",
          "name": "member",
          "type": "address"
        }
      ],
      "name": "getMemberInfo",
      "outputs": [
        {
          "components": [
            {
              "internalType": "bool",
              "name": "bIsInitialized",
              "type": "bool"
            },
            {
              "internalType": "bool",
              "name": "bIsSuspended",
              "type": "bool"
            },
            {
              "internalType": "string",
              "name": "name",
              "type": "string"
            },
            {
              "internalType": "uint256",
              "name": "role",
              "type": "uint256"
            }
          ],
          "internalType": "struct MemberInfo",
          "name": "",
          "type": "tuple"
        }
      ],
      "stateMutability": "view",
      "type": "function"
    },
    {
      "inputs": [],
      "name": "getMemberList",
      "outputs": [
        {
          "internalType": "address[]",
          "name": "",
          "type": "address[]"
        }
      ],
      "stateMutability": "view",
      "type": "function"
    },
    {
      "inputs": [],
      "name": "getMyInfo",
      "outputs": [
        {
          "internalType": "address",
          "name": "",
          "type": "address"
        }
      ],
      "stateMutability": "view",
      "type": "function"
    },
    {
      "inputs": [],
      "name": "getNumberOfTokenClasses",
      "outputs": [
        {
          "internalType": "uint256",
          "name": "",
          "type": "uint256"
        }
      ],
      "stateMutability": "view",
      "type": "function"
    },
    {
      "inputs": [],
      "name": "getPluginInfo",
      "outputs": [
        {
          "components": [
            {
              "internalType": "enum EnumReturnType",
              "name": "returnType",
              "type": "uint8"
            },
            {
              "internalType": "uint256",
              "name": "level",
              "type": "uint256"
            },
            {
              "components": [
                {
                  "internalType": "uint256",
                  "name": "id",
                  "type": "uint256"
                },
                {
                  "internalType": "enum EnumConditionNodeType",
                  "name": "nodeType",
                  "type": "uint8"
                },
                {
                  "internalType": "enum EnumLogicalOperatorType",
                  "name": "logicalOperator",
                  "type": "uint8"
                },
                {
                  "internalType": "enum EnumConditionExpression",
                  "name": "conditionExpression",
                  "type": "uint8"
                },
                {
                  "internalType": "uint256[]",
                  "name": "childList",
                  "type": "uint256[]"
                },
                {
                  "components": [
                    {
                      "internalType": "uint256[]",
                      "name": "UINT256_ARRAY",
                      "type": "uint256[]"
                    },
                    {
                      "internalType": "address[]",
                      "name": "ADDRESS_ARRAY",
                      "type": "address[]"
                    },
                    {
                      "internalType": "string[]",
                      "name": "STRING_ARRAY",
                      "type": "string[]"
                    },
                    {
                      "internalType": "uint256[][]",
                      "name": "UINT256_2DARRAY",
                      "type": "uint256[][]"
                    },
                    {
                      "internalType": "address[][]",
                      "name": "ADDRESS_2DARRAY",
                      "type": "address[][]"
                    },
                    {
                      "internalType": "string[][]",
                      "name": "STRING_2DARRAY",
                      "type": "string[][]"
                    }
                  ],
                  "internalType": "struct NodeParam",
                  "name": "param",
                  "type": "tuple"
                }
              ],
              "internalType": "struct ConditionNode[]",
              "name": "conditionNodes",
              "type": "tuple[]"
            },
            {
              "internalType": "uint256",
              "name": "votingRuleIndex",
              "type": "uint256"
            },
            {
              "internalType": "string",
              "name": "note",
              "type": "string"
            },
            {
              "internalType": "bool",
              "name": "bIsEnabled",
              "type": "bool"
            },
            {
              "internalType": "bool",
              "name": "bIsInitialized",
              "type": "bool"
            },
            {
              "internalType": "bool",
              "name": "bIsBeforeOperation",
              "type": "bool"
            }
          ],
          "internalType": "struct Plugin[]",
          "name": "",
          "type": "tuple[]"
        },
        {
          "components": [
            {
              "internalType": "enum EnumReturnType",
              "name": "returnType",
              "type": "uint8"
            },
            {
              "internalType": "uint256",
              "name": "level",
              "type": "uint256"
            },
            {
              "components": [
                {
                  "internalType": "uint256",
                  "name": "id",
                  "type": "uint256"
                },
                {
                  "internalType": "enum EnumConditionNodeType",
                  "name": "nodeType",
                  "type": "uint8"
                },
                {
                  "internalType": "enum EnumLogicalOperatorType",
                  "name": "logicalOperator",
                  "type": "uint8"
                },
                {
                  "internalType": "enum EnumConditionExpression",
                  "name": "conditionExpression",
                  "type": "uint8"
                },
                {
                  "internalType": "uint256[]",
                  "name": "childList",
                  "type": "uint256[]"
                },
                {
                  "components": [
                    {
                      "internalType": "uint256[]",
                      "name": "UINT256_ARRAY",
                      "type": "uint256[]"
                    },
                    {
                      "internalType": "address[]",
                      "name": "ADDRESS_ARRAY",
                      "type": "address[]"
                    },
                    {
                      "internalType": "string[]",
                      "name": "STRING_ARRAY",
                      "type": "string[]"
                    },
                    {
                      "internalType": "uint256[][]",
                      "name": "UINT256_2DARRAY",
                      "type": "uint256[][]"
                    },
                    {
                      "internalType": "address[][]",
                      "name": "ADDRESS_2DARRAY",
                      "type": "address[][]"
                    },
                    {
                      "internalType": "string[][]",
                      "name": "STRING_2DARRAY",
                      "type": "string[][]"
                    }
                  ],
                  "internalType": "struct NodeParam",
                  "name": "param",
                  "type": "tuple"
                }
              ],
              "internalType": "struct ConditionNode[]",
              "name": "conditionNodes",
              "type": "tuple[]"
            },
            {
              "internalType": "uint256",
              "name": "votingRuleIndex",
              "type": "uint256"
            },
            {
              "internalType": "string",
              "name": "note",
              "type": "string"
            },
            {
              "internalType": "bool",
              "name": "bIsEnabled",
              "type": "bool"
            },
            {
              "internalType": "bool",
              "name": "bIsInitialized",
              "type": "bool"
            },
            {
              "internalType": "bool",
              "name": "bIsBeforeOperation",
              "type": "bool"
            }
          ],
          "internalType": "struct Plugin[]",
          "name": "",
          "type": "tuple[]"
        }
      ],
      "stateMutability": "view",
      "type": "function"
    },
    {
      "inputs": [
        {
          "internalType": "uint256",
          "name": "tokenClassIndex",
          "type": "uint256"
        }
      ],
      "name": "getSumDividendWeightByTokenClass",
      "outputs": [
        {
          "internalType": "uint256",
          "name": "",
          "type": "uint256"
        }
      ],
      "stateMutability": "view",
      "type": "function"
    },
    {
      "inputs": [
        {
          "internalType": "uint256",
          "name": "tokenClassIndex",
          "type": "uint256"
        }
      ],
      "name": "getSumVotingWeightByTokenClass",
      "outputs": [
        {
          "internalType": "uint256",
          "name": "",
          "type": "uint256"
        }
      ],
      "stateMutability": "view",
      "type": "function"
    },
    {
      "inputs": [
        {
          "internalType": "uint256",
          "name": "tokenClassIndex",
          "type": "uint256"
        }
      ],
      "name": "getTokenInfo",
      "outputs": [
        {
          "internalType": "uint256",
          "name": "votingWeight",
          "type": "uint256"
        },
        {
          "internalType": "uint256",
          "name": "dividendWeight",
          "type": "uint256"
        },
        {
          "internalType": "string",
          "name": "tokenInfo",
          "type": "string"
        },
        {
          "internalType": "uint256",
          "name": "totalSupply",
          "type": "uint256"
        }
      ],
      "stateMutability": "view",
      "type": "function"
    },
    {
      "inputs": [
        {
          "internalType": "uint256",
          "name": "tokenClassIndex",
          "type": "uint256"
        },
        {
          "internalType": "address",
          "name": "tokenOwnerAddress",
          "type": "address"
        }
      ],
      "name": "getTokenOwnerBalance",
      "outputs": [
        {
          "internalType": "uint256",
          "name": "",
          "type": "uint256"
        }
      ],
      "stateMutability": "view",
      "type": "function"
    },
    {
      "inputs": [
        {
          "internalType": "uint256",
          "name": "tokenClassIndex",
          "type": "uint256"
        }
      ],
      "name": "getTokenOwners",
      "outputs": [
        {
          "internalType": "address[]",
          "name": "",
          "type": "address[]"
        }
      ],
      "stateMutability": "view",
      "type": "function"
    },
    {
      "inputs": [
        {
          "internalType": "address",
          "name": "member",
          "type": "address"
        }
      ],
      "name": "getWithdrawableCashBalance",
      "outputs": [
        {
          "internalType": "uint256",
          "name": "",
          "type": "uint256"
        }
      ],
      "stateMutability": "view",
      "type": "function"
    },
    {
      "inputs": [],
      "name": "getWithdrawableCashOwnerList",
      "outputs": [
        {
          "internalType": "address[]",
          "name": "",
          "type": "address[]"
        }
      ],
      "stateMutability": "view",
      "type": "function"
    },
    {
      "inputs": [
        {
          "internalType": "address",
          "name": "member",
          "type": "address"
        }
      ],
      "name": "getWithdrawableDividendBalance",
      "outputs": [
        {
          "internalType": "uint256",
          "name": "",
          "type": "uint256"
        }
      ],
      "stateMutability": "view",
      "type": "function"
    },
    {
      "inputs": [],
      "name": "getWithdrawableDividendOwnerList",
      "outputs": [
        {
          "internalType": "address[]",
          "name": "",
          "type": "address[]"
        }
      ],
      "stateMutability": "view",
      "type": "function"
    },
    {
      "inputs": [],
      "name": "initialOwnerAddress",
      "outputs": [
        {
          "internalType": "address",
          "name": "",
          "type": "address"
        }
      ],
      "stateMutability": "view",
      "type": "function"
    },
    {
      "inputs": [],
      "name": "initialize",
      "outputs": [],
      "stateMutability": "nonpayable",
      "type": "function"
    },
    {
      "inputs": [
        {
          "internalType": "uint256[]",
          "name": "votingRuleIndices",
          "type": "uint256[]"
        },
        {
          "components": [
            {
              "internalType": "address",
              "name": "programOperatorAddress",
              "type": "address"
            },
            {
              "components": [
                {
                  "internalType": "address",
                  "name": "operatorAddress",
                  "type": "address"
                },
                {
                  "internalType": "enum EnumOpcode",
                  "name": "opcode",
                  "type": "uint8"
                },
                {
                  "components": [
                    {
                      "internalType": "uint256[]",
                      "name": "UINT256_ARRAY",
                      "type": "uint256[]"
                    },
                    {
                      "internalType": "address[]",
                      "name": "ADDRESS_ARRAY",
                      "type": "address[]"
                    },
                    {
                      "internalType": "string[]",
                      "name": "STRING_ARRAY",
                      "type": "string[]"
                    },
                    {
                      "internalType": "bool[]",
                      "name": "BOOL_ARRAY",
                      "type": "bool[]"
                    },
                    {
                      "components": [
                        {
                          "internalType": "uint256[]",
                          "name": "votingTokenClassList",
                          "type": "uint256[]"
                        },
                        {
                          "internalType": "uint256",
                          "name": "approvalThresholdPercentage",
                          "type": "uint256"
                        },
                        {
                          "internalType": "uint256",
                          "name": "votingDurationInSeconds",
                          "type": "uint256"
                        },
                        {
                          "internalType": "uint256",
                          "name": "executionPendingDurationInSeconds",
                          "type": "uint256"
                        },
                        {
                          "internalType": "bool",
                          "name": "isEnabled",
                          "type": "bool"
                        },
                        {
                          "internalType": "string",
                          "name": "note",
                          "type": "string"
                        },
                        {
                          "internalType": "bool",
                          "name": "bIsAbsoluteMajority",
                          "type": "bool"
                        }
                      ],
                      "internalType": "struct VotingRule[]",
                      "name": "VOTING_RULE_ARRAY",
                      "type": "tuple[]"
                    },
                    {
                      "components": [
                        {
                          "internalType": "enum EnumReturnType",
                          "name": "returnType",
                          "type": "uint8"
                        },
                        {
                          "internalType": "uint256",
                          "name": "level",
                          "type": "uint256"
                        },
                        {
                          "components": [
                            {
                              "internalType": "uint256",
                              "name": "id",
                              "type": "uint256"
                            },
                            {
                              "internalType": "enum EnumConditionNodeType",
                              "name": "nodeType",
                              "type": "uint8"
                            },
                            {
                              "internalType": "enum EnumLogicalOperatorType",
                              "name": "logicalOperator",
                              "type": "uint8"
                            },
                            {
                              "internalType": "enum EnumConditionExpression",
                              "name": "conditionExpression",
                              "type": "uint8"
                            },
                            {
                              "internalType": "uint256[]",
                              "name": "childList",
                              "type": "uint256[]"
                            },
                            {
                              "components": [
                                {
                                  "internalType": "uint256[]",
                                  "name": "UINT256_ARRAY",
                                  "type": "uint256[]"
                                },
                                {
                                  "internalType": "address[]",
                                  "name": "ADDRESS_ARRAY",
                                  "type": "address[]"
                                },
                                {
                                  "internalType": "string[]",
                                  "name": "STRING_ARRAY",
                                  "type": "string[]"
                                },
                                {
                                  "internalType": "uint256[][]",
                                  "name": "UINT256_2DARRAY",
                                  "type": "uint256[][]"
                                },
                                {
                                  "internalType": "address[][]",
                                  "name": "ADDRESS_2DARRAY",
                                  "type": "address[][]"
                                },
                                {
                                  "internalType": "string[][]",
                                  "name": "STRING_2DARRAY",
                                  "type": "string[][]"
                                }
                              ],
                              "internalType": "struct NodeParam",
                              "name": "param",
                              "type": "tuple"
                            }
                          ],
                          "internalType": "struct ConditionNode[]",
                          "name": "conditionNodes",
                          "type": "tuple[]"
                        },
                        {
                          "internalType": "uint256",
                          "name": "votingRuleIndex",
                          "type": "uint256"
                        },
                        {
                          "internalType": "string",
                          "name": "note",
                          "type": "string"
                        },
                        {
                          "internalType": "bool",
                          "name": "bIsEnabled",
                          "type": "bool"
                        },
                        {
                          "internalType": "bool",
                          "name": "bIsInitialized",
                          "type": "bool"
                        },
                        {
                          "internalType": "bool",
                          "name": "bIsBeforeOperation",
                          "type": "bool"
                        }
                      ],
                      "internalType": "struct Plugin[]",
                      "name": "PLUGIN_ARRAY",
                      "type": "tuple[]"
                    },
                    {
                      "internalType": "enum MachineParameter[]",
                      "name": "PARAMETER_ARRAY",
                      "type": "uint8[]"
                    },
                    {
                      "internalType": "uint256[][]",
                      "name": "UINT256_2DARRAY",
                      "type": "uint256[][]"
                    },
                    {
                      "internalType": "address[][]",
                      "name": "ADDRESS_2DARRAY",
                      "type": "address[][]"
                    }
                  ],
                  "internalType": "struct Param",
                  "name": "param",
                  "type": "tuple"
                }
              ],
              "internalType": "struct Operation[]",
              "name": "operations",
              "type": "tuple[]"
            }
          ],
          "internalType": "struct Program",
          "name": "currentProgram",
          "type": "tuple"
        }
      ],
      "name": "initializeVoting",
      "outputs": [],
      "stateMutability": "nonpayable",
      "type": "function"
    },
    {
      "inputs": [],
      "name": "latestVotingItemIndex",
      "outputs": [
        {
          "internalType": "uint256",
          "name": "",
          "type": "uint256"
        }
      ],
      "stateMutability": "view",
      "type": "function"
    },
    {
      "inputs": [
        {
          "internalType": "address",
          "name": "voter",
          "type": "address"
        },
        {
          "internalType": "bool[]",
          "name": "votes",
          "type": "bool[]"
        }
      ],
      "name": "vote",
      "outputs": [],
      "stateMutability": "nonpayable",
      "type": "function"
    },
    {
      "inputs": [],
      "name": "votingDeadline",
      "outputs": [
        {
          "internalType": "uint256",
          "name": "",
          "type": "uint256"
        }
      ],
      "stateMutability": "view",
      "type": "function"
    },
    {
      "inputs": [
        {
          "internalType": "uint256",
          "name": "",
          "type": "uint256"
        }
      ],
      "name": "votingItems",
      "outputs": [
        {
          "components": [
            {
              "internalType": "address",
              "name": "programOperatorAddress",
              "type": "address"
            },
            {
              "components": [
                {
                  "internalType": "address",
                  "name": "operatorAddress",
                  "type": "address"
                },
                {
                  "internalType": "enum EnumOpcode",
                  "name": "opcode",
                  "type": "uint8"
                },
                {
                  "components": [
                    {
                      "internalType": "uint256[]",
                      "name": "UINT256_ARRAY",
                      "type": "uint256[]"
                    },
                    {
                      "internalType": "address[]",
                      "name": "ADDRESS_ARRAY",
                      "type": "address[]"
                    },
                    {
                      "internalType": "string[]",
                      "name": "STRING_ARRAY",
                      "type": "string[]"
                    },
                    {
                      "internalType": "bool[]",
                      "name": "BOOL_ARRAY",
                      "type": "bool[]"
                    },
                    {
                      "components": [
                        {
                          "internalType": "uint256[]",
                          "name": "votingTokenClassList",
                          "type": "uint256[]"
                        },
                        {
                          "internalType": "uint256",
                          "name": "approvalThresholdPercentage",
                          "type": "uint256"
                        },
                        {
                          "internalType": "uint256",
                          "name": "votingDurationInSeconds",
                          "type": "uint256"
                        },
                        {
                          "internalType": "uint256",
                          "name": "executionPendingDurationInSeconds",
                          "type": "uint256"
                        },
                        {
                          "internalType": "bool",
                          "name": "isEnabled",
                          "type": "bool"
                        },
                        {
                          "internalType": "string",
                          "name": "note",
                          "type": "string"
                        },
                        {
                          "internalType": "bool",
                          "name": "bIsAbsoluteMajority",
                          "type": "bool"
                        }
                      ],
                      "internalType": "struct VotingRule[]",
                      "name": "VOTING_RULE_ARRAY",
                      "type": "tuple[]"
                    },
                    {
                      "components": [
                        {
                          "internalType": "enum EnumReturnType",
                          "name": "returnType",
                          "type": "uint8"
                        },
                        {
                          "internalType": "uint256",
                          "name": "level",
                          "type": "uint256"
                        },
                        {
                          "components": [
                            {
                              "internalType": "uint256",
                              "name": "id",
                              "type": "uint256"
                            },
                            {
                              "internalType": "enum EnumConditionNodeType",
                              "name": "nodeType",
                              "type": "uint8"
                            },
                            {
                              "internalType": "enum EnumLogicalOperatorType",
                              "name": "logicalOperator",
                              "type": "uint8"
                            },
                            {
                              "internalType": "enum EnumConditionExpression",
                              "name": "conditionExpression",
                              "type": "uint8"
                            },
                            {
                              "internalType": "uint256[]",
                              "name": "childList",
                              "type": "uint256[]"
                            },
                            {
                              "components": [
                                {
                                  "internalType": "uint256[]",
                                  "name": "UINT256_ARRAY",
                                  "type": "uint256[]"
                                },
                                {
                                  "internalType": "address[]",
                                  "name": "ADDRESS_ARRAY",
                                  "type": "address[]"
                                },
                                {
                                  "internalType": "string[]",
                                  "name": "STRING_ARRAY",
                                  "type": "string[]"
                                },
                                {
                                  "internalType": "uint256[][]",
                                  "name": "UINT256_2DARRAY",
                                  "type": "uint256[][]"
                                },
                                {
                                  "internalType": "address[][]",
                                  "name": "ADDRESS_2DARRAY",
                                  "type": "address[][]"
                                },
                                {
                                  "internalType": "string[][]",
                                  "name": "STRING_2DARRAY",
                                  "type": "string[][]"
                                }
                              ],
                              "internalType": "struct NodeParam",
                              "name": "param",
                              "type": "tuple"
                            }
                          ],
                          "internalType": "struct ConditionNode[]",
                          "name": "conditionNodes",
                          "type": "tuple[]"
                        },
                        {
                          "internalType": "uint256",
                          "name": "votingRuleIndex",
                          "type": "uint256"
                        },
                        {
                          "internalType": "string",
                          "name": "note",
                          "type": "string"
                        },
                        {
                          "internalType": "bool",
                          "name": "bIsEnabled",
                          "type": "bool"
                        },
                        {
                          "internalType": "bool",
                          "name": "bIsInitialized",
                          "type": "bool"
                        },
                        {
                          "internalType": "bool",
                          "name": "bIsBeforeOperation",
                          "type": "bool"
                        }
                      ],
                      "internalType": "struct Plugin[]",
                      "name": "PLUGIN_ARRAY",
                      "type": "tuple[]"
                    },
                    {
                      "internalType": "enum MachineParameter[]",
                      "name": "PARAMETER_ARRAY",
                      "type": "uint8[]"
                    },
                    {
                      "internalType": "uint256[][]",
                      "name": "UINT256_2DARRAY",
                      "type": "uint256[][]"
                    },
                    {
                      "internalType": "address[][]",
                      "name": "ADDRESS_2DARRAY",
                      "type": "address[][]"
                    }
                  ],
                  "internalType": "struct Param",
                  "name": "param",
                  "type": "tuple"
                }
              ],
              "internalType": "struct Operation[]",
              "name": "operations",
              "type": "tuple[]"
            }
          ],
          "internalType": "struct Program",
          "name": "program",
          "type": "tuple"
        },
        {
          "internalType": "uint256",
          "name": "votingEndTime",
          "type": "uint256"
        },
        {
          "internalType": "uint256",
          "name": "executingEndTime",
          "type": "uint256"
        },
        {
          "internalType": "enum VotingStatus",
          "name": "votingStatus",
          "type": "uint8"
        },
        {
          "internalType": "bool",
          "name": "bIsProgramExecuted",
          "type": "bool"
        }
      ],
      "stateMutability": "view",
      "type": "function"
    }
  ],
  "bytecode": "0x6080806040523462000019576201571990816200001f8239f35b600080fdfe6109c08060405260043610156200001557600080fd5b600090813560e01c908163036ee85014620038cb575080630e5a3b29146200356d57806310ade3ea146200353d5780631797631d14620034b55780631c75255a146200344f57806323b65c7814620033c757806341d1a438146200339357806356424cf414620032b25780635c00d98714620032615780635d0b1849146200323f5780635f1231ea14620031655780635f5d5f0014620030dd578063681ece9d146200309857806379532bfe14620030765780637daa10ce14620030595780638129fc1c1462002c96578063864f9f7a1462002c5757806386ad77e214620029445780638c7a63ae14620028d25780639f36145f1462001592578063a064c4f114620014c9578063a2f7d1011462000504578063acf80bc414620004c5578063aefca42a14620004a3578063afc820aa146200037e578063bba5103014620001f4578063d5a172f214620001c75763d6a93c51146200017357600080fd5b34620001c45780600319360112620001c4575b61271081106200019c575b602090604051908152f35b60ff60078260031b01541615620001be57620001b890620057f7565b62000186565b62000191565b80fd5b5034620001c45780600319360112620001c45762027126546040516001600160a01b039091168152602090f35b5034620001c45780600319360112620001c4576202712e548082526202712b9160209083825260029384604083200154946200024d6200023487620039ff565b96620002446040519889620039db565b808852620039ff565b8685019290601f1901368437835b86855281865282604086200154811015620003285760405163083a348760e31b815260048101829052602487828281305afa9182156200031d578792620002da575b50620002aa838b6200584d565b906003831015620002c8575052620002c290620057f7565b6200025b565b634e487b7160e01b8852602160045287fd5b9091508781813d831162000315575b620002f58183620039db565b810103126200031157516003811015620003115790386200029d565b8680fd5b503d620002e9565b6040513d89823e3d90fd5b505060408051858152875181870181905290948594928501935086905b8281106200035557505050500390f35b91938395509080826200036d60019483975162003afc565b019501910191859493919262000345565b506020366003190112620001c4576004356001600160401b0381116200049f57620003ae90369060040162004abe565b805190916001600160a01b039162000403908316620003fa620003db620003d5336201547c565b620056c0565b620003f3620003ed878951166201547c565b62005726565b906200577d565b903314620057c4565b9060208301915b825180518210156200047757906200046b6200047192846200042e8433936200584d565b515116146200046462000445620003d5336201547c565b620003f3620003ed886200045b888c516200584d565b5151166201547c565b90620057c4565b620057f7565b6200040a565b6200049b6200048686620069ed565b60405191829160208352602083019062003b2f565b0390f35b5080fd5b5034620001c45780600319360112620001c45760206202712854604051908152f35b5034620001c4576020366003190112620001c4576020906040906001600160a01b03620004f1620038eb565b1681526201388783522054604051908152f35b5034620001c4576040366003190112620001c4576004356001600160401b0381116200049f576200053a903690600401620047ec565b6024356001600160401b038111620014c5576200055c90369060040162004abe565b620271298054600260ff8216620005738162003a95565b14620014805760ff191660021790556202712e546001810181116200146c57600181016202712e558391845b84518110156200060257836002620005c3620005bc84896200584d565b5162014502565b50015410620005de575b620005d890620057f7565b6200059f565b9250620005d86002620005f6620005bc86886200584d565b500154939050620005cd565b509093918291825b8551811015620006665784600362000627620005bc848a6200584d565b5001541062000642575b6200063c90620057f7565b6200060a565b93506200063c60036200065a620005bc87896200584d565b50015494905062000631565b50600190950182526202712b602090815260408320865181546001600160a01b0319166001600160a01b039190911617815595015180519295919290600160401b821162000be55760018301548260018501558083106200128b575b50602060019101920186526020862086925b82841062000c235750505050620006ec83516200638d565b6202712e5485526202712b6020526004604086200181519160018060401b03831162000be55760209062000721848462005933565b0190865260208620865b83811062000c0e57505050506200074383516200638d565b6202712e5485526202712b6020526003604086200181519160018060401b03831162000be55760209062000778848462005933565b0190865260208620865b83811062000bf957505050506200079a83516200638d565b6202712e5485526202712b6020526005604086200181519160018060401b03831162000be557602090620007cf848462005933565b0190865260208620865b83811062000bd05750505050620007f190426200681c565b6202712e5485526202712b60205260066040862001551562000b90576200082e906202712e5484526202712b60205260066040852001546200681c565b60076040852001551562000b4d576202712e5482526202712b60205260086040832001600260ff198254161790556200086881516200638d565b6202712e5483526202712b6020526002604084200181519160018060401b03831162000b39576020906200089d848462005933565b0190845260208420845b83811062000b24578585815b81518110156200091457806200046b620008d26200090e93856200584d565b516202712e5486526202712b602052620008f38360026040892001620066dd565b90919082549060031b600019811b9283911b16911916179055565b620008b3565b50815b815181101562000b20576202712e54928381526202712b60205262000954620009478360026040852001620066dd565b90549060031b1c62014502565b50549162000962836200638d565b92825b81811062000acf5750508182905b845182101562000a9f576200098982866200584d565b5161271081101562000a8b5760031b60010154620009a883876200584d565b5161271081101562000a775760031b60060154620009c691620065f0565b901562000a3357620009d8916200681c565b919015620009f257620009eb90620057f7565b9062000973565b60405162461bcd60e51b8152602060048201526019602482015278746f74616c566f74696e67506f776572206f766572666c6f7760381b6044820152606490fd5b606460405162461bcd60e51b815260206004820152602060248201527f63757272656e74436c617373566f74696e67506f776572206f766572666c6f776044820152fd5b634e487b7160e01b86526032600452602486fd5b634e487b7160e01b85526032600452602485fd5b905062000ac993506200046b91929586526202712b602052620008f38360056040892001620066dd565b62000917565b62000b1a908785526202712b60205262000b008162000af96200094787600260408b2001620066dd565b50620066dd565b90549060031b1c62000b1382886200584d565b52620057f7565b62000965565b8280f35b600190602084519401938184015501620008a7565b634e487b7160e01b85526041600452602485fd5b60405162461bcd60e51b815260206004820152601b60248201527a657865637574696e6720656e642074696d65206f766572666c6f7760281b6044820152606490fd5b60405162461bcd60e51b8152602060048201526018602482015277766f74696e6720656e642074696d65206f766572666c6f7760401b6044820152606490fd5b600190602084519401938184015501620007d9565b634e487b7160e01b87526041600452602487fd5b60019060208451940193818401550162000782565b6001906020845194019381840155016200072b565b805180518354602083015190916001600160a01b031690602781101562001277576001600160a81b03199092161760a09190911b60ff60a01b161783556040015180518051906001600160401b0382116200103c576020600186019162000c8b848462005933565b01908b5260208b208b5b83811062001262575050505060208101518051906001600160401b0382116200103c576020600286019162000ccb848462005933565b01908b5260208b208b5b83811062001244575050505060038301604082015190602082519262000cfc848462005a58565b01908b5260208b20908b905b838210620012245750505050606081015180516001600160401b0381116200103c576020600486019262000d3d838562014665565b01918b5260208b20908b5b8160051c8110620011e95750601f1981168103620011a6575b5050506080810151805190600160401b82116200103c57600585015482600587015580831062001123575b50602001600585018b5260208b20908b905b83821062001102575050505060a0810151805190600160401b82116200103c57600685015482600687015580831062001071575b50602001600685018b5260208b20908b905b83821062001050575050505060c081015180516001600160401b0381116200103c576020600786019262000e19838562014665565b01918b5260208b20908b5b8160051c811062000ffe5750601f198116810362000fb2575b5050506008830160e082015190602082519262000e5b848462005ae6565b01908b5260208b20908b905b83821062000f3b57505050506101006009840191015190602082519262000e8f848462005ae6565b01908a5260208a20908a905b83821062000ebb5750505050600a602060019201920193019290620006d4565b80518051906001600160401b03821162000f27578460208f9262000ee0858462005933565b0191528d60208120905b83811062000f0957505050506001602081920193019101909162000e9b565b82516001600160a01b03168183015560209092019160010162000eea565b634e487b7160e01b8e52604160045260248efd5b80518051906001600160401b03821162000f9e5760208f9162000f5f848862005933565b019085815260208120905b83811062000f8957505050506001602081920193019101909162000e67565b60019060208451940193818401550162000f6a565b634e487b7160e01b8f52604160045260248ffd5b8b928c5b601f1983168303811062000fd457505060051c015538808062000e3d565b9093602062000ff46001928488519162000fee8362003b56565b620146cf565b9501910162000fb6565b8c8d5b602081106200101857508382015560010162000e24565b94906020620010326001928885519162000fee8362003b56565b9201950162001001565b634e487b7160e01b8b52604160045260248bfd5b600660208262001064600194518762005f37565b0193019101909162000de4565b6006818102048103620010ee576006838102048303620010ee57600686018c5260208c208360060281015b8d8360060283018210620010b35750505062000dd2565b90816006928255806001830155620010ce6002830162005bc3565b806003830155620010e260048301620059c7565b6005820155016200109c565b634e487b7160e01b8c52601160045260248cfd5b600760208262001116600194518762014523565b0193019101909162000d9e565b6007818102048103620010ee576007838102048303620010ee57600586018c5260208c208360070281015b8d8360070283018210620011655750505062000d8c565b9060079162001174826200590c565b8060018301558060028301558060038301558060048301556200119a60058301620059c7565b6006820155016200114e565b8b928c5b601f19831683038110620011c857505060051c015538808062000d61565b90936020620011df600192848851151591620146cf565b95019101620011aa565b8c8d5b602081106200120357508382015560010162000d48565b949060206200121a600192888551151591620146cf565b92019501620011ec565b6001602082620012378394518762005e21565b0193019101909162000d08565b82516001600160a01b03168183015560209092019160010162000cd5565b60019060208451940193818401550162000c95565b634e487b7160e01b8c52602160045260248cfd5b600a8181020481036200145857600a83810204830362001458576001840188526020882083600a0281015b82600a0282018110620012cb575050620006c2565b898155620012dc600182016200590c565b620012ea600282016200590c565b620012f86003820162005a19565b6200130c600482018054908c81556201463d565b60058101548a600583015580620013e9575b5060068101548a6006830155806200136c575b5080620013496007600a93018054908d81556201463d565b620013576008820162005aa7565b620013656009820162005aa7565b01620012b6565b6006818102048103620013d557600682018b5260208b20906006028101905b8181106200139a575062001331565b808c600692558c6001820155620013b46002820162005bc3565b8c6003820155620013c860048201620059c7565b8c6005820155016200138b565b634e487b7160e01b8b52601160045260248bfd5b6007818102048103620013d557600582018b5260208b20906007028101905b8181106200141757506200131e565b80620014256007926200590c565b8c60018201558c60028201558c60038201558c60048201556200144b60058201620059c7565b8c60068201550162001408565b634e487b7160e01b88526011600452602488fd5b634e487b7160e01b84526011600452602484fd5b60405162461bcd60e51b815260206004820152601d60248201527f766f74696e6720697320616c726561647920696e2070726f67726573730000006044820152606490fd5b8280fd5b5034620001c4576020366003190112620001c457600435906127108210156200157e576200150b826200150460018260031b0154916200675a565b90620065f0565b90156200151d57602090604051908152f35b60405162461bcd60e51b815260206004820152603360248201527f73756d566f74696e67576569676874466f72546f6b656e436c6173733a20766f60448201527274696e67576569676874206f766572666c6f7760681b6064820152608490fd5b634e487b7160e01b81526032600452602490fd5b5034620001c4576020366003190112620001c45760043581526202712b602052604080822081519182016001600160401b03811183821017620028be5760405280546001600160a01b03168252600181018054620015f081620039ff565b91620016006040519384620039db565b81835285526020808620869184015b83831062001676576200164b878787602083015260ff600682015491600860078201549101549060405195869560a0875260a087019062004352565b9360208601526040850152620016676060850183831662003afc565b60081c16151560808301520390f35b6040516001600160401b036060820190811190821117620028aa576060810160405282546001600160a01b0381168252602760a082901c60ff161015620028965760a01c60ff1660208201526040516001600160401b0361012082019081119082111762002882576101208101604052620016f46001850162003f35565b8152620017046002850162003f8a565b60208201526200171760038501620040d3565b6040820152600484018a604051809283916020825491828152019184526020842093905b80601f830110620026ae576200187e94549181811062002697575b8181106200267d575b81811062002663575b81811062002649575b81811062002630575b81811062002616575b818110620025fc575b818110620025e2575b818110620025c8575b818110620025ae575b81811062002594575b8181106200257a575b81811062002560575b81811062002546575b8181106200252c575b81811062002512575b818110620024f8575b818110620024de575b818110620024c4575b818110620024aa575b81811062002490575b81811062002476575b8181106200245c575b81811062002442575b81811062002428575b8181106200240e575b818110620023f4575b818110620023da575b818110620023c0575b818110620023a6575b8181106200238c575b106200237b575b509b9a999897969594939b0382620039db565b60608a01526005830180546200189481620039ff565b91620018a46040519384620039db565b8183528c526020808d20908d9084015b83821062002346575050505060808a015260068301988954620018d781620039ff565b9a620018e76040519c8d620039db565b818c5260208c01908d528c6020812091815b848310620021d757505050505090919293949596979860a0820152604051806007860190602082549182815201918d5260208d20908d915b81601f84011062001ece5784600a97946020979460019a979462001a7894549181811062001eb0575b81811062001e8f575b81811062001e6e575b81811062001e4d575b81811062001e2d575b81811062001e0c575b81811062001deb575b81811062001dca575b81811062001da9575b81811062001d88575b81811062001d67575b81811062001d46575b81811062001d25575b81811062001d04575b81811062001ce3575b81811062001cc2575b81811062001ca1575b81811062001c80575b81811062001c5f575b81811062001c3e575b81811062001c1d575b81811062001bfc575b81811062001bdb575b81811062001bba575b81811062001b99575b81811062001b78575b81811062001b57575b81811062001b36575b81811062001b15575b81811062001af4575b81811062001ad3575b1062001ab8575b500382620039db565b60c082015262001a8b60088801620041c8565b60e082015262001a9e6009880162004225565b61010082015260408201528152019201920191906200160f565b90889160f81c62001ac98162003b56565b8152013862001a6f565b928a8d9160ff8560f01c1662001ae98162003b56565b815201930162001a68565b928a8d9160ff8560e81c1662001b0a8162003b56565b815201930162001a5f565b928a8d9160ff8560e01c1662001b2b8162003b56565b815201930162001a56565b928a8d9160ff8560d81c1662001b4c8162003b56565b815201930162001a4d565b928a8d9160ff8560d01c1662001b6d8162003b56565b815201930162001a44565b928a8d9160ff8560c81c1662001b8e8162003b56565b815201930162001a3b565b928a8d9160ff8560c01c1662001baf8162003b56565b815201930162001a32565b928a8d9160ff8560b81c1662001bd08162003b56565b815201930162001a29565b928a8d9160ff8560b01c1662001bf18162003b56565b815201930162001a20565b928a8d9160ff8560a81c1662001c128162003b56565b815201930162001a17565b928a8d9160ff8560a01c1662001c338162003b56565b815201930162001a0e565b928a8d9160ff8560981c1662001c548162003b56565b815201930162001a05565b928a8d9160ff8560901c1662001c758162003b56565b8152019301620019fc565b928a8d9160ff8560881c1662001c968162003b56565b8152019301620019f3565b928a8d9160ff8560801c1662001cb78162003b56565b8152019301620019ea565b928a8d9160ff8560781c1662001cd88162003b56565b8152019301620019e1565b928a8d9160ff8560701c1662001cf98162003b56565b8152019301620019d8565b928a8d9160ff8560681c1662001d1a8162003b56565b8152019301620019cf565b928a8d9160ff8560601c1662001d3b8162003b56565b8152019301620019c6565b928a8d9160ff8560581c1662001d5c8162003b56565b8152019301620019bd565b928a8d9160ff8560501c1662001d7d8162003b56565b8152019301620019b4565b928a8d9160ff8560481c1662001d9e8162003b56565b8152019301620019ab565b928a8d9160ff8560401c1662001dbf8162003b56565b8152019301620019a2565b928a8d9160ff8560381c1662001de08162003b56565b815201930162001999565b928a8d9160ff8560301c1662001e018162003b56565b815201930162001990565b928a8d9160ff8560281c1662001e228162003b56565b815201930162001987565b928a8d9160ff85831c1662001e428162003b56565b81520193016200197e565b928a8d9160ff8560181c1662001e638162003b56565b815201930162001975565b928a8d9160ff8560101c1662001e848162003b56565b81520193016200196c565b928a8d9160ff8560081c1662001ea58162003b56565b815201930162001963565b928a8d9160ff851662001ec38162003b56565b81520193016200195a565b926001610400602092865460ff811662001ee88162003b56565b825260ff8160081c1662001efc8162003b56565b8583015260ff8160101c1662001f128162003b56565b604083015260ff8160181c1662001f298162003b56565b606083015260ff81861c1662001f3f8162003b56565b608083015260ff8160281c1662001f568162003b56565b60a083015262001f6c60ff8260301c1662003b56565b60ff8160301c1660c083015260ff8160381c1662001f8a8162003b56565b60e083015260ff8160401c1662001fa18162003b56565b61010083015260ff8160481c1662001fb98162003b56565b61012083015260ff8160501c1662001fd18162003b56565b61014083015260ff8160581c1662001fe98162003b56565b61016083015260ff8160601c16620020018162003b56565b61018083015260ff8160681c16620020198162003b56565b6101a083015260ff8160701c16620020318162003b56565b6101c083015260ff8160781c16620020498162003b56565b6101e083015260ff8160801c16620020618162003b56565b61020083015260ff8160881c16620020798162003b56565b61022083015260ff8160901c16620020918162003b56565b61024083015260ff8160981c16620020a98162003b56565b61026083015260ff8160a01c16620020c18162003b56565b61028083015260ff8160a81c16620020d98162003b56565b6102a083015260ff8160b01c16620020f18162003b56565b6102c083015260ff8160b81c16620021098162003b56565b6102e083015260ff8160c01c16620021218162003b56565b61030083015260ff8160c81c16620021398162003b56565b61032083015260ff8160d01c16620021518162003b56565b61034083015260ff8160d81c16620021698162003b56565b61036083015260ff8160e01c16620021818162003b56565b61038083015260ff8160e81c16620021998162003b56565b6103a083015260ff8160f01c16620021b18162003b56565b6103c083015260f81c620021c58162003b56565b6103e082015201940192019162001931565b60405190620021e6826200396a565b620021f660ff86541683620041ae565b6001850154602083015260028501546200221081620039ff565b91620022206040519384620039db565b81835260028701815260208082209084015b838310620022b857505050509d9e95969798999a9b9c9d6001928260209260406006950152600387015460608201526200226f6004880162004023565b608082015260ff6005880154818116151560a0840152818160081c16151560c084015260101c16151560e08201528152019301910190918e9d9c9b9a9998979695949d620018f9565b60096020600192604051620022cd816200394e565b855481526200231160ff86880154818116620022e98162003b56565b86850152818160081c16620022fe8162003a95565b604085015260101c1660608301620041bb565b6200231f6002870162003f35565b6080820152620023326003870162004282565b60a082015281520192019201919062002232565b600760209d9e969798999a9b9c9d600192620023628662004130565b8152019301910190919c9b9a9998979695949c620018b4565b60f81c15158152602001386200186b565b92602060019160ff8560f01c161515815201930162001864565b92602060019160ff8560e81c16151581520193016200185b565b92602060019160ff8560e01c161515815201930162001852565b92602060019160ff8560d81c161515815201930162001849565b92602060019160ff8560d01c161515815201930162001840565b92602060019160ff8560c81c161515815201930162001837565b92602060019160ff8560c01c16151581520193016200182e565b92602060019160ff8560b81c161515815201930162001825565b92602060019160ff8560b01c16151581520193016200181c565b92602060019160ff8560a81c161515815201930162001813565b92602060019160ff8560a01c16151581520193016200180a565b92602060019160ff8560981c161515815201930162001801565b92602060019160ff8560901c1615158152019301620017f8565b92602060019160ff8560881c1615158152019301620017ef565b92602060019160ff8560801c1615158152019301620017e6565b92602060019160ff8560781c1615158152019301620017dd565b92602060019160ff8560701c1615158152019301620017d4565b92602060019160ff8560681c1615158152019301620017cb565b92602060019160ff8560601c1615158152019301620017c2565b92602060019160ff8560581c1615158152019301620017b9565b92602060019160ff8560501c1615158152019301620017b0565b92602060019160ff8560481c1615158152019301620017a7565b92602060019160ff8560401c16151581520193016200179e565b92602060019160ff8560381c161515815201930162001795565b92602060019160ff8560301c16151581520193016200178c565b92602060019160ff8560281c161515815201930162001783565b92602060019160ff85831c16151581520193016200177a565b92602060019160ff8560181c161515815201930162001771565b92602060019160ff8560101c161515815201930162001768565b92602060019160ff8560081c16151581520193016200175f565b92602060019160ff85161515815201930162001756565b916020919350610400600191865460ff81161515825260ff8160081c1615158583015260ff8160101c161515604083015260ff8160181c161515606083015260ff8160808282891c16151581860152828260281c16151560a0860152828260c092828260301c16151584890152828260381c16151560e0890152828260401c161515610100890152828260481c161515610120890152828260501c161515610140890152828260581c161515610160890152828260601c161515610180890152828260681c1615156101a0890152828260701c1615156101c0890152828260781c1615156101e08901521c161515610200860152828260881c161515610220860152828260901c161515610240860152828260981c161515610260860152828260a01c161515610280860152828260a81c1615156102a0860152828260b01c1615156102c0860152828260b81c1615156102e08601521c16151561030083015260ff8160c81c16151561032083015260ff8160d01c16151561034083015260ff8160d81c16151561036083015260ff8160e01c16151561038083015260ff8160e81c1615156103a083015260ff8160f01c1615156103c083015260f81c15156103e08201520194019201849293916200173b565b634e487b7160e01b8a52604160045260248afd5b634e487b7160e01b8a52602160045260248afd5b634e487b7160e01b89526041600452602489fd5b634e487b7160e01b84526041600452602484fd5b5034620001c4576020366003190112620001c457600435906127108210156200157e575060031b60018101546002820154916200293a6200291b60056006840154930162004023565b6040519485948552602085015260806040850152608084019062003b2f565b9060608301520390f35b5034620001c45780600319360112620001c4576201388280546200296881620039ff565b91620029786040519384620039db565b81835283526020808420849184015b83831062002b2957858562013883805490620029a382620039ff565b93620029b36040519586620039db565b82855260208501918152602081209080925b848410620029fb57620029ec866200049b8960405193849360408552604085019062003ce1565b90838203602085015262003ce1565b60405162002a09816200396a565b62002a1960ff85541682620041ae565b6001840154602082015260028401805462002a3481620039ff565b9162002a446040519384620039db565b8183528552602080862090869084015b83821062002ac3575050505060019282602092604060069501526003870154606082015262002a866004880162004023565b608082015260ff6005880154818116151560a0840152818160081c16151560c084015260101c16151560e0820152815201930193019291620029c5565b6009602060019260405162002ad8816200394e565b8654815262002af460ff86890154818116620022e98162003b56565b62002b026002880162003f35565b608082015262002b156003880162004282565b60a082015281520193019101909162002a54565b60405162002b37816200396a565b62002b4760ff84541682620041ae565b6001830154602082015260028301805462002b6281620039ff565b9162002b726040519384620039db565b81835289526020808a20908a9084015b83821062002bf1575050505060019282602092604060069501526003860154606082015262002bb46004870162004023565b608082015260ff6005870154818116151560a0840152818160081c16151560c084015260101c16151560e082015281520192019201919062002987565b6009602060019260405162002c06816200394e565b8654815262002c2260ff86890154818116620022e98162003b56565b62002c306002880162003f35565b608082015262002c436003880162004282565b60a082015281520193019101909162002b82565b5034620001c4576020366003190112620001c4576020906040906001600160a01b0362002c83620038eb565b1681526201388583522054604051908152f35b5034620001c45780600319360112620001c4576202712680546001600160a01b0319163317905562027129805460ff19166001908117909155604051909190819062002ce281620039a3565b5290620138828054600082558062002ff0575b508252818060405162002d0881620039a3565b5262002fdc57620138838054600082558062002f5d575b5082526127106202712a556040519162002d398362003987565b818352805b60208082101562002db4576040516020929162002d5b826200394e565b8482528481830152846040830152606085818401526080908082850152806040519262002d88846200394e565b8184528185850152816040850152818085015283015260a0908183015283015282870101520162002d3e565b828462002f4d8760405162002dc981620039a3565b84815260405162002dda81620039a3565b85815260405162002deb81620039a3565b86815260405162002dfc81620039a3565b87815260405162002e0d81620039a3565b8881526040519162002e1f83620039a3565b8983526040519362002e3185620039a3565b8a85526040519562002e43876200394e565b8652602086015260408501526060840152608083015260a08201526040519162002e6d836200394e565b86835260036020840152866040840152866060840152608083015260a082015262002e988262005807565b5262002ea48162005807565b5062002efb60405162002eb7816200396a565b6004815284602082015282604082015285606082015260405162002edb81620039a3565b86815260808201528460a08201528460c08201528460e082015262006449565b6040519062002f0a826200396a565b60028252836020830152604082015283606082015260405162002f2d81620039a3565b84815260808201528260a08201528260c08201528360e082015262006496565b6113886201388b556201388c5580f35b92506006838102938185040362002fc65760009382855260208520908101905b81811062002f8d57505062002d1f565b8086849255868682015562002fa56002820162005bc3565b86600382015562002fb960048201620059c7565b8660058201550162002f7d565b634e487b7160e01b600052601160045260246000fd5b634e487b7160e01b82526041600452602482fd5b92506006838102938185040362002fc65760009382855260208520908101905b8181106200302057505062002cf5565b80868492558686820155620030386002820162005bc3565b8660038201556200304c60048201620059c7565b8660058201550162003010565b5034620001c45780600319360112620001c4576020604051338152f35b5034620001c45780600319360112620001c45760206202712d54604051908152f35b5034620001c4576020366003190112620001c457600435906127108210156200157e576200049b620030d060048460031b0162003f8a565b6040519182918262003ab6565b5034620001c45780600319360112620001c4576040516201388180548083529083526020808301937fcd6f7cece5c70f73af31bb8ed8b80ae1c2a9e5eb261bd5ab2d9374b0c38719c892915b82821062003144576200049b85620030d081890382620039db565b83546001600160a01b03168652948501946001938401939091019062003129565b5034620001c45760209081600319360112620001c45760409062003188620038eb565b816060845162003198816200391c565b82815286810183905285810182905201526001600160a01b031681526201388083522060405190620031ca826200391c565b6200323481549160ff83161515845260ff8585019360081c16151583526002620031f76001830162004023565b916040860192835201549260608501938452604051958695818752511515908601525115156040850152516080606085015260a084019062003b2f565b905160808301520390f35b5034620001c45780600319360112620001c45760206202712e54604051908152f35b5034620001c4576020366003190112620001c457600435906127108210156200157e576020620032aa620032a2846200150460028260031b0154916200675a565b919062006502565b604051908152f35b5034620001c45780600319360112620001c4576201388b546200330f620032d862014f67565b91620032ea61271093848310620057c4565b620033046201388e546201388c5411156200046462014fd5565b6201388d54620065f0565b90506200331b6201502b565b50825b82811062003341575b60206200333785858504620068aa565b9050604051908152f35b909260ff60078360031b015416156200338b57816200337562003381926200336e6200046b96956200656f565b906200681c565b9490620004646201502b565b929091926200331e565b929062003327565b5034620001c4576020366003190112620001c4576020620033b660043562014837565b620033c5604051809262003afc565bf35b5034620001c45780600319360112620001c4576040516201388680548083529083526020808301937f4b58a51c867b7b693aaefb0acd6b55f4e7286e8436d34ab3cc63a1f2bfa35aa492915b8282106200342e576200049b85620030d081890382620039db565b83546001600160a01b03168652948501946001938401939091019062003413565b5034620001c4576040366003190112620001c4576004356024356001600160a01b03811690819003620014c557612710821015620034a1579160036040926020948352811b0183522054604051908152f35b634e487b7160e01b83526032600452602483fd5b5034620001c45780600319360112620001c4576040516201388880548083529083526020808301937ff9ab3ee50aab7a7cf5b7d30204dd21b5da7cc33690a7aec17b3653a822a635df92915b8282106200351c576200049b85620030d081890382620039db565b83546001600160a01b03168652948501946001938401939091019062003501565b5034620001c45780600319360112620001c457602060ff62027129541660405190620035698162003a95565b8152f35b5034620001c4576040366003190112620001c4576200358b620038eb565b60249081356001600160401b038111620038c757620035af90369060040162003a25565b91600260ff620271295416620035c58162003a95565b0362003887576202712d54421015620038495760018060a01b0382168085526202712c92602093808552604087206202712e91825491828a52875260ff60408a2054166200380b57875194828a526202712b95868952600260408c20015403620037a5578952865260408820908852855260408720956001968760ff198254161790558688905b62003655578880f35b8151811015620037a1576200366b81836200584d565b51156200371b578254808a52858852620036c088620008f3848d60406003918c620036b28d6200336e87620036a5818989892001620066dd565b905490891b1c92620146e3565b9790998352522001620066dd565b15620036d857620036d190620057f7565b876200364c565b60405162461bcd60e51b815260048101889052601c818801527b766f74696e6720666f7220706f776572596573206f766572666c6f7760201b6044820152606490fd5b8254808a528588526200374e88620008f3848d60406003918c620036b28d6200336e87620036a5818989892001620066dd565b156200375f57620036d190620057f7565b60405162461bcd60e51b815260048101889052601b818801527a766f74696e6720666f7220706f7765724e6f206f766572666c6f7760281b6044820152606490fd5b8880f35b60405162461bcd60e51b8152600481018990526039818901527f746865206e756d626572206f6620766f74657320646f6573206e6f74206d6174604482015278636820746865206e756d626572206f6620706f6c696369657360381b6064820152608490fd5b60405162461bcd60e51b815260048101889052601781880152761d9bdd195c881a185cc8185b1c9958591e481d9bdd1959604a1b6044820152606490fd5b60649060176040519162461bcd60e51b835260206004840152820152761d9bdd1a5b99c81c195c9a5bd9081a185cc8195b991959604a1b6044820152fd5b60649060196040519162461bcd60e51b83526020600484015282015278766f74696e67206973206e6f7420696e2070726f677265737360381b6044820152fd5b8380fd5b9050346200049f57816003193601126200049f5760209062027127548152f35b600435906001600160a01b03821682036200390257565b600080fd5b35906001600160a01b03821682036200390257565b608081019081106001600160401b038211176200393857604052565b634e487b7160e01b600052604160045260246000fd5b60c081019081106001600160401b038211176200393857604052565b61010081019081106001600160401b038211176200393857604052565b604081019081106001600160401b038211176200393857604052565b602081019081106001600160401b038211176200393857604052565b606081019081106001600160401b038211176200393857604052565b601f909101601f19168101906001600160401b038211908210176200393857604052565b6001600160401b038111620039385760051b60200190565b359081151582036200390257565b81601f82011215620039025780359162003a3f83620039ff565b9262003a4f6040519485620039db565b808452602092838086019260051b82010192831162003902578301905b82821062003a7b575050505090565b83809162003a898462003a17565b81520191019062003a6c565b6004111562003aa057565b634e487b7160e01b600052602160045260246000fd5b6020908160408183019282815285518094520193019160005b82811062003ade575050505090565b83516001600160a01b03168552938101939281019260010162003acf565b90600382101562003aa05752565b60005b83811062003b1e5750506000910152565b818101518382015260200162003b0d565b9060209162003b4a8151809281855285808601910162003b0a565b601f01601f1916010190565b6005111562003aa057565b90815180825260208080930193019160005b82811062003b82575050505090565b83518552938101939281019260010162003b73565b90815180825260208080930193019160005b82811062003bb8575050505090565b83516001600160a01b03168552938101939281019260010162003ba9565b90815180825260208092019182818360051b85019501936000915b84831062003c025750505050505090565b909192939495848062003c1e83856001950387528a5162003b2f565b980193019301919493929062003bf1565b90815180825260208092019182818360051b82019501936000915b84831062003c5b5750505050505090565b909192939495848062003c7783856001950387528a5162003b61565b980193019301919493929062003c4a565b90815180825260208092019182818360051b82019501936000915b84831062003cb45750505050505090565b909192939495848062003cd083856001950387528a5162003b97565b980193019301919493929062003ca3565b9060208251918281520190819060208160051b84019401926000905b82821062003d0d57505050505090565b909192939481810385528551906101008082018351600681101562003aa057835260208401516020840152604084015191604084015281518091526101206020818501918360051b86010193019160005b81811062003dc8575050505060019260209262003d94849360608085015190840152608080850151908483039085015262003b2f565b9160a08082015115159083015260c08082015115159083015260e08091015115159101529701950192019092919262003cfd565b9091929361011f9c9b9c1986820301845284519081518152602082015162003df08162003b56565b6020820152604082015162003e058162003a95565b60408201526060820151603d81101562003aa057606082015260a062003e3b608084015160c0608085015260c084019062003b61565b9201519060a081840391015260a062003eba62003ea762003e9462003e8162003e6e865160c0895260c089019062003b61565b602087015188820360208a015262003b97565b6040860151878203604089015262003bd6565b6060850151868203606088015262003c2f565b6080840151858203608087015262003c88565b9101519160a081830391015281519081815260208101906020808460051b8301019401926000915b81831062003f075750505050506020806001929e9d9e96019401910191909162003d5e565b909192939460208062003f27600193601f19868203018952895162003bd6565b970195019301919062003ee2565b9060405191828154918282526020928383019160005283600020936000905b82821062003f6f5750505062003f6d92500383620039db565b565b85548452600195860195889550938101939091019062003f54565b9060405191828154918282526020928383019160005283600020936000905b82821062003fc25750505062003f6d92500383620039db565b85546001600160a01b03168452600195860195889550938101939091019062003fa9565b90600182811c9216801562004018575b60208310146200400257565b634e487b7160e01b600052602260045260246000fd5b91607f169162003ff6565b9060405191826000825492620040398462003fe6565b908184526001948581169081600014620040ae575060011462004067575b505062003f6d92500383620039db565b9093915060005260209081600020936000915b8183106200409557505062003f6d9350820101388062004057565b855488840185015294850194879450918301916200407a565b91505062003f6d94506020925060ff191682840152151560051b820101388062004057565b908154620040e181620039ff565b92620040f16040519485620039db565b818452600090815260208082208186015b84841062004111575050505050565b6001838192620041218562004023565b81520192019301929062004102565b60405190919060e081016001600160401b03811182821017620039385760405260c060ff60068395620041638162003f35565b855260018101546020860152600281015460408601526003810154606086015282600482015416151560808601526200419f6005820162004023565b60a08601520154161515910152565b600682101562003aa05752565b603d82101562003aa05752565b908154620041d681620039ff565b92620041e66040519485620039db565b818452600090815260208082208186015b84841062004206575050505050565b6001838192620042168562003f35565b815201920193019290620041f7565b9081546200423381620039ff565b92620042436040519485620039db565b818452600090815260208082208186015b84841062004263575050505050565b6001838192620042738562003f8a565b81520192019301929062004254565b906040519162004292836200394e565b826200429e8262003f35565b815260016005620042b182850162003f8a565b9360209485850152620042c760028201620040d3565b6040850152620042da60038201620041c8565b6060850152620042ed6004820162004225565b6080850152018054906200430182620039ff565b94620043116040519687620039db565b82865260009182528082208187015b848410620043345750505050505060a00152565b858381926200434385620040d3565b81520192019301929062004320565b906020604082019260018060a01b0381511683520151916040602083015282518091526060820190602060608260051b8501019401926000905b8282106200439c57505050505090565b9091929394605f19828203018552855160018060a01b038151168252602081015190602782101562003aa0576040916020840152015190606060408201526200442a62004413620043fc8451610120606086015261018085019062003b61565b6020850151848203605f1901608086015262003b97565b6040840151838203605f190160a085015262003bd6565b606083015190605f198382030160c0840152602080835192838152019201906000905b808210620047d157505050608083015190605f198382030160e0840152815180825260208201906020808260051b85010194019260005b8281106200474d57505050505060a083015190605f1983820301610100840152815190818152602081016020808460051b8401019401926000925b8184106200456f57505050505060c083015190605f1983820301610120840152602080835192838152019201906000905b8082106200454b575050506200453d8360209361010062004526869560e06001990151605f198583030161014086015262003c2f565b92015190610160605f198285030191015262003c88565b97019501939201906200438c565b9091926020806001928651620045618162003b56565b8152019401920190620044f0565b9091929394601f9d9c9d198282030184528551908151600681101562003aa0578152602082015160208201526040820151610100604083015261010082018151809152610120830160206101208360051b8601019301916000905b8082106200463557505050509d9e9d8260209260e0806200460586956060600199015160608601526080860151858203608087015262003b2f565b9360a0810151151560a085015260c0810151151560c08501520151151591015297019401940192939190620044bf565b9091929361011f198682030184528451908151815260208201516200465a8162003b56565b602082015260408201516200466f8162003a95565b60408201526060820151603d81101562003aa057606082015260a0620046a5608084015160c0608085015260c084019062003b61565b9201519060a081840391015260a0620046d862003ea762003e9462003e8162003e6e865160c0895260c089019062003b61565b9101519160a0818303910152815180825260208201906020808260051b8501019401926000915b8083106200471f57505050505060208060019296019401920190620045ca565b90919293946020806200473f600193601f19878203018952895162003bd6565b9701950193019190620046ff565b9091929394602080600192601f1986820301885288519060c080620047bb62004780855160e0865260e086019062003b61565b8686015187860152604086015160408601526060860151606086015260808601511515608086015260a086015185820360a087015262003b2f565b9301511515910152970195019392910162004484565b9091926020806001928651151581520194019201906200444d565b81601f8201121562003902578035916200480683620039ff565b92620048166040519485620039db565b808452602092838086019260051b82010192831162003902578301905b82821062004842575050505090565b8135815290830190830162004833565b81601f8201121562003902578035916200486c83620039ff565b926200487c6040519485620039db565b808452602092838086019260051b82010192831162003902578301905b828210620048a8575050505090565b838091620048b68462003907565b81520191019062004899565b81601f8201121562003902578035906001600160401b038211620039385760405192620048fa601f8401601f191660200185620039db565b828452602083830101116200390257816000926020809301838601378301015290565b9080601f8301121562003902578135906200493882620039ff565b92620049486040519485620039db565b828452602092838086019160051b830101928084116200390257848301915b848310620049785750505050505090565b82356001600160401b038111620039025786916200499c84848094890101620048c2565b81520192019162004967565b9080601f830112156200390257813590620049c382620039ff565b92620049d36040519485620039db565b828452602092838086019160051b830101928084116200390257848301915b84831062004a035750505050505090565b82356001600160401b0381116200390257869162004a2784848094890101620047ec565b815201920191620049f2565b9080601f83011215620039025781359062004a4e82620039ff565b9262004a5e6040519485620039db565b828452602092838086019160051b830101928084116200390257848301915b84831062004a8e5750505050505090565b82356001600160401b0381116200390257869162004ab28484809489010162004852565b81520192019162004a7d565b9190826040918161084052806108c0520312620039025760408051929083016001600160401b03811184821017620039385760405262004aff839162003907565b83526108405160208101356109408190526001600160401b03811162003902576108c051910190601f820112156200390257359162004b3e83620039ff565b62004b4d6040519182620039db565b838152602081016107c0526108c0516109405161084051019060208660051b830101116200390257602090959392949501915b61094051610840510160208760051b820101841015620056b4578335906001600160401b03821162003902578181016108a0526060601f198383016108c05103011262003902576040516109208190529160608301906001600160401b0382118483101762004f0e5762004bfc92602092604052010162003907565b905260406108a05101356027811015620039025761092051602001526108a05160608101356109008190526001600160401b031062003902576108c051610120606083013583018203601f19011262003902576040516107e08190526001600160401b0361012082019081119082111762004f0e57610120016040526001600160401b03606083013583016020013511620039025762004cac9160608101350160208181013590910101620047ec565b6107e05152610900516108a051016040810135906001600160401b0382116200390257602062004ce3926108c05192010162004852565b6107e05160200152610900516108a051016001600160401b0360608201351162003902576108c05162004d1f916060810135016020016200491d565b6107e05160400152610900516108a051016080810135906001600160401b0382116200390257602062004d59926108c05192010162003a25565b6107e05160600152610900516108a05101936001600160401b0360a08601351162003902576108c051603f60a08701358701011215620039025762004da8602060a087013587010135620039ff565b9562004db86040519788620039db565b60a0860135808701602090810135808a526108c051610900516108a051938c01989493019092019160059190911b8201604001116200390257604001945b610900516108a0510160a08901359081019089016020013560051b810160400187101562004f23578635906001600160401b038211620039025701906108c0519060e09182603f1985830301126200390257604051908382016001600160401b0381118382101762004f0e576040908152850135906001600160401b0382116200390257604062004e8a92870101620047ec565b8152606084013560208201526080840135604082015260a0840135606082015260c09262004eba84860162003a17565b6080830152840135926001600160401b038411620039025762004efe61010060209662004ef2889760406108c05191840101620048c2565b60a08601520162003a17565b9082015281520195019462004df6565b60246000634e487b7160e01b81526041600452fd5b50509497935094509460806107e0510152610900516108a0510160c08101356108005260018060401b0360c08201351162003902576108c0519060c08101350190603f82011215620039025762004f87602062004f959201358061086052620039ff565b6040518061088052620039db565b6108805161086051905260206108805101610960526108c0516108605160051b90604061080051610900516108a0510101928301011162003902576040016109805292939092905b6108605160051b61080051610900516108a05101019060406109805191830101811015620055235780356108208190526001600160401b03106200390257610100603f19823584016108c05103011262003902576040516108e0819052916101008301916001600160401b0383118484101762004f0e5760409283523501013590600682101562003902575260606108205161080051610900516108a051010101013560206108e05101526108205161080051610900516108a0510101019460018060401b0360808701351162003902576108c051605f608088013588010112156200390257620050ea620050dc6040608089013589010135620039ff565b604051806109a052620039db565b6109a080516080880135808901604001359182905291516108c0516108205161080051610900516108a0516020959095019a96940101019091019160051b8201606001116200390257606001945b6108205161080051610900516108a05101010160808901359081019089016040013560051b810160600187101562005408578635906001600160401b038211620039025701605f1960c081836108c0510301126200390257604051916200519f836200394e565b60608101358352608081013560058110156200390257602084015260a081013560048110156200390257604084015260c0810135603d8110156200390257606084015260e08101356001600160401b03811162003902576108c0516200520a918301606001620047ec565b6080840152610100810135916001600160401b038311620039025760c0908383016108c05103011262003902576040519162005246836200394e565b818101606001356001600160401b03811162003902576108c051620052729184840101606001620047ec565b8352818101608001356001600160401b03811162003902576108c051620052a0918484010160600162004852565b602084015281810160a001356001600160401b03811162003902576108c051620052d191848401016060016200491d565b604084015281810160c001356001600160401b03811162003902576108c051620053029184840101606001620049a8565b60608401526001600160401b0382820160e001351162003902576108c051620053379083830160e08101350160600162004a33565b60808401528181016101000135906001600160401b03821162003902576108c05192010190607f8201121562003902576060810135906200537882620039ff565b91620053886040519384620039db565b808352602083019160806108c0519260051b820101918211620039025760808101925b828410620053d2575050505060a08083019190915282015281526020958601950162005138565b83356001600160401b0381116200390257602091620053fc839260806108c051918701016200491d565b815201930192620053ab565b5050935093919094506109a05160406108e051015260a06108205161080051610900516108a051010101013560606108e05101526108205161080051610900516108a05101010160018060401b0360c08201351162003902576108c051620054799160c081013501604001620048c2565b60806108e051015260e0620054a2816108205161080051610900516108a0510101010162003a17565b60a06108e0510152620054cb6101006108205161080051610900516108a0510101010162003a17565b60c06108e0510152620054f46101206108205161080051610900516108a0510101010162003a17565b906108e05101526108e05161096051526020610960510161096052602061098051016109805290929362004fdd565b5050610880516107e05160a00152610900516108a05193969495929301906001600160401b0360e08301351162003902576108c0519560e0830135830196603f8801121562003902576200557b6020880135620039ff565b946200558b6040519687620039db565b6020888101358088526108c051610900516108a051938a0198930160e0880135019160051b8201604001116200390257604001955b604060208b013560051b60e0880135610900516108a05101010101871015620055ff5760058735101562003902578635815260209687019601620055c0565b509592989450959250955060c06107e0510152610900516108a051019061010091828101359060018060401b0382116200390257602062005647926108c051920101620049a8565b6107e05160e00152610900516108a05101916101208301356001600160401b03811162003902576108c051602094620056839201850162004a33565b906107e05101526107e0516040610920510152610920516107c05152816107c051016107c052019193949262004b80565b50945091602091500152565b9062003f6d604560405180947f496e76616c69642070726f6772616d20616464726573732e204d73672e73656e60208301526403232b91d160dd1b604083015262005715815180926020868601910162003b0a565b8101036025810185520183620039db565b9062003f6d6040805180947f2c20616e642070726f6772616d206f70657261746f7220616464726573733a2060208301526200576c815180926020868601910162003b0a565b8101036020810185520183620039db565b602062003f6d919392936040519481620057a1879351809286808701910162003b0a565b8201620057b78251809386808501910162003b0a565b01038085520183620039db565b15620057cd5750565b60405162461bcd60e51b815260206004820152908190620057f390602483019062003b2f565b0390fd5b600019811462002fc65760010190565b805115620058155760200190565b634e487b7160e01b600052603260045260246000fd5b805160011015620058155760400190565b805160021015620058155760600190565b8051821015620058155760209160051b010190565b906200586e82620039ff565b6040906200587f82519182620039db565b838152809362005892601f1991620039ff565b019160005b838110620058a55750505050565b6020908251620058b5816200396a565b6000815282600081830152606080868401526000818401526080830152600060a0830152600060c0830152600060e083015282860101520162005897565b818110620058ff575050565b60008155600101620058f3565b805460008255806200591c575050565b62003f6d91600052602060002090810190620058f3565b90600160401b811162003938578154908083558181106200595357505050565b62003f6d9260005260206000209182019101620058f3565b600160401b811162003938576202711b908154908083558181106200595357505050565b62013891805460008255806200591c575050565b600160401b8111620039385762013888908154908083558181106200595357505050565b620059d3815462003fe6565b9081620059de575050565b81601f60009311600114620059f1575055565b8183526020832062005a0f91601f0160051c810190600101620058f3565b8160208120915555565b805490600081558162005a2a575050565b6000526020600020908101905b81811062005a43575050565b8062005a51600192620059c7565b0162005a37565b90600160401b8111620039385781549181815582821062005a7857505050565b600052602060002091820191015b81811062005a92575050565b8062005aa0600192620059c7565b0162005a86565b805490600081558162005ab8575050565b6000526020600020908101905b81811062005ad1575050565b8062005adf6001926200590c565b0162005ac5565b90600160401b8111620039385781549181815582821062005b0657505050565b600052602060002091820191015b81811062005b20575050565b8062005b2e6001926200590c565b0162005b14565b805490600081558162005b46575050565b6000526020600020908101905b81811062005b5f575050565b8062005b6d60019262005a19565b0162005b53565b90600160401b8111620039385781549181815582821062005b9457505050565b600052602060002091820191015b81811062005bae575050565b8062005bbc60019262005a19565b0162005ba2565b805460008083558162005bd557505050565b600992828402928484040362005c7257815260208120918201915b82811062005bfe5750505050565b808285925582600182015562005c17600282016200590c565b62005c25600382016200590c565b62005c33600482016200590c565b62005c416005820162005a19565b62005c4f6006820162005aa7565b62005c5d6007820162005aa7565b62005c6b6008820162005b35565b0162005bf0565b634e487b7160e01b82526011600452602482fd5b600160401b8211620039385780549082815581831062005ca557505050565b600992828402928484040362002fc657808402908482040362002fc65760009182526020822092830192015b82811062005cdf5750505050565b808285925582600182015562005cf8600282016200590c565b62005d06600382016200590c565b62005d14600482016200590c565b62005d226005820162005a19565b62005d306006820162005aa7565b62005d3e6007820162005aa7565b62005d4c6008820162005b35565b0162005cd1565b51600681101562003aa05790565b90600681101562003aa05760ff80198354169116179055565b9062005d868162003b56565b60ff80198354169116179055565b9062005da08162003a95565b61ff0082549160081b169061ff001916179055565b90603d81101562003aa05762ff000082549160101b169062ff00001916179055565b9190601f811162005de757505050565b62003f6d926000526020600020906020601f840160051c8301931062005e16575b601f0160051c0190620058f3565b909150819062005e08565b81519192916001600160401b038111620039385762005e4d8162005e46845462003fe6565b8462005dd7565b602080601f831160011462005e8c57508192939460009262005e80575b50508160011b916000199060031b1c1916179055565b01519050388062005e6a565b90601f198316958460005282600020926000905b88821062005edb5750508360019596971062005ec1575b505050811b019055565b015160001960f88460031b161c1916905538808062005eb7565b8060018596829496860151815501950193019062005ea0565b9060ff801983541691151516179055565b9061ff00825491151560081b169061ff001916179055565b9062ff0000825491151560101b169062ff00001916179055565b8151600681101562003aa05762005f4f908262005d61565b60208201516001820155600281016040830151602081519162005f73838562005c86565b01916000526020600020916000905b82821062005fe657505050509060e0600562003f6d936060840151600382015562005fb560808501516004830162005e21565b019162005fc960a082015115158462005ef4565b62005fdb60c082015115158462005f05565b015115159062005f1d565b805180518555600185016200600b6020830151620060048162003b56565b8262005d7a565b6200602660408301516200601f8162003a95565b8262005d94565b6060820151603d81101562003aa057620060409162005db5565b60808101518051906001600160401b0382116200393857602090620060698360028a0162005933565b0160028701600052602060002060005b83811062006378575050505060a0015180518051906001600160401b038211620039385760206003880191620060b0848462005933565b0190600052602060002060005b83811062006363575050505060208101518051906001600160401b038211620039385760206004880191620060f3848462005933565b0190600052602060002060005b83811062006345575050505060058501604082015190602082519262006127848462005a58565b01906000526020600020906000905b83821062006325575050505060068501606082015160208151916200615c838562005ae6565b019160005260206000206000925b828410620062c15750505050600785016080820151602081519162006190838562005ae6565b019160005260206000206000925b82841062006254575050505060a060088601910151906020825192620061c5848462005b74565b01906000526020600020906000905b838210620061f45750505050600960206001920194019101909262005f82565b8051602081519162006207838762005a58565b018460005260206000206000915b83831062006234575050505060016020819201930191019091620061d4565b6001602082620062478394518662005e21565b0192019201919062006215565b80518051906001600160401b038211620039385760209062006277838662005933565b0183600052602060002060005b838110620062a35750505050600160208192019201930192906200619e565b82516001600160a01b03168183015560209092019160010162006284565b80518051906001600160401b0382116200393857602090620062e4838662005933565b0183600052602060002060005b838110620063105750505050600160208192019201930192906200616a565b600190602084519401938184015501620062f1565b6001602082620063388394518762005e21565b0193019101909162006136565b82516001600160a01b03168183015560209092019160010162006100565b600190602084519401938184015501620060bd565b60019060208451940193818401550162006079565b906200639982620039ff565b620063a86040519182620039db565b8281528092620063bb601f1991620039ff565b0190602036910137565b62013883805482101562005815576000526006602060002091020190600090565b62027116805482101562005815576000526006602060002091020190600090565b62013882805482101562005815576000526006602060002091020190600090565b62027115805482101562005815576000526006602060002091020190600090565b620138828054600160401b81101562003938576200646d9160018201905562006407565b919091620064805762003f6d9162005f37565b634e487b7160e01b600052600060045260246000fd5b620138838054600160401b81101562003938576200646d91600182019055620063c5565b620271168054600160401b81101562003938576200646d91600182019055620063e6565b620271158054600160401b81101562003938576200646d9160018201905562006428565b156200650a57565b60405162461bcd60e51b815260206004820152603760248201527f73756d4469766964656e64576569676874466f72546f6b656e436c6173733a206044820152766469766964656e64576569676874206f766572666c6f7760481b6064820152608490fd5b6127108110156200581557620032a281620015046002620065969460031b0154916200675a565b90565b8115620065a4570490565b634e487b7160e01b600052601260045260246000fd5b908115620065e7576064620065d3818402938462006599565b03620065df5760019190565b600091508190565b60019150600090565b919082156200660857620065d3818402938462006599565b5060019150600090565b620138868054821015620058155760005260206000200190600090565b620138818054821015620058155760005260206000200190600090565b6202711d8054821015620058155760005260206000200190600090565b6201388a8054821015620058155760005260206000200190600090565b620271198054821015620058155760005260206000200190600090565b6202711b8054821015620058155760005260206000200190600090565b620138888054821015620058155760005260206000200190600090565b8054821015620058155760005260206000200190600090565b15620066fe57565b60405162461bcd60e51b815260206004820152602e60248201527f746f74616c546f6b656e73506572546f6b656e436c6173733a20746f74616c5460448201526d6f6b656e73206f766572666c6f7760901b6064820152608490fd5b61271081101590816200581557600390811b906004928383019182549260009582879601935b85871062006792575050505050505090565b979690919293949597620067f457620067e888620067e0620067ba6200046b9a9b87620066dd565b905490881b1c6001600160a01b031660009081526020899052604081205490946200681c565b9990620066f6565b95949392919062006780565b603282634e487b7160e01b6000525260246000fd5b9060018201918210620065df5760019190565b91908201918210620065df5760019190565b6201388b5462006841620032d862014f67565b9190506200684e6201502b565b5060009081925b81841062006870575b6200686b935004620068aa565b905090565b9160ff60078560031b01541615620068a35783620033756200689c926200336e6200046b96976200656f565b9262006855565b916200685e565b908015620068c257620068bd9162006599565b600191565b5050600090600090565b62013891805490600160401b82101562003938576001820180825582101562005815576000908152602090200180546001600160a01b0319166001600160a01b03909216919091179055565b6201388f805490600160401b82101562003938576001820180825582101562005815576000908152602090200180546001600160a01b0319166001600160a01b03909216919091179055565b6201388180549190600160401b8310156200393857826200698f91600162003f6d950190556200662f565b9080546001600160a01b0360039390931b83811b80199092169390941690931b909216179055565b60405190620069c68262003987565b60188252772a343290383937b3b930b69034b99032bc32b1baba32b21760411b6020830152565b600091825b6020808401908151805187101562006b83578162006a158862006a1d936200584d565b510162007174565b6027928382101562003aa057601a91820362006adb578762006a4091516200584d565b5192828401519081101562003aa0570362006a9957509362006a8a62006a929262006a8262006a7b60e060406200046b9a0151015162005807565b5162005807565b51906200681c565b959062007182565b92620069f2565b6064906040519062461bcd60e51b82526004820152601b60248201527a2a34329037b831b7b2329034b9903737ba102820acafa1a0a9a41760291b6044820152fd5b9291905062006af48162006a1589869a979a516200584d565b8281101562003aa05760140362006b2d5750509062006a8a6200046b956200336e62006b268462006a9296516200584d565b51620071cf565b62006b3f9062006a158585516200584d565b9081101562003aa05760151462006b5d575b5062006a9290620057f7565b9062006a8a62006b7c956200336e62006b268462006a9296516200584d565b9062006b51565b50505090925080341060001462006bf95760405162461bcd60e51b815260206004820152603760248201527f546865207061796d656e74206973206e6f7420656e6f7567682e205468652074604482015276037ba30b6103830bcb6b2b73a1039b437bab6321031329604d1b6064820152608490fd5b80341162006fcf575b5062027129805460ff811662006c188162003a95565b6001810362006c4e575050508062006c3e62006c3862006c449362007276565b6200728b565b62007315565b62006596620069b7565b62006c598162003a95565b60028114808062006fc1575b1562006d4a575050505062006c7a8162007276565b1562006d0b5762006c8b8162007276565b1562006ccf5762006c9c9062007315565b60405162006caa8162003987565b60158152742a3432903b37ba329034b99032bc32b1baba32b21760591b602082015290565b60405162461bcd60e51b8152602060048201526014602482015273496e76616c696420766f74652070726f6772616d60601b6044820152606490fd5b60405162461bcd60e51b815260206004820152601760248201527624b73b30b634b2103b37ba34b73390383937b3b930b69760491b6044820152606490fd5b62006d558262003a95565b6003821491828062006fb3575b1562006e4057505050505062006d788162007276565b1562006df0578062006c3e62006c3862006d929362007276565b60405162006da081620039bf565b603a81527f5468652070656e64696e672070726f6772616d2069732065786563757465642060208201527930b33a32b9103b37ba34b7339030b7321030b8383937bb30b61760311b604082015290565b60405162461bcd60e51b815260206004820152602260248201527f496e76616c696420657865637574696e672070656e64696e672070726f677261604482015261369760f11b6064820152608490fd5b62006e4b8162003a95565b818062006fa4575b8062006f96575b1562006e8457505050509062006c4491600360ff1982541617905562006c3e62006c388262007276565b62006e8f8162003a95565b821562006f81575b50508062006f72575b62006ed95750505060405162006eb68162003987565b6013815272283937b3b930b6903a32b936b4b730ba32b21760691b602082015290565b60ff1916600117905562006eed8162007276565b1562006f07578062006c3e62006c3862006c449362007276565b60405162461bcd60e51b815260206004820152603e60248201527f5b4572726f72203030335d5468652070726f6772616d206973206e6f7420612060448201527f76616c696420657865637574652070656e64696e672070726f6772616d2e00006064820152608490fd5b50620271285442101562006ea0565b62006f8e91925062003a95565b388062006e97565b506202712854421062006e5a565b50620271275442101562006e53565b506202712854421062006d62565b506202712754421062006c65565b60018060a01b03908183511660005262013885908160205260406000205415620070c6575b6200700090346200715a565b90156200708257620070239083855116600052826020526040600020546200681c565b92901562007041578351166000526020526040600020553862006c02565b60405162461bcd60e51b81526020600482015260196024820152782a3432903732bb903130b630b731b29037bb32b9333637bb9760391b6044820152606490fd5b60405162461bcd60e51b815260206004820152601c60248201527b2a3432903830bcb6b2b73a103932ba3ab9371037bb32b9333637bb9760211b6044820152606490fd5b6000908162013886928354915b8281106200711f575b5015620070ed575b50905062006ff4565b85518516600160401b82101562003938576200698f8262007000956001620071189501905562006612565b38620070e4565b866200712b8262006612565b919054818b51169260031b1c16146200714f576200714990620057f7565b620070d3565b5050600138620070dc565b91908281116200716b576001920390565b50600091508190565b51602781101562003aa05790565b156200718a57565b60405162461bcd60e51b815260206004820152601f60248201527f54686520746f74616c207061796d656e7420697320746f6f206c617267652e006044820152606490fd5b6000805b604083019060e0620071e981845101516200582b565b51518410156200726e576200720e846200720783865101516200582b565b516200584d565b51925101519283516002101562005815576200725d6200725762007265936200724f604096620072478660606200046b9b01516200584d565b5190620065f0565b929062007182565b6200681c565b949062007182565b919050620071d3565b509250505090565b6020015151156200728657600190565b600090565b156200729357565b60405162461bcd60e51b815260206004820152600f60248201526e496e76616c69642070726f6772616d60881b6044820152606490fd5b60809060208152602a60208201527f5468652070726f6772616d2069732064656e6965642062792074686520706c7560408201526967696e2073797374656d60b01b60608201520190565b620073208162012aaf565b516201252457600681101562003aa05760038114620124cb57806200737d5760405162461bcd60e51b8152602060048201526016602482015275151a19481c1c9bd9dc985b481a5cc81a5b9d985b1a5960521b6044820152606490fd5b600481036200a1a95750906000905b602083015180518310156200a1a35782620073a7916200584d565b516020810180516027908181101562003aa057156200a1605781518181101562003aa057600103620075f6575050604080910190620073ec6101008351015162005807565b51926200740e60e062007403818651015162005807565b51945101516200582b565b51956200741f855185511462013d84565b6200742e855188511462013dea565b60005b855181101562007574576200744781866200584d565b5161271090818110156200581557600160ff60076200746f9360031b01541615151462013e4c565b6200747b828a6200584d565b516200748883886200584d565b51908282101562005815576006620074a69260031b0154906200681c565b90620074b384896200584d565b51918383101562005815576006620074d09360031b015562013ea4565b620074dc828a6200584d565b5190620074ea83886200584d565b518181101562005815576001600160a01b0393926200752a916003908662007513878e6200584d565b5116600052811b016020528760002054906200681c565b62007536848a6200584d565b5192831015620058155760036200046b936200756e9662007558878e6200584d565b5116600052811b01602052876000205562013f03565b62007431565b50939262007591919296506200758a9062014e69565b9262014d4d565b9451926200759f84620039a3565b60008452600036813760005b8351811015620075d957806200046b620075ca620075d393876200584d565b51878a62014933565b620075ab565b5094509260209250620075ed9150620057f7565b9190506200738c565b81518181101562003aa0576002036200789a57505060408091018051928284015195620076486200762c60e08097015162005807565b51956200763d81865101516200582b565b51945101516200583c565b5193875186510362007847578751845103620077f35787518551036200779c575060005b855181101562007786576200768281876200584d565b519061271091828110156200581557620076a860ff6007809360031b0154161562013f5c565b620076b482896200584d565b5183811015620058155760031b01805460ff19166001179055620076d9818a6200584d565b51620076e682896200584d565b51908382101562005815576005620077029260031b0162005e21565b6200770e81866200584d565b516200771b82896200584d565b5183811015620058155760031b600101556200773881876200584d565b516200774582896200584d565b5183811015620058155760031b600201556200776281886200584d565b5191821015620058155760006006620077809360031b0155620057f7565b6200766c565b50955093905060209250620075ed9150620057f7565b5162461bcd60e51b815260206004820152603c60248201526000805160206201564483398151915260448201527b1b911a5d9a59195b9915d95a59da1d081a5cc81b9bdd08195c5d585b60221b6064820152608490fd5b5162461bcd60e51b81526020600482015260396024820152600080516020620156448339815191526044820152781b959bdd1a5b99d41bddd95c881a5cc81b9bdd08195c5d585b603a1b6064820152608490fd5b5162461bcd60e51b81526020600482015260386024820152600080516020620156448339815191526044820152771b925b99195e105c9c985e481a5cc81b9bdd08195c5d585b60421b6064820152608490fd5b819593949295518181101562003aa05760030362007e945750506040840190620078ca6101008351015162005807565b5193620078e160e062007403818651015162005807565b5193620078f6865185511462000464620150da565b62007909865186511462000464620150da565b60005b865181101562007972576200792281866200584d565b5190612710821015620058155760036200796c9260018060a01b038b5116600052811b016020526200046b6040600020546200795f838a6200584d565b51111562000464620151de565b6200790c565b50909493919460005b855181101562007aa6576200799181866200584d565b5190612710808310156200581557600360018060a01b0393848c5116600052811b01602052620079d4604060002054620079cc84896200584d565b51906200715a565b90620079e1848a6200584d565b5191838310156200581557600362007a1093878f5116600052811b0160205260406000205562000464620151de565b62007a1c82886200584d565b518181101562005815576003908462007a36858c6200584d565b5116600052811b0160205262007a5760406000205462006a8284896200584d565b62007a63848a6200584d565b5192831015620058155760036200046b9362007aa09662007a85878e6200584d565b5116600052811b016020526040600020556200046462015243565b6200797b565b5091509162007abd62007ac4919695949662014e69565b9562014d4d565b926040519462007ad48662003987565b6001865260203681880137516001600160a01b031662007af48662005807565b526000905b865182101562007e7f5762007b0f82886200584d565b516108605262007b2085516200638d565b9660009462007b3088516200638d565b6080528594865b885181101562007c06578a8962007b676001600160a01b0362007b5b85846200584d565b51166108605162014c36565b158062007bc0575b62007b88575b505062007b8290620057f7565b62007b37565b9862007bb59162000b1382859c62007bac62007b829760018060a01b03926200584d565b5116926200584d565b9790508a8962007b75565b50505061271061086051101562005815576001600160a01b0362007be5828b6200584d565b5116600052600361086051811b016020528a89604060002054151562007b6f565b509098949897969291939760005b885181101562007ca75761271061086051101562005815576001600160a01b0362007c40828b6200584d565b5116600052600361086051811b016020526040600020541562007c6f575b62007c6990620057f7565b62007c14565b9962007c699062007c9e906001600160a01b0362007c8e8e8d6200584d565b511662000b13826080516200584d565b9a905062007c5e565b50985096949392919561086051612710811015806104a052620058155760031b600401549662007ce262007cdc878a62013a1c565b6200638d565b996000998a610560525b6104a0516200581557610560518a81101562007da05762007d2162007d3d9160006104a05260046108605160031b01620066dd565b905460805160039290921b1c6001600160a01b03169062014cf8565b1562007d5c575b62007d5261056051620057f7565b6105605262007cec565b99808c62000b1362007d999362007d806105605160046108605160031b01620066dd565b905460039190911b1c6001600160a01b0316926200584d565b9962007d44565b509a939794969299919850946000915b83831062007e4557505050506104a05162005815578051906001600160401b038211620039385760209062007def8360046108605160031b0162005933565b0160046108605160031b01600052602060002060005b83811062007e27575050505062007e1c90620057f7565b909295919562007af9565b82516001600160a01b03168183015560209092019160010162007e05565b62007e789062007e71906001600160a01b0362007e6386866200584d565b511662000b1382896200584d565b92620057f7565b9162007db0565b91945050620075ed91945060209250620057f7565b819593949295518181101562003aa0576004036200811d57505060408092016101009462007ed662007eca878451015162005807565b5196835101516200582b565b519462007eed60e062007403818651015162005807565b519362007f02885188511462000464620150da565b62007f15885185511462000464620150da565b62007f28885186511462000464620150da565b60005b885181101562007f905762007f4181866200584d565b5190612710821015620058155762007f8a916003906001600160a01b0362007f6a848e6200584d565b5116600052811b016020526200046b88600020546200795f838a6200584d565b62007f2b565b50909691959294939660005b8351811015620080d15762007fb281886200584d565b5190612710918281101562005815576001600160a01b03906003908262007fda858a6200584d565b5116600052811b0160205262007ffb8b620079cc848b60002054926200584d565b9062008008848c6200584d565b5191858310156200581557600362008041938562008027888d6200584d565b5116600052811b016020528a6000205562000464620151de565b6200804d828a6200584d565b518381101562005815576003908262008067858b6200584d565b5116600052811b01602052620080888b62006a82848b60002054926200584d565b91905062008097838b6200584d565b51938410156200581557620080cb93600391620080b5858b6200584d565b5116600052811b016020528760002055620057f7565b62007f9c565b5094620080f492975062007abd91939450620080ed9062014e69565b9362014d4d565b9260005b8351811015620075d957806200046b620075ca6200811793876200584d565b620080f8565b819594939551908082101562003aa05760059182036200833357505050604091828501906200816160e062008156818551015162005807565b51935101516200582b565b51928251845103620082e25760005b8351811015620081c8576200818681856200584d565b519061271082101562005815576003620081c29260018060a01b038b5116600052811b016020526200046b87600020546200795f83896200584d565b62008170565b509092919260005b84518110156200826357620081e681866200584d565b5190612710808310156200581557600360018060a01b0393848c5116600052811b01602052620082208860002054620079cc84896200584d565b6200822c848a6200584d565b5192831015620058155760036200046b936200825d968e5116600052811b01602052896000205562000464620151de565b620081d0565b509593926200827491925062014e69565b91805193620082838562003987565b6001855260203681870137516001600160a01b0316620082a38562005807565b525194620082b186620039a3565b60008652600036813760005b8351811015620075d957806200046b620075ca620082dc93876200584d565b620082bd565b845162461bcd60e51b8152602060048201526035602482015260008051602062015624833981519152604482015274195b905b5bdd5b9d081a5cc81b9bdd08195c5d585b605a1b6064820152608490fd5b8296939496518181101562003aa0576006036200859e57505050906040809201620083646101008251015162005807565b51946200837b60e062008156818551015162005807565b519286518351036200854d578651845103620085015760005b8751811015620083f957620083aa81856200584d565b51906127108210156200581557620083f3916003906001600160a01b03620083d3848d6200584d565b5116600052811b016020526200046b87600020546200795f83896200584d565b62008394565b509092919260005b8751811015620084ad576200841781866200584d565b516127108082101562005815576001600160a01b039291600390846200843e858e6200584d565b5116600052811b016020526200845e8860002054620079cc84896200584d565b6200846a848a6200584d565b5192831015620058155760036200046b93620084a7966200848d8f88906200584d565b5116600052811b01602052896000205562000464620151de565b62008401565b509592620084c29192506200758a9062014e69565b925194620084d086620039a3565b60008652600036813760005b8351811015620075d957806200046b620075ca620084fb93876200584d565b620084dc565b845162461bcd60e51b81526020600482015260306024820152600080516020620156c483398151915260448201526f1b9d1cc81a5cc81b9bdd08195c5d585b60821b6064820152608490fd5b845162461bcd60e51b81526020600482015260356024820152600080516020620155c48339815191526044820152741b90db185cdcd95cc81a5cc81b9bdd08195c5d585b605a1b6064820152608490fd5b82518181101562003aa057600703620086f157505050604080910193620085cb6101008651015162005807565b519282620085de60e08851015162005807565b519651015191620085f7855188511462000464620150da565b60005b85518110156200778657620086eb906200046b6001600160a01b0382600288620086d38e620086c88e620086be8f89620086358a856200584d565b511660005262008672896200866a81620138809a8b6020526200866460ff8760002054161562000464620151ab565b6200584d565b51966200584d565b51968a620086a883519b8c9662008689886200391c565b600188526060602089019860008a528781019b8c52019b8c526200584d565b5116600052602052600020975115158862005ef4565b5115158662005f05565b516001850162005e21565b51910155620086e3838a6200584d565b511662006964565b620085fa565b8296959651928184101562003aa0576008938403620087e457505050610100926200872484604080950151015162005807565b519460005b8651811015620087ce57620087c890876001600160a01b03806200874e84846200584d565b51166000526200879f8882620087838662013880968760205262008664600160ff80976000205416151514620004646201510a565b5116600052836020528960002054891c16156200046462015172565b620087ab838b6200584d565b5116600052602052856000208761ff0019825416179055620057f7565b62008729565b50959150935060209250620075ed9150620057f7565b8095939495518281101562003aa057600903620088d35750505062008813610100604080950151015162005807565b519360005b8551811015620088be57620088b890866001600160a01b03806200883d84846200584d565b511660005262008891600189836200887387620138809788602052620086648660ff80976000205416151514620004646201510a565b5116600052846020528a600020548a1c16151514620004646201513d565b6200889d838a6200584d565b51166000526020528560002061ff00198154169055620057f7565b62008818565b509490935060209250620075ed9150620057f7565b8097969492939597518281101562003aa057600a03620089b357505050506040809401916200891960e06200890e6101008651015162005807565b519451015162005807565b51916200892e845184511462000464620150da565b60005b8451811015620075d957620089ad906001600160a01b03806200895583896200584d565b511660005262013880806020526200897d600160ff8c6000205416151514620004646201510a565b6200898983886200584d565b519162008997848a6200584d565b51166000526020526002896000200155620057f7565b62008931565b80979597518281101562003aa057600b0362008a86575050505060408092019382620089e56101008751015162005807565b519551015191620089fe865184511462000464620150da565b60005b8651811015620075d95762008a80906200046b6001600160a01b038062008a29848c6200584d565b5116600052620138808060205262008a51600160ff8b6000205416151514620004646201510a565b62008a5d84896200584d565b519162008a6b858d6200584d565b51166000526020526001886000200162005e21565b62008a01565b80979495939697518281101562003aa057600c0362008bbe5750505060400160a09182825101519360005b8551811015620087ce5760e062008acd8287875101516200584d565b5101511562008b555762008af162008aea8287875101516200584d565b5162006449565b62013882805460001992919083810190811162002fc65762008b148a9162006407565b5001805461ff0019166101001790555491820191821162002fc6578762008b3f62008b4f9362006407565b5001805460ff19169055620057f7565b62008ab1565b62008b7062008b698287875101516200584d565b5162006496565b62013882805460001992919083810190811162002fc65762008b938a91620063c5565b5001805461ff0019166101001790555491820191821162002fc6578762008b3f62008b4f93620063c5565b8097969593929497518281101562003aa057600d0362008d1557505060400194606062008bf060e08851015162005807565b51965101519162008c05875184511462013ac3565b60005b875181101562007786578080878a62008c2662008cb695896200584d565b511562008cbc5762008c8762008c6e848362008c5962008c4c62008c929888976200584d565b5162013882541162013b4c565b620086648d62008c7562008c6e85856200584d565b5162006407565b509060ff9889920154901c1662013ba4565b500154161562013c05565b8662008ca362008c6e838c6200584d565b5001805460ff19166001179055620057f7565b62008c08565b62008c8762008cfd848362008ce862008cdb62008d049888976200584d565b5162013883541162013b4c565b620086648d62008c7562008cfd85856200584d565b51620063c5565b8662008ca362008cfd838c6200584d565b8097949397518281101562003aa057600e0362008dfc57505060400191606062008d4460e08551015162005807565b51935101519562008d59845188511462013ac3565b60005b845181101562007786578062008d7762008d83928a6200584d565b5162008d8957620057f7565b62008d5c565b62008da662008d9982886200584d565b5162013882541162013c66565b62008deb8762008dd062008dbf62008c6e858b6200584d565b5060ff9283910154891c1662013cbf565b8862008de162008c6e858b6200584d565b5001541662013d21565b8662008b3f62008c6e83896200584d565b809192935096949596518281101562003aa057600f0362008f1757505060400160a09182825101519360005b8551811015620087ce5760e062008e448287875101516200584d565b5101511562008eb55762008e6162008aea8287875101516200584d565b62013882805460001992919083810190811162002fc65762008e848a9162006407565b5001805461ff0019166101001790555491820191821162002fc6578762008ca362008eaf9362006407565b62008e28565b62008ec962008b698287875101516200584d565b62013882805460001992919083810190811162002fc65762008eec8a91620063c5565b5001805461ff0019166101001790555491820191821162002fc6578762008ca362008eaf93620063c5565b8091929394969550518281101562003aa05760100362008fbc575050604001519062008f4c60e060c084015193015162005807565b519362008f61835186511462000464620150da565b60005b835181101562008fa957806200046b62008f8362008fa393876200584d565b5162008f8f8162003b56565b62008f9b838a6200584d565b519062013a2a565b62008f64565b5093509160209150620075ed90620057f7565b8095929395518281101562003aa0576011036200908957505060408092019362008ffd60e062008ff26101008851015162005807565b519651015162005807565b51916200900e8651845114620139d0565b60005b8651811015620075d95762009083906200046b8882886001600160a01b03806200903c84866200584d565b51166000526200906c620090638b62006a828662013885968760205260002054926200584d565b9490956200584d565b511660005260205288600020556200046462015090565b62009011565b8095939295518281101562003aa057601203620090b2575b50505090620075ed602091620057f7565b80518281101562003aa0576013036200911457505060400151608001519260005b8451811015620090ff57806200046b620090f2620090f993886200584d565b51620145cf565b620090d3565b50925090620075ed6020915b929138620090a1565b8051918083101562003aa0576014928303620092cc57505050604080910190620091446101008351015162005807565b51926200915b60e062007403818651015162005807565b51956200916c855185511462013d84565b6200917b855188511462013dea565b60005b855181101562009263576200919481896200584d565b51620091a182876200584d565b51612710918282101562005815576006620091c29260031b0154906200681c565b90620091cf84896200584d565b51918383101562005815576006620091ec9360031b015562013ea4565b620091f8828a6200584d565b51906200920683886200584d565b518181101562005815576001600160a01b0393926200922f916003908662007513878e6200584d565b6200923b848a6200584d565b5192831015620058155760036200046b936200925d9662007558878e6200584d565b6200917e565b50939262009279919296506200758a9062014e69565b9451926200928784620039a3565b60008452600036813760005b8351811015620092b857806200046b620075ca620092b293876200584d565b62009293565b5094509260209250620075ed91506200910b565b819694959396518181101562003aa05760159081036200985957505050506040840190620093006101008351015162005807565b51936200931760e062007403818651015162005807565b51936200932c865185511462000464620150da565b6200933f865186511462000464620150da565b60005b86518110156200939b576200935881866200584d565b519061271082101562005815576003620093959260018060a01b038b5116600052811b016020526200046b6040600020546200795f838a6200584d565b62009342565b50909493919460005b8551811015620094ac57620093ba81866200584d565b5190612710808310156200581557600360018060a01b0393848c5116600052811b01602052620093f5604060002054620079cc84896200584d565b9062009402848a6200584d565b519183831015620058155760036200943193878f5116600052811b0160205260406000205562000464620151de565b6200943d82886200584d565b518181101562005815576003908462009457858c6200584d565b5116600052811b016020526200947860406000205462006a8284896200584d565b62009484848a6200584d565b5192831015620058155760036200046b93620094a69662007a85878e6200584d565b620093a4565b5091509162007abd620094c3919695949662014e69565b9260405194620094d38662003987565b6001865260203681880137516001600160a01b0316620094f38662005807565b526000905b865182101562009844576200950e82886200584d565b51610300526200951f85516200638d565b966000946200952f88516200638d565b610800528594865b8851811015620095fd578a89620095676001600160a01b036200955b85846200584d565b51166103005162014c36565b1580620095b7575b62009588575b50506200958290620057f7565b62009537565b98620095ac9162000b1382859c62007bac620095829760018060a01b03926200584d565b9790508a8962009575565b50505061271061030051101562005815576001600160a01b03620095dc828b6200584d565b5116600052600361030051811b016020528a8960406000205415156200956f565b509098949897969291939760005b88518110156200969f5761271061030051101562005815576001600160a01b0362009637828b6200584d565b5116600052600361030051811b016020526040600020541562009666575b6200966090620057f7565b6200960b565b99620096609062009696906001600160a01b03620096858e8d6200584d565b511662000b1382610800516200584d565b9a905062009655565b50985096949392919561030051612710811015806103a052620058155760031b6004015496620096d462007cdc878a62013a1c565b996000998a610580525b6103a0516200581557610580518a8110156200977a5762009713620097309160006103a05260046103005160031b01620066dd565b90546108005160039290921b1c6001600160a01b03169062014cf8565b156200974f575b6200974561058051620057f7565b61058052620096de565b99808c62000b13620097739362007d806105805160046103005160031b01620066dd565b9962009737565b509a939794969299919850946000915b8383106200981f57505050506103a05162005815578051906001600160401b0382116200393857602090620097c98360046103005160031b0162005933565b0160046103005160031b01600052602060002060005b838110620098015750505050620097f690620057f7565b9092959195620094f8565b82516001600160a01b031681830155602090920191600101620097df565b6200983d9062007e71906001600160a01b0362007e6386866200584d565b916200978a565b91945050620075ed919450602092506200910b565b82979496959751918083101562003aa0576016928303620098d857505050505061010060406200988d920151015162005807565b519260005b8451811015620098c757620098c1906200046b6001600160a01b03620098b983896200584d565b511662006918565b62009892565b50925090620075ed6020916200910b565b83518181101562003aa05760170362009900575b50505050505090620075ed6020916200910b565b83518181101562003aa0576018036200998d57505050505061010060406200992c920151015162005807565b5162013892805460ff191660011790559260005b845181101562009975576200996f906200046b6001600160a01b036200996783896200584d565b5116620068cc565b62009940565b50925090620075ed6020915b929138808080620098ec565b83979697518181101562003aa057601903620099b7575b505050505050620075ed60209162009981565b83518181101562003aa057601a0362009ac45750505050620099e260e0604080940151015162005807565b5190620099f36003835114620139d0565b620099fe8262005807565b519262009a1762009a0f846200582b565b51936200583c565b519262009a8a57505091620075ed9160016020941460001462009a835762009a579062009a4a6201388d9182546200681c565b909155620004646201502b565b62009a786201388e62009a6b815462006809565b9091556200046462015065565b9138808080620099a4565b5062009a78565b60649250519062461bcd60e51b825260206004830152602482015273496e76616c6964207061796d656e74207479706560601b6044820152fd5b909192809450518181101562003aa057601b0362009f485750505050509062009b046201388b54620032ea62009af962014f67565b6127108310620057c4565b505062009b106201502b565b506000805b612710811062009ee3575b505062009b2c6200682e565b9062009b3c6202712a546200638d565b9060009384905b61271082101562009ed8578160031b9260ff6007850154161562009c945760009760028501541562009c8257889798975b6200581557600485015488101562009c685762009b958860048701620066dd565b9054600391821b1c6001600160a01b0316600081815291870160205260409182902054919a9162009bc8908a90620065f0565b9b9062009bd46201502b565b62009bdf91620057c4565b60009b600289015462009bf291620065f0565b9062009bfd6201502b565b62009c0891620057c4565b828d5262013887602052818d20549062009c22916200681c565b90918d205562009c316201502b565b62009c3c91620057c4565b62009c4882896200584d565b5262009c5490620057f7565b9762009c6090620057f7565b979862009b74565b9290935062009c79919650620057f7565b90959462009b43565b9290935062009c7991969750620057f7565b959392509350505b62009ca7826200638d565b91600091825b82811062009e4257505050620138889081549262009cd062007cdc858462013a1c565b9360009081905b80821062009e0757505060005b83811062009d635750508351939150506001600160401b038311620039385760209062009d1184620059a3565b0190600052602060002060005b83811062009d455750505050620075ed60209160006201388d5560006201388e5562009a78565b82516001600160a01b03168183015560209092019160010162009d1e565b6000805b83811062009dbf575b501562009d89575b62009d8390620057f7565b62009ce4565b9062009d839062009db6906001600160a01b0362009da885876200584d565b511662000b13828a6200584d565b91905062009d78565b6001600160a01b038062009dd485886200584d565b51169062009de3838b6200584d565b51161462009dfc5762009df690620057f7565b62009d67565b505060013862009d70565b909162007e7162009e3b9162009e1d85620066c0565b905460039190911b1c6001600160a01b031662000b13828b6200584d565b9062009cd7565b6000805b85811062009e90575b501562009e68575b62009e6290620057f7565b62009cad565b9262009e629062009e87906001600160a01b0362007e6387866200584d565b93905062009e57565b6001600160a01b038062009ea585876200584d565b51169062009eb4838a6200584d565b51161462009ecd5762009ec790620057f7565b62009e46565b505060013862009e4f565b935050929062009c9c565b8060031b9060ff6007830154161562009f415762009f2f620072576200046b9462009f2362009f3b95600262009f19876200656f565b91015490620065f0565b9290620004646201502b565b9390620004646201502b565b62009b15565b5062009b20565b83518181101562003aa057601c0362009f6e575b5050505050620075ed60209162009a78565b83518181101562003aa057601d1462009f5c5783518181101562003aa057601e1462009f5c5783518181101562003aa057601f0362009fda575050505060209162009fd062009fc9620075ed93604080910151015162005807565b5162014606565b9138808062009f5c565b83518181101562003aa0576020036200a000575b5050505050620075ed60209162009fd0565b83518181101562003aa05760218091036200a01d575b5062009fee565b8451828110156200a14b576022036200a05e57505050505050620075ed6020916201389260ff1981541690556200a0536200598f565b91388080806200a016565b8451828110156200a14b576023036200a085575b505050505050620075ed6020916200a053565b845194828610156200a14b5760248096036200a0a3575b506200a072565b8051838110156200a137576025146200a09c5751918210156200a1235750036200a0e75750506020916200a0db620075ed9262013fa8565b9138808080806200a09c565b60405162461bcd60e51b8152602060048201529182015275496e76616c6964206f7065726174696f6e207479706560501b604482015260649150fd5b8490634e487b7160e01b6000526004526000fd5b8683634e487b7160e01b6000526004526000fd5b50634e487b7160e01b60005260045260246000fd5b60405162461bcd60e51b815260206004820152601b60248201527a13dc195c985d1a5bdb881d1e5c19481a5cc81d5b9919599a5b9959602a1b6044820152606490fd5b50915050565b600281036200a1cd5760405162461bcd60e51b815280620057f360048201620072ca565b6001146200a1d85750565b906200a1e8620138835462005862565b805190600160401b8211620039385762027116548262027116558083106201244f575b506020016202711660005260206000206000915b8383106201242e575050505060005b62013883548110156200a26857806200046b6200a24f6200a26293620063c5565b506200a25b83620063e6565b90620129e4565b6200a22e565b506200a278620138825462005862565b805190600160401b82116200393857620271155482620271155580831062012391575b506020016202711560005260206000206000915b83831062012370575050505060005b62013882548110156200a2f157806200046b6200a2df6200a2eb9362006407565b506200a25b8362006428565b6200a2be565b5060005b612710811015806200a4bd57600160ff6201389a8460031b0154161515146200a32b575b506200a32590620057f7565b6200a2f5565b916000835b6200581557620138978360031b01548110156200a39d576200a394929350600092816200a3678593620138978860031b01620066dd565b9054600391821b1c6001600160a01b031660009081529087901b62013896016020526040812055620057f7565b9093926200a330565b5091604051906200a3ae82620039a3565b6000825262005815578051906001600160401b03821162003938576020906200a3e083620138978660031b0162005933565b01620138978360031b01600052602060002060005b8381106200a49f5750505050600381901b6201389a8101805460ff191690556000620138938201819055620138948201819055620138958201556201389801546200a32591906200a4469062003fe6565b601f908181116200a473575b50506000620138988260031b01556000620138998260031b0155906200a319565b6200a49791620138988460031b016000526020600020910160051c810190620058f3565b38806200a452565b82516001600160a01b0316818301556020909201916001016200a3f5565b505060005b6127108110620122db575060005b62013881548110156200a52d57806200a4ed6200a527926200662f565b60018060a01b0391549060031b1c166000526202711360205260006002604082208281556200a51f60018201620059c7565b0155620057f7565b6200a4d0565b506200a53d62013881546200638d565b8051906001600160401b0382116200393857600160401b821162003938576020906202711454836202711455808410620122b8575b500162027114600052602060002060005b8381106201229a575050505060005b62013881548110156200a607576200a5aa816200662f565b9054620271145460039290921b1c6001600160a01b0316919081101562005815576202711460005260008051602062015664833981519152810180546001600160a01b0319169092179091556200a60190620057f7565b6200a592565b509060005b62013881548110156200a6c957806200a6296200a67e926200662f565b9060018060a01b03918291549060031b1c1660005262013880602052604080600020916200a657846200662f565b90549060031b1c1660005262027113602052600020908082036200a684575b5050620057f7565b6200a60c565b600280916200a6aa60ff6200a69d818454168762005ef4565b825460081c168562005f05565b6200a6bc600182016001860162012665565b015491015538806200a676565b5060005b6202711d548110156200a71d57806200a6ea6200a717926200664c565b60018060a01b0391549060031b1c166000526202711c6020526200046b60406000206064810190620058f3565b6200a6cd565b506200a72d6201388a546200638d565b8051906001600160401b0382116200393857600160401b821162003938576020906202711d54836202711d5580841062012277575b50016202711d600052602060002060005b83811062012259575050505060005b6201388a548110156200a7c657806200046b6200a7a36200a7c09362006669565b905460039190911b1c6001600160a01b03166200698f836200664c565b6200a782565b5060005b6201388a548110156200a85457806200a7e76200a83b9262006669565b9060018060a01b03918291549060031b1c1660005262013889602052604080600020916200a8158462006669565b90549060031b1c166000526202711c602052600020908082036200a841575050620057f7565b6200a7ca565b6200a84c9162012a78565b38806200a676565b506201388b546202711e556201388c546202711f556201388d5462027120556201388e5462027121556201388f546001600160401b0381116200393857600160401b8111620039385762027122548162027122558082106201222a575b506202712260009081527f846ab89c81ea9339188216a1864da1a19ebe28d411cbec99efa70ca6d389710d8054600080516020620155e483398151915291905b848410620122085750505050506201389054600160401b811162003938576202712354816202712355808210620121c5575b50620271236000908152600080516020620156048339815191527f7f73709277f72a9bc7b284375e83603a53394744e9fa86da811e86c2aa78e05e5b838310620121a757505062013891549150506001600160401b0381116200393857600160401b81116200393857620271245481620271245580821062012178575b506202712460009081527f8f332db73d3937798ea82422156d059730b0b3058606439b57b7ae623e94536680546000805160206201568483398151915291905b8484106201215657505050505060ff620138925416151560ff8019620271255416911617620271255560005b62027119548110156200aa5857806200aa296200aa529262006686565b905460039190911b1c6001600160a01b03166000908152620271186020526040812055620057f7565b6200aa0c565b506200aa6862013886546200638d565b8051906001600160401b0382116200393857600160401b82116200393857602090620271195483620271195580841062012133575b500162027119600052602060002060005b83811062012115575050505060005b62013886548110156200ab0157806200046b6200aade6200aafb9362006612565b905460039190911b1c6001600160a01b03166200698f8362006686565b6200aabd565b5060005b62013886548110156200ab7357806200ab226200ab6d9262006612565b9060018060a01b03918291549060031b1c166000526201388560205260408060002054916200ab518462006612565b90549060031b1c166000526202711860205260002055620057f7565b6200ab05565b5060005b6202711b548110156200abc357806200ab946200abbd92620066a3565b905460039190911b1c6001600160a01b031660009081526202711a6020526040812055620057f7565b6200ab77565b506200abd362013888546200638d565b8051906001600160401b03821162003938576020906200abf3836200596b565b016202711b600052602060002060005b838110620120f7575050505060005b62013888548110156200ac5657806200046b6200ac336200ac5093620066c0565b905460039190911b1c6001600160a01b03166200698f83620066a3565b6200ac12565b5060005b62013888548110156200acc857806200ac776200acc292620066c0565b9060018060a01b03918291549060031b1c166000526201388760205260408060002054916200aca684620066c0565b90549060031b1c166000526202711a60205260002055620057f7565b6200ac5a565b50906000905b602083015180518310156200f6df57826200ace9916200584d565b516020810151602781101562003aa057156200a160576020810151602781101562003aa0576001036200b2c857604001906200ad2b6101008351015162005807565b51936200ad4260e062007403818651015162005807565b51916200ad53865185511462013d84565b6200ad62865184511462013dea565b60005b86518110156200aec5576200ad7b81866200584d565b516127108110156200581557600160ff6201389a6200ada39360031b01541615151462013e4c565b6200adaf81856200584d565b516200adbc82876200584d565b51906127108210156200581557620138996200adde9260031b0154906200681c565b906200adeb83886200584d565b51916127108310156200581557620138996200ae0c9360031b015562013ea4565b6200ae1881856200584d565b516200ae2582876200584d565b519061271082101562005815576200ae699162013896906001600160a01b036200ae50868d6200584d565b511660005260031b01602052604060002054906200681c565b91906200ae7782886200584d565b519061271082101562005815576200aebf936200046b9262013896906001600160a01b036200aea7878f6200584d565b511660005260031b0160205260406000205562013f03565b6200ad65565b50926200aedc919250620080ed9095949562014e69565b916040516200aeeb81620039a3565b6000815260003681376000945b80518610156200b2ae576200af0e86826200584d565b51610380526200af1f85516200638d565b966000946200af2f84516200638d565b6106e05260009460005b88518110156200b002578a896200af696001600160a01b036200af5d85846200584d565b51166103805162014c9f565b15806200afb9575b6200af8a575b50506200af8490620057f7565b6200af39565b986200afae9162000b1382859c62007bac6200af849760018060a01b03926200584d565b9790508a896200af77565b50505061271061038051101562005815576001600160a01b036200afde828b6200584d565b5116600052620138966103805160031b016020528a8960406000205415156200af71565b50909895979498969291939660005b88518110156200b0a15761271061038051101562005815576001600160a01b03806200b03e838c6200584d565b5116600052620138966103805160031b01602052604060002054156200b071575b506200b06b90620057f7565b6200b011565b819b6200b099916200b0886200b06b948d6200584d565b511662000b13826106e0516200584d565b9a906200b05f565b5098509695929190939661038051612710811015806104c052620058155760031b620138970154986200b0d962007cdc898c62013a1c565b6107e0526000610640526000610120525b6104c0516200581557610120518a8110156200b1b5576200b1216200b1419160006104c052620138976103805160031b01620066dd565b90546106e0516001600160a01b03939260031b9190911c83169062014cf8565b156200b161575b506200b15761012051620057f7565b610120526200b0ea565b60006104c0526200b18161012051620138976103805160031b01620066dd565b90549060031b1c166200b19b610640516107e0516200584d565b526200b1aa61064051620057f7565b61064052386200b148565b50979294959093985095909560005b8281106200b262575050506104c05162005815576107e051516001600160401b03811162003938576200b20381620138976103805160031b0162005933565b60206107e05101620138976103805160031b01600052602060002060005b8381106200b24457505050506200b23890620057f7565b9492959091956200aef8565b82516001600160a01b0316818301556020909201916001016200b221565b6200b2a8906001600160a01b036200b27b82856200584d565b51166200b28f610640516107e0516200584d565b526200b29e61064051620057f7565b61064052620057f7565b6200b1c4565b5050939092506200b2c09150620057f7565b90916200acce565b906020829493940151602781101562003aa0576002036200b4875760408092019081519383850151916200b3216200b30560e08098015162005807565b51966200b31681875101516200582b565b51955101516200583c565b5194835187510362007847578351855103620077f35783518651036200779c575060005b86518110156200b474576200b35b81886200584d565b51612710811015620058155760ff6201389a6200b37f9260031b0154161562013f5c565b6200b38b81886200584d565b51612710811015620058155760031b6201389a01805460ff191660011790556200b3b681856200584d565b516200b3c382896200584d565b51906127108210156200581557620138986200b3e39260031b0162005e21565b6200b3ef81866200584d565b516200b3fc82896200584d565b51612710811015620058155760031b6201389401556200b41d81876200584d565b516200b42a82896200584d565b51612710811015620058155760031b6201389501556200b44b81886200584d565b519061271082101562005815576000620138996200b46e9360031b0155620057f7565b6200b345565b509592509350506200b2c09150620057f7565b9092916020840151602781101562003aa0576003036200bab55760408401906200b4b76101008351015162005807565b51906200b4ce60e062007403818651015162005807565b51936200b4e3835185511462000464620150da565b6200b4f6835186511462000464620150da565b60005b83518110156200b555576200b50f81866200584d565b51906127108210156200581557620138966200b54f9260018060a01b038b511660005260031b016020526200046b6040600020546200795f838a6200584d565b6200b4f9565b509095919560005b87518110156200b6a7576200b57381866200584d565b516127108110156200581557620138969060018060a01b0386511660005260031b016020526200b5ae604060002054620079cc83896200584d565b906200b5bb83886200584d565b51916127108310156200581557620138966200b5f59360018060a01b0389511660005260031b0160205260406000205562000464620151de565b6200b60181866200584d565b51612710811015620058155762013896906001600160a01b036200b626848c6200584d565b511660005260031b016020526200b64860406000205462006a8283896200584d565b91906200b65682886200584d565b519061271082101562005815576200b6a193620138966200046b938d6200b6858760018060a01b03926200584d565b511660005260031b016020526040600020556200046462015243565b6200b55d565b50926200b6c6919294506200b6bf9096959662014e69565b9462014d4d565b92604051906200b6d68262003987565b6001825260203681840137516001600160a01b03166200b6f68262005807565b526000945b80518610156200b2ae576200b71186826200584d565b51610460526200b72285516200638d565b966000946200b73284516200638d565b6108405260009460005b88518110156200b805578a896200b76c6001600160a01b036200b76085846200584d565b51166104605162014c9f565b15806200b7bc575b6200b78d575b50506200b78790620057f7565b6200b73c565b986200b7b19162000b1382859c62007bac6200b7879760018060a01b03926200584d565b9790508a896200b77a565b50505061271061046051101562005815576001600160a01b036200b7e1828b6200584d565b5116600052620138966104605160031b016020528a8960406000205415156200b774565b50909895979498969291939660005b88518110156200b8ab5761271061046051101562005815576001600160a01b036200b840828b6200584d565b5116600052620138966104605160031b01602052604060002054156200b872575b6200b86c90620057f7565b6200b814565b996200b86c906200b8a2906001600160a01b036200b8918e8d6200584d565b511662000b1382610840516200584d565b9a90506200b861565b50985096959291909396610460516127108110158060a052620058155760031b620138970154986200b8e262007cdc898c62013a1c565b6107a05260006107605260006105e0525b60a05162005815576105e0518a8110156200b9bd576200b9286200b94591600060a052620138976104605160031b01620066dd565b90546108405160039290921b1c6001600160a01b03169062014cf8565b156200b964575b6200b95a6105e051620057f7565b6105e0526200b8f3565b600060a0526200b9836105e051620138976104605160031b01620066dd565b60018060a01b0391549060031b1c166200b9a4610760516107a0516200584d565b526200b9b361076051620057f7565b610760526200b94c565b50979294959093985095909560005b8281106200ba695750505060a05162005815576107a051516001600160401b03811162003938576200ba0a81620138976104605160031b0162005933565b60206107a05101620138976104605160031b01600052602060002060005b8381106200ba4b57505050506200ba3f90620057f7565b9492959091956200b6fb565b82516001600160a01b0316818301556020909201916001016200ba28565b6200baaf906001600160a01b036200ba8282856200584d565b51166200ba96610760516107a0516200584d565b526200baa561076051620057f7565b61076052620057f7565b6200b9cc565b90926020810151602781101562003aa0576004036200c0ef57604001610100936200baf46200bae8868451015162005807565b5195835101516200582b565b51906200bb0b60e062007403818651015162005807565b51936200bb20875184511462000464620150da565b6200bb33875185511462000464620150da565b6200bb46875186511462000464620150da565b60005b87518110156200bbb2576200bb5f81866200584d565b519061271082101562005815576200bbac9162013896906001600160a01b036200bb8a848d6200584d565b511660005260031b016020526200046b6040600020546200795f838a6200584d565b6200bb49565b509095919593929360005b83518110156200bd19576200bbd381876200584d565b51612710811015620058155762013896906001600160a01b036200bbf884886200584d565b511660005260031b016020526200bc1a604060002054620079cc83886200584d565b906200bc2783896200584d565b519161271083101562005815576200bc6e9262013896906001600160a01b036200bc52878b6200584d565b511660005260031b0160205260406000205562000464620151de565b6200bc7a81876200584d565b51612710811015620058155762013896906001600160a01b036200bc9f848c6200584d565b511660005260031b016020526200bcc160406000205462006a8283886200584d565b9190506200bcd081886200584d565b519161271083101562005815576200bd139262013896906001600160a01b036200bcfb858e6200584d565b511660005260031b01602052604060002055620057f7565b6200bbbd565b5091936200bd3591935062007abd620080ed9197969762014e69565b6000945b80518610156200b2ae576200bd4f86826200584d565b51610480526200bd6085516200638d565b966000946200bd7084516200638d565b6101805260009460005b88518110156200be43578a896200bdaa6001600160a01b036200bd9e85846200584d565b51166104805162014c9f565b15806200bdfa575b6200bdcb575b50506200bdc590620057f7565b6200bd7a565b986200bdef9162000b1382859c62007bac6200bdc59760018060a01b03926200584d565b9790508a896200bdb8565b50505061271061048051101562005815576001600160a01b036200be1f828b6200584d565b5116600052620138966104805160031b016020528a8960406000205415156200bdb2565b50909895979498969291939660005b88518110156200bee25761271061048051101562005815576001600160a01b03806200be7f838c6200584d565b5116600052620138966104805160031b01602052604060002054156200beb2575b506200beac90620057f7565b6200be52565b819b6200beda916200bec96200beac948d6200584d565b511662000b1382610180516200584d565b9a906200bea0565b50985096959291909396610480516127108110158061040052620058155760031b620138970154986200bf1a62007cdc898c62013a1c565b6102a05260006101e05260006103c0525b6104005162005815576103c0518a8110156200bff6576200bf626200bf8291600061040052620138976104805160031b01620066dd565b9054610180516001600160a01b03939260031b9190911c83169062014cf8565b156200bfa2575b506200bf986103c051620057f7565b6103c0526200bf2b565b6000610400526200bfc26103c051620138976104805160031b01620066dd565b90549060031b1c166200bfdc6101e0516102a0516200584d565b526200bfeb6101e051620057f7565b6101e052386200bf89565b50979294959093985095909560005b8281106200c0a3575050506104005162005815576102a051516001600160401b03811162003938576200c04481620138976104805160031b0162005933565b60206102a05101620138976104805160031b01600052602060002060005b8381106200c08557505050506200c07990620057f7565b9492959091956200bd39565b82516001600160a01b0316818301556020909201916001016200c062565b6200c0e9906001600160a01b036200c0bc82856200584d565b51166200c0d06101e0516102a0516200584d565b526200c0df6101e051620057f7565b6101e052620057f7565b6200c005565b92906020840151602781101562003aa0576005036200c6a55760408401906200c12260e062008156818551015162005807565b519282518451036200c6535760005b83518110156200c18d576200c14781856200584d565b51906127108210156200581557620138966200c1879260018060a01b038a511660005260031b016020526200046b6040600020546200795f83896200584d565b6200c131565b509060005b83518110156200c236576200c1a881856200584d565b516127108110156200581557620138969060018060a01b0389511660005260031b016020526200c1e3604060002054620079cc83886200584d565b91906200c1f182876200584d565b519061271082101562005815576200c23093620138966200046b9360018060a01b038d511660005260031b0160205260406000205562000464620151de565b6200c192565b50916200c247919495935062014e69565b92604051926200c2578462003987565b6001845260203681860137516001600160a01b03166200c2778462005807565b52604051926200c28784620039a3565b6000845260003681376000945b80518610156200b2ae576200c2aa86826200584d565b51610880526200c2bb85516200638d565b966000946200c2cb84516200638d565b6102e05260009460005b88518110156200c39e578a896200c3056001600160a01b036200c2f985846200584d565b51166108805162014c9f565b15806200c355575b6200c326575b50506200c32090620057f7565b6200c2d5565b986200c34a9162000b1382859c62007bac6200c3209760018060a01b03926200584d565b9790508a896200c313565b50505061271061088051101562005815576001600160a01b036200c37a828b6200584d565b5116600052620138966108805160031b016020528a8960406000205415156200c30d565b50909895979498969291939660005b88518110156200c4445761271061088051101562005815576001600160a01b036200c3d9828b6200584d565b5116600052620138966108805160031b01602052604060002054156200c40b575b6200c40590620057f7565b6200c3ad565b996200c405906200c43b906001600160a01b036200c42a8e8d6200584d565b511662000b13826102e0516200584d565b9a90506200c3fa565b50985096959291909396610880516127108110158061078052620058155760031b620138970154986200c47c62007cdc898c62013a1c565b6104405260006107c05260006106c0525b6107805162005815576106c0518a8110156200c55a576200c4c46200c4e191600061078052620138976108805160031b01620066dd565b90546102e05160039290921b1c6001600160a01b03169062014cf8565b156200c500575b6200c4f66106c051620057f7565b6106c0526200c48d565b6000610780526200c5206106c051620138976108805160031b01620066dd565b60018060a01b0391549060031b1c166200c5416107c051610440516200584d565b526200c5506107c051620057f7565b6107c0526200c4e8565b50979294959093985095909560005b8281106200c6075750505061078051620058155761044051516001600160401b03811162003938576200c5a881620138976108805160031b0162005933565b60206104405101620138976108805160031b01600052602060002060005b8381106200c5e957505050506200c5dd90620057f7565b9492959091956200c294565b82516001600160a01b0316818301556020909201916001016200c5c6565b6200c64d906001600160a01b036200c62082856200584d565b51166200c6346107c051610440516200584d565b526200c6436107c051620057f7565b6107c052620057f7565b6200c569565b60405162461bcd60e51b8152602060048201526035602482015260008051602062015624833981519152604482015274195b905b5bdd5b9d081a5cc81b9bdd08195c5d585b605a1b6064820152608490fd5b926020810151602781101562003aa0576006036200cc94576040016200c6d16101008251015162005807565b51936200c6e860e062008156818551015162005807565b519285518351036200cc425785518451036200cbf55760005b86518110156200c76a576200c71781856200584d565b519061271082101562005815576200c7649162013896906001600160a01b036200c742848c6200584d565b511660005260031b016020526200046b6040600020546200795f83896200584d565b6200c701565b509060005b86518110156200c810576200c78581856200584d565b51612710811015620058155762013896906001600160a01b036200c7aa848b6200584d565b511660005260031b016020526200c7cc604060002054620079cc83886200584d565b91906200c7da82876200584d565b519061271082101562005815576200c80a936200046b9262013896906001600160a01b036200bc52878f6200584d565b6200c76f565b50916200c827919350620080ed9095949562014e69565b91604051926200c83784620039a3565b6000845260003681376000945b80518610156200b2ae576200c85a86826200584d565b516103e0526200c86b85516200638d565b966000946200c87b84516200638d565b6108c05260009460005b88518110156200c94e578a896200c8b56001600160a01b036200c8a985846200584d565b51166103e05162014c9f565b15806200c905575b6200c8d6575b50506200c8d090620057f7565b6200c885565b986200c8fa9162000b1382859c62007bac6200c8d09760018060a01b03926200584d565b9790508a896200c8c3565b5050506127106103e051101562005815576001600160a01b036200c92a828b6200584d565b5116600052620138966103e05160031b016020528a8960406000205415156200c8bd565b50909895979498969291939660005b88518110156200c9ed576127106103e051101562005815576001600160a01b03806200c98a838c6200584d565b5116600052620138966103e05160031b01602052604060002054156200c9bd575b506200c9b790620057f7565b6200c95d565b819b6200c9e5916200c9d46200c9b7948d6200584d565b511662000b13826108c0516200584d565b9a906200c9ab565b509850969592919093966103e0516127108110158060c052620058155760031b620138970154986200ca2462007cdc898c62013a1c565b610100526000610540526000610240525b60c0516200581557610240518a8110156200cafd576200ca6a6200ca8a91600060c052620138976103e05160031b01620066dd565b90546108c0516001600160a01b03939260031b9190911c83169062014cf8565b156200caaa575b506200caa061024051620057f7565b610240526200ca35565b600060c0526200cac961024051620138976103e05160031b01620066dd565b90549060031b1c166200cae361054051610100516200584d565b526200caf261054051620057f7565b61054052386200ca91565b50979294959093985095909560005b8281106200cba95750505060c051620058155761010051516001600160401b03811162003938576200cb4a81620138976103e05160031b0162005933565b60206101005101620138976103e05160031b01600052602060002060005b8381106200cb8b57505050506200cb7f90620057f7565b9492959091956200c844565b82516001600160a01b0316818301556020909201916001016200cb68565b6200cbef906001600160a01b036200cbc282856200584d565b51166200cbd661054051610100516200584d565b526200cbe561054051620057f7565b61054052620057f7565b6200cb0c565b60405162461bcd60e51b81526020600482015260306024820152600080516020620156c483398151915260448201526f1b9d1cc81a5cc81b9bdd08195c5d585b60821b6064820152608490fd5b60405162461bcd60e51b81526020600482015260356024820152600080516020620155c48339815191526044820152741b90db185cdcd95cc81a5cc81b9bdd08195c5d585b605a1b6064820152608490fd5b602081949293940151602781101562003aa0576007036200ce3757604001916200ccc46101008451015162005807565b519160406200ccd860e08651015162005807565b5194510151916200ccf1845186511462000464620150da565b60005b84518110156200ce25576001600160a01b03806200cd1383886200584d565b511660005262027113806020526200cd3860ff604060002054161562000464620151ab565b60026200cd4684886200584d565b516200cdb06200cd57868c6200584d565b5191620086c88b604051966200cd6d886200391c565b60018852886200cd948b60208b01946000865260408c0197885260608c01998a526200584d565b5116600052602052620086be6040600020975115158862005ef4565b519101556200cdc082876200584d565b516202711454929116600160401b8310156200393857600183018062027114558310156200581557620271146000526000805160206201566483398151915290920180546001600160a01b0319169092179091556200ce1f90620057f7565b6200ccf4565b5094915092506200b2c09150620057f7565b6020810151602781101562003aa0576008036200cf275761010060406200ce62920151015162005807565b519160005b83518110156200cf18576200cf12906001600160a01b03806200ce8b83886200584d565b51166000526202711390816020526200ceb5600160ff60406000205416151514620004646201510a565b806200cec284896200584d565b5116600052816020526200cee660ff60406000205460081c16156200046462015172565b6200cef283886200584d565b5116600052602052604060002061010061ff0019825416179055620057f7565b6200ce67565b50926200b2c0919250620057f7565b6020810151602781101562003aa0576009036200d0085761010060406200cf52920151015162005807565b519160005b83518110156200cf18576200d002906001600160a01b03806200cf7b83886200584d565b51166000526202711390816020526200cfa5600160ff60406000205416151514620004646201510a565b806200cfb284896200584d565b5116600052816020526200cfda600160ff60406000205460081c16151514620004646201513d565b6200cfe683886200584d565b5116600052602052604060002061ff00198154169055620057f7565b6200cf57565b6020810151602781101562003aa057600a036200d0f257604001906200d04560e06200d03a6101008551015162005807565b519351015162005807565b51926200d05a835185511462000464620150da565b60005b83518110156200d0e1576200d0db906001600160a01b03806200d08183886200584d565b511660005262027113806020526200d0aa600160ff60406000205416151514620004646201510a565b6200d0b683896200584d565b51916200d0c484896200584d565b5116600052602052600260406000200155620057f7565b6200d05d565b50939092506200b2c09150620057f7565b602081949392940151602781101562003aa057600b036200d1d7576040019260406200d1246101008651015162005807565b5194510151916200d13d855184511462000464620150da565b60005b85518110156200d1c7576200d1c1906200046b6001600160a01b03806200d168848b6200584d565b511660005262027113806020526200d191600160ff60406000205416151514620004646201510a565b6200d19d84896200584d565b51916200d1ab858c6200584d565b5116600052602052600160406000200162005e21565b6200d140565b509350916200b2c09150620057f7565b9091926020820151602781101562003aa057600c036200d31b5760a0604083015101519260005b84518110156200d0e15760e06200d21e8260a0604088015101516200584d565b510151156200d2a4576200d2466200d23f8260a0604088015101516200584d565b51620064de565b62027115548060001981011162002fc6576200d2686005916000190162006428565b5001805461ff0019166101001790556202711554906000198201821062002fc657600562008b3f6200d29e936000190162006428565b6200d1fe565b6200d2c36200d2bc8260a0604088015101516200584d565b51620064ba565b62027116548060001981011162002fc6576200d2e560059160001901620063e6565b5001805461ff0019166101001790556202711654906000198201821062002fc657600562008b3f6200d29e9360001901620063e6565b9291906020810151602781101562003aa057600d036200d464576040019260606200d34b60e08651015162005807565b5194510151916200d360855184511462013ac3565b60005b85518110156200d1c757806200d37e6200d3f892866200584d565b51156200d3fe576200d3a26200d39582896200584d565b5162027115541162013b4c565b6200d3ce60ff60056200d3c16200d3ba858c6200584d565b5162006428565b50015460081c1662013ba4565b6200d3e660ff600562008c876200d3ba858c6200584d565b600562008ca36200d3ba838a6200584d565b6200d363565b6200d41b6200d40e82896200584d565b5162027116541162013b4c565b6200d43a60ff60056200d3c16200d433858c6200584d565b51620063e6565b6200d45260ff600562008c876200d433858c6200584d565b600562008ca36200d433838a6200584d565b6020810151602781101562003aa057600e036200d59c576040019260606200d49160e08651015162005807565b5194510151916200d4a6855184511462013ac3565b60005b85518110156200d1c757806200d4c46200d53792866200584d565b51156200d53d576200d4e86200d4db82896200584d565b5162027115541162013c66565b6200d50d60ff60056200d5006200d3ba858c6200584d565b50015460081c1662013cbf565b6200d52560ff600562008de16200d3ba858c6200584d565b600562008b3f6200d3ba838a6200584d565b6200d4a9565b6200d55a6200d54d82896200584d565b5162027116541162013c66565b6200d57260ff60056200d5006200d433858c6200584d565b6200d58a60ff600562008de16200d433858c6200584d565b600562008b3f6200d433838a6200584d565b9091926020820151602781101562003aa057600f036200d6d25760a0604083015101519260005b84518110156200d0e15760e06200d5e38260a0604088015101516200584d565b510151156200d662576200d6046200d23f8260a0604088015101516200584d565b62027115548060001981011162002fc6576200d6266005916000190162006428565b5001805461ff0019166101001790556202711554906000198201821062002fc657600562008ca36200d65c936000190162006428565b6200d5c3565b6200d67a6200d2bc8260a0604088015101516200584d565b62027116548060001981011162002fc6576200d69c60059160001901620063e6565b5001805461ff0019166101001790556202711654906000198201821062002fc657600562008ca36200d65c9360001901620063e6565b9291906020810151602781101562003aa0576010036200d81c5760400151926200d70560e060c086015195015162005807565b51916200d71a855184511462000464620150da565b60005b85518110156200d1c757806200d7386200d7ae92886200584d565b516200d7448162003b56565b6200d75082876200584d565b51906200d75d8162003b56565b6200d7746200d76b6201520d565b821515620057c4565b6200d77f8162003b56565b600181036200d7b457506200d7a36200d7976201520d565b612710831115620057c4565b6202711e55620057f7565b6200d71d565b6200d7bf8162003b56565b600281036200d7d457506202711f55620057f7565b6200d7df8162003b56565b600381036200d7f457506202712055620057f7565b806200d80260049262003b56565b146200d810575b50620057f7565b6202712155386200d809565b6020810151602781101562003aa0576011036200d8e557604001926200d85960e06200d84e6101008751015162005807565b519551015162005807565b51916200d86a8551845114620139d0565b60005b85518110156200d1c7576200d8df906200046b6001600160a01b03806200d895848b6200584d565b511660005262027118806020526200d8b860406000205462006a82868b6200584d565b9190926200d8c7868d6200584d565b51166000526020526040600020556200046462015090565b6200d86d565b602081949293940151602781101562003aa0576012036200d90f575b5090916200b2c090620057f7565b6020810151602781101562003aa0576013036200d9c35760400151608001519160005b83518110156200d9b0576200d94881856200584d565b51906202711754600160401b8110156200393857600181018062027117558110156200581557620271176000526200d9aa926200046b916007027f08f37177f6a5732df494aeff73d589b534878a053b84dfe1e41c467868b7c9fd0162014523565b6200d932565b50926200b2c09192505b9291906200d901565b602081949392940151602781101562003aa0576014036200df2357604001906200d9f36101008351015162005807565b51936200da0a60e062007403818651015162005807565b51916200da1b865185511462013d84565b6200da2a865184511462013dea565b60005b86518110156200db28576200da4381856200584d565b516200da5082876200584d565b51906127108210156200581557620138996200da729260031b0154906200681c565b906200da7f83886200584d565b51916127108310156200581557620138996200daa09360031b015562013ea4565b6200daac81856200584d565b516200dab982876200584d565b519061271082101562005815576200dae49162013896906001600160a01b036200ae50868d6200584d565b91906200daf282886200584d565b519061271082101562005815576200db22936200046b9262013896906001600160a01b036200aea7878f6200584d565b6200da2d565b50926200db3f919250620080ed9095949562014e69565b916040516200db4e81620039a3565b6000815260003681376000945b80518610156200df11576200db7186826200584d565b51610140526200db8285516200638d565b966000946200db9284516200638d565b6104e05260009460005b88518110156200dc65578a896200dbcc6001600160a01b036200dbc085846200584d565b51166101405162014c9f565b15806200dc1c575b6200dbed575b50506200dbe790620057f7565b6200db9c565b986200dc119162000b1382859c62007bac6200dbe79760018060a01b03926200584d565b9790508a896200dbda565b50505061271061014051101562005815576001600160a01b036200dc41828b6200584d565b5116600052620138966101405160031b016020528a8960406000205415156200dbd4565b50909895979498969291939660005b88518110156200dd045761271061014051101562005815576001600160a01b03806200dca1838c6200584d565b5116600052620138966101405160031b01602052604060002054156200dcd4575b506200dcce90620057f7565b6200dc74565b819b6200dcfc916200dceb6200dcce948d6200584d565b511662000b13826104e0516200584d565b9a906200dcc2565b5098509695929190939661014051612710811015806108a052620058155760031b620138970154986200dd3c62007cdc898c62013a1c565b6105c05260006106605260006101c0525b6108a05162005815576101c0518a8110156200de18576200dd846200dda49160006108a052620138976101405160031b01620066dd565b90546104e0516001600160a01b03939260031b9190911c83169062014cf8565b156200ddc4575b506200ddba6101c051620057f7565b6101c0526200dd4d565b60006108a0526200dde46101c051620138976101405160031b01620066dd565b90549060031b1c166200ddfe610660516105c0516200584d565b526200de0d61066051620057f7565b61066052386200ddab565b50979294959093985095909560005b8281106200dec5575050506108a05162005815576105c051516001600160401b03811162003938576200de6681620138976101405160031b0162005933565b60206105c05101620138976101405160031b01600052602060002060005b8381106200dea757505050506200de9b90620057f7565b9492959091956200db5b565b82516001600160a01b0316818301556020909201916001016200de84565b6200df0b906001600160a01b036200dede82856200584d565b51166200def2610660516105c0516200584d565b526200df0161066051620057f7565b61066052620057f7565b6200de27565b5050939092506200b2c091506200d9ba565b926020840151602781101562003aa0576015036200e5265760408401906200df516101008351015162005807565b51906200df6860e062007403818651015162005807565b51936200df7d835185511462000464620150da565b6200df90835186511462000464620150da565b60005b83518110156200dfef576200dfa981866200584d565b51906127108210156200581557620138966200dfe99260018060a01b038b511660005260031b016020526200046b6040600020546200795f838a6200584d565b6200df93565b509095919560005b87518110156200e125576200e00d81866200584d565b516127108110156200581557620138969060018060a01b0386511660005260031b016020526200e048604060002054620079cc83896200584d565b906200e05583886200584d565b51916127108310156200581557620138966200e08f9360018060a01b0389511660005260031b0160205260406000205562000464620151de565b6200e09b81866200584d565b51612710811015620058155762013896906001600160a01b036200e0c0848c6200584d565b511660005260031b016020526200e0e260406000205462006a8283896200584d565b91906200e0f082886200584d565b519061271082101562005815576200e11f93620138966200046b938d6200b6858760018060a01b03926200584d565b6200dff7565b50926200e13d919294506200b6bf9096959662014e69565b92604051906200e14d8262003987565b6001825260203681840137516001600160a01b03166200e16d8262005807565b526000945b80518610156200df11576200e18886826200584d565b5160e0526200e19885516200638d565b966000946200e1a884516200638d565b6107405260009460005b88518110156200e278578a896200e1e16001600160a01b036200e1d685846200584d565b511660e05162014c9f565b15806200e231575b6200e202575b50506200e1fc90620057f7565b6200e1b2565b986200e2269162000b1382859c62007bac6200e1fc9760018060a01b03926200584d565b9790508a896200e1ef565b50505061271060e051101562005815576001600160a01b036200e255828b6200584d565b51166000526201389660e05160031b016020528a8960406000205415156200e1e9565b50909895979498969291939660005b88518110156200e31c5761271060e051101562005815576001600160a01b036200e2b2828b6200584d565b51166000526201389660e05160031b01602052604060002054156200e2e3575b6200e2dd90620057f7565b6200e287565b996200e2dd906200e313906001600160a01b036200e3028e8d6200584d565b511662000b1382610740516200584d565b9a90506200e2d2565b5098509695929190939660e0516127108110158061052052620058155760031b620138970154986200e35362007cdc898c62013a1c565b6105005260006108e05260006102c0525b6105205162005815576102c0518a8110156200e42f576200e39a6200e3b7916000610520526201389760e05160031b01620066dd565b90546107405160039290921b1c6001600160a01b03169062014cf8565b156200e3d6575b6200e3cc6102c051620057f7565b6102c0526200e364565b6000610520526200e3f56102c0516201389760e05160031b01620066dd565b60018060a01b0391549060031b1c166200e4166108e051610500516200584d565b526200e4256108e051620057f7565b6108e0526200e3be565b50979294959093985095909560005b8281106200e4da5750505061052051620058155761050051516001600160401b03811162003938576200e47c816201389760e05160031b0162005933565b602061050051016201389760e05160031b01600052602060002060005b8381106200e4bc57505050506200e4b090620057f7565b9492959091956200e172565b82516001600160a01b0316818301556020909201916001016200e499565b6200e520906001600160a01b036200e4f382856200584d565b51166200e5076108e051610500516200584d565b526200e5166108e051620057f7565b6108e052620057f7565b6200e43e565b9091926020810151602781101562003aa0576016036200e5eb5761010060406200e554920151015162005807565b519160005b83518110156200e5dc576001600160a01b036200e57782866200584d565b516202712254929116600160401b831015620039385760018301806202712255831015620058155762027122600052600080516020620155e483398151915290920180546001600160a01b0319169092179091556200e5d690620057f7565b6200e559565b50926200b2c09192506200d9ba565b6020810151602781101562003aa0576017036200e611575b5090916200b2c0906200d9ba565b6020810151602781101562003aa0576018036200e6e85761010060406200e63c920151015162005807565b5191600160ff1962027125541617620271255560005b83518110156200e6d5576001600160a01b036200e67082866200584d565b516202712454929116600160401b8310156200393857600183018062027124558310156200581557620271246000526000805160206201568483398151915290920180546001600160a01b0319169092179091556200e6cf90620057f7565b6200e652565b50926200b2c09192505b9291906200e603565b602081949293940151602781101562003aa0576019036200e710575b506200b2c0906200e6df565b6020810151602781101562003aa057601a036200e88b5760e060406200e73a920151015162005807565b51906200e74b6003835114620139d0565b6200e7568262005807565b516200e76662009a0f846200582b565b51926200e84f576200b2c0926001036200e848576200e78e6200e7ed9162027120546200681c565b6202712055604051906200e7a282620039bf565b603282527f6469766964656e6461626c652062616c616e6365206f766572666c6f772077686020830152710cadc40e0e4dec6cae6e6d2dcce40c6c2e6d60731b6040830152620057c4565b6200e8416200e800620271215462006809565b6202712155604051906200e8148262003987565b601a8252796469766964656e647320636f756e746572206f766572666c6f7760301b6020830152620057c4565b906200e704565b506200e841565b60405162461bcd60e51b8152602060048201526014602482015273496e76616c6964207061796d656e74207479706560601b6044820152606490fd5b6020810151602781101562003aa057601b036200eeac575091906202711e546200e8b862009af962014f67565b62027121546202711f5411156200e8d96200e8d262014fd5565b82620057c4565b6202712054906200e8eb8383620065f0565b50506200e8f76201502b565b506000805b61271082106200ee00575b5050906200e9376200e93d93926200e92d6200e92262014f67565b6127108610620057c4565b6200046462014fd5565b620065f0565b90506200e9496201502b565b5060009060005b61271081106200ed28575b50906127106200e96c9204620068aa565b90506200e97d6202712a546200638d565b906000946000905b6127108210156200ed1b578160031b9460ff6201389a87015416156200eae35760009662013895870154156200ead257600098975b6200581557620138978701548910156200eab8576200e9df89620138978901620066dd565b600160a01b6001900391549060031b1c169788600052620138968801602052604098868a60002054906200ea1391620065f0565b9a906200ea1f6201502b565b6200ea2a91620057c4565b60009a620138958b01546200ea3f91620065f0565b906200ea4a6201502b565b6200ea5591620057c4565b826000526202711a6020528160002054906200ea71916200681c565b9091600020556200ea816201502b565b6200ea8c91620057c4565b6200ea9882896200584d565b526200eaa490620057f7565b986200eab090620057f7565b98976200e9ba565b929095506200eaca91969750620057f7565b90946200e985565b929095506200eaca919650620057f7565b95969392509350505b6200eaf7826200638d565b9160009160005b8281106200ec85575050506202711b54916200eb1f62007cdc848462013a1c565b926000906000905b8082106200ec4a57505060005b8381106200ebb45750508251929150506001600160401b03821162003938576020906200eb61836200596b565b016202711b600052602060002060005b8381106200eb9657505050506200b2c09060006202712055600062027121556200e841565b82516001600160a01b0316818301556020909201916001016200eb71565b6000805b8381106200ec02575b50156200ebda575b6200ebd490620057f7565b6200eb34565b906200ebd4906200ebf9906001600160a01b0362007e6385876200584d565b9190506200ebc9565b6001600160a01b03806200ec1785886200584d565b5116906200ec26838a6200584d565b5116146200ec3f576200ec3990620057f7565b6200ebb8565b50506001386200ebc1565b909162007e716200ec7e916200ec6085620066a3565b905460039190911b1c6001600160a01b031662000b13828a6200584d565b906200eb27565b6000805b8581106200ecd3575b50156200ecab575b6200eca590620057f7565b6200eafe565b926200eca5906200ecca906001600160a01b0362007e6387866200584d565b9390506200ec9a565b6001600160a01b03806200ece885876200584d565b5116906200ecf7838a6200584d565b5116146200ed10576200ed0a90620057f7565b6200ec89565b50506001386200ec92565b939495929150506200eaec565b90918160039695961b60ff6201389a82015416156200edf45762013895810154620138978201546000928391825b8184106200ed925750505050620072576200ed89936200ed816200046b9796946200337594620065f0565b929062006502565b9493946200e950565b94929462005815576200eded856200ede56200edb86200046b98620138978701620066dd565b905460039190911b1c6001600160a01b03166000908152620138968601602052604081205490966200681c565b9790620066f6565b926200ed56565b5091909493946200e95b565b8160039897981b60ff6201389a82015416156200eea2576201389581015490600062013897820154916000926000925b8184106200ee6d5750505050620072576200ee639362009f23846200e937620032a262009f2f966200046b9a98620065f0565b909695966200e8fc565b93929362005815576200ee9b846200ee936200edb86200046b97620138978701620066dd565b9690620066f6565b926200ee30565b509695966200e907565b6020810151602781101562003aa057601c036200eed0575b506200b2c0906200e841565b6020810151602781101562003aa057601d146200eec4576020810151602781101562003aa057601e146200eec4576020810151602781101562003aa057601f036200ef7d576200ef2890604080910151015162005807565b51906202712354600160401b8110156200393857600181018062027123558110156200581557620271236000526200b2c0926200ef7691600080516020620156048339815191520162005e21565b906200eec4565b6020810151602781101562003aa0576020036200efa1575b506200b2c0906200ef76565b6020810151602781101562003aa0576021146200ef95576020810151602781101562003aa0576022036200f02c57506200b2c09060ff196202712554166202712555620271245460006202712455806200efff575b505b906200ef95565b620271246000526200f025906000805160206201568483398151915290810190620058f3565b386200eff6565b6020810151602781101562003aa0576023036200f050575b506200b2c0906200eff8565b6020810151602781101562003aa0576024146200f044576020810151602781101562003aa0576025146200f044579290916020840151602781101562003aa0576015036200f6a15760408401906200f0ae6101008351015162005807565b51906200f0c560e062007403818651015162005807565b51936200f0da835185511462000464620150da565b6200f0ed835186511462000464620150da565b60005b83518110156200f14c576200f10681866200584d565b51906127108210156200581557620138966200f1469260018060a01b038b511660005260031b016020526200046b6040600020546200795f838a6200584d565b6200f0f0565b509095919560005b87518110156200f282576200f16a81866200584d565b516127108110156200581557620138969060018060a01b0386511660005260031b016020526200f1a5604060002054620079cc83896200584d565b906200f1b283886200584d565b51916127108310156200581557620138966200f1ec9360018060a01b0389511660005260031b0160205260406000205562000464620151de565b6200f1f881866200584d565b51612710811015620058155762013896906001600160a01b036200f21d848c6200584d565b511660005260031b016020526200f23f60406000205462006a8283896200584d565b91906200f24d82886200584d565b519061271082101562005815576200f27c93620138966200046b938d6200b6858760018060a01b03926200584d565b6200f154565b50926200f29a919294506200b6bf9096959662014e69565b92604051906200f2aa8262003987565b6001825260203681840137516001600160a01b03166200f2ca8262005807565b526000945b80518610156200f68e576200f2e586826200584d565b51610160526200f2f685516200638d565b966000946200f30684516200638d565b6105a05260009460005b88518110156200f3d9578a896200f3406001600160a01b036200f33485846200584d565b51166101605162014c9f565b15806200f390575b6200f361575b50506200f35b90620057f7565b6200f310565b986200f3859162000b1382859c62007bac6200f35b9760018060a01b03926200584d565b9790508a896200f34e565b50505061271061016051101562005815576001600160a01b036200f3b5828b6200584d565b5116600052620138966101605160031b016020528a8960406000205415156200f348565b50909895979498969291939660005b88518110156200f47f5761271061016051101562005815576001600160a01b036200f414828b6200584d565b5116600052620138966101605160031b01602052604060002054156200f446575b6200f44090620057f7565b6200f3e8565b996200f440906200f476906001600160a01b036200f4658e8d6200584d565b511662000b13826105a0516200584d565b9a90506200f435565b50985096959291909396610160516127108110158061072052620058155760031b620138970154986200f4b762007cdc898c62013a1c565b610260526000610600526000610320525b610720516200581557610320518a8110156200f595576200f4ff6200f51c91600061072052620138976101605160031b01620066dd565b90546105a05160039290921b1c6001600160a01b03169062014cf8565b156200f53b575b6200f53161032051620057f7565b610320526200f4c8565b6000610720526200f55b61032051620138976101605160031b01620066dd565b60018060a01b0391549060031b1c166200f57c61060051610260516200584d565b526200f58b61060051620057f7565b610600526200f523565b50979294959093985095909560005b8281106200f6425750505061072051620058155761026051516001600160401b03811162003938576200f5e381620138976101605160031b0162005933565b60206102605101620138976101605160031b01600052602060002060005b8381106200f62457505050506200f61890620057f7565b9492959091956200f2cf565b82516001600160a01b0316818301556020909201916001016200f601565b6200f688906001600160a01b036200f65b82856200584d565b51166200f66f61060051610260516200584d565b526200f67e61060051620057f7565b61060052620057f7565b6200f5a4565b5050939092506200b2c09150906200f044565b60405162461bcd60e51b8152602060048201526016602482015275496e76616c6964206f7065726174696f6e207479706560501b6044820152606490fd5b509190506200f6ee8162012eca565b90600681101562003aa057600281036200f71d5760405162461bcd60e51b815280620057f360048201620072ca565b600381036200f7d05750303b15620039025790604051809263a2f7d10160e01b82526044820160406004840152815180915260206064840192019060005b8181106200f7b6575050506200f781829160009460031984830301602485015262004352565b038183305af180156200f7aa576200f7965750565b6001600160401b0381116200393857604052565b6040513d6000823e3d90fd5b82518452869450602093840193909201916001016200f75b565b60059150146200f7dd5750565b906000905b602083015180518310156200a1a357826200f7fd916200584d565b516020810151602781101562003aa057156200a160576020810151602781101562003aa0576001036200fa4657604001906200f83f6101008351015162005807565b51936200f85660e062007403818651015162005807565b51916200f867865185511462013d84565b6200f876865184511462013dea565b60005b86518110156200f9cd576200f88f81866200584d565b516127108110156200581557600160ff60076200f8b59360031b01541615151462013e4c565b6200f8c181856200584d565b516200f8ce82876200584d565b5190612710821015620058155760066200f8ee9260031b0154906200681c565b906200f8fb83886200584d565b5191612710831015620058155760066200f91a9360031b015562013ea4565b6200f92681856200584d565b516200f93382876200584d565b519061271082101562005815576200f974916003906001600160a01b036200f95c868d6200584d565b5116600052811b01602052604060002054906200681c565b91906200f98282886200584d565b519061271082101562005815576200f9c7936200046b926003906001600160a01b036200f9b0878f6200584d565b5116600052811b0160205260406000205562013f03565b6200f879565b50949150916200f9e16200f9e89162014e69565b9162014d4d565b93604051926200f9f884620039a3565b60008452600036813760005b83518110156200fa2957806200046b620075ca6200fa2393876200584d565b6200fa04565b50945092602092506200fa3d9150620057f7565b9190506200f7e2565b9091926020820151602781101562003aa0576002036200fbdf5760408092019081519383850151916200fa826200b30560e08098015162005807565b5194835187510362007847578351855103620077f35783518651036200779c575060005b86518110156200fbc9576200fabc81886200584d565b51612710811015620058155760ff60076200fade9260031b0154161562013f5c565b6200faea81886200584d565b51612710811015620058155760031b600701805460ff191660011790556200fb1381856200584d565b516200fb2082896200584d565b5190612710821015620058155760056200fb3e9260031b0162005e21565b6200fb4a81866200584d565b516200fb5782896200584d565b51612710811015620058155760031b600101556200fb7681876200584d565b516200fb8382896200584d565b51612710811015620058155760031b600201556200fba281886200584d565b51906127108210156200581557600060066200fbc39360031b0155620057f7565b6200faa6565b509591509350602092506200fa3d9150620057f7565b9291906020810151602781101562003aa0576003036200fc0c57602091926200046b6200fa3d9262013fa8565b6020810151602781101562003aa0576004036200fe9657604001610100936200fc3d6200bae8868451015162005807565b51906200fc5460e062007403818651015162005807565b51936200fc69875184511462000464620150da565b6200fc7c875185511462000464620150da565b6200fc8f875186511462000464620150da565b60005b87518110156200fcf8576200fca881866200584d565b519061271082101562005815576200fcf2916003906001600160a01b036200fcd1848d6200584d565b5116600052811b016020526200046b6040600020546200795f838a6200584d565b6200fc92565b509095919593929360005b83518110156200fe53576200fd1981876200584d565b5161271081101562005815576003906001600160a01b036200fd3c84886200584d565b5116600052811b016020526200fd5d604060002054620079cc83886200584d565b906200fd6a83896200584d565b519161271083101562005815576200fdae926003906001600160a01b036200fd93878b6200584d565b5116600052811b0160205260406000205562000464620151de565b6200fdba81876200584d565b5161271081101562005815576003906001600160a01b036200fddd848c6200584d565b5116600052811b016020526200fdfe60406000205462006a8283886200584d565b9190506200fe0d81886200584d565b519161271083101562005815576200fe4d926003906001600160a01b036200fe36858e6200584d565b5116600052811b01602052604060002055620057f7565b6200fd03565b50936200fe6d9192969350620080ed62007abd9162014e69565b9260005b83518110156200fa2957806200046b620075ca6200fe9093876200584d565b6200fe71565b926020840151602781101562003aa057600503620100545760408401906200fec860e062008156818551015162005807565b519282518451036200c6535760005b83518110156200ff30576200feed81856200584d565b5190612710821015620058155760036200ff2a9260018060a01b038a5116600052811b016020526200046b6040600020546200795f83896200584d565b6200fed7565b509060005b83518110156200ffd3576200ff4b81856200584d565b51612710811015620058155760039060018060a01b03895116600052811b016020526200ff83604060002054620079cc83886200584d565b91906200ff9182876200584d565b519061271082101562005815576200ffcd9360036200046b9360018060a01b038d5116600052811b0160205260406000205562000464620151de565b6200ff35565b50949250906200ffe39062014e69565b90604051926200fff38462003987565b6001845260203681860137516001600160a01b0316620100138462005807565b52604051946201002386620039a3565b60008652600036813760005b83518110156200fa2957806200046b620075ca6201004e93876200584d565b6201002f565b926020810151602781101562003aa0576006036201020d57604001620100806101008251015162005807565b51936201009760e062008156818551015162005807565b519285518351036200cc425785518451036200cbf55760005b86518110156201011657620100c681856200584d565b5190612710821015620058155762010110916003906001600160a01b03620100ef848c6200584d565b5116600052811b016020526200046b6040600020546200795f83896200584d565b620100b0565b509060005b8651811015620101b7576201013181856200584d565b5161271081101562005815576003906001600160a01b0362010154848b6200584d565b5116600052811b0160205262010175604060002054620079cc83886200584d565b91906201018382876200584d565b51906127108210156200581557620101b1936200046b926003906001600160a01b036200fd93878f6200584d565b6201011b565b509491620101cc9193506200f9e19062014e69565b9160405194620101dc86620039a3565b60008652600036813760005b83518110156200fa2957806200046b620075ca6201020793876200584d565b620101e8565b6020810151602781101562003aa057600703620103245760400192620102396101008551015162005807565b519160406201024d60e08751015162005807565b51955101519162010266845187511462000464620150da565b60005b84518110156200fa29576201031e906200046b6001600160a01b038062010291848a6200584d565b51166000528660028b6201030e620102d187620102c9816201388097886020526200866460ff604060002054161562000464620151ab565b51936200584d565b5191620086c88d60405196620102e7886200391c565b60018852886200cd948c60208b01946000865260408c0197885260608c01998a526200584d565b51910155620086e383896200584d565b62010269565b6020819493940151602781101562003aa057600803620103bd57610100604062010352920151015162005807565b519160005b8351811015620103ab57620103a5906001600160a01b03806201037b83886200584d565b51166000526201388090816020526200ceb5600160ff60406000205416151514620004646201510a565b62010357565b509260209192506200fa3d90620057f7565b6020810151602781101562003aa05760090362010441576101006040620103e8920151015162005807565b519160005b8351811015620103ab576201043b906001600160a01b03806201041183886200584d565b51166000526201388090816020526200cfa5600160ff60406000205416151514620004646201510a565b620103ed565b6020810151602781101562003aa057600a03620104f157604001906201047360e06200d03a6101008551015162005807565b519262010488835185511462000464620150da565b60005b8351811015620104de57620104d8906001600160a01b0380620104af83886200584d565b511660005262013880806020526200d0aa600160ff60406000205416151514620004646201510a565b6201048b565b50936200fa3d91935060209250620057f7565b602081949392940151602781101562003aa057600b03620105a957604001926040620105236101008651015162005807565b5194510151916201053c855184511462000464620150da565b60005b8551811015620105965762010590906200046b6001600160a01b038062010567848b6200584d565b511660005262013880806020526200d191600160ff60406000205416151514620004646201510a565b6201053f565b50935091602091506200fa3d90620057f7565b9091926020820151602781101562003aa057600c03620106df5760a0604083015101519260005b8451811015620104de5760e0620105f08260a0604088015101516200584d565b510151156201066f576201061162008aea8260a0604088015101516200584d565b62013882548060001981011162002fc657620106336005916000190162006407565b5001805461ff0019166101001790556201388254906000198201821062002fc657600562008b3f62010669936000190162006407565b620105d0565b6201068762008b698260a0604088015101516200584d565b62013882548060001981011162002fc657620106a960059160001901620063c5565b5001805461ff0019166101001790556201388254906000198201821062002fc657600562008b3f620106699360001901620063c5565b9291906020810151602781101562003aa057600d03620107f3576040019260606201070f60e08651015162005807565b51945101519162010724855184511462013ac3565b60005b8551811015620105965780620107426201079b92866200584d565b5115620107a1576201075962008c4c82896200584d565b6201077160ff60056200d3c162008c6e858c6200584d565b6201078960ff600562008c8762008c6e858c6200584d565b600562008ca362008c6e838a6200584d565b62010727565b620107b162008cdb82896200584d565b620107c960ff60056200d3c162008cfd858c6200584d565b620107e160ff600562008c8762008cfd858c6200584d565b600562008ca362008cfd838a6200584d565b6020819492940151602781101562003aa057600e03620108ba576040019060606201082360e08451015162005807565b51925101519362010838835186511462013ac3565b60005b8351811015620105965780620108566201086292886200584d565b516201086857620057f7565b6201083b565b6201087862008d9982876200584d565b6201089060ff60056200d50062008c6e858a6200584d565b620108a860ff600562008de162008c6e858a6200584d565b600562008b3f62008c6e83886200584d565b906020829493940151602781101562003aa057600f03620109f15760a0604083015101519260005b8451811015620104de5760e0620109028260a0604088015101516200584d565b5101511562010981576201092362008aea8260a0604088015101516200584d565b62013882548060001981011162002fc657620109456005916000190162006407565b5001805461ff0019166101001790556201388254906000198201821062002fc657600562008ca36201097b936000190162006407565b620108e2565b6201099962008b698260a0604088015101516200584d565b62013882548060001981011162002fc657620109bb60059160001901620063c5565b5001805461ff0019166101001790556201388254906000198201821062002fc657600562008ca36201097b9360001901620063c5565b906020819493940151602781101562003aa05760100362010a6257604001519062010a2560e060c084015193015162005807565b519362010a3a835186511462000464620150da565b60005b83518110156201059657806200046b62008f8362010a5c93876200584d565b62010a3d565b6020819492940151602781101562003aa05760110362010afc576040019262010a9760e06200d84e6101008751015162005807565b519162010aa88551845114620139d0565b60005b8551811015620105965762010af6906200046b6001600160a01b038062010ad3848b6200584d565b511660005262013885806020526200d8b860406000205462006a82868b6200584d565b62010aab565b6020819492940151602781101562003aa05760120362010b26575b50906200fa3d602091620057f7565b6020810151602781101562003aa05760130362010b835760400151608001519260005b845181101562010b6e57806200046b620090f262010b6893886200584d565b62010b49565b509250906200fa3d6020915b92915062010b17565b6020810151602781101562003aa05760140362010d45576040019062010baf6101008351015162005807565b519362010bc660e062007403818651015162005807565b519162010bd7865185511462013d84565b62010be6865184511462013dea565b60005b865181101562010cdc5762010bff81856200584d565b5162010c0c82876200584d565b51906127108210156200581557600662010c2c9260031b0154906200681c565b9062010c3983886200584d565b51916127108310156200581557600662010c589360031b015562013ea4565b62010c6481856200584d565b5162010c7182876200584d565b5190612710821015620058155762010c9a916003906001600160a01b036200f95c868d6200584d565b919062010ca882886200584d565b5190612710821015620058155762010cd6936200046b926003906001600160a01b036200f9b0878f6200584d565b62010be9565b50949150916200f9e162010cf09162014e69565b936040519262010d0084620039a3565b60008452600036813760005b835181101562010d3157806200046b620075ca62010d2b93876200584d565b62010d0c565b50945092602092506200fa3d915062010b7a565b92906020840151602781101562003aa0576015036201134a57604084019062010d746101008351015162005807565b519062010d8b60e062007403818651015162005807565b519362010da0835185511462000464620150da565b62010db3835186511462000464620150da565b60005b835181101562010e0f5762010dcc81866200584d565b51906127108210156200581557600362010e099260018060a01b038b5116600052811b016020526200046b6040600020546200795f838a6200584d565b62010db6565b509095919560005b875181101562010f3a5762010e2d81866200584d565b51612710811015620058155760039060018060a01b03865116600052811b0160205262010e65604060002054620079cc83896200584d565b9062010e7283886200584d565b51916127108310156200581557600362010ea99360018060a01b03895116600052811b0160205260406000205562000464620151de565b62010eb581866200584d565b5161271081101562005815576003906001600160a01b0362010ed8848c6200584d565b5116600052811b0160205262010ef960406000205462006a8283896200584d565b919062010f0782886200584d565b5190612710821015620058155762010f349360036200046b938d62007a858760018060a01b03926200584d565b62010e17565b509262010f52919294506200b6bf9096959662014e69565b926040519062010f628262003987565b6001825260203681840137516001600160a01b031662010f828262005807565b526000945b8051861015620113365762010f9d86826200584d565b516103405262010fae85516200638d565b9660009462010fbe84516200638d565b6106805260009460005b88518110156201108e578a8962010ff86001600160a01b0362010fec85846200584d565b51166103405162014c36565b158062011048575b62011019575b50506201101390620057f7565b62010fc8565b986201103d9162000b1382859c62007bac620110139760018060a01b03926200584d565b9790508a8962011006565b50505061271061034051101562005815576001600160a01b036201106d828b6200584d565b5116600052600361034051811b016020528a89604060002054151562011000565b50909895979498969291939660005b8851811015620111315761271061034051101562005815576001600160a01b03620110c9828b6200584d565b5116600052600361034051811b0160205260406000205415620110f8575b620110f290620057f7565b6201109d565b99620110f29062011128906001600160a01b03620111178e8d6200584d565b511662000b1382610680516200584d565b9a9050620110e7565b5098509695929190939661034051612710811015806106a052620058155760031b60040154986201116762007cdc898c62013a1c565b610220526000610360526000610280525b6106a0516200581557610280518a8110156201124157620111ad620111ca9160006106a05260046103405160031b01620066dd565b90546106805160039290921b1c6001600160a01b03169062014cf8565b15620111e9575b620111df61028051620057f7565b6102805262011178565b60006106a052620112076102805160046103405160031b01620066dd565b60018060a01b0391549060031b1c166201122861036051610220516200584d565b526201123761036051620057f7565b61036052620111d1565b50979294959093985095909560005b828110620112ea575050506106a051620058155761022051516001600160401b03811162003938576201128d8160046103405160031b0162005933565b6020610220510160046103405160031b01600052602060002060005b838110620112cc5750505050620112c090620057f7565b94929590919562010f87565b82516001600160a01b031681830155602090920191600101620112a9565b62011330906001600160a01b036201130382856200584d565b51166201131761036051610220516200584d565b526201132661036051620057f7565b61036052620057f7565b62011250565b5050936200fa3d9193506020925062010b7a565b90926020810151602781101562003aa057601603620113ba57610100604062011377920151015162005807565b519260005b8451811015620113a957620113a3906200046b6001600160a01b03620098b983896200584d565b6201137c565b509250906200fa3d60209162010b7a565b6020810151602781101562003aa057601703620113e1575b50906200fa3d60209162010b7a565b6020810151602781101562003aa057601803620114645761010060406201140c920151015162005807565b5192600160ff1962013892541617620138925560005b84518110156201144f5762011449906200046b6001600160a01b036200996783896200584d565b62011422565b509250906200fa3d6020915b929150620113d2565b6020819392930151602781101562003aa0576019036201148d575b506200fa3d6020916201145b565b6020810151602781101562003aa057601a03620115565760e06040620114b7920151015162005807565b51620114c76003825114620139d0565b620114d28162005807565b5191620114eb620114e3836200582b565b51926200583c565b51916200e84f576020926200fa3d926001036201154f576201151662011525916201388d546200681c565b6201388d55620004646201502b565b62011547620115386201388e5462006809565b6201388e556200046462015065565b91506201147f565b5062011547565b6020810151602781101562003aa057601b036201198e57509190620115876201388b54620032ea62009af962014f67565b5050620115936201502b565b506000805b612710811062011942575b5050620115af6200682e565b620115be6202712a546200638d565b906000946000905b61271082101562011935578160031b9460ff6007870154161562011719576000966002870154156201170857600098975b62005815576004870154891015620116ee57620116188960048901620066dd565b9054600391821b1c6001600160a01b03166000818152918901602052604091829020549199916201164b908890620065f0565b9a90620116576201502b565b6201166291620057c4565b60009a60028b01546201167591620065f0565b90620116806201502b565b6201168b91620057c4565b8260005262013887602052816000205490620116a7916200681c565b909160002055620116b76201502b565b620116c291620057c4565b620116ce82896200584d565b52620116da90620057f7565b98620116e690620057f7565b9897620115f7565b929095506201170091969750620057f7565b9094620115c6565b9290955062011700919650620057f7565b95969392509350505b6201172d826200638d565b9160009160005b8281106201189f575050506201388854916201175562007cdc848462013a1c565b926000906000905b8082106201188257505060005b838110620117ec5750508251929150506001600160401b03821162003938576020906201179783620059a3565b0162013888600052602060002060005b838110620117ce57505050506200fa3d60209160006201388d5560006201388e5562011547565b82516001600160a01b031681830155602090920191600101620117a7565b6000805b8381106201183a575b501562011812575b6201180c90620057f7565b6201176a565b906201180c9062011831906001600160a01b0362007e6385876200584d565b91905062011801565b6001600160a01b03806201184f85886200584d565b5116906201185e838a6200584d565b51161462011877576201187190620057f7565b620117f0565b5050600138620117f9565b909162007e7162011898916200ec6085620066c0565b906201175d565b6000805b858110620118ed575b5015620118c5575b620118bf90620057f7565b62011734565b92620118bf90620118e4906001600160a01b0362007e6387866200584d565b939050620118b4565b6001600160a01b03806201190285876200584d565b51169062011911838a6200584d565b5116146201192a576201192490620057f7565b620118a3565b5050600138620118ac565b9394959291505062011722565b8060039594951b9060ff60078301541615620119845762009f2f620072576200046b9462009f236201197b95600262009f19876200656f565b93929362011598565b50939293620115a3565b6020810151602781101562003aa057601c03620119b4575b506200fa3d60209162011547565b6020810151602781101562003aa057601d14620119a6576020810151602781101562003aa057601e14620119a6576020810151602781101562003aa057601f0362011a1f5760209162011a1762009fc96200fa3d93604080910151015162005807565b9150620119a6565b6020810151602781101562003aa05760200362011a45575b506200fa3d60209162011a17565b6020810151602781101562003aa05760211462011a37576020810151602781101562003aa05760220362011a9b57506200fa3d60209160ff19620138925416620138925562011a936200598f565b915062011a37565b6020810151602781101562003aa05760230362011ac1575b506200fa3d60209162011a93565b6020810151602781101562003aa05760241462011ab3576020810151602781101562003aa05760251462011ab3579290916020840151602781101562003aa0576015036200f6a157604084019062011b1f6101008351015162005807565b519062011b3660e062007403818651015162005807565b519362011b4b835185511462000464620150da565b62011b5e835186511462000464620150da565b60005b835181101562011bba5762011b7781866200584d565b51906127108210156200581557600362011bb49260018060a01b038b5116600052811b016020526200046b6040600020546200795f838a6200584d565b62011b61565b509095919560005b875181101562011ce55762011bd881866200584d565b51612710811015620058155760039060018060a01b03865116600052811b0160205262011c10604060002054620079cc83896200584d565b9062011c1d83886200584d565b51916127108310156200581557600362011c549360018060a01b03895116600052811b0160205260406000205562000464620151de565b62011c6081866200584d565b5161271081101562005815576003906001600160a01b0362011c83848c6200584d565b5116600052811b0160205262011ca460406000205462006a8283896200584d565b919062011cb282886200584d565b5190612710821015620058155762011cdf9360036200046b938d62007a858760018060a01b03926200584d565b62011bc2565b509262011cfd919294506200b6bf9096959662014e69565b926040519062011d0d8262003987565b6001825260203681840137516001600160a01b031662011d2d8262005807565b526000945b8051861015620120e15762011d4886826200584d565b516107005262011d5985516200638d565b9660009462011d6984516200638d565b6102005260009460005b885181101562011e39578a8962011da36001600160a01b0362011d9785846200584d565b51166107005162014c36565b158062011df3575b62011dc4575b505062011dbe90620057f7565b62011d73565b9862011de89162000b1382859c62007bac62011dbe9760018060a01b03926200584d565b9790508a8962011db1565b50505061271061070051101562005815576001600160a01b0362011e18828b6200584d565b5116600052600361070051811b016020528a89604060002054151562011dab565b50909895979498969291939660005b885181101562011edc5761271061070051101562005815576001600160a01b0362011e74828b6200584d565b5116600052600361070051811b016020526040600020541562011ea3575b62011e9d90620057f7565b62011e48565b9962011e9d9062011ed3906001600160a01b0362011ec28e8d6200584d565b511662000b1382610200516200584d565b9a905062011e92565b50985096959291909396610700516127108110158061042052620058155760031b600401549862011f1262007cdc898c62013a1c565b6101a0526000610820526000610620525b610420516200581557610620518a81101562011fec5762011f5862011f759160006104205260046107005160031b01620066dd565b90546102005160039290921b1c6001600160a01b03169062014cf8565b1562011f94575b62011f8a61062051620057f7565b6106205262011f23565b60006104205262011fb26106205160046107005160031b01620066dd565b60018060a01b0391549060031b1c1662011fd3610820516101a0516200584d565b5262011fe261082051620057f7565b6108205262011f7c565b50979294959093985095909560005b82811062012095575050506104205162005815576101a051516001600160401b0381116200393857620120388160046107005160031b0162005933565b60206101a0510160046107005160031b01600052602060002060005b8381106201207757505050506201206b90620057f7565b94929590919562011d32565b82516001600160a01b03168183015560209092019160010162012054565b620120db906001600160a01b03620120ae82856200584d565b5116620120c2610820516101a0516200584d565b52620120d161082051620057f7565b61082052620057f7565b62011ffb565b5050936200fa3d91935060209250915062011ab3565b82516001600160a01b0316818301556020909201916001016200ac03565b82516001600160a01b0316818301556020909201916001016200aaae565b6201214f906202711960005284846000209182019101620058f3565b386200aa9d565b600191820180546001600160a01b03909216848601559390910192906200a9e0565b62027124600052620121a09060008051602062015684833981519152908101908301620058f3565b386200a9a0565b60018082620121b882948662012665565b019201920191906200a95f565b6202712360005260008051602062015604833981519152908282015b8183018110620121f35750506200a923565b8062012201600192620059c7565b01620121e1565b600191820180546001600160a01b03909216848601559390910192906200a8f1565b620271226000526201225290600080516020620155e4833981519152908101908301620058f3565b386200a8b1565b82516001600160a01b0316818301556020909201916001016200a773565b62012293906202711d60005284846000209182019101620058f3565b386200a762565b82516001600160a01b0316818301556020909201916001016200a583565b620122d4906202711460005284846000209182019101620058f3565b386200a572565b80620122fd9160031b600160ff600783015416151514620123035750620057f7565b6200a4c2565b6201231760048201620138978301620125f6565b6201389a8101600160ff198254161790558054816201389301556001810154620138948201556002810154620138958201556201235d6005820162013898830162012665565b620138996006820154910155386200d809565b600660208262012384600194518662005f37565b019201920191906200a2af565b600681810204810362002fc657600683810204830362002fc657620271156000527f0f9b10e190177c3c56fc6ce7689c8130c567df57aa02c08e7a090a59992adf926006840281015b8260060282018110620123ef5750506200a29b565b80600060069255600060018201556201240b6002820162005bc3565b600060038201556201242060048201620059c7565b6000600582015501620123da565b600660208262012442600194518662005f37565b019201920191906200a21f565b8060060290600682040362002fc6578260060260068104840362002fc6576000906202711682526020822092830192015b828110620124905750506200a20b565b808260069255826001820155620124aa6002820162005bc3565b826003820155620124be60048201620059c7565b8260058201550162012480565b608460405162461bcd60e51b81526020600482015260406024820152600080516020620156a483398151915260448201527f656d2073686f756c64206e6f742072657475726e20766f7465206e65656465646064820152fd5b60405162461bcd60e51b81526020600482015260476024820152600080516020620156a483398151915260448201527f656d2073686f756c64206e6f742072657475726e206120766f74696e672072756064820152661b19481b1a5cdd60ca1b608482015260a490fd5b818114620125f2578154916001600160401b0383116200393857620125b4838362005933565b60005260206000209060005260206000208154916000925b848410620125db575050505050565b6001809192019384549281850155019290620125cc565b5050565b818114620125f2578154916001600160401b03831162003938576201261c838362005933565b60005260206000209060005260206000208154916000925b84841062012643575050505050565b600191820180546001600160a01b039092168486015593909101929062012634565b90808214620125f2576201267a815462003fe6565b906001600160401b03821162003938578190620126a4826201269d865462003fe6565b8662005dd7565b600090601f8311600114620126dd57600092620126d15750508160011b916000199060031b1c1916179055565b01549050388062005e6a565b81526020808220858352818320935090601f1985169083905b828210620127325750509084600195949392106201271857505050811b019055565b015460001960f88460031b161c1916905538808062005eb7565b8495819295850154815560018091019601940190620126f6565b818114620125f25781549162012763838362005a58565b6000526020600020906000526020600020906000905b838210620127875750505050565b80620127966001928562012665565b92810192918101910162012779565b818114620125f257815491620127bc838362005ae6565b6000526020600020906000526020600020906000905b838210620127e05750505050565b80620127ef600192856201258e565b928101929181019101620127d2565b818114620125f25781549162012815838362005ae6565b6000526020600020906000526020600020906000905b838210620128395750505050565b806201284860019285620125f6565b9281019291810191016201282b565b818114620125f2578154916201286e838362005b74565b6000526020600020906000526020600020906000905b838210620128925750505050565b80620128a1600192856201274c565b92810192918101910162012884565b818114620125f257815491620128c7838362005c86565b6000526020600020906000526020600020906000905b838210620128eb5750505050565b80600191840362012908575b6009809101930191019091620128dd565b80548455816201294a8186019183019160ff62012929818554168362005d7a565b8354936201293e82600896871c168462005d94565b5460101c169062005db5565b6201295c60028084019087016201258e565b60038281019190860183870362012977575b505050620128f7565b620129db9262012987916201258e565b620129996004808501908801620125f6565b620129ab60058085019088016201274c565b620129bd6006808501908801620127a5565b620129cf6007808501908801620127fe565b80830190860162012857565b3880806201296e565b91906200648057808203620129f7575050565b60ff60058062003f6d9462012a10848654168262005d61565b6001850154600182015562012a2c6002860160028301620128b0565b6003850154600382015562012a48600486016004830162012665565b01920162012a5a828254168462005ef4565b62012a6c82825460081c168462005f05565b5460101c169062005f1d565b90808214620125f257908154906000915b6064831062012a985750505050565b600180919401928354948184015501919262012a89565b906201388254602060009301908151519062012acb82620039ff565b9162012adb6040519384620039db565b80835262012aec601f1991620039ff565b0136602084013762012b0183515182620065f0565b901562012e725762012b13906200638d565b9085928451511562012e695762012b2a826200638d565b965b85515181101562012cb25760008080805b86811062012bc95750905062012b5f8162012b5985876200584d565b620041ae565b600681101562003aa05760031462012b84575b5062012b7e90620057f7565b62012b2c565b6000905b80821062012b97575062012b72565b909562012bbb62012bc29162012bae898d6200584d565b5162000b13828a6200584d565b96620057f7565b9062012b88565b62012be28162012bdb878d516200584d565b516201328b565b9390948083118062012c9e575b1562012c5557505091838562012c4b575b600681101562003aa05760038e911462012c2b575b505062012c2290620057f7565b91909162012b3d565b9462012c429162000b138262012c2295986200584d565b93908c62012c15565b6000955062012c00565b809492959195148062012c8a575b1562012c1557600681101562003aa05760038e911462012c2b57505062012c2290620057f7565b50600681101562003aa05780151562012c63565b50600686101562003aa05785151562012bef565b5093505090929350600093845b835186101562012e045762012cdf62012cd987866200584d565b62005d53565b9060068083101562003aa057600292830362012d0a57505062012d039095620057f7565b9462012cbf565b62012d1a62012cd989886200584d565b928184101562003aa05760018094148062012df0575b1562012d455750505062012d039095620057f7565b62012d5a62012cd98a899b9694959b6200584d565b928084101562003aa0576004809414928362012dc4575b508262012d99575b505062012d8d575b5062012d0390620057f7565b955062012d0362012d81565b90915088101562012daf57871415388062012d79565b602182634e487b7160e01b6000525260246000fd5b908093508a101562012ddb57891415913862012d71565b602184634e487b7160e01b6000525260246000fd5b508183101562003aa0578083141562012d30565b925092909350600682101562003aa0576003820362012e60575b62012e29816200638d565b9360005b82811062012e3c575050509190565b8062012e4d62012e5a92846200584d565b5162000b1382896200584d565b62012e2d565b50600062012e1e565b50909392505050565b60405162461bcd60e51b815260206004820152602a60248201527f546865206c656e677468206f6620766f74696e672072756c65206c697374206960448201526973206f766572666c6f7760b01b6064820152608490fd5b906201388354602060009301908151519062012ee682620039ff565b9162012ef66040519384620039db565b80835262012f07601f1991620039ff565b0136602084013762012f1c83515182620065f0565b901562012e725762012f2e906200638d565b9085928451511562012e695762012f45826200638d565b965b855151811015620130b35760008080805b86811062012fca5750905062012f748162012b5985876200584d565b600681101562003aa05760031462012f99575b5062012f9390620057f7565b62012f47565b6000905b80821062012fac575062012f87565b909562012bbb62012fc39162012bae898d6200584d565b9062012f9d565b62012fe38162012fdc878d516200584d565b5162013327565b939094808311806201309f575b15620130565750509183856201304c575b600681101562003aa05760038e91146201302c575b50506201302390620057f7565b91909162012f58565b94620130439162000b13826201302395986200584d565b93908c62013016565b6000955062013001565b80949295919514806201308b575b156201301657600681101562003aa05760038e91146201302c5750506201302390620057f7565b50600681101562003aa05780151562013064565b50600686101562003aa05785151562012ff0565b5093505090929350600093845b8351861015620131d557620130da62012cd987866200584d565b9060068083101562003aa057600292830362013105575050620130fe9095620057f7565b94620130c0565b6201311562012cd989886200584d565b928184101562003aa057600380941480620131c1575b156201314057505050620130fe9095620057f7565b6201315562012cd98a899b9694959b6200584d565b928084101562003aa05760058094149283620131aa575b508262013194575b505062013188575b50620130fe90620057f7565b9550620130fe6201317c565b90915088101562003aa057871415388062013174565b908093508a101562003aa05789141591386201316c565b508183101562003aa057808314156201312b565b925092909350600682101562003aa0576003820362013224575b620131fa816200638d565b9360005b8281106201320d575050509190565b8062012e4d6201321e92846200584d565b620131fe565b506000620131ef565b156201323557565b60405162461bcd60e51b815260206004820152602860248201527f506c7567696e466163746f72793a20706c7567696e20696e646578206f7574206044820152676f662072616e676560c01b6064820152608490fd5b9091600080938193620132a4620138825483106201322d565b60ff6005620132b38462006407565b50015460081c16156201331b578282620132cf92600162013493565b620132db575b50929190565b8094506001929350620132ef915062006407565b5001549060036201331060ff620133068662006407565b5054169462006407565b5001549138620132d5565b50509150915080918190565b909160008093819362013340620138835483106201322d565b60ff60056201334f84620063c5565b50015460081c16156201331b5782826201336a928262013493565b620133755750929190565b8094506001929350620133899150620063c5565b5001549060036201331060ff620133a086620063c5565b50541694620063c5565b15620133b257565b60405162461bcd60e51b815260206004820152603160248201527f436865636b696e6720636f6e646974696f6e206578703a20706c7567696e20696044820152706e646578206f7574206f662072616e676560781b6064820152608490fd5b156201341957565b60405162461bcd60e51b815260206004820152602f60248201527f436865636b696e6720636f6e646974696f6e206578703a206e6f646520696e6460448201526e6578206f7574206f662072616e676560881b6064820152608490fd5b805482101562005815576000526009602060002091020190600090565b9092919080156201380257620134af62013882548310620133aa565b620134cb6002620134c08462006407565b500154841062013411565b8015620137e457620134fb6001620134f2856002620134ea8762006407565b500162013476565b50015460ff1690565b620135068162003b56565b8062013516575050505050600090565b620135218162003b56565b6003810362013534575050505050600190565b6201353f8162003b56565b6004810362013552575050505050600090565b6201355d8162003b56565b600190808203620135765750509262006596936201382a565b909293620135848262003b56565b60028092146201359a575b505050505050600090565b8215620137c757620135c384620135b78385620134ea8a62006407565b50015460081c60ff1690565b925b60009586865b62013755575b50620135dd876200638d565b9760005b888110620136f8575050505050620135f98262003a95565b8183036201365857505091906000915b818310620136175750505090565b9091928062013635575b6201362d9093620057f7565b919062013609565b506201362d620136506201364a85846200584d565b51151590565b905062013621565b909150620136668262003a95565b8103620136bf57509060009182915b818310620136835750505090565b9091928015620136a2575b6201369a9093620057f7565b919062013675565b506201369a620136b76201364a85846200584d565b90506201368e565b60039150620136ce8162003a95565b14620136e157503880808080806201358f565b620136f46201364a620065969262005807565b1590565b808a620137346201372b62013721848b620137198c82620134ea8d620063c5565b5001620066dd565b90549060031b1c90565b86868962013493565b620137486201374f946200046b936200584d565b9015159052565b620135e1565b84620137678582620134ea86620063c5565b500154811015620137c1576201378d620137218287620137198882620134ea89620063c5565b620137a6575b6201379f8791620057f7565b90620135cb565b966201379f620137b78892620057f7565b9891505062013793565b620135d1565b620137dd84620135b78385620134ea8a620063c5565b92620135c5565b620137fc6001620134f2856002620134ea87620063c5565b620134fb565b6201381362013883548310620133aa565b620138246002620134c084620063c5565b620134cb565b90929160036201387c9183600014620138fe5760ff600162013853876002620134ea8662006407565b50015460101c16945b8415620138ed576002620134ea620138749362006407565b500162004282565b91603d81101562003aa057602c8103620138bd575050620138a06020915162005807565b51910151602781101562003aa057620138b99062015276565b1490565b90929060018103620138d25750505050600090565b600314620138e257505050600090565b62006596926201396e565b6002620134ea6201387493620063c5565b60ff600162013914876002620134ea86620063c5565b50015460101c16946201385c565b156201392a57565b606460405162461bcd60e51b815260206004820152602060248201527f4f70657261746f722061646472657373206973206e6f742070726f76696465646044820152fd5b9190608062006a7b92016201398860018251511462013922565b620139a360016201399a835162005807565b51511462013922565b516001600160a01b03928391620139bb919062005807565b51169215620139ca5751161490565b51161490565b15620139d857565b60405162461bcd60e51b815260206004820152601c60248201527b496e76616c6964206e756d626572206f6620706172616d657465727360201b6044820152606490fd5b9190820180921162002fc657565b62013a358162003b56565b62013a436200d76b6201520d565b62013a4e8162003b56565b6001810362013a6d575062013a666200d7976201520d565b6201388b55565b62013a788162003b56565b6002810362013a8957506201388c55565b62013a948162003b56565b6003810362013aa557506201388d55565b8062013ab360049262003b56565b1462013abc5750565b6201388e55565b1562013acb57565b60405162461bcd60e51b815260206004820152604d60248201527f546865206c656e677468206f662074686520706c7567696e20696e646578657360448201527f20617272617920616e642074686520626f6f6c65616e206172726179206d757360648201526c74206265207468652073616d6560981b608482015260a490fd5b1562013b5457565b60405162461bcd60e51b815260206004820152602260248201527f496e76616c696420706c7567696e20696e64657820746f20626520656e61626c604482015261195960f21b6064820152608490fd5b1562013bac57565b60405162461bcd60e51b815260206004820152602b60248201527f54686520706c7567696e20746f20626520656e61626c6564206973206e6f742060448201526a1a5b9a5d1a585b1a5e995960aa1b6064820152608490fd5b1562013c0d57565b60405162461bcd60e51b815260206004820152602b60248201527f54686520706c7567696e20746f20626520656e61626c656420697320616c726560448201526a18591e48195b98589b195960aa1b6064820152608490fd5b1562013c6e57565b60405162461bcd60e51b815260206004820152602360248201527f496e76616c696420706c7567696e20696e64657820746f2062652064697361626044820152621b195960ea1b6064820152608490fd5b1562013cc757565b60405162461bcd60e51b815260206004820152602c60248201527f54686520706c7567696e20746f2062652064697361626c6564206973206e6f7460448201526b081a5b9a5d1a585b1a5e995960a21b6064820152608490fd5b1562013d2957565b60405162461bcd60e51b815260206004820152602d60248201527f54686520706c7567696e20746f2062652064697361626c656420697320616c7260448201526c1958591e48191a5cd8589b1959609a1b6064820152608490fd5b1562013d8c57565b60405162461bcd60e51b815260206004820152603060248201527f546865206c656e677468206f662074617267657420616e6420746f6b656e436c60448201526f185cdcc81a5cc81b9bdd08195c5d585b60821b6064820152608490fd5b1562013df257565b60405162461bcd60e51b815260206004820152602c60248201527f546865206c656e677468206f662074617267657420616e6420616d6f756e742060448201526b1a5cc81b9bdd08195c5d585b60a21b6064820152608490fd5b1562013e5457565b60405162461bcd60e51b815260206004820152602260248201527f54686520746f6b656e20636c617373206973206e6f7420696e697469616c697a604482015261195960f21b6064820152608490fd5b1562013eac57565b60405162461bcd60e51b815260206004820152602960248201527f54686520746f74616c20737570706c79206f662074686520746f6b656e206973604482015268206f766572666c6f7760b81b6064820152608490fd5b1562013f0b57565b60405162461bcd60e51b8152602060048201526024808201527f5468652062616c616e6365206f662074686520746f6b656e206973206f766572604482015263666c6f7760e01b6064820152608490fd5b1562013f6457565b606460405162461bcd60e51b815260206004820152602060248201527f54686520746f6b656e20697320616c726561647920696e697469616c697a65646044820152fd5b604081019062013fbe6101008351015162005807565b519162013fe060e062013fd5818451015162005807565b51925101516200582b565b519362013ff5845183511462000464620150da565b62014008845186511462000464620150da565b60005b845181101562014065576201402181846200584d565b519061271082101562005815576201405f9160018060a01b03865116600052600390811b016020526200046b6040600020546200795f838a6200584d565b6201400b565b5092919360005b835181101562014190576201408281846200584d565b51906127109182811015620058155760018060a01b03908189511660005260039081602091811b018152620140c2604060002054620079cc86896200584d565b90620140cf868a6200584d565b519187831015620058155784620140fc93878f5116600052811b01845260406000205562000464620151de565b6201410884886200584d565b5185811015620058155782908462014121878c6200584d565b5116600052811b0181526201414160406000205462006a8286896200584d565b91909262014150868a6200584d565b519687101562005815576201418a966200046b9562014170888d6200584d565b5116600052811b0190526040600020556200046462015243565b6201406c565b50506200f9e1620141a19162014e69565b9060405193620141b18562003987565b60018552602036818701376001600160a01b03610900819052905116620141d88562005807565b526000935b8151851015620144fb57620141f385836200584d565b51946201420184516200638d565b916000936201421182516200638d565b610980528496855b8751811015620142ba57620142406109005162014237838b6200584d565b51168b62014c36565b158062014282575b6201425f575b6201425990620057f7565b62014219565b956201427962014259916109005162009da88a8c6200584d565b9690506201424e565b506127108a10156200581557610900516201429e828a6200584d565b511660005260038a811b01602052604060002054151562014248565b509793929096949195976000986127108610159560031b9860038a019a5b8951811015620143545787620058155761090051620142f8828c6200584d565b51166000528b602052604060002054156201431f575b6201431990620057f7565b620142d8565b976201434b62014319918b6201433a8c61090051926200584d565b511662000b1382610980516200584d565b9890506201430e565b50949591939650985096909596806109a0526200581557600401806109605254956201438562007cdc868962013a1c565b6109205260009788610940525b6109a051620058155761094051888110156201443057620143c1620143d79160006109a05261096051620066dd565b6109005191549060031b1c166109805162014cf8565b15620143f6575b620143ec61094051620057f7565b6109405262014392565b9762014429906201440e6109405161096051620066dd565b6109005191549060031b1c1662000b1382610920516200584d565b97620143de565b5095939096509690969391936000915b838310620144ca57505050506109a051620058155761092051516001600160401b038111620039385762014478816109605162005933565b60206109205101610960516000526020600020600061090051905b848110620144b3575050505050620144ab90620057f7565b9392620141dd565b600190602083865116950194818501550162014493565b62007e71620144f49161090051620144e386866200584d565b511662000b1382610920516200584d565b9162014440565b5050509050565b62013884805482101562005815576000526007602060002091020190600090565b815180519192916001600160401b038111620039385762014545818562005933565b6020809201846000528260002060005b838110620145bc575050505060c08260069262003f6d95940151600185015560408101516002850155606081015160038501556201459d608082015115156004860162005ef4565b620145b060a08201516005860162005e21565b01511515910162005ef4565b8251828201559184019160010162014555565b620138848054600160401b8110156200393857620145f39160018201905562014502565b919091620064805762003f6d9162014523565b62013890908154600160401b811015620039385760018101808455811015620058155762003f6d9260005260206000200162005e21565b908062014648575050565b62003f6d91600052601f6020600020910160051c810190620058f3565b90600160401b8111620039385781548183558082106201468457505050565b62003f6d92600052601f6020600020918180850160051c8401941680620146b3575b500160051c0190620058f3565b600019908186019182549160200360031b1c16905538620146a6565b9060031b60ff811b9283911b169119161790565b600092620146fd620146f6859462014502565b5062004130565b9380935b855151851015620147eb5750612710841015620058155760039380851b9460018060a01b038516600052602090860181526201474a6040966001886000205491015490620065f0565b93849115620147b657906201475f916200681c565b9690156201477c5750506201477490620057f7565b939062014701565b60649250519062461bcd60e51b825260048201526014602482015273746f74616c20706f776572206f766572666c6f7760601b6044820152fd5b875162461bcd60e51b815260048101849052600e60248201526d706f776572206f766572666c6f7760901b6044820152606490fd5b93505092505090565b15620147fc57565b60405162461bcd60e51b815260206004820152601360248201527263757272656e74596573206f766572666c6f7760681b6044820152606490fd5b6001620148448262014502565b5001546202712e546000928184526202712b90816020526201486d8160036040882001620066dd565b90549060031b1c91838652806020526201488e8260046040892001620066dd565b90549060031b1c93865260205260ff6006620148c3620148b584600560408b2001620066dd565b90549060031b1c9362014502565b50015416620149115750620149019262001504620148f39383620148eb620148f995620065ba565b9690620147f4565b62013a1c565b9290620147f4565b11156201490b5790565b50600190565b6200e937925062014901936201492b620148f993620065ba565b9490620147f4565b909291926201494382516200638d565b6000916201495281516200638d565b8390845b8651811015620149ed576001600160a01b03620149798162014237848b6200584d565b1580620149b8575b62014999575b506201499390620057f7565b62014956565b8196620149b09162007e6362014993948b6200584d565b959062014987565b506127108a1015620058155780620149d1838a6200584d565b511660005260038a811b01602052604060002054151562014981565b509295919694509260005b875181101562014a7c5761271086101562005815576001600160a01b038062014a22838b6200584d565b5116600052600387811b016020526040600020541562014a4f575b5062014a4990620057f7565b620149f8565b819562014a749162014a6662014a49948c6200584d565b511662000b1382886200584d565b949062014a3d565b5092509450926127108310159384620058155760049586600395861b019687549462014aad62007cdc828862013a1c565b9460009689889a5b62014c2157818b101562014b5657506000998b62014af062014ad88383620066dd565b90546001600160a01b0392918e1b1c82168a62014cf8565b1562014b13575b50509062014b088b949392620057f7565b9a9091929362014ab5565b91998c95949392909162014b29908c90620066dd565b9054908d1b1c1662014b3c828b6200584d565b5262014b4890620057f7565b9890919293508b3862014af7565b9697949a98505091975092506000915b83831062014bfc575050505062014be7578051926001600160401b03841162014bd2575062014b96838362005933565b602080910191600052806000209060005b84811062014bb6575050505050565b83516001600160a01b0316838201559281019260010162014ba7565b604190634e487b7160e01b6000525260246000fd5b603283634e487b7160e01b6000525260246000fd5b62014c1a9062007e71906001600160a01b0362009da886866200584d565b9162014b66565b603285634e487b7160e01b6000525260246000fd5b9060005b61271083101562005815576003600484821b01805483101562014c95578262014c6391620066dd565b9054911b1c6001600160a01b039081169083161462014c8d5762014c8790620057f7565b62014c3a565b505050600190565b5050505050600090565b9060005b612710831015620058155760036201389784821b01805483101562014c95578262014cce91620066dd565b9054911b1c6001600160a01b039081169083161462014c8d5762014cf290620057f7565b62014ca3565b9060005b825181101562014d37576001600160a01b038062014d1b83866200584d565b51169083161462014c8d5762014d3190620057f7565b62014cfc565b505050600090565b801562002fc6576000190190565b9081519060005b60001983810184811162002fc65782101562014e1b576001820180831162002fc6575b84811062014d9257505062014d8c90620057f7565b62014d54565b6001600160a01b038062014da785896200584d565b51168162014db6848a6200584d565b51161462014dd1575b5062014dcb90620057f7565b62014d77565b828692960182811162002fc65762014dcb9262014e149262014df862014e0d938b6200584d565b511662014e06898b6200584d565b5262014d3f565b9562014d3f565b9062014dbf565b50509062014e29816200638d565b9060005b81811062014e3c575090925050565b62014e63906001600160a01b0362014e5582886200584d565b511662000b1382866200584d565b62014e2d565b80519160005b60001984810185811162002fc65782101562014f21576001820180831162002fc6575b85811062014ead57505062014ea790620057f7565b62014e6f565b62014eb983866200584d565b5162014ec682876200584d565b511462014edf575b62014ed990620057f7565b62014e92565b948181019080821162002fc65762014f1262014f199162014f0562014ed994896200584d565b5162014e068a8a6200584d565b9662014d3f565b905062014ece565b5050909162014f30816200638d565b9060005b81811062014f43575090925050565b8062014f5462014f6192876200584d565b5162000b1382866200584d565b62014f34565b60405162014f75816200391c565b604481527f496e76616c6964206469766964656e64207065726d797269616420706572207460208201527f72616e73616374696f6e2e2053686f756c64206265206c657373207468616e206040820152630313030360e41b606082015290565b60405162014fe381620039bf565b603281527f4e6f20656e6f756768206e756d626572206f66207472616e73616374696f6e7360208201527108199bdc88191a5d9a59195b991cc81e595d60721b604082015290565b604051620150398162003987565b601c81527b6469766964656e6473206f7065726174696f6e206f766572666c6f7760201b602082015290565b604051620150738162003987565b600d81526c2ab735b737bbb71022b93937b960991b602082015290565b6040516201509e81620039bf565b602681527f4572726f7220696e20776974686472617761626c6520636173682063616c63756020820152653630ba34b7b760d11b604082015290565b604051620150e88162003987565b6012815271496e76616c696420506172616d657465727360701b602082015290565b604051620151188162003987565b601581527413595b58995c88191bd95cc81b9bdd08195e1a5cdd605a1b602082015290565b6040516201514b8162003987565b601781527613595b58995c881a5cc81b9bdd081cdd5cdc195b991959604a1b602082015290565b604051620151808162003987565b601b81527a13595b58995c881a5cc8185b1c9958591e481cdd5cdc195b991959602a1b602082015290565b604051620151b98162003987565b60158152744d656d62657220616c72656164792065786973747360581b602082015290565b604051620151ec8162003987565b60118152704e6f20656e6f7567682062616c616e636560781b602082015290565b6040516201521b8162003987565b6018815277125b9d985b1a59081c185c985b595d195c881d1bc81cd95d60421b602082015290565b604051620152518162003987565b6015815274546f6b656e20616d6f756e74206f766572666c6f7760581b602082015290565b602781101562003aa05780156201546457600181146201490b57600281146201545e57600381146201545857600481146201545257600581146201544c57600681146201544657600781146201544057600881146201543a57600981146201543457600a81146201542e57600b81146201542857600c81146201542257600d81146201541c57600e81146201541657600f81146201541057601081146201540a5760118114620154045760128114620153fe5760138114620153f85760148114620153f25760158114620153ec5760188114620153e65760178114620153e05760198114620153da57601a8114620153d457601b8114620153ce57601c8114620153c857601d8114620153c257601e8114620153bc57601f8114620153b65760208114620153b057602114620153ab57600090565b602190565b50602090565b50601f90565b50601e90565b50601d90565b50601c90565b50601b90565b50601a90565b50601990565b50601790565b50601690565b50601590565b50601490565b50601390565b50601290565b50601190565b50601090565b50600f90565b50600e90565b50600d90565b50600c90565b50600b90565b50600a90565b50600990565b50600890565b50600790565b50600690565b50600590565b50600490565b50600390565b50600290565b50600090565b90815181101562005815570160200190565b604051906201548b82620039bf565b60288252604036602084013760005b60148110620154a857505090565b60139080820391821162002fc657600382901b916001600160fd1b0381160362002fc65760ff80831162002fc657600192620154f19084901b6001600160a01b03861662006599565b60f081168282160391821162002fc657620155159060f41b600f60f81b166201557e565b82841b916001600160ff1b038416840362002fc657620155529160001a6201553e84896201546a565b5360f81b6001600160f81b0319166201557e565b92810180911162002fc65762015571620155789360001a91866201546a565b53620057f7565b6201549a565b60f81c600a811015620155a75760300160ff811162002fc65760f81b6001600160f81b03191690565b60570160ff811162002fc65760f81b6001600160f81b0319169056fe546865206c656e677468206f662061646472657373657320616e6420746f6b651f4fe3ad533e3985b88710ce05a205152f02825e155777f3bcb8b3bbfcfb03a24ad859a97f543436e70c22b09d31fb4c7b9e987d7a008c98817c9b50a97b1224546865206c656e677468206f6620746f6b656e436c61737320616e6420746f6b546865206c656e677468206f6620746f6b656e496e666f20616e6420746f6b658e71c125ecfe4aeed61c8cf4b09183dd0bf2a3230d826486f04e5f6f0de58e2c18baa939e2e21be0e012ec26e9ec87e9e6faa065bd9f5835250457786300ece8546865206265666f7265206f7065726174696f6e20706c7567696e2073797374546865206c656e677468206f662061646472657373657320616e6420616d6f75a2646970667358221220d0b2dbfdc15fecc88b7c3ace6eb429b1b05f2f7203bbc3b9f31d06e0c940511a64736f6c63430008110033",
  "linkReferences": {},
  "deployedLinkReferences": {}
}