{
  "_format": "hh-sol-artifact-1",
  "contractName": "DARC",
  "sourceName": "contracts/protocol/DARC.sol",
  "abi": [
    {
      "inputs": [
        {
          "internalType": "uint256",
          "name": "idx",
          "type": "uint256"
        }
      ],
      "name": "checkVotingResult",
      "outputs": [
        {
          "internalType": "enum VotingStatus",
          "name": "",
          "type": "uint8"
        }
      ],
      "stateMutability": "view",
      "type": "function"
    },
    {
      "inputs": [],
      "name": "checkVotingResults",
      "outputs": [
        {
          "internalType": "enum VotingStatus[]",
          "name": "",
          "type": "uint8[]"
        }
      ],
      "stateMutability": "view",
      "type": "function"
    },
    {
      "inputs": [],
      "name": "currentVotingEndTime",
      "outputs": [
        {
          "internalType": "uint256",
          "name": "",
          "type": "uint256"
        }
      ],
      "stateMutability": "view",
      "type": "function"
    },
    {
      "inputs": [
        {
          "components": [
            {
              "internalType": "address",
              "name": "programOperatorAddress",
              "type": "address"
            },
            {
              "components": [
                {
                  "internalType": "address",
                  "name": "operatorAddress",
                  "type": "address"
                },
                {
                  "internalType": "enum EnumOpcode",
                  "name": "opcode",
                  "type": "uint8"
                },
                {
                  "components": [
                    {
                      "internalType": "uint256[]",
                      "name": "UINT256_ARRAY",
                      "type": "uint256[]"
                    },
                    {
                      "internalType": "address[]",
                      "name": "ADDRESS_ARRAY",
                      "type": "address[]"
                    },
                    {
                      "internalType": "string[]",
                      "name": "STRING_ARRAY",
                      "type": "string[]"
                    },
                    {
                      "internalType": "bool[]",
                      "name": "BOOL_ARRAY",
                      "type": "bool[]"
                    },
                    {
                      "components": [
                        {
                          "internalType": "uint256[]",
                          "name": "votingTokenClassList",
                          "type": "uint256[]"
                        },
                        {
                          "internalType": "uint256",
                          "name": "approvalThresholdPercentage",
                          "type": "uint256"
                        },
                        {
                          "internalType": "uint256",
                          "name": "votingDurationInSeconds",
                          "type": "uint256"
                        },
                        {
                          "internalType": "uint256",
                          "name": "executionPendingDurationInSeconds",
                          "type": "uint256"
                        },
                        {
                          "internalType": "bool",
                          "name": "isEnabled",
                          "type": "bool"
                        },
                        {
                          "internalType": "string",
                          "name": "note",
                          "type": "string"
                        },
                        {
                          "internalType": "bool",
                          "name": "bIsAbsoluteMajority",
                          "type": "bool"
                        }
                      ],
                      "internalType": "struct VotingRule[]",
                      "name": "VOTING_RULE_ARRAY",
                      "type": "tuple[]"
                    },
                    {
                      "components": [
                        {
                          "internalType": "enum EnumReturnType",
                          "name": "returnType",
                          "type": "uint8"
                        },
                        {
                          "internalType": "uint256",
                          "name": "level",
                          "type": "uint256"
                        },
                        {
                          "components": [
                            {
                              "internalType": "uint256",
                              "name": "id",
                              "type": "uint256"
                            },
                            {
                              "internalType": "enum EnumConditionNodeType",
                              "name": "nodeType",
                              "type": "uint8"
                            },
                            {
                              "internalType": "enum EnumLogicalOperatorType",
                              "name": "logicalOperator",
                              "type": "uint8"
                            },
                            {
                              "internalType": "enum EnumConditionExpression",
                              "name": "conditionExpression",
                              "type": "uint8"
                            },
                            {
                              "internalType": "uint256[]",
                              "name": "childList",
                              "type": "uint256[]"
                            },
                            {
                              "components": [
                                {
                                  "internalType": "uint256[]",
                                  "name": "UINT256_ARRAY",
                                  "type": "uint256[]"
                                },
                                {
                                  "internalType": "address[]",
                                  "name": "ADDRESS_ARRAY",
                                  "type": "address[]"
                                },
                                {
                                  "internalType": "string[]",
                                  "name": "STRING_ARRAY",
                                  "type": "string[]"
                                },
                                {
                                  "internalType": "uint256[][]",
                                  "name": "UINT256_2DARRAY",
                                  "type": "uint256[][]"
                                },
                                {
                                  "internalType": "address[][]",
                                  "name": "ADDRESS_2DARRAY",
                                  "type": "address[][]"
                                },
                                {
                                  "internalType": "string[][]",
                                  "name": "STRING_2DARRAY",
                                  "type": "string[][]"
                                }
                              ],
                              "internalType": "struct NodeParam",
                              "name": "param",
                              "type": "tuple"
                            }
                          ],
                          "internalType": "struct ConditionNode[]",
                          "name": "conditionNodes",
                          "type": "tuple[]"
                        },
                        {
                          "internalType": "uint256",
                          "name": "votingRuleIndex",
                          "type": "uint256"
                        },
                        {
                          "internalType": "string",
                          "name": "note",
                          "type": "string"
                        },
                        {
                          "internalType": "bool",
                          "name": "bIsEnabled",
                          "type": "bool"
                        },
                        {
                          "internalType": "bool",
                          "name": "bIsInitialized",
                          "type": "bool"
                        },
                        {
                          "internalType": "bool",
                          "name": "bIsBeforeOperation",
                          "type": "bool"
                        }
                      ],
                      "internalType": "struct Plugin[]",
                      "name": "PLUGIN_ARRAY",
                      "type": "tuple[]"
                    },
                    {
                      "internalType": "enum MachineParameter[]",
                      "name": "PARAMETER_ARRAY",
                      "type": "uint8[]"
                    },
                    {
                      "internalType": "uint256[][]",
                      "name": "UINT256_2DARRAY",
                      "type": "uint256[][]"
                    },
                    {
                      "internalType": "address[][]",
                      "name": "ADDRESS_2DARRAY",
                      "type": "address[][]"
                    },
                    {
                      "internalType": "bytes",
                      "name": "BYTES",
                      "type": "bytes"
                    }
                  ],
                  "internalType": "struct Param",
                  "name": "param",
                  "type": "tuple"
                }
              ],
              "internalType": "struct Operation[]",
              "name": "operations",
              "type": "tuple[]"
            }
          ],
          "internalType": "struct Program",
          "name": "program",
          "type": "tuple"
        }
      ],
      "name": "entrance",
      "outputs": [
        {
          "internalType": "string",
          "name": "",
          "type": "string"
        }
      ],
      "stateMutability": "payable",
      "type": "function"
    },
    {
      "inputs": [],
      "name": "executingPendingDeadline",
      "outputs": [
        {
          "internalType": "uint256",
          "name": "",
          "type": "uint256"
        }
      ],
      "stateMutability": "view",
      "type": "function"
    },
    {
      "inputs": [],
      "name": "finiteState",
      "outputs": [
        {
          "internalType": "enum FiniteState",
          "name": "",
          "type": "uint8"
        }
      ],
      "stateMutability": "view",
      "type": "function"
    },
    {
      "inputs": [],
      "name": "getCurrentDividendPerUnit",
      "outputs": [
        {
          "internalType": "uint256",
          "name": "",
          "type": "uint256"
        }
      ],
      "stateMutability": "view",
      "type": "function"
    },
    {
      "inputs": [
        {
          "internalType": "address",
          "name": "member",
          "type": "address"
        }
      ],
      "name": "getMemberInfo",
      "outputs": [
        {
          "components": [
            {
              "internalType": "bool",
              "name": "bIsInitialized",
              "type": "bool"
            },
            {
              "internalType": "bool",
              "name": "bIsSuspended",
              "type": "bool"
            },
            {
              "internalType": "string",
              "name": "name",
              "type": "string"
            },
            {
              "internalType": "uint256",
              "name": "role",
              "type": "uint256"
            }
          ],
          "internalType": "struct MemberInfo",
          "name": "",
          "type": "tuple"
        }
      ],
      "stateMutability": "view",
      "type": "function"
    },
    {
      "inputs": [],
      "name": "getMemberList",
      "outputs": [
        {
          "internalType": "address[]",
          "name": "",
          "type": "address[]"
        }
      ],
      "stateMutability": "view",
      "type": "function"
    },
    {
      "inputs": [],
      "name": "getMyInfo",
      "outputs": [
        {
          "internalType": "address",
          "name": "",
          "type": "address"
        }
      ],
      "stateMutability": "view",
      "type": "function"
    },
    {
      "inputs": [],
      "name": "getNumberOfTokenClasses",
      "outputs": [
        {
          "internalType": "uint256",
          "name": "",
          "type": "uint256"
        }
      ],
      "stateMutability": "view",
      "type": "function"
    },
    {
      "inputs": [],
      "name": "getPluginInfo",
      "outputs": [
        {
          "components": [
            {
              "internalType": "enum EnumReturnType",
              "name": "returnType",
              "type": "uint8"
            },
            {
              "internalType": "uint256",
              "name": "level",
              "type": "uint256"
            },
            {
              "components": [
                {
                  "internalType": "uint256",
                  "name": "id",
                  "type": "uint256"
                },
                {
                  "internalType": "enum EnumConditionNodeType",
                  "name": "nodeType",
                  "type": "uint8"
                },
                {
                  "internalType": "enum EnumLogicalOperatorType",
                  "name": "logicalOperator",
                  "type": "uint8"
                },
                {
                  "internalType": "enum EnumConditionExpression",
                  "name": "conditionExpression",
                  "type": "uint8"
                },
                {
                  "internalType": "uint256[]",
                  "name": "childList",
                  "type": "uint256[]"
                },
                {
                  "components": [
                    {
                      "internalType": "uint256[]",
                      "name": "UINT256_ARRAY",
                      "type": "uint256[]"
                    },
                    {
                      "internalType": "address[]",
                      "name": "ADDRESS_ARRAY",
                      "type": "address[]"
                    },
                    {
                      "internalType": "string[]",
                      "name": "STRING_ARRAY",
                      "type": "string[]"
                    },
                    {
                      "internalType": "uint256[][]",
                      "name": "UINT256_2DARRAY",
                      "type": "uint256[][]"
                    },
                    {
                      "internalType": "address[][]",
                      "name": "ADDRESS_2DARRAY",
                      "type": "address[][]"
                    },
                    {
                      "internalType": "string[][]",
                      "name": "STRING_2DARRAY",
                      "type": "string[][]"
                    }
                  ],
                  "internalType": "struct NodeParam",
                  "name": "param",
                  "type": "tuple"
                }
              ],
              "internalType": "struct ConditionNode[]",
              "name": "conditionNodes",
              "type": "tuple[]"
            },
            {
              "internalType": "uint256",
              "name": "votingRuleIndex",
              "type": "uint256"
            },
            {
              "internalType": "string",
              "name": "note",
              "type": "string"
            },
            {
              "internalType": "bool",
              "name": "bIsEnabled",
              "type": "bool"
            },
            {
              "internalType": "bool",
              "name": "bIsInitialized",
              "type": "bool"
            },
            {
              "internalType": "bool",
              "name": "bIsBeforeOperation",
              "type": "bool"
            }
          ],
          "internalType": "struct Plugin[]",
          "name": "",
          "type": "tuple[]"
        },
        {
          "components": [
            {
              "internalType": "enum EnumReturnType",
              "name": "returnType",
              "type": "uint8"
            },
            {
              "internalType": "uint256",
              "name": "level",
              "type": "uint256"
            },
            {
              "components": [
                {
                  "internalType": "uint256",
                  "name": "id",
                  "type": "uint256"
                },
                {
                  "internalType": "enum EnumConditionNodeType",
                  "name": "nodeType",
                  "type": "uint8"
                },
                {
                  "internalType": "enum EnumLogicalOperatorType",
                  "name": "logicalOperator",
                  "type": "uint8"
                },
                {
                  "internalType": "enum EnumConditionExpression",
                  "name": "conditionExpression",
                  "type": "uint8"
                },
                {
                  "internalType": "uint256[]",
                  "name": "childList",
                  "type": "uint256[]"
                },
                {
                  "components": [
                    {
                      "internalType": "uint256[]",
                      "name": "UINT256_ARRAY",
                      "type": "uint256[]"
                    },
                    {
                      "internalType": "address[]",
                      "name": "ADDRESS_ARRAY",
                      "type": "address[]"
                    },
                    {
                      "internalType": "string[]",
                      "name": "STRING_ARRAY",
                      "type": "string[]"
                    },
                    {
                      "internalType": "uint256[][]",
                      "name": "UINT256_2DARRAY",
                      "type": "uint256[][]"
                    },
                    {
                      "internalType": "address[][]",
                      "name": "ADDRESS_2DARRAY",
                      "type": "address[][]"
                    },
                    {
                      "internalType": "string[][]",
                      "name": "STRING_2DARRAY",
                      "type": "string[][]"
                    }
                  ],
                  "internalType": "struct NodeParam",
                  "name": "param",
                  "type": "tuple"
                }
              ],
              "internalType": "struct ConditionNode[]",
              "name": "conditionNodes",
              "type": "tuple[]"
            },
            {
              "internalType": "uint256",
              "name": "votingRuleIndex",
              "type": "uint256"
            },
            {
              "internalType": "string",
              "name": "note",
              "type": "string"
            },
            {
              "internalType": "bool",
              "name": "bIsEnabled",
              "type": "bool"
            },
            {
              "internalType": "bool",
              "name": "bIsInitialized",
              "type": "bool"
            },
            {
              "internalType": "bool",
              "name": "bIsBeforeOperation",
              "type": "bool"
            }
          ],
          "internalType": "struct Plugin[]",
          "name": "",
          "type": "tuple[]"
        }
      ],
      "stateMutability": "view",
      "type": "function"
    },
    {
      "inputs": [
        {
          "internalType": "uint256",
          "name": "tokenClassIndex",
          "type": "uint256"
        }
      ],
      "name": "getSumDividendWeightByTokenClass",
      "outputs": [
        {
          "internalType": "uint256",
          "name": "",
          "type": "uint256"
        }
      ],
      "stateMutability": "view",
      "type": "function"
    },
    {
      "inputs": [
        {
          "internalType": "uint256",
          "name": "tokenClassIndex",
          "type": "uint256"
        }
      ],
      "name": "getSumVotingWeightByTokenClass",
      "outputs": [
        {
          "internalType": "uint256",
          "name": "",
          "type": "uint256"
        }
      ],
      "stateMutability": "view",
      "type": "function"
    },
    {
      "inputs": [
        {
          "internalType": "uint256",
          "name": "tokenClassIndex",
          "type": "uint256"
        }
      ],
      "name": "getTokenInfo",
      "outputs": [
        {
          "internalType": "uint256",
          "name": "votingWeight",
          "type": "uint256"
        },
        {
          "internalType": "uint256",
          "name": "dividendWeight",
          "type": "uint256"
        },
        {
          "internalType": "string",
          "name": "tokenInfo",
          "type": "string"
        },
        {
          "internalType": "uint256",
          "name": "totalSupply",
          "type": "uint256"
        }
      ],
      "stateMutability": "view",
      "type": "function"
    },
    {
      "inputs": [
        {
          "internalType": "uint256",
          "name": "tokenClassIndex",
          "type": "uint256"
        },
        {
          "internalType": "address",
          "name": "tokenOwnerAddress",
          "type": "address"
        }
      ],
      "name": "getTokenOwnerBalance",
      "outputs": [
        {
          "internalType": "uint256",
          "name": "",
          "type": "uint256"
        }
      ],
      "stateMutability": "view",
      "type": "function"
    },
    {
      "inputs": [
        {
          "internalType": "uint256",
          "name": "tokenClassIndex",
          "type": "uint256"
        }
      ],
      "name": "getTokenOwners",
      "outputs": [
        {
          "internalType": "address[]",
          "name": "",
          "type": "address[]"
        }
      ],
      "stateMutability": "view",
      "type": "function"
    },
    {
      "inputs": [
        {
          "internalType": "address",
          "name": "member",
          "type": "address"
        }
      ],
      "name": "getWithdrawableCashBalance",
      "outputs": [
        {
          "internalType": "uint256",
          "name": "",
          "type": "uint256"
        }
      ],
      "stateMutability": "view",
      "type": "function"
    },
    {
      "inputs": [],
      "name": "getWithdrawableCashOwnerList",
      "outputs": [
        {
          "internalType": "address[]",
          "name": "",
          "type": "address[]"
        }
      ],
      "stateMutability": "view",
      "type": "function"
    },
    {
      "inputs": [
        {
          "internalType": "address",
          "name": "member",
          "type": "address"
        }
      ],
      "name": "getWithdrawableDividendBalance",
      "outputs": [
        {
          "internalType": "uint256",
          "name": "",
          "type": "uint256"
        }
      ],
      "stateMutability": "view",
      "type": "function"
    },
    {
      "inputs": [],
      "name": "getWithdrawableDividendOwnerList",
      "outputs": [
        {
          "internalType": "address[]",
          "name": "",
          "type": "address[]"
        }
      ],
      "stateMutability": "view",
      "type": "function"
    },
    {
      "inputs": [],
      "name": "initialOwnerAddress",
      "outputs": [
        {
          "internalType": "address",
          "name": "",
          "type": "address"
        }
      ],
      "stateMutability": "view",
      "type": "function"
    },
    {
      "inputs": [],
      "name": "initialize",
      "outputs": [],
      "stateMutability": "nonpayable",
      "type": "function"
    },
    {
      "inputs": [
        {
          "internalType": "uint256[]",
          "name": "votingRuleIndices",
          "type": "uint256[]"
        },
        {
          "components": [
            {
              "internalType": "address",
              "name": "programOperatorAddress",
              "type": "address"
            },
            {
              "components": [
                {
                  "internalType": "address",
                  "name": "operatorAddress",
                  "type": "address"
                },
                {
                  "internalType": "enum EnumOpcode",
                  "name": "opcode",
                  "type": "uint8"
                },
                {
                  "components": [
                    {
                      "internalType": "uint256[]",
                      "name": "UINT256_ARRAY",
                      "type": "uint256[]"
                    },
                    {
                      "internalType": "address[]",
                      "name": "ADDRESS_ARRAY",
                      "type": "address[]"
                    },
                    {
                      "internalType": "string[]",
                      "name": "STRING_ARRAY",
                      "type": "string[]"
                    },
                    {
                      "internalType": "bool[]",
                      "name": "BOOL_ARRAY",
                      "type": "bool[]"
                    },
                    {
                      "components": [
                        {
                          "internalType": "uint256[]",
                          "name": "votingTokenClassList",
                          "type": "uint256[]"
                        },
                        {
                          "internalType": "uint256",
                          "name": "approvalThresholdPercentage",
                          "type": "uint256"
                        },
                        {
                          "internalType": "uint256",
                          "name": "votingDurationInSeconds",
                          "type": "uint256"
                        },
                        {
                          "internalType": "uint256",
                          "name": "executionPendingDurationInSeconds",
                          "type": "uint256"
                        },
                        {
                          "internalType": "bool",
                          "name": "isEnabled",
                          "type": "bool"
                        },
                        {
                          "internalType": "string",
                          "name": "note",
                          "type": "string"
                        },
                        {
                          "internalType": "bool",
                          "name": "bIsAbsoluteMajority",
                          "type": "bool"
                        }
                      ],
                      "internalType": "struct VotingRule[]",
                      "name": "VOTING_RULE_ARRAY",
                      "type": "tuple[]"
                    },
                    {
                      "components": [
                        {
                          "internalType": "enum EnumReturnType",
                          "name": "returnType",
                          "type": "uint8"
                        },
                        {
                          "internalType": "uint256",
                          "name": "level",
                          "type": "uint256"
                        },
                        {
                          "components": [
                            {
                              "internalType": "uint256",
                              "name": "id",
                              "type": "uint256"
                            },
                            {
                              "internalType": "enum EnumConditionNodeType",
                              "name": "nodeType",
                              "type": "uint8"
                            },
                            {
                              "internalType": "enum EnumLogicalOperatorType",
                              "name": "logicalOperator",
                              "type": "uint8"
                            },
                            {
                              "internalType": "enum EnumConditionExpression",
                              "name": "conditionExpression",
                              "type": "uint8"
                            },
                            {
                              "internalType": "uint256[]",
                              "name": "childList",
                              "type": "uint256[]"
                            },
                            {
                              "components": [
                                {
                                  "internalType": "uint256[]",
                                  "name": "UINT256_ARRAY",
                                  "type": "uint256[]"
                                },
                                {
                                  "internalType": "address[]",
                                  "name": "ADDRESS_ARRAY",
                                  "type": "address[]"
                                },
                                {
                                  "internalType": "string[]",
                                  "name": "STRING_ARRAY",
                                  "type": "string[]"
                                },
                                {
                                  "internalType": "uint256[][]",
                                  "name": "UINT256_2DARRAY",
                                  "type": "uint256[][]"
                                },
                                {
                                  "internalType": "address[][]",
                                  "name": "ADDRESS_2DARRAY",
                                  "type": "address[][]"
                                },
                                {
                                  "internalType": "string[][]",
                                  "name": "STRING_2DARRAY",
                                  "type": "string[][]"
                                }
                              ],
                              "internalType": "struct NodeParam",
                              "name": "param",
                              "type": "tuple"
                            }
                          ],
                          "internalType": "struct ConditionNode[]",
                          "name": "conditionNodes",
                          "type": "tuple[]"
                        },
                        {
                          "internalType": "uint256",
                          "name": "votingRuleIndex",
                          "type": "uint256"
                        },
                        {
                          "internalType": "string",
                          "name": "note",
                          "type": "string"
                        },
                        {
                          "internalType": "bool",
                          "name": "bIsEnabled",
                          "type": "bool"
                        },
                        {
                          "internalType": "bool",
                          "name": "bIsInitialized",
                          "type": "bool"
                        },
                        {
                          "internalType": "bool",
                          "name": "bIsBeforeOperation",
                          "type": "bool"
                        }
                      ],
                      "internalType": "struct Plugin[]",
                      "name": "PLUGIN_ARRAY",
                      "type": "tuple[]"
                    },
                    {
                      "internalType": "enum MachineParameter[]",
                      "name": "PARAMETER_ARRAY",
                      "type": "uint8[]"
                    },
                    {
                      "internalType": "uint256[][]",
                      "name": "UINT256_2DARRAY",
                      "type": "uint256[][]"
                    },
                    {
                      "internalType": "address[][]",
                      "name": "ADDRESS_2DARRAY",
                      "type": "address[][]"
                    },
                    {
                      "internalType": "bytes",
                      "name": "BYTES",
                      "type": "bytes"
                    }
                  ],
                  "internalType": "struct Param",
                  "name": "param",
                  "type": "tuple"
                }
              ],
              "internalType": "struct Operation[]",
              "name": "operations",
              "type": "tuple[]"
            }
          ],
          "internalType": "struct Program",
          "name": "currentProgram",
          "type": "tuple"
        }
      ],
      "name": "initializeVoting",
      "outputs": [],
      "stateMutability": "nonpayable",
      "type": "function"
    },
    {
      "inputs": [],
      "name": "latestVotingItemIndex",
      "outputs": [
        {
          "internalType": "uint256",
          "name": "",
          "type": "uint256"
        }
      ],
      "stateMutability": "view",
      "type": "function"
    },
    {
      "inputs": [
        {
          "internalType": "address",
          "name": "voter",
          "type": "address"
        },
        {
          "internalType": "bool[]",
          "name": "votes",
          "type": "bool[]"
        }
      ],
      "name": "vote",
      "outputs": [],
      "stateMutability": "nonpayable",
      "type": "function"
    },
    {
      "inputs": [],
      "name": "votingDeadline",
      "outputs": [
        {
          "internalType": "uint256",
          "name": "",
          "type": "uint256"
        }
      ],
      "stateMutability": "view",
      "type": "function"
    },
    {
      "inputs": [
        {
          "internalType": "uint256",
          "name": "",
          "type": "uint256"
        }
      ],
      "name": "votingItems",
      "outputs": [
        {
          "components": [
            {
              "internalType": "address",
              "name": "programOperatorAddress",
              "type": "address"
            },
            {
              "components": [
                {
                  "internalType": "address",
                  "name": "operatorAddress",
                  "type": "address"
                },
                {
                  "internalType": "enum EnumOpcode",
                  "name": "opcode",
                  "type": "uint8"
                },
                {
                  "components": [
                    {
                      "internalType": "uint256[]",
                      "name": "UINT256_ARRAY",
                      "type": "uint256[]"
                    },
                    {
                      "internalType": "address[]",
                      "name": "ADDRESS_ARRAY",
                      "type": "address[]"
                    },
                    {
                      "internalType": "string[]",
                      "name": "STRING_ARRAY",
                      "type": "string[]"
                    },
                    {
                      "internalType": "bool[]",
                      "name": "BOOL_ARRAY",
                      "type": "bool[]"
                    },
                    {
                      "components": [
                        {
                          "internalType": "uint256[]",
                          "name": "votingTokenClassList",
                          "type": "uint256[]"
                        },
                        {
                          "internalType": "uint256",
                          "name": "approvalThresholdPercentage",
                          "type": "uint256"
                        },
                        {
                          "internalType": "uint256",
                          "name": "votingDurationInSeconds",
                          "type": "uint256"
                        },
                        {
                          "internalType": "uint256",
                          "name": "executionPendingDurationInSeconds",
                          "type": "uint256"
                        },
                        {
                          "internalType": "bool",
                          "name": "isEnabled",
                          "type": "bool"
                        },
                        {
                          "internalType": "string",
                          "name": "note",
                          "type": "string"
                        },
                        {
                          "internalType": "bool",
                          "name": "bIsAbsoluteMajority",
                          "type": "bool"
                        }
                      ],
                      "internalType": "struct VotingRule[]",
                      "name": "VOTING_RULE_ARRAY",
                      "type": "tuple[]"
                    },
                    {
                      "components": [
                        {
                          "internalType": "enum EnumReturnType",
                          "name": "returnType",
                          "type": "uint8"
                        },
                        {
                          "internalType": "uint256",
                          "name": "level",
                          "type": "uint256"
                        },
                        {
                          "components": [
                            {
                              "internalType": "uint256",
                              "name": "id",
                              "type": "uint256"
                            },
                            {
                              "internalType": "enum EnumConditionNodeType",
                              "name": "nodeType",
                              "type": "uint8"
                            },
                            {
                              "internalType": "enum EnumLogicalOperatorType",
                              "name": "logicalOperator",
                              "type": "uint8"
                            },
                            {
                              "internalType": "enum EnumConditionExpression",
                              "name": "conditionExpression",
                              "type": "uint8"
                            },
                            {
                              "internalType": "uint256[]",
                              "name": "childList",
                              "type": "uint256[]"
                            },
                            {
                              "components": [
                                {
                                  "internalType": "uint256[]",
                                  "name": "UINT256_ARRAY",
                                  "type": "uint256[]"
                                },
                                {
                                  "internalType": "address[]",
                                  "name": "ADDRESS_ARRAY",
                                  "type": "address[]"
                                },
                                {
                                  "internalType": "string[]",
                                  "name": "STRING_ARRAY",
                                  "type": "string[]"
                                },
                                {
                                  "internalType": "uint256[][]",
                                  "name": "UINT256_2DARRAY",
                                  "type": "uint256[][]"
                                },
                                {
                                  "internalType": "address[][]",
                                  "name": "ADDRESS_2DARRAY",
                                  "type": "address[][]"
                                },
                                {
                                  "internalType": "string[][]",
                                  "name": "STRING_2DARRAY",
                                  "type": "string[][]"
                                }
                              ],
                              "internalType": "struct NodeParam",
                              "name": "param",
                              "type": "tuple"
                            }
                          ],
                          "internalType": "struct ConditionNode[]",
                          "name": "conditionNodes",
                          "type": "tuple[]"
                        },
                        {
                          "internalType": "uint256",
                          "name": "votingRuleIndex",
                          "type": "uint256"
                        },
                        {
                          "internalType": "string",
                          "name": "note",
                          "type": "string"
                        },
                        {
                          "internalType": "bool",
                          "name": "bIsEnabled",
                          "type": "bool"
                        },
                        {
                          "internalType": "bool",
                          "name": "bIsInitialized",
                          "type": "bool"
                        },
                        {
                          "internalType": "bool",
                          "name": "bIsBeforeOperation",
                          "type": "bool"
                        }
                      ],
                      "internalType": "struct Plugin[]",
                      "name": "PLUGIN_ARRAY",
                      "type": "tuple[]"
                    },
                    {
                      "internalType": "enum MachineParameter[]",
                      "name": "PARAMETER_ARRAY",
                      "type": "uint8[]"
                    },
                    {
                      "internalType": "uint256[][]",
                      "name": "UINT256_2DARRAY",
                      "type": "uint256[][]"
                    },
                    {
                      "internalType": "address[][]",
                      "name": "ADDRESS_2DARRAY",
                      "type": "address[][]"
                    },
                    {
                      "internalType": "bytes",
                      "name": "BYTES",
                      "type": "bytes"
                    }
                  ],
                  "internalType": "struct Param",
                  "name": "param",
                  "type": "tuple"
                }
              ],
              "internalType": "struct Operation[]",
              "name": "operations",
              "type": "tuple[]"
            }
          ],
          "internalType": "struct Program",
          "name": "program",
          "type": "tuple"
        },
        {
          "internalType": "uint256",
          "name": "votingEndTime",
          "type": "uint256"
        },
        {
          "internalType": "uint256",
          "name": "executingEndTime",
          "type": "uint256"
        },
        {
          "internalType": "enum VotingStatus",
          "name": "votingStatus",
          "type": "uint8"
        },
        {
          "internalType": "bool",
          "name": "bIsProgramExecuted",
          "type": "bool"
        }
      ],
      "stateMutability": "view",
      "type": "function"
    },
    {
      "inputs": [
        {
          "internalType": "uint256",
          "name": "amount",
          "type": "uint256"
        }
      ],
      "name": "withdrawCash",
      "outputs": [],
      "stateMutability": "nonpayable",
      "type": "function"
    },
    {
      "inputs": [
        {
          "internalType": "uint256",
          "name": "amount",
          "type": "uint256"
        }
      ],
      "name": "withdrawDividends",
      "outputs": [],
      "stateMutability": "nonpayable",
      "type": "function"
    }
  ],
  "bytecode": "0x6080806040523462000019576201532f90816200001f8239f35b600080fdfe6105008060405260043610156200001557600080fd5b600090813560e01c908163036ee8501462003f00575080630e5a3b291462003ba257806310ade3ea1462003b725780631797631d1462003aea5780631c75255a1462003a8457806323b65c7814620039fc5780632514a6b414620037e857806341d1a43814620037b457806356424cf414620036d35780635c00d98714620036825780635d0b184914620036605780635f1231ea14620035755780635f5d5f0014620034ed578063681ece9d14620034a857806379532bfe14620034865780637daa10ce14620034695780638129fc1c14620030a657806383e4cccf1462002e38578063864f9f7a1462002df957806386ad77e21462002acf5780638c7a63ae1462002a525780638f6561e014620029375780639543bf67146200182d5780639f36145f14620004c0578063a064c4f114620003f7578063acf80bc414620003b8578063aefca42a1462000396578063bba51030146200020c578063d5a172f214620001df5763d6a93c51146200018b57600080fd5b34620001dc5780600319360112620001dc575b6127108110620001b4575b602090604051908152f35b60ff60078260031b01541615620001d657620001d09062005ec0565b6200019e565b620001a9565b80fd5b5034620001dc5780600319360112620001dc5762027126546040516001600160a01b039091168152602090f35b5034620001dc5780600319360112620001dc576202712e548082526202712b916020908382526002938460408320015494620002656200024c8762004034565b966200025c604051988962004010565b80885262004034565b8685019290601f1901368437835b86855281865282604086200154811015620003405760405163083a348760e31b815260048101829052602487828281305afa91821562000335578792620002f2575b50620002c2838b62005f16565b906003831015620002e0575052620002da9062005ec0565b62000273565b634e487b7160e01b8852602160045287fd5b9091508781813d83116200032d575b6200030d818362004010565b81010312620003295751600381101562000329579038620002b5565b8680fd5b503d62000301565b6040513d89823e3d90fd5b505060408051858152875181870181905290948594928501935086905b8281106200036d57505050500390f35b91938395509080826200038560019483975162004131565b01950191019185949391926200035d565b5034620001dc5780600319360112620001dc5760206202712854604051908152f35b5034620001dc576020366003190112620001dc576020906040906001600160a01b03620003e462003f20565b1681526201388783522054604051908152f35b5034620001dc576020366003190112620001dc5760043590612710821015620004ac5762000439826200043260018260031b0154916200716f565b90620070e9565b90156200044b57602090604051908152f35b60405162461bcd60e51b815260206004820152603360248201527f73756d566f74696e67576569676874466f72546f6b656e436c6173733a20766f60448201527274696e67576569676874206f766572666c6f7760681b6064820152608490fd5b634e487b7160e01b81526032600452602490fd5b5034620001dc576020366003190112620001dc5760043581526202712b602052604080822081519182016001600160401b03811183821017620018195760405280546001600160a01b031682526001810180546200051e8162004034565b916200052e604051938462004010565b81835285526020808620869184015b838310620005a45762000579878787602083015260ff600682015491600860078201549101549060405195869560a0875260a0870190620058d3565b9360208601526040850152620005956060850183831662004131565b60081c16151560808301520390f35b6040516001600160401b03606082019081119082111762001805576060810160405282546001600160a01b0381168252602660a082901c60ff161015620017f15760a01c60ff1660208201526040516001600160401b03610140820190811190821117620017dd5761014081016040526200062260018501620054ae565b8152620006326002850162005503565b602082015262000645600385016200563a565b6040820152600484018a604051809283916020825491828152019184526020842093905b80601f8301106200160957620007ac945491818110620015f2575b818110620015d8575b818110620015be575b818110620015a4575b8181106200158b575b81811062001571575b81811062001557575b8181106200153d575b81811062001523575b81811062001509575b818110620014ef575b818110620014d5575b818110620014bb575b818110620014a1575b81811062001487575b8181106200146d575b81811062001453575b81811062001439575b8181106200141f575b81811062001405575b818110620013eb575b818110620013d1575b818110620013b7575b8181106200139d575b81811062001383575b81811062001369575b8181106200134f575b81811062001335575b8181106200131b575b81811062001301575b818110620012e7575b10620012d6575b509b9a999897969594939b038262004010565b60608a0152600583018054620007c28162004034565b91620007d2604051938462004010565b8183528c526020808d20908d9084015b838210620012a1575050505060808a015260068301988954620008058162004034565b9a620008156040519c8d62004010565b818c5260208c01908d528c6020812091815b8483106200112a57505050505090919293949596979860a0820152604051806007860190602082549182815201918d5260208d20908d915b81601f84011062000e215784600b97946020979460019a9794620009a694549181811062000e03575b81811062000de2575b81811062000dc1575b81811062000da0575b81811062000d80575b81811062000d5f575b81811062000d3e575b81811062000d1d575b81811062000cfc575b81811062000cdb575b81811062000cba575b81811062000c99575b81811062000c78575b81811062000c57575b81811062000c36575b81811062000c15575b81811062000bf4575b81811062000bd3575b81811062000bb2575b81811062000b91575b81811062000b70575b81811062000b4f575b81811062000b2e575b81811062000b0d575b81811062000aec575b81811062000acb575b81811062000aaa575b81811062000a89575b81811062000a68575b81811062000a47575b81811062000a26575b1062000a0b575b50038262004010565b60c0820152620009b96008880162005749565b60e0820152620009cc60098801620057a6565b610100820152604051620009f181620009e981600a8c016200559c565b038262004010565b61012082015260408201528152019201920191906200053d565b90889160f81c62000a1c816200418b565b815201386200099d565b928a8d9160ff8560f01c1662000a3c816200418b565b815201930162000996565b928a8d9160ff8560e81c1662000a5d816200418b565b81520193016200098d565b928a8d9160ff8560e01c1662000a7e816200418b565b815201930162000984565b928a8d9160ff8560d81c1662000a9f816200418b565b81520193016200097b565b928a8d9160ff8560d01c1662000ac0816200418b565b815201930162000972565b928a8d9160ff8560c81c1662000ae1816200418b565b815201930162000969565b928a8d9160ff8560c01c1662000b02816200418b565b815201930162000960565b928a8d9160ff8560b81c1662000b23816200418b565b815201930162000957565b928a8d9160ff8560b01c1662000b44816200418b565b81520193016200094e565b928a8d9160ff8560a81c1662000b65816200418b565b815201930162000945565b928a8d9160ff8560a01c1662000b86816200418b565b81520193016200093c565b928a8d9160ff8560981c1662000ba7816200418b565b815201930162000933565b928a8d9160ff8560901c1662000bc8816200418b565b81520193016200092a565b928a8d9160ff8560881c1662000be9816200418b565b815201930162000921565b928a8d9160ff8560801c1662000c0a816200418b565b815201930162000918565b928a8d9160ff8560781c1662000c2b816200418b565b81520193016200090f565b928a8d9160ff8560701c1662000c4c816200418b565b815201930162000906565b928a8d9160ff8560681c1662000c6d816200418b565b8152019301620008fd565b928a8d9160ff8560601c1662000c8e816200418b565b8152019301620008f4565b928a8d9160ff8560581c1662000caf816200418b565b8152019301620008eb565b928a8d9160ff8560501c1662000cd0816200418b565b8152019301620008e2565b928a8d9160ff8560481c1662000cf1816200418b565b8152019301620008d9565b928a8d9160ff8560401c1662000d12816200418b565b8152019301620008d0565b928a8d9160ff8560381c1662000d33816200418b565b8152019301620008c7565b928a8d9160ff8560301c1662000d54816200418b565b8152019301620008be565b928a8d9160ff8560281c1662000d75816200418b565b8152019301620008b5565b928a8d9160ff85831c1662000d95816200418b565b8152019301620008ac565b928a8d9160ff8560181c1662000db6816200418b565b8152019301620008a3565b928a8d9160ff8560101c1662000dd7816200418b565b81520193016200089a565b928a8d9160ff8560081c1662000df8816200418b565b815201930162000891565b928a8d9160ff851662000e16816200418b565b815201930162000888565b926001610400602092865460ff811662000e3b816200418b565b825260ff8160081c1662000e4f816200418b565b8583015260ff8160101c1662000e65816200418b565b604083015260ff8160181c1662000e7c816200418b565b606083015260ff81861c1662000e92816200418b565b608083015260ff8160281c1662000ea9816200418b565b60a083015262000ebf60ff8260301c166200418b565b60ff8160301c1660c083015260ff8160381c1662000edd816200418b565b60e083015260ff8160401c1662000ef4816200418b565b61010083015260ff8160481c1662000f0c816200418b565b61012083015260ff8160501c1662000f24816200418b565b61014083015260ff8160581c1662000f3c816200418b565b61016083015260ff8160601c1662000f54816200418b565b61018083015260ff8160681c1662000f6c816200418b565b6101a083015260ff8160701c1662000f84816200418b565b6101c083015260ff8160781c1662000f9c816200418b565b6101e083015260ff8160801c1662000fb4816200418b565b61020083015260ff8160881c1662000fcc816200418b565b61022083015260ff8160901c1662000fe4816200418b565b61024083015260ff8160981c1662000ffc816200418b565b61026083015260ff8160a01c1662001014816200418b565b61028083015260ff8160a81c166200102c816200418b565b6102a083015260ff8160b01c1662001044816200418b565b6102c083015260ff8160b81c166200105c816200418b565b6102e083015260ff8160c01c1662001074816200418b565b61030083015260ff8160c81c166200108c816200418b565b61032083015260ff8160d01c16620010a4816200418b565b61034083015260ff8160d81c16620010bc816200418b565b61036083015260ff8160e01c16620010d4816200418b565b61038083015260ff8160e81c16620010ec816200418b565b6103a083015260ff8160f01c1662001104816200418b565b6103c083015260f81c62001118816200418b565b6103e08201520194019201916200085f565b60405190620011398262003f9f565b6200114960ff865416836200572f565b6001850154602083015260028501805490620011658262004034565b9262001175604051948562004010565b82845290815260208082209084015b8383106200121357505050509d9e95969798999a9b9c9d600192826020926040600695015260038701546060820152604051620011ca81620009e98160048c016200559c565b608082015260ff6005880154818116151560a0840152818160081c16151560c084015260101c16151560e08201528152019301910190918e9d9c9b9a9998979695949d62000827565b60096020600192604051620012288162003f83565b855481526200126c60ff8688015481811662001244816200418b565b86850152818160081c166200125981620040ca565b604085015260101c16606083016200573c565b6200127a60028701620054ae565b60808201526200128d6003870162005803565b60a082015281520192019201919062001184565b600760209d9e969798999a9b9c9d600192620012bd86620056a8565b8152019301910190919c9b9a9998979695949c620007e2565b60f81c151581526020013862000799565b92602060019160ff8560f01c161515815201930162000792565b92602060019160ff8560e81c161515815201930162000789565b92602060019160ff8560e01c161515815201930162000780565b92602060019160ff8560d81c161515815201930162000777565b92602060019160ff8560d01c16151581520193016200076e565b92602060019160ff8560c81c161515815201930162000765565b92602060019160ff8560c01c16151581520193016200075c565b92602060019160ff8560b81c161515815201930162000753565b92602060019160ff8560b01c16151581520193016200074a565b92602060019160ff8560a81c161515815201930162000741565b92602060019160ff8560a01c161515815201930162000738565b92602060019160ff8560981c16151581520193016200072f565b92602060019160ff8560901c161515815201930162000726565b92602060019160ff8560881c16151581520193016200071d565b92602060019160ff8560801c161515815201930162000714565b92602060019160ff8560781c16151581520193016200070b565b92602060019160ff8560701c161515815201930162000702565b92602060019160ff8560681c1615158152019301620006f9565b92602060019160ff8560601c1615158152019301620006f0565b92602060019160ff8560581c1615158152019301620006e7565b92602060019160ff8560501c1615158152019301620006de565b92602060019160ff8560481c1615158152019301620006d5565b92602060019160ff8560401c1615158152019301620006cc565b92602060019160ff8560381c1615158152019301620006c3565b92602060019160ff8560301c1615158152019301620006ba565b92602060019160ff8560281c1615158152019301620006b1565b92602060019160ff85831c1615158152019301620006a8565b92602060019160ff8560181c16151581520193016200069f565b92602060019160ff8560101c161515815201930162000696565b92602060019160ff8560081c16151581520193016200068d565b92602060019160ff85161515815201930162000684565b916020919350610400600191865460ff81161515825260ff8160081c1615158583015260ff8160101c161515604083015260ff8160181c161515606083015260ff8160808282891c16151581860152828260281c16151560a0860152828260c092828260301c16151584890152828260381c16151560e0890152828260401c161515610100890152828260481c161515610120890152828260501c161515610140890152828260581c161515610160890152828260601c161515610180890152828260681c1615156101a0890152828260701c1615156101c0890152828260781c1615156101e08901521c161515610200860152828260881c161515610220860152828260901c161515610240860152828260981c161515610260860152828260a01c161515610280860152828260a81c1615156102a0860152828260b01c1615156102c0860152828260b81c1615156102e08601521c16151561030083015260ff8160c81c16151561032083015260ff8160d01c16151561034083015260ff8160d81c16151561036083015260ff8160e01c16151561038083015260ff8160e81c1615156103a083015260ff8160f01c1615156103c083015260f81c15156103e082015201940192018492939162000669565b634e487b7160e01b8a52604160045260248afd5b634e487b7160e01b8a52602160045260248afd5b634e487b7160e01b89526041600452602489fd5b634e487b7160e01b84526041600452602484fd5b5034620001dc576040366003190112620001dc576004356001600160401b03811162002933576200186390369060040162004571565b6024356001600160401b0381116200292f576200188590369060040162004861565b620271298054600260ff82166200189c81620040ca565b14620028ea5760ff191660021790556202712e54600181018111620028d657600181016202712e558391845b84518110156200192b57836002620018ec620018e5848962005f16565b5162013e1e565b5001541062001907575b620019019062005ec0565b620018c8565b92506200190160026200191f620018e5868862005f16565b500154939050620018f6565b509093918291825b85518110156200198f5784600362001950620018e5848a62005f16565b500154106200196b575b620019659062005ec0565b62001933565b935062001965600362001983620018e5878962005f16565b5001549490506200195a565b50600190950182526202712b602090815260408320865181546001600160a01b0319166001600160a01b03919091161781559501518051929591929190600160401b831162001f1557600182015483600184015580841062002694575b50602060019101910186526020862086915b83831062001f53575050505062001a16835162006032565b6202712e5485526202712b6020526004604086200181519160018060401b03831162001f155760209062001a4b84846200624a565b0190865260208620865b83811062001f3e575050505062001a6d835162006032565b6202712e5485526202712b6020526003604086200181519160018060401b03831162001f155760209062001aa284846200624a565b0190865260208620865b83811062001f29575050505062001ac4835162006032565b6202712e5485526202712b6020526005604086200181519160018060401b03831162001f155760209062001af984846200624a565b0190865260208620865b83811062001f00575050505062001b1b904262007231565b6202712e5485526202712b60205260066040862001551562001ec05762001b58906202712e5484526202712b602052600660408520015462007231565b60076040852001551562001e7d576202712e5482526202712b60205260086040832001600260ff1982541617905562001b92815162006032565b6202712e5483526202712b6020526002604084200181519160018060401b03831162001e695760209062001bc784846200624a565b0190845260208420845b83811062001e54578585815b815181101562001c44578062001c3862001bfc62001c3e938562005f16565b516202712e5486526202712b60205262001c1d836002604089200162006135565b90919082549060031b600019811b9283911b16911916179055565b62005ec0565b62001bdd565b50815b815181101562001e50576202712e54928381526202712b60205262001c8462001c77836002604085200162006135565b90549060031b1c62013e1e565b50549162001c928362006032565b92825b81811062001dff5750508182905b845182101562001dcf5762001cb9828662005f16565b5161271081101562001dbb5760031b6001015462001cd8838762005f16565b5161271081101562001da75760031b6006015462001cf691620070e9565b901562001d635762001d089162007231565b91901562001d225762001d1b9062005ec0565b9062001ca3565b60405162461bcd60e51b8152602060048201526019602482015278746f74616c566f74696e67506f776572206f766572666c6f7760381b6044820152606490fd5b606460405162461bcd60e51b815260206004820152602060248201527f63757272656e74436c617373566f74696e67506f776572206f766572666c6f776044820152fd5b634e487b7160e01b86526032600452602486fd5b634e487b7160e01b85526032600452602485fd5b905062001df9935062001c3891929586526202712b60205262001c1d836005604089200162006135565b62001c47565b62001e4a908785526202712b60205262001e308162001e2962001c7787600260408b200162006135565b5062006135565b90549060031b1c62001e43828862005f16565b5262005ec0565b62001c95565b8280f35b60019060208451940193818401550162001bd1565b634e487b7160e01b85526041600452602485fd5b60405162461bcd60e51b815260206004820152601b60248201527a657865637574696e6720656e642074696d65206f766572666c6f7760281b6044820152606490fd5b60405162461bcd60e51b8152602060048201526018602482015277766f74696e6720656e642074696d65206f766572666c6f7760401b6044820152606490fd5b60019060208451940193818401550162001b03565b634e487b7160e01b87526041600452602487fd5b60019060208451940193818401550162001aac565b60019060208451940193818401550162001a55565b805180518354602083015190916001600160a01b031690602681101562002680576001600160a81b03199092161760a09190911b60ff60a01b161783556040015180518051906001600160401b03821162002445576020600186019162001fbb84846200624a565b01908b5260208b208b5b8381106200266b575050505060208101518051906001600160401b03821162002445576020600286019162001ffb84846200624a565b01908b5260208b208b5b8381106200264d57505050506003830160408201519060208251926200202c8484620065ad565b01908b5260208b20908b905b8382106200262d5750505050606081015180516001600160401b0381116200244557602060048601926200206d838562013f81565b01918b5260208b20908b5b8160051c8110620025f25750601f1981168103620025af575b5050506080810151805190600160401b8211620024455760058501548260058701558083106200252c575b50602001600585018b5260208b20908b905b8382106200250b575050505060a0810151805190600160401b8211620024455760068501548260068701558083106200247a575b50602001600685018b5260208b20908b905b83821062002459575050505060c081015180516001600160401b03811162002445576020600786019262002149838562013f81565b01918b5260208b20908b5b8160051c8110620024075750601f1981168103620023bb575b5050506008830160e08201519060208251926200218b84846200663b565b01908b5260208b20908b905b83821062002358575050505060098301610100820151906020825192620021bf84846200663b565b01908b5260208b20908b905b838210620022d8575050505061012001518051906001600160401b038211620017dd576200220c8262002202600a8701546200555f565b600a87016200692c565b6020908a601f84116001146200225f57928060209360019693600b969262002253575b5050600019600383901b1c191690851b17600a8601555b01920192019190620019fe565b0151905038806200222f565b5090600a85018b5260208b20918b5b601f1985168110620022bf575083602093600196938793600b97601f19811610620022a5575b505050811b01600a86015562002246565b015160001960f88460031b161c1916905538808062002294565b919260206001819286850151815501940192016200226e565b80518051906001600160401b038211620023445760208f91620022fc84886200624a565b019085815260208120905b83811062002326575050505060016020819201930191019091620021cb565b82516001600160a01b03168183015560209092019160010162002307565b634e487b7160e01b8f52604160045260248ffd5b80518051906001600160401b038211620023445760208f916200237c84886200624a565b019085815260208120905b838110620023a657505050506001602081920193019101909162002197565b60019060208451940193818401550162002387565b8b928c5b601f19831683038110620023dd57505060051c01553880806200216d565b90936020620023fd60019284885191620023f7836200418b565b62013feb565b95019101620023bf565b8c8d5b602081106200242157508382015560010162002154565b949060206200243b60019288855191620023f7836200418b565b920195016200240a565b634e487b7160e01b8b52604160045260248bfd5b60066020826200246d600194518762006a8c565b0193019101909162002114565b6006818102048103620024f7576006838102048303620024f757600686018c5260208c208360060281015b8d8360060283018210620024bc5750505062002102565b90816006928255806001830155620024d76002830162006718565b806003830155620024eb600483016200651c565b600582015501620024a5565b634e487b7160e01b8c52601160045260248cfd5b60076020826200251f600194518762013e3f565b01930191019091620020ce565b6007818102048103620024f7576007838102048303620024f757600586018c5260208c208360070281015b8d83600702830182106200256e57505050620020bc565b906007916200257d82620061c7565b806001830155806002830155806003830155806004830155620025a3600583016200651c565b60068201550162002557565b8b928c5b601f19831683038110620025d157505060051c015538808062002091565b90936020620025e860019284885115159162013feb565b95019101620025b3565b8c8d5b602081106200260c57508382015560010162002078565b949060206200262360019288855115159162013feb565b92019501620025f5565b6001602082620026408394518762006976565b0193019101909162002038565b82516001600160a01b03168183015560209092019160010162002005565b60019060208451940193818401550162001fc5565b634e487b7160e01b8c52602160045260248cfd5b600b818102048103620028c257600b848102048403620028c2576001830188526020882084600b0281015b82600b0282018110620026d4575050620019ec565b898155620026e560018201620061c7565b620026f360028201620061c7565b62002701600382016200656e565b62002715600482018054908c815562013f59565b60058101548a60058301558062002853575b5060068101548a600683015580620027d6575b5080620027526007600b93018054908d815562013f59565b6200276060088201620065fc565b6200276e60098201620065fc565b8a600a82016200277f81546200555f565b8062002790575b50505001620026bf565b601f90818111600114620027ab575050555b8a388062002786565b6001620027c89284865260208620920160051c820191016200614e565b8160208120915555620027a2565b60068181020481036200283f57600682018b5260208b20906006028101905b8181106200280457506200273a565b808c600692558c60018201556200281e6002820162006718565b8c600382015562002832600482016200651c565b8c600582015501620027f5565b634e487b7160e01b8b52601160045260248bfd5b60078181020481036200283f57600582018b5260208b20906007028101905b81811062002881575062002727565b806200288f600792620061c7565b8c60018201558c60028201558c60038201558c6004820155620028b5600582016200651c565b8c60068201550162002872565b634e487b7160e01b88526011600452602488fd5b634e487b7160e01b84526011600452602484fd5b60405162461bcd60e51b815260206004820152601d60248201527f766f74696e6720697320616c726561647920696e2070726f67726573730000006044820152606490fd5b8280fd5b5080fd5b506020366003190112620001dc576004356001600160401b03811162002933576200296790369060040162004861565b805190916001600160a01b0391620029bc908316620029b3620029946200298e3362015052565b62005d89565b620029ac620029a68789511662015052565b62005def565b9062005e46565b90331462005e8d565b9060208301915b8251805182101562002a2a579062001c3862002a249284620029e784339362005f16565b5151161462002a1d620029fe6200298e3362015052565b620029ac620029a68862002a14888c5162005f16565b51511662015052565b9062005e8d565b620029c3565b62002a4e62002a3986620073da565b60405191829160208352602083019062004164565b0390f35b5034620001dc576020366003190112620001dc5760043590612710821015620004ac575060031b600181015460028201549162002ac5600562002aa6600684015493620009e960405180948193016200559c565b6040519485948552602085015260806040850152608084019062004164565b9060608301520390f35b5034620001dc5780600319360112620001dc576201388280549062002af48262004034565b9162002b04604051938462004010565b808352602083019184526020842084925b82841062002cc05785856201388380549062002b318262004034565b9362002b41604051958662004010565b82855260208501918152602081209080925b84841062002b895762002b7a8662002a4e896040519384936040855260408501906200431d565b9083820360208501526200431d565b60405162002b978162003f9f565b62002ba760ff855416826200572f565b6001840154602082015260028401805462002bc28162004034565b9162002bd2604051938462004010565b8183528552602080862090869084015b83821062002c5a575050505060019282602092604060069501526003870154606082015260405162002c1d81620009e98160048c016200559c565b608082015260ff6005880154818116151560a0840152818160081c16151560c084015260101c16151560e082015281520193019301929162002b53565b6009602060019260405162002c6f8162003f83565b8654815262002c8b60ff8689015481811662001244816200418b565b62002c9960028801620054ae565b608082015262002cac6003880162005803565b60a082015281520193019101909162002be2565b60405162002cce8162003f9f565b62002cde60ff845416826200572f565b60018084015460208301526002840190815462002cfb8162004034565b9262002d0b604051948562004010565b8184528a526020808b20908b9085015b83821062002d9457505050505060019282602092604060069501526003860154606082015260405162002d5781620009e98160048b016200559c565b608082015260ff6005870154818116151560a0840152818160081c16151560c084015260101c16151560e082015281520192019301929062002b15565b60096020869260405162002da88162003f83565b8654815262002dc460ff8689015481811662001244816200418b565b62002dd260028801620054ae565b608082015262002de56003880162005803565b60a082015281520193019101909162002d1b565b5034620001dc576020366003190112620001dc576020906040906001600160a01b0362002e2562003f20565b1681526201388583522054604051908152f35b5034620001dc576020806003193601126200293357816004359162002e7b4784111562002a1d62002e6986620062a5565b62002e7447620062a5565b9062005f5e565b33825262002ee76201388580835262002ec0604085205486111562002a1d62002ea488620062a5565b33885284875262002eb96040892054620062a5565b9062005fca565b33845280835262002ed68560408620546200626a565b929062002a1d62002ea488620062a5565b3384528252604083208190551562002f2a575b508080809381811562002f20575b3390f11562002f145780f35b604051903d90823e3d90fd5b506108fc62002f08565b90506201388680549162002f3e8362006032565b918593865b8181106200303a57505062002f588462006032565b805192906001600160401b0384116200302657908084939262002f7e8a989796620061a3565b0191865280862090865b84811062003007575050505050825b82811062002fa757505062002efa565b9192509062002ffd9062001c386001600160a01b0362002fc8838662005f16565b511662002fd58362006087565b9080546001600160a01b0360039390931b83811b80199092169390941690931b909216179055565b9084929162002f97565b83516001600160a01b0316818401558997509281019260010162002f88565b634e487b7160e01b88526041600452602488fd5b620030458162006087565b90546001600160a01b03916003913391831b1c83160362003074575b50506200306e9062005ec0565b62002f43565b966200309d9183986200308b6200306e9562006087565b9054911b1c1662001e43828962005f16565b95903862003061565b5034620001dc5780600319360112620001dc576202712680546001600160a01b0319163317905562027129805460ff191660019081179091556040519091908190620030f28162003fd8565b5290620138828054600082558062003400575b5082528180604051620031188162003fd8565b52620033ec5762013883805460008255806200336d575b5082526127106202712a5560405191620031498362003fbc565b818352805b602080821015620031c457604051602092916200316b8262003f83565b84825284818301528460408301526060858184015260809080828501528060405192620031988462003f83565b8184528185850152816040850152818085015283015260a090818301528301528287010152016200314e565b82846200335d87604051620031d98162003fd8565b848152604051620031ea8162003fd8565b858152604051620031fb8162003fd8565b8681526040516200320c8162003fd8565b8781526040516200321d8162003fd8565b888152604051916200322f8362003fd8565b89835260405193620032418562003fd8565b8a855260405195620032538762003f83565b8652602086015260408501526060840152608083015260a0820152604051916200327d8362003f83565b86835260036020840152866040840152866060840152608083015260a0820152620032a88262005ed0565b52620032b48162005ed0565b506200330b604051620032c78162003f9f565b60048152846020820152826040820152856060820152604051620032eb8162003fd8565b86815260808201528460a08201528460c08201528460e082015262006f66565b604051906200331a8262003f9f565b6002825283602083015260408201528360608201526040516200333d8162003fd8565b84815260808201528260a08201528260c08201528360e082015262006fb3565b6113886201388b556201388c5580f35b925060068381029381850403620033d65760009382855260208520908101905b8181106200339d5750506200312f565b80868492558686820155620033b56002820162006718565b866003820155620033c9600482016200651c565b866005820155016200338d565b634e487b7160e01b600052601160045260246000fd5b634e487b7160e01b82526041600452602482fd5b925060068381029381850403620033d65760009382855260208520908101905b8181106200343057505062003105565b80868492558686820155620034486002820162006718565b8660038201556200345c600482016200651c565b8660058201550162003420565b5034620001dc5780600319360112620001dc576020604051338152f35b5034620001dc5780600319360112620001dc5760206202712d54604051908152f35b5034620001dc576020366003190112620001dc5760043590612710821015620004ac5762002a4e620034e060048460031b0162005503565b60405191829182620040eb565b5034620001dc5780600319360112620001dc576040516201388180548083529083526020808301937fcd6f7cece5c70f73af31bb8ed8b80ae1c2a9e5eb261bd5ab2d9374b0c38719c892915b828210620035545762002a4e85620034e08189038262004010565b83546001600160a01b03168652948501946001938401939091019062003539565b5034620001dc5760209081600319360112620001dc576040906200359862003f20565b8160608451620035a88162003f51565b82815286810183905285810182905201526001600160a01b031681526201388083522060405190620035da8262003f51565b6200365581549160ff83161515845260ff8585019360081c161515835260026040519162003619836200361181600185016200559c565b038462004010565b6040860192835201549260608501938452604051958695818752511515908601525115156040850152516080606085015260a084019062004164565b905160808301520390f35b5034620001dc5780600319360112620001dc5760206202712e54604051908152f35b5034620001dc576020366003190112620001dc5760043590612710821015620004ac576020620036cb620036c3846200043260028260031b0154916200716f565b91906200701f565b604051908152f35b5034620001dc5780600319360112620001dc576201388b5462003730620036f962014b3d565b916200370b6127109384831062005e8d565b620037256201388e546201388c54111562002a1d62014bab565b6201388d54620070e9565b90506200373c62014c01565b50825b82811062003762575b60206200375885858504620072bf565b9050604051908152f35b909260ff60078360031b01541615620037ac578162003796620037a2926200378f62001c3896956200708c565b9062007231565b949062002a1d62014c01565b929091926200373f565b929062003748565b5034620001dc576020366003190112620001dc576020620037d760043562014153565b620037e6604051809262004131565bf35b5034620001dc576020806003193601126200293357600435620038174782111562002a1d62002e6984620062a5565b3383528280808062013887948587526200385d604083205482111562002a1d6200384184620062a5565b338652898b52620038566040872054620062a5565b906200641f565b3382528587526200389d620038778260408520546200626a565b919062002a1d6200388885620062a5565b3387528a8c52620038566040882054620062a5565b3383528688526040832055818115620039f2575b3390f115620039e7573383528152604082205415620038ce575080f35b62013888805491620038e08362006032565b918493855b8181106200398d575050620038fa8462006032565b805192906001600160401b03841162001f155781906200391a8562006167565b0191865280862090865b84811062003971575050505050825b828110620039415750505080f35b6200396b9062001c386001600160a01b036200395e838662005f16565b511662002fd5836200606a565b62003933565b83516001600160a01b0316838201559281019260010162003924565b62003998816200606a565b90546001600160a01b03916003913391831b1c831603620039c7575b5050620039c19062005ec0565b620038e5565b96620039de9183986200308b620039c1956200606a565b959038620039b4565b6040513d84823e3d90fd5b506108fc620038b1565b5034620001dc5780600319360112620001dc576040516201388680548083529083526020808301937f4b58a51c867b7b693aaefb0acd6b55f4e7286e8436d34ab3cc63a1f2bfa35aa492915b82821062003a635762002a4e85620034e08189038262004010565b83546001600160a01b03168652948501946001938401939091019062003a48565b5034620001dc576040366003190112620001dc576004356024356001600160a01b038116908190036200292f5761271082101562003ad6579160036040926020948352811b0183522054604051908152f35b634e487b7160e01b83526032600452602483fd5b5034620001dc5780600319360112620001dc576040516201388880548083529083526020808301937ff9ab3ee50aab7a7cf5b7d30204dd21b5da7cc33690a7aec17b3653a822a635df92915b82821062003b515762002a4e85620034e08189038262004010565b83546001600160a01b03168652948501946001938401939091019062003b36565b5034620001dc5780600319360112620001dc57602060ff6202712954166040519062003b9e81620040ca565b8152f35b5034620001dc576040366003190112620001dc5762003bc062003f20565b60249081356001600160401b03811162003efc5762003be49036906004016200405a565b91600260ff62027129541662003bfa81620040ca565b0362003ebc576202712d5442101562003e7e5760018060a01b0382168085526202712c92602093808552604087206202712e91825491828a52875260ff60408a20541662003e4057875194828a526202712b95868952600260408c2001540362003dda578952865260408820908852855260408720956001968760ff198254161790558688905b62003c8a578880f35b815181101562003dd65762003ca0818362005f16565b511562003d50578254808a5285885262003cf58862001c1d848d60406003918c62003ce78d6200378f8762003cda81898989200162006135565b905490891b1c9262013fff565b979099835252200162006135565b1562003d0d5762003d069062005ec0565b8762003c81565b60405162461bcd60e51b815260048101889052601c818801527b766f74696e6720666f7220706f776572596573206f766572666c6f7760201b6044820152606490fd5b8254808a5285885262003d838862001c1d848d60406003918c62003ce78d6200378f8762003cda81898989200162006135565b1562003d945762003d069062005ec0565b60405162461bcd60e51b815260048101889052601b818801527a766f74696e6720666f7220706f7765724e6f206f766572666c6f7760281b6044820152606490fd5b8880f35b60405162461bcd60e51b8152600481018990526039818901527f746865206e756d626572206f6620766f74657320646f6573206e6f74206d6174604482015278636820746865206e756d626572206f6620706f6c696369657360381b6064820152608490fd5b60405162461bcd60e51b815260048101889052601781880152761d9bdd195c881a185cc8185b1c9958591e481d9bdd1959604a1b6044820152606490fd5b60649060176040519162461bcd60e51b835260206004840152820152761d9bdd1a5b99c81c195c9a5bd9081a185cc8195b991959604a1b6044820152fd5b60649060196040519162461bcd60e51b83526020600484015282015278766f74696e67206973206e6f7420696e2070726f677265737360381b6044820152fd5b8380fd5b905034620029335781600319360112620029335760209062027127548152f35b600435906001600160a01b038216820362003f3757565b600080fd5b35906001600160a01b038216820362003f3757565b608081019081106001600160401b0382111762003f6d57604052565b634e487b7160e01b600052604160045260246000fd5b60c081019081106001600160401b0382111762003f6d57604052565b61010081019081106001600160401b0382111762003f6d57604052565b604081019081106001600160401b0382111762003f6d57604052565b602081019081106001600160401b0382111762003f6d57604052565b606081019081106001600160401b0382111762003f6d57604052565b601f909101601f19168101906001600160401b0382119082101762003f6d57604052565b6001600160401b03811162003f6d5760051b60200190565b3590811515820362003f3757565b81601f8201121562003f3757803591620040748362004034565b9262004084604051948562004010565b808452602092838086019260051b82010192831162003f37578301905b828210620040b0575050505090565b838091620040be846200404c565b815201910190620040a1565b60041115620040d557565b634e487b7160e01b600052602160045260246000fd5b6020908160408183019282815285518094520193019160005b82811062004113575050505090565b83516001600160a01b03168552938101939281019260010162004104565b906003821015620040d55752565b60005b838110620041535750506000910152565b818101518382015260200162004142565b906020916200417f815180928185528580860191016200413f565b601f01601f1916010190565b60051115620040d557565b90815180825260208080930193019160005b828110620041b7575050505090565b835185529381019392810192600101620041a8565b90815180825260208080930193019160005b828110620041ed575050505090565b83516001600160a01b031685529381019392810192600101620041de565b908082519081815260208091019281808460051b8301019501936000915b8483106200423a5750505050505090565b90919293949584806200425a600193601f198682030187528a5162004164565b980193019301919493929062004229565b90815180825260208092019182818360051b82019501936000915b848310620042975750505050505090565b9091929394958480620042b383856001950387528a5162004196565b980193019301919493929062004286565b90815180825260208092019182818360051b82019501936000915b848310620042f05750505050505090565b90919293949584806200430c83856001950387528a51620041cc565b9801930193019194939290620042df565b9060208251918281520190819060208160051b84019401926000905b8282106200434957505050505090565b9091929394818103855285519061010080820183516006811015620040d557835260208401516020840152604084015191604084015281518091526101206020818501918360051b86010193019160005b818110620044045750505050600192602092620043d0849360608085015190840152608080850151908483039085015262004164565b9160a08082015115159083015260c08082015115159083015260e08091015115159101529701950192019092919262004339565b9091929361011f9c9b9c198682030184528451908151815260208201516200442c816200418b565b602082015260408201516200444181620040ca565b60408201526060820151603d811015620040d557606082015260a062004477608084015160c0608085015260c084019062004196565b9201519060a081840391015260a0620044f6620044e3620044d0620044bd620044aa865160c0895260c089019062004196565b602087015188820360208a0152620041cc565b604086015187820360408901526200420b565b606085015186820360608801526200426b565b60808401518582036080870152620042c4565b9101519160a081830391015281519081815260208101906020808460051b8301019401926000915b818310620045435750505050506020806001929e9d9e9601940191019190916200439a565b909192939460208062004563600193601f1986820301895289516200420b565b97019501930191906200451e565b81601f8201121562003f37578035916200458b8362004034565b926200459b604051948562004010565b808452602092838086019260051b82010192831162003f37578301905b828210620045c7575050505090565b81358152908301908301620045b8565b81601f8201121562003f3757803591620045f18362004034565b9262004601604051948562004010565b808452602092838086019260051b82010192831162003f37578301905b8282106200462d575050505090565b8380916200463b8462003f3c565b8152019101906200461e565b6001600160401b03811162003f6d57601f01601f191660200190565b929192620046718262004647565b9162004681604051938462004010565b82948184528183011162003f37578281602093846000960137010152565b9080601f8301121562003f3757816020620046bd9335910162004663565b90565b9080601f8301121562003f3757813590620046db8262004034565b92620046eb604051948562004010565b828452602092838086019160051b8301019280841162003f3757848301915b8483106200471b5750505050505090565b82356001600160401b03811162003f375786916200473f848480948901016200469f565b8152019201916200470a565b9080601f8301121562003f3757813590620047668262004034565b9262004776604051948562004010565b828452602092838086019160051b8301019280841162003f3757848301915b848310620047a65750505050505090565b82356001600160401b03811162003f37578691620047ca8484809489010162004571565b81520192019162004795565b9080601f8301121562003f3757813590620047f18262004034565b9262004801604051948562004010565b828452602092838086019160051b8301019280841162003f3757848301915b848310620048315750505050505090565b82356001600160401b03811162003f375786916200485584848094890101620045d7565b81520192019162004820565b91908260409181610360528061040052031262003f375760408051929083016001600160401b0381118482101762003f6d57604052620048a2839162003f3c565b83526103605160208101356104808190526001600160401b03811162003f375761040051910190601f8201121562003f37573591620048e18362004034565b620048f0604051918262004010565b8381526020810161032052610400516104805161036051019060208660051b8301011162003f3757602090959392949501915b61048051610360510160208760051b820101841015620054a2578335906001600160401b03821162003f37578181016103c0526060601f198383016104005103011262003f37576040516103e08190529160608301906001600160401b0382118483101762004ca9576200499f92602092604052010162003f3c565b905260406103c0510135602681101562003f37576103e051602001526103c05160608101356103408190526001600160401b031062003f375761040051610140606083013583018203601f19011262003f375760405161046081905261014081019081106001600160401b0382111762004ca9576040526060820135820160200135916001600160401b03831162003f375762004a4792816060602093013501010162004571565b6104605152610340516103c051016040810135906001600160401b03821162003f3757602062004a7e9261040051920101620045d7565b6104605160200152610340516103c051016001600160401b0360608201351162003f37576104005162004aba91606081013501602001620046c0565b6104605160400152610340516103c051016080810135906001600160401b03821162003f3757602062004af492610400519201016200405a565b6104605160600152610340516103c05101936001600160401b0360a08601351162003f375761040051603f60a0870135870101121562003f375762004b43602060a08701358701013562004034565b9562004b53604051978862004010565b60a0860135808701602090810135808a5261040051610340516103c051938c01989493019092019160059190911b82016040011162003f3757604001945b610340516103c0510160a08901359081019089016020013560051b810160400187101562004cbe578635906001600160401b03821162003f37570190610400519060e09182603f19858303011262003f3757604051908382016001600160401b0381118382101762004ca9576040908152850135906001600160401b03821162003f3757604062004c259287010162004571565b8152606084013560208201526080840135604082015260a0840135606082015260c09262004c558486016200404c565b6080830152840135926001600160401b03841162003f375762004c9961010060209662004c8d8897604061040051918401016200469f565b60a0860152016200404c565b9082015281520195019462004b91565b60246000634e487b7160e01b81526041600452fd5b5050949793509450946080610460510152610340516103c0510160c08101356104e05260018060401b0360c08201351162003f3757610400519060c08101350190603f8201121562003f375762004d22602062004d30920135806104205262004034565b604051806103005262004010565b61030051610420519052602061030051016103a052610400516104205160051b9060406104e051610340516103c0510101928301011162003f37576040016103805292939092905b6104205160051b6104e051610340516103c05101019060406103805191830101811015620052bc5780356104c08190526001600160401b031062003f3757610100603f19823584016104005103011262003f3757604051610440819052916101008301916001600160401b0383118484101762004ca95760409283523501013590600682101562003f37575260606104c0516104e051610340516103c051010101013560206104405101526104c0516104e051610340516103c0510101019460018060401b0360808701351162003f375761040051605f6080880135880101121562003f375762004e8562004e77604060808901358901013562004034565b604051806104a05262004010565b6104a08051608088013580890160400135918290529151610400516104c0516104e051610340516103c0516020959095019a96940101019091019160051b82016060011162003f3757606001945b6104c0516104e051610340516103c05101010160808901359081019089016040013560051b8101606001871015620051a3578635906001600160401b03821162003f375701605f1960c081836104005103011262003f37576040519162004f3a8362003f83565b606081013583526080810135600581101562003f3757602084015260a0810135600481101562003f3757604084015260c0810135603d81101562003f3757606084015260e08101356001600160401b03811162003f37576104005162004fa591830160600162004571565b6080840152610100810135916001600160401b03831162003f375760c0908383016104005103011262003f37576040519162004fe18362003f83565b818101606001356001600160401b03811162003f3757610400516200500d918484010160600162004571565b8352818101608001356001600160401b03811162003f3757610400516200503b9184840101606001620045d7565b602084015281810160a001356001600160401b03811162003f3757610400516200506c9184840101606001620046c0565b604084015281810160c001356001600160401b03811162003f3757610400516200509d91848401016060016200474b565b60608401526001600160401b0382820160e001351162003f375761040051620050d29083830160e081013501606001620047d6565b60808401528181016101000135906001600160401b03821162003f37576104005192010190607f8201121562003f3757606081013590620051138262004034565b9162005123604051938462004010565b80835260208301916080610400519260051b82010191821162003f375760808101925b8284106200516d575050505060a08083019190915282015281526020958601950162004ed3565b83356001600160401b03811162003f375760209162005197839260806104005191870101620046c0565b81520193019262005146565b5050935093919094506104a051604061044051015260a06104c0516104e051610340516103c051010101013560606104405101526104c0516104e051610340516103c05101010160c08101359060018060401b03821162003f375760406200521292610400519201016200469f565b608061044051015260e06200523b816104c0516104e051610340516103c051010101016200404c565b60a0610440510152620052646101006104c0516104e051610340516103c051010101016200404c565b60c06104405101526200528d6101206104c0516104e051610340516103c051010101016200404c565b90610440510152610440516103a0515260206103a051016103a052602061038051016103805290929362004d78565b5050610300516104605160a00152610340516103c05193969495929301906001600160401b0360e08301351162003f3757610400519560e0830135830196603f8801121562003f375762005314602088013562004034565b9462005324604051968762004010565b60208881013580885261040051610340516103c051938a0198930160e0880135019160051b82016040011162003f3757604001955b604060208b013560051b60e0880135610340516103c05101010101871015620053985760058735101562003f3757863581526020968701960162005359565b509592989450959250955060c0610460510152610340516103c0510160018060401b036101008201351162003f375761040051620053e091610100810135016020016200474b565b6104605160e00152610340516103c051016001600160401b036101208201351162003f3757610400516200541e9161012081013501602001620047d6565b610460516101000152610340516103c05101610140810135906001600160401b03821162003f37570190610400519182603f8201121562003f3757602092816040856200546f940135910162004663565b6101206104605101526104605160406103e05101526103e051610320515281610320510161032052019193949262004923565b50945091602091500152565b9060405191828154918282526020928383019160005283600020936000905b828210620054e857505050620054e69250038362004010565b565b855484526001958601958895509381019390910190620054cd565b9060405191828154918282526020928383019160005283600020936000905b8282106200553b57505050620054e69250038362004010565b85546001600160a01b03168452600195860195889550938101939091019062005522565b90600182811c9216801562005591575b60208310146200557b57565b634e487b7160e01b600052602260045260246000fd5b91607f16916200556f565b9060009291805491620055af836200555f565b918282526001938481169081600014620056165750600114620055d3575b50505050565b90919394506000526020928360002092846000945b83861062005601575050505001019038808080620055cd565b805485870183015294019385908201620055e8565b9294505050602093945060ff191683830152151560051b01019038808080620055cd565b908154620056488162004034565b926040936200565a8551918262004010565b828152809460208092019260005281600020906000935b8585106200568157505050505050565b600184819284516200569981620009e9818a6200559c565b81520193019401939162005671565b60405190919060e081016001600160401b0381118282101762003f6d5760405260c060ff60068395620056db81620054ae565b855260018101546020860152600281015460408601526003810154606086015282600482015416151560808601526040516200572081620009e981600586016200559c565b60a08601520154161515910152565b6006821015620040d55752565b603d821015620040d55752565b908154620057578162004034565b9262005767604051948562004010565b818452600090815260208082208186015b84841062005787575050505050565b60018381926200579785620054ae565b81520192019301929062005778565b908154620057b48162004034565b92620057c4604051948562004010565b818452600090815260208082208186015b848410620057e4575050505050565b6001838192620057f48562005503565b815201920193019290620057d5565b9060405191620058138362003f83565b826200581f82620054ae565b8152600160056200583282850162005503565b936020948585015262005848600282016200563a565b60408501526200585b6003820162005749565b60608501526200586e60048201620057a6565b608085015201805490620058828262004034565b9462005892604051968762004010565b82865260009182528082208187015b848410620058b55750505050505060a00152565b85838192620058c4856200563a565b815201920193019290620058a1565b906020604082019260018060a01b0381511683520151916040602083015282518091526060820190602060608260051b8501019401926000905b8282106200591d57505050505090565b9091929394605f19828203018552855160018060a01b0381511682526020810151906026821015620040d557604091602084015201519060606040820152620059ab620059946200597d845161014060608601526101a085019062004196565b6020850151848203605f19016080860152620041cc565b6040840151838203605f190160a08501526200420b565b606083015190605f198382030160c0840152602080835192838152019201906000905b80821062005d6e57505050608083015190605f198382030160e0840152815180825260208201906020808260051b85010194019260005b82811062005cea57505050505060a083015190605f1983820301610100840152815190818152602081016020808460051b8401019401926000925b81841062005b0d57505050505060c083015190605f1983820301610120840152602080835192838152019201906000905b80821062005ae95750505062005adb8360209361012062005ac462005aab879660e060019a0151605f19868303016101408701526200426b565b610100850151848203605f1901610160860152620042c4565b92015190610180605f198285030191015262004164565b97019501939201906200590d565b909192602080600192865162005aff816200418b565b815201940192019062005a71565b9091929394601f9d9c9d1982820301845285519081516006811015620040d55781526020820151602082015260408201516101006040830152610100820181518091526101206020818501918360051b8601019301916000905b80821062005bd257505050509d9e9d8260209260e08062005ba286956060600199015160608601526080860151858203608087015262004164565b9360a0810151151560a085015260c0810151151560c0850152015115159101529701940194019293919062005a40565b9091929361011f1986820301845284519081518152602082015162005bf7816200418b565b6020820152604082015162005c0c81620040ca565b60408201526060820151603d811015620040d557606082015260a062005c42608084015160c0608085015260c084019062004196565b9201519060a081840391015260a062005c75620044e3620044d0620044bd620044aa865160c0895260c089019062004196565b9101519160a0818303910152815180825260208201906020808260051b8501019401926000915b80831062005cbc5750505050506020806001929601940192019062005b67565b909192939460208062005cdc600193601f1987820301895289516200420b565b970195019301919062005c9c565b9091929394602080600192601f1986820301885288519060c08062005d5862005d1d855160e0865260e086019062004196565b8686015187860152604086015160408601526060860151606086015260808601511515608086015260a086015185820360a087015262004164565b9301511515910152970195019392910162005a05565b909192602080600192865115158152019401920190620059ce565b90620054e6604560405180947f496e76616c69642070726f6772616d20616464726573732e204d73672e73656e60208301526403232b91d160dd1b604083015262005dde81518092602086860191016200413f565b810103602581018552018362004010565b90620054e66040805180947f2c20616e642070726f6772616d206f70657261746f7220616464726573733a20602083015262005e3581518092602086860191016200413f565b810103602081018552018362004010565b6020620054e691939293604051948162005e6a87935180928680870191016200413f565b820162005e80825180938680850191016200413f565b0103808552018362004010565b1562005e965750565b60405162461bcd60e51b81526020600482015290819062005ebc90602483019062004164565b0390fd5b6000198114620033d65760010190565b80511562005ede5760200190565b634e487b7160e01b600052603260045260246000fd5b80516001101562005ede5760400190565b80516002101562005ede5760600190565b805182101562005ede5760209160051b010190565b7f496e76616c696420776974686472617720616d6f756e742e20416d6f756e743a8152600160fd1b602082015260210190565b600f620054e6916020949360405195869262005f8e62005f8083860162005f2b565b91828151948592016200413f565b016e0161030b732103130b630b731b29d1608d1b815262005fb982518093602087850191016200413f565b010360101981018552018362004010565b6019620054e6916020949360405195869262005fec62005f8083860162005f2b565b01780161030b732103bb4ba34323930bbb0b136329031b0b9b41d1603d1b81526200602182518093602087850191016200413f565b010360061981018552018362004010565b906200603e8262004034565b6200604d604051918262004010565b828152809262006060601f199162004034565b0190602036910137565b62013888805482101562005ede5760005260206000200190600090565b62013886805482101562005ede5760005260206000200190600090565b62013881805482101562005ede5760005260206000200190600090565b6202711d805482101562005ede5760005260206000200190600090565b6201388a805482101562005ede5760005260206000200190600090565b62027119805482101562005ede5760005260206000200190600090565b6202711b805482101562005ede5760005260206000200190600090565b805482101562005ede5760005260206000200190600090565b8181106200615a575050565b600081556001016200614e565b600160401b811162003f6d5762013888908154908083558181106200618b57505050565b620054e692600052602060002091820191016200614e565b600160401b811162003f6d5762013886908154908083558181106200618b57505050565b80546000825580620061d7575050565b620054e6916000526020600020908101906200614e565b600160401b811162003f6d5762027119908154908083558181106200618b57505050565b600160401b811162003f6d576202711b908154908083558181106200618b57505050565b6201389180546000825580620061d7575050565b90600160401b811162003f6d578154908083558181106200618b57505050565b91908281116200627b576001920390565b50600091508190565b81156200628f570490565b634e487b7160e01b600052601260045260246000fd5b6000908072184f03e93ff9f4daa797ed6e38ed64bf6a1f0160401b8082101562006410575b506904ee2d6d415b85acef8160201b8083101562006400575b50662386f26fc1000080831015620063f0575b506305f5e10080831015620063e0575b5061271080831015620063d0575b506064821015620063bf575b600a80921015620063b4575b60019081602181860195620063418762004647565b9662006351604051988962004010565b80885262006362601f199162004647565b01366020890137860101905b6200637b575b5050505090565b600019019083906f181899199a1a9b1b9c1cb0b131b232b360811b8282061a835304918215620063ae579190826200636e565b62006374565b91600101916200632c565b919060646002910491019162006320565b6004919392049101913862006314565b6008919392049101913862006306565b60109193920491019138620062f6565b60209193920491019138620062e3565b604093508104915038620062ca565b601e620054e691602094936040519586926200644162005f8083860162005f2b565b017f2c20616e6420776974686472617761626c65206469766964656e64733a20000081526200647a82518093602087850191016200413f565b010360011981018552018362004010565b90620064978262004034565b604090620064a88251918262004010565b8381528093620064bb601f199162004034565b019160005b838110620064ce5750505050565b6020908251620064de8162003f9f565b6000815282600081830152606080868401526000818401526080830152600060a0830152600060c0830152600060e0830152828601015201620064c0565b6200652881546200555f565b908162006533575050565b81601f6000931160011462006546575055565b818352602083206200656491601f0160051c8101906001016200614e565b8160208120915555565b80549060008155816200657f575050565b6000526020600020908101905b81811062006598575050565b80620065a66001926200651c565b016200658c565b90600160401b811162003f6d57815491818155828210620065cd57505050565b600052602060002091820191015b818110620065e7575050565b80620065f56001926200651c565b01620065db565b80549060008155816200660d575050565b6000526020600020908101905b81811062006626575050565b8062006634600192620061c7565b016200661a565b90600160401b811162003f6d578154918181558282106200665b57505050565b600052602060002091820191015b81811062006675575050565b8062006683600192620061c7565b0162006669565b80549060008155816200669b575050565b6000526020600020908101905b818110620066b4575050565b80620066c26001926200656e565b01620066a8565b90600160401b811162003f6d57815491818155828210620066e957505050565b600052602060002091820191015b81811062006703575050565b80620067116001926200656e565b01620066f7565b80546000808355816200672a57505050565b6009928284029284840403620067c757815260208120918201915b828110620067535750505050565b80828592558260018201556200676c60028201620061c7565b6200677a60038201620061c7565b6200678860048201620061c7565b62006796600582016200656e565b620067a460068201620065fc565b620067b260078201620065fc565b620067c0600882016200668a565b0162006745565b634e487b7160e01b82526011600452602482fd5b600160401b821162003f6d57805490828155818310620067fa57505050565b6009928284029284840403620033d6578084029084820403620033d65760009182526020822092830192015b828110620068345750505050565b80828592558260018201556200684d60028201620061c7565b6200685b60038201620061c7565b6200686960048201620061c7565b62006877600582016200656e565b6200688560068201620065fc565b6200689360078201620065fc565b620068a1600882016200668a565b0162006826565b516006811015620040d55790565b906006811015620040d55760ff80198354169116179055565b90620068db816200418b565b60ff80198354169116179055565b90620068f581620040ca565b61ff0082549160081b169061ff001916179055565b90603d811015620040d55762ff000082549160101b169062ff00001916179055565b9190601f81116200693c57505050565b620054e6926000526020600020906020601f840160051c830193106200696b575b601f0160051c01906200614e565b90915081906200695d565b81519192916001600160401b03811162003f6d57620069a2816200699b84546200555f565b846200692c565b602080601f8311600114620069e1575081929394600092620069d5575b50508160011b916000199060031b1c1916179055565b015190503880620069bf565b90601f198316958460005282600020926000905b88821062006a305750508360019596971062006a16575b505050811b019055565b015160001960f88460031b161c1916905538808062006a0c565b80600185968294968601518155019501930190620069f5565b9060ff801983541691151516179055565b9061ff00825491151560081b169061ff001916179055565b9062ff0000825491151560101b169062ff00001916179055565b81516006811015620040d55762006aa49082620068b6565b60208201516001820155600281016040830151602081519162006ac88385620067db565b01916000526020600020916000905b82821062006b3b57505050509060e06005620054e6936060840151600382015562006b0a60808501516004830162006976565b019162006b1e60a082015115158462006a49565b62006b3060c082015115158462006a5a565b015115159062006a72565b8051805185556001850162006b60602083015162006b59816200418b565b82620068cf565b62006b7b604083015162006b7481620040ca565b82620068e9565b6060820151603d811015620040d55762006b95916200690a565b60808101518051906001600160401b03821162003f6d5760209062006bbe8360028a016200624a565b0160028701600052602060002060005b83811062006ecd575050505060a0015180518051906001600160401b03821162003f6d576020600388019162006c0584846200624a565b0190600052602060002060005b83811062006eb8575050505060208101518051906001600160401b03821162003f6d576020600488019162006c4884846200624a565b0190600052602060002060005b83811062006e9a575050505060058501604082015190602082519262006c7c8484620065ad565b01906000526020600020906000905b83821062006e7a5750505050600685016060820151602081519162006cb183856200663b565b019160005260206000206000925b82841062006e165750505050600785016080820151602081519162006ce583856200663b565b019160005260206000206000925b82841062006da9575050505060a06008860191015190602082519262006d1a8484620066c9565b01906000526020600020906000905b83821062006d495750505050600960206001920194019101909262006ad7565b8051602081519162006d5c8387620065ad565b018460005260206000206000915b83831062006d8957505050506001602081920193019101909162006d29565b600160208262006d9c8394518662006976565b0192019201919062006d6a565b80518051906001600160401b03821162003f6d5760209062006dcc83866200624a565b0183600052602060002060005b83811062006df857505050506001602081920192019301929062006cf3565b82516001600160a01b03168183015560209092019160010162006dd9565b80518051906001600160401b03821162003f6d5760209062006e3983866200624a565b0183600052602060002060005b83811062006e6557505050506001602081920192019301929062006cbf565b60019060208451940193818401550162006e46565b600160208262006e8d8394518762006976565b0193019101909162006c8b565b82516001600160a01b03168183015560209092019160010162006c55565b60019060208451940193818401550162006c12565b60019060208451940193818401550162006bce565b62013883805482101562005ede576000526006602060002091020190600090565b62027116805482101562005ede576000526006602060002091020190600090565b62013882805482101562005ede576000526006602060002091020190600090565b62027115805482101562005ede576000526006602060002091020190600090565b620138828054600160401b81101562003f6d5762006f8a9160018201905562006f24565b91909162006f9d57620054e69162006a8c565b634e487b7160e01b600052600060045260246000fd5b620138838054600160401b81101562003f6d5762006f8a9160018201905562006ee2565b620271168054600160401b81101562003f6d5762006f8a9160018201905562006f03565b620271158054600160401b81101562003f6d5762006f8a9160018201905562006f45565b156200702757565b60405162461bcd60e51b815260206004820152603760248201527f73756d4469766964656e64576569676874466f72546f6b656e436c6173733a206044820152766469766964656e64576569676874206f766572666c6f7760481b6064820152608490fd5b61271081101562005ede57620036c381620004326002620046bd9460031b0154916200716f565b908115620070e0576064620070cc818402938462006284565b03620070d85760019190565b600091508190565b60019150600090565b919082156200710157620070cc818402938462006284565b5060019150600090565b156200711357565b60405162461bcd60e51b815260206004820152602e60248201527f746f74616c546f6b656e73506572546f6b656e436c6173733a20746f74616c5460448201526d6f6b656e73206f766572666c6f7760901b6064820152608490fd5b612710811015908162005ede57600390811b906004928383019182549260009582879601935b858710620071a7575050505050505090565b9796909192939495976200720957620071fd88620071f5620071cf62001c389a9b8762006135565b905490881b1c6001600160a01b0316600090815260208990526040812054909462007231565b99906200710b565b95949392919062007195565b603282634e487b7160e01b6000525260246000fd5b9060018201918210620070d85760019190565b91908201918210620070d85760019190565b6201388b5462007256620036f962014b3d565b9190506200726362014c01565b5060009081925b81841062007285575b62007280935004620072bf565b905090565b9160ff60078560031b01541615620072b8578362003796620072b1926200378f62001c3896976200708c565b926200726a565b9162007273565b908015620072d757620072d29162006284565b600191565b5050600090600090565b62013891805490600160401b82101562003f6d576001820180825582101562005ede576000908152602090200180546001600160a01b0319166001600160a01b03909216919091179055565b6201388f805490600160401b82101562003f6d576001820180825582101562005ede576000908152602090200180546001600160a01b0319166001600160a01b03909216919091179055565b6201388180549190600160401b83101562003f6d578262002fd5916001620054e695019055620060a4565b60405190620073b38262003fbc565b60188252772a343290383937b3b930b69034b99032bc32b1baba32b21760411b6020830152565b600091825b6020808401908151805187101562007570578162007402886200740a9362005f16565b510162007b47565b60269283821015620040d557601a918203620074c857876200742d915162005f16565b51928284015190811015620040d5570362007486575093620074776200747f926200746f6200746860e0604062001c389a0151015162005ed0565b5162005ed0565b519062007231565b959062007b55565b92620073df565b6064906040519062461bcd60e51b82526004820152601b60248201527a2a34329037b831b7b2329034b9903737ba102820acafa1a0a9a41760291b6044820152fd5b92919050620074e1816200740289869a979a5162005f16565b82811015620040d5576014036200751a575050906200747762001c38956200378f62007513846200747f965162005f16565b5162007ba2565b6200752c906200740285855162005f16565b90811015620040d5576015146200754a575b506200747f9062005ec0565b906200747762007569956200378f62007513846200747f965162005f16565b906200753e565b505050909250803410600014620075e65760405162461bcd60e51b815260206004820152603760248201527f546865207061796d656e74206973206e6f7420656e6f7567682e205468652074604482015276037ba30b6103830bcb6b2b73a1039b437bab6321031329604d1b6064820152608490fd5b803411620079bc575b5062027129805460ff81166200760581620040ca565b600181036200763b57505050806200762b62007625620076319362007c49565b62007c5e565b62007ce8565b620046bd620073a4565b6200764681620040ca565b600281148080620079ae575b15620077375750505050620076678162007c49565b15620076f857620076788162007c49565b15620076bc57620076899062007ce8565b604051620076978162003fbc565b60158152742a3432903b37ba329034b99032bc32b1baba32b21760591b602082015290565b60405162461bcd60e51b8152602060048201526014602482015273496e76616c696420766f74652070726f6772616d60601b6044820152606490fd5b60405162461bcd60e51b815260206004820152601760248201527624b73b30b634b2103b37ba34b73390383937b3b930b69760491b6044820152606490fd5b6200774282620040ca565b60038214918280620079a0575b156200782d575050505050620077658162007c49565b15620077dd57806200762b620076256200777f9362007c49565b6040516200778d8162003ff4565b603a81527f5468652070656e64696e672070726f6772616d2069732065786563757465642060208201527930b33a32b9103b37ba34b7339030b7321030b8383937bb30b61760311b604082015290565b60405162461bcd60e51b815260206004820152602260248201527f496e76616c696420657865637574696e672070656e64696e672070726f677261604482015261369760f11b6064820152608490fd5b6200783881620040ca565b818062007991575b8062007983575b15620078715750505050906200763191600360ff198254161790556200762b620076258262007c49565b6200787c81620040ca565b82156200796e575b5050806200795f575b620078c657505050604051620078a38162003fbc565b6013815272283937b3b930b6903a32b936b4b730ba32b21760691b602082015290565b60ff19166001179055620078da8162007c49565b15620078f457806200762b62007625620076319362007c49565b60405162461bcd60e51b815260206004820152603e60248201527f5b4572726f72203030335d5468652070726f6772616d206973206e6f7420612060448201527f76616c696420657865637574652070656e64696e672070726f6772616d2e00006064820152608490fd5b5062027128544210156200788d565b6200797b919250620040ca565b388062007884565b506202712854421062007847565b50620271275442101562007840565b50620271285442106200774f565b506202712754421062007652565b60018060a01b0390818351166000526201388590816020526040600020541562007ab3575b620079ed90346200626a565b901562007a6f5762007a1090838551166000528260205260406000205462007231565b92901562007a2e5783511660005260205260406000205538620075ef565b60405162461bcd60e51b81526020600482015260196024820152782a3432903732bb903130b630b731b29037bb32b9333637bb9760391b6044820152606490fd5b60405162461bcd60e51b815260206004820152601c60248201527b2a3432903830bcb6b2b73a103932ba3ab9371037bb32b9333637bb9760211b6044820152606490fd5b6000908162013886928354915b82811062007b0c575b501562007ada575b509050620079e1565b85518516600160401b82101562003f6d5762002fd582620079ed95600162007b059501905562006087565b3862007ad1565b8662007b188262006087565b919054818b51169260031b1c161462007b3c5762007b369062005ec0565b62007ac0565b505060013862007ac9565b516026811015620040d55790565b1562007b5d57565b60405162461bcd60e51b815260206004820152601f60248201527f54686520746f74616c207061796d656e7420697320746f6f206c617267652e006044820152606490fd5b6000805b604083019060e062007bbc818451015162005ef4565b515184101562007c415762007be18462007bda838651015162005ef4565b5162005f16565b51925101519283516002101562005ede5762007c3062007c2a62007c389362007c2260409662007c1a86606062001c389b015162005f16565b5190620070e9565b929062007b55565b62007231565b949062007b55565b91905062007ba6565b509250505090565b60200151511562007c5957600190565b600090565b1562007c6657565b60405162461bcd60e51b815260206004820152600f60248201526e496e76616c69642070726f6772616d60881b6044820152606490fd5b60809060208152602a60208201527f5468652070726f6772616d2069732064656e6965642062792074686520706c7560408201526967696e2073797374656d60b01b60608201520190565b62007cf38162011e7e565b51620118f3576006811015620040d557600381146201189a578062007d505760405162461bcd60e51b8152602060048201526016602482015275151a19481c1c9bd9dc985b481a5cc81a5b9d985b1a5960521b6044820152606490fd5b600481036200a4bf5750906000905b602083015180518310156200a4b9578262007d7a9162005f16565b5160208101805160269081811015620040d557156200a47657815181811015620040d55760010362007fc957505060408091019062007dbf6101008351015162005ed0565b519262007de160e062007dd6818651015162005ed0565b519451015162005ef4565b519562007df285518551146201314c565b62007e018551885114620131b2565b60005b855181101562007f475762007e1a818662005f16565b51612710908181101562005ede57600160ff600762007e429360031b01541615151462013214565b62007e4e828a62005f16565b5162007e5b838862005f16565b51908282101562005ede57600662007e799260031b01549062007231565b9062007e86848962005f16565b51918383101562005ede57600662007ea39360031b01556201326c565b62007eaf828a62005f16565b519062007ebd838862005f16565b518181101562005ede576001600160a01b03939262007efd916003908662007ee6878e62005f16565b5116600052811b0160205287600020549062007231565b62007f09848a62005f16565b519283101562005ede57600362001c389362007f419662007f2b878e62005f16565b5116600052811b016020528760002055620132cb565b62007e04565b50939262007f649192965062007f5d9062014a3f565b9262014923565b94519262007f728462003fd8565b60008452600036813760005b835181101562007fac578062001c3862007f9d62007fa6938762005f16565b51878a6201424f565b62007f7e565b509450926020925062007fc0915062005ec0565b91905062007d5f565b815181811015620040d5576002036200826d575050604080910180519282840151956200801b62007fff60e08097015162005ed0565b519562008010818651015162005ef4565b519451015162005f05565b519387518651036200821a578751845103620081c65787518551036200816f575060005b8551811015620081595762008055818762005f16565b5190612710918281101562005ede576200807b60ff6007809360031b0154161562013324565b62008087828962005f16565b518381101562005ede5760031b01805460ff19166001179055620080ac818a62005f16565b51620080b9828962005f16565b51908382101562005ede576005620080d59260031b0162006976565b620080e1818662005f16565b51620080ee828962005f16565b518381101562005ede5760031b600101556200810b818762005f16565b5162008118828962005f16565b518381101562005ede5760031b6002015562008135818862005f16565b519182101562005ede5760006006620081539360031b015562005ec0565b6200803f565b5095509390506020925062007fc0915062005ec0565b5162461bcd60e51b815260206004820152603c60248201526000805160206201521a83398151915260448201527b1b911a5d9a59195b9915d95a59da1d081a5cc81b9bdd08195c5d585b60221b6064820152608490fd5b5162461bcd60e51b815260206004820152603960248201526000805160206201521a8339815191526044820152781b959bdd1a5b99d41bddd95c881a5cc81b9bdd08195c5d585b603a1b6064820152608490fd5b5162461bcd60e51b815260206004820152603860248201526000805160206201521a8339815191526044820152771b925b99195e105c9c985e481a5cc81b9bdd08195c5d585b60421b6064820152608490fd5b819493945181811015620040d5576003036200829757505060209162001c3862007fc092620138d6565b8195949293955181811015620040d5576004036200853c575050604080920161010094620082d9620082cd878451015162005ed0565b51968351015162005ef4565b5194620082f060e062007dd6818651015162005ed0565b519362008305885188511462002a1d62014cb0565b62008318885185511462002a1d62014cb0565b6200832b885186511462002a1d62014cb0565b60005b8851811015620083a05762008344818662005f16565b519061271082101562005ede576200839a916003906001600160a01b036200836d848e62005f16565b5116600052811b0160205262001c3888600020546200838d838a62005f16565b51111562002a1d62014db4565b6200832e565b50909691959294939660005b8351811015620084e957620083c2818862005f16565b5190612710918281101562005ede576001600160a01b039060039082620083ea858a62005f16565b5116600052811b01602052620084138b6200840b848b600020549262005f16565b51906200626a565b9062008420848c62005f16565b51918583101562005ede5760036200845993856200843f888d62005f16565b5116600052811b016020528a6000205562002a1d62014db4565b62008465828a62005f16565b518381101562005ede57600390826200847f858b62005f16565b5116600052811b01602052620084a08b6200746f848b600020549262005f16565b919050620084af838b62005f16565b519384101562005ede57620084e393600391620084cd858b62005f16565b5116600052811b01602052876000205562005ec0565b620083ac565b5094620085139297506200850c91939450620085059062014a3f565b9362014923565b9562014923565b9260005b835181101562007fac578062001c3862007f9d62008536938762005f16565b62008517565b8195949395519080821015620040d55760059182036200875257505050604091828501906200858060e062008575818551015162005ed0565b519351015162005ef4565b51928251845103620087015760005b8351811015620085e757620085a5818562005f16565b519061271082101562005ede576003620085e19260018060a01b038b5116600052811b0160205262001c3887600020546200838d838962005f16565b6200858f565b509092919260005b8451811015620086825762008605818662005f16565b51906127108083101562005ede57600360018060a01b0393848c5116600052811b016020526200863f88600020546200840b848962005f16565b6200864b848a62005f16565b519283101562005ede57600362001c38936200867c968e5116600052811b01602052896000205562002a1d62014db4565b620085ef565b509593926200869391925062014a3f565b91805193620086a28562003fbc565b6001855260203681870137516001600160a01b0316620086c28562005ed0565b525194620086d08662003fd8565b60008652600036813760005b835181101562007fac578062001c3862007f9d620086fb938762005f16565b620086dc565b845162461bcd60e51b81526020600482015260356024820152600080516020620151fa833981519152604482015274195b905b5bdd5b9d081a5cc81b9bdd08195c5d585b605a1b6064820152608490fd5b82969394965181811015620040d557600603620089bd57505050906040809201620087836101008251015162005ed0565b51946200879a60e062008575818551015162005ed0565b519286518351036200896c578651845103620089205760005b87518110156200881857620087c9818562005f16565b519061271082101562005ede5762008812916003906001600160a01b03620087f2848d62005f16565b5116600052811b0160205262001c3887600020546200838d838962005f16565b620087b3565b509092919260005b8751811015620088cc5762008836818662005f16565b516127108082101562005ede576001600160a01b039291600390846200885d858e62005f16565b5116600052811b016020526200887d88600020546200840b848962005f16565b62008889848a62005f16565b519283101562005ede57600362001c3893620088c696620088ac8f889062005f16565b5116600052811b01602052896000205562002a1d62014db4565b62008820565b509592620088e191925062007f5d9062014a3f565b925194620088ef8662003fd8565b60008652600036813760005b835181101562007fac578062001c3862007f9d6200891a938762005f16565b620088fb565b845162461bcd60e51b81526020600482015260306024820152600080516020620152da83398151915260448201526f1b9d1cc81a5cc81b9bdd08195c5d585b60821b6064820152608490fd5b845162461bcd60e51b815260206004820152603560248201526000805160206201519a8339815191526044820152741b90db185cdcd95cc81a5cc81b9bdd08195c5d585b605a1b6064820152608490fd5b825181811015620040d55760070362008b1057505050604080910193620089ea6101008651015162005ed0565b519282620089fd60e08851015162005ed0565b51965101519162008a16855188511462002a1d62014cb0565b60005b8551811015620081595762008b0a9062001c386001600160a01b038260028862008af28e62008ae78e62008add8f8962008a548a8562005f16565b511660005262008a918962008a8981620138809a8b60205262008a8360ff8760002054161562002a1d62014d81565b62005f16565b519662005f16565b51968a62008ac783519b8c9662008aa88862003f51565b600188526060602089019860008a528781019b8c52019b8c5262005f16565b5116600052602052600020975115158862006a49565b5115158662006a5a565b516001850162006976565b5191015562008b02838a62005f16565b511662007379565b62008a19565b82969596519281841015620040d557600893840362008c03575050506101009262008b4384604080950151015162005ed0565b519460005b865181101562008bed5762008be790876001600160a01b038062008b6d848462005f16565b511660005262008bbe888262008ba28662013880968760205262008a83600160ff8097600020541615151462002a1d62014ce0565b5116600052836020528960002054891c161562002a1d62014d48565b62008bca838b62005f16565b5116600052602052856000208761ff001982541617905562005ec0565b62008b48565b5095915093506020925062007fc0915062005ec0565b80959394955182811015620040d55760090362008cf25750505062008c32610100604080950151015162005ed0565b519360005b855181101562008cdd5762008cd790866001600160a01b038062008c5c848462005f16565b511660005262008cb06001898362008c928762013880978860205262008a838660ff8097600020541615151462002a1d62014ce0565b5116600052846020528a600020548a1c1615151462002a1d62014d13565b62008cbc838a62005f16565b51166000526020528560002061ff0019815416905562005ec0565b62008c37565b50949093506020925062007fc0915062005ec0565b80979694929395975182811015620040d557600a0362008dd2575050505060408094019162008d3860e062008d2d6101008651015162005ed0565b519451015162005ed0565b519162008d4d845184511462002a1d62014cb0565b60005b845181101562007fac5762008dcc906001600160a01b038062008d74838962005f16565b5116600052620138808060205262008d9c600160ff8c600020541615151462002a1d62014ce0565b62008da8838862005f16565b519162008db6848a62005f16565b5116600052602052600289600020015562005ec0565b62008d50565b809795975182811015620040d557600b0362008ea557505050506040809201938262008e046101008751015162005ed0565b51955101519162008e1d865184511462002a1d62014cb0565b60005b865181101562007fac5762008e9f9062001c386001600160a01b038062008e48848c62005f16565b5116600052620138808060205262008e70600160ff8b600020541615151462002a1d62014ce0565b62008e7c848962005f16565b519162008e8a858d62005f16565b51166000526020526001886000200162006976565b62008e20565b809794959396975182811015620040d557600c0362008fdd5750505060400160a09182825101519360005b855181101562008bed5760e062008eec82878751015162005f16565b5101511562008f745762008f1062008f0982878751015162005f16565b5162006f66565b620138828054600019929190838101908111620033d65762008f338a9162006f24565b5001805461ff00191661010017905554918201918211620033d6578762008f5e62008f6e9362006f24565b5001805460ff1916905562005ec0565b62008ed0565b62008f8f62008f8882878751015162005f16565b5162006fb3565b620138828054600019929190838101908111620033d65762008fb28a9162006ee2565b5001805461ff00191661010017905554918201918211620033d6578762008f5e62008f6e9362006ee2565b80979695939294975182811015620040d557600d03620091345750506040019460606200900f60e08851015162005ed0565b51965101519162009024875184511462012e8b565b60005b875181101562008159578080878a62009045620090d5958962005f16565b5115620090db57620090a66200908d8483620090786200906b620090b198889762005f16565b5162013882541162012f14565b62008a838d620090946200908d858562005f16565b5162006f24565b509060ff9889920154901c1662012f6c565b500154161562012fcd565b86620090c26200908d838c62005f16565b5001805460ff1916600117905562005ec0565b62009027565b620090a66200911c848362009107620090fa6200912398889762005f16565b5162013883541162012f14565b62008a838d620090946200911c858562005f16565b5162006ee2565b86620090c26200911c838c62005f16565b80979493975182811015620040d557600e036200921b5750506040019160606200916360e08551015162005ed0565b51935101519562009178845188511462012e8b565b60005b845181101562008159578062009196620091a2928a62005f16565b51620091a85762005ec0565b6200917b565b620091c5620091b8828862005f16565b516201388254116201302e565b6200920a87620091ef620091de6200908d858b62005f16565b5060ff9283910154891c1662013087565b88620092006200908d858b62005f16565b50015416620130e9565b8662008f5e6200908d838962005f16565b8091929350969495965182811015620040d557600f036200933657505060400160a09182825101519360005b855181101562008bed5760e06200926382878751015162005f16565b51015115620092d4576200928062008f0982878751015162005f16565b620138828054600019929190838101908111620033d657620092a38a9162006f24565b5001805461ff00191661010017905554918201918211620033d65787620090c2620092ce9362006f24565b62009247565b620092e862008f8882878751015162005f16565b620138828054600019929190838101908111620033d6576200930b8a9162006ee2565b5001805461ff00191661010017905554918201918211620033d65787620090c2620092ce9362006ee2565b80919293949695505182811015620040d557601003620093db57505060400151906200936b60e060c084015193015162005ed0565b519362009380835186511462002a1d62014cb0565b60005b8351811015620093c8578062001c38620093a2620093c2938762005f16565b51620093ae816200418b565b620093ba838a62005f16565b519062012df2565b62009383565b509350916020915062007fc09062005ec0565b809592955182811015620040d5576011036200967b575050906040809401916200941160e062008d2d6101008651015162005ed0565b519162009422845184511462012d98565b60005b84518110156200949b57620094959062001c386001600160a01b03806200944d848a62005f16565b511660005262013885806020526200946f8b600020546200746f868b62005f16565b9190926200947e868c62005f16565b51166000526020528a6000205562002a1d62014c66565b62009425565b5093945091620094ac915062014923565b906201388692835494620094cc620094c685518862012de4565b62006032565b91600093845b8881106200963b575060005b865181101562009593576000805b8a811062009544575b50156200950e575b620095089062005ec0565b620094de565b9462009508906200953b906001600160a01b036200952d898b62005f16565b511662001e43828962005f16565b959050620094fd565b6200954f8162006087565b90546001600160a01b0360039290921b1c8116906200956f858c62005f16565b5116146200958857620095829062005ec0565b620094ec565b5050600138620094f5565b50965094909350620095a58362006032565b805191906001600160401b03831162003f6d57602090620095c684620061a3565b0190600052602060002060005b8381106200961d575050505060005b828110620095fa5750505062007fc060209162005ec0565b620096179062001c386001600160a01b0362002fc8838662005f16565b620095e2565b82516001600160a01b031681830155602090920191600101620095d3565b946200966e6200967591620096508862006087565b905460039190911b1c6001600160a01b031662001e43828962005f16565b9562005ec0565b620094d2565b805182811015620040d557601203620098ee575050604080940191620096ad60e062008d2d6101008651015162005ed0565b5191620096be845184511462012d98565b60005b845181101562009711576200970b9062001c386001600160a01b0380620096e9848a62005f16565b511660005262013885806020526200946f8b600020546200840b868b62005f16565b620096c1565b509491509291620097229062014923565b90620138868054620097348162006032565b9260009485925b808410620097e85750505050620097528362006032565b805191906001600160401b03831162003f6d576020906200977384620061a3565b0190600052602060002060005b838110620097ca575050505060005b828110620097a75750505062007fc060209162005ec0565b620097c49062001c386001600160a01b0362002fc8838662005f16565b6200978f565b82516001600160a01b03168183015560209092019160010162009780565b9297600097929597949194998a5b8651811015620098dc576200980b8b62006087565b90546001600160a01b0360039290921b1c8116906200982b838a62005f16565b51161462009844576200983e9062005ec0565b620097f6565b509950976001979592979491945b80620098ab575b1562009871576200986a9062005ec0565b926200973b565b95620098a46200986a91620098868962006087565b905460039190911b1c6001600160a01b031662001e43828a62005f16565b9662005ec0565b50620098b78162006087565b60018060a01b0391549060031b1c166000526201388560205282600020541562009859565b50999890989795929794919462009852565b809592955182811015620040d5576013036200994f57505060400151608001519260005b84518110156200993e578062001c386200993162009938938862005f16565b5162013eeb565b62009912565b5092509062007fc060209162005ec0565b80519180831015620040d557601492830362009af3575050506040809101906200997f6101008351015162005ed0565b51926200999660e062007dd6818651015162005ed0565b5195620099a785518551146201314c565b620099b68551885114620131b2565b60005b855181101562009a9e57620099cf818962005f16565b51620099dc828762005f16565b51612710918282101562005ede576006620099fd9260031b01549062007231565b9062009a0a848962005f16565b51918383101562005ede57600662009a279360031b01556201326c565b62009a33828a62005f16565b519062009a41838862005f16565b518181101562005ede576001600160a01b03939262009a6a916003908662007ee6878e62005f16565b62009a76848a62005f16565b519283101562005ede57600362001c389362009a989662007f2b878e62005f16565b620099b9565b50939262009ab49192965062007f5d9062014a3f565b94519262009ac28462003fd8565b60008452600036813760005b835181101562007fac578062001c3862007f9d62009aed938762005f16565b62009ace565b815181811015620040d557601590810362009b1f57505050506020919262001c3862007fc092620138d6565b82519180831015620040d557601692830362009b88575050505050610100604062009b4e920151015162005ed0565b519260005b84518110156200993e5762009b829062001c386001600160a01b0362009b7a838962005f16565b51166200732d565b62009b53565b835181811015620040d55760170362009be15760405162461bcd60e51b815260206004820152602960248201526000805160206201529a8339815191526044820152683632b6b2b73a32b21760b91b6064820152608490fd5b835181811015620040d55760180362009c56575050505050610100604062009c0d920151015162005ed0565b5162013892805460ff191660011790559260005b84518110156200993e5762009c509062001c386001600160a01b0362009c48838962005f16565b5116620072e1565b62009c21565b839796975181811015620040d55760190362009c80575b50505050505062007fc060209162005ec0565b835181811015620040d557601a0362009d8d575050505062009cab60e0604080940151015162005ed0565b519062009cbc600383511462012d98565b62009cc78262005ed0565b519262009ce062009cd88462005ef4565b519362005f05565b519262009d535750509162007fc09160016020941460001462009d4c5762009d209062009d136201388d91825462007231565b90915562002a1d62014c01565b62009d416201388e62009d3481546200721e565b90915562002a1d62014c3b565b913880808062009c6d565b5062009d41565b60649250519062461bcd60e51b825260206004830152602482015273496e76616c6964207061796d656e74207479706560601b6044820152fd5b9091928094505181811015620040d557601b036200a2185750505050509062009dcd6201388b546200370b62009dc262014b3d565b612710831062005e8d565b505062009dd962014c01565b506000805b61271081106200a1b3575b505062009df562007243565b9062009e056202712a5462006032565b9060009384905b6127108210156200a1a8578160031b9260ff6007850154161562009f5d5760009760028501541562009f4b57889798975b62005ede57600485015488101562009f315762009e5e886004870162006135565b9054600391821b1c6001600160a01b0316600081815291870160205260409182902054919a9162009e91908a90620070e9565b9b9062009e9d62014c01565b62009ea89162005e8d565b60009b600289015462009ebb91620070e9565b9062009ec662014c01565b62009ed19162005e8d565b828d5262013887602052818d20549062009eeb9162007231565b90918d205562009efa62014c01565b62009f059162005e8d565b62009f11828962005f16565b5262009f1d9062005ec0565b9762009f299062005ec0565b979862009e3d565b9290935062009f4291965062005ec0565b90959462009e0c565b9290935062009f429196975062005ec0565b959392509350505b62009f708262006032565b91600091825b8281106200a11257505050620138889081549262009f99620094c6858462012de4565b9360009081905b8082106200a0d057505060005b8381106200a02c5750508351939150506001600160401b03831162003f6d5760209062009fda8462006167565b0190600052602060002060005b8381106200a00e575050505062007fc060209160006201388d5560006201388e5562009d41565b82516001600160a01b03168183015560209092019160010162009fe7565b6000805b8381106200a088575b50156200a052575b6200a04c9062005ec0565b62009fad565b906200a04c906200a07f906001600160a01b036200a071858762005f16565b511662001e43828a62005f16565b9190506200a041565b6001600160a01b03806200a09d858862005f16565b5116906200a0ac838b62005f16565b5116146200a0c5576200a0bf9062005ec0565b6200a030565b50506001386200a039565b90916200a1046200a10b916200a0e6856200606a565b905460039190911b1c6001600160a01b031662001e43828b62005f16565b9262005ec0565b9062009fa0565b6000805b8581106200a160575b50156200a138575b6200a1329062005ec0565b62009f76565b926200a132906200a157906001600160a01b036200952d878662005f16565b9390506200a127565b6001600160a01b03806200a175858762005f16565b5116906200a184838a62005f16565b5116146200a19d576200a1979062005ec0565b6200a116565b50506001386200a11f565b935050929062009f65565b8060031b9060ff600783015416156200a211576200a1ff62007c2a62001c38946200a1f36200a20b9560026200a1e9876200708c565b91015490620070e9565b929062002a1d62014c01565b939062002a1d62014c01565b62009dde565b5062009de9565b835181811015620040d557601c036200a2715760405162461bcd60e51b81526020600482015260296024820152600080516020620152ba8339815191526044820152683632b6b2b73a32b21760b91b6064820152608490fd5b835181811015620040d557601d036200a297575b505050505062007fc060209162009d41565b835181811015620040d557601e146200a28557835181811015620040d557601f036200a2f057505050506020916200a2e66200a2df62007fc093604080910151015162005ed0565b5162013f22565b913880806200a285565b835181811015620040d5576020036200a316575b505050505062007fc06020916200a2e6565b835181811015620040d55760218091036200a333575b506200a304565b8451828110156200a461576022036200a3745750505050505062007fc06020916201389260ff1981541690556200a36962006236565b91388080806200a32c565b8451828110156200a461576023036200a39b575b50505050505062007fc06020916200a369565b845194828610156200a4615760248096036200a3b9575b506200a388565b8051838110156200a44d576025146200a3b25751918210156200a4395750036200a3fd5750506020916200a3f162007fc092620138d6565b9138808080806200a3b2565b60405162461bcd60e51b8152602060048201529182015275496e76616c6964206f7065726174696f6e207479706560501b604482015260649150fd5b8490634e487b7160e01b6000526004526000fd5b8683634e487b7160e01b6000526004526000fd5b50634e487b7160e01b60005260045260246000fd5b60405162461bcd60e51b815260206004820152601b60248201527a13dc195c985d1a5bdb881d1e5c19481a5cc81d5b9919599a5b9959602a1b6044820152606490fd5b50915050565b600281036200a4e35760405162461bcd60e51b81528062005ebc6004820162007c9d565b6001146200a4ee5750565b906200a4fe62013883546200648b565b805190600160401b821162003f6d5762027116548262027116558083106201181e575b506020016202711660005260206000206000915b838310620117fd575050505060005b62013883548110156200a57e578062001c386200a5656200a5789362006ee2565b506200a5718362006f03565b9062011db3565b6200a544565b506200a58e62013882546200648b565b805190600160401b821162003f6d57620271155482620271155580831062011760575b506020016202711560005260206000206000915b8383106201173f575050505060005b62013882548110156200a607578062001c386200a5f56200a6019362006f24565b506200a5718362006f45565b6200a5d4565b5060005b612710811015806200a7d357600160ff6201389a8460031b0154161515146200a641575b506200a63b9062005ec0565b6200a60b565b916000835b62005ede57620138978360031b01548110156200a6b3576200a6aa929350600092816200a67d8593620138978860031b0162006135565b9054600391821b1c6001600160a01b031660009081529087901b6201389601602052604081205562005ec0565b9093926200a646565b5091604051906200a6c48262003fd8565b6000825262005ede578051906001600160401b03821162003f6d576020906200a6f683620138978660031b016200624a565b01620138978360031b01600052602060002060005b8381106200a7b55750505050600381901b6201389a8101805460ff191690556000620138938201819055620138948201819055620138958201556201389801546200a63b91906200a75c906200555f565b601f908181116200a789575b50506000620138988260031b01556000620138998260031b0155906200a62f565b6200a7ad91620138988460031b016000526020600020910160051c8101906200614e565b38806200a768565b82516001600160a01b0316818301556020909201916001016200a70b565b505060005b6127108110620116aa575060005b62013881548110156200a84357806200a8036200a83d92620060a4565b60018060a01b0391549060031b1c166000526202711360205260006002604082208281556200a835600182016200651c565b015562005ec0565b6200a7e6565b506200a853620138815462006032565b8051906001600160401b03821162003f6d57600160401b821162003f6d57602090620271145483620271145580841062011687575b500162027114600052602060002060005b83811062011669575050505060005b62013881548110156200a91d576200a8c081620060a4565b9054620271145460039290921b1c6001600160a01b0316919081101562005ede57620271146000526000805160206201523a833981519152810180546001600160a01b0319169092179091556200a9179062005ec0565b6200a8a8565b509060005b62013881548110156200a9df57806200a93f6200a99492620060a4565b9060018060a01b03918291549060031b1c1660005262013880602052604080600020916200a96d84620060a4565b90549060031b1c1660005262027113602052600020908082036200a99a575b505062005ec0565b6200a922565b600280916200a9c060ff6200a9b3818454168762006a49565b825460081c168562006a5a565b6200a9d2600182016001860162011a34565b015491015538806200a98c565b5060005b6202711d548110156200aa3357806200aa006200aa2d92620060c1565b60018060a01b0391549060031b1c166000526202711c60205262001c38604060002060648101906200614e565b6200a9e3565b506200aa436201388a5462006032565b8051906001600160401b03821162003f6d57600160401b821162003f6d5760206202711d91825484845580851062011649575b500190600052602060002060005b8381106201162b575050505060005b6201388a548110156200aad7578062001c386200aab46200aad193620060de565b905460039190911b1c6001600160a01b031662002fd583620060c1565b6200aa93565b5060005b6201388a548110156200ab6557806200aaf86200ab4c92620060de565b9060018060a01b03918291549060031b1c1660005262013889602052604080600020916200ab2684620060de565b90549060031b1c166000526202711c602052600020908082036200ab5257505062005ec0565b6200aadb565b6200ab5d9162011e47565b38806200a98c565b506201388b546202711e556201388c546202711f556201388d5462027120556201388e5462027121556201388f546001600160401b03811162003f6d57600160401b811162003f6d576202712254816202712255808210620115fc575b506202712260009081527f846ab89c81ea9339188216a1864da1a19ebe28d411cbec99efa70ca6d389710d8054600080516020620151ba83398151915291905b848410620115da5750505050506201389054600160401b811162003f6d57620271235481620271235580821062011597575b50620271236000908152600080516020620151da8339815191527f7f73709277f72a9bc7b284375e83603a53394744e9fa86da811e86c2aa78e05e5b8383106201157957505062013891549150506001600160401b03811162003f6d57600160401b811162003f6d5762027124548162027124558082106201154a575b506202712460009081527f8f332db73d3937798ea82422156d059730b0b3058606439b57b7ae623e94536680546000805160206201525a83398151915291905b8484106201152857505050505060ff620138925416151560ff8019620271255416911617620271255560005b62027119548110156200ad6957806200ad3a6200ad6392620060fb565b905460039190911b1c6001600160a01b0316600090815262027118602052604081205562005ec0565b6200ad1d565b506200ad79620138865462006032565b8051906001600160401b03821162003f6d576020906200ad9983620061ee565b0162027119600052602060002060005b8381106201150a575050505060005b62013886548110156200adfc578062001c386200add96200adf69362006087565b905460039190911b1c6001600160a01b031662002fd583620060fb565b6200adb8565b5060005b62013886548110156200ae6e57806200ae1d6200ae689262006087565b9060018060a01b03918291549060031b1c166000526201388560205260408060002054916200ae4c8462006087565b90549060031b1c16600052620271186020526000205562005ec0565b6200ae00565b5060005b6202711b548110156200aebe57806200ae8f6200aeb89262006118565b905460039190911b1c6001600160a01b031660009081526202711a602052604081205562005ec0565b6200ae72565b506200aece620138885462006032565b8051906001600160401b03821162003f6d576020906200aeee8362006212565b016202711b600052602060002060005b838110620114ec575050505060005b62013888548110156200af51578062001c386200af2e6200af4b936200606a565b905460039190911b1c6001600160a01b031662002fd58362006118565b6200af0d565b5060005b62013888548110156200afc357806200af726200afbd926200606a565b9060018060a01b03918291549060031b1c166000526201388760205260408060002054916200afa1846200606a565b90549060031b1c166000526202711a6020526000205562005ec0565b6200af55565b50906000905b602083015180518310156200eb1357826200afe49162005f16565b5160208101516026811015620040d557156200a4765760208101516026811015620040d5576001036200b5c757604001906200b0266101008351015162005ed0565b51936200b03d60e062007dd6818651015162005ed0565b51916200b04e86518551146201314c565b6200b05d8651845114620131b2565b60005b86518110156200b1c0576200b076818662005f16565b5161271081101562005ede57600160ff6201389a6200b09e9360031b01541615151462013214565b6200b0aa818562005f16565b516200b0b7828762005f16565b519061271082101562005ede57620138996200b0d99260031b01549062007231565b906200b0e6838862005f16565b519161271083101562005ede57620138996200b1079360031b01556201326c565b6200b113818562005f16565b516200b120828762005f16565b519061271082101562005ede576200b1649162013896906001600160a01b036200b14b868d62005f16565b511660005260031b016020526040600020549062007231565b91906200b172828862005f16565b519061271082101562005ede576200b1ba9362001c389262013896906001600160a01b036200b1a2878f62005f16565b511660005260031b01602052604060002055620132cb565b6200b060565b50926200b1d7919250620085059095949562014a3f565b916040516200b1e68162003fd8565b6000815260003681376000945b80518610156200b5ad576200b209868262005f16565b51610360526200b21a855162006032565b966000946200b22a845162006032565b6103e05260009460005b88518110156200b306578a896200b2646001600160a01b036200b258858462005f16565b51166103605162014875565b15806200b2bd575b6200b285575b50506200b27f9062005ec0565b6200b234565b986200b2b29162001e4382859c6200b2a96200b27f9760018060a01b039262005f16565b51169262005f16565b9790508a896200b272565b50505061271061036051101562005ede576001600160a01b036200b2e2828b62005f16565b5116600052620138966103605160031b016020528a8960406000205415156200b26c565b50909895979498969291939660005b88518110156200b3a55761271061036051101562005ede576001600160a01b03806200b342838c62005f16565b5116600052620138966103605160031b01602052604060002054156200b375575b506200b36f9062005ec0565b6200b315565b819b6200b39d916200b38c6200b36f948d62005f16565b511662001e43826103e05162005f16565b9a906200b363565b5098509695929190939661036051612710811015806101205262005ede5760031b620138970154986200b3dd620094c6898c62012de4565b60e05260006102e0526000610400525b6101205162005ede57610400518a8110156200b4b7576200b4246200b44491600061012052620138976103605160031b0162006135565b90546103e0516001600160a01b03939260031b9190911c831690620148ce565b156200b464575b506200b45a6104005162005ec0565b610400526200b3ed565b6000610120526200b48461040051620138976103605160031b0162006135565b90549060031b1c166200b49d6102e05160e05162005f16565b526200b4ac6102e05162005ec0565b6102e052386200b44b565b50979294959093985095909560005b8281106200b562575050506101205162005ede5760e051516001600160401b03811162003f6d576200b50481620138976103605160031b016200624a565b602060e05101620138976103605160031b01600052602060002060005b8381106200b54457505050506200b5389062005ec0565b9492959091956200b1f3565b82516001600160a01b0316818301556020909201916001016200b521565b6200b5a7906001600160a01b036200b57b828562005f16565b51166200b58e6102e05160e05162005f16565b526200b59d6102e05162005ec0565b6102e05262005ec0565b6200b4c6565b5050939092506200b5bf915062005ec0565b90916200afc9565b9060208294939401516026811015620040d5576002036200b7865760408092019081519383850151916200b6206200b60460e08098015162005ed0565b51966200b615818751015162005ef4565b519551015162005f05565b519483518751036200821a578351855103620081c65783518651036200816f575060005b86518110156200b773576200b65a818862005f16565b5161271081101562005ede5760ff6201389a6200b67e9260031b0154161562013324565b6200b68a818862005f16565b5161271081101562005ede5760031b6201389a01805460ff191660011790556200b6b5818562005f16565b516200b6c2828962005f16565b519061271082101562005ede57620138986200b6e29260031b0162006976565b6200b6ee818662005f16565b516200b6fb828962005f16565b5161271081101562005ede5760031b6201389401556200b71c818762005f16565b516200b729828962005f16565b5161271081101562005ede5760031b6201389501556200b74a818862005f16565b519061271082101562005ede576000620138996200b76d9360031b015562005ec0565b6200b644565b509592509350506200b5bf915062005ec0565b92919060208101516026811015620040d5576003036200b7b1579162001c386200b5bf929362013370565b60208101516026811015620040d5576004036200ba7157604001610100936200b7ee6200b7e2868451015162005ed0565b51958351015162005ef4565b51906200b80560e062007dd6818651015162005ed0565b51936200b81a875184511462002a1d62014cb0565b6200b82d875185511462002a1d62014cb0565b6200b840875186511462002a1d62014cb0565b60005b87518110156200b8ac576200b859818662005f16565b519061271082101562005ede576200b8a69162013896906001600160a01b036200b884848d62005f16565b511660005260031b0160205262001c386040600020546200838d838a62005f16565b6200b843565b509095919593929360005b83518110156200ba13576200b8cd818762005f16565b5161271081101562005ede5762013896906001600160a01b036200b8f2848862005f16565b511660005260031b016020526200b9146040600020546200840b838862005f16565b906200b921838962005f16565b519161271083101562005ede576200b9689262013896906001600160a01b036200b94c878b62005f16565b511660005260031b0160205260406000205562002a1d62014db4565b6200b974818762005f16565b5161271081101562005ede5762013896906001600160a01b036200b999848c62005f16565b511660005260031b016020526200b9bb6040600020546200746f838862005f16565b9190506200b9ca818862005f16565b519161271083101562005ede576200ba0d9262013896906001600160a01b036200b9f5858e62005f16565b511660005260031b0160205260406000205562005ec0565b6200b8b7565b50936200ba2d9192969350620085056200850c9162014a3f565b9260005b83518110156200ba5f578062001c386200ba506200ba59938762005f16565b51878a62014544565b6200ba31565b5094509290506200b5bf915062005ec0565b9260208401516026811015620040d5576005036200bc8a5760408401906200baa360e062008575818551015162005ed0565b519282518451036200bc385760005b83518110156200bb0e576200bac8818562005f16565b519061271082101562005ede57620138966200bb089260018060a01b038a511660005260031b0160205262001c386040600020546200838d838962005f16565b6200bab2565b509060005b83518110156200bbb7576200bb29818562005f16565b5161271081101562005ede57620138969060018060a01b0389511660005260031b016020526200bb646040600020546200840b838862005f16565b91906200bb72828762005f16565b519061271082101562005ede576200bbb1936201389662001c389360018060a01b038d511660005260031b0160205260406000205562002a1d62014db4565b6200bb13565b50949250906200bbc79062014a3f565b90604051926200bbd78462003fbc565b6001845260203681860137516001600160a01b03166200bbf78462005ed0565b52604051946200bc078662003fd8565b60008652600036813760005b83518110156200ba5f578062001c386200ba506200bc32938762005f16565b6200bc13565b60405162461bcd60e51b81526020600482015260356024820152600080516020620151fa833981519152604482015274195b905b5bdd5b9d081a5cc81b9bdd08195c5d585b605a1b6064820152608490fd5b909260208101516026811015620040d5576006036200c27f576040016200bcb76101008251015162005ed0565b51936200bcce60e062008575818551015162005ed0565b519285518351036200c22d5785518451036200c1e05760005b86518110156200bd50576200bcfd818562005f16565b519061271082101562005ede576200bd4a9162013896906001600160a01b036200bd28848c62005f16565b511660005260031b0160205262001c386040600020546200838d838962005f16565b6200bce7565b509060005b86518110156200bdf6576200bd6b818562005f16565b5161271081101562005ede5762013896906001600160a01b036200bd90848b62005f16565b511660005260031b016020526200bdb26040600020546200840b838862005f16565b91906200bdc0828762005f16565b519061271082101562005ede576200bdf09362001c389262013896906001600160a01b036200b94c878f62005f16565b6200bd55565b50916200be0d919350620085059095949562014a3f565b91604051926200be1d8462003fd8565b6000845260003681376000945b80518610156200b5ad576200be40868262005f16565b516102c0526200be51855162006032565b966000946200be61845162006032565b6103805260009460005b88518110156200bf34578a896200be9b6001600160a01b036200be8f858462005f16565b51166102c05162014875565b15806200beeb575b6200bebc575b50506200beb69062005ec0565b6200be6b565b986200bee09162001e4382859c6200b2a96200beb69760018060a01b039262005f16565b9790508a896200bea9565b5050506127106102c051101562005ede576001600160a01b036200bf10828b62005f16565b5116600052620138966102c05160031b016020528a8960406000205415156200bea3565b50909895979498969291939660005b88518110156200bfd3576127106102c051101562005ede576001600160a01b03806200bf70838c62005f16565b5116600052620138966102c05160031b01602052604060002054156200bfa3575b506200bf9d9062005ec0565b6200bf43565b819b6200bfcb916200bfba6200bf9d948d62005f16565b511662001e43826103805162005f16565b9a906200bf91565b509850969592919093966102c051612710811015806102605262005ede5760031b620138970154986200c00b620094c6898c62012de4565b6103c0526000610320526000610420525b6102605162005ede57610420518a8110156200c0e7576200c0536200c07391600061026052620138976102c05160031b0162006135565b9054610380516001600160a01b03939260031b9190911c831690620148ce565b156200c093575b506200c0896104205162005ec0565b610420526200c01c565b6000610260526200c0b361042051620138976102c05160031b0162006135565b90549060031b1c166200c0cd610320516103c05162005f16565b526200c0dc6103205162005ec0565b61032052386200c07a565b50979294959093985095909560005b8281106200c194575050506102605162005ede576103c051516001600160401b03811162003f6d576200c13581620138976102c05160031b016200624a565b60206103c05101620138976102c05160031b01600052602060002060005b8381106200c17657505050506200c16a9062005ec0565b9492959091956200be2a565b82516001600160a01b0316818301556020909201916001016200c153565b6200c1da906001600160a01b036200c1ad828562005f16565b51166200c1c1610320516103c05162005f16565b526200c1d06103205162005ec0565b6103205262005ec0565b6200c0f6565b60405162461bcd60e51b81526020600482015260306024820152600080516020620152da83398151915260448201526f1b9d1cc81a5cc81b9bdd08195c5d585b60821b6064820152608490fd5b60405162461bcd60e51b815260206004820152603560248201526000805160206201519a8339815191526044820152741b90db185cdcd95cc81a5cc81b9bdd08195c5d585b605a1b6064820152608490fd5b6020819492939401516026811015620040d5576007036200c42257604001916200c2af6101008451015162005ed0565b519160406200c2c360e08651015162005ed0565b5194510151916200c2dc845186511462002a1d62014cb0565b60005b84518110156200c410576001600160a01b03806200c2fe838862005f16565b511660005262027113806020526200c32360ff604060002054161562002a1d62014d81565b60026200c331848862005f16565b516200c39b6200c342868c62005f16565b519162008ae78b604051966200c3588862003f51565b60018852886200c37f8b60208b01946000865260408c0197885260608c01998a5262005f16565b511660005260205262008add6040600020975115158862006a49565b519101556200c3ab828762005f16565b516202711454929116600160401b83101562003f6d576001830180620271145583101562005ede57620271146000526000805160206201523a83398151915290920180546001600160a01b0319169092179091556200c40a9062005ec0565b6200c2df565b5094915092506200b5bf915062005ec0565b60208101516026811015620040d5576008036200c5125761010060406200c44d920151015162005ed0565b519160005b83518110156200c503576200c4fd906001600160a01b03806200c476838862005f16565b51166000526202711390816020526200c4a0600160ff6040600020541615151462002a1d62014ce0565b806200c4ad848962005f16565b5116600052816020526200c4d160ff60406000205460081c161562002a1d62014d48565b6200c4dd838862005f16565b5116600052602052604060002061010061ff001982541617905562005ec0565b6200c452565b50926200b5bf91925062005ec0565b60208101516026811015620040d5576009036200c5f35761010060406200c53d920151015162005ed0565b519160005b83518110156200c503576200c5ed906001600160a01b03806200c566838862005f16565b51166000526202711390816020526200c590600160ff6040600020541615151462002a1d62014ce0565b806200c59d848962005f16565b5116600052816020526200c5c5600160ff60406000205460081c1615151462002a1d62014d13565b6200c5d1838862005f16565b5116600052602052604060002061ff0019815416905562005ec0565b6200c542565b60208101516026811015620040d557600a036200c6dd57604001906200c63060e06200c6256101008551015162005ed0565b519351015162005ed0565b51926200c645835185511462002a1d62014cb0565b60005b83518110156200c6cc576200c6c6906001600160a01b03806200c66c838862005f16565b511660005262027113806020526200c695600160ff6040600020541615151462002a1d62014ce0565b6200c6a1838962005f16565b51916200c6af848962005f16565b511660005260205260026040600020015562005ec0565b6200c648565b50939092506200b5bf915062005ec0565b6020819493929401516026811015620040d557600b036200c7c2576040019260406200c70f6101008651015162005ed0565b5194510151916200c728855184511462002a1d62014cb0565b60005b85518110156200c7b2576200c7ac9062001c386001600160a01b03806200c753848b62005f16565b511660005262027113806020526200c77c600160ff6040600020541615151462002a1d62014ce0565b6200c788848962005f16565b51916200c796858c62005f16565b5116600052602052600160406000200162006976565b6200c72b565b509350916200b5bf915062005ec0565b90919260208201516026811015620040d557600c036200c9065760a0604083015101519260005b84518110156200c6cc5760e06200c8098260a06040880151015162005f16565b510151156200c88f576200c8316200c82a8260a06040880151015162005f16565b5162006ffb565b620271155480600019810111620033d6576200c8536005916000190162006f45565b5001805461ff00191661010017905562027115549060001982018210620033d657600562008f5e6200c889936000190162006f45565b6200c7e9565b6200c8ae6200c8a78260a06040880151015162005f16565b5162006fd7565b620271165480600019810111620033d6576200c8d06005916000190162006f03565b5001805461ff00191661010017905562027116549060001982018210620033d657600562008f5e6200c889936000190162006f03565b92919060208101516026811015620040d557600d036200ca4f576040019260606200c93660e08651015162005ed0565b5194510151916200c94b855184511462012e8b565b60005b85518110156200c7b257806200c9696200c9e3928662005f16565b51156200c9e9576200c98d6200c980828962005f16565b5162027115541162012f14565b6200c9b960ff60056200c9ac6200c9a5858c62005f16565b5162006f45565b50015460081c1662012f6c565b6200c9d160ff6005620090a66200c9a5858c62005f16565b6005620090c26200c9a5838a62005f16565b6200c94e565b6200ca066200c9f9828962005f16565b5162027116541162012f14565b6200ca2560ff60056200c9ac6200ca1e858c62005f16565b5162006f03565b6200ca3d60ff6005620090a66200ca1e858c62005f16565b6005620090c26200ca1e838a62005f16565b60208101516026811015620040d557600e036200cb87576040019260606200ca7c60e08651015162005ed0565b5194510151916200ca91855184511462012e8b565b60005b85518110156200c7b257806200caaf6200cb22928662005f16565b51156200cb28576200cad36200cac6828962005f16565b516202711554116201302e565b6200caf860ff60056200caeb6200c9a5858c62005f16565b50015460081c1662013087565b6200cb1060ff6005620092006200c9a5858c62005f16565b600562008f5e6200c9a5838a62005f16565b6200ca94565b6200cb456200cb38828962005f16565b516202711654116201302e565b6200cb5d60ff60056200caeb6200ca1e858c62005f16565b6200cb7560ff6005620092006200ca1e858c62005f16565b600562008f5e6200ca1e838a62005f16565b90919260208201516026811015620040d557600f036200ccbd5760a0604083015101519260005b84518110156200c6cc5760e06200cbce8260a06040880151015162005f16565b510151156200cc4d576200cbef6200c82a8260a06040880151015162005f16565b620271155480600019810111620033d6576200cc116005916000190162006f45565b5001805461ff00191661010017905562027115549060001982018210620033d6576005620090c26200cc47936000190162006f45565b6200cbae565b6200cc656200c8a78260a06040880151015162005f16565b620271165480600019810111620033d6576200cc876005916000190162006f03565b5001805461ff00191661010017905562027116549060001982018210620033d6576005620090c26200cc47936000190162006f03565b92919060208101516026811015620040d5576010036200ce075760400151926200ccf060e060c086015195015162005ed0565b51916200cd05855184511462002a1d62014cb0565b60005b85518110156200c7b257806200cd236200cd99928862005f16565b516200cd2f816200418b565b6200cd3b828762005f16565b51906200cd48816200418b565b6200cd5f6200cd5662014de3565b82151562005e8d565b6200cd6a816200418b565b600181036200cd9f57506200cd8e6200cd8262014de3565b61271083111562005e8d565b6202711e5562005ec0565b6200cd08565b6200cdaa816200418b565b600281036200cdbf57506202711f5562005ec0565b6200cdca816200418b565b600381036200cddf5750620271205562005ec0565b806200cded6004926200418b565b146200cdfb575b5062005ec0565b6202712155386200cdf4565b60208101516026811015620040d5576011036200d0ae57604001906200ce3960e06200c6256101008551015162005ed0565b51936200ce4a835186511462012d98565b60005b83518110156200cecb576200cec5906200cea56001600160a01b03806200ce75848962005f16565b51166000526202711890816020526200ce996040600020546200746f868d62005f16565b939062002a1d62014c66565b6200ceb1848962005f16565b511660005260205260406000205562005ec0565b6200ce4d565b509350906200ceda9062014923565b906202711954936200cef2620094c684518762012de4565b9060009260005b8781106200d06e575060005b85518110156200cfba576000805b8981106200cf6b575b50156200cf35575b6200cf2f9062005ec0565b6200cf05565b936200cf2f906200cf62906001600160a01b036200cf54888a62005f16565b511662001e43828862005f16565b9490506200cf24565b6200cf7681620060fb565b90546001600160a01b0360039290921b1c8116906200cf96858b62005f16565b5116146200cfaf576200cfa99062005ec0565b6200cf13565b50506001386200cf1c565b5095509392506200cfcb8262006032565b8051906001600160401b03821162003f6d576020906200cfeb83620061ee565b0162027119600052602060002060005b8381106200d050575050505060005b8281106200d020575050506200b5bf9062005ec0565b6200d04a9062001c386001600160a01b036200d03d838662005f16565b511662002fd583620060fb565b6200d00a565b82516001600160a01b0316818301556020909201916001016200cffb565b936200d0a16200d0a8916200d08387620060fb565b905460039190911b1c6001600160a01b031662001e43828862005f16565b9462005ec0565b6200cef9565b60208194929401516026811015620040d5576012036200d2f757604001906200d0e360e06200c6256101008551015162005ed0565b51936200d0f4835186511462012d98565b60005b83518110156200d149576200d143906200cea56001600160a01b03806200d11f848962005f16565b51166000526202711890816020526200ce996040600020546200840b868d62005f16565b6200d0f7565b50935091906200d1599062014923565b62027119546200d1698162006032565b906000926000915b8083106200d21d575050506200d1878262006032565b8051906001600160401b03821162003f6d576020906200d1a783620061ee565b0162027119600052602060002060005b8381106200d1ff575050505060005b8281106200d1dc575050506200b5bf9062005ec0565b6200d1f99062001c386001600160a01b036200d03d838662005f16565b6200d1c6565b82516001600160a01b0316818301556020909201916001016200d1b7565b91956000959193959760005b85518110156200d2e8576200d23e89620060fb565b90546001600160a01b0360039290921b1c8116906200d25e838962005f16565b5116146200d277576200d2719062005ec0565b6200d229565b509750956001959391955b806200d2b6575b156200d2a1576200d29a9062005ec0565b916200d171565b936200d0a16200d29a916200d08387620060fb565b506200d2c281620060fb565b60018060a01b0391549060031b1c1660005262027118602052604060002054156200d289565b5097969096959391956200d282565b60208194939401516026811015620040d5576013036200d39b5760400151608001519160005b83518110156200c503576200d333818562005f16565b51906202711754600160401b81101562003f6d576001810180620271175581101562005ede57620271176000526200d3959262001c38916007027f08f37177f6a5732df494aeff73d589b534878a053b84dfe1e41c467868b7c9fd0162013e3f565b6200d31d565b6020819493929401516026811015620040d5576014036200d8e457604001906200d3cb6101008351015162005ed0565b51936200d3e260e062007dd6818651015162005ed0565b51916200d3f386518551146201314c565b6200d4028651845114620131b2565b60005b86518110156200d500576200d41b818562005f16565b516200d428828762005f16565b519061271082101562005ede57620138996200d44a9260031b01549062007231565b906200d457838862005f16565b519161271083101562005ede57620138996200d4789360031b01556201326c565b6200d484818562005f16565b516200d491828762005f16565b519061271082101562005ede576200d4bc9162013896906001600160a01b036200b14b868d62005f16565b91906200d4ca828862005f16565b519061271082101562005ede576200d4fa9362001c389262013896906001600160a01b036200b1a2878f62005f16565b6200d405565b50926200d517919250620085059095949562014a3f565b916040516200d5268162003fd8565b6000815260003681376000945b80518610156200b5ad576200d549868262005f16565b516101e0526200d55a855162006032565b966000946200d56a845162006032565b6101005260009460005b88518110156200d63d578a896200d5a46001600160a01b036200d598858462005f16565b51166101e05162014875565b15806200d5f4575b6200d5c5575b50506200d5bf9062005ec0565b6200d574565b986200d5e99162001e4382859c6200b2a96200d5bf9760018060a01b039262005f16565b9790508a896200d5b2565b5050506127106101e051101562005ede576001600160a01b036200d619828b62005f16565b5116600052620138966101e05160031b016020528a8960406000205415156200d5ac565b50909895979498969291939660005b88518110156200d6dc576127106101e051101562005ede576001600160a01b03806200d679838c62005f16565b5116600052620138966101e05160031b01602052604060002054156200d6ac575b506200d6a69062005ec0565b6200d64c565b819b6200d6d4916200d6c36200d6a6948d62005f16565b511662001e43826101005162005f16565b9a906200d69a565b509850969592919093966101e051612710811015806101a05262005ede5760031b620138970154986200d714620094c6898c62012de4565b6103a052600061030052600060a0525b6101a05162005ede5760a0518a8110156200d7eb576200d75a6200d77a9160006101a052620138976101e05160031b0162006135565b9054610100516001600160a01b03939260031b9190911c831690620148ce565b156200d798575b506200d78f60a05162005ec0565b60a0526200d724565b60006101a0526200d7b760a051620138976101e05160031b0162006135565b90549060031b1c166200d7d1610300516103a05162005f16565b526200d7e06103005162005ec0565b61030052386200d781565b50979294959093985095909560005b8281106200d898575050506101a05162005ede576103a051516001600160401b03811162003f6d576200d83981620138976101e05160031b016200624a565b60206103a05101620138976101e05160031b01600052602060002060005b8381106200d87a57505050506200d86e9062005ec0565b9492959091956200d533565b82516001600160a01b0316818301556020909201916001016200d857565b6200d8de906001600160a01b036200d8b1828562005f16565b51166200d8c5610300516103a05162005f16565b526200d8d46103005162005ec0565b6103005262005ec0565b6200d7fa565b9260208401516026811015620040d5576015036200df155760408401906200d9126101008351015162005ed0565b51906200d92960e062007dd6818651015162005ed0565b51936200d93e835185511462002a1d62014cb0565b6200d951835186511462002a1d62014cb0565b60005b83518110156200d9b0576200d96a818662005f16565b519061271082101562005ede57620138966200d9aa9260018060a01b038b511660005260031b0160205262001c386040600020546200838d838a62005f16565b6200d954565b509095919560005b87518110156200db02576200d9ce818662005f16565b5161271081101562005ede57620138969060018060a01b0386511660005260031b016020526200da096040600020546200840b838962005f16565b906200da16838862005f16565b519161271083101562005ede57620138966200da509360018060a01b0389511660005260031b0160205260406000205562002a1d62014db4565b6200da5c818662005f16565b5161271081101562005ede5762013896906001600160a01b036200da81848c62005f16565b511660005260031b016020526200daa36040600020546200746f838962005f16565b91906200dab1828862005f16565b519061271082101562005ede576200dafc936201389662001c38938d6200dae08760018060a01b039262005f16565b511660005260031b0160205260406000205562002a1d62014e19565b6200d9b8565b50926200db21919294506200db1a9096959662014a3f565b9462014923565b92604051906200db318262003fbc565b6001825260203681840137516001600160a01b03166200db518262005ed0565b526000945b80518610156200b5ad576200db6c868262005f16565b51610240526200db7d855162006032565b966000946200db8d845162006032565b6102a05260009460005b88518110156200dc60578a896200dbc76001600160a01b036200dbbb858462005f16565b51166102405162014875565b15806200dc17575b6200dbe8575b50506200dbe29062005ec0565b6200db97565b986200dc0c9162001e4382859c6200b2a96200dbe29760018060a01b039262005f16565b9790508a896200dbd5565b50505061271061024051101562005ede576001600160a01b036200dc3c828b62005f16565b5116600052620138966102405160031b016020528a8960406000205415156200dbcf565b50909895979498969291939660005b88518110156200dd065761271061024051101562005ede576001600160a01b036200dc9b828b62005f16565b5116600052620138966102405160031b01602052604060002054156200dccd575b6200dcc79062005ec0565b6200dc6f565b996200dcc7906200dcfd906001600160a01b036200dcec8e8d62005f16565b511662001e43826102a05162005f16565b9a90506200dcbc565b5098509695929190939661024051612710811015806103405262005ede5760031b620138970154986200dd3e620094c6898c62012de4565b6101605260006102805260006101c0525b6103405162005ede576101c0518a8110156200de1c576200dd866200dda391600061034052620138976102405160031b0162006135565b90546102a05160039290921b1c6001600160a01b031690620148ce565b156200ddc2575b6200ddb86101c05162005ec0565b6101c0526200dd4f565b6000610340526200dde26101c051620138976102405160031b0162006135565b60018060a01b0391549060031b1c166200de03610280516101605162005f16565b526200de126102805162005ec0565b610280526200ddaa565b50979294959093985095909560005b8281106200dec9575050506103405162005ede5761016051516001600160401b03811162003f6d576200de6a81620138976102405160031b016200624a565b60206101605101620138976102405160031b01600052602060002060005b8381106200deab57505050506200de9f9062005ec0565b9492959091956200db56565b82516001600160a01b0316818301556020909201916001016200de88565b6200df0f906001600160a01b036200dee2828562005f16565b51166200def6610280516101605162005f16565b526200df056102805162005ec0565b6102805262005ec0565b6200de2b565b90919260208101516026811015620040d5576016036200dfcb5761010060406200df43920151015162005ed0565b519160005b83518110156200c503576001600160a01b036200df66828662005f16565b516202712254929116600160401b83101562003f6d576001830180620271225583101562005ede5762027122600052600080516020620151ba83398151915290920180546001600160a01b0319169092179091556200dfc59062005ec0565b6200df48565b60208101516026811015620040d5576017036200e0285760405162461bcd60e51b815260206004820152602960248201526000805160206201529a8339815191526044820152683632b6b2b73a32b21760b91b6064820152608490fd5b60208101516026811015620040d5576018036200e0ec5761010060406200e053920151015162005ed0565b5191600160ff1962027125541617620271255560005b83518110156200c503576001600160a01b036200e087828662005f16565b516202712454929116600160401b83101562003f6d576001830180620271245583101562005ede57620271246000526000805160206201525a83398151915290920180546001600160a01b0319169092179091556200e0e69062005ec0565b6200e069565b6020819492939401516026811015620040d5576019036200e114575b506200b5bf9062005ec0565b60208101516026811015620040d557601a036200e28f5760e060406200e13e920151015162005ed0565b51906200e14f600383511462012d98565b6200e15a8262005ed0565b516200e16a62009cd88462005ef4565b51926200e253576200b5bf926001036200e24c576200e1926200e1f191620271205462007231565b6202712055604051906200e1a68262003ff4565b603282527f6469766964656e6461626c652062616c616e6365206f766572666c6f772077686020830152710cadc40e0e4dec6cae6e6d2dcce40c6c2e6d60731b604083015262005e8d565b6200e2456200e20462027121546200721e565b6202712155604051906200e2188262003fbc565b601a8252796469766964656e647320636f756e746572206f766572666c6f7760301b602083015262005e8d565b906200e108565b506200e245565b60405162461bcd60e51b8152602060048201526014602482015273496e76616c6964207061796d656e74207479706560601b6044820152606490fd5b60208101516026811015620040d557601b036200e892575091906202711e546200e2bc62009dc262014b3d565b62027121546202711f5411156200e2dd6200e2d662014bab565b8262005e8d565b6202712054906200e2ef8383620070e9565b50506200e2fb62014c01565b506000805b61271082106200e7e6575b5050906200e33b6200e34193926200e3316200e32662014b3d565b612710861062005e8d565b62002a1d62014bab565b620070e9565b90506200e34d62014c01565b5060009060005b61271081106200e70e575b50906127106200e3709204620072bf565b90506200e3816202712a5462006032565b906000946000905b6127108210156200e701578160031b9460ff6201389a87015416156200e4e75760009662013895870154156200e4d657600098975b62005ede57620138978701548910156200e4bc576200e3e38962013897890162006135565b600160a01b6001900391549060031b1c169788600052620138968801602052604098868a60002054906200e41791620070e9565b9a906200e42362014c01565b6200e42e9162005e8d565b60009a620138958b01546200e44391620070e9565b906200e44e62014c01565b6200e4599162005e8d565b826000526202711a6020528160002054906200e4759162007231565b9091600020556200e48562014c01565b6200e4909162005e8d565b6200e49c828962005f16565b526200e4a89062005ec0565b986200e4b49062005ec0565b98976200e3be565b929095506200e4ce9196975062005ec0565b90946200e389565b929095506200e4ce91965062005ec0565b95969392509350505b6200e4fb8262006032565b9160009160005b8281106200e66b575050506202711b54916200e523620094c6848462012de4565b926000906000905b8082106200e64e57505060005b8381106200e5b85750508251929150506001600160401b03821162003f6d576020906200e5658362006212565b016202711b600052602060002060005b8381106200e59a57505050506200b5bf9060006202712055600062027121556200e245565b82516001600160a01b0316818301556020909201916001016200e575565b6000805b8381106200e606575b50156200e5de575b6200e5d89062005ec0565b6200e538565b906200e5d8906200e5fd906001600160a01b036200952d858762005f16565b9190506200e5cd565b6001600160a01b03806200e61b858862005f16565b5116906200e62a838a62005f16565b5116146200e643576200e63d9062005ec0565b6200e5bc565b50506001386200e5c5565b90916200a1046200e66491620098868562006118565b906200e52b565b6000805b8581106200e6b9575b50156200e691575b6200e68b9062005ec0565b6200e502565b926200e68b906200e6b0906001600160a01b036200952d878662005f16565b9390506200e680565b6001600160a01b03806200e6ce858762005f16565b5116906200e6dd838a62005f16565b5116146200e6f6576200e6f09062005ec0565b6200e66f565b50506001386200e678565b939495929150506200e4f0565b90918160039695961b60ff6201389a82015416156200e7da5762013895810154620138978201546000928391825b8184106200e778575050505062007c2a6200e76f936200e76762001c389796946200379694620070e9565b92906200701f565b9493946200e354565b94929462005ede576200e7d3856200e7cb6200e79e62001c389862013897870162006135565b905460039190911b1c6001600160a01b031660009081526201389686016020526040812054909662007231565b97906200710b565b926200e73c565b5091909493946200e35f565b8160039897981b60ff6201389a82015416156200e888576201389581015490600062013897820154916000926000925b8184106200e853575050505062007c2a6200e849936200a1f3846200e33b620036c36200a1ff9662001c389a98620070e9565b909695966200e300565b93929362005ede576200e881846200e8796200e79e62001c389762013897870162006135565b96906200710b565b926200e816565b509695966200e30b565b60208101516026811015620040d557601c036200e8ef5760405162461bcd60e51b81526020600482015260296024820152600080516020620152ba8339815191526044820152683632b6b2b73a32b21760b91b6064820152608490fd5b60208101516026811015620040d557601d036200e913575b506200b5bf906200e245565b60208101516026811015620040d557601e146200e9075760208101516026811015620040d557601f036200e9a9576200e95490604080910151015162005ed0565b51906202712354600160401b81101562003f6d576001810180620271235581101562005ede57620271236000526200b5bf926200e9a291600080516020620151da8339815191520162006976565b906200e907565b9060208201516026811015620040d5576020036200e9ce575b6200b5bf91506200e9a2565b60208201516026811015620040d5576021146200e9c25760208201516026811015620040d5576022036200ea57576200b5bf915060ff196202712554166202712555620271245460006202712455806200ea2a575b506200e9c2565b620271246000526200ea50906000805160206201525a833981519152908101906200614e565b386200ea23565b60208201516026811015620040d5576023036200ea7b575b6200b5bf91506200e9c2565b60208201516026811015620040d5576024146200ea6f5760208201516026811015620040d5576025146200ea6f5760208201516026811015620040d5576015036200ead5576200eacf6200b5bf9262013370565b6200ea6f565b60405162461bcd60e51b8152602060048201526016602482015275496e76616c6964206f7065726174696f6e207479706560501b6044820152606490fd5b509190506200eb228162012292565b906006811015620040d557600281036200eb515760405162461bcd60e51b81528062005ebc6004820162007c9d565b600381036200ec045750303b1562003f3757906040518092639543bf6760e01b82526044820160406004840152815180915260206064840192019060005b8181106200ebea575050506200ebb58291600094600319848303016024850152620058d3565b038183305af180156200ebde576200ebca5750565b6001600160401b03811162003f6d57604052565b6040513d6000823e3d90fd5b82518452869450602093840193909201916001016200eb8f565b60059150146200ec115750565b906000905b602083015180518310156200a4b957826200ec319162005f16565b5160208101516026811015620040d557156200a4765760208101516026811015620040d5576001036200ee7a57604001906200ec736101008351015162005ed0565b51936200ec8a60e062007dd6818651015162005ed0565b51916200ec9b86518551146201314c565b6200ecaa8651845114620131b2565b60005b86518110156200ee01576200ecc3818662005f16565b5161271081101562005ede57600160ff60076200ece99360031b01541615151462013214565b6200ecf5818562005f16565b516200ed02828762005f16565b519061271082101562005ede5760066200ed229260031b01549062007231565b906200ed2f838862005f16565b519161271083101562005ede5760066200ed4e9360031b01556201326c565b6200ed5a818562005f16565b516200ed67828762005f16565b519061271082101562005ede576200eda8916003906001600160a01b036200ed90868d62005f16565b5116600052811b016020526040600020549062007231565b91906200edb6828862005f16565b519061271082101562005ede576200edfb9362001c38926003906001600160a01b036200ede4878f62005f16565b5116600052811b01602052604060002055620132cb565b6200ecad565b50949150916200ee156200ee1c9162014a3f565b9162014923565b93604051926200ee2c8462003fd8565b60008452600036813760005b83518110156200ee5d578062001c3862007f9d6200ee57938762005f16565b6200ee38565b50945092602092506200ee71915062005ec0565b9190506200ec16565b6020819492939401516026811015620040d5576002036200f115576040018051926040840151906200eeb562007fff60e08097015162005ed0565b519382518651036200f0c05782518451036200f06a5782518551036200f0115760005b86518110156200effb576200eeee818862005f16565b5161271081101562005ede5760ff60076200ef109260031b0154161562013324565b6200ef1c818862005f16565b5161271081101562005ede5760031b600701805460ff191660011790556200ef45818562005f16565b516200ef52828962005f16565b519061271082101562005ede5760056200ef709260031b0162006976565b6200ef7c818662005f16565b516200ef89828962005f16565b5161271081101562005ede5760031b600101556200efa8818762005f16565b516200efb5828962005f16565b5161271081101562005ede5760031b600201556200efd4818862005f16565b519061271082101562005ede57600060066200eff59360031b015562005ec0565b6200eed8565b509591509350602092506200ee71915062005ec0565b60405162461bcd60e51b815260206004820152603c60248201526000805160206201521a83398151915260448201527b1b911a5d9a59195b9915d95a59da1d081a5cc81b9bdd08195c5d585b60221b6064820152608490fd5b60405162461bcd60e51b815260206004820152603960248201526000805160206201521a8339815191526044820152781b959bdd1a5b99d41bddd95c881a5cc81b9bdd08195c5d585b603a1b6064820152608490fd5b60405162461bcd60e51b815260206004820152603860248201526000805160206201521a8339815191526044820152771b925b99195e105c9c985e481a5cc81b9bdd08195c5d585b60421b6064820152608490fd5b6020819493929401516026811015620040d5576003036200f143576020919262001c386200ee7192620138d6565b60208101516026811015620040d5576004036200f3ed576200f16e6101006040830151015162005ed0565b51936200f1846101006040840151015162005ef4565b51906200f1ab60e060406200f19f8282880151015162005ed0565b51950151015162005ef4565b51936200f1c0875184511462002a1d62014cb0565b6200f1d3875185511462002a1d62014cb0565b6200f1e6875186511462002a1d62014cb0565b60005b87518110156200f24f576200f1ff818662005f16565b519061271082101562005ede576200f249916003906001600160a01b036200f228848d62005f16565b5116600052811b0160205262001c386040600020546200838d838a62005f16565b6200f1e9565b509095919593929360005b83518110156200f3aa576200f270818762005f16565b5161271081101562005ede576003906001600160a01b036200f293848862005f16565b5116600052811b016020526200f2b46040600020546200840b838862005f16565b906200f2c1838962005f16565b519161271083101562005ede576200f305926003906001600160a01b036200f2ea878b62005f16565b5116600052811b0160205260406000205562002a1d62014db4565b6200f311818762005f16565b5161271081101562005ede576003906001600160a01b036200f334848c62005f16565b5116600052811b016020526200f3556040600020546200746f838862005f16565b9190506200f364818862005f16565b519161271083101562005ede576200f3a4926003906001600160a01b036200f38d858e62005f16565b5116600052811b0160205260406000205562005ec0565b6200f25a565b50936200f3c49192969350620085056200850c9162014a3f565b9260005b83518110156200ee5d578062001c3862007f9d6200f3e7938762005f16565b6200f3c8565b9260208401516026811015620040d5576005036200f5ab5760408401906200f41f60e062008575818551015162005ed0565b519282518451036200bc385760005b83518110156200f487576200f444818562005f16565b519061271082101562005ede5760036200f4819260018060a01b038a5116600052811b0160205262001c386040600020546200838d838962005f16565b6200f42e565b509060005b83518110156200f52a576200f4a2818562005f16565b5161271081101562005ede5760039060018060a01b03895116600052811b016020526200f4da6040600020546200840b838862005f16565b91906200f4e8828762005f16565b519061271082101562005ede576200f52493600362001c389360018060a01b038d5116600052811b0160205260406000205562002a1d62014db4565b6200f48c565b50949250906200f53a9062014a3f565b90604051926200f54a8462003fbc565b6001845260203681860137516001600160a01b03166200f56a8462005ed0565b52604051946200f57a8662003fd8565b60008652600036813760005b83518110156200ee5d578062001c3862007f9d6200f5a5938762005f16565b6200f586565b9260208101516026811015620040d5576006036200f764576040016200f5d76101008251015162005ed0565b51936200f5ee60e062008575818551015162005ed0565b519285518351036200c22d5785518451036200c1e05760005b86518110156200f66d576200f61d818562005f16565b519061271082101562005ede576200f667916003906001600160a01b036200f646848c62005f16565b5116600052811b0160205262001c386040600020546200838d838962005f16565b6200f607565b509060005b86518110156200f70e576200f688818562005f16565b5161271081101562005ede576003906001600160a01b036200f6ab848b62005f16565b5116600052811b016020526200f6cc6040600020546200840b838862005f16565b91906200f6da828762005f16565b519061271082101562005ede576200f7089362001c38926003906001600160a01b036200f2ea878f62005f16565b6200f672565b5094916200f7239193506200ee159062014a3f565b91604051946200f7338662003fd8565b60008652600036813760005b83518110156200ee5d578062001c3862007f9d6200f75e938762005f16565b6200f73f565b60208101516026811015620040d5576007036200f87b57604001926200f7906101008551015162005ed0565b519160406200f7a460e08751015162005ed0565b5195510151916200f7bd845187511462002a1d62014cb0565b60005b84518110156200ee5d576200f8759062001c386001600160a01b03806200f7e8848a62005f16565b51166000528660028b6200f8656200f828876200f8208162013880978860205262008a8360ff604060002054161562002a1d62014d81565b519362005f16565b519162008ae78d604051966200f83e8862003f51565b60018852886200c37f8c60208b01946000865260408c0197885260608c01998a5262005f16565b5191015562008b02838962005f16565b6200f7c0565b60208194939401516026811015620040d5576008036200f9145761010060406200f8a9920151015162005ed0565b519160005b83518110156200f902576200f8fc906001600160a01b03806200f8d2838862005f16565b51166000526201388090816020526200c4a0600160ff6040600020541615151462002a1d62014ce0565b6200f8ae565b509260209192506200ee719062005ec0565b60208101516026811015620040d5576009036200f9985761010060406200f93f920151015162005ed0565b519160005b83518110156200f902576200f992906001600160a01b03806200f968838862005f16565b51166000526201388090816020526200c590600160ff6040600020541615151462002a1d62014ce0565b6200f944565b60208101516026811015620040d557600a036200fa4857604001906200f9ca60e06200c6256101008551015162005ed0565b51926200f9df835185511462002a1d62014cb0565b60005b83518110156200fa35576200fa2f906001600160a01b03806200fa06838862005f16565b511660005262013880806020526200c695600160ff6040600020541615151462002a1d62014ce0565b6200f9e2565b50936200ee719193506020925062005ec0565b6020819493929401516026811015620040d557600b036200fb00576040019260406200fa7a6101008651015162005ed0565b5194510151916200fa93855184511462002a1d62014cb0565b60005b85518110156200faed576200fae79062001c386001600160a01b03806200fabe848b62005f16565b511660005262013880806020526200c77c600160ff6040600020541615151462002a1d62014ce0565b6200fa96565b50935091602091506200ee719062005ec0565b90919260208201516026811015620040d557600c036200fc365760a0604083015101519260005b84518110156200fa355760e06200fb478260a06040880151015162005f16565b510151156200fbc6576200fb6862008f098260a06040880151015162005f16565b620138825480600019810111620033d6576200fb8a6005916000190162006f24565b5001805461ff00191661010017905562013882549060001982018210620033d657600562008f5e6200fbc0936000190162006f24565b6200fb27565b6200fbde62008f888260a06040880151015162005f16565b620138825480600019810111620033d6576200fc006005916000190162006ee2565b5001805461ff00191661010017905562013882549060001982018210620033d657600562008f5e6200fbc0936000190162006ee2565b92919060208101516026811015620040d557600d036200fd4a576040019260606200fc6660e08651015162005ed0565b5194510151916200fc7b855184511462012e8b565b60005b85518110156200faed57806200fc996200fcf2928662005f16565b51156200fcf8576200fcb06200906b828962005f16565b6200fcc860ff60056200c9ac6200908d858c62005f16565b6200fce060ff6005620090a66200908d858c62005f16565b6005620090c26200908d838a62005f16565b6200fc7e565b6200fd08620090fa828962005f16565b6200fd2060ff60056200c9ac6200911c858c62005f16565b6200fd3860ff6005620090a66200911c858c62005f16565b6005620090c26200911c838a62005f16565b60208194929401516026811015620040d557600e036200fe11576040019060606200fd7a60e08451015162005ed0565b5192510151936200fd8f835186511462012e8b565b60005b83518110156200faed57806200fdad6200fdb9928862005f16565b516200fdbf5762005ec0565b6200fd92565b6200fdcf620091b8828762005f16565b6200fde760ff60056200caeb6200908d858a62005f16565b6200fdff60ff6005620092006200908d858a62005f16565b600562008f5e6200908d838862005f16565b9060208294939401516026811015620040d557600f036200ff485760a0604083015101519260005b84518110156200fa355760e06200fe598260a06040880151015162005f16565b510151156200fed8576200fe7a62008f098260a06040880151015162005f16565b620138825480600019810111620033d6576200fe9c6005916000190162006f24565b5001805461ff00191661010017905562013882549060001982018210620033d6576005620090c26200fed2936000190162006f24565b6200fe39565b6200fef062008f888260a06040880151015162005f16565b620138825480600019810111620033d6576200ff126005916000190162006ee2565b5001805461ff00191661010017905562013882549060001982018210620033d6576005620090c26200fed2936000190162006ee2565b9060208194939401516026811015620040d5576010036200ffb95760400151906200ff7c60e060c084015193015162005ed0565b51936200ff91835186511462002a1d62014cb0565b60005b83518110156200faed578062001c38620093a26200ffb3938762005f16565b6200ff94565b60208194929401516026811015620040d5576011036201021f57604001906200ffee60e06200c6256101008551015162005ed0565b51936200ffff835186511462012d98565b60005b83518110156201007a57620100749062001c386001600160a01b03806201002a848962005f16565b511660005262013885806020526201004d6040600020546200746f868d62005f16565b9190926201005c868b62005f16565b511660005260205260406000205562002a1d62014c66565b62010002565b50935090620100899062014923565b90620138865493620100a1620094c684518762012de4565b9060009260005b87811062010204575060005b85518110156201015b576000805b8981106201010c575b5015620100e4575b620100de9062005ec0565b620100b4565b93620100de9062010103906001600160a01b036200cf54888a62005f16565b949050620100d3565b620101178162006087565b90546001600160a01b0360039290921b1c81169062010137858b62005f16565b51161462010150576201014a9062005ec0565b620100c2565b5050600138620100cb565b5095509392506201016c8262006032565b8051906001600160401b03821162003f6d576020906201018c83620061a3565b0162013886600052602060002060005b838110620101e6575050505060005b828110620101c3575050506200ee7160209162005ec0565b620101e09062001c386001600160a01b0362002fc8838662005f16565b620101ab565b82516001600160a01b0316818301556020909201916001016201019c565b936200d0a162010219916200d0838762006087565b620100a8565b60208194929401516026811015620040d5576012036201046957604001906201025460e06200c6256101008551015162005ed0565b519362010265835186511462012d98565b60005b8351811015620102b957620102b39062001c386001600160a01b038062010290848962005f16565b511660005262013885806020526201004d6040600020546200840b868d62005f16565b62010268565b5093509190620102c99062014923565b6201388654620102d98162006032565b906000926000915b8083106201038f57505050620102f78262006032565b8051906001600160401b03821162003f6d576020906201031783620061a3565b0162013886600052602060002060005b83811062010371575050505060005b8281106201034e575050506200ee7160209162005ec0565b6201036b9062001c386001600160a01b0362002fc8838662005f16565b62010336565b82516001600160a01b03168183015560209092019160010162010327565b91956000959193959760005b85518110156201045a57620103b08962006087565b90546001600160a01b0360039290921b1c811690620103d0838962005f16565b511614620103e957620103e39062005ec0565b6201039b565b509750956001959391955b8062010428575b1562010413576201040c9062005ec0565b91620102e1565b936200d0a16201040c916200d0838762006087565b50620104348162006087565b60018060a01b0391549060031b1c166000526201388560205260406000205415620103fb565b509796909695939195620103f4565b60208101516026811015620040d557601303620104c25760400151608001519260005b8451811015620104b1578062001c3862009931620104ab938862005f16565b6201048c565b509250906200ee7160209162005ec0565b60208101516026811015620040d557601403620106705760400190620104ee6101008351015162005ed0565b51936201050560e062007dd6818651015162005ed0565b51916201051686518551146201314c565b620105258651845114620131b2565b60005b86518110156201061b576201053e818562005f16565b516201054b828762005f16565b519061271082101562005ede5760066201056b9260031b01549062007231565b9062010578838862005f16565b519161271083101562005ede576006620105979360031b01556201326c565b620105a3818562005f16565b51620105b0828762005f16565b519061271082101562005ede57620105d9916003906001600160a01b036200ed90868d62005f16565b9190620105e7828862005f16565b519061271082101562005ede57620106159362001c38926003906001600160a01b036200ede4878f62005f16565b62010528565b50949150916200ee156201062f9162014a3f565b93604051926201063f8462003fd8565b60008452600036813760005b83518110156200ee5d578062001c3862007f9d6201066a938762005f16565b6201064b565b60208101516026811015620040d5576015036201069a576020919262001c386200ee7192620138d6565b60208101516026811015620040d557601603620106f7576101006040620106c5920151015162005ed0565b519260005b8451811015620104b157620106f19062001c386001600160a01b0362009b7a838962005f16565b620106ca565b60208101516026811015620040d557601703620107545760405162461bcd60e51b815260206004820152602960248201526000805160206201529a8339815191526044820152683632b6b2b73a32b21760b91b6064820152608490fd5b60208101516026811015620040d557601803620107c25761010060406201077f920151015162005ed0565b5192600160ff1962013892541617620138925560005b8451811015620104b157620107bc9062001c386001600160a01b0362009c48838962005f16565b62010795565b60208193929301516026811015620040d557601903620107eb575b506200ee7160209162005ec0565b60208101516026811015620040d557601a03620108f4576201081660e0604080930151015162005ed0565b5162010826600382511462012d98565b620108318162005ed0565b51916201084a620108428362005ef4565b519262005f05565b5191620108ba5750916200ee7191600160209414600014620108b3576201087a62010889916201388d5462007231565b6201388d5562002a1d62014c01565b620108ab6201089c6201388e546200721e565b6201388e5562002a1d62014c3b565b9150620107dd565b50620108ab565b5162461bcd60e51b8152602060048201526014602482015273496e76616c6964207061796d656e74207479706560601b6044820152606490fd5b60208101516026811015620040d557601b0362010d2c57509190620109256201388b546200370b62009dc262014b3d565b50506201093162014c01565b506000805b612710811062010ce0575b50506201094d62007243565b6201095c6202712a5462006032565b906000946000905b61271082101562010cd3578160031b9460ff6007870154161562010ab75760009660028701541562010aa657600098975b62005ede57600487015489101562010a8c57620109b6896004890162006135565b9054600391821b1c6001600160a01b0316600081815291890160205260409182902054919991620109e9908890620070e9565b9a90620109f562014c01565b62010a009162005e8d565b60009a60028b015462010a1391620070e9565b9062010a1e62014c01565b62010a299162005e8d565b826000526201388760205281600020549062010a459162007231565b90916000205562010a5562014c01565b62010a609162005e8d565b62010a6c828962005f16565b5262010a789062005ec0565b9862010a849062005ec0565b989762010995565b9290955062010a9e9196975062005ec0565b909462010964565b9290955062010a9e91965062005ec0565b95969392509350505b62010acb8262006032565b9160009160005b82811062010c3d5750505062013888549162010af3620094c6848462012de4565b926000906000905b80821062010c2057505060005b83811062010b8a5750508251929150506001600160401b03821162003f6d5760209062010b358362006167565b0162013888600052602060002060005b83811062010b6c57505050506200ee7160209160006201388d5560006201388e55620108ab565b82516001600160a01b03168183015560209092019160010162010b45565b6000805b83811062010bd8575b501562010bb0575b62010baa9062005ec0565b62010b08565b9062010baa9062010bcf906001600160a01b036200952d858762005f16565b91905062010b9f565b6001600160a01b038062010bed858862005f16565b51169062010bfc838a62005f16565b51161462010c155762010c0f9062005ec0565b62010b8e565b505060013862010b97565b90916200a10462010c369162009886856200606a565b9062010afb565b6000805b85811062010c8b575b501562010c63575b62010c5d9062005ec0565b62010ad2565b9262010c5d9062010c82906001600160a01b036200952d878662005f16565b93905062010c52565b6001600160a01b038062010ca0858762005f16565b51169062010caf838a62005f16565b51161462010cc85762010cc29062005ec0565b62010c41565b505060013862010c4a565b9394959291505062010ac0565b8060039594951b9060ff6007830154161562010d22576200a1ff62007c2a62001c38946200a1f362010d199560026200a1e9876200708c565b93929362010936565b5093929362010941565b60208101516026811015620040d557601c0362010d895760405162461bcd60e51b81526020600482015260296024820152600080516020620152ba8339815191526044820152683632b6b2b73a32b21760b91b6064820152608490fd5b60208101516026811015620040d557601d0362010daf575b506200ee71602091620108ab565b60208101516026811015620040d557601e1462010da15760208101516026811015620040d557601f0362010e035760209162010dfb6200a2df6200ee7193604080910151015162005ed0565b915062010da1565b60208101516026811015620040d55760200362010e29575b506200ee7160209162010dfb565b60208101516026811015620040d55760211462010e1b5760208101516026811015620040d55760220362010e7f57506200ee7160209160ff19620138925416620138925562010e7762006236565b915062010e1b565b60208101516026811015620040d55760230362010ea5575b506200ee7160209162010e77565b60208101516026811015620040d55760241462010e975760208101516026811015620040d55760251462010e975792909160208401516026811015620040d5576015036200ead557604084019062010f036101008351015162005ed0565b519062010f1a60e062007dd6818651015162005ed0565b519362010f2f835185511462002a1d62014cb0565b62010f42835186511462002a1d62014cb0565b60005b835181101562010f9e5762010f5b818662005f16565b519061271082101562005ede57600362010f989260018060a01b038b5116600052811b0160205262001c386040600020546200838d838a62005f16565b62010f45565b509095919560005b8751811015620110e45762010fbc818662005f16565b5161271081101562005ede5760039060018060a01b03865116600052811b0160205262010ff46040600020546200840b838962005f16565b9062011001838862005f16565b519161271083101562005ede576003620110389360018060a01b03895116600052811b0160205260406000205562002a1d62014db4565b62011044818662005f16565b5161271081101562005ede576003906001600160a01b0362011067848c62005f16565b5116600052811b01602052620110886040600020546200746f838962005f16565b919062011096828862005f16565b519061271082101562005ede57620110de93600362001c38938d620110c38760018060a01b039262005f16565b5116600052811b0160205260406000205562002a1d62014e19565b62010fa6565b5092620110fc919294506200db1a9096959662014a3f565b92604051906201110c8262003fbc565b6001825260203681840137516001600160a01b03166201112c8262005ed0565b526000945b8051861015620114d65762011147868262005f16565b516102205262011158855162006032565b9660009462011168845162006032565b6101405260009460005b885181101562011238578a89620111a26001600160a01b0362011196858462005f16565b5116610220516201480c565b1580620111f2575b620111c3575b5050620111bd9062005ec0565b62011172565b98620111e79162001e4382859c6200b2a9620111bd9760018060a01b039262005f16565b9790508a89620111b0565b50505061271061022051101562005ede576001600160a01b0362011217828b62005f16565b5116600052600361022051811b016020528a896040600020541515620111aa565b50909895979498969291939660005b8851811015620112db5761271061022051101562005ede576001600160a01b0362011273828b62005f16565b5116600052600361022051811b0160205260406000205415620112a2575b6201129c9062005ec0565b62011247565b996201129c90620112d2906001600160a01b03620112c18e8d62005f16565b511662001e43826101405162005f16565b9a905062011291565b5098509695929190939661022051612710811015806101805262005ede5760031b600401549862011311620094c6898c62012de4565b608052600061020052600060c0525b6101805162005ede5760c0518a811015620113e45762011354620113719160006101805260046102205160031b0162006135565b90546101405160039290921b1c6001600160a01b031690620148ce565b156201138e575b6201138560c05162005ec0565b60c05262011320565b600061018052620113ab60c05160046102205160031b0162006135565b60018060a01b0391549060031b1c16620113cb6102005160805162005f16565b52620113da6102005162005ec0565b6102005262011378565b50979294959093985095909560005b8281106201148b575050506101805162005ede57608051516001600160401b03811162003f6d576201142f8160046102205160031b016200624a565b60206080510160046102205160031b01600052602060002060005b8381106201146d5750505050620114619062005ec0565b94929590919562011131565b82516001600160a01b0316818301556020909201916001016201144a565b620114d0906001600160a01b03620114a4828562005f16565b5116620114b76102005160805162005f16565b52620114c66102005162005ec0565b6102005262005ec0565b620113f3565b5050936200ee7191935060209250915062010e97565b82516001600160a01b0316818301556020909201916001016200aefe565b82516001600160a01b0316818301556020909201916001016200ada9565b600191820180546001600160a01b03909216848601559390910192906200acf1565b6202712460005262011572906000805160206201525a8339815191529081019083016200614e565b386200acb1565b600180826201158a82948662011a34565b019201920191906200ac70565b62027123600052600080516020620151da833981519152908282015b8183018110620115c55750506200ac34565b80620115d36001926200651c565b01620115b3565b600191820180546001600160a01b03909216848601559390910192906200ac02565b620271226000526201162490600080516020620151ba8339815191529081019083016200614e565b386200abc2565b82516001600160a01b0316818301556020909201916001016200aa84565b620116629084600052858460002091820191016200614e565b386200aa76565b82516001600160a01b0316818301556020909201916001016200a899565b620116a39062027114600052848460002091820191016200614e565b386200a888565b80620116cc9160031b600160ff600783015416151514620116d2575062005ec0565b6200a7d8565b620116e660048201620138978301620119c5565b6201389a8101600160ff198254161790558054816201389301556001810154620138948201556002810154620138958201556201172c6005820162013898830162011a34565b620138996006820154910155386200cdf4565b600660208262011753600194518662006a8c565b019201920191906200a5c5565b6006818102048103620033d6576006838102048303620033d657620271156000527f0f9b10e190177c3c56fc6ce7689c8130c567df57aa02c08e7a090a59992adf926006840281015b8260060282018110620117be5750506200a5b1565b8060006006925560006001820155620117da6002820162006718565b60006003820155620117ef600482016200651c565b6000600582015501620117a9565b600660208262011811600194518662006a8c565b019201920191906200a535565b80600602906006820403620033d65782600602600681048403620033d6576000906202711682526020822092830192015b8281106201185f5750506200a521565b808260069255826001820155620118796002820162006718565b8260038201556201188d600482016200651c565b826005820155016201184f565b608460405162461bcd60e51b815260206004820152604060248201526000805160206201527a83398151915260448201527f656d2073686f756c64206e6f742072657475726e20766f7465206e65656465646064820152fd5b60405162461bcd60e51b815260206004820152604760248201526000805160206201527a83398151915260448201527f656d2073686f756c64206e6f742072657475726e206120766f74696e672072756064820152661b19481b1a5cdd60ca1b608482015260a490fd5b818114620119c1578154916001600160401b03831162003f6d576201198383836200624a565b60005260206000209060005260206000208154916000925b848410620119aa575050505050565b60018091920193845492818501550192906201199b565b5050565b818114620119c1578154916001600160401b03831162003f6d57620119eb83836200624a565b60005260206000209060005260206000208154916000925b84841062011a12575050505050565b600191820180546001600160a01b039092168486015593909101929062011a03565b90808214620119c15762011a4981546200555f565b906001600160401b03821162003f6d57819062011a738262011a6c86546200555f565b866200692c565b600090601f831160011462011aac5760009262011aa05750508160011b916000199060031b1c1916179055565b015490503880620069bf565b81526020808220858352818320935090601f1985169083905b82821062011b0157505090846001959493921062011ae757505050811b019055565b015460001960f88460031b161c1916905538808062006a0c565b849581929585015481556001809101960194019062011ac5565b818114620119c15781549162011b328383620065ad565b6000526020600020906000526020600020906000905b83821062011b565750505050565b8062011b656001928562011a34565b92810192918101910162011b48565b818114620119c15781549162011b8b83836200663b565b6000526020600020906000526020600020906000905b83821062011baf5750505050565b8062011bbe600192856201195d565b92810192918101910162011ba1565b818114620119c15781549162011be483836200663b565b6000526020600020906000526020600020906000905b83821062011c085750505050565b8062011c1760019285620119c5565b92810192918101910162011bfa565b818114620119c15781549162011c3d8383620066c9565b6000526020600020906000526020600020906000905b83821062011c615750505050565b8062011c706001928562011b1b565b92810192918101910162011c53565b818114620119c15781549162011c968383620067db565b6000526020600020906000526020600020906000905b83821062011cba5750505050565b80600191840362011cd7575b600980910193019101909162011cac565b805484558162011d198186019183019160ff62011cf88185541683620068cf565b83549362011d0d82600896871c1684620068e9565b5460101c16906200690a565b62011d2b60028084019087016201195d565b60038281019190860183870362011d46575b50505062011cc6565b62011daa9262011d56916201195d565b62011d686004808501908801620119c5565b62011d7a600580850190880162011b1b565b62011d8c600680850190880162011b74565b62011d9e600780850190880162011bcd565b80830190860162011c26565b38808062011d3d565b919062006f9d5780820362011dc6575050565b60ff600580620054e69462011ddf8486541682620068b6565b6001850154600182015562011dfb600286016002830162011c7f565b6003850154600382015562011e17600486016004830162011a34565b01920162011e29828254168462006a49565b62011e3b82825460081c168462006a5a565b5460101c169062006a72565b90808214620119c157908154906000915b6064831062011e675750505050565b600180919401928354948184015501919262011e58565b906201388254602060009301908151519062011e9a8262004034565b9162011eaa604051938462004010565b80835262011ebb601f199162004034565b0136602084013762011ed083515182620070e9565b90156201223a5762011ee29062006032565b90859284515115620122315762011ef98262006032565b965b8551518110156201207a5760008080805b86811062011f915750905062011f2e8162011f28858762005f16565b6200572f565b6006811015620040d55760031462011f53575b5062011f4d9062005ec0565b62011efb565b6000905b80821062011f66575062011f41565b9095620098a462011f8a9162011f7d898d62005f16565b5162001e43828a62005f16565b9062011f57565b62011faa8162011fa3878d5162005f16565b5162012653565b9390948083118062012066575b156201201d57505091838562012013575b6006811015620040d55760038e911462011ff3575b505062011fea9062005ec0565b91909162011f0c565b946201200a9162001e438262011fea959862005f16565b93908c62011fdd565b6000955062011fc8565b809492959195148062012052575b1562011fdd576006811015620040d55760038e911462011ff357505062011fea9062005ec0565b506006811015620040d5578015156201202b565b506006861015620040d55785151562011fb7565b5093505090929350600093845b8351861015620121cc57620120a7620120a1878662005f16565b620068a8565b90600680831015620040d5576002928303620120d2575050620120cb909562005ec0565b9462012087565b620120e2620120a1898862005f16565b9281841015620040d557600180941480620121b8575b156201210d57505050620120cb909562005ec0565b62012122620120a18a899b9694959b62005f16565b9280841015620040d557600480941492836201218c575b508262012161575b505062012155575b50620120cb9062005ec0565b9550620120cb62012149565b9091508810156201217757871415388062012141565b602182634e487b7160e01b6000525260246000fd5b908093508a1015620121a357891415913862012139565b602184634e487b7160e01b6000525260246000fd5b5081831015620040d55780831415620120f8565b9250929093506006821015620040d5576003820362012228575b620121f18162006032565b9360005b82811062012204575050509190565b806201221562012222928462005f16565b5162001e43828962005f16565b620121f5565b506000620121e6565b50909392505050565b60405162461bcd60e51b815260206004820152602a60248201527f546865206c656e677468206f6620766f74696e672072756c65206c697374206960448201526973206f766572666c6f7760b01b6064820152608490fd5b9062013883546020600093019081515190620122ae8262004034565b91620122be604051938462004010565b808352620122cf601f199162004034565b01366020840137620122e483515182620070e9565b90156201223a57620122f69062006032565b9085928451511562012231576201230d8262006032565b965b8551518110156201247b5760008080805b86811062012392575090506201233c8162011f28858762005f16565b6006811015620040d55760031462012361575b506201235b9062005ec0565b6201230f565b6000905b8082106201237457506201234f565b9095620098a46201238b9162011f7d898d62005f16565b9062012365565b620123ab81620123a4878d5162005f16565b51620126ef565b9390948083118062012467575b156201241e57505091838562012414575b6006811015620040d55760038e9114620123f4575b5050620123eb9062005ec0565b91909162012320565b946201240b9162001e4382620123eb959862005f16565b93908c620123de565b60009550620123c9565b809492959195148062012453575b15620123de576006811015620040d55760038e9114620123f4575050620123eb9062005ec0565b506006811015620040d5578015156201242c565b506006861015620040d557851515620123b8565b5093505090929350600093845b83518610156201259d57620124a2620120a1878662005f16565b90600680831015620040d5576002928303620124cd575050620124c6909562005ec0565b9462012488565b620124dd620120a1898862005f16565b9281841015620040d55760038094148062012589575b156201250857505050620124c6909562005ec0565b6201251d620120a18a899b9694959b62005f16565b9280841015620040d5576005809414928362012572575b50826201255c575b505062012550575b50620124c69062005ec0565b9550620124c662012544565b909150881015620040d55787141538806201253c565b908093508a1015620040d557891415913862012534565b5081831015620040d55780831415620124f3565b9250929093506006821015620040d55760038203620125ec575b620125c28162006032565b9360005b828110620125d5575050509190565b8062012215620125e6928462005f16565b620125c6565b506000620125b7565b15620125fd57565b60405162461bcd60e51b815260206004820152602860248201527f506c7567696e466163746f72793a20706c7567696e20696e646578206f7574206044820152676f662072616e676560c01b6064820152608490fd5b90916000809381936201266c62013882548310620125f5565b60ff60056201267b8462006f24565b50015460081c1615620126e3578282620126979260016201285b565b620126a3575b50929190565b8094506001929350620126b7915062006f24565b500154906003620126d860ff620126ce8662006f24565b5054169462006f24565b50015491386201269d565b50509150915080918190565b90916000809381936201270862013883548310620125f5565b60ff6005620127178462006ee2565b50015460081c1615620126e35782826201273292826201285b565b6201273d5750929190565b809450600192935062012751915062006ee2565b500154906003620126d860ff620127688662006ee2565b5054169462006ee2565b156201277a57565b60405162461bcd60e51b815260206004820152603160248201527f436865636b696e6720636f6e646974696f6e206578703a20706c7567696e20696044820152706e646578206f7574206f662072616e676560781b6064820152608490fd5b15620127e157565b60405162461bcd60e51b815260206004820152602f60248201527f436865636b696e6720636f6e646974696f6e206578703a206e6f646520696e6460448201526e6578206f7574206f662072616e676560881b6064820152608490fd5b805482101562005ede576000526009602060002091020190600090565b90929190801562012bca57620128776201388254831062012772565b620128936002620128888462006f24565b5001548410620127d9565b801562012bac57620128c36001620128ba856002620128b28762006f24565b50016201283e565b50015460ff1690565b620128ce816200418b565b80620128de575050505050600090565b620128e9816200418b565b60038103620128fc575050505050600190565b62012907816200418b565b600481036201291a575050505050600090565b62012925816200418b565b6001908082036201293e57505092620046bd9362012bf2565b9092936201294c826200418b565b600280921462012962575b505050505050600090565b821562012b8f576201298b846201297f8385620128b28a62006f24565b50015460081c60ff1690565b925b60009586865b62012b1d575b50620129a58762006032565b9760005b88811062012ac0575050505050620129c182620040ca565b81830362012a2057505091906000915b818310620129df5750505090565b90919280620129fd575b620129f5909362005ec0565b9190620129d1565b50620129f562012a1862012a12858462005f16565b51151590565b9050620129e9565b90915062012a2e82620040ca565b810362012a8757509060009182915b81831062012a4b5750505090565b909192801562012a6a575b62012a62909362005ec0565b919062012a3d565b5062012a6262012a7f62012a12858462005f16565b905062012a56565b6003915062012a9681620040ca565b1462012aa9575038808080808062012957565b62012abc62012a12620046bd9262005ed0565b1590565b808a62012afc62012af362012ae9848b62012ae18c82620128b28d62006ee2565b500162006135565b90549060031b1c90565b8686896201285b565b62012b1062012b179462001c389362005f16565b9015159052565b620129a9565b8462012b2f8582620128b28662006ee2565b50015481101562012b895762012b5562012ae9828762012ae18882620128b28962006ee2565b62012b6e575b62012b67879162005ec0565b9062012993565b9662012b6762012b7f889262005ec0565b9891505062012b5b565b62012999565b62012ba5846201297f8385620128b28a62006ee2565b926201298d565b62012bc46001620128ba856002620128b28762006ee2565b620128c3565b62012bdb6201388354831062012772565b62012bec6002620128888462006ee2565b62012893565b909291600362012c44918360001462012cc65760ff600162012c1b876002620128b28662006f24565b50015460101c16945b841562012cb5576002620128b262012c3c9362006f24565b500162005803565b91603d811015620040d557602c810362012c8557505062012c686020915162005ed0565b519101516026811015620040d55762012c819062014e4c565b1490565b9092906001810362012c9a5750505050600090565b60031462012caa57505050600090565b620046bd9262012d36565b6002620128b262012c3c9362006ee2565b60ff600162012cdc876002620128b28662006ee2565b50015460101c169462012c24565b1562012cf257565b606460405162461bcd60e51b815260206004820152602060248201527f4f70657261746f722061646472657373206973206e6f742070726f76696465646044820152fd5b9190608062007468920162012d5060018251511462012cea565b62012d6b600162012d62835162005ed0565b51511462012cea565b516001600160a01b0392839162012d83919062005ed0565b5116921562012d925751161490565b51161490565b1562012da057565b60405162461bcd60e51b815260206004820152601c60248201527b496e76616c6964206e756d626572206f6620706172616d657465727360201b6044820152606490fd5b91908201809211620033d657565b62012dfd816200418b565b62012e0b6200cd5662014de3565b62012e16816200418b565b6001810362012e35575062012e2e6200cd8262014de3565b6201388b55565b62012e40816200418b565b6002810362012e5157506201388c55565b62012e5c816200418b565b6003810362012e6d57506201388d55565b8062012e7b6004926200418b565b1462012e845750565b6201388e55565b1562012e9357565b60405162461bcd60e51b815260206004820152604d60248201527f546865206c656e677468206f662074686520706c7567696e20696e646578657360448201527f20617272617920616e642074686520626f6f6c65616e206172726179206d757360648201526c74206265207468652073616d6560981b608482015260a490fd5b1562012f1c57565b60405162461bcd60e51b815260206004820152602260248201527f496e76616c696420706c7567696e20696e64657820746f20626520656e61626c604482015261195960f21b6064820152608490fd5b1562012f7457565b60405162461bcd60e51b815260206004820152602b60248201527f54686520706c7567696e20746f20626520656e61626c6564206973206e6f742060448201526a1a5b9a5d1a585b1a5e995960aa1b6064820152608490fd5b1562012fd557565b60405162461bcd60e51b815260206004820152602b60248201527f54686520706c7567696e20746f20626520656e61626c656420697320616c726560448201526a18591e48195b98589b195960aa1b6064820152608490fd5b156201303657565b60405162461bcd60e51b815260206004820152602360248201527f496e76616c696420706c7567696e20696e64657820746f2062652064697361626044820152621b195960ea1b6064820152608490fd5b156201308f57565b60405162461bcd60e51b815260206004820152602c60248201527f54686520706c7567696e20746f2062652064697361626c6564206973206e6f7460448201526b081a5b9a5d1a585b1a5e995960a21b6064820152608490fd5b15620130f157565b60405162461bcd60e51b815260206004820152602d60248201527f54686520706c7567696e20746f2062652064697361626c656420697320616c7260448201526c1958591e48191a5cd8589b1959609a1b6064820152608490fd5b156201315457565b60405162461bcd60e51b815260206004820152603060248201527f546865206c656e677468206f662074617267657420616e6420746f6b656e436c60448201526f185cdcc81a5cc81b9bdd08195c5d585b60821b6064820152608490fd5b15620131ba57565b60405162461bcd60e51b815260206004820152602c60248201527f546865206c656e677468206f662074617267657420616e6420616d6f756e742060448201526b1a5cc81b9bdd08195c5d585b60a21b6064820152608490fd5b156201321c57565b60405162461bcd60e51b815260206004820152602260248201527f54686520746f6b656e20636c617373206973206e6f7420696e697469616c697a604482015261195960f21b6064820152608490fd5b156201327457565b60405162461bcd60e51b815260206004820152602960248201527f54686520746f74616c20737570706c79206f662074686520746f6b656e206973604482015268206f766572666c6f7760b81b6064820152608490fd5b15620132d357565b60405162461bcd60e51b8152602060048201526024808201527f5468652062616c616e6365206f662074686520746f6b656e206973206f766572604482015263666c6f7760e01b6064820152608490fd5b156201332c57565b606460405162461bcd60e51b815260206004820152602060248201527f54686520746f6b656e20697320616c726561647920696e697469616c697a65646044820152fd5b906040820190620133876101008351015162005ed0565b5191620133a960e06201339e818451015162005ed0565b519251015162005ef4565b5191620133be845183511462002a1d62014cb0565b620133d1845184511462002a1d62014cb0565b60005b84518110156201343057620133ea818462005f16565b519061271082101562005ede57620138966201342a9260018060a01b0389511660005260031b0160205262001c386040600020546200838d838862005f16565b620133d4565b50929160005b83518110156201355d576201344c818462005f16565b51906127108083101562005ede5760018060a01b0390818951166000526201389660039481602091871b0181526201348f6040600020546200840b878a62005f16565b906201349c878b62005f16565b51918583101562005ede5784620134ca938f899051166000528a1b01845260406000205562002a1d62014db4565b620134d6858962005f16565b518381101562005ede57829085620134ef888d62005f16565b5116600052871b0181526201350f6040600020546200746f878a62005f16565b9290936201351e878b62005f16565b519081101562005ede57620135579762001c38966201353e898e62005f16565b51166000521b01905260406000205562002a1d62014e19565b62013436565b50506200ee156201356e9162014a3f565b90604051936201357e8562003fbc565b60018552602036818701376001600160a01b036104e0819052905116620135a58562005ed0565b526000935b8151851015620138cf57620135c0858362005f16565b5194620135ce845162006032565b91600093620135de825162006032565b6104a0528496855b87518110156201368a576201360d6104e05162013604838b62005f16565b51168b62014875565b15806201364f575b6201362c575b620136269062005ec0565b620135e6565b956201364662013626916104e0516200a0718a8c62005f16565b9690506201361b565b506127108a101562005ede576104e0516201366b828a62005f16565b5116600052620138968a60031b01602052604060002054151562013615565b509793929096949195976000986127108610159560031b98620138968a019a5b895181101562013726578762005ede576104e051620136ca828c62005f16565b51166000528b60205260406000205415620136f1575b620136eb9062005ec0565b620136aa565b976201371d620136eb918b6201370c8c6104e0519262005f16565b511662001e43826104a05162005f16565b989050620136e0565b50949591939650985096909596806104605262005ede576201389701806104c052549562013759620094c6868962012de4565b6104805260009788610440525b6104605162005ede576104405188811015620138045762013795620137ab916000610460526104c05162006135565b6104e05191549060031b1c166104a051620148ce565b15620137ca575b620137c06104405162005ec0565b6104405262013766565b97620137fd90620137e2610440516104c05162006135565b6104e05191549060031b1c1662001e43826104805162005f16565b97620137b2565b5095939096509690969391936000915b8383106201389e57505050506104605162005ede5761048051516001600160401b03811162003f6d576201384c816104c0516200624a565b602061048051016104c051600052602060002060006104e051905b848110620138875750505050506201387f9062005ec0565b9392620135aa565b600190602083865116950194818501550162013867565b6200a104620138c8916104e051620138b7868662005f16565b511662001e43826104805162005f16565b9162013814565b5050509050565b6040810190620138ec6101008351015162005ed0565b51916201390360e06201339e818451015162005ed0565b519362013918845183511462002a1d62014cb0565b6201392b845186511462002a1d62014cb0565b60005b8451811015620139885762013944818462005f16565b519061271082101562005ede57620139829160018060a01b03865116600052600390811b0160205262001c386040600020546200838d838a62005f16565b6201392e565b5092919360005b835181101562013ab357620139a5818462005f16565b5190612710918281101562005ede5760018060a01b03908189511660005260039081602091811b018152620139e56040600020546200840b868962005f16565b90620139f2868a62005f16565b51918783101562005ede578462013a1f93878f5116600052811b01845260406000205562002a1d62014db4565b62013a2b848862005f16565b518581101562005ede5782908462013a44878c62005f16565b5116600052811b01815262013a646040600020546200746f868962005f16565b91909262013a73868a62005f16565b519687101562005ede5762013aad9662001c389562013a93888d62005f16565b5116600052811b01905260406000205562002a1d62014e19565b6201398f565b50506200ee1562013ac49162014a3f565b906040519362013ad48562003fbc565b60018552602036818701376001600160a01b036104e081905290511662013afb8562005ed0565b526000935b8151851015620138cf5762013b16858362005f16565b519462013b24845162006032565b9160009362013b34825162006032565b610460528496855b875181101562013bdd5762013b636104e05162013b5a838b62005f16565b51168b6201480c565b158062013ba5575b62013b82575b62013b7c9062005ec0565b62013b3c565b9562013b9c62013b7c916104e0516200a0718a8c62005f16565b96905062013b71565b506127108a101562005ede576104e05162013bc1828a62005f16565b511660005260038a811b01602052604060002054151562013b6b565b509793929096949195976000986127108610159560031b9860038a019a5b895181101562013c77578762005ede576104e05162013c1b828c62005f16565b51166000528b6020526040600020541562013c42575b62013c3c9062005ec0565b62013bfb565b9762013c6e62013c3c918b62013c5d8c6104e0519262005f16565b511662001e43826104605162005f16565b98905062013c31565b50949591939650985096909596806104405262005ede57600401806104a052549562013ca8620094c6868962012de4565b6104c05260009788610480525b6104405162005ede57610480518881101562013d535762013ce462013cfa916000610440526104a05162006135565b6104e05191549060031b1c1661046051620148ce565b1562013d19575b62013d0f6104805162005ec0565b6104805262013cb5565b9762013d4c9062013d31610480516104a05162006135565b6104e05191549060031b1c1662001e43826104c05162005f16565b9762013d01565b5095939096509690969391936000915b83831062013ded57505050506104405162005ede576104c051516001600160401b03811162003f6d5762013d9b816104a0516200624a565b60206104c051016104a051600052602060002060006104e051905b84811062013dd657505050505062013dce9062005ec0565b939262013b00565b600190602083865116950194818501550162013db6565b6200a10462013e17916104e05162013e06868662005f16565b511662001e43826104c05162005f16565b9162013d63565b62013884805482101562005ede576000526007602060002091020190600090565b815180519192916001600160401b03811162003f6d5762013e6181856200624a565b6020809201846000528260002060005b83811062013ed8575050505060c082600692620054e6959401516001850155604081015160028501556060810151600385015562013eb9608082015115156004860162006a49565b62013ecc60a08201516005860162006976565b01511515910162006a49565b8251828201559184019160010162013e71565b620138848054600160401b81101562003f6d5762013f0f9160018201905562013e1e565b91909162006f9d57620054e69162013e3f565b62013890908154600160401b81101562003f6d576001810180845581101562005ede57620054e69260005260206000200162006976565b908062013f64575050565b620054e691600052601f6020600020910160051c8101906200614e565b90600160401b811162003f6d57815481835580821062013fa057505050565b620054e692600052601f6020600020918180850160051c840194168062013fcf575b500160051c01906200614e565b600019908186019182549160200360031b1c1690553862013fc2565b9060031b60ff811b9283911b169119161790565b6000926201401962014012859462013e1e565b50620056a8565b9380935b85515185101562014107575061271084101562005ede5760039380851b9460018060a01b03851660005260209086018152620140666040966001886000205491015490620070e9565b93849115620140d257906201407b9162007231565b96901562014098575050620140909062005ec0565b93906201401d565b60649250519062461bcd60e51b825260048201526014602482015273746f74616c20706f776572206f766572666c6f7760601b6044820152fd5b875162461bcd60e51b815260048101849052600e60248201526d706f776572206f766572666c6f7760901b6044820152606490fd5b93505092505090565b156201411857565b60405162461bcd60e51b815260206004820152601360248201527263757272656e74596573206f766572666c6f7760681b6044820152606490fd5b6001620141608262013e1e565b5001546202712e546000928184526202712b908160205262014189816003604088200162006135565b90549060031b1c9183865280602052620141aa826004604089200162006135565b90549060031b1c93865260205260ff6006620141df620141d184600560408b200162006135565b90549060031b1c9362013e1e565b500154166201422d57506201421d92620004326201420f9383620142076201421595620070b3565b969062014110565b62012de4565b929062014110565b1115620142275790565b50600190565b6200e33b92506201421d93620142476201421593620070b3565b949062014110565b909291926201425f825162006032565b6000916201426e815162006032565b8390845b865181101562014309576001600160a01b03620142958162013b5a848b62005f16565b1580620142d4575b620142b5575b50620142af9062005ec0565b62014272565b8196620142cc916200952d620142af948b62005f16565b9590620142a3565b506127108a101562005ede5780620142ed838a62005f16565b511660005260038a811b0160205260406000205415156201429d565b509295919694509260005b87518110156201438a5761271086101562005ede576001600160a01b03806201433e838b62005f16565b5116600052600387811b01602052604060002054156201436b575b50620143659062005ec0565b62014314565b819562014382916200cf5462014365948c62005f16565b949062014359565b509250945092612710831015938462005ede5760049586600395861b0196875494620143bb620094c6828862012de4565b9460009689889a5b6201452f57818b10156201446457506000998b620143fe620143e6838362006135565b90546001600160a01b0392918e1b1c82168a620148ce565b1562014421575b505090620144168b94939262005ec0565b9a90919293620143c3565b91998c95949392909162014437908c9062006135565b9054908d1b1c166201444a828b62005f16565b52620144569062005ec0565b9890919293508b3862014405565b9697949a98505091975092506000915b8383106201450a5750505050620144f5578051926001600160401b038411620144e05750620144a483836200624a565b602080910191600052806000209060005b848110620144c4575050505050565b83516001600160a01b03168382015592810192600101620144b5565b604190634e487b7160e01b6000525260246000fd5b603283634e487b7160e01b6000525260246000fd5b62014528906200a104906001600160a01b036200a071868662005f16565b9162014474565b603285634e487b7160e01b6000525260246000fd5b9092919262014554825162006032565b60009162014563815162006032565b8390845b865181101562014601576001600160a01b036201458a8162013604848b62005f16565b1580620145c9575b620145aa575b50620145a49062005ec0565b62014567565b8196620145c1916200952d620145a4948b62005f16565b959062014598565b506127108a101562005ede5780620145e2838a62005f16565b5116600052620138968a60031b01602052604060002054151562014592565b509295919694509260005b8751811015620146855761271086101562005ede576001600160a01b038062014636838b62005f16565b5116600052620138968760031b016020526040600020541562014666575b50620146609062005ec0565b6201460c565b81956201467d916200cf5462014660948c62005f16565b949062014654565b509250945092612710831015938462005ede5762013897600394851b0195865493620146b6620094c6828762012de4565b936000958887995b62005ede57818a10156201475f57506000988a620146f9620146e1838362006135565b90546001600160a01b0392918d1b1c821689620148ce565b156201471c575b505090620147118a94939262005ec0565b9990919293620146be565b91988b95949392909162014732908b9062006135565b9054908c1b1c1662014745828a62005f16565b52620147519062005ec0565b9790919293508a3862014700565b96945050919795509295506000915b838310620147d9575050505062005ede578151916001600160401b03831162003f6d576201479d83836200624a565b602080910191600052806000209060005b848110620147bd575050505050565b83516001600160a01b03168382015592810192600101620147ae565b62014805906200a104906001600160a01b03620147f7868662005f16565b511662001e43828b62005f16565b916201476e565b9060005b61271083101562005ede576003600484821b0180548310156201486b5782620148399162006135565b9054911b1c6001600160a01b039081169083161462014863576201485d9062005ec0565b62014810565b505050600190565b5050505050600090565b9060005b61271083101562005ede5760036201389784821b0180548310156201486b5782620148a49162006135565b9054911b1c6001600160a01b03908116908316146201486357620148c89062005ec0565b62014879565b9060005b82518110156201490d576001600160a01b0380620148f1838662005f16565b5116908316146201486357620149079062005ec0565b620148d2565b505050600090565b8015620033d6576000190190565b9081519060005b600019838101848111620033d657821015620149f15760018201808311620033d6575b84811062014968575050620149629062005ec0565b6201492a565b6001600160a01b03806201497d858962005f16565b5116816201498c848a62005f16565b511614620149a7575b50620149a19062005ec0565b6201494d565b8286929601828111620033d657620149a192620149ea92620149ce620149e3938b62005f16565b5116620149dc898b62005f16565b5262014915565b9562014915565b9062014995565b505090620149ff8162006032565b9060005b81811062014a12575090925050565b62014a39906001600160a01b0362014a2b828862005f16565b511662001e43828662005f16565b62014a03565b80519160005b600019848101858111620033d65782101562014af75760018201808311620033d6575b85811062014a8357505062014a7d9062005ec0565b62014a45565b62014a8f838662005f16565b5162014a9c828762005f16565b511462014ab5575b62014aaf9062005ec0565b62014a68565b9481810190808211620033d65762014ae862014aef9162014adb62014aaf948962005f16565b51620149dc8a8a62005f16565b9662014915565b905062014aa4565b5050909162014b068162006032565b9060005b81811062014b19575090925050565b8062014b2a62014b37928762005f16565b5162001e43828662005f16565b62014b0a565b60405162014b4b8162003f51565b604481527f496e76616c6964206469766964656e64207065726d797269616420706572207460208201527f72616e73616374696f6e2e2053686f756c64206265206c657373207468616e206040820152630313030360e41b606082015290565b60405162014bb98162003ff4565b603281527f4e6f20656e6f756768206e756d626572206f66207472616e73616374696f6e7360208201527108199bdc88191a5d9a59195b991cc81e595d60721b604082015290565b60405162014c0f8162003fbc565b601c81527b6469766964656e6473206f7065726174696f6e206f766572666c6f7760201b602082015290565b60405162014c498162003fbc565b600d81526c2ab735b737bbb71022b93937b960991b602082015290565b60405162014c748162003ff4565b602681527f4572726f7220696e20776974686472617761626c6520636173682063616c63756020820152653630ba34b7b760d11b604082015290565b60405162014cbe8162003fbc565b6012815271496e76616c696420506172616d657465727360701b602082015290565b60405162014cee8162003fbc565b601581527413595b58995c88191bd95cc81b9bdd08195e1a5cdd605a1b602082015290565b60405162014d218162003fbc565b601781527613595b58995c881a5cc81b9bdd081cdd5cdc195b991959604a1b602082015290565b60405162014d568162003fbc565b601b81527a13595b58995c881a5cc8185b1c9958591e481cdd5cdc195b991959602a1b602082015290565b60405162014d8f8162003fbc565b60158152744d656d62657220616c72656164792065786973747360581b602082015290565b60405162014dc28162003fbc565b60118152704e6f20656e6f7567682062616c616e636560781b602082015290565b60405162014df18162003fbc565b6018815277125b9d985b1a59081c185c985b595d195c881d1bc81cd95d60421b602082015290565b60405162014e278162003fbc565b6015815274546f6b656e20616d6f756e74206f766572666c6f7760581b602082015290565b6026811015620040d55780156201503a57600181146201422757600281146201503457600381146201502e57600481146201502857600581146201502257600681146201501c57600781146201501657600881146201501057600981146201500a57600a81146201500457600b811462014ffe57600c811462014ff857600d811462014ff257600e811462014fec57600f811462014fe6576010811462014fe0576011811462014fda576012811462014fd4576013811462014fce576014811462014fc8576015811462014fc2576018811462014fbc576017811462014fb6576019811462014fb057601a811462014faa57601b811462014fa457601c811462014f9e57601d811462014f9857601e811462014f9257601f811462014f8c576020811462014f865760211462014f8157600090565b602190565b50602090565b50601f90565b50601e90565b50601d90565b50601c90565b50601b90565b50601a90565b50601990565b50601790565b50601690565b50601590565b50601490565b50601390565b50601290565b50601190565b50601090565b50600f90565b50600e90565b50600d90565b50600c90565b50600b90565b50600a90565b50600990565b50600890565b50600790565b50600690565b50600590565b50600490565b50600390565b50600290565b50600090565b90815181101562005ede570160200190565b60405190620150618262003ff4565b60288252604036602084013760005b601481106201507e57505090565b601390808203918211620033d657600382901b916001600160fd1b03811603620033d65760ff808311620033d657600192620150c79084901b6001600160a01b03861662006284565b60f0811682821603918211620033d657620150eb9060f41b600f60f81b1662015154565b82841b916001600160ff1b0384168403620033d657620151289160001a62015114848962015040565b5360f81b6001600160f81b03191662015154565b928101809111620033d657620151476201514e9360001a918662015040565b5362005ec0565b62015070565b60f81c600a8110156201517d5760300160ff8111620033d65760f81b6001600160f81b03191690565b60570160ff8111620033d65760f81b6001600160f81b0319169056fe546865206c656e677468206f662061646472657373657320616e6420746f6b651f4fe3ad533e3985b88710ce05a205152f02825e155777f3bcb8b3bbfcfb03a24ad859a97f543436e70c22b09d31fb4c7b9e987d7a008c98817c9b50a97b1224546865206c656e677468206f6620746f6b656e436c61737320616e6420746f6b546865206c656e677468206f6620746f6b656e496e666f20616e6420746f6b658e71c125ecfe4aeed61c8cf4b09183dd0bf2a3230d826486f04e5f6f0de58e2c18baa939e2e21be0e012ec26e9ec87e9e6faa065bd9f5835250457786300ece8546865206265666f7265206f7065726174696f6e20706c7567696e20737973745265736572766564206f70636f6465206964203233206973206e6f7420696d705265736572766564206f70636f6465206964203238206973206e6f7420696d70546865206c656e677468206f662061646472657373657320616e6420616d6f75a2646970667358221220e5753ec11d4a1791a7993a88596fd3f192a66b2cad89bef95cd62431981be63f64736f6c63430008110033",
  "linkReferences": {},
  "deployedLinkReferences": {}
}