{
  "_format": "hh-sol-artifact-1",
  "contractName": "DARC",
  "sourceName": "contracts/protocol/DARC.sol",
  "abi": [
    {
      "inputs": [
        {
          "internalType": "string",
          "name": "haystack",
          "type": "string"
        },
        {
          "internalType": "string",
          "name": "needle",
          "type": "string"
        }
      ],
      "name": "contains",
      "outputs": [
        {
          "internalType": "bool",
          "name": "",
          "type": "bool"
        }
      ],
      "stateMutability": "pure",
      "type": "function"
    },
    {
      "inputs": [],
      "name": "currentMachineState",
      "outputs": [
        {
          "components": [
            {
              "internalType": "uint256[100]",
              "name": "latestOperationTimestamp",
              "type": "uint256[100]"
            }
          ],
          "internalType": "struct OperationLog",
          "name": "globalOperationLog",
          "type": "tuple"
        },
        {
          "components": [
            {
              "internalType": "uint256",
              "name": "dividendPermyriadPerTransaction",
              "type": "uint256"
            },
            {
              "internalType": "uint256",
              "name": "dividendCycleOfTransactions",
              "type": "uint256"
            },
            {
              "internalType": "uint256",
              "name": "currentCashBalanceForDividends",
              "type": "uint256"
            },
            {
              "internalType": "uint256",
              "name": "dividendCycleCounter",
              "type": "uint256"
            },
            {
              "internalType": "address[]",
              "name": "emergencyAgentsAddressList",
              "type": "address[]"
            },
            {
              "internalType": "string[]",
              "name": "strStorageList",
              "type": "string[]"
            },
            {
              "internalType": "address[]",
              "name": "activeEmergencyAgentsAddressList",
              "type": "address[]"
            },
            {
              "internalType": "bool",
              "name": "bIsEmergency",
              "type": "bool"
            }
          ],
          "internalType": "struct MachineStateParameters",
          "name": "machineStateParameters",
          "type": "tuple"
        },
        {
          "internalType": "uint256",
          "name": "currentBalance",
          "type": "uint256"
        }
      ],
      "stateMutability": "view",
      "type": "function"
    },
    {
      "inputs": [
        {
          "components": [
            {
              "internalType": "address",
              "name": "programOperatorAddress",
              "type": "address"
            },
            {
              "components": [
                {
                  "internalType": "address",
                  "name": "operatorAddress",
                  "type": "address"
                },
                {
                  "internalType": "enum EnumOpcode",
                  "name": "opcode",
                  "type": "uint8"
                },
                {
                  "components": [
                    {
                      "internalType": "string[]",
                      "name": "STRING_ARRAY",
                      "type": "string[]"
                    },
                    {
                      "internalType": "bool[]",
                      "name": "BOOL_ARRAY",
                      "type": "bool[]"
                    },
                    {
                      "components": [
                        {
                          "internalType": "uint256[]",
                          "name": "votingTokenClassList",
                          "type": "uint256[]"
                        },
                        {
                          "internalType": "uint256",
                          "name": "approvalThresholdPercentage",
                          "type": "uint256"
                        },
                        {
                          "internalType": "uint256",
                          "name": "votingDurationInSeconds",
                          "type": "uint256"
                        },
                        {
                          "internalType": "uint256",
                          "name": "executionPendingDurationInSeconds",
                          "type": "uint256"
                        },
                        {
                          "internalType": "bool",
                          "name": "bIsEnabled",
                          "type": "bool"
                        },
                        {
                          "internalType": "string",
                          "name": "notes",
                          "type": "string"
                        },
                        {
                          "internalType": "bool",
                          "name": "bIsAbsoluteMajority",
                          "type": "bool"
                        }
                      ],
                      "internalType": "struct VotingRule[]",
                      "name": "VOTING_RULE_ARRAY",
                      "type": "tuple[]"
                    },
                    {
                      "components": [
                        {
                          "internalType": "enum EnumReturnType",
                          "name": "returnType",
                          "type": "uint8"
                        },
                        {
                          "internalType": "uint256",
                          "name": "level",
                          "type": "uint256"
                        },
                        {
                          "components": [
                            {
                              "internalType": "uint256",
                              "name": "id",
                              "type": "uint256"
                            },
                            {
                              "internalType": "enum EnumConditionNodeType",
                              "name": "nodeType",
                              "type": "uint8"
                            },
                            {
                              "internalType": "enum EnumLogicalOperatorType",
                              "name": "logicalOperator",
                              "type": "uint8"
                            },
                            {
                              "internalType": "uint256",
                              "name": "conditionExpression",
                              "type": "uint256"
                            },
                            {
                              "internalType": "uint256[]",
                              "name": "childList",
                              "type": "uint256[]"
                            },
                            {
                              "components": [
                                {
                                  "internalType": "string[]",
                                  "name": "STRING_ARRAY",
                                  "type": "string[]"
                                },
                                {
                                  "internalType": "uint256[][]",
                                  "name": "UINT256_2DARRAY",
                                  "type": "uint256[][]"
                                },
                                {
                                  "internalType": "address[][]",
                                  "name": "ADDRESS_2DARRAY",
                                  "type": "address[][]"
                                },
                                {
                                  "internalType": "bytes",
                                  "name": "BYTES",
                                  "type": "bytes"
                                }
                              ],
                              "internalType": "struct NodeParam",
                              "name": "param",
                              "type": "tuple"
                            }
                          ],
                          "internalType": "struct ConditionNode[]",
                          "name": "conditionNodes",
                          "type": "tuple[]"
                        },
                        {
                          "internalType": "uint256",
                          "name": "votingRuleIndex",
                          "type": "uint256"
                        },
                        {
                          "internalType": "string",
                          "name": "notes",
                          "type": "string"
                        },
                        {
                          "internalType": "bool",
                          "name": "bIsEnabled",
                          "type": "bool"
                        },
                        {
                          "internalType": "bool",
                          "name": "bIsInitialized",
                          "type": "bool"
                        },
                        {
                          "internalType": "bool",
                          "name": "bIsBeforeOperation",
                          "type": "bool"
                        }
                      ],
                      "internalType": "struct Plugin[]",
                      "name": "PLUGIN_ARRAY",
                      "type": "tuple[]"
                    },
                    {
                      "internalType": "enum MachineParameter[]",
                      "name": "PARAMETER_ARRAY",
                      "type": "uint8[]"
                    },
                    {
                      "internalType": "uint256[][]",
                      "name": "UINT256_2DARRAY",
                      "type": "uint256[][]"
                    },
                    {
                      "internalType": "address[][]",
                      "name": "ADDRESS_2DARRAY",
                      "type": "address[][]"
                    },
                    {
                      "internalType": "bytes",
                      "name": "BYTES",
                      "type": "bytes"
                    }
                  ],
                  "internalType": "struct Param",
                  "name": "param",
                  "type": "tuple"
                }
              ],
              "internalType": "struct Operation[]",
              "name": "operations",
              "type": "tuple[]"
            },
            {
              "internalType": "string",
              "name": "notes",
              "type": "string"
            }
          ],
          "internalType": "struct Program",
          "name": "program",
          "type": "tuple"
        }
      ],
      "name": "entrance",
      "outputs": [
        {
          "internalType": "string",
          "name": "",
          "type": "string"
        }
      ],
      "stateMutability": "payable",
      "type": "function"
    },
    {
      "inputs": [],
      "name": "executingPendingDeadline",
      "outputs": [
        {
          "internalType": "uint256",
          "name": "",
          "type": "uint256"
        }
      ],
      "stateMutability": "view",
      "type": "function"
    },
    {
      "inputs": [],
      "name": "finiteState",
      "outputs": [
        {
          "internalType": "enum FiniteState",
          "name": "",
          "type": "uint8"
        }
      ],
      "stateMutability": "view",
      "type": "function"
    },
    {
      "inputs": [],
      "name": "getCurrentDividendPerUnit",
      "outputs": [
        {
          "internalType": "uint256",
          "name": "",
          "type": "uint256"
        }
      ],
      "stateMutability": "view",
      "type": "function"
    },
    {
      "inputs": [],
      "name": "getDARClogs",
      "outputs": [
        {
          "internalType": "string[]",
          "name": "",
          "type": "string[]"
        }
      ],
      "stateMutability": "view",
      "type": "function"
    },
    {
      "inputs": [
        {
          "internalType": "uint256",
          "name": "timestamp",
          "type": "uint256"
        }
      ],
      "name": "getDateTime",
      "outputs": [
        {
          "internalType": "uint256",
          "name": "year",
          "type": "uint256"
        },
        {
          "internalType": "uint256",
          "name": "month",
          "type": "uint256"
        },
        {
          "internalType": "uint256",
          "name": "day",
          "type": "uint256"
        },
        {
          "internalType": "uint256",
          "name": "hour",
          "type": "uint256"
        },
        {
          "internalType": "uint256",
          "name": "minute",
          "type": "uint256"
        },
        {
          "internalType": "uint256",
          "name": "second",
          "type": "uint256"
        }
      ],
      "stateMutability": "pure",
      "type": "function"
    },
    {
      "inputs": [],
      "name": "getGlobalOperationLog",
      "outputs": [
        {
          "components": [
            {
              "internalType": "uint256[100]",
              "name": "latestOperationTimestamp",
              "type": "uint256[100]"
            }
          ],
          "internalType": "struct OperationLog",
          "name": "",
          "type": "tuple"
        }
      ],
      "stateMutability": "view",
      "type": "function"
    },
    {
      "inputs": [],
      "name": "getLatestVotingItemIndex",
      "outputs": [
        {
          "internalType": "uint256",
          "name": "",
          "type": "uint256"
        }
      ],
      "stateMutability": "view",
      "type": "function"
    },
    {
      "inputs": [
        {
          "internalType": "address",
          "name": "member",
          "type": "address"
        }
      ],
      "name": "getMemberInfo",
      "outputs": [
        {
          "components": [
            {
              "internalType": "bool",
              "name": "bIsInitialized",
              "type": "bool"
            },
            {
              "internalType": "bool",
              "name": "bIsSuspended",
              "type": "bool"
            },
            {
              "internalType": "string",
              "name": "name",
              "type": "string"
            },
            {
              "internalType": "uint256",
              "name": "role",
              "type": "uint256"
            }
          ],
          "internalType": "struct MemberInfo",
          "name": "",
          "type": "tuple"
        }
      ],
      "stateMutability": "view",
      "type": "function"
    },
    {
      "inputs": [],
      "name": "getMemberList",
      "outputs": [
        {
          "internalType": "address[]",
          "name": "",
          "type": "address[]"
        }
      ],
      "stateMutability": "view",
      "type": "function"
    },
    {
      "inputs": [],
      "name": "getMyInfo",
      "outputs": [
        {
          "internalType": "address",
          "name": "",
          "type": "address"
        }
      ],
      "stateMutability": "view",
      "type": "function"
    },
    {
      "inputs": [],
      "name": "getNumberOfTokenClasses",
      "outputs": [
        {
          "internalType": "uint256",
          "name": "",
          "type": "uint256"
        }
      ],
      "stateMutability": "view",
      "type": "function"
    },
    {
      "inputs": [
        {
          "internalType": "address",
          "name": "addr",
          "type": "address"
        }
      ],
      "name": "getOperationLogByAddress",
      "outputs": [
        {
          "components": [
            {
              "internalType": "uint256[100]",
              "name": "latestOperationTimestamp",
              "type": "uint256[100]"
            }
          ],
          "internalType": "struct OperationLog",
          "name": "",
          "type": "tuple"
        }
      ],
      "stateMutability": "view",
      "type": "function"
    },
    {
      "inputs": [],
      "name": "getPluginInfo",
      "outputs": [
        {
          "components": [
            {
              "internalType": "enum EnumReturnType",
              "name": "returnType",
              "type": "uint8"
            },
            {
              "internalType": "uint256",
              "name": "level",
              "type": "uint256"
            },
            {
              "components": [
                {
                  "internalType": "uint256",
                  "name": "id",
                  "type": "uint256"
                },
                {
                  "internalType": "enum EnumConditionNodeType",
                  "name": "nodeType",
                  "type": "uint8"
                },
                {
                  "internalType": "enum EnumLogicalOperatorType",
                  "name": "logicalOperator",
                  "type": "uint8"
                },
                {
                  "internalType": "uint256",
                  "name": "conditionExpression",
                  "type": "uint256"
                },
                {
                  "internalType": "uint256[]",
                  "name": "childList",
                  "type": "uint256[]"
                },
                {
                  "components": [
                    {
                      "internalType": "string[]",
                      "name": "STRING_ARRAY",
                      "type": "string[]"
                    },
                    {
                      "internalType": "uint256[][]",
                      "name": "UINT256_2DARRAY",
                      "type": "uint256[][]"
                    },
                    {
                      "internalType": "address[][]",
                      "name": "ADDRESS_2DARRAY",
                      "type": "address[][]"
                    },
                    {
                      "internalType": "bytes",
                      "name": "BYTES",
                      "type": "bytes"
                    }
                  ],
                  "internalType": "struct NodeParam",
                  "name": "param",
                  "type": "tuple"
                }
              ],
              "internalType": "struct ConditionNode[]",
              "name": "conditionNodes",
              "type": "tuple[]"
            },
            {
              "internalType": "uint256",
              "name": "votingRuleIndex",
              "type": "uint256"
            },
            {
              "internalType": "string",
              "name": "notes",
              "type": "string"
            },
            {
              "internalType": "bool",
              "name": "bIsEnabled",
              "type": "bool"
            },
            {
              "internalType": "bool",
              "name": "bIsInitialized",
              "type": "bool"
            },
            {
              "internalType": "bool",
              "name": "bIsBeforeOperation",
              "type": "bool"
            }
          ],
          "internalType": "struct Plugin[]",
          "name": "",
          "type": "tuple[]"
        },
        {
          "components": [
            {
              "internalType": "enum EnumReturnType",
              "name": "returnType",
              "type": "uint8"
            },
            {
              "internalType": "uint256",
              "name": "level",
              "type": "uint256"
            },
            {
              "components": [
                {
                  "internalType": "uint256",
                  "name": "id",
                  "type": "uint256"
                },
                {
                  "internalType": "enum EnumConditionNodeType",
                  "name": "nodeType",
                  "type": "uint8"
                },
                {
                  "internalType": "enum EnumLogicalOperatorType",
                  "name": "logicalOperator",
                  "type": "uint8"
                },
                {
                  "internalType": "uint256",
                  "name": "conditionExpression",
                  "type": "uint256"
                },
                {
                  "internalType": "uint256[]",
                  "name": "childList",
                  "type": "uint256[]"
                },
                {
                  "components": [
                    {
                      "internalType": "string[]",
                      "name": "STRING_ARRAY",
                      "type": "string[]"
                    },
                    {
                      "internalType": "uint256[][]",
                      "name": "UINT256_2DARRAY",
                      "type": "uint256[][]"
                    },
                    {
                      "internalType": "address[][]",
                      "name": "ADDRESS_2DARRAY",
                      "type": "address[][]"
                    },
                    {
                      "internalType": "bytes",
                      "name": "BYTES",
                      "type": "bytes"
                    }
                  ],
                  "internalType": "struct NodeParam",
                  "name": "param",
                  "type": "tuple"
                }
              ],
              "internalType": "struct ConditionNode[]",
              "name": "conditionNodes",
              "type": "tuple[]"
            },
            {
              "internalType": "uint256",
              "name": "votingRuleIndex",
              "type": "uint256"
            },
            {
              "internalType": "string",
              "name": "notes",
              "type": "string"
            },
            {
              "internalType": "bool",
              "name": "bIsEnabled",
              "type": "bool"
            },
            {
              "internalType": "bool",
              "name": "bIsInitialized",
              "type": "bool"
            },
            {
              "internalType": "bool",
              "name": "bIsBeforeOperation",
              "type": "bool"
            }
          ],
          "internalType": "struct Plugin[]",
          "name": "",
          "type": "tuple[]"
        }
      ],
      "stateMutability": "view",
      "type": "function"
    },
    {
      "inputs": [
        {
          "internalType": "uint256",
          "name": "tokenClassIndex",
          "type": "uint256"
        }
      ],
      "name": "getSumDividendWeightByTokenClass",
      "outputs": [
        {
          "internalType": "uint256",
          "name": "",
          "type": "uint256"
        }
      ],
      "stateMutability": "view",
      "type": "function"
    },
    {
      "inputs": [
        {
          "internalType": "uint256",
          "name": "tokenClassIndex",
          "type": "uint256"
        }
      ],
      "name": "getSumVotingWeightByTokenClass",
      "outputs": [
        {
          "internalType": "uint256",
          "name": "",
          "type": "uint256"
        }
      ],
      "stateMutability": "view",
      "type": "function"
    },
    {
      "inputs": [
        {
          "internalType": "uint256",
          "name": "tokenClassIndex",
          "type": "uint256"
        }
      ],
      "name": "getTokenInfo",
      "outputs": [
        {
          "internalType": "uint256",
          "name": "votingWeight",
          "type": "uint256"
        },
        {
          "internalType": "uint256",
          "name": "dividendWeight",
          "type": "uint256"
        },
        {
          "internalType": "string",
          "name": "tokenInfo",
          "type": "string"
        },
        {
          "internalType": "uint256",
          "name": "totalSupply",
          "type": "uint256"
        }
      ],
      "stateMutability": "view",
      "type": "function"
    },
    {
      "inputs": [
        {
          "internalType": "uint256",
          "name": "tokenClassIndex",
          "type": "uint256"
        },
        {
          "internalType": "address",
          "name": "tokenOwnerAddress",
          "type": "address"
        }
      ],
      "name": "getTokenOwnerBalance",
      "outputs": [
        {
          "internalType": "uint256",
          "name": "",
          "type": "uint256"
        }
      ],
      "stateMutability": "view",
      "type": "function"
    },
    {
      "inputs": [
        {
          "internalType": "uint256",
          "name": "tokenClassIndex",
          "type": "uint256"
        }
      ],
      "name": "getTokenOwners",
      "outputs": [
        {
          "internalType": "address[]",
          "name": "",
          "type": "address[]"
        }
      ],
      "stateMutability": "view",
      "type": "function"
    },
    {
      "inputs": [
        {
          "internalType": "uint256",
          "name": "idx",
          "type": "uint256"
        }
      ],
      "name": "getVotingItemsByIndex",
      "outputs": [
        {
          "components": [
            {
              "components": [
                {
                  "internalType": "address",
                  "name": "programOperatorAddress",
                  "type": "address"
                },
                {
                  "components": [
                    {
                      "internalType": "address",
                      "name": "operatorAddress",
                      "type": "address"
                    },
                    {
                      "internalType": "enum EnumOpcode",
                      "name": "opcode",
                      "type": "uint8"
                    },
                    {
                      "components": [
                        {
                          "internalType": "string[]",
                          "name": "STRING_ARRAY",
                          "type": "string[]"
                        },
                        {
                          "internalType": "bool[]",
                          "name": "BOOL_ARRAY",
                          "type": "bool[]"
                        },
                        {
                          "components": [
                            {
                              "internalType": "uint256[]",
                              "name": "votingTokenClassList",
                              "type": "uint256[]"
                            },
                            {
                              "internalType": "uint256",
                              "name": "approvalThresholdPercentage",
                              "type": "uint256"
                            },
                            {
                              "internalType": "uint256",
                              "name": "votingDurationInSeconds",
                              "type": "uint256"
                            },
                            {
                              "internalType": "uint256",
                              "name": "executionPendingDurationInSeconds",
                              "type": "uint256"
                            },
                            {
                              "internalType": "bool",
                              "name": "bIsEnabled",
                              "type": "bool"
                            },
                            {
                              "internalType": "string",
                              "name": "notes",
                              "type": "string"
                            },
                            {
                              "internalType": "bool",
                              "name": "bIsAbsoluteMajority",
                              "type": "bool"
                            }
                          ],
                          "internalType": "struct VotingRule[]",
                          "name": "VOTING_RULE_ARRAY",
                          "type": "tuple[]"
                        },
                        {
                          "components": [
                            {
                              "internalType": "enum EnumReturnType",
                              "name": "returnType",
                              "type": "uint8"
                            },
                            {
                              "internalType": "uint256",
                              "name": "level",
                              "type": "uint256"
                            },
                            {
                              "components": [
                                {
                                  "internalType": "uint256",
                                  "name": "id",
                                  "type": "uint256"
                                },
                                {
                                  "internalType": "enum EnumConditionNodeType",
                                  "name": "nodeType",
                                  "type": "uint8"
                                },
                                {
                                  "internalType": "enum EnumLogicalOperatorType",
                                  "name": "logicalOperator",
                                  "type": "uint8"
                                },
                                {
                                  "internalType": "uint256",
                                  "name": "conditionExpression",
                                  "type": "uint256"
                                },
                                {
                                  "internalType": "uint256[]",
                                  "name": "childList",
                                  "type": "uint256[]"
                                },
                                {
                                  "components": [
                                    {
                                      "internalType": "string[]",
                                      "name": "STRING_ARRAY",
                                      "type": "string[]"
                                    },
                                    {
                                      "internalType": "uint256[][]",
                                      "name": "UINT256_2DARRAY",
                                      "type": "uint256[][]"
                                    },
                                    {
                                      "internalType": "address[][]",
                                      "name": "ADDRESS_2DARRAY",
                                      "type": "address[][]"
                                    },
                                    {
                                      "internalType": "bytes",
                                      "name": "BYTES",
                                      "type": "bytes"
                                    }
                                  ],
                                  "internalType": "struct NodeParam",
                                  "name": "param",
                                  "type": "tuple"
                                }
                              ],
                              "internalType": "struct ConditionNode[]",
                              "name": "conditionNodes",
                              "type": "tuple[]"
                            },
                            {
                              "internalType": "uint256",
                              "name": "votingRuleIndex",
                              "type": "uint256"
                            },
                            {
                              "internalType": "string",
                              "name": "notes",
                              "type": "string"
                            },
                            {
                              "internalType": "bool",
                              "name": "bIsEnabled",
                              "type": "bool"
                            },
                            {
                              "internalType": "bool",
                              "name": "bIsInitialized",
                              "type": "bool"
                            },
                            {
                              "internalType": "bool",
                              "name": "bIsBeforeOperation",
                              "type": "bool"
                            }
                          ],
                          "internalType": "struct Plugin[]",
                          "name": "PLUGIN_ARRAY",
                          "type": "tuple[]"
                        },
                        {
                          "internalType": "enum MachineParameter[]",
                          "name": "PARAMETER_ARRAY",
                          "type": "uint8[]"
                        },
                        {
                          "internalType": "uint256[][]",
                          "name": "UINT256_2DARRAY",
                          "type": "uint256[][]"
                        },
                        {
                          "internalType": "address[][]",
                          "name": "ADDRESS_2DARRAY",
                          "type": "address[][]"
                        },
                        {
                          "internalType": "bytes",
                          "name": "BYTES",
                          "type": "bytes"
                        }
                      ],
                      "internalType": "struct Param",
                      "name": "param",
                      "type": "tuple"
                    }
                  ],
                  "internalType": "struct Operation[]",
                  "name": "operations",
                  "type": "tuple[]"
                },
                {
                  "internalType": "string",
                  "name": "notes",
                  "type": "string"
                }
              ],
              "internalType": "struct Program",
              "name": "program",
              "type": "tuple"
            },
            {
              "internalType": "uint256[]",
              "name": "votingRuleIndices",
              "type": "uint256[]"
            },
            {
              "internalType": "uint256[]",
              "name": "powerYes",
              "type": "uint256[]"
            },
            {
              "internalType": "uint256[]",
              "name": "powerNo",
              "type": "uint256[]"
            },
            {
              "internalType": "uint256[]",
              "name": "totalPower",
              "type": "uint256[]"
            },
            {
              "internalType": "uint256",
              "name": "votingEndTime",
              "type": "uint256"
            },
            {
              "internalType": "uint256",
              "name": "executingEndTime",
              "type": "uint256"
            },
            {
              "internalType": "enum VotingStatus",
              "name": "votingStatus",
              "type": "uint8"
            },
            {
              "internalType": "bool",
              "name": "bIsProgramExecuted",
              "type": "bool"
            }
          ],
          "internalType": "struct VotingItem",
          "name": "",
          "type": "tuple"
        }
      ],
      "stateMutability": "view",
      "type": "function"
    },
    {
      "inputs": [
        {
          "internalType": "address",
          "name": "member",
          "type": "address"
        }
      ],
      "name": "getWithdrawableCashBalance",
      "outputs": [
        {
          "internalType": "uint256",
          "name": "",
          "type": "uint256"
        }
      ],
      "stateMutability": "view",
      "type": "function"
    },
    {
      "inputs": [],
      "name": "getWithdrawableCashOwnerList",
      "outputs": [
        {
          "internalType": "address[]",
          "name": "",
          "type": "address[]"
        }
      ],
      "stateMutability": "view",
      "type": "function"
    },
    {
      "inputs": [
        {
          "internalType": "address",
          "name": "member",
          "type": "address"
        }
      ],
      "name": "getWithdrawableDividendBalance",
      "outputs": [
        {
          "internalType": "uint256",
          "name": "",
          "type": "uint256"
        }
      ],
      "stateMutability": "view",
      "type": "function"
    },
    {
      "inputs": [],
      "name": "getWithdrawableDividendOwnerList",
      "outputs": [
        {
          "internalType": "address[]",
          "name": "",
          "type": "address[]"
        }
      ],
      "stateMutability": "view",
      "type": "function"
    },
    {
      "inputs": [],
      "name": "initialOwnerAddress",
      "outputs": [
        {
          "internalType": "address",
          "name": "",
          "type": "address"
        }
      ],
      "stateMutability": "view",
      "type": "function"
    },
    {
      "inputs": [],
      "name": "initialize",
      "outputs": [],
      "stateMutability": "nonpayable",
      "type": "function"
    },
    {
      "inputs": [],
      "name": "latestVotingItemIndex",
      "outputs": [
        {
          "internalType": "uint256",
          "name": "",
          "type": "uint256"
        }
      ],
      "stateMutability": "view",
      "type": "function"
    },
    {
      "inputs": [],
      "name": "sandboxMachineState",
      "outputs": [
        {
          "components": [
            {
              "internalType": "uint256[100]",
              "name": "latestOperationTimestamp",
              "type": "uint256[100]"
            }
          ],
          "internalType": "struct OperationLog",
          "name": "globalOperationLog",
          "type": "tuple"
        },
        {
          "components": [
            {
              "internalType": "uint256",
              "name": "dividendPermyriadPerTransaction",
              "type": "uint256"
            },
            {
              "internalType": "uint256",
              "name": "dividendCycleOfTransactions",
              "type": "uint256"
            },
            {
              "internalType": "uint256",
              "name": "currentCashBalanceForDividends",
              "type": "uint256"
            },
            {
              "internalType": "uint256",
              "name": "dividendCycleCounter",
              "type": "uint256"
            },
            {
              "internalType": "address[]",
              "name": "emergencyAgentsAddressList",
              "type": "address[]"
            },
            {
              "internalType": "string[]",
              "name": "strStorageList",
              "type": "string[]"
            },
            {
              "internalType": "address[]",
              "name": "activeEmergencyAgentsAddressList",
              "type": "address[]"
            },
            {
              "internalType": "bool",
              "name": "bIsEmergency",
              "type": "bool"
            }
          ],
          "internalType": "struct MachineStateParameters",
          "name": "machineStateParameters",
          "type": "tuple"
        },
        {
          "internalType": "uint256",
          "name": "currentBalance",
          "type": "uint256"
        }
      ],
      "stateMutability": "view",
      "type": "function"
    },
    {
      "inputs": [
        {
          "internalType": "address",
          "name": "",
          "type": "address"
        },
        {
          "internalType": "uint256",
          "name": "",
          "type": "uint256"
        }
      ],
      "name": "voted",
      "outputs": [
        {
          "internalType": "bool",
          "name": "",
          "type": "bool"
        }
      ],
      "stateMutability": "view",
      "type": "function"
    },
    {
      "inputs": [],
      "name": "votingDeadline",
      "outputs": [
        {
          "internalType": "uint256",
          "name": "",
          "type": "uint256"
        }
      ],
      "stateMutability": "view",
      "type": "function"
    },
    {
      "inputs": [
        {
          "internalType": "uint256",
          "name": "",
          "type": "uint256"
        }
      ],
      "name": "votingItems",
      "outputs": [
        {
          "components": [
            {
              "internalType": "address",
              "name": "programOperatorAddress",
              "type": "address"
            },
            {
              "components": [
                {
                  "internalType": "address",
                  "name": "operatorAddress",
                  "type": "address"
                },
                {
                  "internalType": "enum EnumOpcode",
                  "name": "opcode",
                  "type": "uint8"
                },
                {
                  "components": [
                    {
                      "internalType": "string[]",
                      "name": "STRING_ARRAY",
                      "type": "string[]"
                    },
                    {
                      "internalType": "bool[]",
                      "name": "BOOL_ARRAY",
                      "type": "bool[]"
                    },
                    {
                      "components": [
                        {
                          "internalType": "uint256[]",
                          "name": "votingTokenClassList",
                          "type": "uint256[]"
                        },
                        {
                          "internalType": "uint256",
                          "name": "approvalThresholdPercentage",
                          "type": "uint256"
                        },
                        {
                          "internalType": "uint256",
                          "name": "votingDurationInSeconds",
                          "type": "uint256"
                        },
                        {
                          "internalType": "uint256",
                          "name": "executionPendingDurationInSeconds",
                          "type": "uint256"
                        },
                        {
                          "internalType": "bool",
                          "name": "bIsEnabled",
                          "type": "bool"
                        },
                        {
                          "internalType": "string",
                          "name": "notes",
                          "type": "string"
                        },
                        {
                          "internalType": "bool",
                          "name": "bIsAbsoluteMajority",
                          "type": "bool"
                        }
                      ],
                      "internalType": "struct VotingRule[]",
                      "name": "VOTING_RULE_ARRAY",
                      "type": "tuple[]"
                    },
                    {
                      "components": [
                        {
                          "internalType": "enum EnumReturnType",
                          "name": "returnType",
                          "type": "uint8"
                        },
                        {
                          "internalType": "uint256",
                          "name": "level",
                          "type": "uint256"
                        },
                        {
                          "components": [
                            {
                              "internalType": "uint256",
                              "name": "id",
                              "type": "uint256"
                            },
                            {
                              "internalType": "enum EnumConditionNodeType",
                              "name": "nodeType",
                              "type": "uint8"
                            },
                            {
                              "internalType": "enum EnumLogicalOperatorType",
                              "name": "logicalOperator",
                              "type": "uint8"
                            },
                            {
                              "internalType": "uint256",
                              "name": "conditionExpression",
                              "type": "uint256"
                            },
                            {
                              "internalType": "uint256[]",
                              "name": "childList",
                              "type": "uint256[]"
                            },
                            {
                              "components": [
                                {
                                  "internalType": "string[]",
                                  "name": "STRING_ARRAY",
                                  "type": "string[]"
                                },
                                {
                                  "internalType": "uint256[][]",
                                  "name": "UINT256_2DARRAY",
                                  "type": "uint256[][]"
                                },
                                {
                                  "internalType": "address[][]",
                                  "name": "ADDRESS_2DARRAY",
                                  "type": "address[][]"
                                },
                                {
                                  "internalType": "bytes",
                                  "name": "BYTES",
                                  "type": "bytes"
                                }
                              ],
                              "internalType": "struct NodeParam",
                              "name": "param",
                              "type": "tuple"
                            }
                          ],
                          "internalType": "struct ConditionNode[]",
                          "name": "conditionNodes",
                          "type": "tuple[]"
                        },
                        {
                          "internalType": "uint256",
                          "name": "votingRuleIndex",
                          "type": "uint256"
                        },
                        {
                          "internalType": "string",
                          "name": "notes",
                          "type": "string"
                        },
                        {
                          "internalType": "bool",
                          "name": "bIsEnabled",
                          "type": "bool"
                        },
                        {
                          "internalType": "bool",
                          "name": "bIsInitialized",
                          "type": "bool"
                        },
                        {
                          "internalType": "bool",
                          "name": "bIsBeforeOperation",
                          "type": "bool"
                        }
                      ],
                      "internalType": "struct Plugin[]",
                      "name": "PLUGIN_ARRAY",
                      "type": "tuple[]"
                    },
                    {
                      "internalType": "enum MachineParameter[]",
                      "name": "PARAMETER_ARRAY",
                      "type": "uint8[]"
                    },
                    {
                      "internalType": "uint256[][]",
                      "name": "UINT256_2DARRAY",
                      "type": "uint256[][]"
                    },
                    {
                      "internalType": "address[][]",
                      "name": "ADDRESS_2DARRAY",
                      "type": "address[][]"
                    },
                    {
                      "internalType": "bytes",
                      "name": "BYTES",
                      "type": "bytes"
                    }
                  ],
                  "internalType": "struct Param",
                  "name": "param",
                  "type": "tuple"
                }
              ],
              "internalType": "struct Operation[]",
              "name": "operations",
              "type": "tuple[]"
            },
            {
              "internalType": "string",
              "name": "notes",
              "type": "string"
            }
          ],
          "internalType": "struct Program",
          "name": "program",
          "type": "tuple"
        },
        {
          "internalType": "uint256",
          "name": "votingEndTime",
          "type": "uint256"
        },
        {
          "internalType": "uint256",
          "name": "executingEndTime",
          "type": "uint256"
        },
        {
          "internalType": "enum VotingStatus",
          "name": "votingStatus",
          "type": "uint8"
        },
        {
          "internalType": "bool",
          "name": "bIsProgramExecuted",
          "type": "bool"
        }
      ],
      "stateMutability": "view",
      "type": "function"
    },
    {
      "inputs": [
        {
          "internalType": "uint256",
          "name": "amount",
          "type": "uint256"
        }
      ],
      "name": "withdrawCash",
      "outputs": [],
      "stateMutability": "nonpayable",
      "type": "function"
    },
    {
      "inputs": [
        {
          "internalType": "uint256",
          "name": "amount",
          "type": "uint256"
        }
      ],
      "name": "withdrawDividends",
      "outputs": [],
      "stateMutability": "nonpayable",
      "type": "function"
    }
  ],
  "bytecode": "0x60808060405234620000195762031ebd90816200001f8239f35b600080fdfe6109c08060405260043610156200001557600080fd5b600090813560e01c908163036ee85014620028bc575080630fda3e1e146200282457806310ade3ea14620027f55780631797631d146200276e5780631c75255a146200270957806323b65c7814620026825780632514a6b4146200245c5780632eeb063b146200228c5780633fb18aec146200222257806356424cf414620022035780635c00d98714620021e05780635d0b184914620002055780635f1231ea14620020f65780635f5d5f00146200206f578063681ece9d146200202b5780636c0d4fa41462001e985780637daa10ce1462001e7b5780638129fc1c1462001aac57806383e4cccf1462001843578063864f9f7a146200180557806386ad77e214620014a45780638c7a63ae1462001414578063942d59fa14620012315780639f36145f14620011ab578063a064c4f11462001180578063acf80bc41462001142578063aec266871462001058578063aefca42a1462001037578063c41f94821462000fef578063c591aa981462000fa1578063d5a172f21462000f75578063d6a93c511462000f24578063de0bc5721462000226578063f179f23b14620002055763f8ce8bdc14620001c757600080fd5b346200020257806003193601126200020257620001e36200521b565b50610c80620001f162002ad7565b6200020060405180926200290c565bf35b80fd5b50346200020257806003193601126200020257602061073854604051908152f35b5060031960203682011262000df7576001600160401b036004351162000df757606090600435360301126200020257604051620002638162002a26565b62000273600435600401620028f7565b8152600435602401356101608190526001600160401b03811162000dff57600435013660238201121562000dff576004620002b5910135806101805262002b80565b90620002c5604051928362002ab3565b6101805182526020820161012052610180516101605160043501906024369160051b8301011162000c125760240160a052825b6101805160051b6101605160043501602460a0519282010182101562000e0357813560808190526001600160401b031062000dff57606091350136036023190112620002025762000350604051806101005262002a26565b62000369602460805161016051600435010101620028f7565b610100515260446080516101605160043501010135602681101562000df7576020610100510152608051610160516004350101606481013560c05260018060401b0360648201351162000df7576101006064820135909101360360231901126200020257620003df604051806101a052620029ec565b60c051608051610160516004350101016001600160401b0360248201351162000df75762000417906024369181810135010162004858565b6101a0515260c0516080516101605160043501010160448101359060018060401b03821162000dff5736604383830101121562000dff570160240135916200045f8362002b80565b906200046f604051928362002ab3565b838252602082019060c051608051610160516004350101013660448760051b81840135840101011162000c1657806044809201350101915b604460c051608051610160516004350101018760051b9082810135010101831015620004e85760208091620004dc85620048e3565b815201920191620004a7565b506101a051602001929092525060c051608051610160519395600435909401010192506001600160401b0360648401351162000c12573660436064850135850101121562000c1257602460648401358401013590620005478262002b80565b9062000557604051928362002ab3565b82825260208201606486013560c05160805161016051600435010101013660448660051b8301011162000dfb57604401905b606487013560c051608051610160516004350101010160448660051b820101831015620006a9576001600160401b03833511620006a55760e08335820136036043190112620006a55760405191620005e18362002a42565b6001600160401b03843583016044013511620006a1576200060e36604486358501818101350101620048f1565b835283358201606481013560208501526084810135604085015260a48101356060850152620006409060c401620048e3565b60808401526001600160401b038435830160e4013511620006a157602092839262000690906101049062000681368935830160e48101350160440162002e8f565b60a085015287350101620048e3565b60c082015281520191019062000589565b8980fd5b8880fd5b505050929350905060406101a051015260c051608051610160516004350101019260018060401b03608485013511620002025736604360848601358601011215620002025760246084850135850101359362000716620007098662002b80565b6040518060e05262002ab3565b8460e05152602060e0510192608482013560c05160805161016051600435010101013660448860051b8301011162000c12576044016101405293925b608482013560c0516080516101605160043501010101610140519060448860051b82010182101562000c1a576001600160401b0382351162000c165761010082359091013603604319011262000c125760405190620007b182620029ec565b60448135608486013560c0516080516101605160043501010101010135600681101562000c0e57825260648135608486013560c051608051610160516004350101010101013560208301528035608485013560c0516080516101605160043501010101019560018060401b0360848801351162000c0e573660636084890135890101121562000c0e576200084f604460848901358901013562002b80565b976200085f604051998a62002ab3565b60446084890135890101358952602089019060848901358435608489013560c05160805161016051600435010101010101366064604460848d01358d01013560051b83010111620006a557606401915b60848a0135853560848a013560c051608051610160516004350101010101016064604460848d01358d01013560051b82010184101562000afd576001600160401b03843511620006a15760c08435820136036063190112620006a157604051906200091a82620029d0565b84358101606481013583526005608490910135101562000af9578435810160848101356020840152600460a490910135101562000af9578435810160a4810135604084015260c481013560608401526001600160401b0360e4909101351162000af95762000995368635830160e481013501606401620048f1565b60808301526001600160401b038535820161010401351162000af957608085358201610104810135013603606319011262000af95760405190620009d9826200299e565b6001600160401b038635820161010481013501606401351162000af55762000a1536606461010489358501908101350181810135010162004858565b82526001600160401b038635820161010481013501608401351162000af55762000a5336873583016101048101350160848101350160640162004957565b60208301526001600160401b03863582016101048101350160a401351162000af55762000a9436873583016101048101350160a481013501606401620049e2565b60408301526001600160401b03863582016101048101350160c401351162000af55760209384939092909162000adf9036908935016101048101350160c48101350160640162002e8f565b606082015260a0820152815201920191620008af565b8b80fd5b8a80fd5b505097505096604083015260a48135608486013560c051608051610160516004350101010101013560608301528035608485013560c05160805161016051600435010101010160018060401b0360c48201351162000c0e57610124602094939262000b7762000bf2936044369160c4810135010162002e8f565b608085015262000ba260e4823560848a013560c05160805161016051600435010101010101620048e3565b60a085015262000bce610104823560848a013560c05160805161016051600435010101010101620048e3565b60c085015235608487013560c05160805161016051600435010101010101620048e3565b60e0820152815201926020610140510161014052939262000752565b8580fd5b8380fd5b8480fd5b505050509091925060e05160606101a051015260c051608051610160516004350101019160018060401b0360a48401351162000df75736604360a4850135850101121562000df757602460a4840135840101359262000c798462002b80565b9162000c89604051938462002ab3565b848352602083019060a483013560c05160805161016051600435010101013660448860051b8301011162000c0e57604401915b60448760051b60a486013560c0516080516101605160043501010101010183101562000cfe5760058335101562000c0e57823581526020928301920162000cbc565b509450505092909260806101a051015260c0516080516101605160043501010160c48101359060018060401b03821162000c1657602462000d43923692010162004957565b60a06101a051015260c0516080516101605160043501010160e48101359060018060401b03821162000c1657602462000d809236920101620049e2565b60c06101a051015260c051608051610160516004350101016101048101359060018060401b03821162000c1657602462000dbe923692010162002e8f565b60e06101a05101526101a05160406101005101526101005161012051526020610120510161012052602060a0510160a0529091620002f8565b5080fd5b8780fd5b8280fd5b60208401858152849084600435604401356001600160401b03811162000df75762000e3690600436918135010162002e8f565b604084015282516001600160a01b03919062000e8f90831662000e8662000e6762000e613362031960565b62004adb565b62000e7f62000e79878a511662031960565b62004b41565b9062004b98565b90331462004bdf565b8251805182101562000efc579062000ef062000ef6928462000eb384339362004c79565b5151161462000ee962000eca62000e613362031960565b62000e7f62000e798862000ee0888c5162004c79565b51511662031960565b9062004bdf565b62004c12565b62000e8f565b62000f2062000f0b86620067c5565b60405191829160208352602083019062002d45565b0390f35b503462000202578060031936011262000202575b6064811062000f4d575b602090604051908152f35b60ff60078260031b0154161562000f6f5762000f699062004c12565b62000f38565b62000f42565b50346200020257806003193601126200020257610730546040516001600160a01b039091168152602090f35b503462000202576040366003190112620002025760209060ff906040906001600160a01b0362000fd0620028db565b1681526107378452818120602435825284522054166040519015158152f35b503462000202576020366003190112620002025760c0620010126004356200628d565b93604093919351958652602086015260408501526060840152608083015260a0820152f35b50346200020257806003193601126200020257602061073254604051908152f35b50346200020257806003193601126200020257610735908154916200107d8362002b80565b916200108d604051938462002ab3565b8383526020938484018093835285832083915b8383106200110a5750505050604051928484019085855251809152604084019460408260051b8601019392955b828710620010db5785850386f35b909192938280620010f9600193603f198a8203018652885162002d45565b9601920196019592919092620010cd565b600188819260409a99979a516200112f8162001127818962002bd5565b038262002ab3565b81520192019201919096939596620010a0565b50346200020257602036600319011262000202576020906040906001600160a01b036200116e620028db565b16815261032783522054604051908152f35b50346200020257602036600319011262000202576020620011a3600435620060e5565b604051908152f35b503462000202576020366003190112620002025760406200120691600435815261073660205220620011dd8162003634565b9060ff600782015491600960088201549101549060405195869560a0875260a087019062003199565b9360208601526040850152620012226060850183831662003434565b60081c16151560808301520390f35b5034620002025760208060031936011262000df757604051620012548162002a09565b60405192620012638462002a26565b80845260609384848201528460408201528252838383015283604083015283808301528360808301528060a08301528060c08301528060e0830152806101008093015260043581526107368352604090209160405192620012c48462002a09565b620012cf8162003634565b8452620012df6003820162003442565b84830190815292620012f46004830162003442565b60408601908152956200130a6005840162003442565b868201908152926200131f6006820162003442565b956080880196875260078201549660a0890197885260088301549260c08a01938452600901549560e08a019460ff88166200135b90876200520e565b868b019760081c60ff16151588526040519b8c9b8a8d52518c6101209b8c9101526101408d016200138c9162003199565b9451601f198d8703810160408f015295620013a79162002ee7565b905191858d830301908d0152620013be9162002ee7565b905190838b82030160808c0152620013d69162002ee7565b9051918982030160a08a0152620013ed9162002ee7565b955160c08801525160e087015251908501620014099162003434565b511515908301520390f35b503462000202576020366003190112620002025760043590606482101562001490575060031b60018101546002820154916200148660056200146760068401549362001127604051809481930162002bd5565b6040519485948552602085015260806040850152608084019062002d45565b9060608301520390f35b634e487b7160e01b81526032600452602490fd5b503462000202578060031936011262000202576103228054620014c78162002b80565b91620014d7604051938462002ab3565b81835283526020808420849184015b838310620016b1578585610323805490620015018262002b80565b9362001511604051958662002ab3565b82855260208501918152602081209080925b84841062001559576200154a8662000f208960405193849360408552604085019062002fcf565b90838203602085015262002fcf565b6040516200156781620029ec565b6200157760ff855416826200350b565b600184015460208201526002840154620015918162002b80565b90620015a1604051928362002ab3565b80825260208201600287018652602086209086905b8382106200162e5750505050600192826020926040600695015260038701546060820152604051620015f181620011278160048c0162002bd5565b608082015260ff6005880154818116151560a0840152818160081c16151560c084015260101c16151560e082015281520193019301929162001523565b600860206001926040516200164381620029d0565b8654815260ff858801548181166200165b8162002edc565b85840152851c166200166d8162002937565b6040820152600287015460608201526200168a6003880162003442565b60808201526200169d60048801620035d2565b60a0820152815201930191019091620015b6565b604051620016bf81620029ec565b620016cf60ff845416826200350b565b60018301546020820152600283018054620016ea8162002b80565b91620016fa604051938462002ab3565b81835289526020808a20908a9084015b8382106200178257505050506001928260209260406006950152600386015460608201526040516200174581620011278160048b0162002bd5565b608082015260ff6005870154818116151560a0840152818160081c16151560c084015260101c16151560e0820152815201920192019190620014e6565b600860206001926040516200179781620029d0565b8654815260ff85880154818116620017af8162002edc565b85840152851c16620017c18162002937565b604082015260028701546060820152620017de6003880162003442565b6080820152620017f160048801620035d2565b60a08201528152019301910190916200170a565b50346200020257602036600319011262000202576020906040906001600160a01b0362001831620028db565b16815261032583522054604051908152f35b5034620002025760208060031936011262000df7578160043591620018864784111562000ee9620018748662005028565b6200187f4762005028565b9062004cc1565b338252620018f1610325808352620018ca604085205486111562000ee9620018ae8862005028565b338852848752620018c3604089205462005028565b9062004d2d565b338452808352620018e085604086205462004fed565b929062000ee9620018ae8862005028565b33845282528060408420551562001933575b508080809381811562001929575b3390f1156200191d5780f35b604051903d90823e3d90fd5b506108fc62001911565b9050610326805491620019468362004d95565b918593865b81811062001a39575050620019608462004d95565b805192906001600160401b03841162001a25579080849392620019868a98979662004f2a565b0191865280862090865b84811062001a06575050505050825b828110620019af57505062001903565b91925090620019fc9062000ef06001600160a01b03620019d0838662004c79565b5116620019dd8362004de9565b90919082549060031b9160018060a01b03809116831b921b1916179055565b908492916200199f565b83516001600160a01b0316818401558997509281019260010162001990565b634e487b7160e01b88526041600452602488fd5b62001a448162004de9565b90546001600160a01b03916003913391831b1c83160362001a73575b505062001a6d9062004c12565b6200194b565b9662001aa391839862001a8a62001a6d9562004de9565b9054911b1c1662001a9c828962004c79565b5262004c12565b95903862001a60565b5034620002025780600319360112620002025761073080546001600160a01b03191633179055610733805460ff19166001908117909155604051909190819062001af68162002a5e565b52906103228054600082558062001e12575b508252818060405162001b1b8162002a5e565b5262001dfe576103238054600082558062001d7f575b5082526127106107345562001d7162001b4962005b54565b836040519162001b598362002a5e565b81835262001c616040519162001b6f8362002a5e565b8383526040519462001b818662002a5e565b8486526040519362001b938562002a5e565b8585526040519462001ba58662002a5e565b8686526040519162001bb7836200299e565b8252602097888301526040820152606094858201526040519162001bdb83620029d0565b8683526003888401528660408401528686840152608083015260a082015262001c048262004c22565b5262001c108162004c22565b506040519062001c2082620029ec565b6004825287868301526040820152838382015260405162001c418162002a5e565b84815260808201528660a08201528660c08201528660e082015262005c60565b62001c6b62005b54565b60405162001c798162002a5e565b83815260405162001c8a8162002a5e565b84815260405162001c9b8162002a5e565b85815260405162001cac8162002a5e565b8681526040519162001cbe8362002a5e565b8783526040519362001cd0856200299e565b8452888401526040830152848201526040519162001cee83620029d0565b8583526003878401528560408401528585840152608083015260a082015262001d178262004c22565b5262001d238162004c22565b50856040519462001d3486620029ec565b60058652850152604084015282015260405162001d518162002a5e565b84815260808201528260a08201528260c08201528360e082015262005cac565b61138861038f556103905580f35b92506006838102938185040362001de85760009382855260208520908101905b81811062001daf57505062001b31565b8086849255868682015562001dc7600282016200543e565b86600382015562001ddb60048201620052d3565b8660058201550162001d9f565b634e487b7160e01b600052601160045260246000fd5b634e487b7160e01b82526041600452602482fd5b92506006838102938185040362001de85760009382855260208520908101905b81811062001e4257505062001b08565b8086849255868682015562001e5a600282016200543e565b86600382015562001e6e60048201620052d3565b8660058201550162001e32565b503462000202578060031936011262000202576020604051338152f35b5034620002025780600319360112620002025762001eb562002ad7565b6040519162001ec483620029ec565b61038f5483526103905490602091828501526103915460408501526103925460608501526040518061039390848254918281520191845284842090845b8181106200200d575050508162001f1a91038262002ab3565b6080850152610394805462001f2f8162002b80565b9162001f3f604051938462002ab3565b818352835283832083908584015b83831062001fdf575050505060a08501526040518092839161039591808354928381520192855280852094905b82821062001fbb5750505062001f939250038262002ab3565b60c083015260ff6103965416151560e083015262000f20610397546040519384938462002dc5565b85546001600160a01b03168452600195860195879550938101939091019062001f7a565b600187819260409998995162001ffb8162001127818962002bd5565b81520192019201919095949562001f4d565b82546001600160a01b03168452928601926001928301920162001f01565b5034620002025760203660031901126200020257600435906064821015620014905762000f206200206260048460031b0162002b22565b6040519182918262002958565b5034620002025780600319360112620002025760405161032180548083529083526020808301937f375af38c615bc3b651d74d7d59974b82de2cfc350734166de4356711f3dca12992915b828210620020d55762000f2085620020628189038262002ab3565b83546001600160a01b031686529485019460019384019390910190620020ba565b5034620002025760209081600319360112620002025760409062002119620028db565b816060845162002129816200299e565b82815286810183905285810182905201526001600160a01b03168152610320835220604051906200215a826200299e565b620021d581549160ff83161515845260ff8585019360081c1615158352600260405191620021998362002191816001850162002bd5565b038462002ab3565b6040860192835201549260608501938452604051958695818752511515908601525115156040850152516080606085015260a084019062002d45565b905160808301520390f35b50346200020257602036600319011262000202576020620011a360043562005d82565b503462000202578060031936011262000202576020620011a36200618c565b50346200020257604036600319011262000202576001600160401b0360043581811162000dff576200225990369060040162002e8f565b916024359182116200020257602062002282846200227b366004870162002e8f565b9062006589565b6040519015158152f35b50346200020257806003193601126200020257604051620022ad8162002a5e565b6040516106c383825b606482106200244557505050620022cd8162002a7a565b815260405191620022de83620029ec565b61072754835261072854906020918285015261072954604085015261072a5460608501526040518061072b90848254918281520191845284842090845b8181106200242757505050816200233491038262002ab3565b608085015261072c8054620023498162002b80565b9162002359604051938462002ab3565b818352835283832083908584015b838310620023f9575050505060a08501526040518092839161072d91808354928381520192855280852094905b828210620023d557505050620023ad9250038262002ab3565b60c083015260ff61072e5416151560e083015262000f2061072f546040519384938462002dc5565b85546001600160a01b03168452600195860195879550938101939091019062002394565b6001878192604099989951620024158162001127818962002bd5565b81520192019201919095949562002367565b82546001600160a01b0316845292860192600192830192016200231b565b6001602081928554815201930191019091620022b6565b5034620002025760208060031936011262000df7576004356200248b4782111562000ee9620018748462005028565b3383528280808061032794858752620024d0604083205482111562000ee9620024b48462005028565b338652898b52620024c9604087205462005028565b90620051a2565b33825285875262002510620024ea82604085205462004fed565b919062000ee9620024fb8562005028565b3387528a8c52620024c9604088205462005028565b338352868852604083205581811562002678575b3390f1156200266d57338352815260408220541562002541575080f35b610328805491620025528362004d95565b918493855b818110620026135750506200256c8462004d95565b805192906001600160401b038411620025ff5781906200258c8562004eef565b0191865280862090865b848110620025e3575050505050825b828110620025b35750505080f35b620025dd9062000ef06001600160a01b03620025d0838662004c79565b5116620019dd8362004dcd565b620025a5565b83516001600160a01b0316838201559281019260010162002596565b634e487b7160e01b87526041600452602487fd5b6200261e8162004dcd565b90546001600160a01b03916003913391831b1c8316036200264d575b5050620026479062004c12565b62002557565b966200266491839862001a8a620026479562004dcd565b9590386200263a565b6040513d84823e3d90fd5b506108fc62002524565b5034620002025780600319360112620002025760405161032680548083529083526020808301937f953a1f58387b28901d66ca469c0f2f10840990fe6eba2d456bb60fb027f000d992915b828210620026e85762000f2085620020628189038262002ab3565b83546001600160a01b031686529485019460019384019390910190620026cd565b50346200020257604036600319011262000202576004356024356001600160a01b0381169081900362000dff5760648210156200275a579160036040926020948352811b0183522054604051908152f35b634e487b7160e01b83526032600452602483fd5b5034620002025780600319360112620002025760405161032880548083529083526020808301937fe1b7123756d5187477d16898f0ed5b46851d48ab984ff1401c7617fb3825ab6e92915b828210620027d45762000f2085620020628189038262002ab3565b83546001600160a01b031686529485019460019384019390910190620027b9565b50346200020257806003193601126200020257602060ff610733541660405190620028208162002937565b8152f35b5034620002025760209081600319360112620002025762002844620028db565b6200284e6200521b565b506001600160a01b031681526103298252604080822090519190620028738362002a5e565b60405193849192915b60648310620028a657610c808587620028958162002a7a565b81526200020060405180926200290c565b600182819286548152019401920191926200287c565b90503462000df7578160031936011262000df757602090610731548152f35b600435906001600160a01b0382168203620028f257565b600080fd5b35906001600160a01b0382168203620028f257565b516000915b606483106200291f57505050565b60019082518152602080910192019201919062002911565b600411156200294257565b634e487b7160e01b600052602160045260246000fd5b6020908160408183019282815285518094520193019160005b82811062002980575050505090565b83516001600160a01b03168552938101939281019260010162002971565b608081019081106001600160401b03821117620029ba57604052565b634e487b7160e01b600052604160045260246000fd5b60c081019081106001600160401b03821117620029ba57604052565b61010081019081106001600160401b03821117620029ba57604052565b61012081019081106001600160401b03821117620029ba57604052565b606081019081106001600160401b03821117620029ba57604052565b60e081019081106001600160401b03821117620029ba57604052565b602081019081106001600160401b03821117620029ba57604052565b610c8081019081106001600160401b03821117620029ba57604052565b604081019081106001600160401b03821117620029ba57604052565b601f909101601f19168101906001600160401b03821190821017620029ba57604052565b6040519062002ae68262002a5e565b6040518261032b6000835b6064821062002b0b5750505062002b088262002a7a565b52565b600160208192855481520193019101909162002af1565b9060405191828154918282526020928383019160005283600020936000905b82821062002b5c5750505062002b5a9250038362002ab3565b565b85546001600160a01b03168452600195860195889550938101939091019062002b41565b6001600160401b038111620029ba5760051b60200190565b90600182811c9216801562002bca575b602083101462002bb457565b634e487b7160e01b600052602260045260246000fd5b91607f169162002ba8565b906000929180549162002be88362002b98565b91828252600193848116908160001462002c4f575060011462002c0c575b50505050565b90919394506000526020928360002092846000945b83861062002c3a57505050500101903880808062002c06565b80548587018301529401938590820162002c21565b9294505050602093945060ff191683830152151560051b0101903880808062002c06565b90815462002c818162002b80565b9260409362002c938551918262002ab3565b828152809460208092019260005281600020906000935b85851062002cba57505050505050565b6001848192845162002cd28162001127818a62002bd5565b81520193019401939162002caa565b90815180825260208080930193019160005b82811062002d02575050505090565b83516001600160a01b03168552938101939281019260010162002cf3565b60005b83811062002d345750506000910152565b818101518382015260200162002d23565b9060209162002d608151809281855285808601910162002d20565b601f01601f1916010190565b90815180825260208092019182818360051b85019501936000915b84831062002d985750505050505090565b909192939495848062002db483856001950387528a5162002d45565b980193019301919493929062002d87565b93929162002dd785610ca0936200290c565b610cc080610c808701528151908601526020810151610ce08601526040810151610d008601526060810151610d2086015260e062002e6362002e2c6080840151610100610d408a0152610dc089019062002ce1565b62002e4c60a085015191610cbf1992838b830301610d608c015262002d6c565b9060c08501519089830301610d808a015262002ce1565b9101511515610da0860152930152565b6001600160401b038111620029ba57601f01601f191660200190565b81601f82011215620028f25780359062002ea98262002e73565b9262002eb9604051948562002ab3565b82845260208383010111620028f257816000926020809301838601378301015290565b600511156200294257565b90815180825260208080930193019160005b82811062002f08575050505090565b83518552938101939281019260010162002ef9565b90815180825260208092019182818360051b82019501936000915b84831062002f495750505050505090565b909192939495848062002f6583856001950387528a5162002ee7565b980193019301919493929062002f38565b90815180825260208092019182818360051b82019501936000915b84831062002fa25750505050505090565b909192939495848062002fbe83856001950387528a5162002ce1565b980193019301919493929062002f91565b90815180825260208092019081926005928183851b82019601946000915b84831062002fff575050505050505090565b9091929394959681810383528751906101008082018351906006821015620029425783929189945283850151848401528a60409182870151938386015283518091528561012082818801941b87010194019260005b828110620030bf5750505050509282916200308960019560608085015190840152608080850151908483039085015262002d45565b9160a08082015115159083015260c08082015115159083015260e080910151151591015299019301930191959493929062002fed565b919395968062003185600193959761011f198b82030189528951908151815283820151620030ed8162002edc565b8482015287820151620031008162002937565b888201526060908183015182820152816200317562003164620031536080620031368189015160c080848a015288019062002ee7565b9560a0809901519881880391015287519080875286019062002d6c565b888701518582038a87015262002f1d565b8b8601518482038d86015262002f76565b9301519181840391015262002d45565b970195019101918b96959493919262003054565b90606081019160018060a01b03815116825260208101519260606020840152835180915260808301602060808360051b86010195019160005b818110620031fb5750505050906040620031f89392015190604081840391015262002d45565b90565b858703607f19018352835180516001600160a01b03168852602081015194979394929391929060268210156200294257604091602084015201519060606040820152620032578251610100606084015261016083019062002d6c565b602083810151838303605f190160808501528051808452928201929101906000905b80821062003419575050506040830151605f198383030160a0840152805180835260208301906020808260051b86010193019360005b8281106200339457505050506060840151838203605f190160c0850152620032d8925062002fcf565b608083015190605f198382030160e0840152602080835192838152019201906000905b8082106200337057505050620033638360209360e06200334c62003334879660a060019a0151605f198683030161010087015262002f1d565b60c0850151848203605f190161012086015262002f76565b92015190610140605f198285030191015262002d45565b98019401929101620031d2565b9091926020806001928651620033868162002edc565b8152019401920190620032fb565b90919293602080600192601f19868203018852885190620033fd620033c2835160e080855284019062002ee7565b8484015185840152604084015160408401526060840151606084015260808401511515608084015260a084015183820360a085015262002d45565b60c09283015115159190920152970196950193929101620032af565b90919260208060019286511515815201940192019062003279565b906003821015620029425752565b9060405191828154918282526020928383019160005283600020936000905b8282106200347a5750505062002b5a9250038362002ab3565b85548452600195860195889550938101939091019062003461565b90604051620034a48162002a42565b60c060ff60068395620034b78162003442565b85526001810154602086015260028101546040860152600381015460608601528260048201541615156080860152604051620034fc8162001127816005860162002bd5565b60a08601520154161515910152565b6006821015620029425752565b908154620035268162002b80565b9262003536604051948562002ab3565b818452600090815260208082208186015b84841062003556575050505050565b6001838192620035668562003442565b81520192019301929062003547565b908154620035838162002b80565b9262003593604051948562002ab3565b818452600090815260208082208186015b848410620035b3575050505050565b6001838192620035c38562002b22565b815201920193019290620035a4565b9060036060604051620035e5816200299e565b620036308195620035f68162002c73565b8352620036066001820162003518565b6020840152620036196002820162003575565b604084015262002191604051809681930162002bd5565b0152565b90604051620036438162002a26565b82546001600160a01b03168152600183018054919384929091620036678262002b80565b9162003677604051938462002ab3565b80835260208301916000526020600020916000905b828210620036b9575050505091620036306040926002946020840152620021918451809681930162002bd5565b604051620036c78162002a26565b84546001600160a01b038116825260a01c60ff16602681101562002942576020820152604051620036f881620029ec565b620037066001870162002c73565b815260028601604051808260208294549384815201906000526020600020926000905b80601f8301106200468657620038629454918181106200466f575b81811062004655575b8181106200463b575b81811062004621575b81811062004608575b818110620045ee575b818110620045d4575b818110620045ba575b818110620045a0575b81811062004586575b8181106200456c575b81811062004552575b81811062004538575b8181106200451e575b81811062004504575b818110620044ea575b818110620044d0575b818110620044b6575b8181106200449c575b81811062004482575b81811062004468575b8181106200444e575b81811062004434575b8181106200441a575b81811062004400575b818110620043e6575b818110620043cc575b818110620043b2575b81811062004398575b8181106200437e575b81811062004364575b1062004353575b50038262002ab3565b6020820152600386018054620038788162002b80565b9162003888604051938462002ab3565b81835260208301906000526020600020906000905b8382106200433257505050506040820152600486018054620038bf8162002b80565b91620038cf604051938462002ab3565b81835260208301906000526020600020906000905b838210620041d557505050506060820152600586016040519081602082549182815201916000526020600020906000915b81601f84011062003ecc5784600997946020979460019a979462003a5b94549181811062003eae575b81811062003e8d575b81811062003e6c575b81811062003e4b575b81811062003e2b575b81811062003e0a575b81811062003de9575b81811062003dc8575b81811062003da7575b81811062003d86575b81811062003d65575b81811062003d44575b81811062003d23575b81811062003d02575b81811062003ce1575b81811062003cc0575b81811062003c9f575b81811062003c7e575b81811062003c5d575b81811062003c3c575b81811062003c1b575b81811062003bfa575b81811062003bd9575b81811062003bb8575b81811062003b97575b81811062003b76575b81811062003b55575b81811062003b34575b81811062003b13575b81811062003af2575b81811062003ad1575b1062003ab65750038262002ab3565b608082015262003a6e60068a0162003518565b60a082015262003a8160078a0162003575565b60c082015260405162003a9d81620011278160088e0162002bd5565b60e082015260408201528152019401910190926200368c565b90889160f81c62003ac78162002edc565b8152013862003859565b928a8d9160ff8560f01c1662003ae78162002edc565b815201930162003a4c565b928a8d9160ff8560e81c1662003b088162002edc565b815201930162003a43565b928a8d9160ff8560e01c1662003b298162002edc565b815201930162003a3a565b928a8d9160ff8560d81c1662003b4a8162002edc565b815201930162003a31565b928a8d9160ff8560d01c1662003b6b8162002edc565b815201930162003a28565b928a8d9160ff8560c81c1662003b8c8162002edc565b815201930162003a1f565b928a8d9160ff8560c01c1662003bad8162002edc565b815201930162003a16565b928a8d9160ff8560b81c1662003bce8162002edc565b815201930162003a0d565b928a8d9160ff8560b01c1662003bef8162002edc565b815201930162003a04565b928a8d9160ff8560a81c1662003c108162002edc565b8152019301620039fb565b928a8d9160ff8560a01c1662003c318162002edc565b8152019301620039f2565b928a8d9160ff8560981c1662003c528162002edc565b8152019301620039e9565b928a8d9160ff8560901c1662003c738162002edc565b8152019301620039e0565b928a8d9160ff8560881c1662003c948162002edc565b8152019301620039d7565b928a8d9160ff8560801c1662003cb58162002edc565b8152019301620039ce565b928a8d9160ff8560781c1662003cd68162002edc565b8152019301620039c5565b928a8d9160ff8560701c1662003cf78162002edc565b8152019301620039bc565b928a8d9160ff8560681c1662003d188162002edc565b8152019301620039b3565b928a8d9160ff8560601c1662003d398162002edc565b8152019301620039aa565b928a8d9160ff8560581c1662003d5a8162002edc565b8152019301620039a1565b928a8d9160ff8560501c1662003d7b8162002edc565b815201930162003998565b928a8d9160ff8560481c1662003d9c8162002edc565b81520193016200398f565b928a8d9160ff8560401c1662003dbd8162002edc565b815201930162003986565b928a8d9160ff8560381c1662003dde8162002edc565b81520193016200397d565b928a8d9160ff8560301c1662003dff8162002edc565b815201930162003974565b928a8d9160ff8560281c1662003e208162002edc565b81520193016200396b565b928a8d9160ff85831c1662003e408162002edc565b815201930162003962565b928a8d9160ff8560181c1662003e618162002edc565b815201930162003959565b928a8d9160ff8560101c1662003e828162002edc565b815201930162003950565b928a8d9160ff8560081c1662003ea38162002edc565b815201930162003947565b928a8d9160ff851662003ec18162002edc565b81520193016200393e565b926001610400602092865460ff811662003ee68162002edc565b825260ff8160081c1662003efa8162002edc565b8583015260ff8160101c1662003f108162002edc565b604083015260ff8160181c1662003f278162002edc565b606083015260ff81861c1662003f3d8162002edc565b608083015260ff8160281c1662003f548162002edc565b60a083015260ff8160301c1662003f6b8162002edc565b60c083015262003f8160ff8260381c1662002edc565b60ff8160381c1660e083015260ff8160401c1662003f9f8162002edc565b61010083015260ff8160481c1662003fb78162002edc565b61012083015260ff8160501c1662003fcf8162002edc565b61014083015260ff8160581c1662003fe78162002edc565b61016083015260ff8160601c1662003fff8162002edc565b61018083015260ff8160681c16620040178162002edc565b6101a083015260ff8160701c166200402f8162002edc565b6101c083015260ff8160781c16620040478162002edc565b6101e083015260ff8160801c166200405f8162002edc565b61020083015260ff8160881c16620040778162002edc565b61022083015260ff8160901c166200408f8162002edc565b61024083015260ff8160981c16620040a78162002edc565b61026083015260ff8160a01c16620040bf8162002edc565b61028083015260ff8160a81c16620040d78162002edc565b6102a083015260ff8160b01c16620040ef8162002edc565b6102c083015260ff8160b81c16620041078162002edc565b6102e083015260ff8160c01c166200411f8162002edc565b61030083015260ff8160c81c16620041378162002edc565b61032083015260ff8160d01c166200414f8162002edc565b61034083015260ff8160d81c16620041678162002edc565b61036083015260ff8160e01c166200417f8162002edc565b61038083015260ff8160e81c16620041978162002edc565b6103a083015260ff8160f01c16620041af8162002edc565b6103c083015260f81c620041c38162002edc565b6103e082015201940192019162003915565b604051620041e381620029ec565b620041f360ff855416826200350b565b600184015460208201526002840180546200420e8162002b80565b916200421e604051938462002ab3565b81835260208301906000526020600020906000905b838210620042ab57505050506001928260209260406006950152600387015460608201526040516200426e81620011278160048c0162002bd5565b608082015260ff6005880154818116151560a0840152818160081c16151560c084015260101c16151560e0820152815201930191019091620038e4565b600190602060405191620042bf83620029d0565b85548352838601549260ff8416620042d78162002edc565b8382015260ff600894851c16620042ee8162002937565b6040820152600287015460608201526200430b6003880162003442565b60808201526200431e60048801620035d2565b60a082015281520193019101909162004233565b60076020600192620043448662003495565b8152019301910190916200389d565b60f81c151581526020013862003859565b92602060019160ff8560f01c161515815201930162003852565b92602060019160ff8560e81c161515815201930162003849565b92602060019160ff8560e01c161515815201930162003840565b92602060019160ff8560d81c161515815201930162003837565b92602060019160ff8560d01c16151581520193016200382e565b92602060019160ff8560c81c161515815201930162003825565b92602060019160ff8560c01c16151581520193016200381c565b92602060019160ff8560b81c161515815201930162003813565b92602060019160ff8560b01c16151581520193016200380a565b92602060019160ff8560a81c161515815201930162003801565b92602060019160ff8560a01c1615158152019301620037f8565b92602060019160ff8560981c1615158152019301620037ef565b92602060019160ff8560901c1615158152019301620037e6565b92602060019160ff8560881c1615158152019301620037dd565b92602060019160ff8560801c1615158152019301620037d4565b92602060019160ff8560781c1615158152019301620037cb565b92602060019160ff8560701c1615158152019301620037c2565b92602060019160ff8560681c1615158152019301620037b9565b92602060019160ff8560601c1615158152019301620037b0565b92602060019160ff8560581c1615158152019301620037a7565b92602060019160ff8560501c16151581520193016200379e565b92602060019160ff8560481c161515815201930162003795565b92602060019160ff8560401c16151581520193016200378c565b92602060019160ff8560381c161515815201930162003783565b92602060019160ff8560301c16151581520193016200377a565b92602060019160ff8560281c161515815201930162003771565b92602060019160ff85831c161515815201930162003768565b92602060019160ff8560181c16151581520193016200375f565b92602060019160ff8560101c161515815201930162003756565b92602060019160ff8560081c16151581520193016200374d565b92602060019160ff85161515815201930162003744565b916020919350610400600191865460ff81161515825260ff8160081c1615158583015260ff8160101c161515604083015260ff816060828260181c161515818601528282608082828c1c16151581890152828260281c16151560a0890152828260c095828260301c161515878c0152828260381c16151560e08c0152828260401c1615156101008c0152828260481c1615156101208c0152828260501c1615156101408c0152828260581c1615156101608c01521c161515610180890152828260681c1615156101a0890152828260701c1615156101c0890152828260781c1615156101e08901521c161515610200860152828260881c161515610220860152828260901c161515610240860152828260981c161515610260860152828260a01c161515610280860152828260a81c1615156102a0860152828260b01c1615156102c0860152828260b81c1615156102e08601521c16151561030083015260ff8160c81c16151561032083015260ff8160d01c16151561034083015260ff8160d81c16151561036083015260ff8160e01c16151561038083015260ff8160e81c1615156103a083015260ff8160f01c1615156103c083015260f81c15156103e082015201940192018492939162003729565b9080601f83011215620028f257813590620048738262002b80565b9262004883604051948562002ab3565b828452602092838086019160051b83010192808411620028f257848301915b848310620048b35750505050505090565b82356001600160401b038111620028f2578691620048d78484809489010162002e8f565b815201920191620048a2565b35908115158203620028f257565b81601f82011215620028f2578035916200490b8362002b80565b926200491b604051948562002ab3565b808452602092838086019260051b820101928311620028f2578301905b82821062004947575050505090565b8135815290830190830162004938565b9080601f83011215620028f257813590620049728262002b80565b9262004982604051948562002ab3565b828452602092838086019160051b83010192808411620028f257848301915b848310620049b25750505050505090565b82356001600160401b038111620028f2578691620049d684848094890101620048f1565b815201920191620049a1565b9080601f83011215620028f257813591620049fd8362002b80565b9260409262004a0f8451958662002ab3565b8185526020938486019185600594851b86010194818611620028f257868101935b86851062004a4357505050505050505090565b84356001600160401b038111620028f257820183603f82011215620028f257888101359062004a728262002b80565b9162004a818751938462002ab3565b808352868b8401918a1b83010191868311620028f25791878c94929593015b81811062004ab957505082935081520194019362004a30565b91938091939562004aca84620028f7565b8152019101918b9391949262004aa0565b9062002b5a604560405180947f496e76616c69642070726f6772616d20616464726573732e204d73672e73656e60208301526403232b91d160dd1b604083015262004b30815180926020868601910162002d20565b810103602581018552018362002ab3565b9062002b5a6040805180947f2c20616e642070726f6772616d206f70657261746f7220616464726573733a20602083015262004b87815180926020868601910162002d20565b810103602081018552018362002ab3565b602062002b5a91939293604051948162004bbc879351809286808701910162002d20565b820162004bd28251809386808501910162002d20565b0103808552018362002ab3565b1562004be85750565b60405162461bcd60e51b81526020600482015290819062004c0e90602483019062002d45565b0390fd5b600019811462001de85760010190565b80511562004c305760200190565b634e487b7160e01b600052603260045260246000fd5b80516001101562004c305760400190565b80516002101562004c305760600190565b80516003101562004c305760800190565b805182101562004c305760209160051b010190565b7f496e76616c696420776974686472617720616d6f756e742e20416d6f756e743a8152600160fd1b602082015260210190565b600f62002b5a916020949360405195869262004cf162004ce383860162004c8e565b918281519485920162002d20565b016e0161030b732103130b630b731b29d1608d1b815262004d1c825180936020878501910162002d20565b010360101981018552018362002ab3565b601962002b5a916020949360405195869262004d4f62004ce383860162004c8e565b01780161030b732103bb4ba34323930bbb0b136329031b0b9b41d1603d1b815262004d84825180936020878501910162002d20565b010360061981018552018362002ab3565b9062004da18262002b80565b62004db0604051918262002ab3565b828152809262004dc3601f199162002b80565b0190602036910137565b610328805482101562004c305760005260206000200190600090565b610326805482101562004c305760005260206000200190600090565b610321805482101562004c305760005260206000200190600090565b6106c2805482101562004c305760005260206000200190600090565b61032a805482101562004c305760005260206000200190600090565b6106be805482101562004c305760005260206000200190600090565b6106c0805482101562004c305760005260206000200190600090565b805482101562004c305760005260206000200190600090565b8181029291811591840414171562001de857565b919082549060031b91821b91600019901b1916179055565b81811062004ee2575050565b6000815560010162004ed6565b600160401b8111620029ba576103289081549080835581811062004f1257505050565b62002b5a926000526020600020918201910162004ed6565b600160401b8111620029ba576103269081549080835581811062004f1257505050565b8054600082558062004f5d575050565b62002b5a9160005260206000209081019062004ed6565b600160401b8111620029ba576106be9081549080835581811062004f1257505050565b600160401b8111620029ba576106c09081549080835581811062004f1257505050565b6103958054600082558062004f5d575050565b90600160401b8111620029ba5781549080835581811062004f1257505050565b919082811162004ffe576001920390565b50600091508190565b811562005012570490565b634e487b7160e01b600052601260045260246000fd5b6000908072184f03e93ff9f4daa797ed6e38ed64bf6a1f0160401b8082101562005193575b506904ee2d6d415b85acef8160201b8083101562005183575b50662386f26fc100008083101562005173575b506305f5e1008083101562005163575b506127108083101562005153575b50606482101562005142575b600a8092101562005137575b60019081602181860195620050c48762002e73565b96620050d4604051988962002ab3565b808852620050e5601f199162002e73565b01366020890137860101905b620050fe575b5050505090565b600019019083906f181899199a1a9b1b9c1cb0b131b232b360811b8282061a8353049182156200513157919082620050f1565b620050f7565b9160010191620050af565b9190606460029104910191620050a3565b6004919392049101913862005097565b6008919392049101913862005089565b6010919392049101913862005079565b6020919392049101913862005066565b6040935081049150386200504d565b601e62002b5a9160209493604051958692620051c462004ce383860162004c8e565b017f2c20616e6420776974686472617761626c65206469766964656e64733a2000008152620051fd825180936020878501910162002d20565b010360011981018552018362002ab3565b6003821015620029425752565b604051906200522a8262002a5e565b60405182620052398262002a7a565b610c8036833752565b906200524e8262002b80565b6040906200525f8251918262002ab3565b838152809362005272601f199162002b80565b019160005b838110620052855750505050565b60209082516200529581620029ec565b6000815282600081830152606080868401526000818401526080830152600060a0830152600060c0830152600060e083015282860101520162005277565b620052df815462002b98565b9081620052ea575050565b81601f60009311600114620052fd575055565b9080839182526200531e601f60208420940160051c84016001850162004ed6565b5555565b805490600081558162005333575050565b6000526020600020908101905b8181106200534c575050565b806200535a600192620052d3565b0162005340565b90600160401b8111620029ba578154918181558282106200538157505050565b600052602060002091820191015b8181106200539b575050565b80620053a9600192620052d3565b016200538f565b8054906000815581620053c1575050565b6000526020600020908101905b818110620053da575050565b80620053e860019262004f4d565b01620053ce565b90600160401b8111620029ba578154918181558282106200540f57505050565b600052602060002091820191015b81811062005429575050565b806200543760019262004f4d565b016200541d565b8054600091828155816200545157505050565b6001600160fd1b0382168203620054de5782526020822091600391821b8301925b838110620054805750505050565b8082600892558260018201558260028201556200549f84820162004f4d565b620054ad6004820162005322565b620054bb60058201620053b0565b620054c960068201620053b0565b620054d760078201620052d3565b0162005472565b634e487b7160e01b83526011600452602483fd5b600160401b8211620029ba578054908281558183106200551157505050565b6001600160fd1b03828116830362001de8578316830362001de857600090815260208120600392831b810193831b015b8381106200554f5750505050565b8082600892558260018201558260028201556200556e84820162004f4d565b6200557c6004820162005322565b6200558a60058201620053b0565b6200559860068201620053b0565b620055a660078201620052d3565b0162005541565b516006811015620029425790565b906006811015620029425760ff80198354169116179055565b90620055e08162002edc565b60ff80198354169116179055565b90620055fa8162002937565b61ff0082549160081b169061ff001916179055565b9190601f81116200561f57505050565b62002b5a926000526020600020906020601f840160051c830193106200564e575b601f0160051c019062004ed6565b909150819062005640565b81519192916001600160401b038111620029ba5762005685816200567e845462002b98565b846200560f565b602080601f8311600114620056c4575081929394600092620056b8575b50508160011b916000199060031b1c1916179055565b015190503880620056a2565b90601f198316958460005282600020926000905b8882106200571357505083600195969710620056f9575b505050811b019055565b015160001960f88460031b161c19169055388080620056ef565b80600185968294968601518155019501930190620056d8565b9060ff801983541691151516179055565b9061ff00825491151560081b169061ff001916179055565b9062ff0000825491151560101b169062ff00001916179055565b815160068110156200294257620057879082620055bb565b602082015160018201556002810160408301516020815191620057ab8385620054f2565b01916000526020600020916000905b8282106200581e57505050509060e0600562002b5a9360608401516003820155620057ed60808501516004830162005659565b01916200580160a08201511515846200572c565b6200581360c08201511515846200573d565b015115159062005755565b8051805185556200585e60018601620058476020840151620058408162002edc565b82620055d4565b604083015190620058588262002937565b620055ee565b60608101516002860155608081015180519060038701906001600160401b038311620029ba5760209062005893848462004fcd565b0190600052602060002060005b83811062005b3f575050505060a0015180518051906004870190602090620058c9848462005361565b01906000526020600020906000905b83821062005b1f57505050506005850160208201516020815191620058fe8385620053ef565b019160005260206000206000925b82841062005abb57505050506006850160408201516020815191620059328385620053ef565b019160005260206000206000925b82841062005a4e5750505050606001518051906001600160401b038211620029ba57620059808262005976600789015462002b98565b600789016200560f565b602090601f8311600114620059d3579282600893602093600196600092620059c7575b5050600019600383901b1c191690851b1760078801555b01940191019092620057ba565b015190503880620059a3565b906007870160005260206000209160005b601f198516811062005a35575083602093600196938793600897601f1981161062005a1b575b505050811b016007880155620059ba565b015160001960f88460031b161c1916905538808062005a0a565b91926020600181928685015181550194019201620059e4565b80518051906001600160401b038211620029ba5760209062005a71838662004fcd565b0183600052602060002060005b83811062005a9d57505050506001602081920192019301929062005940565b82516001600160a01b03168183015560209092019160010162005a7e565b80518051906001600160401b038211620029ba5760209062005ade838662004fcd565b0183600052602060002060005b83811062005b0a5750505050600160208192019201930192906200590c565b60019060208451940193818401550162005aeb565b600160208262005b328394518762005659565b01930191019091620058d8565b600190602084519401938184015501620058a0565b60409081519162005b658362002a97565b60018352829160005b60208082101562005bd85783516020929162005b8a82620029d0565b60008252600081830152600086830152606060008184015280608084015286519062005bb6826200299e565b808252808383015280888301528082015260a083015282880101520162005b6e565b505091925050565b610323805482101562004c30576000526006602060002091020190600090565b6106bb805482101562004c30576000526006602060002091020190600090565b610322805482101562004c30576000526006602060002091020190600090565b6106ba805482101562004c30576000526006602060002091020190600090565b6103228054600160401b811015620029ba5762005c839160018201905562005c20565b91909162005c965762002b5a916200576f565b634e487b7160e01b600052600060045260246000fd5b6103238054600160401b811015620029ba5762005c839160018201905562005be0565b6106bb8054600160401b811015620029ba5762005c839160018201905562005c00565b6106ba8054600160401b811015620029ba5762005c839160018201905562005c40565b1562005d1d57565b60405162461bcd60e51b815260206004820152603760248201527f73756d4469766964656e64576569676874466f72546f6b656e436c6173733a206044820152766469766964656e64576569676874206f766572666c6f7760481b6064820152608490fd5b606481101562004c305762005daf8162005da86002620031f89460031b01549162005f41565b9062005ebb565b919062005d15565b606481101562004c3057600390811b61039a81015490600061039c820190815490809561039b829501915b83861062005e0057505050505050620031f89162005daf9162005ebb565b9690919293949662004c305762005e538762005e4b62005e2562000ef09a8962004e91565b905490861b1c6001600160a01b031660009081526020879052604081205490946200606a565b999062005edd565b949392919062005de2565b606481101562004c305762005daf8162005da861039a620031f89460031b01549162005fe7565b90811562005eb257606462005e9e818402938462005007565b0362005eaa5760019190565b600091508190565b60019150600090565b9190821562005ed35762005e9e818402938462005007565b5060019150600090565b1562005ee557565b60405162461bcd60e51b815260206004820152602e60248201527f746f74616c546f6b656e73506572546f6b656e436c6173733a20746f74616c5460448201526d6f6b656e73206f766572666c6f7760901b6064820152608490fd5b6064811015908162004c3057600390811b906004928383019182549260009582879601935b85871062005f78575050505050505090565b97969091929394959762005fd25762005fc68862005e4b62005fa062000ef09a9b8762004e91565b905490881b1c6001600160a01b031660009081526020899052604081205490946200606a565b95949392919062005f66565b603282634e487b7160e01b6000525260246000fd5b6064811015908162004c305790600391821b9061039c82019081549060009461039b869501915b8386106200601f5750505050505090565b9590919293949562004c30576200604c866200604462005e2562000ef0998962004e91565b989062005edd565b94939291906200600e565b906001820191821062005eaa5760019190565b9190820191821062005eaa5760019190565b156200608457565b60405162461bcd60e51b815260206004820152603360248201527f73756d566f74696e67576569676874466f72546f6b656e436c6173733a20766f60448201527274696e67576569676874206f766572666c6f7760681b6064820152608490fd5b606481101562004c30576200610b8162005da86001620031f89460031b01549162005f41565b91906200607c565b606481101562004c3057600390811b61039981015490600061039c820190815490809561039b829501915b8386106200615c57505050505050620031f8916200610b9162005ebb565b9690919293949662004c3057620061818762005e4b62005e2562000ef09a8962004e91565b94939291906200613e565b61038f54620061d26200619e620313c0565b91620061b06127109384831062004bdf565b620061c86103925461039054111562000ee96203142e565b6103915462005ebb565b919050620061df62031484565b5060009081925b6064841062006202575b620061fd9350046200624f565b905090565b9160ff60078560031b015416156200624857836200623562006241926200622e62000ef0969762005d82565b906200606a565b949062000ee962031484565b92620061e6565b91620061f0565b9080156200626757620062629162005007565b600191565b5050600090600090565b9190820180921162001de857565b9190820391821162001de857565b906107b2906301e1853e80840483810180821162001de8576001820181811162001de857604583019082821162001de8576064620062d092049060021c6200627f565b9561017183019682881162001de857620062f1906101908099049062006271565b9084840294848604148415171562001de85762015180948583029280840487149015171562001de85762006331926200632a9162006271565b906200627f565b9160049586910815958662006550575b506040516101a081016001600160401b038111828210176200653b57604052600c9687825261018080366020850137601f91826200637f8562004c22565b5215620065315760ff601d5b16620063978462004c46565b5281620063a48462004c57565b52601e620063b28462004c68565b5282518810156200651c578160a08401528251600510156200651c57601e60c08401528251600610156200651c578160e08401528251600710156200651c57816101008401528251600810156200651c57601e6101208401528251600910156200651c57816101408401528251600a10156200651c57601e6101608401528251600b10156200651c57820152600096905b81881062006497575b50508282049460018601809611620064825760018701809711620064825750949392603c80610e10809585060494840604920690565b601190634e487b7160e01b6000525260246000fd5b909692620064a6848362004c79565b5185810290808204871490151715620064ff5781106200651457620064cc848362004c79565b519085820291808304871490151715620064ff57620064f791620064f0916200627f565b9362004c12565b969062006443565b601188634e487b7160e01b6000525260246000fd5b92966200644c565b603288634e487b7160e01b6000525260246000fd5b60ff601c6200638b565b604187634e487b7160e01b6000525260246000fd5b9095506064860615908115916200656b575b50943862006341565b90508506153862006562565b90815181101562004c30570160200190565b90815181511162006640576000905b620065a783518251906200627f565b8211620066385760019260005b82518110156200662d576001600160f81b031980620065df620065d8848862006271565b8562006577565b511690620065ee838662006577565b5116036200660757620066019062004c12565b620065b4565b5092509060005b62006625576200661e9062004c12565b9062006598565b505050600190565b50929190916200660e565b505050600090565b5050600090565b61032a80549190600160401b831015620029ba5782620019dd91600162002b5a9501905562004e3d565b610395805490600160401b821015620029ba576001820180825582101562004c30576000908152602090200180546001600160a01b0319166001600160a01b03909216919091179055565b610393805490600160401b821015620029ba576001820180825582101562004c30576000908152602090200180546001600160a01b0319166001600160a01b03909216919091179055565b61032180549190600160401b831015620029ba5782620019dd91600162002b5a9501905562004e05565b60405190620067408262002a97565b60188252772a343290383937b3b930b69034b99032bc32b1baba32b21760411b6020830152565b60405190620067768262002a26565b603a82527930b33a32b9103b37ba34b7339030b7321030b8383937bb30b61760311b6040837f5468652070656e64696e672070726f6772616d2069732065786563757465642060208201520152565b90600091825b602080830190815180518710156200695c5781620067ee88620067f69362004c79565b5101620073dc565b602692838210156200294257601a918203620068b4578762006819915162004c79565b5192828401519081101562002942570362006872575093620068636200686b926200685b6200685460a0604062000ef09a0151015162004c22565b5162004c22565b51906200606a565b9590620073ea565b92620067cb565b6064906040519062461bcd60e51b82526004820152601b60248201527a2a34329037b831b7b2329034b9903737ba102820acafa1a0a9a41760291b6044820152fd5b92919050620068cd81620067ee89869a979a5162004c79565b82811015620029425760140362006906575050906200686362000ef0956200622e620068ff846200686b965162004c79565b5162007437565b6200691890620067ee85855162004c79565b90811015620029425760151462006936575b506200686b9062004c12565b906200686362006955956200622e620068ff846200686b965162004c79565b906200692a565b505050909250803410600014620069d25760405162461bcd60e51b815260206004820152603760248201527f546865207061796d656e74206973206e6f7420656e6f7567682e205468652074604482015276037ba30b6103830bcb6b2b73a1039b437bab6321031329604d1b6064820152608490fd5b80341162007253575b506107339182549260ff841693620069f38562002937565b60019480860362006a2d5750505062006a2391925062006a1d62006a1782620074ce565b620075a5565b6200762f565b620031f862006731565b62006a388162002937565b60028114808062007246575b1562006e6f5750505062006a5882620074e3565b1562006e305762006a6982620074e3565b1562006df45762006aa290602080930190600260ff8560018060a01b0362006a92865162004c22565b5151169460409687915162004c22565b510151015192541662006ab58162002937565b0362006db45781600052610737808552836000209261073880549485600052875260ff86600020541662006d76578351948060005261073693848952600396878960002001540362006d105783600052885286600020906000528752856000208960ff19825416179055886000905b62006b6e575b505050505050742a3432903b37ba329034b99032bc32b1baba32b21760591b9192935062006b57620308b4565b519162006b648362002a97565b6015835282015290565b845181101562006d0a5786825480600052858a5262006b938389846000200162004e91565b905490891b1c908a84888b62006baa838d62004c79565b511562006c6857505050505062006c0d62006bed85549283600052888d526200622e62006bdf87600480986000200162004e91565b9054908d1b1c91896203079f565b9092600052878c5262006c0685858d6000200162004e91565b9062004ebe565b1562006c26575062006c1f9062004c12565b8962006b24565b875162461bcd60e51b8152908101899052601c60248201527b766f74696e6720666f7220706f776572596573206f766572666c6f7760201b6044820152606490fd5b9062006ca562006cb7966200622e87999462006c06979860005284895262006c9887600580986000200162004e91565b9054911b1c918d6203079f565b959097600052528c6000200162004e91565b1562006cc85762006c1f9062004c12565b865162461bcd60e51b815260048101899052601b60248201527a766f74696e6720666f7220706f7765724e6f206f766572666c6f7760281b6044820152606490fd5b62006b2a565b875162461bcd60e51b8152600481018a9052603960248201527f746865206e756d626572206f6620766f74657320646f6573206e6f74206d6174604482015278636820746865206e756d626572206f6620706f6c696369657360381b6064820152608490fd5b855162461bcd60e51b81526004810188905260176024820152761d9bdd195c881a185cc8185b1c9958591e481d9bdd1959604a1b6044820152606490fd5b825162461bcd60e51b8152600481018590526019602482015278766f74696e67206973206e6f7420696e2070726f677265737360381b6044820152606490fd5b60405162461bcd60e51b8152602060048201526014602482015273496e76616c696420766f74652070726f6772616d60601b6044820152606490fd5b60405162461bcd60e51b815260206004820152601760248201527624b73b30b634b2103b37ba34b73390383937b3b930b69760491b6044820152606490fd5b62006e7f82979495969762002937565b6003821491828062007239575b1562006f0e5750505050505062006ea3816200754a565b1562006ebe5762006eb4906202df85565b620031f862006767565b60405162461bcd60e51b815260206004820152602260248201527f496e76616c696420657865637574696e672070656e64696e672070726f677261604482015261369760f11b6064820152608490fd5b62006f198162002937565b81806200722b575b806200721e575b156200714857505050509060ff9062006f4062030ac6565b54169062006f4e8262002937565b81036200700c575062006f6181620074ce565b1562006f7b578062006a1d62006a1762006a2393620074ce565b60405162461bcd60e51b815260206004820152605f60248201527f54686520766f74696e672069732072656a656374656420616e64206e6f77204460448201527f41524320697320696e2069646c652073746174652e2054686520696e7075742060648201527f70726f6772616d206973206e6f7420612076616c69642070726f6772616d2e00608482015260a490fd5b806200701a60039262002937565b146200705357505b604051620070308162002a97565b6013815272283937b3b930b6903a32b936b4b730ba32b21760691b602082015290565b6200705e816200754a565b156200706f5762006eb4906202df85565b60405162461bcd60e51b815260206004820152609960248201527f54686520766f74696e672069732070617373656420616e64206e6f772044415260448201527f4320697320696e20657865637574696e672070656e64696e672073746174652e60648201527f2054686520696e7075742070726f6772616d206973206e6f7420612076616c6960848201527f6420455845435554455f50454e44494e475f50524f4752414d20746f2065786560a48201527831baba32903a3432903832b73234b73390383937b3b930b69760391b60c482015260e490fd5b620071538162002937565b821562007209575b505080620071fb575b62007173575050505062007022565b60ff19161790556200718581620074ce565b156200719f578062006a1d62006a1762006a2393620074ce565b60405162461bcd60e51b815260206004820152602e60248201527f5b4572726f72203030335d5468652070726f6772616d206973206e6f7420612060448201526d3b30b634b210383937b3b930b69760911b6064820152608490fd5b506107325442101562007164565b6200721691925062002937565b38806200715b565b5061073254421062006f28565b506107315442101562006f21565b5061073254421062006e8c565b5061073154421062006a44565b60018060a01b03908184511660005261032590816020526040600020541562007349575b62007283903462004fed565b90156200730557620072a69083865116600052826020526040600020546200606a565b929015620072c45784511660005260205260406000205538620069db565b60405162461bcd60e51b81526020600482015260196024820152782a3432903732bb903130b630b731b29037bb32b9333637bb9760391b6044820152606490fd5b60405162461bcd60e51b815260206004820152601c60248201527b2a3432903830bcb6b2b73a103932ba3ab9371037bb32b9333637bb9760211b6044820152606490fd5b60009081610326928354915b828110620073a1575b50156200736f575b50905062007277565b86518516600160401b821015620029ba57620019dd82620072839560016200739a9501905562004de9565b3862007366565b86620073ad8262004de9565b919054818c51169260031b1c1614620073d157620073cb9062004c12565b62007355565b50506001386200735e565b516026811015620029425790565b15620073f257565b60405162461bcd60e51b815260206004820152601f60248201527f54686520746f74616c207061796d656e7420697320746f6f206c617267652e006044820152606490fd5b906000805b6040840160a062007451818351015162004c46565b5151841015620074c6579262006863620074b6604094620074ae85620074a686620074948b6200749b8362000ef09f9e6200749490620074bc9e51015162004c46565b5162004c79565b519451015162004c57565b519062005ebb565b9290620073ea565b6200606a565b919290506200743c565b509093505050565b602001515115620074de57600190565b600090565b602001516001815103620075075762007500620031f89162004c22565b516200750d565b50600090565b60208101516026811015620029425760200362007507576040015160a081015151620075075760c08101515162007507575151620074de57600190565b602001516001815103620075075762007567620031f89162004c22565b5160208101516026811015620029425760210362007507576040015160a081015151620075075760c08101515162007507575151620074de57600190565b15620075ad57565b60405162461bcd60e51b815260206004820152600f60248201526e496e76616c69642070726f6772616d60881b6044820152606490fd5b60809060208152602a60208201527f5468652070726f6772616d2069732064656e6965642062792074686520706c7560408201526967696e2073797374656d60b01b60608201520190565b6200763a81620141ae565b5162013cb157600681101562002942576003811462013c585780620076975760405162461bcd60e51b8152602060048201526016602482015275151a19481c1c9bd9dc985b481a5cc81a5b9d985b1a5960521b6044820152606490fd5b600481036200a5fb575060008061032a54905b8181106200a5b4575b5050156200a598575b60005b6020908183015191825182101562007724576200771681610329620076fc620076f662000ef095620067ee886200771e9a62004c79565b620316cf565b9160018060a01b0388511660005252604060002062022f40565b429162004ebe565b620076bf565b50505060005b602080830151805183101562007772576200774f91620067ee84620076f69362004c79565b90606482101562004c30576200776c91429061032b015562004c12565b6200772a565b505050906000905b602083015180518310156200a5925782620077959162004c79565b51602081018051602690818110156200294257156200a54f578151818110156200294257600103620079e2575050604080910190620077d960c08351015162004c22565b5192620077fb60a0620077f0818651015162004c22565b519451015162004c46565b51956200780c85518551146202cca5565b6200781b85518851146202cd0b565b60005b8551811015620079605762007834818662004c79565b516064908181101562004c3057600160ff60076200785b9360031b0154161515146202cd6d565b62007867828a62004c79565b5162007874838862004c79565b51908282101562004c30576006620078929260031b0154906200606a565b906200789f848962004c79565b51918383101562004c30576006620078bc9360031b01556202cdc5565b620078c8828a62004c79565b5190620078d6838862004c79565b518181101562004c30576001600160a01b039392620079169160039086620078ff878e62004c79565b5116600052811b016020528760002054906200606a565b62007922848a62004c79565b519283101562004c3057600362000ef0936200795a9662007944878e62004c79565b5116600052811b0160205287600020556202ce24565b6200781e565b5093926200797d919296506200797690620312cf565b92620311b3565b9451926200798b8462002a5e565b60008452600036813760005b8351811015620079c5578062000ef0620079b6620079bf938762004c79565b51878a62030dc7565b62007997565b5094509260209250620079d9915062004c12565b9190506200777a565b815181811015620029425760020362007c78575050604080910180519283519562007a2762007a1660a08097015162004c22565b51956200749b818651015162004c46565b5193875186510362007c2557875184510362007bd157875185510362007b7a575060005b855181101562007b645762007a61818762004c79565b51906064918281101562004c305762007a8660ff6007809360031b015416156202ce7d565b62007a92828962004c79565b518381101562004c305760031b01805460ff1916600117905562007ab7818a62004c79565b5162007ac4828962004c79565b51908382101562004c3057600562007ae09260031b0162005659565b62007aec818662004c79565b5162007af9828962004c79565b518381101562004c305760031b6001015562007b16818762004c79565b5162007b23828962004c79565b518381101562004c305760031b6002015562007b40818862004c79565b519182101562004c30576000600662007b5e9360031b015562004c12565b62007a4b565b50955093905060209250620079d9915062004c12565b5162461bcd60e51b815260206004820152603c602482015260008051602062031b8883398151915260448201527b1b911a5d9a59195b9915d95a59da1d081a5cc81b9bdd08195c5d585b60221b6064820152608490fd5b5162461bcd60e51b8152602060048201526039602482015260008051602062031b888339815191526044820152781b959bdd1a5b99d41bddd95c881a5cc81b9bdd08195c5d585b603a1b6064820152608490fd5b5162461bcd60e51b8152602060048201526038602482015260008051602062031b888339815191526044820152771b925b99195e105c9c985e481a5cc81b9bdd08195c5d585b60421b6064820152608490fd5b819593949295518181101562002942576003036200826f575050604084019062007ca760c08351015162004c22565b519362007cbe60a0620077f0818651015162004c22565b519362007cd3865185511462000ee962031533565b62007ce6865186511462000ee962031533565b60005b865181101562007d4e5762007cff818662004c79565b5190606482101562004c3057600362007d489260018060a01b038b5116600052811b0160205262000ef060406000205462007d3b838a62004c79565b51111562000ee962031637565b62007ce9565b50909493919460005b855181101562007e815762007d6d818662004c79565b519060648083101562004c3057600360018060a01b0393848c5116600052811b0160205262007daf60406000205462007da7848962004c79565b519062004fed565b9062007dbc848a62004c79565b51918383101562004c3057600362007deb93878f5116600052811b0160205260406000205562000ee962031637565b62007df7828862004c79565b518181101562004c30576003908462007e11858c62004c79565b5116600052811b0160205262007e326040600020546200685b848962004c79565b62007e3e848a62004c79565b519283101562004c3057600362000ef09362007e7b9662007e60878e62004c79565b5116600052811b0160205260406000205562000ee96203169c565b62007d57565b5091509162007e9862007e9f9196959496620312cf565b95620311b3565b926040519462007eaf8662002a97565b6001865260203681880137516001600160a01b031662007ecf8662004c22565b526000905b86518210156200825a5762007eea828862004c79565b516108c05262007efb855162004d95565b9660009462007f0b885162004d95565b6108a0528594865b885181101562007fe1578a8962007f436001600160a01b0362007f37858462004c79565b51166108c051620310b9565b158062007f9c575b62007f64575b505062007f5e9062004c12565b62007f13565b9862007f919162001a9c82859c62007f8862007f5e9760018060a01b039262004c79565b51169262004c79565b9790508a8962007f51565b50505060646108c051101562004c30576001600160a01b0362007fc0828b62004c79565b511660005260036108c051811b016020528a89604060002054151562007f4b565b509098949897969291939760005b8851811015620080825760646108c051101562004c30576001600160a01b036200801a828b62004c79565b511660005260036108c051811b016020526040600020541562008049575b620080439062004c12565b62007fef565b99620080439062008079906001600160a01b03620080688e8d62004c79565b511662001a9c826108a05162004c79565b9a905062008038565b5098509694939291956108c0516064811015806107205262004c305760031b6004015496620080bc620080b6878a62006271565b62004d95565b996000998a6104c0525b6107205162004c30576104c0518a8110156200817b57620080fb620081189160006107205260046108c05160031b0162004e91565b90546108a05160039290921b1c6001600160a01b03169062031166565b1562008137575b6200812d6104c05162004c12565b6104c052620080c6565b99808c62001a9c62008174936200815b6104c05160046108c05160031b0162004e91565b905460039190911b1c6001600160a01b03169262004c79565b996200811f565b509a939794969299919850946000915b8383106200822057505050506107205162004c30578051906001600160401b038211620029ba57602090620081ca8360046108c05160031b0162004fcd565b0160046108c05160031b01600052602060002060005b838110620082025750505050620081f79062004c12565b909295919562007ed4565b82516001600160a01b031681830155602090920191600101620081e0565b62008253906200824c906001600160a01b036200823e868662004c79565b511662001a9c828962004c79565b9262004c12565b916200818b565b91945050620079d99194506020925062004c12565b81959394929551818110156200294257600403620084f5575050604080920160c094620082b0620082a4878451015162004c22565b51968351015162004c46565b5194620082c760a0620077f0818651015162004c22565b5193620082dc885188511462000ee962031533565b620082ef885185511462000ee962031533565b62008302885186511462000ee962031533565b60005b885181101562008369576200831b818662004c79565b5190606482101562004c305762008363916003906001600160a01b0362008343848e62004c79565b5116600052811b0160205262000ef0886000205462007d3b838a62004c79565b62008305565b50909691959294939660005b8351811015620084a9576200838b818862004c79565b51906064918281101562004c30576001600160a01b039060039082620083b2858a62004c79565b5116600052811b01602052620083d38b62007da7848b600020549262004c79565b90620083e0848c62004c79565b51918583101562004c30576003620084199385620083ff888d62004c79565b5116600052811b016020528a6000205562000ee962031637565b62008425828a62004c79565b518381101562004c3057600390826200843f858b62004c79565b5116600052811b01602052620084608b6200685b848b600020549262004c79565b9190506200846f838b62004c79565b519384101562004c3057620084a3936003916200848d858b62004c79565b5116600052811b01602052876000205562004c12565b62008375565b5094620084cc92975062007e9891939450620084c590620312cf565b93620311b3565b9260005b8351811015620079c5578062000ef0620079b6620084ef938762004c79565b620084d0565b8195949395519080821015620029425760059182036200870957505050604091828501906200853960a06200852e818551015162004c22565b519351015162004c46565b51928251845103620086b85760005b83518110156200859f576200855e818562004c79565b5190606482101562004c30576003620085999260018060a01b038b5116600052811b0160205262000ef0876000205462007d3b838962004c79565b62008548565b509092919260005b84518110156200863957620085bd818662004c79565b519060648083101562004c3057600360018060a01b0393848c5116600052811b01602052620085f6886000205462007da7848962004c79565b62008602848a62004c79565b519283101562004c3057600362000ef09362008633968e5116600052811b01602052896000205562000ee962031637565b620085a7565b509593926200864a919250620312cf565b91805193620086598562002a97565b6001855260203681870137516001600160a01b0316620086798562004c22565b525194620086878662002a5e565b60008652600036813760005b8351811015620079c5578062000ef0620079b6620086b2938762004c79565b62008693565b845162461bcd60e51b8152602060048201526035602482015260008051602062031b08833981519152604482015274195b905b5bdd5b9d081a5cc81b9bdd08195c5d585b605a1b6064820152608490fd5b82969394965181811015620029425760060362008971575050509060408092016200873960c08251015162004c22565b51946200875060a06200852e818551015162004c22565b5192865183510362008920578651845103620088d45760005b8751811015620087cd576200877f818562004c79565b5190606482101562004c3057620087c7916003906001600160a01b03620087a7848d62004c79565b5116600052811b0160205262000ef0876000205462007d3b838962004c79565b62008769565b509092919260005b87518110156200888057620087eb818662004c79565b5160648082101562004c30576001600160a01b0392916003908462008811858e62004c79565b5116600052811b0160205262008831886000205462007da7848962004c79565b6200883d848a62004c79565b519283101562004c3057600362000ef0936200887a96620088608f889062004c79565b5116600052811b01602052896000205562000ee962031637565b620087d5565b509592620088959192506200797690620312cf565b925194620088a38662002a5e565b60008652600036813760005b8351811015620079c5578062000ef0620079b6620088ce938762004c79565b620088af565b845162461bcd60e51b8152602060048201526030602482015260008051602062031e6883398151915260448201526f1b9d1cc81a5cc81b9bdd08195c5d585b60821b6064820152608490fd5b845162461bcd60e51b8152602060048201526035602482015260008051602062031aa88339815191526044820152741b90db185cdcd95cc81a5cc81b9bdd08195c5d585b605a1b6064820152608490fd5b825181811015620029425760070362008ac0575050506040809101936200899d60c08651015162004c22565b5192620089af60a08751015162004c22565b5195515191620089c7855188511462000ee962031533565b60005b855181101562007b645762008aba9062000ef06001600160a01b038260028862008aa28e62008a978e62008a8d8f8962008a058a8562004c79565b511660005262008a418962008a39816103209a8b60205262008a3360ff8760002054161562000ee962031604565b62004c79565b519662004c79565b51968a62008a7783519b8c9662008a58886200299e565b600188526060602089019860008a528781019b8c52019b8c5262004c79565b511660005260205260002097511515886200572c565b511515866200573d565b516001850162005659565b5191015562008ab2838a62004c79565b511662006707565b620089ca565b8251959695939492818510156200294257600894850362008bb75750505062008af260c0604080950151015162004c22565b519360005b855181101562008ba25762008b9c906001600160a01b038062008b1b838a62004c79565b5116600052610320908160205262008b7160ff62008b486001828c600020541615151462000ee962031563565b8262008b55868d62004c79565b5116600052836020528960002054891c161562000ee9620315cb565b62008b7d838a62004c79565b51166000526020528560002061010061ff001982541617905562004c12565b62008af7565b509490935060209250620079d9915062004c12565b805182811015620029425760090362008c8b5750505062008be160c0604080950151015162004c22565b519360005b855181101562008ba25762008c8590866001600160a01b038062008c0b848462004c79565b511660005262008c5e6001898362008c4087610320978860205262008a338660ff8097600020541615151462000ee962031563565b5116600052846020528a600020548a1c1615151462000ee962031596565b62008c6a838a62004c79565b51166000526020528560002061ff0019815416905562004c12565b62008be6565b809796949293959751828110156200294257600a0362008d69575050505060408094019162008cd060a062008cc560c08651015162004c22565b519451015162004c22565b519162008ce5845184511462000ee962031533565b60005b8451811015620079c55762008d63906001600160a01b038062008d0c838962004c79565b51166000526103208060205262008d33600160ff8c600020541615151462000ee962031563565b62008d3f838862004c79565b519162008d4d848a62004c79565b5116600052602052600289600020015562004c12565b62008ce8565b8097959751828110156200294257600b0362008e38575050505060408092019362008d9960c08651015162004c22565b519451519162008db1865184511462000ee962031533565b60005b8651811015620079c55762008e329062000ef06001600160a01b038062008ddc848c62004c79565b51166000526103208060205262008e03600160ff8b600020541615151462000ee962031563565b62008e0f848962004c79565b519162008e1d858d62004c79565b51166000526020526001886000200162005659565b62008db4565b8097949593969751828110156200294257600c0362008f8f5750505060400160609182825101519362008e6b856202c2eb565b60005b855181101562008f795760e062008e8a82878751015162004c79565b5101511562008f115762008eae62008ea782878751015162004c79565b5162005c60565b610322805460001992919083810190811162001de85762008ed08a9162005c20565b5001805461ff0019166101001790555491820191821162001de8578762008efb62008f0b9362005c20565b5001805460ff1916905562004c12565b62008e6e565b62008f2c62008f2582878751015162004c79565b5162005cac565b610322805460001992919083810190811162001de85762008f4e8a9162005be0565b5001805461ff0019166101001790555491820191821162001de8578762008efb62008f0b9362005be0565b50959150935060209250620079d9915062004c12565b809796959392949751828110156200294257600d03620090e457505060400194602062008fc160a08851015162004c22565b51965101519162008fd687518451146202c9e4565b60005b875181101562007b64578080878a62008ff762009086958962004c79565b51156200908c57620090576200903e8483620090296200901d6200906298889762004c79565b5161032254116202ca6d565b62008a338d620090456200903e858562004c79565b5162005c20565b509060ff9889920154901c166202cac5565b50015416156202cb26565b86620090736200903e838c62004c79565b5001805460ff1916600117905562004c12565b62008fd9565b62009057620090cc8483620090b7620090ab620090d398889762004c79565b5161032354116202ca6d565b62008a338d62009045620090cc858562004c79565b5162005be0565b8662009073620090cc838c62004c79565b809794939751828110156200294257600e03620091ca5750506040019160206200911360a08551015162004c22565b5193510151956200912884518851146202c9e4565b60005b845181101562007b6457806200914662009152928a62004c79565b51620091585762004c12565b6200912b565b6200917462009168828862004c79565b5161032254116202cb87565b620091b9876200919e6200918d6200903e858b62004c79565b5060ff9283910154891c166202cbe0565b88620091af6200903e858b62004c79565b500154166202cc42565b8662008efb6200903e838962004c79565b80919293509694959651828110156200294257600f03620092ee575050604001606091828251015193620091fe856202c2eb565b60005b855181101562008f795760e06200921d82878751015162004c79565b510151156200928d576200923a62008ea782878751015162004c79565b610322805460001992919083810190811162001de8576200925c8a9162005c20565b5001805461ff0019166101001790555491820191821162001de8578762009073620092879362005c20565b62009201565b620092a162008f2582878751015162004c79565b610322805460001992919083810190811162001de857620092c38a9162005be0565b5001805461ff0019166101001790555491820191821162001de8578762009073620092879362005be0565b8091929394969550518281101562002942576010036200939357505060400151906200932360a0608084015193015162004c22565b519362009338835186511462000ee962031533565b60005b835181101562009380578062000ef06200935a6200937a938762004c79565b51620093668162002edc565b62009372838a62004c79565b51906202c1af565b6200933b565b5093509160209150620079d99062004c12565b80959295518281101562002942576011036200961c57505090604080940191620093c860a062008cc560c08651015162004c22565b5191620093d984518451146202c163565b60005b845181101562009451576200944b9062000ef06001600160a01b038062009404848a62004c79565b511660005261032580602052620094258b600020546200685b868b62004c79565b91909262009434868c62004c79565b51166000526020528a6000205562000ee9620314e9565b620093dc565b5093945091620094629150620311b3565b90610326928354946200947b620080b685518862006271565b91600093845b888110620095dc575060005b865181101562009534576000805b8a8110620094e5575b5015620094bd575b620094b79062004c12565b6200948d565b94620094b790620094dc906001600160a01b036200823e898b62004c79565b959050620094ac565b620094f08162004de9565b90546001600160a01b0360039290921b1c81169062009510858c62004c79565b5116146200952957620095239062004c12565b6200949b565b5050600138620094a4565b50965094909350620095468362004d95565b805191906001600160401b038311620029ba57602090620095678462004f2a565b0190600052602060002060005b838110620095be575050505060005b8281106200959b57505050620079d960209162004c12565b620095b89062000ef06001600160a01b03620019d0838662004c79565b62009583565b82516001600160a01b03168183015560209092019160010162009574565b946200960f6200961691620095f18862004de9565b905460039190911b1c6001600160a01b031662001a9c828962004c79565b9562004c12565b62009481565b80518281101562002942576012036200988b5750506040809401916200964d60a062008cc560c08651015162004c22565b51916200965e84518451146202c163565b60005b8451811015620096b057620096aa9062000ef06001600160a01b038062009689848a62004c79565b511660005261032580602052620094258b6000205462007da7868b62004c79565b62009661565b509491509291620096c190620311b3565b906103268054620096d28162004d95565b9260009485925b808410620097865750505050620096f08362004d95565b805191906001600160401b038311620029ba57602090620097118462004f2a565b0190600052602060002060005b83811062009768575050505060005b8281106200974557505050620079d960209162004c12565b620097629062000ef06001600160a01b03620019d0838662004c79565b6200972d565b82516001600160a01b0316818301556020909201916001016200971e565b9297600097929597949194998a5b86518110156200987957620097a98b62004de9565b90546001600160a01b0360039290921b1c811690620097c9838a62004c79565b511614620097e257620097dc9062004c12565b62009794565b509950976001979592979491945b8062009849575b156200980f57620098089062004c12565b92620096d9565b95620098426200980891620098248962004de9565b905460039190911b1c6001600160a01b031662001a9c828a62004c79565b9662004c12565b50620098558162004de9565b60018060a01b0391549060031b1c16600052610325602052826000205415620097f7565b509998909897959297949194620097f0565b8095929551828110156200294257601303620098ec57505060408091015101519260005b8451811015620098db578062000ef0620098ce620098d5938862004c79565b516202df19565b620098af565b50925090620079d960209162004c12565b805191808310156200294257601492830362009a8e575050506040809101906200991b60c08351015162004c22565b51926200993260a0620077f0818651015162004c22565b51956200994385518551146202cca5565b6200995285518851146202cd0b565b60005b855181101562009a39576200996b818962004c79565b5162009978828762004c79565b516064918282101562004c30576006620099989260031b0154906200606a565b90620099a5848962004c79565b51918383101562004c30576006620099c29360031b01556202cdc5565b620099ce828a62004c79565b5190620099dc838862004c79565b518181101562004c30576001600160a01b03939262009a059160039086620078ff878e62004c79565b62009a11848a62004c79565b519283101562004c3057600362000ef09362009a339662007944878e62004c79565b62009955565b50939262009a4f919296506200797690620312cf565b94519262009a5d8462002a5e565b60008452600036813760005b8351811015620079c5578062000ef0620079b662009a88938762004c79565b62009a69565b8151818110156200294257601590810362009aba57505050506020919262000ef0620079d9926202d41e565b825191808310156200294257601692830362009b2257505050505060c0604062009ae8920151015162004c22565b519260005b8451811015620098db5762009b1c9062000ef06001600160a01b0362009b14838962004c79565b5116620066bc565b62009aed565b835181811015620029425760170362009b7b5760405162461bcd60e51b8152602060048201526029602482015260008051602062031d688339815191526044820152683632b6b2b73a32b21760b91b6064820152608490fd5b835181811015620029425760180362009bee57505050505060c0604062009ba6920151015162004c22565b51610396805460ff191660011790559260005b8451811015620098db5762009be89062000ef06001600160a01b0362009be0838962004c79565b511662006671565b62009bb9565b839796975181811015620029425760190362009d6257505050505060008080604080940160a08082510151805162009d29575b5050519060e08201519162009c456200685460c060018060a01b0393015162004c22565b511690602083519301915af1903d1562009d20573d9162009c668362002e73565b9262009c758351948562002ab3565b83523d6000602085013e5b1562009c95575050620079d960209162004c12565b62004c0e925062009d0181519260008051602062031c88833981519152602085015278039bab1b1b2b9b9b33ab617102932ba3ab937103230ba309d1603d1b8385015283815162009cf0816059946020868601910162002d20565b810103603981018552018362002ab3565b5162461bcd60e51b815260206004820152918291602483019062002d45565b60609162009c80565b62009d349062004c22565b515162009d43575b8062009c21565b819250620068549062009d599251015162004c22565b51903862009d3c565b8351818110156200294257601a0362009e62575050505062009d8d60a0604080940151015162004c22565b519062009d9e60038351146202c163565b62009da98262004c22565b519262009dc262009dba8462004c46565b519362004c57565b519262009e2857505091620079d99160016020941460001462009e215762009e019062009df46103919182546200606a565b90915562000ee962031484565b62000ef061039262009e14815462006057565b90915562000ee9620314be565b5062004c12565b60649250519062461bcd60e51b825260206004830152602482015273496e76616c6964207061796d656e74207479706560601b6044820152fd5b90919280945051818110156200294257601b036200a2f5575050505050919062009ea261038f54620061b062009e97620313c0565b612710831062004bdf565b505062009eae62031484565b506000805b606481106200a284575b505062009ec96200618c565b62009ed76107345462004d95565b9060009485935b60648510156200a2775760ff60078660031b015416156200a0365760009560028660031b0154156200a02757869796975b62004c305760048660031b01548810156200a00e5762009f37886004600389901b0162004e91565b600160a01b6001900391549060031b1c1696876000528660031b6003016020526040978589600020549062009f6c9162005ebb565b999062009f7862031484565b62009f839162004bdf565b6000998960031b6002015462009f999162005ebb565b919062009fa562031484565b62009fb09162004bdf565b828b526103276020528a209081549062009fca916200606a565b90915562009fd762031484565b62009fe29162004bdf565b62009fee828862004c79565b5262009ffa9062004c12565b976200a0069062004c12565b979662009f0f565b91946200a01e9196975062004c12565b93909462009ede565b91946200a01e91965062004c12565b949592915092505b6200a0498262004d95565b91600091825b8281106200a1e157505050610328908154926200a071620080b6858462006271565b9360009081905b8082106200a1a657505060005b8381106200a1025750508351939150506001600160401b038311620029ba576020906200a0b28462004eef565b0190600052602060002060005b8381106200a0e45750505050620079d960209160006103915560006103925562004c12565b82516001600160a01b0316818301556020909201916001016200a0bf565b6000805b8381106200a15e575b50156200a128575b6200a1229062004c12565b6200a085565b906200a122906200a155906001600160a01b036200a147858762004c79565b511662001a9c828a62004c79565b9190506200a117565b6001600160a01b03806200a173858862004c79565b5116906200a182838b62004c79565b5116146200a19b576200a1959062004c12565b6200a106565b50506001386200a10f565b90916200824c6200a1da916200a1bc8562004dcd565b905460039190911b1c6001600160a01b031662001a9c828b62004c79565b906200a078565b6000805b8581106200a22f575b50156200a207575b6200a2019062004c12565b6200a04f565b926200a201906200a226906001600160a01b036200823e878662004c79565b9390506200a1f6565b6001600160a01b03806200a244858762004c79565b5116906200a253838a62004c79565b5116146200a26c576200a2669062004c12565b6200a1e5565b50506001386200a1ee565b949592915092506200a03e565b806003959394951b9060ff600783015416156200a2ea576200a2d4620074b662000ef0946200a2c86200a2e09560026200a2be8762005d82565b9101549062005ebb565b929062000ee962031484565b939062000ee962031484565b9392919362009eb3565b509392919362009ebd565b8351818110156200294257601c036200a34e5760405162461bcd60e51b8152602060048201526029602482015260008051602062031e488339815191526044820152683632b6b2b73a32b21760b91b6064820152608490fd5b8351818110156200294257601d036200a374575b5050505050620079d960209162004c12565b8351818110156200294257601e146200a362578351818110156200294257601f036200a3ca57505050506020916200a3c06200a3b96040620079d99401515162004c22565b516202df4f565b913880806200a362565b83518181101562002942576020036200a3f0575b5050505050620079d96020916200a3c0565b835181811015620029425760218091036200a40d575b506200a3de565b8451828110156200a53a576022036200a44d57505050505050620079d960209161039660ff1981541690556200a44262004fba565b91388080806200a406565b8451828110156200a53a576023036200a474575b505050505050620079d96020916200a442565b845194828610156200a53a5760248096036200a492575b506200a461565b8051838110156200a526576025146200a48b5751918210156200a5125750036200a4d65750506020916200a4ca620079d9926202d41e565b9138808080806200a48b565b60405162461bcd60e51b8152602060048201529182015275496e76616c6964206f7065726174696f6e207479706560501b604482015260649150fd5b8490634e487b7160e01b6000526004526000fd5b8683634e487b7160e01b6000526004526000fd5b50634e487b7160e01b60005260045260246000fd5b60405162461bcd60e51b815260206004820152601b60248201527a13dc195c985d1a5bdb881d1e5c19481a5cc81d5b9919599a5b9959602a1b6044820152606490fd5b50915050565b80516200a5ae906001600160a01b031662006647565b620076bc565b6200a5bf8162004e3d565b9054855160039290921b1c6001600160a01b039081169116146200a5ee576200a5e89062004c12565b620076aa565b50505060013880620076b3565b600281036200a61f5760405162461bcd60e51b81528062004c0e60048201620075e4565b6001146200a62a5750565b6200a6386103235462005242565b805190600160401b8211620029ba576106bb54826106bb5580831062013bdd575b506020016106bb60005260206000206000915b83831062013bbc575050505060005b610323548110156200a6b4578062000ef06200a69b6200a6ae9362005be0565b506200a6a78362005c00565b90620140e3565b6200a67b565b506200a6c36103225462005242565b805190600160401b8211620029ba576106ba54826106ba5580831062013b20575b506020016106ba60005260206000206000915b83831062013aff575050505060005b610322548110156200a738578062000ef06200a7266200a7329362005c20565b506200a6a78362005c40565b6200a706565b5060005b6064811015806200a8f557600160ff61039f8460031b0154161515146200a770575b506200a76a9062004c12565b6200a73c565b916000835b62004c305761039c8360031b01548110156200a7df576200a7d6929350600092816200a7aa859361039c8860031b0162004e91565b9054600391821b1c6001600160a01b031660009081529087901b61039b01602052604081205562004c12565b9093926200a775565b5091604051906200a7f08262002a5e565b6000825262004c30578051906001600160401b038211620029ba576020906200a8218361039c8660031b0162004fcd565b0161039c8360031b01600052602060002060005b8381106200a8d75750505050600381901b61039f8101805460ff1916905560006103988201819055610399820181905561039a82015561039d01546200a76a91906200a8819062002b98565b601f908181116200a8ac575b5050600061039d8260031b0155600061039e8260031b0155906200a75e565b6200a8cf9161039d8460031b016000526020600020910160051c81019062004ed6565b38806200a88d565b82516001600160a01b0316818301556020909201916001016200a835565b505060005b6064811062013a71575060005b610321548110156200a96257806200a9236200a95c9262004e05565b60018060a01b0391549060031b1c166000526106b860205260006002604082208281556200a95460018201620052d3565b015562004c12565b6200a907565b506200a9716103215462004d95565b8051906001600160401b038211620029ba57600160401b8211620029ba576020906106b954836106b95580841062013a4f575b50016106b9600052602060002060005b83811062013a31575050505060005b610321548110156200aa35576200a9da8162004e05565b90546106b95460039290921b1c6001600160a01b0316919081101562004c30576106b960005260008051602062031ca8833981519152810180546001600160a01b0319169092179091556200aa2f9062004c12565b6200a9c3565b509060005b610321548110156200aaf457806200aa566200aaa99262004e05565b9060018060a01b03918291549060031b1c16600052610320602052604080600020916200aa838462004e05565b90549060031b1c166000526106b8602052600020908082036200aaaf575b505062004c12565b6200aa3a565b600280916200aad560ff6200aac881845416876200572c565b825460081c16856200573d565b6200aae7600182016001860162013d7f565b015491015538806200aaa1565b5060005b6106c2548110156200ab4657806200ab146200ab409262004e21565b60018060a01b0391549060031b1c166000526106c160205262000ef06040600020606481019062004ed6565b6200aaf8565b506200ab5561032a5462004d95565b8051906001600160401b038211620029ba57600160401b8211620029ba576020906106c254836106c25580841062013a0f575b50016106c2600052602060002060005b838110620139f1575050505060005b61032a548110156200abea578062000ef06200abc76200abe49362004e3d565b905460039190911b1c6001600160a01b0316620019dd8362004e21565b6200aba7565b5060005b61032a548110156200ac7557806200ac0a6200ac5c9262004e3d565b9060018060a01b03918291549060031b1c16600052610329602052604080600020916200ac378462004e3d565b90549060031b1c166000526106c1602052600020908082036200ac6257505062004c12565b6200abee565b6200ac6d9162014177565b38806200aaa1565b5061032b80546000905b60648210620139d857505061038f546107275550610390546107285561039154610729556103925461072a55610393546001600160401b038111620029ba57600160401b8111620029ba5761072b548161072b55808210620139aa575b5061072b60009081527f5633a4c6d9b97531e399e3f8ca4246ad061775375fff6b4bcce16d5826063f97805460008051602062031b6883398151915291905b8484106201398857505050505061039454600160401b8111620029ba5761072c548161072c5580821062013946575b5061072c600090815260008051602062031c088339815191527faa8d8c5069de1a96df104a74e1e1a7598fabc0d586553b00a0e002f860df95975b83831062013928575050610395549150506001600160401b038111620029ba57600160401b8111620029ba5761072d548161072d55808210620138fa575b5061072d60009081527f9b9d7759e89c320201cfa750871914a6fc9f76735934f3be5ccb8595391f512c805460008051602062031ac883398151915291905b848410620138d857505050505060ff6103965416151560ff801961072e541691161761072e5560005b6106be548110156200ae7557806200ae476200ae6f9262004e59565b905460039190911b1c6001600160a01b031660009081526106bd602052604081205562004c12565b6200ae2b565b506200ae846103265462004d95565b8051906001600160401b038211620029ba576020906200aea48362004f74565b016106be600052602060002060005b838110620138ba575050505060005b610326548110156200af05578062000ef06200aee26200aeff9362004de9565b905460039190911b1c6001600160a01b0316620019dd8362004e59565b6200aec2565b5060005b610326548110156200af7457806200af256200af6e9262004de9565b9060018060a01b03918291549060031b1c1660005261032560205260408060002054916200af538462004de9565b90549060031b1c166000526106bd6020526000205562004c12565b6200af09565b5060005b6106c0548110156200afc257806200af946200afbc9262004e75565b905460039190911b1c6001600160a01b031660009081526106bf602052604081205562004c12565b6200af78565b506200afd16103285462004d95565b8051906001600160401b038211620029ba576020906200aff18362004f97565b016106c0600052602060002060005b8381106201389c575050505060005b610328548110156200b052578062000ef06200b02f6200b04c9362004dcd565b905460039190911b1c6001600160a01b0316620019dd8362004e75565b6200b00f565b5060005b610328548110156200b0c157806200b0726200b0bb9262004dcd565b9060018060a01b03918291549060031b1c1660005261032760205260408060002054916200b0a08462004dcd565b90549060031b1c166000526106bf6020526000205562004c12565b6200b056565b506106c2546000805b82811062013857575b501562013821575b5060005b60208301519081518110156200b1375762000ef0620077166200b111620076f66020620067ee866200b1319862004c79565b86516001600160a01b031660009081526106c16020526040902062022f40565b6200b0df565b505060005b602083015180518210156200b18457620076f66020620067ee846200b1619462004c79565b90606482101562004c30576200b17e9142906106c3015562004c12565b6200b13c565b5050906000905b602081015180518310156200fe7557826200b1a69162004c79565b51602081015160268110156200294257156200a54f576020810151602681101562002942576001036200b77057604001906200b1e760c08351015162004c22565b51936200b1fe60a0620077f0818651015162004c22565b51916200b20f86518551146202cca5565b6200b21e86518451146202cd0b565b60005b86518110156200b377576200b237818662004c79565b51606481101562004c3057600160ff61039f6200b25d9360031b0154161515146202cd6d565b6200b269818562004c79565b516200b276828762004c79565b5190606482101562004c305761039e6200b2969260031b0154906200606a565b906200b2a3838862004c79565b5191606483101562004c305761039e6200b2c29360031b01556202cdc5565b6200b2ce818562004c79565b516200b2db828762004c79565b5190606482101562004c30576200b31d9161039b906001600160a01b036200b304868d62004c79565b511660005260031b01602052604060002054906200606a565b91906200b32b828862004c79565b5190606482101562004c30576200b3719362000ef09261039b906001600160a01b036200b359878f62004c79565b511660005260031b016020526040600020556202ce24565b6200b221565b50926200b38e919250620084c590959495620312cf565b916040516200b39d8162002a5e565b6000815260003681376000945b80518610156200b756576200b3c0868262004c79565b516107a0526200b3d1855162004d95565b966000946200b3e1845162004d95565b6103805260009460005b88518110156200b4b2578a896200b41b6001600160a01b036200b40f858462004c79565b51166107a0516203110f565b15806200b46b575b6200b43c575b50506200b4369062004c12565b6200b3eb565b986200b4609162001a9c82859c62007f886200b4369760018060a01b039262004c79565b9790508a896200b429565b50505060646107a051101562004c30576001600160a01b036200b48f828b62004c79565b511660005261039b6107a05160031b016020528a8960406000205415156200b423565b50909895979498969291939660005b88518110156200b54f5760646107a051101562004c30576001600160a01b03806200b4ed838c62004c79565b511660005261039b6107a05160031b01602052604060002054156200b51f575b506200b5199062004c12565b6200b4c1565b819b6200b547916200b5366200b519948d62004c79565b511662001a9c826103805162004c79565b9a906200b50d565b509850969592919093966107a0516064811015806104805262004c305760031b61039c0154986200b585620080b6898c62006271565b6108005260006102005260006107c0525b6104805162004c30576107c0518a8110156200b65f576200b5cc6200b5ec9160006104805261039c6107a05160031b0162004e91565b9054610380516001600160a01b03939260031b9190911c83169062031166565b156200b60c575b506200b6026107c05162004c12565b6107c0526200b596565b6000610480526200b62b6107c05161039c6107a05160031b0162004e91565b90549060031b1c166200b645610200516108005162004c79565b526200b6546102005162004c12565b61020052386200b5f3565b50979294959093985095909560005b8281106200b70a575050506104805162004c305761080051516001600160401b038111620029ba576200b6ac8161039c6107a05160031b0162004fcd565b6020610800510161039c6107a05160031b01600052602060002060005b8381106200b6ec57505050506200b6e09062004c12565b9492959091956200b3aa565b82516001600160a01b0316818301556020909201916001016200b6c9565b6200b750906001600160a01b036200b723828562004c79565b51166200b737610200516108005162004c79565b526200b7466102005162004c12565b6102005262004c12565b6200b66e565b5050939092506200b768915062004c12565b90916200b18b565b906020829493940151602681101562002942576002036200b921576040809201908151938451916200b7c76200b7ab60a08098015162004c22565b51966200b7bc818751015162004c46565b519551015162004c57565b5194835187510362007c2557835185510362007bd157835186510362007b7a575060005b86518110156200b90e576200b801818862004c79565b51606481101562004c305760ff61039f6200b8239260031b015416156202ce7d565b6200b82f818862004c79565b51606481101562004c305760031b61039f01805460ff191660011790556200b858818562004c79565b516200b865828962004c79565b5190606482101562004c305761039d6200b8839260031b0162005659565b6200b88f818662004c79565b516200b89c828962004c79565b51606481101562004c305760031b61039901556200b8bb818762004c79565b516200b8c8828962004c79565b51606481101562004c305760031b61039a01556200b8e7818862004c79565b5190606482101562004c3057600061039e6200b9089360031b015562004c12565b6200b7eb565b509592509350506200b768915062004c12565b9092916020840151602681101562002942576003036200bf3f5760408401906200b95060c08351015162004c22565b51906200b96760a0620077f0818651015162004c22565b51936200b97c835185511462000ee962031533565b6200b98f835186511462000ee962031533565b60005b83518110156200b9ec576200b9a8818662004c79565b5190606482101562004c305761039b6200b9e69260018060a01b038b511660005260031b0160205262000ef060406000205462007d3b838a62004c79565b6200b992565b509095919560005b87518110156200bb36576200ba0a818662004c79565b51606481101562004c305761039b9060018060a01b0386511660005260031b016020526200ba4360406000205462007da7838962004c79565b906200ba50838862004c79565b5191606483101562004c305761039b6200ba889360018060a01b0389511660005260031b0160205260406000205562000ee962031637565b6200ba94818662004c79565b51606481101562004c305761039b906001600160a01b036200bab7848c62004c79565b511660005260031b016020526200bad96040600020546200685b838962004c79565b91906200bae7828862004c79565b5190606482101562004c30576200bb309361039b62000ef0938d6200bb148760018060a01b039262004c79565b511660005260031b0160205260406000205562000ee96203169c565b6200b9f4565b50926200bb55919294506200bb4e90969596620312cf565b94620311b3565b92604051906200bb658262002a97565b6001825260203681840137516001600160a01b03166200bb858262004c22565b526000945b80518610156200b756576200bba0868262004c79565b51610580526200bbb1855162004d95565b966000946200bbc1845162004d95565b6106a05260009460005b88518110156200bc92578a896200bbfb6001600160a01b036200bbef858462004c79565b5116610580516203110f565b15806200bc4b575b6200bc1c575b50506200bc169062004c12565b6200bbcb565b986200bc409162001a9c82859c62007f886200bc169760018060a01b039262004c79565b9790508a896200bc09565b505050606461058051101562004c30576001600160a01b036200bc6f828b62004c79565b511660005261039b6105805160031b016020528a8960406000205415156200bc03565b50909895979498969291939660005b88518110156200bd3657606461058051101562004c30576001600160a01b036200bccc828b62004c79565b511660005261039b6105805160031b01602052604060002054156200bcfd575b6200bcf79062004c12565b6200bca1565b996200bcf7906200bd2d906001600160a01b036200bd1c8e8d62004c79565b511662001a9c826106a05162004c79565b9a90506200bcec565b50985096959291909396610580516064811015806105005262004c305760031b61039c0154986200bd6c620080b6898c62006271565b6105205260006105c05260006106e0525b6105005162004c30576106e0518a8110156200be48576200bdb36200bdd09160006105005261039c6105805160031b0162004e91565b90546106a05160039290921b1c6001600160a01b03169062031166565b156200bdef575b6200bde56106e05162004c12565b6106e0526200bd7d565b6000610500526200be0e6106e05161039c6105805160031b0162004e91565b60018060a01b0391549060031b1c166200be2f6105c0516105205162004c79565b526200be3e6105c05162004c12565b6105c0526200bdd7565b50979294959093985095909560005b8281106200bef3575050506105005162004c305761052051516001600160401b038111620029ba576200be958161039c6105805160031b0162004fcd565b6020610520510161039c6105805160031b01600052602060002060005b8381106200bed557505050506200bec99062004c12565b9492959091956200bb8a565b82516001600160a01b0316818301556020909201916001016200beb2565b6200bf39906001600160a01b036200bf0c828562004c79565b51166200bf206105c0516105205162004c79565b526200bf2f6105c05162004c12565b6105c05262004c12565b6200be57565b90926020810151602681101562002942576004036200c5645760400160c0936200bf7d6200bf71868451015162004c22565b51958351015162004c46565b51906200bf9460a0620077f0818651015162004c22565b51936200bfa9875184511462000ee962031533565b6200bfbc875185511462000ee962031533565b6200bfcf875186511462000ee962031533565b60005b87518110156200c039576200bfe8818662004c79565b5190606482101562004c30576200c0339161039b906001600160a01b036200c011848d62004c79565b511660005260031b0160205262000ef060406000205462007d3b838a62004c79565b6200bfd2565b509095919593929360005b83518110156200c198576200c05a818762004c79565b51606481101562004c305761039b906001600160a01b036200c07d848862004c79565b511660005260031b016020526200c09f60406000205462007da7838862004c79565b906200c0ac838962004c79565b5191606483101562004c30576200c0f19261039b906001600160a01b036200c0d5878b62004c79565b511660005260031b0160205260406000205562000ee962031637565b6200c0fd818762004c79565b51606481101562004c305761039b906001600160a01b036200c120848c62004c79565b511660005260031b016020526200c1426040600020546200685b838862004c79565b9190506200c151818862004c79565b5191606483101562004c30576200c1929261039b906001600160a01b036200c17a858e62004c79565b511660005260031b0160205260406000205562004c12565b6200c044565b5091936200c1b491935062007e98620084c591979697620312cf565b6000945b80518610156200b756576200c1ce868262004c79565b51610860526200c1df855162004d95565b966000946200c1ef845162004d95565b6107605260009460005b88518110156200c2c0578a896200c2296001600160a01b036200c21d858462004c79565b5116610860516203110f565b15806200c279575b6200c24a575b50506200c2449062004c12565b6200c1f9565b986200c26e9162001a9c82859c62007f886200c2449760018060a01b039262004c79565b9790508a896200c237565b505050606461086051101562004c30576001600160a01b036200c29d828b62004c79565b511660005261039b6108605160031b016020528a8960406000205415156200c231565b50909895979498969291939660005b88518110156200c35d57606461086051101562004c30576001600160a01b03806200c2fb838c62004c79565b511660005261039b6108605160031b01602052604060002054156200c32d575b506200c3279062004c12565b6200c2cf565b819b6200c355916200c3446200c327948d62004c79565b511662001a9c826107605162004c79565b9a906200c31b565b50985096959291909396610860516064811015806108e05262004c305760031b61039c0154986200c393620080b6898c62006271565b6103005260006103e0526000610840525b6108e05162004c3057610840518a8110156200c46d576200c3da6200c3fa9160006108e05261039c6108605160031b0162004e91565b9054610760516001600160a01b03939260031b9190911c83169062031166565b156200c41a575b506200c4106108405162004c12565b610840526200c3a4565b60006108e0526200c4396108405161039c6108605160031b0162004e91565b90549060031b1c166200c4536103e0516103005162004c79565b526200c4626103e05162004c12565b6103e052386200c401565b50979294959093985095909560005b8281106200c518575050506108e05162004c305761030051516001600160401b038111620029ba576200c4ba8161039c6108605160031b0162004fcd565b6020610300510161039c6108605160031b01600052602060002060005b8381106200c4fa57505050506200c4ee9062004c12565b9492959091956200c1b8565b82516001600160a01b0316818301556020909201916001016200c4d7565b6200c55e906001600160a01b036200c531828562004c79565b51166200c5456103e0516103005162004c79565b526200c5546103e05162004c12565b6103e05262004c12565b6200c47c565b92906020840151602681101562002942576005036200cb0a5760408401906200c59760a06200852e818551015162004c22565b519282518451036200cab85760005b83518110156200c600576200c5bc818562004c79565b5190606482101562004c305761039b6200c5fa9260018060a01b038a511660005260031b0160205262000ef060406000205462007d3b838962004c79565b6200c5a6565b509060005b83518110156200c6a5576200c61b818562004c79565b51606481101562004c305761039b9060018060a01b0389511660005260031b016020526200c65460406000205462007da7838862004c79565b91906200c662828762004c79565b5190606482101562004c30576200c69f9361039b62000ef09360018060a01b038d511660005260031b0160205260406000205562000ee962031637565b6200c605565b50916200c6b69194959350620312cf565b92604051926200c6c68462002a97565b6001845260203681860137516001600160a01b03166200c6e68462004c22565b52604051926200c6f68462002a5e565b6000845260003681376000945b80518610156200b756576200c719868262004c79565b51610640526200c72a855162004d95565b966000946200c73a845162004d95565b6104a05260009460005b88518110156200c80b578a896200c7746001600160a01b036200c768858462004c79565b5116610640516203110f565b15806200c7c4575b6200c795575b50506200c78f9062004c12565b6200c744565b986200c7b99162001a9c82859c62007f886200c78f9760018060a01b039262004c79565b9790508a896200c782565b505050606461064051101562004c30576001600160a01b036200c7e8828b62004c79565b511660005261039b6106405160031b016020528a8960406000205415156200c77c565b50909895979498969291939660005b88518110156200c8af57606461064051101562004c30576001600160a01b036200c845828b62004c79565b511660005261039b6106405160031b01602052604060002054156200c876575b6200c8709062004c12565b6200c81a565b996200c870906200c8a6906001600160a01b036200c8958e8d62004c79565b511662001a9c826104a05162004c79565b9a90506200c865565b50985096959291909396610640516064811015806104405262004c305760031b61039c0154986200c8e5620080b6898c62006271565b610540526000610360526000610460525b6104405162004c3057610460518a8110156200c9c1576200c92c6200c9499160006104405261039c6106405160031b0162004e91565b90546104a05160039290921b1c6001600160a01b03169062031166565b156200c968575b6200c95e6104605162004c12565b610460526200c8f6565b6000610440526200c9876104605161039c6106405160031b0162004e91565b60018060a01b0391549060031b1c166200c9a8610360516105405162004c79565b526200c9b76103605162004c12565b610360526200c950565b50979294959093985095909560005b8281106200ca6c575050506104405162004c305761054051516001600160401b038111620029ba576200ca0e8161039c6106405160031b0162004fcd565b6020610540510161039c6106405160031b01600052602060002060005b8381106200ca4e57505050506200ca429062004c12565b9492959091956200c703565b82516001600160a01b0316818301556020909201916001016200ca2b565b6200cab2906001600160a01b036200ca85828562004c79565b51166200ca99610360516105405162004c79565b526200caa86103605162004c12565b6103605262004c12565b6200c9d0565b60405162461bcd60e51b8152602060048201526035602482015260008051602062031b08833981519152604482015274195b905b5bdd5b9d081a5cc81b9bdd08195c5d585b605a1b6064820152608490fd5b926020810151602681101562002942576006036200d0ed576040016200cb3560c08251015162004c22565b51936200cb4c60a06200852e818551015162004c22565b519285518351036200d09b5785518451036200d04e5760005b86518110156200cbcc576200cb7b818562004c79565b5190606482101562004c30576200cbc69161039b906001600160a01b036200cba4848c62004c79565b511660005260031b0160205262000ef060406000205462007d3b838962004c79565b6200cb65565b509060005b86518110156200cc6e576200cbe7818562004c79565b51606481101562004c305761039b906001600160a01b036200cc0a848b62004c79565b511660005260031b016020526200cc2c60406000205462007da7838862004c79565b91906200cc3a828762004c79565b5190606482101562004c30576200cc689362000ef09261039b906001600160a01b036200c0d5878f62004c79565b6200cbd1565b50916200cc85919350620084c590959495620312cf565b91604051926200cc958462002a5e565b6000845260003681376000945b80518610156200b756576200ccb8868262004c79565b51610420526200ccc9855162004d95565b966000946200ccd9845162004d95565b6102e05260009460005b88518110156200cdaa578a896200cd136001600160a01b036200cd07858462004c79565b5116610420516203110f565b15806200cd63575b6200cd34575b50506200cd2e9062004c12565b6200cce3565b986200cd589162001a9c82859c62007f886200cd2e9760018060a01b039262004c79565b9790508a896200cd21565b505050606461042051101562004c30576001600160a01b036200cd87828b62004c79565b511660005261039b6104205160031b016020528a8960406000205415156200cd1b565b50909895979498969291939660005b88518110156200ce4757606461042051101562004c30576001600160a01b03806200cde5838c62004c79565b511660005261039b6104205160031b01602052604060002054156200ce17575b506200ce119062004c12565b6200cdb9565b819b6200ce3f916200ce2e6200ce11948d62004c79565b511662001a9c826102e05162004c79565b9a906200ce05565b50985096959291909396610420516064811015806107405262004c305760031b61039c0154986200ce7d620080b6898c62006271565b6102c05260006101c0526000610600525b6107405162004c3057610600518a8110156200cf57576200cec46200cee49160006107405261039c6104205160031b0162004e91565b90546102e0516001600160a01b03939260031b9190911c83169062031166565b156200cf04575b506200cefa6106005162004c12565b610600526200ce8e565b6000610740526200cf236106005161039c6104205160031b0162004e91565b90549060031b1c166200cf3d6101c0516102c05162004c79565b526200cf4c6101c05162004c12565b6101c052386200ceeb565b50979294959093985095909560005b8281106200d002575050506107405162004c30576102c051516001600160401b038111620029ba576200cfa48161039c6104205160031b0162004fcd565b60206102c0510161039c6104205160031b01600052602060002060005b8381106200cfe457505050506200cfd89062004c12565b9492959091956200cca2565b82516001600160a01b0316818301556020909201916001016200cfc1565b6200d048906001600160a01b036200d01b828562004c79565b51166200d02f6101c0516102c05162004c79565b526200d03e6101c05162004c12565b6101c05262004c12565b6200cf66565b60405162461bcd60e51b8152602060048201526030602482015260008051602062031e6883398151915260448201526f1b9d1cc81a5cc81b9bdd08195c5d585b60821b6064820152608490fd5b60405162461bcd60e51b8152602060048201526035602482015260008051602062031aa88339815191526044820152741b90db185cdcd95cc81a5cc81b9bdd08195c5d585b605a1b6064820152608490fd5b602081949293940151602681101562002942576007036200d28857604001916200d11c60c08451015162004c22565b51916200d12e60a08551015162004c22565b51935151916200d146845186511462000ee962031533565b60005b84518110156200d276576001600160a01b03806200d168838862004c79565b51166000526106b8806020526200d18c60ff604060002054161562000ee962031604565b60026200d19a848862004c79565b516200d2046200d1ab868c62004c79565b519162008a978b604051966200d1c1886200299e565b60018852886200d1e88b60208b01946000865260408c0197885260608c01998a5262004c79565b511660005260205262008a8d604060002097511515886200572c565b519101556200d214828762004c79565b516106b954929116600160401b831015620029ba5760018301806106b95583101562004c30576106b960005260008051602062031ca883398151915290920180546001600160a01b0319169092179091556200d2709062004c12565b6200d149565b5094915092506200b768915062004c12565b6020810151602681101562002942576008036200d3765760c060406200d2b2920151015162004c22565b519160005b83518110156200d367576200d361906001600160a01b03806200d2db838862004c79565b51166000526106b890816020526200d304600160ff6040600020541615151462000ee962031563565b806200d311848962004c79565b5116600052816020526200d33560ff60406000205460081c161562000ee9620315cb565b6200d341838862004c79565b5116600052602052604060002061010061ff001982541617905562004c12565b6200d2b7565b50926200b76891925062004c12565b6020810151602681101562002942576009036200d4555760c060406200d3a0920151015162004c22565b519160005b83518110156200d367576200d44f906001600160a01b03806200d3c9838862004c79565b51166000526106b890816020526200d3f2600160ff6040600020541615151462000ee962031563565b806200d3ff848962004c79565b5116600052816020526200d427600160ff60406000205460081c1615151462000ee962031596565b6200d433838862004c79565b5116600052602052604060002061ff0019815416905562004c12565b6200d3a5565b602081015160268110156200294257600a036200d53d57604001906200d49160a06200d48660c08551015162004c22565b519351015162004c22565b51926200d4a6835185511462000ee962031533565b60005b83518110156200d52c576200d526906001600160a01b03806200d4cd838862004c79565b51166000526106b8806020526200d4f5600160ff6040600020541615151462000ee962031563565b6200d501838962004c79565b51916200d50f848962004c79565b511660005260205260026040600020015562004c12565b6200d4a9565b50939092506200b768915062004c12565b60208194939294015160268110156200294257600b036200d61d57604001926200d56c60c08551015162004c22565b51935151916200d584855184511462000ee962031533565b60005b85518110156200d60d576200d6079062000ef06001600160a01b03806200d5af848b62004c79565b51166000526106b8806020526200d5d7600160ff6040600020541615151462000ee962031563565b6200d5e3848962004c79565b51916200d5f1858c62004c79565b5116600052602052600160406000200162005659565b6200d587565b509350916200b768915062004c12565b909192602082015160268110156200294257600c036200d76857606060408301510151926200d64c846202c2eb565b60005b84518110156200d52c5760e06200d66f8260606040880151015162004c79565b510151156200d6f3576200d6976200d6908260606040880151015162004c79565b5162005cf2565b6106ba548060001981011162001de8576200d6b86005916000190162005c40565b5001805461ff0019166101001790556106ba54906000198201821062001de857600562008efb6200d6ed936000190162005c40565b6200d64f565b6200d7126200d70b8260606040880151015162004c79565b5162005ccf565b6106bb548060001981011162001de8576200d7336005916000190162005c00565b5001805461ff0019166101001790556106bb54906000198201821062001de857600562008efb6200d6ed936000190162005c00565b929190602081015160268110156200294257600d036200d8af576040019260206200d79860a08651015162004c22565b5194510151916200d7ad85518451146202c9e4565b60005b85518110156200d60d57806200d7cb6200d844928662004c79565b51156200d84a576200d7ee6200d7e2828962004c79565b516106ba54116202ca6d565b6200d81a60ff60056200d80d6200d806858c62004c79565b5162005c40565b50015460081c166202cac5565b6200d83260ff6005620090576200d806858c62004c79565b6005620090736200d806838a62004c79565b6200d7b0565b6200d8666200d85a828962004c79565b516106bb54116202ca6d565b6200d88560ff60056200d80d6200d87e858c62004c79565b5162005c00565b6200d89d60ff6005620090576200d87e858c62004c79565b6005620090736200d87e838a62004c79565b602081015160268110156200294257600e036200d9e5576040019260206200d8dc60a08651015162004c22565b5194510151916200d8f185518451146202c9e4565b60005b85518110156200d60d57806200d90f6200d981928662004c79565b51156200d987576200d9326200d926828962004c79565b516106ba54116202cb87565b6200d95760ff60056200d94a6200d806858c62004c79565b50015460081c166202cbe0565b6200d96f60ff6005620091af6200d806858c62004c79565b600562008efb6200d806838a62004c79565b6200d8f4565b6200d9a36200d997828962004c79565b516106bb54116202cb87565b6200d9bb60ff60056200d94a6200d87e858c62004c79565b6200d9d360ff6005620091af6200d87e858c62004c79565b600562008efb6200d87e838a62004c79565b909192602082015160268110156200294257600f036200db2257606060408301510151926200da14846202c2eb565b60005b84518110156200d52c5760e06200da378260606040880151015162004c79565b510151156200dab4576200da586200d6908260606040880151015162004c79565b6106ba548060001981011162001de8576200da796005916000190162005c40565b5001805461ff0019166101001790556106ba54906000198201821062001de8576005620090736200daae936000190162005c40565b6200da17565b6200dacc6200d70b8260606040880151015162004c79565b6106bb548060001981011162001de8576200daed6005916000190162005c00565b5001805461ff0019166101001790556106bb54906000198201821062001de8576005620090736200daae936000190162005c00565b9291906020810151602681101562002942576010036200dc675760400151926200db5560a0608086015195015162004c22565b51916200db6a855184511462000ee962031533565b60005b85518110156200d60d57806200db886200dbfd928862004c79565b516200db948162002edc565b6200dba0828762004c79565b51906200dbad8162002edc565b6200dbc46200dbbb62031666565b82151562004bdf565b6200dbcf8162002edc565b600181036200dc0357506200dbf36200dbe762031666565b61271083111562004bdf565b6107275562004c12565b6200db6d565b6200dc0e8162002edc565b600281036200dc2257506107285562004c12565b6200dc2d8162002edc565b600381036200dc4157506107295562004c12565b806200dc4f60049262002edc565b146200dc5c575062004c12565b61072a553862009e21565b6020810151602681101562002942576011036200df0a57604001906200dc9860a06200d48660c08551015162004c22565b51936200dca983518651146202c163565b60005b83518110156200dd29576200dd23906200dd036001600160a01b03806200dcd4848962004c79565b51166000526106bd90816020526200dcf76040600020546200685b868d62004c79565b939062000ee9620314e9565b6200dd0f848962004c79565b511660005260205260406000205562004c12565b6200dcac565b509350906200dd3890620311b3565b906106be54936200dd4f620080b684518762006271565b9060009260005b8781106200deca575060005b85518110156200de17576000805b8981106200ddc8575b50156200dd92575b6200dd8c9062004c12565b6200dd62565b936200dd8c906200ddbf906001600160a01b036200ddb1888a62004c79565b511662001a9c828862004c79565b9490506200dd81565b6200ddd38162004e59565b90546001600160a01b0360039290921b1c8116906200ddf3858b62004c79565b5116146200de0c576200de069062004c12565b6200dd70565b50506001386200dd79565b5095509392506200de288262004d95565b8051906001600160401b038211620029ba576020906200de488362004f74565b016106be600052602060002060005b8381106200deac575050505060005b8281106200de7c575050506200b7689062004c12565b6200dea69062000ef06001600160a01b036200de99838662004c79565b5116620019dd8362004e59565b6200de66565b82516001600160a01b0316818301556020909201916001016200de57565b936200defd6200df04916200dedf8762004e59565b905460039190911b1c6001600160a01b031662001a9c828862004c79565b9462004c12565b6200dd56565b6020819492940151602681101562002942576012036200e14e57604001906200df3e60a06200d48660c08551015162004c22565b51936200df4f83518651146202c163565b60005b83518110156200dfa3576200df9d906200dd036001600160a01b03806200df7a848962004c79565b51166000526106bd90816020526200dcf760406000205462007da7868d62004c79565b6200df52565b50935091906200dfb390620311b3565b6106be546200dfc28162004d95565b906000926000915b8083106200e075575050506200dfe08262004d95565b8051906001600160401b038211620029ba576020906200e0008362004f74565b016106be600052602060002060005b8381106200e057575050505060005b8281106200e034575050506200b7689062004c12565b6200e0519062000ef06001600160a01b036200de99838662004c79565b6200e01e565b82516001600160a01b0316818301556020909201916001016200e00f565b91956000959193959760005b85518110156200e13f576200e0968962004e59565b90546001600160a01b0360039290921b1c8116906200e0b6838962004c79565b5116146200e0cf576200e0c99062004c12565b6200e081565b509750956001959391955b806200e10e575b156200e0f9576200e0f29062004c12565b916200dfca565b936200defd6200e0f2916200dedf8762004e59565b506200e11a8162004e59565b60018060a01b0391549060031b1c166000526106bd602052604060002054156200e0e1565b5097969096959391956200e0da565b6020819493940151602681101562002942576013036200e1ef5760408091015101519160005b83518110156200d367576200e18a818562004c79565b51906106bc54600160401b811015620029ba5760018101806106bc5581101562004c30576106bc6000526200e1e99262000ef0916007027f0487500372b3cc67c23af8f14e14f40d94d05acb10821fef30e703b5df87397d016202de6d565b6200e174565b602081949392940151602681101562002942576014036200e72a57604001906200e21e60c08351015162004c22565b51936200e23560a0620077f0818651015162004c22565b51916200e24686518551146202cca5565b6200e25586518451146202cd0b565b60005b86518110156200e34b576200e26e818562004c79565b516200e27b828762004c79565b5190606482101562004c305761039e6200e29b9260031b0154906200606a565b906200e2a8838862004c79565b5191606483101562004c305761039e6200e2c79360031b01556202cdc5565b6200e2d3818562004c79565b516200e2e0828762004c79565b5190606482101562004c30576200e3099161039b906001600160a01b036200b304868d62004c79565b91906200e317828862004c79565b5190606482101562004c30576200e3459362000ef09261039b906001600160a01b036200b359878f62004c79565b6200e258565b50926200e362919250620084c590959495620312cf565b916040516200e3718162002a5e565b6000815260003681376000945b80518610156200b756576200e394868262004c79565b516107e0526200e3a5855162004d95565b966000946200e3b5845162004d95565b6105e05260009460005b88518110156200e486578a896200e3ef6001600160a01b036200e3e3858462004c79565b51166107e0516203110f565b15806200e43f575b6200e410575b50506200e40a9062004c12565b6200e3bf565b986200e4349162001a9c82859c62007f886200e40a9760018060a01b039262004c79565b9790508a896200e3fd565b50505060646107e051101562004c30576001600160a01b036200e463828b62004c79565b511660005261039b6107e05160031b016020528a8960406000205415156200e3f7565b50909895979498969291939660005b88518110156200e5235760646107e051101562004c30576001600160a01b03806200e4c1838c62004c79565b511660005261039b6107e05160031b01602052604060002054156200e4f3575b506200e4ed9062004c12565b6200e495565b819b6200e51b916200e50a6200e4ed948d62004c79565b511662001a9c826105e05162004c79565b9a906200e4e1565b509850969592919093966107e0516064811015806104e05262004c305760031b61039c0154986200e559620080b6898c62006271565b6107005260006103c0526000610820525b6104e05162004c3057610820518a8110156200e633576200e5a06200e5c09160006104e05261039c6107e05160031b0162004e91565b90546105e0516001600160a01b03939260031b9190911c83169062031166565b156200e5e0575b506200e5d66108205162004c12565b610820526200e56a565b60006104e0526200e5ff6108205161039c6107e05160031b0162004e91565b90549060031b1c166200e6196103c0516107005162004c79565b526200e6286103c05162004c12565b6103c052386200e5c7565b50979294959093985095909560005b8281106200e6de575050506104e05162004c305761070051516001600160401b038111620029ba576200e6808161039c6107e05160031b0162004fcd565b6020610700510161039c6107e05160031b01600052602060002060005b8381106200e6c057505050506200e6b49062004c12565b9492959091956200e37e565b82516001600160a01b0316818301556020909201916001016200e69d565b6200e724906001600160a01b036200e6f7828562004c79565b51166200e70b6103c0516107005162004c79565b526200e71a6103c05162004c12565b6103c05262004c12565b6200e642565b926020840151602681101562002942576015036200ed235760408401906200e75760c08351015162004c22565b51906200e76e60a0620077f0818651015162004c22565b51936200e783835185511462000ee962031533565b6200e796835186511462000ee962031533565b60005b83518110156200e7f3576200e7af818662004c79565b5190606482101562004c305761039b6200e7ed9260018060a01b038b511660005260031b0160205262000ef060406000205462007d3b838a62004c79565b6200e799565b509095919560005b87518110156200e921576200e811818662004c79565b51606481101562004c305761039b9060018060a01b0386511660005260031b016020526200e84a60406000205462007da7838962004c79565b906200e857838862004c79565b5191606483101562004c305761039b6200e88f9360018060a01b0389511660005260031b0160205260406000205562000ee962031637565b6200e89b818662004c79565b51606481101562004c305761039b906001600160a01b036200e8be848c62004c79565b511660005260031b016020526200e8e06040600020546200685b838962004c79565b91906200e8ee828862004c79565b5190606482101562004c30576200e91b9361039b62000ef0938d6200bb148760018060a01b039262004c79565b6200e7fb565b50926200e939919294506200bb4e90969596620312cf565b92604051906200e9498262002a97565b6001825260203681840137516001600160a01b03166200e9698262004c22565b526000945b80518610156200b756576200e984868262004c79565b51610680526200e995855162004d95565b966000946200e9a5845162004d95565b6103405260009460005b88518110156200ea76578a896200e9df6001600160a01b036200e9d3858462004c79565b5116610680516203110f565b15806200ea2f575b6200ea00575b50506200e9fa9062004c12565b6200e9af565b986200ea249162001a9c82859c62007f886200e9fa9760018060a01b039262004c79565b9790508a896200e9ed565b505050606461068051101562004c30576001600160a01b036200ea53828b62004c79565b511660005261039b6106805160031b016020528a8960406000205415156200e9e7565b50909895979498969291939660005b88518110156200eb1a57606461068051101562004c30576001600160a01b036200eab0828b62004c79565b511660005261039b6106805160031b01602052604060002054156200eae1575b6200eadb9062004c12565b6200ea85565b996200eadb906200eb11906001600160a01b036200eb008e8d62004c79565b511662001a9c826103405162004c79565b9a90506200ead0565b50985096959291909396610680516064811015806103a05262004c305760031b61039c0154986200eb50620080b6898c62006271565b6102405260006107805260006106c0525b6103a05162004c30576106c0518a8110156200ec2c576200eb976200ebb49160006103a05261039c6106805160031b0162004e91565b90546103405160039290921b1c6001600160a01b03169062031166565b156200ebd3575b6200ebc96106c05162004c12565b6106c0526200eb61565b60006103a0526200ebf26106c05161039c6106805160031b0162004e91565b60018060a01b0391549060031b1c166200ec13610780516102405162004c79565b526200ec226107805162004c12565b610780526200ebbb565b50979294959093985095909560005b8281106200ecd7575050506103a05162004c305761024051516001600160401b038111620029ba576200ec798161039c6106805160031b0162004fcd565b6020610240510161039c6106805160031b01600052602060002060005b8381106200ecb957505050506200ecad9062004c12565b9492959091956200e96e565b82516001600160a01b0316818301556020909201916001016200ec96565b6200ed1d906001600160a01b036200ecf0828562004c79565b51166200ed04610780516102405162004c79565b526200ed136107805162004c12565b6107805262004c12565b6200ec3b565b9091926020810151602681101562002942576016036200edd55760c060406200ed50920151015162004c22565b519160005b83518110156200d367576001600160a01b036200ed73828662004c79565b5161072b54929116600160401b831015620029ba57600183018061072b5583101562004c305761072b60005260008051602062031b6883398151915290920180546001600160a01b0319169092179091556200edcf9062004c12565b6200ed55565b6020810151602681101562002942576017036200ee325760405162461bcd60e51b8152602060048201526029602482015260008051602062031d688339815191526044820152683632b6b2b73a32b21760b91b6064820152608490fd5b6020810151602681101562002942576018036200eef05760c060406200ee5c920151015162004c22565b5191600160ff1961072e54161761072e5560005b83518110156200d367576001600160a01b036200ee8e828662004c79565b5161072d54929116600160401b831015620029ba57600183018061072d5583101562004c305761072d60005260008051602062031ac883398151915290920180546001600160a01b0319169092179091556200eeea9062004c12565b6200ee70565b602081949293940151602681101562002942576019036200ef18575b506200b7689062004c12565b602081015160268110156200294257601a036200f08f5760a060406200ef42920151015162004c22565b51906200ef5360038351146202c163565b6200ef5e8262004c22565b516200ef6e62009dba8462004c46565b51926200f053576200b768926001036200f04c576200ef956200eff391610729546200606a565b61072955604051906200efa88262002a26565b603282527f6469766964656e6461626c652062616c616e6365206f766572666c6f772077686020830152710cadc40e0e4dec6cae6e6d2dcce40c6c2e6d60731b604083015262004bdf565b6200f0456200f00561072a5462006057565b61072a55604051906200f0188262002a97565b601a8252796469766964656e647320636f756e746572206f766572666c6f7760301b602083015262004bdf565b906200ef0c565b506200f045565b60405162461bcd60e51b8152602060048201526014602482015273496e76616c6964207061796d656e74207479706560601b6044820152606490fd5b602081015160268110156200294257601b036200f61c57509190610727546200f0bb62009e97620313c0565b61072a546107285411156200f0da6200f0d36203142e565b8262004bdf565b61072954906200f0eb838362005ebb565b50506200f0f762031484565b506000805b606482106200f5cd575b5050906200f1366200f13c93926200f12c6200f121620313c0565b612710861062004bdf565b62000ee96203142e565b62005ebb565b90506200f14862031484565b5060009060005b606481106200f4fa575b50906127106200f16a92046200624f565b90506200f17a6107345462004d95565b906000946000905b60648210156200f4ed578160031b9460ff61039f87015416156200f2d75760009661039a870154156200f2c657600098975b62004c305761039c8701548910156200f2ac576200f1d78961039c890162004e91565b600160a01b6001900391549060031b1c16978860005261039b8801602052604098868a60002054906200f20a9162005ebb565b9a906200f21662031484565b6200f2219162004bdf565b60009a61039a8b01546200f2359162005ebb565b91906200f24162031484565b6200f24c9162004bdf565b826000526106bf602052600020908154906200f268916200606a565b9091556200f27562031484565b6200f2809162004bdf565b6200f28c828962004c79565b526200f2989062004c12565b986200f2a49062004c12565b98976200f1b4565b929095506200f2be9196975062004c12565b90946200f182565b929095506200f2be91965062004c12565b95969392509350505b6200f2eb8262004d95565b9160009160005b8281106200f457575050506106c054916200f312620080b6848462006271565b926000906000905b8082106200f43a57505060005b8381106200f3a45750508251929150506001600160401b038211620029ba576020906200f3548362004f97565b016106c0600052602060002060005b8381106200f38657505050506200b76890600061072955600061072a556200f045565b82516001600160a01b0316818301556020909201916001016200f363565b6000805b8381106200f3f2575b50156200f3ca575b6200f3c49062004c12565b6200f327565b906200f3c4906200f3e9906001600160a01b036200823e858762004c79565b9190506200f3b9565b6001600160a01b03806200f407858862004c79565b5116906200f416838a62004c79565b5116146200f42f576200f4299062004c12565b6200f3a8565b50506001386200f3b1565b90916200824c6200f45091620098248562004e75565b906200f31a565b6000805b8581106200f4a5575b50156200f47d575b6200f4779062004c12565b6200f2f2565b926200f477906200f49c906001600160a01b036200823e878662004c79565b9390506200f46c565b6001600160a01b03806200f4ba858762004c79565b5116906200f4c9838a62004c79565b5116146200f4e2576200f4dc9062004c12565b6200f45b565b50506001386200f464565b939495929150506200f2e0565b90918160039695961b60ff61039f82015416156200f5c15761039a81015461039c8201546000928391825b8184106200f5615750505050620074b66200f558936200f55062000ef0979694620062359462005ebb565b929062005d15565b9493946200f14f565b94929462004c30576200f5ba856200f5b26200f58662000ef09861039c870162004e91565b905460039190911b1c6001600160a01b0316600090815261039b8601602052604081205490966200606a565b979062005edd565b926200f525565b5091909493946200f159565b8160039897981b60ff61039f82015416156200f61257916200a2d4620074b66200f608936200a2c862000ef09661039a6200a2be8762005e5e565b909695966200f0fc565b509695966200f106565b602081015160268110156200294257601c036200f6795760405162461bcd60e51b8152602060048201526029602482015260008051602062031e488339815191526044820152683632b6b2b73a32b21760b91b6064820152608490fd5b602081015160268110156200294257601d036200f69d575b506200b768906200f045565b602081015160268110156200294257601e146200f69157602081015160268110156200294257601f036200f72d5760406200f6db9101515162004c22565b519061072c54600160401b811015620029ba57600181018061072c5581101562004c305761072c6000526200b768926200f7269160008051602062031c088339815191520162005659565b906200f691565b6020810151602681101562002942576020036200f751575b506200b768906200f726565b6020810151602681101562002942576021146200f745576020810151602681101562002942576022036200f7d757506200b7689060ff1961072e541661072e5561072d54600061072d55806200f7ab575b505b906200f745565b61072d6000526200f7d09060008051602062031ac88339815191529081019062004ed6565b386200f7a2565b6020810151602681101562002942576023036200f7fb575b506200b768906200f7a4565b6020810151602681101562002942576024146200f7ef576020810151602681101562002942576025146200f7ef579290916020840151602681101562002942576015036200fe375760408401906200f85860c08351015162004c22565b51906200f86f60a0620077f0818651015162004c22565b51936200f884835185511462000ee962031533565b6200f897835186511462000ee962031533565b60005b83518110156200f8f4576200f8b0818662004c79565b5190606482101562004c305761039b6200f8ee9260018060a01b038b511660005260031b0160205262000ef060406000205462007d3b838a62004c79565b6200f89a565b509095919560005b87518110156200fa22576200f912818662004c79565b51606481101562004c305761039b9060018060a01b0386511660005260031b016020526200f94b60406000205462007da7838962004c79565b906200f958838862004c79565b5191606483101562004c305761039b6200f9909360018060a01b0389511660005260031b0160205260406000205562000ee962031637565b6200f99c818662004c79565b51606481101562004c305761039b906001600160a01b036200f9bf848c62004c79565b511660005260031b016020526200f9e16040600020546200685b838962004c79565b91906200f9ef828862004c79565b5190606482101562004c30576200fa1c9361039b62000ef0938d6200bb148760018060a01b039262004c79565b6200f8fc565b50926200fa3a919294506200bb4e90969596620312cf565b92604051906200fa4a8262002a97565b6001825260203681840137516001600160a01b03166200fa6a8262004c22565b526000945b80518610156200fe24576200fa85868262004c79565b51610660526200fa96855162004d95565b966000946200faa6845162004d95565b6108805260009460005b88518110156200fb77578a896200fae06001600160a01b036200fad4858462004c79565b5116610660516203110f565b15806200fb30575b6200fb01575b50506200fafb9062004c12565b6200fab0565b986200fb259162001a9c82859c62007f886200fafb9760018060a01b039262004c79565b9790508a896200faee565b505050606461066051101562004c30576001600160a01b036200fb54828b62004c79565b511660005261039b6106605160031b016020528a8960406000205415156200fae8565b50909895979498969291939660005b88518110156200fc1b57606461066051101562004c30576001600160a01b036200fbb1828b62004c79565b511660005261039b6106605160031b01602052604060002054156200fbe2575b6200fbdc9062004c12565b6200fb86565b996200fbdc906200fc12906001600160a01b036200fc018e8d62004c79565b511662001a9c826108805162004c79565b9a90506200fbd1565b50985096959291909396610660516064811015806106205262004c305760031b61039c0154986200fc51620080b6898c62006271565b6105a0526000610400526000610280525b6106205162004c3057610280518a8110156200fd2d576200fc986200fcb59160006106205261039c6106605160031b0162004e91565b90546108805160039290921b1c6001600160a01b03169062031166565b156200fcd4575b6200fcca6102805162004c12565b610280526200fc62565b6000610620526200fcf36102805161039c6106605160031b0162004e91565b60018060a01b0391549060031b1c166200fd14610400516105a05162004c79565b526200fd236104005162004c12565b610400526200fcbc565b50979294959093985095909560005b8281106200fdd8575050506106205162004c30576105a051516001600160401b038111620029ba576200fd7a8161039c6106605160031b0162004fcd565b60206105a0510161039c6106605160031b01600052602060002060005b8381106200fdba57505050506200fdae9062004c12565b9492959091956200fa6f565b82516001600160a01b0316818301556020909201916001016200fd97565b6200fe1e906001600160a01b036200fdf1828562004c79565b51166200fe05610400516105a05162004c79565b526200fe146104005162004c12565b6104005262004c12565b6200fd3c565b5050939092506200b7689150906200f7ef565b60405162461bcd60e51b8152602060048201526016602482015275496e76616c6964206f7065726174696f6e207479706560501b6044820152606490fd5b509190506200fe8482620145d6565b929060068110156200294257600281036200feb45760405162461bcd60e51b81528062004c0e60048201620075e4565b6003810362010e4357506107338054600260ff82166200fed48162002937565b1462010dfe5760ff19166002179055610738549060018201821162001de8576001820161073855610324549092600019929060005b86518110156200ff85576200ff2c846200ff24838a62004c79565b511062030c1a565b8460026200ff466200ff3f848b62004c79565b516202de4d565b500154106200ff61575b6200ff5b9062004c12565b6200ff09565b93506200ff5b60026200ff796200ff3f878a62004c79565b5001549490506200ff50565b5090936000199360005b87518110156200fffc576200ffaa856200ff24838b62004c79565b8560036200ffbd6200ff3f848c62004c79565b500154106200ffd8575b6200ffd29062004c12565b6200ff8f565b94506200ffd260036200fff06200ff3f888b62004c79565b5001549590506200ffc7565b509194600191935062010010875162004d95565b6201001c885162004d95565b62010028895162004d95565b90620100358a5162004d95565b9260405197620100458962002a09565b88526020880152604087015260608601526080850152600060a0850152600060c0850152600260e08501526000610100850152016000526107366020526040600020825160018060a01b0381511660018060a01b03198354161782556020810151805190600160401b8211620029ba57600184015482600186015580831062010c3f575b5060200190600184016000526020600020916000905b828210620105de57505050506040620100fe9101516002830162005659565b60208301518051906001600160401b038211620029ba576020600384019162010128848462004fcd565b0190600052602060002060005b838110620105c9575050505060408301518051906001600160401b038211620029ba57602060048401916201016b848462004fcd565b0190600052602060002060005b838110620105b4575050505060608301518051906001600160401b038211620029ba5760206005840191620101ae848462004fcd565b0190600052602060002060005b8381106201059f575050505060808301518051906001600160401b038211620029ba5760206006840191620101f1848462004fcd565b0190600052602060002060005b8381106201058a575050505060a0830151600782015560c0830151600882015560e083015192906009016003841015620029425761010062010256926201025d9560ff8019855416911617835501511515906200573d565b426200606a565b90156201054a576107385460005261073660205280600760406000200155610731556201029b6107385491826000526007604060002001546200606a565b91901562010507576000526107366020528060086040600020015561073255610738546000526009604060002001600260ff1982541617905560005b82518110156201031d578062000ef0620102f662010317938662004c79565b516107385460005261073660205262006c0683600360406000200162004e91565b620102d7565b50906000905b80518210156201050357610738549182600052610736602052620103606201035382600360406000200162004e91565b90549060031b1c6202de4d565b5054936201036e8562004d95565b9460005b818110620104b857505060009260005b8651811015620104865762010398818862004c79565b51946064958681101562004c305760031b60010154620103b9838a62004c79565b51908782101562004c30576006620103d79260031b01549062005ebb565b919015620104435790620103eb916200606a565b959015620104055750620103ff9062004c12565b62010382565b60405162461bcd60e51b8152602060048201526019602482015278746f74616c566f74696e67506f776572206f766572666c6f7760381b6044820152fd5b8660405162461bcd60e51b815260206004820152602060248201527f63757272656e74436c617373566f74696e67506f776572206f766572666c6f776044820152fd5b50945092620104b09262000ef09160005261073660205262006c0683600660406000200162004e91565b909162010323565b620104fd9086600052610736602052620104ea81620104e36201035388600360406000200162004e91565b5062004e91565b90549060031b1c62001a9c828a62004c79565b62010372565b5050565b60405162461bcd60e51b815260206004820152601b60248201527a657865637574696e6720656e642074696d65206f766572666c6f7760281b6044820152606490fd5b60405162461bcd60e51b8152602060048201526018602482015277766f74696e6720656e642074696d65206f766572666c6f7760401b6044820152606490fd5b600190602084519401938184015501620101fe565b600190602084519401938184015501620101bb565b60019060208451940193818401550162010178565b60019060208451940193818401550162010135565b805180518554602083015190916001600160a01b031690602681101562002942576001600160a81b03199092161760a09190911b60ff60a01b16178555604001518051805190600187019060209062010638848462005361565b01906000526020600020906000905b83821062010c1f5750505050602081015180516001600160401b038111620029ba57602060028801926201067c838562030721565b019160005260206000209060005b8160051c811062010be35750601f198116810362010b9e575b5050506040810151805190600160401b8211620029ba57600387015482600389015580831062010b16575b50602001600387016000526020600020906000905b83821062010af557505050506060810151805190600160401b8211620029ba57600487015482600489015580831062010a74575b50602001600487016000526020600020906000905b83821062010a535750505050608081015180516001600160401b038111620029ba576020600588019262010761838562030721565b019160005260206000209060005b8160051c811062010a145750601f1981168103620109c6575b5050506006850160a08201516020815191620107a58385620053ef565b019160005260206000206000925b8284106201096257505050506007850160c08201516020815191620107d98385620053ef565b019160005260206000206000925b828410620108f5575050505060e001518051906001600160401b038211620029ba5762010827826201081d600889015462002b98565b600889016200560f565b602090601f83116001146201087a5792826009936020936001966000926201086e575b5050600019600383901b1c191690851b1760088801555b01940191019092620100df565b0151905038806201084a565b906008870160005260206000209160005b601f1985168110620108dc575083602093600196938793600997601f19811610620108c2575b505050811b01600888015562010861565b015160001960f88460031b161c19169055388080620108b1565b919260206001819286850151815501940192016201088b565b80518051906001600160401b038211620029ba5760209062010918838662004fcd565b0183600052602060002060005b83811062010944575050505060016020819201920193019290620107e7565b82516001600160a01b03168183015560209092019160010162010925565b80518051906001600160401b038211620029ba5760209062010985838662004fcd565b0183600052602060002060005b838110620109b1575050505060016020819201920193019290620107b3565b60019060208451940193818401550162010992565b60009260005b601f19831683038110620109ea57505060051c015538808062010788565b9093602062010a0a6001928488519162010a048362002edc565b6203078b565b95019101620109cc565b6000805b6020811062010a2f5750838201556001016201076f565b9490602062010a496001928885519162010a048362002edc565b9201950162010a18565b600660208262010a6760019451876200576f565b019301910190916201072c565b600681810204810362001de857600683810204830362001de8576004880160005260206000208360060281015b826006028201811062010ab657505062010717565b806000600692556000600182015562010ad2600282016200543e565b6000600382015562010ae760048201620052d3565b600060058201550162010aa1565b600760208262010b0960019451876202de6d565b01930191019091620106e3565b600781810204810362001de857600783810204830362001de8576003880160005260206000208360070281015b826007028201811062010b58575050620106ce565b8062010b6660079262004f4d565b6000600182015560006002820155600060038201556000600482015562010b9060058201620052d3565b600060068201550162010b43565b60009260005b601f1983168303811062010bc257505060051c0155388080620106a3565b9093602062010bd96001928488511515916203078b565b9501910162010ba4565b6000805b6020811062010bfe5750838201556001016201068a565b9490602062010c156001928885511515916203078b565b9201950162010be7565b600160208262010c328394518762005659565b0193019101909162010647565b600981810204810362001de857600983810204830362001de8576001850160005260206000208360090281015b826009028201811062010c81575050620100c9565b6000815562010c936001820162005322565b62010ca86002820180549060008155620306f9565b6003810154600060038301558062010d88575b506004810154600060048301558062010d19575b508062010ce860056009930180549060008155620306f9565b62010cf660068201620053b0565b62010d0460078201620053b0565b62010d1260088201620052d3565b0162010c6c565b600681810204810362001de857600482016000526020600020906006028101905b81811062010d49575062010ccf565b806000600692556000600182015562010d65600282016200543e565b6000600382015562010d7a60048201620052d3565b600060058201550162010d3a565b600781810204810362001de857600382016000526020600020906007028101905b81811062010db8575062010cbb565b8062010dc660079262004f4d565b6000600182015560006002820155600060038201556000600482015562010df060058201620052d3565b600060068201550162010da9565b60405162461bcd60e51b815260206004820152601d60248201527f766f74696e6720697320616c726561647920696e2070726f67726573730000006044820152606490fd5b6005919293501462010e525750565b9060008061032a54905b818110620137da575b505015620137be575b60005b602083015190815181101562010ec95762000ef06200771662010ea3620076f66020620067ee8662010ec39862004c79565b86516001600160a01b031660009081526103296020526040902062022f40565b62010e71565b505060005b6020830151805182101562010f1657620076f66020620067ee8462010ef39462004c79565b90606482101562004c305762010f1091429061032b015562004c12565b62010ece565b50506000905b602083015180518310156200a592578262010f379162004c79565b51602081015160268110156200294257156200a54f576020810151602681101562002942576001036201117a576040019062010f7860c08351015162004c22565b519362010f8f60a0620077f0818651015162004c22565b519162010fa086518551146202cca5565b62010faf86518451146202cd0b565b60005b8651811015620111015762010fc8818662004c79565b51606481101562004c3057600160ff600762010fed9360031b0154161515146202cd6d565b62010ff9818562004c79565b5162011006828762004c79565b5190606482101562004c30576006620110259260031b0154906200606a565b9062011032838862004c79565b5191606483101562004c30576006620110509360031b01556202cdc5565b6201105c818562004c79565b5162011069828762004c79565b5190606482101562004c3057620110a9916003906001600160a01b0362011091868d62004c79565b5116600052811b01602052604060002054906200606a565b9190620110b7828862004c79565b5190606482101562004c3057620110fb9362000ef0926003906001600160a01b03620110e4878f62004c79565b5116600052811b016020526040600020556202ce24565b62010fb2565b5094915091620111156201111c91620312cf565b91620311b3565b93604051926201112c8462002a5e565b60008452600036813760005b83518110156201115d578062000ef0620079b662011157938762004c79565b62011138565b509450926020925062011171915062004c12565b91905062010f1c565b9091926020820151602681101562002942576002036201130b57604080920190815193845191620111b46200b7ab60a08098015162004c22565b5194835187510362007c2557835185510362007bd157835186510362007b7a575060005b8651811015620112f557620111ee818862004c79565b51606481101562004c305760ff60076201120f9260031b015416156202ce7d565b6201121b818862004c79565b51606481101562004c305760031b600701805460ff1916600117905562011243818562004c79565b5162011250828962004c79565b5190606482101562004c305760056201126d9260031b0162005659565b62011279818662004c79565b5162011286828962004c79565b51606481101562004c305760031b60010155620112a4818762004c79565b51620112b1828962004c79565b51606481101562004c305760031b60020155620112cf818862004c79565b5190606482101562004c305760006006620112ef9360031b015562004c12565b620111d8565b5095915093506020925062011171915062004c12565b92919060208101516026811015620029425760030362011338576020919262000ef062011171926202cec9565b602081015160268110156200294257600403620115db576201136260c06040830151015162004c22565b51936201137760c06040840151015162004c46565b51906201139e60a06040620113928282880151015162004c22565b51950151015162004c46565b5193620113b3875184511462000ee962031533565b620113c6875185511462000ee962031533565b620113d9875186511462000ee962031533565b60005b87518110156201144157620113f2818662004c79565b5190606482101562004c30576201143b916003906001600160a01b036201141a848d62004c79565b5116600052811b0160205262000ef060406000205462007d3b838a62004c79565b620113dc565b509095919593929360005b8351811015620115985762011462818762004c79565b51606481101562004c30576003906001600160a01b0362011484848862004c79565b5116600052811b01602052620114a560406000205462007da7838862004c79565b90620114b2838962004c79565b5191606483101562004c3057620114f5926003906001600160a01b03620114da878b62004c79565b5116600052811b0160205260406000205562000ee962031637565b62011501818762004c79565b51606481101562004c30576003906001600160a01b0362011523848c62004c79565b5116600052811b01602052620115446040600020546200685b838862004c79565b91905062011553818862004c79565b5191606483101562004c305762011592926003906001600160a01b036201157b858e62004c79565b5116600052811b0160205260406000205562004c12565b6201144c565b5093620115b29192969350620084c562007e9891620312cf565b9260005b83518110156201115d578062000ef0620079b6620115d5938762004c79565b620115b6565b92602084015160268110156200294257600503620117a4576201160660a06040860151015162004c22565b51906201161b60a06040870151015162004c46565b519282518451036200cab85760005b8351811015620116825762011640818562004c79565b5190606482101562004c305760036201167c9260018060a01b038a5116600052811b0160205262000ef060406000205462007d3b838962004c79565b6201162a565b509060005b835181101562011723576201169d818562004c79565b51606481101562004c305760039060018060a01b03895116600052811b01602052620116d460406000205462007da7838862004c79565b9190620116e2828762004c79565b5190606482101562004c30576201171d93600362000ef09360018060a01b038d5116600052811b0160205260406000205562000ee962031637565b62011687565b50949250906201173390620312cf565b9060405192620117438462002a97565b6001845260203681860137516001600160a01b0316620117638462004c22565b5260405194620117738662002a5e565b60008652600036813760005b83518110156201115d578062000ef0620079b66201179e938762004c79565b6201177f565b926020810151602681101562002942576006036201195957604001620117cf60c08251015162004c22565b5193620117e660a06200852e818551015162004c22565b519285518351036200d09b5785518451036200d04e5760005b8651811015620118645762011815818562004c79565b5190606482101562004c30576201185e916003906001600160a01b036201183d848c62004c79565b5116600052811b0160205262000ef060406000205462007d3b838962004c79565b620117ff565b509060005b865181101562011903576201187f818562004c79565b51606481101562004c30576003906001600160a01b03620118a1848b62004c79565b5116600052811b01602052620118c260406000205462007da7838862004c79565b9190620118d0828762004c79565b5190606482101562004c3057620118fd9362000ef0926003906001600160a01b03620114da878f62004c79565b62011869565b509491620119189193506201111590620312cf565b9160405194620119288662002a5e565b60008652600036813760005b83518110156201115d578062000ef0620079b662011953938762004c79565b62011934565b60208101516026811015620029425760070362011a6b57604001926201198460c08551015162004c22565b51916201199660a08651015162004c22565b5194515191620119ae845187511462000ee962031533565b60005b84518110156201115d5762011a659062000ef06001600160a01b0380620119d9848a62004c79565b51166000528660028b62011a5562011a188762011a1081610320978860205262008a3360ff604060002054161562000ee962031604565b519362004c79565b519162008a978d6040519662011a2e886200299e565b60018852886200d1e88c60208b01946000865260408c0197885260608c01998a5262004c79565b5191015562008ab2838962004c79565b620119b1565b60208194939401516026811015620029425760080362011b025760c0604062011a98920151015162004c22565b519160005b835181101562011af05762011aea906001600160a01b038062011ac1838862004c79565b511660005261032090816020526200d304600160ff6040600020541615151462000ee962031563565b62011a9d565b50926020919250620111719062004c12565b60208101516026811015620029425760090362011b845760c0604062011b2c920151015162004c22565b519160005b835181101562011af05762011b7e906001600160a01b038062011b55838862004c79565b511660005261032090816020526200d3f2600160ff6040600020541615151462000ee962031563565b62011b31565b602081015160268110156200294257600a0362011c32576040019062011bb560a06200d48660c08551015162004c22565b519262011bca835185511462000ee962031533565b60005b835181101562011c1f5762011c19906001600160a01b038062011bf1838862004c79565b5116600052610320806020526200d4f5600160ff6040600020541615151462000ee962031563565b62011bcd565b5093620111719193506020925062004c12565b60208194939294015160268110156200294257600b0362011ce5576040019262011c6160c08551015162004c22565b519351519162011c79855184511462000ee962031533565b60005b855181101562011cd25762011ccc9062000ef06001600160a01b038062011ca4848b62004c79565b5116600052610320806020526200d5d7600160ff6040600020541615151462000ee962031563565b62011c7c565b5093509160209150620111719062004c12565b909192602082015160268110156200294257600c0362011e22576060604083015101519262011d14846202c2eb565b60005b845181101562011c1f5760e062011d378260606040880151015162004c79565b5101511562011db45762011d5862008ea78260606040880151015162004c79565b610322548060001981011162001de85762011d796005916000190162005c20565b5001805461ff00191661010017905561032254906000198201821062001de857600562008efb62011dae936000190162005c20565b62011d17565b62011dcc62008f258260606040880151015162004c79565b610322548060001981011162001de85762011ded6005916000190162005be0565b5001805461ff00191661010017905561032254906000198201821062001de857600562008efb62011dae936000190162005be0565b929190602081015160268110156200294257600d0362011f365760400192602062011e5260a08651015162004c22565b51945101519162011e6785518451146202c9e4565b60005b855181101562011cd2578062011e8562011ede928662004c79565b511562011ee45762011e9c6200901d828962004c79565b62011eb460ff60056200d80d6200903e858c62004c79565b62011ecc60ff6005620090576200903e858c62004c79565b6005620090736200903e838a62004c79565b62011e6a565b62011ef4620090ab828962004c79565b62011f0c60ff60056200d80d620090cc858c62004c79565b62011f2460ff600562009057620090cc858c62004c79565b600562009073620090cc838a62004c79565b602081949294015160268110156200294257600e0362011ffd5760400190602062011f6660a08451015162004c22565b51925101519362011f7b83518651146202c9e4565b60005b835181101562011cd2578062011f9962011fa5928862004c79565b5162011fab5762004c12565b62011f7e565b62011fbb62009168828762004c79565b62011fd360ff60056200d94a6200903e858a62004c79565b62011feb60ff6005620091af6200903e858a62004c79565b600562008efb6200903e838862004c79565b90602082949394015160268110156200294257600f036201213b57606060408301510151926201202d846202c2eb565b60005b845181101562011c1f5760e0620120508260606040880151015162004c79565b51015115620120cd576201207162008ea78260606040880151015162004c79565b610322548060001981011162001de857620120926005916000190162005c20565b5001805461ff00191661010017905561032254906000198201821062001de857600562009073620120c7936000190162005c20565b62012030565b620120e562008f258260606040880151015162004c79565b610322548060001981011162001de857620121066005916000190162005be0565b5001805461ff00191661010017905561032254906000198201821062001de857600562009073620120c7936000190162005be0565b90602081949394015160268110156200294257601003620121ac5760400151906201216f60a0608084015193015162004c22565b519362012184835186511462000ee962031533565b60005b835181101562011cd2578062000ef06200935a620121a6938762004c79565b62012187565b6020819492940151602681101562002942576011036201240e5760400190620121e060a06200d48660c08551015162004c22565b5193620121f183518651146202c163565b60005b83518110156201226b57620122659062000ef06001600160a01b03806201221c848962004c79565b5116600052610325806020526201223e6040600020546200685b868d62004c79565b9190926201224d868b62004c79565b511660005260205260406000205562000ee9620314e9565b620121f4565b509350906201227a90620311b3565b90610326549362012291620080b684518762006271565b9060009260005b878110620123f3575060005b85518110156201234b576000805b898110620122fc575b5015620122d4575b620122ce9062004c12565b620122a4565b93620122ce90620122f3906001600160a01b036200ddb1888a62004c79565b949050620122c3565b620123078162004de9565b90546001600160a01b0360039290921b1c81169062012327858b62004c79565b51161462012340576201233a9062004c12565b620122b2565b5050600138620122bb565b5095509392506201235c8262004d95565b8051906001600160401b038211620029ba576020906201237c8362004f2a565b01610326600052602060002060005b838110620123d5575050505060005b828110620123b2575050506201117160209162004c12565b620123cf9062000ef06001600160a01b03620019d0838662004c79565b6201239a565b82516001600160a01b0316818301556020909201916001016201238b565b936200defd62012408916200dedf8762004de9565b62012298565b6020819492940151602681101562002942576012036201265357604001906201244260a06200d48660c08551015162004c22565b51936201245383518651146202c163565b60005b8351811015620124a657620124a09062000ef06001600160a01b03806201247e848962004c79565b5116600052610325806020526201223e60406000205462007da7868d62004c79565b62012456565b5093509190620124b690620311b3565b61032654620124c58162004d95565b906000926000915b8083106201257a57505050620124e38262004d95565b8051906001600160401b038211620029ba57602090620125038362004f2a565b01610326600052602060002060005b8381106201255c575050505060005b82811062012539575050506201117160209162004c12565b620125569062000ef06001600160a01b03620019d0838662004c79565b62012521565b82516001600160a01b03168183015560209092019160010162012512565b91956000959193959760005b855181101562012644576201259b8962004de9565b90546001600160a01b0360039290921b1c811690620125bb838962004c79565b511614620125d457620125ce9062004c12565b62012586565b509750956001959391955b8062012613575b15620125fe57620125f79062004c12565b91620124cd565b936200defd620125f7916200dedf8762004de9565b506201261f8162004de9565b60018060a01b0391549060031b1c1660005261032560205260406000205415620125e6565b509796909695939195620125df565b602081015160268110156200294257601303620126ac5760408091015101519260005b84518110156201269b578062000ef0620098ce62012695938862004c79565b62012676565b509250906201117160209162004c12565b602081015160268110156200294257601403620128555760400190620126d760c08351015162004c22565b5193620126ee60a0620077f0818651015162004c22565b5191620126ff86518551146202cca5565b6201270e86518451146202cd0b565b60005b8651811015620128005762012727818562004c79565b5162012734828762004c79565b5190606482101562004c30576006620127539260031b0154906200606a565b9062012760838862004c79565b5191606483101562004c305760066201277e9360031b01556202cdc5565b6201278a818562004c79565b5162012797828762004c79565b5190606482101562004c3057620127bf916003906001600160a01b0362011091868d62004c79565b9190620127cd828862004c79565b5190606482101562004c3057620127fa9362000ef0926003906001600160a01b03620110e4878f62004c79565b62012711565b5094915091620111156201281491620312cf565b9360405192620128248462002a5e565b60008452600036813760005b83518110156201115d578062000ef0620079b66201284f938762004c79565b62012830565b6020810151602681101562002942576015036201287f576020919262000ef062011171926202cec9565b602081015160268110156200294257601603620128db5760c06040620128a9920151015162004c22565b519260005b84518110156201269b57620128d59062000ef06001600160a01b0362009b14838962004c79565b620128ae565b602081015160268110156200294257601703620129385760405162461bcd60e51b8152602060048201526029602482015260008051602062031d688339815191526044820152683632b6b2b73a32b21760b91b6064820152608490fd5b602081015160268110156200294257601803620129a35760c0604062012962920151015162004c22565b5192600160ff196103965416176103965560005b84518110156201269b576201299d9062000ef06001600160a01b0362009be0838962004c79565b62012976565b60208193929301516026811015620029425760190362012b185760008091604082910160a08082510151805162012adf575b5050519060e082015191620129f96200685460c060018060a01b0393015162004c22565b511690602083519301915af13d1562012ad6573d9062012a198262002e73565b9162012a29604051938462002ab3565b82523d6000602084013e5b1562012a4857506201117160209162004c12565b62004c0e9062012ab56040519160008051602062031c88833981519152602084015278039bab1b1b2b9b9b33ab617102932ba3ab937103230ba309d1603d1b604084015282815162012aa4816059946020868601910162002d20565b810103603981018452018262002ab3565b60405162461bcd60e51b815260206004820152918291602483019062002d45565b60609062012a34565b62012aea9062004c22565b515162012af9575b80620129d5565b819250620068549062012b0f9251015162004c22565b51903862012af2565b602081015160268110156200294257601a0362012bce5760a0604062012b42920151015162004c22565b5162012b5260038251146202c163565b62012b5d8162004c22565b519162012b7662012b6e8362004c46565b519262004c57565b51916200f05357602092620111719260010362009e215762012ba062012bae91610391546200606a565b6103915562000ee962031484565b62000ef062012bc06103925462006057565b6103925562000ee9620314be565b602081015160268110156200294257601b0362012ffc5750919062012bfe61038f54620061b062009e97620313c0565b505062012c0a62031484565b506000805b6064811062012fb0575b505062012c256200618c565b62012c336107345462004d95565b906000946000905b606482101562012fa3578160031b9460ff6007870154161562012d8b5760009660028701541562012d7a57600098975b62004c3057600487015489101562012d605762012c8c896004890162004e91565b9054600391821b1c6001600160a01b031660008181529189016020526040918290205491999162012cbf90889062005ebb565b9a9062012ccb62031484565b62012cd69162004bdf565b60009a60028b015462012ce99162005ebb565b919062012cf562031484565b62012d009162004bdf565b826000526103276020526000209081549062012d1c916200606a565b90915562012d2962031484565b62012d349162004bdf565b62012d40828962004c79565b5262012d4c9062004c12565b9862012d589062004c12565b989762012c6b565b9290955062012d729196975062004c12565b909462012c3b565b9290955062012d7291965062004c12565b95969392509350505b62012d9f8262004d95565b9160009160005b82811062012f0d57505050610328549162012dc6620080b6848462006271565b926000906000905b80821062012ef057505060005b83811062012e5a5750508251929150506001600160401b038211620029ba5760209062012e088362004eef565b01610328600052602060002060005b83811062012e3c57505050506201117160209160006103915560006103925562004c12565b82516001600160a01b03168183015560209092019160010162012e17565b6000805b83811062012ea8575b501562012e80575b62012e7a9062004c12565b62012ddb565b9062012e7a9062012e9f906001600160a01b036200823e858762004c79565b91905062012e6f565b6001600160a01b038062012ebd858862004c79565b51169062012ecc838a62004c79565b51161462012ee55762012edf9062004c12565b62012e5e565b505060013862012e67565b90916200824c62012f0691620098248562004dcd565b9062012dce565b6000805b85811062012f5b575b501562012f33575b62012f2d9062004c12565b62012da6565b9262012f2d9062012f52906001600160a01b036200823e878662004c79565b93905062012f22565b6001600160a01b038062012f70858762004c79565b51169062012f7f838a62004c79565b51161462012f985762012f929062004c12565b62012f11565b505060013862012f1a565b9394959291505062012d94565b8060039594951b9060ff6007830154161562012ff2576200a2d4620074b662000ef0946200a2c862012fe99560026200a2be8762005d82565b93929362012c0f565b5093929362012c19565b602081015160268110156200294257601c03620130595760405162461bcd60e51b8152602060048201526029602482015260008051602062031e488339815191526044820152683632b6b2b73a32b21760b91b6064820152608490fd5b602081015160268110156200294257601d036201307f575b506201117160209162004c12565b602081015160268110156200294257601e146201307157602081015160268110156200294257601f03620130d057602091620130c86200a3b96040620111719401515162004c22565b915062013071565b602081015160268110156200294257602003620130f6575b5062011171602091620130c8565b602081015160268110156200294257602180910362013117575b50620130e8565b602082015160268110156200a53a57602203620131545750506201117160209160ff196103965416610396556201314d62004fba565b9162013110565b602082015160268110156200a53a576023036201317b575b5050620111716020916201314d565b602082015160268110156200a53a576024146201316c57602082015160268110156200a53a576025146201316c57602082959394920151906026821015620137aa57506015036200fe37576040840190620131db60c08351015162004c22565b5190620131f260a0620077f0818651015162004c22565b519362013207835185511462000ee962031533565b6201321a835186511462000ee962031533565b60005b8351811015620132755762013233818662004c79565b5190606482101562004c305760036201326f9260018060a01b038b5116600052811b0160205262000ef060406000205462007d3b838a62004c79565b6201321d565b509095919560005b87518110156201339c5762013293818662004c79565b51606481101562004c305760039060018060a01b03865116600052811b01602052620132ca60406000205462007da7838962004c79565b90620132d7838862004c79565b5191606483101562004c305760036201330d9360018060a01b03895116600052811b0160205260406000205562000ee962031637565b62013319818662004c79565b51606481101562004c30576003906001600160a01b036201333b848c62004c79565b5116600052811b016020526201335c6040600020546200685b838962004c79565b91906201336a828862004c79565b5190606482101562004c30576201339693600362000ef0938d62007e608760018060a01b039262004c79565b6201327d565b5092620133b4919294506200bb4e90969596620312cf565b9260405190620133c48262002a97565b6001825260203681840137516001600160a01b0316620133e48262004c22565b526000945b80518610156201379557620133ff868262004c79565b516102605262013410855162004d95565b9660009462013420845162004d95565b6103205260009460005b8851811015620134ef578a896201345a6001600160a01b036201344e858462004c79565b511661026051620310b9565b1580620134aa575b6201347b575b5050620134759062004c12565b6201342a565b986201349f9162001a9c82859c62007f88620134759760018060a01b039262004c79565b9790508a8962013468565b505050606461026051101562004c30576001600160a01b03620134ce828b62004c79565b5116600052600361026051811b016020528a89604060002054151562013462565b50909895979498969291939660005b88518110156201359157606461026051101562004c30576001600160a01b0362013529828b62004c79565b5116600052600361026051811b016020526040600020541562013558575b620135529062004c12565b620134fe565b99620135529062013588906001600160a01b03620135778e8d62004c79565b511662001a9c826103205162004c79565b9a905062013547565b50985096959291909396610260516064811015806101e05262004c305760031b6004015498620135c6620080b6898c62006271565b6102205260006102a0526000610560525b6101e05162004c3057610560518a811015620136a0576201360c620136299160006101e05260046102605160031b0162004e91565b90546103205160039290921b1c6001600160a01b03169062031166565b1562013648575b6201363e6105605162004c12565b61056052620135d7565b60006101e052620136666105605160046102605160031b0162004e91565b60018060a01b0391549060031b1c16620136876102a0516102205162004c79565b52620136966102a05162004c12565b6102a05262013630565b50979294959093985095909560005b82811062013749575050506101e05162004c305761022051516001600160401b038111620029ba57620136ec8160046102605160031b0162004fcd565b6020610220510160046102605160031b01600052602060002060005b8381106201372b57505050506201371f9062004c12565b949295909195620133e9565b82516001600160a01b03168183015560209092019160010162013708565b6201378f906001600160a01b0362013762828562004c79565b5116620137766102a0516102205162004c79565b52620137856102a05162004c12565b6102a05262004c12565b620136af565b5050936201117191935060209250916201316c565b634e487b7160e01b60005260045260246000fd5b8151620137d4906001600160a01b031662006647565b62010e6e565b620137e58162004e3d565b9054865160039290921b1c6001600160a01b0390811691161462013814576201380e9062004c12565b62010e5c565b5050506001388062010e65565b82516001600160a01b0316600160401b821015620029ba57620019dd8260016201385094016106c25562004e21565b386200b0db565b620138628162004e21565b9054865160039290921b1c6001600160a01b0390811691161462013891576201388b9062004c12565b6200b0ca565b50506001386200b0d3565b82516001600160a01b0316818301556020909201916001016200b000565b82516001600160a01b0316818301556020909201916001016200aeb3565b600191820180546001600160a01b03909216848601559390910192906200ae02565b61072d600052620139219060008051602062031ac883398151915290810190830162004ed6565b386200adc3565b600180826201393982948662013d7f565b019201920191906200ad85565b61072c60005260008051602062031c08833981519152908282015b8183018110620139735750506200ad4a565b8062013981600192620052d3565b0162013961565b600191820180546001600160a01b03909216848601559390910192906200ad1b565b61072b600052620139d19060008051602062031b6883398151915290810190830162004ed6565b386200acdc565b60018091930191825493816106c301550190916200ac7f565b82516001600160a01b0316818301556020909201916001016200ab98565b62013a2a906106c26000528484600020918201910162004ed6565b386200ab88565b82516001600160a01b0316818301556020909201916001016200a9b4565b62013a6a906106b96000528484600020918201910162004ed6565b386200a9a4565b8062013a939160031b600160ff60078301541615151462013a99575062004c12565b6200a8fa565b62013aac6004820161039c830162013f18565b61039f8101600160ff1982541617905580548161039801556001810154610399820155600281015461039a82015562013aed6005820161039d830162013d7f565b61039e60068201549101553862009e21565b600660208262013b1360019451866200576f565b019201920191906200a6f7565b600681810204810362001de857600683810204830362001de8576106ba6000527f4bc0fef855e05548476b22fb01fb9c435488f87351c9bc2f734e5ca5bc2141996006840281015b826006028201811062013b7d5750506200a6e4565b806000600692556000600182015562013b99600282016200543e565b6000600382015562013bae60048201620052d3565b600060058201550162013b68565b600660208262013bd060019451866200576f565b019201920191906200a66c565b8060060290600682040362001de8578260060260068104840362001de8576000906106bb82526020822092830192015b82811062013c1d5750506200a659565b80826006925582600182015562013c37600282016200543e565b82600382015562013c4b60048201620052d3565b8260058201550162013c0d565b608460405162461bcd60e51b8152602060048201526040602482015260008051602062031d2883398151915260448201527f656d2073686f756c64206e6f742072657475726e20766f7465206e65656465646064820152fd5b60405162461bcd60e51b8152602060048201526047602482015260008051602062031d2883398151915260448201527f656d2073686f756c64206e6f742072657475726e206120766f74696e672072756064820152661b19481b1a5cdd60ca1b608482015260a490fd5b81811462010503578154916001600160401b038311620029ba5762013d41838362004fcd565b60005260206000209060005260206000208154916000925b84841062013d68575050505050565b600180919201938454928185015501929062013d59565b90808214620105035762013d94815462002b98565b906001600160401b038211620029ba57819062013dbe8262013db7865462002b98565b866200560f565b600090601f831160011462013df75760009262013deb5750508160011b916000199060031b1c1916179055565b015490503880620056a2565b81526020808220858352818320935090601f1985169083905b82821062013e4c57505090846001959493921062013e3257505050811b019055565b015460001960f88460031b161c19169055388080620056ef565b849581929585015481556001809101960194019062013e10565b818114620105035781549162013e7d838362005361565b6000526020600020906000526020600020906000905b83821062013ea15750505050565b8062013eb06001928562013d7f565b92810192918101910162013e93565b818114620105035781549162013ed68383620053ef565b6000526020600020906000526020600020906000905b83821062013efa5750505050565b8062013f096001928562013d1b565b92810192918101910162013eec565b81811462010503578154916001600160401b038311620029ba5762013f3e838362004fcd565b60005260206000209060005260206000208154916000925b84841062013f65575050505050565b600191820180546001600160a01b039092168486015593909101929062013f56565b818114620105035781549162013f9e8383620053ef565b6000526020600020906000526020600020906000905b83821062013fc25750505050565b8062013fd16001928562013f18565b92810192918101910162013fb4565b818114620105035781549162013ff78383620054f2565b6000526020600020906000526020600020906000905b8382106201401b5750505050565b80600191840362014038575b60088091019301910190916201400d565b80548455620140658280860190830160ff90620140598282541684620055d4565b5460081c1690620055ee565b6002808201549085015562014081600380830190860162013d1b565b60048085019082018082036201409a575b505062014027565b620140a59162013e66565b620140b7600580830190860162013ebf565b620140c9600680830190860162013f87565b620140db600780830190860162013d7f565b388062014092565b919062005c9657808203620140f6575050565b60ff60058062002b5a946201410f8486541682620055bb565b600185015460018201556201412b600286016002830162013fe0565b6003850154600382015562014147600486016004830162013d7f565b0192016201415982825416846200572c565b6201416b82825460081c16846200573d565b5460101c169062005755565b908082146201050357908154906000915b60648310620141975750505050565b600180919401928354948184015501919262014188565b906103225491600092602082019182515190620141cb8262002b80565b91620141db604051938462002ab3565b808352620141ec601f199162002b80565b01366020840137620142018451518462005ebb565b90156201457e57620142139062004d95565b9186938551511562014574576201422a8162004d95565b975b865151811015620143bc5760008080805b87858c888410620142d25750839450620142669392506201426091508862004c79565b6200350b565b600681101562002942576003146201428b575b50620142859062004c12565b6201422c565b6000905b8a818310620142a057505062014279565b8298620142b7620142cb9394620142c49362004c79565b5162001a9c828b62004c79565b9762004c12565b906201428f565b620142e5620142ec939285925162004c79565b51620149a3565b93909480831180620143a8575b156201435f57505091838562014355575b6006811015620029425760038f911462014335575b50506201432c9062004c12565b9190916201423d565b946201434c9162001a9c826201432c959862004c79565b93908d6201431f565b600095506201430a565b809492959195148062014394575b156201431f576006811015620029425760038f9114620143355750506201432c9062004c12565b50600681101562002942578015156201436d565b5060068610156200294257851515620142f9565b505093505090929350600093845b83518610156201450f57620143ea620143e4878662004c79565b620055ad565b9060068083101562002942576002928303620144155750506201440e909562004c12565b94620143ca565b62014425620143e4898862004c79565b92818410156200294257600180941480620144fb575b1562014450575050506201440e909562004c12565b62014465620143e48a899b9694959b62004c79565b9280841015620029425760048094149283620144cf575b5082620144a4575b505062014498575b506201440e9062004c12565b95506201440e6201448c565b909150881015620144ba57871415388062014484565b602182634e487b7160e01b6000525260246000fd5b908093508a1015620144e65789141591386201447c565b602184634e487b7160e01b6000525260246000fd5b50818310156200294257808314156201443b565b92509290935060068210156200294257600382036201456b575b620145348162004d95565b9360005b82811062014547575050509190565b806201455862014565928462004c79565b5162001a9c828962004c79565b62014538565b50600062014529565b5091949350505050565b60405162461bcd60e51b815260206004820152602a60248201527f546865206c656e677468206f6620766f74696e672072756c65206c697374206960448201526973206f766572666c6f7760b01b6064820152608490fd5b906103235491600092602082019182515190620145f38262002b80565b9162014603604051938462002ab3565b80835262014614601f199162002b80565b01366020840137620146298451518462005ebb565b90156201457e576201463b9062004d95565b918693855151156201457457620146528162004d95565b975b865151811015620147ca5760008080805b87858c888410620146e05750839450620146889392506201426091508862004c79565b60068110156200294257600314620146ad575b50620146a79062004c12565b62014654565b6000905b8a818310620146c25750506201469b565b8298620142b7620146d99394620142c49362004c79565b90620146b1565b620146f3620146fa939285925162004c79565b5162014a42565b93909480831180620147b6575b156201476d57505091838562014763575b6006811015620029425760038f911462014743575b50506201473a9062004c12565b91909162014665565b946201475a9162001a9c826201473a959862004c79565b93908d6201472d565b6000955062014718565b8094929591951480620147a2575b156201472d576006811015620029425760038f9114620147435750506201473a9062004c12565b50600681101562002942578015156201477b565b506006861015620029425785151562014707565b505093505090929350600093845b8351861015620148ed57620147f2620143e4878662004c79565b90600680831015620029425760029283036201481d57505062014816909562004c12565b94620147d8565b6201482d620143e4898862004c79565b92818410156200294257600380941480620148d9575b15620148585750505062014816909562004c12565b6201486d620143e48a899b9694959b62004c79565b9280841015620029425760058094149283620148c2575b5082620148ac575b5050620148a0575b50620148169062004c12565b95506201481662014894565b909150881015620029425787141538806201488c565b908093508a10156200294257891415913862014884565b508183101562002942578083141562014843565b92509290935060068210156200294257600382036201493c575b620149128162004d95565b9360005b82811062014925575050509190565b806201455862014936928462004c79565b62014916565b50600062014907565b156201494d57565b60405162461bcd60e51b815260206004820152602860248201527f506c7567696e466163746f72793a20706c7567696e20696e646578206f7574206044820152676f662072616e676560c01b6064820152608490fd5b91929060009081948294620149bd61032254841062014945565b60ff6005620149cc8562005c20565b50015460081c161562014a355782620149e9928592600162014c1c565b620149f5575b50929190565b809450600192935062014a09915062005c20565b50015490600362014a2a60ff62014a208662005c20565b5054169462005c20565b5001549138620149ef565b5050509150915080918190565b9192906000908194829462014a5c61032354841062014945565b60ff600562014a6b8562005be0565b50015460081c161562014a35578262014a879285928362014c1c565b62014a925750929190565b809450600192935062014aa6915062005be0565b50015490600362014a2a60ff62014abd8662005be0565b5054169462005be0565b9062002b5a606160405180947f436865636b696e6720636f6e646974696f6e206578703a20706c7567696e206960208301527f6e646578206f7574206f662072616e67652c20706c7567696e20696e6465783a6040830152600160fd1b606083015262014b3e815180926020868601910162002d20565b810103604181018552018362002ab3565b606d62002b5a919392936040519485917f436865636b696e6720636f6e646974696f6e206578703a206e6f646520696e6460208401527f6578206f7574206f662072616e67652c20706c7567696e20696e6465783a2000604084015262014bc1815180926020605f8701910162002d20565b82016d016103737b2329034b73232bc1d160951b605f82015262014bef825180936020878501910162002d20565b0103604d81018552018362002ab3565b805482101562004c305760005260206000209060031b0190600090565b93929190841562014fad5762014c4661032254841062000ee962014c408662005028565b62014ac7565b62014c7d600262014c578562005c20565b500154851062000ee962014c6b8662005028565b62014c768862005028565b9062014b4f565b841562014f8e5762014cad600162014ca486600262014c9c8862005c20565b500162014bff565b50015460ff1690565b945b62014cba8662002edc565b8562014ccb57505050505050600090565b62014cd68662002edc565b60039580870362014ced5750505050505050600190565b62014cf88162002edc565b6004810362014d0d5750505050505050600090565b62014d188162002edc565b6001810362014d2e5750620031f8955062014fdd565b91959392949062014d3f8362002edc565b600280931462014d56575b50505050505050600090565b801562014f705762014d80600162014d74848662014c9c8962005c20565b50015460081c60ff1690565b935b811562014f54578562014d9b848662014c9c8562005c20565b500154965b62014dab8862004d95565b9860005b89811062014ec95750505050505062014dc88262002937565b6001820362014e2b57505050906001916000915b81831062014dea5750505090565b9091928062014e08575b62014e00909362004c12565b919062014ddc565b5062014e0062014e2362014e1d858462004c79565b51151590565b905062014df4565b62014e368262002937565b810362014e905750509060009182915b81831062014e545750505090565b909192801562014e73575b62014e6b909362004c12565b919062014e46565b5062014e6b62014e8862014e1d858462004c79565b905062014e5f565b90915062014e9e8162002937565b1462014eb257503880808080808062014d4a565b62014ec562014e1d620031f89262004c22565b1590565b808b62014f12828c8a8c8a8c1562014f335762014f08949262014efe949262014c9c62014ef69362005c20565b500162004e91565b90549060031b1c90565b8787878b62014c1c565b62014f2662014f2d9462000ef09362004c79565b9015159052565b62014daf565b62014f4e949262014efe949262014c9c62014ef69362005be0565b62014f08565b8562014f66848662014c9c8562005be0565b5001549662014da0565b62014f87600162014d74848662014c9c8962005be0565b9362014d82565b62014fa6600162014ca486600262014c9c8862005be0565b9462014caf565b62014fc661032354841062000ee962014c408662005028565b62014fd7600262014c578562005be0565b62014c7d565b93926004620150279186600014620151f557600262015002878262014c9c8562005c20565b500154955b8715620151e457600262014c9c6201501f9362005c20565b5001620035d2565b916032841115620151d857603384101580620151cc575b620151bf57609784101580620151b3575b620151a65760d38410158062015199575b6201518d5761012d8410158062015181575b62015174576101918410158062015167575b6201515a576101af841015806201514d575b62015140576101cd8410158062015133575b62015126576101f58410158062015119575b6201510c5761025984101580620150ff575b620150f157506102bd831015620150e65750505050600090565b620031f89362022e31565b9050620031f893506202a144565b506102bc841115620150cc565b50620031f893506201d479565b50610258841115620150ba565b50620031f893506202aaa8565b506101f4841115620150a8565b50620031f893506202b50b565b506101cc84111562015096565b50620031f89350620225a0565b506101ae84111562015084565b50620031f89350620273b8565b50610190841062015072565b50620031f89362015212565b5061012c84111562015060565b50620031f8935062022c1c565b5060b48411156201504f565b5050620031f8926201e0d9565b5060958411156201503e565b50620031f893620243bf565b600262014c9c6201501f9362005be0565b600262015208878262014c9c8562005be0565b5001549562015007565b9260d38114620157e15760d48114620157d45760d58114620157c75760d68114620157ba5760d78114620157ad5760d88114620157a05760d98114620157945760da8114620157875760db81146201577a5760dc81146201576e5760dd81146201575f5760de8114620157505760df8114620157435760e08114620157365760e181146201572a5760e281146201571d5760e38114620157105760e48114620157045760e58114620156f55760e68114620156e65760e78114620156d95760e88114620156cc5760e98114620156bf5760ea8114620156b25760eb8114620156a55760ec8114620156985760ed81146201568b5760ee81146201567e5760ef8114620156715760f08114620156645760f18114620156575760f281146201564a5760f381146201563d5760f48114620156305760f58114620156235760f68114620156165760f78114620156095760f88114620155fc5760f98114620155f05760fa8114620155e45760fb8114620155d85760fc8114620155cc5760fd8114620155c05760fe8114620155b45760ff8114620155a85761010081146201559c5761010181146201559057610102811462015584576101038114620155785761010481146201556c5761010581146201556057610106811462015554576101078114620155485761010881146201553c576101098114620155305761010a8114620155245761010b8114620155185761010c81146201550c5761010d8114620155005761010e8114620154f45761010f8114620154e8576101108114620154dc576101118114620154d0576101128114620154c4576101138114620154b8576101148114620154ac576101158114620154a057610116146201549557505050600090565b620031f8926201cb32565b50620031f8926201c90b565b50620031f8926201c6e4565b50620031f8926201c3e3565b50620031f8926201c1c4565b50620031f8926201bfa5565b50620031f8926201bd73565b50620031f8926201bbaa565b50620031f8926201b9e1565b50620031f8926201b7a9565b50620031f8926201b5e2565b50620031f8926201b2b7565b50620031f8926201b085565b50620031f8926201aebc565b50620031f8926201acf3565b50620031f8926201aae5565b50620031f8926201a8ad565b50620031f8926201a6e6565b50620031f8926201a3b4565b50620031f8926201a154565b50620031f89262019f83565b50620031f89262019da2565b50620031f89262019bdb565b50620031f89262019985565b50620031f892620197bc565b50620031f892620195f3565b50620031f89262019312565b50620031f89262019012565b50620031f89262018d25565b50620031f89262018a25565b50620031f89250620188a0565b50620031f892506201875b565b50620031f89250620185e9565b50620031f89250620184a4565b50620031f892506201835f565b50620031f892506201821b565b50620031f89250620180a6565b50620031f8925062017f62565b50620031f8925062017e1e565b50620031f8925062017cdd565b50620031f8925062017b9a565b50620031f8925062017a59565b50620031f8925062017910565b50620031f89250620177cc565b50620031f8925062017688565b50620031f8925062017513565b50620031f8925062017375565b50620031f8925062017232565b509050620031f89150620171d7565b509050620031f891506201717a565b50620031f89262016f3c565b50620031f8925062016dad565b50620031f8925062016c5e565b50620031f89262016a47565b50620031f892506201689f565b50620031f8925062016752565b509050620031f89150620166f7565b509050620031f891506201668a565b50620031f8926201643e565b50620031f89250620162af565b50620031f892506201615a565b50620031f89262015f2c565b50620031f8925062015d74565b50620031f8925062015c18565b50620031f8925062015b17565b50620031f89250620159ea565b50620031f89250620158e9565b50620031f8925090602001906001825151036201589057600162015806835162004c22565b515103620158365762015819906201ce37565b91901562006640576200685462015831915162004c22565b511090565b60405162461bcd60e51b815260206004820152602e60248201527f43452049445f3231313a205468652055494e545f324441525241595b305d206c604482015260008051602062031c688339815191526064820152608490fd5b60405162461bcd60e51b815260206004820152602b60248201527f43452049445f3231313a205468652055494e545f32444152524159206c656e6760448201526a7468206973206e6f74203160a81b6064820152608490fd5b90602001906001825151036201599157600162015907835162004c22565b51510362015937576201591a906201ce37565b91901562006640576200685462015932915162004c22565b511190565b60405162461bcd60e51b815260206004820152602e60248201527f43452049445f3231323a205468652055494e545f324441525241595b305d206c604482015260008051602062031c688339815191526064820152608490fd5b60405162461bcd60e51b815260206004820152602b60248201527f43452049445f3231323a205468652055494e545f32444152524159206c656e6760448201526a7468206973206e6f74203160a81b6064820152608490fd5b906020019060018251510362015abe57600262015a08835162004c22565b51510362015a625762015a1b906201ce37565b9015620066405762015a3262006854835162004c22565b51811015918262015a4257505090565b62015a5c91925062015a55905162004c22565b5162004c46565b51101590565b60405162461bcd60e51b815260206004820152602e60248201527f43452049445f3231333a205468652055494e545f324441525241595b305d206c60448201526d32b733ba341034b9903737ba101960911b6064820152608490fd5b60405162461bcd60e51b815260206004820152602b60248201527f43452049445f3231333a205468652055494e545f32444152524159206c656e6760448201526a7468206973206e6f74203160a81b6064820152608490fd5b906020019060018251510362015bbf57600162015b35835162004c22565b51510362015b655762015b48906201ce37565b91901562006640576200685462015b60915162004c22565b511490565b60405162461bcd60e51b815260206004820152602e60248201527f43452049445f3231343a205468652055494e545f324441525241595b305d206c604482015260008051602062031c688339815191526064820152608490fd5b60405162461bcd60e51b815260206004820152602b60248201527f43452049445f3231343a205468652055494e545f32444152524159206c656e6760448201526a7468206973206e6f74203160a81b6064820152608490fd5b90604001600191828251510362015d1a578262015c36835162004c22565b51510362015cc05762015c49906201d1aa565b156200663857829160009182945b62015c65575b505050905090565b805185101562015cba576001600160a01b038062015c84878462004c79565b51169062015c9762006854855162004c22565b51160362015cb25762015cab849562004c12565b9462015c57565b505091505090565b62015c5d565b60405162461bcd60e51b815260206004820152603160248201527f43452049445f3231353a2054686520414444524553535f324441525241595b30604482015260008051602062031be88339815191526064820152608490fd5b60405162461bcd60e51b815260206004820152602e60248201527f43452049445f3231353a2054686520414444524553535f32444152524159206c604482015260008051602062031c688339815191526064820152608490fd5b90604001600191828251510362015ed2578262015d92835162004c22565b51511062015e785762015da5906201d1aa565b156200663857600091835b62015dbc575b50505090565b815183101562015e7257600080855b62015df4575b501562015deb5762015de4849362004c12565b9262015db0565b50505050600090565b62015e058396949295965162004c22565b515181101562015e67576001600160a01b038062015e24888562004c79565b51169062015e388362007494875162004c22565b51161462015e5a579062015e4e84939262004c12565b90939594919262015dcb565b5091809493503862015dd1565b949390929462015dd1565b62015db6565b60405162461bcd60e51b815260206004820152603e60248201527f43452049445f3231363a2054686520414444524553535f324441525241595b30604482015260008051602062031da88339815191526064820152608490fd5b60405162461bcd60e51b815260206004820152602e60248201527f43452049445f3231363a2054686520414444524553535f32444152524159206c604482015260008051602062031c688339815191526064820152608490fd5b9091602080910190600193848351510362016100578462015f4e845162004c22565b515103620160a65762015f61906201d1aa565b1562015fff5784931562016016576000935b62015f7f575050505090565b805184101562005131576001600160a01b038062015f9e868462004c79565b511660005261032080845260409060ff82600020541615620160095760029262015fc9888662004c79565b51166000528452600020015462015fe562006854855162004c22565b510362015fff5762015ff8859462004c12565b9362015f73565b5050505050600090565b5050505050505050600090565b6000935b62016026575050505090565b805184101562005131576001600160a01b038062016045868462004c79565b51166000526106b880845260409060ff82600020541615620160095760029262016070888662004c79565b5116600052845260002001546201608c62006854855162004c22565b510362015fff576201609f859462004c12565b936201601a565b60405162461bcd60e51b815260048101839052603160248201527f43452049445f3231373a205468652055494e543235365f324441525241595b30604482015260008051602062031be88339815191526064820152608490fd5b60405162461bcd60e51b815260048101839052602e60248201527f43452049445f3231373a205468652055494e543235365f32444152524159206c604482015260008051602062031c688339815191526064820152608490fd5b90604001600191828251510362016255578262016178835162004c22565b515103620161fb576201618b906201d1aa565b919091156200663857600091835b620161a75750505050600090565b8051831015620161f55783926001600160a01b0380620161c8838562004c79565b511690620161db62006854865162004c22565b511614620050f757620161ee9062004c12565b9262016199565b62015deb565b60405162461bcd60e51b815260206004820152603160248201527f43452049445f3231383a2054686520414444524553535f324441525241595b30604482015260008051602062031be88339815191526064820152608490fd5b60405162461bcd60e51b815260206004820152602e60248201527f43452049445f3231383a2054686520414444524553535f32444152524159206c604482015260008051602062031c688339815191526064820152608490fd5b906040016001918282515103620163e45782620162cd835162004c22565b5151106201638a57620162e0906201d1aa565b15620066385782916000935b620162fa5750505050600090565b8151841015620161f5576000835b62016322575b506201631b839462004c12565b93620162ec565b93929162016331825162004c22565b515185101562016381576001600160a01b038062016350868462004c79565b511690620163648762007494865162004c22565b51161462015cb2576201637983949562004c12565b909262016308565b9192936201630e565b60405162461bcd60e51b815260206004820152603e60248201527f43452049445f3231393a2054686520414444524553535f324441525241595b30604482015260008051602062031da88339815191526064820152608490fd5b60405162461bcd60e51b815260206004820152602e60248201527f43452049445f3231393a2054686520414444524553535f32444152524159206c604482015260008051602062031c688339815191526064820152608490fd5b9091602080910190600193848351510362016630578462016460845162004c22565b515103620165d65762016473906201d1aa565b9190911562015fff5784931562016534576000935b62016497575050505050600090565b81518410156201652e5784936001600160a01b039081620164b9828662004c79565b511660005261032080845260409060ff826000205416620164ea575b5050620164e3915062004c12565b9362016488565b8293620164fa6002948862004c79565b5116600052845260002001546201651662006854865162004c22565b51146201652657803880620164d5565b505050505090565b62015fff565b6000935b62016547575050505050600090565b81518410156201652e5784936001600160a01b03908162016569828662004c79565b51166000526106b880845260409060ff8260002054166201659a575b505062016593915062004c12565b9362016538565b8293620165aa6002948862004c79565b511660005284526000200154620165c662006854865162004c22565b5114620165265780388062016585565b60405162461bcd60e51b815260048101839052603160248201527f43452049445f3232303a205468652055494e543235365f324441525241595b30604482015260008051602062031be88339815191526064820152608490fd5b60405162461bcd60e51b815260048101839052602e60248201527f43452049445f3232303a205468652055494e543235365f32444152524159206c604482015260008051602062031c688339815191526064820152608490fd5b62016695816201d1aa565b9190911562006640578151156200664057600090815b8351811015620166ee576001600160a01b0380620166ca838762004c79565b51169083511603620166e757620166e19062004c12565b620166ab565b5050905090565b50505050600190565b62016702816201d1aa565b919091156200664057815115620066405760005b825181101562006638576001600160a01b038062016735838662004c79565b5116908351161462006625576201674c9062004c12565b62016716565b90604001600191828251510362016845578262016770835162004c22565b515103620167eb5762016783906201d233565b156200663857829160009182945b6201679e57505050905090565b805185101562015cba576001600160a01b0380620167bd878462004c79565b511690620167d062006854855162004c22565b51160362015cb257620167e4849562004c12565b9462016791565b60405162461bcd60e51b815260206004820152603160248201527f43452049445f3232333a2054686520414444524553535f324441525241595b30604482015260008051602062031be88339815191526064820152608490fd5b60405162461bcd60e51b815260206004820152602e60248201527f43452049445f3232333a2054686520414444524553535f32444152524159206c604482015260008051602062031c688339815191526064820152608490fd5b906040016001918282515103620169ed5782620168bd835162004c22565b5151106201699357620168d0906201d233565b156200663857600091835b620168e65750505090565b815183101562015e7257600080855b62016915575b501562015deb576201690e849362004c12565b92620168db565b620169268396949295965162004c22565b515181101562016988576001600160a01b038062016945888562004c79565b511690620169598362007494875162004c22565b5116146201697b57906201696f84939262004c12565b909395949192620168f5565b50918094935038620168fb565b9493909294620168fb565b60405162461bcd60e51b815260206004820152603e60248201527f43452049445f3232343a2054686520414444524553535f324441525241595b30604482015260008051602062031da88339815191526064820152608490fd5b60405162461bcd60e51b815260206004820152602e60248201527f43452049445f3232343a2054686520414444524553535f32444152524159206c604482015260008051602062031c688339815191526064820152608490fd5b9091602080910190600193848351510362016c04578462016a69845162004c22565b51510362016baa5762016a7c906201d233565b1562015fff5784931562016b1a576000935b62016a9a575050505090565b805184101562005131576001600160a01b038062016ab9868462004c79565b511660005261032080845260409060ff82600020541615620160095760029262016ae4888662004c79565b51166000528452600020015462016b0062006854855162004c22565b510362015fff5762016b13859462004c12565b9362016a8e565b6000935b62016b2a575050505090565b805184101562005131576001600160a01b038062016b49868462004c79565b51166000526106b880845260409060ff82600020541615620160095760029262016b74888662004c79565b51166000528452600020015462016b9062006854855162004c22565b510362015fff5762016ba3859462004c12565b9362016b1e565b60405162461bcd60e51b815260048101839052603160248201527f43452049445f3232353a205468652055494e543235365f324441525241595b30604482015260008051602062031be88339815191526064820152608490fd5b60405162461bcd60e51b815260048101839052602e60248201527f43452049445f3232353a205468652055494e543235365f32444152524159206c604482015260008051602062031c688339815191526064820152608490fd5b90604001600191828251510362016d53578262016c7c835162004c22565b51510362016cf95762016c8f906201d233565b919091156200663857600091835b62016cab5750505050600090565b8051831015620161f55783926001600160a01b038062016ccc838562004c79565b51169062016cdf62006854865162004c22565b511614620050f75762016cf29062004c12565b9262016c9d565b60405162461bcd60e51b815260206004820152603160248201527f43452049445f3232363a2054686520414444524553535f324441525241595b30604482015260008051602062031be88339815191526064820152608490fd5b60405162461bcd60e51b815260206004820152602e60248201527f43452049445f3232363a2054686520414444524553535f32444152524159206c604482015260008051602062031c688339815191526064820152608490fd5b90604001600191828251510362016ee2578262016dcb835162004c22565b51511062016e885762016dde906201d233565b15620066385782916000935b62016df85750505050600090565b8151841015620161f5576000835b62016e20575b5062016e19839462004c12565b9362016dea565b93929162016e2f825162004c22565b515185101562016e7f576001600160a01b038062016e4e868462004c79565b51169062016e628762007494865162004c22565b51161462015cb25762016e7783949562004c12565b909262016e06565b91929362016e0c565b60405162461bcd60e51b815260206004820152603e60248201527f43452049445f3232373a2054686520414444524553535f324441525241595b30604482015260008051602062031da88339815191526064820152608490fd5b60405162461bcd60e51b815260206004820152602e60248201527f43452049445f3232373a2054686520414444524553535f32444152524159206c604482015260008051602062031c688339815191526064820152608490fd5b9091602080910190600193848351510362017120578462016f5e845162004c22565b515103620170c65762016f71906201d233565b9190911562015fff5784931562017024576000935b62016f95575050505050600090565b81518410156201652e5784936001600160a01b03908162016fb7828662004c79565b511660005261032080845260409060ff82600020541662016fe8575b505062016fe1915062004c12565b9362016f86565b829362016ff86002948862004c79565b5116600052845260002001546201701462006854865162004c22565b5114620165265780388062016fd3565b6000935b62017037575050505050600090565b81518410156201652e5784936001600160a01b03908162017059828662004c79565b51166000526106b880845260409060ff8260002054166201708a575b505062017083915062004c12565b9362017028565b82936201709a6002948862004c79565b511660005284526000200154620170b662006854865162004c22565b5114620165265780388062017075565b60405162461bcd60e51b815260048101839052603160248201527f43452049445f3232383a205468652055494e543235365f324441525241595b30604482015260008051602062031be88339815191526064820152608490fd5b60405162461bcd60e51b815260048101839052602e60248201527f43452049445f3232383a205468652055494e543235365f32444152524159206c604482015260008051602062031c688339815191526064820152608490fd5b62017185816201d233565b9190911562006640578151156200664057600090815b8351811015620166ee576001600160a01b0380620171ba838762004c79565b51169083511603620166e757620171d19062004c12565b6201719b565b620171e2816201d233565b919091156200664057815115620066405760005b825181101562006638576001600160a01b038062017215838662004c79565b5116908351161462006625576201722c9062004c12565b620171f6565b9060200160019182825151036201731b578262017250835162004c22565b515103620172c15762017263906201d26c565b9050156200663857829160009182945b6201728057505050905090565b805185101562015cba5762017296858262004c79565b51620172a762006854845162004c22565b510362015cb257620172ba849562004c12565b9462017273565b60405162461bcd60e51b815260206004820152603160248201527f43452049445f3233313a205468652055494e543235365f324441525241595b30604482015260008051602062031be88339815191526064820152608490fd5b60405162461bcd60e51b815260206004820152602e60248201527f43452049445f3233313a205468652055494e543235365f32444152524159206c604482015260008051602062031c688339815191526064820152608490fd5b906020016001918282515103620174b9578262017393835162004c22565b5151106201745f57620173a6906201d26c565b9050156200663857600091835b620173be5750505090565b815183101562015e7257600080855b620173ed575b501562015deb57620173e6849362004c12565b92620173b3565b620173fe8396949295965162004c22565b5151811015620174545762017414868362004c79565b51620174268262007494865162004c22565b51146201744757906201743b84939262004c12565b909395949192620173cd565b50918094935038620173d3565b9493909294620173d3565b60405162461bcd60e51b815260206004820152603e60248201527f43452049445f3233323a205468652055494e543235365f324441525241595b30604482015260008051602062031da88339815191526064820152608490fd5b60405162461bcd60e51b815260206004820152602e60248201527f43452049445f3233323a205468652055494e543235365f32444152524159206c604482015260008051602062031c688339815191526064820152608490fd5b9060200160019182825151036201762e57600262017532835162004c22565b515103620175d45762017545906201d26c565b9050919091156200663857829160009182945b6201756557505050905090565b815185101562015cba576201757b858362004c79565b516201758c62006854835162004c22565b51118015620175ae575b62015cb257620175a7849562004c12565b9462017558565b50620175bb858362004c79565b51620175cc62015a55835162004c22565b511062017596565b60405162461bcd60e51b815260206004820152603160248201527f43452049445f3233333a205468652055494e543235365f324441525241595b30604482015260008051602062031d488339815191526064820152608490fd5b60405162461bcd60e51b815260206004820152602e60248201527f43452049445f3233333a205468652055494e543235365f32444152524159206c604482015260008051602062031c688339815191526064820152608490fd5b906020016001918282515103620177725782620176a6835162004c22565b5151036201771857620176b9906201d26c565b9050156200663857829160009182945b620176d657505050905090565b805185101562015cba57620176ec858262004c79565b51620176fd62006854845162004c22565b51101562015cb25762017711849562004c12565b94620176c9565b60405162461bcd60e51b815260206004820152603160248201527f43452049445f3233343a205468652055494e543235365f324441525241595b30604482015260008051602062031be88339815191526064820152608490fd5b60405162461bcd60e51b815260206004820152602e60248201527f43452049445f3233343a205468652055494e543235365f32444152524159206c604482015260008051602062031c688339815191526064820152608490fd5b906020016001918282515103620178b65782620177ea835162004c22565b5151036201785c57620177fd906201d26c565b9050156200663857829160009182945b6201781a57505050905090565b805185101562015cba5762017830858262004c79565b516201784162006854845162004c22565b51111562015cb25762017855849562004c12565b946201780d565b60405162461bcd60e51b815260206004820152603160248201527f43452049445f3233353a205468652055494e543235365f324441525241595b30604482015260008051602062031be88339815191526064820152608490fd5b60405162461bcd60e51b815260206004820152602e60248201527f43452049445f3233353a205468652055494e543235365f32444152524159206c604482015260008051602062031c688339815191526064820152608490fd5b906020016001918282515103620179ff57826201792e835162004c22565b515103620179a55762017941906201d26c565b909391501562006638578060009384925b6201796b575b5050506200685462015831915162004c22565b90919381518510156201799e576200defd62017995916201798d878562004c79565b519062006271565b91908162017952565b9362017958565b60405162461bcd60e51b815260206004820152603160248201527f43452049445f3233363a205468652055494e543235365f324441525241595b30604482015260008051602062031be88339815191526064820152608490fd5b60405162461bcd60e51b815260206004820152602e60248201527f43452049445f3233363a205468652055494e543235365f32444152524159206c604482015260008051602062031c688339815191526064820152608490fd5b90602001600191828251510362017b40578262017a77835162004c22565b51510362017ae65762017a8a906201d26c565b909391501562006638578060009384925b62017ab4575b5050506200685462015932915162004c22565b909193815185101562017adf576200defd62017ad6916201798d878562004c79565b91908162017a9b565b9362017aa1565b60405162461bcd60e51b815260206004820152603160248201527f43452049445f3233373a205468652055494e543235365f324441525241595b30604482015260008051602062031be88339815191526064820152608490fd5b60405162461bcd60e51b815260206004820152602e60248201527f43452049445f3233373a205468652055494e543235365f32444152524159206c604482015260008051602062031c688339815191526064820152608490fd5b9060200190600190818351510362017c8357600262017bba845162004c22565b51510362017c295762017bcd906201d26c565b909150156200663857906000918183925b62017bf7575b50505062015a3262006854835162004c22565b909192825184101562017c2257620064f062017c19916201798d868662004c79565b91908062017bde565b9262017be4565b60405162461bcd60e51b815260206004820152603160248201527f43452049445f3233383a205468652055494e543235365f324441525241595b30604482015260008051602062031d488339815191526064820152608490fd5b60405162461bcd60e51b815260206004820152602e60248201527f43452049445f3233383a205468652055494e543235365f32444152524159206c604482015260008051602062031c688339815191526064820152608490fd5b90602001600191828251510362017dc4578262017cfb835162004c22565b51510362017d6a5762017d0e906201d26c565b909391501562006638578060009384925b62017d38575b5050506200685462015b60915162004c22565b909193815185101562017d63576200defd62017d5a916201798d878562004c79565b91908162017d1f565b9362017d25565b60405162461bcd60e51b815260206004820152603160248201527f43452049445f3233393a205468652055494e543235365f324441525241595b30604482015260008051602062031be88339815191526064820152608490fd5b60405162461bcd60e51b815260206004820152602e60248201527f43452049445f3233393a205468652055494e543235365f32444152524159206c604482015260008051602062031c688339815191526064820152608490fd5b90602001600191828251510362017f08578262017e3c835162004c22565b51510362017eae5762017e4f906201d26c565b90929150156200663857600091835b62017e6c5750505050600090565b8051831015620161f5578262017e8485948362004c79565b5162017e9562006854855162004c22565b5110620050f75762017ea79062004c12565b9262017e5e565b60405162461bcd60e51b815260206004820152603160248201527f43452049445f3234303a205468652055494e543235365f324441525241595b30604482015260008051602062031be88339815191526064820152608490fd5b60405162461bcd60e51b815260206004820152602e60248201527f43452049445f3234303a205468652055494e543235365f32444152524159206c604482015260008051602062031c688339815191526064820152608490fd5b9060200160019182825151036201804c578262017f80835162004c22565b51510362017ff25762017f93906201d26c565b9291921562015deb57600092845b62017fb0575050505050600090565b80518410156201652e578362017fc886958462004c79565b5162017fd962006854865162004c22565b5111620165265762017feb9062004c12565b9362017fa1565b60405162461bcd60e51b815260206004820152603160248201527f43452049445f3234313a205468652055494e543235365f324441525241595b30604482015260008051602062031be88339815191526064820152608490fd5b60405162461bcd60e51b815260206004820152602e60248201527f43452049445f3234313a205468652055494e543235365f32444152524159206c604482015260008051602062031c688339815191526064820152608490fd5b906020016001918282515103620181c1576002620180c5835162004c22565b5151036201816757620180d8906201d26c565b929091921562015deb57600092845b620180f6575050505050600090565b80518410156201652e57836201810e86958562004c79565b516201811f62006854855162004c22565b5111158062018140575b6201652657620181399062004c12565b93620180e7565b506201814d818562004c79565b516201815e62015a55855162004c22565b51101562018129565b60405162461bcd60e51b815260206004820152603160248201527f43452049445f3234323a205468652055494e543235365f324441525241595b30604482015260008051602062031d488339815191526064820152608490fd5b60405162461bcd60e51b815260206004820152602e60248201527f43452049445f3234323a205468652055494e543235365f32444152524159206c604482015260008051602062031c688339815191526064820152608490fd5b90602001600191828251510362018305578262018239835162004c22565b515103620182ab576201824c906201d26c565b9291921562015deb57600092845b62018269575050505050600090565b80518410156201652e57836201828186958462004c79565b516201829262006854865162004c22565b51146201652657620182a49062004c12565b936201825a565b60405162461bcd60e51b815260206004820152603160248201527f43452049445f3234333a205468652055494e543235365f324441525241595b30604482015260008051602062031be88339815191526064820152608490fd5b60405162461bcd60e51b815260206004820152602e60248201527f43452049445f3234333a205468652055494e543235365f32444152524159206c604482015260008051602062031c688339815191526064820152608490fd5b9060200160019182825151036201844a57826201837d835162004c22565b515103620183f05762018390906201d26c565b9050919091156200663857600091835b620183ae5750505050600090565b8051831015620161f55782620183c685948362004c79565b51620183d762006854855162004c22565b5110620050f757620183e99062004c12565b92620183a0565b60405162461bcd60e51b815260206004820152603160248201527f43452049445f3234343a205468652055494e543235365f324441525241595b30604482015260008051602062031be88339815191526064820152608490fd5b60405162461bcd60e51b815260206004820152602e60248201527f43452049445f3234343a205468652055494e543235365f32444152524159206c604482015260008051602062031c688339815191526064820152608490fd5b9060200160019182825151036201858f5782620184c2835162004c22565b5151036201853557620184d5906201d26c565b9050919091156200663857600091835b620184f35750505050600090565b8051831015620161f557826201850b85948362004c79565b516201851c62006854855162004c22565b5111620050f7576201852e9062004c12565b92620184e5565b60405162461bcd60e51b815260206004820152603160248201527f43452049445f3234353a205468652055494e543235365f324441525241595b30604482015260008051602062031be88339815191526064820152608490fd5b60405162461bcd60e51b815260206004820152602e60248201527f43452049445f3234353a205468652055494e543235365f32444152524159206c604482015260008051602062031c688339815191526064820152608490fd5b9060200160019182825151036201870157600262018608835162004c22565b515103620186a7576201861b906201d26c565b9050156200663857600091835b620186365750505050600090565b8151831015620161f557826201864e85948462004c79565b516201865f62006854845162004c22565b5111158062018680575b620050f757620186799062004c12565b9262018628565b506201868d818462004c79565b516201869e62015a55845162004c22565b51101562018669565b60405162461bcd60e51b815260206004820152603160248201527f43452049445f3234363a205468652055494e543235365f324441525241595b30604482015260008051602062031d488339815191526064820152608490fd5b60405162461bcd60e51b815260206004820152602e60248201527f43452049445f3234363a205468652055494e543235365f32444152524159206c604482015260008051602062031c688339815191526064820152608490fd5b90602001600191828251510362018846578262018779835162004c22565b515103620187ec576201878c906201d26c565b9050919091156200663857600091835b620187aa5750505050600090565b8051831015620161f55782620187c285948362004c79565b51620187d362006854855162004c22565b5114620050f757620187e59062004c12565b926201879c565b60405162461bcd60e51b815260206004820152603160248201527f43452049445f3234373a205468652055494e543235365f324441525241595b30604482015260008051602062031be88339815191526064820152608490fd5b60405162461bcd60e51b815260206004820152602e60248201527f43452049445f3234373a205468652055494e543235365f32444152524159206c604482015260008051602062031c688339815191526064820152608490fd5b906020016001918282515103620189cb5782620188be835162004c22565b5151106201897157620188d1906201d26c565b905015620066385782916000935b620188ed5750505050600090565b8151841015620161f5576000835b62018915575b506201890e839462004c12565b93620188df565b93929162018924825162004c22565b515185101562018968576201893a848262004c79565b516201894c8662007494855162004c22565b511462015cb2576201896083949562004c12565b9092620188fb565b91929362018901565b60405162461bcd60e51b815260206004820152603e60248201527f43452049445f3234383a205468652055494e543235365f324441525241595b30604482015260008051602062031da88339815191526064820152608490fd5b60405162461bcd60e51b815260206004820152602e60248201527f43452049445f3234383a205468652055494e543235365f32444152524159206c604482015260008051602062031c688339815191526064820152608490fd5b9091602080910190600193848351510362018ccb578462018a47845162004c22565b51511062018c715762018a5a906201d233565b9290921562015fff5784931562018b6e576000935b62018a7b575050505090565b825184101562005131576001600160a01b038062018a9a868662004c79565b5116600052610320808452604060ff816000205416156201600957879160009384935b62018ae0575b505050501562015fff5762018ad9859462004c12565b9362018a6f565b9092989591939662018af3865162004c22565b51518a101562018b62578162018b0a8a8362004c79565b5116600052838352600285600020015462018b2b8b62007494895162004c22565b511462018b4f5762018b408798999a62004c12565b93919097999894929662018abd565b9650509396505050843880808062018ac3565b96938296995062018ac3565b6000935b62018b7e575050505090565b825184101562005131576001600160a01b038062018b9d868662004c79565b51166000526106b8808452604060ff816000205416156201600957879160009384935b62018be3575b505050501562015fff5762018bdc859462004c12565b9362018b72565b9092989591939662018bf6865162004c22565b51518a101562018c65578162018c0d8a8362004c79565b5116600052838352600285600020015462018c2e8b62007494895162004c22565b511462018c525762018c438798999a62004c12565b93919097999894929662018bc0565b9650509396505050843880808062018bc6565b96938296995062018bc6565b60405162461bcd60e51b815260048101839052603e60248201527f43452049445f3234393a205468652055494e543235365f324441525241595b30604482015260008051602062031da88339815191526064820152608490fd5b60405162461bcd60e51b815260048101839052602e60248201527f43452049445f3234393a205468652055494e543235365f32444152524159206c604482015260008051602062031c688339815191526064820152608490fd5b6020809301600192838251510362018fb8578362018d44835162004c22565b51511062018f5e5762018d57906201d233565b9490941562015fff5783921562018e695793926000905b62018d7d575050505050600090565b83518110156201652e576001600160a01b038062018d9c838762004c79565b511660005261032080875260409160ff83600020541662018dd2575b5050509362018dc983949562004c12565b90949362018d6e565b6000929190865b62018de6575b5062018db8565b90929791939662018df8865162004c22565b515189101562018e5e578162018e0f898362004c79565b5116600052838352600285600020015462018e308a62007494895162004c22565b511462018e525762018e4487989962004c12565b939190979894929862018dd9565b50505050505091505090565b969382985062018ddf565b93926000905b62018e7e575050505050600090565b83518110156201652e576001600160a01b038062018e9d838762004c79565b51166000526106b880875260409160ff83600020541662018ed3575b5050509362018eca83949562004c12565b90949362018e6f565b6000929190865b62018ee7575b5062018eb9565b90929791939662018ef9865162004c22565b515189101562018f53578162018f10898362004c79565b5116600052838352600285600020015462018f318a62007494895162004c22565b511462018e525762018f4587989962004c12565b939190979894929862018eda565b969382985062018ee0565b60405162461bcd60e51b815260048101869052603e60248201527f43452049445f3235303a205468652055494e543235365f324441525241595b30604482015260008051602062031da88339815191526064820152608490fd5b60405162461bcd60e51b815260048101869052602e60248201527f43452049445f3235303a205468652055494e543235365f32444152524159206c604482015260008051602062031c688339815191526064820152608490fd5b90916020809101906001938483515103620192b8578462019034845162004c22565b5151106201925e5762019047906201d1aa565b9290921562015fff578493156201915b576000935b62019068575050505090565b825184101562005131576001600160a01b038062019087868662004c79565b5116600052610320808452604060ff816000205416156201600957879160009384935b620190cd575b505050501562015fff57620190c6859462004c12565b936201905c565b90929895919396620190e0865162004c22565b51518a10156201914f5781620190f78a8362004c79565b51166000528383526002856000200154620191188b62007494895162004c22565b51146201913c576201912d8798999a62004c12565b939190979998949296620190aa565b96505093965050508438808080620190b0565b969382969950620190b0565b6000935b6201916b575050505090565b825184101562005131576001600160a01b03806201918a868662004c79565b51166000526106b8808452604060ff816000205416156201600957879160009384935b620191d0575b505050501562015fff57620191c9859462004c12565b936201915f565b90929895919396620191e3865162004c22565b51518a1015620192525781620191fa8a8362004c79565b511660005283835260028560002001546201921b8b62007494895162004c22565b51146201923f57620192308798999a62004c12565b939190979998949296620191ad565b96505093965050508438808080620191b3565b969382969950620191b3565b60405162461bcd60e51b815260048101839052603e60248201527f43452049445f3235313a205468652055494e543235365f324441525241595b30604482015260008051602062031da88339815191526064820152608490fd5b60405162461bcd60e51b815260048101839052602e60248201527f43452049445f3235313a205468652055494e543235365f32444152524159206c604482015260008051602062031c688339815191526064820152608490fd5b6020809301600192838251510362019599578362019331835162004c22565b5151106201953f5762019344906201d1aa565b9490941562015fff578392156201944a5793926000905b6201936a575050505050600090565b83518110156201652e576001600160a01b038062019389838762004c79565b511660005261032080875260409160ff836000205416620193bf575b50505093620193b683949562004c12565b9094936201935b565b6000929190865b620193d3575b50620193a5565b909297919396620193e5865162004c22565b51518910156201943f5781620193fc898362004c79565b511660005283835260028560002001546201941d8a62007494895162004c22565b511462018e52576201943187989962004c12565b9391909798949298620193c6565b9693829850620193cc565b93926000905b6201945f575050505050600090565b83518110156201652e576001600160a01b03806201947e838762004c79565b51166000526106b880875260409160ff836000205416620194b4575b50505093620194ab83949562004c12565b90949362019450565b6000929190865b620194c8575b506201949a565b909297919396620194da865162004c22565b5151891015620195345781620194f1898362004c79565b51166000528383526002856000200154620195128a62007494895162004c22565b511462018e52576201952687989962004c12565b9391909798949298620194bb565b9693829850620194c1565b60405162461bcd60e51b815260048101869052603e60248201527f43452049445f3235323a205468652055494e543235365f324441525241595b30604482015260008051602062031da88339815191526064820152608490fd5b60405162461bcd60e51b815260048101869052602e60248201527f43452049445f3235323a205468652055494e543235365f32444152524159206c604482015260008051602062031c688339815191526064820152608490fd5b9091602080910190600193848351510362019762578462019615845162004c22565b515103620197085762019628906201d1aa565b1562015fff578493156201969f576000935b62019646575050505090565b805184101562005131576001600160a01b0362019664858362004c79565b511660005261032582526040600020546201968462006854855162004c22565b51101562015fff5762019698859462004c12565b936201963a565b6000935b620196af575050505090565b805184101562005131576001600160a01b03620196cd858362004c79565b51166000526106bd8252604060002054620196ed62006854855162004c22565b51101562015fff5762019701859462004c12565b93620196a3565b60405162461bcd60e51b815260048101839052603160248201527f43452049445f3235333a205468652055494e543235365f324441525241595b30604482015260008051602062031be88339815191526064820152608490fd5b60405162461bcd60e51b815260048101839052602e60248201527f43452049445f3235333a205468652055494e543235365f32444152524159206c604482015260008051602062031c688339815191526064820152608490fd5b909160208091019060019384835151036201992b5784620197de845162004c22565b515103620198d157620197f1906201d1aa565b1562015fff5784931562019868576000935b6201980f575050505090565b805184101562005131576001600160a01b036201982d858362004c79565b511660005261032582526040600020546201984d62006854855162004c22565b51111562015fff5762019861859462004c12565b9362019803565b6000935b62019878575050505090565b805184101562005131576001600160a01b0362019896858362004c79565b51166000526106bd8252604060002054620198b662006854855162004c22565b51111562015fff57620198ca859462004c12565b936201986c565b60405162461bcd60e51b815260048101839052603160248201527f43452049445f3235343a205468652055494e543235365f324441525241595b30604482015260008051602062031be88339815191526064820152608490fd5b60405162461bcd60e51b815260048101839052602e60248201527f43452049445f3235343a205468652055494e543235365f32444152524159206c604482015260008051602062031c688339815191526064820152608490fd5b90916020809101600193848251510362019b81576002620199a7835162004c22565b51510362019b2757620199ba906201d1aa565b9290921562015fff5784931562019a79576000935b620199db575050505090565b825184101562005131576001600160a01b0380620199fa868662004c79565b5116600052610325808352604090816000205462019a1d62006854875162004c22565b511192831562019a43575b50505062015fff5762019a3c859462004c12565b93620199cf565b9091925062019a53878762004c79565b511660005282526000205462019a6e62015a55845162004c22565b511038808062019a28565b6000935b62019a89575050505090565b825184101562005131576001600160a01b038062019aa8868662004c79565b51166000526106bd808352604090816000205462019acb62006854875162004c22565b511192831562019af1575b50505062015fff5762019aea859462004c12565b9362019a7d565b9091925062019b01878762004c79565b511660005282526000205462019b1c62015a55845162004c22565b511038808062019ad6565b60405162461bcd60e51b815260048101849052603160248201527f43452049445f3235353a205468652055494e543235365f324441525241595b30604482015260008051602062031d488339815191526064820152608490fd5b60405162461bcd60e51b815260048101849052602e60248201527f43452049445f3235353a205468652055494e543235365f32444152524159206c604482015260008051602062031c688339815191526064820152608490fd5b9091602080910190600193848351510362019d48578462019bfd845162004c22565b51510362019cee5762019c10906201d1aa565b1562015fff5784931562019c86576000935b62019c2e575050505090565b805184101562005131576001600160a01b0362019c4c858362004c79565b5116600052610325825260406000205462019c6c62006854855162004c22565b510362015fff5762019c7f859462004c12565b9362019c22565b6000935b62019c96575050505090565b805184101562005131576001600160a01b0362019cb4858362004c79565b51166000526106bd825260406000205462019cd462006854855162004c22565b510362015fff5762019ce7859462004c12565b9362019c8a565b60405162461bcd60e51b815260048101839052603160248201527f43452049445f3235363a205468652055494e543235365f324441525241595b30604482015260008051602062031be88339815191526064820152608490fd5b60405162461bcd60e51b815260048101839052602e60248201527f43452049445f3235363a205468652055494e543235365f32444152524159206c604482015260008051602062031c688339815191526064820152608490fd5b9091602080910190600193848351510362019f29578462019dc4845162004c22565b51510362019ecf5762019dd7906201d1aa565b1562015fff5784931562019e625760009182945b62019dfc575b505050505050600090565b815185101562019e5c5785946001600160a01b0362019e1c828562004c79565b511684526103258252604084205462019e3a62006854875162004c22565b511062019e535762019e4c9062004c12565b9462019deb565b50505050505090565b62019df1565b60009182945b62019e7857505050505050600090565b815185101562019e5c5785946001600160a01b0362019e98828562004c79565b511684526106bd8252604084205462019eb662006854875162004c22565b511062019e535762019ec89062004c12565b9462019e68565b60405162461bcd60e51b815260048101839052603160248201527f43452049445f3235373a205468652055494e543235365f324441525241595b30604482015260008051602062031be88339815191526064820152608490fd5b60405162461bcd60e51b815260048101839052602e60248201527f43452049445f3235373a205468652055494e543235365f32444152524159206c604482015260008051602062031c688339815191526064820152608490fd5b909160208091019060019384835151036201a0fa578462019fa5845162004c22565b5151036201a0a05762019fb8906201d1aa565b1562015fff578493156201a0335760009182945b62019fdc57505050505050600090565b815185101562019e5c5785946001600160a01b0362019ffc828562004c79565b51168452610325825260408420546201a01a62006854875162004c22565b511162019e53576201a02c9062004c12565b9462019fcc565b60009182945b6201a04957505050505050600090565b815185101562019e5c5785946001600160a01b036201a069828562004c79565b511684526106bd825260408420546201a08762006854875162004c22565b511162019e53576201a0999062004c12565b946201a039565b60405162461bcd60e51b815260048101839052603160248201527f43452049445f3235383a205468652055494e543235365f324441525241595b30604482015260008051602062031be88339815191526064820152608490fd5b60405162461bcd60e51b815260048101839052602e60248201527f43452049445f3235383a205468652055494e543235365f32444152524159206c604482015260008051602062031c688339815191526064820152608490fd5b9091602080910160019384825151036201a35a5760026201a176835162004c22565b5151036201a300576201a189906201d1aa565b9190911562015fff578493156201a24d576000935b6201a1ad575050505050600090565b81518410156201652e5784936001600160a01b03806201a1ce838662004c79565b511660005261032580865260409081600020546201a1f162006854875162004c22565b51111592836201a216575b50505062016526576201a20f9062004c12565b936201a19e565b909192506201a226848762004c79565b51166000528552600020546201a24162015a55845162004c22565b5110153880806201a1fc565b6000935b6201a260575050505050600090565b81518410156201652e5784936001600160a01b03806201a281838662004c79565b51166000526106bd80865260409081600020546201a2a462006854875162004c22565b51111592836201a2c9575b50505062016526576201a2c29062004c12565b936201a251565b909192506201a2d9848762004c79565b51166000528552600020546201a2f462015a55845162004c22565b5110153880806201a2af565b60405162461bcd60e51b815260048101849052603160248201527f43452049445f3235393a205468652055494e543235365f324441525241595b30604482015260008051602062031d488339815191526064820152608490fd5b60405162461bcd60e51b815260048101849052602e60248201527f43452049445f3235393a205468652055494e543235365f32444152524159206c604482015260008051602062031c688339815191526064820152608490fd5b916020019060019283835151036201a53157836201a3d3845162004c22565b5151036201a4d757156201a45c576201a3ec906201d1aa565b156200663857829160009182945b6201a40757505050905090565b805185101562015cba576201a4316001600160a01b036201a429878462004c79565b51166201a5e7565b6201a44162006854845162004c22565b51101562015cb2576201a455849562004c12565b946201a3fa565b6201a467906201d1aa565b156200663857829160009182945b6201a48257505050905090565b805185101562015cba576201a4ac6001600160a01b036201a4a4878462004c79565b51166201a58b565b6201a4bc62006854845162004c22565b51101562015cb2576201a4d0849562004c12565b946201a475565b60405162461bcd60e51b815260206004820152603160248201527f43452049445f3236303a205468652055494e543235365f324441525241595b30604482015260008051602062031be88339815191526064820152608490fd5b60405162461bcd60e51b815260206004820152602e60248201527f43452049445f3236303a205468652055494e543235365f32444152524159206c604482015260008051602062031c688339815191526064820152608490fd5b60009081905b606482106201a59f57505090565b90916200824c6201a5e0916201a5d98560031b60018060a01b03861660005261039b81016020526103996040600020549101549062004eaa565b9062006271565b906201a591565b60009081905b606482106201a5fb57505090565b90916200824c6201a633916201a5d9600386811b9060018060a01b038716600052810160205260016040600020549101549062004eaa565b906201a5ed565b600091906201a694576000905b606482106201a65557505090565b90916200824c6201a68d916201a5d9600386811b9060018060a01b038716600052810160205260016040600020549101549062004eaa565b906201a647565b81905b606482106201a6a557505090565b90916200824c6201a6df916201a5d98560031b60018060a01b03861660005261039b81016020526103996040600020549101549062004eaa565b906201a697565b916020019060019283835151036201a85357836201a705845162004c22565b5151036201a7f957156201a786576201a71e906201d1aa565b156200663857829160009182945b6201a73957505050905090565b805185101562015cba576201a75b6001600160a01b036201a429878462004c79565b6201a76b62006854845162004c22565b51111562015cb2576201a77f849562004c12565b946201a72c565b6201a791906201d1aa565b156200663857829160009182945b6201a7ac57505050905090565b805185101562015cba576201a7ce6001600160a01b036201a4a4878462004c79565b6201a7de62006854845162004c22565b51111562015cb2576201a7f2849562004c12565b946201a79f565b60405162461bcd60e51b815260206004820152603160248201527f43452049445f3236313a205468652055494e543235365f324441525241595b30604482015260008051602062031be88339815191526064820152608490fd5b60405162461bcd60e51b815260206004820152602e60248201527f43452049445f3236313a205468652055494e543235365f32444152524159206c604482015260008051602062031c688339815191526064820152608490fd5b916020019060019283835151036201aa8b5760026201a8cd845162004c22565b5151036201aa3157156201a986576201a8e6906201d1aa565b919091156200663857829160009182945b6201a90457505050905090565b815185101562015cba576001600160a01b036201a927816201a429888662004c79565b6201a93762006854845162004c22565b51119081156201a95b575b5062015cb2576201a954849562004c12565b946201a8f7565b6201a96d91506201a429878562004c79565b6201a97d62015a55835162004c22565b5110386201a942565b6201a991906201d1aa565b919091156200663857829160009182945b6201a9af57505050905090565b815185101562015cba576001600160a01b036201a9d2816201a4a4888662004c79565b6201a9e262006854845162004c22565b51119081156201aa06575b5062015cb2576201a9ff849562004c12565b946201a9a2565b6201aa1891506201a4a4878562004c79565b6201aa2862015a55835162004c22565b5110386201a9ed565b60405162461bcd60e51b815260206004820152603160248201527f43452049445f3236323a205468652055494e543235365f324441525241595b30604482015260008051602062031d488339815191526064820152608490fd5b60405162461bcd60e51b815260206004820152602e60248201527f43452049445f3236323a205468652055494e543235365f32444152524159206c604482015260008051602062031c688339815191526064820152608490fd5b9160208091019160019384845151036201ac9957846201ab06855162004c22565b5151036201ac3f57156201ab87576201ab2091506201d1aa565b156200663857829160009182945b6201ab3b57505050905090565b805185101562015cba576201ab5d6001600160a01b036201a429878462004c79565b6201ab6d62006854845162004c22565b510362015cb2576201ab80849562004c12565b946201ab2e565b6201ab92906201d1aa565b9290921562015deb57600092845b6201abac575050505090565b805184101562005131576001600160a01b036201abca858362004c79565b511660009081905b606482106201ac075750506201abed62006854845162004c22565b510362015fff576201ac00859462004c12565b936201aba0565b90916200824c6201ac38916201a5d98560031b8560005261039b81018a526103996040600020549101549062004eaa565b906201abd2565b60405162461bcd60e51b815260048101849052603160248201527f43452049445f3236333a205468652055494e543235365f324441525241595b30604482015260008051602062031be88339815191526064820152608490fd5b60405162461bcd60e51b815260048101849052602e60248201527f43452049445f3236333a205468652055494e543235365f32444152524159206c604482015260008051602062031c688339815191526064820152608490fd5b916020019060019283835151036201ae6257836201ad12845162004c22565b5151036201ae0857156201ad94576201ad2b906201d1aa565b919091156200663857600091835b6201ad475750505050600090565b8051831015620161f55783926201ad6b6001600160a01b036201a429838562004c79565b6201ad7b62006854855162004c22565b5110620050f7576201ad8d9062004c12565b926201ad39565b6201ad9f906201d1aa565b919091156200663857600091835b6201adbb5750505050600090565b8051831015620161f55783926201addf6001600160a01b036201a4a4838562004c79565b6201adef62006854855162004c22565b5110620050f7576201ae019062004c12565b926201adad565b60405162461bcd60e51b815260206004820152603160248201527f43452049445f3236343a205468652055494e543235365f324441525241595b30604482015260008051602062031be88339815191526064820152608490fd5b60405162461bcd60e51b815260206004820152602e60248201527f43452049445f3236343a205468652055494e543235365f32444152524159206c604482015260008051602062031c688339815191526064820152608490fd5b916020019060019283835151036201b02b57836201aedb845162004c22565b5151036201afd157156201af5d576201aef4906201d1aa565b919091156200663857600091835b6201af105750505050600090565b8051831015620161f55783926201af346001600160a01b036201a429838562004c79565b6201af4462006854855162004c22565b5111620050f7576201af569062004c12565b926201af02565b6201af68906201d1aa565b919091156200663857600091835b6201af845750505050600090565b8051831015620161f55783926201afa86001600160a01b036201a4a4838562004c79565b6201afb862006854855162004c22565b5111620050f7576201afca9062004c12565b926201af76565b60405162461bcd60e51b815260206004820152603160248201527f43452049445f3236353a205468652055494e543235365f324441525241595b30604482015260008051602062031be88339815191526064820152608490fd5b60405162461bcd60e51b815260206004820152602e60248201527f43452049445f3236353a205468652055494e543235365f32444152524159206c604482015260008051602062031c688339815191526064820152608490fd5b916020019060019283835151036201b25d5760026201b0a5845162004c22565b5151036201b20357156201b15b576201b0be906201d1aa565b156200663857600091835b6201b0d75750505050600090565b8151831015620161f55783926001600160a01b036201b0fc816201a429848762004c79565b6201b10c62006854855162004c22565b51111590816201b12f575b50620050f7576201b1289062004c12565b926201b0c9565b6201b14191506201a429838662004c79565b6201b15162015a55845162004c22565b511015386201b117565b6201b166906201d1aa565b156200663857600091835b6201b17f5750505050600090565b8151831015620161f55783926001600160a01b036201b1a4816201a4a4848762004c79565b6201b1b462006854855162004c22565b51111590816201b1d7575b50620050f7576201b1d09062004c12565b926201b171565b6201b1e991506201a4a4838662004c79565b6201b1f962015a55845162004c22565b511015386201b1bf565b60405162461bcd60e51b815260206004820152603160248201527f43452049445f3236363a205468652055494e543235365f324441525241595b30604482015260008051602062031d488339815191526064820152608490fd5b60405162461bcd60e51b815260206004820152602e60248201527f43452049445f3236363a205468652055494e543235365f32444152524159206c604482015260008051602062031c688339815191526064820152608490fd5b916020019060019283835151036201b43457836201b2d6845162004c22565b5151036201b3da57156201b35f576201b2ef906201d1aa565b156200663857829160009182945b6201b30a57505050905090565b805185101562015cba576201b3346001600160a01b036201b32c878462004c79565b51166201b4e3565b6201b34462006854845162004c22565b51101562015cb2576201b358849562004c12565b946201b2fd565b6201b36a906201d1aa565b156200663857829160009182945b6201b38557505050905090565b805185101562015cba576201b3af6001600160a01b036201b3a7878462004c79565b51166201b48e565b6201b3bf62006854845162004c22565b51101562015cb2576201b3d3849562004c12565b946201b378565b60405162461bcd60e51b815260206004820152603160248201527f43452049445f3236373a205468652055494e543235365f324441525241595b30604482015260008051602062031be88339815191526064820152608490fd5b60405162461bcd60e51b815260206004820152602e60248201527f43452049445f3236373a205468652055494e543235365f32444152524159206c604482015260008051602062031c688339815191526064820152608490fd5b60009081905b606482106201b4a257505090565b90916200824c6201b4dc916201a5d98560031b60018060a01b03861660005261039b810160205261039a6040600020549101549062004eaa565b906201b494565b60009081905b606482106201b4f757505090565b90916200824c6201b52f916201a5d9600386811b9060018060a01b038716600052810160205260026040600020549101549062004eaa565b906201b4e9565b600091906201b590576000905b606482106201b55157505090565b90916200824c6201b589916201a5d9600386811b9060018060a01b038716600052810160205260026040600020549101549062004eaa565b906201b543565b81905b606482106201b5a157505090565b90916200824c6201b5db916201a5d98560031b60018060a01b03861660005261039b810160205261039a6040600020549101549062004eaa565b906201b593565b916020019060019283835151036201b74f57836201b601845162004c22565b5151036201b6f557156201b682576201b61a906201d1aa565b156200663857829160009182945b6201b63557505050905090565b805185101562015cba576201b6576001600160a01b036201b32c878462004c79565b6201b66762006854845162004c22565b51111562015cb2576201b67b849562004c12565b946201b628565b6201b68d906201d1aa565b156200663857829160009182945b6201b6a857505050905090565b805185101562015cba576201b6ca6001600160a01b036201b3a7878462004c79565b6201b6da62006854845162004c22565b51111562015cb2576201b6ee849562004c12565b946201b69b565b60405162461bcd60e51b815260206004820152603160248201527f43452049445f3236383a205468652055494e543235365f324441525241595b30604482015260008051602062031be88339815191526064820152608490fd5b60405162461bcd60e51b815260206004820152602e60248201527f43452049445f3236383a205468652055494e543235365f32444152524159206c604482015260008051602062031c688339815191526064820152608490fd5b916020019060019283835151036201b9875760026201b7c9845162004c22565b5151036201b92d57156201b882576201b7e2906201d1aa565b919091156200663857829160009182945b6201b80057505050905090565b815185101562015cba576001600160a01b036201b823816201b32c888662004c79565b6201b83362006854845162004c22565b51119081156201b857575b5062015cb2576201b850849562004c12565b946201b7f3565b6201b86991506201b32c878562004c79565b6201b87962015a55835162004c22565b5110386201b83e565b6201b88d906201d1aa565b919091156200663857829160009182945b6201b8ab57505050905090565b815185101562015cba576001600160a01b036201b8ce816201b3a7888662004c79565b6201b8de62006854845162004c22565b51119081156201b902575b5062015cb2576201b8fb849562004c12565b946201b89e565b6201b91491506201b3a7878562004c79565b6201b92462015a55835162004c22565b5110386201b8e9565b60405162461bcd60e51b815260206004820152603160248201527f43452049445f3236393a205468652055494e543235365f324441525241595b30604482015260008051602062031d488339815191526064820152608490fd5b60405162461bcd60e51b815260206004820152602e60248201527f43452049445f3236393a205468652055494e543235365f32444152524159206c604482015260008051602062031c688339815191526064820152608490fd5b916020019060019283835151036201bb5057836201ba00845162004c22565b5151036201baf657156201ba82576201ba19906201d1aa565b919091156200663857600091835b6201ba355750505050600090565b8051831015620161f55783926201ba596001600160a01b036201b32c838562004c79565b6201ba6962006854855162004c22565b5110620050f7576201ba7b9062004c12565b926201ba27565b6201ba8d906201d1aa565b919091156200663857600091835b6201baa95750505050600090565b8051831015620161f55783926201bacd6001600160a01b036201b3a7838562004c79565b6201badd62006854855162004c22565b5110620050f7576201baef9062004c12565b926201ba9b565b60405162461bcd60e51b815260206004820152603160248201527f43452049445f3237303a205468652055494e543235365f324441525241595b30604482015260008051602062031be88339815191526064820152608490fd5b60405162461bcd60e51b815260206004820152602e60248201527f43452049445f3237303a205468652055494e543235365f32444152524159206c604482015260008051602062031c688339815191526064820152608490fd5b9160200190600192836201bbbf845162004c22565b5151036201bd195783835151036201bcbf57156201bc4b576201bbe2906201d1aa565b919091156200663857600091835b6201bbfe5750505050600090565b8051831015620161f55783926201bc226001600160a01b036201b32c838562004c79565b6201bc3262006854855162004c22565b5111620050f7576201bc449062004c12565b926201bbf0565b6201bc56906201d1aa565b919091156200663857600091835b6201bc725750505050600090565b8051831015620161f55783926201bc966001600160a01b036201b3a7838562004c79565b6201bca662006854855162004c22565b5111620050f7576201bcb89062004c12565b926201bc64565b60405162461bcd60e51b815260206004820152602e60248201527f43452049445f3237313a205468652055494e543235365f32444152524159206c604482015260008051602062031c688339815191526064820152608490fd5b60405162461bcd60e51b815260206004820152603160248201527f43452049445f3237313a205468652055494e543235365f324441525241595b30604482015260008051602062031be88339815191526064820152608490fd5b916020019060026201bd86835162004c22565b5151036201bf4b5760019283835151036201bef157156201be49576201bdac906201d1aa565b156200663857600091835b6201bdc55750505050600090565b8151831015620161f55783926001600160a01b036201bdea816201b32c848762004c79565b6201bdfa62006854855162004c22565b51111590816201be1d575b50620050f7576201be169062004c12565b926201bdb7565b6201be2f91506201b32c838662004c79565b6201be3f62015a55845162004c22565b511015386201be05565b6201be54906201d1aa565b156200663857600091835b6201be6d5750505050600090565b8151831015620161f55783926001600160a01b036201be92816201b3a7848762004c79565b6201bea262006854855162004c22565b51111590816201bec5575b50620050f7576201bebe9062004c12565b926201be5f565b6201bed791506201b3a7838662004c79565b6201bee762015a55845162004c22565b511015386201bead565b60405162461bcd60e51b815260206004820152602e60248201527f43452049445f3237323a205468652055494e543235365f32444152524159206c604482015260008051602062031c688339815191526064820152608490fd5b60405162461bcd60e51b815260206004820152603160248201527f43452049445f3237323a205468652055494e543235365f324441525241595b30604482015260008051602062031d488339815191526064820152608490fd5b919060208092019060019384835151036201c16a5760026201bfc8845162004c22565b5151036201c11057156201c072576201bfe1906201d1aa565b9290921562015deb57600092845b6201bffb575050505090565b805184101562005131576201c01562006854845162004c22565b51606481101562004c30576001600160a01b036201c034868462004c79565b5116600052600390811b0182526040600020546201c05762015a55855162004c22565b51101562015fff576201c06b859462004c12565b936201bfef565b6201c07d906201d1aa565b9290921562015deb57600092845b6201c097575050505090565b805184101562005131576201c0b162006854845162004c22565b51606481101562004c305761039b906001600160a01b036201c0d4878562004c79565b511660005260031b0182526040600020546201c0f562015a55855162004c22565b51101562015fff576201c109859462004c12565b936201c08b565b60405162461bcd60e51b815260048101859052603160248201527f43452049445f3237333a205468652055494e543235365f324441525241595b30604482015260008051602062031be88339815191526064820152608490fd5b60405162461bcd60e51b815260048101859052602e60248201527f43452049445f3237333a205468652055494e543235365f32444152524159206c604482015260008051602062031c688339815191526064820152608490fd5b919060208092019060019384835151036201c3895760026201c1e7845162004c22565b5151036201c32f57156201c291576201c200906201d1aa565b9290921562015deb57600092845b6201c21a575050505090565b805184101562005131576201c23462006854845162004c22565b51606481101562004c30576001600160a01b036201c253868462004c79565b5116600052600390811b0182526040600020546201c27662015a55855162004c22565b51111562015fff576201c28a859462004c12565b936201c20e565b6201c29c906201d1aa565b9290921562015deb57600092845b6201c2b6575050505090565b805184101562005131576201c2d062006854845162004c22565b51606481101562004c305761039b906001600160a01b036201c2f3878562004c79565b511660005260031b0182526040600020546201c31462015a55855162004c22565b51111562015fff576201c328859462004c12565b936201c2aa565b60405162461bcd60e51b815260048101859052603160248201527f43452049445f3237343a205468652055494e543235365f324441525241595b30604482015260008051602062031be88339815191526064820152608490fd5b60405162461bcd60e51b815260048101859052602e60248201527f43452049445f3237343a205468652055494e543235365f32444152524159206c604482015260008051602062031c688339815191526064820152608490fd5b916020809101600392836201c3f9835162004c22565b5151036201c6855760019485835151036201c62b57156201c523576201c41f906201d1aa565b9390931562015fff57600093855b6201c43a57505050505090565b80518510156201c51d576201c45462006854845162004c22565b516064908181101562004c30576001600160a01b03908490826201c4798a8762004c79565b5116600052811b01865260409081600020546201c49b62015a55885162004c22565b51119283156201c4c1575b50505062019df1576201c4ba869562004c12565b946201c42d565b909192506201c4d562006854875162004c22565b519081101562004c305784916201c4ed898662004c79565b5116600052811b018552600020546201c5126201c50b855162004c22565b5162004c57565b51103880806201c4a6565b62016526565b6201c531909392936201d1aa565b9390931562015fff57600093855b6201c54c57505050505090565b80518510156201c51d576201c56662006854845162004c22565b5160648082101562004c30576001600160a01b0391826201c588898662004c79565b511660005261039b8091881b01855260409182600020546201c5af62015a55895162004c22565b51119384156201c5d6575b5050505062019df1576201c5cf869562004c12565b946201c53f565b90919293506201c5eb62006854885162004c22565b519182101562004c30576201c601898662004c79565b5116600052861b018352600020546201c61f6201c50b855162004c22565b5110388080806201c5ba565b60405162461bcd60e51b815260048101859052602e60248201527f43452049445f3237353a205468652055494e543235365f32444152524159206c604482015260008051602062031c688339815191526064820152608490fd5b60405162461bcd60e51b815260048101849052603160248201527f43452049445f3237353a205468652055494e543235365f324441525241595b306044820152705d206c656e677468206973206e6f74203360781b6064820152608490fd5b919060208092019060026201c6fa835162004c22565b5151036201c8b15760019384835151036201c85757156201c7b5576201c720906201d1aa565b9290921562015deb57600092845b6201c73d575050505050600090565b80518410156201652e576201c75762006854845162004c22565b5193606485101562004c305785946001600160a01b036201c779838562004c79565b5116600052600390811b0183526040600020546201c79c62015a55865162004c22565b511062016526576201c7ae9062004c12565b936201c72e565b6201c7c0906201d1aa565b9290921562015deb57600092845b6201c7dd575050505050600090565b80518410156201652e576201c7f762006854845162004c22565b5193606485101562004c3057859461039b906001600160a01b036201c81d848662004c79565b511660005260031b0183526040600020546201c83e62015a55865162004c22565b511062016526576201c8509062004c12565b936201c7ce565b60405162461bcd60e51b815260048101859052602e60248201527f43452049445f3237363a205468652055494e543235365f32444152524159206c604482015260008051602062031c688339815191526064820152608490fd5b60405162461bcd60e51b815260048101849052603160248201527f43452049445f3237363a205468652055494e543235365f324441525241595b30604482015260008051602062031d488339815191526064820152608490fd5b919060208092019060026201c921835162004c22565b5151036201cad85760019384835151036201ca7e57156201c9dc576201c947906201d1aa565b9290921562015deb57600092845b6201c964575050505050600090565b80518410156201652e576201c97e62006854845162004c22565b5193606485101562004c305785946001600160a01b036201c9a0838562004c79565b5116600052600390811b0183526040600020546201c9c362015a55865162004c22565b511162016526576201c9d59062004c12565b936201c955565b6201c9e7906201d1aa565b9290921562015deb57600092845b6201ca04575050505050600090565b80518410156201652e576201ca1e62006854845162004c22565b5193606485101562004c3057859461039b906001600160a01b036201ca44848662004c79565b511660005260031b0183526040600020546201ca6562015a55865162004c22565b511162016526576201ca779062004c12565b936201c9f5565b60405162461bcd60e51b815260048101859052602e60248201527f43452049445f3237373a205468652055494e543235365f32444152524159206c604482015260008051602062031c688339815191526064820152608490fd5b60405162461bcd60e51b815260048101849052603160248201527f43452049445f3237373a205468652055494e543235365f324441525241595b30604482015260008051602062031d488339815191526064820152608490fd5b916020809101600392836201cb48835162004c22565b5151036201cdd85760019485835151036201cd7e57156201cc6d576201cb6e906201d1aa565b9390931562015fff57600093855b6201cb8c57505050505050600090565b805185101562019e5c576201cba662006854845162004c22565b51946064958681101562004c305787966001600160a01b03918590836201cbce868862004c79565b5116600052811b018752604080600020546201cbef62015a55895162004c22565b51111592836201cc14575b50505062019e53576201cc0d9062004c12565b946201cb7c565b91985091506201cc2962006854875162004c22565b519788101562004c3057889785916201cc43858762004c79565b5116600052811b018652600020546201cc616201c50b865162004c22565b5110153880806201cbfa565b6201cc7b909392936201d1aa565b9390931562015fff57600093855b6201cc9957505050505050600090565b805185101562019e5c576201ccb362006854845162004c22565b519460648087101562004c305787966001600160a01b0390816201ccd8858762004c79565b511660005261039b8091891b01865260409081600020546201ccff62015a558a5162004c22565b51111593846201cd25575b5050505062019e53576201cd1e9062004c12565b946201cc89565b9193509198506201cd3b62006854885162004c22565b519081101562004c305789986201cd53858762004c79565b5116600052871b018452600020546201cd716201c50b865162004c22565b511015388080806201cd0a565b60405162461bcd60e51b815260048101859052602e60248201527f43452049445f3237383a205468652055494e543235365f32444152524159206c604482015260008051602062031c688339815191526064820152608490fd5b60405162461bcd60e51b815260048101849052603160248201527f43452049445f3237383a205468652055494e543235365f324441525241595b306044820152705d206c656e677468206973206e6f74203360781b6064820152608490fd5b6201ce42816201cfc7565b156201cfbe576040810190606082510151511515806201cf83575b156201ce6f5750516060015151600191565b604082510151511515806201cf6a575b156201ce915750516040015151600191565b60808251015151151590816201cf50575b50156201ceb457516080015151600191565b805160c081015151156201cefb57506201ced360c08251015162004c22565b51516201cee457505b600090600090565b60c06201cef49151015162004c22565b5151600191565b602081015151156201cf135750516020015151600191565b60a0015180516201cf27575b50506201cedc565b6201cf329062004c22565b51516201cf4057806201cf1f565b60a06201cef49151015162004c22565b60209150015160268110156200294257601014386201cea2565b506020810151602681101562002942576013146201ce7f565b5060208101805160268110156200294257600c149081156201cfa7575b506201ce5d565b90505160268110156200294257600f14386201cfa0565b50600090600090565b60200180519060269081831015620029425760018093146201d1a55780518281101562002942576002146201d1a55780518281101562002942576003146201d1a557805190828210156200294257600480921462015db6578051838110156201d1905760051462015db6578051838110156201d1905760061462015db6578051838110156201d1905760071462015db6578051838110156201d1905760081462015db6578051838110156201d1905760091462015db6578051838110156201d19057600a1462015db6578051838110156201d19057600b1462015db6578051838110156201d19057600c1462015db6578051838110156201d19057600d1462015db6578051838110156201d19057600e1462015db6578051838110156201d19057600f1462015db6578051838110156201d1905760101462015db6578051838110156201d1905760111462015db6578051838110156201d1905760121462015db6578051838110156201d1905760131462015db6578051838110156201d1905760141462015db6578051838110156201d1905760151462015db65751918210156201d17b5750601e14620031f85750600090565b602190634e487b7160e01b6000525260246000fd5b602183634e487b7160e01b6000525260246000fd5b505090565b6201d1b5816201cfc7565b156201d224576020810151602681101562002942576004146201d211576040015160c0015180516201d1ff57506040516201d1f08162002a5e565b60008152600036813790600090565b6201d20a9062004c22565b5190600190565b60c060406201d20a920151015162004c46565b506040516201d1f08162002a5e565b6020810151602681101562002942576004146201d25957506040516201d1f08162002a5e565b60c060406201d20a920151015162004c22565b6201d277816201d3bc565b156201d3ac57602081019081519160269081841015620029425760018094146201d3915780518281101562002942576003146201d3915780519082821015620029425760048092146201d375578051838110156201d190576005146201d375578051838110156201d190576006146201d375578051838110156201d190576014146201d375578051838110156201d190576015146201d3755751918210156201d17b5750601e146201d357575050604051906201d3348262002a5e565b60008252604051916201d3478362002a5e565b6000835260003681379190600090565b604001916201d37060a0620077f0818651015162004c22565b519190565b505050604001916201d37060a0620077f0818651015162004c22565b5050604001916201d37060a0620077f0818651015162004c22565b50604051906201d3348262002a5e565b60200180519060269081831015620029425760018093146201d1a5578051828110156200294257600214620066385780518281101562002942576003146201d1a557805190828210156200294257600480921462015db6578051838110156201d1905760141462015db6578051838110156201d1905760151462015db6578051838110156201d19057601e1462015db6578051838110156201d1905760051462015db65751918210156201d17b5750600614620031f85750600090565b916101f581146201d523576101f681146201d517576101f781146201d50b576101f881146201d4ff576101f981146201d4f3576101fa81146201d4e7576101fb81146201d4db576101fc146201d4d0575050600090565b620031f8916201df74565b50620031f8916201ddcf565b50620031f8916201dc6a565b50620031f8916201db05565b50620031f8916201d9a0565b50620031f8916201d7fb565b50620031f8916201d696565b50620031f891906020019060019182815151036201d63c57826201d548825162004c22565b5151036201d5e2576020820151602681101562002942576002036200663857600091835b6201d57a5750505050600090565b604081019260a0936201d591858251015162004c57565b51518210156201d5da57816200749487966201d5b09351015162004c57565b516201d5c162006854855162004c22565b5110620050f7576201d5d39062004c12565b926201d56c565b505062015deb565b60405162461bcd60e51b815260206004820152603160248201527f43452049445f3530313a205468652055494e543235365f324441525241595b30604482015260008051602062031be88339815191526064820152608490fd5b60405162461bcd60e51b815260206004820152602e60248201527f43452049445f3530313a205468652055494e543235365f32444152524159206c604482015260008051602062031c688339815191526064820152608490fd5b906020019060019182815151036201d7a157826201d6b5825162004c22565b5151036201d747576020820151602681101562002942576002036200663857600091835b6201d6e75750505050600090565b604081019260a0936201d6fe858251015162004c57565b51518210156201d5da57816200749487966201d71d9351015162004c57565b516201d72e62006854855162004c22565b5111620050f7576201d7409062004c12565b926201d6d9565b60405162461bcd60e51b815260206004820152603160248201527f43452049445f3530323a205468652055494e543235365f324441525241595b30604482015260008051602062031be88339815191526064820152608490fd5b60405162461bcd60e51b815260206004820152602e60248201527f43452049445f3530323a205468652055494e543235365f32444152524159206c604482015260008051602062031c688339815191526064820152608490fd5b906020019060019182815151036201d9465760026201d81b825162004c22565b5151036201d8ec576020820151602681101562002942576002036200663857600091835b6201d84d5750505050600090565b604081019260a0936201d864858251015162004c57565b51518210156201d5da5781856201d88582620074948a998651015162004c57565b516201d89662006854885162004c22565b51111592836201d8bb575b505050620050f7576201d8b49062004c12565b926201d83f565b5101516201d8cf9250620074949062004c57565b516201d8e062015a55855162004c22565b5110158138806201d8a1565b60405162461bcd60e51b815260206004820152603160248201527f43452049445f3530333a205468652055494e543235365f324441525241595b30604482015260008051602062031d488339815191526064820152608490fd5b60405162461bcd60e51b815260206004820152602e60248201527f43452049445f3530333a205468652055494e543235365f32444152524159206c604482015260008051602062031c688339815191526064820152608490fd5b906020019060019182815151036201daab57826201d9bf825162004c22565b5151036201da51576020820151602681101562002942576002036200663857600091835b6201d9f15750505050600090565b604081019260a0936201da08858251015162004c57565b51518210156201d5da57816200749487966201da279351015162004c57565b516201da3862006854855162004c22565b5114620050f7576201da4a9062004c12565b926201d9e3565b60405162461bcd60e51b815260206004820152603160248201527f43452049445f3530343a205468652055494e543235365f324441525241595b30604482015260008051602062031be88339815191526064820152608490fd5b60405162461bcd60e51b815260206004820152602e60248201527f43452049445f3530343a205468652055494e543235365f32444152524159206c604482015260008051602062031c688339815191526064820152608490fd5b906020019060019182815151036201dc1057826201db24825162004c22565b5151036201dbb6576020820151602681101562002942576002036200663857600091835b6201db565750505050600090565b604081019260a0936201db6d858251015162004c68565b51518210156201d5da57816200749487966201db8c9351015162004c46565b516201db9d62006854855162004c22565b5110620050f7576201dbaf9062004c12565b926201db48565b60405162461bcd60e51b815260206004820152603160248201527f43452049445f3530353a205468652055494e543235365f324441525241595b30604482015260008051602062031be88339815191526064820152608490fd5b60405162461bcd60e51b815260206004820152602e60248201527f43452049445f3530353a205468652055494e543235365f32444152524159206c604482015260008051602062031c688339815191526064820152608490fd5b906020019060019182815151036201dd7557826201dc89825162004c22565b5151036201dd1b576020820151602681101562002942576002036200663857600091835b6201dcbb5750505050600090565b604081019260a0936201dcd2858251015162004c68565b51518210156201d5da57816200749487966201dcf19351015162004c46565b516201dd0262006854855162004c22565b5111620050f7576201dd149062004c12565b926201dcad565b60405162461bcd60e51b815260206004820152603160248201527f43452049445f3530363a205468652055494e543235365f324441525241595b30604482015260008051602062031be88339815191526064820152608490fd5b60405162461bcd60e51b815260206004820152602e60248201527f43452049445f3530363a205468652055494e543235365f32444152524159206c604482015260008051602062031c688339815191526064820152608490fd5b906020019060019182815151036201df1a5760026201ddef825162004c22565b5151036201dec0576020820151602681101562002942576002036200663857600091835b6201de215750505050600090565b604081019260a0936201de38858251015162004c68565b51518210156201d5da5781856201de5982620074948a998651015162004c46565b516201de6a62006854885162004c22565b51111592836201de8f575b505050620050f7576201de889062004c12565b926201de13565b5101516201dea39250620074949062004c46565b516201deb462015a55855162004c22565b5110158138806201de75565b60405162461bcd60e51b815260206004820152603160248201527f43452049445f3530373a205468652055494e543235365f324441525241595b30604482015260008051602062031d488339815191526064820152608490fd5b60405162461bcd60e51b815260206004820152602e60248201527f43452049445f3530373a205468652055494e543235365f32444152524159206c604482015260008051602062031c688339815191526064820152608490fd5b906020019060019182815151036201e07f57826201df93825162004c22565b5151036201e025576020820151602681101562002942576002036200663857600091835b6201dfc55750505050600090565b604081019260a0936201dfdc858251015162004c68565b51518210156201d5da57816200749487966201dffb9351015162004c46565b516201e00c62006854855162004c22565b5114620050f7576201e01e9062004c12565b926201dfb7565b60405162461bcd60e51b815260206004820152603160248201527f43452049445f3530383a205468652055494e543235365f324441525241595b30604482015260008051602062031be88339815191526064820152608490fd5b60405162461bcd60e51b815260206004820152602e60248201527f43452049445f3530383a205468652055494e543235365f32444152524159206c604482015260008051602062031c688339815191526064820152608490fd5b91603381036201e1c3575060209150016001815151036201e1735760016201e102825162004c22565b5151036201e12057620068546201e11a915162004c22565b51421190565b60405162461bcd60e51b815260206004820152602560248201527f43452049445f35313a2055494e543235365f324441525241595b305d20697320604482015264656d70747960d81b6064820152608490fd5b60405162461bcd60e51b815260206004820152602260248201527f43452049445f35313a2055494e543235365f3244415252415920697320656d70604482015261747960f01b6064820152608490fd5b603481036201e2ac575060209150016001815151036201e25c5760016201e1eb825162004c22565b5151036201e20957620068546201e203915162004c22565b51421090565b60405162461bcd60e51b815260206004820152602560248201527f43452049445f35323a2055494e543235365f324441525241595b305d20697320604482015264656d70747960d81b6064820152608490fd5b60405162461bcd60e51b815260206004820152602260248201527f43452049445f35323a2055494e543235365f3244415252415920697320656d70604482015261747960f01b6064820152608490fd5b603581036201e3be575060209150016001815151036201e36e5760026201e2d4825162004c22565b5151036201e314576201e2ec62006854825162004c22565b5142101590816201e2fb575090565b6201e30d915062015a55905162004c22565b5142111590565b60405162461bcd60e51b815260206004820152603160248201527f43452049445f35333a2055494e543235365f324441525241595b305d206d7573604482015260008051602062031d088339815191526064820152608490fd5b60405162461bcd60e51b815260206004820152602260248201527f43452049445f35333a2055494e543235365f3244415252415920697320656d70604482015261747960f01b6064820152608490fd5b603681036201e4c2575060209150016001815151036201e4685760016201e3e6825162004c22565b5151036201e40e5762015831620068546201e401426200628d565b5050505050925162004c22565b60405162461bcd60e51b815260206004820152603060248201527f43452049445f35343a2055494e543235365f324441525241595b305d206d7573604482015260008051602062031de88339815191526064820152608490fd5b60405162461bcd60e51b815260206004820152602d60248201527f43452049445f35343a2055494e543235365f32444152524159206d7573742068604482015260008051602062031b288339815191526064820152608490fd5b603781036201e5b9575060209150016001815151036201e55f5760016201e4ea825162004c22565b5151036201e5055762015932620068546201e401426200628d565b60405162461bcd60e51b815260206004820152603060248201527f43452049445f35353a2055494e543235365f324441525241595b305d206d7573604482015260008051602062031de88339815191526064820152608490fd5b60405162461bcd60e51b815260206004820152602d60248201527f43452049445f35353a2055494e543235365f32444152524159206d7573742068604482015260008051602062031b288339815191526064820152608490fd5b603881036201e6bd575060209150016001815151036201e6635760026201e5e1825162004c22565b5151036201e609576201e5f4426200628d565b505050505062015a3262006854835162004c22565b60405162461bcd60e51b815260206004820152603160248201527f43452049445f35363a2055494e543235365f324441525241595b305d206d7573604482015260008051602062031d088339815191526064820152608490fd5b60405162461bcd60e51b815260206004820152602d60248201527f43452049445f35363a2055494e543235365f32444152524159206d7573742068604482015260008051602062031b288339815191526064820152608490fd5b603981036201e7c2575060209150016001815151036201e7685760016201e6e5825162004c22565b5151036201e70e5762015831620068546201e700426200628d565b505050509390505162004c22565b60405162461bcd60e51b815260206004820152603060248201527f43452049445f35373a2055494e543235365f324441525241595b305d206d7573604482015260008051602062031de88339815191526064820152608490fd5b60405162461bcd60e51b815260206004820152602d60248201527f43452049445f35373a2055494e543235365f32444152524159206d7573742068604482015260008051602062031b288339815191526064820152608490fd5b603a81036201e8b9575060209150016001815151036201e85f5760016201e7ea825162004c22565b5151036201e8055762015932620068546201e700426200628d565b60405162461bcd60e51b815260206004820152603060248201527f43452049445f35383a2055494e543235365f324441525241595b305d206d7573604482015260008051602062031de88339815191526064820152608490fd5b60405162461bcd60e51b815260206004820152602d60248201527f43452049445f35383a2055494e543235365f32444152524159206d7573742068604482015260008051602062031b288339815191526064820152608490fd5b603b81036201e9be575060209150016001815151036201e9645760026201e8e1825162004c22565b5151036201e90a576201e8f4426200628d565b50505050905062015a3262006854835162004c22565b60405162461bcd60e51b815260206004820152603160248201527f43452049445f35393a2055494e543235365f324441525241595b305d206d7573604482015260008051602062031d088339815191526064820152608490fd5b60405162461bcd60e51b815260206004820152602d60248201527f43452049445f35393a2055494e543235365f32444152524159206d7573742068604482015260008051602062031b288339815191526064820152608490fd5b603c81036201eac3575060209150016001815151036201ea695760016201e9e6825162004c22565b5151036201ea0f5762015831620068546201ea01426200628d565b505050949150505162004c22565b60405162461bcd60e51b815260206004820152603060248201527f43452049445f36303a2055494e543235365f324441525241595b305d206d7573604482015260008051602062031de88339815191526064820152608490fd5b60405162461bcd60e51b815260206004820152602d60248201527f43452049445f36303a2055494e543235365f32444152524159206d7573742068604482015260008051602062031b288339815191526064820152608490fd5b603d81036201ebba575060209150016001815151036201eb605760016201eaeb825162004c22565b5151036201eb065762015932620068546201ea01426200628d565b60405162461bcd60e51b815260206004820152603060248201527f43452049445f36313a2055494e543235365f324441525241595b305d206d7573604482015260008051602062031de88339815191526064820152608490fd5b60405162461bcd60e51b815260206004820152602d60248201527f43452049445f36313a2055494e543235365f32444152524159206d7573742068604482015260008051602062031b288339815191526064820152608490fd5b603e81036201ecbf575060209150016001815151036201ec655760026201ebe2825162004c22565b5151036201ec0b576201ebf5426200628d565b50505091505062015a3262006854835162004c22565b60405162461bcd60e51b815260206004820152603160248201527f43452049445f36323a2055494e543235365f324441525241595b305d206d7573604482015260008051602062031d088339815191526064820152608490fd5b60405162461bcd60e51b815260206004820152602d60248201527f43452049445f36323a2055494e543235365f32444152524159206d7573742068604482015260008051602062031b288339815191526064820152608490fd5b603f81036201edc4575060209150016001815151036201ed6a5760016201ece7825162004c22565b5151036201ed105762015831620068546201ed02426200628d565b505095925050505162004c22565b60405162461bcd60e51b815260206004820152603060248201527f43452049445f36333a2055494e543235365f324441525241595b305d206d7573604482015260008051602062031de88339815191526064820152608490fd5b60405162461bcd60e51b815260206004820152602d60248201527f43452049445f36333a2055494e543235365f32444152524159206d7573742068604482015260008051602062031b288339815191526064820152608490fd5b6040928184036201eeba575050602001906001825151036201ee625760016201edee835162004c22565b5151036201ee0a575062015932620068546201ed02426200628d565b5162461bcd60e51b815260206004820152603060248201527f43452049445f36343a2055494e543235365f324441525241595b305d206d7573604482015260008051602062031de88339815191526064820152608490fd5b5162461bcd60e51b815260206004820152602d60248201527f43452049445f36343a2055494e543235365f32444152524159206d7573742068604482015260008051602062031b288339815191526064820152608490fd5b604182036201efbc575050602001906001825151036201ef645760026201eee2835162004c22565b5151036201ef0c57506201eef6426200628d565b50509250505062015a3262006854835162004c22565b5162461bcd60e51b815260206004820152603160248201527f43452049445f36353a2055494e543235365f324441525241595b305d206d7573604482015260008051602062031d088339815191526064820152608490fd5b5162461bcd60e51b815260206004820152602d60248201527f43452049445f36353a2055494e543235365f32444152524159206d7573742068604482015260008051602062031b288339815191526064820152608490fd5b9092604284036201efd45750620031f8925062020232565b604384036201efea5750620031f892506202043c565b60448481036201f002575050620031f892506202063e565b604585036201f019575050620031f89250620208bb565b604685036201f030575050620031f8925062020abd565b604785036201f047575050620031f8925062020cbf565b604885036201f05e575050620031f8925062020fa2565b604985036201f075575050620031f89250620212ad565b604a85036201f08c575050620031f8925062021589565b604b85036201f0a3575050620031f892506202194c565b604c85036201f0ba575050620031f8925062021af5565b604d85036201f0d1575050620031f8925062021bf9565b604e85036201f0e8575050620031f8925062021d51565b604f85036201f0ff575050620031f8925062021ed0565b605085036201f116575050620031f8925062021fd4565b91909293605581146000146201f2d6575060208401926002845151036201f27e57600192836201f147865162004c46565b5151036201f227575090829160009586945b6201f174575b50505050506200685462015831915162004c46565b90919293956201f1878383015162004c22565b51518710156201f220576201f1dd9084156201f1e85762009842906201f1c160646201f1b98b620074948c5162004c22565b51106202212c565b6201a5d96201f1d68a620074948b5162004c22565b51620060e5565b93929190836201f159565b62009842906201f20460646201f1b98b620074948c5162004c22565b6201a5d96201f2198a620074948b5162004c22565b5162006113565b956201f15f565b7f43452049445f38353a20414444524553535f324441525241595b305d206d7573608492519162461bcd60e51b8352602060048401526030602484015282015260008051602062031de88339815191526064820152fd5b5162461bcd60e51b815260206004820152602d60248201527f43452049445f38353a20414444524553535f32444152524159206d7573742068818401526c185d99480c88195b195b595b9d609a1b6064820152608490fd5b605681036201f457575060208401926002845151036201f3ff57600192836201f300865162004c46565b5151036201f3a8575090829160009586945b6201f32d575b50505050506200685462015932915162004c46565b90919293956201f3408383015162004c22565b51518710156201f3a1576201f37a9084156201f3855762009842906201f1c160646201f3728b620074948c5162004c22565b51106202219e565b93929190836201f312565b62009842906201f20460646201f3728b620074948c5162004c22565b956201f318565b7f43452049445f38363a20414444524553535f324441525241595b305d206d7573608492519162461bcd60e51b8352602060048401526030602484015282015260008051602062031de88339815191526064820152fd5b5162461bcd60e51b815260206004820152602d60248201527f43452049445f38363a20414444524553535f32444152524159206d7573742068818401526c185d99480c88195b195b595b9d609a1b6064820152608490fd5b91949091605781036201f61b575060208401946002865151036201f5c25760026201f483875162004c46565b5151036201f56a5750600092835b6201f49f8287015162004c22565b51518510156201f53057906201f4f6856201f49f9389876000146201f5005760646201f4d96200960f94620074946201f4e1945162004c22565b511062022210565b6201a5d96201f1d689620074948d5162004c22565b949091506201f491565b60646201f4d96200960f94620074946201f51b945162004c22565b6201a5d96201f21989620074948d5162004c22565b935050939250506201f54762006854835162004c46565b5181101591826201f55757505090565b62015a5c91925062015a55905162004c46565b6084907f43452049445f38373a20414444524553535f324441525241595b305d206d757385519162461bcd60e51b8352602060048401526031602484015282015260008051602062031d088339815191526064820152fd5b6084907f43452049445f38373a20414444524553535f32444152524159206d757374206885519162461bcd60e51b835260206004840152602d60248401528201526c185d99480c88195b195b595b9d609a1b6064820152fd5b90949190605881036201f7d0575060208401926002845151036201f77857600192836201f649865162004c46565b5151036201f721575090829160009586945b6201f6755750505050506200685462015831915162004c46565b90919293956201f6888383015162004c22565b51518710156201f220576201f6de9084156201f6e95762009842906201f6c260646201f6ba8b620074948c5162004c22565b511062022282565b6201a5d96201f6d78a620074948b5162004c22565b5162005d82565b93929190836201f65b565b62009842906201f70560646201f6ba8b620074948c5162004c22565b6201a5d96201f71a8a620074948b5162004c22565b5162005db7565b7f43452049445f38383a20414444524553535f324441525241595b305d206d7573608492519162461bcd60e51b8352602060048401526030602484015282015260008051602062031de88339815191526064820152fd5b5162461bcd60e51b815260206004820152602d60248201527f43452049445f38383a20414444524553535f32444152524159206d7573742068818401526c185d99480c88195b195b595b9d609a1b6064820152608490fd5b605981036201f949575060208401926002845151036201f8f157600192836201f7fa865162004c46565b5151036201f89a575090829160009586945b6201f8265750505050506200685462015932915162004c46565b90919293956201f8398383015162004c22565b51518710156201f3a1576201f8739084156201f87e5762009842906201f6c260646201f86b8b620074948c5162004c22565b5110620222f4565b93929190836201f80c565b62009842906201f70560646201f86b8b620074948c5162004c22565b7f43452049445f38393a20414444524553535f324441525241595b305d206d7573608492519162461bcd60e51b8352602060048401526030602484015282015260008051602062031de88339815191526064820152fd5b5162461bcd60e51b815260206004820152602d60248201527f43452049445f38393a20414444524553535f32444152524159206d7573742068818401526c185d99480c88195b195b595b9d609a1b6064820152608490fd5b91949091605a81036201fad3575060208401946002865151036201fa7a5760026201f975875162004c46565b5151036201fa225750600092835b6201f9918287015162004c22565b51518510156201f53057906201f9e8856201f9919389876000146201f9f25760646201f9cb6200960f94620074946201f9d3945162004c22565b511062022366565b6201a5d96201f6d789620074948d5162004c22565b949091506201f983565b60646201f9cb6200960f94620074946201fa0d945162004c22565b6201a5d96201f71a89620074948d5162004c22565b6084907f43452049445f39303a20414444524553535f324441525241595b305d206d757385519162461bcd60e51b8352602060048401526031602484015282015260008051602062031d088339815191526064820152fd5b6084907f43452049445f39303a20414444524553535f32444152524159206d757374206885519162461bcd60e51b835260206004840152602d60248401528201526c185d99480c88195b195b595b9d609a1b6064820152fd5b90949190605b81036201fcaa575060208401926002845151036201fc5257600192836201fb01865162004c46565b5151036201fbfb575090829160009586945b6201fb2d5750505050506200685462015831915162004c46565b90919293956201fb408383015162004c22565b51518710156201f2205783156201fbaf5760646201fb71816201fb698a620074948b5162004c22565b5110620223d8565b6201fb828862007494895162004c22565b519081101562004c30576201fba4916006620098429260031b01549062006271565b93929190836201fb13565b60646201fbc7816201fb698a620074948b5162004c22565b6201fbd88862007494895162004c22565b519081101562004c30576201fba49161039e620098429260031b01549062006271565b7f43452049445f39313a20414444524553535f324441525241595b305d206d7573608492519162461bcd60e51b8352602060048401526030602484015282015260008051602062031de88339815191526064820152fd5b5162461bcd60e51b815260206004820152602d60248201527f43452049445f39313a20414444524553535f32444152524159206d7573742068818401526c185d99480c88195b195b595b9d609a1b6064820152608490fd5b605c81036201fe7d575060208401926002845151036201fe2557600192836201fcd4865162004c46565b5151036201fdce575090829160009586945b6201fd005750505050506200685462015932915162004c46565b90919293956201fd138383015162004c22565b51518710156201f3a15783156201fd825760646201fd44816201fd3c8a620074948b5162004c22565b51106202244a565b6201fd558862007494895162004c22565b519081101562004c30576201fd77916006620098429260031b01549062006271565b93929190836201fce6565b60646201fd9a816201fd3c8a620074948b5162004c22565b6201fdab8862007494895162004c22565b519081101562004c30576201fd779161039e620098429260031b01549062006271565b7f43452049445f39323a20414444524553535f324441525241595b305d206d7573608492519162461bcd60e51b8352602060048401526030602484015282015260008051602062031de88339815191526064820152fd5b5162461bcd60e51b815260206004820152602d60248201527f43452049445f39323a20414444524553535f32444152524159206d7573742068818401526c185d99480c88195b195b595b9d609a1b6064820152608490fd5b605d8196929394961460001462020054575060208401926002845151036201fffb5760026201fead855162004c46565b5151036201ffa35750600080955b6201fec98187015162004c22565b51518710156201ff8c5783156201ff3b576064916201fefb836201fef38a620074948a5162004c22565b5110620224bc565b6201ff0c8862007494885162004c22565b519283101562004c3057620142c46201ff329160066201fec99560031b01549062006271565b9691506201febb565b6064916201ff54836201fef38a620074948a5162004c22565b6201ff658862007494885162004c22565b519283101562004c3057620142c46201ff329161039e6201fec99560031b01549062006271565b509293509350506201f54762006854835162004c46565b6084907f43452049445f39333a20414444524553535f324441525241595b305d206d757387519162461bcd60e51b8352602060048401526031602484015282015260008051602062031d088339815191526064820152fd5b6084907f43452049445f39333a20414444524553535f32444152524159206d757374206887519162461bcd60e51b835260206004840152602d60248401528201526c185d99480c88195b195b595b9d609a1b6064820152fd5b9094929190605e0362015deb576020840192600284515103620201da576001928362020081865162004c46565b51510362020183575090829160009586945b620200ae575b50505050506200685462015b60915162004c46565b9091929395620200c18383015162004c22565b51518710156202017c57831562020130576064620200f281620200ea8a620074948b5162004c22565b51106202252e565b620201038862007494895162004c22565b519081101562004c305762020125916006620098429260031b01549062006271565b939291908362020093565b60646202014881620200ea8a620074948b5162004c22565b620201598862007494895162004c22565b519081101562004c3057620201259161039e620098429260031b01549062006271565b9562020099565b7f43452049445f39343a20414444524553535f324441525241595b305d206d7573608492519162461bcd60e51b8352602060048401526030602484015282015260008051602062031de88339815191526064820152fd5b5162461bcd60e51b815260206004820152602d60248201527f43452049445f39343a20414444524553535f32444152524159206d7573742068818401526c185d99480c88195b195b595b9d609a1b6064820152608490fd5b906040810190600182515103620203e257600162020251835162004c22565b5151036202038857602001916001835151036202032e57600162020276845162004c22565b515103620202d45715620202b05762006854620202a862015831926201a4296200685460018060a01b03925162004c22565b925162004c22565b62006854620202a862015831926201a4a46200685460018060a01b03925162004c22565b60405162461bcd60e51b815260206004820152603060248201527f43452049445f36363a2055494e543235365f324441525241595b305d206d7573604482015260008051602062031de88339815191526064820152608490fd5b60405162461bcd60e51b815260206004820152602d60248201527f43452049445f36363a2055494e543235365f32444152524159206d7573742068604482015260008051602062031b288339815191526064820152608490fd5b60405162461bcd60e51b815260206004820152603060248201527f43452049445f36363a20414444524553535f324441525241595b305d206d7573604482015260008051602062031de88339815191526064820152608490fd5b60405162461bcd60e51b815260206004820152602d60248201527f43452049445f36363a20414444524553535f32444152524159206d7573742068604482015260008051602062031b288339815191526064820152608490fd5b906040810190600182515103620205e45760016202045b835162004c22565b5151036202058a57602001916001835151036202053057600162020480845162004c22565b515103620204d65715620204b25762006854620202a862015932926201a4296200685460018060a01b03925162004c22565b62006854620202a862015932926201a4a46200685460018060a01b03925162004c22565b60405162461bcd60e51b815260206004820152603060248201527f43452049445f36373a2055494e543235365f324441525241595b305d206d7573604482015260008051602062031de88339815191526064820152608490fd5b60405162461bcd60e51b815260206004820152602d60248201527f43452049445f36373a2055494e543235365f32444152524159206d7573742068604482015260008051602062031b288339815191526064820152608490fd5b60405162461bcd60e51b815260206004820152603060248201527f43452049445f36373a20414444524553535f324441525241595b305d206d7573604482015260008051602062031de88339815191526064820152608490fd5b60405162461bcd60e51b815260206004820152602d60248201527f43452049445f36373a20414444524553535f32444152524159206d7573742068604482015260008051602062031b288339815191526064820152608490fd5b6040820191600183515103620208615760016202065c845162004c22565b515103620208075760200190600182515103620207ad57600262020681835162004c22565b515103620207535715620206f75760018060a01b03620206ab816201a42962006854865162004c22565b620206bb62006854845162004c22565b5111159283620206cb5750505090565b620206eb92935062015a55916201a42962006854620202a8935162004c22565b51101538808062015db6565b60018060a01b0362020713816201a4a462006854865162004c22565b6202072362006854845162004c22565b5111159283620207335750505090565b620206eb92935062015a55916201a4a462006854620202a8935162004c22565b60405162461bcd60e51b815260206004820152603160248201527f43452049445f36383a2055494e543235365f324441525241595b305d206d7573604482015260008051602062031d088339815191526064820152608490fd5b60405162461bcd60e51b815260206004820152602d60248201527f43452049445f36383a2055494e543235365f32444152524159206d7573742068604482015260008051602062031b288339815191526064820152608490fd5b60405162461bcd60e51b815260206004820152603060248201527f43452049445f36383a20414444524553535f324441525241595b305d206d7573604482015260008051602062031de88339815191526064820152608490fd5b60405162461bcd60e51b815260206004820152602d60248201527f43452049445f36383a20414444524553535f32444152524159206d7573742068604482015260008051602062031b288339815191526064820152608490fd5b90604081019060018251510362020a63576001620208da835162004c22565b51510362020a095760200191600183515103620209af576001620208ff845162004c22565b515103620209555715620209315762006854620202a862015831926201b32c6200685460018060a01b03925162004c22565b62006854620202a862015831926201b3a76200685460018060a01b03925162004c22565b60405162461bcd60e51b815260206004820152603060248201527f43452049445f36393a2055494e543235365f324441525241595b305d206d7573604482015260008051602062031de88339815191526064820152608490fd5b60405162461bcd60e51b815260206004820152602d60248201527f43452049445f36393a2055494e543235365f32444152524159206d7573742068604482015260008051602062031b288339815191526064820152608490fd5b60405162461bcd60e51b815260206004820152603060248201527f43452049445f36393a20414444524553535f324441525241595b305d206d7573604482015260008051602062031de88339815191526064820152608490fd5b60405162461bcd60e51b815260206004820152602d60248201527f43452049445f36393a20414444524553535f32444152524159206d7573742068604482015260008051602062031b288339815191526064820152608490fd5b90604081019060018251510362020c6557600162020adc835162004c22565b51510362020c0b576020019160018351510362020bb157600162020b01845162004c22565b51510362020b57571562020b335762006854620202a862015932926201b32c6200685460018060a01b03925162004c22565b62006854620202a862015932926201b3a76200685460018060a01b03925162004c22565b60405162461bcd60e51b815260206004820152603060248201527f43452049445f37303a2055494e543235365f324441525241595b305d206d7573604482015260008051602062031de88339815191526064820152608490fd5b60405162461bcd60e51b815260206004820152602d60248201527f43452049445f37303a2055494e543235365f32444152524159206d7573742068604482015260008051602062031b288339815191526064820152608490fd5b60405162461bcd60e51b815260206004820152603060248201527f43452049445f37303a20414444524553535f324441525241595b305d206d7573604482015260008051602062031de88339815191526064820152608490fd5b60405162461bcd60e51b815260206004820152602d60248201527f43452049445f37303a20414444524553535f32444152524159206d7573742068604482015260008051602062031b288339815191526064820152608490fd5b604082019160018351510362020ed657600162020cdd845162004c22565b51510362020e7c576020019060018251510362020e2257600262020d02835162004c22565b51510362020dc8571562020d6c5760018060a01b0362020d2c816201b32c62006854865162004c22565b62020d3c62006854845162004c22565b511115928362020d4c5750505090565b620206eb92935062015a55916201b32c62006854620202a8935162004c22565b60018060a01b0362020d88816201b3a762006854865162004c22565b62020d9862006854845162004c22565b511115928362020da85750505090565b620206eb92935062015a55916201b3a762006854620202a8935162004c22565b60405162461bcd60e51b815260206004820152603160248201527f43452049445f37313a2055494e543235365f324441525241595b305d206d7573604482015260008051602062031d088339815191526064820152608490fd5b60405162461bcd60e51b815260206004820152602d60248201527f43452049445f37313a2055494e543235365f32444152524159206d7573742068604482015260008051602062031b288339815191526064820152608490fd5b60405162461bcd60e51b815260206004820152603060248201527f43452049445f37313a20414444524553535f324441525241595b305d206d7573604482015260008051602062031de88339815191526064820152608490fd5b60405162461bcd60e51b815260206004820152602d60248201527f43452049445f37313a20414444524553535f32444152524159206d7573742068604482015260008051602062031b288339815191526064820152608490fd5b1562020f3857565b60405162461bcd60e51b815260206004820152604760248201527f43452049445f37323a20746f6b656e436c617373496e6465782028706172616d604482015260008051602062031cc8833981519152606482015266662072616e676560c81b608482015260a490fd5b90604080820191600183515103620211e257600162020fc2845162004c22565b5151036202118957602001926001845151036202113057600262020fe7855162004c22565b515103620210d7571562021069576202101360646202100b62006854865162004c22565b511062020f30565b6202102362006854845162004c22565b5190606482101562004c3057600362015a55926201583194620210526200685460018060a01b03925162004c22565b5116600052811b0160205260002054925162004c22565b6202107f60646202100b62006854865162004c22565b6202108f62006854845162004c22565b5190606482101562004c305761039b62015a55926201583194620210bf6200685460018060a01b03925162004c22565b511660005260031b0160205260002054925162004c22565b815162461bcd60e51b815260206004820152603160248201527f43452049445f37323a2055494e543235365f324441525241595b305d206d7573604482015260008051602062031d088339815191526064820152608490fd5b815162461bcd60e51b815260206004820152602d60248201527f43452049445f37323a2055494e543235365f32444152524159206d7573742068604482015260008051602062031b288339815191526064820152608490fd5b815162461bcd60e51b815260206004820152603060248201527f43452049445f37323a20414444524553535f324441525241595b305d206d7573604482015260008051602062031de88339815191526064820152608490fd5b815162461bcd60e51b815260206004820152602d60248201527f43452049445f37323a20414444524553535f32444152524159206d7573742068604482015260008051602062031b288339815191526064820152608490fd5b156202124357565b60405162461bcd60e51b815260206004820152604760248201527f43452049445f37333a20746f6b656e436c617373496e6465782028706172616d604482015260008051602062031cc8833981519152606482015266662072616e676560c81b608482015260a490fd5b90604080820191600183515103620214be576001620212cd845162004c22565b5151036202146557602001926001845151036202140c576002620212f2855162004c22565b515103620213b357156202135d576202131e60646202131662006854865162004c22565b51106202123b565b6202132e62006854845162004c22565b5190606482101562004c3057600362015a55926201593294620210526200685460018060a01b03925162004c22565b6202137360646202131662006854865162004c22565b6202138362006854845162004c22565b5190606482101562004c305761039b62015a55926201593294620210bf6200685460018060a01b03925162004c22565b815162461bcd60e51b815260206004820152603160248201527f43452049445f37333a2055494e543235365f324441525241595b305d206d7573604482015260008051602062031d088339815191526064820152608490fd5b815162461bcd60e51b815260206004820152602d60248201527f43452049445f37333a2055494e543235365f32444152524159206d7573742068604482015260008051602062031b288339815191526064820152608490fd5b815162461bcd60e51b815260206004820152603060248201527f43452049445f37333a20414444524553535f324441525241595b305d206d7573604482015260008051602062031de88339815191526064820152608490fd5b815162461bcd60e51b815260206004820152602d60248201527f43452049445f37333a20414444524553535f32444152524159206d7573742068604482015260008051602062031b288339815191526064820152608490fd5b156202151f57565b60405162461bcd60e51b815260206004820152604760248201527f43452049445f37343a20746f6b656e436c617373496e6465782028706172616d604482015260008051602062031cc8833981519152606482015266662072616e676560c81b608482015260a490fd5b90604080820192600184515103620218f3576001620215a9855162004c22565b5151036202189a57602080930192600184515103620218425760039182620215d2865162004c22565b515103620217e45715620216e357620215fe6064620215f662006854875162004c22565b511062021517565b6202160e62006854855162004c22565b5191606483101562004c305760018060a01b039581876202163462006854845162004c22565b5116946000958652811b018352848420546202165562015a55885162004c22565b51111596876202166a575b5050505050505090565b90919293949596506202168262006854885162004c22565b51916064831015620216cf57916201c50b959391620216ac62006854620216bf9997955162004c22565b51168452811b0190522054925162004c22565b5110153880808080808062021660565b634e487b7160e01b86526032600452602486fd5b620216f96064620215f662006854875162004c22565b6202170962006854855162004c22565b51606481101562004c305760018060a01b0395866202172d62006854835162004c22565b511693600094855261039b8093821b018452858520546202175362015a55895162004c22565b511115978862021769575b505050505050505090565b9091929394959697506202178262006854895162004c22565b51926064841015620217d05791620217bf97959391620217ad620068546201c50b9997955162004c22565b511685521b0190522054925162004c22565b51101538808080808080806202175e565b634e487b7160e01b87526032600452602487fd5b835162461bcd60e51b815260048101839052603160248201527f43452049445f37343a2055494e543235365f324441525241595b305d206d7573604482015270742068617665203320656c656d656e747360781b6064820152608490fd5b60849083519062461bcd60e51b82526004820152602d60248201527f43452049445f37343a2055494e543235365f32444152524159206d7573742068604482015260008051602062031b288339815191526064820152fd5b815162461bcd60e51b815260206004820152603060248201527f43452049445f37343a20414444524553535f324441525241595b305d206d7573604482015260008051602062031de88339815191526064820152608490fd5b815162461bcd60e51b815260206004820152602d60248201527f43452049445f37343a20414444524553535f32444152524159206d7573742068604482015260008051602062031b288339815191526064820152608490fd5b9060200190600182515103620219f65760016202196a835162004c22565b5151036202199c57156202198a576201583162006854620202a862021ab8565b6201583162006854620202a862021a50565b60405162461bcd60e51b815260206004820152603060248201527f43452049445f37353a2055494e543235365f324441525241595b305d206d7573604482015260008051602062031de88339815191526064820152608490fd5b60405162461bcd60e51b815260206004820152602d60248201527f43452049445f37353a2055494e543235365f32444152524159206d7573742068604482015260008051602062031b288339815191526064820152608490fd5b6000805b6064811062021a61575090565b908160031b60ff61039f820154161562021ab25762021a9f62021aac9262021a9761039962021aa594015462005da88762005fe7565b92906200607c565b62006271565b9162004c12565b62021a54565b50905090565b6000805b6064811062021ac9575090565b9060ff60078360031b01541615620061fd5762021aa562021aef916201a5d984620060e5565b62021abc565b906020019060018251510362021b9f57600162021b13835162004c22565b51510362021b45571562021b33576201593262006854620202a862021ab8565b6201593262006854620202a862021a50565b60405162461bcd60e51b815260206004820152603060248201527f43452049445f37363a2055494e543235365f324441525241595b305d206d7573604482015260008051602062031de88339815191526064820152608490fd5b60405162461bcd60e51b815260206004820152602d60248201527f43452049445f37363a2055494e543235365f32444152524159206d7573742068604482015260008051602062031b288339815191526064820152608490fd5b906020019060018251510362021cf757600262021c17835162004c22565b51510362021c9d571562021c615762021c2f62021ab8565b62021c3f62006854835162004c22565b511115908162021c4d575090565b905062015a5c62015a55620202a862021ab8565b62021c6b62021a50565b62021c7b62006854835162004c22565b511115908162021c89575090565b905062015a5c62015a55620202a862021a50565b60405162461bcd60e51b815260206004820152603160248201527f43452049445f37373a2055494e543235365f324441525241595b305d206d7573604482015260008051602062031d088339815191526064820152608490fd5b60405162461bcd60e51b815260206004820152602d60248201527f43452049445f37373a2055494e543235365f32444152524159206d7573742068604482015260008051602062031b288339815191526064820152608490fd5b906020019060018251510362021dfb57600162021d6f835162004c22565b51510362021da1571562021d8f576201583162006854620202a862021e93565b6201583162006854620202a862021e55565b60405162461bcd60e51b815260206004820152603060248201527f43452049445f37383a2055494e543235365f324441525241595b305d206d7573604482015260008051602062031de88339815191526064820152608490fd5b60405162461bcd60e51b815260206004820152602d60248201527f43452049445f37383a2055494e543235365f32444152524159206d7573742068604482015260008051602062031b288339815191526064820152608490fd5b6000805b6064811062021e66575090565b9060ff61039f8360031b01541615620061fd5762021aa562021e8d916201a5d98462005e5e565b62021e59565b6000805b6064811062021ea4575090565b9060ff60078360031b01541615620061fd5762021aa562021eca916201a5d98462005d82565b62021e97565b906020019060018251510362021f7a57600162021eee835162004c22565b51510362021f20571562021f0e576201593262006854620202a862021e93565b6201593262006854620202a862021e55565b60405162461bcd60e51b815260206004820152603060248201527f43452049445f37393a2055494e543235365f324441525241595b305d206d7573604482015260008051602062031de88339815191526064820152608490fd5b60405162461bcd60e51b815260206004820152602d60248201527f43452049445f37393a2055494e543235365f32444152524159206d7573742068604482015260008051602062031b288339815191526064820152608490fd5b9060200190600182515103620220d257600262021ff2835162004c22565b5151036202207857156202203c576202200a62021e93565b6202201a62006854835162004c22565b511115908162022028575090565b905062015a5c62015a55620202a862021e93565b6202204662021e55565b6202205662006854835162004c22565b511115908162022064575090565b905062015a5c62015a55620202a862021e55565b60405162461bcd60e51b815260206004820152603160248201527f43452049445f38303a2055494e543235365f324441525241595b305d206d7573604482015260008051602062031d088339815191526064820152608490fd5b60405162461bcd60e51b815260206004820152602d60248201527f43452049445f38303a2055494e543235365f32444152524159206d7573742068604482015260008051602062031b288339815191526064820152608490fd5b156202213457565b60405162461bcd60e51b815260206004820152604760248201527f43452049445f38353a20746f6b656e436c617373496e6465782028706172616d604482015260008051602062031ce8833981519152606482015266662072616e676560c81b608482015260a490fd5b15620221a657565b60405162461bcd60e51b815260206004820152604760248201527f43452049445f38363a20746f6b656e436c617373496e6465782028706172616d604482015260008051602062031ce8833981519152606482015266662072616e676560c81b608482015260a490fd5b156202221857565b60405162461bcd60e51b815260206004820152604760248201527f43452049445f38373a20746f6b656e436c617373496e6465782028706172616d604482015260008051602062031ce8833981519152606482015266662072616e676560c81b608482015260a490fd5b156202228a57565b60405162461bcd60e51b815260206004820152604760248201527f43452049445f38383a20746f6b656e436c617373496e6465782028706172616d604482015260008051602062031ce8833981519152606482015266662072616e676560c81b608482015260a490fd5b15620222fc57565b60405162461bcd60e51b815260206004820152604760248201527f43452049445f38393a20746f6b656e436c617373496e6465782028706172616d604482015260008051602062031ce8833981519152606482015266662072616e676560c81b608482015260a490fd5b156202236e57565b60405162461bcd60e51b815260206004820152604760248201527f43452049445f39303a20746f6b656e436c617373496e6465782028706172616d604482015260008051602062031ce8833981519152606482015266662072616e676560c81b608482015260a490fd5b15620223e057565b60405162461bcd60e51b815260206004820152604760248201527f43452049445f39313a20746f6b656e436c617373496e6465782028706172616d604482015260008051602062031ce8833981519152606482015266662072616e676560c81b608482015260a490fd5b156202245257565b60405162461bcd60e51b815260206004820152604760248201527f43452049445f39323a20746f6b656e436c617373496e6465782028706172616d604482015260008051602062031ce8833981519152606482015266662072616e676560c81b608482015260a490fd5b15620224c457565b60405162461bcd60e51b815260206004820152604760248201527f43452049445f39333a20746f6b656e436c617373496e6465782028706172616d604482015260008051602062031ce8833981519152606482015266662072616e676560c81b608482015260a490fd5b156202253657565b60405162461bcd60e51b815260206004820152604760248201527f43452049445f39343a20746f6b656e436c617373496e6465782028706172616d604482015260008051602062031ce8833981519152606482015266662072616e676560c81b608482015260a490fd5b91610191811462022608576101928114620225fc576101938114620225f0576101968114620225e45761019714620225d9575050600090565b620031f89162022b3e565b50620031f89162022a59565b50620031f891620228b4565b50620031f89162022773565b50620031f891906020019060019182815151036202271957826202262d825162004c22565b515103620226bf57602082015160268110156200294257600a036200663857600091835b6202265f5750505050600090565b604081019260a09362022676858251015162004c22565b51518210156201d5da5781620074948796620226959351015162004c22565b51620226a662006854855162004c22565b5114620050f757620226b89062004c12565b9262022651565b60405162461bcd60e51b815260206004820152603160248201527f43452049445f3430313a205468652055494e543235365f324441525241595b30604482015260008051602062031be88339815191526064820152608490fd5b60405162461bcd60e51b815260206004820152602e60248201527f43452049445f3430313a205468652055494e543235365f32444152524159206c604482015260008051602062031c688339815191526064820152608490fd5b906020019060019182815151036202285a57602082015160268110156200294257600a03620066385782916000935b620227b05750505050600090565b6040810160a0620227c5818351015162004c22565b51518610156201d5da57906000855b620227f0575b505050620227e9839462004c12565b93620227a2565b620227fc855162004c22565b515181101562022854576202281a8762007494858551015162004c22565b516202282c8262007494885162004c22565b51146202284a57906202284186939262004c12565b909192620227d4565b5050505050905090565b620227da565b60405162461bcd60e51b815260206004820152602e60248201527f43452049445f3430323a2054686520414444524553535f32444152524159206c604482015260008051602062031c688339815191526064820152608490fd5b90602001906001918281515103620229ff576002620228d4825162004c22565b515103620229a557602082015160268110156200294257600a036200663857600091835b620229065750505050600090565b604081019260a0936202291d858251015162004c22565b51518210156201d5da5781856202293e82620074948a998651015162004c22565b516202294f62006854885162004c22565b511115928362022974575b505050620050f7576202296d9062004c12565b92620228f8565b510151620229889250620074949062004c22565b516202299962015a55855162004c22565b5110158138806202295a565b60405162461bcd60e51b815260206004820152603160248201527f43452049445f3430333a205468652055494e543235365f324441525241595b30604482015260008051602062031d488339815191526064820152608490fd5b60405162461bcd60e51b815260206004820152602e60248201527f43452049445f3430333a205468652055494e543235365f32444152524159206c604482015260008051602062031c688339815191526064820152608490fd5b600191828151510362022ae557602082015160268110156200294257600b036200663857600091835b62022a905750505050600090565b60408101515192835181101562022ade5762022ac762022ab282879662004c79565b5162022abf855162004c22565b519062031908565b620050f75762022ad79062004c12565b9262022a82565b5062015deb565b60405162461bcd60e51b815260206004820152602b60248201527f43452049445f3430363a2054686520535452494e475f4152524159206c656e6760448201526a7468206973206e6f74203160a81b6064820152608490fd5b600191828151510362022bc357602082015160268110156200294257600b036200663857600091835b62022b755750505050600090565b60408101515192835181101562022ade5762022bac62022b9782879662004c79565b5162022ba4855162004c22565b519062006589565b620050f75762022bbc9062004c12565b9262022b67565b60405162461bcd60e51b815260206004820152602b60248201527f43452049445f3430373a2054686520535452494e475f4152524159206c656e6760448201526a7468206973206e6f74203160a81b6064820152608490fd5b916097811462022c405760981462022c35575050600090565b620031f89162022d51565b50602001805151620031f892906000190162022cf857600162022c64835162004c22565b51510362022c9e57602001516026811015620029425762006854620202a862022c8d92620316cf565b511462022c9957600090565b600190565b60405162461bcd60e51b815260206004820152602e60248201527f43452049445f3135313a205468652055494e545f324441525241595b305d206c604482015260008051602062031c688339815191526064820152608490fd5b60405162461bcd60e51b815260206004820152602b60248201527f43452049445f3135313a205468652055494e545f32444152524159206c656e6760448201526a7468206973206e6f74203160a81b6064820152608490fd5b9190916020809301600191828251510362022dd857938293946000935b62022d7d575050505050600090565b62022d89835162004c22565b51518410156201652e5781810151936026851015620029425762022dae8695620316cf565b62022dbf8262007494875162004c22565b5114620165265762022dd19062004c12565b9362022d6e565b60405162461bcd60e51b815260048101869052602b60248201527f43452049445f3135323a205468652055494e545f32444152524159206c656e6760448201526a7468206973206e6f74203160a81b6064820152608490fd5b926102bd811462022f34576102be811462022f28576102bf811462022f1c576102c0811462022f10576102c1811462022f04576102c2811462022ef8576102c3811462022eec576102c4811462022ee0576102c5811462022ed4576102c6811462022ec8576102c7811462022ebc576102c81462022eb157505050600090565b620031f89262024159565b50620031f89262023f5e565b50620031f89262023d59565b50620031f89262023ae9565b50620031f892620238e4565b50620031f892620236d5565b50620031f892620235b6565b50620031f8926202348f565b50620031f89262023368565b50620031f8926202320e565b50620031f892620230ba565b50620031f89262022f51565b606482101562004c30570190600090565b916020809101926001845151036202306057600162022f71855162004c22565b51510362023006571562022fcd57620202a862022fbf620158319362022fb8620076f6620068549560018060a01b03845116600052610329815260406000209301620073dc565b9062022f40565b90549060031b1c426200627f565b620202a862022fbf620158319362022fb8620076f6620068549560018060a01b038451166000526106c1815260406000209301620073dc565b60405162461bcd60e51b815260048101839052603160248201527f43452049445f3730313a205468652055494e543235365f324441525241595b30604482015260008051602062031be88339815191526064820152608490fd5b60405162461bcd60e51b815260048101839052602e60248201527f43452049445f3730313a205468652055494e543235365f32444152524159206c604482015260008051602062031c688339815191526064820152608490fd5b91602080910192600184515103620231b4576001620230da855162004c22565b5151036202315a57156202312157620202a862022fbf620159329362022fb8620076f6620068549560018060a01b03845116600052610329815260406000209301620073dc565b620202a862022fbf620159329362022fb8620076f6620068549560018060a01b03845116600052610329815260406000209301620073dc565b60405162461bcd60e51b815260048101839052603160248201527f43452049445f3730323a205468652055494e543235365f324441525241595b30604482015260008051602062031be88339815191526064820152608490fd5b60405162461bcd60e51b815260048101839052602e60248201527f43452049445f3730323a205468652055494e543235365f32444152524159206c604482015260008051602062031c688339815191526064820152608490fd5b916020809101926001845151036202330e5760026202322e855162004c22565b515103620232b45715620232805781516001600160a01b03166000908152610329825260409020620232709262022fbf9262022fb891620076f69101620073dc565b62015a3262006854835162004c22565b81516001600160a01b03166000908152610329825260409020620232709262022fbf9262022fb891620076f69101620073dc565b60405162461bcd60e51b815260048101839052603160248201527f43452049445f3730333a205468652055494e543235365f324441525241595b30604482015260008051602062031d488339815191526064820152608490fd5b60405162461bcd60e51b815260048101839052602e60248201527f43452049445f3730333a205468652055494e543235365f32444152524159206c604482015260008051602062031c688339815191526064820152608490fd5b91602001916001835151036202343557600162023386845162004c22565b515103620233db5715620233c957620076f66020620233a69201620073dc565b606481101562004c305762006854620202a8620158319261032b0154426200627f565b620076f66020620233a69201620073dc565b60405162461bcd60e51b815260206004820152603160248201527f43452049445f3730343a205468652055494e543235365f324441525241595b30604482015260008051602062031be88339815191526064820152608490fd5b60405162461bcd60e51b815260206004820152602e60248201527f43452049445f3730343a205468652055494e543235365f32444152524159206c604482015260008051602062031c688339815191526064820152608490fd5b91602001916001835151036202355c576001620234ad845162004c22565b515103620235025715620234f057620076f66020620234cd9201620073dc565b606481101562004c305762006854620202a8620159329261032b0154426200627f565b620076f66020620234cd9201620073dc565b60405162461bcd60e51b815260206004820152603160248201527f43452049445f3730353a205468652055494e543235365f324441525241595b30604482015260008051602062031be88339815191526064820152608490fd5b60405162461bcd60e51b815260206004820152602e60248201527f43452049445f3730353a205468652055494e543235365f32444152524159206c604482015260008051602062031c688339815191526064820152608490fd5b91602001916001835151036202367b576002620235d4845162004c22565b5151036202362157156202360f57620076f66020620235f49201620073dc565b606481101562004c3057620232709061032b0154426200627f565b620076f66020620235f49201620073dc565b60405162461bcd60e51b815260206004820152603160248201527f43452049445f3730363a205468652055494e543235365f324441525241595b30604482015260008051602062031d488339815191526064820152608490fd5b60405162461bcd60e51b815260206004820152602e60248201527f43452049445f3730363a205468652055494e543235365f32444152524159206c604482015260008051602062031c688339815191526064820152608490fd5b90929160409384820160019384825151036202388b5784620236f8835162004c22565b515103620238325795849596600014620237a4576000945b6202372057505050505050600090565b6202372c825162004c22565b515185101562019e5c57859460018060a01b03620237508262007494865162004c22565b5116600052602061032981526202378b620068546202378162022fbf8660002062022fb8620076f6878c01620073dc565b9288015162004c22565b511062019e53576202379d9062004c12565b9462023710565b6000945b620237b857505050505050600090565b620237c4825162004c22565b515185101562019e5c57859460018060a01b03620237e88262007494865162004c22565b51166000526020610329815262023819620068546202378162022fbf8660002062022fb8620076f6878c01620073dc565b511062019e53576202382b9062004c12565b94620237a8565b865162461bcd60e51b815260206004820152603160248201527f43452049445f3730373a2054686520414444524553535f324441525241595b30604482015260008051602062031be88339815191526064820152608490fd5b865162461bcd60e51b815260206004820152602e60248201527f43452049445f3730373a2054686520414444524553535f32444152524159206c604482015260008051602062031c688339815191526064820152608490fd5b909291604093848201600193848251510362023a90578462023907835162004c22565b51510362023a375795849596600014620239a9576000945b6202392f57505050505050600090565b6202393b825162004c22565b515185101562019e5c57859460018060a01b036202395f8262007494865162004c22565b51166000526020610329815262023990620068546202378162022fbf8660002062022fb8620076f6878c01620073dc565b511162019e5357620239a29062004c12565b946202391f565b6000945b620239bd57505050505050600090565b620239c9825162004c22565b515185101562019e5c57859460018060a01b03620239ed8262007494865162004c22565b51166000526020610329815262023a1e620068546202378162022fbf8660002062022fb8620076f6878c01620073dc565b511162019e535762023a309062004c12565b94620239ad565b865162461bcd60e51b815260206004820152603160248201527f43452049445f3730383a2054686520414444524553535f324441525241595b30604482015260008051602062031be88339815191526064820152608490fd5b865162461bcd60e51b815260206004820152602e60248201527f43452049445f3730383a2054686520414444524553535f32444152524159206c604482015260008051602062031c688339815191526064820152608490fd5b9291604080820192600193848151510362023d0057600262023b0c825162004c22565b51510362023ca75784959660001462023be3576000945b62023b3357505050505050600090565b62023b3f815162004c22565b515185101562019e5c57859460018060a01b0362023b638262007494855162004c22565b51166000526020610329815262023b8c62022fbf8660002062022fb8620076f6858901620073dc565b9086019062023ba062006854835162004c22565b51811015918262023bc5575b505062019e535762023bbe9062004c12565b9462023b23565b62023bd891925062015a55905162004c22565b511015388062023bac565b6000945b62023bf757505050505050600090565b62023c03815162004c22565b515185101562019e5c57859460018060a01b0362023c278262007494855162004c22565b51166000526020610329815262023c5062022fbf8660002062022fb8620076f6858901620073dc565b9086019062023c6462006854835162004c22565b51811015918262023c89575b505062019e535762023c829062004c12565b9462023be7565b62023c9c91925062015a55905162004c22565b511015388062023c70565b825162461bcd60e51b815260206004820152603160248201527f43452049445f3730393a2054686520414444524553535f324441525241595b30604482015260008051602062031d488339815191526064820152608490fd5b825162461bcd60e51b815260206004820152602e60248201527f43452049445f3730393a2054686520414444524553535f32444152524159206c604482015260008051602062031c688339815191526064820152608490fd5b9291604080820192600193848151510362023f05578462023d7b825162004c22565b51510362023eac5784959660001462023e22576000945b62023d9f57505050505090565b62023dab815162004c22565b51518510156201c51d5760018060a01b0362023dcd8662007494845162004c22565b51166000526020610329815262023e086200685462023dfe62022fbf8760002062022fb8620076f6878a01620073dc565b9287015162004c22565b511162019df15762023e1b869562004c12565b9462023d92565b6000945b62023e3357505050505090565b62023e3f815162004c22565b51518510156201c51d5760018060a01b0362023e618662007494845162004c22565b51166000526020610329815262023e926200685462023dfe62022fbf8760002062022fb8620076f6878a01620073dc565b511162019df15762023ea5869562004c12565b9462023e26565b825162461bcd60e51b815260206004820152603160248201527f43452049445f3731303a2054686520414444524553535f324441525241595b30604482015260008051602062031be88339815191526064820152608490fd5b825162461bcd60e51b815260206004820152602e60248201527f43452049445f3731303a2054686520414444524553535f32444152524159206c604482015260008051602062031c688339815191526064820152608490fd5b9291604080820192600193848151510362024100578462023f80825162004c22565b515103620240a7578495966000146202401d576000945b62023fa457505050505090565b62023fb0815162004c22565b51518510156201c51d5760018060a01b0362023fd28662007494845162004c22565b511660005260206103298152620240036200685462023dfe62022fbf8760002062022fb8620076f6878a01620073dc565b511062019df15762024016869562004c12565b9462023f97565b6000945b6202402e57505050505090565b6202403a815162004c22565b51518510156201c51d5760018060a01b036202405c8662007494845162004c22565b5116600052602061032981526202408d6200685462023dfe62022fbf8760002062022fb8620076f6878a01620073dc565b511062019df157620240a0869562004c12565b9462024021565b825162461bcd60e51b815260206004820152603160248201527f43452049445f3731313a2054686520414444524553535f324441525241595b30604482015260008051602062031be88339815191526064820152608490fd5b825162461bcd60e51b815260206004820152602e60248201527f43452049445f3731313a2054686520414444524553535f32444152524159206c604482015260008051602062031c688339815191526064820152608490fd5b92916040808201926001938481515103620243665760026202417c825162004c22565b5151036202430d578495966000146202424e576000945b620241a057505050505090565b620241ac815162004c22565b51518510156201c51d5760018060a01b03620241ce8662007494845162004c22565b511660005260206103298152620241f762022fbf8560002062022fb8620076f6858801620073dc565b908501906202420b62006854835162004c22565b51811091821562024231575b505062019df1576202422a869562004c12565b9462024193565b6202424491925062015a55905162004c22565b5110388062024217565b6000945b6202425f57505050505090565b6202426b815162004c22565b51518510156201c51d5760018060a01b036202428d8662007494845162004c22565b511660005260206106c18152620242b662022fbf8560002062022fb8620076f6858801620073dc565b90850190620242ca62006854835162004c22565b518110918215620242f0575b505062019df157620242e9869562004c12565b9462024252565b6202430391925062015a55905162004c22565b51103880620242d6565b825162461bcd60e51b815260206004820152603160248201527f43452049445f3731323a2054686520414444524553535f324441525241595b30604482015260008051602062031d488339815191526064820152608490fd5b825162461bcd60e51b815260206004820152602e60248201527f43452049445f3731323a2054686520414444524553535f32444152524159206c604482015260008051602062031c688339815191526064820152608490fd5b600193808503620243d75750620031f8935062024aa7565b60028103620243ed5750620031f8935062024b91565b60038103620244f7575050906040019180835151036202449b5762024413835162004c22565b5151036202443c57620244366200685460018060a01b0380935116935162004c22565b51161490565b60405162461bcd60e51b815260206004820152603160248201527f43452049445f333a20414444524553535f324441525241595b305d206d757374604482015270081a185d99481bdb9948195b195b595b9d607a1b6064820152608490fd5b60405162461bcd60e51b815260206004820152602e60248201527f43452049445f333a20414444524553535f32444152524159206d75737420686160448201526d1d99481bdb9948195b195b595b9d60921b6064820152608490fd5b60049080820362024510575050620031f8935062024cd6565b6005810362024527575050620031f8935062024e1b565b600681036202453e575050620031f8935062024f60565b6007810362024555575050620031f893506202519c565b600881036202456c575050620031f89350620253fa565b6009810362024583575050620031f8935062025636565b600a81036202459a575050620031f8935062025866565b600b8103620245b1575050620031f8935062025b5d565b600c8103620245c8575050620031f8935062025d85565b600d8103620245df575050620031f8935062025fd1565b600e8103620245f6575050620031f89350620261c8565b600f81036202460d575050620031f893506202650d565b6010810362024624575050620031f8935062026704565b601181036202463b575050620031f8935062026824565b6012810362024652575050620031f8935062026944565b6013810362024669575050620031f8935062026ada565b6014810362024680575050620031f8935062026bfa565b6015810362024697575050620031f8935062026d1a565b60198103620246ae575050620031f8935062026ea3565b601a8103620246c5575050620031f8935062026fdb565b601b8103620246dc575050620031f8935062027113565b601c819592939495146000146202481f5750602001938085515103620247c65762024708855162004c22565b5151036202476d575060009015620247475750516001600160a01b03166000908152610327602052604090205490620158319062006854905162004c22565b90516001600160a01b031681526106bf6020526040902054906201583190620068549081565b60849060206040519162461bcd60e51b8352820152603260248201527f43452049445f32383a2055494e543235365f324441525241595b305d206d7573604482015260008051602062031c288339815191526064820152fd5b60405162461bcd60e51b8152602081840152602f60248201527f43452049445f32383a2055494e543235365f32444152524159206d7573742068604482015260008051602062031dc88339815191526064820152608490fd5b601d81036202495a5750602001938085515103620249015762024843855162004c22565b515103620248a8575060009015620248825750516001600160a01b03166000908152610327602052604090205490620159329062006854905162004c22565b90516001600160a01b031681526106bf6020526040902054906201593290620068549081565b60849060206040519162461bcd60e51b8352820152603260248201527f43452049445f32393a2055494e543235365f324441525241595b305d206d7573604482015260008051602062031c288339815191526064820152fd5b60405162461bcd60e51b8152602081840152602f60248201527f43452049445f32393a2055494e543235365f32444152524159206d7573742068604482015260008051602062031dc88339815191526064820152608490fd5b601e810362024a8c5750602001938451510362024a335760026202497f855162004c22565b515103620249da575060009015620249bc5750516001600160a01b03166000908152610327602052604090205462015a3262006854835162004c22565b90516001600160a01b031681526106bf602052604090205462023270565b60849060206040519162461bcd60e51b8352820152603360248201527f43452049445f33303a2055494e543235365f324441525241595b305d206d7573604482015260008051602062031b488339815191526064820152fd5b60849060206040519162461bcd60e51b8352820152602f60248201527f43452049445f33303a2055494e543235365f32444152524159206d7573742068604482015260008051602062031dc88339815191526064820152fd5b9294509291601f141590506200663857620031f89262027282565b91909160018251510362024b38571562024b0457620031f89160018060a01b039051166000526103206020526200112762024afe62024aef6001604060002001935162004c22565b51926040519283809262002bd5565b62031908565b620031f89160018060a01b039051166000526106b86020526200112762024afe62024aef6001604060002001935162004c22565b60405162461bcd60e51b815260206004820152602b60248201527f43452049445f313a20535452494e475f4152524159206d75737420686176652060448201526a1bdb9948195b195b595b9d60aa1b6064820152608490fd5b916020019160018351510362024c7a57600162024baf845162004c22565b51510362024c1b571562024bec57516001600160a01b031660009081526103206020526040902060020154905162015b6090620068549062004c22565b516001600160a01b031660009081526106b86020526040902060020154905162015b6090620068549062004c22565b60405162461bcd60e51b815260206004820152603160248201527f43452049445f323a2055494e543235365f324441525241595b305d206d757374604482015270081a185d99481bdb9948195b195b595b9d607a1b6064820152608490fd5b60405162461bcd60e51b815260206004820152602e60248201527f43452049445f323a2055494e543235365f32444152524159206d75737420686160448201526d1d99481bdb9948195b195b595b9d60921b6064820152608490fd5b916020019160018351510362024dbf57600162024cf4845162004c22565b51510362024d60571562024d3157516001600160a01b03166000908152610320602052604090206002015490516201583190620068549062004c22565b516001600160a01b031660009081526106b8602052604090206002015490516201583190620068549062004c22565b60405162461bcd60e51b815260206004820152603160248201527f43452049445f343a2055494e543235365f324441525241595b305d206d757374604482015270081a185d99481bdb9948195b195b595b9d607a1b6064820152608490fd5b60405162461bcd60e51b815260206004820152602e60248201527f43452049445f343a2055494e543235365f32444152524159206d75737420686160448201526d1d99481bdb9948195b195b595b9d60921b6064820152608490fd5b916020019160018351510362024f0457600162024e39845162004c22565b51510362024ea5571562024e7657516001600160a01b03166000908152610320602052604090206002015490516201593290620068549062004c22565b516001600160a01b031660009081526106b8602052604090206002015490516201593290620068549062004c22565b60405162461bcd60e51b815260206004820152603160248201527f43452049445f353a2055494e543235365f324441525241595b305d206d757374604482015270081a185d99481bdb9948195b195b595b9d607a1b6064820152608490fd5b60405162461bcd60e51b815260206004820152602e60248201527f43452049445f353a2055494e543235365f32444152524159206d75737420686160448201526d1d99481bdb9948195b195b595b9d60921b6064820152608490fd5b90916020809101916001835151036202514057600262024f81845162004c22565b515103620250e05762024f9962006854845162004c22565b5162024faa62015a55855162004c22565b51106202505a57156202502b5760018060a01b0390818451166000526103209182825260026040600020015462024fe662006854865162004c22565b511115948562024ff857505050505090565b9091929394505116600052526202501d62015a55600260406000200154925162004c22565b511015388080808062016526565b60018060a01b0390818451166000526106b89182825260026040600020015462024fe662006854865162004c22565b60405162461bcd60e51b815260048101839052605260248201527f43452049445f363a2055494e543235365f324441525241595b305d5b305d206d60448201527f757374206265206c657373207468616e206f7220657175616c20746f2055494e606482015271543235365f324441525241595b305d5b315d60701b608482015260a490fd5b60405162461bcd60e51b815260048101839052603260248201527f43452049445f363a2055494e543235365f324441525241595b305d206d75737460448201527120686176652074776f20656c656d656e747360701b6064820152608490fd5b60405162461bcd60e51b815260048101839052602e60248201527f43452049445f363a2055494e543235365f32444152524159206d75737420686160448201526d1d99481bdb9948195b195b595b9d60921b6064820152608490fd5b9092919260208094019060019283835151036202531b57620251bf835162004c22565b515115620252b3579483949560001462025243576000935b620251e6575050505050600090565b620251f2835162004c22565b51518410156201652e57849360018060a01b0383511660005261032082526002604060002001546202522a8262007494875162004c22565b511462016526576202523c9062004c12565b93620251d7565b6000935b62025256575050505050600090565b62025262835162004c22565b51518410156201652e57849360018060a01b038351166000526106b882526002604060002001546202529a8262007494875162004c22565b51146201652657620252ac9062004c12565b9362025247565b60405162461bcd60e51b815260048101879052603a60248201527f43452049445f373a2055494e543235365f324441525241595b305d206d757374604482015279081a185d9948185d081b19585cdd081bdb9948195b195b595b9d60321b6064820152608490fd5b60405162461bcd60e51b815260048101879052602e60248201527f43452049445f373a2055494e543235365f32444152524159206d75737420686160448201526d1d99481bdb9948195b195b595b9d60921b6064820152608490fd5b156202537f57565b60405162461bcd60e51b815260206004820152605860248201527f43452049445f383a2055494e543235365f324441525241595b305d5b305d2028604482015260008051602062031e08833981519152606482015277081d1a19481b195b99dd1a081bd9881d1bdad95b931a5cdd60421b608482015260a490fd5b91602001916001835151036202555757600262025418845162004c22565b515103620254f7578015620254db576202544560646202543d62006854865162004c22565b511062025377565b1562025492576202545b62006854835162004c22565b51606481101562004c305760039160018060a01b03905116600052811b016020526201583162015a55604060002054925162004c22565b620254a262006854835162004c22565b51606481101562004c305761039b9160018060a01b0390511660005260031b016020526201583162015a55604060002054925162004c22565b620254f160646202543d62006854865162004c22565b62025445565b60405162461bcd60e51b815260206004820152603260248201527f43452049445f383a2055494e543235365f324441525241595b305d206d75737460448201527120686176652074776f20656c656d656e747360701b6064820152608490fd5b60405162461bcd60e51b815260206004820152602e60248201527f43452049445f383a2055494e543235365f32444152524159206d75737420686160448201526d1d99481bdb9948195b195b595b9d60921b6064820152608490fd5b15620255bb57565b60405162461bcd60e51b815260206004820152605860248201527f43452049445f393a2055494e543235365f324441525241595b305d5b305d2028604482015260008051602062031e08833981519152606482015277081d1a19481b195b99dd1a081bd9881d1bdad95b931a5cdd60421b608482015260a490fd5b91602001916001835151036202579357600262025654845162004c22565b5151036202573357801562025717576202568160646202567962006854865162004c22565b5110620255b3565b15620256ce576202569762006854835162004c22565b51606481101562004c305760039160018060a01b03905116600052811b016020526201593262015a55604060002054925162004c22565b620256de62006854835162004c22565b51606481101562004c305761039b9160018060a01b0390511660005260031b016020526201593262015a55604060002054925162004c22565b6202572d60646202567962006854865162004c22565b62025681565b60405162461bcd60e51b815260206004820152603260248201527f43452049445f393a2055494e543235365f324441525241595b305d206d75737460448201527120686176652074776f20656c656d656e747360701b6064820152608490fd5b60405162461bcd60e51b815260206004820152602e60248201527f43452049445f393a2055494e543235365f32444152524159206d75737420686160448201526d1d99481bdb9948195b195b595b9d60921b6064820152608490fd5b15620257f757565b60405162461bcd60e51b815260206004820152605960248201527f43452049445f31303a2055494e543235365f324441525241595b305d5b305d20604482015260008051602062031e28833981519152606482015260008051602062031ba8833981519152608482015260a490fd5b91909160208092019160018351510362025a8d57600391826202588a855162004c22565b51510362025a2a57801562025a0e57620258b76064620258af62006854875162004c22565b5110620257ef565b156202596b57620258cd62006854845162004c22565b5191606483101562004c305760018060a01b03948186825116946000958652811b01835260408420546202590662015a55875162004c22565b5111159586620259195750505050505090565b909192939495506202593062006854875162004c22565b51916064831015620216cf5751168452811b019052604090205490516202595c906201c50b9062004c22565b51101538808080808062019e53565b6202597b62006854845162004c22565b51606481101562004c305760018060a01b03948581511693600094855261039b8093821b0184526040852054620259b762015a55885162004c22565b5111159687620259cb575050505050505090565b9091929394959650620259e362006854885162004c22565b51926064841015620217d057511685521b01905260409020549051620216bf906201c50b9062004c22565b62025a246064620258af62006854875162004c22565b620258b7565b60405162461bcd60e51b815260048101839052603560248201527f43452049445f31303a2055494e543235365f324441525241595b305d206d757360448201527474206861766520746872656520656c656d656e747360581b6064820152608490fd5b6084906040519062461bcd60e51b82526004820152602f60248201527f43452049445f31303a2055494e543235365f32444152524159206d7573742068604482015260008051602062031dc88339815191526064820152fd5b1562025aee57565b60405162461bcd60e51b815260206004820152605960248201527f43452049445f31313a2055494e543235365f324441525241595b305d5b305d20604482015260008051602062031e28833981519152606482015260008051602062031ba8833981519152608482015260a490fd5b916020019160018351510362025cb457600262025b7b845162004c22565b51510362025c5a57801562025c3e5762025ba8606462025ba062006854865162004c22565b511062025ae6565b1562025bf55762025bbe62006854835162004c22565b51606481101562004c305760039160018060a01b03905116600052811b0160205262015b6062015a55604060002054925162004c22565b62025c0562006854835162004c22565b51606481101562004c305761039b9160018060a01b0390511660005260031b0160205262015b6062015a55604060002054925162004c22565b62025c54606462025ba062006854865162004c22565b62025ba8565b60405162461bcd60e51b815260206004820152603360248201527f43452049445f31313a2055494e543235365f324441525241595b305d206d7573604482015260008051602062031b488339815191526064820152608490fd5b60405162461bcd60e51b815260206004820152602f60248201527f43452049445f31313a2055494e543235365f32444152524159206d7573742068604482015260008051602062031dc88339815191526064820152608490fd5b1562025d1657565b60405162461bcd60e51b815260206004820152605960248201527f43452049445f31323a2055494e543235365f324441525241595b305d5b305d20604482015260008051602062031e28833981519152606482015260008051602062031ba8833981519152608482015260a490fd5b916020019160018351510362025f7757600262025da3845162004c22565b51510362025f1d57801562025f015762025dd0606462025dc862006854865162004c22565b511062025d0e565b1562025e745762025de662006854835162004c22565b5190606482101562004c3057516001600160a01b03166000908152600391821b9091016020526040812054606480820292918015908404909114171562025e605762025e3762006854845162004c22565b51906064821015620014905750620202a86201583192600662015a559360031b01549062005007565b634e487b7160e01b81526011600452602490fd5b62025e8462006854835162004c22565b5190606482101562004c3057516001600160a01b0316600090815260039190911b61039b016020526040812054606480820292918015908404909114171562025e605762025ed762006854845162004c22565b51906064821015620014905750620202a8620158319261039e62015a559360031b01549062005007565b62025f17606462025dc862006854865162004c22565b62025dd0565b60405162461bcd60e51b815260206004820152603360248201527f43452049445f31323a2055494e543235365f324441525241595b305d206d7573604482015260008051602062031b488339815191526064820152608490fd5b60405162461bcd60e51b815260206004820152602f60248201527f43452049445f31323a2055494e543235365f32444152524159206d7573742068604482015260008051602062031dc88339815191526064820152608490fd5b91602001916001835151036202616e57600262025fef845162004c22565b51510362026114571562026087576202600d62006854835162004c22565b5190606482101562004c3057516001600160a01b03166000908152600391821b9091016020526040812054606480820292918015908404909114171562025e60576202605e62006854845162004c22565b51906064821015620014905750620202a86201593292600662015a559360031b01549062005007565b6202609762006854835162004c22565b5190606482101562004c3057516001600160a01b0316600090815260039190911b61039b016020526040812054606480820292918015908404909114171562025e6057620260ea62006854845162004c22565b51906064821015620014905750620202a8620159329261039e62015a559360031b01549062005007565b60405162461bcd60e51b815260206004820152603360248201527f43452049445f31333a2055494e543235365f324441525241595b305d206d7573604482015260008051602062031b488339815191526064820152608490fd5b60405162461bcd60e51b815260206004820152602f60248201527f43452049445f31333a2055494e543235365f32444152524159206d7573742068604482015260008051602062031dc88339815191526064820152608490fd5b90602080930191600183515103620264b3576002620261e8845162004c22565b51510362026459571562026322576202620662006854835162004c22565b516064908181101562004c305760018060a01b03948584511693600094855260038093811b0182526040852054848102908082048614901517156202630e576202625562006854885162004c22565b5185811015620217d057841b60060154620262709162005007565b6202628062015a55885162004c22565b511115968762026294575050505050505090565b9091929394959650620262ac62006854885162004c22565b519185831015620217d05751168552821b820190526040832054828102939080159085048414171562025e6057620262e962006854865162004c22565b51928310156200149057501b60060154620216bf916201c50b91620202a89162005007565b634e487b7160e01b86526011600452602486fd5b6202633262006854835162004c22565b519060648083101562004c305760018060a01b03948583511693600094855261039b809160031b018252604085205493838502948086048514901517156202630e576202638462006854885162004c22565b519484861015620217d057620263a59061039e809760031b01549062005007565b620263b562015a55895162004c22565b5111159788620263ca57505050505050505090565b909192939495969750620263e362006854895162004c22565b51918583101562026445575116865260031b0190526040832054928184029380850483149015171562025e60576202642062006854865162004c22565b519182101562001490575060031b0154620217bf916201c50b91620202a89162005007565b634e487b7160e01b88526032600452602488fd5b60405162461bcd60e51b815260048101859052603360248201527f43452049445f31343a2055494e543235365f324441525241595b305d206d7573604482015260008051602062031b488339815191526064820152608490fd5b60405162461bcd60e51b815260048101859052602f60248201527f43452049445f31343a2055494e543235365f32444152524159206d7573742068604482015260008051602062031dc88339815191526064820152608490fd5b9160200191600183515103620266aa5760026202652b845162004c22565b515103620266505715620265c3576202654962006854835162004c22565b5190606482101562004c3057516001600160a01b03166000908152600391821b9091016020526040812054606480820292918015908404909114171562025e60576202659a62006854845162004c22565b51906064821015620014905750620202a862015b6092600662015a559360031b01549062005007565b620265d362006854835162004c22565b5190606482101562004c3057516001600160a01b0316600090815260039190911b61039b016020526040812054606480820292918015908404909114171562025e60576202662662006854845162004c22565b51906064821015620014905750620202a862015b609261039e62015a559360031b01549062005007565b60405162461bcd60e51b815260206004820152603360248201527f43452049445f31353a2055494e543235365f324441525241595b305d206d7573604482015260008051602062031b488339815191526064820152608490fd5b60405162461bcd60e51b815260206004820152602f60248201527f43452049445f31353a2055494e543235365f32444152524159206d7573742068604482015260008051602062031dc88339815191526064820152608490fd5b9160200191600183515103620267ca57600162026722845162004c22565b515103620267705780156202675057620202a86200685491620158319360018060a01b03905116906201a63a565b505162015831906200685490620202a8906001600160a01b03166201a5e7565b60405162461bcd60e51b815260206004820152603260248201527f43452049445f31363a2055494e543235365f324441525241595b305d206d7573604482015260008051602062031c288339815191526064820152608490fd5b60405162461bcd60e51b815260206004820152602f60248201527f43452049445f31363a2055494e543235365f32444152524159206d7573742068604482015260008051602062031dc88339815191526064820152608490fd5b9160200191600183515103620268ea57600162026842845162004c22565b515103620268905780156202687057620202a86200685491620159329360018060a01b03905116906201a63a565b505162015932906200685490620202a8906001600160a01b03166201a5e7565b60405162461bcd60e51b815260206004820152603260248201527f43452049445f31373a2055494e543235365f324441525241595b305d206d7573604482015260008051602062031c288339815191526064820152608490fd5b60405162461bcd60e51b815260206004820152602f60248201527f43452049445f31373a2055494e543235365f32444152524159206d7573742068604482015260008051602062031dc88339815191526064820152608490fd5b90916020019060018251510362026a8057600262026963835162004c22565b51510362026a26578015620269d45782516001600160a01b03906202698b908216836201a63a565b6202699b62006854855162004c22565b5111159384620269ac575050505090565b620269c793945091620202a89162015a55935116906201a63a565b51101538808080620050f7565b5081516001600160a01b0390620269ed9082166201a5e7565b620269fd62006854845162004c22565b511115928362026a0d5750505090565b620206eb92935062015a5591620202a89151166201a5e7565b60405162461bcd60e51b815260206004820152603360248201527f43452049445f31383a2055494e543235365f324441525241595b305d206d7573604482015260008051602062031b488339815191526064820152608490fd5b60405162461bcd60e51b815260206004820152602f60248201527f43452049445f31383a2055494e543235365f32444152524159206d7573742068604482015260008051602062031dc88339815191526064820152608490fd5b916020019160018351510362026ba057600162026af8845162004c22565b51510362026b4657801562026b2657620202a86200685491620158319360018060a01b03905116906201b536565b505162015831906200685490620202a8906001600160a01b03166201b4e3565b60405162461bcd60e51b815260206004820152603260248201527f43452049445f31393a2055494e543235365f324441525241595b305d206d7573604482015260008051602062031c288339815191526064820152608490fd5b60405162461bcd60e51b815260206004820152602f60248201527f43452049445f31393a2055494e543235365f32444152524159206d7573742068604482015260008051602062031dc88339815191526064820152608490fd5b916020019160018351510362026cc057600162026c18845162004c22565b51510362026c6657801562026c4657620202a86200685491620159329360018060a01b03905116906201b536565b505162015932906200685490620202a8906001600160a01b03166201b4e3565b60405162461bcd60e51b815260206004820152603260248201527f43452049445f32303a2055494e543235365f324441525241595b305d206d7573604482015260008051602062031c288339815191526064820152608490fd5b60405162461bcd60e51b815260206004820152602f60248201527f43452049445f32303a2055494e543235365f32444152524159206d7573742068604482015260008051602062031dc88339815191526064820152608490fd5b90916020019060018251510362026e4957600262026d39835162004c22565b51510362026def57801562026d9d5782516001600160a01b039062026d61908216836201b536565b62026d7162006854855162004c22565b511115938462026d82575050505090565b620269c793945091620202a89162015a55935116906201b536565b5081516001600160a01b039062026db69082166201b4e3565b62026dc662006854845162004c22565b511115928362026dd65750505090565b620206eb92935062015a5591620202a89151166201b4e3565b60405162461bcd60e51b815260206004820152603360248201527f43452049445f32313a2055494e543235365f324441525241595b305d206d7573604482015260008051602062031b488339815191526064820152608490fd5b60405162461bcd60e51b815260206004820152602f60248201527f43452049445f32313a2055494e543235365f32444152524159206d7573742068604482015260008051602062031dc88339815191526064820152608490fd5b916020019160018351510362026f8157600162026ec1845162004c22565b51510362026f27571562026efb57516001600160a01b03166000908152610325602052604090205490516201583190620068549062004c22565b516001600160a01b031660009081526106bd602052604090205490516201583190620068549062004c22565b60405162461bcd60e51b815260206004820152603260248201527f43452049445f32353a2055494e543235365f324441525241595b305d206d7573604482015260008051602062031c288339815191526064820152608490fd5b60405162461bcd60e51b815260206004820152602f60248201527f43452049445f32353a2055494e543235365f32444152524159206d7573742068604482015260008051602062031dc88339815191526064820152608490fd5b9160200191600183515103620270b957600162026ff9845162004c22565b5151036202705f57156202703357516001600160a01b03166000908152610325602052604090205490516201593290620068549062004c22565b516001600160a01b031660009081526106bd602052604090205490516201593290620068549062004c22565b60405162461bcd60e51b815260206004820152603260248201527f43452049445f32363a2055494e543235365f324441525241595b305d206d7573604482015260008051602062031c288339815191526064820152608490fd5b60405162461bcd60e51b815260206004820152602f60248201527f43452049445f32363a2055494e543235365f32444152524159206d7573742068604482015260008051602062031dc88339815191526064820152608490fd5b90916020809101916001835151036202722857600262027134845162004c22565b515103620271ce5715620271a25760018060a01b039081845116600052610325918282526040600020546202716e62006854865162004c22565b51111594856202718057505050505090565b9091929394505116600052526202501d62015a55604060002054925162004c22565b60018060a01b0390818451166000526106bd918282526040600020546202716e62006854865162004c22565b60405162461bcd60e51b815260048101839052603360248201527f43452049445f32373a2055494e543235365f324441525241595b305d206d7573604482015260008051602062031b488339815191526064820152608490fd5b60405162461bcd60e51b815260048101839052602f60248201527f43452049445f32373a2055494e543235365f32444152524159206d7573742068604482015260008051602062031dc88339815191526064820152608490fd5b909160400160019283825151036202735e57839215620272fd576000925b620272ae5750505050600090565b620272ba825162004c22565b5151831015620161f557839260018060a01b038083511690620272e38362007494875162004c22565b511614620050f757620272f69062004c12565b92620272a0565b6000925b6202730f5750505050600090565b6202731b825162004c22565b5151831015620161f557839260018060a01b038083511690620273448362007494875162004c22565b511614620050f757620273579062004c12565b9262027301565b60405162461bcd60e51b815260206004820152602f60248201527f43452049445f33313a20414444524553535f32444152524159206d7573742068604482015260008051602062031dc88339815191526064820152608490fd5b9161012d81146202764b5761012e81146202763f5761012f811462027633576101308114620276275761013181146202761b5761013281146202760f57610133811462027603576101348114620275f7576101358114620275eb576101368114620275df576101378114620275d3576101388114620275c7576101398114620275bb5761013a8114620275af5761013b8114620275a35761013c8114620275975761013d81146202758a5761013e81146202757d5761013f81146202757057610140811462027563576101418114620275575761014281146202754b5761014381146202753f57610144811462027533576101458114620275275761014681146202751b5761014781146202750f57610173811462027502576101748114620274f65761017514620274eb575050600090565b620031f89162029e66565b50620031f89162029ca3565b5050620031f89062029c47565b50620031f89162029af9565b50620031f891620297af565b50620031f89162029635565b50620031f891620294b4565b50620031f891620292ef565b50620031f8916202918d565b50620031f89162029012565b5050620031f89062028f0b565b5050620031f89062028df6565b5050620031f89062028cf4565b5050620031f89062028bec565b50620031f89162028a6b565b50620031f891620288ea565b50620031f89162028767565b50620031f891620285e4565b50620031f89162028463565b50620031f891620282e2565b50620031f8916202815f565b50620031f89162027fdc565b50620031f89162027e9d565b50620031f89162027d5e565b50620031f89162027c39565b50620031f89162027b15565b50620031f891620279d7565b50620031f89162027899565b50620031f89162027775565b50620031f891906020019060019182815151036202771c57602082015160268110156200294257600d0362006638576202768683926202a012565b6000935b620276985750505050600090565b620276a4825162004c22565b5151841015620161f5576000835b620276cc575b50620276c5839462004c12565b936202768a565b93929181518510156202771357620276ea8462007494835162004c22565b51620276f7868462004c79565b511462015cb2576202770b83949562004c12565b9092620276b2565b919293620276b8565b60405162461bcd60e51b815260206004820152602b60248201527f43452049445f3330313a205468652055494e545f32444152524159206c656e6760448201526a7468206973206e6f74203160a81b6064820152608490fd5b906020019060019182815151036202784057602082015160268110156200294257600d036200663857620277aa83926202a012565b6000935b620277bc5750505050600090565b620277c8825162004c22565b5151841015620161f5576000835b620277f0575b50620277e9839462004c12565b93620277ae565b939291815185101562027837576202780e8462007494835162004c22565b516202781b868462004c79565b511462015cb2576202782f83949562004c12565b9092620277d6565b919293620277dc565b60405162461bcd60e51b815260206004820152602b60248201527f43452049445f3330323a205468652055494e545f32444152524159206c656e6760448201526a7468206973206e6f74203160a81b6064820152608490fd5b906020019060019182815151036202797e57602082015160268110156200294257600d036200663857620278ce83926202a012565b6000925b620278dd5750505090565b620278e9825162004c22565b515183101562015e7257600080855b62027918575b501562015deb5762027911849362004c12565b92620278d2565b829593919495518110156202797357620279388662007494845162004c22565b5162027945828562004c79565b51146202796657906202795a84939262004c12565b909395949192620278f8565b50918094935038620278fe565b9493909294620278fe565b60405162461bcd60e51b815260206004820152602b60248201527f43452049445f3330333a205468652055494e545f32444152524159206c656e6760448201526a7468206973206e6f74203160a81b6064820152608490fd5b9060200190600191828151510362027abc57602082015160268110156200294257600d03620066385762027a0c83926202a012565b6000925b62027a1b5750505090565b62027a27825162004c22565b515183101562015e7257600080855b62027a56575b501562015deb5762027a4f849362004c12565b9262027a10565b8295939194955181101562027ab15762027a768662007494845162004c22565b5162027a83828562004c79565b511462027aa4579062027a9884939262004c12565b90939594919262027a36565b5091809493503862027a3c565b949390929462027a3c565b60405162461bcd60e51b815260206004820152602b60248201527f43452049445f3330343a205468652055494e545f32444152524159206c656e6760448201526a7468206973206e6f74203160a81b6064820152608490fd5b9060200190600191828151510362027be057602082015160268110156200294257600e03620066385762027b4a83926202a012565b6000935b62027b5c5750505050600090565b62027b68825162004c22565b5151841015620161f5576000835b62027b90575b5062027b89839462004c12565b9362027b4e565b939291815185101562027bd75762027bae8462007494835162004c22565b5162027bbb868462004c79565b511462015cb25762027bcf83949562004c12565b909262027b76565b91929362027b7c565b60405162461bcd60e51b815260206004820152602b60248201527f43452049445f3330353a205468652055494e545f32444152524159206c656e6760448201526a7468206973206e6f74203160a81b6064820152608490fd5b9060200190600191828151510362027d0457602082015160268110156200294257600e03620066385762027c6e83926202a012565b6000935b62027c805750505050600090565b62027c8c825162004c22565b5151841015620161f5576000835b62027cb4575b5062027cad839462004c12565b9362027c72565b939291815185101562027cfb5762027cd28462007494835162004c22565b5162027cdf868462004c79565b511462015cb25762027cf383949562004c12565b909262027c9a565b91929362027ca0565b60405162461bcd60e51b815260206004820152602f60248201527f43452049445f3330363a205468652055494e545f3235365f3244415252415920604482015260008051602062031d888339815191526064820152608490fd5b9060200190600191828151510362027e4357602082015160268110156200294257600e03620066385762027d9383926202a012565b6000925b62027da25750505090565b62027dae825162004c22565b515183101562015e7257600080855b62027ddd575b501562015deb5762027dd6849362004c12565b9262027d97565b8295939194955181101562027e385762027dfd8662007494845162004c22565b5162027e0a828562004c79565b511462027e2b579062027e1f84939262004c12565b90939594919262027dbd565b5091809493503862027dc3565b949390929462027dc3565b60405162461bcd60e51b815260206004820152602f60248201527f43452049445f3330373a205468652055494e545f3235365f3244415252415920604482015260008051602062031d888339815191526064820152608490fd5b9060200190600191828151510362027f8257602082015160268110156200294257600e03620066385762027ed283926202a012565b6000925b62027ee15750505090565b62027eed825162004c22565b515183101562015e7257600080855b62027f1c575b501562015deb5762027f15849362004c12565b9262027ed6565b8295939194955181101562027f775762027f3c8662007494845162004c22565b5162027f49828562004c79565b511462027f6a579062027f5e84939262004c12565b90939594919262027efc565b5091809493503862027f02565b949390929462027f02565b60405162461bcd60e51b815260206004820152602f60248201527f43452049445f3330383a205468652055494e545f3235365f3244415252415920604482015260008051602062031d888339815191526064820152608490fd5b906020019060019182815151036202810557600262027ffc825162004c22565b515103620280ab57602082015160268110156200294257600d0362006638576202802783926202a012565b906000925b6202803a5750505050600090565b8151831015620161f557826202805285948462004c79565b516202806362006854845162004c22565b5111158062028084575b620050f7576202807d9062004c12565b926202802c565b5062028091818462004c79565b51620280a262015a55845162004c22565b5110156202806d565b60405162461bcd60e51b815260206004820152603260248201527f43452049445f3330393a205468652055494e545f3235365f324441525241595b604482015260008051602062031ae88339815191526064820152608490fd5b60405162461bcd60e51b815260206004820152602f60248201527f43452049445f3330393a205468652055494e545f3235365f3244415252415920604482015260008051602062031d888339815191526064820152608490fd5b90602001906001918281515103620282885760026202817f825162004c22565b5151036202822e57602082015160268110156200294257600d036200663857620281aa83926202a012565b906000925b620281bd5750505050600090565b8151831015620161f55782620281d585948462004c79565b51620281e662006854845162004c22565b5111158062028207575b620050f757620282009062004c12565b92620281af565b5062028214818462004c79565b516202822562015a55845162004c22565b511015620281f0565b60405162461bcd60e51b815260206004820152603260248201527f43452049445f3331303a205468652055494e545f3235365f324441525241595b604482015260008051602062031ae88339815191526064820152608490fd5b60405162461bcd60e51b815260206004820152602f60248201527f43452049445f3331303a205468652055494e545f3235365f3244415252415920604482015260008051602062031d888339815191526064820152608490fd5b906020019060019182815151036202840957600262028302825162004c22565b515103620283af57602082015160268110156200294257600d0362006638576202832d83926202a012565b60009182945b6202834057505050905090565b815185101562015cba5762028356858362004c79565b516202836762006854835162004c22565b5111801562028389575b62015cb25762028382849562004c12565b9462028333565b5062028396858362004c79565b51620283a762015a55835162004c22565b511062028371565b60405162461bcd60e51b815260206004820152603260248201527f43452049445f3331313a205468652055494e545f3235365f324441525241595b604482015260008051602062031ae88339815191526064820152608490fd5b60405162461bcd60e51b815260206004820152602f60248201527f43452049445f3331313a205468652055494e545f3235365f3244415252415920604482015260008051602062031d888339815191526064820152608490fd5b906020019060019182815151036202858a57600262028483825162004c22565b5151036202853057602082015160268110156200294257600d036200663857620284ae83926202a012565b60009182945b620284c157505050905090565b815185101562015cba57620284d7858362004c79565b51620284e862006854835162004c22565b511180156202850a575b62015cb25762028503849562004c12565b94620284b4565b5062028517858362004c79565b516202852862015a55835162004c22565b5110620284f2565b60405162461bcd60e51b815260206004820152603260248201527f43452049445f3331323a205468652055494e545f3235365f324441525241595b604482015260008051602062031ae88339815191526064820152608490fd5b60405162461bcd60e51b815260206004820152602f60248201527f43452049445f3331323a205468652055494e545f3235365f3244415252415920604482015260008051602062031d888339815191526064820152608490fd5b906020019060019182815151036202870d57600262028604825162004c22565b515103620286b357602082015160268110156200294257600e0362006638576202862f83926202a012565b906000925b620286425750505050600090565b8151831015620161f557826202865a85948462004c79565b516202866b62006854845162004c22565b511115806202868c575b620050f757620286859062004c12565b9262028634565b5062028699818462004c79565b51620286aa62015a55845162004c22565b51101562028675565b60405162461bcd60e51b815260206004820152603260248201527f43452049445f3331333a205468652055494e545f3235365f324441525241595b604482015260008051602062031ae88339815191526064820152608490fd5b60405162461bcd60e51b815260206004820152602f60248201527f43452049445f3331333a205468652055494e545f3235365f3244415252415920604482015260008051602062031d888339815191526064820152608490fd5b906020019060019182815151036202889057600262028787825162004c22565b5151036202883657602082015160268110156200294257600e036200663857620287b283926202a012565b906000925b620287c55750505050600090565b8151831015620161f55782620287dd85948462004c79565b51620287ee62006854845162004c22565b511115806202880f575b620050f757620288089062004c12565b92620287b7565b506202881c818462004c79565b516202882d62015a55845162004c22565b511015620287f8565b60405162461bcd60e51b815260206004820152603260248201527f43452049445f3331343a205468652055494e545f3235365f324441525241595b604482015260008051602062031ae88339815191526064820152608490fd5b60405162461bcd60e51b815260206004820152602f60248201527f43452049445f3331343a205468652055494e545f3235365f3244415252415920604482015260008051602062031d888339815191526064820152608490fd5b9060200190600191828151510362028a115760026202890a825162004c22565b515103620289b757602082015160268110156200294257600e0362006638576202893583926202a012565b60009182945b6202894857505050905090565b815185101562015cba576202895e858362004c79565b516202896f62006854835162004c22565b5111801562028991575b62015cb2576202898a849562004c12565b946202893b565b506202899e858362004c79565b51620289af62015a55835162004c22565b511062028979565b60405162461bcd60e51b815260206004820152603260248201527f43452049445f3331353a205468652055494e545f3235365f324441525241595b604482015260008051602062031ae88339815191526064820152608490fd5b60405162461bcd60e51b815260206004820152602f60248201527f43452049445f3331353a205468652055494e545f3235365f3244415252415920604482015260008051602062031d888339815191526064820152608490fd5b9060200190600191828151510362028b9257600262028a8b825162004c22565b51510362028b3857602082015160268110156200294257600e03620066385762028ab683926202a012565b60009182945b62028ac957505050905090565b815185101562015cba5762028adf858362004c79565b5162028af062006854835162004c22565b5111801562028b12575b62015cb25762028b0b849562004c12565b9462028abc565b5062028b1f858362004c79565b5162028b3062015a55835162004c22565b511062028afa565b60405162461bcd60e51b815260206004820152603260248201527f43452049445f3331363a205468652055494e545f3235365f324441525241595b604482015260008051602062031ae88339815191526064820152608490fd5b60405162461bcd60e51b815260206004820152602f60248201527f43452049445f3331363a205468652055494e545f3235365f3244415252415920604482015260008051602062031d888339815191526064820152608490fd5b602080820190815160268110156200294257600d14801562028cde575b62028c905750805160268110156200294257600f1490811562028c79575b5062028c335750600090565b6000805b6060604084015101518051821015620166ee5762028c588260e09262004c79565b5101511562021ab257604062028c7060609262004c12565b91505062028c37565b90505160268110156200294257600c143862028c27565b60009150815b8160408501510151805182101562028cd45762028cb68260019262004c79565b51151503620166e75762028ccc60409162004c12565b905062028c96565b5050505050600190565b50815160268110156200294257600e1462028c09565b602080820190815160268110156200294257600d14801562028de0575b62028d9c5750805160268110156200294257600f1490811562028d85575b5062028d3b5750600090565b6000805b6060604084015101518051821015620166ee5760e062028d628360019362004c79565b51015115151462021ab257604062028d7c60609262004c12565b91505062028d3f565b90505160268110156200294257600c143862028d2f565b60009150815b8160408501510151805182101562028cd45762028dc28260019262004c79565b51151514620166e75762028dd860409162004c12565b905062028da2565b50815160268110156200294257600e1462028d11565b602080820190815160268110156200294257600d14801562028ef5575b62028ea75750805160268110156200294257600f1490811562028e90575b5062028e3d5750600090565b60005b60606040830151015180518210156200663857819060e062028e66600193849362004c79565b51015115151462028e8a5750604062028e8160609262004c12565b91505062028e40565b91505090565b90505160268110156200294257600c143862028e31565b905060005b8160408401510151805182101562015deb57819062028ecf600192839262004c79565b5115151462028eee575062028ee660409162004c12565b905062028eac565b9250505090565b50815160268110156200294257600e1462028e13565b602080820190815160268110156200294257600d14801562028ffc575b62028fb55750805160268110156200294257600f1490811562028f9e575b5062028f525750600090565b60005b6060604083015101518051821015620066385762028f768260e09262004c79565b5101511562028f9757604062028f8e60609262004c12565b91505062028f55565b5050600190565b90505160268110156200294257600c143862028f46565b905060005b8160408401510151805182101562015deb57819062028fdd600192839262004c79565b5115150362028eee575062028ff460409162004c12565b905062028fba565b50815160268110156200294257600e1462028f28565b602080920191600192838151510362029133576202903284915162004c22565b515103620290da57808201805160268110156200294257600f14159081620290c2575b506200663857600091835b6202906e5750505050600090565b60408101926060845101519384518210156201d5da57620290a96200685460a0866202909c868b9a62004c79565b5101519351015162004c22565b5114620050f757620290bb9062004c12565b9262029060565b90505160268110156200294257600c14153862029055565b6084906040519062461bcd60e51b82526004820152603260248201527f43452049445f3332313a205468652055494e545f3235365f324441525241595b604482015260008051602062031ae88339815191526064820152fd5b60405162461bcd60e51b815260048101839052602f60248201527f43452049445f3332313a205468652055494e545f3235365f3244415252415920604482015260008051602062031d888339815191526064820152608490fd5b60208092019160019283815151036202929557818301805160268110156200294257600f141590816202927d575b5062015deb5783926000945b620291d6575050505050600090565b6040810160608082510151518710156202927557906000865b6202920b575b50505062029204849562004c12565b94620291c7565b62029217855162004c22565b51518110156202926f57856202923289858551015162004c79565b510151620292468262007494885162004c22565b51146202926457906202925b87939262004c12565b909192620291ef565b505050505050905090565b620291f5565b505062015fff565b90505160268110156200294257600c141538620291bb565b60405162461bcd60e51b815260048101839052602f60248201527f43452049445f3332323a205468652055494e545f3235365f3244415252415920604482015260008051602062031d888339815191526064820152608490fd5b60208092019160019283815151036202945a57600262029310825162004c22565b5151036202940057818301805160268110156200294257600f14159081620293e8575b5062015deb57600092845b6202934d575050505050600090565b60408101936060948581510151958651831015620293df578286918262029376838c9b62004c79565b5101516202938962006854895162004c22565b5111159384620293af575b505050506201652657620293a89062004c12565b936202933e565b620293bf93945051015162004c79565b510151620293d262015a55855162004c22565b5110158482388062029394565b50505062015fff565b90505160268110156200294257600c14153862029333565b60405162461bcd60e51b815260048101839052603260248201527f43452049445f3332333a205468652055494e545f3235365f324441525241595b604482015260008051602062031ae88339815191526064820152608490fd5b60405162461bcd60e51b815260048101839052602f60248201527f43452049445f3332333a205468652055494e545f3235365f3244415252415920604482015260008051602062031d888339815191526064820152608490fd5b60208092016001928382515103620295dc5783620294d3835162004c22565b5151036202957d57808301805160268110156200294257600f1415908162029565575b5062015deb57600092845b62029510575050505050600090565b6060604082015101519384518110156202955e57826202953282889762004c79565b5101516202954562006854865162004c22565b51106201652657620295579062004c12565b9362029501565b5062015fff565b90505160268110156200294257600c141538620294f6565b6084906040519062461bcd60e51b82526004820152603260248201527f43452049445f3332343a205468652055494e545f3235365f324441525241595b604482015271305d206c656e677468206973206e6f74203160701b6064820152fd5b6084906040519062461bcd60e51b82526004820152602f60248201527f43452049445f3332343a205468652055494e545f3235365f3244415252415920604482015260008051602062031d888339815191526064820152fd5b6020809201600192838251510362029756578362029654835162004c22565b515103620296f757808301805160268110156200294257600f14159081620296df575b5062015deb57600092845b62029691575050505050600090565b6060604082015101519384518110156202955e5782620296b382889762004c79565b510151620296c662006854865162004c22565b51116201652657620296d89062004c12565b9362029682565b90505160268110156200294257600c14153862029677565b6084906040519062461bcd60e51b82526004820152603260248201527f43452049445f3332353a205468652055494e545f3235365f324441525241595b604482015271305d206c656e677468206973206e6f74203160701b6064820152fd5b6084906040519062461bcd60e51b82526004820152602f60248201527f43452049445f3332353a205468652055494e545f3235365f3244415252415920604482015260008051602062031d888339815191526064820152fd5b9060200190600191828151510362029a9f5782620297ce825162004c22565b51510362029a3f5760208201805160268110156200294257600f1415908162029a27575b5062006638576000939291825b6202980e575b50600093505050565b604081019460608087510151805183101562029a1e5762029834836202983b9262004c79565b51620055ad565b90600691828110156200294257158062029a05575b620299ab57620298696202983484838b51015162004c79565b828110156200294257861480620299eb575b620299ab57620298946202983484838b51015162004c79565b82811015620029425760028091149081620299d0575b50620299ab57620298c46202983484838b51015162004c79565b82811015620029425760038091149081620299b5575b50620299ab57620298f46202983484838b51015162004c79565b9782891015620029425760048099148062029991575b6202998657836202992392620298349251015162004c79565b908110156202997157849596506005809114908162029956575b50620050f7576202994e9062004c12565b9493620297ff565b90506202996862006854855162004c22565b5114386202993d565b602187634e487b7160e01b6000525260246000fd5b509496505050505050565b5088620299a362006854885162004c22565b51146202990a565b5093955050505050565b9050620299c762006854875162004c22565b511438620298da565b9050620299e262006854875162004c22565b511438620298aa565b5085620299fd62006854875162004c22565b51146202987b565b5062029a1662006854865162004c22565b511562029850565b50505062029805565b90505160268110156200294257600c141538620297f2565b60405162461bcd60e51b815260206004820152603260248201527f43452049445f3332363a205468652055494e545f3235365f324441525241595b604482015271305d206c656e677468206973206e6f74203160701b6064820152608490fd5b60405162461bcd60e51b815260206004820152602f60248201527f43452049445f3332363a205468652055494e545f3235365f3244415252415920604482015260008051602062031d888339815191526064820152608490fd5b9060200190600191828151510362029bed5760208201805160268110156200294257600f1415908162029bd5575b50620066385782916000935b62029b415750505050600090565b6040810160608082510151518610156201d5da57906000855b62029b76575b50505062029b6f839462004c12565b9362029b33565b62029b82855162004c22565b515181101562029bcf578262029b9d88828551015162004c79565b51015162029bb18262007494885162004c22565b51146202284a579062029bc686939262004c12565b90919262029b5a565b62029b60565b90505160268110156200294257600c14153862029b27565b60405162461bcd60e51b815260206004820152602f60248201527f43452049445f3332373a205468652055494e545f3235365f3244415252415920604482015260008051602062031d888339815191526064820152608490fd5b602081015160268110156200294257601303620075075760005b604080830151015180518210156200663857819060c062029c86600193849362004c79565b51015115151462028e8a575062029c9d9062004c12565b62029c61565b60209182018051516000949360019390916000190162029e0c57600262029ccb845162004c22565b51510362029db257818101516026811015620029425760130362029da8576000959493929190835b62029d02575b50505050909150565b604080820190808251015180518a101562029d9f5784918262029d278c809462004c79565b51015162029d3a62006854895162004c22565b511115938462029d6f575b5050505062029d655762029d5c8495969762004c12565b96959462029cf3565b5050509150915090565b62029d7f93945051015162004c79565b51015162029d9262015a55855162004c22565b5110158288388062029d45565b50505062029cf9565b5060009450505050565b60405162461bcd60e51b815260048101839052603260248201527f43452049445f3337323a205468652055494e545f3235365f324441525241595b604482015260008051602062031ae88339815191526064820152608490fd5b60405162461bcd60e51b815260048101839052602f60248201527f43452049445f3337323a205468652055494e545f3235365f3244415252415920604482015260008051602062031d888339815191526064820152608490fd5b90602001600191828251510362029fb7578262029e84835162004c22565b51510362029f5957602081015160268110156200294257601303620066385782916000935b62029eb75750505050600090565b6040808301908082510151518610156201d5da57906000855b62029eec575b50505062029ee5839462004c12565b9362029ea9565b62029efc87848451015162004c79565b51515181101562029f535762029f248162029f1c89868651015162004c79565b515162004c79565b5162029f3562006854865162004c22565b51146202284a579062029f4a86939262004c12565b90919262029ed0565b62029ed6565b60405162461bcd60e51b815260206004820152603060248201527f43452049445f3337333a2054686520535452494e475f324441525241595b305d60448201526f206c656e677468206973206e6f74203160801b6064820152608490fd5b60405162461bcd60e51b815260206004820152602d60248201527f43452049445f3337333a2054686520535452494e475f32444152524159206c6560448201526c6e677468206973206e6f74203160981b6064820152608490fd5b602090818101805160268110156200294257600d149081156202a12d575b506202a0525750506040516202a0468162002a5e565b60008152600036813790565b6040019160a0916202a0746202a06c848651015162004c22565b515162004d95565b93600092835b6202a089868451015162004c22565b51518110156202a0e6576202a0a381858551015162004c79565b516202a0c1575b6202a0b96202a0899162004c12565b90506202a07a565b936202a0b96202a0dc828762001a9c6202a089958c62004c79565b959150506202a0aa565b50935050506202a0f68162004d95565b9060005b8181106202a109575090925050565b806202a11a6202a127928762004c79565b5162001a9c828662004c79565b6202a0fa565b90505160268110156200294257600e14386202a030565b9161025981146202a4c05761025a81146202a3d05761025b81146202a2e05761025c81146202a1ca5761025d81146202a1be5761025e81146202a1b25761025f81146202a1a657610260146202a19b575050600090565b620031f8916202a97e565b50620031f8916202a804565b50620031f8916202a6f3565b50620031f8916202a5b0565b50602001906001825151036202a2865760026202a1e8835162004c22565b5151036202a22c57602001908151516202a20762006854835162004c22565b51111591826202a21657505090565b62015a5c91925062015a55905151925162004c22565b60405162461bcd60e51b815260206004820152603160248201527f43452049445f3630343a205468652055494e543235365f324441525241595b30604482015260008051602062031d488339815191526064820152608490fd5b60405162461bcd60e51b815260206004820152602e60248201527f43452049445f3630343a205468652055494e543235365f32444152524159206c604482015260008051602062031c688339815191526064820152608490fd5b50602001906001825151036202a3765760016202a2fe835162004c22565b5151036202a31c5762006854602062015b6092015151925162004c22565b60405162461bcd60e51b815260206004820152603160248201527f43452049445f3630333a205468652055494e543235365f324441525241595b30604482015260008051602062031be88339815191526064820152608490fd5b60405162461bcd60e51b815260206004820152602e60248201527f43452049445f3630333a205468652055494e543235365f32444152524159206c604482015260008051602062031c688339815191526064820152608490fd5b50602001906001825151036202a4665760016202a3ee835162004c22565b5151036202a40c576200685460206201593292015151925162004c22565b60405162461bcd60e51b815260206004820152603160248201527f43452049445f3630323a205468652055494e543235365f324441525241595b30604482015260008051602062031be88339815191526064820152608490fd5b60405162461bcd60e51b815260206004820152602e60248201527f43452049445f3630323a205468652055494e543235365f32444152524159206c604482015260008051602062031c688339815191526064820152608490fd5b50602001906001825151036202a5565760016202a4de835162004c22565b5151036202a4fc576200685460206201583192015151925162004c22565b60405162461bcd60e51b815260206004820152603160248201527f43452049445f3630313a205468652055494e543235365f324441525241595b30604482015260008051602062031be88339815191526064820152608490fd5b60405162461bcd60e51b815260206004820152602e60248201527f43452049445f3630313a205468652055494e543235365f32444152524159206c604482015260008051602062031c688339815191526064820152608490fd5b919091602080930160019182825151036202a69957826202a5d2835162004c22565b5151036202a63f57938293946000935b6202a5f1575050505050600090565b818101519384518110156202955e576202a616620076f684620067ee848a9962004c79565b6202a62662006854865162004c22565b511462016526576202a6389062004c12565b936202a5e2565b60405162461bcd60e51b815260048101869052603160248201527f43452049445f3630353a205468652055494e543235365f324441525241595b30604482015260008051602062031be88339815191526064820152608490fd5b60405162461bcd60e51b815260048101869052602e60248201527f43452049445f3630353a205468652055494e543235365f32444152524159206c604482015260008051602062031c688339815191526064820152608490fd5b919060208091019060019182815151036202a7aa578293946000945b6202a71e575050505050600090565b8281018051518610156202955e576000855b6202a74b575b50506202a744849562004c12565b946202a70f565b6202a757845162004c22565b51518110156202a7a4576202a777620076f686620067ee8a865162004c79565b6202a7888262007494875162004c22565b51146202284a57906202a79c869262004c12565b90916202a730565b6202a736565b60405162461bcd60e51b815260048101839052602e60248201527f43452049445f3630363a205468652055494e543235365f32444152524159206c604482015260008051602062031c688339815191526064820152608490fd5b91909160208093019060019182815151036202a92457846202a827825162004c22565b5151920191825151036202a8a95782939460009283955b6202a84d575b50505050905090565b805180518710156202a8a257620076f683620067ee896202a86e9462004c79565b6202a87f8762007494865162004c22565b51036202a899576202a892859662004c12565b956202a83e565b50505091505090565b506202a844565b60405162461bcd60e51b815260048101869052604760248201527f43452049445f3630373a205468652055494e543235365f324441525241595b3060448201527f5d206c656e677468206973206e6f7420657175616c20746f2070726f6772616d606482015266040d8cadccee8d60cb1b608482015260a490fd5b60405162461bcd60e51b815260048101869052602e60248201527f43452049445f3630373a205468652055494e543235365f32444152524159206c604482015260008051602062031c688339815191526064820152608490fd5b919060208091019060019182815151036202aa4e578293946000935b6202a9a6575050505090565b8281018051518510156202aa4757856000918183905b6202a9de575b5050501562015fff576202a9d7859462004c12565b936202a99a565b6202a9ea865162004c22565b51518110156202aa41576202aa0a620076f688620067ee8b865162004c79565b6202aa1b8262007494895162004c22565b51146202aa34576202aa2d9062004c12565b826202a9bc565b505090508538806202a9c2565b6202a9c2565b50620050f7565b60405162461bcd60e51b815260048101839052602e60248201527f43452049445f3630383a205468652055494e543235365f32444152524159206c604482015260008051602062031c688339815191526064820152608490fd5b916101cd81146202aafa576101ce81146202aaee576101cf81146202aae2576101d0146202aad7575050600090565b620031f8916202b108565b50620031f8916202aee6565b50620031f8916202acf3565b50620031f8919060200160019182825151036202ac995760026202ab1f835162004c22565b5151036202ac3f576202ab32816202b2fb565b1562006638576202ab43906202b358565b9180939150518251036202abd457600092845b6202ab65575050505050600090565b80518410156201652e57836202ab7d86958362004c79565b516202ab8e62006854855162004c22565b5114806202abae575b62016526576202aba79062004c12565b936202ab56565b506202abbb818562004c79565b516202abcc62015a55855162004c22565b51106202ab97565b60405162461bcd60e51b815260206004820152604860248201527f43452049445f3436313a2054686520746f6b656e20636c617373206c69737420604482015260008051602062031bc88339815191526064820152670e840d8cadccee8d60c31b608482015260a490fd5b60405162461bcd60e51b815260206004820152603160248201527f43452049445f3436313a205468652055494e543235365f324441525241595b30604482015260008051602062031be88339815191526064820152608490fd5b60405162461bcd60e51b815260206004820152602e60248201527f43452049445f3436313a205468652055494e543235365f32444152524159206c604482015260008051602062031c688339815191526064820152608490fd5b9060200160019182825151036202ae8c5760026202ad12835162004c22565b5151036202ae32576202ad25816202b2fb565b1562006638576202ad36906202b358565b9180939150518251036202adc757600092845b6202ad58575050505050600090565b80518410156201652e57836202ad7086958362004c79565b516202ad8162006854855162004c22565b5114806202ada1575b62016526576202ad9a9062004c12565b936202ad49565b506202adae818562004c79565b516202adbf62015a55855162004c22565b51116202ad8a565b60405162461bcd60e51b815260206004820152604860248201527f43452049445f3436323a2054686520746f6b656e20636c617373206c69737420604482015260008051602062031bc88339815191526064820152670e840d8cadccee8d60c31b608482015260a490fd5b60405162461bcd60e51b815260206004820152603160248201527f43452049445f3436323a205468652055494e543235365f324441525241595b30604482015260008051602062031be88339815191526064820152608490fd5b60405162461bcd60e51b815260206004820152602e60248201527f43452049445f3436323a205468652055494e543235365f32444152524159206c604482015260008051602062031c688339815191526064820152608490fd5b9060200160019182825151036202b0ae5760036202af05835162004c22565b5151036202b054576202af18816202b2fb565b1562006638576202af29906202b358565b9180939150518251036202afe957600092845b6202af4b575050505050600090565b80518410156201652e57836202af6386958362004c79565b516202af7462006854855162004c22565b5114806202afc2575b806202af9b575b62016526576202af949062004c12565b936202af3c565b506202afa8818562004c79565b516202afb96201c50b855162004c22565b5110156202af84565b506202afcf818562004c79565b516202afe062015a55855162004c22565b5111156202af7d565b60405162461bcd60e51b815260206004820152604860248201527f43452049445f3436333a2054686520746f6b656e20636c617373206c69737420604482015260008051602062031bc88339815191526064820152670e840d8cadccee8d60c31b608482015260a490fd5b60405162461bcd60e51b815260206004820152603160248201527f43452049445f3436333a205468652055494e543235365f324441525241595b30604482015260008051602062031be88339815191526064820152608490fd5b60405162461bcd60e51b815260206004820152602e60248201527f43452049445f3436333a205468652055494e543235365f32444152524159206c604482015260008051602062031c688339815191526064820152608490fd5b9060200160019182825151036202b2a15760026202b127835162004c22565b5151036202b247576202b13a816202b2fb565b1562006638576202b14b906202b358565b9180939150518251036202b1dc57600092845b6202b16d575050505050600090565b80518410156201652e57836202b18586958362004c79565b516202b19662006854855162004c22565b5114806202b1b6575b62016526576202b1af9062004c12565b936202b15e565b506202b1c3818562004c79565b516202b1d462015a55855162004c22565b51146202b19f565b60405162461bcd60e51b815260206004820152604860248201527f43452049445f3436343a2054686520746f6b656e20636c617373206c69737420604482015260008051602062031bc88339815191526064820152670e840d8cadccee8d60c31b608482015260a490fd5b60405162461bcd60e51b815260206004820152603160248201527f43452049445f3436343a205468652055494e543235365f324441525241595b30604482015260008051602062031be88339815191526064820152608490fd5b60405162461bcd60e51b815260206004820152602e60248201527f43452049445f3436343a205468652055494e543235365f32444152524159206c604482015260008051602062031c688339815191526064820152608490fd5b6020018051602681101562002942576014149081156202b340575b81156202b329575b5062022c9957600090565b90505160268110156200294257601e14386202b31e565b8091505160268110156200294257601514906202b316565b6202b363816202b2fb565b156202b46957602081018051602681101562002942576014146202b454578051602681101562002942576015146202b41d575160268110156200294257601e146202b3eb57506040516202b3b78162002a5e565b60008152604051916202b3ca8362002a5e565b60008352604051916202b3dd8362002a5e565b600083526000368137929190565b604001906202b3ff60a08351015162004c22565b51906202b41660a06200749b818651015162004c46565b5191929190565b50604001906202b43260a08351015162004c22565b51906202b41660a06202b449818651015162004c57565b519451015162004c68565b50604001906202b3ff60a08351015162004c22565b60405162461bcd60e51b815260206004820152606860248201527f43452049445f3436313a20546865206f7065726174696f6e206973206e6f742060448201527f746f6b656e206f7065726174696f6e20776974682063617368287061792d746f60648201527f2d6d696e742c207061792d746f2d7472616e736665722c206275726e2d616e646084820152672d726566756e642960c01b60a482015260c490fd5b916101af81146202b5b5576101b081146202b5a9576101b181146202b59d576101b281146202b591576101b381146202b585576101b481146202b579576101b581146202b56d576101b6146202b562575050600090565b620031f8916202bffe565b50620031f8916202be59565b50620031f8916202bcf4565b50620031f8916202bb8f565b50620031f8916202ba2a565b50620031f8916202b885565b50620031f8916202b720565b50620031f891906020019060019182815151036202b6c657826202b5da825162004c22565b5151036202b66c576020820151602681101562002942576011036200663857600091835b6202b60c5750505050600090565b604081019260a0936202b623858251015162004c22565b51518210156201d5da57816200749487966202b6429351015162004c22565b516202b65362006854855162004c22565b5110620050f7576202b6659062004c12565b926202b5fe565b60405162461bcd60e51b815260206004820152603160248201527f43452049445f3433313a205468652055494e543235365f324441525241595b30604482015260008051602062031be88339815191526064820152608490fd5b60405162461bcd60e51b815260206004820152602e60248201527f43452049445f3433313a205468652055494e543235365f32444152524159206c604482015260008051602062031c688339815191526064820152608490fd5b906020019060019182815151036202b82b57826202b73f825162004c22565b5151036202b7d1576020820151602681101562002942576011036200663857600091835b6202b7715750505050600090565b604081019260a0936202b788858251015162004c22565b51518210156201d5da57816200749487966202b7a79351015162004c22565b516202b7b862006854855162004c22565b5111620050f7576202b7ca9062004c12565b926202b763565b60405162461bcd60e51b815260206004820152603160248201527f43452049445f3433323a205468652055494e543235365f324441525241595b30604482015260008051602062031be88339815191526064820152608490fd5b60405162461bcd60e51b815260206004820152602e60248201527f43452049445f3433323a205468652055494e543235365f32444152524159206c604482015260008051602062031c688339815191526064820152608490fd5b906020019060019182815151036202b9d05760026202b8a5825162004c22565b5151036202b976576020820151602681101562002942576011036200663857600091835b6202b8d75750505050600090565b604081019260a0936202b8ee858251015162004c22565b51518210156201d5da5781856202b90f82620074948a998651015162004c22565b516202b92062006854885162004c22565b51111592836202b945575b505050620050f7576202b93e9062004c12565b926202b8c9565b5101516202b9599250620074949062004c22565b516202b96a62015a55855162004c22565b5110158138806202b92b565b60405162461bcd60e51b815260206004820152603160248201527f43452049445f3433333a205468652055494e543235365f324441525241595b30604482015260008051602062031d488339815191526064820152608490fd5b60405162461bcd60e51b815260206004820152602e60248201527f43452049445f3433333a205468652055494e543235365f32444152524159206c604482015260008051602062031c688339815191526064820152608490fd5b906020019060019182815151036202bb3557826202ba49825162004c22565b5151036202badb576020820151602681101562002942576011036200663857600091835b6202ba7b5750505050600090565b604081019260a0936202ba92858251015162004c22565b51518210156201d5da57816200749487966202bab19351015162004c22565b516202bac262006854855162004c22565b5114620050f7576202bad49062004c12565b926202ba6d565b60405162461bcd60e51b815260206004820152603160248201527f43452049445f3433343a205468652055494e543235365f324441525241595b30604482015260008051602062031be88339815191526064820152608490fd5b60405162461bcd60e51b815260206004820152602e60248201527f43452049445f3433343a205468652055494e543235365f32444152524159206c604482015260008051602062031c688339815191526064820152608490fd5b906020019060019182815151036202bc9a57826202bbae825162004c22565b5151036202bc40576020820151602681101562002942576012036200663857600091835b6202bbe05750505050600090565b604081019260a0936202bbf7858251015162004c22565b51518210156201d5da57816200749487966202bc169351015162004c22565b516202bc2762006854855162004c22565b5110620050f7576202bc399062004c12565b926202bbd2565b60405162461bcd60e51b815260206004820152603160248201527f43452049445f3433353a205468652055494e543235365f324441525241595b30604482015260008051602062031be88339815191526064820152608490fd5b60405162461bcd60e51b815260206004820152602e60248201527f43452049445f3433353a205468652055494e543235365f32444152524159206c604482015260008051602062031c688339815191526064820152608490fd5b906020019060019182815151036202bdff57826202bd13825162004c22565b5151036202bda5576020820151602681101562002942576012036200663857600091835b6202bd455750505050600090565b604081019260a0936202bd5c858251015162004c22565b51518210156201d5da57816200749487966202bd7b9351015162004c22565b516202bd8c62006854855162004c22565b5111620050f7576202bd9e9062004c12565b926202bd37565b60405162461bcd60e51b815260206004820152603160248201527f43452049445f3433363a205468652055494e543235365f324441525241595b30604482015260008051602062031be88339815191526064820152608490fd5b60405162461bcd60e51b815260206004820152602e60248201527f43452049445f3433363a205468652055494e543235365f32444152524159206c604482015260008051602062031c688339815191526064820152608490fd5b906020019060019182815151036202bfa45760026202be79825162004c22565b5151036202bf4a576020820151602681101562002942576012036200663857600091835b6202beab5750505050600090565b604081019260a0936202bec2858251015162004c22565b51518210156201d5da5781856202bee382620074948a998651015162004c22565b516202bef462006854885162004c22565b51111592836202bf19575b505050620050f7576202bf129062004c12565b926202be9d565b5101516202bf2d9250620074949062004c22565b516202bf3e62015a55855162004c22565b5110158138806202beff565b60405162461bcd60e51b815260206004820152603160248201527f43452049445f3433373a205468652055494e543235365f324441525241595b30604482015260008051602062031d488339815191526064820152608490fd5b60405162461bcd60e51b815260206004820152602e60248201527f43452049445f3433373a205468652055494e543235365f32444152524159206c604482015260008051602062031c688339815191526064820152608490fd5b906020019060019182815151036202c10957826202c01d825162004c22565b5151036202c0af576020820151602681101562002942576012036200663857600091835b6202c04f5750505050600090565b604081019260a0936202c066858251015162004c22565b51518210156201d5da57816200749487966202c0859351015162004c22565b516202c09662006854855162004c22565b5114620050f7576202c0a89062004c12565b926202c041565b60405162461bcd60e51b815260206004820152603160248201527f43452049445f3433383a205468652055494e543235365f324441525241595b30604482015260008051602062031be88339815191526064820152608490fd5b60405162461bcd60e51b815260206004820152602e60248201527f43452049445f3433383a205468652055494e543235365f32444152524159206c604482015260008051602062031c688339815191526064820152608490fd5b156202c16b57565b60405162461bcd60e51b815260206004820152601c60248201527b496e76616c6964206e756d626572206f6620706172616d657465727360201b6044820152606490fd5b6202c1ba8162002edc565b6202c1c86200dbbb62031666565b6202c1d38162002edc565b600181036202c1f157506202c1eb6200dbe762031666565b61038f55565b6202c1fc8162002edc565b600281036202c20c575061039055565b6202c2178162002edc565b600381036202c227575061039155565b806202c23560049262002edc565b146202c23e5750565b61039255565b60609060208152601e60208201527f496e76616c69642072657475726e20747970653a20554e444546494e4544000060408201520190565b7f496e76616c69642061667465722d6f7020706c7567696e206c6576656c2e204c815264032bb32b6160dd1b602082015260250190565b7f496e76616c6964206265666f72652d6f7020706c7567696e206c6576656c2e2081526502632bb32b6160d51b602082015260260190565b9060005b82518110156202c9df5760e06202c307828562004c79565b510151156202c6be576202c32062029834828562004c79565b600680821015620029425760049182036202c46b575060209060016003836202c34a868962004c79565b51015106036202c3675750506202c3619062004c12565b6202c2ef565b62004c0e82846202c45060636202c3986202c391856202c388868e62004c79565b51015162005028565b9362005028565b92847f20697320776974682072657475726e2074797065205945535f414e445f534b4960409586519788946202c3d462004ce38388016202c2b3565b0160008051602062031c4883398151915281526202c3fd82518093601396878501910162002d20565b01918201527f505f53414e44424f582c2073686f756c64206265206f6e206c6576656c205b3160338201526f2c20342c20372c2031302c202e2e2e5d60801b605382015203604381018552018362002ab3565b5193849362461bcd60e51b8552840152602483019062002d45565b6202c47b62029834848762004c79565b818110156201d190576001036202c58b575060209060026003836202c4a1868962004c79565b51015106036202c4b85750506202c3619062004c12565b62004c0e82846202c450605d6202c4d96202c391856202c388868e62004c79565b92847f20697320776974682072657475726e20747970652053414e44424f585f4e454560409586519788946202c51562004ce38388016202c2b3565b0160008051602062031c4883398151915281526202c53e82518093601396878501910162002d20565b01918201527f4445442c2073686f756c64206265206f6e206c6576656c205b322c20352c20386033820152692c2031312c202e2e2e5d60b01b605382015203603d81018552018362002ab3565b6202c59b62029834848762004c79565b90811015620144ba576002036202c6a2576020906003826202c5be858862004c79565b510151066202c5d45750506202c3619062004c12565b62004c0e82846202c4506202c5fa6202c5f3846202c388858d62004c79565b9262005028565b916202c69360409384519586936202c61862004ce38387016202c2b3565b0160008051602062031c4883398151915281528151906202c642826013948d868501910162002d20565b01017f20697320776974682072657475726e2074797065204e4f2c2073686f756c642081527f6265206f6e206c6576656c205b332c20362c20392c2031322c202e2e2e5d00006020820152603e0190565b03601f19810184528362002ab3565b60405162461bcd60e51b815290819062004c0e9082016202c244565b6202c6ce62029834828562004c79565b6006908181101562002942576005036202c7e95750602060016003826202c6f6858862004c79565b51015106036202c70c57506202c3619062004c12565b62004c0e826202c7cc60526202c72d6202c391866202c38881998c62004c79565b926040937f20697320776974682072657475726e2074797065205945532c2073686f756c6485519889936202c76862004ce38387016202c27c565b0160008051602062031c4883398151915281528251906202c792826013958c878501910162002d20565b01918201527f206265206f6e206c6576656c205b312c20342c20372c2031302c202e2e2e5d00603382015203603281018752018562002ab3565b5192839262461bcd60e51b84526004840152602483019062002d45565b6202c7f962029834838662004c79565b9080821015620029425760039182036202c90857506002602091826202c820858862004c79565b51015106036202c83657506202c3619062004c12565b62004c0e826202c7cc605c6202c8576202c391866202c38881998c62004c79565b926040937f20697320776974682072657475726e207479706520564f54494e475f4e45454485519889936202c89262004ce38387016202c27c565b0160008051602062031c4883398151915281528251906202c8bc826013958c878501910162002d20565b01918201527f45442c2073686f756c64206265206f6e206c6576656c205b322c20352c20382c6033820152682031312c202e2e2e5d60b81b605382015203603c81018752018562002ab3565b6202c91862029834848762004c79565b9081101562002942576002036202c9c457602090816202c939848762004c79565b510151066202c94e57506202c3619062004c12565b62004c0e826202c7cc6202c96d6202c5f3856202c38881988b62004c79565b916202c9b560409384519788936202c98b62004ce38387016202c27c565b0160008051602062031c4883398151915281528151906202c642826013948b868501910162002d20565b03601f19810186528562002ab3565b60405162461bcd60e51b81528062004c0e600482016202c244565b509050565b156202c9ec57565b60405162461bcd60e51b815260206004820152604d60248201527f546865206c656e677468206f662074686520706c7567696e20696e646578657360448201527f20617272617920616e642074686520626f6f6c65616e206172726179206d757360648201526c74206265207468652073616d6560981b608482015260a490fd5b156202ca7557565b60405162461bcd60e51b815260206004820152602260248201527f496e76616c696420706c7567696e20696e64657820746f20626520656e61626c604482015261195960f21b6064820152608490fd5b156202cacd57565b60405162461bcd60e51b815260206004820152602b60248201527f54686520706c7567696e20746f20626520656e61626c6564206973206e6f742060448201526a1a5b9a5d1a585b1a5e995960aa1b6064820152608490fd5b156202cb2e57565b60405162461bcd60e51b815260206004820152602b60248201527f54686520706c7567696e20746f20626520656e61626c656420697320616c726560448201526a18591e48195b98589b195960aa1b6064820152608490fd5b156202cb8f57565b60405162461bcd60e51b815260206004820152602360248201527f496e76616c696420706c7567696e20696e64657820746f2062652064697361626044820152621b195960ea1b6064820152608490fd5b156202cbe857565b60405162461bcd60e51b815260206004820152602c60248201527f54686520706c7567696e20746f2062652064697361626c6564206973206e6f7460448201526b081a5b9a5d1a585b1a5e995960a21b6064820152608490fd5b156202cc4a57565b60405162461bcd60e51b815260206004820152602d60248201527f54686520706c7567696e20746f2062652064697361626c656420697320616c7260448201526c1958591e48191a5cd8589b1959609a1b6064820152608490fd5b156202ccad57565b60405162461bcd60e51b815260206004820152603060248201527f546865206c656e677468206f662074617267657420616e6420746f6b656e436c60448201526f185cdcc81a5cc81b9bdd08195c5d585b60821b6064820152608490fd5b156202cd1357565b60405162461bcd60e51b815260206004820152602c60248201527f546865206c656e677468206f662074617267657420616e6420616d6f756e742060448201526b1a5cc81b9bdd08195c5d585b60a21b6064820152608490fd5b156202cd7557565b60405162461bcd60e51b815260206004820152602260248201527f54686520746f6b656e20636c617373206973206e6f7420696e697469616c697a604482015261195960f21b6064820152608490fd5b156202cdcd57565b60405162461bcd60e51b815260206004820152602960248201527f54686520746f74616c20737570706c79206f662074686520746f6b656e206973604482015268206f766572666c6f7760b81b6064820152608490fd5b156202ce2c57565b60405162461bcd60e51b8152602060048201526024808201527f5468652062616c616e6365206f662074686520746f6b656e206973206f766572604482015263666c6f7760e01b6064820152608490fd5b156202ce8557565b606460405162461bcd60e51b815260206004820152602060248201527f54686520746f6b656e20697320616c726561647920696e697469616c697a65646044820152fd5b60408101906202cede60c08351015162004c22565b51916202cf0060a06202cef5818451015162004c22565b519251015162004c46565b51936202cf15845183511462000ee962031533565b6202cf28845186511462000ee962031533565b60005b84518110156202cf84576202cf41818462004c79565b5190606482101562004c30576202cf7e9160018060a01b03865116600052600390811b0160205262000ef060406000205462007d3b838a62004c79565b6202cf2b565b5092919360005b83518110156202d0ae576202cfa1818462004c79565b51906064918281101562004c305760018060a01b03908189511660005260039081602091811b0181526202cfe060406000205462007da7868962004c79565b906202cfed868a62004c79565b51918783101562004c3057846202d01a93878f5116600052811b01845260406000205562000ee962031637565b6202d026848862004c79565b518581101562004c30578290846202d03f878c62004c79565b5116600052811b0181526202d05f6040600020546200685b868962004c79565b9190926202d06e868a62004c79565b519687101562004c30576202d0a89662000ef0956202d08e888d62004c79565b5116600052811b01905260406000205562000ee96203169c565b6202cf8b565b5050620111156202d0bf91620312cf565b90604051936202d0cf8562002a97565b60018552602036818701376001600160a01b036109608190529051166202d0f68562004c22565b526000935b81518510156202d417576202d111858362004c79565b51946202d11f845162004d95565b916000936202d12f825162004d95565b610920528496855b87518110156202d1d7576202d15e610960516202d155838b62004c79565b51168b620310b9565b15806202d1a0575b6202d17d575b6202d1779062004c12565b6202d137565b956202d1976202d17791610960516200a1478a8c62004c79565b9690506202d16c565b5060648a101562004c3057610960516202d1bb828a62004c79565b511660005260038a811b0160205260406000205415156202d166565b5097939290969491959760009860648610159560031b9860038a019a5b89518110156202d270578762004c3057610960516202d214828c62004c79565b51166000528b602052604060002054156202d23b575b6202d2359062004c12565b6202d1f4565b976202d2676202d235918b6202d2568c610960519262004c79565b511662001a9c826109205162004c79565b9890506202d22a565b50949591939650985096909596806109405262004c3057600401806109805254956202d2a1620080b6868962006271565b61090052600097886109a0525b6109405162004c30576109a051888110156202d34c576202d2dd6202d2f3916000610940526109805162004e91565b6109605191549060031b1c166109205162031166565b156202d312575b6202d3086109a05162004c12565b6109a0526202d2ae565b976202d345906202d32a6109a0516109805162004e91565b6109605191549060031b1c1662001a9c826109005162004c79565b976202d2fa565b5095939096509690969391936000915b8383106202d3e657505050506109405162004c305761090051516001600160401b038111620029ba576202d394816109805162004fcd565b60206109005101610980516000526020600020600061096051905b8481106202d3cf5750505050506202d3c79062004c12565b93926202d0fb565b60019060208386511695019481850155016202d3af565b6200824c6202d41091610960516202d3ff868662004c79565b511662001a9c826109005162004c79565b916202d35c565b5050509050565b60408101906202d43360c08351015162004c22565b51916202d44a60a06202cef5818451015162004c22565b51936202d45f845183511462000ee962031533565b6202d472845186511462000ee962031533565b60005b84518110156202d4ce576202d48b818462004c79565b5190606482101562004c30576202d4c89160018060a01b03865116600052600390811b0160205262000ef060406000205462007d3b838a62004c79565b6202d475565b5092919360005b83518110156202d5de576202d4eb818462004c79565b51906064918281101562004c305760018060a01b03908189511660005260039081602091811b0181526202d52a60406000205462007da7868962004c79565b906202d537868a62004c79565b51918783101562004c3057846202d56493878f5116600052811b01845260406000205562000ee962031637565b6202d570848862004c79565b518581101562004c30578290846202d589878c62004c79565b5116600052811b0181526202d5a96040600020546200685b868962004c79565b9190926202d5b8868a62004c79565b519687101562004c30576202d5d89662000ef0956202d08e888d62004c79565b6202d4d5565b5050620111156202d5ef91620312cf565b90604051936202d5ff8562002a97565b60018552602036818701376001600160a01b036109608190529051166202d6268562004c22565b526000935b81518510156202d417576202d641858362004c79565b51946202d64f845162004d95565b916000936202d65f825162004d95565b610940528496855b87518110156202d6fe576202d685610960516202d155838b62004c79565b15806202d6c7575b6202d6a4575b6202d69e9062004c12565b6202d667565b956202d6be6202d69e91610960516200a1478a8c62004c79565b9690506202d693565b5060648a101562004c3057610960516202d6e2828a62004c79565b511660005260038a811b0160205260406000205415156202d68d565b5097939290969491959760009860648610159560031b9860038a019a5b89518110156202d797578762004c3057610960516202d73b828c62004c79565b51166000528b602052604060002054156202d762575b6202d75c9062004c12565b6202d71b565b976202d78e6202d75c918b6202d77d8c610960519262004c79565b511662001a9c826109405162004c79565b9890506202d751565b50949591939650985096909596806109005262004c3057600401806109205254956202d7c8620080b6868962006271565b6109a05260009788610980525b6109005162004c305761098051888110156202d873576202d8046202d81a916000610900526109205162004e91565b6109605191549060031b1c166109405162031166565b156202d839575b6202d82f6109805162004c12565b610980526202d7d5565b976202d86c906202d851610980516109205162004e91565b6109605191549060031b1c1662001a9c826109a05162004c79565b976202d821565b5095939096509690969391936000915b8383106202d90d57505050506109005162004c30576109a051516001600160401b038111620029ba576202d8bb816109205162004fcd565b60206109a05101610920516000526020600020600061096051905b8481106202d8f65750505050506202d8ee9062004c12565b93926202d62b565b60019060208386511695019481850155016202d8d6565b6200824c6202d93791610960516202d926868662004c79565b511662001a9c826109a05162004c79565b916202d883565b60408101906202d95360c08351015162004c22565b51916202d96a60a06202cef5818451015162004c22565b51936202d97f845183511462000ee962031533565b6202d992845186511462000ee962031533565b60005b84518110156202d9ee576202d9ab818462004c79565b5190606482101562004c30576202d9e89160018060a01b03865116600052600390811b0160205262000ef060406000205462007d3b838a62004c79565b6202d995565b5092919360005b83518110156202dafe576202da0b818462004c79565b51906064918281101562004c305760018060a01b03908189511660005260039081602091811b0181526202da4a60406000205462007da7868962004c79565b906202da57868a62004c79565b51918783101562004c3057846202da8493878f5116600052811b01845260406000205562000ee962031637565b6202da90848862004c79565b518581101562004c30578290846202daa9878c62004c79565b5116600052811b0181526202dac96040600020546200685b868962004c79565b9190926202dad8868a62004c79565b519687101562004c30576202daf89662000ef0956202d08e888d62004c79565b6202d9f5565b5050620111156202db0f91620312cf565b90604051936202db1f8562002a97565b60018552602036818701376001600160a01b036109408190529051166202db468562004c22565b526000935b81518510156202d417576202db61858362004c79565b51946202db6f845162004d95565b916000936202db7f825162004d95565b6109a0528496855b87518110156202dc1e576202dba5610940516202d155838b62004c79565b15806202dbe7575b6202dbc4575b6202dbbe9062004c12565b6202db87565b956202dbde6202dbbe91610940516200a1478a8c62004c79565b9690506202dbb3565b5060648a101562004c3057610940516202dc02828a62004c79565b511660005260038a811b0160205260406000205415156202dbad565b5097939290969491959760009860648610159560031b9860038a019a5b89518110156202dca6578762004c3057610940516202dc5b828c62004c79565b51166000528b602052604060002054156202dc82575b6202dc7c9062004c12565b6202dc3b565b976202dc9d6202dc7c918b6202d9268c610940519262004c79565b9890506202dc71565b50949591939650985096909596806109005262004c3057600401806109205254956202dcd7620080b6868962006271565b6109805260009788610960525b6109005162004c305761096051888110156202dd82576202dd136202dd29916000610900526109205162004e91565b6109405191549060031b1c166109a05162031166565b156202dd48575b6202dd3e6109605162004c12565b610960526202dce4565b976202dd7b906202dd60610960516109205162004e91565b6109405191549060031b1c1662001a9c826109805162004c79565b976202dd30565b5095939096509690969391936000915b8383106202de1c57505050506109005162004c305761098051516001600160401b038111620029ba576202ddca816109205162004fcd565b60206109805101610920516000526020600020600061094051905b8481106202de055750505050506202ddfd9062004c12565b93926202db4b565b60019060208386511695019481850155016202dde5565b6200824c6202de4691610940516202de35868662004c79565b511662001a9c826109805162004c79565b916202dd92565b610324805482101562004c30576000526007602060002091020190600090565b815180519192916001600160401b038111620029ba576202de8f818562004fcd565b6020809201846000528260002060005b8381106202df06575050505060c08260069262002b5a95940151600185015560408101516002850155606081015160038501556202dee760808201511515600486016200572c565b6202defa60a08201516005860162005659565b0151151591016200572c565b825182820155918401916001016202de9f565b6103248054600160401b811015620029ba576202df3c916001820190556202de4d565b91909162005c965762002b5a916202de6d565b610394908154600160401b811015620029ba576001810180845581101562004c305762002b5a9260005260206000200162005659565b62006a176202df94916200754a565b610738805480600052610736908160205260ff60096040600020015460081c166203067d57610733600160ff19825416179055600052602052600960406000200161010061ff0019825416179055546000526202dff5604060002062003634565b9060008061032a54905b81811062030636575b5050156203061a575b60005b60208301519081518110156202e04c5762000ef06200771662010ea3620076f66020620067ee866202e0469862004c79565b6202e014565b505060005b602083015180518210156202e09957620076f66020620067ee846202e0769462004c79565b90606482101562004c30576202e09391429061032b015562004c12565b6202e051565b50506000905b602083015180518310156200a59257826202e0ba9162004c79565b51602081015160268110156200294257156200a54f576020810151602681101562002942576001036202e2c657604001906202e0fb60c08351015162004c22565b51936202e11260a0620077f0818651015162004c22565b51916202e12386518551146202cca5565b6202e13286518451146202cd0b565b60005b86518110156202e254576202e14b818662004c79565b51606481101562004c3057600160ff60076202e1709360031b0154161515146202cd6d565b6202e17c818562004c79565b516202e189828762004c79565b5190606482101562004c30576202e1aa906006809360031b0154906200606a565b6202e1b6848962004c79565b5192606484101562004c30576202e1d29360031b01556202cdc5565b6202e1de818562004c79565b516202e1eb828762004c79565b5190606482101562004c30576202e213916003906001600160a01b0362011091868d62004c79565b91906202e221828862004c79565b5190606482101562004c30576202e24e9362000ef0926003906001600160a01b03620110e4878f62004c79565b6202e135565b5094915091620111156202e26891620312cf565b93604051926202e2788462002a5e565b60008452600036813760005b83518110156202e2a9578062000ef0620079b66202e2a3938762004c79565b6202e284565b50945092602092506202e2bd915062004c12565b9190506202e09f565b602081949293940151602681101562002942576002036202e558576040018051928351906202e2fe62007a1660a08097015162004c22565b519382518651036202e5035782518451036202e4ad5782518551036202e4545760005b86518110156202e43e576202e337818862004c79565b51606481101562004c305760ff60076202e3589260031b015416156202ce7d565b6202e364818862004c79565b51606481101562004c305760031b600701805460ff191660011790556202e38c818562004c79565b516202e399828962004c79565b5190606482101562004c305760056202e3b69260031b0162005659565b6202e3c2818662004c79565b516202e3cf828962004c79565b51606481101562004c305760031b600101556202e3ed818762004c79565b516202e3fa828962004c79565b51606481101562004c305760031b600201556202e418818862004c79565b5190606482101562004c3057600060066202e4389360031b015562004c12565b6202e321565b509591509350602092506202e2bd915062004c12565b60405162461bcd60e51b815260206004820152603c602482015260008051602062031b8883398151915260448201527b1b911a5d9a59195b9915d95a59da1d081a5cc81b9bdd08195c5d585b60221b6064820152608490fd5b60405162461bcd60e51b8152602060048201526039602482015260008051602062031b888339815191526044820152781b959bdd1a5b99d41bddd95c881a5cc81b9bdd08195c5d585b603a1b6064820152608490fd5b60405162461bcd60e51b8152602060048201526038602482015260008051602062031b888339815191526044820152771b925b99195e105c9c985e481a5cc81b9bdd08195c5d585b60421b6064820152608490fd5b92916020840151602681101562002942576003036202eb64576202e58460c06040860151015162004c22565b5160a0916202e5ad6202e59e846040890151015162004c22565b51936040880151015162004c46565b51936202e5c2835185511462000ee962031533565b6202e5d5835186511462000ee962031533565b60005b83518110156202e630576202e5ee818662004c79565b5190606482101562004c305760036202e62a9260018060a01b038b5116600052811b0160205262000ef060406000205462007d3b838a62004c79565b6202e5d8565b509095919560005b87518110156202e757576202e64e818662004c79565b51606481101562004c305760039060018060a01b03865116600052811b016020526202e68560406000205462007da7838962004c79565b906202e692838862004c79565b5191606483101562004c305760036202e6c89360018060a01b03895116600052811b0160205260406000205562000ee962031637565b6202e6d4818662004c79565b51606481101562004c30576003906001600160a01b036202e6f6848c62004c79565b5116600052811b016020526202e7176040600020546200685b838962004c79565b91906202e725828862004c79565b5190606482101562004c30576202e75193600362000ef0938d62007e608760018060a01b039262004c79565b6202e638565b50926202e76f919294506200bb4e90969596620312cf565b92604051906202e77f8262002a97565b6001825260203681840137516001600160a01b03166202e79f8262004c22565b526000945b80518610156202eb50576202e7ba868262004c79565b516108e0526202e7cb855162004d95565b966000946202e7db845162004d95565b6108c05260009460005b88518110156202e8aa578a896202e8156001600160a01b036202e809858462004c79565b51166108e051620310b9565b15806202e865575b6202e836575b50506202e8309062004c12565b6202e7e5565b986202e85a9162001a9c82859c62007f886202e8309760018060a01b039262004c79565b9790508a896202e823565b50505060646108e051101562004c30576001600160a01b036202e889828b62004c79565b511660005260036108e051811b016020528a8960406000205415156202e81d565b50909895979498969291939660005b88518110156202e94c5760646108e051101562004c30576001600160a01b036202e8e4828b62004c79565b511660005260036108e051811b01602052604060002054156202e913575b6202e90d9062004c12565b6202e8b9565b996202e90d906202e943906001600160a01b036202e9328e8d62004c79565b511662001a9c826108c05162004c79565b9a90506202e902565b509850969592919093966108e0516064811015806108805262004c305760031b60040154986202e981620080b6898c62006271565b6108a0526000610860526000610840525b6108805162004c3057610840518a8110156202ea5b576202e9c76202e9e49160006108805260046108e05160031b0162004e91565b90546108c05160039290921b1c6001600160a01b03169062031166565b156202ea03575b6202e9f96108405162004c12565b610840526202e992565b6000610880526202ea216108405160046108e05160031b0162004e91565b60018060a01b0391549060031b1c166202ea42610860516108a05162004c79565b526202ea516108605162004c12565b610860526202e9eb565b50979294959093985095909560005b8281106202eb04575050506108805162004c30576108a051516001600160401b038111620029ba576202eaa78160046108e05160031b0162004fcd565b60206108a0510160046108e05160031b01600052602060002060005b8381106202eae657505050506202eada9062004c12565b9492959091956202e7a4565b82516001600160a01b0316818301556020909201916001016202eac3565b6202eb4a906001600160a01b036202eb1d828562004c79565b51166202eb31610860516108a05162004c79565b526202eb406108605162004c12565b6108605262004c12565b6202ea6a565b5050936202e2bd9193506020925062004c12565b90926020810151602681101562002942576004036202ed975760400160c0936202eb966200bf71868451015162004c22565b51906202ebad60a0620077f0818651015162004c22565b51936202ebc2875184511462000ee962031533565b6202ebd5875185511462000ee962031533565b6202ebe8875186511462000ee962031533565b60005b87518110156202ec2f576202ec01818662004c79565b5190606482101562004c30576202ec29916003906001600160a01b036201141a848d62004c79565b6202ebeb565b509095919593929360005b83518110156202ed54576202ec50818762004c79565b51606481101562004c30576003906001600160a01b036202ec72848862004c79565b5116600052811b016020526202ec9360406000205462007da7838862004c79565b906202eca0838962004c79565b5191606483101562004c30576202ecc8926003906001600160a01b03620114da878b62004c79565b6202ecd4818762004c79565b51606481101562004c30576003906001600160a01b036202ecf6848c62004c79565b5116600052811b016020526202ed176040600020546200685b838862004c79565b9190506202ed26818862004c79565b5191606483101562004c30576202ed4e926003906001600160a01b036201157b858e62004c79565b6202ec3a565b50936202ed6e9192969350620084c562007e9891620312cf565b9260005b83518110156202e2a9578062000ef0620079b66202ed91938762004c79565b6202ed72565b926020840151602681101562002942576005036202ef525760408401906202edc960a06200852e818551015162004c22565b519282518451036200cab85760005b83518110156202ee30576202edee818562004c79565b5190606482101562004c305760036202ee2a9260018060a01b038a5116600052811b0160205262000ef060406000205462007d3b838962004c79565b6202edd8565b509060005b83518110156202eed1576202ee4b818562004c79565b51606481101562004c305760039060018060a01b03895116600052811b016020526202ee8260406000205462007da7838862004c79565b91906202ee90828762004c79565b5190606482101562004c30576202eecb93600362000ef09360018060a01b038d5116600052811b0160205260406000205562000ee962031637565b6202ee35565b50949250906202eee190620312cf565b90604051926202eef18462002a97565b6001845260203681860137516001600160a01b03166202ef118462004c22565b52604051946202ef218662002a5e565b60008652600036813760005b83518110156202e2a9578062000ef0620079b66202ef4c938762004c79565b6202ef2d565b926020810151602681101562002942576006036202f0e6576040016202ef7d60c08251015162004c22565b51936202ef9460a06200852e818551015162004c22565b519285518351036200d09b5785518451036200d04e5760005b86518110156202eff1576202efc3818562004c79565b5190606482101562004c30576202efeb916003906001600160a01b036201183d848c62004c79565b6202efad565b509060005b86518110156202f090576202f00c818562004c79565b51606481101562004c30576003906001600160a01b036202f02e848b62004c79565b5116600052811b016020526202f04f60406000205462007da7838862004c79565b91906202f05d828762004c79565b5190606482101562004c30576202f08a9362000ef0926003906001600160a01b03620114da878f62004c79565b6202eff6565b5094916202f0a59193506201111590620312cf565b91604051946202f0b58662002a5e565b60008652600036813760005b83518110156202e2a9578062000ef0620079b66202f0e0938762004c79565b6202f0c1565b6020810151602681101562002942576007036202f16c57604001926202f11160c08551015162004c22565b51916202f12360a08651015162004c22565b51945151916202f13b845187511462000ee962031533565b60005b84518110156202e2a9576202f1669062000ef06001600160a01b0380620119d9848a62004c79565b6202f13e565b6020819493940151602681101562002942576008036202f1da5760c060406202f199920151015162004c22565b519160005b83518110156202f1c8576202f1c2906001600160a01b038062011ac1838862004c79565b6202f19e565b509260209192506202e2bd9062004c12565b6020810151602681101562002942576009036202f2335760c060406202f204920151015162004c22565b519160005b83518110156202f1c8576202f22d906001600160a01b038062011b55838862004c79565b6202f209565b602081015160268110156200294257600a036202f2b957604001906202f26460a06200d48660c08551015162004c22565b51926202f279835185511462000ee962031533565b60005b83518110156202f2a6576202f2a0906001600160a01b038062011bf1838862004c79565b6202f27c565b50936202e2bd9193506020925062004c12565b60208194939294015160268110156200294257600b036202f34457604001926202f2e860c08551015162004c22565b51935151916202f300855184511462000ee962031533565b60005b85518110156202f331576202f32b9062000ef06001600160a01b038062011ca4848b62004c79565b6202f303565b50935091602091506202e2bd9062004c12565b909192602082015160268110156200294257600c036202f47757606060408301510151926202f373846202c2eb565b60005b84518110156202f2a65760e06202f3968260606040880151015162004c79565b510151156202f40e576202f3b762008ea78260606040880151015162004c79565b610322805460001992919083810190811162001de8576202f3da60059162005c20565b500161010061ff00198254161790555491828181011162001de85762008efb6005916202f408940162005c20565b6202f376565b6202f42662008f258260606040880151015162004c79565b610322805460001992919083810190811162001de8576202f44960059162005be0565b500161010061ff00198254161790555491828181011162001de85762008efb6005916202f408940162005be0565b929190602081015160268110156200294257600d036202f4e0576040019260206202f4a760a08651015162004c22565b5194510151916202f4bc85518451146202c9e4565b60005b85518110156202f331578062011e856202f4da928662004c79565b6202f4bf565b602081949294015160268110156200294257600e036202f549576040019060206202f51060a08451015162004c22565b5192510151936202f52583518651146202c9e4565b60005b83518110156202f331578062011f996202f543928862004c79565b6202f528565b90602082949394015160268110156200294257600f036202f67d57606060408301510151926202f579846202c2eb565b60005b84518110156202f2a65760e06202f59c8260606040880151015162004c79565b510151156202f614576202f5bd62008ea78260606040880151015162004c79565b610322805460001992919083810190811162001de8576202f5e060059162005c20565b500161010061ff00198254161790555491828181011162001de857620090736005916202f60e940162005c20565b6202f57c565b6202f62c62008f258260606040880151015162004c79565b610322805460001992919083810190811162001de8576202f64f60059162005be0565b500161010061ff00198254161790555491828181011162001de857620090736005916202f60e940162005be0565b906020819493940151602681101562002942576010036202f6ee5760400151906202f6b160a0608084015193015162004c22565b51936202f6c6835186511462000ee962031533565b60005b83518110156202f331578062000ef06200935a6202f6e8938762004c79565b6202f6c9565b6020819492940151602681101562002942576011036202f90757604001906202f72260a06200d48660c08551015162004c22565b51936202f73383518651146202c163565b60005b83518110156202f764576202f75e9062000ef06001600160a01b03806201221c848962004c79565b6202f736565b509350906202f77390620311b3565b9061032654936202f78a620080b684518762006271565b9060009260005b8781106202f8ec575060005b85518110156202f844576000805b8981106202f7f5575b50156202f7cd575b6202f7c79062004c12565b6202f79d565b936202f7c7906202f7ec906001600160a01b036200ddb1888a62004c79565b9490506202f7bc565b6202f8008162004de9565b90546001600160a01b0360039290921b1c8116906202f820858b62004c79565b5116146202f839576202f8339062004c12565b6202f7ab565b50506001386202f7b4565b5095509392506202f8558262004d95565b8051906001600160401b038211620029ba576020906202f8758362004f2a565b01610326600052602060002060005b8381106202f8ce575050505060005b8281106202f8ab575050506202e2bd60209162004c12565b6202f8c89062000ef06001600160a01b03620019d0838662004c79565b6202f893565b82516001600160a01b0316818301556020909201916001016202f884565b936200defd6202f901916200dedf8762004de9565b6202f791565b6020819492940151602681101562002942576012036202fb2a57604001906202f93b60a06200d48660c08551015162004c22565b51936202f94c83518651146202c163565b60005b83518110156202f97d576202f9779062000ef06001600160a01b03806201247e848962004c79565b6202f94f565b50935091906202f98d90620311b3565b610326546202f99c8162004d95565b906000926000915b8083106202fa51575050506202f9ba8262004d95565b8051906001600160401b038211620029ba576020906202f9da8362004f2a565b01610326600052602060002060005b8381106202fa33575050505060005b8281106202fa10575050506202e2bd60209162004c12565b6202fa2d9062000ef06001600160a01b03620019d0838662004c79565b6202f9f8565b82516001600160a01b0316818301556020909201916001016202f9e9565b91956000959193959760005b85518110156202fb1b576202fa728962004de9565b90546001600160a01b0360039290921b1c8116906202fa92838962004c79565b5116146202faab576202faa59062004c12565b6202fa5d565b509750956001959391955b806202faea575b156202fad5576202face9062004c12565b916202f9a4565b936200defd6202face916200dedf8762004de9565b506202faf68162004de9565b60018060a01b0391549060031b1c16600052610325602052604060002054156202fabd565b5097969096959391956202fab6565b6020810151602681101562002942576013036202fb835760408091015101519260005b84518110156202fb72578062000ef0620098ce6202fb6c938862004c79565b6202fb4d565b509250906202e2bd60209162004c12565b6020810151602681101562002942576014036202fd2c57604001906202fbae60c08351015162004c22565b51936202fbc560a0620077f0818651015162004c22565b51916202fbd686518551146202cca5565b6202fbe586518451146202cd0b565b60005b86518110156202fcd7576202fbfe818562004c79565b516202fc0b828762004c79565b5190606482101562004c305760066202fc2a9260031b0154906200606a565b906202fc37838862004c79565b5191606483101562004c305760066202fc559360031b01556202cdc5565b6202fc61818562004c79565b516202fc6e828762004c79565b5190606482101562004c30576202fc96916003906001600160a01b0362011091868d62004c79565b91906202fca4828862004c79565b5190606482101562004c30576202fcd19362000ef0926003906001600160a01b03620110e4878f62004c79565b6202fbe8565b5094915091620111156202fceb91620312cf565b93604051926202fcfb8462002a5e565b60008452600036813760005b83518110156202e2a9578062000ef0620079b66202fd26938762004c79565b6202fd07565b6020810151602681101562002942576015036202fd56576020919262000ef06202e2bd926202d93e565b6020810151602681101562002942576016036202fdb25760c060406202fd80920151015162004c22565b519260005b84518110156202fb72576202fdac9062000ef06001600160a01b0362009b14838962004c79565b6202fd85565b6020810151602681101562002942576017036202fe0f5760405162461bcd60e51b8152602060048201526029602482015260008051602062031d688339815191526044820152683632b6b2b73a32b21760b91b6064820152608490fd5b6020810151602681101562002942576018036202fe795760c060406202fe39920151015162004c22565b51610396805460ff191660011790559260005b84518110156202fb72576202fe739062000ef06001600160a01b0362009be0838962004c79565b6202fe4c565b6020819392930151602681101562002942576019036202ff605760008091604082910160a0808251015180516202ff27575b5050519060e0820151916202fecf6200685460c060018060a01b0393015162004c22565b511690602083519301915af13d156202ff1e573d906202feef8262002e73565b916202feff604051938462002ab3565b82523d6000602084013e5b1562012a4857506202e2bd60209162004c12565b6060906202ff0a565b6202ff329062004c22565b51516202ff41575b806202feab565b81925062006854906202ff579251015162004c22565b5190386202ff3a565b602081015160268110156200294257601a036202ffe25760a060406202ff8a920151015162004c22565b516202ff9a60038251146202c163565b6202ffa58162004c22565b51916202ffb662012b6e8362004c46565b51916200f053576020926202e2bd9260010362009e215762009e019062009df46103919182546200606a565b602081015160268110156200294257601b03620303cb575091906203001261038f54620061b062009e97620313c0565b50506203001e62031484565b506000805b606481106203037f575b5050620300396200618c565b90620300486107345462004d95565b906000946000905b606482101562030373578160031b9260ff600785015416156203015b5760009660028501541562030142576000975b62004c3057600485015488101562030142576203013b62030134899a620300ae620300e59b60048a0162004e91565b60018060a01b0391549060031b1c168060005260038901602052620300d98b60406000205462005ebb565b9c9062000ee962031484565b620301286203010c6203010060009e60028d01549062005ebb565b919062000ee962031484565b8260005261032760205262009df460406000209182546200606a565b62001a9c828b62004c79565b9962004c12565b976203007f565b929093506203015391965062004c12565b909462030050565b95969392509350505b6203016f8262004d95565b9160009160005b828110620302dd57505050610328549162030196620080b6848462006271565b926000906000905b808210620302c057505060005b8381106203022a5750508251929150506001600160401b038211620029ba57602090620301d88362004eef565b01610328600052602060002060005b8381106203020c57505050506202e2bd60209160006103915560006103925562004c12565b82516001600160a01b031681830155602090920191600101620301e7565b6000805b83811062030278575b501562030250575b6203024a9062004c12565b620301ab565b906203024a906203026f906001600160a01b036200823e858762004c79565b9190506203023f565b6001600160a01b03806203028d858862004c79565b5116906203029c838a62004c79565b511614620302b557620302af9062004c12565b6203022e565b505060013862030237565b90916200824c620302d691620098248562004dcd565b906203019e565b6000805b8581106203032b575b501562030303575b620302fd9062004c12565b62030176565b92620302fd9062030322906001600160a01b036200823e878662004c79565b939050620302f2565b6001600160a01b038062030340858762004c79565b5116906203034f838a62004c79565b5116146203036857620303629062004c12565b620302e1565b5050600138620302ea565b93505092939062030164565b8060039594951b9060ff60078301541615620303c1576200a2d4620074b662000ef0946200a2c8620303b89560026200a2be8762005d82565b93929362030023565b509392936203002d565b602081015160268110156200294257601c03620304285760405162461bcd60e51b8152602060048201526029602482015260008051602062031e488339815191526044820152683632b6b2b73a32b21760b91b6064820152608490fd5b602081015160268110156200294257601d036203044e575b506202e2bd60209162004c12565b602081015160268110156200294257601e146203044057602081015160268110156200294257601f036203049f57602091620304976200a3b960406202e2bd9401515162004c22565b915062030440565b602081015160268110156200294257602003620304c5575b506202e2bd60209162030497565b6020810151602681101562002942576021809103620304e6575b50620304b7565b602082015160268110156200a53a57602203620305225750506202e2bd60209161039660ff1981541690556203051b62004fba565b91620304df565b602082015160268110156200a53a5760230362030549575b50506202e2bd6020916203051b565b6020820151906026821015620137aa5760248092036203056b575b506203053a565b60208301516026811015620306075760251462030564576020830151906026821015620305f35750601503620305b65750602091620305ae6202e2bd926202d93e565b913862030564565b60649060166040519162461bcd60e51b83526020600484015282015275496e76616c6964206f7065726174696f6e207479706560501b6044820152fd5b9050634e487b7160e01b6000526004526000fd5b50634e487b7160e01b6000526004526000fd5b815162030630906001600160a01b031662006647565b6202e011565b620306418162004e3d565b9054865160039290921b1c6001600160a01b0390811691161462030670576203066a9062004c12565b6202dfff565b505050600138806202e008565b60405162461bcd60e51b815260206004820152604860248201527f5468652070656e64696e672070726f6772616d20686173206265656e2065786560448201527f63757465642c20616e642073686f756c64206e6f742062652065786563757465606482015267321030b3b0b4b71760c11b608482015260a490fd5b908062030704575050565b62002b5a91600052601f6020600020910160051c81019062004ed6565b90600160401b8111620029ba5781548183558082106203074057505050565b62002b5a92600052601f6020600020918180850160051c84019416806203076f575b500160051c019062004ed6565b600019908186019182549160200360031b1c1690553862030762565b9060ff809160031b9316831b921b19161790565b919091620307ba620307b36000946202de4d565b5062003495565b91835b83518051821015620308ac5781620307d59162004c79565b516064908181101562004c3057600390811b9660018060a01b038616600052602091880182526203081360409860018a600020549101549062005ebb565b91901562030879579062030827916200606a565b97901562030843575050506203083d9062004c12565b620307bd565b519062461bcd60e51b825260048201526014602482015273746f74616c20706f776572206f766572666c6f7760601b6044820152fd5b505086519062461bcd60e51b82526004820152600e60248201526d706f776572206f766572666c6f7760901b6044820152fd5b509092505050565b60005b61073854908160005261073691602092808452600393604092858460002001805486101562030a1557620308f086620308fc9262004e91565b905490881b1c6202de4d565b509560ff6006809801541662030924575b50505050506203091e915062004c12565b620308b7565b816000528383526203094c620309408783886000200162004e91565b905490831b1c6202de4d565b50966203096c876001809a01549285600052878752886000200162004e91565b905490831b1c91836000528585526203098c886005896000200162004e91565b9054911b1c9060009260649283810293818504149015171562030a015790620309b59162004eaa565b10620309f9575b620309c857806203090d565b6009945060005252600020019060ff1991818382541617905561073391825416179055600061073155600061073255565b5085620309bc565b634e487b7160e01b84526011600452602484fd5b50505050505050600061073854905b81600052610736602052600380604060002001805483101562030a9a57600662030a6162030a558560ff9462004e91565b905490851b1c6202de4d565b500154161562030a955762030a768262030caa565b908110156200294257620105035762030a8f9062004c12565b62030a24565b505050565b50505060ff19906107336003838254161790556000526107366020526009604060002001908154169055565b6107385490600090828252610736916020928084526003906040908282852001549562030af38762002b80565b9662030b028451988962002ab3565b80885262030b13601f199162002b80565b013682890137845b88865282825284848720015481101562030b64579062030b598262000ef062030b478897969562030caa565b62030b53838d62004c79565b6200520e565b909192935062030b1b565b5050505090919350815b835181101562030bdb5762030b84818562004c79565b518281101562030bc757600180911462030baa575062030ba49062004c12565b62030b6e565b610733805460ff1916909117905550506107318190556107325550565b634e487b7160e01b84526021600452602484fd5b509091506107328054421060001462030c0257506107339060ff1982541617905561073155565b9050610733600160ff19825416179055816107315555565b1562030c2257565b60405162461bcd60e51b815260206004820152601e60248201527f766f74696e672072756c6520696e646578206f7574206f662072616e676500006044820152606490fd5b1562030c6f57565b60405162461bcd60e51b815260206004820152601360248201527263757272656e74596573206f766572666c6f7760681b6044820152606490fd5b61073854906000918083526107368060205282604085206003019062030cd09162004e91565b90549060031b1c62030ce2816202de4d565b5060010154938386528260205280604087206004019062030d039162004e91565b90549060031b1c928487528060205281604088206005019062030d269162004e91565b90549060031b1c948752602052604086206006019062030d469162004e91565b90549060031b1c9062030d59906202de4d565b506006015460ff1662030da5575062030d959262005da862021a9f938362030d8562030d8d9562005e85565b969062030c67565b929062030c67565b111562030d9f5790565b50600190565b6200f136925062030d959362030dbf62030d8d9362005e85565b949062030c67565b9092919262030dd7825162004d95565b60009162030de6815162004d95565b8390845b865181101562030e80576001600160a01b0362030e0d816202d155848b62004c79565b158062030e4c575b62030e2d575b5062030e279062004c12565b62030dea565b819662030e44916200823e62030e27948b62004c79565b959062030e1b565b5060648a101562004c30578062030e64838a62004c79565b511660005260038a811b01602052604060002054151562030e15565b509295919694509260005b875181101562030f0057606486101562004c30576001600160a01b038062030eb4838b62004c79565b5116600052600387811b016020526040600020541562030ee1575b5062030edb9062004c12565b62030e8b565b819562030ef8916200ddb162030edb948c62004c79565b949062030ecf565b5092509450926064831015938462004c305760049586600395861b019687549462030f30620080b6828862006271565b9460009689889a5b620310a457818b101562030fd957506000998b62030f7362030f5b838362004e91565b90546001600160a01b0392918e1b1c82168a62031166565b1562030f96575b50509062030f8b8b94939262004c12565b9a9091929362030f38565b91998c95949392909162030fac908c9062004e91565b9054908d1b1c1662030fbf828b62004c79565b5262030fcb9062004c12565b9890919293508b3862030f7a565b9697949a98505091975092506000915b8383106203107f57505050506203106a578051926001600160401b03841162031055575062031019838362004fcd565b602080910191600052806000209060005b84811062031039575050505050565b83516001600160a01b031683820155928101926001016203102a565b604190634e487b7160e01b6000525260246000fd5b603283634e487b7160e01b6000525260246000fd5b6203109d906200824c906001600160a01b036200a147868662004c79565b9162030fe9565b603285634e487b7160e01b6000525260246000fd5b9060005b606483101562004c30576003600484821b01805483101562015fff5782620310e59162004e91565b9054911b1c6001600160a01b03908116908316146200662557620311099062004c12565b620310bd565b9060005b606483101562004c3057600361039c84821b01805483101562015fff57826203113c9162004e91565b9054911b1c6001600160a01b03908116908316146200662557620311609062004c12565b62031113565b9060005b825181101562006638576001600160a01b038062031189838662004c79565b51169083161462006625576203119f9062004c12565b6203116a565b801562001de8576000190190565b9081519060005b60001983810184811162001de85782101562031281576001820180831162001de8575b848110620311f8575050620311f29062004c12565b620311ba565b6001600160a01b03806203120d858962004c79565b5116816203121c848a62004c79565b51161462031237575b50620312319062004c12565b620311dd565b828692960182811162001de85762031231926203127a926203125e62031273938b62004c79565b51166203126c898b62004c79565b52620311a5565b95620311a5565b9062031225565b5050906203128f8162004d95565b9060005b818110620312a2575090925050565b620312c9906001600160a01b03620312bb828862004c79565b511662001a9c828662004c79565b62031293565b80519160005b60001984810185811162001de85782101562031387576001820180831162001de8575b858110620313135750506203130d9062004c12565b620312d5565b6203131f838662004c79565b516203132c828762004c79565b511462031345575b6203133f9062004c12565b620312f8565b948181019080821162001de857620313786203137f916203136b6203133f948962004c79565b516203126c8a8a62004c79565b96620311a5565b905062031334565b50509091620313968162004d95565b9060005b818110620313a9575090925050565b806202a11a620313ba928762004c79565b6203139a565b604051620313ce816200299e565b604481527f496e76616c6964206469766964656e64207065726d797269616420706572207460208201527f72616e73616374696f6e2e2053686f756c64206265206c657373207468616e206040820152630313030360e41b606082015290565b6040516203143c8162002a26565b603281527f4e6f20656e6f756768206e756d626572206f66207472616e73616374696f6e7360208201527108199bdc88191a5d9a59195b991cc81e595d60721b604082015290565b604051620314928162002a97565b601c81527b6469766964656e6473206f7065726174696f6e206f766572666c6f7760201b602082015290565b604051620314cc8162002a97565b600d81526c2ab735b737bbb71022b93937b960991b602082015290565b604051620314f78162002a26565b602681527f4572726f7220696e20776974686472617761626c6520636173682063616c63756020820152653630ba34b7b760d11b604082015290565b604051620315418162002a97565b6012815271496e76616c696420506172616d657465727360701b602082015290565b604051620315718162002a97565b601581527413595b58995c88191bd95cc81b9bdd08195e1a5cdd605a1b602082015290565b604051620315a48162002a97565b601781527613595b58995c881a5cc81b9bdd081cdd5cdc195b991959604a1b602082015290565b604051620315d98162002a97565b601b81527a13595b58995c881a5cc8185b1c9958591e481cdd5cdc195b991959602a1b602082015290565b604051620316128162002a97565b60158152744d656d62657220616c72656164792065786973747360581b602082015290565b604051620316458162002a97565b60118152704e6f20656e6f7567682062616c616e636560781b602082015290565b604051620316748162002a97565b6018815277125b9d985b1a59081c185c985b595d195c881d1bc81cd95d60421b602082015290565b604051620316aa8162002a97565b6015815274546f6b656e20616d6f756e74206f766572666c6f7760581b602082015290565b60268110156200294257801562007507576001811462030d9f5760028114620319025760038114620318fc5760048114620318f65760058114620318f05760068114620318ea5760078114620318e45760088114620318de5760098114620318d857600a8114620318d257600b8114620318cc57600c8114620318c657600d8114620318c057600e8114620318ba57600f8114620318b45760108114620318ae5760118114620318a85760128114620318a257601381146203189c57601481146203189657601581146203189057601681146203188a57601781146203188457601881146203187e57601981146203187857601a81146203187257601b81146203186c57601c81146203186657601d81146203186057601e81146203185a57601f81146203185457602081146203184e57602181146203184857602281146203184257602381146203183c576024811462031836576025146203183157600090565b602590565b50602490565b50602390565b50602290565b50602190565b50602090565b50601f90565b50601e90565b50601d90565b50601c90565b50601b90565b50601a90565b50601990565b50601890565b50601790565b50601690565b50601590565b50601490565b50601390565b50601290565b50601190565b50601090565b50600f90565b50600e90565b50600d90565b50600c90565b50600b90565b50600a90565b50600990565b50600890565b50600790565b50600690565b50600590565b50600490565b50600390565b50600290565b9081518151036200664057600090815b8351811015620166ee576001600160f81b03198062031938838762006577565b51169062031947838562006577565b511603620166e7576203195a9062004c12565b62031918565b604051906203196f8262002a26565b60288252604036602084013760005b601481106203198c57505090565b60139080820391821162001de857600382901b916001600160fd1b0381160362001de85760ff80831162001de857600192620319d59084901b6001600160a01b03861662005007565b60f081168282160391821162001de857620319f99060f41b600f60f81b1662031a62565b82841b916001600160ff1b038416840362001de85762031a369160001a62031a22848962006577565b5360f81b6001600160f81b03191662031a62565b92810180911162001de85762031a5562031a5c9360001a918662006577565b5362004c12565b6203197e565b60f81c600a81101562031a8b5760300160ff811162001de85760f81b6001600160f81b03191690565b60570160ff811162001de85760f81b6001600160f81b0319169056fe546865206c656e677468206f662061646472657373657320616e6420746f6b65a4039f5a7be218ee4582681830797ad3adb3fc42221d510b404c1c20513cd5f9305d206c656e677468206973206e6f7420320000000000000000000000000000546865206c656e677468206f6620746f6b656e436c61737320616e6420746f6b617665203120656c656d656e74000000000000000000000000000000000000007420686176652074776f20656c656d656e747300000000000000000000000000f8c51ad45ec8504cc31b470490eebc0390b72c6fe329b047b8c5d2eaf5faf707546865206c656e677468206f6620746f6b656e496e666f20616e6420746f6b656e20746865206c656e677468206f6620746f6b656e4c697374000000000000006c656e677468206973206e6f7420657175616c20746f207072696365206c69735d206c656e677468206973206e6f7420310000000000000000000000000000006506a45eb4eaa8543dde316bec7c09b25ef1e87a59a8ef880021210a26a5aa39742068617665206f6e6520656c656d656e74000000000000000000000000000020706c7567696e207769746820696e6465782000000000000000000000000000656e677468206973206e6f7420310000000000000000000000000000000000005468652063616c6c20746f2074686520636f6e7472616374206973206e6f7420afaf75ed05c3fa878ca2fef6bc901427ab4ca9c5028b0bbe72a546312bd924aa2e55494e543235365f324441525241595b305d5b305d29206973206f7574206f2e55494e543235365f324441525241595b305d5b695d29206973206f7574206f742068617665203220656c656d656e7473000000000000000000000000000000546865206265666f7265206f7065726174696f6e20706c7567696e20737973745d206c656e677468206973206e6f7420320000000000000000000000000000005265736572766564206f70636f6465206964203233206973206e6f7420696d706c656e677468206973206e6f74203100000000000000000000000000000000005d206c656e677468206973206e6f742067726561746572207468616e20310000617665206f6e6520656c656d656e740000000000000000000000000000000000742068617665203120656c656d656e7400000000000000000000000000000000746f6b656e206c6576656c205829206d757374206265206c657373207468616e28746f6b656e206c6576656c205829206d757374206265206c657373207468615265736572766564206f70636f6465206964203238206973206e6f7420696d70546865206c656e677468206f662061646472657373657320616e6420616d6f75a26469706673582212201b9fa0280c35b6e081eb1f2914678c611bc8026b085956491408d50c5865193d64736f6c63430008130033",
  "linkReferences": {},
  "deployedLinkReferences": {}
}