{
    "_format": "hh-sol-artifact-1",
    "contractName": "DARC",
    "sourceName": "contracts/protocol/DARC.sol",
    "abi": [
        {
            "inputs": [
                {
                    "internalType": "uint256",
                    "name": "idx",
                    "type": "uint256"
                }
            ],
            "name": "checkVotingResult",
            "outputs": [
                {
                    "internalType": "enum VotingStatus",
                    "name": "",
                    "type": "uint8"
                }
            ],
            "stateMutability": "view",
            "type": "function"
        },
        {
            "inputs": [],
            "name": "checkVotingResults",
            "outputs": [
                {
                    "internalType": "enum VotingStatus[]",
                    "name": "",
                    "type": "uint8[]"
                }
            ],
            "stateMutability": "view",
            "type": "function"
        },
        {
            "inputs": [],
            "name": "currentVotingEndTime",
            "outputs": [
                {
                    "internalType": "uint256",
                    "name": "",
                    "type": "uint256"
                }
            ],
            "stateMutability": "view",
            "type": "function"
        },
        {
            "inputs": [
                {
                    "components": [
                        {
                            "internalType": "address",
                            "name": "programOperatorAddress",
                            "type": "address"
                        },
                        {
                            "components": [
                                {
                                    "internalType": "address",
                                    "name": "operatorAddress",
                                    "type": "address"
                                },
                                {
                                    "internalType": "enum EnumOpcode",
                                    "name": "opcode",
                                    "type": "uint8"
                                },
                                {
                                    "components": [
                                        {
                                            "internalType": "uint256[]",
                                            "name": "UINT256_ARRAY",
                                            "type": "uint256[]"
                                        },
                                        {
                                            "internalType": "address[]",
                                            "name": "ADDRESS_ARRAY",
                                            "type": "address[]"
                                        },
                                        {
                                            "internalType": "string[]",
                                            "name": "STRING_ARRAY",
                                            "type": "string[]"
                                        },
                                        {
                                            "internalType": "bool[]",
                                            "name": "BOOL_ARRAY",
                                            "type": "bool[]"
                                        },
                                        {
                                            "components": [
                                                {
                                                    "internalType": "uint256[]",
                                                    "name": "votingTokenClassList",
                                                    "type": "uint256[]"
                                                },
                                                {
                                                    "internalType": "uint256",
                                                    "name": "approvalThresholdPercentage",
                                                    "type": "uint256"
                                                },
                                                {
                                                    "internalType": "uint256",
                                                    "name": "votingDurationInSeconds",
                                                    "type": "uint256"
                                                },
                                                {
                                                    "internalType": "uint256",
                                                    "name": "executionPendingDurationInSeconds",
                                                    "type": "uint256"
                                                },
                                                {
                                                    "internalType": "bool",
                                                    "name": "isEnabled",
                                                    "type": "bool"
                                                },
                                                {
                                                    "internalType": "string",
                                                    "name": "note",
                                                    "type": "string"
                                                },
                                                {
                                                    "internalType": "bool",
                                                    "name": "bIsAbsoluteMajority",
                                                    "type": "bool"
                                                }
                                            ],
                                            "internalType": "struct VotingRule[]",
                                            "name": "VOTING_RULE_ARRAY",
                                            "type": "tuple[]"
                                        },
                                        {
                                            "components": [
                                                {
                                                    "internalType": "enum EnumReturnType",
                                                    "name": "returnType",
                                                    "type": "uint8"
                                                },
                                                {
                                                    "internalType": "uint256",
                                                    "name": "level",
                                                    "type": "uint256"
                                                },
                                                {
                                                    "components": [
                                                        {
                                                            "internalType": "uint256",
                                                            "name": "id",
                                                            "type": "uint256"
                                                        },
                                                        {
                                                            "internalType": "enum EnumConditionNodeType",
                                                            "name": "nodeType",
                                                            "type": "uint8"
                                                        },
                                                        {
                                                            "internalType": "enum EnumLogicalOperatorType",
                                                            "name": "logicalOperator",
                                                            "type": "uint8"
                                                        },
                                                        {
                                                            "internalType": "enum EnumConditionExpression",
                                                            "name": "conditionExpression",
                                                            "type": "uint8"
                                                        },
                                                        {
                                                            "internalType": "uint256[]",
                                                            "name": "childList",
                                                            "type": "uint256[]"
                                                        },
                                                        {
                                                            "components": [
                                                                {
                                                                    "internalType": "uint256[]",
                                                                    "name": "UINT256_ARRAY",
                                                                    "type": "uint256[]"
                                                                },
                                                                {
                                                                    "internalType": "address[]",
                                                                    "name": "ADDRESS_ARRAY",
                                                                    "type": "address[]"
                                                                },
                                                                {
                                                                    "internalType": "string[]",
                                                                    "name": "STRING_ARRAY",
                                                                    "type": "string[]"
                                                                },
                                                                {
                                                                    "internalType": "uint256[][]",
                                                                    "name": "UINT256_2DARRAY",
                                                                    "type": "uint256[][]"
                                                                },
                                                                {
                                                                    "internalType": "address[][]",
                                                                    "name": "ADDRESS_2DARRAY",
                                                                    "type": "address[][]"
                                                                },
                                                                {
                                                                    "internalType": "string[][]",
                                                                    "name": "STRING_2DARRAY",
                                                                    "type": "string[][]"
                                                                }
                                                            ],
                                                            "internalType": "struct NodeParam",
                                                            "name": "param",
                                                            "type": "tuple"
                                                        }
                                                    ],
                                                    "internalType": "struct ConditionNode[]",
                                                    "name": "conditionNodes",
                                                    "type": "tuple[]"
                                                },
                                                {
                                                    "internalType": "uint256",
                                                    "name": "votingRuleIndex",
                                                    "type": "uint256"
                                                },
                                                {
                                                    "internalType": "string",
                                                    "name": "note",
                                                    "type": "string"
                                                },
                                                {
                                                    "internalType": "bool",
                                                    "name": "bIsEnabled",
                                                    "type": "bool"
                                                },
                                                {
                                                    "internalType": "bool",
                                                    "name": "bIsInitialized",
                                                    "type": "bool"
                                                },
                                                {
                                                    "internalType": "bool",
                                                    "name": "bIsBeforeOperation",
                                                    "type": "bool"
                                                }
                                            ],
                                            "internalType": "struct Plugin[]",
                                            "name": "PLUGIN_ARRAY",
                                            "type": "tuple[]"
                                        },
                                        {
                                            "internalType": "enum MachineParameter[]",
                                            "name": "PARAMETER_ARRAY",
                                            "type": "uint8[]"
                                        },
                                        {
                                            "internalType": "uint256[][]",
                                            "name": "UINT256_2DARRAY",
                                            "type": "uint256[][]"
                                        },
                                        {
                                            "internalType": "address[][]",
                                            "name": "ADDRESS_2DARRAY",
                                            "type": "address[][]"
                                        }
                                    ],
                                    "internalType": "struct Param",
                                    "name": "param",
                                    "type": "tuple"
                                }
                            ],
                            "internalType": "struct Operation[]",
                            "name": "operations",
                            "type": "tuple[]"
                        }
                    ],
                    "internalType": "struct Program",
                    "name": "program",
                    "type": "tuple"
                }
            ],
            "name": "entrance",
            "outputs": [
                {
                    "internalType": "string",
                    "name": "",
                    "type": "string"
                }
            ],
            "stateMutability": "payable",
            "type": "function"
        },
        {
            "inputs": [],
            "name": "executingPendingDeadline",
            "outputs": [
                {
                    "internalType": "uint256",
                    "name": "",
                    "type": "uint256"
                }
            ],
            "stateMutability": "view",
            "type": "function"
        },
        {
            "inputs": [],
            "name": "finiteState",
            "outputs": [
                {
                    "internalType": "enum FiniteState",
                    "name": "",
                    "type": "uint8"
                }
            ],
            "stateMutability": "view",
            "type": "function"
        },
        {
            "inputs": [],
            "name": "getCurrentDividendPerUnit",
            "outputs": [
                {
                    "internalType": "uint256",
                    "name": "",
                    "type": "uint256"
                }
            ],
            "stateMutability": "view",
            "type": "function"
        },
        {
            "inputs": [
                {
                    "internalType": "address",
                    "name": "member",
                    "type": "address"
                }
            ],
            "name": "getMemberInfo",
            "outputs": [
                {
                    "components": [
                        {
                            "internalType": "bool",
                            "name": "bIsInitialized",
                            "type": "bool"
                        },
                        {
                            "internalType": "bool",
                            "name": "bIsSuspended",
                            "type": "bool"
                        },
                        {
                            "internalType": "string",
                            "name": "name",
                            "type": "string"
                        },
                        {
                            "internalType": "uint256",
                            "name": "role",
                            "type": "uint256"
                        }
                    ],
                    "internalType": "struct MemberInfo",
                    "name": "",
                    "type": "tuple"
                }
            ],
            "stateMutability": "view",
            "type": "function"
        },
        {
            "inputs": [],
            "name": "getMemberList",
            "outputs": [
                {
                    "internalType": "address[]",
                    "name": "",
                    "type": "address[]"
                }
            ],
            "stateMutability": "view",
            "type": "function"
        },
        {
            "inputs": [],
            "name": "getMyInfo",
            "outputs": [
                {
                    "internalType": "address",
                    "name": "",
                    "type": "address"
                }
            ],
            "stateMutability": "view",
            "type": "function"
        },
        {
            "inputs": [],
            "name": "getNumberOfTokenClasses",
            "outputs": [
                {
                    "internalType": "uint256",
                    "name": "",
                    "type": "uint256"
                }
            ],
            "stateMutability": "view",
            "type": "function"
        },
        {
            "inputs": [],
            "name": "getPluginInfo",
            "outputs": [
                {
                    "components": [
                        {
                            "internalType": "enum EnumReturnType",
                            "name": "returnType",
                            "type": "uint8"
                        },
                        {
                            "internalType": "uint256",
                            "name": "level",
                            "type": "uint256"
                        },
                        {
                            "components": [
                                {
                                    "internalType": "uint256",
                                    "name": "id",
                                    "type": "uint256"
                                },
                                {
                                    "internalType": "enum EnumConditionNodeType",
                                    "name": "nodeType",
                                    "type": "uint8"
                                },
                                {
                                    "internalType": "enum EnumLogicalOperatorType",
                                    "name": "logicalOperator",
                                    "type": "uint8"
                                },
                                {
                                    "internalType": "enum EnumConditionExpression",
                                    "name": "conditionExpression",
                                    "type": "uint8"
                                },
                                {
                                    "internalType": "uint256[]",
                                    "name": "childList",
                                    "type": "uint256[]"
                                },
                                {
                                    "components": [
                                        {
                                            "internalType": "uint256[]",
                                            "name": "UINT256_ARRAY",
                                            "type": "uint256[]"
                                        },
                                        {
                                            "internalType": "address[]",
                                            "name": "ADDRESS_ARRAY",
                                            "type": "address[]"
                                        },
                                        {
                                            "internalType": "string[]",
                                            "name": "STRING_ARRAY",
                                            "type": "string[]"
                                        },
                                        {
                                            "internalType": "uint256[][]",
                                            "name": "UINT256_2DARRAY",
                                            "type": "uint256[][]"
                                        },
                                        {
                                            "internalType": "address[][]",
                                            "name": "ADDRESS_2DARRAY",
                                            "type": "address[][]"
                                        },
                                        {
                                            "internalType": "string[][]",
                                            "name": "STRING_2DARRAY",
                                            "type": "string[][]"
                                        }
                                    ],
                                    "internalType": "struct NodeParam",
                                    "name": "param",
                                    "type": "tuple"
                                }
                            ],
                            "internalType": "struct ConditionNode[]",
                            "name": "conditionNodes",
                            "type": "tuple[]"
                        },
                        {
                            "internalType": "uint256",
                            "name": "votingRuleIndex",
                            "type": "uint256"
                        },
                        {
                            "internalType": "string",
                            "name": "note",
                            "type": "string"
                        },
                        {
                            "internalType": "bool",
                            "name": "bIsEnabled",
                            "type": "bool"
                        },
                        {
                            "internalType": "bool",
                            "name": "bIsInitialized",
                            "type": "bool"
                        },
                        {
                            "internalType": "bool",
                            "name": "bIsBeforeOperation",
                            "type": "bool"
                        }
                    ],
                    "internalType": "struct Plugin[]",
                    "name": "",
                    "type": "tuple[]"
                },
                {
                    "components": [
                        {
                            "internalType": "enum EnumReturnType",
                            "name": "returnType",
                            "type": "uint8"
                        },
                        {
                            "internalType": "uint256",
                            "name": "level",
                            "type": "uint256"
                        },
                        {
                            "components": [
                                {
                                    "internalType": "uint256",
                                    "name": "id",
                                    "type": "uint256"
                                },
                                {
                                    "internalType": "enum EnumConditionNodeType",
                                    "name": "nodeType",
                                    "type": "uint8"
                                },
                                {
                                    "internalType": "enum EnumLogicalOperatorType",
                                    "name": "logicalOperator",
                                    "type": "uint8"
                                },
                                {
                                    "internalType": "enum EnumConditionExpression",
                                    "name": "conditionExpression",
                                    "type": "uint8"
                                },
                                {
                                    "internalType": "uint256[]",
                                    "name": "childList",
                                    "type": "uint256[]"
                                },
                                {
                                    "components": [
                                        {
                                            "internalType": "uint256[]",
                                            "name": "UINT256_ARRAY",
                                            "type": "uint256[]"
                                        },
                                        {
                                            "internalType": "address[]",
                                            "name": "ADDRESS_ARRAY",
                                            "type": "address[]"
                                        },
                                        {
                                            "internalType": "string[]",
                                            "name": "STRING_ARRAY",
                                            "type": "string[]"
                                        },
                                        {
                                            "internalType": "uint256[][]",
                                            "name": "UINT256_2DARRAY",
                                            "type": "uint256[][]"
                                        },
                                        {
                                            "internalType": "address[][]",
                                            "name": "ADDRESS_2DARRAY",
                                            "type": "address[][]"
                                        },
                                        {
                                            "internalType": "string[][]",
                                            "name": "STRING_2DARRAY",
                                            "type": "string[][]"
                                        }
                                    ],
                                    "internalType": "struct NodeParam",
                                    "name": "param",
                                    "type": "tuple"
                                }
                            ],
                            "internalType": "struct ConditionNode[]",
                            "name": "conditionNodes",
                            "type": "tuple[]"
                        },
                        {
                            "internalType": "uint256",
                            "name": "votingRuleIndex",
                            "type": "uint256"
                        },
                        {
                            "internalType": "string",
                            "name": "note",
                            "type": "string"
                        },
                        {
                            "internalType": "bool",
                            "name": "bIsEnabled",
                            "type": "bool"
                        },
                        {
                            "internalType": "bool",
                            "name": "bIsInitialized",
                            "type": "bool"
                        },
                        {
                            "internalType": "bool",
                            "name": "bIsBeforeOperation",
                            "type": "bool"
                        }
                    ],
                    "internalType": "struct Plugin[]",
                    "name": "",
                    "type": "tuple[]"
                }
            ],
            "stateMutability": "view",
            "type": "function"
        },
        {
            "inputs": [
                {
                    "internalType": "uint256",
                    "name": "tokenClassIndex",
                    "type": "uint256"
                }
            ],
            "name": "getSumDividendWeightByTokenClass",
            "outputs": [
                {
                    "internalType": "uint256",
                    "name": "",
                    "type": "uint256"
                }
            ],
            "stateMutability": "view",
            "type": "function"
        },
        {
            "inputs": [
                {
                    "internalType": "uint256",
                    "name": "tokenClassIndex",
                    "type": "uint256"
                }
            ],
            "name": "getSumVotingWeightByTokenClass",
            "outputs": [
                {
                    "internalType": "uint256",
                    "name": "",
                    "type": "uint256"
                }
            ],
            "stateMutability": "view",
            "type": "function"
        },
        {
            "inputs": [
                {
                    "internalType": "uint256",
                    "name": "tokenClassIndex",
                    "type": "uint256"
                }
            ],
            "name": "getTokenInfo",
            "outputs": [
                {
                    "internalType": "uint256",
                    "name": "votingWeight",
                    "type": "uint256"
                },
                {
                    "internalType": "uint256",
                    "name": "dividendWeight",
                    "type": "uint256"
                },
                {
                    "internalType": "string",
                    "name": "tokenInfo",
                    "type": "string"
                },
                {
                    "internalType": "uint256",
                    "name": "totalSupply",
                    "type": "uint256"
                }
            ],
            "stateMutability": "view",
            "type": "function"
        },
        {
            "inputs": [
                {
                    "internalType": "uint256",
                    "name": "tokenClassIndex",
                    "type": "uint256"
                },
                {
                    "internalType": "address",
                    "name": "tokenOwnerAddress",
                    "type": "address"
                }
            ],
            "name": "getTokenOwnerBalance",
            "outputs": [
                {
                    "internalType": "uint256",
                    "name": "",
                    "type": "uint256"
                }
            ],
            "stateMutability": "view",
            "type": "function"
        },
        {
            "inputs": [
                {
                    "internalType": "uint256",
                    "name": "tokenClassIndex",
                    "type": "uint256"
                }
            ],
            "name": "getTokenOwners",
            "outputs": [
                {
                    "internalType": "address[]",
                    "name": "",
                    "type": "address[]"
                }
            ],
            "stateMutability": "view",
            "type": "function"
        },
        {
            "inputs": [
                {
                    "internalType": "address",
                    "name": "member",
                    "type": "address"
                }
            ],
            "name": "getWithdrawableCashBalance",
            "outputs": [
                {
                    "internalType": "uint256",
                    "name": "",
                    "type": "uint256"
                }
            ],
            "stateMutability": "view",
            "type": "function"
        },
        {
            "inputs": [],
            "name": "getWithdrawableCashOwnerList",
            "outputs": [
                {
                    "internalType": "address[]",
                    "name": "",
                    "type": "address[]"
                }
            ],
            "stateMutability": "view",
            "type": "function"
        },
        {
            "inputs": [
                {
                    "internalType": "address",
                    "name": "member",
                    "type": "address"
                }
            ],
            "name": "getWithdrawableDividendBalance",
            "outputs": [
                {
                    "internalType": "uint256",
                    "name": "",
                    "type": "uint256"
                }
            ],
            "stateMutability": "view",
            "type": "function"
        },
        {
            "inputs": [],
            "name": "getWithdrawableDividendOwnerList",
            "outputs": [
                {
                    "internalType": "address[]",
                    "name": "",
                    "type": "address[]"
                }
            ],
            "stateMutability": "view",
            "type": "function"
        },
        {
            "inputs": [],
            "name": "initialOwnerAddress",
            "outputs": [
                {
                    "internalType": "address",
                    "name": "",
                    "type": "address"
                }
            ],
            "stateMutability": "view",
            "type": "function"
        },
        {
            "inputs": [],
            "name": "initialize",
            "outputs": [],
            "stateMutability": "nonpayable",
            "type": "function"
        },
        {
            "inputs": [
                {
                    "internalType": "uint256[]",
                    "name": "votingRuleIndices",
                    "type": "uint256[]"
                },
                {
                    "components": [
                        {
                            "internalType": "address",
                            "name": "programOperatorAddress",
                            "type": "address"
                        },
                        {
                            "components": [
                                {
                                    "internalType": "address",
                                    "name": "operatorAddress",
                                    "type": "address"
                                },
                                {
                                    "internalType": "enum EnumOpcode",
                                    "name": "opcode",
                                    "type": "uint8"
                                },
                                {
                                    "components": [
                                        {
                                            "internalType": "uint256[]",
                                            "name": "UINT256_ARRAY",
                                            "type": "uint256[]"
                                        },
                                        {
                                            "internalType": "address[]",
                                            "name": "ADDRESS_ARRAY",
                                            "type": "address[]"
                                        },
                                        {
                                            "internalType": "string[]",
                                            "name": "STRING_ARRAY",
                                            "type": "string[]"
                                        },
                                        {
                                            "internalType": "bool[]",
                                            "name": "BOOL_ARRAY",
                                            "type": "bool[]"
                                        },
                                        {
                                            "components": [
                                                {
                                                    "internalType": "uint256[]",
                                                    "name": "votingTokenClassList",
                                                    "type": "uint256[]"
                                                },
                                                {
                                                    "internalType": "uint256",
                                                    "name": "approvalThresholdPercentage",
                                                    "type": "uint256"
                                                },
                                                {
                                                    "internalType": "uint256",
                                                    "name": "votingDurationInSeconds",
                                                    "type": "uint256"
                                                },
                                                {
                                                    "internalType": "uint256",
                                                    "name": "executionPendingDurationInSeconds",
                                                    "type": "uint256"
                                                },
                                                {
                                                    "internalType": "bool",
                                                    "name": "isEnabled",
                                                    "type": "bool"
                                                },
                                                {
                                                    "internalType": "string",
                                                    "name": "note",
                                                    "type": "string"
                                                },
                                                {
                                                    "internalType": "bool",
                                                    "name": "bIsAbsoluteMajority",
                                                    "type": "bool"
                                                }
                                            ],
                                            "internalType": "struct VotingRule[]",
                                            "name": "VOTING_RULE_ARRAY",
                                            "type": "tuple[]"
                                        },
                                        {
                                            "components": [
                                                {
                                                    "internalType": "enum EnumReturnType",
                                                    "name": "returnType",
                                                    "type": "uint8"
                                                },
                                                {
                                                    "internalType": "uint256",
                                                    "name": "level",
                                                    "type": "uint256"
                                                },
                                                {
                                                    "components": [
                                                        {
                                                            "internalType": "uint256",
                                                            "name": "id",
                                                            "type": "uint256"
                                                        },
                                                        {
                                                            "internalType": "enum EnumConditionNodeType",
                                                            "name": "nodeType",
                                                            "type": "uint8"
                                                        },
                                                        {
                                                            "internalType": "enum EnumLogicalOperatorType",
                                                            "name": "logicalOperator",
                                                            "type": "uint8"
                                                        },
                                                        {
                                                            "internalType": "enum EnumConditionExpression",
                                                            "name": "conditionExpression",
                                                            "type": "uint8"
                                                        },
                                                        {
                                                            "internalType": "uint256[]",
                                                            "name": "childList",
                                                            "type": "uint256[]"
                                                        },
                                                        {
                                                            "components": [
                                                                {
                                                                    "internalType": "uint256[]",
                                                                    "name": "UINT256_ARRAY",
                                                                    "type": "uint256[]"
                                                                },
                                                                {
                                                                    "internalType": "address[]",
                                                                    "name": "ADDRESS_ARRAY",
                                                                    "type": "address[]"
                                                                },
                                                                {
                                                                    "internalType": "string[]",
                                                                    "name": "STRING_ARRAY",
                                                                    "type": "string[]"
                                                                },
                                                                {
                                                                    "internalType": "uint256[][]",
                                                                    "name": "UINT256_2DARRAY",
                                                                    "type": "uint256[][]"
                                                                },
                                                                {
                                                                    "internalType": "address[][]",
                                                                    "name": "ADDRESS_2DARRAY",
                                                                    "type": "address[][]"
                                                                },
                                                                {
                                                                    "internalType": "string[][]",
                                                                    "name": "STRING_2DARRAY",
                                                                    "type": "string[][]"
                                                                }
                                                            ],
                                                            "internalType": "struct NodeParam",
                                                            "name": "param",
                                                            "type": "tuple"
                                                        }
                                                    ],
                                                    "internalType": "struct ConditionNode[]",
                                                    "name": "conditionNodes",
                                                    "type": "tuple[]"
                                                },
                                                {
                                                    "internalType": "uint256",
                                                    "name": "votingRuleIndex",
                                                    "type": "uint256"
                                                },
                                                {
                                                    "internalType": "string",
                                                    "name": "note",
                                                    "type": "string"
                                                },
                                                {
                                                    "internalType": "bool",
                                                    "name": "bIsEnabled",
                                                    "type": "bool"
                                                },
                                                {
                                                    "internalType": "bool",
                                                    "name": "bIsInitialized",
                                                    "type": "bool"
                                                },
                                                {
                                                    "internalType": "bool",
                                                    "name": "bIsBeforeOperation",
                                                    "type": "bool"
                                                }
                                            ],
                                            "internalType": "struct Plugin[]",
                                            "name": "PLUGIN_ARRAY",
                                            "type": "tuple[]"
                                        },
                                        {
                                            "internalType": "enum MachineParameter[]",
                                            "name": "PARAMETER_ARRAY",
                                            "type": "uint8[]"
                                        },
                                        {
                                            "internalType": "uint256[][]",
                                            "name": "UINT256_2DARRAY",
                                            "type": "uint256[][]"
                                        },
                                        {
                                            "internalType": "address[][]",
                                            "name": "ADDRESS_2DARRAY",
                                            "type": "address[][]"
                                        }
                                    ],
                                    "internalType": "struct Param",
                                    "name": "param",
                                    "type": "tuple"
                                }
                            ],
                            "internalType": "struct Operation[]",
                            "name": "operations",
                            "type": "tuple[]"
                        }
                    ],
                    "internalType": "struct Program",
                    "name": "currentProgram",
                    "type": "tuple"
                }
            ],
            "name": "initializeVoting",
            "outputs": [],
            "stateMutability": "nonpayable",
            "type": "function"
        },
        {
            "inputs": [],
            "name": "latestVotingItemIndex",
            "outputs": [
                {
                    "internalType": "uint256",
                    "name": "",
                    "type": "uint256"
                }
            ],
            "stateMutability": "view",
            "type": "function"
        },
        {
            "inputs": [
                {
                    "internalType": "address",
                    "name": "voter",
                    "type": "address"
                },
                {
                    "internalType": "bool[]",
                    "name": "votes",
                    "type": "bool[]"
                }
            ],
            "name": "vote",
            "outputs": [],
            "stateMutability": "nonpayable",
            "type": "function"
        },
        {
            "inputs": [],
            "name": "votingDeadline",
            "outputs": [
                {
                    "internalType": "uint256",
                    "name": "",
                    "type": "uint256"
                }
            ],
            "stateMutability": "view",
            "type": "function"
        },
        {
            "inputs": [
                {
                    "internalType": "uint256",
                    "name": "",
                    "type": "uint256"
                }
            ],
            "name": "votingItems",
            "outputs": [
                {
                    "components": [
                        {
                            "internalType": "address",
                            "name": "programOperatorAddress",
                            "type": "address"
                        },
                        {
                            "components": [
                                {
                                    "internalType": "address",
                                    "name": "operatorAddress",
                                    "type": "address"
                                },
                                {
                                    "internalType": "enum EnumOpcode",
                                    "name": "opcode",
                                    "type": "uint8"
                                },
                                {
                                    "components": [
                                        {
                                            "internalType": "uint256[]",
                                            "name": "UINT256_ARRAY",
                                            "type": "uint256[]"
                                        },
                                        {
                                            "internalType": "address[]",
                                            "name": "ADDRESS_ARRAY",
                                            "type": "address[]"
                                        },
                                        {
                                            "internalType": "string[]",
                                            "name": "STRING_ARRAY",
                                            "type": "string[]"
                                        },
                                        {
                                            "internalType": "bool[]",
                                            "name": "BOOL_ARRAY",
                                            "type": "bool[]"
                                        },
                                        {
                                            "components": [
                                                {
                                                    "internalType": "uint256[]",
                                                    "name": "votingTokenClassList",
                                                    "type": "uint256[]"
                                                },
                                                {
                                                    "internalType": "uint256",
                                                    "name": "approvalThresholdPercentage",
                                                    "type": "uint256"
                                                },
                                                {
                                                    "internalType": "uint256",
                                                    "name": "votingDurationInSeconds",
                                                    "type": "uint256"
                                                },
                                                {
                                                    "internalType": "uint256",
                                                    "name": "executionPendingDurationInSeconds",
                                                    "type": "uint256"
                                                },
                                                {
                                                    "internalType": "bool",
                                                    "name": "isEnabled",
                                                    "type": "bool"
                                                },
                                                {
                                                    "internalType": "string",
                                                    "name": "note",
                                                    "type": "string"
                                                },
                                                {
                                                    "internalType": "bool",
                                                    "name": "bIsAbsoluteMajority",
                                                    "type": "bool"
                                                }
                                            ],
                                            "internalType": "struct VotingRule[]",
                                            "name": "VOTING_RULE_ARRAY",
                                            "type": "tuple[]"
                                        },
                                        {
                                            "components": [
                                                {
                                                    "internalType": "enum EnumReturnType",
                                                    "name": "returnType",
                                                    "type": "uint8"
                                                },
                                                {
                                                    "internalType": "uint256",
                                                    "name": "level",
                                                    "type": "uint256"
                                                },
                                                {
                                                    "components": [
                                                        {
                                                            "internalType": "uint256",
                                                            "name": "id",
                                                            "type": "uint256"
                                                        },
                                                        {
                                                            "internalType": "enum EnumConditionNodeType",
                                                            "name": "nodeType",
                                                            "type": "uint8"
                                                        },
                                                        {
                                                            "internalType": "enum EnumLogicalOperatorType",
                                                            "name": "logicalOperator",
                                                            "type": "uint8"
                                                        },
                                                        {
                                                            "internalType": "enum EnumConditionExpression",
                                                            "name": "conditionExpression",
                                                            "type": "uint8"
                                                        },
                                                        {
                                                            "internalType": "uint256[]",
                                                            "name": "childList",
                                                            "type": "uint256[]"
                                                        },
                                                        {
                                                            "components": [
                                                                {
                                                                    "internalType": "uint256[]",
                                                                    "name": "UINT256_ARRAY",
                                                                    "type": "uint256[]"
                                                                },
                                                                {
                                                                    "internalType": "address[]",
                                                                    "name": "ADDRESS_ARRAY",
                                                                    "type": "address[]"
                                                                },
                                                                {
                                                                    "internalType": "string[]",
                                                                    "name": "STRING_ARRAY",
                                                                    "type": "string[]"
                                                                },
                                                                {
                                                                    "internalType": "uint256[][]",
                                                                    "name": "UINT256_2DARRAY",
                                                                    "type": "uint256[][]"
                                                                },
                                                                {
                                                                    "internalType": "address[][]",
                                                                    "name": "ADDRESS_2DARRAY",
                                                                    "type": "address[][]"
                                                                },
                                                                {
                                                                    "internalType": "string[][]",
                                                                    "name": "STRING_2DARRAY",
                                                                    "type": "string[][]"
                                                                }
                                                            ],
                                                            "internalType": "struct NodeParam",
                                                            "name": "param",
                                                            "type": "tuple"
                                                        }
                                                    ],
                                                    "internalType": "struct ConditionNode[]",
                                                    "name": "conditionNodes",
                                                    "type": "tuple[]"
                                                },
                                                {
                                                    "internalType": "uint256",
                                                    "name": "votingRuleIndex",
                                                    "type": "uint256"
                                                },
                                                {
                                                    "internalType": "string",
                                                    "name": "note",
                                                    "type": "string"
                                                },
                                                {
                                                    "internalType": "bool",
                                                    "name": "bIsEnabled",
                                                    "type": "bool"
                                                },
                                                {
                                                    "internalType": "bool",
                                                    "name": "bIsInitialized",
                                                    "type": "bool"
                                                },
                                                {
                                                    "internalType": "bool",
                                                    "name": "bIsBeforeOperation",
                                                    "type": "bool"
                                                }
                                            ],
                                            "internalType": "struct Plugin[]",
                                            "name": "PLUGIN_ARRAY",
                                            "type": "tuple[]"
                                        },
                                        {
                                            "internalType": "enum MachineParameter[]",
                                            "name": "PARAMETER_ARRAY",
                                            "type": "uint8[]"
                                        },
                                        {
                                            "internalType": "uint256[][]",
                                            "name": "UINT256_2DARRAY",
                                            "type": "uint256[][]"
                                        },
                                        {
                                            "internalType": "address[][]",
                                            "name": "ADDRESS_2DARRAY",
                                            "type": "address[][]"
                                        }
                                    ],
                                    "internalType": "struct Param",
                                    "name": "param",
                                    "type": "tuple"
                                }
                            ],
                            "internalType": "struct Operation[]",
                            "name": "operations",
                            "type": "tuple[]"
                        }
                    ],
                    "internalType": "struct Program",
                    "name": "program",
                    "type": "tuple"
                },
                {
                    "internalType": "uint256",
                    "name": "votingEndTime",
                    "type": "uint256"
                },
                {
                    "internalType": "uint256",
                    "name": "executingEndTime",
                    "type": "uint256"
                },
                {
                    "internalType": "enum VotingStatus",
                    "name": "votingStatus",
                    "type": "uint8"
                },
                {
                    "internalType": "bool",
                    "name": "bIsProgramExecuted",
                    "type": "bool"
                }
            ],
            "stateMutability": "view",
            "type": "function"
        }
    ],
    "bytecode": "0x6080806040523462000019576201349190816200001f8239f35b600080fdfe6107008060405260043610156200001557600080fd5b600090813560e01c908163036ee8501462003b2e575080630e5a3b2914620037d057806310ade3ea14620037a05780631797631d14620037185780631c75255a14620036b257806323b65c78146200362a57806341d1a43814620035f657806356424cf414620035155780635c00d98714620034c45780635d0b184914620034a25780635f1231ea14620033c85780635f5d5f001462003340578063681ece9d14620032fb57806379532bfe14620032d95780637daa10ce14620032bc5780638129fc1c1462002ef9578063864f9f7a1462002eba57806386ad77e21462002ba75780638c7a63ae1462002b355780639f36145f14620017f5578063a064c4f1146200172c578063a2f7d1011462000504578063acf80bc414620004c5578063aefca42a14620004a3578063afc820aa146200037e578063bba5103014620001f4578063d5a172f214620001c75763d6a93c51146200017357600080fd5b34620001c45780600319360112620001c4575b61271081106200019c575b602090604051908152f35b60ff60078260031b01541615620001be57620001b89062005a5a565b62000186565b62000191565b80fd5b5034620001c45780600319360112620001c45762027126546040516001600160a01b039091168152602090f35b5034620001c45780600319360112620001c4576202712e548082526202712b9160209083825260029384604083200154946200024d620002348762003c62565b9662000244604051988962003c3e565b80885262003c62565b8685019290601f1901368437835b86855281865282604086200154811015620003285760405163083a348760e31b815260048101829052602487828281305afa9182156200031d578792620002da575b50620002aa838b62005ab0565b906003831015620002c8575052620002c29062005a5a565b6200025b565b634e487b7160e01b8852602160045287fd5b9091508781813d831162000315575b620002f5818362003c3e565b810103126200031157516003811015620003115790386200029d565b8680fd5b503d620002e9565b6040513d89823e3d90fd5b505060408051858152875181870181905290948594928501935086905b8281106200035557505050500390f35b91938395509080826200036d60019483975162003d5f565b019501910191859493919262000345565b506020366003190112620001c4576004356001600160401b0381116200049f57620003ae90369060040162004d21565b805190916001600160a01b039162000403908316620003fa620003db620003d533620131f4565b62005923565b620003f3620003ed87895116620131f4565b62005989565b90620059e0565b90331462005a27565b9060208301915b825180518210156200047757906200046b6200047192846200042e84339362005ab0565b515116146200046462000445620003d533620131f4565b620003f3620003ed886200045b888c5162005ab0565b515116620131f4565b9062005a27565b62005a5a565b6200040a565b6200049b620004868662006d3f565b60405191829160208352602083019062003d92565b0390f35b5080fd5b5034620001c45780600319360112620001c45760206202712854604051908152f35b5034620001c4576020366003190112620001c4576020906040906001600160a01b03620004f162003b4e565b1681526201388783522054604051908152f35b5034620001c4576040366003190112620001c4576004356001600160401b0381116200049f576200053a90369060040162004a4f565b6024356001600160401b03811162001728576200055c90369060040162004d21565b620271298054600260ff8216620005738162003cf8565b14620016e35760ff191660021790556202712e54600181018111620016cf57600181016202712e558391845b84518110156200060257836002620005c3620005bc848962005ab0565b5162012484565b50015410620005de575b620005d89062005a5a565b6200059f565b9250620005d86002620005f6620005bc868862005ab0565b500154939050620005cd565b509093918291825b8551811015620006665784600362000627620005bc848a62005ab0565b5001541062000642575b6200063c9062005a5a565b6200060a565b93506200063c60036200065a620005bc878962005ab0565b50015494905062000631565b50600190950182526202712b602090815260408320865181546001600160a01b0319166001600160a01b039190911617815595015180519295919290600160401b821162000be5576001830154826001850155808310620014ee575b50602060019101920186526020862086925b82841062000c235750505050620006ec835162006777565b6202712e5485526202712b6020526004604086200181519160018060401b03831162000be55760209062000721848462005b96565b0190865260208620865b83811062000c0e575050505062000743835162006777565b6202712e5485526202712b6020526003604086200181519160018060401b03831162000be55760209062000778848462005b96565b0190865260208620865b83811062000bf957505050506200079a835162006777565b6202712e5485526202712b6020526005604086200181519160018060401b03831162000be557602090620007cf848462005b96565b0190865260208620865b83811062000bd05750505050620007f1904262006c06565b6202712e5485526202712b60205260066040862001551562000b90576200082e906202712e5484526202712b602052600660408520015462006c06565b60076040852001551562000b4d576202712e5482526202712b60205260086040832001600260ff1982541617905562000868815162006777565b6202712e5483526202712b6020526002604084200181519160018060401b03831162000b39576020906200089d848462005b96565b0190845260208420845b83811062000b24578585815b81518110156200091457806200046b620008d26200090e938562005ab0565b516202712e5486526202712b602052620008f3836002604089200162006ac7565b90919082549060031b600019811b9283911b16911916179055565b620008b3565b50815b815181101562000b20576202712e54928381526202712b6020526200095462000947836002604085200162006ac7565b90549060031b1c62012484565b505491620009628362006777565b92825b81811062000acf5750508182905b845182101562000a9f5762000989828662005ab0565b5161271081101562000a8b5760031b60010154620009a8838762005ab0565b5161271081101562000a775760031b60060154620009c691620069da565b901562000a3357620009d89162006c06565b919015620009f257620009eb9062005a5a565b9062000973565b60405162461bcd60e51b8152602060048201526019602482015278746f74616c566f74696e67506f776572206f766572666c6f7760381b6044820152606490fd5b606460405162461bcd60e51b815260206004820152602060248201527f63757272656e74436c617373566f74696e67506f776572206f766572666c6f776044820152fd5b634e487b7160e01b86526032600452602486fd5b634e487b7160e01b85526032600452602485fd5b905062000ac993506200046b91929586526202712b602052620008f3836005604089200162006ac7565b62000917565b62000b1a908785526202712b60205262000b008162000af96200094787600260408b200162006ac7565b5062006ac7565b90549060031b1c62000b13828862005ab0565b5262005a5a565b62000965565b8280f35b600190602084519401938184015501620008a7565b634e487b7160e01b85526041600452602485fd5b60405162461bcd60e51b815260206004820152601b60248201527a657865637574696e6720656e642074696d65206f766572666c6f7760281b6044820152606490fd5b60405162461bcd60e51b8152602060048201526018602482015277766f74696e6720656e642074696d65206f766572666c6f7760401b6044820152606490fd5b600190602084519401938184015501620007d9565b634e487b7160e01b87526041600452602487fd5b60019060208451940193818401550162000782565b6001906020845194019381840155016200072b565b805180518354602083015190916001600160a01b0316906022811015620014da576001600160a81b03199092161760a09190911b60ff60a01b161783556040015180518051906001600160401b0382116200103d576020600186019162000c8b848462005b96565b01908b5260208b208b5b838110620014c5575050505060208101518051906001600160401b0382116200103d576020600286019162000ccb848462005b96565b01908b5260208b208b5b838110620014a7575050505060038301604082015190602082519262000cfc848462005ca7565b01908b5260208b20908b905b838210620013bc5750505050606081015180516001600160401b0381116200103d576020600486019262000d3d838562012406565b01918b5260208b20908b5b8160051c8110620013815750601f19811681036200133e575b5050506080810151805190600160401b82116200103d576005850154826005870155808310620012bb575b5060200190600585018b5260208b20918b905b82821062001103575050505060a0810151805190600160401b82116200103d57600685015482600687015580831062001072575b50602001600685018b5260208b20908b905b83821062001051575050505060c081015180516001600160401b0381116200103d576020600786019262000e1a838562012406565b01918b5260208b20908b5b8160051c811062000fff5750601f198116810362000fb3575b5050506008830160e082015190602082519262000e5c848462005d35565b01908b5260208b20908b905b83821062000f3c57505050506101006009840191015190602082519262000e90848462005d35565b01908a5260208a20908a905b83821062000ebc5750505050600a602060019201920193019290620006d4565b80518051906001600160401b03821162000f28578460208f9262000ee1858462005b96565b0191528d60208120905b83811062000f0a57505050506001602081920193019101909162000e9c565b82516001600160a01b03168183015560209092019160010162000eeb565b634e487b7160e01b8e52604160045260248efd5b80518051906001600160401b03821162000f9f5760208f9162000f60848862005b96565b019085815260208120905b83811062000f8a57505050506001602081920193019101909162000e68565b60019060208451940193818401550162000f6b565b634e487b7160e01b8f52604160045260248ffd5b8b928c5b601f1983168303811062000fd557505060051c015538808062000e3e565b9093602062000ff56001928488519162000fef8362003db9565b62012470565b9501910162000fb7565b8c8d5b602081106200101957508382015560010162000e25565b94906020620010336001928885519162000fef8362003db9565b9201950162001002565b634e487b7160e01b8b52604160045260248bfd5b6006602082620010656001945187620060b3565b0193019101909162000de5565b6006818102048103620010ef576006838102048303620010ef57600686018c5260208c208360060281015b8d8360060283018210620010b45750505062000dd3565b90816006928255806001830155620010cf6002830162005e12565b806003830155620010e36004830162005c16565b6005820155016200109d565b634e487b7160e01b8c52601160045260248cfd5b805180518051906001600160401b03821162001291578f906020906200112a848a62005b96565b019087815260208120905b838110620012a6575050505060208101516001860155604081015160028601556060810151600386015562001174608082015115156004870162006070565b60a08101518051906001600160401b03821162001291578f90620011ab83620011a160058b015462004249565b60058b0162006026565b602091601f841160011462001212576007948460209560019895620011f99560c0959262001206575b5050600019600383901b1c191690881b1760058b01555b015115156006890162006070565b0194019101909262000d9f565b015190503880620011d4565b919060058901835260208320925b601f1985168110620012785750600794600185819895620011f99560c095602099601f198116106200125e575b505050811b0160058b0155620011eb565b015160001960f88460031b161c191690553880806200124d565b9192602060018192868501518155019401920162001220565b50634e487b7160e01b8f52604160045260248ffd5b60019060208451940193818401550162001135565b6007818102048103620010ef576007838102048303620010ef57600586018c5260208c208360070281015b8d8360070283018210620012fd5750505062000d8c565b906007916200130c8262005b6f565b806001830155806002830155806003830155806004830155620013326005830162005c16565b600682015501620012e6565b8b928c5b601f198316830381106200136057505060051c015538808062000d61565b909360206200137760019284885115159162012470565b9501910162001342565b8c8d5b602081106200139b57508382015560010162000d48565b94906020620013b260019288855115159162012470565b9201950162001384565b80518051906001600160401b03821162000f9f578e90620013ea83620013e3885462004249565b8862006026565b602091601f841160011462001438579280602093600196938796926200142c575b5050600019600383901b1c191690841b1786555b0193019101909162000d08565b0151905038806200140b565b9190601f19841687845260208420935b8181106200148e575093602093600196938796938388951062001474575b505050811b0186556200141f565b015160001960f88460031b161c1916905538808062001466565b9293602060018192878601518155019501930162001448565b82516001600160a01b03168183015560209092019160010162000cd5565b60019060208451940193818401550162000c95565b634e487b7160e01b8c52602160045260248cfd5b600a818102048103620016bb57600a838102048303620016bb576001840188526020882083600a0281015b82600a02820181106200152e575050620006c2565b8981556200153f6001820162005b6f565b6200154d6002820162005b6f565b6200155b6003820162005c68565b6200156f600482018054908c8155620123de565b60058101548a6005830155806200164c575b5060068101548a600683015580620015cf575b5080620015ac6007600a93018054908d8155620123de565b620015ba6008820162005cf6565b620015c86009820162005cf6565b0162001519565b60068181020481036200163857600682018b5260208b20906006028101905b818110620015fd575062001594565b808c600692558c6001820155620016176002820162005e12565b8c60038201556200162b6004820162005c16565b8c600582015501620015ee565b634e487b7160e01b8b52601160045260248bfd5b60078181020481036200163857600582018b5260208b20906007028101905b8181106200167a575062001581565b806200168860079262005b6f565b8c60018201558c60028201558c60038201558c6004820155620016ae6005820162005c16565b8c6006820155016200166b565b634e487b7160e01b88526011600452602488fd5b634e487b7160e01b84526011600452602484fd5b60405162461bcd60e51b815260206004820152601d60248201527f766f74696e6720697320616c726561647920696e2070726f67726573730000006044820152606490fd5b8280fd5b5034620001c4576020366003190112620001c45760043590612710821015620017e1576200176e826200176760018260031b01549162006b44565b90620069da565b90156200178057602090604051908152f35b60405162461bcd60e51b815260206004820152603360248201527f73756d566f74696e67576569676874466f72546f6b656e436c6173733a20766f60448201527274696e67576569676874206f766572666c6f7760681b6064820152608490fd5b634e487b7160e01b81526032600452602490fd5b5034620001c4576020366003190112620001c45760043581526202712b602052604080822081519182016001600160401b0381118382101762002b215760405280546001600160a01b03168252600181018054620018538162003c62565b9162001863604051938462003c3e565b81835285526020808620869184015b838310620018d957620018ae878787602083015260ff600682015491600860078201549101549060405195869560a0875260a0870190620045b5565b9360208601526040850152620018ca6060850183831662003d5f565b60081c16151560808301520390f35b6040516001600160401b03606082019081119082111762002b0d576060810160405282546001600160a01b0381168252602260a082901c60ff16101562002af95760a01c60ff1660208201526040516001600160401b0361012082019081119082111762002ae5576101208101604052620019576001850162004198565b81526200196760028501620041ed565b60208201526200197a6003850162004336565b6040820152600484018a604051809283916020825491828152019184526020842093905b80601f830110620029115762001ae1945491818110620028fa575b818110620028e0575b818110620028c6575b818110620028ac575b81811062002893575b81811062002879575b8181106200285f575b81811062002845575b8181106200282b575b81811062002811575b818110620027f7575b818110620027dd575b818110620027c3575b818110620027a9575b8181106200278f575b81811062002775575b8181106200275b575b81811062002741575b81811062002727575b8181106200270d575b818110620026f3575b818110620026d9575b818110620026bf575b818110620026a5575b8181106200268b575b81811062002671575b81811062002657575b8181106200263d575b81811062002623575b81811062002609575b818110620025ef575b10620025de575b509b9a999897969594939b038262003c3e565b60608a015260058301805462001af78162003c62565b9162001b07604051938462003c3e565b8183528c526020808d20908d9084015b838210620025a9575050505060808a01526006830198895462001b3a8162003c62565b9a62001b4a6040519c8d62003c3e565b818c5260208c01908d528c6020812091815b8483106200243a57505050505090919293949596979860a0820152604051806007860190602082549182815201918d5260208d20908d915b81601f840110620021315784600a97946020979460019a979462001cdb94549181811062002113575b818110620020f2575b818110620020d1575b818110620020b0575b81811062002090575b8181106200206f575b8181106200204e575b8181106200202d575b8181106200200c575b81811062001feb575b81811062001fca575b81811062001fa9575b81811062001f88575b81811062001f67575b81811062001f46575b81811062001f25575b81811062001f04575b81811062001ee3575b81811062001ec2575b81811062001ea1575b81811062001e80575b81811062001e5f575b81811062001e3e575b81811062001e1d575b81811062001dfc575b81811062001ddb575b81811062001dba575b81811062001d99575b81811062001d78575b81811062001d57575b81811062001d36575b1062001d1b575b50038262003c3e565b60c082015262001cee600888016200442b565b60e082015262001d016009880162004488565b610100820152604082015281520192019201919062001872565b90889160f81c62001d2c8162003db9565b8152013862001cd2565b928a8d9160ff8560f01c1662001d4c8162003db9565b815201930162001ccb565b928a8d9160ff8560e81c1662001d6d8162003db9565b815201930162001cc2565b928a8d9160ff8560e01c1662001d8e8162003db9565b815201930162001cb9565b928a8d9160ff8560d81c1662001daf8162003db9565b815201930162001cb0565b928a8d9160ff8560d01c1662001dd08162003db9565b815201930162001ca7565b928a8d9160ff8560c81c1662001df18162003db9565b815201930162001c9e565b928a8d9160ff8560c01c1662001e128162003db9565b815201930162001c95565b928a8d9160ff8560b81c1662001e338162003db9565b815201930162001c8c565b928a8d9160ff8560b01c1662001e548162003db9565b815201930162001c83565b928a8d9160ff8560a81c1662001e758162003db9565b815201930162001c7a565b928a8d9160ff8560a01c1662001e968162003db9565b815201930162001c71565b928a8d9160ff8560981c1662001eb78162003db9565b815201930162001c68565b928a8d9160ff8560901c1662001ed88162003db9565b815201930162001c5f565b928a8d9160ff8560881c1662001ef98162003db9565b815201930162001c56565b928a8d9160ff8560801c1662001f1a8162003db9565b815201930162001c4d565b928a8d9160ff8560781c1662001f3b8162003db9565b815201930162001c44565b928a8d9160ff8560701c1662001f5c8162003db9565b815201930162001c3b565b928a8d9160ff8560681c1662001f7d8162003db9565b815201930162001c32565b928a8d9160ff8560601c1662001f9e8162003db9565b815201930162001c29565b928a8d9160ff8560581c1662001fbf8162003db9565b815201930162001c20565b928a8d9160ff8560501c1662001fe08162003db9565b815201930162001c17565b928a8d9160ff8560481c16620020018162003db9565b815201930162001c0e565b928a8d9160ff8560401c16620020228162003db9565b815201930162001c05565b928a8d9160ff8560381c16620020438162003db9565b815201930162001bfc565b928a8d9160ff8560301c16620020648162003db9565b815201930162001bf3565b928a8d9160ff8560281c16620020858162003db9565b815201930162001bea565b928a8d9160ff85831c16620020a58162003db9565b815201930162001be1565b928a8d9160ff8560181c16620020c68162003db9565b815201930162001bd8565b928a8d9160ff8560101c16620020e78162003db9565b815201930162001bcf565b928a8d9160ff8560081c16620021088162003db9565b815201930162001bc6565b928a8d9160ff8516620021268162003db9565b815201930162001bbd565b926001610400602092865460ff81166200214b8162003db9565b825260ff8160081c166200215f8162003db9565b8583015260ff8160101c16620021758162003db9565b604083015260ff8160181c166200218c8162003db9565b606083015260ff81861c16620021a28162003db9565b608083015260ff8160281c16620021b98162003db9565b60a0830152620021cf60ff8260301c1662003db9565b60ff8160301c1660c083015260ff8160381c16620021ed8162003db9565b60e083015260ff8160401c16620022048162003db9565b61010083015260ff8160481c166200221c8162003db9565b61012083015260ff8160501c16620022348162003db9565b61014083015260ff8160581c166200224c8162003db9565b61016083015260ff8160601c16620022648162003db9565b61018083015260ff8160681c166200227c8162003db9565b6101a083015260ff8160701c16620022948162003db9565b6101c083015260ff8160781c16620022ac8162003db9565b6101e083015260ff8160801c16620022c48162003db9565b61020083015260ff8160881c16620022dc8162003db9565b61022083015260ff8160901c16620022f48162003db9565b61024083015260ff8160981c166200230c8162003db9565b61026083015260ff8160a01c16620023248162003db9565b61028083015260ff8160a81c166200233c8162003db9565b6102a083015260ff8160b01c16620023548162003db9565b6102c083015260ff8160b81c166200236c8162003db9565b6102e083015260ff8160c01c16620023848162003db9565b61030083015260ff8160c81c166200239c8162003db9565b61032083015260ff8160d01c16620023b48162003db9565b61034083015260ff8160d81c16620023cc8162003db9565b61036083015260ff8160e01c16620023e48162003db9565b61038083015260ff8160e81c16620023fc8162003db9565b6103a083015260ff8160f01c16620024148162003db9565b6103c083015260f81c620024288162003db9565b6103e082015201940192019162001b94565b60405190620024498262003bcd565b6200245960ff8654168362004411565b600185015460208301526002850154620024738162003c62565b9162002483604051938462003c3e565b81835260028701815260208082209084015b8383106200251b57505050509d9e95969798999a9b9c9d600192826020926040600695015260038701546060820152620024d26004880162004286565b608082015260ff6005880154818116151560a0840152818160081c16151560c084015260101c16151560e08201528152019301910190918e9d9c9b9a9998979695949d62001b5c565b60096020600192604051620025308162003bb1565b855481526200257460ff868801548181166200254c8162003db9565b86850152818160081c16620025618162003cf8565b604085015260101c16606083016200441e565b620025826002870162004198565b60808201526200259560038701620044e5565b60a082015281520192019201919062002495565b600760209d9e969798999a9b9c9d600192620025c58662004393565b8152019301910190919c9b9a9998979695949c62001b17565b60f81c151581526020013862001ace565b92602060019160ff8560f01c161515815201930162001ac7565b92602060019160ff8560e81c161515815201930162001abe565b92602060019160ff8560e01c161515815201930162001ab5565b92602060019160ff8560d81c161515815201930162001aac565b92602060019160ff8560d01c161515815201930162001aa3565b92602060019160ff8560c81c161515815201930162001a9a565b92602060019160ff8560c01c161515815201930162001a91565b92602060019160ff8560b81c161515815201930162001a88565b92602060019160ff8560b01c161515815201930162001a7f565b92602060019160ff8560a81c161515815201930162001a76565b92602060019160ff8560a01c161515815201930162001a6d565b92602060019160ff8560981c161515815201930162001a64565b92602060019160ff8560901c161515815201930162001a5b565b92602060019160ff8560881c161515815201930162001a52565b92602060019160ff8560801c161515815201930162001a49565b92602060019160ff8560781c161515815201930162001a40565b92602060019160ff8560701c161515815201930162001a37565b92602060019160ff8560681c161515815201930162001a2e565b92602060019160ff8560601c161515815201930162001a25565b92602060019160ff8560581c161515815201930162001a1c565b92602060019160ff8560501c161515815201930162001a13565b92602060019160ff8560481c161515815201930162001a0a565b92602060019160ff8560401c161515815201930162001a01565b92602060019160ff8560381c1615158152019301620019f8565b92602060019160ff8560301c1615158152019301620019ef565b92602060019160ff8560281c1615158152019301620019e6565b92602060019160ff85831c1615158152019301620019dd565b92602060019160ff8560181c1615158152019301620019d4565b92602060019160ff8560101c1615158152019301620019cb565b92602060019160ff8560081c1615158152019301620019c2565b92602060019160ff851615158152019301620019b9565b916020919350610400600191865460ff81161515825260ff8160081c1615158583015260ff8160101c161515604083015260ff8160181c161515606083015260ff8160808282891c16151581860152828260281c16151560a0860152828260c092828260301c16151584890152828260381c16151560e0890152828260401c161515610100890152828260481c161515610120890152828260501c161515610140890152828260581c161515610160890152828260601c161515610180890152828260681c1615156101a0890152828260701c1615156101c0890152828260781c1615156101e08901521c161515610200860152828260881c161515610220860152828260901c161515610240860152828260981c161515610260860152828260a01c161515610280860152828260a81c1615156102a0860152828260b01c1615156102c0860152828260b81c1615156102e08601521c16151561030083015260ff8160c81c16151561032083015260ff8160d01c16151561034083015260ff8160d81c16151561036083015260ff8160e01c16151561038083015260ff8160e81c1615156103a083015260ff8160f01c1615156103c083015260f81c15156103e08201520194019201849293916200199e565b634e487b7160e01b8a52604160045260248afd5b634e487b7160e01b8a52602160045260248afd5b634e487b7160e01b89526041600452602489fd5b634e487b7160e01b84526041600452602484fd5b5034620001c4576020366003190112620001c45760043590612710821015620017e1575060031b600181015460028201549162002b9d62002b7e60056006840154930162004286565b6040519485948552602085015260806040850152608084019062003d92565b9060608301520390f35b5034620001c45780600319360112620001c45762013882805462002bcb8162003c62565b9162002bdb604051938462003c3e565b81835283526020808420849184015b83831062002d8c5785856201388380549062002c068262003c62565b9362002c16604051958662003c3e565b82855260208501918152602081209080925b84841062002c5e5762002c4f866200049b8960405193849360408552604085019062003f44565b90838203602085015262003f44565b60405162002c6c8162003bcd565b62002c7c60ff8554168262004411565b6001840154602082015260028401805462002c978162003c62565b9162002ca7604051938462003c3e565b8183528552602080862090869084015b83821062002d26575050505060019282602092604060069501526003870154606082015262002ce96004880162004286565b608082015260ff6005880154818116151560a0840152818160081c16151560c084015260101c16151560e082015281520193019301929162002c28565b6009602060019260405162002d3b8162003bb1565b8654815262002d5760ff868901548181166200254c8162003db9565b62002d656002880162004198565b608082015262002d7860038801620044e5565b60a082015281520193019101909162002cb7565b60405162002d9a8162003bcd565b62002daa60ff8454168262004411565b6001830154602082015260028301805462002dc58162003c62565b9162002dd5604051938462003c3e565b81835289526020808a20908a9084015b83821062002e54575050505060019282602092604060069501526003860154606082015262002e176004870162004286565b608082015260ff6005870154818116151560a0840152818160081c16151560c084015260101c16151560e082015281520192019201919062002bea565b6009602060019260405162002e698162003bb1565b8654815262002e8560ff868901548181166200254c8162003db9565b62002e936002880162004198565b608082015262002ea660038801620044e5565b60a082015281520193019101909162002de5565b5034620001c4576020366003190112620001c4576020906040906001600160a01b0362002ee662003b4e565b1681526201388583522054604051908152f35b5034620001c45780600319360112620001c4576202712680546001600160a01b0319163317905562027129805460ff19166001908117909155604051909190819062002f458162003c06565b5290620138828054600082558062003253575b508252818060405162002f6b8162003c06565b526200323f576201388380546000825580620031c0575b5082526127106202712a556040519162002f9c8362003bea565b818352805b60208082101562003017576040516020929162002fbe8262003bb1565b8482528481830152846040830152606085818401526080908082850152806040519262002feb8462003bb1565b8184528185850152816040850152818085015283015260a0908183015283015282870101520162002fa1565b8284620031b0876040516200302c8162003c06565b8481526040516200303d8162003c06565b8581526040516200304e8162003c06565b8681526040516200305f8162003c06565b878152604051620030708162003c06565b88815260405191620030828362003c06565b89835260405193620030948562003c06565b8a855260405195620030a68762003bb1565b8652602086015260408501526060840152608083015260a082015260405191620030d08362003bb1565b86835260036020840152866040840152866060840152608083015260a0820152620030fb8262005a6a565b52620031078162005a6a565b506200315e6040516200311a8162003bcd565b600481528460208201528260408201528560608201526040516200313e8162003c06565b86815260808201528460a08201528460c08201528460e082015262006833565b604051906200316d8262003bcd565b600282528360208301526040820152836060820152604051620031908162003c06565b84815260808201528260a08201528260c08201528360e082015262006880565b6113886201388b556201388c5580f35b925060068381029381850403620032295760009382855260208520908101905b818110620031f057505062002f82565b80868492558686820155620032086002820162005e12565b8660038201556200321c6004820162005c16565b86600582015501620031e0565b634e487b7160e01b600052601160045260246000fd5b634e487b7160e01b82526041600452602482fd5b925060068381029381850403620032295760009382855260208520908101905b8181106200328357505062002f58565b808684925586868201556200329b6002820162005e12565b866003820155620032af6004820162005c16565b8660058201550162003273565b5034620001c45780600319360112620001c4576020604051338152f35b5034620001c45780600319360112620001c45760206202712d54604051908152f35b5034620001c4576020366003190112620001c45760043590612710821015620017e1576200049b6200333360048460031b01620041ed565b6040519182918262003d19565b5034620001c45780600319360112620001c4576040516201388180548083529083526020808301937fcd6f7cece5c70f73af31bb8ed8b80ae1c2a9e5eb261bd5ab2d9374b0c38719c892915b828210620033a7576200049b85620033338189038262003c3e565b83546001600160a01b0316865294850194600193840193909101906200338c565b5034620001c45760209081600319360112620001c457604090620033eb62003b4e565b8160608451620033fb8162003b7f565b82815286810183905285810182905201526001600160a01b0316815262013880835220604051906200342d8262003b7f565b6200349781549160ff83161515845260ff8585019360081c161515835260026200345a6001830162004286565b916040860192835201549260608501938452604051958695818752511515908601525115156040850152516080606085015260a084019062003d92565b905160808301520390f35b5034620001c45780600319360112620001c45760206202712e54604051908152f35b5034620001c4576020366003190112620001c45760043590612710821015620017e15760206200350d62003505846200176760028260031b01549162006b44565b9190620068ec565b604051908152f35b5034620001c45780600319360112620001c4576201388b54620035726200353b62012d29565b916200354d6127109384831062005a27565b620035676201388e546201388c5411156200046462012d97565b6201388d54620069da565b90506200357e62012ded565b50825b828110620035a4575b60206200359a8585850462006c94565b9050604051908152f35b909260ff60078360031b01541615620035ee5781620035d8620035e492620035d16200046b969562006959565b9062006c06565b94906200046462012ded565b9290919262003581565b92906200358a565b5034620001c4576020366003190112620001c457602062003619600435620125f9565b62003628604051809262003d5f565bf35b5034620001c45780600319360112620001c4576040516201388680548083529083526020808301937f4b58a51c867b7b693aaefb0acd6b55f4e7286e8436d34ab3cc63a1f2bfa35aa492915b82821062003691576200049b85620033338189038262003c3e565b83546001600160a01b03168652948501946001938401939091019062003676565b5034620001c4576040366003190112620001c4576004356024356001600160a01b03811690819003620017285761271082101562003704579160036040926020948352811b0183522054604051908152f35b634e487b7160e01b83526032600452602483fd5b5034620001c45780600319360112620001c4576040516201388880548083529083526020808301937ff9ab3ee50aab7a7cf5b7d30204dd21b5da7cc33690a7aec17b3653a822a635df92915b8282106200377f576200049b85620033338189038262003c3e565b83546001600160a01b03168652948501946001938401939091019062003764565b5034620001c45780600319360112620001c457602060ff62027129541660405190620037cc8162003cf8565b8152f35b5034620001c4576040366003190112620001c457620037ee62003b4e565b60249081356001600160401b03811162003b2a576200381290369060040162003c88565b91600260ff620271295416620038288162003cf8565b0362003aea576202712d5442101562003aac5760018060a01b0382168085526202712c92602093808552604087206202712e91825491828a52875260ff60408a20541662003a6e57875194828a526202712b95868952600260408c2001540362003a08578952865260408820908852855260408720956001968760ff198254161790558688905b620038b8578880f35b815181101562003a0457620038ce818362005ab0565b51156200397e578254808a528588526200392388620008f3848d60406003918c620039158d620035d1876200390881898989200162006ac7565b905490891b1c92620124a5565b979099835252200162006ac7565b156200393b57620039349062005a5a565b87620038af565b60405162461bcd60e51b815260048101889052601c818801527b766f74696e6720666f7220706f776572596573206f766572666c6f7760201b6044820152606490fd5b8254808a52858852620039b188620008f3848d60406003918c620039158d620035d1876200390881898989200162006ac7565b15620039c257620039349062005a5a565b60405162461bcd60e51b815260048101889052601b818801527a766f74696e6720666f7220706f7765724e6f206f766572666c6f7760281b6044820152606490fd5b8880f35b60405162461bcd60e51b8152600481018990526039818901527f746865206e756d626572206f6620766f74657320646f6573206e6f74206d6174604482015278636820746865206e756d626572206f6620706f6c696369657360381b6064820152608490fd5b60405162461bcd60e51b815260048101889052601781880152761d9bdd195c881a185cc8185b1c9958591e481d9bdd1959604a1b6044820152606490fd5b60649060176040519162461bcd60e51b835260206004840152820152761d9bdd1a5b99c81c195c9a5bd9081a185cc8195b991959604a1b6044820152fd5b60649060196040519162461bcd60e51b83526020600484015282015278766f74696e67206973206e6f7420696e2070726f677265737360381b6044820152fd5b8380fd5b9050346200049f57816003193601126200049f5760209062027127548152f35b600435906001600160a01b038216820362003b6557565b600080fd5b35906001600160a01b038216820362003b6557565b608081019081106001600160401b0382111762003b9b57604052565b634e487b7160e01b600052604160045260246000fd5b60c081019081106001600160401b0382111762003b9b57604052565b61010081019081106001600160401b0382111762003b9b57604052565b604081019081106001600160401b0382111762003b9b57604052565b602081019081106001600160401b0382111762003b9b57604052565b606081019081106001600160401b0382111762003b9b57604052565b601f909101601f19168101906001600160401b0382119082101762003b9b57604052565b6001600160401b03811162003b9b5760051b60200190565b3590811515820362003b6557565b81601f8201121562003b655780359162003ca28362003c62565b9262003cb2604051948562003c3e565b808452602092838086019260051b82010192831162003b65578301905b82821062003cde575050505090565b83809162003cec8462003c7a565b81520191019062003ccf565b6004111562003d0357565b634e487b7160e01b600052602160045260246000fd5b6020908160408183019282815285518094520193019160005b82811062003d41575050505090565b83516001600160a01b03168552938101939281019260010162003d32565b90600382101562003d035752565b60005b83811062003d815750506000910152565b818101518382015260200162003d70565b9060209162003dad8151809281855285808601910162003d6d565b601f01601f1916010190565b6005111562003d0357565b90815180825260208080930193019160005b82811062003de5575050505090565b83518552938101939281019260010162003dd6565b90815180825260208080930193019160005b82811062003e1b575050505090565b83516001600160a01b03168552938101939281019260010162003e0c565b90815180825260208092019182818360051b85019501936000915b84831062003e655750505050505090565b909192939495848062003e8183856001950387528a5162003d92565b980193019301919493929062003e54565b90815180825260208092019182818360051b82019501936000915b84831062003ebe5750505050505090565b909192939495848062003eda83856001950387528a5162003dc4565b980193019301919493929062003ead565b90815180825260208092019182818360051b82019501936000915b84831062003f175750505050505090565b909192939495848062003f3383856001950387528a5162003dfa565b980193019301919493929062003f06565b9060208251918281520190819060208160051b84019401926000905b82821062003f7057505050505090565b909192939481810385528551906101008082018351600681101562003d0357835260208401516020840152604084015191604084015281518091526101206020818501918360051b86010193019160005b8181106200402b575050505060019260209262003ff7849360608085015190840152608080850151908483039085015262003d92565b9160a08082015115159083015260c08082015115159083015260e08091015115159101529701950192019092919262003f60565b9091929361011f9c9b9c19868203018452845190815181526020820151620040538162003db9565b60208201526040820151620040688162003cf8565b60408201526060820151603d81101562003d0357606082015260a06200409e608084015160c0608085015260c084019062003dc4565b9201519060a081840391015260a06200411d6200410a620040f7620040e4620040d1865160c0895260c089019062003dc4565b602087015188820360208a015262003dfa565b6040860151878203604089015262003e39565b6060850151868203606088015262003e92565b6080840151858203608087015262003eeb565b9101519160a081830391015281519081815260208101906020808460051b8301019401926000915b8183106200416a5750505050506020806001929e9d9e96019401910191909162003fc1565b90919293946020806200418a600193601f19868203018952895162003e39565b970195019301919062004145565b9060405191828154918282526020928383019160005283600020936000905b828210620041d257505050620041d09250038362003c3e565b565b855484526001958601958895509381019390910190620041b7565b9060405191828154918282526020928383019160005283600020936000905b8282106200422557505050620041d09250038362003c3e565b85546001600160a01b0316845260019586019588955093810193909101906200420c565b90600182811c921680156200427b575b60208310146200426557565b634e487b7160e01b600052602260045260246000fd5b91607f169162004259565b90604051918260008254926200429c8462004249565b908184526001948581169081600014620043115750600114620042ca575b5050620041d09250038362003c3e565b9093915060005260209081600020936000915b818310620042f8575050620041d093508201013880620042ba565b85548884018501529485019487945091830191620042dd565b915050620041d094506020925060ff191682840152151560051b8201013880620042ba565b908154620043448162003c62565b9262004354604051948562003c3e565b818452600090815260208082208186015b84841062004374575050505050565b6001838192620043848562004286565b81520192019301929062004365565b60405190919060e081016001600160401b0381118282101762003b9b5760405260c060ff60068395620043c68162004198565b85526001810154602086015260028101546040860152600381015460608601528260048201541615156080860152620044026005820162004286565b60a08601520154161515910152565b600682101562003d035752565b603d82101562003d035752565b908154620044398162003c62565b9262004449604051948562003c3e565b818452600090815260208082208186015b84841062004469575050505050565b6001838192620044798562004198565b8152019201930192906200445a565b908154620044968162003c62565b92620044a6604051948562003c3e565b818452600090815260208082208186015b848410620044c6575050505050565b6001838192620044d685620041ed565b815201920193019290620044b7565b9060405191620044f58362003bb1565b82620045018262004198565b81526001600562004514828501620041ed565b93602094858501526200452a6002820162004336565b60408501526200453d600382016200442b565b6060850152620045506004820162004488565b608085015201805490620045648262003c62565b9462004574604051968762003c3e565b82865260009182528082208187015b848410620045975750505050505060a00152565b85838192620045a68562004336565b81520192019301929062004583565b906020604082019260018060a01b0381511683520151916040602083015282518091526060820190602060608260051b8501019401926000905b828210620045ff57505050505090565b9091929394605f19828203018552855160018060a01b038151168252602081015190602282101562003d03576040916020840152015190606060408201526200468d620046766200465f8451610120606086015261018085019062003dc4565b6020850151848203605f1901608086015262003dfa565b6040840151838203605f190160a085015262003e39565b606083015190605f198382030160c0840152602080835192838152019201906000905b80821062004a3457505050608083015190605f198382030160e0840152815180825260208201906020808260051b85010194019260005b828110620049b057505050505060a083015190605f1983820301610100840152815190818152602081016020808460051b8401019401926000925b818410620047d257505050505060c083015190605f1983820301610120840152602080835192838152019201906000905b808210620047ae57505050620047a08360209361010062004789869560e06001990151605f198583030161014086015262003e92565b92015190610160605f198285030191015262003eeb565b9701950193920190620045ef565b9091926020806001928651620047c48162003db9565b815201940192019062004753565b9091929394601f9d9c9d198282030184528551908151600681101562003d03578152602082015160208201526040820151610100604083015261010082018151809152610120830160206101208360051b8601019301916000905b8082106200489857505050509d9e9d8260209260e0806200486886956060600199015160608601526080860151858203608087015262003d92565b9360a0810151151560a085015260c0810151151560c0850152015115159101529701940194019293919062004722565b9091929361011f19868203018452845190815181526020820151620048bd8162003db9565b60208201526040820151620048d28162003cf8565b60408201526060820151603d81101562003d0357606082015260a062004908608084015160c0608085015260c084019062003dc4565b9201519060a081840391015260a06200493b6200410a620040f7620040e4620040d1865160c0895260c089019062003dc4565b9101519160a0818303910152815180825260208201906020808260051b8501019401926000915b80831062004982575050505050602080600192960194019201906200482d565b9091929394602080620049a2600193601f19878203018952895162003e39565b970195019301919062004962565b9091929394602080600192601f1986820301885288519060c08062004a1e620049e3855160e0865260e086019062003dc4565b8686015187860152604086015160408601526060860151606086015260808601511515608086015260a086015185820360a087015262003d92565b93015115159101529701950193929101620046e7565b909192602080600192865115158152019401920190620046b0565b81601f8201121562003b655780359162004a698362003c62565b9262004a79604051948562003c3e565b808452602092838086019260051b82010192831162003b65578301905b82821062004aa5575050505090565b8135815290830190830162004a96565b81601f8201121562003b655780359162004acf8362003c62565b9262004adf604051948562003c3e565b808452602092838086019260051b82010192831162003b65578301905b82821062004b0b575050505090565b83809162004b198462003b6a565b81520191019062004afc565b81601f8201121562003b65578035906001600160401b03821162003b9b576040519262004b5d601f8401601f19166020018562003c3e565b8284526020838301011162003b6557816000926020809301838601378301015290565b9080601f8301121562003b655781359062004b9b8262003c62565b9262004bab604051948562003c3e565b828452602092838086019160051b8301019280841162003b6557848301915b84831062004bdb5750505050505090565b82356001600160401b03811162003b6557869162004bff8484809489010162004b25565b81520192019162004bca565b9080601f8301121562003b655781359062004c268262003c62565b9262004c36604051948562003c3e565b828452602092838086019160051b8301019280841162003b6557848301915b84831062004c665750505050505090565b82356001600160401b03811162003b6557869162004c8a8484809489010162004a4f565b81520192019162004c55565b9080601f8301121562003b655781359062004cb18262003c62565b9262004cc1604051948562003c3e565b828452602092838086019160051b8301019280841162003b6557848301915b84831062004cf15750505050505090565b82356001600160401b03811162003b6557869162004d158484809489010162004ab5565b81520192019162004ce0565b9190826040918161056052806105a052031262003b655760408051929083016001600160401b0381118482101762003b9b5760405262004d62839162003b6a565b83526105605160208101356106408190526001600160401b03811162003b65576105a051910190601f8201121562003b6557359162004da18362003c62565b62004db0604051918262003c3e565b83815260208101610500526105a0516106405161056051019060208660051b8301011162003b6557602090959392949501915b61064051610560510160208760051b82010184101562005917578335906001600160401b03821162003b65578181016106a0526060601f198383016105a05103011262003b65576040516105208190529160608301906001600160401b03821184831017620051715762004e5f92602092604052010162003b6a565b905260406106a0510135602281101562003b655761052051602001526106a05160608101356106808190526001600160401b031062003b65576105a051610120606083013583018203601f19011262003b65576040516106008190526001600160401b036101208201908111908211176200517157610120016040526001600160401b0360608301358301602001351162003b655762004f0f916060810135016020818101359091010162004a4f565b6106005152610680516106a051016040810135906001600160401b03821162003b6557602062004f46926105a05192010162004ab5565b6106005160200152610680516106a051016001600160401b0360608201351162003b65576105a05162004f829160608101350160200162004b80565b6106005160400152610680516106a051016080810135906001600160401b03821162003b6557602062004fbc926105a05192010162003c88565b6106005160600152610680516106a05101936001600160401b0360a08601351162003b65576105a051603f60a0870135870101121562003b65576200500b602060a08701358701013562003c62565b956200501b604051978862003c3e565b60a0860135808701602090810135808a526105a051610680516106a051938c01989493019092019160059190911b82016040011162003b6557604001945b610680516106a0510160a08901359081019089016020013560051b810160400187101562005186578635906001600160401b03821162003b655701906105a0519060e09182603f19858303011262003b6557604051908382016001600160401b0381118382101762005171576040908152850135906001600160401b03821162003b65576040620050ed9287010162004a4f565b8152606084013560208201526080840135604082015260a0840135606082015260c0926200511d84860162003c7a565b6080830152840135926001600160401b03841162003b65576200516161010060209662005155889760406105a0519184010162004b25565b60a08601520162003c7a565b9082015281520195019462005059565b60246000634e487b7160e01b81526041600452fd5b5050949793509450946080610600510152610680516106a0510160c08101356105e05260018060401b0360c08201351162003b65576105a0519060c08101350190603f8201121562003b6557620051ea6020620051f8920135806105c05262003c62565b604051806105405262003c3e565b610540516105c051905260206105405101610660526105a0516105c05160051b9060406105e051610680516106a0510101928301011162003b65576040016106c05292939092905b6105c05160051b6105e051610680516106a05101019060406106c05191830101811015620057865780356105808190526001600160401b031062003b6557610100603f19823584016105a05103011262003b6557604051610620819052916101008301916001600160401b03831184841017620051715760409283523501013590600682101562003b6557526060610580516105e051610680516106a05101010101356020610620510152610580516105e051610680516106a0510101019460018060401b0360808701351162003b65576105a051605f6080880135880101121562003b65576200534d6200533f604060808901358901013562003c62565b604051806106e05262003c3e565b6106e080516080880135808901604001359182905291516105a051610580516105e051610680516106a0516020959095019a96940101019091019160051b82016060011162003b6557606001945b610580516105e051610680516106a05101010160808901359081019089016040013560051b81016060018710156200566b578635906001600160401b03821162003b655701605f1960c081836105a05103011262003b655760405191620054028362003bb1565b606081013583526080810135600581101562003b6557602084015260a0810135600481101562003b6557604084015260c0810135603d81101562003b6557606084015260e08101356001600160401b03811162003b65576105a0516200546d91830160600162004a4f565b6080840152610100810135916001600160401b03831162003b655760c0908383016105a05103011262003b655760405191620054a98362003bb1565b818101606001356001600160401b03811162003b65576105a051620054d5918484010160600162004a4f565b8352818101608001356001600160401b03811162003b65576105a05162005503918484010160600162004ab5565b602084015281810160a001356001600160401b03811162003b65576105a05162005534918484010160600162004b80565b604084015281810160c001356001600160401b03811162003b65576105a05162005565918484010160600162004c0b565b60608401526001600160401b0382820160e001351162003b65576105a0516200559a9083830160e08101350160600162004c96565b60808401528181016101000135906001600160401b03821162003b65576105a05192010190607f8201121562003b6557606081013590620055db8262003c62565b91620055eb604051938462003c3e565b808352602083019160806105a0519260051b82010191821162003b655760808101925b82841062005635575050505060a0808301919091528201528152602095860195016200539b565b83356001600160401b03811162003b65576020916200565f839260806105a0519187010162004b80565b8152019301926200560e565b5050935093919094506106e051604061062051015260a0610580516105e051610680516106a05101010101356060610620510152610580516105e051610680516106a05101010160018060401b0360c08201351162003b65576105a051620056dc9160c08101350160400162004b25565b608061062051015260e06200570581610580516105e051610680516106a0510101010162003c7a565b60a06106205101526200572e610100610580516105e051610680516106a0510101010162003c7a565b60c061062051015262005757610120610580516105e051610680516106a0510101010162003c7a565b90610620510152610620516106605152602061066051016106605260206106c051016106c05290929362005240565b5050610540516106005160a00152610680516106a05193969495929301906001600160401b0360e08301351162003b65576105a0519560e0830135830196603f8801121562003b6557620057de602088013562003c62565b94620057ee604051968762003c3e565b6020888101358088526105a051610680516106a051938a0198930160e0880135019160051b82016040011162003b6557604001955b604060208b013560051b60e0880135610680516106a05101010101871015620058625760058735101562003b6557863581526020968701960162005823565b509592989450959250955060c0610600510152610680516106a051019061010091828101359060018060401b03821162003b65576020620058aa926105a05192010162004c0b565b6106005160e00152610680516106a05101916101208301356001600160401b03811162003b65576105a051602094620058e69201850162004c96565b9061060051015261060051604061052051015261052051610500515281610500510161050052019193949262004de3565b50945091602091500152565b90620041d0604560405180947f496e76616c69642070726f6772616d20616464726573732e204d73672e73656e60208301526403232b91d160dd1b604083015262005978815180926020868601910162003d6d565b810103602581018552018362003c3e565b90620041d06040805180947f2c20616e642070726f6772616d206f70657261746f7220616464726573733a206020830152620059cf815180926020868601910162003d6d565b810103602081018552018362003c3e565b6020620041d091939293604051948162005a04879351809286808701910162003d6d565b820162005a1a8251809386808501910162003d6d565b0103808552018362003c3e565b1562005a305750565b60405162461bcd60e51b81526020600482015290819062005a5690602483019062003d92565b0390fd5b6000198114620032295760010190565b80511562005a785760200190565b634e487b7160e01b600052603260045260246000fd5b80516001101562005a785760400190565b80516002101562005a785760600190565b805182101562005a785760209160051b010190565b9062005ad18262003c62565b60409062005ae28251918262003c3e565b838152809362005af5601f199162003c62565b019160005b83811062005b085750505050565b602090825162005b188162003bcd565b6000815282600081830152606080868401526000818401526080830152600060a0830152600060c0830152600060e083015282860101520162005afa565b81811062005b62575050565b6000815560010162005b56565b8054600082558062005b7f575050565b620041d09160005260206000209081019062005b56565b90600160401b811162003b9b5781549080835581811062005bb657505050565b620041d0926000526020600020918201910162005b56565b600160401b811162003b9b576202711b9081549080835581811062005bb657505050565b600160401b811162003b9b57620138889081549080835581811062005bb657505050565b62005c22815462004249565b908162005c2d575050565b81601f6000931160011462005c40575055565b8183526020832062005c5e91601f0160051c81019060010162005b56565b8160208120915555565b805490600081558162005c79575050565b6000526020600020908101905b81811062005c92575050565b8062005ca060019262005c16565b0162005c86565b90600160401b811162003b9b5781549181815582821062005cc757505050565b600052602060002091820191015b81811062005ce1575050565b8062005cef60019262005c16565b0162005cd5565b805490600081558162005d07575050565b6000526020600020908101905b81811062005d20575050565b8062005d2e60019262005b6f565b0162005d14565b90600160401b811162003b9b5781549181815582821062005d5557505050565b600052602060002091820191015b81811062005d6f575050565b8062005d7d60019262005b6f565b0162005d63565b805490600081558162005d95575050565b6000526020600020908101905b81811062005dae575050565b8062005dbc60019262005c68565b0162005da2565b90600160401b811162003b9b5781549181815582821062005de357505050565b600052602060002091820191015b81811062005dfd575050565b8062005e0b60019262005c68565b0162005df1565b805460008083558162005e2457505050565b600992828402928484040362005ec157815260208120918201915b82811062005e4d5750505050565b808285925582600182015562005e666002820162005b6f565b62005e746003820162005b6f565b62005e826004820162005b6f565b62005e906005820162005c68565b62005e9e6006820162005cf6565b62005eac6007820162005cf6565b62005eba6008820162005d84565b0162005e3f565b634e487b7160e01b82526011600452602482fd5b600160401b821162003b9b5780549082815581831062005ef457505050565b600992828402928484040362003229578084029084820403620032295760009182526020822092830192015b82811062005f2e5750505050565b808285925582600182015562005f476002820162005b6f565b62005f556003820162005b6f565b62005f636004820162005b6f565b62005f716005820162005c68565b62005f7f6006820162005cf6565b62005f8d6007820162005cf6565b62005f9b6008820162005d84565b0162005f20565b51600681101562003d035790565b90600681101562003d035760ff80198354169116179055565b9062005fd58162003db9565b60ff80198354169116179055565b9062005fef8162003cf8565b61ff0082549160081b169061ff001916179055565b90603d81101562003d035762ff000082549160101b169062ff00001916179055565b9190601f81116200603657505050565b620041d0926000526020600020906020601f840160051c8301931062006065575b601f0160051c019062005b56565b909150819062006057565b9060ff801983541691151516179055565b9061ff00825491151560081b169061ff001916179055565b9062ff0000825491151560101b169062ff00001916179055565b8151600681101562003d0357620060cb908262005fb0565b602082015160018201556002810160408301516020815191620060ef838562005ed5565b019160005260206000206000925b828410620062375750505050606082015160038201556080820151805160048301916001600160401b03821162003b9b5762006146826200613f855462004249565b8562006026565b602090601f8311600114620061bf579282600593620041d097969360e096600092620061b3575b50508160011b916000199060031b1c19161790555b01916200619660a082015115158462006070565b620061a860c082015115158462006081565b015115159062006099565b0151905038806200616d565b90601f198316918460005260206000209260005b8181106200621e575093620041d097969360e09693600193836005981062006204575b505050811b01905562006182565b015160001960f88460031b161c19169055388080620061f6565b92936020600181928786015181550195019301620061d3565b805180518355600183016200625c6020830151620062558162003db9565b8262005fc9565b620062776040830151620062708162003cf8565b8262005fe3565b6060820151603d81101562003d0357620062919162006004565b608081015180519060028501906001600160401b03831162003b9b57602090620062bc848462005b96565b0190600052602060002060005b83811062006762575050505060a0015180518051906001600160401b03821162003b9b576020600386019162006300848462005b96565b0190600052602060002060005b8381106200674d575050505060208101518051906001600160401b03821162003b9b576020600486019162006343848462005b96565b0190600052602060002060005b8381106200672f5750505050600583016040820151602081519162006376838562005ca7565b019160005260206000206000925b8284106200663e57505050506006830160608201516020815191620063aa838562005d35565b019160005260206000206000925b828410620065da57505050506007830160808201516020815191620063de838562005d35565b019160005260206000206000925b8284106200656d575050505060a060088401910151602081519162006412838562005dc3565b01916000526020600020916000905b8282106200644157505050506009602060019201920193019290620060fd565b8051602081519162006454838862005ca7565b0190856000526020600020916000905b8282106200648357505050506001602081920194019101909262006421565b80518051906001600160401b03821162003b9b57620064a882620013e3885462004249565b602090601f8311600114620064f8579282600194936020938695600092620064ec575b5050600019600383901b1c191690841b1787555b0194019101909262006464565b015190503880620064cb565b908660005260206000209160005b601f198516811062006554575083602093600196938796938794601f198116106200653a575b505050811b018755620064df565b015160001960f88460031b161c191690553880806200652c565b9192602060018192868501518155019401920162006506565b80518051906001600160401b03821162003b9b5760209062006590838662005b96565b0183600052602060002060005b838110620065bc575050505060016020819201920193019290620063ec565b82516001600160a01b0316818301556020909201916001016200659d565b80518051906001600160401b03821162003b9b57602090620065fd838662005b96565b0183600052602060002060005b83811062006629575050505060016020819201920193019290620063b8565b6001906020845194019381840155016200660a565b80518051906001600160401b03821162003b9b576200666a8262006663865462004249565b8662006026565b602090601f8311600114620066ba579282600194936020938695600092620066ae575b5050600019600383901b1c191690841b1785555b0192019301929062006384565b0151905038806200668d565b908460005260206000209160005b601f198516811062006716575083602093600196938796938794601f19811610620066fc575b505050811b018555620066a1565b015160001960f88460031b161c19169055388080620066ee565b91926020600181928685015181550194019201620066c8565b82516001600160a01b03168183015560209092019160010162006350565b6001906020845194019381840155016200630d565b600190602084519401938184015501620062c9565b90620067838262003c62565b62006792604051918262003c3e565b8281528092620067a5601f199162003c62565b0190602036910137565b62013883805482101562005a78576000526006602060002091020190600090565b62027116805482101562005a78576000526006602060002091020190600090565b62013882805482101562005a78576000526006602060002091020190600090565b62027115805482101562005a78576000526006602060002091020190600090565b620138828054600160401b81101562003b9b576200685791600182019055620067f1565b9190916200686a57620041d091620060b3565b634e487b7160e01b600052600060045260246000fd5b620138838054600160401b81101562003b9b576200685791600182019055620067af565b620271168054600160401b81101562003b9b576200685791600182019055620067d0565b620271158054600160401b81101562003b9b57620068579160018201905562006812565b15620068f457565b60405162461bcd60e51b815260206004820152603760248201527f73756d4469766964656e64576569676874466f72546f6b656e436c6173733a206044820152766469766964656e64576569676874206f766572666c6f7760481b6064820152608490fd5b61271081101562005a78576200350581620017676002620069809460031b01549162006b44565b90565b81156200698e570490565b634e487b7160e01b600052601260045260246000fd5b908115620069d1576064620069bd818402938462006983565b03620069c95760019190565b600091508190565b60019150600090565b91908215620069f257620069bd818402938462006983565b5060019150600090565b62013886805482101562005a785760005260206000200190600090565b62013881805482101562005a785760005260206000200190600090565b6202711d805482101562005a785760005260206000200190600090565b6201388a805482101562005a785760005260206000200190600090565b62027119805482101562005a785760005260206000200190600090565b6202711b805482101562005a785760005260206000200190600090565b62013888805482101562005a785760005260206000200190600090565b805482101562005a785760005260206000200190600090565b1562006ae857565b60405162461bcd60e51b815260206004820152602e60248201527f746f74616c546f6b656e73506572546f6b656e436c6173733a20746f74616c5460448201526d6f6b656e73206f766572666c6f7760901b6064820152608490fd5b612710811015908162005a7857600390811b906004928383019182549260009582879601935b85871062006b7c575050505050505090565b97969091929394959762006bde5762006bd28862006bca62006ba46200046b9a9b8762006ac7565b905490881b1c6001600160a01b0316600090815260208990526040812054909462006c06565b999062006ae0565b95949392919062006b6a565b603282634e487b7160e01b6000525260246000fd5b9060018201918210620069c95760019190565b91908201918210620069c95760019190565b6201388b5462006c2b6200353b62012d29565b91905062006c3862012ded565b5060009081925b81841062006c5a575b62006c5593500462006c94565b905090565b9160ff60078560031b0154161562006c8d5783620035d862006c8692620035d16200046b969762006959565b9262006c3f565b9162006c48565b90801562006cac5762006ca79162006983565b600191565b5050600090600090565b6201388180549190600160401b83101562003b9b578262006ce1916001620041d09501905562006a19565b9080546001600160a01b0360039390931b83811b80199092169390941690931b909216179055565b6040519062006d188262003bea565b60188252772a343290383937b3b930b69034b99032bc32b1baba32b21760411b6020830152565b600091825b6020808401908151805187101562006ed5578162006d678862006d6f9362005ab0565b5101620074c6565b6022928382101562003d0357601a91820362006e2d578762006d92915162005ab0565b5192828401519081101562003d03570362006deb57509362006ddc62006de49262006dd462006dcd60e060406200046b9a0151015162005a6a565b5162005a6a565b519062006c06565b9590620074d4565b9262006d44565b6064906040519062461bcd60e51b82526004820152601b60248201527a2a34329037b831b7b2329034b9903737ba102820acafa1a0a9a41760291b6044820152fd5b9291905062006e468162006d6789869a979a5162005ab0565b8281101562003d035760140362006e7f5750509062006ddc6200046b95620035d162006e788462006de4965162005ab0565b5162007521565b62006e919062006d6785855162005ab0565b9081101562003d035760151462006eaf575b5062006de49062005a5a565b9062006ddc62006ece95620035d162006e788462006de4965162005ab0565b9062006ea3565b50505090925080341060001462006f4b5760405162461bcd60e51b815260206004820152603760248201527f546865207061796d656e74206973206e6f7420656e6f7567682e205468652074604482015276037ba30b6103830bcb6b2b73a1039b437bab6321031329604d1b6064820152608490fd5b80341162007321575b5062027129805460ff811662006f6a8162003cf8565b6001810362006fa0575050508062006f9062006f8a62006f9693620075c8565b620075dd565b62007667565b6200698062006d09565b62006fab8162003cf8565b60028114808062007313575b156200709c575050505062006fcc81620075c8565b156200705d5762006fdd81620075c8565b15620070215762006fee9062007667565b60405162006ffc8162003bea565b60158152742a3432903b37ba329034b99032bc32b1baba32b21760591b602082015290565b60405162461bcd60e51b8152602060048201526014602482015273496e76616c696420766f74652070726f6772616d60601b6044820152606490fd5b60405162461bcd60e51b815260206004820152601760248201527624b73b30b634b2103b37ba34b73390383937b3b930b69760491b6044820152606490fd5b620070a78262003cf8565b6003821491828062007305575b1562007192575050505050620070ca81620075c8565b1562007142578062006f9062006f8a620070e493620075c8565b604051620070f28162003c22565b603a81527f5468652070656e64696e672070726f6772616d2069732065786563757465642060208201527930b33a32b9103b37ba34b7339030b7321030b8383937bb30b61760311b604082015290565b60405162461bcd60e51b815260206004820152602260248201527f496e76616c696420657865637574696e672070656e64696e672070726f677261604482015261369760f11b6064820152608490fd5b6200719d8162003cf8565b8180620072f6575b80620072e8575b15620071d657505050509062006f9691600360ff1982541617905562006f9062006f8a82620075c8565b620071e18162003cf8565b8215620072d3575b505080620072c4575b6200722b57505050604051620072088162003bea565b6013815272283937b3b930b6903a32b936b4b730ba32b21760691b602082015290565b60ff191660011790556200723f81620075c8565b1562007259578062006f9062006f8a62006f9693620075c8565b60405162461bcd60e51b815260206004820152603e60248201527f5b4572726f72203030335d5468652070726f6772616d206973206e6f7420612060448201527f76616c696420657865637574652070656e64696e672070726f6772616d2e00006064820152608490fd5b506202712854421015620071f2565b620072e091925062003cf8565b3880620071e9565b5062027128544210620071ac565b506202712754421015620071a5565b5062027128544210620070b4565b506202712754421062006fb7565b60018060a01b0390818351166000526201388590816020526040600020541562007418575b620073529034620074ac565b9015620073d4576200737590838551166000528260205260406000205462006c06565b92901562007393578351166000526020526040600020553862006f54565b60405162461bcd60e51b81526020600482015260196024820152782a3432903732bb903130b630b731b29037bb32b9333637bb9760391b6044820152606490fd5b60405162461bcd60e51b815260206004820152601c60248201527b2a3432903830bcb6b2b73a103932ba3ab9371037bb32b9333637bb9760211b6044820152606490fd5b6000908162013886928354915b82811062007471575b50156200743f575b50905062007346565b85518516600160401b82101562003b9b5762006ce182620073529560016200746a95019055620069fc565b3862007436565b866200747d82620069fc565b919054818b51169260031b1c1614620074a1576200749b9062005a5a565b62007425565b50506001386200742e565b9190828111620074bd576001920390565b50600091508190565b51602281101562003d035790565b15620074dc57565b60405162461bcd60e51b815260206004820152601f60248201527f54686520746f74616c207061796d656e7420697320746f6f206c617267652e006044820152606490fd5b6000805b604083019060e06200753b818451015162005a8e565b5151841015620075c057620075608462007559838651015162005a8e565b5162005ab0565b51925101519283516002101562005a7857620075af620075a9620075b793620075a1604096620075998660606200046b9b015162005ab0565b5190620069da565b9290620074d4565b62006c06565b9490620074d4565b91905062007525565b509250505090565b602001515115620075d857600190565b600090565b15620075e557565b60405162461bcd60e51b815260206004820152600f60248201526e496e76616c69642070726f6772616d60881b6044820152606490fd5b60809060208152602a60208201527f5468652070726f6772616d2069732064656e6965642062792074686520706c7560408201526967696e2073797374656d60b01b60608201520190565b6200767281620109d7565b516201045157600681101562003d035760038114620103f85780620076cf5760405162461bcd60e51b8152602060048201526016602482015275151a19481c1c9bd9dc985b481a5cc81a5b9d985b1a5960521b6044820152606490fd5b6004810362009b6b5750906000905b6020830151805183101562009b655782620076f99162005ab0565b516020810180516022908181101562003d03571562009b225781518181101562003d0357600103620079485750506040809101906200773e6101008351015162005a6a565b51926200776060e062007755818651015162005a6a565b519451015162005a8e565b519562007771855185511462011c60565b62007780855188511462011cc6565b60005b8551811015620078c65762007799818662005ab0565b51612710908181101562005a7857600160ff6007620077c19360031b01541615151462011d28565b620077cd828a62005ab0565b51620077da838862005ab0565b51908282101562005a78576006620077f89260031b01549062006c06565b9062007805848962005ab0565b51918383101562005a78576006620078229360031b015562011d80565b6200782e828a62005ab0565b51906200783c838862005ab0565b518181101562005a78576001600160a01b0393926200787c916003908662007865878e62005ab0565b5116600052811b0160205287600020549062006c06565b62007888848a62005ab0565b519283101562005a785760036200046b93620078c096620078aa878e62005ab0565b5116600052811b01602052876000205562011ddf565b62007783565b509392620078e391929650620078dc9062012c2b565b9262012b0f565b945192620078f18462003c06565b60008452600036813760005b83518110156200792b57806200046b6200791c62007925938762005ab0565b51878a620126f5565b620078fd565b50945092602092506200793f915062005a5a565b919050620076de565b819592939495518181101562003d035760020362007cdc5750506040809201908151938385015191620079a06200798460e08098015162005a6a565b519662007995818751015162005a8e565b519551015162005a9f565b5194835187510362007c8957835185510362007c3557835186510362007bde575060005b865181101562007bc857620079da818862005ab0565b5161271081101562005a7857620079fd60ff6007809360031b0154161562011e38565b62007a09828962005ab0565b5161271081101562005a785760031b01805460ff1916600117905562007a30818562005ab0565b5162007a3d828962005ab0565b519061271082101562005a78578051906001600160401b03821162003b9b5762007a808262007a7360058660031b015462004249565b60058660031b0162006026565b602090601f831160011462007b4d57600592916000918362007b41575b50508160011b916000199060031b1c1916179160031b01555b62007ac2818662005ab0565b5162007acf828962005ab0565b5161271081101562005a785760031b6001015562007aee818762005ab0565b5162007afb828962005ab0565b5161271081101562005a785760031b6002015562007b1a818862005ab0565b519061271082101562005a78576000600662007b3b9360031b015562005a5a565b620079c4565b01519050388062007a9d565b9060058460031b0160005260206000209160005b601f198516811062007baf5750918391600193600595601f1981161062007b95575b505050811b019160031b015562007ab6565b015160001960f88460031b161c1916905538808062007b83565b9192602060018192868501518155019401920162007b61565b509591509350602092506200793f915062005a5a565b5162461bcd60e51b815260206004820152603c6024820152600080516020620133bc83398151915260448201527b1b911a5d9a59195b9915d95a59da1d081a5cc81b9bdd08195c5d585b60221b6064820152608490fd5b5162461bcd60e51b81526020600482015260396024820152600080516020620133bc8339815191526044820152781b959bdd1a5b99d41bddd95c881a5cc81b9bdd08195c5d585b603a1b6064820152608490fd5b5162461bcd60e51b81526020600482015260386024820152600080516020620133bc8339815191526044820152771b925b99195e105c9c985e481a5cc81b9bdd08195c5d585b60421b6064820152608490fd5b8195929395518181101562003d0357600303620082d3575050604084019062007d0b6101008351015162005a6a565b519362007d2260e062007755818651015162005a6a565b519362007d3786518551146200046462012e52565b62007d4a86518651146200046462012e52565b60005b865181101562007db35762007d63818662005ab0565b519061271082101562005a7857600362007dad9260018060a01b038b5116600052811b016020526200046b60406000205462007da0838a62005ab0565b5111156200046462012f56565b62007d4d565b50909493919460005b855181101562007ee75762007dd2818662005ab0565b51906127108083101562005a7857600360018060a01b0393848c5116600052811b0160205262007e1560406000205462007e0d848962005ab0565b5190620074ac565b9062007e22848a62005ab0565b51918383101562005a7857600362007e5193878f5116600052811b016020526040600020556200046462012f56565b62007e5d828862005ab0565b518181101562005a78576003908462007e77858c62005ab0565b5116600052811b0160205262007e9860406000205462006dd4848962005ab0565b62007ea4848a62005ab0565b519283101562005a785760036200046b9362007ee19662007ec6878e62005ab0565b5116600052811b016020526040600020556200046462012fbb565b62007dbc565b5091509162007efe62007f05919695949662012c2b565b9562012b0f565b926040519462007f158662003bea565b6001865260203681880137516001600160a01b031662007f358662005a6a565b526000905b8651821015620082be5762007f50828862005ab0565b516101005262007f61855162006777565b9660009462007f71885162006777565b610260528594865b885181101562008048578a8962007fa96001600160a01b0362007f9d858462005ab0565b511661010051620129f8565b158062008002575b62007fca575b505062007fc49062005a5a565b62007f79565b9862007ff79162000b1382859c62007fee62007fc49760018060a01b039262005ab0565b51169262005ab0565b9790508a8962007fb7565b50505061271061010051101562005a78576001600160a01b0362008027828b62005ab0565b5116600052600361010051811b016020528a89604060002054151562007fb1565b509098949897969291939760005b8851811015620080ea5761271061010051101562005a78576001600160a01b0362008082828b62005ab0565b5116600052600361010051811b0160205260406000205415620080b1575b620080ab9062005a5a565b62008056565b99620080ab90620080e1906001600160a01b03620080d08e8d62005ab0565b511662000b13826102605162005ab0565b9a9050620080a0565b50985096949392919561010051612710811015806102005262005a785760031b6004015496620081256200811f878a620118f8565b62006777565b996000998a60c0525b6102005162005a785760c0518a811015620081df57620081626200817f9160006102005260046101005160031b0162006ac7565b90546102605160039290921b1c6001600160a01b03169062012aba565b156200819c575b6200819360c05162005a5a565b60c0526200812e565b99808c62000b13620081d893620081bf60c05160046101005160031b0162006ac7565b905460039190911b1c6001600160a01b03169262005ab0565b9962008186565b509a939794969299919850946000915b8383106200828457505050506102005162005a78578051906001600160401b03821162003b9b576020906200822e8360046101005160031b0162005b96565b0160046101005160031b01600052602060002060005b8381106200826657505050506200825b9062005a5a565b909295919562007f3a565b82516001600160a01b03168183015560209092019160010162008244565b620082b790620082b0906001600160a01b03620082a2868662005ab0565b511662000b13828962005ab0565b9262005a5a565b91620081ef565b919450506200793f9194506020925062005a5a565b819593949295518181101562003d03576004036200855c5750506040809201610100946200831562008309878451015162005a6a565b51968351015162005a8e565b51946200832c60e062007755818651015162005a6a565b51936200834188518851146200046462012e52565b6200835488518551146200046462012e52565b6200836788518651146200046462012e52565b60005b8851811015620083cf5762008380818662005ab0565b519061271082101562005a7857620083c9916003906001600160a01b03620083a9848e62005ab0565b5116600052811b016020526200046b886000205462007da0838a62005ab0565b6200836a565b50909691959294939660005b83518110156200851057620083f1818862005ab0565b5190612710918281101562005a78576001600160a01b03906003908262008419858a62005ab0565b5116600052811b016020526200843a8b62007e0d848b600020549262005ab0565b9062008447848c62005ab0565b51918583101562005a7857600362008480938562008466888d62005ab0565b5116600052811b016020528a600020556200046462012f56565b6200848c828a62005ab0565b518381101562005a785760039082620084a6858b62005ab0565b5116600052811b01602052620084c78b62006dd4848b600020549262005ab0565b919050620084d6838b62005ab0565b519384101562005a78576200850a93600391620084f4858b62005ab0565b5116600052811b01602052876000205562005a5a565b620083db565b50946200853392975062007efe919394506200852c9062012c2b565b9362012b0f565b9260005b83518110156200792b57806200046b6200791c62008556938762005ab0565b62008537565b819594939551908082101562003d03576005918203620087725750505060409182850190620085a060e062008595818551015162005a6a565b519351015162005a8e565b51928251845103620087215760005b83518110156200860757620085c5818562005ab0565b519061271082101562005a78576003620086019260018060a01b038b5116600052811b016020526200046b876000205462007da0838962005ab0565b620085af565b509092919260005b8451811015620086a25762008625818662005ab0565b51906127108083101562005a7857600360018060a01b0393848c5116600052811b016020526200865f886000205462007e0d848962005ab0565b6200866b848a62005ab0565b519283101562005a785760036200046b936200869c968e5116600052811b0160205289600020556200046462012f56565b6200860f565b50959392620086b391925062012c2b565b91805193620086c28562003bea565b6001855260203681870137516001600160a01b0316620086e28562005a6a565b525194620086f08662003c06565b60008652600036813760005b83518110156200792b57806200046b6200791c6200871b938762005ab0565b620086fc565b845162461bcd60e51b815260206004820152603560248201526000805160206201339c833981519152604482015274195b905b5bdd5b9d081a5cc81b9bdd08195c5d585b605a1b6064820152608490fd5b82969496518181101562003d0357600603620089db575050506040809201620087a16101008251015162005a6a565b5194620087b860e062008595818551015162005a6a565b519286518351036200898a5786518451036200893e5760005b87518110156200883657620087e7818562005ab0565b519061271082101562005a785762008830916003906001600160a01b0362008810848d62005ab0565b5116600052811b016020526200046b876000205462007da0838962005ab0565b620087d1565b509092919260005b8751811015620088ea5762008854818662005ab0565b516127108082101562005a78576001600160a01b039291600390846200887b858e62005ab0565b5116600052811b016020526200889b886000205462007e0d848962005ab0565b620088a7848a62005ab0565b519283101562005a785760036200046b93620088e496620088ca8f889062005ab0565b5116600052811b0160205289600020556200046462012f56565b6200883e565b509592620088ff919250620078dc9062012c2b565b9251946200890d8662003c06565b60008652600036813760005b83518110156200792b57806200046b6200791c62008938938762005ab0565b62008919565b845162461bcd60e51b815260206004820152603060248201526000805160206201343c83398151915260448201526f1b9d1cc81a5cc81b9bdd08195c5d585b60821b6064820152608490fd5b845162461bcd60e51b815260206004820152603560248201526000805160206201333c8339815191526044820152741b90db185cdcd95cc81a5cc81b9bdd08195c5d585b605a1b6064820152608490fd5b8296949396518181101562003d035760070362008c4857505050604090939193019062008a0e6101008351015162005a6a565b5193604062008a2260e08551015162005a6a565b51935101519162008a3b86518551146200046462012e52565b6000915b865183101562008c33576001600160a01b0362008a5d848962005ab0565b511660005262013880928360205262008a8360ff60406000205416156200046462012f23565b62008a8f818662005ab0565b5162008a9c828862005ab0565b51906040519562008aad8762003b7f565b600187526000602088019081526040880192835260608801939093526001600160a01b0362008add858d62005ab0565b511660005260205262008b0860406000209262008afe885115158562006070565b5115158362006081565b5180519095906001600160401b03811162003b9b5762008b3b8162008b31600186015462004249565b6001860162006026565b602096601f821160011462008bb357918160609262008b9f97989960029560009262008ba7575b50508160011b916000199060031b1c19161760018501555b01519101556200046b6001600160a01b0362008b97838b62005ab0565b511662006cb6565b919062008a3f565b01519050388062008b62565b966001840160005260206000209760005b601f198416811062008c1a57508262008b9f97989960029593600193606096601f1981161062008c00575b505050811b01600185015562008b7a565b015160001960f88460031b161c1916905538808062008bef565b818301518a556001909901986020928301920162008bc4565b9550939050602092506200793f915062005a5a565b829694959651928184101562003d0357600893840362008d2c575050506101009262008c7c84604080950151015162005a6a565b519460005b865181101562007bc85762008d2690876001600160a01b038062008ca6848462005ab0565b511660005262008cfd888262008ce18662013880968760205262008cdb600160ff809760002054161515146200046462012e82565b62005ab0565b5116600052836020528960002054891c16156200046462012eea565b62008d09838b62005ab0565b5116600052602052856000208761ff001982541617905562005a5a565b62008c81565b8095939495518281101562003d035760090362008e1b5750505062008d5b610100604080950151015162005a6a565b519360005b855181101562008e065762008e0090866001600160a01b038062008d85848462005ab0565b511660005262008dd96001898362008dbb8762013880978860205262008cdb8660ff809760002054161515146200046462012e82565b5116600052846020528a600020548a1c161515146200046462012eb5565b62008de5838a62005ab0565b51166000526020528560002061ff0019815416905562005a5a565b62008d60565b5094909350602092506200793f915062005a5a565b80969593949296518281101562003d0357600f0362008f565750505060400160a09182825101519360005b855181101562007bc85760e062008e6282878751015162005ab0565b5101511562008eed5762008e8662008e7f82878751015162005ab0565b5162006833565b620138828054600019929190838101908111620032295762008ea98a91620067f1565b5001805461ff0019166101001790555491820191821162003229578762008ed462008ee793620067f1565b5001805460ff1916600117905562005a5a565b62008e46565b62008f0862008f0182878751015162005ab0565b5162006880565b620138828054600019929190838101908111620032295762008f2b8a91620067af565b5001805461ff0019166101001790555491820191821162003229578762008ed462008ee793620067af565b80518281101562003d0357600c036200907a5750505060400160a09182825101519360005b855181101562007bc85760e062008f9782878751015162005ab0565b51015115620090185762008fb462008e7f82878751015162005ab0565b620138828054600019929190838101908111620032295762008fd78a91620067f1565b5001805461ff00191661010017905554918201918211620032295787620090026200901293620067f1565b5001805460ff1916905562005a5a565b62008f7b565b6200902c62008f0182878751015162005ab0565b62013882805460001992919083810190811162003229576200904f8a91620067af565b5001805461ff00191661010017905554918201918211620032295787620090026200901293620067af565b8097969593929497518281101562003d0357600d03620091d4575050604001946060620090ac60e08851015162005a6a565b519651015191620090c187518451146201199f565b60005b8751811015620091be578080878a620090e26200915f958962005ab0565b51156200916557620091436200912a848362009115620091086200914e98889762005ab0565b5162013882541162011a28565b62008cdb8d620091316200912a858562005ab0565b51620067f1565b509060ff9889920154901c1662011a80565b500154161562011ae1565b8662008ed46200912a838c62005ab0565b620090c4565b62009143620091a684836200919162009184620091ad98889762005ab0565b5162013883541162011a28565b62008cdb8d62009131620091a6858562005ab0565b51620067af565b8662008ed4620091a6838c62005ab0565b509550939050602092506200793f915062005a5a565b8097949397518281101562003d0357600e03620092bb5750506040019160606200920360e08551015162005a6a565b5193510151956200921884518851146201199f565b60005b8451811015620091be57806200923662009242928a62005ab0565b51620092485762005a5a565b6200921b565b6200926562009258828862005ab0565b5162013882541162011b42565b620092aa876200928f6200927e6200912a858b62005ab0565b5060ff9283910154891c1662011b9b565b88620092a06200912a858b62005ab0565b5001541662011bfd565b86620090026200912a838962005ab0565b91939450915080518281101562003d03576010036200935f5750506040015190620092ef60e060c084015193015162005a6a565b51936200930483518651146200046462012e52565b60005b83518110156200934c57806200046b6200932662009346938762005ab0565b51620093328162003db9565b6200933e838a62005ab0565b519062011906565b62009307565b50935091602091506200793f9062005a5a565b80949394518281101562003d0357601a036200949e5750506200938b60e0604080930151015162005a6a565b5160038151036200945b57620093a18162005a6a565b5191620093ba620093b28362005a8e565b519262005a9f565b5191620094215750916200793f916001602094146000146200941a57620093f990620093ec6201388d91825462006c06565b9091556200046462012ded565b6200046b6201388e6200940d815462006bf3565b9091556200046462012e27565b5062005a5a565b5162461bcd60e51b8152602060048201526014602482015273496e76616c6964207061796d656e74207479706560601b6044820152606490fd5b815162461bcd60e51b815260206004820152601c60248201527b496e76616c6964206e756d626572206f6620706172616d657465727360201b6044820152606490fd5b80949394518281101562003d0357601b036200991d57505050620094d96201388b546200354d620094ce62012d29565b612710831062005a27565b5050620094e562012ded565b506000805b6127108110620098b8575b50506200950162006c18565b90620095116202712a5462006777565b9060009384905b612710821015620098ad578160031b9260ff6007850154161562009669576000976002850154156200965757889798975b62005a785760048501548810156200963d576200956a886004870162006ac7565b9054600391821b1c6001600160a01b0316600081815291870160205260409182902054919a916200959d908a90620069da565b9b90620095a962012ded565b620095b49162005a27565b60009b6002890154620095c791620069da565b90620095d262012ded565b620095dd9162005a27565b828d5262013887602052818d205490620095f79162006c06565b90918d20556200960662012ded565b620096119162005a27565b6200961d828962005ab0565b52620096299062005a5a565b97620096359062005a5a565b979862009549565b929093506200964e91965062005a5a565b90959462009518565b929093506200964e9196975062005a5a565b959392509350505b6200967c8262006777565b91600091825b82811062009817575050506201388890815492620096a56200811f8584620118f8565b9360009081905b808210620097dc57505060005b838110620097385750508351939150506001600160401b03831162003b9b57602090620096e68462005bf2565b0190600052602060002060005b8381106200971a57505050506200793f60209160006201388d5560006201388e5562005a5a565b82516001600160a01b031681830155602090920191600101620096f3565b6000805b83811062009794575b50156200975e575b620097589062005a5a565b620096b9565b9062009758906200978b906001600160a01b036200977d858762005ab0565b511662000b13828a62005ab0565b9190506200974d565b6001600160a01b0380620097a9858862005ab0565b511690620097b8838b62005ab0565b511614620097d157620097cb9062005a5a565b6200973c565b505060013862009745565b9091620082b06200981091620097f28562006aaa565b905460039190911b1c6001600160a01b031662000b13828b62005ab0565b90620096ac565b6000805b85811062009865575b50156200983d575b620098379062005a5a565b62009682565b9262009837906200985c906001600160a01b03620082a2878662005ab0565b9390506200982c565b6001600160a01b03806200987a858762005ab0565b51169062009889838a62005ab0565b511614620098a2576200989c9062005a5a565b6200981b565b505060013862009824565b935050929062009671565b8060031b9060ff60078301541615620099165762009904620075a96200046b94620098f862009910956002620098ee8762006959565b91015490620069da565b92906200046462012ded565b93906200046462012ded565b620094ea565b50620094f5565b80518281101562003d035760140362009abd575050604080910190620099496101008351015162005a6a565b51926200996060e062007755818651015162005a6a565b519562009971855185511462011c60565b62009980855188511462011cc6565b60005b855181101562009a685762009999818962005ab0565b51620099a6828762005ab0565b51612710918282101562005a78576006620099c79260031b01549062006c06565b90620099d4848962005ab0565b51918383101562005a78576006620099f19360031b015562011d80565b620099fd828a62005ab0565b519062009a0b838862005ab0565b518181101562005a78576001600160a01b03939262009a34916003908662007865878e62005ab0565b62009a40848a62005ab0565b519283101562005a785760036200046b9362009a6296620078aa878e62005ab0565b62009983565b50939262009a7e91929650620078dc9062012c2b565b94519262009a8c8462003c06565b60008452600036813760005b83518110156200792b57806200046b6200791c62009ab7938762005ab0565b62009a98565b939293519081101562003d035760150362009ae4576020916200046b6200793f9262011e84565b60405162461bcd60e51b8152602060048201526016602482015275496e76616c6964206f7065726174696f6e207479706560501b6044820152606490fd5b60405162461bcd60e51b815260206004820152601b60248201527a13dc195c985d1a5bdb881d1e5c19481a5cc81d5b9919599a5b9959602a1b6044820152606490fd5b50915050565b6002810362009b8f5760405162461bcd60e51b81528062005a56600482016200761c565b60011462009b9a5750565b9062009baa620138835462005ac5565b805190600160401b821162003b9b5762027116548262027116558083106201037c575b506020016202711660005260206000206000915b8383106201035b575050505060005b620138835481101562009c2a57806200046b62009c1162009c2493620067af565b5062009c1d83620067d0565b906201090c565b62009bf0565b5062009c3a620138825462005ac5565b805190600160401b821162003b9b576202711554826202711555808310620102be575b506020016202711560005260206000206000915b8383106201029d575050505060005b620138825481101562009cb357806200046b62009ca162009cad93620067f1565b5062009c1d8362006812565b62009c80565b5060005b6127108110158062009e7f57600160ff6201389a8460031b01541615151462009ced575b5062009ce79062005a5a565b62009cb7565b916000835b62005a7857620138978360031b015481101562009d5f5762009d569293506000928162009d298593620138978860031b0162006ac7565b9054600391821b1c6001600160a01b031660009081529087901b6201389601602052604081205562005a5a565b90939262009cf2565b50916040519062009d708262003c06565b6000825262005a78578051906001600160401b03821162003b9b5760209062009da283620138978660031b0162005b96565b01620138978360031b01600052602060002060005b83811062009e615750505050600381901b6201389a8101805460ff1916905560006201389382018190556201389482018190556201389582015562013898015462009ce7919062009e089062004249565b601f9081811162009e35575b50506000620138988260031b01556000620138998260031b01559062009cdb565b62009e5991620138988460031b016000526020600020910160051c81019062005b56565b388062009e14565b82516001600160a01b03168183015560209092019160010162009db7565b505060005b612710811062010208575060005b620138815481101562009eef578062009eaf62009ee99262006a19565b60018060a01b0391549060031b1c1660005262027113602052600060026040822082815562009ee16001820162005c16565b015562005a5a565b62009e92565b5062009eff620138815462006777565b8051906001600160401b03821162003b9b57600160401b821162003b9b576020906202711454836202711455808410620101e5575b500162027114600052602060002060005b838110620101c7575050505060005b620138815481101562009fc95762009f6c8162006a19565b9054620271145460039290921b1c6001600160a01b0316919081101562005a785762027114600052600080516020620133dc833981519152810180546001600160a01b03191690921790915562009fc39062005a5a565b62009f54565b509060005b62013881548110156200a08b578062009feb6200a0409262006a19565b9060018060a01b03918291549060031b1c1660005262013880602052604080600020916200a0198462006a19565b90549060031b1c1660005262027113602052600020908082036200a046575b505062005a5a565b62009fce565b600280916200a06c60ff6200a05f818454168762006070565b825460081c168562006081565b6200a07e600182016001860162010592565b015491015538806200a038565b5060005b6202711d548110156200a0df57806200a0ac6200a0d99262006a36565b60018060a01b0391549060031b1c166000526202711c6020526200046b6040600020606481019062005b56565b6200a08f565b506200a0ef6201388a5462006777565b8051906001600160401b03821162003b9b57600160401b821162003b9b576020906202711d54836202711d55808410620101a4575b50016202711d600052602060002060005b83811062010186575050505060005b6201388a548110156200a18857806200046b6200a1656200a1829362006a53565b905460039190911b1c6001600160a01b031662006ce18362006a36565b6200a144565b5060005b6201388a548110156200a21657806200a1a96200a1fd9262006a53565b9060018060a01b03918291549060031b1c1660005262013889602052604080600020916200a1d78462006a53565b90549060031b1c166000526202711c602052600020908082036200a20357505062005a5a565b6200a18c565b6200a20e91620109a0565b38806200a038565b506201388b546202711e556201388c546202711f556201388d5462027120556201388e5462027121556201388f546001600160401b03811162003b9b57600160401b811162003b9b57620271225481620271225580821062010157575b506202712260009081527f846ab89c81ea9339188216a1864da1a19ebe28d411cbec99efa70ca6d389710d80546000805160206201335c83398151915291905b848410620101355750505050506201389054600160401b811162003b9b576202712354816202712355808210620100f2575b506202712360009081526000805160206201337c8339815191527f7f73709277f72a9bc7b284375e83603a53394744e9fa86da811e86c2aa78e05e5b838310620100d457505062013891549150506001600160401b03811162003b9b57600160401b811162003b9b576202712454816202712455808210620100a5575b506202712460009081527f8f332db73d3937798ea82422156d059730b0b3058606439b57b7ae623e9453668054600080516020620133fc83398151915291905b8484106201008357505050505060ff6201389254161515620271259060ff8019835416911617905560005b62027119548110156200a41957806200a3ea6200a4139262006a70565b905460039190911b1c6001600160a01b0316600090815262027118602052604081205562005a5a565b6200a3cd565b506200a429620138865462006777565b8051906001600160401b03821162003b9b57600160401b821162003b9b57602090620271195483620271195580841062010060575b500162027119600052602060002060005b83811062010042575050505060005b62013886548110156200a4c257806200046b6200a49f6200a4bc93620069fc565b905460039190911b1c6001600160a01b031662006ce18362006a70565b6200a47e565b5060005b62013886548110156200a53457806200a4e36200a52e92620069fc565b9060018060a01b03918291549060031b1c166000526201388560205260408060002054916200a51284620069fc565b90549060031b1c16600052620271186020526000205562005a5a565b6200a4c6565b5060005b6202711b548110156200a58457806200a5556200a57e9262006a8d565b905460039190911b1c6001600160a01b031660009081526202711a602052604081205562005a5a565b6200a538565b506200a594620138885462006777565b8051906001600160401b03821162003b9b576020906200a5b48362005bce565b016202711b600052602060002060005b83811062010024575050505060005b62013888548110156200a61757806200046b6200a5f46200a6119362006aaa565b905460039190911b1c6001600160a01b031662006ce18362006a8d565b6200a5d3565b5060005b62013888548110156200a68957806200a6386200a6839262006aaa565b9060018060a01b03918291549060031b1c166000526201388760205260408060002054916200a6678462006aaa565b90549060031b1c166000526202711a6020526000205562005a5a565b6200a61b565b50906000905b602083015180518310156200e52e57826200a6aa9162005ab0565b516020810151602281101562003d03571562009b22576020810151602281101562003d03576001036200ac8957604001906200a6ec6101008351015162005a6a565b51936200a70360e062007755818651015162005a6a565b51916200a714865185511462011c60565b6200a723865184511462011cc6565b60005b86518110156200a886576200a73c818662005ab0565b5161271081101562005a7857600160ff6201389a6200a7649360031b01541615151462011d28565b6200a770818562005ab0565b516200a77d828762005ab0565b519061271082101562005a7857620138996200a79f9260031b01549062006c06565b906200a7ac838862005ab0565b519161271083101562005a7857620138996200a7cd9360031b015562011d80565b6200a7d9818562005ab0565b516200a7e6828762005ab0565b519061271082101562005a78576200a82a9162013896906001600160a01b036200a811868d62005ab0565b511660005260031b016020526040600020549062006c06565b91906200a838828862005ab0565b519061271082101562005a78576200a880936200046b9262013896906001600160a01b036200a868878f62005ab0565b511660005260031b0160205260406000205562011ddf565b6200a726565b50926200a89d9192506200852c9095949562012c2b565b916040516200a8ac8162003c06565b6000815260003681376000945b80518610156200ac6f576200a8cf868262005ab0565b51610600526200a8e0855162006777565b966000946200a8f0845162006777565b6103805260009460005b88518110156200a9c3578a896200a92a6001600160a01b036200a91e858462005ab0565b51166106005162012a61565b15806200a97a575b6200a94b575b50506200a9459062005a5a565b6200a8fa565b986200a96f9162000b1382859c62007fee6200a9459760018060a01b039262005ab0565b9790508a896200a938565b50505061271061060051101562005a78576001600160a01b036200a99f828b62005ab0565b5116600052620138966106005160031b016020528a8960406000205415156200a932565b50909895979498969291939660005b88518110156200aa625761271061060051101562005a78576001600160a01b03806200a9ff838c62005ab0565b5116600052620138966106005160031b01602052604060002054156200aa32575b506200aa2c9062005a5a565b6200a9d2565b819b6200aa5a916200aa496200aa2c948d62005ab0565b511662000b13826103805162005ab0565b9a906200aa20565b5098509695929190939661060051612710811015806101205262005a785760031b620138970154986200aa9a6200811f898c620118f8565b610580526000610540526000610400525b6101205162005a7857610400518a8110156200ab76576200aae26200ab0291600061012052620138976106005160031b0162006ac7565b9054610380516001600160a01b03939260031b9190911c83169062012aba565b156200ab22575b506200ab186104005162005a5a565b610400526200aaab565b6000610120526200ab4261040051620138976106005160031b0162006ac7565b90549060031b1c166200ab5c610540516105805162005ab0565b526200ab6b6105405162005a5a565b61054052386200ab09565b50979294959093985095909560005b8281106200ac23575050506101205162005a785761058051516001600160401b03811162003b9b576200abc481620138976106005160031b0162005b96565b60206105805101620138976106005160031b01600052602060002060005b8381106200ac0557505050506200abf99062005a5a565b9492959091956200a8b9565b82516001600160a01b0316818301556020909201916001016200abe2565b6200ac69906001600160a01b036200ac3c828562005ab0565b51166200ac50610540516105805162005ab0565b526200ac5f6105405162005a5a565b6105405262005a5a565b6200ab85565b5050939092506200ac81915062005a5a565b90916200a68f565b906020829493940151602281101562003d03576002036200af165760408092019081519383850151916200acc66200798460e08098015162005a6a565b5194835187510362007c8957835185510362007c3557835186510362007bde575060005b86518110156200af03576200ad00818862005ab0565b5161271081101562005a785760ff6201389a6200ad249260031b0154161562011e38565b6200ad30818862005ab0565b5161271081101562005a785760031b6201389a01805460ff191660011790556200ad5b818562005ab0565b516200ad68828962005ab0565b519061271082101562005a78578051906001600160401b03821162003b9b576200adaf826200ada0620138988660031b015462004249565b620138988660031b0162006026565b602090601f83116001146200ae8457620138989291600091836200ae78575b50508160011b916000199060031b1c1916179160031b01555b6200adf3818662005ab0565b516200ae00828962005ab0565b5161271081101562005a785760031b6201389401556200ae21818762005ab0565b516200ae2e828962005ab0565b5161271081101562005a785760031b6201389501556200ae4f818862005ab0565b519061271082101562005a78576000620138996200ae729360031b015562005a5a565b6200acea565b0151905038806200adce565b90620138988460031b0160005260206000209160005b601f19851681106200aeea57509183916001936201389895601f198116106200aed0575b505050811b019160031b01556200ade7565b015160001960f88460031b161c191690553880806200aebe565b919260206001819286850151815501940192016200ae9a565b509592509350506200ac81915062005a5a565b9092916020840151602281101562003d03576003036200b5445760408401906200af466101008351015162005a6a565b51906200af5d60e062007755818651015162005a6a565b51936200af7283518551146200046462012e52565b6200af8583518651146200046462012e52565b60005b83518110156200afe4576200af9e818662005ab0565b519061271082101562005a7857620138966200afde9260018060a01b038b511660005260031b016020526200046b60406000205462007da0838a62005ab0565b6200af88565b509095919560005b87518110156200b136576200b002818662005ab0565b5161271081101562005a7857620138969060018060a01b0386511660005260031b016020526200b03d60406000205462007e0d838962005ab0565b906200b04a838862005ab0565b519161271083101562005a7857620138966200b0849360018060a01b0389511660005260031b016020526040600020556200046462012f56565b6200b090818662005ab0565b5161271081101562005a785762013896906001600160a01b036200b0b5848c62005ab0565b511660005260031b016020526200b0d760406000205462006dd4838962005ab0565b91906200b0e5828862005ab0565b519061271082101562005a78576200b13093620138966200046b938d6200b1148760018060a01b039262005ab0565b511660005260031b016020526040600020556200046462012fbb565b6200afec565b50926200b155919294506200b14e9096959662012c2b565b9462012b0f565b92604051906200b1658262003bea565b6001825260203681840137516001600160a01b03166200b1858262005a6a565b526000945b80518610156200ac6f576200b1a0868262005ab0565b516101e0526200b1b1855162006777565b966000946200b1c1845162006777565b6103005260009460005b88518110156200b294578a896200b1fb6001600160a01b036200b1ef858462005ab0565b51166101e05162012a61565b15806200b24b575b6200b21c575b50506200b2169062005a5a565b6200b1cb565b986200b2409162000b1382859c62007fee6200b2169760018060a01b039262005ab0565b9790508a896200b209565b5050506127106101e051101562005a78576001600160a01b036200b270828b62005ab0565b5116600052620138966101e05160031b016020528a8960406000205415156200b203565b50909895979498969291939660005b88518110156200b33a576127106101e051101562005a78576001600160a01b036200b2cf828b62005ab0565b5116600052620138966101e05160031b01602052604060002054156200b301575b6200b2fb9062005a5a565b6200b2a3565b996200b2fb906200b331906001600160a01b036200b3208e8d62005ab0565b511662000b13826103005162005ab0565b9a90506200b2f0565b509850969592919093966101e051612710811015806104405262005a785760031b620138970154986200b3726200811f898c620118f8565b60a05260006101405260006103c0525b6104405162005a78576103c0518a8110156200b44e576200b3b96200b3d691600061044052620138976101e05160031b0162006ac7565b90546103005160039290921b1c6001600160a01b03169062012aba565b156200b3f5575b6200b3eb6103c05162005a5a565b6103c0526200b382565b6000610440526200b4156103c051620138976101e05160031b0162006ac7565b60018060a01b0391549060031b1c166200b4356101405160a05162005ab0565b526200b4446101405162005a5a565b610140526200b3dd565b50979294959093985095909560005b8281106200b4f9575050506104405162005a785760a051516001600160401b03811162003b9b576200b49b81620138976101e05160031b0162005b96565b602060a05101620138976101e05160031b01600052602060002060005b8381106200b4db57505050506200b4cf9062005a5a565b9492959091956200b18a565b82516001600160a01b0316818301556020909201916001016200b4b8565b6200b53e906001600160a01b036200b512828562005ab0565b51166200b5256101405160a05162005ab0565b526200b5346101405162005a5a565b6101405262005a5a565b6200b45d565b90926020810151602281101562003d03576004036200bb9157610100936200b5866200b577866040850151015162005a6a565b51956040840151015162005a8e565b51906200b5ad60e060406200b5a18282880151015162005a6a565b51950151015162005a8e565b51936200b5c287518451146200046462012e52565b6200b5d587518551146200046462012e52565b6200b5e887518651146200046462012e52565b60005b87518110156200b654576200b601818662005ab0565b519061271082101562005a78576200b64e9162013896906001600160a01b036200b62c848d62005ab0565b511660005260031b016020526200046b60406000205462007da0838a62005ab0565b6200b5eb565b509095919593929360005b83518110156200b7bb576200b675818762005ab0565b5161271081101562005a785762013896906001600160a01b036200b69a848862005ab0565b511660005260031b016020526200b6bc60406000205462007e0d838862005ab0565b906200b6c9838962005ab0565b519161271083101562005a78576200b7109262013896906001600160a01b036200b6f4878b62005ab0565b511660005260031b016020526040600020556200046462012f56565b6200b71c818762005ab0565b5161271081101562005a785762013896906001600160a01b036200b741848c62005ab0565b511660005260031b016020526200b76360406000205462006dd4838862005ab0565b9190506200b772818862005ab0565b519161271083101562005a78576200b7b59262013896906001600160a01b036200b79d858e62005ab0565b511660005260031b0160205260406000205562005a5a565b6200b65f565b5091936200b7d791935062007efe6200852c9197969762012c2b565b6000945b80518610156200ac6f576200b7f1868262005ab0565b51610520526200b802855162006777565b966000946200b812845162006777565b6102e05260009460005b88518110156200b8e5578a896200b84c6001600160a01b036200b840858462005ab0565b51166105205162012a61565b15806200b89c575b6200b86d575b50506200b8679062005a5a565b6200b81c565b986200b8919162000b1382859c62007fee6200b8679760018060a01b039262005ab0565b9790508a896200b85a565b50505061271061052051101562005a78576001600160a01b036200b8c1828b62005ab0565b5116600052620138966105205160031b016020528a8960406000205415156200b854565b50909895979498969291939660005b88518110156200b9845761271061052051101562005a78576001600160a01b03806200b921838c62005ab0565b5116600052620138966105205160031b01602052604060002054156200b954575b506200b94e9062005a5a565b6200b8f4565b819b6200b97c916200b96b6200b94e948d62005ab0565b511662000b13826102e05162005ab0565b9a906200b942565b5098509695929190939661052051612710811015806105a05262005a785760031b620138970154986200b9bc6200811f898c620118f8565b6104805260006105605260006102c0525b6105a05162005a78576102c0518a8110156200ba98576200ba046200ba249160006105a052620138976105205160031b0162006ac7565b90546102e0516001600160a01b03939260031b9190911c83169062012aba565b156200ba44575b506200ba3a6102c05162005a5a565b6102c0526200b9cd565b60006105a0526200ba646102c051620138976105205160031b0162006ac7565b90549060031b1c166200ba7e610560516104805162005ab0565b526200ba8d6105605162005a5a565b61056052386200ba2b565b50979294959093985095909560005b8281106200bb45575050506105a05162005a785761048051516001600160401b03811162003b9b576200bae681620138976105205160031b0162005b96565b60206104805101620138976105205160031b01600052602060002060005b8381106200bb2757505050506200bb1b9062005a5a565b9492959091956200b7db565b82516001600160a01b0316818301556020909201916001016200bb04565b6200bb8b906001600160a01b036200bb5e828562005ab0565b51166200bb72610560516104805162005ab0565b526200bb816105605162005a5a565b6105605262005a5a565b6200baa7565b92906020840151602281101562003d03576005036200c1475760408401906200bbc460e062008595818551015162005a6a565b519282518451036200c0f55760005b83518110156200bc2f576200bbe9818562005ab0565b519061271082101562005a7857620138966200bc299260018060a01b038a511660005260031b016020526200046b60406000205462007da0838962005ab0565b6200bbd3565b509060005b83518110156200bcd8576200bc4a818562005ab0565b5161271081101562005a7857620138969060018060a01b0389511660005260031b016020526200bc8560406000205462007e0d838862005ab0565b91906200bc93828762005ab0565b519061271082101562005a78576200bcd293620138966200046b9360018060a01b038d511660005260031b016020526040600020556200046462012f56565b6200bc34565b50916200bce9919495935062012c2b565b92604051926200bcf98462003bea565b6001845260203681860137516001600160a01b03166200bd198462005a6a565b52604051926200bd298462003c06565b6000845260003681376000945b80518610156200ac6f576200bd4c868262005ab0565b51610180526200bd5d855162006777565b966000946200bd6d845162006777565b6105e05260009460005b88518110156200be40578a896200bda76001600160a01b036200bd9b858462005ab0565b51166101805162012a61565b15806200bdf7575b6200bdc8575b50506200bdc29062005a5a565b6200bd77565b986200bdec9162000b1382859c62007fee6200bdc29760018060a01b039262005ab0565b9790508a896200bdb5565b50505061271061018051101562005a78576001600160a01b036200be1c828b62005ab0565b5116600052620138966101805160031b016020528a8960406000205415156200bdaf565b50909895979498969291939660005b88518110156200bee65761271061018051101562005a78576001600160a01b036200be7b828b62005ab0565b5116600052620138966101805160031b01602052604060002054156200bead575b6200bea79062005a5a565b6200be4f565b996200bea7906200bedd906001600160a01b036200becc8e8d62005ab0565b511662000b13826105e05162005ab0565b9a90506200be9c565b5098509695929190939661018051612710811015806104205262005a785760031b620138970154986200bf1e6200811f898c620118f8565b6102405260006104a05260006101a0525b6104205162005a78576101a0518a8110156200bffc576200bf666200bf8391600061042052620138976101805160031b0162006ac7565b90546105e05160039290921b1c6001600160a01b03169062012aba565b156200bfa2575b6200bf986101a05162005a5a565b6101a0526200bf2f565b6000610420526200bfc26101a051620138976101805160031b0162006ac7565b60018060a01b0391549060031b1c166200bfe36104a0516102405162005ab0565b526200bff26104a05162005a5a565b6104a0526200bf8a565b50979294959093985095909560005b8281106200c0a9575050506104205162005a785761024051516001600160401b03811162003b9b576200c04a81620138976101805160031b0162005b96565b60206102405101620138976101805160031b01600052602060002060005b8381106200c08b57505050506200c07f9062005a5a565b9492959091956200bd36565b82516001600160a01b0316818301556020909201916001016200c068565b6200c0ef906001600160a01b036200c0c2828562005ab0565b51166200c0d66104a0516102405162005ab0565b526200c0e56104a05162005a5a565b6104a05262005a5a565b6200c00b565b60405162461bcd60e51b815260206004820152603560248201526000805160206201339c833981519152604482015274195b905b5bdd5b9d081a5cc81b9bdd08195c5d585b605a1b6064820152608490fd5b926020810151602281101562003d03576006036200c730576040016200c1736101008251015162005a6a565b51936200c18a60e062008595818551015162005a6a565b519285518351036200c6de5785518451036200c6915760005b86518110156200c20c576200c1b9818562005ab0565b519061271082101562005a78576200c2069162013896906001600160a01b036200c1e4848c62005ab0565b511660005260031b016020526200046b60406000205462007da0838962005ab0565b6200c1a3565b509060005b86518110156200c2b2576200c227818562005ab0565b5161271081101562005a785762013896906001600160a01b036200c24c848b62005ab0565b511660005260031b016020526200c26e60406000205462007e0d838862005ab0565b91906200c27c828762005ab0565b519061271082101562005a78576200c2ac936200046b9262013896906001600160a01b036200b6f4878f62005ab0565b6200c211565b50916200c2c99193506200852c9095949562012c2b565b91604051926200c2d98462003c06565b6000845260003681376000945b80518610156200ac6f576200c2fc868262005ab0565b5160e0526200c30c855162006777565b966000946200c31c845162006777565b6103a05260009460005b88518110156200c3ec578a896200c3556001600160a01b036200c34a858462005ab0565b511660e05162012a61565b15806200c3a5575b6200c376575b50506200c3709062005a5a565b6200c326565b986200c39a9162000b1382859c62007fee6200c3709760018060a01b039262005ab0565b9790508a896200c363565b50505061271060e051101562005a78576001600160a01b036200c3c9828b62005ab0565b51166000526201389660e05160031b016020528a8960406000205415156200c35d565b50909895979498969291939660005b88518110156200c4895761271060e051101562005a78576001600160a01b03806200c427838c62005ab0565b51166000526201389660e05160031b01602052604060002054156200c459575b506200c4539062005a5a565b6200c3fb565b819b6200c481916200c4706200c453948d62005ab0565b511662000b13826103a05162005ab0565b9a906200c447565b5098509695929190939660e051612710811015806102805262005a785760031b620138970154986200c4c06200811f898c620118f8565b6105c0526000610460526000610320525b6102805162005a7857610320518a8110156200c59a576200c5076200c527916000610280526201389760e05160031b0162006ac7565b90546103a0516001600160a01b03939260031b9190911c83169062012aba565b156200c547575b506200c53d6103205162005a5a565b610320526200c4d1565b6000610280526200c566610320516201389760e05160031b0162006ac7565b90549060031b1c166200c580610460516105c05162005ab0565b526200c58f6104605162005a5a565b61046052386200c52e565b50979294959093985095909560005b8281106200c645575050506102805162005a78576105c051516001600160401b03811162003b9b576200c5e7816201389760e05160031b0162005b96565b60206105c051016201389760e05160031b01600052602060002060005b8381106200c62757505050506200c61b9062005a5a565b9492959091956200c2e6565b82516001600160a01b0316818301556020909201916001016200c604565b6200c68b906001600160a01b036200c65e828562005ab0565b51166200c672610460516105c05162005ab0565b526200c6816104605162005a5a565b6104605262005a5a565b6200c5a9565b60405162461bcd60e51b815260206004820152603060248201526000805160206201343c83398151915260448201526f1b9d1cc81a5cc81b9bdd08195c5d585b60821b6064820152608490fd5b60405162461bcd60e51b815260206004820152603560248201526000805160206201333c8339815191526044820152741b90db185cdcd95cc81a5cc81b9bdd08195c5d585b605a1b6064820152608490fd5b6020819493940151602281101562003d03576007036200c9d857604001906200c75f6101008351015162005a6a565b519260406200c77360e08551015162005a6a565b5193510151916200c78c85518551146200046462012e52565b60005b85518110156200c9c6576001600160a01b036200c7ad828862005ab0565b511660005262027113806020526200c7d260ff60406000205416156200046462012f23565b6200c7de828662005ab0565b51906200c7ec838862005ab0565b5191604051916200c7fd8362003b7f565b600183526000602084019081526040840192835260608401949094526001600160a01b036200c82d868c62005ab0565b51166000526020526200c8586040600020936200c84e845115158662006070565b5115158462006081565b518051906001600160401b03821162003b9b576200c889826200c87f600187015462004249565b6001870162006026565b602090601f83116001146200c94c579180600294926060946000926200c940575b50508160011b916000199060031b1c19161760018501555b01519101556001600160a01b036200c8db828862005ab0565b516202711454929116600160401b83101562003b9b576001830180620271145583101562005a785762027114600052600080516020620133dc83398151915290920180546001600160a01b0319169092179091556200c93a9062005a5a565b6200c78f565b0151905038806200c8aa565b906001850160005260206000209160005b601f19851681106200c9ad5750926002949260019260609583601f198116106200c993575b505050811b0160018501556200c8c2565b015160001960f88460031b161c191690553880806200c982565b919260206001819286850151815501940192016200c95d565b5094915092506200ac81915062005a5a565b6020819392930151602281101562003d03576008036200cacb5761010060406200ca06920151015162005a6a565b519160005b83518110156200cabc576200cab6906001600160a01b03806200ca2f838862005ab0565b51166000526202711390816020526200ca59600160ff604060002054161515146200046462012e82565b806200ca66848962005ab0565b5116600052816020526200ca8a60ff60406000205460081c16156200046462012eea565b6200ca96838862005ab0565b5116600052602052604060002061010061ff001982541617905562005a5a565b6200ca0b565b50926200ac8191925062005a5a565b6020810151602281101562003d03576009036200cbac5761010060406200caf6920151015162005a6a565b519160005b83518110156200cabc576200cba6906001600160a01b03806200cb1f838862005ab0565b51166000526202711390816020526200cb49600160ff604060002054161515146200046462012e82565b806200cb56848962005ab0565b5116600052816020526200cb7e600160ff60406000205460081c161515146200046462012eb5565b6200cb8a838862005ab0565b5116600052602052604060002061ff0019815416905562005a5a565b6200cafb565b906020820151602281101562003d0357600f036200ccf75760a0604083015101519260005b84518110156200cce65760e06200cbf18260a06040880151015162005ab0565b510151156200cc73576200cc196200cc128260a06040880151015162005ab0565b51620068c8565b6202711554600019919082810190811162003229576200cc3b60059162006812565b500161010061ff00198254161790556202711554918281810111620032295762008ed46005916200cc6d940162006812565b6200cbd1565b6200cc926200cc8b8260a06040880151015162005ab0565b51620068a4565b6202711654600019919082810190811162003229576200ccb4600591620067d0565b500161010061ff00198254161790556202711654918281810111620032295762008ed46005916200cc6d9401620067d0565b50939092506200ac81915062005a5a565b6020820151602281101562003d0357600c036200ce225760a0604083015101519260005b84518110156200cce65760e06200cd3b8260a06040880151015162005ab0565b510151156200cdb6576200cd5c6200cc128260a06040880151015162005ab0565b6202711554600019919082810190811162003229576200cd7e60059162006812565b500161010061ff001982541617905562027115549182818101116200322957620090026005916200cdb0940162006812565b6200cd1b565b6200cdce6200cc8b8260a06040880151015162005ab0565b6202711654600019919082810190811162003229576200cdf0600591620067d0565b500161010061ff001982541617905562027116549182818101116200322957620090026005916200cdb09401620067d0565b9291906020810151602281101562003d0357600d036200cf7b576040019260606200ce5260e08651015162005a6a565b5194510151916200ce6785518451146201199f565b60005b85518110156200cf6b57806200ce856200ceff928662005ab0565b51156200cf05576200cea96200ce9c828962005ab0565b5162027115541162011a28565b6200ced560ff60056200cec86200cec1858c62005ab0565b5162006812565b50015460081c1662011a80565b6200ceed60ff6005620091436200cec1858c62005ab0565b600562008ed46200cec1838a62005ab0565b6200ce6a565b6200cf226200cf15828962005ab0565b5162027116541162011a28565b6200cf4160ff60056200cec86200cf3a858c62005ab0565b51620067d0565b6200cf5960ff6005620091436200cf3a858c62005ab0565b600562008ed46200cf3a838a62005ab0565b509350916200ac81915062005a5a565b6020810151602281101562003d0357600e036200d0b3576040019260606200cfa860e08651015162005a6a565b5194510151916200cfbd85518451146201199f565b60005b85518110156200cf6b57806200cfdb6200d04e928662005ab0565b51156200d054576200cfff6200cff2828962005ab0565b5162027115541162011b42565b6200d02460ff60056200d0176200cec1858c62005ab0565b50015460081c1662011b9b565b6200d03c60ff6005620092a06200cec1858c62005ab0565b6005620090026200cec1838a62005ab0565b6200cfc0565b6200d0716200d064828962005ab0565b5162027116541162011b42565b6200d08960ff60056200d0176200cf3a858c62005ab0565b6200d0a160ff6005620092a06200cf3a858c62005ab0565b6005620090026200cf3a838a62005ab0565b6020810151602281101562003d03576010036200d1f95760400151926200d0e360e060c086015195015162005a6a565b51916200d0f885518451146200046462012e52565b60005b85518110156200cf6b57806200d1166200d18c928862005ab0565b516200d1228162003db9565b6200d12e828762005ab0565b51906200d13b8162003db9565b6200d1526200d14962012f85565b82151562005a27565b6200d15d8162003db9565b600181036200d19257506200d1816200d17562012f85565b61271083111562005a27565b6202711e5562005a5a565b6200d0fb565b6200d19d8162003db9565b600281036200d1b257506202711f5562005a5a565b6200d1bd8162003db9565b600381036200d1d25750620271205562005a5a565b806200d1e060049262003db9565b146200d1ed575062005a5a565b6202712155386200941a565b602081949392940151602281101562003d0357601a036200d3b15760e060406200d227920151015162005a6a565b519060038251036200d36d576200d23e8262005a6a565b516200d2566200d24e8462005a8e565b519362005a9f565b51926200d331576200ac81926001036200941a576200d27e6200d2dd91620271205462006c06565b6202712055604051906200d2928262003c22565b603282527f6469766964656e6461626c652062616c616e6365206f766572666c6f772077686020830152710cadc40e0e4dec6cae6e6d2dcce40c6c2e6d60731b604083015262005a27565b6200046b6200d2f0620271215462006bf3565b6202712155604051906200d3048262003bea565b601a8252796469766964656e647320636f756e746572206f766572666c6f7760301b602083015262005a27565b60405162461bcd60e51b8152602060048201526014602482015273496e76616c6964207061796d656e74207479706560601b6044820152606490fd5b60405162461bcd60e51b815260206004820152601c60248201527b496e76616c6964206e756d626572206f6620706172616d657465727360201b6044820152606490fd5b6020819392930151602281101562003d0357601b036200d9d657506202711e929192546200d3e2620094ce62012d29565b62027121546202711f5411156200d4036200d3fc62012d97565b8262005a27565b6202712054906200d4158383620069da565b50506200d42162012ded565b506000805b61271082106200d92a575b5050906200d4616200d46793926200d4576200d44c62012d29565b612710861062005a27565b6200046462012d97565b620069da565b90506200d47362012ded565b5060009060005b61271081106200d852575b50906127106200d496920462006c94565b90506200d4a76202712a5462006777565b906000946000905b6127108210156200d845578160031b9460ff6201389a87015416156200d60d5760009662013895870154156200d5fc57600098975b62005a7857620138978701548910156200d5e2576200d5098962013897890162006ac7565b600160a01b6001900391549060031b1c169788600052620138968801602052604098868a60002054906200d53d91620069da565b9a906200d54962012ded565b6200d5549162005a27565b60009a620138958b01546200d56991620069da565b906200d57462012ded565b6200d57f9162005a27565b826000526202711a6020528160002054906200d59b9162006c06565b9091600020556200d5ab62012ded565b6200d5b69162005a27565b6200d5c2828962005ab0565b526200d5ce9062005a5a565b986200d5da9062005a5a565b98976200d4e4565b929095506200d5f49196975062005a5a565b90946200d4af565b929095506200d5f491965062005a5a565b95969392509350505b6200d6218262006777565b9160009160005b8281106200d7af575050506202711b54916200d6496200811f8484620118f8565b926000906000905b8082106200d77457505060005b8381106200d6de5750508251929150506001600160401b03821162003b9b576020906200d68b8362005bce565b016202711b600052602060002060005b8381106200d6c057505050506200ac8190600062027120556000620271215562005a5a565b82516001600160a01b0316818301556020909201916001016200d69b565b6000805b8381106200d72c575b50156200d704575b6200d6fe9062005a5a565b6200d65e565b906200d6fe906200d723906001600160a01b03620082a2858762005ab0565b9190506200d6f3565b6001600160a01b03806200d741858862005ab0565b5116906200d750838a62005ab0565b5116146200d769576200d7639062005a5a565b6200d6e2565b50506001386200d6eb565b9091620082b06200d7a8916200d78a8562006a8d565b905460039190911b1c6001600160a01b031662000b13828a62005ab0565b906200d651565b6000805b8581106200d7fd575b50156200d7d5575b6200d7cf9062005a5a565b6200d628565b926200d7cf906200d7f4906001600160a01b03620082a2878662005ab0565b9390506200d7c4565b6001600160a01b03806200d812858762005ab0565b5116906200d821838a62005ab0565b5116146200d83a576200d8349062005a5a565b6200d7b3565b50506001386200d7bc565b939495929150506200d616565b90918160039695961b60ff6201389a82015416156200d91e5762013895810154620138978201546000928391825b8184106200d8bc5750505050620075a96200d8b3936200d8ab6200046b979694620035d894620069da565b9290620068ec565b9493946200d47a565b94929462005a78576200d917856200d90f6200d8e26200046b9862013897870162006ac7565b905460039190911b1c6001600160a01b031660009081526201389686016020526040812054909662006c06565b979062006ae0565b926200d880565b5091909493946200d485565b8160039897981b60ff6201389a82015416156200d9cc576201389581015490600062013897820154916000926000925b8184106200d9975750505050620075a96200d98d93620098f8846200d4616200350562009904966200046b9a98620069da565b909695966200d426565b93929362005a78576200d9c5846200d9bd6200d8e26200046b9762013897870162006ac7565b969062006ae0565b926200d95a565b509695966200d431565b6020819492940151602281101562003d03576014036200df2357604001906200da056101008351015162005a6a565b51936200da1c60e062007755818651015162005a6a565b51916200da2d865185511462011c60565b6200da3c865184511462011cc6565b60005b86518110156200db3a576200da55818562005ab0565b516200da62828762005ab0565b519061271082101562005a7857620138996200da849260031b01549062006c06565b906200da91838862005ab0565b519161271083101562005a7857620138996200dab29360031b015562011d80565b6200dabe818562005ab0565b516200dacb828762005ab0565b519061271082101562005a78576200daf69162013896906001600160a01b036200a811868d62005ab0565b91906200db04828862005ab0565b519061271082101562005a78576200db34936200046b9262013896906001600160a01b036200a868878f62005ab0565b6200da3f565b50926200db519192506200852c9095949562012c2b565b916040516200db608162003c06565b6000815260003681376000945b80518610156200ac6f576200db83868262005ab0565b51610220526200db94855162006777565b966000946200dba4845162006777565b6103605260009460005b88518110156200dc77578a896200dbde6001600160a01b036200dbd2858462005ab0565b51166102205162012a61565b15806200dc2e575b6200dbff575b50506200dbf99062005a5a565b6200dbae565b986200dc239162000b1382859c62007fee6200dbf99760018060a01b039262005ab0565b9790508a896200dbec565b50505061271061022051101562005a78576001600160a01b036200dc53828b62005ab0565b5116600052620138966102205160031b016020528a8960406000205415156200dbe6565b50909895979498969291939660005b88518110156200dd165761271061022051101562005a78576001600160a01b03806200dcb3838c62005ab0565b5116600052620138966102205160031b01602052604060002054156200dce6575b506200dce09062005a5a565b6200dc86565b819b6200dd0e916200dcfd6200dce0948d62005ab0565b511662000b13826103605162005ab0565b9a906200dcd4565b5098509695929190939661022051612710811015806103405262005a785760031b620138970154986200dd4e6200811f898c620118f8565b6104e0526000610500526000610160525b6103405162005a7857610160518a8110156200de2a576200dd966200ddb691600061034052620138976102205160031b0162006ac7565b9054610360516001600160a01b03939260031b9190911c83169062012aba565b156200ddd6575b506200ddcc6101605162005a5a565b610160526200dd5f565b6000610340526200ddf661016051620138976102205160031b0162006ac7565b90549060031b1c166200de10610500516104e05162005ab0565b526200de1f6105005162005a5a565b61050052386200ddbd565b50979294959093985095909560005b8281106200ded7575050506103405162005a78576104e051516001600160401b03811162003b9b576200de7881620138976102205160031b0162005b96565b60206104e05101620138976102205160031b01600052602060002060005b8381106200deb957505050506200dead9062005a5a565b9492959091956200db6d565b82516001600160a01b0316818301556020909201916001016200de96565b6200df1d906001600160a01b036200def0828562005ab0565b51166200df04610500516104e05162005ab0565b526200df136105005162005a5a565b6105005262005a5a565b6200de39565b926020840151602281101562003d035760150362009ae45760408401906200df516101008351015162005a6a565b51906200df6860e062007755818651015162005a6a565b51936200df7d83518551146200046462012e52565b6200df9083518651146200046462012e52565b60005b83518110156200dfef576200dfa9818662005ab0565b519061271082101562005a7857620138966200dfe99260018060a01b038b511660005260031b016020526200046b60406000205462007da0838a62005ab0565b6200df93565b509095919560005b87518110156200e125576200e00d818662005ab0565b5161271081101562005a7857620138969060018060a01b0386511660005260031b016020526200e04860406000205462007e0d838962005ab0565b906200e055838862005ab0565b519161271083101562005a7857620138966200e08f9360018060a01b0389511660005260031b016020526040600020556200046462012f56565b6200e09b818662005ab0565b5161271081101562005a785762013896906001600160a01b036200e0c0848c62005ab0565b511660005260031b016020526200e0e260406000205462006dd4838962005ab0565b91906200e0f0828862005ab0565b519061271082101562005a78576200e11f93620138966200046b938d6200b1148760018060a01b039262005ab0565b6200dff7565b50926200e13d919294506200b14e9096959662012c2b565b92604051906200e14d8262003bea565b6001825260203681840137516001600160a01b03166200e16d8262005a6a565b526000945b80518610156200ac6f576200e188868262005ab0565b516102a0526200e199855162006777565b966000946200e1a9845162006777565b60805260009460005b88518110156200e27b578a896200e1e26001600160a01b036200e1d6858462005ab0565b51166102a05162012a61565b15806200e232575b6200e203575b50506200e1fd9062005a5a565b6200e1b2565b986200e2279162000b1382859c62007fee6200e1fd9760018060a01b039262005ab0565b9790508a896200e1f0565b5050506127106102a051101562005a78576001600160a01b036200e257828b62005ab0565b5116600052620138966102a05160031b016020528a8960406000205415156200e1ea565b50909895979498969291939660005b88518110156200e320576127106102a051101562005a78576001600160a01b036200e2b6828b62005ab0565b5116600052620138966102a05160031b01602052604060002054156200e2e8575b6200e2e29062005a5a565b6200e28a565b996200e2e2906200e317906001600160a01b036200e3078e8d62005ab0565b511662000b138260805162005ab0565b9a90506200e2d7565b509850969592919093966102a051612710811015806106205262005a785760031b620138970154986200e3586200811f898c620118f8565b6101c05260006104c05260006103e0525b6106205162005a78576103e0518a8110156200e435576200e3a06200e3bc91600061062052620138976102a05160031b0162006ac7565b905460805160039290921b1c6001600160a01b03169062012aba565b156200e3db575b6200e3d16103e05162005a5a565b6103e0526200e369565b6000610620526200e3fb6103e051620138976102a05160031b0162006ac7565b60018060a01b0391549060031b1c166200e41c6104c0516101c05162005ab0565b526200e42b6104c05162005a5a565b6104c0526200e3c3565b50979294959093985095909560005b8281106200e4e2575050506106205162005a78576101c051516001600160401b03811162003b9b576200e48381620138976102a05160031b0162005b96565b60206101c05101620138976102a05160031b01600052602060002060005b8381106200e4c457505050506200e4b89062005a5a565b9492959091956200e172565b82516001600160a01b0316818301556020909201916001016200e4a1565b6200e528906001600160a01b036200e4fb828562005ab0565b51166200e50f6104c0516101c05162005ab0565b526200e51e6104c05162005a5a565b6104c05262005a5a565b6200e444565b509190506200e53d8162010df2565b90600681101562003d0357600281036200e56c5760405162461bcd60e51b81528062005a56600482016200761c565b600381036200e61f5750303b1562003b655790604051809263a2f7d10160e01b82526044820160406004840152815180915260206064840192019060005b8181106200e605575050506200e5d08291600094600319848303016024850152620045b5565b038183305af180156200e5f9576200e5e55750565b6001600160401b03811162003b9b57604052565b6040513d6000823e3d90fd5b82518452869450602093840193909201916001016200e5aa565b60059150146200e62c5750565b906000905b6020830151805183101562009b6557826200e64c9162005ab0565b516020810151602281101562003d03571562009b22576020810151602281101562003d03576001036200e89557604001906200e68e6101008351015162005a6a565b51936200e6a560e062007755818651015162005a6a565b51916200e6b6865185511462011c60565b6200e6c5865184511462011cc6565b60005b86518110156200e81c576200e6de818662005ab0565b5161271081101562005a7857600160ff60076200e7049360031b01541615151462011d28565b6200e710818562005ab0565b516200e71d828762005ab0565b519061271082101562005a785760066200e73d9260031b01549062006c06565b906200e74a838862005ab0565b519161271083101562005a785760066200e7699360031b015562011d80565b6200e775818562005ab0565b516200e782828762005ab0565b519061271082101562005a78576200e7c3916003906001600160a01b036200e7ab868d62005ab0565b5116600052811b016020526040600020549062006c06565b91906200e7d1828862005ab0565b519061271082101562005a78576200e816936200046b926003906001600160a01b036200e7ff878f62005ab0565b5116600052811b0160205260406000205562011ddf565b6200e6c8565b50949150916200e8306200e8379162012c2b565b9162012b0f565b93604051926200e8478462003c06565b60008452600036813760005b83518110156200e87857806200046b6200791c6200e872938762005ab0565b6200e853565b50945092602092506200e88c915062005a5a565b9190506200e631565b9091926020820151602281101562003d03576002036200eb035760408092019081519383850151916200e8d16200798460e08098015162005a6a565b5194835187510362007c8957835185510362007c3557835186510362007bde575060005b86518110156200eaed576200e90b818862005ab0565b5161271081101562005a785760ff60076200e92d9260031b0154161562011e38565b6200e939818862005ab0565b5161271081101562005a785760031b600701805460ff191660011790556200e962818562005ab0565b516200e96f828962005ab0565b519061271082101562005a78578051906001600160401b03821162003b9b576200e9a58262007a7360058660031b015462004249565b602090601f83116001146200ea725760059291600091836200ea66575b50508160011b916000199060031b1c1916179160031b01555b6200e9e7818662005ab0565b516200e9f4828962005ab0565b5161271081101562005a785760031b600101556200ea13818762005ab0565b516200ea20828962005ab0565b5161271081101562005a785760031b600201556200ea3f818862005ab0565b519061271082101562005a7857600060066200ea609360031b015562005a5a565b6200e8f5565b0151905038806200e9c2565b9060058460031b0160005260206000209160005b601f19851681106200ead45750918391600193600595601f198116106200eaba575b505050811b019160031b01556200e9db565b015160001960f88460031b161c191690553880806200eaa8565b919260206001819286850151815501940192016200ea86565b509591509350602092506200e88c915062005a5a565b9291906020810151602281101562003d03576003036200eb3057602091926200046b6200e88c9262011e84565b6020810151602281101562003d03576004036200edce576200eb5b6101006040830151015162005a6a565b51936200eb716101006040840151015162005a8e565b51906200eb8c60e060406200b5a18282880151015162005a6a565b51936200eba187518451146200046462012e52565b6200ebb487518551146200046462012e52565b6200ebc787518651146200046462012e52565b60005b87518110156200ec30576200ebe0818662005ab0565b519061271082101562005a78576200ec2a916003906001600160a01b036200ec09848d62005ab0565b5116600052811b016020526200046b60406000205462007da0838a62005ab0565b6200ebca565b509095919593929360005b83518110156200ed8b576200ec51818762005ab0565b5161271081101562005a78576003906001600160a01b036200ec74848862005ab0565b5116600052811b016020526200ec9560406000205462007e0d838862005ab0565b906200eca2838962005ab0565b519161271083101562005a78576200ece6926003906001600160a01b036200eccb878b62005ab0565b5116600052811b016020526040600020556200046462012f56565b6200ecf2818762005ab0565b5161271081101562005a78576003906001600160a01b036200ed15848c62005ab0565b5116600052811b016020526200ed3660406000205462006dd4838862005ab0565b9190506200ed45818862005ab0565b519161271083101562005a78576200ed85926003906001600160a01b036200ed6e858e62005ab0565b5116600052811b0160205260406000205562005a5a565b6200ec3b565b50936200eda591929693506200852c62007efe9162012c2b565b9260005b83518110156200e87857806200046b6200791c6200edc8938762005ab0565b6200eda9565b926020840151602281101562003d03576005036200ef8c5760408401906200ee0060e062008595818551015162005a6a565b519282518451036200c0f55760005b83518110156200ee68576200ee25818562005ab0565b519061271082101562005a785760036200ee629260018060a01b038a5116600052811b016020526200046b60406000205462007da0838962005ab0565b6200ee0f565b509060005b83518110156200ef0b576200ee83818562005ab0565b5161271081101562005a785760039060018060a01b03895116600052811b016020526200eebb60406000205462007e0d838862005ab0565b91906200eec9828762005ab0565b519061271082101562005a78576200ef059360036200046b9360018060a01b038d5116600052811b016020526040600020556200046462012f56565b6200ee6d565b50949250906200ef1b9062012c2b565b90604051926200ef2b8462003bea565b6001845260203681860137516001600160a01b03166200ef4b8462005a6a565b52604051946200ef5b8662003c06565b60008652600036813760005b83518110156200e87857806200046b6200791c6200ef86938762005ab0565b6200ef67565b926020810151602281101562003d03576006036200f145576040016200efb86101008251015162005a6a565b51936200efcf60e062008595818551015162005a6a565b519285518351036200c6de5785518451036200c6915760005b86518110156200f04e576200effe818562005ab0565b519061271082101562005a78576200f048916003906001600160a01b036200f027848c62005ab0565b5116600052811b016020526200046b60406000205462007da0838962005ab0565b6200efe8565b509060005b86518110156200f0ef576200f069818562005ab0565b5161271081101562005a78576003906001600160a01b036200f08c848b62005ab0565b5116600052811b016020526200f0ad60406000205462007e0d838862005ab0565b91906200f0bb828762005ab0565b519061271082101562005a78576200f0e9936200046b926003906001600160a01b036200eccb878f62005ab0565b6200f053565b5094916200f1049193506200e8309062012c2b565b91604051946200f1148662003c06565b60008652600036813760005b83518110156200e87857806200046b6200791c6200f13f938762005ab0565b6200f120565b90926020820151602281101562003d03576007036200f36c57926200f1736101006040840151015162005a6a565b51936040806200f18a60e082870151015162005a6a565b519401510151916200f1a486518551146200046462012e52565b6000915b86518310156200f357576001600160a01b036200f1c6848962005ab0565b51166000526201388092836020526200f1ec60ff60406000205416156200046462012f23565b6200f1f8818662005ab0565b516200f205828862005ab0565b5190604051956200f2168762003b7f565b600187526000602088019081526040880192835260608801939093526001600160a01b036200f246858d62005ab0565b51166000526020526200f26760406000209262008afe885115158562006070565b5180519095906001600160401b03811162003b9b576200f2908162008b31600186015462004249565b602096601f82116001146200f2f25791816060926200f2ea97989960029560009262008ba75750508160011b916000199060031b1c191617600185015501519101556200046b6001600160a01b0362008b97838b62005ab0565b91906200f1a8565b966001840160005260206000209760005b601f19841681106200f33e5750826200f2ea97989960029593600193606096601f1981161062008c0057505050811b01600185015562008b7a565b818301518a55600190990198602092830192016200f303565b9550939050602092506200e88c915062005a5a565b9192906020810151602281101562003d03576008036200f4055761010060406200f39a920151015162005a6a565b519160005b83518110156200f3f3576200f3ed906001600160a01b03806200f3c3838862005ab0565b51166000526201388090816020526200ca59600160ff604060002054161515146200046462012e82565b6200f39f565b509260209192506200e88c9062005a5a565b6020810151602281101562003d03576009036200f4895761010060406200f430920151015162005a6a565b519160005b83518110156200f3f3576200f483906001600160a01b03806200f459838862005ab0565b51166000526201388090816020526200cb49600160ff604060002054161515146200046462012e82565b6200f435565b906020820151602281101562003d0357600f036200f5d05760a0604083015101519260005b84518110156200f5bd5760e06200f4ce8260a06040880151015162005ab0565b510151156200f54d576200f4ef62008e7f8260a06040880151015162005ab0565b62013882548060001981011162003229576200f51160059160001901620067f1565b5001805461ff001916610100179055620138825490600019820182106200322957600562008ed46200f5479360001901620067f1565b6200f4ae565b6200f56562008f018260a06040880151015162005ab0565b62013882548060001981011162003229576200f58760059160001901620067af565b5001805461ff001916610100179055620138825490600019820182106200322957600562008ed46200f5479360001901620067af565b50936200e88c9193506020925062005a5a565b6020820151602281101562003d0357600c036200f7035760a0604083015101519260005b84518110156200f5bd5760e06200f6148260a06040880151015162005ab0565b510151156200f693576200f63562008e7f8260a06040880151015162005ab0565b62013882548060001981011162003229576200f65760059160001901620067f1565b5001805461ff0019166101001790556201388254906000198201821062003229576005620090026200f68d9360001901620067f1565b6200f5f4565b6200f6ab62008f018260a06040880151015162005ab0565b62013882548060001981011162003229576200f6cd60059160001901620067af565b5001805461ff0019166101001790556201388254906000198201821062003229576005620090026200f68d9360001901620067af565b9291906020810151602281101562003d0357600d036200f82a576040019260606200f73360e08651015162005a6a565b5194510151916200f74885518451146201199f565b60005b85518110156200f81757806200f7666200f7bf928662005ab0565b51156200f7c5576200f77d62009108828962005ab0565b6200f79560ff60056200cec86200912a858c62005ab0565b6200f7ad60ff6005620091436200912a858c62005ab0565b600562008ed46200912a838a62005ab0565b6200f74b565b6200f7d562009184828962005ab0565b6200f7ed60ff60056200cec8620091a6858c62005ab0565b6200f80560ff600562009143620091a6858c62005ab0565b600562008ed4620091a6838a62005ab0565b50935091602091506200e88c9062005a5a565b6020819492940151602281101562003d0357600e036200f8f1576040019060606200f85a60e08451015162005a6a565b5192510151936200f86f83518651146201199f565b60005b83518110156200f81757806200f88d6200f899928862005ab0565b516200f89f5762005a5a565b6200f872565b6200f8af62009258828762005ab0565b6200f8c760ff60056200d0176200912a858a62005ab0565b6200f8df60ff6005620092a06200912a858a62005ab0565b6005620090026200912a838862005ab0565b6020810151602281101562003d03576010036200f95e5760400151906200f92160e060c084015193015162005a6a565b51936200f93683518651146200046462012e52565b60005b83518110156200f81757806200046b620093266200f958938762005ab0565b6200f939565b6020819392930151602281101562003d0357601a036200fa0e5760e060406200f98b920151015162005a6a565b5160038151036200d36d576200f9a18162005a6a565b51916200f9b2620093b28362005a8e565b51916200d331576020926200e88c926001036200941a576200f9dd6200f9ec916201388d5462006c06565b6201388d556200046462012ded565b6200046b6200f9ff6201388e5462006bf3565b6201388e556200046462012e27565b6020819392930151602281101562003d0357601b036200fe4a57506200fa436201388b939293546200354d620094ce62012d29565b50506200fa4f62012ded565b506000805b61271081106200fdfe575b50506200fa6b62006c18565b6200fa7a6202712a5462006777565b906000946000905b6127108210156200fdf1578160031b9460ff600787015416156200fbd5576000966002870154156200fbc457600098975b62005a785760048701548910156200fbaa576200fad4896004890162006ac7565b9054600391821b1c6001600160a01b03166000818152918901602052604091829020549199916200fb07908890620069da565b9a906200fb1362012ded565b6200fb1e9162005a27565b60009a60028b01546200fb3191620069da565b906200fb3c62012ded565b6200fb479162005a27565b82600052620138876020528160002054906200fb639162006c06565b9091600020556200fb7362012ded565b6200fb7e9162005a27565b6200fb8a828962005ab0565b526200fb969062005a5a565b986200fba29062005a5a565b98976200fab3565b929095506200fbbc9196975062005a5a565b90946200fa82565b929095506200fbbc91965062005a5a565b95969392509350505b6200fbe98262006777565b9160009160005b8281106200fd5b575050506201388854916200fc116200811f8484620118f8565b926000906000905b8082106200fd3e57505060005b8381106200fca85750508251929150506001600160401b03821162003b9b576020906200fc538362005bf2565b0162013888600052602060002060005b8381106200fc8a57505050506200e88c60209160006201388d5560006201388e5562005a5a565b82516001600160a01b0316818301556020909201916001016200fc63565b6000805b8381106200fcf6575b50156200fcce575b6200fcc89062005a5a565b6200fc26565b906200fcc8906200fced906001600160a01b03620082a2858762005ab0565b9190506200fcbd565b6001600160a01b03806200fd0b858862005ab0565b5116906200fd1a838a62005ab0565b5116146200fd33576200fd2d9062005a5a565b6200fcac565b50506001386200fcb5565b9091620082b06200fd54916200d78a8562006aaa565b906200fc19565b6000805b8581106200fda9575b50156200fd81575b6200fd7b9062005a5a565b6200fbf0565b926200fd7b906200fda0906001600160a01b03620082a2878662005ab0565b9390506200fd70565b6001600160a01b03806200fdbe858762005ab0565b5116906200fdcd838a62005ab0565b5116146200fde6576200fde09062005a5a565b6200fd5f565b50506001386200fd68565b939495929150506200fbde565b8060039594951b9060ff600783015416156200fe405762009904620075a96200046b94620098f86200fe37956002620098ee8762006959565b9392936200fa54565b509392936200fa5f565b6020810151602281101562003d03576014036200fff857604001906200fe766101008351015162005a6a565b51936200fe8d60e062007755818651015162005a6a565b51916200fe9e865185511462011c60565b6200fead865184511462011cc6565b60005b86518110156200ffa3576200fec6818562005ab0565b516200fed3828762005ab0565b519061271082101562005a785760066200fef39260031b01549062006c06565b906200ff00838862005ab0565b519161271083101562005a785760066200ff1f9360031b015562011d80565b6200ff2b818562005ab0565b516200ff38828762005ab0565b519061271082101562005a78576200ff61916003906001600160a01b036200e7ab868d62005ab0565b91906200ff6f828862005ab0565b519061271082101562005a78576200ff9d936200046b926003906001600160a01b036200e7ff878f62005ab0565b6200feb0565b50949150916200e8306200ffb79162012c2b565b93604051926200ffc78462003c06565b60008452600036813760005b83518110156200e87857806200046b6200791c6200fff2938762005ab0565b6200ffd3565b6020819392930151602281101562003d035760150362009ae4576020916200046b6200e88c9262011e84565b82516001600160a01b0316818301556020909201916001016200a5c4565b82516001600160a01b0316818301556020909201916001016200a46f565b6201007c90620271196000528484600020918201910162005b56565b386200a45e565b600191820180546001600160a01b03909216848601559390910192906200a3a2565b62027124600052620100cd90600080516020620133fc83398151915290810190830162005b56565b386200a362565b60018082620100e582948662010592565b019201920191906200a321565b620271236000526000805160206201337c833981519152908282015b8183018110620101205750506200a2e5565b806201012e60019262005c16565b016201010e565b600191820180546001600160a01b03909216848601559390910192906200a2b3565b620271226000526201017f906000805160206201335c83398151915290810190830162005b56565b386200a273565b82516001600160a01b0316818301556020909201916001016200a135565b620101c0906202711d6000528484600020918201910162005b56565b386200a124565b82516001600160a01b03168183015560209092019160010162009f45565b6201020190620271146000528484600020918201910162005b56565b3862009f34565b806201022a9160031b600160ff60078301541615151462010230575062005a5a565b62009e84565b620102446004820162013897830162010523565b6201389a8101600160ff198254161790558054816201389301556001810154620138948201556002810154620138958201556201028a6005820162013898830162010592565b620138996006820154910155386200941a565b6006602082620102b16001945186620060b3565b0192019201919062009c71565b6006818102048103620032295760068381020483036200322957620271156000527f0f9b10e190177c3c56fc6ce7689c8130c567df57aa02c08e7a090a59992adf926006840281015b82600602820181106201031c57505062009c5d565b8060006006925560006001820155620103386002820162005e12565b600060038201556201034d6004820162005c16565b600060058201550162010307565b60066020826201036f6001945186620060b3565b0192019201919062009be1565b8060060290600682040362003229578260060260068104840362003229576000906202711682526020822092830192015b828110620103bd57505062009bcd565b808260069255826001820155620103d76002820162005e12565b826003820155620103eb6004820162005c16565b82600582015501620103ad565b608460405162461bcd60e51b815260206004820152604060248201526000805160206201341c83398151915260448201527f656d2073686f756c64206e6f742072657475726e20766f7465206e65656465646064820152fd5b60405162461bcd60e51b815260206004820152604760248201526000805160206201341c83398151915260448201527f656d2073686f756c64206e6f742072657475726e206120766f74696e672072756064820152661b19481b1a5cdd60ca1b608482015260a490fd5b8181146201051f578154916001600160401b03831162003b9b57620104e1838362005b96565b60005260206000209060005260206000208154916000925b84841062010508575050505050565b6001809192019384549281850155019290620104f9565b5050565b8181146201051f578154916001600160401b03831162003b9b5762010549838362005b96565b60005260206000209060005260206000208154916000925b84841062010570575050505050565b600191820180546001600160a01b039092168486015593909101929062010561565b908082146201051f57620105a7815462004249565b906001600160401b03821162003b9b578190620105ca8262006663865462004249565b600090601f83116001146201060457600092620105f8575b50508160011b916000199060031b1c1916179055565b015490503880620105e2565b81526020808220858352818320935090601f1985169083905b8282106201065a57505090846001959493921062010640575b505050811b019055565b015460001960f88460031b161c1916905538808062010636565b84958192958501548155600180910196019401906201061d565b8181146201051f578154916201068b838362005ca7565b6000526020600020906000526020600020906000905b838210620106af5750505050565b80620106be6001928562010592565b928101929181019101620106a1565b8181146201051f57815491620106e4838362005d35565b6000526020600020906000526020600020906000905b838210620107085750505050565b806201071760019285620104bb565b928101929181019101620106fa565b8181146201051f578154916201073d838362005d35565b6000526020600020906000526020600020906000905b838210620107615750505050565b80620107706001928562010523565b92810192918101910162010753565b8181146201051f5781549162010796838362005dc3565b6000526020600020906000526020600020906000905b838210620107ba5750505050565b80620107c96001928562010674565b928101929181019101620107ac565b8181146201051f57815491620107ef838362005ed5565b6000526020600020906000526020600020906000905b838210620108135750505050565b80600191840362010830575b600980910193019101909162010805565b8054845581620108728186019183019160ff62010851818554168362005fc9565b8354936201086682600896871c168462005fe3565b5460101c169062006004565b620108846002808401908701620104bb565b6003828101919086018387036201089f575b5050506201081f565b6201090392620108af91620104bb565b620108c1600480850190880162010523565b620108d3600580850190880162010674565b620108e56006808501908801620106cd565b620108f7600780850190880162010726565b8083019086016201077f565b38808062010896565b91906200686a578082036201091f575050565b60ff600580620041d09462010938848654168262005fb0565b60018501546001820155620109546002860160028301620107d8565b6003850154600382015562010970600486016004830162010592565b01920162010982828254168462006070565b6201099482825460081c168462006081565b5460101c169062006099565b908082146201051f57908154906000915b60648310620109c05750505050565b6001809194019283549481840155019192620109b1565b9062013882546020600093019081515190620109f38262003c62565b9162010a03604051938462003c3e565b80835262010a14601f199162003c62565b0136602084013762010a2983515182620069da565b901562010d9a5762010a3b9062006777565b9085928451511562010d915762010a528262006777565b965b85515181101562010bda5760008080805b86811062010af15750905062010a878162010a81858762005ab0565b62004411565b600681101562003d035760031462010aac575b5062010aa69062005a5a565b62010a54565b6000905b80821062010abf575062010a9a565b909562010ae362010aea9162010ad6898d62005ab0565b5162000b13828a62005ab0565b9662005a5a565b9062010ab0565b62010b0a8162010b03878d5162005ab0565b51620111b3565b9390948083118062010bc6575b1562010b7d57505091838562010b73575b600681101562003d035760038e911462010b53575b505062010b4a9062005a5a565b91909162010a65565b9462010b6a9162000b138262010b4a959862005ab0565b93908c62010b3d565b6000955062010b28565b809492959195148062010bb2575b1562010b3d57600681101562003d035760038e911462010b5357505062010b4a9062005a5a565b50600681101562003d035780151562010b8b565b50600686101562003d035785151562010b17565b5093505090929350600093845b835186101562010d2c5762010c0762010c01878662005ab0565b62005fa2565b9060068083101562003d0357600292830362010c3257505062010c2b909562005a5a565b9462010be7565b62010c4262010c01898862005ab0565b928184101562003d035760018094148062010d18575b1562010c6d5750505062010c2b909562005a5a565b62010c8262010c018a899b9694959b62005ab0565b928084101562003d03576004809414928362010cec575b508262010cc1575b505062010cb5575b5062010c2b9062005a5a565b955062010c2b62010ca9565b90915088101562010cd757871415388062010ca1565b602182634e487b7160e01b6000525260246000fd5b908093508a101562010d0357891415913862010c99565b602184634e487b7160e01b6000525260246000fd5b508183101562003d03578083141562010c58565b925092909350600682101562003d03576003820362010d88575b62010d518162006777565b9360005b82811062010d64575050509190565b8062010d7562010d82928462005ab0565b5162000b13828962005ab0565b62010d55565b50600062010d46565b50909392505050565b60405162461bcd60e51b815260206004820152602a60248201527f546865206c656e677468206f6620766f74696e672072756c65206c697374206960448201526973206f766572666c6f7760b01b6064820152608490fd5b906201388354602060009301908151519062010e0e8262003c62565b9162010e1e604051938462003c3e565b80835262010e2f601f199162003c62565b0136602084013762010e4483515182620069da565b901562010d9a5762010e569062006777565b9085928451511562010d915762010e6d8262006777565b965b85515181101562010fdb5760008080805b86811062010ef25750905062010e9c8162010a81858762005ab0565b600681101562003d035760031462010ec1575b5062010ebb9062005a5a565b62010e6f565b6000905b80821062010ed4575062010eaf565b909562010ae362010eeb9162010ad6898d62005ab0565b9062010ec5565b62010f0b8162010f04878d5162005ab0565b516201124f565b9390948083118062010fc7575b1562010f7e57505091838562010f74575b600681101562003d035760038e911462010f54575b505062010f4b9062005a5a565b91909162010e80565b9462010f6b9162000b138262010f4b959862005ab0565b93908c62010f3e565b6000955062010f29565b809492959195148062010fb3575b1562010f3e57600681101562003d035760038e911462010f5457505062010f4b9062005a5a565b50600681101562003d035780151562010f8c565b50600686101562003d035785151562010f18565b5093505090929350600093845b8351861015620110fd576201100262010c01878662005ab0565b9060068083101562003d035760029283036201102d57505062011026909562005a5a565b9462010fe8565b6201103d62010c01898862005ab0565b928184101562003d0357600380941480620110e9575b15620110685750505062011026909562005a5a565b6201107d62010c018a899b9694959b62005ab0565b928084101562003d035760058094149283620110d2575b5082620110bc575b5050620110b0575b50620110269062005a5a565b955062011026620110a4565b90915088101562003d035787141538806201109c565b908093508a101562003d0357891415913862011094565b508183101562003d03578083141562011053565b925092909350600682101562003d0357600382036201114c575b620111228162006777565b9360005b82811062011135575050509190565b8062010d7562011146928462005ab0565b62011126565b50600062011117565b156201115d57565b60405162461bcd60e51b815260206004820152602860248201527f506c7567696e466163746f72793a20706c7567696e20696e646578206f7574206044820152676f662072616e676560c01b6064820152608490fd5b9091600080938193620111cc6201388254831062011155565b60ff6005620111db84620067f1565b50015460081c161562011243578282620111f7926001620113bb565b62011203575b50929190565b8094506001929350620112179150620067f1565b5001549060036201123860ff6201122e86620067f1565b50541694620067f1565b5001549138620111fd565b50509150915080918190565b9091600080938193620112686201388354831062011155565b60ff60056201127784620067af565b50015460081c161562011243578282620112929282620113bb565b6201129d5750929190565b8094506001929350620112b19150620067af565b5001549060036201123860ff620112c886620067af565b50541694620067af565b15620112da57565b60405162461bcd60e51b815260206004820152603160248201527f436865636b696e6720636f6e646974696f6e206578703a20706c7567696e20696044820152706e646578206f7574206f662072616e676560781b6064820152608490fd5b156201134157565b60405162461bcd60e51b815260206004820152602f60248201527f436865636b696e6720636f6e646974696f6e206578703a206e6f646520696e6460448201526e6578206f7574206f662072616e676560881b6064820152608490fd5b805482101562005a78576000526009602060002091020190600090565b9092919080156201172a57620113d762013882548310620112d2565b620113f36002620113e884620067f1565b500154841062011339565b80156201170c576201142360016201141a8560026201141287620067f1565b50016201139e565b50015460ff1690565b6201142e8162003db9565b806201143e575050505050600090565b620114498162003db9565b600381036201145c575050505050600190565b620114678162003db9565b600481036201147a575050505050600090565b620114858162003db9565b6001908082036201149e57505092620069809362011752565b909293620114ac8262003db9565b6002809214620114c2575b505050505050600090565b8215620116ef57620114eb84620114df8385620114128a620067f1565b50015460081c60ff1690565b925b60009586865b6201167d575b50620115058762006777565b9760005b88811062011620575050505050620115218262003cf8565b8183036201158057505091906000915b8183106201153f5750505090565b909192806201155d575b62011555909362005a5a565b919062011531565b50620115556201157862011572858462005ab0565b51151590565b905062011549565b9091506201158e8262003cf8565b8103620115e757509060009182915b818310620115ab5750505090565b9091928015620115ca575b620115c2909362005a5a565b91906201159d565b50620115c2620115df62011572858462005ab0565b9050620115b6565b60039150620115f68162003cf8565b14620116095750388080808080620114b7565b6201161c62011572620069809262005a6a565b1590565b808a6201165c6201165362011649848b620116418c82620114128d620067af565b500162006ac7565b90549060031b1c90565b868689620113bb565b6201167062011677946200046b9362005ab0565b9015159052565b62011509565b846201168f85826201141286620067af565b500154811015620116e957620116b56201164982876201164188826201141289620067af565b620116ce575b620116c7879162005a5a565b90620114f3565b96620116c7620116df889262005a5a565b98915050620116bb565b620114f9565b6201170584620114df8385620114128a620067af565b92620114ed565b6201172460016201141a8560026201141287620067af565b62011423565b6201173b62013883548310620112d2565b6201174c6002620113e884620067af565b620113f3565b9092916003620117a49183600014620118265760ff60016201177b8760026201141286620067f1565b50015460101c16945b841562011815576002620114126201179c93620067f1565b5001620044e5565b91603d81101562003d0357602c8103620117e5575050620117c86020915162005a6a565b51910151602281101562003d0357620117e19062012fee565b1490565b90929060018103620117fa5750505050600090565b6003146201180a57505050600090565b620069809262011896565b6002620114126201179c93620067af565b60ff60016201183c8760026201141286620067af565b50015460101c169462011784565b156201185257565b606460405162461bcd60e51b815260206004820152602060248201527f4f70657261746f722061646472657373206973206e6f742070726f76696465646044820152fd5b9190608062006dcd9201620118b06001825151146201184a565b620118cb6001620118c2835162005a6a565b5151146201184a565b516001600160a01b03928391620118e3919062005a6a565b51169215620118f25751161490565b51161490565b919082018092116200322957565b620119118162003db9565b6201191f6200d14962012f85565b6201192a8162003db9565b60018103620119495750620119426200d17562012f85565b6201388b55565b620119548162003db9565b600281036201196557506201388c55565b620119708162003db9565b600381036201198157506201388d55565b806201198f60049262003db9565b14620119985750565b6201388e55565b15620119a757565b60405162461bcd60e51b815260206004820152604d60248201527f546865206c656e677468206f662074686520706c7567696e20696e646578657360448201527f20617272617920616e642074686520626f6f6c65616e206172726179206d757360648201526c74206265207468652073616d6560981b608482015260a490fd5b1562011a3057565b60405162461bcd60e51b815260206004820152602260248201527f496e76616c696420706c7567696e20696e64657820746f20626520656e61626c604482015261195960f21b6064820152608490fd5b1562011a8857565b60405162461bcd60e51b815260206004820152602b60248201527f54686520706c7567696e20746f20626520656e61626c6564206973206e6f742060448201526a1a5b9a5d1a585b1a5e995960aa1b6064820152608490fd5b1562011ae957565b60405162461bcd60e51b815260206004820152602b60248201527f54686520706c7567696e20746f20626520656e61626c656420697320616c726560448201526a18591e48195b98589b195960aa1b6064820152608490fd5b1562011b4a57565b60405162461bcd60e51b815260206004820152602360248201527f496e76616c696420706c7567696e20696e64657820746f2062652064697361626044820152621b195960ea1b6064820152608490fd5b1562011ba357565b60405162461bcd60e51b815260206004820152602c60248201527f54686520706c7567696e20746f2062652064697361626c6564206973206e6f7460448201526b081a5b9a5d1a585b1a5e995960a21b6064820152608490fd5b1562011c0557565b60405162461bcd60e51b815260206004820152602d60248201527f54686520706c7567696e20746f2062652064697361626c656420697320616c7260448201526c1958591e48191a5cd8589b1959609a1b6064820152608490fd5b1562011c6857565b60405162461bcd60e51b815260206004820152603060248201527f546865206c656e677468206f662074617267657420616e6420746f6b656e436c60448201526f185cdcc81a5cc81b9bdd08195c5d585b60821b6064820152608490fd5b1562011cce57565b60405162461bcd60e51b815260206004820152602c60248201527f546865206c656e677468206f662074617267657420616e6420616d6f756e742060448201526b1a5cc81b9bdd08195c5d585b60a21b6064820152608490fd5b1562011d3057565b60405162461bcd60e51b815260206004820152602260248201527f54686520746f6b656e20636c617373206973206e6f7420696e697469616c697a604482015261195960f21b6064820152608490fd5b1562011d8857565b60405162461bcd60e51b815260206004820152602960248201527f54686520746f74616c20737570706c79206f662074686520746f6b656e206973604482015268206f766572666c6f7760b81b6064820152608490fd5b1562011de757565b60405162461bcd60e51b8152602060048201526024808201527f5468652062616c616e6365206f662074686520746f6b656e206973206f766572604482015263666c6f7760e01b6064820152608490fd5b1562011e4057565b606460405162461bcd60e51b815260206004820152602060248201527f54686520746f6b656e20697320616c726561647920696e697469616c697a65646044820152fd5b604081019062011e9a6101008351015162005a6a565b519162011ebc60e062011eb1818451015162005a6a565b519251015162005a8e565b519362011ed184518351146200046462012e52565b62011ee484518651146200046462012e52565b60005b845181101562011f415762011efd818462005ab0565b519061271082101562005a785762011f3b9160018060a01b03865116600052600390811b016020526200046b60406000205462007da0838a62005ab0565b62011ee7565b5092919360005b83518110156201206c5762011f5e818462005ab0565b5190612710918281101562005a785760018060a01b03908189511660005260039081602091811b01815262011f9e60406000205462007e0d868962005ab0565b9062011fab868a62005ab0565b51918783101562005a78578462011fd893878f5116600052811b0184526040600020556200046462012f56565b62011fe4848862005ab0565b518581101562005a785782908462011ffd878c62005ab0565b5116600052811b0181526201201d60406000205462006dd4868962005ab0565b9190926201202c868a62005ab0565b519687101562005a785762012066966200046b956201204c888d62005ab0565b5116600052811b0190526040600020556200046462012fbb565b62011f48565b50506200e8306201207d9162012c2b565b90604051936201208d8562003bea565b60018552602036818701376001600160a01b036106e0819052905116620120b48562005a6a565b526000935b8151851015620123d757620120cf858362005ab0565b5194620120dd845162006777565b91600093620120ed825162006777565b6106a0528496855b875181101562012196576201211c6106e05162012113838b62005ab0565b51168b620129f8565b15806201215e575b6201213b575b620121359062005a5a565b620120f5565b956201215562012135916106e0516200977d8a8c62005ab0565b9690506201212a565b506127108a101562005a78576106e0516201217a828a62005ab0565b511660005260038a811b01602052604060002054151562012124565b509793929096949195976000986127108610159560031b9860038a019a5b895181101562012230578762005a78576106e051620121d4828c62005ab0565b51166000528b60205260406000205415620121fb575b620121f59062005a5a565b620121b4565b9762012227620121f5918b620122168c6106e0519262005ab0565b511662000b13826106a05162005ab0565b989050620121ea565b50949591939650985096909596806106805262005a785760040180610640525495620122616200811f8689620118f8565b61066052600097886106c0525b6106805162005a78576106c051888110156201230c576201229d620122b3916000610680526106405162006ac7565b6106e05191549060031b1c166106a05162012aba565b15620122d2575b620122c86106c05162005a5a565b6106c0526201226e565b976201230590620122ea6106c0516106405162006ac7565b6106e05191549060031b1c1662000b13826106605162005ab0565b97620122ba565b5095939096509690969391936000915b838310620123a657505050506106805162005a785761066051516001600160401b03811162003b9b5762012354816106405162005b96565b6020610660510161064051600052602060002060006106e051905b8481106201238f575050505050620123879062005a5a565b9392620120b9565b60019060208386511695019481850155016201236f565b620082b0620123d0916106e051620123bf868662005ab0565b511662000b13826106605162005ab0565b916201231c565b5050509050565b9080620123e9575050565b620041d091600052601f6020600020910160051c81019062005b56565b90600160401b811162003b9b5781548183558082106201242557505050565b620041d092600052601f6020600020918180850160051c840194168062012454575b500160051c019062005b56565b600019908186019182549160200360031b1c1690553862012447565b9060031b60ff811b9283911b169119161790565b62013884805482101562005a78576000526007602060002091020190600090565b600092620124bf620124b8859462012484565b5062004393565b9380935b855151851015620125ad575061271084101562005a785760039380851b9460018060a01b038516600052602090860181526201250c6040966001886000205491015490620069da565b93849115620125785790620125219162006c06565b9690156201253e575050620125369062005a5a565b9390620124c3565b60649250519062461bcd60e51b825260048201526014602482015273746f74616c20706f776572206f766572666c6f7760601b6044820152fd5b875162461bcd60e51b815260048101849052600e60248201526d706f776572206f766572666c6f7760901b6044820152606490fd5b93505092505090565b15620125be57565b60405162461bcd60e51b815260206004820152601360248201527263757272656e74596573206f766572666c6f7760681b6044820152606490fd5b6001620126068262012484565b5001546202712e546000928184526202712b90816020526201262f816003604088200162006ac7565b90549060031b1c918386528060205262012650826004604089200162006ac7565b90549060031b1c93865260205260ff6006620126856201267784600560408b200162006ac7565b90549060031b1c9362012484565b50015416620126d35750620126c39262001767620126b59383620126ad620126bb95620069a4565b9690620125b6565b620118f8565b9290620125b6565b1115620126cd5790565b50600190565b6200d4619250620126c393620126ed620126bb93620069a4565b9490620125b6565b9092919262012705825162006777565b60009162012714815162006777565b8390845b8651811015620127af576001600160a01b036201273b8162012113848b62005ab0565b15806201277a575b6201275b575b50620127559062005a5a565b62012718565b81966201277291620082a262012755948b62005ab0565b959062012749565b506127108a101562005a78578062012793838a62005ab0565b511660005260038a811b01602052604060002054151562012743565b509295919694509260005b87518110156201283e5761271086101562005a78576001600160a01b0380620127e4838b62005ab0565b5116600052600387811b016020526040600020541562012811575b506201280b9062005a5a565b620127ba565b81956201283691620128286201280b948c62005ab0565b511662000b13828862005ab0565b9490620127ff565b509250945092612710831015938462005a785760049586600395861b01968754946201286f6200811f8288620118f8565b9460009689889a5b620129e357818b10156201291857506000998b620128b26201289a838362006ac7565b90546001600160a01b0392918e1b1c82168a62012aba565b15620128d5575b505090620128ca8b94939262005a5a565b9a9091929362012877565b91998c959493929091620128eb908c9062006ac7565b9054908d1b1c16620128fe828b62005ab0565b526201290a9062005a5a565b9890919293508b38620128b9565b9697949a98505091975092506000915b838310620129be5750505050620129a9578051926001600160401b03841162012994575062012958838362005b96565b602080910191600052806000209060005b84811062012978575050505050565b83516001600160a01b0316838201559281019260010162012969565b604190634e487b7160e01b6000525260246000fd5b603283634e487b7160e01b6000525260246000fd5b620129dc90620082b0906001600160a01b036200977d868662005ab0565b9162012928565b603285634e487b7160e01b6000525260246000fd5b9060005b61271083101562005a78576003600484821b01805483101562012a57578262012a259162006ac7565b9054911b1c6001600160a01b039081169083161462012a4f5762012a499062005a5a565b620129fc565b505050600190565b5050505050600090565b9060005b61271083101562005a785760036201389784821b01805483101562012a57578262012a909162006ac7565b9054911b1c6001600160a01b039081169083161462012a4f5762012ab49062005a5a565b62012a65565b9060005b825181101562012af9576001600160a01b038062012add838662005ab0565b51169083161462012a4f5762012af39062005a5a565b62012abe565b505050600090565b801562003229576000190190565b9081519060005b600019838101848111620032295782101562012bdd576001820180831162003229575b84811062012b5457505062012b4e9062005a5a565b62012b16565b6001600160a01b038062012b69858962005ab0565b51168162012b78848a62005ab0565b51161462012b93575b5062012b8d9062005a5a565b62012b39565b8286929601828111620032295762012b8d9262012bd69262012bba62012bcf938b62005ab0565b511662012bc8898b62005ab0565b5262012b01565b9562012b01565b9062012b81565b50509062012beb8162006777565b9060005b81811062012bfe575090925050565b62012c25906001600160a01b0362012c17828862005ab0565b511662000b13828662005ab0565b62012bef565b80519160005b600019848101858111620032295782101562012ce3576001820180831162003229575b85811062012c6f57505062012c699062005a5a565b62012c31565b62012c7b838662005ab0565b5162012c88828762005ab0565b511462012ca1575b62012c9b9062005a5a565b62012c54565b9481810190808211620032295762012cd462012cdb9162012cc762012c9b948962005ab0565b5162012bc88a8a62005ab0565b9662012b01565b905062012c90565b5050909162012cf28162006777565b9060005b81811062012d05575090925050565b8062012d1662012d23928762005ab0565b5162000b13828662005ab0565b62012cf6565b60405162012d378162003b7f565b604481527f496e76616c6964206469766964656e64207065726d797269616420706572207460208201527f72616e73616374696f6e2e2053686f756c64206265206c657373207468616e206040820152630313030360e41b606082015290565b60405162012da58162003c22565b603281527f4e6f20656e6f756768206e756d626572206f66207472616e73616374696f6e7360208201527108199bdc88191a5d9a59195b991cc81e595d60721b604082015290565b60405162012dfb8162003bea565b601c81527b6469766964656e6473206f7065726174696f6e206f766572666c6f7760201b602082015290565b60405162012e358162003bea565b600d81526c2ab735b737bbb71022b93937b960991b602082015290565b60405162012e608162003bea565b6012815271496e76616c696420506172616d657465727360701b602082015290565b60405162012e908162003bea565b601581527413595b58995c88191bd95cc81b9bdd08195e1a5cdd605a1b602082015290565b60405162012ec38162003bea565b601781527613595b58995c881a5cc81b9bdd081cdd5cdc195b991959604a1b602082015290565b60405162012ef88162003bea565b601b81527a13595b58995c881a5cc8185b1c9958591e481cdd5cdc195b991959602a1b602082015290565b60405162012f318162003bea565b60158152744d656d62657220616c72656164792065786973747360581b602082015290565b60405162012f648162003bea565b60118152704e6f20656e6f7567682062616c616e636560781b602082015290565b60405162012f938162003bea565b6018815277125b9d985b1a59081c185c985b595d195c881d1bc81cd95d60421b602082015290565b60405162012fc98162003bea565b6015815274546f6b656e20616d6f756e74206f766572666c6f7760581b602082015290565b602281101562003d03578015620131dc5760018114620126cd5760028114620131d65760038114620131d05760048114620131ca5760058114620131c45760068114620131be5760078114620131b85760088114620131b25760098114620131ac57600a8114620131a657600b8114620131a057600c81146201319a57600d81146201319457600e81146201318e57600f81146201318857601081146201318257601181146201317c57601281146201317657601381146201317057601481146201316a57601581146201316457601881146201315e57601781146201315857601981146201315257601a81146201314c57601b81146201314657601c81146201314057601d81146201313a57601e81146201313457601f81146201312e576020811462013128576021146201312357600090565b602190565b50602090565b50601f90565b50601e90565b50601d90565b50601c90565b50601b90565b50601a90565b50601990565b50601790565b50601690565b50601590565b50601490565b50601390565b50601290565b50601190565b50601090565b50600f90565b50600e90565b50600d90565b50600c90565b50600b90565b50600a90565b50600990565b50600890565b50600790565b50600690565b50600590565b50600490565b50600390565b50600290565b50600090565b90815181101562005a78570160200190565b60405190620132038262003c22565b60288252604036602084013760005b601481106201322057505090565b6013908082039182116200322957600382901b916001600160fd1b03811603620032295760ff8083116200322957600192620132699084901b6001600160a01b03861662006983565b60f081168282160391821162003229576201328d9060f41b600f60f81b16620132f6565b82841b916001600160ff1b03841684036200322957620132ca9160001a620132b68489620131e2565b5360f81b6001600160f81b031916620132f6565b9281018091116200322957620132e9620132f09360001a9186620131e2565b5362005a5a565b62013212565b60f81c600a8110156201331f5760300160ff8111620032295760f81b6001600160f81b03191690565b60570160ff8111620032295760f81b6001600160f81b0319169056fe546865206c656e677468206f662061646472657373657320616e6420746f6b651f4fe3ad533e3985b88710ce05a205152f02825e155777f3bcb8b3bbfcfb03a24ad859a97f543436e70c22b09d31fb4c7b9e987d7a008c98817c9b50a97b1224546865206c656e677468206f6620746f6b656e436c61737320616e6420746f6b546865206c656e677468206f6620746f6b656e496e666f20616e6420746f6b658e71c125ecfe4aeed61c8cf4b09183dd0bf2a3230d826486f04e5f6f0de58e2c18baa939e2e21be0e012ec26e9ec87e9e6faa065bd9f5835250457786300ece8546865206265666f7265206f7065726174696f6e20706c7567696e2073797374546865206c656e677468206f662061646472657373657320616e6420616d6f75a26469706673582212205acddd0e839937cf85abeb6e0ca1497280e5aef0b9680f5ad71a86008aa58f3864736f6c63430008110033",
    "linkReferences": {},
    "deployedLinkReferences": {}
}